{
  "_format": "hh-sol-artifact-1",
  "contractName": "MedianOracle",
  "sourceName": "contracts/tellor360/testing/MedianOracle.sol",
  "abi": [
    {
      "constant": true,
      "inputs": [],
      "name": "reportDelaySec",
      "outputs": [
        {
          "name": "",
          "type": "uint256"
        }
      ],
      "payable": false,
      "stateMutability": "view",
      "type": "function"
    },
    {
      "constant": false,
      "inputs": [
        {
          "name": "payload",
          "type": "uint256"
        }
      ],
      "name": "pushReport",
      "outputs": [],
      "payable": false,
      "stateMutability": "nonpayable",
      "type": "function"
    },
    {
      "constant": false,
      "inputs": [],
      "name": "getData",
      "outputs": [
        {
          "name": "",
          "type": "uint256"
        },
        {
          "name": "",
          "type": "bool"
        }
      ],
      "payable": false,
      "stateMutability": "nonpayable",
      "type": "function"
    },
    {
      "constant": false,
      "inputs": [
        {
          "name": "provider",
          "type": "address"
        }
      ],
      "name": "addProvider",
      "outputs": [],
      "payable": false,
      "stateMutability": "nonpayable",
      "type": "function"
    },
    {
      "constant": true,
      "inputs": [
        {
          "name": "",
          "type": "uint256"
        }
      ],
      "name": "providers",
      "outputs": [
        {
          "name": "",
          "type": "address"
        }
      ],
      "payable": false,
      "stateMutability": "view",
      "type": "function"
    },
    {
      "constant": false,
      "inputs": [],
      "name": "renounceOwnership",
      "outputs": [],
      "payable": false,
      "stateMutability": "nonpayable",
      "type": "function"
    },
    {
      "constant": false,
      "inputs": [
        {
          "name": "provider",
          "type": "address"
        }
      ],
      "name": "removeProvider",
      "outputs": [],
      "payable": false,
      "stateMutability": "nonpayable",
      "type": "function"
    },
    {
      "constant": true,
      "inputs": [],
      "name": "owner",
      "outputs": [
        {
          "name": "",
          "type": "address"
        }
      ],
      "payable": false,
      "stateMutability": "view",
      "type": "function"
    },
    {
      "constant": true,
      "inputs": [],
      "name": "isOwner",
      "outputs": [
        {
          "name": "",
          "type": "bool"
        }
      ],
      "payable": false,
      "stateMutability": "view",
      "type": "function"
    },
    {
      "constant": true,
      "inputs": [],
      "name": "minimumProviders",
      "outputs": [
        {
          "name": "",
          "type": "uint256"
        }
      ],
      "payable": false,
      "stateMutability": "view",
      "type": "function"
    },
    {
      "constant": false,
      "inputs": [],
      "name": "purgeReports",
      "outputs": [],
      "payable": false,
      "stateMutability": "nonpayable",
      "type": "function"
    },
    {
      "constant": false,
      "inputs": [
        {
          "name": "reportDelaySec_",
          "type": "uint256"
        }
      ],
      "name": "setReportDelaySec",
      "outputs": [],
      "payable": false,
      "stateMutability": "nonpayable",
      "type": "function"
    },
    {
      "constant": true,
      "inputs": [],
      "name": "providersSize",
      "outputs": [
        {
          "name": "",
          "type": "uint256"
        }
      ],
      "payable": false,
      "stateMutability": "view",
      "type": "function"
    },
    {
      "constant": true,
      "inputs": [],
      "name": "reportExpirationTimeSec",
      "outputs": [
        {
          "name": "",
          "type": "uint256"
        }
      ],
      "payable": false,
      "stateMutability": "view",
      "type": "function"
    },
    {
      "constant": false,
      "inputs": [
        {
          "name": "minimumProviders_",
          "type": "uint256"
        }
      ],
      "name": "setMinimumProviders",
      "outputs": [],
      "payable": false,
      "stateMutability": "nonpayable",
      "type": "function"
    },
    {
      "constant": true,
      "inputs": [
        {
          "name": "",
          "type": "address"
        },
        {
          "name": "",
          "type": "uint256"
        }
      ],
      "name": "providerReports",
      "outputs": [
        {
          "name": "timestamp",
          "type": "uint256"
        },
        {
          "name": "payload",
          "type": "uint256"
        }
      ],
      "payable": false,
      "stateMutability": "view",
      "type": "function"
    },
    {
      "constant": false,
      "inputs": [
        {
          "name": "newOwner",
          "type": "address"
        }
      ],
      "name": "transferOwnership",
      "outputs": [],
      "payable": false,
      "stateMutability": "nonpayable",
      "type": "function"
    },
    {
      "constant": false,
      "inputs": [
        {
          "name": "reportExpirationTimeSec_",
          "type": "uint256"
        }
      ],
      "name": "setReportExpirationTimeSec",
      "outputs": [],
      "payable": false,
      "stateMutability": "nonpayable",
      "type": "function"
    },
    {
      "inputs": [
        {
          "name": "reportExpirationTimeSec_",
          "type": "uint256"
        },
        {
          "name": "reportDelaySec_",
          "type": "uint256"
        },
        {
          "name": "minimumProviders_",
          "type": "uint256"
        }
      ],
      "payable": false,
      "stateMutability": "nonpayable",
      "type": "constructor"
    },
    {
      "anonymous": false,
      "inputs": [
        {
          "indexed": false,
          "name": "provider",
          "type": "address"
        }
      ],
      "name": "ProviderAdded",
      "type": "event"
    },
    {
      "anonymous": false,
      "inputs": [
        {
          "indexed": false,
          "name": "provider",
          "type": "address"
        }
      ],
      "name": "ProviderRemoved",
      "type": "event"
    },
    {
      "anonymous": false,
      "inputs": [
        {
          "indexed": false,
          "name": "provider",
          "type": "address"
        }
      ],
      "name": "ReportTimestampOutOfRange",
      "type": "event"
    },
    {
      "anonymous": false,
      "inputs": [
        {
          "indexed": true,
          "name": "provider",
          "type": "address"
        },
        {
          "indexed": false,
          "name": "payload",
          "type": "uint256"
        },
        {
          "indexed": false,
          "name": "timestamp",
          "type": "uint256"
        }
      ],
      "name": "ProviderReportPushed",
      "type": "event"
    },
    {
      "anonymous": false,
      "inputs": [
        {
          "indexed": true,
          "name": "previousOwner",
          "type": "address"
        },
        {
          "indexed": true,
          "name": "newOwner",
          "type": "address"
        }
      ],
      "name": "OwnershipTransferred",
      "type": "event"
    }
  ],
  "bytecode": "0x6080604052600160055534801561001557600080fd5b50604051606080610f6083398101604081815282516020840151919093015160008054600160a060020a031916331780825592939192600160a060020a0316917f8be0079c531659141344cd1fd0a4f28419497f9722a3daafe3b4186f6b6457e0908290a36312bed40083111561008b57600080fd5b6000811161009857600080fd5b600392909255600455600555610ead806100b36000396000f3006080604052600436106100fb5763ffffffff7c010000000000000000000000000000000000000000000000000000000060003504166312e800f181146101005780631e20d14b146101275780633bc5de301461014157806346e2577a1461016f57806350f3fc8114610190578063715018a6146101c45780638a355a57146101d95780638da5cb5b146101fa5780638f32d59b1461020f578063b577c0c714610238578063d13d59711461024d578063da6b0eea14610262578063dcbb82531461027a578063df9829851461028f578063ef35bcce146102a4578063f10864b6146102bc578063f2fde38b146102f9578063f68be5131461031a575b600080fd5b34801561010c57600080fd5b50610115610332565b60408051918252519081900360200190f35b34801561013357600080fd5b5061013f600435610338565b005b34801561014d57600080fd5b50610156610454565b6040805192835290151560208301528051918290030190f35b34801561017b57600080fd5b5061013f600160a060020a03600435166107aa565b34801561019c57600080fd5b506101a8600435610887565b60408051600160a060020a039092168252519081900360200190f35b3480156101d057600080fd5b5061013f6108af565b3480156101e557600080fd5b5061013f600160a060020a0360043516610919565b34801561020657600080fd5b506101a8610a65565b34801561021b57600080fd5b50610224610a75565b604080519115158252519081900360200190f35b34801561024457600080fd5b50610115610a86565b34801561025957600080fd5b5061013f610a8c565b34801561026e57600080fd5b5061013f600435610aca565b34801561028657600080fd5b50610115610ae2565b34801561029b57600080fd5b50610115610ae8565b3480156102b057600080fd5b5061013f600435610aee565b3480156102c857600080fd5b506102e0600160a060020a0360043516602435610b13565b6040805192835260208301919091528051918290030190f35b34801561030557600080fd5b5061013f600160a060020a0360043516610b42565b34801561032657600080fd5b5061013f600435610b61565b60045481565b600080610343610dbe565b50503360008181526002602081815260408084208151808301909252805480835293810154928201929092529394509291908190811061038257600080fd5b602083015183511015610396576001610399565b60005b9150816001039050426103ca600454858560ff166002811015156103b957fe5b60200201519063ffffffff610b8a16565b11156103d557600080fd5b428460ff8316600281106103e557fe5b600202016000018190555085848260ff1660028110151561040257fe5b6002020160010155604080518781524260208201528151600160a060020a038816927f460fcc5a1888965d48c2cab000fe20da51b1297d995af79a1924e2312d0d82b3928290030190a2505050505050565b60008060006060600080600080600061046b610dd9565b6000806000806001805490509b508b6040519080825280602002602001820160405280156104a3578160200160208202803883390190505b509a50600099506104bf60035442610ba390919063ffffffff16565b98506104d660045442610ba390919063ffffffff16565b9750600096505b8b8710156107735760018054889081106104f357fe5b6000918252602080832090910154600160a060020a03168083526002918290526040808420815180830190925291995092909190835b82821015610565578382600202016040805190810160405290816000820154815260200160018201548152505081526020019060010190610529565b50929750879250600191506105779050565b602002015151855151101561058d576001610590565b60005b9350600184900392508460ff8516600281106105a857fe5b6020020151519150878211156106cf57600160a060020a03861660009081526002602081905260409091209060ff85169081106105e157fe5b60020201549050888110156106315760408051600160a060020a038816815290517f71f61642cb57ac11764a2f35fb4edc5361ced458af35bbed8f5ebf708c10e3419181900360200190a16106ca565b8781111561067a5760408051600160a060020a038816815290517f71f61642cb57ac11764a2f35fb4edc5361ced458af35bbed8f5ebf708c10e3419181900360200190a16106ca565b600160a060020a03861660009081526002602081905260409091209060ff85169081106106a357fe5b60020201600101548b8b806001019c508151811015156106bf57fe5b602090810290910101525b610768565b888210156107185760408051600160a060020a038816815290517f71f61642cb57ac11764a2f35fb4edc5361ced458af35bbed8f5ebf708c10e3419181900360200190a1610768565b600160a060020a03861660009081526002602081905260409091209060ff861690811061074157fe5b60020201600101548b8b806001019c5081518110151561075d57fe5b602090810290910101525b6001909601956104dd565b6005548a10156107895760009d508d9c5061079a565b6107938b8b610bba565b60019d509d505b5050505050505050505050509091565b6107b2610a75565b15156107bd57600080fd5b600160a060020a038116600090815260026020526040902054156107e057600080fd5b6001805480820182557fb10e2d527612073b26eecdfd717e6a320cf44b4afac2b0732d9fcbe2b7fa0cf601805473ffffffffffffffffffffffffffffffffffffffff1916600160a060020a038416908117909155600090815260026020526040812090600202015560408051600160a060020a038316815290517fae9c2c6481964847714ce58f65a7f6dcc41d0d8394449bacdf161b5920c4744a9181900360200190a150565b600180548290811061089557fe5b600091825260209091200154600160a060020a0316905081565b6108b7610a75565b15156108c257600080fd5b60008054604051600160a060020a03909116907f8be0079c531659141344cd1fd0a4f28419497f9722a3daafe3b4186f6b6457e0908390a36000805473ffffffffffffffffffffffffffffffffffffffff19169055565b6000610923610a75565b151561092e57600080fd5b600160a060020a038216600090815260026020526040812061094f91610e07565b5060005b600154811015610a615781600160a060020a031660018281548110151561097657fe5b600091825260209091200154600160a060020a03161415610a59576001805490820114610a04576001805460001981019081106109af57fe5b60009182526020909120015460018054600160a060020a0390921691839081106109d557fe5b9060005260206000200160006101000a815481600160a060020a030219169083600160a060020a031602179055505b6001805490610a17906000198301610e23565b5060408051600160a060020a038416815290517f1589f8555933761a3cff8aa925061be3b46e2dd43f621322ab611d300f62b1d99181900360200190a1610a61565b600101610953565b5050565b600054600160a060020a03165b90565b600054600160a060020a0316331490565b60055481565b3360008181526002602052604081205411610aa657600080fd5b600160a060020a031660009081526002602081905260409091206001808255910155565b610ad2610a75565b1515610add57600080fd5b600455565b60015490565b60035481565b610af6610a75565b1515610b0157600080fd5b60008111610b0e57600080fd5b600555565b600260205281600052604060002081600281101515610b2e57fe5b600202018054600190910154909250905082565b610b4a610a75565b1515610b5557600080fd5b610b5e81610d41565b50565b610b69610a75565b1515610b7457600080fd5b6312bed400811115610b8557600080fd5b600355565b600082820183811015610b9c57600080fd5b9392505050565b60008083831115610bb357600080fd5b5050900390565b600080600080600085118015610bd1575084865110155b1515610bdc57600080fd5b600192505b84831015610cb4578291505b600082118015610c2d57508582815181101515610c0657fe5b906020019060200201518660018403815181101515610c2157fe5b90602001906020020151115b15610ca9578582815181101515610c4057fe5b9060200190602002015190508560018303815181101515610c5d57fe5b906020019060200201518683815181101515610c7557fe5b602090810290910101528551819087906000198501908110610c9357fe5b6020908102909101015260001990910190610bed565b600190920191610be1565b6002850660011415610ce2578560028604815181101515610cd157fe5b906020019060200201519350610d38565b6002610d2b87600183890403815181101515610cfa57fe5b602090810290910101518860028904815181101515610d1557fe5b602090810290910101519063ffffffff610b8a16565b811515610d3457fe5b0493505b50505092915050565b600160a060020a0381161515610d5657600080fd5b60008054604051600160a060020a03808516939216917f8be0079c531659141344cd1fd0a4f28419497f9722a3daafe3b4186f6b6457e091a36000805473ffffffffffffffffffffffffffffffffffffffff1916600160a060020a0392909216919091179055565b60408051808201825290600290829080388339509192915050565b6080604051908101604052806002905b610df1610e4c565b815260200190600190039081610de95790505090565b5060008082556001820181905560028201819055600390910155565b815481835581811115610e4757600083815260209020610e47918101908301610e63565b505050565b604080518082019091526000808252602082015290565b610a7291905b80821115610e7d5760008155600101610e69565b50905600a165627a7a72305820ef0cb8f90c061ed26cbc5d1c0d8b565fde646dd2fc8ac90fc9d5c05695ca091c0029",
  "linkReferences": {},
  "deployedLinkReferences": {}
}