{
  "_format": "hh-sol-artifact-1",
  "contractName": "TestToken",
  "sourceName": "contracts/tellor360/oldContracts/contracts/testing/TestToken.sol",
  "abi": [
    {
      "anonymous": false,
      "inputs": [
        {
          "indexed": true,
          "internalType": "address",
          "name": "_owner",
          "type": "address"
        },
        {
          "indexed": true,
          "internalType": "address",
          "name": "_spender",
          "type": "address"
        },
        {
          "indexed": false,
          "internalType": "uint256",
          "name": "_value",
          "type": "uint256"
        }
      ],
      "name": "Approval",
      "type": "event"
    },
    {
      "anonymous": false,
      "inputs": [
        {
          "indexed": false,
          "internalType": "address",
          "name": "",
          "type": "address"
        },
        {
          "indexed": false,
          "internalType": "uint256",
          "name": "",
          "type": "uint256"
        }
      ],
      "name": "Received",
      "type": "event"
    },
    {
      "anonymous": false,
      "inputs": [
        {
          "indexed": true,
          "internalType": "address",
          "name": "_from",
          "type": "address"
        },
        {
          "indexed": true,
          "internalType": "address",
          "name": "_to",
          "type": "address"
        },
        {
          "indexed": false,
          "internalType": "uint256",
          "name": "_value",
          "type": "uint256"
        }
      ],
      "name": "Transfer",
      "type": "event"
    },
    {
      "inputs": [
        {
          "internalType": "address",
          "name": "",
          "type": "address"
        },
        {
          "internalType": "address",
          "name": "",
          "type": "address"
        }
      ],
      "name": "_allowances",
      "outputs": [
        {
          "internalType": "uint256",
          "name": "",
          "type": "uint256"
        }
      ],
      "stateMutability": "view",
      "type": "function"
    },
    {
      "inputs": [
        {
          "internalType": "bytes32",
          "name": "",
          "type": "bytes32"
        }
      ],
      "name": "addresses",
      "outputs": [
        {
          "internalType": "address",
          "name": "",
          "type": "address"
        }
      ],
      "stateMutability": "view",
      "type": "function"
    },
    {
      "inputs": [
        {
          "internalType": "address",
          "name": "_user",
          "type": "address"
        },
        {
          "internalType": "address",
          "name": "_spender",
          "type": "address"
        }
      ],
      "name": "allowance",
      "outputs": [
        {
          "internalType": "uint256",
          "name": "",
          "type": "uint256"
        }
      ],
      "stateMutability": "view",
      "type": "function"
    },
    {
      "inputs": [
        {
          "internalType": "address",
          "name": "_user",
          "type": "address"
        },
        {
          "internalType": "uint256",
          "name": "_amount",
          "type": "uint256"
        }
      ],
      "name": "allowedToTrade",
      "outputs": [
        {
          "internalType": "bool",
          "name": "",
          "type": "bool"
        }
      ],
      "stateMutability": "view",
      "type": "function"
    },
    {
      "inputs": [
        {
          "internalType": "address",
          "name": "_spender",
          "type": "address"
        },
        {
          "internalType": "uint256",
          "name": "_amount",
          "type": "uint256"
        }
      ],
      "name": "approve",
      "outputs": [
        {
          "internalType": "bool",
          "name": "",
          "type": "bool"
        }
      ],
      "stateMutability": "nonpayable",
      "type": "function"
    },
    {
      "inputs": [
        {
          "internalType": "address",
          "name": "_user",
          "type": "address"
        }
      ],
      "name": "balanceOf",
      "outputs": [
        {
          "internalType": "uint256",
          "name": "",
          "type": "uint256"
        }
      ],
      "stateMutability": "view",
      "type": "function"
    },
    {
      "inputs": [
        {
          "internalType": "address",
          "name": "_user",
          "type": "address"
        },
        {
          "internalType": "uint256",
          "name": "_blockNumber",
          "type": "uint256"
        }
      ],
      "name": "balanceOfAt",
      "outputs": [
        {
          "internalType": "uint256",
          "name": "",
          "type": "uint256"
        }
      ],
      "stateMutability": "view",
      "type": "function"
    },
    {
      "inputs": [
        {
          "internalType": "address",
          "name": "",
          "type": "address"
        },
        {
          "internalType": "uint256",
          "name": "",
          "type": "uint256"
        }
      ],
      "name": "balances",
      "outputs": [
        {
          "internalType": "uint128",
          "name": "fromBlock",
          "type": "uint128"
        },
        {
          "internalType": "uint128",
          "name": "value",
          "type": "uint128"
        }
      ],
      "stateMutability": "view",
      "type": "function"
    },
    {
      "inputs": [
        {
          "internalType": "bytes32",
          "name": "",
          "type": "bytes32"
        }
      ],
      "name": "bytesVars",
      "outputs": [
        {
          "internalType": "bytes32",
          "name": "",
          "type": "bytes32"
        }
      ],
      "stateMutability": "view",
      "type": "function"
    },
    {
      "inputs": [
        {
          "internalType": "uint256",
          "name": "",
          "type": "uint256"
        }
      ],
      "name": "currentMiners",
      "outputs": [
        {
          "internalType": "uint256",
          "name": "value",
          "type": "uint256"
        },
        {
          "internalType": "address",
          "name": "miner",
          "type": "address"
        }
      ],
      "stateMutability": "view",
      "type": "function"
    },
    {
      "inputs": [],
      "name": "decimals",
      "outputs": [
        {
          "internalType": "uint8",
          "name": "",
          "type": "uint8"
        }
      ],
      "stateMutability": "pure",
      "type": "function"
    },
    {
      "inputs": [
        {
          "internalType": "bytes32",
          "name": "",
          "type": "bytes32"
        }
      ],
      "name": "disputeIdByDisputeHash",
      "outputs": [
        {
          "internalType": "uint256",
          "name": "",
          "type": "uint256"
        }
      ],
      "stateMutability": "view",
      "type": "function"
    },
    {
      "inputs": [
        {
          "internalType": "uint256",
          "name": "",
          "type": "uint256"
        }
      ],
      "name": "disputesById",
      "outputs": [
        {
          "internalType": "bytes32",
          "name": "hash",
          "type": "bytes32"
        },
        {
          "internalType": "int256",
          "name": "tally",
          "type": "int256"
        },
        {
          "internalType": "bool",
          "name": "executed",
          "type": "bool"
        },
        {
          "internalType": "bool",
          "name": "disputeVotePassed",
          "type": "bool"
        },
        {
          "internalType": "bool",
          "name": "isPropFork",
          "type": "bool"
        },
        {
          "internalType": "address",
          "name": "reportedMiner",
          "type": "address"
        },
        {
          "internalType": "address",
          "name": "reportingParty",
          "type": "address"
        },
        {
          "internalType": "address",
          "name": "proposedForkAddress",
          "type": "address"
        }
      ],
      "stateMutability": "view",
      "type": "function"
    },
    {
      "inputs": [
        {
          "internalType": "address",
          "name": "",
          "type": "address"
        }
      ],
      "name": "migrated",
      "outputs": [
        {
          "internalType": "bool",
          "name": "",
          "type": "bool"
        }
      ],
      "stateMutability": "view",
      "type": "function"
    },
    {
      "inputs": [
        {
          "internalType": "bytes32",
          "name": "",
          "type": "bytes32"
        },
        {
          "internalType": "address",
          "name": "",
          "type": "address"
        }
      ],
      "name": "minersByChallenge",
      "outputs": [
        {
          "internalType": "bool",
          "name": "",
          "type": "bool"
        }
      ],
      "stateMutability": "view",
      "type": "function"
    },
    {
      "inputs": [
        {
          "internalType": "address",
          "name": "_to",
          "type": "address"
        },
        {
          "internalType": "uint256",
          "name": "_amount",
          "type": "uint256"
        }
      ],
      "name": "mint",
      "outputs": [],
      "stateMutability": "nonpayable",
      "type": "function"
    },
    {
      "inputs": [],
      "name": "name",
      "outputs": [
        {
          "internalType": "string",
          "name": "",
          "type": "string"
        }
      ],
      "stateMutability": "pure",
      "type": "function"
    },
    {
      "inputs": [
        {
          "internalType": "uint256",
          "name": "",
          "type": "uint256"
        }
      ],
      "name": "newValueTimestamps",
      "outputs": [
        {
          "internalType": "uint256",
          "name": "",
          "type": "uint256"
        }
      ],
      "stateMutability": "view",
      "type": "function"
    },
    {
      "inputs": [
        {
          "internalType": "bytes32",
          "name": "",
          "type": "bytes32"
        }
      ],
      "name": "requestIdByQueryHash",
      "outputs": [
        {
          "internalType": "uint256",
          "name": "",
          "type": "uint256"
        }
      ],
      "stateMutability": "view",
      "type": "function"
    },
    {
      "inputs": [],
      "name": "symbol",
      "outputs": [
        {
          "internalType": "string",
          "name": "",
          "type": "string"
        }
      ],
      "stateMutability": "pure",
      "type": "function"
    },
    {
      "inputs": [
        {
          "internalType": "address",
          "name": "_from",
          "type": "address"
        },
        {
          "internalType": "address",
          "name": "_to",
          "type": "address"
        }
      ],
      "name": "teamTransferDisputedStake",
      "outputs": [],
      "stateMutability": "nonpayable",
      "type": "function"
    },
    {
      "inputs": [],
      "name": "totalSupply",
      "outputs": [
        {
          "internalType": "uint256",
          "name": "",
          "type": "uint256"
        }
      ],
      "stateMutability": "view",
      "type": "function"
    },
    {
      "inputs": [
        {
          "internalType": "address",
          "name": "_to",
          "type": "address"
        },
        {
          "internalType": "uint256",
          "name": "_amount",
          "type": "uint256"
        }
      ],
      "name": "transfer",
      "outputs": [
        {
          "internalType": "bool",
          "name": "success",
          "type": "bool"
        }
      ],
      "stateMutability": "nonpayable",
      "type": "function"
    },
    {
      "inputs": [
        {
          "internalType": "address",
          "name": "_from",
          "type": "address"
        },
        {
          "internalType": "address",
          "name": "_to",
          "type": "address"
        },
        {
          "internalType": "uint256",
          "name": "_amount",
          "type": "uint256"
        }
      ],
      "name": "transferFrom",
      "outputs": [
        {
          "internalType": "bool",
          "name": "success",
          "type": "bool"
        }
      ],
      "stateMutability": "nonpayable",
      "type": "function"
    },
    {
      "inputs": [
        {
          "internalType": "bytes32",
          "name": "",
          "type": "bytes32"
        }
      ],
      "name": "uints",
      "outputs": [
        {
          "internalType": "uint256",
          "name": "",
          "type": "uint256"
        }
      ],
      "stateMutability": "view",
      "type": "function"
    },
    {
      "stateMutability": "payable",
      "type": "receive"
    }
  ],
  "bytecode": "0x608060405234801561001057600080fd5b506113e7806100206000396000f3fe60806040526004361061019a5760003560e01c80634ee2cd7e116100e1578063999cf26c1161008a578063cbf1304d11610064578063cbf1304d146105be578063d01f4d9e146105fe578063db085beb1461062b578063dd62ed3e146106f1576101d9565b8063999cf26c14610551578063a9059cbb14610571578063b59e14d414610591576101d9565b8063699f200f116100bb578063699f200f146104b757806370a082311461050557806395d89b4114610525576101d9565b80634ee2cd7e1461043d5780635700242c1461045d57806362dd1d2a1461048a576101d9565b806323b872dd11610143578063438c0aa31161011d578063438c0aa3146103b257806348b18e54146103d25780634ba0a5ee1461040d576101d9565b806323b872dd14610356578063313ce5671461037657806340c10f1914610392576101d9565b80630c8591b3116101745780630c8591b31461029a57806318160ddd146102bc5780631fd2236414610319576101d9565b8063024c2ddd146101de57806306fdde0314610229578063095ea7b31461026a576101d9565b366101d957604080513381523460208201527f88a5966d370b9919b20f3e2c13ff65706f196a4e32cc2c12bf57088f88525874910160405180910390a1005b600080fd5b3480156101ea57600080fd5b506102166101f93660046111d6565b604a60209081526000928352604080842090915290825290205481565b6040519081526020015b60405180910390f35b34801561023557600080fd5b5060408051808201909152600f81526e54656c6c6f7220547269627574657360881b60208201525b60405161022091906112a6565b34801561027657600080fd5b5061028a610285366004611243565b610737565b6040519015158152602001610220565b3480156102a657600080fd5b506102ba6102b53660046111d6565b610804565b005b3480156102c857600080fd5b507fe6148e7230ca038d456350e69a91b66968b222bfac9ebfbea6ff0a1fb738016060005260466020527ffffeead1ec15181fd57b4590d95e0c076bccb59e311315e8b38f23c710aa7c3e54610216565b34801561032557600080fd5b5061033961033436600461126c565b610996565b604080519283526001600160a01b03909116602083015201610220565b34801561036257600080fd5b5061028a610371366004611208565b6109c1565b34801561038257600080fd5b5060405160128152602001610220565b34801561039e57600080fd5b506102ba6103ad366004611243565b610a77565b3480156103be57600080fd5b506102166103cd36600461126c565b610a81565b3480156103de57600080fd5b5061028a6103ed366004611284565b603960209081526000928352604080842090915290825290205460ff1681565b34801561041957600080fd5b5061028a6104283660046111b5565b604b6020526000908152604090205460ff1681565b34801561044957600080fd5b50610216610458366004611243565b610aa2565b34801561046957600080fd5b5061021661047836600461126c565b60376020526000908152604090205481565b34801561049657600080fd5b506102166104a536600461126c565b60486020526000908152604090205481565b3480156104c357600080fd5b506104ed6104d236600461126c565b6047602052600090815260409020546001600160a01b031681565b6040516001600160a01b039091168152602001610220565b34801561051157600080fd5b506102166105203660046111b5565b610d0d565b34801561053157600080fd5b506040805180820190915260038152622a292160e91b602082015261025d565b34801561055d57600080fd5b5061028a61056c366004611243565b610d21565b34801561057d57600080fd5b5061028a61058c366004611243565b610dbe565b34801561059d57600080fd5b506102166105ac36600461126c565b60466020526000908152604090205481565b3480156105ca57600080fd5b506105de6105d9366004611243565b610dd4565b604080516001600160801b03938416815292909116602083015201610220565b34801561060a57600080fd5b5061021661061936600461126c565b60386020526000908152604090205481565b34801561063757600080fd5b506106a261064636600461126c565b603660205260009081526040902080546001820154600283015460038401546004909401549293919260ff808316936101008404821693620100008104909216926001600160a01b036301000000909304831692918216911688565b604080519889526020890197909752941515958701959095529115156060860152151560808501526001600160a01b0390811660a085015291821660c08401521660e082015261010001610220565b3480156106fd57600080fd5b5061021661070c3660046111d6565b6001600160a01b039182166000908152604a6020908152604080832093909416825291909152205490565b60006001600160a01b03831661079f5760405162461bcd60e51b815260206004820152602260248201527f45524332303a20617070726f766520746f20746865207a65726f206164647265604482015261737360f01b60648201526084015b60405180910390fd5b336000818152604a602090815260408083206001600160a01b03881680855290835292819020869055518581529192917f8c5be1e5ebec7d5bd14f71427d1e84f3dd0314c0f7b2291e5b200ac8c7c3b925910160405180910390a35060015b92915050565b7f7a39905194de50bde334d18b76bbb36dddd11641d4d50b470cb837cf3bae5def60005260476020527fb5f7e7387e8e977cc9c4c9513388b0d7224264b9a0159cd8e8bdd84a9ed504c3546001600160a01b031633146108b65760405162461bcd60e51b815260206004820152602760248201527f6f6e6c79206f776e65722063616e207472616e73666572206469737075746564604482015266081cdd185ad95960ca1b6064820152608401610796565b6001600160a01b03821660009081526044602052604090205460031461091e5760405162461bcd60e51b815260206004820152601a60248201527f5f66726f6d2061646472657373206e6f742064697370757465640000000000006044820152606401610796565b6001600160a01b038216600090815260446020908152604082208290557f5d9fadfc729fd027e395e5157ef1b53ef9fa4a8f053043c5f159307543e7cc97909152604690527f167af83a0768d27540775cfef6d996eb63f8a61fcdfb26e654c18fb50960e3be546109929083908390610e17565b5050565b603a81600581106109a657600080fd5b6002020180546001909101549091506001600160a01b031682565b6001600160a01b0383166000908152604a60209081526040808320338452909152812054821115610a295760405162461bcd60e51b8152602060048201526012602482015271416c6c6f77616e63652069732077726f6e6760701b6044820152606401610796565b6001600160a01b0384166000908152604a6020908152604080832033845290915281208054849290610a5c908490611384565b90915550610a6d9050848484610e17565b5060019392505050565b6109928282610f16565b60338181548110610a9157600080fd5b600091825260209091200154905081565b6001600160a01b038216600090815260496020526040812080541580610afc57508281600081548110610ae557634e487b7160e01b600052603260045260246000fd5b6000918252602090912001546001600160801b0316115b15610b0b5760009150506107fe565b80548190610b1b90600190611384565b81548110610b3957634e487b7160e01b600052603260045260246000fd5b6000918252602090912001546001600160801b03168310610ba75780548190610b6490600190611384565b81548110610b8257634e487b7160e01b600052603260045260246000fd5b600091825260209091200154600160801b90046001600160801b031691506107fe9050565b80546000908190610bba90600290611384565b90505b81811115610cc65760006002610bd38484611324565b610bde906001611324565b610be8919061133c565b905085848281548110610c0b57634e487b7160e01b600052603260045260246000fd5b6000918252602090912001546001600160801b03161415610c6e57838181548110610c4657634e487b7160e01b600052603260045260246000fd5b600091825260209091200154600160801b90046001600160801b031694506107fe9350505050565b85848281548110610c8f57634e487b7160e01b600052603260045260246000fd5b6000918252602090912001546001600160801b03161015610cb257809250610cc0565b610cbd600182611384565b91505b50610bbd565b828281548110610ce657634e487b7160e01b600052603260045260246000fd5b600091825260209091200154600160801b90046001600160801b031693506107fe92505050565b6000610d198243610aa2565b90505b919050565b6001600160a01b03821660009081526044602052604081205460031415610dab577f5d9fadfc729fd027e395e5157ef1b53ef9fa4a8f053043c5f159307543e7cc9760005260466020527f167af83a0768d27540775cfef6d996eb63f8a61fcdfb26e654c18fb50960e3be548290610d9885610d0d565b610da29190611384565b101590506107fe565b81610db584610d0d565b10159392505050565b6000610dcb338484610e17565b50600192915050565b60496020528160005260406000208181548110610df057600080fd5b6000918252602090912001546001600160801b038082169350600160801b90910416905082565b80610e2157610f11565b610e2b8382610d21565b610e875760405162461bcd60e51b815260206004820152602760248201527f53686f756c6420686176652073756666696369656e742062616c616e636520746044820152666f20747261646560c81b6064820152608401610796565b6000610e9284610d0d565b905081610ea885610ea3838561135c565b61108a565b610eb184610d0d565b9150610ec184610ea383856112f9565b836001600160a01b0316856001600160a01b03167fddf252ad1be2c89b69c2b068fc378daa952ba7f163c4a11628f55a4df523b3ef85604051610f0691815260200190565b60405180910390a350505b505050565b80610f6d5760405162461bcd60e51b815260206004820152602160248201527f547269656420746f206d696e74206e6f6e2d706f73697469766520616d6f756e6044820152601d60fa1b6064820152608401610796565b6001600160a01b038216610fc35760405162461bcd60e51b815260206004820152601560248201527f52656365697665722069732030206164647265737300000000000000000000006044820152606401610796565b6000610fce83610d0d565b7fe6148e7230ca038d456350e69a91b66968b222bfac9ebfbea6ff0a1fb7380160600090815260466020527ffffeead1ec15181fd57b4590d95e0c076bccb59e311315e8b38f23c710aa7c3e8054929350849283929061102f908490611324565b90915550611043905084610ea383856112f9565b6040518381526001600160a01b038516906000907fddf252ad1be2c89b69c2b068fc378daa952ba7f163c4a11628f55a4df523b3ef9060200160405180910390a350505050565b6001600160a01b0382166000908152604960205260409020805415806110f357508054439082906110bd90600190611384565b815481106110db57634e487b7160e01b600052603260045260246000fd5b6000918252602090912001546001600160801b031614155b1561114457604080518082019091526001600160801b03438116825283811660208084019182528454600181018655600086815291909120935191518316600160801b029190921617910155610f11565b8054600090829061115790600190611384565b8154811061117557634e487b7160e01b600052603260045260246000fd5b600091825260209091200180546001600160801b03808616600160801b02911617905550505050565b80356001600160a01b0381168114610d1c57600080fd5b6000602082840312156111c6578081fd5b6111cf8261119e565b9392505050565b600080604083850312156111e8578081fd5b6111f18361119e565b91506111ff6020840161119e565b90509250929050565b60008060006060848603121561121c578081fd5b6112258461119e565b92506112336020850161119e565b9150604084013590509250925092565b60008060408385031215611255578182fd5b61125e8361119e565b946020939093013593505050565b60006020828403121561127d578081fd5b5035919050565b60008060408385031215611296578182fd5b823591506111ff6020840161119e565b6000602080835283518082850152825b818110156112d2578581018301518582016040015282016112b6565b818111156112e35783604083870101525b50601f01601f1916929092016040019392505050565b60006001600160801b0380831681851680830382111561131b5761131b61139b565b01949350505050565b600082198211156113375761133761139b565b500190565b60008261135757634e487b7160e01b81526012600452602481fd5b500490565b60006001600160801b038381169083168181101561137c5761137c61139b565b039392505050565b6000828210156113965761139661139b565b500390565b634e487b7160e01b600052601160045260246000fdfea26469706673582212209e0854773e327882c50faf37ef95efc135bc7d5854b441dd8c3f317c7a9fc98c64736f6c63430008030033",
  "linkReferences": {},
  "deployedLinkReferences": {}
}