{
  "_format": "hh-sol-artifact-1",
  "contractName": "BlobstreamO",
  "sourceName": "contracts/bridge/BlobstreamO.sol",
  "abi": [
    {
      "inputs": [
        {
          "internalType": "uint256",
          "name": "_nonce",
          "type": "uint256"
        },
        {
          "internalType": "uint256",
          "name": "_powerThreshold",
          "type": "uint256"
        },
        {
          "internalType": "uint256",
          "name": "_validatorTimestamp",
          "type": "uint256"
        },
        {
          "internalType": "uint256",
          "name": "_unbondingPeriod",
          "type": "uint256"
        },
        {
          "internalType": "bytes32",
          "name": "_validatorSetCheckpoint",
          "type": "bytes32"
        }
      ],
      "stateMutability": "nonpayable",
      "type": "constructor"
    },
    {
      "inputs": [],
      "name": "ECDSAInvalidSignature",
      "type": "error"
    },
    {
      "inputs": [
        {
          "internalType": "uint256",
          "name": "length",
          "type": "uint256"
        }
      ],
      "name": "ECDSAInvalidSignatureLength",
      "type": "error"
    },
    {
      "inputs": [
        {
          "internalType": "bytes32",
          "name": "s",
          "type": "bytes32"
        }
      ],
      "name": "ECDSAInvalidSignatureS",
      "type": "error"
    },
    {
      "inputs": [],
      "name": "InsufficientVotingPower",
      "type": "error"
    },
    {
      "inputs": [],
      "name": "InvalidSignature",
      "type": "error"
    },
    {
      "inputs": [],
      "name": "InvalidValidatorSetNonce",
      "type": "error"
    },
    {
      "inputs": [],
      "name": "MalformedCurrentValidatorSet",
      "type": "error"
    },
    {
      "inputs": [],
      "name": "NotGuardian",
      "type": "error"
    },
    {
      "inputs": [],
      "name": "StaleValidatorSet",
      "type": "error"
    },
    {
      "inputs": [],
      "name": "SuppliedValidatorSetInvalid",
      "type": "error"
    },
    {
      "inputs": [],
      "name": "ValidatorSetNotStale",
      "type": "error"
    },
    {
      "anonymous": false,
      "inputs": [
        {
          "indexed": true,
          "internalType": "uint256",
          "name": "_nonce",
          "type": "uint256"
        },
        {
          "indexed": false,
          "internalType": "uint256",
          "name": "_powerThreshold",
          "type": "uint256"
        },
        {
          "indexed": false,
          "internalType": "uint256",
          "name": "_validatorTimestamp",
          "type": "uint256"
        },
        {
          "indexed": false,
          "internalType": "bytes32",
          "name": "_validatorSetHash",
          "type": "bytes32"
        }
      ],
      "name": "ValidatorSetUpdated",
      "type": "event"
    },
    {
      "inputs": [],
      "name": "guardian",
      "outputs": [
        {
          "internalType": "address",
          "name": "",
          "type": "address"
        }
      ],
      "stateMutability": "view",
      "type": "function"
    },
    {
      "inputs": [
        {
          "internalType": "uint256",
          "name": "_nonce",
          "type": "uint256"
        },
        {
          "internalType": "uint256",
          "name": "_powerThreshold",
          "type": "uint256"
        },
        {
          "internalType": "uint256",
          "name": "_validatorTimestamp",
          "type": "uint256"
        },
        {
          "internalType": "bytes32",
          "name": "_validatorSetCheckpoint",
          "type": "bytes32"
        }
      ],
      "name": "guardianResetValidatorSet",
      "outputs": [],
      "stateMutability": "nonpayable",
      "type": "function"
    },
    {
      "inputs": [],
      "name": "lastValidatorSetCheckpoint",
      "outputs": [
        {
          "internalType": "bytes32",
          "name": "",
          "type": "bytes32"
        }
      ],
      "stateMutability": "view",
      "type": "function"
    },
    {
      "inputs": [],
      "name": "powerThreshold",
      "outputs": [
        {
          "internalType": "uint256",
          "name": "",
          "type": "uint256"
        }
      ],
      "stateMutability": "view",
      "type": "function"
    },
    {
      "inputs": [],
      "name": "unbondingPeriod",
      "outputs": [
        {
          "internalType": "uint256",
          "name": "",
          "type": "uint256"
        }
      ],
      "stateMutability": "view",
      "type": "function"
    },
    {
      "inputs": [
        {
          "internalType": "bytes32",
          "name": "_newValidatorSetHash",
          "type": "bytes32"
        },
        {
          "internalType": "uint64",
          "name": "_newPowerThreshold",
          "type": "uint64"
        },
        {
          "internalType": "uint256",
          "name": "_newValidatorTimestamp",
          "type": "uint256"
        },
        {
          "components": [
            {
              "internalType": "address",
              "name": "addr",
              "type": "address"
            },
            {
              "internalType": "uint256",
              "name": "power",
              "type": "uint256"
            }
          ],
          "internalType": "struct Validator[]",
          "name": "_currentValidatorSet",
          "type": "tuple[]"
        },
        {
          "components": [
            {
              "internalType": "uint8",
              "name": "v",
              "type": "uint8"
            },
            {
              "internalType": "bytes32",
              "name": "r",
              "type": "bytes32"
            },
            {
              "internalType": "bytes32",
              "name": "s",
              "type": "bytes32"
            }
          ],
          "internalType": "struct Signature[]",
          "name": "_sigs",
          "type": "tuple[]"
        }
      ],
      "name": "updateValidatorSet",
      "outputs": [],
      "stateMutability": "nonpayable",
      "type": "function"
    },
    {
      "inputs": [],
      "name": "validatorNonce",
      "outputs": [
        {
          "internalType": "uint256",
          "name": "",
          "type": "uint256"
        }
      ],
      "stateMutability": "view",
      "type": "function"
    },
    {
      "inputs": [],
      "name": "validatorTimestamp",
      "outputs": [
        {
          "internalType": "uint256",
          "name": "",
          "type": "uint256"
        }
      ],
      "stateMutability": "view",
      "type": "function"
    },
    {
      "inputs": [
        {
          "components": [
            {
              "internalType": "bytes32",
              "name": "queryId",
              "type": "bytes32"
            },
            {
              "components": [
                {
                  "internalType": "bytes",
                  "name": "value",
                  "type": "bytes"
                },
                {
                  "internalType": "uint256",
                  "name": "timestamp",
                  "type": "uint256"
                },
                {
                  "internalType": "uint256",
                  "name": "consensusThreshold",
                  "type": "uint256"
                }
              ],
              "internalType": "struct ReportData",
              "name": "report",
              "type": "tuple"
            },
            {
              "internalType": "uint256",
              "name": "validatorNonce",
              "type": "uint256"
            },
            {
              "internalType": "uint256",
              "name": "powerThreshold",
              "type": "uint256"
            },
            {
              "internalType": "bytes32",
              "name": "validatorSetHash",
              "type": "bytes32"
            },
            {
              "internalType": "uint256",
              "name": "blockTimestamp",
              "type": "uint256"
            }
          ],
          "internalType": "struct OracleAttestationData",
          "name": "_attest",
          "type": "tuple"
        },
        {
          "components": [
            {
              "internalType": "address",
              "name": "addr",
              "type": "address"
            },
            {
              "internalType": "uint256",
              "name": "power",
              "type": "uint256"
            }
          ],
          "internalType": "struct Validator[]",
          "name": "_currentValidatorSet",
          "type": "tuple[]"
        },
        {
          "components": [
            {
              "internalType": "uint8",
              "name": "v",
              "type": "uint8"
            },
            {
              "internalType": "bytes32",
              "name": "r",
              "type": "bytes32"
            },
            {
              "internalType": "bytes32",
              "name": "s",
              "type": "bytes32"
            }
          ],
          "internalType": "struct Signature[]",
          "name": "_sigs",
          "type": "tuple[]"
        }
      ],
      "name": "verifyOracleData",
      "outputs": [
        {
          "internalType": "bool",
          "name": "",
          "type": "bool"
        }
      ],
      "stateMutability": "view",
      "type": "function"
    }
  ],
  "bytecode": "0x60806040523480156200001157600080fd5b5060405162001797380380620017978339818101604052810190620000379190620000e0565b8460028190555083600181905550826003819055508160048190555080600081905550505050505062000168565b600080fd5b6000819050919050565b6200007f816200006a565b81146200008b57600080fd5b50565b6000815190506200009f8162000074565b92915050565b6000819050919050565b620000ba81620000a5565b8114620000c657600080fd5b50565b600081519050620000da81620000af565b92915050565b600080600080600060a08688031215620000ff57620000fe62000065565b5b60006200010f888289016200008e565b955050602062000122888289016200008e565b945050604062000135888289016200008e565b935050606062000148888289016200008e565b92505060806200015b88828901620000c9565b9150509295509295909350565b61161f80620001786000396000f3fe608060405234801561001057600080fd5b50600436106100935760003560e01c806384330d4c1161006657806384330d4c1461010e578063af082a7d1461012a578063ba95ec2714610148578063cb908d5214610166578063e17a684f1461019657610093565b80633acb764614610098578063452a9320146100b45780634f76f1ee146100d25780636cf6d675146100f0575b600080fd5b6100b260048036038101906100ad9190610c16565b6101b4565b005b6100bc6102a6565b6040516100c99190610cbe565b60405180910390f35b6100da6102cc565b6040516100e79190610ce8565b60405180910390f35b6100f86102d2565b6040516101059190610ce8565b60405180910390f35b61012860048036038101906101239190610dfe565b6102d8565b005b610132610429565b60405161013f9190610ec9565b60405180910390f35b61015061042f565b60405161015d9190610ce8565b60405180910390f35b610180600480360381019061017b9190610f08565b610435565b60405161018d9190610fd4565b60405180910390f35b61019e61053b565b6040516101ab9190610ce8565b60405180910390f35b600560009054906101000a900473ffffffffffffffffffffffffffffffffffffffff1673ffffffffffffffffffffffffffffffffffffffff163373ffffffffffffffffffffffffffffffffffffffff161461023b576040517fef6d0f0200000000000000000000000000000000000000000000000000000000815260040160405180910390fd5b6004546003544261024c919061101e565b1015610284576040517f1c36ced200000000000000000000000000000000000000000000000000000000815260040160405180910390fd5b8360028190555082600181905550816003819055508060008190555050505050565b600560009054906101000a900473ffffffffffffffffffffffffffffffffffffffff1681565b60035481565b60045481565b818190508484905014610317576040517fc6617b7b00000000000000000000000000000000000000000000000000000000815260040160405180910390fd5b60006103238585610541565b905060005461033a60025460015460035485610574565b14610371576040517f177b5d9200000000000000000000000000000000000000000000000000000000815260040160405180910390fd5b600061039760016002546103859190611052565b8967ffffffffffffffff16898c610574565b90506103a986868686856001546105d2565b806000819055508767ffffffffffffffff1660018190555086600381905550600260008154809291906103db90611086565b91905055506002547f9ef7d0f3898c73ccdcd76d7b44b7f79c9e925ab02685d482ec51111908fa7cf089898c60405161041693929190611109565b60405180910390a2505050505050505050565b60005481565b60015481565b6000828290508585905014610476576040517fc6617b7b00000000000000000000000000000000000000000000000000000000815260040160405180910390fd5b60006104828686610541565b905060005461049960025460015460035485610574565b146104d0576040517f177b5d9200000000000000000000000000000000000000000000000000000000815260040160405180910390fd5b60025487604001351461050f576040517fd146bffa00000000000000000000000000000000000000000000000000000000815260040160405180910390fd5b600061051a886107ba565b905061052c87878787856001546105d2565b60019250505095945050505050565b60025481565b6000828260405160200161055692919061129f565b60405160208183030381529060405280519060200120905092915050565b60007f636865636b706f696e740000000000000000000000000000000000000000000060001b858585856040516020016105b29594939291906112c3565b604051602081830303815290604052805190602001209050949350505050565b600454600354426105e3919061101e565b111561061b576040517fe5e5e46400000000000000000000000000000000000000000000000000000000815260040160405180910390fd5b6000805b87879050811015610776576000801b86868381811061064157610640611316565b5b9050606002016020013514801561067657506000801b86868381811061066a57610669611316565b5b90506060020160400135145b80156106af5750600086868381811061069257610691611316565b5b90506060020160000160208101906106aa919061137e565b60ff16145b610769576107008888838181106106c9576106c8611316565b5b90506040020160000160208101906106e191906113ab565b858888858181106106f5576106f4611316565b5b905060600201610876565b610736576040517f8baa579f00000000000000000000000000000000000000000000000000000000815260040160405180910390fd5b87878281811061074957610748611316565b5b905060400201602001358261075e9190611052565b915082821015610776575b808060010191505061061f565b50818110156107b1576040517fcabeb65500000000000000000000000000000000000000000000000000000000815260040160405180910390fd5b50505050505050565b60007f74656c6c6f7243757272656e744174746573746174696f6e000000000000000060001b82600001358380602001906107f591906113e7565b8060000190610804919061140f565b85806020019061081491906113e7565b6020013586806020019061082891906113e7565b604001358760400135886060013589608001358a60a001356040516020016108599a999897969594939291906114d0565b604051602081830303815290604052805190602001209050919050565b600080610882846108e2565b90506108aa8184600001602081019061089b919061137e565b85602001358660400135610918565b73ffffffffffffffffffffffffffffffffffffffff168573ffffffffffffffffffffffffffffffffffffffff16149150509392505050565b60007f19457468657265756d205369676e6564204d6573736167653a0a33320000000060005281601c52603c6000209050919050565b60008060008061092a88888888610948565b92509250925061093a8282610a3c565b829350505050949350505050565b60008060007f7fffffffffffffffffffffffffffffff5d576e7357a4501ddfe92f46681b20a08460001c1115610988576000600385925092509250610a32565b6000600188888888604051600081526020016040526040516109ad9493929190611575565b6020604051602081039080840390855afa1580156109cf573d6000803e3d6000fd5b505050602060405103519050600073ffffffffffffffffffffffffffffffffffffffff168173ffffffffffffffffffffffffffffffffffffffff1603610a2357600060016000801b93509350935050610a32565b8060008060001b935093509350505b9450945094915050565b60006003811115610a5057610a4f6115ba565b5b826003811115610a6357610a626115ba565b5b0315610b9c5760016003811115610a7d57610a7c6115ba565b5b826003811115610a9057610a8f6115ba565b5b03610ac7576040517ff645eedf00000000000000000000000000000000000000000000000000000000815260040160405180910390fd5b60026003811115610adb57610ada6115ba565b5b826003811115610aee57610aed6115ba565b5b03610b33578060001c6040517ffce698f7000000000000000000000000000000000000000000000000000000008152600401610b2a9190610ce8565b60405180910390fd5b600380811115610b4657610b456115ba565b5b826003811115610b5957610b586115ba565b5b03610b9b57806040517fd78bce0c000000000000000000000000000000000000000000000000000000008152600401610b929190610ec9565b60405180910390fd5b5b5050565b600080fd5b600080fd5b6000819050919050565b610bbd81610baa565b8114610bc857600080fd5b50565b600081359050610bda81610bb4565b92915050565b6000819050919050565b610bf381610be0565b8114610bfe57600080fd5b50565b600081359050610c1081610bea565b92915050565b60008060008060808587031215610c3057610c2f610ba0565b5b6000610c3e87828801610bcb565b9450506020610c4f87828801610bcb565b9350506040610c6087828801610bcb565b9250506060610c7187828801610c01565b91505092959194509250565b600073ffffffffffffffffffffffffffffffffffffffff82169050919050565b6000610ca882610c7d565b9050919050565b610cb881610c9d565b82525050565b6000602082019050610cd36000830184610caf565b92915050565b610ce281610baa565b82525050565b6000602082019050610cfd6000830184610cd9565b92915050565b600067ffffffffffffffff82169050919050565b610d2081610d03565b8114610d2b57600080fd5b50565b600081359050610d3d81610d17565b92915050565b600080fd5b600080fd5b600080fd5b60008083601f840112610d6857610d67610d43565b5b8235905067ffffffffffffffff811115610d8557610d84610d48565b5b602083019150836040820283011115610da157610da0610d4d565b5b9250929050565b60008083601f840112610dbe57610dbd610d43565b5b8235905067ffffffffffffffff811115610ddb57610dda610d48565b5b602083019150836060820283011115610df757610df6610d4d565b5b9250929050565b600080600080600080600060a0888a031215610e1d57610e1c610ba0565b5b6000610e2b8a828b01610c01565b9750506020610e3c8a828b01610d2e565b9650506040610e4d8a828b01610bcb565b955050606088013567ffffffffffffffff811115610e6e57610e6d610ba5565b5b610e7a8a828b01610d52565b9450945050608088013567ffffffffffffffff811115610e9d57610e9c610ba5565b5b610ea98a828b01610da8565b925092505092959891949750929550565b610ec381610be0565b82525050565b6000602082019050610ede6000830184610eba565b92915050565b600080fd5b600060c08284031215610eff57610efe610ee4565b5b81905092915050565b600080600080600060608688031215610f2457610f23610ba0565b5b600086013567ffffffffffffffff811115610f4257610f41610ba5565b5b610f4e88828901610ee9565b955050602086013567ffffffffffffffff811115610f6f57610f6e610ba5565b5b610f7b88828901610d52565b9450945050604086013567ffffffffffffffff811115610f9e57610f9d610ba5565b5b610faa88828901610da8565b92509250509295509295909350565b60008115159050919050565b610fce81610fb9565b82525050565b6000602082019050610fe96000830184610fc5565b92915050565b7f4e487b7100000000000000000000000000000000000000000000000000000000600052601160045260246000fd5b600061102982610baa565b915061103483610baa565b925082820390508181111561104c5761104b610fef565b5b92915050565b600061105d82610baa565b915061106883610baa565b92508282019050808211156110805761107f610fef565b5b92915050565b600061109182610baa565b91507fffffffffffffffffffffffffffffffffffffffffffffffffffffffffffffffff82036110c3576110c2610fef565b5b600182019050919050565b6000819050919050565b60006110f36110ee6110e984610d03565b6110ce565b610baa565b9050919050565b611103816110d8565b82525050565b600060608201905061111e60008301866110fa565b61112b6020830185610cd9565b6111386040830184610eba565b949350505050565b600082825260208201905092915050565b6000819050919050565b61116481610c9d565b811461116f57600080fd5b50565b6000813590506111818161115b565b92915050565b60006111966020840184611172565b905092915050565b6111a781610c9d565b82525050565b60006111bc6020840184610bcb565b905092915050565b6111cd81610baa565b82525050565b604082016111e46000830183611187565b6111f1600085018261119e565b506111ff60208301836111ad565b61120c60208501826111c4565b50505050565b600061121e83836111d3565b60408301905092915050565b600082905092915050565b6000604082019050919050565b600061124e8385611140565b935061125982611151565b8060005b858110156112925761126f828461122a565b6112798882611212565b975061128483611235565b92505060018101905061125d565b5085925050509392505050565b600060208201905081810360008301526112ba818486611242565b90509392505050565b600060a0820190506112d86000830188610eba565b6112e56020830187610cd9565b6112f26040830186610cd9565b6112ff6060830185610cd9565b61130c6080830184610eba565b9695505050505050565b7f4e487b7100000000000000000000000000000000000000000000000000000000600052603260045260246000fd5b600060ff82169050919050565b61135b81611345565b811461136657600080fd5b50565b60008135905061137881611352565b92915050565b60006020828403121561139457611393610ba0565b5b60006113a284828501611369565b91505092915050565b6000602082840312156113c1576113c0610ba0565b5b60006113cf84828501611172565b91505092915050565b600080fd5b600080fd5b600080fd5b600082356001606003833603038112611403576114026113d8565b5b80830191505092915050565b6000808335600160200384360303811261142c5761142b6113d8565b5b80840192508235915067ffffffffffffffff82111561144e5761144d6113dd565b5b60208301925060018202360383131561146a576114696113e2565b5b509250929050565b600082825260208201905092915050565b82818337600083830152505050565b6000601f19601f8301169050919050565b60006114af8385611472565b93506114bc838584611483565b6114c583611492565b840190509392505050565b6000610120820190506114e6600083018d610eba565b6114f3602083018c610eba565b8181036040830152611506818a8c6114a3565b90506115156060830189610cd9565b6115226080830188610cd9565b61152f60a0830187610cd9565b61153c60c0830186610cd9565b61154960e0830185610eba565b611557610100830184610cd9565b9b9a5050505050505050505050565b61156f81611345565b82525050565b600060808201905061158a6000830187610eba565b6115976020830186611566565b6115a46040830185610eba565b6115b16060830184610eba565b95945050505050565b7f4e487b7100000000000000000000000000000000000000000000000000000000600052602160045260246000fdfea2646970667358221220564d66d818e832a82f183f5cf5b9c2d8d2be5407b446d4dee72aaa0d45a0b9ee64736f6c63430008160033",
  "linkReferences": {},
  "deployedLinkReferences": {}
}