{
  "_format": "hh-sol-artifact-1",
  "contractName": "BlobstreamO",
  "sourceName": "contracts/bridge/BlobstreamO.sol",
  "abi": [
    {
      "inputs": [
        {
          "internalType": "uint256",
          "name": "_nonce",
          "type": "uint256"
        },
        {
          "internalType": "uint256",
          "name": "_powerThreshold",
          "type": "uint256"
        },
        {
          "internalType": "uint256",
          "name": "_validatorTimestamp",
          "type": "uint256"
        },
        {
          "internalType": "uint256",
          "name": "_unbondingPeriod",
          "type": "uint256"
        },
        {
          "internalType": "bytes32",
          "name": "_validatorSetCheckpoint",
          "type": "bytes32"
        }
      ],
      "stateMutability": "nonpayable",
      "type": "constructor"
    },
    {
      "inputs": [],
      "name": "ECDSAInvalidSignature",
      "type": "error"
    },
    {
      "inputs": [
        {
          "internalType": "uint256",
          "name": "length",
          "type": "uint256"
        }
      ],
      "name": "ECDSAInvalidSignatureLength",
      "type": "error"
    },
    {
      "inputs": [
        {
          "internalType": "bytes32",
          "name": "s",
          "type": "bytes32"
        }
      ],
      "name": "ECDSAInvalidSignatureS",
      "type": "error"
    },
    {
      "inputs": [],
      "name": "InsufficientVotingPower",
      "type": "error"
    },
    {
      "inputs": [],
      "name": "InvalidSignature",
      "type": "error"
    },
    {
      "inputs": [],
      "name": "InvalidValidatorSetNonce",
      "type": "error"
    },
    {
      "inputs": [],
      "name": "MalformedCurrentValidatorSet",
      "type": "error"
    },
    {
      "inputs": [],
      "name": "NotGuardian",
      "type": "error"
    },
    {
      "inputs": [],
      "name": "StaleValidatorSet",
      "type": "error"
    },
    {
      "inputs": [],
      "name": "SuppliedValidatorSetInvalid",
      "type": "error"
    },
    {
      "inputs": [],
      "name": "ValidatorSetNotStale",
      "type": "error"
    },
    {
      "anonymous": false,
      "inputs": [
        {
          "indexed": true,
          "internalType": "uint256",
          "name": "_nonce",
          "type": "uint256"
        },
        {
          "indexed": false,
          "internalType": "uint256",
          "name": "_powerThreshold",
          "type": "uint256"
        },
        {
          "indexed": false,
          "internalType": "bytes32",
          "name": "_validatorSetHash",
          "type": "bytes32"
        }
      ],
      "name": "ValidatorSetUpdated",
      "type": "event"
    },
    {
      "inputs": [],
      "name": "guardian",
      "outputs": [
        {
          "internalType": "address",
          "name": "",
          "type": "address"
        }
      ],
      "stateMutability": "view",
      "type": "function"
    },
    {
      "inputs": [
        {
          "internalType": "uint256",
          "name": "_nonce",
          "type": "uint256"
        },
        {
          "internalType": "uint256",
          "name": "_powerThreshold",
          "type": "uint256"
        },
        {
          "internalType": "uint256",
          "name": "_validatorTimestamp",
          "type": "uint256"
        },
        {
          "internalType": "bytes32",
          "name": "_validatorSetCheckpoint",
          "type": "bytes32"
        }
      ],
      "name": "guardianResetValidatorSet",
      "outputs": [],
      "stateMutability": "nonpayable",
      "type": "function"
    },
    {
      "inputs": [],
      "name": "lastValidatorSetCheckpoint",
      "outputs": [
        {
          "internalType": "bytes32",
          "name": "",
          "type": "bytes32"
        }
      ],
      "stateMutability": "view",
      "type": "function"
    },
    {
      "inputs": [],
      "name": "powerThreshold",
      "outputs": [
        {
          "internalType": "uint256",
          "name": "",
          "type": "uint256"
        }
      ],
      "stateMutability": "view",
      "type": "function"
    },
    {
      "inputs": [],
      "name": "unbondingPeriod",
      "outputs": [
        {
          "internalType": "uint256",
          "name": "",
          "type": "uint256"
        }
      ],
      "stateMutability": "view",
      "type": "function"
    },
    {
      "inputs": [
        {
          "internalType": "bytes32",
          "name": "_newValidatorSetHash",
          "type": "bytes32"
        },
        {
          "internalType": "uint64",
          "name": "_newPowerThreshold",
          "type": "uint64"
        },
        {
          "internalType": "uint256",
          "name": "_newValidatorTimestamp",
          "type": "uint256"
        },
        {
          "components": [
            {
              "internalType": "address",
              "name": "addr",
              "type": "address"
            },
            {
              "internalType": "uint256",
              "name": "power",
              "type": "uint256"
            }
          ],
          "internalType": "struct Validator[]",
          "name": "_currentValidatorSet",
          "type": "tuple[]"
        },
        {
          "components": [
            {
              "internalType": "uint8",
              "name": "v",
              "type": "uint8"
            },
            {
              "internalType": "bytes32",
              "name": "r",
              "type": "bytes32"
            },
            {
              "internalType": "bytes32",
              "name": "s",
              "type": "bytes32"
            }
          ],
          "internalType": "struct Signature[]",
          "name": "_sigs",
          "type": "tuple[]"
        }
      ],
      "name": "updateValidatorSet",
      "outputs": [],
      "stateMutability": "nonpayable",
      "type": "function"
    },
    {
      "inputs": [],
      "name": "validatorNonce",
      "outputs": [
        {
          "internalType": "uint256",
          "name": "",
          "type": "uint256"
        }
      ],
      "stateMutability": "view",
      "type": "function"
    },
    {
      "inputs": [],
      "name": "validatorTimestamp",
      "outputs": [
        {
          "internalType": "uint256",
          "name": "",
          "type": "uint256"
        }
      ],
      "stateMutability": "view",
      "type": "function"
    },
    {
      "inputs": [
        {
          "components": [
            {
              "internalType": "bytes32",
              "name": "queryId",
              "type": "bytes32"
            },
            {
              "components": [
                {
                  "internalType": "bytes",
                  "name": "value",
                  "type": "bytes"
                },
                {
                  "internalType": "uint256",
                  "name": "timestamp",
                  "type": "uint256"
                },
                {
                  "internalType": "uint256",
                  "name": "consensusThreshold",
                  "type": "uint256"
                }
              ],
              "internalType": "struct ReportData",
              "name": "report",
              "type": "tuple"
            },
            {
              "internalType": "uint256",
              "name": "validatorNonce",
              "type": "uint256"
            },
            {
              "internalType": "uint256",
              "name": "powerThreshold",
              "type": "uint256"
            },
            {
              "internalType": "bytes32",
              "name": "validatorSetHash",
              "type": "bytes32"
            },
            {
              "internalType": "uint256",
              "name": "blockTimestamp",
              "type": "uint256"
            }
          ],
          "internalType": "struct OracleAttestationData",
          "name": "_attest",
          "type": "tuple"
        },
        {
          "components": [
            {
              "internalType": "address",
              "name": "addr",
              "type": "address"
            },
            {
              "internalType": "uint256",
              "name": "power",
              "type": "uint256"
            }
          ],
          "internalType": "struct Validator[]",
          "name": "_currentValidatorSet",
          "type": "tuple[]"
        },
        {
          "components": [
            {
              "internalType": "uint8",
              "name": "v",
              "type": "uint8"
            },
            {
              "internalType": "bytes32",
              "name": "r",
              "type": "bytes32"
            },
            {
              "internalType": "bytes32",
              "name": "s",
              "type": "bytes32"
            }
          ],
          "internalType": "struct Signature[]",
          "name": "_sigs",
          "type": "tuple[]"
        }
      ],
      "name": "verifyOracleData",
      "outputs": [
        {
          "internalType": "bool",
          "name": "",
          "type": "bool"
        }
      ],
      "stateMutability": "view",
      "type": "function"
    }
  ],
  "bytecode": "0x60806040523480156200001157600080fd5b5060405162001774380380620017748339818101604052810190620000379190620000e0565b8460028190555083600181905550826003819055508160048190555080600081905550505050505062000168565b600080fd5b6000819050919050565b6200007f816200006a565b81146200008b57600080fd5b50565b6000815190506200009f8162000074565b92915050565b6000819050919050565b620000ba81620000a5565b8114620000c657600080fd5b50565b600081519050620000da81620000af565b92915050565b600080600080600060a08688031215620000ff57620000fe62000065565b5b60006200010f888289016200008e565b955050602062000122888289016200008e565b945050604062000135888289016200008e565b935050606062000148888289016200008e565b92505060806200015b88828901620000c9565b9150509295509295909350565b6115fc80620001786000396000f3fe608060405234801561001057600080fd5b50600436106100935760003560e01c806384330d4c1161006657806384330d4c1461010e578063af082a7d1461012a578063ba95ec2714610148578063cb908d5214610166578063e17a684f1461019657610093565b80633acb764614610098578063452a9320146100b45780634f76f1ee146100d25780636cf6d675146100f0575b600080fd5b6100b260048036038101906100ad9190610c01565b6101b4565b005b6100bc6102a6565b6040516100c99190610ca9565b60405180910390f35b6100da6102cc565b6040516100e79190610cd3565b60405180910390f35b6100f86102d2565b6040516101059190610cd3565b60405180910390f35b61012860048036038101906101239190610de9565b6102d8565b005b610132610414565b60405161013f9190610eb4565b60405180910390f35b61015061041a565b60405161015d9190610cd3565b60405180910390f35b610180600480360381019061017b9190610ef3565b610420565b60405161018d9190610fbf565b60405180910390f35b61019e610526565b6040516101ab9190610cd3565b60405180910390f35b600560009054906101000a900473ffffffffffffffffffffffffffffffffffffffff1673ffffffffffffffffffffffffffffffffffffffff163373ffffffffffffffffffffffffffffffffffffffff161461023b576040517fef6d0f0200000000000000000000000000000000000000000000000000000000815260040160405180910390fd5b6004546003544261024c9190611009565b1015610284576040517f1c36ced200000000000000000000000000000000000000000000000000000000815260040160405180910390fd5b8360028190555082600181905550816003819055508060008190555050505050565b600560009054906101000a900473ffffffffffffffffffffffffffffffffffffffff1681565b60035481565b60045481565b818190508484905014610317576040517fc6617b7b00000000000000000000000000000000000000000000000000000000815260040160405180910390fd5b6000610323858561052c565b905060005461033a6002546001546003548561055f565b14610371576040517f177b5d9200000000000000000000000000000000000000000000000000000000815260040160405180910390fd5b600061038b6002548967ffffffffffffffff16898c61055f565b905061039d86868686856001546105bd565b806000819055508767ffffffffffffffff16600181905550600260008154809291906103c89061103d565b91905055506002547fe304b71f81a1aaf6d714401de28ba1ebdbb5ff9c5fee59ef2a6eb984f9e8da7e898b6040516104019291906110c0565b60405180910390a2505050505050505050565b60005481565b60015481565b6000828290508585905014610461576040517fc6617b7b00000000000000000000000000000000000000000000000000000000815260040160405180910390fd5b600061046d868661052c565b90506000546104846002546001546003548561055f565b146104bb576040517f177b5d9200000000000000000000000000000000000000000000000000000000815260040160405180910390fd5b6002548760400135146104fa576040517fd146bffa00000000000000000000000000000000000000000000000000000000815260040160405180910390fd5b6000610505886107a5565b905061051787878787856001546105bd565b60019250505095945050505050565b60025481565b60008282604051602001610541929190611248565b60405160208183030381529060405280519060200120905092915050565b60007f636865636b706f696e740000000000000000000000000000000000000000000060001b8585858560405160200161059d95949392919061126c565b604051602081830303815290604052805190602001209050949350505050565b600454600354426105ce9190611009565b1115610606576040517fe5e5e46400000000000000000000000000000000000000000000000000000000815260040160405180910390fd5b6000805b87879050811015610761576000801b86868381811061062c5761062b6112bf565b5b9050606002016020013514801561066157506000801b868683818110610655576106546112bf565b5b90506060020160400135145b801561069a5750600086868381811061067d5761067c6112bf565b5b90506060020160000160208101906106959190611327565b60ff16145b610754576106eb8888838181106106b4576106b36112bf565b5b90506040020160000160208101906106cc9190611354565b858888858181106106e0576106df6112bf565b5b905060600201610861565b610721576040517f8baa579f00000000000000000000000000000000000000000000000000000000815260040160405180910390fd5b878782818110610734576107336112bf565b5b90506040020160200135826107499190611381565b915082821015610761575b808060010191505061060a565b508181101561079c576040517fcabeb65500000000000000000000000000000000000000000000000000000000815260040160405180910390fd5b50505050505050565b60007f74656c6c6f7243757272656e744174746573746174696f6e000000000000000060001b82600001358380602001906107e091906113c4565b80600001906107ef91906113ec565b8580602001906107ff91906113c4565b6020013586806020019061081391906113c4565b604001358760400135886060013589608001358a60a001356040516020016108449a999897969594939291906114ad565b604051602081830303815290604052805190602001209050919050565b60008061086d846108cd565b9050610895818460000160208101906108869190611327565b85602001358660400135610903565b73ffffffffffffffffffffffffffffffffffffffff168573ffffffffffffffffffffffffffffffffffffffff16149150509392505050565b60007f19457468657265756d205369676e6564204d6573736167653a0a33320000000060005281601c52603c6000209050919050565b60008060008061091588888888610933565b9250925092506109258282610a27565b829350505050949350505050565b60008060007f7fffffffffffffffffffffffffffffff5d576e7357a4501ddfe92f46681b20a08460001c1115610973576000600385925092509250610a1d565b6000600188888888604051600081526020016040526040516109989493929190611552565b6020604051602081039080840390855afa1580156109ba573d6000803e3d6000fd5b505050602060405103519050600073ffffffffffffffffffffffffffffffffffffffff168173ffffffffffffffffffffffffffffffffffffffff1603610a0e57600060016000801b93509350935050610a1d565b8060008060001b935093509350505b9450945094915050565b60006003811115610a3b57610a3a611597565b5b826003811115610a4e57610a4d611597565b5b0315610b875760016003811115610a6857610a67611597565b5b826003811115610a7b57610a7a611597565b5b03610ab2576040517ff645eedf00000000000000000000000000000000000000000000000000000000815260040160405180910390fd5b60026003811115610ac657610ac5611597565b5b826003811115610ad957610ad8611597565b5b03610b1e578060001c6040517ffce698f7000000000000000000000000000000000000000000000000000000008152600401610b159190610cd3565b60405180910390fd5b600380811115610b3157610b30611597565b5b826003811115610b4457610b43611597565b5b03610b8657806040517fd78bce0c000000000000000000000000000000000000000000000000000000008152600401610b7d9190610eb4565b60405180910390fd5b5b5050565b600080fd5b600080fd5b6000819050919050565b610ba881610b95565b8114610bb357600080fd5b50565b600081359050610bc581610b9f565b92915050565b6000819050919050565b610bde81610bcb565b8114610be957600080fd5b50565b600081359050610bfb81610bd5565b92915050565b60008060008060808587031215610c1b57610c1a610b8b565b5b6000610c2987828801610bb6565b9450506020610c3a87828801610bb6565b9350506040610c4b87828801610bb6565b9250506060610c5c87828801610bec565b91505092959194509250565b600073ffffffffffffffffffffffffffffffffffffffff82169050919050565b6000610c9382610c68565b9050919050565b610ca381610c88565b82525050565b6000602082019050610cbe6000830184610c9a565b92915050565b610ccd81610b95565b82525050565b6000602082019050610ce86000830184610cc4565b92915050565b600067ffffffffffffffff82169050919050565b610d0b81610cee565b8114610d1657600080fd5b50565b600081359050610d2881610d02565b92915050565b600080fd5b600080fd5b600080fd5b60008083601f840112610d5357610d52610d2e565b5b8235905067ffffffffffffffff811115610d7057610d6f610d33565b5b602083019150836040820283011115610d8c57610d8b610d38565b5b9250929050565b60008083601f840112610da957610da8610d2e565b5b8235905067ffffffffffffffff811115610dc657610dc5610d33565b5b602083019150836060820283011115610de257610de1610d38565b5b9250929050565b600080600080600080600060a0888a031215610e0857610e07610b8b565b5b6000610e168a828b01610bec565b9750506020610e278a828b01610d19565b9650506040610e388a828b01610bb6565b955050606088013567ffffffffffffffff811115610e5957610e58610b90565b5b610e658a828b01610d3d565b9450945050608088013567ffffffffffffffff811115610e8857610e87610b90565b5b610e948a828b01610d93565b925092505092959891949750929550565b610eae81610bcb565b82525050565b6000602082019050610ec96000830184610ea5565b92915050565b600080fd5b600060c08284031215610eea57610ee9610ecf565b5b81905092915050565b600080600080600060608688031215610f0f57610f0e610b8b565b5b600086013567ffffffffffffffff811115610f2d57610f2c610b90565b5b610f3988828901610ed4565b955050602086013567ffffffffffffffff811115610f5a57610f59610b90565b5b610f6688828901610d3d565b9450945050604086013567ffffffffffffffff811115610f8957610f88610b90565b5b610f9588828901610d93565b92509250509295509295909350565b60008115159050919050565b610fb981610fa4565b82525050565b6000602082019050610fd46000830184610fb0565b92915050565b7f4e487b7100000000000000000000000000000000000000000000000000000000600052601160045260246000fd5b600061101482610b95565b915061101f83610b95565b925082820390508181111561103757611036610fda565b5b92915050565b600061104882610b95565b91507fffffffffffffffffffffffffffffffffffffffffffffffffffffffffffffffff820361107a57611079610fda565b5b600182019050919050565b6000819050919050565b60006110aa6110a56110a084610cee565b611085565b610b95565b9050919050565b6110ba8161108f565b82525050565b60006040820190506110d560008301856110b1565b6110e26020830184610ea5565b9392505050565b600082825260208201905092915050565b6000819050919050565b61110d81610c88565b811461111857600080fd5b50565b60008135905061112a81611104565b92915050565b600061113f602084018461111b565b905092915050565b61115081610c88565b82525050565b60006111656020840184610bb6565b905092915050565b61117681610b95565b82525050565b6040820161118d6000830183611130565b61119a6000850182611147565b506111a86020830183611156565b6111b5602085018261116d565b50505050565b60006111c7838361117c565b60408301905092915050565b600082905092915050565b6000604082019050919050565b60006111f783856110e9565b9350611202826110fa565b8060005b8581101561123b5761121882846111d3565b61122288826111bb565b975061122d836111de565b925050600181019050611206565b5085925050509392505050565b600060208201905081810360008301526112638184866111eb565b90509392505050565b600060a0820190506112816000830188610ea5565b61128e6020830187610cc4565b61129b6040830186610cc4565b6112a86060830185610cc4565b6112b56080830184610ea5565b9695505050505050565b7f4e487b7100000000000000000000000000000000000000000000000000000000600052603260045260246000fd5b600060ff82169050919050565b611304816112ee565b811461130f57600080fd5b50565b600081359050611321816112fb565b92915050565b60006020828403121561133d5761133c610b8b565b5b600061134b84828501611312565b91505092915050565b60006020828403121561136a57611369610b8b565b5b60006113788482850161111b565b91505092915050565b600061138c82610b95565b915061139783610b95565b92508282019050808211156113af576113ae610fda565b5b92915050565b600080fd5b600080fd5b600080fd5b6000823560016060038336030381126113e0576113df6113b5565b5b80830191505092915050565b60008083356001602003843603038112611409576114086113b5565b5b80840192508235915067ffffffffffffffff82111561142b5761142a6113ba565b5b602083019250600182023603831315611447576114466113bf565b5b509250929050565b600082825260208201905092915050565b82818337600083830152505050565b6000601f19601f8301169050919050565b600061148c838561144f565b9350611499838584611460565b6114a28361146f565b840190509392505050565b6000610120820190506114c3600083018d610ea5565b6114d0602083018c610ea5565b81810360408301526114e3818a8c611480565b90506114f26060830189610cc4565b6114ff6080830188610cc4565b61150c60a0830187610cc4565b61151960c0830186610cc4565b61152660e0830185610ea5565b611534610100830184610cc4565b9b9a5050505050505050505050565b61154c816112ee565b82525050565b60006080820190506115676000830187610ea5565b6115746020830186611543565b6115816040830185610ea5565b61158e6060830184610ea5565b95945050505050565b7f4e487b7100000000000000000000000000000000000000000000000000000000600052602160045260246000fdfea264697066735822122065d3c310dd87664a02b4e2c451d38c967a77353a1ddb92f66b0a0649dc448ce364736f6c63430008160033",
  "linkReferences": {},
  "deployedLinkReferences": {}
}