{
  "_format": "hh-sol-artifact-1",
  "contractName": "BlobstreamO",
  "sourceName": "contracts/bridge/BlobstreamO.sol",
  "abi": [
    {
      "inputs": [
        {
          "internalType": "uint256",
          "name": "_nonce",
          "type": "uint256"
        },
        {
          "internalType": "uint256",
          "name": "_powerThreshold",
          "type": "uint256"
        },
        {
          "internalType": "bytes32",
          "name": "_validatorSetCheckpoint",
          "type": "bytes32"
        }
      ],
      "stateMutability": "nonpayable",
      "type": "constructor"
    },
    {
      "inputs": [],
      "name": "ECDSAInvalidSignature",
      "type": "error"
    },
    {
      "inputs": [
        {
          "internalType": "uint256",
          "name": "length",
          "type": "uint256"
        }
      ],
      "name": "ECDSAInvalidSignatureLength",
      "type": "error"
    },
    {
      "inputs": [
        {
          "internalType": "bytes32",
          "name": "s",
          "type": "bytes32"
        }
      ],
      "name": "ECDSAInvalidSignatureS",
      "type": "error"
    },
    {
      "inputs": [],
      "name": "InsufficientVotingPower",
      "type": "error"
    },
    {
      "inputs": [],
      "name": "InvalidSignature",
      "type": "error"
    },
    {
      "inputs": [],
      "name": "InvalidValidatorSetNonce",
      "type": "error"
    },
    {
      "inputs": [],
      "name": "MalformedCurrentValidatorSet",
      "type": "error"
    },
    {
      "inputs": [],
      "name": "SuppliedValidatorSetInvalid",
      "type": "error"
    },
    {
      "anonymous": false,
      "inputs": [
        {
          "indexed": false,
          "internalType": "bytes32",
          "name": "_oracleRoot",
          "type": "bytes32"
        }
      ],
      "name": "NewOracleRoot",
      "type": "event"
    },
    {
      "anonymous": false,
      "inputs": [
        {
          "indexed": true,
          "internalType": "uint256",
          "name": "_nonce",
          "type": "uint256"
        },
        {
          "indexed": false,
          "internalType": "uint256",
          "name": "_powerThreshold",
          "type": "uint256"
        },
        {
          "indexed": false,
          "internalType": "bytes32",
          "name": "_validatorSetHash",
          "type": "bytes32"
        }
      ],
      "name": "ValidatorSetUpdated",
      "type": "event"
    },
    {
      "inputs": [],
      "name": "currentRelayedBlockHeight",
      "outputs": [
        {
          "internalType": "uint256",
          "name": "",
          "type": "uint256"
        }
      ],
      "stateMutability": "view",
      "type": "function"
    },
    {
      "inputs": [
        {
          "internalType": "bytes32",
          "name": "",
          "type": "bytes32"
        }
      ],
      "name": "isOracleRoot",
      "outputs": [
        {
          "internalType": "bool",
          "name": "",
          "type": "bool"
        }
      ],
      "stateMutability": "view",
      "type": "function"
    },
    {
      "inputs": [],
      "name": "lastValidatorSetCheckpoint",
      "outputs": [
        {
          "internalType": "bytes32",
          "name": "",
          "type": "bytes32"
        }
      ],
      "stateMutability": "view",
      "type": "function"
    },
    {
      "inputs": [
        {
          "internalType": "uint256",
          "name": "",
          "type": "uint256"
        }
      ],
      "name": "oracleRoots",
      "outputs": [
        {
          "internalType": "bytes32",
          "name": "",
          "type": "bytes32"
        }
      ],
      "stateMutability": "view",
      "type": "function"
    },
    {
      "inputs": [],
      "name": "powerThreshold",
      "outputs": [
        {
          "internalType": "uint256",
          "name": "",
          "type": "uint256"
        }
      ],
      "stateMutability": "view",
      "type": "function"
    },
    {
      "inputs": [
        {
          "internalType": "bytes32",
          "name": "_newValidatorSetHash",
          "type": "bytes32"
        },
        {
          "internalType": "uint64",
          "name": "_newPowerThreshold",
          "type": "uint64"
        },
        {
          "components": [
            {
              "internalType": "address",
              "name": "addr",
              "type": "address"
            },
            {
              "internalType": "uint256",
              "name": "power",
              "type": "uint256"
            }
          ],
          "internalType": "struct Validator[]",
          "name": "_currentValidatorSet",
          "type": "tuple[]"
        },
        {
          "components": [
            {
              "internalType": "uint8",
              "name": "v",
              "type": "uint8"
            },
            {
              "internalType": "bytes32",
              "name": "r",
              "type": "bytes32"
            },
            {
              "internalType": "bytes32",
              "name": "s",
              "type": "bytes32"
            }
          ],
          "internalType": "struct Signature[]",
          "name": "_sigs",
          "type": "tuple[]"
        }
      ],
      "name": "updateValidatorSet",
      "outputs": [],
      "stateMutability": "nonpayable",
      "type": "function"
    },
    {
      "inputs": [],
      "name": "validatorNonce",
      "outputs": [
        {
          "internalType": "uint256",
          "name": "",
          "type": "uint256"
        }
      ],
      "stateMutability": "view",
      "type": "function"
    },
    {
      "inputs": [
        {
          "components": [
            {
              "internalType": "bytes32",
              "name": "queryId",
              "type": "bytes32"
            },
            {
              "components": [
                {
                  "internalType": "bytes",
                  "name": "value",
                  "type": "bytes"
                },
                {
                  "internalType": "uint256",
                  "name": "timestamp",
                  "type": "uint256"
                },
                {
                  "internalType": "uint256",
                  "name": "consensusThreshold",
                  "type": "uint256"
                }
              ],
              "internalType": "struct ReportData",
              "name": "report",
              "type": "tuple"
            },
            {
              "internalType": "uint256",
              "name": "validatorNonce",
              "type": "uint256"
            },
            {
              "internalType": "uint256",
              "name": "powerThreshold",
              "type": "uint256"
            },
            {
              "internalType": "bytes32",
              "name": "validatorSetHash",
              "type": "bytes32"
            },
            {
              "internalType": "uint256",
              "name": "blockTimestamp",
              "type": "uint256"
            }
          ],
          "internalType": "struct OracleAttestationData",
          "name": "_attest",
          "type": "tuple"
        },
        {
          "components": [
            {
              "internalType": "address",
              "name": "addr",
              "type": "address"
            },
            {
              "internalType": "uint256",
              "name": "power",
              "type": "uint256"
            }
          ],
          "internalType": "struct Validator[]",
          "name": "_currentValidatorSet",
          "type": "tuple[]"
        },
        {
          "components": [
            {
              "internalType": "uint8",
              "name": "v",
              "type": "uint8"
            },
            {
              "internalType": "bytes32",
              "name": "r",
              "type": "bytes32"
            },
            {
              "internalType": "bytes32",
              "name": "s",
              "type": "bytes32"
            }
          ],
          "internalType": "struct Signature[]",
          "name": "_sigs",
          "type": "tuple[]"
        }
      ],
      "name": "verifyOracleData",
      "outputs": [
        {
          "internalType": "bool",
          "name": "",
          "type": "bool"
        }
      ],
      "stateMutability": "view",
      "type": "function"
    }
  ],
  "bytecode": "0x60806040523480156200001157600080fd5b506040516200156d3803806200156d8339818101604052810190620000379190620000d0565b8260028190555080600081905550816001819055505050506200012c565b600080fd5b6000819050919050565b6200006f816200005a565b81146200007b57600080fd5b50565b6000815190506200008f8162000064565b92915050565b6000819050919050565b620000aa8162000095565b8114620000b657600080fd5b50565b600081519050620000ca816200009f565b92915050565b600080600060608486031215620000ec57620000eb62000055565b5b6000620000fc868287016200007e565b93505060206200010f868287016200007e565b92505060406200012286828701620000b9565b9150509250925092565b611431806200013c6000396000f3fe608060405234801561001057600080fd5b50600436106100885760003560e01c8063ba95ec271161005b578063ba95ec2714610127578063cb908d5214610145578063d8256ec714610175578063e17a684f1461019357610088565b806331b53e521461008d57806391f6b44b146100bd57806393319d6e146100ed578063af082a7d14610109575b600080fd5b6100a760048036038101906100a29190610a8e565b6101b1565b6040516100b49190610ad6565b60405180910390f35b6100d760048036038101906100d29190610b27565b6101d1565b6040516100e49190610b63565b60405180910390f35b61010760048036038101906101029190610c79565b6101e9565b005b610111610320565b60405161011e9190610b63565b60405180910390f35b61012f610326565b60405161013c9190610d2f565b60405180910390f35b61015f600480360381019061015a9190610d6e565b61032c565b60405161016c9190610ad6565b60405180910390f35b61017d61042f565b60405161018a9190610d2f565b60405180910390f35b61019b610435565b6040516101a89190610d2f565b60405180910390f35b60056020528060005260406000206000915054906101000a900460ff1681565b60046020528060005260406000206000915090505481565b818190508484905014610228576040517fc6617b7b00000000000000000000000000000000000000000000000000000000815260040160405180910390fd5b6000610234858561043b565b90506000546102486002546001548461046e565b1461027f576040517f177b5d9200000000000000000000000000000000000000000000000000000000815260040160405180910390fd5b60006102986002548867ffffffffffffffff168a61046e565b90506102aa86868686856001546104c9565b806000819055508667ffffffffffffffff16600181905550600260008154809291906102d590610e4e565b91905055506002547fe304b71f81a1aaf6d714401de28ba1ebdbb5ff9c5fee59ef2a6eb984f9e8da7e888a60405161030e929190610ed1565b60405180910390a25050505050505050565b60005481565b60015481565b600082829050858590501461036d576040517fc6617b7b00000000000000000000000000000000000000000000000000000000815260040160405180910390fd5b6000610379868661043b565b905060005461038d6002546001548461046e565b146103c4576040517f177b5d9200000000000000000000000000000000000000000000000000000000815260040160405180910390fd5b600254876040013514610403576040517fd146bffa00000000000000000000000000000000000000000000000000000000815260040160405180910390fd5b600061040e88610668565b905061042087878787856001546104c9565b60019250505095945050505050565b60035481565b60025481565b6000828260405160200161045092919061108b565b60405160208183030381529060405280519060200120905092915050565b60007f636865636b706f696e740000000000000000000000000000000000000000000060001b8484846040516020016104aa94939291906110af565b6040516020818303038152906040528051906020012090509392505050565b6000805b87879050811015610624576000801b8686838181106104ef576104ee6110f4565b5b9050606002016020013514801561052457506000801b868683818110610518576105176110f4565b5b90506060020160400135145b801561055d575060008686838181106105405761053f6110f4565b5b9050606002016000016020810190610558919061115c565b60ff16145b610617576105ae888883818110610577576105766110f4565b5b905060400201600001602081019061058f9190611189565b858888858181106105a3576105a26110f4565b5b905060600201610724565b6105e4576040517f8baa579f00000000000000000000000000000000000000000000000000000000815260040160405180910390fd5b8787828181106105f7576105f66110f4565b5b905060400201602001358261060c91906111b6565b915082821015610624575b80806001019150506104cd565b508181101561065f576040517fcabeb65500000000000000000000000000000000000000000000000000000000815260040160405180910390fd5b50505050505050565b60007f74656c6c6f7243757272656e744174746573746174696f6e000000000000000060001b82600001358380602001906106a391906111f9565b80600001906106b29190611221565b8580602001906106c291906111f9565b602001358680602001906106d691906111f9565b604001358760400135886060013589608001358a60a001356040516020016107079a999897969594939291906112e2565b604051602081830303815290604052805190602001209050919050565b60008061073084610790565b905061075881846000016020810190610749919061115c565b856020013586604001356107c6565b73ffffffffffffffffffffffffffffffffffffffff168573ffffffffffffffffffffffffffffffffffffffff16149150509392505050565b60007f19457468657265756d205369676e6564204d6573736167653a0a33320000000060005281601c52603c6000209050919050565b6000806000806107d8888888886107f6565b9250925092506107e882826108ea565b829350505050949350505050565b60008060007f7fffffffffffffffffffffffffffffff5d576e7357a4501ddfe92f46681b20a08460001c11156108365760006003859250925092506108e0565b60006001888888886040516000815260200160405260405161085b9493929190611387565b6020604051602081039080840390855afa15801561087d573d6000803e3d6000fd5b505050602060405103519050600073ffffffffffffffffffffffffffffffffffffffff168173ffffffffffffffffffffffffffffffffffffffff16036108d157600060016000801b935093509350506108e0565b8060008060001b935093509350505b9450945094915050565b600060038111156108fe576108fd6113cc565b5b826003811115610911576109106113cc565b5b0315610a4a576001600381111561092b5761092a6113cc565b5b82600381111561093e5761093d6113cc565b5b03610975576040517ff645eedf00000000000000000000000000000000000000000000000000000000815260040160405180910390fd5b60026003811115610989576109886113cc565b5b82600381111561099c5761099b6113cc565b5b036109e1578060001c6040517ffce698f70000000000000000000000000000000000000000000000000000000081526004016109d89190610d2f565b60405180910390fd5b6003808111156109f4576109f36113cc565b5b826003811115610a0757610a066113cc565b5b03610a4957806040517fd78bce0c000000000000000000000000000000000000000000000000000000008152600401610a409190610b63565b60405180910390fd5b5b5050565b600080fd5b600080fd5b6000819050919050565b610a6b81610a58565b8114610a7657600080fd5b50565b600081359050610a8881610a62565b92915050565b600060208284031215610aa457610aa3610a4e565b5b6000610ab284828501610a79565b91505092915050565b60008115159050919050565b610ad081610abb565b82525050565b6000602082019050610aeb6000830184610ac7565b92915050565b6000819050919050565b610b0481610af1565b8114610b0f57600080fd5b50565b600081359050610b2181610afb565b92915050565b600060208284031215610b3d57610b3c610a4e565b5b6000610b4b84828501610b12565b91505092915050565b610b5d81610a58565b82525050565b6000602082019050610b786000830184610b54565b92915050565b600067ffffffffffffffff82169050919050565b610b9b81610b7e565b8114610ba657600080fd5b50565b600081359050610bb881610b92565b92915050565b600080fd5b600080fd5b600080fd5b60008083601f840112610be357610be2610bbe565b5b8235905067ffffffffffffffff811115610c0057610bff610bc3565b5b602083019150836040820283011115610c1c57610c1b610bc8565b5b9250929050565b60008083601f840112610c3957610c38610bbe565b5b8235905067ffffffffffffffff811115610c5657610c55610bc3565b5b602083019150836060820283011115610c7257610c71610bc8565b5b9250929050565b60008060008060008060808789031215610c9657610c95610a4e565b5b6000610ca489828a01610a79565b9650506020610cb589828a01610ba9565b955050604087013567ffffffffffffffff811115610cd657610cd5610a53565b5b610ce289828a01610bcd565b9450945050606087013567ffffffffffffffff811115610d0557610d04610a53565b5b610d1189828a01610c23565b92509250509295509295509295565b610d2981610af1565b82525050565b6000602082019050610d446000830184610d20565b92915050565b600080fd5b600060c08284031215610d6557610d64610d4a565b5b81905092915050565b600080600080600060608688031215610d8a57610d89610a4e565b5b600086013567ffffffffffffffff811115610da857610da7610a53565b5b610db488828901610d4f565b955050602086013567ffffffffffffffff811115610dd557610dd4610a53565b5b610de188828901610bcd565b9450945050604086013567ffffffffffffffff811115610e0457610e03610a53565b5b610e1088828901610c23565b92509250509295509295909350565b7f4e487b7100000000000000000000000000000000000000000000000000000000600052601160045260246000fd5b6000610e5982610af1565b91507fffffffffffffffffffffffffffffffffffffffffffffffffffffffffffffffff8203610e8b57610e8a610e1f565b5b600182019050919050565b6000819050919050565b6000610ebb610eb6610eb184610b7e565b610e96565b610af1565b9050919050565b610ecb81610ea0565b82525050565b6000604082019050610ee66000830185610ec2565b610ef36020830184610b54565b9392505050565b600082825260208201905092915050565b6000819050919050565b600073ffffffffffffffffffffffffffffffffffffffff82169050919050565b6000610f4082610f15565b9050919050565b610f5081610f35565b8114610f5b57600080fd5b50565b600081359050610f6d81610f47565b92915050565b6000610f826020840184610f5e565b905092915050565b610f9381610f35565b82525050565b6000610fa86020840184610b12565b905092915050565b610fb981610af1565b82525050565b60408201610fd06000830183610f73565b610fdd6000850182610f8a565b50610feb6020830183610f99565b610ff86020850182610fb0565b50505050565b600061100a8383610fbf565b60408301905092915050565b600082905092915050565b6000604082019050919050565b600061103a8385610efa565b935061104582610f0b565b8060005b8581101561107e5761105b8284611016565b6110658882610ffe565b975061107083611021565b925050600181019050611049565b5085925050509392505050565b600060208201905081810360008301526110a681848661102e565b90509392505050565b60006080820190506110c46000830187610b54565b6110d16020830186610d20565b6110de6040830185610d20565b6110eb6060830184610b54565b95945050505050565b7f4e487b7100000000000000000000000000000000000000000000000000000000600052603260045260246000fd5b600060ff82169050919050565b61113981611123565b811461114457600080fd5b50565b60008135905061115681611130565b92915050565b60006020828403121561117257611171610a4e565b5b600061118084828501611147565b91505092915050565b60006020828403121561119f5761119e610a4e565b5b60006111ad84828501610f5e565b91505092915050565b60006111c182610af1565b91506111cc83610af1565b92508282019050808211156111e4576111e3610e1f565b5b92915050565b600080fd5b600080fd5b600080fd5b600082356001606003833603038112611215576112146111ea565b5b80830191505092915050565b6000808335600160200384360303811261123e5761123d6111ea565b5b80840192508235915067ffffffffffffffff8211156112605761125f6111ef565b5b60208301925060018202360383131561127c5761127b6111f4565b5b509250929050565b600082825260208201905092915050565b82818337600083830152505050565b6000601f19601f8301169050919050565b60006112c18385611284565b93506112ce838584611295565b6112d7836112a4565b840190509392505050565b6000610120820190506112f8600083018d610b54565b611305602083018c610b54565b8181036040830152611318818a8c6112b5565b90506113276060830189610d20565b6113346080830188610d20565b61134160a0830187610d20565b61134e60c0830186610d20565b61135b60e0830185610b54565b611369610100830184610d20565b9b9a5050505050505050505050565b61138181611123565b82525050565b600060808201905061139c6000830187610b54565b6113a96020830186611378565b6113b66040830185610b54565b6113c36060830184610b54565b95945050505050565b7f4e487b7100000000000000000000000000000000000000000000000000000000600052602160045260246000fdfea2646970667358221220978655a49d4772924e6d65af61cfd60797c9d5a5c8097ce0a199e2c456bc15e664736f6c63430008160033",
  "linkReferences": {},
  "deployedLinkReferences": {}
}