{
  "_format": "hh-sol-artifact-1",
  "contractName": "BlobstreamO",
  "sourceName": "contracts/bridge/BlobstreamO.sol",
  "abi": [
    {
      "inputs": [
        {
          "internalType": "uint256",
          "name": "_nonce",
          "type": "uint256"
        },
        {
          "internalType": "uint256",
          "name": "_powerThreshold",
          "type": "uint256"
        },
        {
          "internalType": "uint256",
          "name": "_validatorTimestamp",
          "type": "uint256"
        },
        {
          "internalType": "uint256",
          "name": "_unbondingPeriod",
          "type": "uint256"
        },
        {
          "internalType": "bytes32",
          "name": "_validatorSetCheckpoint",
          "type": "bytes32"
        },
        {
          "internalType": "address",
          "name": "_guardian",
          "type": "address"
        }
      ],
      "stateMutability": "nonpayable",
      "type": "constructor"
    },
    {
      "inputs": [],
      "name": "ECDSAInvalidSignature",
      "type": "error"
    },
    {
      "inputs": [
        {
          "internalType": "uint256",
          "name": "length",
          "type": "uint256"
        }
      ],
      "name": "ECDSAInvalidSignatureLength",
      "type": "error"
    },
    {
      "inputs": [
        {
          "internalType": "bytes32",
          "name": "s",
          "type": "bytes32"
        }
      ],
      "name": "ECDSAInvalidSignatureS",
      "type": "error"
    },
    {
      "inputs": [],
      "name": "InsufficientVotingPower",
      "type": "error"
    },
    {
      "inputs": [],
      "name": "InvalidSignature",
      "type": "error"
    },
    {
      "inputs": [],
      "name": "InvalidValidatorSetNonce",
      "type": "error"
    },
    {
      "inputs": [],
      "name": "MalformedCurrentValidatorSet",
      "type": "error"
    },
    {
      "inputs": [],
      "name": "NotConsensusValue",
      "type": "error"
    },
    {
      "inputs": [],
      "name": "NotGuardian",
      "type": "error"
    },
    {
      "inputs": [],
      "name": "StaleValidatorSet",
      "type": "error"
    },
    {
      "inputs": [],
      "name": "SuppliedValidatorSetInvalid",
      "type": "error"
    },
    {
      "inputs": [],
      "name": "ValidatorSetNotStale",
      "type": "error"
    },
    {
      "anonymous": false,
      "inputs": [
        {
          "indexed": true,
          "internalType": "uint256",
          "name": "_nonce",
          "type": "uint256"
        },
        {
          "indexed": false,
          "internalType": "uint256",
          "name": "_powerThreshold",
          "type": "uint256"
        },
        {
          "indexed": false,
          "internalType": "uint256",
          "name": "_validatorTimestamp",
          "type": "uint256"
        },
        {
          "indexed": false,
          "internalType": "bytes32",
          "name": "_validatorSetHash",
          "type": "bytes32"
        }
      ],
      "name": "ValidatorSetUpdated",
      "type": "event"
    },
    {
      "inputs": [],
      "name": "guardian",
      "outputs": [
        {
          "internalType": "address",
          "name": "",
          "type": "address"
        }
      ],
      "stateMutability": "view",
      "type": "function"
    },
    {
      "inputs": [
        {
          "internalType": "uint256",
          "name": "_nonce",
          "type": "uint256"
        },
        {
          "internalType": "uint256",
          "name": "_powerThreshold",
          "type": "uint256"
        },
        {
          "internalType": "uint256",
          "name": "_validatorTimestamp",
          "type": "uint256"
        },
        {
          "internalType": "bytes32",
          "name": "_validatorSetCheckpoint",
          "type": "bytes32"
        }
      ],
      "name": "guardianResetValidatorSet",
      "outputs": [],
      "stateMutability": "nonpayable",
      "type": "function"
    },
    {
      "inputs": [],
      "name": "lastValidatorSetCheckpoint",
      "outputs": [
        {
          "internalType": "bytes32",
          "name": "",
          "type": "bytes32"
        }
      ],
      "stateMutability": "view",
      "type": "function"
    },
    {
      "inputs": [],
      "name": "powerThreshold",
      "outputs": [
        {
          "internalType": "uint256",
          "name": "",
          "type": "uint256"
        }
      ],
      "stateMutability": "view",
      "type": "function"
    },
    {
      "inputs": [],
      "name": "unbondingPeriod",
      "outputs": [
        {
          "internalType": "uint256",
          "name": "",
          "type": "uint256"
        }
      ],
      "stateMutability": "view",
      "type": "function"
    },
    {
      "inputs": [
        {
          "internalType": "bytes32",
          "name": "_newValidatorSetHash",
          "type": "bytes32"
        },
        {
          "internalType": "uint64",
          "name": "_newPowerThreshold",
          "type": "uint64"
        },
        {
          "internalType": "uint256",
          "name": "_newValidatorTimestamp",
          "type": "uint256"
        },
        {
          "components": [
            {
              "internalType": "address",
              "name": "addr",
              "type": "address"
            },
            {
              "internalType": "uint256",
              "name": "power",
              "type": "uint256"
            }
          ],
          "internalType": "struct Validator[]",
          "name": "_currentValidatorSet",
          "type": "tuple[]"
        },
        {
          "components": [
            {
              "internalType": "uint8",
              "name": "v",
              "type": "uint8"
            },
            {
              "internalType": "bytes32",
              "name": "r",
              "type": "bytes32"
            },
            {
              "internalType": "bytes32",
              "name": "s",
              "type": "bytes32"
            }
          ],
          "internalType": "struct Signature[]",
          "name": "_sigs",
          "type": "tuple[]"
        }
      ],
      "name": "updateValidatorSet",
      "outputs": [],
      "stateMutability": "nonpayable",
      "type": "function"
    },
    {
      "inputs": [],
      "name": "validatorNonce",
      "outputs": [
        {
          "internalType": "uint256",
          "name": "",
          "type": "uint256"
        }
      ],
      "stateMutability": "view",
      "type": "function"
    },
    {
      "inputs": [],
      "name": "validatorTimestamp",
      "outputs": [
        {
          "internalType": "uint256",
          "name": "",
          "type": "uint256"
        }
      ],
      "stateMutability": "view",
      "type": "function"
    },
    {
      "inputs": [
        {
          "components": [
            {
              "internalType": "bytes32",
              "name": "queryId",
              "type": "bytes32"
            },
            {
              "components": [
                {
                  "internalType": "bytes",
                  "name": "value",
                  "type": "bytes"
                },
                {
                  "internalType": "uint256",
                  "name": "timestamp",
                  "type": "uint256"
                },
                {
                  "internalType": "uint256",
                  "name": "aggregatePower",
                  "type": "uint256"
                },
                {
                  "internalType": "uint256",
                  "name": "previousTimestamp",
                  "type": "uint256"
                },
                {
                  "internalType": "uint256",
                  "name": "nextTimestamp",
                  "type": "uint256"
                }
              ],
              "internalType": "struct ReportData",
              "name": "report",
              "type": "tuple"
            },
            {
              "internalType": "uint256",
              "name": "attestTimestamp",
              "type": "uint256"
            }
          ],
          "internalType": "struct OracleAttestationData",
          "name": "_attest",
          "type": "tuple"
        },
        {
          "components": [
            {
              "internalType": "address",
              "name": "addr",
              "type": "address"
            },
            {
              "internalType": "uint256",
              "name": "power",
              "type": "uint256"
            }
          ],
          "internalType": "struct Validator[]",
          "name": "_currentValidatorSet",
          "type": "tuple[]"
        },
        {
          "components": [
            {
              "internalType": "uint8",
              "name": "v",
              "type": "uint8"
            },
            {
              "internalType": "bytes32",
              "name": "r",
              "type": "bytes32"
            },
            {
              "internalType": "bytes32",
              "name": "s",
              "type": "bytes32"
            }
          ],
          "internalType": "struct Signature[]",
          "name": "_sigs",
          "type": "tuple[]"
        }
      ],
      "name": "verifyConsensusOracleData",
      "outputs": [
        {
          "internalType": "bool",
          "name": "",
          "type": "bool"
        }
      ],
      "stateMutability": "view",
      "type": "function"
    },
    {
      "inputs": [
        {
          "components": [
            {
              "internalType": "bytes32",
              "name": "queryId",
              "type": "bytes32"
            },
            {
              "components": [
                {
                  "internalType": "bytes",
                  "name": "value",
                  "type": "bytes"
                },
                {
                  "internalType": "uint256",
                  "name": "timestamp",
                  "type": "uint256"
                },
                {
                  "internalType": "uint256",
                  "name": "aggregatePower",
                  "type": "uint256"
                },
                {
                  "internalType": "uint256",
                  "name": "previousTimestamp",
                  "type": "uint256"
                },
                {
                  "internalType": "uint256",
                  "name": "nextTimestamp",
                  "type": "uint256"
                }
              ],
              "internalType": "struct ReportData",
              "name": "report",
              "type": "tuple"
            },
            {
              "internalType": "uint256",
              "name": "attestTimestamp",
              "type": "uint256"
            }
          ],
          "internalType": "struct OracleAttestationData",
          "name": "_attest",
          "type": "tuple"
        },
        {
          "components": [
            {
              "internalType": "address",
              "name": "addr",
              "type": "address"
            },
            {
              "internalType": "uint256",
              "name": "power",
              "type": "uint256"
            }
          ],
          "internalType": "struct Validator[]",
          "name": "_currentValidatorSet",
          "type": "tuple[]"
        },
        {
          "components": [
            {
              "internalType": "uint8",
              "name": "v",
              "type": "uint8"
            },
            {
              "internalType": "bytes32",
              "name": "r",
              "type": "bytes32"
            },
            {
              "internalType": "bytes32",
              "name": "s",
              "type": "bytes32"
            }
          ],
          "internalType": "struct Signature[]",
          "name": "_sigs",
          "type": "tuple[]"
        }
      ],
      "name": "verifyOracleData",
      "outputs": [
        {
          "internalType": "bool",
          "name": "",
          "type": "bool"
        }
      ],
      "stateMutability": "view",
      "type": "function"
    }
  ],
  "bytecode": "0x60806040523480156200001157600080fd5b50604051620018ed380380620018ed833981810160405281019062000037919062000187565b856002819055508460018190555083600381905550826004819055508160008190555080600560006101000a81548173ffffffffffffffffffffffffffffffffffffffff021916908373ffffffffffffffffffffffffffffffffffffffff16021790555050505050505062000223565b600080fd5b6000819050919050565b620000c181620000ac565b8114620000cd57600080fd5b50565b600081519050620000e181620000b6565b92915050565b6000819050919050565b620000fc81620000e7565b81146200010857600080fd5b50565b6000815190506200011c81620000f1565b92915050565b600073ffffffffffffffffffffffffffffffffffffffff82169050919050565b60006200014f8262000122565b9050919050565b620001618162000142565b81146200016d57600080fd5b50565b600081519050620001818162000156565b92915050565b60008060008060008060c08789031215620001a757620001a6620000a7565b5b6000620001b789828a01620000d0565b9650506020620001ca89828a01620000d0565b9550506040620001dd89828a01620000d0565b9450506060620001f089828a01620000d0565b93505060806200020389828a016200010b565b92505060a06200021689828a0162000170565b9150509295509295509295565b6116ba80620002336000396000f3fe608060405234801561001057600080fd5b506004361061009e5760003560e01c806384330d4c1161006657806384330d4c14610149578063af082a7d14610165578063ba95ec2714610183578063c312b380146101a1578063e17a684f146101d15761009e565b80633acb7646146100a3578063452a9320146100bf5780634f76f1ee146100dd5780635121b26e146100fb5780636cf6d6751461012b575b600080fd5b6100bd60048036038101906100b89190610cb1565b6101ef565b005b6100c76102e1565b6040516100d49190610d59565b60405180910390f35b6100e5610307565b6040516100f29190610d83565b60405180910390f35b61011560048036038101906101109190610e7d565b61030d565b6040516101229190610f49565b60405180910390f35b610133610327565b6040516101409190610d83565b60405180910390f35b610163600480360381019061015e9190610fa4565b61032d565b005b61016d61047e565b60405161017a919061106f565b60405180910390f35b61018b610484565b6040516101989190610d83565b60405180910390f35b6101bb60048036038101906101b69190610e7d565b61048a565b6040516101c89190610f49565b60405180910390f35b6101d96104f3565b6040516101e69190610d83565b60405180910390f35b600560009054906101000a900473ffffffffffffffffffffffffffffffffffffffff1673ffffffffffffffffffffffffffffffffffffffff163373ffffffffffffffffffffffffffffffffffffffff1614610276576040517fef6d0f0200000000000000000000000000000000000000000000000000000000815260040160405180910390fd5b6004546003544261028791906110b9565b10156102bf576040517f1c36ced200000000000000000000000000000000000000000000000000000000815260040160405180910390fd5b8360028190555082600181905550816003819055508060008190555050505050565b600560009054906101000a900473ffffffffffffffffffffffffffffffffffffffff1681565b60035481565b600061031c86868686866104f9565b905095945050505050565b60045481565b81819050848490501461036c576040517fc6617b7b00000000000000000000000000000000000000000000000000000000815260040160405180910390fd5b600061037885856105c0565b905060005461038f600254600154600354856105f3565b146103c6576040517f177b5d9200000000000000000000000000000000000000000000000000000000815260040160405180910390fd5b60006103ec60016002546103da91906110ed565b8967ffffffffffffffff16898c6105f3565b90506103fe8686868685600154610651565b806000819055508767ffffffffffffffff16600181905550866003819055506002600081548092919061043090611121565b91905055506002547f9ef7d0f3898c73ccdcd76d7b44b7f79c9e925ab02685d482ec51111908fa7cf089898c60405161046b939291906111a4565b60405180910390a2505050505050505050565b60005481565b60015481565b600060015486806020019061049f91906111ea565b6040013510156104db576040517f1fbe0ff100000000000000000000000000000000000000000000000000000000815260040160405180910390fd5b6104e886868686866104f9565b905095945050505050565b60025481565b600082829050858590501461053a576040517fc6617b7b00000000000000000000000000000000000000000000000000000000815260040160405180910390fd5b600061054686866105c0565b905060005461055d600254600154600354856105f3565b14610594576040517f177b5d9200000000000000000000000000000000000000000000000000000000815260040160405180910390fd5b600061059f88610839565b90506105b18787878785600154610651565b60019250505095945050505050565b600082826040516020016105d5929190611371565b60405160208183030381529060405280519060200120905092915050565b60007f636865636b706f696e740000000000000000000000000000000000000000000060001b85858585604051602001610631959493929190611395565b604051602081830303815290604052805190602001209050949350505050565b6004546003544261066291906110b9565b111561069a576040517fe5e5e46400000000000000000000000000000000000000000000000000000000815260040160405180910390fd5b6000805b878790508110156107f5576000801b8686838181106106c0576106bf6113e8565b5b905060600201602001351480156106f557506000801b8686838181106106e9576106e86113e8565b5b90506060020160400135145b801561072e57506000868683818110610711576107106113e8565b5b90506060020160000160208101906107299190611450565b60ff16145b6107e85761077f888883818110610748576107476113e8565b5b9050604002016000016020810190610760919061147d565b85888885818110610774576107736113e8565b5b905060600201610911565b6107b5576040517f8baa579f00000000000000000000000000000000000000000000000000000000815260040160405180910390fd5b8787828181106107c8576107c76113e8565b5b90506040020160200135826107dd91906110ed565b9150828210156107f5575b808060010191505061069e565b5081811015610830576040517fcabeb65500000000000000000000000000000000000000000000000000000000815260040160405180910390fd5b50505050505050565b60007f74656c6c6f7243757272656e744174746573746174696f6e000000000000000060001b826000013583806020019061087491906111ea565b806000019061088391906114aa565b85806020019061089391906111ea565b602001358680602001906108a791906111ea565b604001358780602001906108bb91906111ea565b606001358880602001906108cf91906111ea565b608001356000548a604001356040516020016108f49a9998979695949392919061156b565b604051602081830303815290604052805190602001209050919050565b60008061091d8461097d565b9050610945818460000160208101906109369190611450565b856020013586604001356109b3565b73ffffffffffffffffffffffffffffffffffffffff168573ffffffffffffffffffffffffffffffffffffffff16149150509392505050565b60007f19457468657265756d205369676e6564204d6573736167653a0a33320000000060005281601c52603c6000209050919050565b6000806000806109c5888888886109e3565b9250925092506109d58282610ad7565b829350505050949350505050565b60008060007f7fffffffffffffffffffffffffffffff5d576e7357a4501ddfe92f46681b20a08460001c1115610a23576000600385925092509250610acd565b600060018888888860405160008152602001604052604051610a489493929190611610565b6020604051602081039080840390855afa158015610a6a573d6000803e3d6000fd5b505050602060405103519050600073ffffffffffffffffffffffffffffffffffffffff168173ffffffffffffffffffffffffffffffffffffffff1603610abe57600060016000801b93509350935050610acd565b8060008060001b935093509350505b9450945094915050565b60006003811115610aeb57610aea611655565b5b826003811115610afe57610afd611655565b5b0315610c375760016003811115610b1857610b17611655565b5b826003811115610b2b57610b2a611655565b5b03610b62576040517ff645eedf00000000000000000000000000000000000000000000000000000000815260040160405180910390fd5b60026003811115610b7657610b75611655565b5b826003811115610b8957610b88611655565b5b03610bce578060001c6040517ffce698f7000000000000000000000000000000000000000000000000000000008152600401610bc59190610d83565b60405180910390fd5b600380811115610be157610be0611655565b5b826003811115610bf457610bf3611655565b5b03610c3657806040517fd78bce0c000000000000000000000000000000000000000000000000000000008152600401610c2d919061106f565b60405180910390fd5b5b5050565b600080fd5b600080fd5b6000819050919050565b610c5881610c45565b8114610c6357600080fd5b50565b600081359050610c7581610c4f565b92915050565b6000819050919050565b610c8e81610c7b565b8114610c9957600080fd5b50565b600081359050610cab81610c85565b92915050565b60008060008060808587031215610ccb57610cca610c3b565b5b6000610cd987828801610c66565b9450506020610cea87828801610c66565b9350506040610cfb87828801610c66565b9250506060610d0c87828801610c9c565b91505092959194509250565b600073ffffffffffffffffffffffffffffffffffffffff82169050919050565b6000610d4382610d18565b9050919050565b610d5381610d38565b82525050565b6000602082019050610d6e6000830184610d4a565b92915050565b610d7d81610c45565b82525050565b6000602082019050610d986000830184610d74565b92915050565b600080fd5b600060608284031215610db957610db8610d9e565b5b81905092915050565b600080fd5b600080fd5b600080fd5b60008083601f840112610de757610de6610dc2565b5b8235905067ffffffffffffffff811115610e0457610e03610dc7565b5b602083019150836040820283011115610e2057610e1f610dcc565b5b9250929050565b60008083601f840112610e3d57610e3c610dc2565b5b8235905067ffffffffffffffff811115610e5a57610e59610dc7565b5b602083019150836060820283011115610e7657610e75610dcc565b5b9250929050565b600080600080600060608688031215610e9957610e98610c3b565b5b600086013567ffffffffffffffff811115610eb757610eb6610c40565b5b610ec388828901610da3565b955050602086013567ffffffffffffffff811115610ee457610ee3610c40565b5b610ef088828901610dd1565b9450945050604086013567ffffffffffffffff811115610f1357610f12610c40565b5b610f1f88828901610e27565b92509250509295509295909350565b60008115159050919050565b610f4381610f2e565b82525050565b6000602082019050610f5e6000830184610f3a565b92915050565b600067ffffffffffffffff82169050919050565b610f8181610f64565b8114610f8c57600080fd5b50565b600081359050610f9e81610f78565b92915050565b600080600080600080600060a0888a031215610fc357610fc2610c3b565b5b6000610fd18a828b01610c9c565b9750506020610fe28a828b01610f8f565b9650506040610ff38a828b01610c66565b955050606088013567ffffffffffffffff81111561101457611013610c40565b5b6110208a828b01610dd1565b9450945050608088013567ffffffffffffffff81111561104357611042610c40565b5b61104f8a828b01610e27565b925092505092959891949750929550565b61106981610c7b565b82525050565b60006020820190506110846000830184611060565b92915050565b7f4e487b7100000000000000000000000000000000000000000000000000000000600052601160045260246000fd5b60006110c482610c45565b91506110cf83610c45565b92508282039050818111156110e7576110e661108a565b5b92915050565b60006110f882610c45565b915061110383610c45565b925082820190508082111561111b5761111a61108a565b5b92915050565b600061112c82610c45565b91507fffffffffffffffffffffffffffffffffffffffffffffffffffffffffffffffff820361115e5761115d61108a565b5b600182019050919050565b6000819050919050565b600061118e61118961118484610f64565b611169565b610c45565b9050919050565b61119e81611173565b82525050565b60006060820190506111b96000830186611195565b6111c66020830185610d74565b6111d36040830184611060565b949350505050565b600080fd5b600080fd5b600080fd5b60008235600160a003833603038112611206576112056111db565b5b80830191505092915050565b600082825260208201905092915050565b6000819050919050565b61123681610d38565b811461124157600080fd5b50565b6000813590506112538161122d565b92915050565b60006112686020840184611244565b905092915050565b61127981610d38565b82525050565b600061128e6020840184610c66565b905092915050565b61129f81610c45565b82525050565b604082016112b66000830183611259565b6112c36000850182611270565b506112d1602083018361127f565b6112de6020850182611296565b50505050565b60006112f083836112a5565b60408301905092915050565b600082905092915050565b6000604082019050919050565b60006113208385611212565b935061132b82611223565b8060005b858110156113645761134182846112fc565b61134b88826112e4565b975061135683611307565b92505060018101905061132f565b5085925050509392505050565b6000602082019050818103600083015261138c818486611314565b90509392505050565b600060a0820190506113aa6000830188611060565b6113b76020830187610d74565b6113c46040830186610d74565b6113d16060830185610d74565b6113de6080830184611060565b9695505050505050565b7f4e487b7100000000000000000000000000000000000000000000000000000000600052603260045260246000fd5b600060ff82169050919050565b61142d81611417565b811461143857600080fd5b50565b60008135905061144a81611424565b92915050565b60006020828403121561146657611465610c3b565b5b60006114748482850161143b565b91505092915050565b60006020828403121561149357611492610c3b565b5b60006114a184828501611244565b91505092915050565b600080833560016020038436030381126114c7576114c66111db565b5b80840192508235915067ffffffffffffffff8211156114e9576114e86111e0565b5b602083019250600182023603831315611505576115046111e5565b5b509250929050565b600082825260208201905092915050565b82818337600083830152505050565b6000601f19601f8301169050919050565b600061154a838561150d565b935061155783858461151e565b6115608361152d565b840190509392505050565b600061012082019050611581600083018d611060565b61158e602083018c611060565b81810360408301526115a1818a8c61153e565b90506115b06060830189610d74565b6115bd6080830188610d74565b6115ca60a0830187610d74565b6115d760c0830186610d74565b6115e460e0830185611060565b6115f2610100830184610d74565b9b9a5050505050505050505050565b61160a81611417565b82525050565b60006080820190506116256000830187611060565b6116326020830186611601565b61163f6040830185611060565b61164c6060830184611060565b95945050505050565b7f4e487b7100000000000000000000000000000000000000000000000000000000600052602160045260246000fdfea26469706673582212200d880d91aa5905dd337ec277dd59284b85b7f7633b77c974e10793c28cbe487464736f6c63430008160033",
  "linkReferences": {},
  "deployedLinkReferences": {}
}