{
  "_format": "hh-sol-artifact-1",
  "contractName": "BlobstreamO",
  "sourceName": "contracts/bridge/BlobstreamO.sol",
  "abi": [
    {
      "inputs": [
        {
          "internalType": "uint256",
          "name": "_nonce",
          "type": "uint256"
        },
        {
          "internalType": "uint256",
          "name": "_powerThreshold",
          "type": "uint256"
        },
        {
          "internalType": "bytes32",
          "name": "_validatorSetCheckpoint",
          "type": "bytes32"
        }
      ],
      "stateMutability": "nonpayable",
      "type": "constructor"
    },
    {
      "inputs": [],
      "name": "ECDSAInvalidSignature",
      "type": "error"
    },
    {
      "inputs": [
        {
          "internalType": "uint256",
          "name": "length",
          "type": "uint256"
        }
      ],
      "name": "ECDSAInvalidSignatureLength",
      "type": "error"
    },
    {
      "inputs": [
        {
          "internalType": "bytes32",
          "name": "s",
          "type": "bytes32"
        }
      ],
      "name": "ECDSAInvalidSignatureS",
      "type": "error"
    },
    {
      "inputs": [],
      "name": "InsufficientVotingPower",
      "type": "error"
    },
    {
      "inputs": [],
      "name": "InvalidSignature",
      "type": "error"
    },
    {
      "inputs": [],
      "name": "MalformedCurrentValidatorSet",
      "type": "error"
    },
    {
      "inputs": [],
      "name": "SuppliedValidatorSetInvalid",
      "type": "error"
    },
    {
      "anonymous": false,
      "inputs": [
        {
          "indexed": false,
          "internalType": "bytes32",
          "name": "_oracleRoot",
          "type": "bytes32"
        }
      ],
      "name": "NewOracleRoot",
      "type": "event"
    },
    {
      "anonymous": false,
      "inputs": [
        {
          "indexed": true,
          "internalType": "uint256",
          "name": "_nonce",
          "type": "uint256"
        },
        {
          "indexed": false,
          "internalType": "uint256",
          "name": "_powerThreshold",
          "type": "uint256"
        },
        {
          "indexed": false,
          "internalType": "bytes32",
          "name": "_validatorSetHash",
          "type": "bytes32"
        }
      ],
      "name": "ValidatorSetUpdated",
      "type": "event"
    },
    {
      "inputs": [],
      "name": "currentRelayedBlockHeight",
      "outputs": [
        {
          "internalType": "uint256",
          "name": "",
          "type": "uint256"
        }
      ],
      "stateMutability": "view",
      "type": "function"
    },
    {
      "inputs": [
        {
          "internalType": "bytes32",
          "name": "",
          "type": "bytes32"
        }
      ],
      "name": "isOracleRoot",
      "outputs": [
        {
          "internalType": "bool",
          "name": "",
          "type": "bool"
        }
      ],
      "stateMutability": "view",
      "type": "function"
    },
    {
      "inputs": [],
      "name": "lastValidatorSetCheckpoint",
      "outputs": [
        {
          "internalType": "bytes32",
          "name": "",
          "type": "bytes32"
        }
      ],
      "stateMutability": "view",
      "type": "function"
    },
    {
      "inputs": [
        {
          "internalType": "uint256",
          "name": "",
          "type": "uint256"
        }
      ],
      "name": "oracleRoots",
      "outputs": [
        {
          "internalType": "bytes32",
          "name": "",
          "type": "bytes32"
        }
      ],
      "stateMutability": "view",
      "type": "function"
    },
    {
      "inputs": [],
      "name": "powerThreshold",
      "outputs": [
        {
          "internalType": "uint256",
          "name": "",
          "type": "uint256"
        }
      ],
      "stateMutability": "view",
      "type": "function"
    },
    {
      "inputs": [
        {
          "internalType": "bytes32",
          "name": "_oracleRoot",
          "type": "bytes32"
        },
        {
          "internalType": "uint256",
          "name": "_blockHeight",
          "type": "uint256"
        },
        {
          "components": [
            {
              "internalType": "address",
              "name": "addr",
              "type": "address"
            },
            {
              "internalType": "uint256",
              "name": "power",
              "type": "uint256"
            }
          ],
          "internalType": "struct Validator[]",
          "name": "_currentValidatorSet",
          "type": "tuple[]"
        },
        {
          "components": [
            {
              "internalType": "uint8",
              "name": "v",
              "type": "uint8"
            },
            {
              "internalType": "bytes32",
              "name": "r",
              "type": "bytes32"
            },
            {
              "internalType": "bytes32",
              "name": "s",
              "type": "bytes32"
            }
          ],
          "internalType": "struct Signature[]",
          "name": "_sigs",
          "type": "tuple[]"
        }
      ],
      "name": "submitOracleRoot",
      "outputs": [],
      "stateMutability": "nonpayable",
      "type": "function"
    },
    {
      "inputs": [
        {
          "internalType": "bytes32",
          "name": "_newValidatorSetHash",
          "type": "bytes32"
        },
        {
          "internalType": "uint64",
          "name": "_newPowerThreshold",
          "type": "uint64"
        },
        {
          "components": [
            {
              "internalType": "address",
              "name": "addr",
              "type": "address"
            },
            {
              "internalType": "uint256",
              "name": "power",
              "type": "uint256"
            }
          ],
          "internalType": "struct Validator[]",
          "name": "_currentValidatorSet",
          "type": "tuple[]"
        },
        {
          "components": [
            {
              "internalType": "uint8",
              "name": "v",
              "type": "uint8"
            },
            {
              "internalType": "bytes32",
              "name": "r",
              "type": "bytes32"
            },
            {
              "internalType": "bytes32",
              "name": "s",
              "type": "bytes32"
            }
          ],
          "internalType": "struct Signature[]",
          "name": "_sigs",
          "type": "tuple[]"
        }
      ],
      "name": "updateValidatorSet",
      "outputs": [],
      "stateMutability": "nonpayable",
      "type": "function"
    },
    {
      "inputs": [],
      "name": "validatorNonce",
      "outputs": [
        {
          "internalType": "uint256",
          "name": "",
          "type": "uint256"
        }
      ],
      "stateMutability": "view",
      "type": "function"
    },
    {
      "inputs": [
        {
          "internalType": "bytes32",
          "name": "_oracleRoot",
          "type": "bytes32"
        },
        {
          "components": [
            {
              "internalType": "uint256",
              "name": "height",
              "type": "uint256"
            },
            {
              "internalType": "bytes32",
              "name": "dataRoot",
              "type": "bytes32"
            }
          ],
          "internalType": "struct DataRootTuple",
          "name": "_tuple",
          "type": "tuple"
        },
        {
          "components": [
            {
              "internalType": "bytes32[]",
              "name": "sideNodes",
              "type": "bytes32[]"
            },
            {
              "internalType": "uint256",
              "name": "key",
              "type": "uint256"
            },
            {
              "internalType": "uint256",
              "name": "numLeaves",
              "type": "uint256"
            }
          ],
          "internalType": "struct BinaryMerkleProof",
          "name": "_proof",
          "type": "tuple"
        }
      ],
      "name": "verifyAttestation",
      "outputs": [
        {
          "internalType": "bool",
          "name": "",
          "type": "bool"
        }
      ],
      "stateMutability": "view",
      "type": "function"
    }
  ],
  "bytecode": "0x60806040523480156200001157600080fd5b50604051620021b8380380620021b88339818101604052810190620000379190620000d0565b8260028190555080600081905550816001819055505050506200012c565b600080fd5b6000819050919050565b6200006f816200005a565b81146200007b57600080fd5b50565b6000815190506200008f8162000064565b92915050565b6000819050919050565b620000aa8162000095565b8114620000b657600080fd5b50565b600081519050620000ca816200009f565b92915050565b600080600060608486031215620000ec57620000eb62000055565b5b6000620000fc868287016200007e565b93505060206200010f868287016200007e565b92505060406200012286828701620000b9565b9150509250925092565b61207c806200013c6000396000f3fe608060405234801561001057600080fd5b50600436106100935760003560e01c8063af082a7d11610066578063af082a7d14610130578063ba95ec271461014e578063d8256ec71461016c578063e17a684f1461018a578063e5e57eb5146101a857610093565b806331b53e521461009857806391f6b44b146100c857806393319d6e146100f8578063ae00249514610114575b600080fd5b6100b260048036038101906100ad9190611134565b6101d8565b6040516100bf919061117c565b60405180910390f35b6100e260048036038101906100dd91906111cd565b6101f8565b6040516100ef9190611209565b60405180910390f35b610112600480360381019061010d919061131f565b610210565b005b61012e600480360381019061012991906113c6565b610347565b005b610138610498565b6040516101459190611209565b60405180910390f35b61015661049e565b604051610163919061147c565b60405180910390f35b6101746104a4565b604051610181919061147c565b60405180910390f35b6101926104aa565b60405161019f919061147c565b60405180910390f35b6101c260048036038101906101bd91906116c0565b6104b0565b6040516101cf919061117c565b60405180910390f35b60056020528060005260406000206000915054906101000a900460ff1681565b60046020528060005260406000206000915090505481565b81819050848490501461024f576040517fc6617b7b00000000000000000000000000000000000000000000000000000000815260040160405180910390fd5b600061025b858561050f565b905060005461026f60025460015484610542565b146102a6576040517f177b5d9200000000000000000000000000000000000000000000000000000000815260040160405180910390fd5b60006102bf6002548867ffffffffffffffff168a610542565b90506102d1868686868560015461059d565b806000819055508667ffffffffffffffff16600181905550600260008154809291906102fc9061175e565b91905055506002547fe304b71f81a1aaf6d714401de28ba1ebdbb5ff9c5fee59ef2a6eb984f9e8da7e888a6040516103359291906117e1565b60405180910390a25050505050505050565b818190508484905014610386576040517fc6617b7b00000000000000000000000000000000000000000000000000000000815260040160405180910390fd5b600354851161039457600080fd5b8460038190555060006103a7858561050f565b90506000546103bb60025460015484610542565b146103f2576040517f177b5d9200000000000000000000000000000000000000000000000000000000815260040160405180910390fd5b6000610401600254888a61073c565b9050610413868686868560015461059d565b6001600560008a815260200190815260200160002060006101000a81548160ff0219169083151502179055508760046000898152602001908152602001600020819055507ffc8ea9eff66c3609bd97a4e7f00008b2fd44294c5e1996f6954fedec62c68afa886040516104869190611209565b60405180910390a15050505050505050565b60005481565b60015481565b60035481565b60025481565b60006005600085815260200190815260200160002060009054906101000a900460ff166104dc57600080fd5b6105068483856040516020016104f29190611857565b604051602081830303815290604052610797565b90509392505050565b600082826040516020016105249291906119f4565b60405160208183030381529060405280519060200120905092915050565b60007f636865636b706f696e740000000000000000000000000000000000000000000060001b84848460405160200161057e9493929190611a18565b6040516020818303038152906040528051906020012090509392505050565b6000805b878790508110156106f8576000801b8686838181106105c3576105c2611a5d565b5b905060600201602001351480156105f857506000801b8686838181106105ec576105eb611a5d565b5b90506060020160400135145b80156106315750600086868381811061061457610613611a5d565b5b905060600201600001602081019061062c9190611ac5565b60ff16145b6106eb5761068288888381811061064b5761064a611a5d565b5b90506040020160000160208101906106639190611af2565b8588888581811061067757610676611a5d565b5b905060600201610865565b6106b8576040517f8baa579f00000000000000000000000000000000000000000000000000000000815260040160405180910390fd5b8787828181106106cb576106ca611a5d565b5b90506040020160200135826106e09190611b1f565b9150828210156106f8575b80806001019150506105a1565b5081811015610733576040517fcabeb65500000000000000000000000000000000000000000000000000000000815260040160405180910390fd5b50505050505050565b60007f7472616e73616374696f6e42617463680000000000000000000000000000000060001b8484846040516020016107789493929190611a18565b6040516020818303038152906040528051906020012090509392505050565b600060018360400151116107c0576000836000015151146107bb576000905061085e565b6107e7565b6107d2836020015184604001516108d1565b836000015151146107e6576000905061085e565b5b82604001518360200151106107ff576000905061085e565b600061080a83610961565b905060008460000151510361083a5760018460400151036108305780851491505061085e565b600091505061085e565b6000610854856020015186604001518488600001516109df565b9050858114925050505b9392505050565b60008061087184610b9d565b90506108998184600001602081019061088a9190611ac5565b85602001358660400135610bd3565b73ffffffffffffffffffffffffffffffffffffffff168573ffffffffffffffffffffffffffffffffffffffff16149150509392505050565b60006108dc82610c03565b6101006108e99190611b53565b905060006001826108fa9190611b53565b6001901b905060018161090d9190611b53565b8411610919575061095b565b6001810361092b57600191505061095b565b61094b818561093a9190611b53565b82856109469190611b53565b6108d1565b60016109579190611b1f565b9150505b92915050565b60006002600060f81b8360405160200161097c929190611c45565b6040516020818303038152906040526040516109989190611c6d565b602060405180830381855afa1580156109b5573d6000803e3d6000fd5b5050506040513d601f19601f820116820180604052508101906109d89190611c99565b9050919050565b6000808403610a23576040517f08c379a0000000000000000000000000000000000000000000000000000000008152600401610a1a90611d49565b60405180910390fd5b60018403610a77576000825114610a6f576040517f08c379a0000000000000000000000000000000000000000000000000000000008152600401610a6690611db5565b60405180910390fd5b829050610b95565b6000825103610abb576040517f08c379a0000000000000000000000000000000000000000000000000000000008152600401610ab290611e21565b60405180910390fd5b6000610ac685610c3b565b90506000610ae384600060018751610ade9190611b53565b610c86565b905081871015610b38576000610afb888488856109df565b9050610b2e818660018851610b109190611b53565b81518110610b2157610b20611a5d565b5b6020026020010151610dde565b9350505050610b95565b6000610b5c8389610b499190611b53565b8489610b559190611b53565b88856109df565b9050610b8f8560018751610b709190611b53565b81518110610b8157610b80611a5d565b5b602002602001015182610dde565b93505050505b949350505050565b60007f19457468657265756d205369676e6564204d6573736167653a0a33320000000060005281601c52603c6000209050919050565b600080600080610be588888888610e5f565b925092509250610bf58282610f53565b829350505050949350505050565b60005b81816001901b1015610c2657600181610c1f9190611b1f565b9050610c06565b80610100610c349190611b53565b9050919050565b60006001821015610c4b57600080fd5b6000610c56836110b7565b90506000600182610c679190611b53565b6001901b9050838103610c7c57600181901c90505b8092505050919050565b606081831115610ccb576040517f08c379a0000000000000000000000000000000000000000000000000000000008152600401610cc290611eb3565b60405180910390fd5b8351831180610cda5750835182115b15610d1a576040517f08c379a0000000000000000000000000000000000000000000000000000000008152600401610d1190611f45565b60405180910390fd5b60008383610d289190611b53565b67ffffffffffffffff811115610d4157610d406114ad565b5b604051908082528060200260200182016040528015610d6f5781602001602082028036833780820191505090505b50905060008490505b83811015610dd257858181518110610d9357610d92611a5d565b5b6020026020010151828683610da89190611b53565b81518110610db957610db8611a5d565b5b6020026020010181815250508080600101915050610d78565b50809150509392505050565b60006002600160f81b8484604051602001610dfb93929190611f86565b604051602081830303815290604052604051610e179190611c6d565b602060405180830381855afa158015610e34573d6000803e3d6000fd5b5050506040513d601f19601f82011682018060405250810190610e579190611c99565b905092915050565b60008060007f7fffffffffffffffffffffffffffffff5d576e7357a4501ddfe92f46681b20a08460001c1115610e9f576000600385925092509250610f49565b600060018888888860405160008152602001604052604051610ec49493929190611fd2565b6020604051602081039080840390855afa158015610ee6573d6000803e3d6000fd5b505050602060405103519050600073ffffffffffffffffffffffffffffffffffffffff168173ffffffffffffffffffffffffffffffffffffffff1603610f3a57600060016000801b93509350935050610f49565b8060008060001b935093509350505b9450945094915050565b60006003811115610f6757610f66612017565b5b826003811115610f7a57610f79612017565b5b03156110b35760016003811115610f9457610f93612017565b5b826003811115610fa757610fa6612017565b5b03610fde576040517ff645eedf00000000000000000000000000000000000000000000000000000000815260040160405180910390fd5b60026003811115610ff257610ff1612017565b5b82600381111561100557611004612017565b5b0361104a578060001c6040517ffce698f7000000000000000000000000000000000000000000000000000000008152600401611041919061147c565b60405180910390fd5b60038081111561105d5761105c612017565b5b8260038111156110705761106f612017565b5b036110b257806040517fd78bce0c0000000000000000000000000000000000000000000000000000000081526004016110a99190611209565b60405180910390fd5b5b5050565b600080600090505b600083146110e15780806110d29061175e565b915050600183901c92506110bf565b80915050919050565b6000604051905090565b600080fd5b600080fd5b6000819050919050565b611111816110fe565b811461111c57600080fd5b50565b60008135905061112e81611108565b92915050565b60006020828403121561114a576111496110f4565b5b60006111588482850161111f565b91505092915050565b60008115159050919050565b61117681611161565b82525050565b6000602082019050611191600083018461116d565b92915050565b6000819050919050565b6111aa81611197565b81146111b557600080fd5b50565b6000813590506111c7816111a1565b92915050565b6000602082840312156111e3576111e26110f4565b5b60006111f1848285016111b8565b91505092915050565b611203816110fe565b82525050565b600060208201905061121e60008301846111fa565b92915050565b600067ffffffffffffffff82169050919050565b61124181611224565b811461124c57600080fd5b50565b60008135905061125e81611238565b92915050565b600080fd5b600080fd5b600080fd5b60008083601f84011261128957611288611264565b5b8235905067ffffffffffffffff8111156112a6576112a5611269565b5b6020830191508360408202830111156112c2576112c161126e565b5b9250929050565b60008083601f8401126112df576112de611264565b5b8235905067ffffffffffffffff8111156112fc576112fb611269565b5b6020830191508360608202830111156113185761131761126e565b5b9250929050565b6000806000806000806080878903121561133c5761133b6110f4565b5b600061134a89828a0161111f565b965050602061135b89828a0161124f565b955050604087013567ffffffffffffffff81111561137c5761137b6110f9565b5b61138889828a01611273565b9450945050606087013567ffffffffffffffff8111156113ab576113aa6110f9565b5b6113b789828a016112c9565b92509250509295509295509295565b600080600080600080608087890312156113e3576113e26110f4565b5b60006113f189828a0161111f565b965050602061140289828a016111b8565b955050604087013567ffffffffffffffff811115611423576114226110f9565b5b61142f89828a01611273565b9450945050606087013567ffffffffffffffff811115611452576114516110f9565b5b61145e89828a016112c9565b92509250509295509295509295565b61147681611197565b82525050565b6000602082019050611491600083018461146d565b92915050565b600080fd5b6000601f19601f8301169050919050565b7f4e487b7100000000000000000000000000000000000000000000000000000000600052604160045260246000fd5b6114e58261149c565b810181811067ffffffffffffffff82111715611504576115036114ad565b5b80604052505050565b60006115176110ea565b905061152382826114dc565b919050565b600080fd5b60006040828403121561154357611542611497565b5b61154d604061150d565b9050600061155d848285016111b8565b60008301525060206115718482850161111f565b60208301525092915050565b600067ffffffffffffffff821115611598576115976114ad565b5b602082029050602081019050919050565b60006115bc6115b78461157d565b61150d565b905080838252602082019050602084028301858111156115df576115de61126e565b5b835b8181101561160857806115f4888261111f565b8452602084019350506020810190506115e1565b5050509392505050565b600082601f83011261162757611626611264565b5b81356116378482602086016115a9565b91505092915050565b60006060828403121561165657611655611497565b5b611660606061150d565b9050600082013567ffffffffffffffff8111156116805761167f611528565b5b61168c84828501611612565b60008301525060206116a0848285016111b8565b60208301525060406116b4848285016111b8565b60408301525092915050565b6000806000608084860312156116d9576116d86110f4565b5b60006116e78682870161111f565b93505060206116f88682870161152d565b925050606084013567ffffffffffffffff811115611719576117186110f9565b5b61172586828701611640565b9150509250925092565b7f4e487b7100000000000000000000000000000000000000000000000000000000600052601160045260246000fd5b600061176982611197565b91507fffffffffffffffffffffffffffffffffffffffffffffffffffffffffffffffff820361179b5761179a61172f565b5b600182019050919050565b6000819050919050565b60006117cb6117c66117c184611224565b6117a6565b611197565b9050919050565b6117db816117b0565b82525050565b60006040820190506117f660008301856117d2565b61180360208301846111fa565b9392505050565b61181381611197565b82525050565b611822816110fe565b82525050565b60408201600082015161183e600085018261180a565b5060208201516118516020850182611819565b50505050565b600060408201905061186c6000830184611828565b92915050565b600082825260208201905092915050565b6000819050919050565b600073ffffffffffffffffffffffffffffffffffffffff82169050919050565b60006118b88261188d565b9050919050565b6118c8816118ad565b81146118d357600080fd5b50565b6000813590506118e5816118bf565b92915050565b60006118fa60208401846118d6565b905092915050565b61190b816118ad565b82525050565b600061192060208401846111b8565b905092915050565b6040820161193960008301836118eb565b6119466000850182611902565b506119546020830183611911565b611961602085018261180a565b50505050565b60006119738383611928565b60408301905092915050565b600082905092915050565b6000604082019050919050565b60006119a38385611872565b93506119ae82611883565b8060005b858110156119e7576119c4828461197f565b6119ce8882611967565b97506119d98361198a565b9250506001810190506119b2565b5085925050509392505050565b60006020820190508181036000830152611a0f818486611997565b90509392505050565b6000608082019050611a2d60008301876111fa565b611a3a602083018661146d565b611a47604083018561146d565b611a5460608301846111fa565b95945050505050565b7f4e487b7100000000000000000000000000000000000000000000000000000000600052603260045260246000fd5b600060ff82169050919050565b611aa281611a8c565b8114611aad57600080fd5b50565b600081359050611abf81611a99565b92915050565b600060208284031215611adb57611ada6110f4565b5b6000611ae984828501611ab0565b91505092915050565b600060208284031215611b0857611b076110f4565b5b6000611b16848285016118d6565b91505092915050565b6000611b2a82611197565b9150611b3583611197565b9250828201905080821115611b4d57611b4c61172f565b5b92915050565b6000611b5e82611197565b9150611b6983611197565b9250828203905081811115611b8157611b8061172f565b5b92915050565b60007fff0000000000000000000000000000000000000000000000000000000000000082169050919050565b6000819050919050565b611bce611bc982611b87565b611bb3565b82525050565b600081519050919050565b600081905092915050565b60005b83811015611c08578082015181840152602081019050611bed565b60008484015250505050565b6000611c1f82611bd4565b611c298185611bdf565b9350611c39818560208601611bea565b80840191505092915050565b6000611c518285611bbd565b600182019150611c618284611c14565b91508190509392505050565b6000611c798284611c14565b915081905092915050565b600081519050611c9381611108565b92915050565b600060208284031215611caf57611cae6110f4565b5b6000611cbd84828501611c84565b91505092915050565b600082825260208201905092915050565b7f63616e6e6f742063616c6c20636f6d70757465526f6f7448617368207769746860008201527f2030206e756d626572206f66206c656176657300000000000000000000000000602082015250565b6000611d33603383611cc6565b9150611d3e82611cd7565b604082019050919050565b60006020820190508181036000830152611d6281611d26565b9050919050565b7f756e657870656374656420696e6e657220686173686573000000000000000000600082015250565b6000611d9f601783611cc6565b9150611daa82611d69565b602082019050919050565b60006020820190508181036000830152611dce81611d92565b9050919050565b7f6578706563746564206174206c65617374206f6e6520696e6e65722068617368600082015250565b6000611e0b602083611cc6565b9150611e1682611dd5565b602082019050919050565b60006020820190508181036000830152611e3a81611dfe565b9050919050565b7f496e76616c69642072616e67653a205f626567696e206973206772656174657260008201527f207468616e205f656e6400000000000000000000000000000000000000000000602082015250565b6000611e9d602a83611cc6565b9150611ea882611e41565b604082019050919050565b60006020820190508181036000830152611ecc81611e90565b9050919050565b7f496e76616c69642072616e67653a205f626567696e206f72205f656e6420617260008201527f65206f7574206f6620626f756e64730000000000000000000000000000000000602082015250565b6000611f2f602f83611cc6565b9150611f3a82611ed3565b604082019050919050565b60006020820190508181036000830152611f5e81611f22565b9050919050565b6000819050919050565b611f80611f7b826110fe565b611f65565b82525050565b6000611f928286611bbd565b600182019150611fa28285611f6f565b602082019150611fb28284611f6f565b602082019150819050949350505050565b611fcc81611a8c565b82525050565b6000608082019050611fe760008301876111fa565b611ff46020830186611fc3565b61200160408301856111fa565b61200e60608301846111fa565b95945050505050565b7f4e487b7100000000000000000000000000000000000000000000000000000000600052602160045260246000fdfea2646970667358221220c101783ffc112cae411109a5c08ed52acc3829be18e687b86cebc6662c8fbac264736f6c63430008160033",
  "linkReferences": {},
  "deployedLinkReferences": {}
}