{
  "_format": "hh-sol-artifact-1",
  "contractName": "BlobstreamO",
  "sourceName": "contracts/bridge/BlobstreamO.sol",
  "abi": [
    {
      "inputs": [
        {
          "internalType": "uint256",
          "name": "_nonce",
          "type": "uint256"
        },
        {
          "internalType": "uint256",
          "name": "_powerThreshold",
          "type": "uint256"
        },
        {
          "internalType": "bytes32",
          "name": "_validatorSetCheckpoint",
          "type": "bytes32"
        }
      ],
      "stateMutability": "nonpayable",
      "type": "constructor"
    },
    {
      "inputs": [],
      "name": "ECDSAInvalidSignature",
      "type": "error"
    },
    {
      "inputs": [
        {
          "internalType": "uint256",
          "name": "length",
          "type": "uint256"
        }
      ],
      "name": "ECDSAInvalidSignatureLength",
      "type": "error"
    },
    {
      "inputs": [
        {
          "internalType": "bytes32",
          "name": "s",
          "type": "bytes32"
        }
      ],
      "name": "ECDSAInvalidSignatureS",
      "type": "error"
    },
    {
      "inputs": [],
      "name": "InsufficientVotingPower",
      "type": "error"
    },
    {
      "inputs": [],
      "name": "InvalidSignature",
      "type": "error"
    },
    {
      "inputs": [],
      "name": "InvalidValidatorSetNonce",
      "type": "error"
    },
    {
      "inputs": [],
      "name": "MalformedCurrentValidatorSet",
      "type": "error"
    },
    {
      "inputs": [],
      "name": "SuppliedValidatorSetInvalid",
      "type": "error"
    },
    {
      "anonymous": false,
      "inputs": [
        {
          "indexed": false,
          "internalType": "bytes32",
          "name": "_oracleRoot",
          "type": "bytes32"
        }
      ],
      "name": "NewOracleRoot",
      "type": "event"
    },
    {
      "anonymous": false,
      "inputs": [
        {
          "indexed": true,
          "internalType": "uint256",
          "name": "_nonce",
          "type": "uint256"
        },
        {
          "indexed": false,
          "internalType": "uint256",
          "name": "_powerThreshold",
          "type": "uint256"
        },
        {
          "indexed": false,
          "internalType": "bytes32",
          "name": "_validatorSetHash",
          "type": "bytes32"
        }
      ],
      "name": "ValidatorSetUpdated",
      "type": "event"
    },
    {
      "inputs": [],
      "name": "currentRelayedBlockHeight",
      "outputs": [
        {
          "internalType": "uint256",
          "name": "",
          "type": "uint256"
        }
      ],
      "stateMutability": "view",
      "type": "function"
    },
    {
      "inputs": [
        {
          "components": [
            {
              "internalType": "address",
              "name": "addr",
              "type": "address"
            },
            {
              "internalType": "uint256",
              "name": "power",
              "type": "uint256"
            }
          ],
          "internalType": "struct Validator[]",
          "name": "_currentValidatorSet",
          "type": "tuple[]"
        }
      ],
      "name": "deleteThisInputValSet",
      "outputs": [
        {
          "internalType": "address",
          "name": "",
          "type": "address"
        }
      ],
      "stateMutability": "pure",
      "type": "function"
    },
    {
      "inputs": [
        {
          "internalType": "bytes32",
          "name": "",
          "type": "bytes32"
        }
      ],
      "name": "isOracleRoot",
      "outputs": [
        {
          "internalType": "bool",
          "name": "",
          "type": "bool"
        }
      ],
      "stateMutability": "view",
      "type": "function"
    },
    {
      "inputs": [],
      "name": "lastValidatorSetCheckpoint",
      "outputs": [
        {
          "internalType": "bytes32",
          "name": "",
          "type": "bytes32"
        }
      ],
      "stateMutability": "view",
      "type": "function"
    },
    {
      "inputs": [
        {
          "internalType": "uint256",
          "name": "",
          "type": "uint256"
        }
      ],
      "name": "oracleRoots",
      "outputs": [
        {
          "internalType": "bytes32",
          "name": "",
          "type": "bytes32"
        }
      ],
      "stateMutability": "view",
      "type": "function"
    },
    {
      "inputs": [],
      "name": "powerThreshold",
      "outputs": [
        {
          "internalType": "uint256",
          "name": "",
          "type": "uint256"
        }
      ],
      "stateMutability": "view",
      "type": "function"
    },
    {
      "inputs": [
        {
          "internalType": "bytes32",
          "name": "_hash",
          "type": "bytes32"
        }
      ],
      "name": "toEthSignedMessageHashPublic",
      "outputs": [
        {
          "internalType": "bytes32",
          "name": "",
          "type": "bytes32"
        }
      ],
      "stateMutability": "pure",
      "type": "function"
    },
    {
      "inputs": [
        {
          "internalType": "bytes32",
          "name": "_hash",
          "type": "bytes32"
        },
        {
          "internalType": "bytes",
          "name": "signature",
          "type": "bytes"
        }
      ],
      "name": "tryRecoverPublic",
      "outputs": [
        {
          "internalType": "address",
          "name": "",
          "type": "address"
        },
        {
          "internalType": "enum ECDSA.RecoverError",
          "name": "",
          "type": "uint8"
        },
        {
          "internalType": "bytes32",
          "name": "",
          "type": "bytes32"
        }
      ],
      "stateMutability": "pure",
      "type": "function"
    },
    {
      "inputs": [
        {
          "internalType": "bytes32",
          "name": "_newValidatorSetHash",
          "type": "bytes32"
        },
        {
          "internalType": "uint64",
          "name": "_newPowerThreshold",
          "type": "uint64"
        },
        {
          "components": [
            {
              "internalType": "address",
              "name": "addr",
              "type": "address"
            },
            {
              "internalType": "uint256",
              "name": "power",
              "type": "uint256"
            }
          ],
          "internalType": "struct Validator[]",
          "name": "_currentValidatorSet",
          "type": "tuple[]"
        },
        {
          "components": [
            {
              "internalType": "uint8",
              "name": "v",
              "type": "uint8"
            },
            {
              "internalType": "bytes32",
              "name": "r",
              "type": "bytes32"
            },
            {
              "internalType": "bytes32",
              "name": "s",
              "type": "bytes32"
            }
          ],
          "internalType": "struct Signature[]",
          "name": "_sigs",
          "type": "tuple[]"
        }
      ],
      "name": "updateValidatorSet",
      "outputs": [],
      "stateMutability": "nonpayable",
      "type": "function"
    },
    {
      "inputs": [],
      "name": "validatorNonce",
      "outputs": [
        {
          "internalType": "uint256",
          "name": "",
          "type": "uint256"
        }
      ],
      "stateMutability": "view",
      "type": "function"
    },
    {
      "inputs": [
        {
          "components": [
            {
              "internalType": "bytes32",
              "name": "queryId",
              "type": "bytes32"
            },
            {
              "components": [
                {
                  "internalType": "bytes",
                  "name": "value",
                  "type": "bytes"
                },
                {
                  "internalType": "uint256",
                  "name": "timestamp",
                  "type": "uint256"
                },
                {
                  "internalType": "uint256",
                  "name": "consensusThreshold",
                  "type": "uint256"
                }
              ],
              "internalType": "struct ReportData",
              "name": "report",
              "type": "tuple"
            },
            {
              "internalType": "uint256",
              "name": "validatorNonce",
              "type": "uint256"
            },
            {
              "internalType": "uint256",
              "name": "powerThreshold",
              "type": "uint256"
            },
            {
              "internalType": "bytes32",
              "name": "validatorSetHash",
              "type": "bytes32"
            },
            {
              "internalType": "uint256",
              "name": "blockTimestamp",
              "type": "uint256"
            }
          ],
          "internalType": "struct OracleAttestationData",
          "name": "_attest",
          "type": "tuple"
        },
        {
          "components": [
            {
              "internalType": "address",
              "name": "addr",
              "type": "address"
            },
            {
              "internalType": "uint256",
              "name": "power",
              "type": "uint256"
            }
          ],
          "internalType": "struct Validator[]",
          "name": "_currentValidatorSet",
          "type": "tuple[]"
        },
        {
          "components": [
            {
              "internalType": "uint8",
              "name": "v",
              "type": "uint8"
            },
            {
              "internalType": "bytes32",
              "name": "r",
              "type": "bytes32"
            },
            {
              "internalType": "bytes32",
              "name": "s",
              "type": "bytes32"
            }
          ],
          "internalType": "struct Signature[]",
          "name": "_sigs",
          "type": "tuple[]"
        }
      ],
      "name": "verifyOracleData",
      "outputs": [
        {
          "internalType": "bool",
          "name": "",
          "type": "bool"
        }
      ],
      "stateMutability": "view",
      "type": "function"
    }
  ],
  "bytecode": "0x60806040523480156200001157600080fd5b5060405162001a7e38038062001a7e8339818101604052810190620000379190620000d0565b8260028190555080600081905550816001819055505050506200012c565b600080fd5b6000819050919050565b6200006f816200005a565b81146200007b57600080fd5b50565b6000815190506200008f8162000064565b92915050565b6000819050919050565b620000aa8162000095565b8114620000b657600080fd5b50565b600081519050620000ca816200009f565b92915050565b600080600060608486031215620000ec57620000eb62000055565b5b6000620000fc868287016200007e565b93505060206200010f868287016200007e565b92505060406200012286828701620000b9565b9150509250925092565b611942806200013c6000396000f3fe608060405234801561001057600080fd5b50600436106100a95760003560e01c8063adf9a27611610071578063adf9a2761461018c578063af082a7d146101bc578063ba95ec27146101da578063cb908d52146101f8578063d8256ec714610228578063e17a684f14610246576100a9565b80632abafff2146100ae57806331b53e52146100de5780634bf05a091461010e57806391f6b44b1461014057806393319d6e14610170575b600080fd5b6100c860048036038101906100c39190610d2c565b610264565b6040516100d59190610dba565b60405180910390f35b6100f860048036038101906100f39190610e0b565b61029a565b6040516101059190610e53565b60405180910390f35b61012860048036038101906101239190610faf565b6102ba565b60405161013793929190611091565b60405180910390f35b61015a600480360381019061015591906110fe565b6102d6565b604051610167919061112b565b60405180910390f35b61018a600480360381019061018591906111dc565b6102ee565b005b6101a660048036038101906101a19190610e0b565b61042e565b6040516101b3919061112b565b60405180910390f35b6101c4610440565b6040516101d1919061112b565b60405180910390f35b6101e2610446565b6040516101ef9190611292565b60405180910390f35b610212600480360381019061020d91906112d1565b61044c565b60405161021f9190610e53565b60405180910390f35b61023061054f565b60405161023d9190611292565b60405180910390f35b61024e610555565b60405161025b9190611292565b60405180910390f35b60008282600081811061027a57610279611382565b5b905060400201600001602081019061029291906113dd565b905092915050565b60056020528060005260406000206000915054906101000a900460ff1681565b60008060006102c9858561055b565b9250925092509250925092565b60046020528060005260406000206000915090505481565b81819050848490501461032d576040517fc6617b7b00000000000000000000000000000000000000000000000000000000815260040160405180910390fd5b600061033985856105b7565b905060005461034d600254600154846105ea565b14610384576040517f177b5d9200000000000000000000000000000000000000000000000000000000815260040160405180910390fd5b600061039d6002548867ffffffffffffffff168a6105ea565b90506103a881610645565b6103b886868686856001546106de565b806000819055508667ffffffffffffffff16600181905550600260008154809291906103e390611439565b91905055506002547fe304b71f81a1aaf6d714401de28ba1ebdbb5ff9c5fee59ef2a6eb984f9e8da7e888a60405161041c9291906114bc565b60405180910390a25050505050505050565b60006104398261087d565b9050919050565b60005481565b60015481565b600082829050858590501461048d576040517fc6617b7b00000000000000000000000000000000000000000000000000000000815260040160405180910390fd5b600061049986866105b7565b90506000546104ad600254600154846105ea565b146104e4576040517f177b5d9200000000000000000000000000000000000000000000000000000000815260040160405180910390fd5b600254876040013514610523576040517fd146bffa00000000000000000000000000000000000000000000000000000000815260040160405180910390fd5b600061052e886108b3565b905061054087878787856001546106de565b60019250505095945050505050565b60035481565b60025481565b600080600060418451036105a05760008060006020870151925060408701519150606087015160001a90506105928882858561096f565b9550955095505050506105b0565b60006002855160001b9250925092505b9250925092565b600082826040516020016105cc929190611618565b60405160208183030381529060405280519060200120905092915050565b60007f636865636b706f696e740000000000000000000000000000000000000000000060001b848484604051602001610626949392919061163c565b6040516020818303038152906040528051906020012090509392505050565b6106db81604051602401610659919061112b565b6040516020818303038152906040527f27b7cf85000000000000000000000000000000000000000000000000000000007bffffffffffffffffffffffffffffffffffffffffffffffffffffffff19166020820180517bffffffffffffffffffffffffffffffffffffffffffffffffffffffff8381831617835250505050610a63565b50565b6000805b87879050811015610839576000801b86868381811061070457610703611382565b5b9050606002016020013514801561073957506000801b86868381811061072d5761072c611382565b5b90506060020160400135145b80156107725750600086868381811061075557610754611382565b5b905060600201600001602081019061076d91906116ba565b60ff16145b61082c576107c388888381811061078c5761078b611382565b5b90506040020160000160208101906107a491906113dd565b858888858181106107b8576107b7611382565b5b905060600201610a7d565b6107f9576040517f8baa579f00000000000000000000000000000000000000000000000000000000815260040160405180910390fd5b87878281811061080c5761080b611382565b5b905060400201602001358261082191906116e7565b915082821015610839575b80806001019150506106e2565b5081811015610874576040517fcabeb65500000000000000000000000000000000000000000000000000000000815260040160405180910390fd5b50505050505050565b60007f19457468657265756d205369676e6564204d6573736167653a0a33320000000060005281601c52603c6000209050919050565b60007f74656c6c6f7243757272656e744174746573746174696f6e000000000000000060001b82600001358380602001906108ee919061172a565b80600001906108fd9190611752565b85806020019061090d919061172a565b60200135868060200190610921919061172a565b604001358760400135886060013589608001358a60a001356040516020016109529a999897969594939291906117f3565b604051602081830303815290604052805190602001209050919050565b60008060007f7fffffffffffffffffffffffffffffff5d576e7357a4501ddfe92f46681b20a08460001c11156109af576000600385925092509250610a59565b6000600188888888604051600081526020016040526040516109d49493929190611898565b6020604051602081039080840390855afa1580156109f6573d6000803e3d6000fd5b505050602060405103519050600073ffffffffffffffffffffffffffffffffffffffff168173ffffffffffffffffffffffffffffffffffffffff1603610a4a57600060016000801b93509350935050610a59565b8060008060001b935093509350505b9450945094915050565b610a7a81610a72610ae9610b0a565b63ffffffff16565b50565b600080610a898461087d565b9050610ab181846000016020810190610aa291906116ba565b85602001358660400135610b15565b73ffffffffffffffffffffffffffffffffffffffff168573ffffffffffffffffffffffffffffffffffffffff16149150509392505050565b60006a636f6e736f6c652e6c6f679050600080835160208501845afa505050565b610ca9819050919050565b600080600080610b278888888861096f565b925092509250610b378282610b45565b829350505050949350505050565b60006003811115610b5957610b5861100b565b5b826003811115610b6c57610b6b61100b565b5b0315610ca55760016003811115610b8657610b8561100b565b5b826003811115610b9957610b9861100b565b5b03610bd0576040517ff645eedf00000000000000000000000000000000000000000000000000000000815260040160405180910390fd5b60026003811115610be457610be361100b565b5b826003811115610bf757610bf661100b565b5b03610c3c578060001c6040517ffce698f7000000000000000000000000000000000000000000000000000000008152600401610c339190611292565b60405180910390fd5b600380811115610c4f57610c4e61100b565b5b826003811115610c6257610c6161100b565b5b03610ca457806040517fd78bce0c000000000000000000000000000000000000000000000000000000008152600401610c9b919061112b565b60405180910390fd5b5b5050565b610cb16118dd565b565b6000604051905090565b600080fd5b600080fd5b600080fd5b600080fd5b600080fd5b60008083601f840112610cec57610ceb610cc7565b5b8235905067ffffffffffffffff811115610d0957610d08610ccc565b5b602083019150836040820283011115610d2557610d24610cd1565b5b9250929050565b60008060208385031215610d4357610d42610cbd565b5b600083013567ffffffffffffffff811115610d6157610d60610cc2565b5b610d6d85828601610cd6565b92509250509250929050565b600073ffffffffffffffffffffffffffffffffffffffff82169050919050565b6000610da482610d79565b9050919050565b610db481610d99565b82525050565b6000602082019050610dcf6000830184610dab565b92915050565b6000819050919050565b610de881610dd5565b8114610df357600080fd5b50565b600081359050610e0581610ddf565b92915050565b600060208284031215610e2157610e20610cbd565b5b6000610e2f84828501610df6565b91505092915050565b60008115159050919050565b610e4d81610e38565b82525050565b6000602082019050610e686000830184610e44565b92915050565b600080fd5b6000601f19601f8301169050919050565b7f4e487b7100000000000000000000000000000000000000000000000000000000600052604160045260246000fd5b610ebc82610e73565b810181811067ffffffffffffffff82111715610edb57610eda610e84565b5b80604052505050565b6000610eee610cb3565b9050610efa8282610eb3565b919050565b600067ffffffffffffffff821115610f1a57610f19610e84565b5b610f2382610e73565b9050602081019050919050565b82818337600083830152505050565b6000610f52610f4d84610eff565b610ee4565b905082815260208101848484011115610f6e57610f6d610e6e565b5b610f79848285610f30565b509392505050565b600082601f830112610f9657610f95610cc7565b5b8135610fa6848260208601610f3f565b91505092915050565b60008060408385031215610fc657610fc5610cbd565b5b6000610fd485828601610df6565b925050602083013567ffffffffffffffff811115610ff557610ff4610cc2565b5b61100185828601610f81565b9150509250929050565b7f4e487b7100000000000000000000000000000000000000000000000000000000600052602160045260246000fd5b6004811061104b5761104a61100b565b5b50565b600081905061105c8261103a565b919050565b600061106c8261104e565b9050919050565b61107c81611061565b82525050565b61108b81610dd5565b82525050565b60006060820190506110a66000830186610dab565b6110b36020830185611073565b6110c06040830184611082565b949350505050565b6000819050919050565b6110db816110c8565b81146110e657600080fd5b50565b6000813590506110f8816110d2565b92915050565b60006020828403121561111457611113610cbd565b5b6000611122848285016110e9565b91505092915050565b60006020820190506111406000830184611082565b92915050565b600067ffffffffffffffff82169050919050565b61116381611146565b811461116e57600080fd5b50565b6000813590506111808161115a565b92915050565b60008083601f84011261119c5761119b610cc7565b5b8235905067ffffffffffffffff8111156111b9576111b8610ccc565b5b6020830191508360608202830111156111d5576111d4610cd1565b5b9250929050565b600080600080600080608087890312156111f9576111f8610cbd565b5b600061120789828a01610df6565b965050602061121889828a01611171565b955050604087013567ffffffffffffffff81111561123957611238610cc2565b5b61124589828a01610cd6565b9450945050606087013567ffffffffffffffff81111561126857611267610cc2565b5b61127489828a01611186565b92509250509295509295509295565b61128c816110c8565b82525050565b60006020820190506112a76000830184611283565b92915050565b600080fd5b600060c082840312156112c8576112c76112ad565b5b81905092915050565b6000806000806000606086880312156112ed576112ec610cbd565b5b600086013567ffffffffffffffff81111561130b5761130a610cc2565b5b611317888289016112b2565b955050602086013567ffffffffffffffff81111561133857611337610cc2565b5b61134488828901610cd6565b9450945050604086013567ffffffffffffffff81111561136757611366610cc2565b5b61137388828901611186565b92509250509295509295909350565b7f4e487b7100000000000000000000000000000000000000000000000000000000600052603260045260246000fd5b6113ba81610d99565b81146113c557600080fd5b50565b6000813590506113d7816113b1565b92915050565b6000602082840312156113f3576113f2610cbd565b5b6000611401848285016113c8565b91505092915050565b7f4e487b7100000000000000000000000000000000000000000000000000000000600052601160045260246000fd5b6000611444826110c8565b91507fffffffffffffffffffffffffffffffffffffffffffffffffffffffffffffffff82036114765761147561140a565b5b600182019050919050565b6000819050919050565b60006114a66114a161149c84611146565b611481565b6110c8565b9050919050565b6114b68161148b565b82525050565b60006040820190506114d160008301856114ad565b6114de6020830184611082565b9392505050565b600082825260208201905092915050565b6000819050919050565b600061150f60208401846113c8565b905092915050565b61152081610d99565b82525050565b600061153560208401846110e9565b905092915050565b611546816110c8565b82525050565b6040820161155d6000830183611500565b61156a6000850182611517565b506115786020830183611526565b611585602085018261153d565b50505050565b6000611597838361154c565b60408301905092915050565b600082905092915050565b6000604082019050919050565b60006115c783856114e5565b93506115d2826114f6565b8060005b8581101561160b576115e882846115a3565b6115f2888261158b565b97506115fd836115ae565b9250506001810190506115d6565b5085925050509392505050565b600060208201905081810360008301526116338184866115bb565b90509392505050565b60006080820190506116516000830187611082565b61165e6020830186611283565b61166b6040830185611283565b6116786060830184611082565b95945050505050565b600060ff82169050919050565b61169781611681565b81146116a257600080fd5b50565b6000813590506116b48161168e565b92915050565b6000602082840312156116d0576116cf610cbd565b5b60006116de848285016116a5565b91505092915050565b60006116f2826110c8565b91506116fd836110c8565b92508282019050808211156117155761171461140a565b5b92915050565b600080fd5b600080fd5b600080fd5b6000823560016060038336030381126117465761174561171b565b5b80830191505092915050565b6000808335600160200384360303811261176f5761176e61171b565b5b80840192508235915067ffffffffffffffff82111561179157611790611720565b5b6020830192506001820236038313156117ad576117ac611725565b5b509250929050565b600082825260208201905092915050565b60006117d283856117b5565b93506117df838584610f30565b6117e883610e73565b840190509392505050565b600061012082019050611809600083018d611082565b611816602083018c611082565b8181036040830152611829818a8c6117c6565b90506118386060830189611283565b6118456080830188611283565b61185260a0830187611283565b61185f60c0830186611283565b61186c60e0830185611082565b61187a610100830184611283565b9b9a5050505050505050505050565b61189281611681565b82525050565b60006080820190506118ad6000830187611082565b6118ba6020830186611889565b6118c76040830185611082565b6118d46060830184611082565b95945050505050565b7f4e487b7100000000000000000000000000000000000000000000000000000000600052605160045260246000fdfea2646970667358221220a5a9e004c29e1b477867c631e6857435f7f9d3800dd9fb8446d4ab2000b686e164736f6c63430008160033",
  "linkReferences": {},
  "deployedLinkReferences": {}
}