{
  "abi": [
    {
      "inputs": [
        {
          "internalType": "uint256",
          "name": "",
          "type": "uint256"
        }
      ],
      "name": "blockDetails",
      "outputs": [
        {
          "internalType": "bytes32",
          "name": "oracleHash",
          "type": "bytes32"
        },
        {
          "internalType": "uint64",
          "name": "timeSecond",
          "type": "uint64"
        },
        {
          "internalType": "uint32",
          "name": "timeNanoSecondFraction",
          "type": "uint32"
        }
      ],
      "stateMutability": "view",
      "type": "function"
    },
    {
      "inputs": [
        {
          "components": [
            {
              "internalType": "bytes",
              "name": "signedDataPrefix",
              "type": "bytes"
            },
            {
              "internalType": "bytes",
              "name": "signedDataSuffix",
              "type": "bytes"
            }
          ],
          "internalType": "struct LayerLightClientBridge.CommonEncodedVotePartData",
          "name": "_votePart",
          "type": "tuple"
        },
        {
          "internalType": "bytes32",
          "name": "_blockHash",
          "type": "bytes32"
        }
      ],
      "name": "checkPartsAndEncodedCommonParts",
      "outputs": [
        {
          "internalType": "bytes",
          "name": "",
          "type": "bytes"
        }
      ],
      "stateMutability": "pure",
      "type": "function"
    },
    {
      "inputs": [
        {
          "components": [
            {
              "internalType": "bytes32",
              "name": "r",
              "type": "bytes32"
            },
            {
              "internalType": "bytes32",
              "name": "s",
              "type": "bytes32"
            },
            {
              "internalType": "uint8",
              "name": "v",
              "type": "uint8"
            },
            {
              "internalType": "bytes",
              "name": "encodedTimestamp",
              "type": "bytes"
            }
          ],
          "internalType": "struct LayerLightClientBridge.TMSignatureData",
          "name": "_sigData",
          "type": "tuple"
        },
        {
          "internalType": "bytes",
          "name": "_commonEncodedPart",
          "type": "bytes"
        },
        {
          "internalType": "bytes",
          "name": "_encodedChainID",
          "type": "bytes"
        }
      ],
      "name": "checkTimeAndRecoverSigner",
      "outputs": [
        {
          "internalType": "address",
          "name": "",
          "type": "address"
        }
      ],
      "stateMutability": "pure",
      "type": "function"
    },
    {
      "inputs": [],
      "name": "encodedChainId",
      "outputs": [
        {
          "internalType": "bytes",
          "name": "",
          "type": "bytes"
        }
      ],
      "stateMutability": "view",
      "type": "function"
    },
    {
      "inputs": [
        {
          "components": [
            {
              "internalType": "bytes32",
              "name": "oracleIAVLStateHash",
              "type": "bytes32"
            },
            {
              "internalType": "bytes32",
              "name": "paramsStoreMerkleHash",
              "type": "bytes32"
            },
            {
              "internalType": "bytes32",
              "name": "slashingToStakingStoresMerkleHash",
              "type": "bytes32"
            },
            {
              "internalType": "bytes32",
              "name": "govToMintStoresMerkleHash",
              "type": "bytes32"
            },
            {
              "internalType": "bytes32",
              "name": "authToFeegrantStoresMerkleHash",
              "type": "bytes32"
            },
            {
              "internalType": "bytes32",
              "name": "transferToUpgradeStoresMerkleHash",
              "type": "bytes32"
            }
          ],
          "internalType": "struct LayerLightClientBridge.MultistoreData",
          "name": "_store",
          "type": "tuple"
        }
      ],
      "name": "getAppHash",
      "outputs": [
        {
          "internalType": "bytes32",
          "name": "",
          "type": "bytes32"
        }
      ],
      "stateMutability": "pure",
      "type": "function"
    },
    {
      "inputs": [
        {
          "components": [
            {
              "internalType": "bytes32",
              "name": "oracleIAVLStateHash",
              "type": "bytes32"
            },
            {
              "internalType": "bytes32",
              "name": "paramsStoreMerkleHash",
              "type": "bytes32"
            },
            {
              "internalType": "bytes32",
              "name": "slashingToStakingStoresMerkleHash",
              "type": "bytes32"
            },
            {
              "internalType": "bytes32",
              "name": "govToMintStoresMerkleHash",
              "type": "bytes32"
            },
            {
              "internalType": "bytes32",
              "name": "authToFeegrantStoresMerkleHash",
              "type": "bytes32"
            },
            {
              "internalType": "bytes32",
              "name": "transferToUpgradeStoresMerkleHash",
              "type": "bytes32"
            }
          ],
          "internalType": "struct LayerLightClientBridge.MultistoreData",
          "name": "_store",
          "type": "tuple"
        }
      ],
      "name": "getAppHash2",
      "outputs": [
        {
          "internalType": "bytes32",
          "name": "",
          "type": "bytes32"
        }
      ],
      "stateMutability": "pure",
      "type": "function"
    },
    {
      "inputs": [
        {
          "components": [
            {
              "internalType": "bytes32",
              "name": "versionAndChainIdHash",
              "type": "bytes32"
            },
            {
              "internalType": "uint64",
              "name": "height",
              "type": "uint64"
            },
            {
              "internalType": "uint64",
              "name": "timeSecond",
              "type": "uint64"
            },
            {
              "internalType": "uint32",
              "name": "timeNanoSecondFraction",
              "type": "uint32"
            },
            {
              "internalType": "bytes32",
              "name": "lastBlockIdAndOther",
              "type": "bytes32"
            },
            {
              "internalType": "bytes32",
              "name": "nextValidatorHashAndConsensusHash",
              "type": "bytes32"
            },
            {
              "internalType": "bytes32",
              "name": "lastResultsHash",
              "type": "bytes32"
            },
            {
              "internalType": "bytes32",
              "name": "evidenceAndProposerHash",
              "type": "bytes32"
            }
          ],
          "internalType": "struct LayerLightClientBridge.BlockHeaderMerkleParts",
          "name": "_merkleParts",
          "type": "tuple"
        },
        {
          "internalType": "bytes32",
          "name": "_appHash",
          "type": "bytes32"
        }
      ],
      "name": "getBlockHeader",
      "outputs": [
        {
          "internalType": "bytes32",
          "name": "",
          "type": "bytes32"
        }
      ],
      "stateMutability": "pure",
      "type": "function"
    },
    {
      "inputs": [
        {
          "internalType": "address[]",
          "name": "_validators",
          "type": "address[]"
        },
        {
          "internalType": "uint256[]",
          "name": "_powers",
          "type": "uint256[]"
        },
        {
          "internalType": "string",
          "name": "_encodedChainID",
          "type": "string"
        }
      ],
      "name": "init",
      "outputs": [],
      "stateMutability": "nonpayable",
      "type": "function"
    },
    {
      "inputs": [
        {
          "components": [
            {
              "internalType": "bytes32",
              "name": "oracleIAVLStateHash",
              "type": "bytes32"
            },
            {
              "internalType": "bytes32",
              "name": "paramsStoreMerkleHash",
              "type": "bytes32"
            },
            {
              "internalType": "bytes32",
              "name": "slashingToStakingStoresMerkleHash",
              "type": "bytes32"
            },
            {
              "internalType": "bytes32",
              "name": "govToMintStoresMerkleHash",
              "type": "bytes32"
            },
            {
              "internalType": "bytes32",
              "name": "authToFeegrantStoresMerkleHash",
              "type": "bytes32"
            },
            {
              "internalType": "bytes32",
              "name": "transferToUpgradeStoresMerkleHash",
              "type": "bytes32"
            }
          ],
          "internalType": "struct LayerLightClientBridge.MultistoreData",
          "name": "_multiStore",
          "type": "tuple"
        },
        {
          "components": [
            {
              "internalType": "bytes32",
              "name": "versionAndChainIdHash",
              "type": "bytes32"
            },
            {
              "internalType": "uint64",
              "name": "height",
              "type": "uint64"
            },
            {
              "internalType": "uint64",
              "name": "timeSecond",
              "type": "uint64"
            },
            {
              "internalType": "uint32",
              "name": "timeNanoSecondFraction",
              "type": "uint32"
            },
            {
              "internalType": "bytes32",
              "name": "lastBlockIdAndOther",
              "type": "bytes32"
            },
            {
              "internalType": "bytes32",
              "name": "nextValidatorHashAndConsensusHash",
              "type": "bytes32"
            },
            {
              "internalType": "bytes32",
              "name": "lastResultsHash",
              "type": "bytes32"
            },
            {
              "internalType": "bytes32",
              "name": "evidenceAndProposerHash",
              "type": "bytes32"
            }
          ],
          "internalType": "struct LayerLightClientBridge.BlockHeaderMerkleParts",
          "name": "_merkleParts",
          "type": "tuple"
        },
        {
          "components": [
            {
              "internalType": "bytes",
              "name": "signedDataPrefix",
              "type": "bytes"
            },
            {
              "internalType": "bytes",
              "name": "signedDataSuffix",
              "type": "bytes"
            }
          ],
          "internalType": "struct LayerLightClientBridge.CommonEncodedVotePartData",
          "name": "_commonEncodedVotePart",
          "type": "tuple"
        },
        {
          "components": [
            {
              "internalType": "bytes32",
              "name": "r",
              "type": "bytes32"
            },
            {
              "internalType": "bytes32",
              "name": "s",
              "type": "bytes32"
            },
            {
              "internalType": "uint8",
              "name": "v",
              "type": "uint8"
            },
            {
              "internalType": "bytes",
              "name": "encodedTimestamp",
              "type": "bytes"
            }
          ],
          "internalType": "struct LayerLightClientBridge.TMSignatureData[]",
          "name": "_signatures",
          "type": "tuple[]"
        }
      ],
      "name": "relayBlock",
      "outputs": [],
      "stateMutability": "nonpayable",
      "type": "function"
    },
    {
      "inputs": [],
      "name": "testNumber",
      "outputs": [
        {
          "internalType": "uint256",
          "name": "",
          "type": "uint256"
        }
      ],
      "stateMutability": "view",
      "type": "function"
    },
    {
      "inputs": [
        {
          "internalType": "uint256",
          "name": "x",
          "type": "uint256"
        }
      ],
      "name": "testSetNumber",
      "outputs": [],
      "stateMutability": "nonpayable",
      "type": "function"
    },
    {
      "inputs": [],
      "name": "totalValidatorPower",
      "outputs": [
        {
          "internalType": "uint256",
          "name": "",
          "type": "uint256"
        }
      ],
      "stateMutability": "view",
      "type": "function"
    },
    {
      "inputs": [
        {
          "internalType": "address",
          "name": "",
          "type": "address"
        }
      ],
      "name": "validatorPowers",
      "outputs": [
        {
          "internalType": "uint256",
          "name": "",
          "type": "uint256"
        }
      ],
      "stateMutability": "view",
      "type": "function"
    },
    {
      "inputs": [
        {
          "components": [
            {
              "internalType": "bytes32",
              "name": "oracleIAVLStateHash",
              "type": "bytes32"
            },
            {
              "internalType": "bytes32",
              "name": "paramsStoreMerkleHash",
              "type": "bytes32"
            },
            {
              "internalType": "bytes32",
              "name": "slashingToStakingStoresMerkleHash",
              "type": "bytes32"
            },
            {
              "internalType": "bytes32",
              "name": "govToMintStoresMerkleHash",
              "type": "bytes32"
            },
            {
              "internalType": "bytes32",
              "name": "authToFeegrantStoresMerkleHash",
              "type": "bytes32"
            },
            {
              "internalType": "bytes32",
              "name": "transferToUpgradeStoresMerkleHash",
              "type": "bytes32"
            }
          ],
          "internalType": "struct LayerLightClientBridge.MultistoreData",
          "name": "_multiStore",
          "type": "tuple"
        },
        {
          "components": [
            {
              "internalType": "bytes32",
              "name": "versionAndChainIdHash",
              "type": "bytes32"
            },
            {
              "internalType": "uint64",
              "name": "height",
              "type": "uint64"
            },
            {
              "internalType": "uint64",
              "name": "timeSecond",
              "type": "uint64"
            },
            {
              "internalType": "uint32",
              "name": "timeNanoSecondFraction",
              "type": "uint32"
            },
            {
              "internalType": "bytes32",
              "name": "lastBlockIdAndOther",
              "type": "bytes32"
            },
            {
              "internalType": "bytes32",
              "name": "nextValidatorHashAndConsensusHash",
              "type": "bytes32"
            },
            {
              "internalType": "bytes32",
              "name": "lastResultsHash",
              "type": "bytes32"
            },
            {
              "internalType": "bytes32",
              "name": "evidenceAndProposerHash",
              "type": "bytes32"
            }
          ],
          "internalType": "struct LayerLightClientBridge.BlockHeaderMerkleParts",
          "name": "_merkleParts",
          "type": "tuple"
        },
        {
          "components": [
            {
              "internalType": "bytes",
              "name": "signedDataPrefix",
              "type": "bytes"
            },
            {
              "internalType": "bytes",
              "name": "signedDataSuffix",
              "type": "bytes"
            }
          ],
          "internalType": "struct LayerLightClientBridge.CommonEncodedVotePartData",
          "name": "_commonEncodedVotePart",
          "type": "tuple"
        },
        {
          "components": [
            {
              "internalType": "bytes32",
              "name": "r",
              "type": "bytes32"
            },
            {
              "internalType": "bytes32",
              "name": "s",
              "type": "bytes32"
            },
            {
              "internalType": "uint8",
              "name": "v",
              "type": "uint8"
            },
            {
              "internalType": "bytes",
              "name": "encodedTimestamp",
              "type": "bytes"
            }
          ],
          "internalType": "struct LayerLightClientBridge.TMSignatureData[]",
          "name": "_signatures",
          "type": "tuple[]"
        }
      ],
      "name": "verifyBlockHeader",
      "outputs": [
        {
          "internalType": "bool",
          "name": "",
          "type": "bool"
        }
      ],
      "stateMutability": "view",
      "type": "function"
    },
    {
      "inputs": [
        {
          "internalType": "uint256",
          "name": "_blockHeight",
          "type": "uint256"
        },
        {
          "components": [
            {
              "internalType": "string",
              "name": "clientID",
              "type": "string"
            },
            {
              "internalType": "uint64",
              "name": "oracleScriptID",
              "type": "uint64"
            },
            {
              "internalType": "bytes",
              "name": "params",
              "type": "bytes"
            },
            {
              "internalType": "uint64",
              "name": "askCount",
              "type": "uint64"
            },
            {
              "internalType": "uint64",
              "name": "minCount",
              "type": "uint64"
            },
            {
              "internalType": "uint64",
              "name": "requestID",
              "type": "uint64"
            },
            {
              "internalType": "uint64",
              "name": "ansCount",
              "type": "uint64"
            },
            {
              "internalType": "uint64",
              "name": "requestTime",
              "type": "uint64"
            },
            {
              "internalType": "uint64",
              "name": "resolveTime",
              "type": "uint64"
            },
            {
              "internalType": "enum LayerLightClientBridge.ResolveStatus",
              "name": "resolveStatus",
              "type": "uint8"
            },
            {
              "internalType": "bytes",
              "name": "result",
              "type": "bytes"
            }
          ],
          "internalType": "struct LayerLightClientBridge.Value",
          "name": "_value",
          "type": "tuple"
        },
        {
          "internalType": "uint256",
          "name": "_oracleHeight",
          "type": "uint256"
        },
        {
          "components": [
            {
              "internalType": "bool",
              "name": "isDataOnRight",
              "type": "bool"
            },
            {
              "internalType": "uint8",
              "name": "subtreeHeight",
              "type": "uint8"
            },
            {
              "internalType": "uint256",
              "name": "subtreeSize",
              "type": "uint256"
            },
            {
              "internalType": "uint256",
              "name": "subtreeVersion",
              "type": "uint256"
            },
            {
              "internalType": "bytes32",
              "name": "siblingHash",
              "type": "bytes32"
            }
          ],
          "internalType": "struct LayerLightClientBridge.IAVLMerklePath[]",
          "name": "_merklePaths",
          "type": "tuple[]"
        }
      ],
      "name": "verifyOracleData",
      "outputs": [
        {
          "components": [
            {
              "internalType": "string",
              "name": "clientID",
              "type": "string"
            },
            {
              "internalType": "uint64",
              "name": "oracleScriptID",
              "type": "uint64"
            },
            {
              "internalType": "bytes",
              "name": "params",
              "type": "bytes"
            },
            {
              "internalType": "uint64",
              "name": "askCount",
              "type": "uint64"
            },
            {
              "internalType": "uint64",
              "name": "minCount",
              "type": "uint64"
            },
            {
              "internalType": "uint64",
              "name": "requestID",
              "type": "uint64"
            },
            {
              "internalType": "uint64",
              "name": "ansCount",
              "type": "uint64"
            },
            {
              "internalType": "uint64",
              "name": "requestTime",
              "type": "uint64"
            },
            {
              "internalType": "uint64",
              "name": "resolveTime",
              "type": "uint64"
            },
            {
              "internalType": "enum LayerLightClientBridge.ResolveStatus",
              "name": "resolveStatus",
              "type": "uint8"
            },
            {
              "internalType": "bytes",
              "name": "result",
              "type": "bytes"
            }
          ],
          "internalType": "struct LayerLightClientBridge.Value",
          "name": "",
          "type": "tuple"
        }
      ],
      "stateMutability": "view",
      "type": "function"
    }
  ],
  "bytecode": {
    "object": "0x608060405234801561001057600080fd5b506128ef806100206000396000f3fe608060405234801561001057600080fd5b50600436106100f55760003560e01c806393a4a13411610097578063e71296e111610066578063e71296e11461020d578063f61aa09d14610220578063f8156a6e14610240578063f953205a14610249576100f5565b806393a4a134146101a4578063af4b9107146101b7578063c573d977146101ca578063cc2532ba146101ea576100f5565b80635cd2458c116100d35780635cd2458c1461015457806364c471931461017457806370f985be1461017c578063847c1b2314610191576100f5565b8063071ee1e1146100fa5780630ac804c51461012a5780630d1972f31461014b575b600080fd5b61010d610108366004611fcc565b6102b1565b6040516001600160a01b0390911681526020015b60405180910390f35b61013d610138366004611f18565b610444565b604051908152602001610121565b61013d60005481565b610167610162366004611dce565b610532565b6040516101219190612466565b610167610643565b61018f61018a36600461204f565b600055565b005b61013d61019f366004611da2565b6106d1565b61018f6101b2366004611cb0565b61078a565b61018f6101c5366004611e75565b6108f2565b6101dd6101d8366004612067565b610a2d565b60405161012191906124a8565b6101fd6101f8366004611f33565b610c44565b6040519015158152602001610121565b61013d61021b366004611f18565b610e1c565b61013d61022e366004611c89565b60036020526000908152604090205481565b61013d60025481565b61028861025736600461204f565b600460205260009081526040902080546001909101546001600160401b03811690600160401b900463ffffffff1683565b604080519384526001600160401b03909216602084015263ffffffff1690820152606001610121565b60008360600151516006111580156102cf5750600c84606001515111155b61032e5760405162461bcd60e51b815260206004820152602560248201527f544d5369676e61747572653a20496e76616c69642074696d657374616d7027736044820152642073697a6560d81b60648201526084015b60405180910390fd5b6060840151805160405160009261034f928792602a929088906020016122be565b604051602081830303815290604052905060016002825183604051602001610378929190612351565b60408051601f198184030181529082905261039291612195565b602060405180830381855afa1580156103af573d6000803e3d6000fd5b5050506040513d601f19601f820116820180604052508101906103d29190611d6e565b60408088015188516020808b01518451600081529091019384905261040e94845260ff9290921660208401526040830152606082015260800190565b6020604051602081039080840390855afa158015610430573d6000803e3d6000fd5b5050604051601f1901519695505050505050565b60008061052961051f846080015161051a866060015161051a886040015161051a61051060028c6000015160405160200161048191815260200190565b60408051601f198184030181529082905261049b91612195565b602060405180830381855afa1580156104b8573d6000803e3d6000fd5b5050506040513d601f19601f820116820180604052508101906104db9190611d6e565b604051683363ab8b1b430b4b7160b51b6020820152602a810191909152604a015b604051602081830303815290604052610f14565b8b60200151610f8c565b610f8c565b8460a00151610f8c565b9150505b919050565b815151606090600f148061054857508251516018145b6105a95760405162461bcd60e51b815260206004820152602c60248201527f436f6d6d6f6e456e636f646564566f7465506172743a20496e76616c6964207060448201526b726566697827732073697a6560a01b6064820152608401610325565b8260200151516026146106135760405162461bcd60e51b815260206004820152602c60248201527f436f6d6d6f6e456e636f646564566f7465506172743a20496e76616c6964207360448201526b756666697827732073697a6560a01b6064820152608401610325565b825160208085015160405161062c9392869291016121b1565b604051602081830303815290604052905092915050565b6001805461065090612810565b80601f016020809104026020016040519081016040528092919081815260200182805461067c90612810565b80156106c95780601f1061069e576101008083540402835291602001916106c9565b820191906000526020600020905b8154815290600101906020018083116106ac57829003601f168201915b505050505081565b60008061078261073561072b866000015161051a61071160086107008b602001516001600160401b0316611011565b6040516020016104fc929190612351565b61051a6107268b604001518c60600151611143565b610f14565b8660800151610f8c565b60a0860151604051600560f91b6020820152600160fd1b60218201526022810187905261051a9161077891839061076e906042016104fc565b8a60c00151610f8c565b8760e00151610f8c565b949350505050565b6001805461079790612810565b1590506107dc5760405162461bcd60e51b8152602060048201526013602482015272105b1c9958591e481a5b9a5d1a585b1a5e9959606a1b6044820152606401610325565b60005b858110156108b15784848281811061080757634e487b7160e01b600052603260045260246000fd5b905060200201356003600089898581811061083257634e487b7160e01b600052603260045260246000fd5b90506020020160208101906108479190611c89565b6001600160a01b0316815260208101919091526040016000205584848281811061088157634e487b7160e01b600052603260045260246000fd5b90506020020135600260008282546108999190612601565b909155508190506108a98161284b565b9150506107df565b5081816040516020016108c5929190612479565b604051602081830303815290604052600190805190602001906108e99291906118d2565b50505050505050565b61092661090436879003870187611f18565b61091336879003870187611d86565b61091c866126af565b6101f885876126a2565b6109695760405162461bcd60e51b815260206004820152601460248201527324b73b30b634b210313637b1b5903432b0b232b960611b6044820152606401610325565b604051806060016040528086600001358152602001856040016020810190610991919061212d565b6001600160401b031681526020016109af6080870160608801612113565b63ffffffff169052600460006109cb604088016020890161212d565b6001600160401b0390811682526020808301939093526040918201600020845181559284015160019093018054949092015163ffffffff16600160401b026bffffffffffffffffffffffff199094169216919091179190911790555050505050565b610a8c6040805161016081018252606080825260006020830181905292820181905281018290526080810182905260a0810182905260c0810182905260e081018290526101008101829052906101208201908152602001606081525090565b60008681526004602052604090205480610ae15760405162461bcd60e51b8152602060048201526016602482015275139bc81c9bdbdd08185d081d1a1a5cc81a195a59da1d60521b6044820152606401610325565b60006002610af6610af1896126bb565b6111c0565b604051610b039190612195565b602060405180830381855afa158015610b20573d6000803e3d6000fd5b5050506040513d601f19601f82011682018060405250810190610b439190611d6e565b9050610bf3828760ff610b5c60c08c0160a08d0161212d565b604051602001610b9292919060f89290921b6001600160f81b031916825260c01b6001600160c01b031916600182015260090190565b60408051601f1981840301815260208a8102840181019092528983529186918b908b90819060009085015b82821015610be957610bda60a08302860136819003810190611e10565b81526020019060010190610bbd565b5050505050611569565b610c2f5760405162461bcd60e51b815260206004820152600d60248201526c24b73b30b634b210383937b7b360991b6044820152606401610325565b610c38876126bb565b98975050505050505050565b600080610c5086610e1c565b90506000610c5e86836106d1565b90506000610c6c8683610532565b9050600060018054610c7d90612810565b80601f0160208091040260200160405190810160405280929190818152602001828054610ca990612810565b8015610cf65780601f10610ccb57610100808354040283529160200191610cf6565b820191906000526020600020905b815481529060010190602001808311610cd957829003601f168201915b5050505050905060008060005b8851811015610df2576000610d408a8381518110610d3157634e487b7160e01b600052603260045260246000fd5b602002602001015187876102b1565b9050836001600160a01b0316816001600160a01b031611610d9a5760405162461bcd60e51b815260206004820152601460248201527324b73b30b634b21039b4b3b732b91037b93232b960611b6044820152606401610325565b6001600160a01b03811660009081526003602052604090205415610dde576001600160a01b038116600090815260036020526040902054610ddb9084612601565b92505b925080610dea8161284b565b915050610d03565b5060028054610e0091612644565b610e0b826003612644565b10159b9a5050505050505050505050565b600080610eba60028460000151604051602001610e3b91815260200190565b60408051601f1981840301815290829052610e5591612195565b602060405180830381855afa158015610e72573d6000803e3d6000fd5b5050506040513d601f19601f82011682018060405250810190610e959190611d6e565b604051684363ab8b1b430b4b7160b51b6020820152602a810191909152604a016104fc565b90506000610ecc828560200151610f8c565b90506000610ede856040015183610f8c565b90506000610ef0866060015183610f8c565b90506000610f02876080015183610f8c565b90506000610c38828960a00151610f8c565b60006002600083604051602001610f2c929190612351565b60408051601f1981840301815290829052610f4691612195565b602060405180830381855afa158015610f63573d6000803e3d6000fd5b5050506040513d601f19601f82011682018060405250810190610f869190611d6e565b92915050565b604051600160f81b6020820152602181018390526041810182905260009060029060610160408051601f1981840301815290829052610fca91612195565b602060405180830381855afa158015610fe7573d6000803e3d6000fd5b5050506040513d601f19601f8201168201806040525081019061100a9190611d6e565b9392505050565b60608160005b8115611034576110268161284b565b9050600782901c9150611017565b6000816001600160401b0381111561105c57634e487b7160e01b600052604160045260246000fd5b6040519080825280601f01601f191660200182016040528015611086576020820181803683370190505b50905084925060005b828110156110ef5783607f1660801760f81b8282815181106110c157634e487b7160e01b600052603260045260246000fd5b60200101906001600160f81b031916908160001a90535060079390931c926110e88161284b565b905061108f565b50607f60f81b81611101600185612663565b8151811061111f57634e487b7160e01b600052603260045260246000fd5b0160200180519091166001600160f81b03191690600082901a905350949350505050565b60606000611159846001600160401b0316611011565b6040516020016111699190612327565b60408051601f19818403018152919052905063ffffffff83161561100a57806111978463ffffffff16611011565b6040516020016111a8929190612282565b60405160208183030381529060405290509392505050565b80515160609081901561120e57806111db600160025b611657565b8451516111e79061167f565b85516040516111fc949392919060200161222b565b60405160208183030381529060405290505b60208301516001600160401b03161561125f578061122e600260006111d6565b61123b856020015161167f565b60405160200161124d939291906121e8565b60405160208183030381529060405290505b604083015151156112af5780611277600360026111d6565b61128585604001515161167f565b856040015160405160200161129d949392919061222b565b60405160208183030381529060405290505b60608301516001600160401b03161561130057806112cf600460006111d6565b6112dc856060015161167f565b6040516020016112ee939291906121e8565b60405160208183030381529060405290505b60808301516001600160401b0316156113515780611320600560006111d6565b61132d856080015161167f565b60405160200161133f939291906121e8565b60405160208183030381529060405290505b60a08301516001600160401b0316156113a25780611371600660006111d6565b61137e8560a0015161167f565b604051602001611390939291906121e8565b60405160208183030381529060405290505b60c08301516001600160401b0316156113f357806113c2600760006111d6565b6113cf8560c0015161167f565b6040516020016113e1939291906121e8565b60405160208183030381529060405290505b60e08301516001600160401b0316156114445780611413600860006111d6565b6114208560e0015161167f565b604051602001611432939291906121e8565b60405160208183030381529060405290505b6101008301516001600160401b0316156114975780611465600960006111d6565b61147385610100015161167f565b604051602001611485939291906121e8565b60405160208183030381529060405290505b82610120015160038111156114bc57634e487b7160e01b600052602160045260246000fd5b6001600160401b03161561152857806114d7600a60006111d6565b61150485610120015160038111156114ff57634e487b7160e01b600052602160045260246000fd5b61168a565b604051602001611516939291906121e8565b60405160208183030381529060405290505b6101408301515115610f865780611541600b60026111d6565b6115508561014001515161167f565b85610140015160405160200161062c949392919061222b565b60008061157586611011565b905060006002600060028489518a60208b60405160200161159c97969594939291906123ef565b60408051601f19818403018152908290526115b691612195565b602060405180830381855afa1580156115d3573d6000803e3d6000fd5b5050506040513d601f19601f820116820180604052508101906115f69190611d6e565b905060005b84518110156116495761163585828151811061162757634e487b7160e01b600052603260045260246000fd5b60200260200101518361169b565b9150806116418161284b565b9150506115fb565b509096149695505050505050565b60606807fffffffffffffff8600384901b16821760006116768261175d565b95945050505050565b6060610f868261175d565b6060610f868263ffffffff1661175d565b600080600084600001516116b4578385608001516116bb565b8460800151845b9150915060026001866020015160ff16901b6116da87604001516118bd565b6116e788606001516118bd565b6020866020876040516020016117039796959493929190612380565b60408051601f198184030181529082905261171d91612195565b602060405180830381855afa15801561173a573d6000803e3d6000fd5b5050506040513d601f19601f820116820180604052508101906116769190611d6e565b60608160015b607f826001600160401b03161115611799576007826001600160401b0316901c91506001816117929190612619565b9050611763565b6000816001600160401b03166001600160401b038111156117ca57634e487b7160e01b600052604160045260246000fd5b6040519080825280601f01601f1916602001820160405280156117f4576020820181803683370190505b50905084925060005b826001600160401b0316816001600160401b031610156118845783607f1660801760f81b82826001600160401b03168151811061184a57634e487b7160e01b600052603260045260246000fd5b60200101906001600160f81b031916908160001a9053506007846001600160401b0316901c9350808061187c90612866565b9150506117fd565b50607f60f81b8161189660018561267a565b6001600160401b03168151811061111f57634e487b7160e01b600052603260045260246000fd5b6060610f866118cd836002612644565b611011565b8280546118de90612810565b90600052602060002090601f0160209004810192826119005760008555611946565b82601f1061191957805160ff1916838001178555611946565b82800160010185558215611946579182015b8281111561194657825182559160200191906001019061192b565b50611952929150611956565b5090565b5b808211156119525760008155600101611957565b60006001600160401b03831115611984576119846128a3565b6020611994818560051b016125d1565b84815291508082018360005b868110156119c7576119b58883358801611be0565b835291830191908301906001016119a0565b505050509392505050565b60008083601f8401126119e3578182fd5b5081356001600160401b038111156119f9578182fd5b6020830191508360208260051b8501011115611a1457600080fd5b9250929050565b600082601f830112611a2b578081fd5b81356001600160401b03811115611a4457611a446128a3565b611a57601f8201601f19166020016125d1565b818152846020838601011115611a6b578283fd5b816020850160208301379081016020019190915292915050565b80356004811061052d57600080fd5b6000610100808385031215611aa7578182fd5b611ab0816125d1565b91505081358152611ac360208301611c61565b6020820152611ad460408301611c61565b6040820152611ae560608301611c4d565b60608201526080820135608082015260a082013560a082015260c082013560c082015260e082013560e082015292915050565b600060408284031215611b29578081fd5b611b3360406125d1565b905081356001600160401b0380821115611b4c57600080fd5b611b5885838601611a1b565b83526020840135915080821115611b6e57600080fd5b50611b7b84828501611a1b565b60208301525092915050565b600060c08284031215611b98578081fd5b611ba260c06125d1565b9050813581526020820135602082015260408201356040820152606082013560608201526080820135608082015260a082013560a082015292915050565b600060808284031215611bf1578081fd5b611bfb60806125d1565b90508135815260208201356020820152611c1760408301611c78565b604082015260608201356001600160401b03811115611c3557600080fd5b611c4184828501611a1b565b60608301525092915050565b803563ffffffff8116811461052d57600080fd5b80356001600160401b038116811461052d57600080fd5b803560ff8116811461052d57600080fd5b600060208284031215611c9a578081fd5b81356001600160a01b038116811461100a578182fd5b60008060008060008060608789031215611cc8578182fd5b86356001600160401b0380821115611cde578384fd5b611cea8a838b016119d2565b90985096506020890135915080821115611d02578384fd5b611d0e8a838b016119d2565b90965094506040890135915080821115611d26578384fd5b818901915089601f830112611d39578384fd5b813581811115611d47578485fd5b8a6020828501011115611d58578485fd5b6020830194508093505050509295509295509295565b600060208284031215611d7f578081fd5b5051919050565b60006101008284031215611d98578081fd5b61100a8383611a94565b6000806101208385031215611db5578182fd5b611dbf8484611a94565b94610100939093013593505050565b60008060408385031215611de0578182fd5b82356001600160401b03811115611df5578283fd5b611e0185828601611b18565b95602094909401359450505050565b600060a08284031215611e21578081fd5b611e2b60a06125d1565b82358015158114611e3a578283fd5b8152611e4860208401611c78565b60208201526040830135604082015260608301356060820152608083013560808201528091505092915050565b6000806000806000858703610200811215611e8e578384fd5b60c0811215611e9b578384fd5b86955061010060bf1982011215611eb0578384fd5b5060c0860193506101c08601356001600160401b0380821115611ed1578485fd5b908701906040828a031215611ee4578485fd5b9093506101e08701359080821115611efa578283fd5b50611f07888289016119d2565b969995985093965092949392505050565b600060c08284031215611f29578081fd5b61100a8383611b87565b6000806000806102008587031215611f49578182fd5b611f538686611b87565b9350611f628660c08701611a94565b92506101c08501356001600160401b0380821115611f7e578384fd5b611f8a88838901611b18565b93506101e0870135915080821115611fa0578283fd5b508501601f81018713611fb1578182fd5b611fc08782356020840161196b565b91505092959194509250565b600080600060608486031215611fe0578081fd5b83356001600160401b0380821115611ff6578283fd5b61200287838801611be0565b94506020860135915080821115612017578283fd5b61202387838801611a1b565b93506040860135915080821115612038578283fd5b5061204586828701611a1b565b9150509250925092565b600060208284031215612060578081fd5b5035919050565b60008060008060006080868803121561207e578283fd5b8535945060208601356001600160401b038082111561209b578485fd5b90870190610160828a0312156120af578485fd5b90945060408701359350606087013590808211156120cb578283fd5b818801915088601f8301126120de578283fd5b8135818111156120ec578384fd5b89602060a083028501011115612100578384fd5b9699959850939650602001949392505050565b600060208284031215612124578081fd5b61100a82611c4d565b60006020828403121561213e578081fd5b61100a82611c61565b6000815180845261215f8160208601602086016127e0565b601f01601f19169290920160200192915050565b6004811061219157634e487b7160e01b600052602160045260246000fd5b9052565b600082516121a78184602087016127e0565b9190910192915050565b600084516121c38184602089016127e0565b820184815283516121db8160208085019088016127e0565b0160200195945050505050565b600084516121fa8184602089016127e0565b84519083019061220e8183602089016127e0565b84519101906122218183602088016127e0565b0195945050505050565b6000855161223d818460208a016127e0565b855190830190612251818360208a016127e0565b85519101906122648183602089016127e0565b84519101906122778183602088016127e0565b019695505050505050565b600083516122948184602088016127e0565b600160fc1b90830190815283516122b28160018401602088016127e0565b01600101949350505050565b600086516122d0818460208b016127e0565b6001600160f81b031960f888811b821692850192835287901b16600182015284516123028160028401602089016127e0565b84519101906123188160028401602088016127e0565b01600201979650505050505050565b600160fb1b815281516000906123448160018501602087016127e0565b9190910160010192915050565b600060ff60f81b8460f81b16825282516123728160018501602087016127e0565b919091016001019392505050565b600060ff60f81b808a60f81b16835288516123a2816001860160208d016127e0565b8851908401906123b9816001840160208d016127e0565b60f898891b83166001929091019182015260028101969096529390951b9092166022840152602383015250604301949350505050565b600060ff60f81b808a60f81b168352808960f81b166001840152875161241c816002860160208c016127e0565b8084019050818860f81b166002820152865161243f816003840160208b016127e0565b60f89690961b91909116940160038101949094525050600482015260240195945050505050565b60006020825261100a6020830184612147565b60006020825282602083015282846040840137818301604090810191909152601f909201601f19160101919050565b60006020825282516101608060208501526124c7610180850183612147565b915060208501516124e360408601826001600160401b03169052565b506040850151601f19808685030160608701526125008483612147565b93506060870151915061251e60808701836001600160401b03169052565b60808701516001600160401b03811660a0880152915060a08701516001600160401b03811660c0880152915060c08701516001600160401b03811660e0880152915060e0870151915061010061257e818801846001600160401b03169052565b870151915061012061259a878201846001600160401b03169052565b87015191506101406125ae87820184612173565b8701518685039091018387015290506125c78382612147565b9695505050505050565b604051601f8201601f191681016001600160401b03811182821017156125f9576125f96128a3565b604052919050565b600082198211156126145761261461288d565b500190565b60006001600160401b0380831681851680830382111561263b5761263b61288d565b01949350505050565b600081600019048311821515161561265e5761265e61288d565b500290565b6000828210156126755761267561288d565b500390565b60006001600160401b038381169083168181101561269a5761269a61288d565b039392505050565b600061100a36848461196b565b6000610f863683611b18565b60006101608083360312156126ce578182fd5b6126d7816125d1565b905082356001600160401b03808211156126ef578384fd5b6126fb36838701611a1b565b835261270960208601611c61565b60208401526040850135915080821115612721578384fd5b61272d36838701611a1b565b604084015261273e60608601611c61565b606084015261274f60808601611c61565b608084015261276060a08601611c61565b60a084015261277160c08601611c61565b60c084015261278260e08601611c61565b60e08401526101009150612797828601611c61565b8284015261012091506127ab828601611a85565b82840152610140915081850135818111156127c4578485fd5b6127d036828801611a1b565b8385015250505080915050919050565b60005b838110156127fb5781810151838201526020016127e3565b8381111561280a576000848401525b50505050565b600181811c9082168061282457607f821691505b6020821081141561284557634e487b7160e01b600052602260045260246000fd5b50919050565b600060001982141561285f5761285f61288d565b5060010190565b60006001600160401b03808316818114156128835761288361288d565b6001019392505050565b634e487b7160e01b600052601160045260246000fd5b634e487b7160e01b600052604160045260246000fdfea2646970667358221220a1593cc8dad6955f3caa6c7ec915d9bc7274d12340a1ddd7402dbd07dad7682664736f6c63430008030033",
    "linkReferences": {}
  },
  "methodIdentifiers": {
    "blockDetails(uint256)": "f953205a",
    "checkPartsAndEncodedCommonParts((bytes,bytes),bytes32)": "5cd2458c",
    "checkTimeAndRecoverSigner((bytes32,bytes32,uint8,bytes),bytes,bytes)": "071ee1e1",
    "encodedChainId()": "64c47193",
    "getAppHash((bytes32,bytes32,bytes32,bytes32,bytes32,bytes32))": "e71296e1",
    "getAppHash2((bytes32,bytes32,bytes32,bytes32,bytes32,bytes32))": "0ac804c5",
    "getBlockHeader((bytes32,uint64,uint64,uint32,bytes32,bytes32,bytes32,bytes32),bytes32)": "847c1b23",
    "init(address[],uint256[],string)": "93a4a134",
    "relayBlock((bytes32,bytes32,bytes32,bytes32,bytes32,bytes32),(bytes32,uint64,uint64,uint32,bytes32,bytes32,bytes32,bytes32),(bytes,bytes),(bytes32,bytes32,uint8,bytes)[])": "af4b9107",
    "testNumber()": "0d1972f3",
    "testSetNumber(uint256)": "70f985be",
    "totalValidatorPower()": "f8156a6e",
    "validatorPowers(address)": "f61aa09d",
    "verifyBlockHeader((bytes32,bytes32,bytes32,bytes32,bytes32,bytes32),(bytes32,uint64,uint64,uint32,bytes32,bytes32,bytes32,bytes32),(bytes,bytes),(bytes32,bytes32,uint8,bytes)[])": "cc2532ba",
    "verifyOracleData(uint256,(string,uint64,bytes,uint64,uint64,uint64,uint64,uint64,uint64,uint8,bytes),uint256,(bool,uint8,uint256,uint256,bytes32)[])": "c573d977"
  },
  "id": 18
}