{
  "abi": [
    {
      "inputs": [
        {
          "internalType": "uint256",
          "name": "_unbondingPeriod",
          "type": "uint256"
        }
      ],
      "stateMutability": "nonpayable",
      "type": "constructor"
    },
    {
      "inputs": [
        {
          "internalType": "uint256",
          "name": "",
          "type": "uint256"
        }
      ],
      "name": "blockDetails",
      "outputs": [
        {
          "internalType": "bytes32",
          "name": "oracleHash",
          "type": "bytes32"
        },
        {
          "internalType": "uint64",
          "name": "timeSecond",
          "type": "uint64"
        },
        {
          "internalType": "uint32",
          "name": "timeNanoSecondFraction",
          "type": "uint32"
        }
      ],
      "stateMutability": "view",
      "type": "function"
    },
    {
      "inputs": [
        {
          "components": [
            {
              "internalType": "bytes",
              "name": "signedDataPrefix",
              "type": "bytes"
            },
            {
              "internalType": "bytes",
              "name": "signedDataSuffix",
              "type": "bytes"
            }
          ],
          "internalType": "struct LayerLightClientBridge.CommonEncodedVotePartData",
          "name": "_votePart",
          "type": "tuple"
        },
        {
          "internalType": "bytes32",
          "name": "_blockHash",
          "type": "bytes32"
        }
      ],
      "name": "checkPartsAndEncodedCommonParts",
      "outputs": [
        {
          "internalType": "bytes",
          "name": "",
          "type": "bytes"
        }
      ],
      "stateMutability": "pure",
      "type": "function"
    },
    {
      "inputs": [
        {
          "components": [
            {
              "internalType": "bytes32",
              "name": "r",
              "type": "bytes32"
            },
            {
              "internalType": "bytes32",
              "name": "s",
              "type": "bytes32"
            },
            {
              "internalType": "uint8",
              "name": "v",
              "type": "uint8"
            },
            {
              "internalType": "bytes",
              "name": "encodedTimestamp",
              "type": "bytes"
            }
          ],
          "internalType": "struct LayerLightClientBridge.TMSignatureData",
          "name": "_sigData",
          "type": "tuple"
        },
        {
          "internalType": "bytes",
          "name": "_commonEncodedPart",
          "type": "bytes"
        },
        {
          "internalType": "bytes",
          "name": "_encodedChainID",
          "type": "bytes"
        }
      ],
      "name": "checkTimeAndRecoverSigner",
      "outputs": [
        {
          "internalType": "address",
          "name": "",
          "type": "address"
        }
      ],
      "stateMutability": "pure",
      "type": "function"
    },
    {
      "inputs": [],
      "name": "encodedChainId",
      "outputs": [
        {
          "internalType": "bytes",
          "name": "",
          "type": "bytes"
        }
      ],
      "stateMutability": "view",
      "type": "function"
    },
    {
      "inputs": [
        {
          "components": [
            {
              "internalType": "bytes32",
              "name": "oracleIAVLStateHash",
              "type": "bytes32"
            },
            {
              "internalType": "bytes32",
              "name": "paramsStoreMerkleHash",
              "type": "bytes32"
            },
            {
              "internalType": "bytes32",
              "name": "slashingToStakingStoresMerkleHash",
              "type": "bytes32"
            },
            {
              "internalType": "bytes32",
              "name": "govToMintStoresMerkleHash",
              "type": "bytes32"
            },
            {
              "internalType": "bytes32",
              "name": "authToFeegrantStoresMerkleHash",
              "type": "bytes32"
            },
            {
              "internalType": "bytes32",
              "name": "transferToUpgradeStoresMerkleHash",
              "type": "bytes32"
            }
          ],
          "internalType": "struct LayerLightClientBridge.MultistoreData",
          "name": "_store",
          "type": "tuple"
        }
      ],
      "name": "getAppHash",
      "outputs": [
        {
          "internalType": "bytes32",
          "name": "",
          "type": "bytes32"
        }
      ],
      "stateMutability": "pure",
      "type": "function"
    },
    {
      "inputs": [
        {
          "components": [
            {
              "internalType": "bytes32",
              "name": "oracleIAVLStateHash",
              "type": "bytes32"
            },
            {
              "internalType": "bytes32",
              "name": "paramsStoreMerkleHash",
              "type": "bytes32"
            },
            {
              "internalType": "bytes32",
              "name": "slashingToStakingStoresMerkleHash",
              "type": "bytes32"
            },
            {
              "internalType": "bytes32",
              "name": "govToMintStoresMerkleHash",
              "type": "bytes32"
            },
            {
              "internalType": "bytes32",
              "name": "authToFeegrantStoresMerkleHash",
              "type": "bytes32"
            },
            {
              "internalType": "bytes32",
              "name": "transferToUpgradeStoresMerkleHash",
              "type": "bytes32"
            }
          ],
          "internalType": "struct LayerLightClientBridge.MultistoreData",
          "name": "_store",
          "type": "tuple"
        }
      ],
      "name": "getAppHash2",
      "outputs": [
        {
          "internalType": "bytes32",
          "name": "",
          "type": "bytes32"
        }
      ],
      "stateMutability": "pure",
      "type": "function"
    },
    {
      "inputs": [
        {
          "components": [
            {
              "internalType": "bytes32",
              "name": "versionAndChainIdHash",
              "type": "bytes32"
            },
            {
              "internalType": "uint64",
              "name": "height",
              "type": "uint64"
            },
            {
              "internalType": "uint64",
              "name": "timeSecond",
              "type": "uint64"
            },
            {
              "internalType": "uint32",
              "name": "timeNanoSecondFraction",
              "type": "uint32"
            },
            {
              "internalType": "bytes32",
              "name": "lastBlockIdAndOther",
              "type": "bytes32"
            },
            {
              "internalType": "bytes32",
              "name": "nextValidatorHashAndConsensusHash",
              "type": "bytes32"
            },
            {
              "internalType": "bytes32",
              "name": "lastResultsHash",
              "type": "bytes32"
            },
            {
              "internalType": "bytes32",
              "name": "evidenceAndProposerHash",
              "type": "bytes32"
            }
          ],
          "internalType": "struct LayerLightClientBridge.BlockHeaderMerkleParts",
          "name": "_merkleParts",
          "type": "tuple"
        },
        {
          "internalType": "bytes32",
          "name": "_appHash",
          "type": "bytes32"
        }
      ],
      "name": "getBlockHeader",
      "outputs": [
        {
          "internalType": "bytes32",
          "name": "",
          "type": "bytes32"
        }
      ],
      "stateMutability": "pure",
      "type": "function"
    },
    {
      "inputs": [
        {
          "internalType": "address[]",
          "name": "_validators",
          "type": "address[]"
        },
        {
          "internalType": "uint256[]",
          "name": "_powers",
          "type": "uint256[]"
        },
        {
          "internalType": "string",
          "name": "_encodedChainID",
          "type": "string"
        }
      ],
      "name": "init",
      "outputs": [],
      "stateMutability": "nonpayable",
      "type": "function"
    },
    {
      "inputs": [],
      "name": "latestBlockHeight",
      "outputs": [
        {
          "internalType": "uint256",
          "name": "",
          "type": "uint256"
        }
      ],
      "stateMutability": "view",
      "type": "function"
    },
    {
      "inputs": [
        {
          "components": [
            {
              "internalType": "bytes32",
              "name": "oracleIAVLStateHash",
              "type": "bytes32"
            },
            {
              "internalType": "bytes32",
              "name": "paramsStoreMerkleHash",
              "type": "bytes32"
            },
            {
              "internalType": "bytes32",
              "name": "slashingToStakingStoresMerkleHash",
              "type": "bytes32"
            },
            {
              "internalType": "bytes32",
              "name": "govToMintStoresMerkleHash",
              "type": "bytes32"
            },
            {
              "internalType": "bytes32",
              "name": "authToFeegrantStoresMerkleHash",
              "type": "bytes32"
            },
            {
              "internalType": "bytes32",
              "name": "transferToUpgradeStoresMerkleHash",
              "type": "bytes32"
            }
          ],
          "internalType": "struct LayerLightClientBridge.MultistoreData",
          "name": "_multiStore",
          "type": "tuple"
        },
        {
          "components": [
            {
              "internalType": "bytes32",
              "name": "versionAndChainIdHash",
              "type": "bytes32"
            },
            {
              "internalType": "uint64",
              "name": "height",
              "type": "uint64"
            },
            {
              "internalType": "uint64",
              "name": "timeSecond",
              "type": "uint64"
            },
            {
              "internalType": "uint32",
              "name": "timeNanoSecondFraction",
              "type": "uint32"
            },
            {
              "internalType": "bytes32",
              "name": "lastBlockIdAndOther",
              "type": "bytes32"
            },
            {
              "internalType": "bytes32",
              "name": "nextValidatorHashAndConsensusHash",
              "type": "bytes32"
            },
            {
              "internalType": "bytes32",
              "name": "lastResultsHash",
              "type": "bytes32"
            },
            {
              "internalType": "bytes32",
              "name": "evidenceAndProposerHash",
              "type": "bytes32"
            }
          ],
          "internalType": "struct LayerLightClientBridge.BlockHeaderMerkleParts",
          "name": "_merkleParts",
          "type": "tuple"
        },
        {
          "components": [
            {
              "internalType": "bytes",
              "name": "signedDataPrefix",
              "type": "bytes"
            },
            {
              "internalType": "bytes",
              "name": "signedDataSuffix",
              "type": "bytes"
            }
          ],
          "internalType": "struct LayerLightClientBridge.CommonEncodedVotePartData",
          "name": "_commonEncodedVotePart",
          "type": "tuple"
        },
        {
          "components": [
            {
              "internalType": "bytes32",
              "name": "r",
              "type": "bytes32"
            },
            {
              "internalType": "bytes32",
              "name": "s",
              "type": "bytes32"
            },
            {
              "internalType": "uint8",
              "name": "v",
              "type": "uint8"
            },
            {
              "internalType": "bytes",
              "name": "encodedTimestamp",
              "type": "bytes"
            }
          ],
          "internalType": "struct LayerLightClientBridge.TMSignatureData[]",
          "name": "_signatures",
          "type": "tuple[]"
        }
      ],
      "name": "relayBlock",
      "outputs": [],
      "stateMutability": "nonpayable",
      "type": "function"
    },
    {
      "inputs": [],
      "name": "totalValidatorPower",
      "outputs": [
        {
          "internalType": "uint256",
          "name": "",
          "type": "uint256"
        }
      ],
      "stateMutability": "view",
      "type": "function"
    },
    {
      "inputs": [],
      "name": "unbondingPeriod",
      "outputs": [
        {
          "internalType": "uint256",
          "name": "",
          "type": "uint256"
        }
      ],
      "stateMutability": "view",
      "type": "function"
    },
    {
      "inputs": [
        {
          "internalType": "address",
          "name": "",
          "type": "address"
        }
      ],
      "name": "validatorPowers",
      "outputs": [
        {
          "internalType": "uint256",
          "name": "",
          "type": "uint256"
        }
      ],
      "stateMutability": "view",
      "type": "function"
    },
    {
      "inputs": [
        {
          "components": [
            {
              "internalType": "bytes32",
              "name": "oracleIAVLStateHash",
              "type": "bytes32"
            },
            {
              "internalType": "bytes32",
              "name": "paramsStoreMerkleHash",
              "type": "bytes32"
            },
            {
              "internalType": "bytes32",
              "name": "slashingToStakingStoresMerkleHash",
              "type": "bytes32"
            },
            {
              "internalType": "bytes32",
              "name": "govToMintStoresMerkleHash",
              "type": "bytes32"
            },
            {
              "internalType": "bytes32",
              "name": "authToFeegrantStoresMerkleHash",
              "type": "bytes32"
            },
            {
              "internalType": "bytes32",
              "name": "transferToUpgradeStoresMerkleHash",
              "type": "bytes32"
            }
          ],
          "internalType": "struct LayerLightClientBridge.MultistoreData",
          "name": "_multiStore",
          "type": "tuple"
        },
        {
          "components": [
            {
              "internalType": "bytes32",
              "name": "versionAndChainIdHash",
              "type": "bytes32"
            },
            {
              "internalType": "uint64",
              "name": "height",
              "type": "uint64"
            },
            {
              "internalType": "uint64",
              "name": "timeSecond",
              "type": "uint64"
            },
            {
              "internalType": "uint32",
              "name": "timeNanoSecondFraction",
              "type": "uint32"
            },
            {
              "internalType": "bytes32",
              "name": "lastBlockIdAndOther",
              "type": "bytes32"
            },
            {
              "internalType": "bytes32",
              "name": "nextValidatorHashAndConsensusHash",
              "type": "bytes32"
            },
            {
              "internalType": "bytes32",
              "name": "lastResultsHash",
              "type": "bytes32"
            },
            {
              "internalType": "bytes32",
              "name": "evidenceAndProposerHash",
              "type": "bytes32"
            }
          ],
          "internalType": "struct LayerLightClientBridge.BlockHeaderMerkleParts",
          "name": "_merkleParts",
          "type": "tuple"
        },
        {
          "components": [
            {
              "internalType": "bytes",
              "name": "signedDataPrefix",
              "type": "bytes"
            },
            {
              "internalType": "bytes",
              "name": "signedDataSuffix",
              "type": "bytes"
            }
          ],
          "internalType": "struct LayerLightClientBridge.CommonEncodedVotePartData",
          "name": "_commonEncodedVotePart",
          "type": "tuple"
        },
        {
          "components": [
            {
              "internalType": "bytes32",
              "name": "r",
              "type": "bytes32"
            },
            {
              "internalType": "bytes32",
              "name": "s",
              "type": "bytes32"
            },
            {
              "internalType": "uint8",
              "name": "v",
              "type": "uint8"
            },
            {
              "internalType": "bytes",
              "name": "encodedTimestamp",
              "type": "bytes"
            }
          ],
          "internalType": "struct LayerLightClientBridge.TMSignatureData[]",
          "name": "_signatures",
          "type": "tuple[]"
        }
      ],
      "name": "verifyBlockHeader",
      "outputs": [
        {
          "internalType": "bool",
          "name": "",
          "type": "bool"
        }
      ],
      "stateMutability": "view",
      "type": "function"
    },
    {
      "inputs": [
        {
          "internalType": "uint256",
          "name": "_blockHeight",
          "type": "uint256"
        },
        {
          "components": [
            {
              "internalType": "string",
              "name": "clientID",
              "type": "string"
            },
            {
              "internalType": "uint64",
              "name": "oracleScriptID",
              "type": "uint64"
            },
            {
              "internalType": "bytes",
              "name": "params",
              "type": "bytes"
            },
            {
              "internalType": "uint64",
              "name": "askCount",
              "type": "uint64"
            },
            {
              "internalType": "uint64",
              "name": "minCount",
              "type": "uint64"
            },
            {
              "internalType": "uint64",
              "name": "requestID",
              "type": "uint64"
            },
            {
              "internalType": "uint64",
              "name": "ansCount",
              "type": "uint64"
            },
            {
              "internalType": "uint64",
              "name": "requestTime",
              "type": "uint64"
            },
            {
              "internalType": "uint64",
              "name": "resolveTime",
              "type": "uint64"
            },
            {
              "internalType": "enum LayerLightClientBridge.ResolveStatus",
              "name": "resolveStatus",
              "type": "uint8"
            },
            {
              "internalType": "bytes",
              "name": "result",
              "type": "bytes"
            }
          ],
          "internalType": "struct LayerLightClientBridge.Value",
          "name": "_value",
          "type": "tuple"
        },
        {
          "internalType": "uint256",
          "name": "_oracleHeight",
          "type": "uint256"
        },
        {
          "components": [
            {
              "internalType": "bool",
              "name": "isDataOnRight",
              "type": "bool"
            },
            {
              "internalType": "uint8",
              "name": "subtreeHeight",
              "type": "uint8"
            },
            {
              "internalType": "uint256",
              "name": "subtreeSize",
              "type": "uint256"
            },
            {
              "internalType": "uint256",
              "name": "subtreeVersion",
              "type": "uint256"
            },
            {
              "internalType": "bytes32",
              "name": "siblingHash",
              "type": "bytes32"
            }
          ],
          "internalType": "struct LayerLightClientBridge.IAVLMerklePath[]",
          "name": "_merklePaths",
          "type": "tuple[]"
        }
      ],
      "name": "verifyOracleData",
      "outputs": [
        {
          "components": [
            {
              "internalType": "string",
              "name": "clientID",
              "type": "string"
            },
            {
              "internalType": "uint64",
              "name": "oracleScriptID",
              "type": "uint64"
            },
            {
              "internalType": "bytes",
              "name": "params",
              "type": "bytes"
            },
            {
              "internalType": "uint64",
              "name": "askCount",
              "type": "uint64"
            },
            {
              "internalType": "uint64",
              "name": "minCount",
              "type": "uint64"
            },
            {
              "internalType": "uint64",
              "name": "requestID",
              "type": "uint64"
            },
            {
              "internalType": "uint64",
              "name": "ansCount",
              "type": "uint64"
            },
            {
              "internalType": "uint64",
              "name": "requestTime",
              "type": "uint64"
            },
            {
              "internalType": "uint64",
              "name": "resolveTime",
              "type": "uint64"
            },
            {
              "internalType": "enum LayerLightClientBridge.ResolveStatus",
              "name": "resolveStatus",
              "type": "uint8"
            },
            {
              "internalType": "bytes",
              "name": "result",
              "type": "bytes"
            }
          ],
          "internalType": "struct LayerLightClientBridge.Value",
          "name": "",
          "type": "tuple"
        }
      ],
      "stateMutability": "view",
      "type": "function"
    }
  ],
  "bytecode": {
    "object": "0x608060405234801561001057600080fd5b50604051620029463803806200294683398101604081905261003191610039565b600255610051565b60006020828403121561004a578081fd5b5051919050565b6128e580620000616000396000f3fe608060405234801561001057600080fd5b50600436106100f55760003560e01c8063af4b910711610097578063f3f39ee511610066578063f3f39ee51461020d578063f61aa09d14610216578063f8156a6e14610236578063f953205a1461023f576100f5565b8063af4b9107146101a4578063c573d977146101b7578063cc2532ba146101d7578063e71296e1146101fa576100f5565b806364c47193116100d357806364c471931461016b5780636cf6d67514610173578063847c1b231461017c57806393a4a1341461018f576100f5565b8063071ee1e1146100fa5780630ac804c51461012a5780635cd2458c1461014b575b600080fd5b61010d610108366004611fc2565b6102a7565b6040516001600160a01b0390911681526020015b60405180910390f35b61013d610138366004611f0e565b61043a565b604051908152602001610121565b61015e610159366004611dc4565b610528565b604051610121919061245c565b61015e610639565b61013d60025481565b61013d61018a366004611d98565b6106c7565b6101a261019d366004611ca6565b610780565b005b6101a26101b2366004611e6b565b6108e8565b6101ca6101c536600461205d565b610a23565b604051610121919061249e565b6101ea6101e5366004611f29565b610c3a565b6040519015158152602001610121565b61013d610208366004611f0e565b610e12565b61013d60035481565b61013d610224366004611c7f565b60046020526000908152604090205481565b61013d60015481565b61027e61024d366004612045565b600560205260009081526040902080546001909101546001600160401b03811690600160401b900463ffffffff1683565b604080519384526001600160401b03909216602084015263ffffffff1690820152606001610121565b60008360600151516006111580156102c55750600c84606001515111155b6103245760405162461bcd60e51b815260206004820152602560248201527f544d5369676e61747572653a20496e76616c69642074696d657374616d7027736044820152642073697a6560d81b60648201526084015b60405180910390fd5b60608401518051604051600092610345928792602a929088906020016122b4565b60405160208183030381529060405290506001600282518360405160200161036e929190612347565b60408051601f19818403018152908290526103889161218b565b602060405180830381855afa1580156103a5573d6000803e3d6000fd5b5050506040513d601f19601f820116820180604052508101906103c89190611d64565b60408088015188516020808b01518451600081529091019384905261040494845260ff9290921660208401526040830152606082015260800190565b6020604051602081039080840390855afa158015610426573d6000803e3d6000fd5b5050604051601f1901519695505050505050565b60008061051f61051584608001516105108660600151610510886040015161051061050660028c6000015160405160200161047791815260200190565b60408051601f19818403018152908290526104919161218b565b602060405180830381855afa1580156104ae573d6000803e3d6000fd5b5050506040513d601f19601f820116820180604052508101906104d19190611d64565b604051683363ab8b1b430b4b7160b51b6020820152602a810191909152604a015b604051602081830303815290604052610f0a565b8b60200151610f82565b610f82565b8460a00151610f82565b9150505b919050565b815151606090600f148061053e57508251516018145b61059f5760405162461bcd60e51b815260206004820152602c60248201527f436f6d6d6f6e456e636f646564566f7465506172743a20496e76616c6964207060448201526b726566697827732073697a6560a01b606482015260840161031b565b8260200151516026146106095760405162461bcd60e51b815260206004820152602c60248201527f436f6d6d6f6e456e636f646564566f7465506172743a20496e76616c6964207360448201526b756666697827732073697a6560a01b606482015260840161031b565b82516020808501516040516106229392869291016121a7565b604051602081830303815290604052905092915050565b6000805461064690612806565b80601f016020809104026020016040519081016040528092919081815260200182805461067290612806565b80156106bf5780601f10610694576101008083540402835291602001916106bf565b820191906000526020600020905b8154815290600101906020018083116106a257829003601f168201915b505050505081565b60008061077861072b610721866000015161051061070760086106f68b602001516001600160401b0316611007565b6040516020016104f2929190612347565b61051061071c8b604001518c60600151611139565b610f0a565b8660800151610f82565b60a0860151604051600560f91b6020820152600160fd1b6021820152602281018790526105109161076e918390610764906042016104f2565b8a60c00151610f82565b8760e00151610f82565b949350505050565b6000805461078d90612806565b1590506107d25760405162461bcd60e51b8152602060048201526013602482015272105b1c9958591e481a5b9a5d1a585b1a5e9959606a1b604482015260640161031b565b60005b858110156108a7578484828181106107fd57634e487b7160e01b600052603260045260246000fd5b905060200201356004600089898581811061082857634e487b7160e01b600052603260045260246000fd5b905060200201602081019061083d9190611c7f565b6001600160a01b0316815260208101919091526040016000205584848281811061087757634e487b7160e01b600052603260045260246000fd5b905060200201356001600082825461088f91906125f7565b9091555081905061089f81612841565b9150506107d5565b5081816040516020016108bb92919061246f565b604051602081830303815290604052600090805190602001906108df9291906118c8565b50505050505050565b61091c6108fa36879003870187611f0e565b61090936879003870187611d7c565b610912866126a5565b6101e58587612698565b61095f5760405162461bcd60e51b815260206004820152601460248201527324b73b30b634b210313637b1b5903432b0b232b960611b604482015260640161031b565b6040518060600160405280866000013581526020018560400160208101906109879190612123565b6001600160401b031681526020016109a56080870160608801612109565b63ffffffff169052600560006109c16040880160208901612123565b6001600160401b0390811682526020808301939093526040918201600020845181559284015160019093018054949092015163ffffffff16600160401b026bffffffffffffffffffffffff199094169216919091179190911790555050505050565b610a826040805161016081018252606080825260006020830181905292820181905281018290526080810182905260a0810182905260c0810182905260e081018290526101008101829052906101208201908152602001606081525090565b60008681526005602052604090205480610ad75760405162461bcd60e51b8152602060048201526016602482015275139bc81c9bdbdd08185d081d1a1a5cc81a195a59da1d60521b604482015260640161031b565b60006002610aec610ae7896126b1565b6111b6565b604051610af9919061218b565b602060405180830381855afa158015610b16573d6000803e3d6000fd5b5050506040513d601f19601f82011682018060405250810190610b399190611d64565b9050610be9828760ff610b5260c08c0160a08d01612123565b604051602001610b8892919060f89290921b6001600160f81b031916825260c01b6001600160c01b031916600182015260090190565b60408051601f1981840301815260208a8102840181019092528983529186918b908b90819060009085015b82821015610bdf57610bd060a08302860136819003810190611e06565b81526020019060010190610bb3565b505050505061155f565b610c255760405162461bcd60e51b815260206004820152600d60248201526c24b73b30b634b210383937b7b360991b604482015260640161031b565b610c2e876126b1565b98975050505050505050565b600080610c4686610e12565b90506000610c5486836106c7565b90506000610c628683610528565b90506000808054610c7290612806565b80601f0160208091040260200160405190810160405280929190818152602001828054610c9e90612806565b8015610ceb5780601f10610cc057610100808354040283529160200191610ceb565b820191906000526020600020905b815481529060010190602001808311610cce57829003601f168201915b5050505050905060008060005b8851811015610de7576000610d358a8381518110610d2657634e487b7160e01b600052603260045260246000fd5b602002602001015187876102a7565b9050836001600160a01b0316816001600160a01b031611610d8f5760405162461bcd60e51b815260206004820152601460248201527324b73b30b634b21039b4b3b732b91037b93232b960611b604482015260640161031b565b6001600160a01b03811660009081526004602052604090205415610dd3576001600160a01b038116600090815260046020526040902054610dd090846125f7565b92505b925080610ddf81612841565b915050610cf8565b50600154610df690600261263a565b610e0182600361263a565b10159b9a5050505050505050505050565b600080610eb060028460000151604051602001610e3191815260200190565b60408051601f1981840301815290829052610e4b9161218b565b602060405180830381855afa158015610e68573d6000803e3d6000fd5b5050506040513d601f19601f82011682018060405250810190610e8b9190611d64565b604051684363ab8b1b430b4b7160b51b6020820152602a810191909152604a016104f2565b90506000610ec2828560200151610f82565b90506000610ed4856040015183610f82565b90506000610ee6866060015183610f82565b90506000610ef8876080015183610f82565b90506000610c2e828960a00151610f82565b60006002600083604051602001610f22929190612347565b60408051601f1981840301815290829052610f3c9161218b565b602060405180830381855afa158015610f59573d6000803e3d6000fd5b5050506040513d601f19601f82011682018060405250810190610f7c9190611d64565b92915050565b604051600160f81b6020820152602181018390526041810182905260009060029060610160408051601f1981840301815290829052610fc09161218b565b602060405180830381855afa158015610fdd573d6000803e3d6000fd5b5050506040513d601f19601f820116820180604052508101906110009190611d64565b9392505050565b60608160005b811561102a5761101c81612841565b9050600782901c915061100d565b6000816001600160401b0381111561105257634e487b7160e01b600052604160045260246000fd5b6040519080825280601f01601f19166020018201604052801561107c576020820181803683370190505b50905084925060005b828110156110e55783607f1660801760f81b8282815181106110b757634e487b7160e01b600052603260045260246000fd5b60200101906001600160f81b031916908160001a90535060079390931c926110de81612841565b9050611085565b50607f60f81b816110f7600185612659565b8151811061111557634e487b7160e01b600052603260045260246000fd5b0160200180519091166001600160f81b03191690600082901a905350949350505050565b6060600061114f846001600160401b0316611007565b60405160200161115f919061231d565b60408051601f19818403018152919052905063ffffffff831615611000578061118d8463ffffffff16611007565b60405160200161119e929190612278565b60405160208183030381529060405290509392505050565b80515160609081901561120457806111d1600160025b61164d565b8451516111dd90611675565b85516040516111f29493929190602001612221565b60405160208183030381529060405290505b60208301516001600160401b0316156112555780611224600260006111cc565b6112318560200151611675565b604051602001611243939291906121de565b60405160208183030381529060405290505b604083015151156112a5578061126d600360026111cc565b61127b856040015151611675565b85604001516040516020016112939493929190612221565b60405160208183030381529060405290505b60608301516001600160401b0316156112f657806112c5600460006111cc565b6112d28560600151611675565b6040516020016112e4939291906121de565b60405160208183030381529060405290505b60808301516001600160401b0316156113475780611316600560006111cc565b6113238560800151611675565b604051602001611335939291906121de565b60405160208183030381529060405290505b60a08301516001600160401b0316156113985780611367600660006111cc565b6113748560a00151611675565b604051602001611386939291906121de565b60405160208183030381529060405290505b60c08301516001600160401b0316156113e957806113b8600760006111cc565b6113c58560c00151611675565b6040516020016113d7939291906121de565b60405160208183030381529060405290505b60e08301516001600160401b03161561143a5780611409600860006111cc565b6114168560e00151611675565b604051602001611428939291906121de565b60405160208183030381529060405290505b6101008301516001600160401b03161561148d578061145b600960006111cc565b611469856101000151611675565b60405160200161147b939291906121de565b60405160208183030381529060405290505b82610120015160038111156114b257634e487b7160e01b600052602160045260246000fd5b6001600160401b03161561151e57806114cd600a60006111cc565b6114fa85610120015160038111156114f557634e487b7160e01b600052602160045260246000fd5b611680565b60405160200161150c939291906121de565b60405160208183030381529060405290505b6101408301515115610f7c5780611537600b60026111cc565b61154685610140015151611675565b8561014001516040516020016106229493929190612221565b60008061156b86611007565b905060006002600060028489518a60208b60405160200161159297969594939291906123e5565b60408051601f19818403018152908290526115ac9161218b565b602060405180830381855afa1580156115c9573d6000803e3d6000fd5b5050506040513d601f19601f820116820180604052508101906115ec9190611d64565b905060005b845181101561163f5761162b85828151811061161d57634e487b7160e01b600052603260045260246000fd5b602002602001015183611691565b91508061163781612841565b9150506115f1565b509096149695505050505050565b60606807fffffffffffffff8600384901b168217600061166c82611753565b95945050505050565b6060610f7c82611753565b6060610f7c8263ffffffff16611753565b600080600084600001516116aa578385608001516116b1565b8460800151845b9150915060026001866020015160ff16901b6116d087604001516118b3565b6116dd88606001516118b3565b6020866020876040516020016116f99796959493929190612376565b60408051601f19818403018152908290526117139161218b565b602060405180830381855afa158015611730573d6000803e3d6000fd5b5050506040513d601f19601f8201168201806040525081019061166c9190611d64565b60608160015b607f826001600160401b0316111561178f576007826001600160401b0316901c9150600181611788919061260f565b9050611759565b6000816001600160401b03166001600160401b038111156117c057634e487b7160e01b600052604160045260246000fd5b6040519080825280601f01601f1916602001820160405280156117ea576020820181803683370190505b50905084925060005b826001600160401b0316816001600160401b0316101561187a5783607f1660801760f81b82826001600160401b03168151811061184057634e487b7160e01b600052603260045260246000fd5b60200101906001600160f81b031916908160001a9053506007846001600160401b0316901c935080806118729061285c565b9150506117f3565b50607f60f81b8161188c600185612670565b6001600160401b03168151811061111557634e487b7160e01b600052603260045260246000fd5b6060610f7c6118c383600261263a565b611007565b8280546118d490612806565b90600052602060002090601f0160209004810192826118f6576000855561193c565b82601f1061190f57805160ff191683800117855561193c565b8280016001018555821561193c579182015b8281111561193c578251825591602001919060010190611921565b5061194892915061194c565b5090565b5b80821115611948576000815560010161194d565b60006001600160401b0383111561197a5761197a612899565b602061198a818560051b016125c7565b84815291508082018360005b868110156119bd576119ab8883358801611bd6565b83529183019190830190600101611996565b505050509392505050565b60008083601f8401126119d9578182fd5b5081356001600160401b038111156119ef578182fd5b6020830191508360208260051b8501011115611a0a57600080fd5b9250929050565b600082601f830112611a21578081fd5b81356001600160401b03811115611a3a57611a3a612899565b611a4d601f8201601f19166020016125c7565b818152846020838601011115611a61578283fd5b816020850160208301379081016020019190915292915050565b80356004811061052357600080fd5b6000610100808385031215611a9d578182fd5b611aa6816125c7565b91505081358152611ab960208301611c57565b6020820152611aca60408301611c57565b6040820152611adb60608301611c43565b60608201526080820135608082015260a082013560a082015260c082013560c082015260e082013560e082015292915050565b600060408284031215611b1f578081fd5b611b2960406125c7565b905081356001600160401b0380821115611b4257600080fd5b611b4e85838601611a11565b83526020840135915080821115611b6457600080fd5b50611b7184828501611a11565b60208301525092915050565b600060c08284031215611b8e578081fd5b611b9860c06125c7565b9050813581526020820135602082015260408201356040820152606082013560608201526080820135608082015260a082013560a082015292915050565b600060808284031215611be7578081fd5b611bf160806125c7565b90508135815260208201356020820152611c0d60408301611c6e565b604082015260608201356001600160401b03811115611c2b57600080fd5b611c3784828501611a11565b60608301525092915050565b803563ffffffff8116811461052357600080fd5b80356001600160401b038116811461052357600080fd5b803560ff8116811461052357600080fd5b600060208284031215611c90578081fd5b81356001600160a01b0381168114611000578182fd5b60008060008060008060608789031215611cbe578182fd5b86356001600160401b0380821115611cd4578384fd5b611ce08a838b016119c8565b90985096506020890135915080821115611cf8578384fd5b611d048a838b016119c8565b90965094506040890135915080821115611d1c578384fd5b818901915089601f830112611d2f578384fd5b813581811115611d3d578485fd5b8a6020828501011115611d4e578485fd5b6020830194508093505050509295509295509295565b600060208284031215611d75578081fd5b5051919050565b60006101008284031215611d8e578081fd5b6110008383611a8a565b6000806101208385031215611dab578182fd5b611db58484611a8a565b94610100939093013593505050565b60008060408385031215611dd6578182fd5b82356001600160401b03811115611deb578283fd5b611df785828601611b0e565b95602094909401359450505050565b600060a08284031215611e17578081fd5b611e2160a06125c7565b82358015158114611e30578283fd5b8152611e3e60208401611c6e565b60208201526040830135604082015260608301356060820152608083013560808201528091505092915050565b6000806000806000858703610200811215611e84578384fd5b60c0811215611e91578384fd5b86955061010060bf1982011215611ea6578384fd5b5060c0860193506101c08601356001600160401b0380821115611ec7578485fd5b908701906040828a031215611eda578485fd5b9093506101e08701359080821115611ef0578283fd5b50611efd888289016119c8565b969995985093965092949392505050565b600060c08284031215611f1f578081fd5b6110008383611b7d565b6000806000806102008587031215611f3f578182fd5b611f498686611b7d565b9350611f588660c08701611a8a565b92506101c08501356001600160401b0380821115611f74578384fd5b611f8088838901611b0e565b93506101e0870135915080821115611f96578283fd5b508501601f81018713611fa7578182fd5b611fb687823560208401611961565b91505092959194509250565b600080600060608486031215611fd6578081fd5b83356001600160401b0380821115611fec578283fd5b611ff887838801611bd6565b9450602086013591508082111561200d578283fd5b61201987838801611a11565b9350604086013591508082111561202e578283fd5b5061203b86828701611a11565b9150509250925092565b600060208284031215612056578081fd5b5035919050565b600080600080600060808688031215612074578283fd5b8535945060208601356001600160401b0380821115612091578485fd5b90870190610160828a0312156120a5578485fd5b90945060408701359350606087013590808211156120c1578283fd5b818801915088601f8301126120d4578283fd5b8135818111156120e2578384fd5b89602060a0830285010111156120f6578384fd5b9699959850939650602001949392505050565b60006020828403121561211a578081fd5b61100082611c43565b600060208284031215612134578081fd5b61100082611c57565b600081518084526121558160208601602086016127d6565b601f01601f19169290920160200192915050565b6004811061218757634e487b7160e01b600052602160045260246000fd5b9052565b6000825161219d8184602087016127d6565b9190910192915050565b600084516121b98184602089016127d6565b820184815283516121d18160208085019088016127d6565b0160200195945050505050565b600084516121f08184602089016127d6565b8451908301906122048183602089016127d6565b84519101906122178183602088016127d6565b0195945050505050565b60008551612233818460208a016127d6565b855190830190612247818360208a016127d6565b855191019061225a8183602089016127d6565b845191019061226d8183602088016127d6565b019695505050505050565b6000835161228a8184602088016127d6565b600160fc1b90830190815283516122a88160018401602088016127d6565b01600101949350505050565b600086516122c6818460208b016127d6565b6001600160f81b031960f888811b821692850192835287901b16600182015284516122f88160028401602089016127d6565b845191019061230e8160028401602088016127d6565b01600201979650505050505050565b600160fb1b8152815160009061233a8160018501602087016127d6565b9190910160010192915050565b600060ff60f81b8460f81b16825282516123688160018501602087016127d6565b919091016001019392505050565b600060ff60f81b808a60f81b1683528851612398816001860160208d016127d6565b8851908401906123af816001840160208d016127d6565b60f898891b83166001929091019182015260028101969096529390951b9092166022840152602383015250604301949350505050565b600060ff60f81b808a60f81b168352808960f81b1660018401528751612412816002860160208c016127d6565b8084019050818860f81b1660028201528651612435816003840160208b016127d6565b60f89690961b91909116940160038101949094525050600482015260240195945050505050565b600060208252611000602083018461213d565b60006020825282602083015282846040840137818301604090810191909152601f909201601f19160101919050565b60006020825282516101608060208501526124bd61018085018361213d565b915060208501516124d960408601826001600160401b03169052565b506040850151601f19808685030160608701526124f6848361213d565b93506060870151915061251460808701836001600160401b03169052565b60808701516001600160401b03811660a0880152915060a08701516001600160401b03811660c0880152915060c08701516001600160401b03811660e0880152915060e08701519150610100612574818801846001600160401b03169052565b8701519150610120612590878201846001600160401b03169052565b87015191506101406125a487820184612169565b8701518685039091018387015290506125bd838261213d565b9695505050505050565b604051601f8201601f191681016001600160401b03811182821017156125ef576125ef612899565b604052919050565b6000821982111561260a5761260a612883565b500190565b60006001600160401b0380831681851680830382111561263157612631612883565b01949350505050565b600081600019048311821515161561265457612654612883565b500290565b60008282101561266b5761266b612883565b500390565b60006001600160401b038381169083168181101561269057612690612883565b039392505050565b6000611000368484611961565b6000610f7c3683611b0e565b60006101608083360312156126c4578182fd5b6126cd816125c7565b905082356001600160401b03808211156126e5578384fd5b6126f136838701611a11565b83526126ff60208601611c57565b60208401526040850135915080821115612717578384fd5b61272336838701611a11565b604084015261273460608601611c57565b606084015261274560808601611c57565b608084015261275660a08601611c57565b60a084015261276760c08601611c57565b60c084015261277860e08601611c57565b60e0840152610100915061278d828601611c57565b8284015261012091506127a1828601611a7b565b82840152610140915081850135818111156127ba578485fd5b6127c636828801611a11565b8385015250505080915050919050565b60005b838110156127f15781810151838201526020016127d9565b83811115612800576000848401525b50505050565b600181811c9082168061281a57607f821691505b6020821081141561283b57634e487b7160e01b600052602260045260246000fd5b50919050565b600060001982141561285557612855612883565b5060010190565b60006001600160401b038083168181141561287957612879612883565b6001019392505050565b634e487b7160e01b600052601160045260246000fd5b634e487b7160e01b600052604160045260246000fdfea2646970667358221220a29f3600fe68ba30db1ecf9248622f0244fda3a1caad9349ec9f0f036262888964736f6c63430008030033",
    "linkReferences": {}
  },
  "methodIdentifiers": {
    "blockDetails(uint256)": "f953205a",
    "checkPartsAndEncodedCommonParts((bytes,bytes),bytes32)": "5cd2458c",
    "checkTimeAndRecoverSigner((bytes32,bytes32,uint8,bytes),bytes,bytes)": "071ee1e1",
    "encodedChainId()": "64c47193",
    "getAppHash((bytes32,bytes32,bytes32,bytes32,bytes32,bytes32))": "e71296e1",
    "getAppHash2((bytes32,bytes32,bytes32,bytes32,bytes32,bytes32))": "0ac804c5",
    "getBlockHeader((bytes32,uint64,uint64,uint32,bytes32,bytes32,bytes32,bytes32),bytes32)": "847c1b23",
    "init(address[],uint256[],string)": "93a4a134",
    "latestBlockHeight()": "f3f39ee5",
    "relayBlock((bytes32,bytes32,bytes32,bytes32,bytes32,bytes32),(bytes32,uint64,uint64,uint32,bytes32,bytes32,bytes32,bytes32),(bytes,bytes),(bytes32,bytes32,uint8,bytes)[])": "af4b9107",
    "totalValidatorPower()": "f8156a6e",
    "unbondingPeriod()": "6cf6d675",
    "validatorPowers(address)": "f61aa09d",
    "verifyBlockHeader((bytes32,bytes32,bytes32,bytes32,bytes32,bytes32),(bytes32,uint64,uint64,uint32,bytes32,bytes32,bytes32,bytes32),(bytes,bytes),(bytes32,bytes32,uint8,bytes)[])": "cc2532ba",
    "verifyOracleData(uint256,(string,uint64,bytes,uint64,uint64,uint64,uint64,uint64,uint64,uint8,bytes),uint256,(bool,uint8,uint256,uint256,bytes32)[])": "c573d977"
  },
  "id": 18
}