{
  "_format": "hh-sol-artifact-1",
  "contractName": "SimpleSchelling",
  "sourceName": "contracts/forking/SimpleSchelling.sol",
  "abi": [
    {
      "inputs": [
        {
          "internalType": "address",
          "name": "_bridgeProxy",
          "type": "address"
        },
        {
          "internalType": "uint256",
          "name": "_minInitAmount",
          "type": "uint256"
        },
        {
          "internalType": "uint256",
          "name": "_submissionPeriod",
          "type": "uint256"
        },
        {
          "internalType": "uint256",
          "name": "_extensionPeriod",
          "type": "uint256"
        },
        {
          "internalType": "bool",
          "name": "_requireGuardianSignature",
          "type": "bool"
        },
        {
          "internalType": "address",
          "name": "_guardian",
          "type": "address"
        }
      ],
      "stateMutability": "nonpayable",
      "type": "constructor"
    },
    {
      "inputs": [],
      "name": "bridgeProxy",
      "outputs": [
        {
          "internalType": "contract IBridgeProxy",
          "name": "",
          "type": "address"
        }
      ],
      "stateMutability": "view",
      "type": "function"
    },
    {
      "inputs": [
        {
          "internalType": "uint256",
          "name": "_proposalId",
          "type": "uint256"
        }
      ],
      "name": "claim",
      "outputs": [],
      "stateMutability": "nonpayable",
      "type": "function"
    },
    {
      "inputs": [
        {
          "internalType": "uint256",
          "name": "_proposalId",
          "type": "uint256"
        }
      ],
      "name": "executeProposal",
      "outputs": [],
      "stateMutability": "nonpayable",
      "type": "function"
    },
    {
      "inputs": [],
      "name": "extensionPeriod",
      "outputs": [
        {
          "internalType": "uint256",
          "name": "",
          "type": "uint256"
        }
      ],
      "stateMutability": "view",
      "type": "function"
    },
    {
      "inputs": [
        {
          "internalType": "uint256",
          "name": "_proposalId",
          "type": "uint256"
        }
      ],
      "name": "getProposal",
      "outputs": [
        {
          "internalType": "address",
          "name": "",
          "type": "address"
        },
        {
          "internalType": "address",
          "name": "",
          "type": "address"
        },
        {
          "internalType": "uint256",
          "name": "",
          "type": "uint256"
        },
        {
          "internalType": "uint256",
          "name": "",
          "type": "uint256"
        },
        {
          "internalType": "uint256",
          "name": "",
          "type": "uint256"
        },
        {
          "internalType": "uint256",
          "name": "",
          "type": "uint256"
        },
        {
          "internalType": "bool",
          "name": "",
          "type": "bool"
        },
        {
          "internalType": "bool",
          "name": "",
          "type": "bool"
        },
        {
          "internalType": "enum SimpleSchelling.ProposalOutcome",
          "name": "",
          "type": "uint8"
        }
      ],
      "stateMutability": "view",
      "type": "function"
    },
    {
      "inputs": [
        {
          "internalType": "uint256",
          "name": "_proposalId",
          "type": "uint256"
        },
        {
          "internalType": "address",
          "name": "_voter",
          "type": "address"
        }
      ],
      "name": "getVotes",
      "outputs": [
        {
          "internalType": "uint256",
          "name": "",
          "type": "uint256"
        },
        {
          "internalType": "uint256",
          "name": "",
          "type": "uint256"
        }
      ],
      "stateMutability": "view",
      "type": "function"
    },
    {
      "inputs": [],
      "name": "guardian",
      "outputs": [
        {
          "internalType": "address",
          "name": "",
          "type": "address"
        }
      ],
      "stateMutability": "view",
      "type": "function"
    },
    {
      "inputs": [
        {
          "internalType": "uint256",
          "name": "_proposalId",
          "type": "uint256"
        }
      ],
      "name": "guardianPauseBridge",
      "outputs": [],
      "stateMutability": "nonpayable",
      "type": "function"
    },
    {
      "inputs": [],
      "name": "initiateProposal",
      "outputs": [],
      "stateMutability": "payable",
      "type": "function"
    },
    {
      "inputs": [],
      "name": "minInitAmount",
      "outputs": [
        {
          "internalType": "uint256",
          "name": "",
          "type": "uint256"
        }
      ],
      "stateMutability": "view",
      "type": "function"
    },
    {
      "inputs": [],
      "name": "proposalCount",
      "outputs": [
        {
          "internalType": "uint256",
          "name": "",
          "type": "uint256"
        }
      ],
      "stateMutability": "view",
      "type": "function"
    },
    {
      "inputs": [
        {
          "internalType": "uint256",
          "name": "",
          "type": "uint256"
        }
      ],
      "name": "proposals",
      "outputs": [
        {
          "internalType": "address",
          "name": "initiator",
          "type": "address"
        },
        {
          "internalType": "address",
          "name": "proposedImplementation",
          "type": "address"
        },
        {
          "internalType": "uint256",
          "name": "amountFor",
          "type": "uint256"
        },
        {
          "internalType": "uint256",
          "name": "amountAgainst",
          "type": "uint256"
        },
        {
          "internalType": "uint256",
          "name": "submissionDeadline",
          "type": "uint256"
        },
        {
          "internalType": "uint256",
          "name": "expirationTime",
          "type": "uint256"
        },
        {
          "internalType": "bool",
          "name": "executed",
          "type": "bool"
        },
        {
          "internalType": "bool",
          "name": "guardianSigned",
          "type": "bool"
        },
        {
          "internalType": "enum SimpleSchelling.ProposalOutcome",
          "name": "outcome",
          "type": "uint8"
        }
      ],
      "stateMutability": "view",
      "type": "function"
    },
    {
      "inputs": [],
      "name": "requireGuardianSignature",
      "outputs": [
        {
          "internalType": "bool",
          "name": "",
          "type": "bool"
        }
      ],
      "stateMutability": "view",
      "type": "function"
    },
    {
      "inputs": [],
      "name": "submissionPeriod",
      "outputs": [
        {
          "internalType": "uint256",
          "name": "",
          "type": "uint256"
        }
      ],
      "stateMutability": "view",
      "type": "function"
    },
    {
      "inputs": [
        {
          "internalType": "uint256",
          "name": "_proposalId",
          "type": "uint256"
        },
        {
          "internalType": "address",
          "name": "_proposedImplementation",
          "type": "address"
        }
      ],
      "name": "submitImplementation",
      "outputs": [],
      "stateMutability": "nonpayable",
      "type": "function"
    },
    {
      "inputs": [],
      "name": "throwAwayGuardianship",
      "outputs": [],
      "stateMutability": "nonpayable",
      "type": "function"
    },
    {
      "inputs": [
        {
          "internalType": "address",
          "name": "_newGuardian",
          "type": "address"
        }
      ],
      "name": "transferGuardianship",
      "outputs": [],
      "stateMutability": "nonpayable",
      "type": "function"
    },
    {
      "inputs": [
        {
          "internalType": "uint256",
          "name": "_proposalId",
          "type": "uint256"
        },
        {
          "internalType": "bool",
          "name": "_for",
          "type": "bool"
        }
      ],
      "name": "updateVote",
      "outputs": [],
      "stateMutability": "nonpayable",
      "type": "function"
    },
    {
      "inputs": [
        {
          "internalType": "uint256",
          "name": "_proposalId",
          "type": "uint256"
        },
        {
          "internalType": "bool",
          "name": "_for",
          "type": "bool"
        }
      ],
      "name": "vote",
      "outputs": [],
      "stateMutability": "payable",
      "type": "function"
    }
  ],
  "bytecode": "0x60806040523480156200001157600080fd5b5060405162002f3f38038062002f3f833981810160405281019062000037919062000138565b856000806101000a81548173ffffffffffffffffffffffffffffffffffffffff021916908373ffffffffffffffffffffffffffffffffffffffff16021790555084600181905550836003819055508260048190555081600560146101000a81548160ff02191690831515021790555080600560006101000a81548173ffffffffffffffffffffffffffffffffffffffff021916908373ffffffffffffffffffffffffffffffffffffffff16021790555050505050505062000266565b600081519050620001048162000218565b92915050565b6000815190506200011b8162000232565b92915050565b60008151905062000132816200024c565b92915050565b60008060008060008060c087890312156200015257600080fd5b60006200016289828a01620000f3565b96505060206200017589828a0162000121565b95505060406200018889828a0162000121565b94505060606200019b89828a0162000121565b9350506080620001ae89828a016200010a565b92505060a0620001c189828a01620000f3565b9150509295509295509295565b6000620001db82620001ee565b9050919050565b60008115159050919050565b600073ffffffffffffffffffffffffffffffffffffffff82169050919050565b6000819050919050565b6200022381620001ce565b81146200022f57600080fd5b50565b6200023d81620001e2565b81146200024957600080fd5b50565b62000257816200020e565b81146200026357600080fd5b50565b612cc980620002766000396000f3fe6080604052600436106101145760003560e01c80637820f78d116100a0578063c9d27afe11610064578063c9d27afe1461037b578063d989ae9714610397578063da35c664146103c0578063dedfab72146103eb578063f5e0c69d1461041657610114565b80637820f78d146102ad5780639cef4240146102b7578063a3d4485b146102e0578063c1427fe11461030b578063c7f758a81461033657610114565b8063379607f5116100e7578063379607f5146101c9578063452a9320146101f2578063489d6dac1461021d57806368197360146102465780636cfa68df1461028457610114565b8063013cf08b146101195780630d61b5191461015e578063185fde7e146101875780631f8ab0f1146101b2575b600080fd5b34801561012557600080fd5b50610140600480360381019061013b91906121b7565b610441565b604051610155999897969594939291906124a8565b60405180910390f35b34801561016a57600080fd5b50610185600480360381019061018091906121b7565b6104f6565b005b34801561019357600080fd5b5061019c6108f4565b6040516101a9919061272b565b60405180910390f35b3480156101be57600080fd5b506101c76108fa565b005b3480156101d557600080fd5b506101f060048036038101906101eb91906121b7565b6109e9565b005b3480156101fe57600080fd5b50610207610f27565b604051610214919061248d565b60405180910390f35b34801561022957600080fd5b50610244600480360381019061023f919061221c565b610f4d565b005b34801561025257600080fd5b5061026d600480360381019061026891906121e0565b611473565b60405161027b929190612746565b60405180910390f35b34801561029057600080fd5b506102ab60048036038101906102a691906121b7565b611523565b005b6102b56117e0565b005b3480156102c357600080fd5b506102de60048036038101906102d99190612165565b611b20565b005b3480156102ec57600080fd5b506102f5611bf4565b6040516103029190612550565b60405180910390f35b34801561031757600080fd5b50610320611c18565b60405161032d9190612535565b60405180910390f35b34801561034257600080fd5b5061035d600480360381019061035891906121b7565b611c2b565b604051610372999897969594939291906124a8565b60405180910390f35b6103956004803603810190610390919061221c565b611d03565b005b3480156103a357600080fd5b506103be60048036038101906103b991906121e0565b611f35565b005b3480156103cc57600080fd5b506103d56120ff565b6040516103e2919061272b565b60405180910390f35b3480156103f757600080fd5b50610400612105565b60405161040d919061272b565b60405180910390f35b34801561042257600080fd5b5061042b61210b565b604051610438919061272b565b60405180910390f35b60066020528060005260406000206000915090508060000160009054906101000a900473ffffffffffffffffffffffffffffffffffffffff16908060010160009054906101000a900473ffffffffffffffffffffffffffffffffffffffff16908060020154908060030154908060040154908060050154908060060160009054906101000a900460ff16908060060160019054906101000a900460ff16908060060160029054906101000a900460ff16905089565b600060066000838152602001908152602001600020905042816004015410610553576040517f08c379a000000000000000000000000000000000000000000000000000000000815260040161054a906125eb565b60405180910390fd5b8060060160009054906101000a900460ff16156105a5576040517f08c379a000000000000000000000000000000000000000000000000000000000815260040161059c9061266b565b60405180910390fd5b600560149054906101000a900460ff1680156105cf57508060060160019054906101000a900460ff165b806105e75750600560149054906101000a900460ff16155b1561087f5742816005015410610632576040517f08c379a0000000000000000000000000000000000000000000000000000000008152600401610629906126cb565b60405180910390fd5b8060030154816002015411801561069a5750600073ffffffffffffffffffffffffffffffffffffffff168160010160009054906101000a900473ffffffffffffffffffffffffffffffffffffffff1673ffffffffffffffffffffffffffffffffffffffff1614155b156107a65760008054906101000a900473ffffffffffffffffffffffffffffffffffffffff1673ffffffffffffffffffffffffffffffffffffffff1663025b22bc8260010160009054906101000a900473ffffffffffffffffffffffffffffffffffffffff166040518263ffffffff1660e01b815260040161071c919061248d565b600060405180830381600087803b15801561073657600080fd5b505af115801561074a573d6000803e3d6000fd5b5050505060018160060160026101000a81548160ff0219169083600281111561079c577f4e487b7100000000000000000000000000000000000000000000000000000000600052602160045260246000fd5b02179055506107fa565b60028160060160026101000a81548160ff021916908360028111156107f4577f4e487b7100000000000000000000000000000000000000000000000000000000600052602160045260246000fd5b02179055505b60008054906101000a900473ffffffffffffffffffffffffffffffffffffffff1673ffffffffffffffffffffffffffffffffffffffff1663a82f143c6040518163ffffffff1660e01b8152600401600060405180830381600087803b15801561086257600080fd5b505af1158015610876573d6000803e3d6000fd5b505050506108d3565b60008160060160026101000a81548160ff021916908360028111156108cd577f4e487b7100000000000000000000000000000000000000000000000000000000600052602160045260246000fd5b02179055505b60018160060160006101000a81548160ff0219169083151502179055505050565b60035481565b600560009054906101000a900473ffffffffffffffffffffffffffffffffffffffff1673ffffffffffffffffffffffffffffffffffffffff163373ffffffffffffffffffffffffffffffffffffffff161461098a576040517f08c379a00000000000000000000000000000000000000000000000000000000081526004016109819061264b565b60405180910390fd5b6000600560006101000a81548173ffffffffffffffffffffffffffffffffffffffff021916908373ffffffffffffffffffffffffffffffffffffffff1602179055506000600560146101000a81548160ff021916908315150217905550565b60006006600083815260200190815260200160002090508060060160009054906101000a900460ff16610a51576040517f08c379a0000000000000000000000000000000000000000000000000000000008152600401610a48906126ab565b60405180910390fd5b6000806002811115610a8c577f4e487b7100000000000000000000000000000000000000000000000000000000600052602160045260246000fd5b8260060160029054906101000a900460ff166002811115610ad6577f4e487b7100000000000000000000000000000000000000000000000000000000600052602160045260246000fd5b1415610c0b578160080160003373ffffffffffffffffffffffffffffffffffffffff1673ffffffffffffffffffffffffffffffffffffffff168152602001908152602001600020600001548260070160003373ffffffffffffffffffffffffffffffffffffffff1673ffffffffffffffffffffffffffffffffffffffff16815260200190815260200160002060000154610b709190612780565b905060008260070160003373ffffffffffffffffffffffffffffffffffffffff1673ffffffffffffffffffffffffffffffffffffffff1681526020019081526020016000206000018190555060008260080160003373ffffffffffffffffffffffffffffffffffffffff1673ffffffffffffffffffffffffffffffffffffffff16815260200190815260200160002060000181905550610e98565b60016002811115610c45577f4e487b7100000000000000000000000000000000000000000000000000000000600052602160045260246000fd5b8260060160029054906101000a900460ff166002811115610c8f577f4e487b7100000000000000000000000000000000000000000000000000000000600052602160045260246000fd5b1415610d98578160070160003373ffffffffffffffffffffffffffffffffffffffff1673ffffffffffffffffffffffffffffffffffffffff16815260200190815260200160002060000154826002015483600301548460070160003373ffffffffffffffffffffffffffffffffffffffff1673ffffffffffffffffffffffffffffffffffffffff16815260200190815260200160002060000154610d339190612807565b610d3d91906127d6565b610d479190612780565b905060008260070160003373ffffffffffffffffffffffffffffffffffffffff1673ffffffffffffffffffffffffffffffffffffffff16815260200190815260200160002060000181905550610e97565b8160080160003373ffffffffffffffffffffffffffffffffffffffff1673ffffffffffffffffffffffffffffffffffffffff16815260200190815260200160002060000154826003015483600201548460080160003373ffffffffffffffffffffffffffffffffffffffff1673ffffffffffffffffffffffffffffffffffffffff16815260200190815260200160002060000154610e369190612807565b610e4091906127d6565b610e4a9190612780565b905060008260080160003373ffffffffffffffffffffffffffffffffffffffff1673ffffffffffffffffffffffffffffffffffffffff168152602001908152602001600020600001819055505b5b60008111610edb576040517f08c379a0000000000000000000000000000000000000000000000000000000008152600401610ed2906126eb565b60405180910390fd5b3373ffffffffffffffffffffffffffffffffffffffff166108fc829081150290604051600060405180830381858888f19350505050158015610f21573d6000803e3d6000fd5b50505050565b600560009054906101000a900473ffffffffffffffffffffffffffffffffffffffff1681565b60006006600084815260200190815260200160002090508060000160009054906101000a900473ffffffffffffffffffffffffffffffffffffffff1673ffffffffffffffffffffffffffffffffffffffff163373ffffffffffffffffffffffffffffffffffffffff161415610ff7576040517f08c379a0000000000000000000000000000000000000000000000000000000008152600401610fee906125cb565b60405180910390fd5b4281600501541161103d576040517f08c379a00000000000000000000000000000000000000000000000000000000081526004016110349061268b565b60405180910390fd5b60008060008360030154846002015411905084156111da57600a8460080160003373ffffffffffffffffffffffffffffffffffffffff1673ffffffffffffffffffffffffffffffffffffffff168152602001908152602001600020600001546110a691906127d6565b9150818460080160003373ffffffffffffffffffffffffffffffffffffffff1673ffffffffffffffffffffffffffffffffffffffff168152602001908152602001600020600001546110f89190612861565b92508284600201600082825461110e9190612780565b92505081905550828460070160003373ffffffffffffffffffffffffffffffffffffffff1673ffffffffffffffffffffffffffffffffffffffff16815260200190815260200160002060000160008282546111699190612780565b92505081905550828460030160008282546111849190612861565b9250508190555060008460080160003373ffffffffffffffffffffffffffffffffffffffff1673ffffffffffffffffffffffffffffffffffffffff1681526020019081526020016000206000018190555061135b565b600a8460070160003373ffffffffffffffffffffffffffffffffffffffff1673ffffffffffffffffffffffffffffffffffffffff1681526020019081526020016000206000015461122b91906127d6565b9150818460070160003373ffffffffffffffffffffffffffffffffffffffff1673ffffffffffffffffffffffffffffffffffffffff1681526020019081526020016000206000015461127d9190612861565b9250828460030160008282546112939190612780565b92505081905550828460080160003373ffffffffffffffffffffffffffffffffffffffff1673ffffffffffffffffffffffffffffffffffffffff16815260200190815260200160002060000160008282546112ee9190612780565b92505081905550828460020160008282546113099190612861565b9250508190555060008460070160003373ffffffffffffffffffffffffffffffffffffffff1673ffffffffffffffffffffffffffffffffffffffff168152602001908152602001600020600001819055505b6000831161139e576040517f08c379a0000000000000000000000000000000000000000000000000000000008152600401611395906126eb565b60405180910390fd5b8080156113b357508360020154846003015410155b80156113c25750428460040154105b156113e257600454426113d59190612780565b8460050181905550611423565b801580156113f7575083600301548460020154115b80156114065750428460040154105b1561142257600454426114199190612780565b84600501819055505b5b600073ffffffffffffffffffffffffffffffffffffffff166108fc839081150290604051600060405180830381858888f1935050505015801561146a573d6000803e3d6000fd5b50505050505050565b60008060006006600086815260200190815260200160002090508060070160008573ffffffffffffffffffffffffffffffffffffffff1673ffffffffffffffffffffffffffffffffffffffff168152602001908152602001600020600001548160080160008673ffffffffffffffffffffffffffffffffffffffff1673ffffffffffffffffffffffffffffffffffffffff1681526020019081526020016000206000015492509250509250929050565b600560009054906101000a900473ffffffffffffffffffffffffffffffffffffffff1673ffffffffffffffffffffffffffffffffffffffff163373ffffffffffffffffffffffffffffffffffffffff16146115b3576040517f08c379a00000000000000000000000000000000000000000000000000000000081526004016115aa9061264b565b60405180910390fd5b600560149054906101000a900460ff16611602576040517f08c379a00000000000000000000000000000000000000000000000000000000081526004016115f9906125ab565b60405180910390fd5b60008054906101000a900473ffffffffffffffffffffffffffffffffffffffff1673ffffffffffffffffffffffffffffffffffffffff16635c975abb6040518163ffffffff1660e01b8152600401602060405180830381600087803b15801561166a57600080fd5b505af115801561167e573d6000803e3d6000fd5b505050506040513d601f19601f820116820180604052508101906116a2919061218e565b156116e2576040517f08c379a00000000000000000000000000000000000000000000000000000000081526004016116d99061256b565b60405180910390fd5b60006006600083815260200190815260200160002090504281600401541161173f576040517f08c379a00000000000000000000000000000000000000000000000000000000081526004016117369061262b565b60405180910390fd5b60018160060160016101000a81548160ff02191690831515021790555060008054906101000a900473ffffffffffffffffffffffffffffffffffffffff1673ffffffffffffffffffffffffffffffffffffffff16637dd0480f6040518163ffffffff1660e01b8152600401600060405180830381600087803b1580156117c457600080fd5b505af11580156117d8573d6000803e3d6000fd5b505050505050565b600154341015611825576040517f08c379a000000000000000000000000000000000000000000000000000000000815260040161181c9061258b565b60405180910390fd5b60008054906101000a900473ffffffffffffffffffffffffffffffffffffffff1673ffffffffffffffffffffffffffffffffffffffff16635c975abb6040518163ffffffff1660e01b8152600401602060405180830381600087803b15801561188d57600080fd5b505af11580156118a1573d6000803e3d6000fd5b505050506040513d601f19601f820116820180604052508101906118c5919061218e565b15611905576040517f08c379a00000000000000000000000000000000000000000000000000000000081526004016118fc9061256b565b60405180910390fd5b600060066000600254815260200190815260200160002090506000600a60015461192f91906127d6565b9050338260000160006101000a81548173ffffffffffffffffffffffffffffffffffffffff021916908373ffffffffffffffffffffffffffffffffffffffff16021790555080346119809190612861565b8260020181905550600354426119969190612780565b8260040181905550600354600454426119af9190612780565b6119b99190612780565b826005018190555080346119cd9190612861565b8260070160003373ffffffffffffffffffffffffffffffffffffffff1673ffffffffffffffffffffffffffffffffffffffff1681526020019081526020016000206000016000828254611a209190612780565b9250508190555060026000815480929190611a3a90612926565b9190505550600073ffffffffffffffffffffffffffffffffffffffff166108fc829081150290604051600060405180830381858888f19350505050158015611a86573d6000803e3d6000fd5b50600560149054906101000a900460ff16611b1c5760008054906101000a900473ffffffffffffffffffffffffffffffffffffffff1673ffffffffffffffffffffffffffffffffffffffff16637dd0480f6040518163ffffffff1660e01b8152600401600060405180830381600087803b158015611b0357600080fd5b505af1158015611b17573d6000803e3d6000fd5b505050505b5050565b600560009054906101000a900473ffffffffffffffffffffffffffffffffffffffff1673ffffffffffffffffffffffffffffffffffffffff163373ffffffffffffffffffffffffffffffffffffffff1614611bb0576040517f08c379a0000000000000000000000000000000000000000000000000000000008152600401611ba79061264b565b60405180910390fd5b80600560006101000a81548173ffffffffffffffffffffffffffffffffffffffff021916908373ffffffffffffffffffffffffffffffffffffffff16021790555050565b60008054906101000a900473ffffffffffffffffffffffffffffffffffffffff1681565b600560149054906101000a900460ff1681565b600080600080600080600080600080600660008c815260200190815260200160002090508060000160009054906101000a900473ffffffffffffffffffffffffffffffffffffffff168160010160009054906101000a900473ffffffffffffffffffffffffffffffffffffffff1682600201548360030154846004015485600501548660060160009054906101000a900460ff168760060160019054906101000a900460ff168860060160029054906101000a900460ff16995099509950995099509950995099509950509193959799909294969850565b60003411611d46576040517f08c379a0000000000000000000000000000000000000000000000000000000008152600401611d3d9061258b565b60405180910390fd5b600060066000848152602001908152602001600020905042816005015411611da3576040517f08c379a0000000000000000000000000000000000000000000000000000000008152600401611d9a9061268b565b60405180910390fd5b6000816003015482600201541190508215611e335734826002016000828254611dcc9190612780565b92505081905550348260070160003373ffffffffffffffffffffffffffffffffffffffff1673ffffffffffffffffffffffffffffffffffffffff1681526020019081526020016000206000016000828254611e279190612780565b92505081905550611eaa565b34826003016000828254611e479190612780565b92505081905550348260080160003373ffffffffffffffffffffffffffffffffffffffff1673ffffffffffffffffffffffffffffffffffffffff1681526020019081526020016000206000016000828254611ea29190612780565b925050819055505b808015611ebf57508160020154826003015410155b8015611ece5750428260040154105b15611eee5760045442611ee19190612780565b8260050181905550611f2f565b80158015611f03575081600301548260020154115b8015611f125750428260040154105b15611f2e5760045442611f259190612780565b82600501819055505b5b50505050565b60006006600084815260200190815260200160002090503373ffffffffffffffffffffffffffffffffffffffff168160000160009054906101000a900473ffffffffffffffffffffffffffffffffffffffff1673ffffffffffffffffffffffffffffffffffffffff1614611fde576040517f08c379a0000000000000000000000000000000000000000000000000000000008152600401611fd59061260b565b60405180910390fd5b600073ffffffffffffffffffffffffffffffffffffffff168160010160009054906101000a900473ffffffffffffffffffffffffffffffffffffffff1673ffffffffffffffffffffffffffffffffffffffff1614612071576040517f08c379a00000000000000000000000000000000000000000000000000000000081526004016120689061270b565b60405180910390fd5b428160040154116120b7576040517f08c379a00000000000000000000000000000000000000000000000000000000081526004016120ae9061268b565b60405180910390fd5b818160010160006101000a81548173ffffffffffffffffffffffffffffffffffffffff021916908373ffffffffffffffffffffffffffffffffffffffff160217905550505050565b60025481565b60045481565b60015481565b60008135905061212081612c4e565b92915050565b60008135905061213581612c65565b92915050565b60008151905061214a81612c65565b92915050565b60008135905061215f81612c7c565b92915050565b60006020828403121561217757600080fd5b600061218584828501612111565b91505092915050565b6000602082840312156121a057600080fd5b60006121ae8482850161213b565b91505092915050565b6000602082840312156121c957600080fd5b60006121d784828501612150565b91505092915050565b600080604083850312156121f357600080fd5b600061220185828601612150565b925050602061221285828601612111565b9150509250929050565b6000806040838503121561222f57600080fd5b600061223d85828601612150565b925050602061224e85828601612126565b9150509250929050565b61226181612895565b82525050565b612270816128a7565b82525050565b61227f816128f0565b82525050565b61228e81612914565b82525050565b60006122a160158361276f565b91506122ac826129fc565b602082019050919050565b60006122c460138361276f565b91506122cf82612a25565b602082019050919050565b60006122e7601f8361276f565b91506122f282612a4e565b602082019050919050565b600061230a601c8361276f565b915061231582612a77565b602082019050919050565b600061232d601d8361276f565b915061233882612aa0565b602082019050919050565b6000612350600d8361276f565b915061235b82612ac9565b602082019050919050565b600061237360198361276f565b915061237e82612af2565b602082019050919050565b6000612396600c8361276f565b91506123a182612b1b565b602082019050919050565b60006123b960108361276f565b91506123c482612b44565b602082019050919050565b60006123dc60108361276f565b91506123e782612b6d565b602082019050919050565b60006123ff600c8361276f565b915061240a82612b96565b602082019050919050565b600061242260148361276f565b915061242d82612bbf565b602082019050919050565b600061244560078361276f565b915061245082612be8565b602082019050919050565b6000612468600b8361276f565b915061247382612c11565b602082019050919050565b612487816128e6565b82525050565b60006020820190506124a26000830184612258565b92915050565b6000610120820190506124be600083018c612258565b6124cb602083018b612258565b6124d8604083018a61247e565b6124e5606083018961247e565b6124f2608083018861247e565b6124ff60a083018761247e565b61250c60c0830186612267565b61251960e0830185612267565b612527610100830184612285565b9a9950505050505050505050565b600060208201905061254a6000830184612267565b92915050565b60006020820190506125656000830184612276565b92915050565b6000602082019050818103600083015261258481612294565b9050919050565b600060208201905081810360008301526125a4816122b7565b9050919050565b600060208201905081810360008301526125c4816122da565b9050919050565b600060208201905081810360008301526125e4816122fd565b9050919050565b6000602082019050818103600083015261260481612320565b9050919050565b6000602082019050818103600083015261262481612343565b9050919050565b6000602082019050818103600083015261264481612366565b9050919050565b6000602082019050818103600083015261266481612389565b9050919050565b60006020820190508181036000830152612684816123ac565b9050919050565b600060208201905081810360008301526126a4816123cf565b9050919050565b600060208201905081810360008301526126c4816123f2565b9050919050565b600060208201905081810360008301526126e481612415565b9050919050565b6000602082019050818103600083015261270481612438565b9050919050565b600060208201905081810360008301526127248161245b565b9050919050565b6000602082019050612740600083018461247e565b92915050565b600060408201905061275b600083018561247e565b612768602083018461247e565b9392505050565b600082825260208201905092915050565b600061278b826128e6565b9150612796836128e6565b9250827fffffffffffffffffffffffffffffffffffffffffffffffffffffffffffffffff038211156127cb576127ca61296f565b5b828201905092915050565b60006127e1826128e6565b91506127ec836128e6565b9250826127fc576127fb61299e565b5b828204905092915050565b6000612812826128e6565b915061281d836128e6565b9250817fffffffffffffffffffffffffffffffffffffffffffffffffffffffffffffffff04831182151516156128565761285561296f565b5b828202905092915050565b600061286c826128e6565b9150612877836128e6565b92508282101561288a5761288961296f565b5b828203905092915050565b60006128a0826128c6565b9050919050565b60008115159050919050565b60008190506128c182612c3a565b919050565b600073ffffffffffffffffffffffffffffffffffffffff82169050919050565b6000819050919050565b60006128fb82612902565b9050919050565b600061290d826128c6565b9050919050565b600061291f826128b3565b9050919050565b6000612931826128e6565b91507fffffffffffffffffffffffffffffffffffffffffffffffffffffffffffffffff8214156129645761296361296f565b5b600182019050919050565b7f4e487b7100000000000000000000000000000000000000000000000000000000600052601160045260246000fd5b7f4e487b7100000000000000000000000000000000000000000000000000000000600052601260045260246000fd5b7f4e487b7100000000000000000000000000000000000000000000000000000000600052602160045260246000fd5b7f62726964676520616c7265616479207061757365640000000000000000000000600082015250565b7f696e73756666696369656e7420616d6f756e7400000000000000000000000000600082015250565b7f677561726469616e207369676e6174757265206e6f7420726571756972656400600082015250565b7f696e69746961746f722063616e6e6f742075706461746520766f746500000000600082015250565b7f7375626d697373696f6e20706572696f64206e6f742065787069726564000000600082015250565b7f6e6f7420696e69746961746f7200000000000000000000000000000000000000600082015250565b7f7375626d697373696f6e20706572696f64206578706972656400000000000000600082015250565b7f6e6f7420677561726469616e0000000000000000000000000000000000000000600082015250565b7f616c726561647920657865637574656400000000000000000000000000000000600082015250565b7f70726f706f73616c206578706972656400000000000000000000000000000000600082015250565b7f6e6f742065786563757465640000000000000000000000000000000000000000600082015250565b7f70726f706f73616c206e6f742065787069726564000000000000000000000000600082015250565b7f6e6f20766f746500000000000000000000000000000000000000000000000000600082015250565b7f616c726561647920736574000000000000000000000000000000000000000000600082015250565b60038110612c4b57612c4a6129cd565b5b50565b612c5781612895565b8114612c6257600080fd5b50565b612c6e816128a7565b8114612c7957600080fd5b50565b612c85816128e6565b8114612c9057600080fd5b5056fea26469706673582212207b026f83c1e7b8c9c360c05cfbf11e096a4b8e0a13efd3f7e0f1afec2a1b2ae464736f6c63430008030033",
  "linkReferences": {},
  "deployedLinkReferences": {}
}