{
  "_format": "hh-sol-artifact-1",
  "contractName": "TellorMaster",
  "sourceName": "contracts/tellor360/oldContracts/contracts/tellor3/TellorMaster.sol",
  "abi": [
    {
      "inputs": [
        {
          "internalType": "address",
          "name": "_tContract",
          "type": "address"
        },
        {
          "internalType": "address",
          "name": "_oTellor",
          "type": "address"
        }
      ],
      "stateMutability": "nonpayable",
      "type": "constructor"
    },
    {
      "anonymous": false,
      "inputs": [
        {
          "indexed": false,
          "internalType": "address",
          "name": "_newTellor",
          "type": "address"
        }
      ],
      "name": "NewTellorAddress",
      "type": "event"
    },
    {
      "stateMutability": "payable",
      "type": "fallback"
    },
    {
      "inputs": [
        {
          "internalType": "address",
          "name": "",
          "type": "address"
        },
        {
          "internalType": "address",
          "name": "",
          "type": "address"
        }
      ],
      "name": "_allowances",
      "outputs": [
        {
          "internalType": "uint256",
          "name": "",
          "type": "uint256"
        }
      ],
      "stateMutability": "view",
      "type": "function"
    },
    {
      "inputs": [
        {
          "internalType": "bytes32",
          "name": "",
          "type": "bytes32"
        }
      ],
      "name": "addresses",
      "outputs": [
        {
          "internalType": "address",
          "name": "",
          "type": "address"
        }
      ],
      "stateMutability": "view",
      "type": "function"
    },
    {
      "inputs": [
        {
          "internalType": "address",
          "name": "",
          "type": "address"
        },
        {
          "internalType": "uint256",
          "name": "",
          "type": "uint256"
        }
      ],
      "name": "balances",
      "outputs": [
        {
          "internalType": "uint128",
          "name": "fromBlock",
          "type": "uint128"
        },
        {
          "internalType": "uint128",
          "name": "value",
          "type": "uint128"
        }
      ],
      "stateMutability": "view",
      "type": "function"
    },
    {
      "inputs": [
        {
          "internalType": "bytes32",
          "name": "",
          "type": "bytes32"
        }
      ],
      "name": "bytesVars",
      "outputs": [
        {
          "internalType": "bytes32",
          "name": "",
          "type": "bytes32"
        }
      ],
      "stateMutability": "view",
      "type": "function"
    },
    {
      "inputs": [
        {
          "internalType": "address",
          "name": "_newDeity",
          "type": "address"
        }
      ],
      "name": "changeDeity",
      "outputs": [],
      "stateMutability": "nonpayable",
      "type": "function"
    },
    {
      "inputs": [
        {
          "internalType": "address",
          "name": "_newOwner",
          "type": "address"
        }
      ],
      "name": "changeOwner",
      "outputs": [],
      "stateMutability": "nonpayable",
      "type": "function"
    },
    {
      "inputs": [
        {
          "internalType": "address",
          "name": "_tContract",
          "type": "address"
        }
      ],
      "name": "changeTellorContract",
      "outputs": [],
      "stateMutability": "nonpayable",
      "type": "function"
    },
    {
      "inputs": [
        {
          "internalType": "uint256",
          "name": "",
          "type": "uint256"
        }
      ],
      "name": "currentMiners",
      "outputs": [
        {
          "internalType": "uint256",
          "name": "value",
          "type": "uint256"
        },
        {
          "internalType": "address",
          "name": "miner",
          "type": "address"
        }
      ],
      "stateMutability": "view",
      "type": "function"
    },
    {
      "inputs": [
        {
          "internalType": "bytes32",
          "name": "",
          "type": "bytes32"
        }
      ],
      "name": "disputeIdByDisputeHash",
      "outputs": [
        {
          "internalType": "uint256",
          "name": "",
          "type": "uint256"
        }
      ],
      "stateMutability": "view",
      "type": "function"
    },
    {
      "inputs": [
        {
          "internalType": "uint256",
          "name": "",
          "type": "uint256"
        }
      ],
      "name": "disputesById",
      "outputs": [
        {
          "internalType": "bytes32",
          "name": "hash",
          "type": "bytes32"
        },
        {
          "internalType": "int256",
          "name": "tally",
          "type": "int256"
        },
        {
          "internalType": "bool",
          "name": "executed",
          "type": "bool"
        },
        {
          "internalType": "bool",
          "name": "disputeVotePassed",
          "type": "bool"
        },
        {
          "internalType": "bool",
          "name": "isPropFork",
          "type": "bool"
        },
        {
          "internalType": "address",
          "name": "reportedMiner",
          "type": "address"
        },
        {
          "internalType": "address",
          "name": "reportingParty",
          "type": "address"
        },
        {
          "internalType": "address",
          "name": "proposedForkAddress",
          "type": "address"
        }
      ],
      "stateMutability": "view",
      "type": "function"
    },
    {
      "inputs": [
        {
          "internalType": "address",
          "name": "",
          "type": "address"
        }
      ],
      "name": "migrated",
      "outputs": [
        {
          "internalType": "bool",
          "name": "",
          "type": "bool"
        }
      ],
      "stateMutability": "view",
      "type": "function"
    },
    {
      "inputs": [
        {
          "internalType": "bytes32",
          "name": "",
          "type": "bytes32"
        },
        {
          "internalType": "address",
          "name": "",
          "type": "address"
        }
      ],
      "name": "minersByChallenge",
      "outputs": [
        {
          "internalType": "bool",
          "name": "",
          "type": "bool"
        }
      ],
      "stateMutability": "view",
      "type": "function"
    },
    {
      "inputs": [
        {
          "internalType": "uint256",
          "name": "",
          "type": "uint256"
        }
      ],
      "name": "newValueTimestamps",
      "outputs": [
        {
          "internalType": "uint256",
          "name": "",
          "type": "uint256"
        }
      ],
      "stateMutability": "view",
      "type": "function"
    },
    {
      "inputs": [
        {
          "internalType": "bytes32",
          "name": "",
          "type": "bytes32"
        }
      ],
      "name": "requestIdByQueryHash",
      "outputs": [
        {
          "internalType": "uint256",
          "name": "",
          "type": "uint256"
        }
      ],
      "stateMutability": "view",
      "type": "function"
    },
    {
      "inputs": [
        {
          "internalType": "bytes32",
          "name": "",
          "type": "bytes32"
        }
      ],
      "name": "uints",
      "outputs": [
        {
          "internalType": "uint256",
          "name": "",
          "type": "uint256"
        }
      ],
      "stateMutability": "view",
      "type": "function"
    }
  ],
  "bytecode": "0x608060405234801561001057600080fd5b50604051610cb3380380610cb38339818101604052604081101561003357600080fd5b5080516020918201517fb5f7e7387e8e977cc9c4c9513388b0d7224264b9a0159cd8e8bdd84a9ed504c38054336001600160a01b031991821681179092557f437dd27c2043efdfef03344e9331c924985f7bd1752abef5ea93bdbfed685100805482169092179091557ffe10c9a395cce5a324df121072934b83aa2f3aa5f594428b2a75cf926b73fae8805482166001600160a01b03808616919091179091557fc930326aab6c1874fc004d856083a6ed34e057e064970b7effb48e8e6e8ca1278054909216908316179055603160f81b7f52cb9007c7c6068f8ef37039d4f232cbf5a28ff8d93a5983c4c0c27cd2f9bc0d55604690925260647f5bccd7373734898281f858d7562320d2cdfc0b17bd72f779686937174d1500255560f07f8156e704072c396780f8253d0562de28216b73a1503daa96e259b9cdd951d71c5560c87f2e2f0a18eb55ef91e37921b3810d7feeef7a855ddc7f4f4249ef03d7b887ae3155670de0b6b3a76400007fc2c579d641b643400780d5c7ce967b420034b9f66962a5ee405cf70e4cbed6bb55681b1ae4d6e2ef5000007f3e5522f19747f0f285b96ded572ac4128c3a764aea9f44058dc0afc9dda449868190557f167af83a0768d27540775cfef6d996eb63f8a61fcdfb26e654c18fb50960e3be557f2c8b528fbaf48aaf13162a5a0519a7ad5a612da8ff8783465c17e076660a59f16000524260ef19017f231bb0dc207f13dd4e565ebc32496c470e35391bd8d3b6649269ee2328e03118556001603a8190556002603c556003603e55600460405560056042559091905b60338110156102da5760008181526045602090815260408083207ff68d680ab3160f1aa5d9c3a1383c49e3e60bf3c0c031245cbb036f5ce99afaa184526001908101835281842085905584845260359092529091208290550161027c565b507f7050c9e0f4ca769c69bd3a8ef740bc37934f8e2c036e5a723fd8ee048ed3f8c3829055604080516001600160a01b038416815290517fc2d1449eb0b6547aa426e09d9942a77fa4fc8cd3296305b3163e22452e0bcb8d9181900360200190a150506109678061034c6000396000f3fe6080604052600436106100e85760003560e01c806362dd1d2a1161008a578063b59e14d411610059578063b59e14d4146103bf578063cbf1304d146103e9578063d01f4d9e14610451578063db085beb1461047b576100e8565b806362dd1d2a146102e9578063699f200f14610313578063a6f9dae114610359578063ae0a82791461038c576100e8565b806347abd7f1116100c657806347abd7f11461020a57806348b18e541461023f5780634ba0a5ee1461028c5780635700242c146102bf576100e8565b8063024c2ddd146101485780631fd2236414610195578063438c0aa3146101e0575b7f0f1293c916694ac6af4daa2f866f0448d0c2ce8847074a7896d397c961914a0860005260476020527ffe10c9a395cce5a324df121072934b83aa2f3aa5f594428b2a75cf926b73fae8546001600160a01b0316610145816104f5565b50005b34801561015457600080fd5b506101836004803603604081101561016b57600080fd5b506001600160a01b0381358116916020013516610519565b60408051918252519081900360200190f35b3480156101a157600080fd5b506101bf600480360360208110156101b857600080fd5b5035610536565b604080519283526001600160a01b0390911660208301528051918290030190f35b3480156101ec57600080fd5b506101836004803603602081101561020357600080fd5b5035610561565b34801561021657600080fd5b5061023d6004803603602081101561022d57600080fd5b50356001600160a01b0316610582565b005b34801561024b57600080fd5b506102786004803603604081101561026257600080fd5b50803590602001356001600160a01b031661064b565b604080519115158252519081900360200190f35b34801561029857600080fd5b50610278600480360360208110156102af57600080fd5b50356001600160a01b031661066b565b3480156102cb57600080fd5b50610183600480360360208110156102e257600080fd5b5035610680565b3480156102f557600080fd5b506101836004803603602081101561030c57600080fd5b5035610692565b34801561031f57600080fd5b5061033d6004803603602081101561033657600080fd5b50356106a4565b604080516001600160a01b039092168252519081900360200190f35b34801561036557600080fd5b5061023d6004803603602081101561037c57600080fd5b50356001600160a01b03166106bf565b34801561039857600080fd5b5061023d600480360360208110156103af57600080fd5b50356001600160a01b0316610788565b3480156103cb57600080fd5b50610183600480360360208110156103e257600080fd5b503561086e565b3480156103f557600080fd5b506104226004803603604081101561040c57600080fd5b506001600160a01b038135169060200135610880565b60405180836001600160801b03168152602001826001600160801b031681526020019250505060405180910390f35b34801561045d57600080fd5b506101836004803603602081101561047457600080fd5b50356108c3565b34801561048757600080fd5b506104a56004803603602081101561049e57600080fd5b50356108d5565b60408051988952602089019790975294151587870152921515606087015290151560808601526001600160a01b0390811660a086015290811660c08501521660e083015251908190036101000190f35b3660008037600080366000845af43d6000803e808015610514573d6000f35b3d6000fd5b604a60209081526000928352604080842090915290825290205481565b603a816005811061054657600080fd5b6002020180546001909101549091506001600160a01b031682565b6033818154811061057157600080fd5b600091825260209091200154905081565b7f5fc094d10c65bc33cc842217b2eccca0191ff24148319da094e540a55989896160005260476020527f437dd27c2043efdfef03344e9331c924985f7bd1752abef5ea93bdbfed685100546001600160a01b031633146105e157600080fd5b7f5fc094d10c65bc33cc842217b2eccca0191ff24148319da094e540a55989896160005260476020527f437dd27c2043efdfef03344e9331c924985f7bd1752abef5ea93bdbfed68510080546001600160a01b0319166001600160a01b0392909216919091179055565b603960209081526000928352604080842090915290825290205460ff1681565b604b6020526000908152604090205460ff1681565b60376020526000908152604090205481565b60486020526000908152604090205481565b6047602052600090815260409020546001600160a01b031681565b7f7a39905194de50bde334d18b76bbb36dddd11641d4d50b470cb837cf3bae5def60005260476020527fb5f7e7387e8e977cc9c4c9513388b0d7224264b9a0159cd8e8bdd84a9ed504c3546001600160a01b0316331461071e57600080fd5b7f7a39905194de50bde334d18b76bbb36dddd11641d4d50b470cb837cf3bae5def60005260476020527fb5f7e7387e8e977cc9c4c9513388b0d7224264b9a0159cd8e8bdd84a9ed504c380546001600160a01b0319166001600160a01b0392909216919091179055565b7f5fc094d10c65bc33cc842217b2eccca0191ff24148319da094e540a55989896160005260476020527f437dd27c2043efdfef03344e9331c924985f7bd1752abef5ea93bdbfed685100546001600160a01b031633146107e757600080fd5b7f0f1293c916694ac6af4daa2f866f0448d0c2ce8847074a7896d397c961914a0860005260476020527ffe10c9a395cce5a324df121072934b83aa2f3aa5f594428b2a75cf926b73fae880546001600160a01b0319166001600160a01b0383161790557f7050c9e0f4ca769c69bd3a8ef740bc37934f8e2c036e5a723fd8ee048ed3f8c355565b60466020526000908152604090205481565b6049602052816000526040600020818154811061089c57600080fd5b6000918252602090912001546001600160801b038082169350600160801b90910416905082565b60386020526000908152604090205481565b603660205260009081526040902080546001820154600283015460038401546004909401549293919260ff808316936101008404821693620100008104909216926001600160a01b03630100000090930483169291821691168856fea2646970667358221220d48e1d15b1e44a560364b9731c09b2f37d4ed447eacee36e375440b6e3477ab164736f6c63430007040033",
  "linkReferences": {},
  "deployedLinkReferences": {}
}