{
  "_format": "hh-sol-artifact-1",
  "contractName": "TellorStaking",
  "sourceName": "contracts/tellor360/oldContracts/contracts/TellorStaking.sol",
  "abi": [
    {
      "anonymous": false,
      "inputs": [
        {
          "indexed": true,
          "internalType": "address",
          "name": "_owner",
          "type": "address"
        },
        {
          "indexed": true,
          "internalType": "address",
          "name": "_spender",
          "type": "address"
        },
        {
          "indexed": false,
          "internalType": "uint256",
          "name": "_value",
          "type": "uint256"
        }
      ],
      "name": "Approval",
      "type": "event"
    },
    {
      "anonymous": false,
      "inputs": [
        {
          "indexed": false,
          "internalType": "address",
          "name": "_staker",
          "type": "address"
        }
      ],
      "name": "NewStaker",
      "type": "event"
    },
    {
      "anonymous": false,
      "inputs": [
        {
          "indexed": false,
          "internalType": "address",
          "name": "_staker",
          "type": "address"
        }
      ],
      "name": "StakeWithdrawRequested",
      "type": "event"
    },
    {
      "anonymous": false,
      "inputs": [
        {
          "indexed": false,
          "internalType": "address",
          "name": "_staker",
          "type": "address"
        }
      ],
      "name": "StakeWithdrawn",
      "type": "event"
    },
    {
      "anonymous": false,
      "inputs": [
        {
          "indexed": true,
          "internalType": "address",
          "name": "_from",
          "type": "address"
        },
        {
          "indexed": true,
          "internalType": "address",
          "name": "_to",
          "type": "address"
        },
        {
          "indexed": false,
          "internalType": "uint256",
          "name": "_value",
          "type": "uint256"
        }
      ],
      "name": "Transfer",
      "type": "event"
    },
    {
      "inputs": [
        {
          "internalType": "address",
          "name": "",
          "type": "address"
        },
        {
          "internalType": "address",
          "name": "",
          "type": "address"
        }
      ],
      "name": "_allowances",
      "outputs": [
        {
          "internalType": "uint256",
          "name": "",
          "type": "uint256"
        }
      ],
      "stateMutability": "view",
      "type": "function"
    },
    {
      "inputs": [
        {
          "internalType": "bytes32",
          "name": "",
          "type": "bytes32"
        }
      ],
      "name": "addresses",
      "outputs": [
        {
          "internalType": "address",
          "name": "",
          "type": "address"
        }
      ],
      "stateMutability": "view",
      "type": "function"
    },
    {
      "inputs": [
        {
          "internalType": "address",
          "name": "_user",
          "type": "address"
        },
        {
          "internalType": "address",
          "name": "_spender",
          "type": "address"
        }
      ],
      "name": "allowance",
      "outputs": [
        {
          "internalType": "uint256",
          "name": "",
          "type": "uint256"
        }
      ],
      "stateMutability": "view",
      "type": "function"
    },
    {
      "inputs": [
        {
          "internalType": "address",
          "name": "_user",
          "type": "address"
        },
        {
          "internalType": "uint256",
          "name": "_amount",
          "type": "uint256"
        }
      ],
      "name": "allowedToTrade",
      "outputs": [
        {
          "internalType": "bool",
          "name": "",
          "type": "bool"
        }
      ],
      "stateMutability": "view",
      "type": "function"
    },
    {
      "inputs": [
        {
          "internalType": "address",
          "name": "_spender",
          "type": "address"
        },
        {
          "internalType": "uint256",
          "name": "_amount",
          "type": "uint256"
        }
      ],
      "name": "approve",
      "outputs": [
        {
          "internalType": "bool",
          "name": "",
          "type": "bool"
        }
      ],
      "stateMutability": "nonpayable",
      "type": "function"
    },
    {
      "inputs": [
        {
          "internalType": "address",
          "name": "_from",
          "type": "address"
        },
        {
          "internalType": "address",
          "name": "_to",
          "type": "address"
        },
        {
          "internalType": "uint256",
          "name": "_amount",
          "type": "uint256"
        }
      ],
      "name": "approveAndTransferFrom",
      "outputs": [
        {
          "internalType": "bool",
          "name": "",
          "type": "bool"
        }
      ],
      "stateMutability": "nonpayable",
      "type": "function"
    },
    {
      "inputs": [
        {
          "internalType": "address",
          "name": "_user",
          "type": "address"
        }
      ],
      "name": "balanceOf",
      "outputs": [
        {
          "internalType": "uint256",
          "name": "",
          "type": "uint256"
        }
      ],
      "stateMutability": "view",
      "type": "function"
    },
    {
      "inputs": [
        {
          "internalType": "address",
          "name": "_user",
          "type": "address"
        },
        {
          "internalType": "uint256",
          "name": "_blockNumber",
          "type": "uint256"
        }
      ],
      "name": "balanceOfAt",
      "outputs": [
        {
          "internalType": "uint256",
          "name": "",
          "type": "uint256"
        }
      ],
      "stateMutability": "view",
      "type": "function"
    },
    {
      "inputs": [
        {
          "internalType": "address",
          "name": "",
          "type": "address"
        },
        {
          "internalType": "uint256",
          "name": "",
          "type": "uint256"
        }
      ],
      "name": "balances",
      "outputs": [
        {
          "internalType": "uint128",
          "name": "fromBlock",
          "type": "uint128"
        },
        {
          "internalType": "uint128",
          "name": "value",
          "type": "uint128"
        }
      ],
      "stateMutability": "view",
      "type": "function"
    },
    {
      "inputs": [
        {
          "internalType": "uint256",
          "name": "_amount",
          "type": "uint256"
        }
      ],
      "name": "burn",
      "outputs": [],
      "stateMutability": "nonpayable",
      "type": "function"
    },
    {
      "inputs": [
        {
          "internalType": "bytes32",
          "name": "",
          "type": "bytes32"
        }
      ],
      "name": "bytesVars",
      "outputs": [
        {
          "internalType": "bytes32",
          "name": "",
          "type": "bytes32"
        }
      ],
      "stateMutability": "view",
      "type": "function"
    },
    {
      "inputs": [
        {
          "internalType": "address",
          "name": "_reporter",
          "type": "address"
        },
        {
          "internalType": "uint256",
          "name": "_status",
          "type": "uint256"
        }
      ],
      "name": "changeStakingStatus",
      "outputs": [],
      "stateMutability": "nonpayable",
      "type": "function"
    },
    {
      "inputs": [
        {
          "internalType": "uint256",
          "name": "",
          "type": "uint256"
        }
      ],
      "name": "currentMiners",
      "outputs": [
        {
          "internalType": "uint256",
          "name": "value",
          "type": "uint256"
        },
        {
          "internalType": "address",
          "name": "miner",
          "type": "address"
        }
      ],
      "stateMutability": "view",
      "type": "function"
    },
    {
      "inputs": [],
      "name": "depositStake",
      "outputs": [],
      "stateMutability": "nonpayable",
      "type": "function"
    },
    {
      "inputs": [
        {
          "internalType": "bytes32",
          "name": "",
          "type": "bytes32"
        }
      ],
      "name": "disputeIdByDisputeHash",
      "outputs": [
        {
          "internalType": "uint256",
          "name": "",
          "type": "uint256"
        }
      ],
      "stateMutability": "view",
      "type": "function"
    },
    {
      "inputs": [
        {
          "internalType": "uint256",
          "name": "",
          "type": "uint256"
        }
      ],
      "name": "disputesById",
      "outputs": [
        {
          "internalType": "bytes32",
          "name": "hash",
          "type": "bytes32"
        },
        {
          "internalType": "int256",
          "name": "tally",
          "type": "int256"
        },
        {
          "internalType": "bool",
          "name": "executed",
          "type": "bool"
        },
        {
          "internalType": "bool",
          "name": "disputeVotePassed",
          "type": "bool"
        },
        {
          "internalType": "bool",
          "name": "isPropFork",
          "type": "bool"
        },
        {
          "internalType": "address",
          "name": "reportedMiner",
          "type": "address"
        },
        {
          "internalType": "address",
          "name": "reportingParty",
          "type": "address"
        },
        {
          "internalType": "address",
          "name": "proposedForkAddress",
          "type": "address"
        }
      ],
      "stateMutability": "view",
      "type": "function"
    },
    {
      "inputs": [
        {
          "internalType": "address",
          "name": "_staker",
          "type": "address"
        }
      ],
      "name": "getStakerInfo",
      "outputs": [
        {
          "internalType": "uint256",
          "name": "",
          "type": "uint256"
        },
        {
          "internalType": "uint256",
          "name": "",
          "type": "uint256"
        }
      ],
      "stateMutability": "view",
      "type": "function"
    },
    {
      "inputs": [
        {
          "internalType": "address",
          "name": "",
          "type": "address"
        }
      ],
      "name": "migrated",
      "outputs": [
        {
          "internalType": "bool",
          "name": "",
          "type": "bool"
        }
      ],
      "stateMutability": "view",
      "type": "function"
    },
    {
      "inputs": [
        {
          "internalType": "bytes32",
          "name": "",
          "type": "bytes32"
        },
        {
          "internalType": "address",
          "name": "",
          "type": "address"
        }
      ],
      "name": "minersByChallenge",
      "outputs": [
        {
          "internalType": "bool",
          "name": "",
          "type": "bool"
        }
      ],
      "stateMutability": "view",
      "type": "function"
    },
    {
      "inputs": [
        {
          "internalType": "uint256",
          "name": "",
          "type": "uint256"
        }
      ],
      "name": "newValueTimestamps",
      "outputs": [
        {
          "internalType": "uint256",
          "name": "",
          "type": "uint256"
        }
      ],
      "stateMutability": "view",
      "type": "function"
    },
    {
      "inputs": [
        {
          "internalType": "bytes32",
          "name": "",
          "type": "bytes32"
        }
      ],
      "name": "requestIdByQueryHash",
      "outputs": [
        {
          "internalType": "uint256",
          "name": "",
          "type": "uint256"
        }
      ],
      "stateMutability": "view",
      "type": "function"
    },
    {
      "inputs": [],
      "name": "requestStakingWithdraw",
      "outputs": [],
      "stateMutability": "nonpayable",
      "type": "function"
    },
    {
      "inputs": [
        {
          "internalType": "address",
          "name": "_reporter",
          "type": "address"
        },
        {
          "internalType": "address",
          "name": "_disputer",
          "type": "address"
        }
      ],
      "name": "slashReporter",
      "outputs": [],
      "stateMutability": "nonpayable",
      "type": "function"
    },
    {
      "inputs": [
        {
          "internalType": "address",
          "name": "_to",
          "type": "address"
        },
        {
          "internalType": "uint256",
          "name": "_amount",
          "type": "uint256"
        }
      ],
      "name": "transfer",
      "outputs": [
        {
          "internalType": "bool",
          "name": "success",
          "type": "bool"
        }
      ],
      "stateMutability": "nonpayable",
      "type": "function"
    },
    {
      "inputs": [
        {
          "internalType": "address",
          "name": "_from",
          "type": "address"
        },
        {
          "internalType": "address",
          "name": "_to",
          "type": "address"
        },
        {
          "internalType": "uint256",
          "name": "_amount",
          "type": "uint256"
        }
      ],
      "name": "transferFrom",
      "outputs": [
        {
          "internalType": "bool",
          "name": "success",
          "type": "bool"
        }
      ],
      "stateMutability": "nonpayable",
      "type": "function"
    },
    {
      "inputs": [
        {
          "internalType": "bytes32",
          "name": "",
          "type": "bytes32"
        }
      ],
      "name": "uints",
      "outputs": [
        {
          "internalType": "uint256",
          "name": "",
          "type": "uint256"
        }
      ],
      "stateMutability": "view",
      "type": "function"
    },
    {
      "inputs": [],
      "name": "withdrawStake",
      "outputs": [],
      "stateMutability": "nonpayable",
      "type": "function"
    }
  ],
  "bytecode": "0x608060405234801561001057600080fd5b50611b11806100206000396000f3fe608060405234801561001057600080fd5b50600436106101b95760003560e01c80635700242c116100f9578063a9059cbb11610097578063cbf1304d11610071578063cbf1304d1461045f578063d01f4d9e14610492578063db085beb146104b2578063dd62ed3e1461056b576101b9565b8063a9059cbb14610424578063b59e14d414610437578063bed9d86114610457576101b9565b806370a08231116100d357806370a08231146103a5578063733bdef0146103b8578063999cf26c146103fe578063a1332c5c14610411576101b9565b80635700242c1461032457806362dd1d2a14610344578063699f200f14610364576101b9565b8063288c9c9d1161016657806348b18e541161014057806348b18e54146102ad5780634ba0a5ee146102db5780634dfc2a34146102fe5780634ee2cd7e14610311576101b9565b8063288c9c9d1461027457806342966c6814610287578063438c0aa31461029a576101b9565b80631fd22364116101975780631fd223641461022957806323b872dd1461025957806328449c3a1461026c576101b9565b8063024c2ddd146101be578063095ea7b3146101fc5780630d2d76a21461021f575b600080fd5b6101e96101cc3660046118ac565b604a60209081526000928352604080842090915290825290205481565b6040519081526020015b60405180910390f35b61020f61020a366004611919565b6105a4565b60405190151581526020016101f3565b610227610671565b005b61023c610237366004611962565b6108fe565b604080519283526001600160a01b039091166020830152016101f3565b61020f6102673660046118de565b610929565b6102276109df565b61020f6102823660046118de565b610b64565b610227610295366004611962565b610d56565b6101e96102a8366004611962565b610d63565b61020f6102bb36600461197a565b603960209081526000928352604080842090915290825290205460ff1681565b61020f6102e936600461188b565b604b6020526000908152604090205460ff1681565b61022761030c3660046118ac565b610d84565b6101e961031f366004611919565b610f90565b6101e9610332366004611962565b60376020526000908152604090205481565b6101e9610352366004611962565b60486020526000908152604090205481565b61038d610372366004611962565b6047602052600090815260409020546001600160a01b031681565b6040516001600160a01b0390911681526020016101f3565b6101e96103b336600461188b565b6111fb565b6103e96103c636600461188b565b6001600160a01b0316600090815260446020526040902080546001909101549091565b604080519283526020830191909152016101f3565b61020f61040c366004611919565b61120f565b61022761041f366004611919565b6112cf565b61020f610432366004611919565b6113fc565b6101e9610445366004611962565b60466020526000908152604090205481565b610227611412565b61047261046d366004611919565b611508565b604080516001600160801b039384168152929091166020830152016101f3565b6101e96104a0366004611962565b60386020526000908152604090205481565b61051c6104c0366004611962565b603660205260009081526040902080546001820154600283015460038401546004909401549293919260ff808316936101008404821693620100008104909216926001600160a01b036301000000909304831692918216911688565b604080519889526020890197909752941515958701959095529115156060860152151560808501526001600160a01b0390811660a085015291821660c08401521660e0820152610100016101f3565b6101e96105793660046118ac565b6001600160a01b039182166000908152604a6020908152604080832093909416825291909152205490565b60006001600160a01b03831661060c5760405162461bcd60e51b815260206004820152602260248201527f45524332303a20617070726f766520746f20746865207a65726f206164647265604482015261737360f01b60648201526084015b60405180910390fd5b336000818152604a602090815260408083206001600160a01b03881680855290835292819020869055518581529192917f8c5be1e5ebec7d5bd14f71427d1e84f3dd0314c0f7b2291e5b200ac8c7c3b925910160405180910390a35060015b92915050565b7f167af83a0768d27540775cfef6d996eb63f8a61fcdfb26e654c18fb50960e3be5433600090815260496020526040902080546106b090600190611a6e565b815481106106ce57634e487b7160e01b600052603260045260246000fd5b600091825260209091200154600160801b90046001600160801b031610156107435760405162461bcd60e51b815260206004820152602260248201527f42616c616e6365206973206c6f776572207468616e207374616b6520616d6f756044820152611b9d60f21b6064820152608401610603565b33600090815260446020526040902054158061076e5750336000908152604460205260409020546002145b6107ba5760405162461bcd60e51b815260206004820152601e60248201527f5265706f7274657220697320696e207468652077726f6e6720737461746500006044820152606401610603565b7f10c168823622203e4057b65015ff4d95b4c650b308918e8c92dc32ab5a0a034b600090815260466020527fa5ae3e2b97d73fb849ea855d27f073b72815b38452d976bd57e4a157827dadd3805460019290610817908490611a0e565b9091555050604080518082018252600180825242602080840191825233600081815260448352869020945185559151939092019290925591519081527ffef374abf45e2e3ec7bf325aef6e240bfbc166fd230c511d058f061af7106aea910160405180910390a1600080516020611abc83398151915260009081526047602052600080516020611a9c83398151915254604080516390e5b23560e01b815290516001600160a01b03909216926390e5b2359260048084019382900301818387803b1580156108e457600080fd5b505af11580156108f8573d6000803e3d6000fd5b50505050565b603a816005811061090e57600080fd5b6002020180546001909101549091506001600160a01b031682565b6001600160a01b0383166000908152604a602090815260408083203384529091528120548211156109915760405162461bcd60e51b8152602060048201526012602482015271416c6c6f77616e63652069732077726f6e6760701b6044820152606401610603565b6001600160a01b0384166000908152604a60209081526040808320338452909152812080548492906109c4908490611a6e565b909155506109d5905084848461154b565b5060019392505050565b3360009081526044602052604090208054600114610a3f5760405162461bcd60e51b815260206004820152601660248201527f5265706f72746572206973206e6f74207374616b6564000000000000000000006044820152606401610603565b60028155426001808301919091557f10c168823622203e4057b65015ff4d95b4c650b308918e8c92dc32ab5a0a034b600090815260466020527fa5ae3e2b97d73fb849ea855d27f073b72815b38452d976bd57e4a157827dadd38054909190610aa9908490611a6e565b9091555050600080516020611abc83398151915260009081526047602052600080516020611a9c83398151915254604080516390e5b23560e01b815290516001600160a01b03909216926390e5b2359260048084019382900301818387803b158015610b1457600080fd5b505af1158015610b28573d6000803e3d6000fd5b50506040513381527f453865710d0cb4b14ad25de371c860da196368895daa9662e5087711d14daecf925060200190505b60405180910390a150565b600080516020611abc83398151915260009081526047602052600080516020611a9c83398151915254604051637e98b8d960e11b81523360048201526001600160a01b039091169063fd3171b29060240160206040518083038186803b158015610bcd57600080fd5b505afa158015610be1573d6000803e3d6000fd5b505050506040513d601f19601f82011682018060405250810190610c059190611942565b80610c6257507f1436a1a60dca0ebb2be98547e57992a0fa082eb479e7576303cbd384e934f1fa60005260476020527fdff38f4be09d4d5ca93ca85b25c70a2df93aeb79f23032ad60429718dab8fd0d546001600160a01b031633145b80610cbf57507ffa522e460446113e8fd353d7fa015625a68bc0369712213a42e006346440891e60005260476020527fef4ea54b5b61165ffc2ef656b4303b6e25d2ec33cc6bc62f39864cc7b0cfe7b5546001600160a01b031633145b610d4b5760405162461bcd60e51b815260206004820152605160248201527f4f6e6c792074686520476f7665726e616e63652c2054726561737572792c206f60448201527f72204f7261636c6520436f6e74726163742063616e20617070726f766520616e60648201527064207472616e7366657220746f6b656e7360781b608482015260a401610603565b6109d584848461154b565b610d6033826116ac565b50565b60338181548110610d7357600080fd5b600091825260209091200154905081565b600080516020611abc8339815191526000526047602052600080516020611a9c83398151915254604051637e98b8d960e11b81523360048201526001600160a01b039091169063fd3171b29060240160206040518083038186803b158015610deb57600080fd5b505afa158015610dff573d6000803e3d6000fd5b505050506040513d601f19601f82011682018060405250810190610e239190611942565b610e955760405162461bcd60e51b815260206004820152603460248201527f4f6e6c7920617070726f76656420676f7665726e616e636520636f6e7472616360448201527f742063616e20736c617368207265706f727465720000000000000000000000006064820152608401610603565b6001600160a01b03821660009081526044602090815260408220600590557f5d9fadfc729fd027e395e5157ef1b53ef9fa4a8f053043c5f159307543e7cc97909152604690527f167af83a0768d27540775cfef6d996eb63f8a61fcdfb26e654c18fb50960e3be54610f06836111fb565b10610f68577f5d9fadfc729fd027e395e5157ef1b53ef9fa4a8f053043c5f159307543e7cc9760005260466020527f167af83a0768d27540775cfef6d996eb63f8a61fcdfb26e654c18fb50960e3be54610f63908390839061154b565b610f8c565b6000610f73836111fb565b1115610f8c57610f8c8282610f87856111fb565b61154b565b5050565b6001600160a01b038216600090815260496020526040812080541580610fea57508281600081548110610fd357634e487b7160e01b600052603260045260246000fd5b6000918252602090912001546001600160801b0316115b15610ff957600091505061066b565b8054819061100990600190611a6e565b8154811061102757634e487b7160e01b600052603260045260246000fd5b6000918252602090912001546001600160801b03168310611095578054819061105290600190611a6e565b8154811061107057634e487b7160e01b600052603260045260246000fd5b600091825260209091200154600160801b90046001600160801b0316915061066b9050565b805460009081906110a890600290611a6e565b90505b818111156111b457600060026110c18484611a0e565b6110cc906001611a0e565b6110d69190611a26565b9050858482815481106110f957634e487b7160e01b600052603260045260246000fd5b6000918252602090912001546001600160801b0316141561115c5783818154811061113457634e487b7160e01b600052603260045260246000fd5b600091825260209091200154600160801b90046001600160801b0316945061066b9350505050565b8584828154811061117d57634e487b7160e01b600052603260045260246000fd5b6000918252602090912001546001600160801b031610156111a0578092506111ae565b6111ab600182611a6e565b91505b506110ab565b8282815481106111d457634e487b7160e01b600052603260045260246000fd5b600091825260209091200154600160801b90046001600160801b0316935061066b92505050565b60006112078243610f90565b90505b919050565b6001600160a01b0382166000908152604460205260408120541580159061124e57506001600160a01b0383166000908152604460205260409020546005115b156112bc577f5d9fadfc729fd027e395e5157ef1b53ef9fa4a8f053043c5f159307543e7cc9760005260466020527f167af83a0768d27540775cfef6d996eb63f8a61fcdfb26e654c18fb50960e3be5482906112a9856111fb565b6112b39190611a6e565b1015905061066b565b816112c6846111fb565b10159392505050565b600080516020611abc8339815191526000526047602052600080516020611a9c83398151915254604051637e98b8d960e11b81523360048201526001600160a01b039091169063fd3171b29060240160206040518083038186803b15801561133657600080fd5b505afa15801561134a573d6000803e3d6000fd5b505050506040513d601f19601f8201168201806040525081019061136e9190611942565b6113e05760405162461bcd60e51b815260206004820152603b60248201527f4f6e6c7920617070726f76656420676f7665726e616e636520636f6e7472616360448201527f742063616e206368616e6765207374616b696e672073746174757300000000006064820152608401610603565b6001600160a01b03909116600090815260446020526040902055565b600061140933848461154b565b50600192915050565b336000908152604460205260409020600181015462093a80906114359042611a6e565b10156114785760405162461bcd60e51b8152602060048201526012602482015271372064617973206469646e2774207061737360701b6044820152606401610603565b80546002146114d45760405162461bcd60e51b815260206004820152602260248201527f5265706f72746572206e6f74206c6f636b656420666f72207769746864726177604482015261185b60f21b6064820152608401610603565b600081556040513381527f4a7934670bd8304e7da22378be1368f7c4fef17c5aee81804beda8638fe428ec90602001610b59565b6049602052816000526040600020818154811061152457600080fd5b6000918252602090912001546001600160801b038082169350600160801b90910416905082565b806115a25760405162461bcd60e51b815260206004820152602160248201527f547269656420746f2073656e64206e6f6e2d706f73697469766520616d6f756e6044820152601d60fa1b6064820152608401610603565b6001600160a01b0382166115f85760405162461bcd60e51b815260206004820152601560248201527f52656365697665722069732030206164647265737300000000000000000000006044820152606401610603565b611602838261120f565b61161e5760405162461bcd60e51b81526004016106039061199c565b6000611629846111fb565b90508161163f8561163a8385611a46565b61175f565b611648846111fb565b91506116588461163a83856119e3565b836001600160a01b0316856001600160a01b03167fddf252ad1be2c89b69c2b068fc378daa952ba7f163c4a11628f55a4df523b3ef8560405161169d91815260200190565b60405180910390a35050505050565b806116b657610f8c565b6116c0828261120f565b6116dc5760405162461bcd60e51b81526004016106039061199c565b60006116e7836111fb565b9050816116f88461163a8385611a46565b7fe6148e7230ca038d456350e69a91b66968b222bfac9ebfbea6ff0a1fb7380160600090815260466020527ffffeead1ec15181fd57b4590d95e0c076bccb59e311315e8b38f23c710aa7c3e8054859290611754908490611a6e565b909155505050505050565b6001600160a01b0382166000908152604960205260409020805415806117c8575080544390829061179290600190611a6e565b815481106117b057634e487b7160e01b600052603260045260246000fd5b6000918252602090912001546001600160801b031614155b1561181957604080518082019091526001600160801b03438116825283811660208084019182528454600181018655600086815291909120935191518316600160801b02919092161791015561186f565b8054600090829061182c90600190611a6e565b8154811061184a57634e487b7160e01b600052603260045260246000fd5b600091825260209091200180546001600160801b03808616600160801b029116179055505b505050565b80356001600160a01b038116811461120a57600080fd5b60006020828403121561189c578081fd5b6118a582611874565b9392505050565b600080604083850312156118be578081fd5b6118c783611874565b91506118d560208401611874565b90509250929050565b6000806000606084860312156118f2578081fd5b6118fb84611874565b925061190960208501611874565b9150604084013590509250925092565b6000806040838503121561192b578182fd5b61193483611874565b946020939093013593505050565b600060208284031215611953578081fd5b815180151581146118a5578182fd5b600060208284031215611973578081fd5b5035919050565b6000806040838503121561198c578182fd5b823591506118d560208401611874565b60208082526027908201527f53686f756c6420686176652073756666696369656e742062616c616e636520746040820152666f20747261646560c81b606082015260800190565b60006001600160801b03808316818516808303821115611a0557611a05611a85565b01949350505050565b60008219821115611a2157611a21611a85565b500190565b600082611a4157634e487b7160e01b81526012600452602481fd5b500490565b60006001600160801b0383811690831681811015611a6657611a66611a85565b039392505050565b600082821015611a8057611a80611a85565b500390565b634e487b7160e01b600052601160045260246000fdfe7d9ee2aaccfe8f70172569ff913448023f3ddb672f2bd893709418983f3ec22defa19baa864049f50491093580c5433e97e8d5e41f8db1a61108b4fa44cacd93a264697066735822122038313165ebe11e30ffec89b8d3f88e63cf2ae4529578011b1036ec803fca5ba264736f6c63430008030033",
  "linkReferences": {},
  "deployedLinkReferences": {}
}