{
  "_format": "hh-sol-artifact-1",
  "contractName": "BridgeCaller",
  "sourceName": "contracts/bridge/mock/BridgeCaller.sol",
  "abi": [
    {
      "inputs": [
        {
          "internalType": "address",
          "name": "_bridge",
          "type": "address"
        }
      ],
      "stateMutability": "nonpayable",
      "type": "constructor"
    },
    {
      "inputs": [],
      "name": "bridge",
      "outputs": [
        {
          "internalType": "contract BlobstreamO",
          "name": "",
          "type": "address"
        }
      ],
      "stateMutability": "view",
      "type": "function"
    },
    {
      "inputs": [],
      "name": "oracleData",
      "outputs": [
        {
          "internalType": "bytes",
          "name": "",
          "type": "bytes"
        }
      ],
      "stateMutability": "view",
      "type": "function"
    },
    {
      "inputs": [],
      "name": "oracleDataTimestamp",
      "outputs": [
        {
          "internalType": "uint256",
          "name": "",
          "type": "uint256"
        }
      ],
      "stateMutability": "view",
      "type": "function"
    },
    {
      "inputs": [
        {
          "components": [
            {
              "internalType": "bytes32",
              "name": "queryId",
              "type": "bytes32"
            },
            {
              "components": [
                {
                  "internalType": "bytes",
                  "name": "value",
                  "type": "bytes"
                },
                {
                  "internalType": "uint256",
                  "name": "timestamp",
                  "type": "uint256"
                },
                {
                  "internalType": "uint256",
                  "name": "aggregatePower",
                  "type": "uint256"
                },
                {
                  "internalType": "uint256",
                  "name": "previousTimestamp",
                  "type": "uint256"
                },
                {
                  "internalType": "uint256",
                  "name": "nextTimestamp",
                  "type": "uint256"
                }
              ],
              "internalType": "struct ReportData",
              "name": "report",
              "type": "tuple"
            },
            {
              "internalType": "uint256",
              "name": "attestTimestamp",
              "type": "uint256"
            }
          ],
          "internalType": "struct OracleAttestationData",
          "name": "_attest",
          "type": "tuple"
        },
        {
          "components": [
            {
              "internalType": "address",
              "name": "addr",
              "type": "address"
            },
            {
              "internalType": "uint256",
              "name": "power",
              "type": "uint256"
            }
          ],
          "internalType": "struct Validator[]",
          "name": "_currentValidatorSet",
          "type": "tuple[]"
        },
        {
          "components": [
            {
              "internalType": "uint8",
              "name": "v",
              "type": "uint8"
            },
            {
              "internalType": "bytes32",
              "name": "r",
              "type": "bytes32"
            },
            {
              "internalType": "bytes32",
              "name": "s",
              "type": "bytes32"
            }
          ],
          "internalType": "struct Signature[]",
          "name": "_sigs",
          "type": "tuple[]"
        }
      ],
      "name": "verifyAndSaveOracleData",
      "outputs": [],
      "stateMutability": "nonpayable",
      "type": "function"
    }
  ],
  "bytecode": "0x60806040523480156200001157600080fd5b5060405162001098380380620010988339818101604052810190620000379190620000e8565b806000806101000a81548173ffffffffffffffffffffffffffffffffffffffff021916908373ffffffffffffffffffffffffffffffffffffffff160217905550506200011a565b600080fd5b600073ffffffffffffffffffffffffffffffffffffffff82169050919050565b6000620000b08262000083565b9050919050565b620000c281620000a3565b8114620000ce57600080fd5b50565b600081519050620000e281620000b7565b92915050565b6000602082840312156200010157620001006200007e565b5b60006200011184828501620000d1565b91505092915050565b610f6e806200012a6000396000f3fe608060405234801561001057600080fd5b506004361061004c5760003560e01c806337e440031461005157806374645ff31461006d578063b5d1460b1461008b578063e78cea92146100a9575b600080fd5b61006b60048036038101906100669190610363565b6100c7565b005b6100756101c2565b60405161008291906104a4565b60405180910390f35b610093610250565b6040516100a091906104df565b60405180910390f35b6100b1610256565b6040516100be9190610579565b60405180910390f35b60008054906101000a900473ffffffffffffffffffffffffffffffffffffffff1673ffffffffffffffffffffffffffffffffffffffff16635121b26e86868686866040518663ffffffff1660e01b8152600401610128959493929190610add565b602060405180830381865afa158015610145573d6000803e3d6000fd5b505050506040513d601f19601f820116820180604052508101906101699190610b65565b61017257600080fd5b8480602001906101829190610ba1565b80600001906101919190610bc9565b600191826101a0929190610e68565b508480602001906101b19190610ba1565b602001356002819055505050505050565b600180546101cf90610c95565b80601f01602080910402602001604051908101604052809291908181526020018280546101fb90610c95565b80156102485780601f1061021d57610100808354040283529160200191610248565b820191906000526020600020905b81548152906001019060200180831161022b57829003601f168201915b505050505081565b60025481565b60008054906101000a900473ffffffffffffffffffffffffffffffffffffffff1681565b600080fd5b600080fd5b600080fd5b60006060828403121561029f5761029e610284565b5b81905092915050565b600080fd5b600080fd5b600080fd5b60008083601f8401126102cd576102cc6102a8565b5b8235905067ffffffffffffffff8111156102ea576102e96102ad565b5b602083019150836040820283011115610306576103056102b2565b5b9250929050565b60008083601f840112610323576103226102a8565b5b8235905067ffffffffffffffff8111156103405761033f6102ad565b5b60208301915083606082028301111561035c5761035b6102b2565b5b9250929050565b60008060008060006060868803121561037f5761037e61027a565b5b600086013567ffffffffffffffff81111561039d5761039c61027f565b5b6103a988828901610289565b955050602086013567ffffffffffffffff8111156103ca576103c961027f565b5b6103d6888289016102b7565b9450945050604086013567ffffffffffffffff8111156103f9576103f861027f565b5b6104058882890161030d565b92509250509295509295909350565b600081519050919050565b600082825260208201905092915050565b60005b8381101561044e578082015181840152602081019050610433565b60008484015250505050565b6000601f19601f8301169050919050565b600061047682610414565b610480818561041f565b9350610490818560208601610430565b6104998161045a565b840191505092915050565b600060208201905081810360008301526104be818461046b565b905092915050565b6000819050919050565b6104d9816104c6565b82525050565b60006020820190506104f460008301846104d0565b92915050565b600073ffffffffffffffffffffffffffffffffffffffff82169050919050565b6000819050919050565b600061053f61053a610535846104fa565b61051a565b6104fa565b9050919050565b600061055182610524565b9050919050565b600061056382610546565b9050919050565b61057381610558565b82525050565b600060208201905061058e600083018461056a565b92915050565b6000819050919050565b6105a781610594565b81146105b257600080fd5b50565b6000813590506105c48161059e565b92915050565b60006105d960208401846105b5565b905092915050565b6105ea81610594565b82525050565b600080fd5b60008235600160a003833603038112610611576106106105f0565b5b82810191505092915050565b600080fd5b600080fd5b60008083356001602003843603038112610644576106436105f0565b5b83810192508235915060208301925067ffffffffffffffff82111561066c5761066b61061d565b5b60018202360383131561068257610681610622565b5b509250929050565b600082825260208201905092915050565b82818337600083830152505050565b60006106b6838561068a565b93506106c383858461069b565b6106cc8361045a565b840190509392505050565b6106e0816104c6565b81146106eb57600080fd5b50565b6000813590506106fd816106d7565b92915050565b600061071260208401846106ee565b905092915050565b610723816104c6565b82525050565b600060a0830161073c6000840184610627565b858303600087015261074f8382846106aa565b925050506107606020840184610703565b61076d602086018261071a565b5061077b6040840184610703565b610788604086018261071a565b506107966060840184610703565b6107a3606086018261071a565b506107b16080840184610703565b6107be608086018261071a565b508091505092915050565b6000606083016107dc60008401846105ca565b6107e960008601826105e1565b506107f760208401846105f5565b84820360208601526108098282610729565b9150506108196040840184610703565b610826604086018261071a565b508091505092915050565b600082825260208201905092915050565b6000819050919050565b6000610857826104fa565b9050919050565b6108678161084c565b811461087257600080fd5b50565b6000813590506108848161085e565b92915050565b60006108996020840184610875565b905092915050565b6108aa8161084c565b82525050565b604082016108c1600083018361088a565b6108ce60008501826108a1565b506108dc6020830183610703565b6108e9602085018261071a565b50505050565b60006108fb83836108b0565b60408301905092915050565b600082905092915050565b6000604082019050919050565b600061092b8385610831565b935061093682610842565b8060005b8581101561096f5761094c8284610907565b61095688826108ef565b975061096183610912565b92505060018101905061093a565b5085925050509392505050565b600082825260208201905092915050565b6000819050919050565b600060ff82169050919050565b6109ad81610997565b81146109b857600080fd5b50565b6000813590506109ca816109a4565b92915050565b60006109df60208401846109bb565b905092915050565b6109f081610997565b82525050565b60608201610a0760008301836109d0565b610a1460008501826109e7565b50610a2260208301836105ca565b610a2f60208501826105e1565b50610a3d60408301836105ca565b610a4a60408501826105e1565b50505050565b6000610a5c83836109f6565b60608301905092915050565b600082905092915050565b6000606082019050919050565b6000610a8c838561097c565b9350610a978261098d565b8060005b85811015610ad057610aad8284610a68565b610ab78882610a50565b9750610ac283610a73565b925050600181019050610a9b565b5085925050509392505050565b60006060820190508181036000830152610af781886107c9565b90508181036020830152610b0c81868861091f565b90508181036040830152610b21818486610a80565b90509695505050505050565b60008115159050919050565b610b4281610b2d565b8114610b4d57600080fd5b50565b600081519050610b5f81610b39565b92915050565b600060208284031215610b7b57610b7a61027a565b5b6000610b8984828501610b50565b91505092915050565b600080fd5b600080fd5b600080fd5b60008235600160a003833603038112610bbd57610bbc610b92565b5b80830191505092915050565b60008083356001602003843603038112610be657610be5610b92565b5b80840192508235915067ffffffffffffffff821115610c0857610c07610b97565b5b602083019250600182023603831315610c2457610c23610b9c565b5b509250929050565b600082905092915050565b7f4e487b7100000000000000000000000000000000000000000000000000000000600052604160045260246000fd5b7f4e487b7100000000000000000000000000000000000000000000000000000000600052602260045260246000fd5b60006002820490506001821680610cad57607f821691505b602082108103610cc057610cbf610c66565b5b50919050565b60008190508160005260206000209050919050565b60006020601f8301049050919050565b600082821b905092915050565b600060088302610d287fffffffffffffffffffffffffffffffffffffffffffffffffffffffffffffffff82610ceb565b610d328683610ceb565b95508019841693508086168417925050509392505050565b6000610d65610d60610d5b846104c6565b61051a565b6104c6565b9050919050565b6000819050919050565b610d7f83610d4a565b610d93610d8b82610d6c565b848454610cf8565b825550505050565b600090565b610da8610d9b565b610db3818484610d76565b505050565b5b81811015610dd757610dcc600082610da0565b600181019050610db9565b5050565b601f821115610e1c57610ded81610cc6565b610df684610cdb565b81016020851015610e05578190505b610e19610e1185610cdb565b830182610db8565b50505b505050565b600082821c905092915050565b6000610e3f60001984600802610e21565b1980831691505092915050565b6000610e588383610e2e565b9150826002028217905092915050565b610e728383610c2c565b67ffffffffffffffff811115610e8b57610e8a610c37565b5b610e958254610c95565b610ea0828285610ddb565b6000601f831160018114610ecf5760008415610ebd578287013590505b610ec78582610e4c565b865550610f2f565b601f198416610edd86610cc6565b60005b82811015610f0557848901358255600182019150602085019450602081019050610ee0565b86831015610f225784890135610f1e601f891682610e2e565b8355505b6001600288020188555050505b5050505050505056fea26469706673582212209e950d56e7329d023a43233fcdb5ab9eb531284cdd866d2ef98b15c8e1059c3e64736f6c63430008160033",
  "linkReferences": {},
  "deployedLinkReferences": {}
}