{
  "_format": "hh-sol-artifact-1",
  "contractName": "TellorLayerTransition",
  "sourceName": "contracts/transition/TellorLayerTransition.sol",
  "abi": [
    {
      "inputs": [
        {
          "internalType": "address",
          "name": "_token",
          "type": "address"
        },
        {
          "internalType": "address",
          "name": "_tokenBridge",
          "type": "address"
        },
        {
          "internalType": "address",
          "name": "_dataBridge",
          "type": "address"
        }
      ],
      "stateMutability": "nonpayable",
      "type": "constructor"
    },
    {
      "inputs": [
        {
          "internalType": "uint256",
          "name": "_amount",
          "type": "uint256"
        }
      ],
      "name": "addStakingRewards",
      "outputs": [],
      "stateMutability": "nonpayable",
      "type": "function"
    },
    {
      "inputs": [],
      "name": "dataBridge",
      "outputs": [
        {
          "internalType": "address",
          "name": "",
          "type": "address"
        }
      ],
      "stateMutability": "view",
      "type": "function"
    },
    {
      "inputs": [
        {
          "internalType": "bytes32",
          "name": "_queryId",
          "type": "bytes32"
        },
        {
          "internalType": "uint256",
          "name": "_timestamp",
          "type": "uint256"
        }
      ],
      "name": "getDataBefore",
      "outputs": [
        {
          "internalType": "bool",
          "name": "_ifRetrieve",
          "type": "bool"
        },
        {
          "internalType": "bytes",
          "name": "_value",
          "type": "bytes"
        },
        {
          "internalType": "uint256",
          "name": "_timestampRetrieved",
          "type": "uint256"
        }
      ],
      "stateMutability": "view",
      "type": "function"
    },
    {
      "inputs": [
        {
          "internalType": "bytes32",
          "name": "_queryId",
          "type": "bytes32"
        },
        {
          "internalType": "uint256",
          "name": "_timestamp",
          "type": "uint256"
        }
      ],
      "name": "getIndexForDataBefore",
      "outputs": [
        {
          "internalType": "bool",
          "name": "_found",
          "type": "bool"
        },
        {
          "internalType": "uint256",
          "name": "_index",
          "type": "uint256"
        }
      ],
      "stateMutability": "view",
      "type": "function"
    },
    {
      "inputs": [
        {
          "internalType": "bytes32",
          "name": "_queryId",
          "type": "bytes32"
        }
      ],
      "name": "getNewValueCountbyQueryId",
      "outputs": [
        {
          "internalType": "uint256",
          "name": "",
          "type": "uint256"
        }
      ],
      "stateMutability": "view",
      "type": "function"
    },
    {
      "inputs": [
        {
          "internalType": "bytes32",
          "name": "_queryId",
          "type": "bytes32"
        },
        {
          "internalType": "uint256",
          "name": "_timestamp",
          "type": "uint256"
        }
      ],
      "name": "getReporterByTimestamp",
      "outputs": [
        {
          "internalType": "address",
          "name": "",
          "type": "address"
        }
      ],
      "stateMutability": "view",
      "type": "function"
    },
    {
      "inputs": [
        {
          "internalType": "bytes32",
          "name": "_queryId",
          "type": "bytes32"
        },
        {
          "internalType": "uint256",
          "name": "_index",
          "type": "uint256"
        }
      ],
      "name": "getTimestampbyQueryIdandIndex",
      "outputs": [
        {
          "internalType": "uint256",
          "name": "",
          "type": "uint256"
        }
      ],
      "stateMutability": "view",
      "type": "function"
    },
    {
      "inputs": [
        {
          "internalType": "bytes32",
          "name": "",
          "type": "bytes32"
        },
        {
          "internalType": "uint256",
          "name": "",
          "type": "uint256"
        }
      ],
      "name": "isDisputed",
      "outputs": [
        {
          "internalType": "bool",
          "name": "",
          "type": "bool"
        }
      ],
      "stateMutability": "view",
      "type": "function"
    },
    {
      "inputs": [
        {
          "internalType": "bytes32",
          "name": "_queryId",
          "type": "bytes32"
        },
        {
          "internalType": "uint256",
          "name": "_timestamp",
          "type": "uint256"
        }
      ],
      "name": "isInDispute",
      "outputs": [
        {
          "internalType": "bool",
          "name": "",
          "type": "bool"
        }
      ],
      "stateMutability": "view",
      "type": "function"
    },
    {
      "inputs": [
        {
          "internalType": "bytes32",
          "name": "",
          "type": "bytes32"
        },
        {
          "internalType": "uint256",
          "name": "",
          "type": "uint256"
        }
      ],
      "name": "reporterByTimestamp",
      "outputs": [
        {
          "internalType": "address",
          "name": "",
          "type": "address"
        }
      ],
      "stateMutability": "view",
      "type": "function"
    },
    {
      "inputs": [
        {
          "internalType": "bytes32",
          "name": "_queryId",
          "type": "bytes32"
        },
        {
          "internalType": "uint256",
          "name": "_timestamp",
          "type": "uint256"
        }
      ],
      "name": "retrieveData",
      "outputs": [
        {
          "internalType": "bytes",
          "name": "",
          "type": "bytes"
        }
      ],
      "stateMutability": "view",
      "type": "function"
    },
    {
      "inputs": [
        {
          "internalType": "bytes32",
          "name": "",
          "type": "bytes32"
        },
        {
          "internalType": "uint256",
          "name": "",
          "type": "uint256"
        }
      ],
      "name": "timestamps",
      "outputs": [
        {
          "internalType": "uint256",
          "name": "",
          "type": "uint256"
        }
      ],
      "stateMutability": "view",
      "type": "function"
    },
    {
      "inputs": [],
      "name": "token",
      "outputs": [
        {
          "internalType": "contract IERC20",
          "name": "",
          "type": "address"
        }
      ],
      "stateMutability": "view",
      "type": "function"
    },
    {
      "inputs": [],
      "name": "tokenBridge",
      "outputs": [
        {
          "internalType": "address",
          "name": "",
          "type": "address"
        }
      ],
      "stateMutability": "view",
      "type": "function"
    },
    {
      "inputs": [],
      "name": "transferToTokenBridge",
      "outputs": [],
      "stateMutability": "nonpayable",
      "type": "function"
    },
    {
      "inputs": [
        {
          "internalType": "bytes32",
          "name": "",
          "type": "bytes32"
        },
        {
          "internalType": "uint256",
          "name": "",
          "type": "uint256"
        }
      ],
      "name": "values",
      "outputs": [
        {
          "internalType": "bytes",
          "name": "",
          "type": "bytes"
        }
      ],
      "stateMutability": "view",
      "type": "function"
    },
    {
      "inputs": [],
      "name": "verify",
      "outputs": [
        {
          "internalType": "uint256",
          "name": "",
          "type": "uint256"
        }
      ],
      "stateMutability": "pure",
      "type": "function"
    },
    {
      "inputs": [
        {
          "internalType": "uint256",
          "name": "_blockHeight",
          "type": "uint256"
        },
        {
          "components": [
            {
              "internalType": "string",
              "name": "clientID",
              "type": "string"
            },
            {
              "internalType": "uint64",
              "name": "oracleScriptID",
              "type": "uint64"
            },
            {
              "internalType": "bytes",
              "name": "params",
              "type": "bytes"
            },
            {
              "internalType": "uint64",
              "name": "askCount",
              "type": "uint64"
            },
            {
              "internalType": "uint64",
              "name": "minCount",
              "type": "uint64"
            },
            {
              "internalType": "uint64",
              "name": "requestID",
              "type": "uint64"
            },
            {
              "internalType": "uint64",
              "name": "ansCount",
              "type": "uint64"
            },
            {
              "internalType": "uint64",
              "name": "requestTime",
              "type": "uint64"
            },
            {
              "internalType": "uint64",
              "name": "resolveTime",
              "type": "uint64"
            },
            {
              "internalType": "enum LayerLightClientBridge.ResolveStatus",
              "name": "resolveStatus",
              "type": "uint8"
            },
            {
              "internalType": "bytes",
              "name": "result",
              "type": "bytes"
            }
          ],
          "internalType": "struct LayerLightClientBridge.Report",
          "name": "_report",
          "type": "tuple"
        },
        {
          "internalType": "uint256",
          "name": "_oracleHeight",
          "type": "uint256"
        },
        {
          "components": [
            {
              "internalType": "bool",
              "name": "isDataOnRight",
              "type": "bool"
            },
            {
              "internalType": "uint8",
              "name": "subtreeHeight",
              "type": "uint8"
            },
            {
              "internalType": "uint256",
              "name": "subtreeSize",
              "type": "uint256"
            },
            {
              "internalType": "uint256",
              "name": "subtreeVersion",
              "type": "uint256"
            },
            {
              "internalType": "bytes32",
              "name": "siblingHash",
              "type": "bytes32"
            }
          ],
          "internalType": "struct LayerLightClientBridge.IAVLMerklePath[]",
          "name": "_merklePaths",
          "type": "tuple[]"
        }
      ],
      "name": "verifyAndStore",
      "outputs": [],
      "stateMutability": "nonpayable",
      "type": "function"
    }
  ],
  "bytecode": "0x608060405234801561001057600080fd5b50604051610e52380380610e5283398101604081905261002f9161008d565b600080546001600160a01b039485166001600160a01b0319918216179091556001805493851693821693909317909255600280549190931691161790556100cf565b80516001600160a01b038116811461008857600080fd5b919050565b6000806000606084860312156100a1578283fd5b6100aa84610071565b92506100b860208501610071565b91506100c660408501610071565b90509250925092565b610d74806100de6000396000f3fe608060405234801561001057600080fd5b50600436106101165760003560e01c8063b64ed20f116100a2578063d9c51cd411610071578063d9c51cd4146102c6578063e07c5486146102d9578063f25133f31461030d578063fc0c546a14610320578063fc735e991461033357610116565b8063b64ed20f14610278578063c5958af91461028d578063c6328a46146102a0578063ce5e11bf146102b357610116565b80634947ec84116100e95780634947ec84146101dd578063578855b2146101e757806364473df2146101fa57806377b03e0d14610228578063a792765f1461025657610116565b8063091b50ff1461011b578063217053c014610144578063294490851461019057806344e87f91146101ba575b600080fd5b61012e610129366004610b18565b61033b565b60405161013b9190610c74565b60405180910390f35b610178610152366004610b18565b60046020908152600092835260408084209091529082529020546001600160a01b031681565b6040516001600160a01b03909116815260200161013b565b6101a361019e366004610b18565b6103e0565b60408051921515835260208301919091520161013b565b6101cd6101c8366004610b18565b61067b565b604051901515815260200161013b565b6101e561069f565b005b600254610178906001600160a01b031681565b6101cd610208366004610b18565b600360209081526000928352604080842090915290825290205460ff1681565b610248610236366004610b00565b60009081526005602052604090205490565b60405190815260200161013b565b610269610264366004610b18565b610802565b60405161013b93929190610c49565b6101e5610286366004610b51565b5050505050565b61012e61029b366004610b18565b6108ff565b600154610178906001600160a01b031681565b6102486102c1366004610b18565b6109ad565b6101e56102d4366004610b00565b610a1a565b6101786102e7366004610b18565b60009182526004602090815260408084209284529190529020546001600160a01b031690565b61024861031b366004610b18565b610aa8565b600054610178906001600160a01b031681565b61270f610248565b60066020908152600092835260408084209091529082529020805461035f90610ced565b80601f016020809104026020016040519081016040528092919081815260200182805461038b90610ced565b80156103d85780601f106103ad576101008083540402835291602001916103d8565b820191906000526020600020905b8154815290600101906020018083116103bb57829003601f168201915b505050505081565b6000828152600560205260408120548190801561066b5760008080610406600185610cbf565b9050600061041489846109ad565b905087811061042e57600080965096505050505050610674565b61043889836109ad565b9050878110156104b5575b61044d898261067b565b80156104595750600082115b1561047c578161046881610cd6565b92505061047589836109ad565b9050610443565b8115801561048f575061048f898261067b565b156104a557600080965096505050505050610674565b5060019550935061067492505050565b8260026104c28285610cbf565b6104cc9190610c9f565b6104d7906001610c87565b6104e19190610c87565b93506104ed89856109ad565b9050878110156105b95760006105088a6102c1876001610c87565b90508881106105a65761051b8a8361067b565b6105315760018597509750505050505050610674565b61053b8a8361067b565b80156105475750600085115b1561056a578461055681610cd6565b9550506105638a866109ad565b9150610531565b8415801561057d575061057d8a8361067b565b156105945760008097509750505050505050610674565b60018597509750505050505050610674565b6105b1856001610c87565b935050610666565b60006105ca8a6102c1600188610cbf565b905088811015610657576105de8a8261067b565b6105fd5760016105ee8187610cbf565b97509750505050505050610674565b8461060781610cd6565b9550505b6106158a8261067b565b80156106215750600085115b15610644578461063081610cd6565b95505061063d8a866109ad565b905061060b565b8415801561057d575061057d8a8261067b565b610662600186610cbf565b9250505b6104b5565b60008092509250505b9250929050565b600082815260036020908152604080832084845290915290205460ff165b92915050565b600080546040805163b67f8cbd60e01b815290516001600160a01b039092169263b67f8cbd9260048084019382900301818387803b1580156106e057600080fd5b505af11580156106f4573d6000803e3d6000fd5b50506000546001546040516370a0823160e01b81523060048201526001600160a01b03928316945063a9059cbb935091169083906370a082319060240160206040518083038186803b15801561074957600080fd5b505afa15801561075d573d6000803e3d6000fd5b505050506040513d601f19601f820116820180604052508101906107819190610b39565b6040516001600160e01b031960e085901b1681526001600160a01b0390921660048301526024820152604401602060405180830381600087803b1580156107c757600080fd5b505af11580156107db573d6000803e3d6000fd5b505050506040513d601f19601f820116820180604052508101906107ff9190610ad9565b50565b60006060600080600061081587876103e0565b915091508161083f57600060405180602001604052806000815250600094509450945050506108f8565b61084987826109ad565b6000888152600660209081526040808320848452909152902080549194509061087190610ced565b80601f016020809104026020016040519081016040528092919081815260200182805461089d90610ced565b80156108ea5780601f106108bf576101008083540402835291602001916108ea565b820191906000526020600020905b8154815290600101906020018083116108cd57829003601f168201915b505050505093506001945050505b9250925092565b6000828152600660209081526040808320848452909152902080546060919061092790610ced565b80601f016020809104026020016040519081016040528092919081815260200182805461095390610ced565b80156109a05780601f10610975576101008083540402835291602001916109a0565b820191906000526020600020905b81548152906001019060200180831161098357829003601f168201915b5050505050905092915050565b6000828152600560205260408120548015806109c95750828111155b156109d8576000915050610699565b6000848152600560205260409020805484908110610a0657634e487b7160e01b600052603260045260246000fd5b906000526020600020015491505092915050565b6000546040516323b872dd60e01b8152336004820152306024820152604481018390526001600160a01b03909116906323b872dd90606401602060405180830381600087803b158015610a6c57600080fd5b505af1158015610a80573d6000803e3d6000fd5b505050506040513d601f19601f82011682018060405250810190610aa49190610ad9565b5050565b60056020528160005260406000208181548110610ac457600080fd5b90600052602060002001600091509150505481565b600060208284031215610aea578081fd5b81518015158114610af9578182fd5b9392505050565b600060208284031215610b11578081fd5b5035919050565b60008060408385031215610b2a578081fd5b50508035926020909101359150565b600060208284031215610b4a578081fd5b5051919050565b600080600080600060808688031215610b68578081fd5b85359450602086013567ffffffffffffffff80821115610b86578283fd5b90870190610160828a031215610b9a578283fd5b9094506040870135935060608701359080821115610bb6578283fd5b818801915088601f830112610bc9578283fd5b813581811115610bd7578384fd5b89602060a083028501011115610beb578384fd5b9699959850939650602001949392505050565b60008151808452815b81811015610c2357602081850181015186830182015201610c07565b81811115610c345782602083870101525b50601f01601f19169290920160200192915050565b6000841515825260606020830152610c646060830185610bfe565b9050826040830152949350505050565b600060208252610af96020830184610bfe565b60008219821115610c9a57610c9a610d28565b500190565b600082610cba57634e487b7160e01b81526012600452602481fd5b500490565b600082821015610cd157610cd1610d28565b500390565b600081610ce557610ce5610d28565b506000190190565b600181811c90821680610d0157607f821691505b60208210811415610d2257634e487b7160e01b600052602260045260246000fd5b50919050565b634e487b7160e01b600052601160045260246000fdfea26469706673582212205b4368151ceac8f1b95d20c40dc5a6646bd83c9dd6e2b0f081402ad4de44453264736f6c63430008030033",
  "linkReferences": {},
  "deployedLinkReferences": {}
}