{
  "_format": "hh-sol-artifact-1",
  "contractName": "TellorLayerTransition",
  "sourceName": "contracts/transition/TellorLayerTransition.sol",
  "abi": [
    {
      "inputs": [
        {
          "internalType": "address",
          "name": "_token",
          "type": "address"
        },
        {
          "internalType": "address",
          "name": "_tokenBridge",
          "type": "address"
        },
        {
          "internalType": "address",
          "name": "_dataBridge",
          "type": "address"
        }
      ],
      "stateMutability": "nonpayable",
      "type": "constructor"
    },
    {
      "inputs": [
        {
          "internalType": "uint256",
          "name": "_amount",
          "type": "uint256"
        }
      ],
      "name": "addStakingRewards",
      "outputs": [],
      "stateMutability": "nonpayable",
      "type": "function"
    },
    {
      "inputs": [],
      "name": "dataBridge",
      "outputs": [
        {
          "internalType": "address",
          "name": "",
          "type": "address"
        }
      ],
      "stateMutability": "view",
      "type": "function"
    },
    {
      "inputs": [
        {
          "internalType": "bytes32",
          "name": "_queryId",
          "type": "bytes32"
        },
        {
          "internalType": "uint256",
          "name": "_timestamp",
          "type": "uint256"
        }
      ],
      "name": "getDataBefore",
      "outputs": [
        {
          "internalType": "bool",
          "name": "_ifRetrieve",
          "type": "bool"
        },
        {
          "internalType": "bytes",
          "name": "_value",
          "type": "bytes"
        },
        {
          "internalType": "uint256",
          "name": "_timestampRetrieved",
          "type": "uint256"
        }
      ],
      "stateMutability": "view",
      "type": "function"
    },
    {
      "inputs": [
        {
          "internalType": "bytes32",
          "name": "_queryId",
          "type": "bytes32"
        },
        {
          "internalType": "uint256",
          "name": "_timestamp",
          "type": "uint256"
        }
      ],
      "name": "getIndexForDataBefore",
      "outputs": [
        {
          "internalType": "bool",
          "name": "_found",
          "type": "bool"
        },
        {
          "internalType": "uint256",
          "name": "_index",
          "type": "uint256"
        }
      ],
      "stateMutability": "view",
      "type": "function"
    },
    {
      "inputs": [
        {
          "internalType": "bytes32",
          "name": "_queryId",
          "type": "bytes32"
        }
      ],
      "name": "getNewValueCountbyQueryId",
      "outputs": [
        {
          "internalType": "uint256",
          "name": "",
          "type": "uint256"
        }
      ],
      "stateMutability": "view",
      "type": "function"
    },
    {
      "inputs": [
        {
          "internalType": "bytes32",
          "name": "_queryId",
          "type": "bytes32"
        },
        {
          "internalType": "uint256",
          "name": "_timestamp",
          "type": "uint256"
        }
      ],
      "name": "getReporterByTimestamp",
      "outputs": [
        {
          "internalType": "address",
          "name": "",
          "type": "address"
        }
      ],
      "stateMutability": "view",
      "type": "function"
    },
    {
      "inputs": [
        {
          "internalType": "bytes32",
          "name": "_queryId",
          "type": "bytes32"
        },
        {
          "internalType": "uint256",
          "name": "_index",
          "type": "uint256"
        }
      ],
      "name": "getTimestampbyQueryIdandIndex",
      "outputs": [
        {
          "internalType": "uint256",
          "name": "",
          "type": "uint256"
        }
      ],
      "stateMutability": "view",
      "type": "function"
    },
    {
      "inputs": [
        {
          "internalType": "bytes32",
          "name": "",
          "type": "bytes32"
        },
        {
          "internalType": "uint256",
          "name": "",
          "type": "uint256"
        }
      ],
      "name": "isDisputed",
      "outputs": [
        {
          "internalType": "bool",
          "name": "",
          "type": "bool"
        }
      ],
      "stateMutability": "view",
      "type": "function"
    },
    {
      "inputs": [
        {
          "internalType": "bytes32",
          "name": "_queryId",
          "type": "bytes32"
        },
        {
          "internalType": "uint256",
          "name": "_timestamp",
          "type": "uint256"
        }
      ],
      "name": "isInDispute",
      "outputs": [
        {
          "internalType": "bool",
          "name": "",
          "type": "bool"
        }
      ],
      "stateMutability": "view",
      "type": "function"
    },
    {
      "inputs": [
        {
          "internalType": "bytes32",
          "name": "",
          "type": "bytes32"
        },
        {
          "internalType": "uint256",
          "name": "",
          "type": "uint256"
        }
      ],
      "name": "reporterByTimestamp",
      "outputs": [
        {
          "internalType": "address",
          "name": "",
          "type": "address"
        }
      ],
      "stateMutability": "view",
      "type": "function"
    },
    {
      "inputs": [
        {
          "internalType": "bytes32",
          "name": "_queryId",
          "type": "bytes32"
        },
        {
          "internalType": "uint256",
          "name": "_timestamp",
          "type": "uint256"
        }
      ],
      "name": "retrieveData",
      "outputs": [
        {
          "internalType": "bytes",
          "name": "",
          "type": "bytes"
        }
      ],
      "stateMutability": "view",
      "type": "function"
    },
    {
      "inputs": [
        {
          "internalType": "bytes32",
          "name": "",
          "type": "bytes32"
        },
        {
          "internalType": "uint256",
          "name": "",
          "type": "uint256"
        }
      ],
      "name": "timestamps",
      "outputs": [
        {
          "internalType": "uint256",
          "name": "",
          "type": "uint256"
        }
      ],
      "stateMutability": "view",
      "type": "function"
    },
    {
      "inputs": [],
      "name": "token",
      "outputs": [
        {
          "internalType": "contract IERC20",
          "name": "",
          "type": "address"
        }
      ],
      "stateMutability": "view",
      "type": "function"
    },
    {
      "inputs": [],
      "name": "tokenBridge",
      "outputs": [
        {
          "internalType": "address",
          "name": "",
          "type": "address"
        }
      ],
      "stateMutability": "view",
      "type": "function"
    },
    {
      "inputs": [],
      "name": "transferToTokenBridge",
      "outputs": [],
      "stateMutability": "nonpayable",
      "type": "function"
    },
    {
      "inputs": [
        {
          "internalType": "bytes32",
          "name": "",
          "type": "bytes32"
        },
        {
          "internalType": "uint256",
          "name": "",
          "type": "uint256"
        }
      ],
      "name": "values",
      "outputs": [
        {
          "internalType": "bytes",
          "name": "",
          "type": "bytes"
        }
      ],
      "stateMutability": "view",
      "type": "function"
    },
    {
      "inputs": [
        {
          "internalType": "uint256",
          "name": "_blockHeight",
          "type": "uint256"
        },
        {
          "components": [
            {
              "internalType": "string",
              "name": "clientID",
              "type": "string"
            },
            {
              "internalType": "uint64",
              "name": "oracleScriptID",
              "type": "uint64"
            },
            {
              "internalType": "bytes",
              "name": "params",
              "type": "bytes"
            },
            {
              "internalType": "uint64",
              "name": "askCount",
              "type": "uint64"
            },
            {
              "internalType": "uint64",
              "name": "minCount",
              "type": "uint64"
            },
            {
              "internalType": "uint64",
              "name": "requestID",
              "type": "uint64"
            },
            {
              "internalType": "uint64",
              "name": "ansCount",
              "type": "uint64"
            },
            {
              "internalType": "uint64",
              "name": "requestTime",
              "type": "uint64"
            },
            {
              "internalType": "uint64",
              "name": "resolveTime",
              "type": "uint64"
            },
            {
              "internalType": "enum LayerLightClientBridge.ResolveStatus",
              "name": "resolveStatus",
              "type": "uint8"
            },
            {
              "internalType": "bytes",
              "name": "result",
              "type": "bytes"
            }
          ],
          "internalType": "struct LayerLightClientBridge.Report",
          "name": "_report",
          "type": "tuple"
        },
        {
          "internalType": "uint256",
          "name": "_oracleHeight",
          "type": "uint256"
        },
        {
          "components": [
            {
              "internalType": "bool",
              "name": "isDataOnRight",
              "type": "bool"
            },
            {
              "internalType": "uint8",
              "name": "subtreeHeight",
              "type": "uint8"
            },
            {
              "internalType": "uint256",
              "name": "subtreeSize",
              "type": "uint256"
            },
            {
              "internalType": "uint256",
              "name": "subtreeVersion",
              "type": "uint256"
            },
            {
              "internalType": "bytes32",
              "name": "siblingHash",
              "type": "bytes32"
            }
          ],
          "internalType": "struct LayerLightClientBridge.IAVLMerklePath[]",
          "name": "_merklePaths",
          "type": "tuple[]"
        }
      ],
      "name": "verifyAndStore",
      "outputs": [],
      "stateMutability": "nonpayable",
      "type": "function"
    }
  ],
  "bytecode": "0x60806040523480156200001157600080fd5b50604051620016f2380380620016f2833981810160405281019062000037919062000119565b826000806101000a81548173ffffffffffffffffffffffffffffffffffffffff021916908373ffffffffffffffffffffffffffffffffffffffff16021790555081600160006101000a81548173ffffffffffffffffffffffffffffffffffffffff021916908373ffffffffffffffffffffffffffffffffffffffff16021790555080600260006101000a81548173ffffffffffffffffffffffffffffffffffffffff021916908373ffffffffffffffffffffffffffffffffffffffff160217905550505050620001bd565b6000815190506200011381620001a3565b92915050565b6000806000606084860312156200012f57600080fd5b60006200013f8682870162000102565b9350506020620001528682870162000102565b9250506040620001658682870162000102565b9150509250925092565b60006200017c8262000183565b9050919050565b600073ffffffffffffffffffffffffffffffffffffffff82169050919050565b620001ae816200016f565b8114620001ba57600080fd5b50565b61152580620001cd6000396000f3fe608060405234801561001057600080fd5b506004361061010b5760003560e01c8063a792765f116100a2578063ce5e11bf11610071578063ce5e11bf146102f5578063d9c51cd414610325578063e07c548614610341578063f25133f314610371578063fc0c546a146103a15761010b565b8063a792765f14610259578063b64ed20f1461028b578063c5958af9146102a7578063c6328a46146102d75761010b565b80634947ec84116100de5780634947ec84146101d1578063578855b2146101db57806364473df2146101f957806377b03e0d146102295761010b565b8063091b50ff14610110578063217053c014610140578063294490851461017057806344e87f91146101a1575b600080fd5b61012a60048036038101906101259190610f40565b6103bf565b60405161013791906111d8565b60405180910390f35b61015a60048036038101906101559190610f40565b61046c565b60405161016791906110db565b60405180910390f35b61018a60048036038101906101859190610f40565b6104ae565b6040516101989291906111af565b60405180910390f35b6101bb60048036038101906101b69190610f40565b6107ae565b6040516101c89190611156565b60405180910390f35b6101d96107ea565b005b6101e36109e4565b6040516101f091906110db565b60405180910390f35b610213600480360381019061020e9190610f40565b610a0a565b6040516102209190611156565b60405180910390f35b610243600480360381019061023e9190610f17565b610a39565b6040516102509190611215565b60405180910390f35b610273600480360381019061026e9190610f40565b610a59565b60405161028293929190611171565b60405180910390f35b6102a560048036038101906102a09190610fce565b610b5f565b005b6102c160048036038101906102bc9190610f40565b610b66565b6040516102ce91906111d8565b60405180910390f35b6102df610c1d565b6040516102ec91906110db565b60405180910390f35b61030f600480360381019061030a9190610f40565b610c43565b60405161031c9190611215565b60405180910390f35b61033f600480360381019061033a9190610f7c565b610cdd565b005b61035b60048036038101906103569190610f40565b610d90565b60405161036891906110db565b60405180910390f35b61038b60048036038101906103869190610f40565b610ddf565b6040516103989190611215565b60405180910390f35b6103a9610e10565b6040516103b691906111fa565b60405180910390f35b60066020528160005260406000206020528060005260406000206000915091505080546103eb906113da565b80601f0160208091040260200160405190810160405280929190818152602001828054610417906113da565b80156104645780601f1061043957610100808354040283529160200191610464565b820191906000526020600020905b81548152906001019060200180831161044757829003601f168201915b505050505081565b60046020528160005260406000206020528060005260406000206000915091509054906101000a900473ffffffffffffffffffffffffffffffffffffffff1681565b60008060006104bc85610a39565b9050600081111561079e576000806000905060006001846104dd91906112d3565b905060006104eb8984610c43565b9050878110610505576000809650965050505050506107a7565b61050f8983610c43565b905087811015610591575b61052489826107ae565b80156105305750600082115b15610554578180610540906113b0565b92505061054d8983610c43565b905061051a565b60008214801561056a575061056989826107ae565b5b15610580576000809650965050505050506107a7565b6001829650965050505050506107a7565b5b60011561079957826001600285856105aa91906112d3565b6105b491906112a2565b6105be919061124c565b6105c8919061124c565b93506105d48985610c43565b9050878110156106ae5760006105f68a6001876105f1919061124c565b610c43565b9050888110610699576106098a836107ae565b61061f57600185975097505050505050506107a7565b5b61062a8a836107ae565b80156106365750600085115b1561065a578480610646906113b0565b9550506106538a86610c43565b9150610620565b600085148015610670575061066f8a836107ae565b5b1561068757600080975097505050505050506107a7565b600185975097505050505050506107a7565b6001856106a6919061124c565b935050610794565b60006106c68a6001876106c191906112d3565b610c43565b905088811015610783576106da8a826107ae565b6106fb57600180866106ec91906112d3565b975097505050505050506107a7565b8480610706906113b0565b9550505b6107148a826107ae565b80156107205750600085115b15610744578480610730906113b0565b95505061073d8a86610c43565b905061070a565b60008514801561075a57506107598a826107ae565b5b1561077157600080975097505050505050506107a7565b600185975097505050505050506107a7565b60018561079091906112d3565b9250505b610592565b505050505b60008092509250505b9250929050565b600060036000848152602001908152602001600020600083815260200190815260200160002060009054906101000a900460ff16905092915050565b60008054906101000a900473ffffffffffffffffffffffffffffffffffffffff1673ffffffffffffffffffffffffffffffffffffffff1663b67f8cbd6040518163ffffffff1660e01b8152600401600060405180830381600087803b15801561085257600080fd5b505af1158015610866573d6000803e3d6000fd5b5050505060008054906101000a900473ffffffffffffffffffffffffffffffffffffffff1673ffffffffffffffffffffffffffffffffffffffff1663a9059cbb600160009054906101000a900473ffffffffffffffffffffffffffffffffffffffff1660008054906101000a900473ffffffffffffffffffffffffffffffffffffffff1673ffffffffffffffffffffffffffffffffffffffff166370a08231306040518263ffffffff1660e01b815260040161092291906110db565b60206040518083038186803b15801561093a57600080fd5b505afa15801561094e573d6000803e3d6000fd5b505050506040513d601f19601f820116820180604052508101906109729190610fa5565b6040518363ffffffff1660e01b815260040161098f92919061112d565b602060405180830381600087803b1580156109a957600080fd5b505af11580156109bd573d6000803e3d6000fd5b505050506040513d601f19601f820116820180604052508101906109e19190610eee565b50565b600260009054906101000a900473ffffffffffffffffffffffffffffffffffffffff1681565b60036020528160005260406000206020528060005260406000206000915091509054906101000a900460ff1681565b600060056000838152602001908152602001600020805490509050919050565b600060606000806000610a6c87876104ae565b9150915081610a965760006040518060200160405280600081525060009450945094505050610b58565b610aa08782610c43565b92506006600088815260200190815260200160002060008481526020019081526020016000208054610ad1906113da565b80601f0160208091040260200160405190810160405280929190818152602001828054610afd906113da565b8015610b4a5780601f10610b1f57610100808354040283529160200191610b4a565b820191906000526020600020905b815481529060010190602001808311610b2d57829003601f168201915b505050505093506001945050505b9250925092565b5050505050565b60606006600084815260200190815260200160002060008381526020019081526020016000208054610b97906113da565b80601f0160208091040260200160405190810160405280929190818152602001828054610bc3906113da565b8015610c105780601f10610be557610100808354040283529160200191610c10565b820191906000526020600020905b815481529060010190602001808311610bf357829003601f168201915b5050505050905092915050565b600160009054906101000a900473ffffffffffffffffffffffffffffffffffffffff1681565b600080600560008581526020019081526020016000208054905090506000811480610c6e5750828111155b15610c7d576000915050610cd7565b600560008581526020019081526020016000208381548110610cc8577f4e487b7100000000000000000000000000000000000000000000000000000000600052603260045260246000fd5b90600052602060002001549150505b92915050565b60008054906101000a900473ffffffffffffffffffffffffffffffffffffffff1673ffffffffffffffffffffffffffffffffffffffff166323b872dd3330846040518463ffffffff1660e01b8152600401610d3a939291906110f6565b602060405180830381600087803b158015610d5457600080fd5b505af1158015610d68573d6000803e3d6000fd5b505050506040513d601f19601f82011682018060405250810190610d8c9190610eee565b5050565b600060046000848152602001908152602001600020600083815260200190815260200160002060009054906101000a900473ffffffffffffffffffffffffffffffffffffffff16905092915050565b60056020528160005260406000208181548110610dfb57600080fd5b90600052602060002001600091509150505481565b60008054906101000a900473ffffffffffffffffffffffffffffffffffffffff1681565b60008083601f840112610e4657600080fd5b8235905067ffffffffffffffff811115610e5f57600080fd5b6020830191508360a0820283011115610e7757600080fd5b9250929050565b600081519050610e8d816114aa565b92915050565b600081359050610ea2816114c1565b92915050565b60006101608284031215610ebb57600080fd5b81905092915050565b600081359050610ed3816114d8565b92915050565b600081519050610ee8816114d8565b92915050565b600060208284031215610f0057600080fd5b6000610f0e84828501610e7e565b91505092915050565b600060208284031215610f2957600080fd5b6000610f3784828501610e93565b91505092915050565b60008060408385031215610f5357600080fd5b6000610f6185828601610e93565b9250506020610f7285828601610ec4565b9150509250929050565b600060208284031215610f8e57600080fd5b6000610f9c84828501610ec4565b91505092915050565b600060208284031215610fb757600080fd5b6000610fc584828501610ed9565b91505092915050565b600080600080600060808688031215610fe657600080fd5b6000610ff488828901610ec4565b955050602086013567ffffffffffffffff81111561101157600080fd5b61101d88828901610ea8565b945050604061102e88828901610ec4565b935050606086013567ffffffffffffffff81111561104b57600080fd5b61105788828901610e34565b92509250509295509295909350565b61106f81611307565b82525050565b61107e81611319565b82525050565b600061108f82611230565b611099818561123b565b93506110a981856020860161137d565b6110b281611499565b840191505092915050565b6110c681611359565b82525050565b6110d58161134f565b82525050565b60006020820190506110f06000830184611066565b92915050565b600060608201905061110b6000830186611066565b6111186020830185611066565b61112560408301846110cc565b949350505050565b60006040820190506111426000830185611066565b61114f60208301846110cc565b9392505050565b600060208201905061116b6000830184611075565b92915050565b60006060820190506111866000830186611075565b81810360208301526111988185611084565b90506111a760408301846110cc565b949350505050565b60006040820190506111c46000830185611075565b6111d160208301846110cc565b9392505050565b600060208201905081810360008301526111f28184611084565b905092915050565b600060208201905061120f60008301846110bd565b92915050565b600060208201905061122a60008301846110cc565b92915050565b600081519050919050565b600082825260208201905092915050565b60006112578261134f565b91506112628361134f565b9250827fffffffffffffffffffffffffffffffffffffffffffffffffffffffffffffffff038211156112975761129661140c565b5b828201905092915050565b60006112ad8261134f565b91506112b88361134f565b9250826112c8576112c761143b565b5b828204905092915050565b60006112de8261134f565b91506112e98361134f565b9250828210156112fc576112fb61140c565b5b828203905092915050565b60006113128261132f565b9050919050565b60008115159050919050565b6000819050919050565b600073ffffffffffffffffffffffffffffffffffffffff82169050919050565b6000819050919050565b60006113648261136b565b9050919050565b60006113768261132f565b9050919050565b60005b8381101561139b578082015181840152602081019050611380565b838111156113aa576000848401525b50505050565b60006113bb8261134f565b915060008214156113cf576113ce61140c565b5b600182039050919050565b600060028204905060018216806113f257607f821691505b602082108114156114065761140561146a565b5b50919050565b7f4e487b7100000000000000000000000000000000000000000000000000000000600052601160045260246000fd5b7f4e487b7100000000000000000000000000000000000000000000000000000000600052601260045260246000fd5b7f4e487b7100000000000000000000000000000000000000000000000000000000600052602260045260246000fd5b6000601f19601f8301169050919050565b6114b381611319565b81146114be57600080fd5b50565b6114ca81611325565b81146114d557600080fd5b50565b6114e18161134f565b81146114ec57600080fd5b5056fea264697066735822122008b5a27afcc9bdd4e2e98913fc12a4dc44589b9248109d56e3366a9770f6548c64736f6c63430008030033",
  "linkReferences": {},
  "deployedLinkReferences": {}
}