{
  "_format": "hh-sol-artifact-1",
  "contractName": "TellorLayerTransition",
  "sourceName": "contracts/transition/TellorLayerTransition.sol",
  "abi": [
    {
      "inputs": [
        {
          "internalType": "address",
          "name": "_token",
          "type": "address"
        },
        {
          "internalType": "address",
          "name": "_tokenBridge",
          "type": "address"
        },
        {
          "internalType": "address",
          "name": "_dataBridge",
          "type": "address"
        },
        {
          "internalType": "address",
          "name": "_tellorFlex",
          "type": "address"
        }
      ],
      "stateMutability": "nonpayable",
      "type": "constructor"
    },
    {
      "inputs": [
        {
          "internalType": "uint256",
          "name": "_amount",
          "type": "uint256"
        }
      ],
      "name": "addStakingRewards",
      "outputs": [],
      "stateMutability": "nonpayable",
      "type": "function"
    },
    {
      "inputs": [],
      "name": "dataBridge",
      "outputs": [
        {
          "internalType": "address",
          "name": "",
          "type": "address"
        }
      ],
      "stateMutability": "view",
      "type": "function"
    },
    {
      "inputs": [
        {
          "internalType": "bytes32",
          "name": "_queryId",
          "type": "bytes32"
        },
        {
          "internalType": "uint256",
          "name": "_timestamp",
          "type": "uint256"
        }
      ],
      "name": "getDataBefore",
      "outputs": [
        {
          "internalType": "bool",
          "name": "_ifRetrieve",
          "type": "bool"
        },
        {
          "internalType": "bytes",
          "name": "_value",
          "type": "bytes"
        },
        {
          "internalType": "uint256",
          "name": "_timestampRetrieved",
          "type": "uint256"
        }
      ],
      "stateMutability": "view",
      "type": "function"
    },
    {
      "inputs": [
        {
          "internalType": "bytes32",
          "name": "_queryId",
          "type": "bytes32"
        },
        {
          "internalType": "uint256",
          "name": "_timestamp",
          "type": "uint256"
        }
      ],
      "name": "getIndexForDataBefore",
      "outputs": [
        {
          "internalType": "bool",
          "name": "_found",
          "type": "bool"
        },
        {
          "internalType": "uint256",
          "name": "_index",
          "type": "uint256"
        }
      ],
      "stateMutability": "view",
      "type": "function"
    },
    {
      "inputs": [
        {
          "internalType": "bytes32",
          "name": "_queryId",
          "type": "bytes32"
        }
      ],
      "name": "getNewValueCountbyQueryId",
      "outputs": [
        {
          "internalType": "uint256",
          "name": "",
          "type": "uint256"
        }
      ],
      "stateMutability": "view",
      "type": "function"
    },
    {
      "inputs": [
        {
          "internalType": "bytes32",
          "name": "_queryId",
          "type": "bytes32"
        },
        {
          "internalType": "uint256",
          "name": "_timestamp",
          "type": "uint256"
        }
      ],
      "name": "getReporterByTimestamp",
      "outputs": [
        {
          "internalType": "address",
          "name": "",
          "type": "address"
        }
      ],
      "stateMutability": "view",
      "type": "function"
    },
    {
      "inputs": [],
      "name": "getTimeOfLastNewValue",
      "outputs": [
        {
          "internalType": "uint256",
          "name": "",
          "type": "uint256"
        }
      ],
      "stateMutability": "view",
      "type": "function"
    },
    {
      "inputs": [
        {
          "internalType": "bytes32",
          "name": "_queryId",
          "type": "bytes32"
        },
        {
          "internalType": "uint256",
          "name": "_index",
          "type": "uint256"
        }
      ],
      "name": "getTimestampbyQueryIdandIndex",
      "outputs": [
        {
          "internalType": "uint256",
          "name": "",
          "type": "uint256"
        }
      ],
      "stateMutability": "view",
      "type": "function"
    },
    {
      "inputs": [
        {
          "internalType": "bytes32",
          "name": "_queryId",
          "type": "bytes32"
        },
        {
          "internalType": "uint256",
          "name": "_timestamp",
          "type": "uint256"
        }
      ],
      "name": "isInDispute",
      "outputs": [
        {
          "internalType": "bool",
          "name": "",
          "type": "bool"
        }
      ],
      "stateMutability": "view",
      "type": "function"
    },
    {
      "inputs": [],
      "name": "tellorFlex",
      "outputs": [
        {
          "internalType": "contract ITellorFlex",
          "name": "",
          "type": "address"
        }
      ],
      "stateMutability": "view",
      "type": "function"
    },
    {
      "inputs": [],
      "name": "token",
      "outputs": [
        {
          "internalType": "contract IERC20",
          "name": "",
          "type": "address"
        }
      ],
      "stateMutability": "view",
      "type": "function"
    },
    {
      "inputs": [],
      "name": "tokenBridge",
      "outputs": [
        {
          "internalType": "address",
          "name": "",
          "type": "address"
        }
      ],
      "stateMutability": "view",
      "type": "function"
    },
    {
      "inputs": [],
      "name": "transferToTokenBridge",
      "outputs": [],
      "stateMutability": "nonpayable",
      "type": "function"
    },
    {
      "inputs": [],
      "name": "verify",
      "outputs": [
        {
          "internalType": "uint256",
          "name": "",
          "type": "uint256"
        }
      ],
      "stateMutability": "pure",
      "type": "function"
    }
  ],
  "bytecode": "0x608060405234801561001057600080fd5b50604051610b44380380610b4483398101604081905261002f9161009e565b600080546001600160a01b039586166001600160a01b03199182161790915560018054948616948216949094179093556002805492851692841692909217909155600380549190931691161790556100f1565b80516001600160a01b038116811461009957600080fd5b919050565b600080600080608085870312156100b3578384fd5b6100bc85610082565b93506100ca60208601610082565b92506100d860408601610082565b91506100e660608601610082565b905092959194509250565b610a44806101006000396000f3fe608060405234801561001057600080fd5b50600436106100ea5760003560e01c8063c6328a461161008c578063e07c548611610066578063e07c5486146101fa578063e513730b1461020d578063fc0c546a14610220578063fc735e9914610233576100ea565b8063c6328a46146101c1578063ce5e11bf146101d4578063d9c51cd4146101e7576100ea565b8063578855b2116100c8578063578855b21461014b57806377b03e0d14610176578063a792765f14610197578063c0f95d52146101b9576100ea565b806329449085146100ef57806344e87f911461011e5780634947ec8414610141575b600080fd5b6101026100fd36600461094b565b61023b565b6040805192151583526020830191909152015b60405180910390f35b61013161012c36600461094b565b6102cd565b6040519015158152602001610115565b610149610358565b005b60025461015e906001600160a01b031681565b6040516001600160a01b039091168152602001610115565b610189610184366004610933565b6104bb565b604051908152602001610115565b6101aa6101a536600461094b565b610540565b60405161011593929190610984565b6101896105da565b60015461015e906001600160a01b031681565b6101896101e236600461094b565b61065c565b6101496101f5366004610933565b6106e0565b61015e61020836600461094b565b61076e565b60035461015e906001600160a01b031681565b60005461015e906001600160a01b031681565b61270f610189565b600354604051632944908560e01b8152600481018490526024810183905260009182916001600160a01b0390911690632944908590604401604080518083038186803b15801561028a57600080fd5b505afa15801561029e573d6000803e3d6000fd5b505050506040513d601f19601f820116820180604052508101906102c29190610908565b915091509250929050565b6003546040516344e87f9160e01b815260048101849052602481018390526000916001600160a01b0316906344e87f919060440160206040518083038186803b15801561031957600080fd5b505afa15801561032d573d6000803e3d6000fd5b505050506040513d601f19601f820116820180604052508101906103519190610829565b9392505050565b600080546040805163b67f8cbd60e01b815290516001600160a01b039092169263b67f8cbd9260048084019382900301818387803b15801561039957600080fd5b505af11580156103ad573d6000803e3d6000fd5b50506000546001546040516370a0823160e01b81523060048201526001600160a01b03928316945063a9059cbb935091169083906370a082319060240160206040518083038186803b15801561040257600080fd5b505afa158015610416573d6000803e3d6000fd5b505050506040513d601f19601f8201168201806040525081019061043a919061096c565b6040516001600160e01b031960e085901b1681526001600160a01b0390921660048301526024820152604401602060405180830381600087803b15801561048057600080fd5b505af1158015610494573d6000803e3d6000fd5b505050506040513d601f19601f820116820180604052508101906104b89190610829565b50565b6003546040516377b03e0d60e01b8152600481018390526000916001600160a01b0316906377b03e0d9060240160206040518083038186803b15801561050057600080fd5b505afa158015610514573d6000803e3d6000fd5b505050506040513d601f19601f82011682018060405250810190610538919061096c565b90505b919050565b60035460405163a792765f60e01b8152600481018490526024810183905260009160609183916001600160a01b03169063a792765f9060440160006040518083038186803b15801561059157600080fd5b505afa1580156105a5573d6000803e3d6000fd5b505050506040513d6000823e601f3d908101601f191682016040526105cd9190810190610843565b9250925092509250925092565b6003546040805163607caea960e11b815290516000926001600160a01b03169163c0f95d52916004808301926020929190829003018186803b15801561061f57600080fd5b505afa158015610633573d6000803e3d6000fd5b505050506040513d601f19601f82011682018060405250810190610657919061096c565b905090565b60035460405163ce5e11bf60e01b815260048101849052602481018390526000916001600160a01b03169063ce5e11bf9060440160206040518083038186803b1580156106a857600080fd5b505afa1580156106bc573d6000803e3d6000fd5b505050506040513d601f19601f82011682018060405250810190610351919061096c565b6000546040516323b872dd60e01b8152336004820152306024820152604481018390526001600160a01b03909116906323b872dd90606401602060405180830381600087803b15801561073257600080fd5b505af1158015610746573d6000803e3d6000fd5b505050506040513d601f19601f8201168201806040525081019061076a9190610829565b5050565b60035460405163703e2a4360e11b815260048101849052602481018390526000916001600160a01b03169063e07c54869060440160206040518083038186803b1580156107ba57600080fd5b505afa1580156107ce573d6000803e3d6000fd5b505050506040513d601f19601f820116820180604052508101906103519190610802565b8051801515811461053b57600080fd5b600060208284031215610813578081fd5b81516001600160a01b0381168114610351578182fd5b60006020828403121561083a578081fd5b610351826107f2565b600080600060608486031215610857578182fd5b610860846107f2565b9250602084015167ffffffffffffffff8082111561087c578384fd5b818601915086601f83011261088f578384fd5b8151818111156108a1576108a16109f8565b604051601f8201601f19908116603f011681019083821181831017156108c9576108c96109f8565b816040528281528960208487010111156108e1578687fd5b6108f28360208301602088016109c8565b8096505050505050604084015190509250925092565b6000806040838503121561091a578182fd5b610923836107f2565b9150602083015190509250929050565b600060208284031215610944578081fd5b5035919050565b6000806040838503121561095d578182fd5b50508035926020909101359150565b60006020828403121561097d578081fd5b5051919050565b600084151582526060602083015283518060608401526109ab8160808501602088016109c8565b604083019390935250601f91909101601f19160160800192915050565b60005b838110156109e35781810151838201526020016109cb565b838111156109f2576000848401525b50505050565b634e487b7160e01b600052604160045260246000fdfea264697066735822122067bad7008e365fd28efa62106a91a618e163eb3dd53a89c38f0174084386a71e64736f6c63430008030033",
  "linkReferences": {},
  "deployedLinkReferences": {}
}