{
  "_format": "hh-sol-artifact-1",
  "contractName": "Transition",
  "sourceName": "contracts/tellor360/oldContracts/contracts/Transition.sol",
  "abi": [
    {
      "inputs": [
        {
          "internalType": "address",
          "name": "_governance",
          "type": "address"
        },
        {
          "internalType": "address",
          "name": "_oracle",
          "type": "address"
        },
        {
          "internalType": "address",
          "name": "_treasury",
          "type": "address"
        }
      ],
      "stateMutability": "nonpayable",
      "type": "constructor"
    },
    {
      "stateMutability": "nonpayable",
      "type": "fallback"
    },
    {
      "inputs": [
        {
          "internalType": "address",
          "name": "",
          "type": "address"
        },
        {
          "internalType": "address",
          "name": "",
          "type": "address"
        }
      ],
      "name": "_allowances",
      "outputs": [
        {
          "internalType": "uint256",
          "name": "",
          "type": "uint256"
        }
      ],
      "stateMutability": "view",
      "type": "function"
    },
    {
      "inputs": [
        {
          "internalType": "bytes",
          "name": "_b",
          "type": "bytes"
        }
      ],
      "name": "_sliceUint",
      "outputs": [
        {
          "internalType": "uint256",
          "name": "_x",
          "type": "uint256"
        }
      ],
      "stateMutability": "pure",
      "type": "function"
    },
    {
      "inputs": [
        {
          "internalType": "bytes32",
          "name": "",
          "type": "bytes32"
        }
      ],
      "name": "addresses",
      "outputs": [
        {
          "internalType": "address",
          "name": "",
          "type": "address"
        }
      ],
      "stateMutability": "view",
      "type": "function"
    },
    {
      "inputs": [
        {
          "internalType": "address",
          "name": "",
          "type": "address"
        },
        {
          "internalType": "uint256",
          "name": "",
          "type": "uint256"
        }
      ],
      "name": "balances",
      "outputs": [
        {
          "internalType": "uint128",
          "name": "fromBlock",
          "type": "uint128"
        },
        {
          "internalType": "uint128",
          "name": "value",
          "type": "uint128"
        }
      ],
      "stateMutability": "view",
      "type": "function"
    },
    {
      "inputs": [
        {
          "internalType": "bytes32",
          "name": "",
          "type": "bytes32"
        }
      ],
      "name": "bytesVars",
      "outputs": [
        {
          "internalType": "bytes32",
          "name": "",
          "type": "bytes32"
        }
      ],
      "stateMutability": "view",
      "type": "function"
    },
    {
      "inputs": [
        {
          "internalType": "uint256",
          "name": "",
          "type": "uint256"
        }
      ],
      "name": "currentMiners",
      "outputs": [
        {
          "internalType": "uint256",
          "name": "value",
          "type": "uint256"
        },
        {
          "internalType": "address",
          "name": "miner",
          "type": "address"
        }
      ],
      "stateMutability": "view",
      "type": "function"
    },
    {
      "inputs": [],
      "name": "decimals",
      "outputs": [
        {
          "internalType": "uint8",
          "name": "",
          "type": "uint8"
        }
      ],
      "stateMutability": "pure",
      "type": "function"
    },
    {
      "inputs": [
        {
          "internalType": "bytes32",
          "name": "",
          "type": "bytes32"
        }
      ],
      "name": "disputeIdByDisputeHash",
      "outputs": [
        {
          "internalType": "uint256",
          "name": "",
          "type": "uint256"
        }
      ],
      "stateMutability": "view",
      "type": "function"
    },
    {
      "inputs": [
        {
          "internalType": "uint256",
          "name": "",
          "type": "uint256"
        }
      ],
      "name": "disputesById",
      "outputs": [
        {
          "internalType": "bytes32",
          "name": "hash",
          "type": "bytes32"
        },
        {
          "internalType": "int256",
          "name": "tally",
          "type": "int256"
        },
        {
          "internalType": "bool",
          "name": "executed",
          "type": "bool"
        },
        {
          "internalType": "bool",
          "name": "disputeVotePassed",
          "type": "bool"
        },
        {
          "internalType": "bool",
          "name": "isPropFork",
          "type": "bool"
        },
        {
          "internalType": "address",
          "name": "reportedMiner",
          "type": "address"
        },
        {
          "internalType": "address",
          "name": "reportingParty",
          "type": "address"
        },
        {
          "internalType": "address",
          "name": "proposedForkAddress",
          "type": "address"
        }
      ],
      "stateMutability": "view",
      "type": "function"
    },
    {
      "inputs": [
        {
          "internalType": "bytes32",
          "name": "_data",
          "type": "bytes32"
        }
      ],
      "name": "getAddressVars",
      "outputs": [
        {
          "internalType": "address",
          "name": "",
          "type": "address"
        }
      ],
      "stateMutability": "view",
      "type": "function"
    },
    {
      "inputs": [
        {
          "internalType": "uint256",
          "name": "_disputeId",
          "type": "uint256"
        }
      ],
      "name": "getAllDisputeVars",
      "outputs": [
        {
          "internalType": "bytes32",
          "name": "",
          "type": "bytes32"
        },
        {
          "internalType": "bool",
          "name": "",
          "type": "bool"
        },
        {
          "internalType": "bool",
          "name": "",
          "type": "bool"
        },
        {
          "internalType": "bool",
          "name": "",
          "type": "bool"
        },
        {
          "internalType": "address",
          "name": "",
          "type": "address"
        },
        {
          "internalType": "address",
          "name": "",
          "type": "address"
        },
        {
          "internalType": "address",
          "name": "",
          "type": "address"
        },
        {
          "internalType": "uint256[9]",
          "name": "",
          "type": "uint256[9]"
        },
        {
          "internalType": "int256",
          "name": "",
          "type": "int256"
        }
      ],
      "stateMutability": "view",
      "type": "function"
    },
    {
      "inputs": [
        {
          "internalType": "bytes32",
          "name": "_hash",
          "type": "bytes32"
        }
      ],
      "name": "getDisputeIdByDisputeHash",
      "outputs": [
        {
          "internalType": "uint256",
          "name": "",
          "type": "uint256"
        }
      ],
      "stateMutability": "view",
      "type": "function"
    },
    {
      "inputs": [
        {
          "internalType": "uint256",
          "name": "_disputeId",
          "type": "uint256"
        },
        {
          "internalType": "bytes32",
          "name": "_data",
          "type": "bytes32"
        }
      ],
      "name": "getDisputeUintVars",
      "outputs": [
        {
          "internalType": "uint256",
          "name": "",
          "type": "uint256"
        }
      ],
      "stateMutability": "view",
      "type": "function"
    },
    {
      "inputs": [
        {
          "internalType": "uint256",
          "name": "_requestId",
          "type": "uint256"
        }
      ],
      "name": "getLastNewValueById",
      "outputs": [
        {
          "internalType": "uint256",
          "name": "",
          "type": "uint256"
        },
        {
          "internalType": "bool",
          "name": "",
          "type": "bool"
        }
      ],
      "stateMutability": "view",
      "type": "function"
    },
    {
      "inputs": [],
      "name": "getNewCurrentVariables",
      "outputs": [
        {
          "internalType": "bytes32",
          "name": "_c",
          "type": "bytes32"
        },
        {
          "internalType": "uint256[5]",
          "name": "_r",
          "type": "uint256[5]"
        },
        {
          "internalType": "uint256",
          "name": "_diff",
          "type": "uint256"
        },
        {
          "internalType": "uint256",
          "name": "_tip",
          "type": "uint256"
        }
      ],
      "stateMutability": "view",
      "type": "function"
    },
    {
      "inputs": [
        {
          "internalType": "uint256",
          "name": "_requestId",
          "type": "uint256"
        }
      ],
      "name": "getNewValueCountbyRequestId",
      "outputs": [
        {
          "internalType": "uint256",
          "name": "",
          "type": "uint256"
        }
      ],
      "stateMutability": "view",
      "type": "function"
    },
    {
      "inputs": [
        {
          "internalType": "uint256",
          "name": "_requestId",
          "type": "uint256"
        },
        {
          "internalType": "uint256",
          "name": "_index",
          "type": "uint256"
        }
      ],
      "name": "getTimestampbyRequestIDandIndex",
      "outputs": [
        {
          "internalType": "uint256",
          "name": "",
          "type": "uint256"
        }
      ],
      "stateMutability": "view",
      "type": "function"
    },
    {
      "inputs": [
        {
          "internalType": "bytes32",
          "name": "_data",
          "type": "bytes32"
        }
      ],
      "name": "getUintVar",
      "outputs": [
        {
          "internalType": "uint256",
          "name": "",
          "type": "uint256"
        }
      ],
      "stateMutability": "view",
      "type": "function"
    },
    {
      "inputs": [],
      "name": "init",
      "outputs": [],
      "stateMutability": "nonpayable",
      "type": "function"
    },
    {
      "inputs": [
        {
          "internalType": "address",
          "name": "_addy",
          "type": "address"
        }
      ],
      "name": "isMigrated",
      "outputs": [
        {
          "internalType": "bool",
          "name": "",
          "type": "bool"
        }
      ],
      "stateMutability": "view",
      "type": "function"
    },
    {
      "inputs": [
        {
          "internalType": "address",
          "name": "",
          "type": "address"
        }
      ],
      "name": "migrated",
      "outputs": [
        {
          "internalType": "bool",
          "name": "",
          "type": "bool"
        }
      ],
      "stateMutability": "view",
      "type": "function"
    },
    {
      "inputs": [
        {
          "internalType": "bytes32",
          "name": "",
          "type": "bytes32"
        },
        {
          "internalType": "address",
          "name": "",
          "type": "address"
        }
      ],
      "name": "minersByChallenge",
      "outputs": [
        {
          "internalType": "bool",
          "name": "",
          "type": "bool"
        }
      ],
      "stateMutability": "view",
      "type": "function"
    },
    {
      "inputs": [],
      "name": "name",
      "outputs": [
        {
          "internalType": "string",
          "name": "",
          "type": "string"
        }
      ],
      "stateMutability": "pure",
      "type": "function"
    },
    {
      "inputs": [
        {
          "internalType": "uint256",
          "name": "",
          "type": "uint256"
        }
      ],
      "name": "newValueTimestamps",
      "outputs": [
        {
          "internalType": "uint256",
          "name": "",
          "type": "uint256"
        }
      ],
      "stateMutability": "view",
      "type": "function"
    },
    {
      "inputs": [
        {
          "internalType": "bytes32",
          "name": "",
          "type": "bytes32"
        }
      ],
      "name": "requestIdByQueryHash",
      "outputs": [
        {
          "internalType": "uint256",
          "name": "",
          "type": "uint256"
        }
      ],
      "stateMutability": "view",
      "type": "function"
    },
    {
      "inputs": [
        {
          "internalType": "uint256",
          "name": "_requestId",
          "type": "uint256"
        },
        {
          "internalType": "uint256",
          "name": "_timestamp",
          "type": "uint256"
        }
      ],
      "name": "retrieveData",
      "outputs": [
        {
          "internalType": "uint256",
          "name": "",
          "type": "uint256"
        }
      ],
      "stateMutability": "view",
      "type": "function"
    },
    {
      "inputs": [],
      "name": "symbol",
      "outputs": [
        {
          "internalType": "string",
          "name": "",
          "type": "string"
        }
      ],
      "stateMutability": "pure",
      "type": "function"
    },
    {
      "inputs": [],
      "name": "totalSupply",
      "outputs": [
        {
          "internalType": "uint256",
          "name": "",
          "type": "uint256"
        }
      ],
      "stateMutability": "view",
      "type": "function"
    },
    {
      "inputs": [
        {
          "internalType": "bytes32",
          "name": "",
          "type": "bytes32"
        }
      ],
      "name": "uints",
      "outputs": [
        {
          "internalType": "uint256",
          "name": "",
          "type": "uint256"
        }
      ],
      "stateMutability": "view",
      "type": "function"
    }
  ],
  "bytecode": "0x60806040523480156200001157600080fd5b5060405162001d9038038062001d90833981016040819052620000349162000175565b6001600160a01b0383166200008f5760405162461bcd60e51b815260206004820152601b60248201527f6d7573742073657420676f7665726e616e636520616464726573730000000000604482015260640160405180910390fd5b60476020527f7d9ee2aaccfe8f70172569ff913448023f3ddb672f2bd893709418983f3ec22d80546001600160a01b039485166001600160a01b0319918216179091557fef4ea54b5b61165ffc2ef656b4303b6e25d2ec33cc6bc62f39864cc7b0cfe7b58054938516938216939093179092557f1436a1a60dca0ebb2be98547e57992a0fa082eb479e7576303cbd384e934f1fa6000527fdff38f4be09d4d5ca93ca85b25c70a2df93aeb79f23032ad60429718dab8fd0d8054919093169116179055620001be565b80516001600160a01b03811681146200017057600080fd5b919050565b6000806000606084860312156200018a578283fd5b620001958462000158565b9250620001a56020850162000158565b9150620001b56040850162000158565b90509250925092565b611bc280620001ce6000396000f3fe608060405234801561001057600080fd5b50600436106101cf5760003560e01c806358421ed21161010457806395d89b41116100a2578063d01f4d9e11610071578063d01f4d9e14610727578063da37994114610747578063db085beb14610767578063e1c7392a14610820576101cf565b806395d89b4114610684578063af0b1327146106a3578063b59e14d4146106cb578063cbf1304d146106eb576101cf565b8063699f200f116100de578063699f200f1461060657806377fbb6631461062f5780637f6fd5d91461064257806393fa491514610671576101cf565b806358421ed21461059a578063612c8f7f146105c657806362dd1d2a146105e6576101cf565b8063340a13721161017157806346eee1c41161014b57806346eee1c41461050657806348b18e54146105195780634ba0a5ee146105575780635700242c1461057a576101cf565b8063340a1372146104c85780634049f198146104db578063438c0aa3146104f3576101cf565b806318160ddd116101ad57806318160ddd146104115780631fd2236414610461578063313ce567146104915780633180f8df146104a0576101cf565b8063024c2ddd1461037457806306fdde03146103b2578063133bee5e146103e6575b732754da26f634e04b26c4decd27b3eb144cf405826000805b6004811015610246576101fc816008611a87565b6000368381811061021d57634e487b7160e01b600052603260045260246000fd5b909101356001600160f81b03191690911c9290921791508061023e81611aed565b9150506101e8565b506001600160e01b03198116638581af1960e01b148061027657506001600160e01b031981166364e93d7f60e11b145b8061029157506001600160e01b03198116632698c58760e11b145b806102ac57506001600160e01b03198116639a01ca1360e01b145b6102fd5760405162461bcd60e51b815260206004820152601a60248201527f66756e6374696f6e2073686f756c6420626520616c6c6f77656400000000000060448201526064015b60405180910390fd5b6000826001600160a01b031660003660405161031a92919061190d565b600060405180830381855af49150503d8060008114610355576040519150601f19603f3d011682016040523d82523d6000602084013e61035a565b606091505b505090503d6000803e80801561036f573d6000f35b3d6000fd5b61039f610382366004611749565b604a60209081526000928352604080842090915290825290205481565b6040519081526020015b60405180910390f35b60408051808201909152600f81526e54656c6c6f7220547269627574657360881b60208201525b6040516103a991906119e3565b6103f96103f43660046117ac565b61082a565b6040516001600160a01b0390911681526020016103a9565b7fe6148e7230ca038d456350e69a91b66968b222bfac9ebfbea6ff0a1fb738016060005260466020527ffffeead1ec15181fd57b4590d95e0c076bccb59e311315e8b38f23c710aa7c3e5461039f565b61047461046f3660046117ac565b610848565b604080519283526001600160a01b039091166020830152016103a9565b604051601281526020016103a9565b6104b36104ae3660046117ac565b610873565b604080519283529015156020830152016103a9565b61039f6104d63660046117e8565b610a5d565b6104e3610ac6565b6040516103a9949392919061191d565b61039f6105013660046117ac565b610bcf565b61039f6105143660046117ac565b610bf0565b6105476105273660046117c4565b603960209081526000928352604080842090915290825290205460ff1681565b60405190151581526020016103a9565b61054761056536600461170a565b604b6020526000908152604090205460ff1681565b61039f6105883660046117ac565b60376020526000908152604090205481565b6105476105a836600461170a565b6001600160a01b03166000908152604b602052604090205460ff1690565b61039f6105d43660046117ac565b60009081526046602052604090205490565b61039f6105f43660046117ac565b60486020526000908152604090205481565b6103f96106143660046117ac565b6047602052600090815260409020546001600160a01b031681565b61039f61063d3660046118ec565b610cb7565b61039f6106503660046118ec565b60009182526036602090815260408084209284526005909201905290205490565b61039f61067f3660046118ec565b610da5565b6040805180820190915260038152622a292160e91b60208201526103d9565b6106b66106b13660046117ac565b610ec9565b6040516103a999989796959493929190611961565b61039f6106d93660046117ac565b60466020526000908152604090205481565b6106fe6106f9366004611781565b6110f4565b604080516fffffffffffffffffffffffffffffffff9384168152929091166020830152016103a9565b61039f6107353660046117ac565b60386020526000908152604090205481565b61039f6107553660046117ac565b60009081526038602052604090205490565b6107d16107753660046117ac565b603660205260009081526040902080546001820154600283015460038401546004909401549293919260ff808316936101008404821693620100008104909216926001600160a01b036301000000909304831692918216911688565b604080519889526020890197909752941515958701959095529115156060860152151560808501526001600160a01b0390811660a085015291821660c08401521660e0820152610100016103a9565b610828611140565b005b6000818152604760205260409020546001600160a01b03165b919050565b603a816005811061085857600080fd5b6002020180546001909101549091506001600160a01b031682565b600080516020611b6d83398151915260009081526047602052600080516020611b4d83398151915254604051631af3921960e11b815260048101849052829182916001600160a01b03909116906335e724329060240160206040518083038186803b1580156108e157600080fd5b505afa1580156108f5573d6000803e3d6000fd5b505050506040513d601f19601f8201168201806040525081019061091991906118d4565b905080156109e857600080516020611b6d8339815191526000526047602052600080516020611b4d833981519152546109dc9085906001600160a01b0316637c37b8b482610968600187611aa6565b6040516001600160e01b031960e085901b1681526004810192909252602482015260440160206040518083038186803b1580156109a457600080fd5b505afa1580156109b8573d6000803e3d6000fd5b505050506040513d601f19601f8201168201806040525081019061067f91906118d4565b60019250925050610a58565b6000848152604560205260409020805415610a4e578054610a419086908390610a1390600190611aa6565b81548110610a3157634e487b7160e01b600052603260045260246000fd5b9060005260206000200154610da5565b6001935093505050610a58565b6000809350935050505b915091565b600080805b8351811015610abf57610a7782610100611a87565b9150838181518110610a9957634e487b7160e01b600052603260045260246000fd5b0160200151610aab9060f81c83611a6f565b915080610ab781611aed565b915050610a62565b5092915050565b6000610ad06116cd565b506040805160a08101825260018082526020808301829052828401829052606083018290526080830191909152600080516020611b6d833981519152600090815260478252600080516020611b4d83398151915254845163607caea960e11b815294519394919384936001600160a01b039092169263c0f95d52926004808301939192829003018186803b158015610b6757600080fd5b505afa158015610b7b573d6000803e3d6000fd5b505050506040513d601f19601f82011682018060405250810190610b9f91906118d4565b604051602001610bb191815260200190565b60405160208183030381529060405280519060200120935090919293565b60338181548110610bdf57600080fd5b600091825260209091200154905081565b600080516020611b6d83398151915260009081526047602052600080516020611b4d83398151915254604051631af3921960e11b81526004810184905282916001600160a01b0316906335e724329060240160206040518083038186803b158015610c5a57600080fd5b505afa158015610c6e573d6000803e3d6000fd5b505050506040513d601f19601f82011682018060405250810190610c9291906118d4565b90508015610ca1579050610843565b5050600081815260456020526040902054610843565b600080516020611b6d83398151915260009081526047602052600080516020611b4d83398151915254604051631f0dee2d60e21b815260048101859052602481018490526001600160a01b0390911690637c37b8b49060440160206040518083038186803b158015610d2857600080fd5b505afa925050508015610d58575060408051601f3d908101601f19168201909252610d55918101906118d4565b60015b610d9c576000838152604560205260409020805483908110610d8a57634e487b7160e01b600052603260045260246000fd5b90600052602060002001549050610d9f565b90505b92915050565b7f6c0e91a96227393eb6e42b88e9a99f7c5ebd588098b549c949baf27ac9509d8f600090815260466020527f9dd7c008ae091f0bb92d79df2a27d29a02d7be98e77be1227c4e243dccabda5854821015610e1c57506000828152604560209081526040808320848452600301909152902054610d9f565b600080516020611b6d8339815191526000526047602052600080516020611b4d83398151915254604051630b2d2b0d60e01b81526004810185905260248101849052610d9c916001600160a01b031690630b2d2b0d9060440160006040518083038186803b158015610e8d57600080fd5b505afa158015610ea1573d6000803e3d6000fd5b505050506040513d6000823e601f3d908101601f191682016040526104d69190810190611861565b6000806000806000806000610edc6116eb565b5050506000958652505060366020908152604080862080546002820154600383015460048401548551610120810187527f9f47a2659c3d32b749ae717d975e7962959890862423c4318cf86e4ec220291f8c5260058601808952878d205482527f2f9328a9c75282bec25bb04befad06926366736e0030c985108445fa728335e58d52808952878d2054828a01527f9147231ab14efb72c38117f68521ddef8de64f092c18c69dbfb602ffc4de7f478d52808952878d2054828901527f46f7d53798d31923f6952572c6a19ad2d1a8238d26649c2f3493a6d69e425d288d52808952878d205460608301527f1da378694063870452ce03b189f48e04c1aa026348e74e6c86e10738514ad2c48d52808952878d205460808301527f4b4cefd5ced7569ef0d091282b4bca9c52a034c56471a6061afd1bf307a2de7c8d52808952878d205460a08301527f6de96ee4d33a0617f40a846309c8759048857f51b9d59a12d3c3786d4778883d8d52808952878d205460c08301527f30e85ae205656781c1a951cba9f9f53f884833c049d377a2a7046eb5e6d14b268d52808952878d205460e08301527f1da95f11543c9b03927178e07951795dfc95c7501a9d1cf00e13414ca33bc4098d52909752949099205461010080870191909152600190930154919960ff8083169a948304811699506201000083041697506001600160a01b036301000000909204821696509281169493169291565b6049602052816000526040600020818154811061111057600080fd5b6000918252602090912001546fffffffffffffffffffffffffffffffff8082169350600160801b90910416905082565b7fefa19baa864049f50491093580c5433e97e8d5e41f8db1a61108b4fa44cacd9360005260476020527f7d9ee2aaccfe8f70172569ff913448023f3ddb672f2bd893709418983f3ec22d546001600160a01b0316156111d25760405162461bcd60e51b815260206004820152600e60248201526d4f6e6c7920676f6f64206f6e636560901b60448201526064016102f4565b68056bc75e2d631000007f167af83a0768d27540775cfef6d996eb63f8a61fcdfb26e654c18fb50960e3be55427f9dd7c008ae091f0bb92d79df2a27d29a02d7be98e77be1227c4e243dccabda5855678ac7230489e800007fa7dd4870ca148afe8854be8aed16d8286a45fa3ccd69baa311c29f333d7c830b557f0f1293c916694ac6af4daa2f866f0448d0c2ce8847074a7896d397c961914a0860005260476020527ffe10c9a395cce5a324df121072934b83aa2f3aa5f594428b2a75cf926b73fae85460405163699f200f60e01b81527fefa19baa864049f50491093580c5433e97e8d5e41f8db1a61108b4fa44cacd9360048201526001600160a01b0390911690819063699f200f9060240160206040518083038186803b1580156112f957600080fd5b505afa15801561130d573d6000803e3d6000fd5b505050506040513d601f19601f82011682018060405250810190611331919061172d565b7fefa19baa864049f50491093580c5433e97e8d5e41f8db1a61108b4fa44cacd9360005260476020527f7d9ee2aaccfe8f70172569ff913448023f3ddb672f2bd893709418983f3ec22d80546001600160a01b0319166001600160a01b0392831617905560405163699f200f60e01b8152600080516020611b6d83398151915260048201529082169063699f200f9060240160206040518083038186803b1580156113db57600080fd5b505afa1580156113ef573d6000803e3d6000fd5b505050506040513d601f19601f82011682018060405250810190611413919061172d565b600080516020611b6d8339815191526000526047602052600080516020611b4d83398151915280546001600160a01b0319166001600160a01b0392831617905560405163699f200f60e01b81527f1436a1a60dca0ebb2be98547e57992a0fa082eb479e7576303cbd384e934f1fa60048201529082169063699f200f9060240160206040518083038186803b1580156114ab57600080fd5b505afa1580156114bf573d6000803e3d6000fd5b505050506040513d601f19601f820116820180604052508101906114e3919061172d565b60476020527fdff38f4be09d4d5ca93ca85b25c70a2df93aeb79f23032ad60429718dab8fd0d80546001600160a01b0319166001600160a01b03928316179055600080516020611b6d833981519152600052600080516020611b4d833981519152546040516340c10f1960e01b815291166004820152691642910dea5ec680000060248201527388df592f8eb5d7bd38bfef7deb0fbc02cf3778a0906340c10f1990604401600060405180830381600087803b1580156115a257600080fd5b505af11580156115b6573d6000803e3d6000fd5b50506040516340c10f1960e01b815273aa304e98f47d4a6a421f3b1cc12581511dd69c556004820152691642910dea5ec680000060248201527388df592f8eb5d7bd38bfef7deb0fbc02cf3778a092506340c10f199150604401600060405180830381600087803b15801561162a57600080fd5b505af115801561163e573d6000803e3d6000fd5b50506040516340c10f1960e01b81527383eb2094072f6ed9f57d3f19f54820ee0bae608460048201526903daad9daaf814c4000060248201527388df592f8eb5d7bd38bfef7deb0fbc02cf3778a092506340c10f199150604401600060405180830381600087803b1580156116b257600080fd5b505af11580156116c6573d6000803e3d6000fd5b5050505050565b6040518060a001604052806005906020820280368337509192915050565b6040518061012001604052806009906020820280368337509192915050565b60006020828403121561171b578081fd5b813561172681611b34565b9392505050565b60006020828403121561173e578081fd5b815161172681611b34565b6000806040838503121561175b578081fd5b823561176681611b34565b9150602083013561177681611b34565b809150509250929050565b60008060408385031215611793578182fd5b823561179e81611b34565b946020939093013593505050565b6000602082840312156117bd578081fd5b5035919050565b600080604083850312156117d6578182fd5b82359150602083013561177681611b34565b6000602082840312156117f9578081fd5b813567ffffffffffffffff81111561180f578182fd5b8201601f8101841361181f578182fd5b803561183261182d82611a47565b611a16565b818152856020838501011115611846578384fd5b81602084016020830137908101602001929092525092915050565b600060208284031215611872578081fd5b815167ffffffffffffffff811115611888578182fd5b8201601f81018413611898578182fd5b80516118a661182d82611a47565b8181528560208385010111156118ba578384fd5b6118cb826020830160208601611abd565b95945050505050565b6000602082840312156118e5578081fd5b5051919050565b600080604083850312156118fe578182fd5b50508035926020909101359150565b6000828483379101908152919050565b848152610100810160208083018660005b600581101561194b5781518352918301919083019060010161192e565b5050505060c082019390935260e0015292915050565b898152881515602080830191909152881515604083015287151560608301526001600160a01b03878116608084015286811660a0840152851660c083015261022082019060e083018560005b60098110156119ca578151835291830191908301906001016119ad565b50505050826102008301529a9950505050505050505050565b6000602082528251806020840152611a02816040850160208701611abd565b601f01601f19169190910160400192915050565b604051601f8201601f1916810167ffffffffffffffff81118282101715611a3f57611a3f611b1e565b604052919050565b600067ffffffffffffffff821115611a6157611a61611b1e565b50601f01601f191660200190565b60008219821115611a8257611a82611b08565b500190565b6000816000190483118215151615611aa157611aa1611b08565b500290565b600082821015611ab857611ab8611b08565b500390565b60005b83811015611ad8578181015183820152602001611ac0565b83811115611ae7576000848401525b50505050565b6000600019821415611b0157611b01611b08565b5060010190565b634e487b7160e01b600052601160045260246000fd5b634e487b7160e01b600052604160045260246000fd5b6001600160a01b0381168114611b4957600080fd5b5056feef4ea54b5b61165ffc2ef656b4303b6e25d2ec33cc6bc62f39864cc7b0cfe7b5fa522e460446113e8fd353d7fa015625a68bc0369712213a42e006346440891ea264697066735822122062b44ec8cc017b668f1cb97a534c44a0ad012b0e16dc017f8fc71896b1290e6764736f6c63430008030033",
  "linkReferences": {},
  "deployedLinkReferences": {}
}