{
  "_format": "hh-sol-artifact-1",
  "contractName": "Token",
  "sourceName": "contracts/tellor360/oldContracts/contracts/Token.sol",
  "abi": [
    {
      "anonymous": false,
      "inputs": [
        {
          "indexed": true,
          "internalType": "address",
          "name": "_owner",
          "type": "address"
        },
        {
          "indexed": true,
          "internalType": "address",
          "name": "_spender",
          "type": "address"
        },
        {
          "indexed": false,
          "internalType": "uint256",
          "name": "_value",
          "type": "uint256"
        }
      ],
      "name": "Approval",
      "type": "event"
    },
    {
      "anonymous": false,
      "inputs": [
        {
          "indexed": true,
          "internalType": "address",
          "name": "_from",
          "type": "address"
        },
        {
          "indexed": true,
          "internalType": "address",
          "name": "_to",
          "type": "address"
        },
        {
          "indexed": false,
          "internalType": "uint256",
          "name": "_value",
          "type": "uint256"
        }
      ],
      "name": "Transfer",
      "type": "event"
    },
    {
      "inputs": [
        {
          "internalType": "address",
          "name": "",
          "type": "address"
        },
        {
          "internalType": "address",
          "name": "",
          "type": "address"
        }
      ],
      "name": "_allowances",
      "outputs": [
        {
          "internalType": "uint256",
          "name": "",
          "type": "uint256"
        }
      ],
      "stateMutability": "view",
      "type": "function"
    },
    {
      "inputs": [
        {
          "internalType": "bytes32",
          "name": "",
          "type": "bytes32"
        }
      ],
      "name": "addresses",
      "outputs": [
        {
          "internalType": "address",
          "name": "",
          "type": "address"
        }
      ],
      "stateMutability": "view",
      "type": "function"
    },
    {
      "inputs": [
        {
          "internalType": "address",
          "name": "_user",
          "type": "address"
        },
        {
          "internalType": "address",
          "name": "_spender",
          "type": "address"
        }
      ],
      "name": "allowance",
      "outputs": [
        {
          "internalType": "uint256",
          "name": "",
          "type": "uint256"
        }
      ],
      "stateMutability": "view",
      "type": "function"
    },
    {
      "inputs": [
        {
          "internalType": "address",
          "name": "_user",
          "type": "address"
        },
        {
          "internalType": "uint256",
          "name": "_amount",
          "type": "uint256"
        }
      ],
      "name": "allowedToTrade",
      "outputs": [
        {
          "internalType": "bool",
          "name": "",
          "type": "bool"
        }
      ],
      "stateMutability": "view",
      "type": "function"
    },
    {
      "inputs": [
        {
          "internalType": "address",
          "name": "_spender",
          "type": "address"
        },
        {
          "internalType": "uint256",
          "name": "_amount",
          "type": "uint256"
        }
      ],
      "name": "approve",
      "outputs": [
        {
          "internalType": "bool",
          "name": "",
          "type": "bool"
        }
      ],
      "stateMutability": "nonpayable",
      "type": "function"
    },
    {
      "inputs": [
        {
          "internalType": "address",
          "name": "_from",
          "type": "address"
        },
        {
          "internalType": "address",
          "name": "_to",
          "type": "address"
        },
        {
          "internalType": "uint256",
          "name": "_amount",
          "type": "uint256"
        }
      ],
      "name": "approveAndTransferFrom",
      "outputs": [
        {
          "internalType": "bool",
          "name": "",
          "type": "bool"
        }
      ],
      "stateMutability": "nonpayable",
      "type": "function"
    },
    {
      "inputs": [
        {
          "internalType": "address",
          "name": "_user",
          "type": "address"
        }
      ],
      "name": "balanceOf",
      "outputs": [
        {
          "internalType": "uint256",
          "name": "",
          "type": "uint256"
        }
      ],
      "stateMutability": "view",
      "type": "function"
    },
    {
      "inputs": [
        {
          "internalType": "address",
          "name": "_user",
          "type": "address"
        },
        {
          "internalType": "uint256",
          "name": "_blockNumber",
          "type": "uint256"
        }
      ],
      "name": "balanceOfAt",
      "outputs": [
        {
          "internalType": "uint256",
          "name": "",
          "type": "uint256"
        }
      ],
      "stateMutability": "view",
      "type": "function"
    },
    {
      "inputs": [
        {
          "internalType": "address",
          "name": "",
          "type": "address"
        },
        {
          "internalType": "uint256",
          "name": "",
          "type": "uint256"
        }
      ],
      "name": "balances",
      "outputs": [
        {
          "internalType": "uint128",
          "name": "fromBlock",
          "type": "uint128"
        },
        {
          "internalType": "uint128",
          "name": "value",
          "type": "uint128"
        }
      ],
      "stateMutability": "view",
      "type": "function"
    },
    {
      "inputs": [
        {
          "internalType": "uint256",
          "name": "_amount",
          "type": "uint256"
        }
      ],
      "name": "burn",
      "outputs": [],
      "stateMutability": "nonpayable",
      "type": "function"
    },
    {
      "inputs": [
        {
          "internalType": "bytes32",
          "name": "",
          "type": "bytes32"
        }
      ],
      "name": "bytesVars",
      "outputs": [
        {
          "internalType": "bytes32",
          "name": "",
          "type": "bytes32"
        }
      ],
      "stateMutability": "view",
      "type": "function"
    },
    {
      "inputs": [
        {
          "internalType": "uint256",
          "name": "",
          "type": "uint256"
        }
      ],
      "name": "currentMiners",
      "outputs": [
        {
          "internalType": "uint256",
          "name": "value",
          "type": "uint256"
        },
        {
          "internalType": "address",
          "name": "miner",
          "type": "address"
        }
      ],
      "stateMutability": "view",
      "type": "function"
    },
    {
      "inputs": [
        {
          "internalType": "bytes32",
          "name": "",
          "type": "bytes32"
        }
      ],
      "name": "disputeIdByDisputeHash",
      "outputs": [
        {
          "internalType": "uint256",
          "name": "",
          "type": "uint256"
        }
      ],
      "stateMutability": "view",
      "type": "function"
    },
    {
      "inputs": [
        {
          "internalType": "uint256",
          "name": "",
          "type": "uint256"
        }
      ],
      "name": "disputesById",
      "outputs": [
        {
          "internalType": "bytes32",
          "name": "hash",
          "type": "bytes32"
        },
        {
          "internalType": "int256",
          "name": "tally",
          "type": "int256"
        },
        {
          "internalType": "bool",
          "name": "executed",
          "type": "bool"
        },
        {
          "internalType": "bool",
          "name": "disputeVotePassed",
          "type": "bool"
        },
        {
          "internalType": "bool",
          "name": "isPropFork",
          "type": "bool"
        },
        {
          "internalType": "address",
          "name": "reportedMiner",
          "type": "address"
        },
        {
          "internalType": "address",
          "name": "reportingParty",
          "type": "address"
        },
        {
          "internalType": "address",
          "name": "proposedForkAddress",
          "type": "address"
        }
      ],
      "stateMutability": "view",
      "type": "function"
    },
    {
      "inputs": [
        {
          "internalType": "address",
          "name": "",
          "type": "address"
        }
      ],
      "name": "migrated",
      "outputs": [
        {
          "internalType": "bool",
          "name": "",
          "type": "bool"
        }
      ],
      "stateMutability": "view",
      "type": "function"
    },
    {
      "inputs": [
        {
          "internalType": "bytes32",
          "name": "",
          "type": "bytes32"
        },
        {
          "internalType": "address",
          "name": "",
          "type": "address"
        }
      ],
      "name": "minersByChallenge",
      "outputs": [
        {
          "internalType": "bool",
          "name": "",
          "type": "bool"
        }
      ],
      "stateMutability": "view",
      "type": "function"
    },
    {
      "inputs": [
        {
          "internalType": "uint256",
          "name": "",
          "type": "uint256"
        }
      ],
      "name": "newValueTimestamps",
      "outputs": [
        {
          "internalType": "uint256",
          "name": "",
          "type": "uint256"
        }
      ],
      "stateMutability": "view",
      "type": "function"
    },
    {
      "inputs": [
        {
          "internalType": "bytes32",
          "name": "",
          "type": "bytes32"
        }
      ],
      "name": "requestIdByQueryHash",
      "outputs": [
        {
          "internalType": "uint256",
          "name": "",
          "type": "uint256"
        }
      ],
      "stateMutability": "view",
      "type": "function"
    },
    {
      "inputs": [
        {
          "internalType": "address",
          "name": "_to",
          "type": "address"
        },
        {
          "internalType": "uint256",
          "name": "_amount",
          "type": "uint256"
        }
      ],
      "name": "transfer",
      "outputs": [
        {
          "internalType": "bool",
          "name": "success",
          "type": "bool"
        }
      ],
      "stateMutability": "nonpayable",
      "type": "function"
    },
    {
      "inputs": [
        {
          "internalType": "address",
          "name": "_from",
          "type": "address"
        },
        {
          "internalType": "address",
          "name": "_to",
          "type": "address"
        },
        {
          "internalType": "uint256",
          "name": "_amount",
          "type": "uint256"
        }
      ],
      "name": "transferFrom",
      "outputs": [
        {
          "internalType": "bool",
          "name": "success",
          "type": "bool"
        }
      ],
      "stateMutability": "nonpayable",
      "type": "function"
    },
    {
      "inputs": [
        {
          "internalType": "bytes32",
          "name": "",
          "type": "bytes32"
        }
      ],
      "name": "uints",
      "outputs": [
        {
          "internalType": "uint256",
          "name": "",
          "type": "uint256"
        }
      ],
      "stateMutability": "view",
      "type": "function"
    }
  ],
  "bytecode": "0x608060405234801561001057600080fd5b506111bf806100206000396000f3fe608060405234801561001057600080fd5b50600436106101475760003560e01c80635700242c116100c8578063a9059cbb1161008c578063d01f4d9e11610066578063d01f4d9e1461039c578063db085beb146103bc578063dd62ed3e1461047557610147565b8063a9059cbb14610336578063b59e14d414610349578063cbf1304d1461036957610147565b80635700242c1461028f57806362dd1d2a146102af578063699f200f146102cf57806370a0823114610310578063999cf26c1461032357610147565b806342966c681161010f57806342966c6814610203578063438c0aa31461021857806348b18e541461022b5780634ba0a5ee146102595780634ee2cd7e1461027c57610147565b8063024c2ddd1461014c578063095ea7b31461018a5780631fd22364146101ad57806323b872dd146101dd578063288c9c9d146101f0575b600080fd5b61017761015a366004610f9a565b604a60209081526000928352604080842090915290825290205481565b6040519081526020015b60405180910390f35b61019d610198366004611007565b6104ae565b6040519015158152602001610181565b6101c06101bb366004611050565b61057b565b604080519283526001600160a01b03909116602083015201610181565b61019d6101eb366004610fcc565b6105a6565b61019d6101fe366004610fcc565b61065c565b610216610211366004611050565b610872565b005b610177610226366004611050565b61087f565b61019d610239366004611068565b603960209081526000928352604080842090915290825290205460ff1681565b61019d610267366004610f79565b604b6020526000908152604090205460ff1681565b61017761028a366004611007565b6108a0565b61017761029d366004611050565b60376020526000908152604090205481565b6101776102bd366004611050565b60486020526000908152604090205481565b6102f86102dd366004611050565b6047602052600090815260409020546001600160a01b031681565b6040516001600160a01b039091168152602001610181565b61017761031e366004610f79565b610b0b565b61019d610331366004611007565b610b1f565b61019d610344366004611007565b610bdf565b610177610357366004611050565b60466020526000908152604090205481565b61037c610377366004611007565b610bf5565b604080516001600160801b03938416815292909116602083015201610181565b6101776103aa366004611050565b60386020526000908152604090205481565b6104266103ca366004611050565b603660205260009081526040902080546001820154600283015460038401546004909401549293919260ff808316936101008404821693620100008104909216926001600160a01b036301000000909304831692918216911688565b604080519889526020890197909752941515958701959095529115156060860152151560808501526001600160a01b0390811660a085015291821660c08401521660e082015261010001610181565b610177610483366004610f9a565b6001600160a01b039182166000908152604a6020908152604080832093909416825291909152205490565b60006001600160a01b0383166105165760405162461bcd60e51b815260206004820152602260248201527f45524332303a20617070726f766520746f20746865207a65726f206164647265604482015261737360f01b60648201526084015b60405180910390fd5b336000818152604a602090815260408083206001600160a01b03881680855290835292819020869055518581529192917f8c5be1e5ebec7d5bd14f71427d1e84f3dd0314c0f7b2291e5b200ac8c7c3b925910160405180910390a35060015b92915050565b603a816005811061058b57600080fd5b6002020180546001909101549091506001600160a01b031682565b6001600160a01b0383166000908152604a6020908152604080832033845290915281205482111561060e5760405162461bcd60e51b8152602060048201526012602482015271416c6c6f77616e63652069732077726f6e6760701b604482015260640161050d565b6001600160a01b0384166000908152604a602090815260408083203384529091528120805484929061064190849061115c565b909155506106529050848484610c38565b5060019392505050565b7fefa19baa864049f50491093580c5433e97e8d5e41f8db1a61108b4fa44cacd93600090815260476020527f7d9ee2aaccfe8f70172569ff913448023f3ddb672f2bd893709418983f3ec22d54604051637e98b8d960e11b81523360048201526001600160a01b039091169063fd3171b29060240160206040518083038186803b1580156106e957600080fd5b505afa1580156106fd573d6000803e3d6000fd5b505050506040513d601f19601f820116820180604052508101906107219190611030565b8061077e57507f1436a1a60dca0ebb2be98547e57992a0fa082eb479e7576303cbd384e934f1fa60005260476020527fdff38f4be09d4d5ca93ca85b25c70a2df93aeb79f23032ad60429718dab8fd0d546001600160a01b031633145b806107db57507ffa522e460446113e8fd353d7fa015625a68bc0369712213a42e006346440891e60005260476020527fef4ea54b5b61165ffc2ef656b4303b6e25d2ec33cc6bc62f39864cc7b0cfe7b5546001600160a01b031633145b6108675760405162461bcd60e51b815260206004820152605160248201527f4f6e6c792074686520476f7665726e616e63652c2054726561737572792c206f60448201527f72204f7261636c6520436f6e74726163742063616e20617070726f766520616e60648201527064207472616e7366657220746f6b656e7360781b608482015260a40161050d565b610652848484610c38565b61087c3382610d99565b50565b6033818154811061088f57600080fd5b600091825260209091200154905081565b6001600160a01b0382166000908152604960205260408120805415806108fa575082816000815481106108e357634e487b7160e01b600052603260045260246000fd5b6000918252602090912001546001600160801b0316115b15610909576000915050610575565b805481906109199060019061115c565b8154811061093757634e487b7160e01b600052603260045260246000fd5b6000918252602090912001546001600160801b031683106109a557805481906109629060019061115c565b8154811061098057634e487b7160e01b600052603260045260246000fd5b600091825260209091200154600160801b90046001600160801b031691506105759050565b805460009081906109b89060029061115c565b90505b81811115610ac457600060026109d184846110fc565b6109dc9060016110fc565b6109e69190611114565b905085848281548110610a0957634e487b7160e01b600052603260045260246000fd5b6000918252602090912001546001600160801b03161415610a6c57838181548110610a4457634e487b7160e01b600052603260045260246000fd5b600091825260209091200154600160801b90046001600160801b031694506105759350505050565b85848281548110610a8d57634e487b7160e01b600052603260045260246000fd5b6000918252602090912001546001600160801b03161015610ab057809250610abe565b610abb60018261115c565b91505b506109bb565b828281548110610ae457634e487b7160e01b600052603260045260246000fd5b600091825260209091200154600160801b90046001600160801b0316935061057592505050565b6000610b1782436108a0565b90505b919050565b6001600160a01b03821660009081526044602052604081205415801590610b5e57506001600160a01b0383166000908152604460205260409020546005115b15610bcc577f5d9fadfc729fd027e395e5157ef1b53ef9fa4a8f053043c5f159307543e7cc9760005260466020527f167af83a0768d27540775cfef6d996eb63f8a61fcdfb26e654c18fb50960e3be548290610bb985610b0b565b610bc3919061115c565b10159050610575565b81610bd684610b0b565b10159392505050565b6000610bec338484610c38565b50600192915050565b60496020528160005260406000208181548110610c1157600080fd5b6000918252602090912001546001600160801b038082169350600160801b90910416905082565b80610c8f5760405162461bcd60e51b815260206004820152602160248201527f547269656420746f2073656e64206e6f6e2d706f73697469766520616d6f756e6044820152601d60fa1b606482015260840161050d565b6001600160a01b038216610ce55760405162461bcd60e51b815260206004820152601560248201527f5265636569766572206973203020616464726573730000000000000000000000604482015260640161050d565b610cef8382610b1f565b610d0b5760405162461bcd60e51b815260040161050d9061108a565b6000610d1684610b0b565b905081610d2c85610d278385611134565b610e4d565b610d3584610b0b565b9150610d4584610d2783856110d1565b836001600160a01b0316856001600160a01b03167fddf252ad1be2c89b69c2b068fc378daa952ba7f163c4a11628f55a4df523b3ef85604051610d8a91815260200190565b60405180910390a35050505050565b80610da357610e49565b610dad8282610b1f565b610dc95760405162461bcd60e51b815260040161050d9061108a565b6000610dd483610b0b565b905081610de584610d278385611134565b7fe6148e7230ca038d456350e69a91b66968b222bfac9ebfbea6ff0a1fb7380160600090815260466020527ffffeead1ec15181fd57b4590d95e0c076bccb59e311315e8b38f23c710aa7c3e8054859290610e4190849061115c565b909155505050505b5050565b6001600160a01b038216600090815260496020526040902080541580610eb65750805443908290610e809060019061115c565b81548110610e9e57634e487b7160e01b600052603260045260246000fd5b6000918252602090912001546001600160801b031614155b15610f0757604080518082019091526001600160801b03438116825283811660208084019182528454600181018655600086815291909120935191518316600160801b029190921617910155610f5d565b80546000908290610f1a9060019061115c565b81548110610f3857634e487b7160e01b600052603260045260246000fd5b600091825260209091200180546001600160801b03808616600160801b029116179055505b505050565b80356001600160a01b0381168114610b1a57600080fd5b600060208284031215610f8a578081fd5b610f9382610f62565b9392505050565b60008060408385031215610fac578081fd5b610fb583610f62565b9150610fc360208401610f62565b90509250929050565b600080600060608486031215610fe0578081fd5b610fe984610f62565b9250610ff760208501610f62565b9150604084013590509250925092565b60008060408385031215611019578182fd5b61102283610f62565b946020939093013593505050565b600060208284031215611041578081fd5b81518015158114610f93578182fd5b600060208284031215611061578081fd5b5035919050565b6000806040838503121561107a578182fd5b82359150610fc360208401610f62565b60208082526027908201527f53686f756c6420686176652073756666696369656e742062616c616e636520746040820152666f20747261646560c81b606082015260800190565b60006001600160801b038083168185168083038211156110f3576110f3611173565b01949350505050565b6000821982111561110f5761110f611173565b500190565b60008261112f57634e487b7160e01b81526012600452602481fd5b500490565b60006001600160801b038381169083168181101561115457611154611173565b039392505050565b60008282101561116e5761116e611173565b500390565b634e487b7160e01b600052601160045260246000fdfea26469706673582212205b5e48047d58a5ddefecb0efa5485ceb759c53afc2da97e25b8b5a510a46b93264736f6c63430008030033",
  "linkReferences": {},
  "deployedLinkReferences": {}
}