{
  "abi": [
    {
      "inputs": [
        {
          "internalType": "address",
          "name": "_bridgeProxy",
          "type": "address"
        },
        {
          "internalType": "uint256",
          "name": "_minInitAmount",
          "type": "uint256"
        },
        {
          "internalType": "uint256",
          "name": "_submissionPeriod",
          "type": "uint256"
        },
        {
          "internalType": "uint256",
          "name": "_extensionPeriod",
          "type": "uint256"
        },
        {
          "internalType": "bool",
          "name": "_requireOwnerSignature",
          "type": "bool"
        },
        {
          "internalType": "address",
          "name": "_owner",
          "type": "address"
        }
      ],
      "stateMutability": "nonpayable",
      "type": "constructor"
    },
    {
      "inputs": [],
      "name": "bridgeProxy",
      "outputs": [
        {
          "internalType": "contract IBridgeProxy",
          "name": "",
          "type": "address"
        }
      ],
      "stateMutability": "view",
      "type": "function"
    },
    {
      "inputs": [
        {
          "internalType": "uint256",
          "name": "_proposalId",
          "type": "uint256"
        }
      ],
      "name": "claim",
      "outputs": [],
      "stateMutability": "nonpayable",
      "type": "function"
    },
    {
      "inputs": [
        {
          "internalType": "uint256",
          "name": "_proposalId",
          "type": "uint256"
        }
      ],
      "name": "executeProposal",
      "outputs": [],
      "stateMutability": "nonpayable",
      "type": "function"
    },
    {
      "inputs": [],
      "name": "extensionPeriod",
      "outputs": [
        {
          "internalType": "uint256",
          "name": "",
          "type": "uint256"
        }
      ],
      "stateMutability": "view",
      "type": "function"
    },
    {
      "inputs": [
        {
          "internalType": "uint256",
          "name": "_proposalId",
          "type": "uint256"
        }
      ],
      "name": "getProposal",
      "outputs": [
        {
          "internalType": "address",
          "name": "",
          "type": "address"
        },
        {
          "internalType": "address",
          "name": "",
          "type": "address"
        },
        {
          "internalType": "uint256",
          "name": "",
          "type": "uint256"
        },
        {
          "internalType": "uint256",
          "name": "",
          "type": "uint256"
        },
        {
          "internalType": "uint256",
          "name": "",
          "type": "uint256"
        },
        {
          "internalType": "uint256",
          "name": "",
          "type": "uint256"
        },
        {
          "internalType": "bool",
          "name": "",
          "type": "bool"
        },
        {
          "internalType": "bool",
          "name": "",
          "type": "bool"
        },
        {
          "internalType": "enum SimpleSchelling.ProposalOutcome",
          "name": "",
          "type": "uint8"
        }
      ],
      "stateMutability": "view",
      "type": "function"
    },
    {
      "inputs": [
        {
          "internalType": "uint256",
          "name": "_proposalId",
          "type": "uint256"
        },
        {
          "internalType": "address",
          "name": "_voter",
          "type": "address"
        }
      ],
      "name": "getVotes",
      "outputs": [
        {
          "internalType": "uint256",
          "name": "",
          "type": "uint256"
        },
        {
          "internalType": "uint256",
          "name": "",
          "type": "uint256"
        }
      ],
      "stateMutability": "view",
      "type": "function"
    },
    {
      "inputs": [],
      "name": "minInitAmount",
      "outputs": [
        {
          "internalType": "uint256",
          "name": "",
          "type": "uint256"
        }
      ],
      "stateMutability": "view",
      "type": "function"
    },
    {
      "inputs": [],
      "name": "owner",
      "outputs": [
        {
          "internalType": "address",
          "name": "",
          "type": "address"
        }
      ],
      "stateMutability": "view",
      "type": "function"
    },
    {
      "inputs": [
        {
          "internalType": "uint256",
          "name": "_proposalId",
          "type": "uint256"
        }
      ],
      "name": "ownerPauseBridge",
      "outputs": [],
      "stateMutability": "nonpayable",
      "type": "function"
    },
    {
      "inputs": [],
      "name": "pauseBridge",
      "outputs": [],
      "stateMutability": "payable",
      "type": "function"
    },
    {
      "inputs": [],
      "name": "proposalCount",
      "outputs": [
        {
          "internalType": "uint256",
          "name": "",
          "type": "uint256"
        }
      ],
      "stateMutability": "view",
      "type": "function"
    },
    {
      "inputs": [
        {
          "internalType": "uint256",
          "name": "",
          "type": "uint256"
        }
      ],
      "name": "proposals",
      "outputs": [
        {
          "internalType": "address",
          "name": "initiator",
          "type": "address"
        },
        {
          "internalType": "address",
          "name": "proposedImplementation",
          "type": "address"
        },
        {
          "internalType": "uint256",
          "name": "amountFor",
          "type": "uint256"
        },
        {
          "internalType": "uint256",
          "name": "amountAgainst",
          "type": "uint256"
        },
        {
          "internalType": "uint256",
          "name": "submissionDeadline",
          "type": "uint256"
        },
        {
          "internalType": "uint256",
          "name": "expirationTime",
          "type": "uint256"
        },
        {
          "internalType": "bool",
          "name": "executed",
          "type": "bool"
        },
        {
          "internalType": "bool",
          "name": "ownerSigned",
          "type": "bool"
        },
        {
          "internalType": "enum SimpleSchelling.ProposalOutcome",
          "name": "outcome",
          "type": "uint8"
        }
      ],
      "stateMutability": "view",
      "type": "function"
    },
    {
      "inputs": [],
      "name": "requireOwnerSignature",
      "outputs": [
        {
          "internalType": "bool",
          "name": "",
          "type": "bool"
        }
      ],
      "stateMutability": "view",
      "type": "function"
    },
    {
      "inputs": [],
      "name": "submissionPeriod",
      "outputs": [
        {
          "internalType": "uint256",
          "name": "",
          "type": "uint256"
        }
      ],
      "stateMutability": "view",
      "type": "function"
    },
    {
      "inputs": [
        {
          "internalType": "uint256",
          "name": "_proposalId",
          "type": "uint256"
        },
        {
          "internalType": "address",
          "name": "_proposedImplementation",
          "type": "address"
        }
      ],
      "name": "submitImplementation",
      "outputs": [],
      "stateMutability": "nonpayable",
      "type": "function"
    },
    {
      "inputs": [],
      "name": "throwAwayOwnership",
      "outputs": [],
      "stateMutability": "nonpayable",
      "type": "function"
    },
    {
      "inputs": [
        {
          "internalType": "address",
          "name": "_newOwner",
          "type": "address"
        }
      ],
      "name": "transferOwnership",
      "outputs": [],
      "stateMutability": "nonpayable",
      "type": "function"
    },
    {
      "inputs": [
        {
          "internalType": "uint256",
          "name": "_proposalId",
          "type": "uint256"
        },
        {
          "internalType": "bool",
          "name": "_for",
          "type": "bool"
        }
      ],
      "name": "vote",
      "outputs": [],
      "stateMutability": "payable",
      "type": "function"
    }
  ],
  "bytecode": {
    "object": "0x608060405234801561001057600080fd5b5060405161136f38038061136f83398101604081905261002f916100a5565b600080546001600160a01b039788166001600160a01b0319918216179091556001959095556003939093556004919091556005805492909416901515600160a01b029092166001600160a81b031990911617179055610109565b80516001600160a01b03811681146100a057600080fd5b919050565b60008060008060008060c087890312156100bd578182fd5b6100c687610089565b9550602087015194506040870151935060608701519250608087015180151581146100ef578283fd5b91506100fd60a08801610089565b90509295509295509295565b611257806101186000396000f3fe6080604052600436106101095760003560e01c8063a3d4485b11610095578063d989ae9711610064578063d989ae97146103d0578063da35c664146103f0578063dedfab7214610406578063f2fde38b1461041c578063f5e0c69d1461043c57610109565b8063a3d4485b146102fd578063c667383c1461031d578063c7f758a81461033d578063c9d27afe146103bd57610109565b80633de55246116100dc5780633de552461461020e57806368197360146102235780637dd0480f1461028c5780638da5cb5b14610294578063a272e80e146102cc57610109565b8063013cf08b1461010e5780630d61b519146101a8578063185fde7e146101ca578063379607f5146101ee575b600080fd5b34801561011a57600080fd5b5061018a610129366004611064565b600660208190526000918252604090912080546001820154600283015460038401546004850154600586015495909601546001600160a01b0394851696939094169491939092919060ff808216916101008104821691620100009091041689565b60405161019f999897969594939291906110d6565b60405180910390f35b3480156101b457600080fd5b506101c86101c3366004611064565b610452565b005b3480156101d657600080fd5b506101e060035481565b60405190815260200161019f565b3480156101fa57600080fd5b506101c8610209366004611064565b6106bc565b34801561021a57600080fd5b506101c86108dc565b34801561022f57600080fd5b5061027761023e36600461107c565b60009182526006602090815260408084206001600160a01b03939093168452600783018252808420546008909301909152909120549091565b6040805192835260208301919091520161019f565b6101c8610918565b3480156102a057600080fd5b506005546102b4906001600160a01b031681565b6040516001600160a01b03909116815260200161019f565b3480156102d857600080fd5b506005546102ed90600160a01b900460ff1681565b604051901515815260200161019f565b34801561030957600080fd5b506000546102b4906001600160a01b031681565b34801561032957600080fd5b506101c8610338366004611064565b610b5d565b34801561034957600080fd5b5061018a610358366004611064565b600090815260066020819052604090912080546001820154600283015460038401546004850154600586015495909601546001600160a01b03948516979490931695919490939192909160ff8083169261010081048216926201000090910490911690565b6101c86103cb3660046110a7565b610d4d565b3480156103dc57600080fd5b506101c86103eb36600461107c565b610efe565b3480156103fc57600080fd5b506101e060025481565b34801561041257600080fd5b506101e060045481565b34801561042857600080fd5b506101c8610437366004611027565b610fbf565b34801561044857600080fd5b506101e060015481565b6000818152600660205260409020600481015442116104b85760405162461bcd60e51b815260206004820152601d60248201527f7375626d697373696f6e20706572696f64206e6f74206578706972656400000060448201526064015b60405180910390fd5b600681015460ff16156105005760405162461bcd60e51b815260206004820152601060248201526f185b1c9958591e48195e1958dd5d195960821b60448201526064016104af565b600554600160a01b900460ff16801561052257506006810154610100900460ff165b806105375750600554600160a01b900460ff16155b1561063c57428160050154106105865760405162461bcd60e51b81526020600482015260146024820152731c1c9bdc1bdcd85b081b9bdd08195e1c1a5c995960621b60448201526064016104af565b806003015481600201541180156105a9575060018101546001600160a01b031615155b156106235760005460018201546040516296c8af60e21b81526001600160a01b03918216600482015291169063025b22bc90602401600060405180830381600087803b1580156105f857600080fd5b505af115801561060c573d6000803e3d6000fd5b5050505060068101805462ff000019169055610637565b60068101805462ff00001916620100001790555b610650565b60068101805462ff00001916620200001790555b60068101805460ff191660011790556000805460408051632a0bc50f60e21b815290516001600160a01b039092169263a82f143c9260048084019382900301818387803b1580156106a057600080fd5b505af11580156106b4573d6000803e3d6000fd5b505050505050565b60008181526006602081905260409091209081015460ff1661070f5760405162461bcd60e51b815260206004820152600c60248201526b1b9bdd08195e1958dd5d195960a21b60448201526064016104af565b60006002600683015462010000900460ff16600281111561074057634e487b7160e01b600052602160045260246000fd5b14156107985733600090815260088301602090815260408083205460078601909252909120546107709190611171565b336000908152600784016020908152604080832083905560088601909152812055905061086f565b6000600683015462010000900460ff1660028111156107c757634e487b7160e01b600052602160045260246000fd5b141561082057336000908152600783016020526040902054600283015460038401546107f390836111a9565b6107fd9190611189565b6108079190611171565b336000908152600784016020526040812055905061086f565b3360009081526008830160205260409020546003830154600284015461084690836111a9565b6108509190611189565b61085a9190611171565b33600090815260088401602052604081205590505b600081116108a95760405162461bcd60e51b81526020600482015260076024820152666e6f20766f746560c81b60448201526064016104af565b604051339082156108fc029083906000818181858888f193505050501580156108d6573d6000803e3d6000fd5b50505050565b6005546001600160a01b031633146109065760405162461bcd60e51b81526004016104af9061114e565b600580546001600160a81b0319169055565b6001543410156109605760405162461bcd60e51b81526020600482015260136024820152721a5b9cdd59999a58da595b9d08185b5bdd5b9d606a1b60448201526064016104af565b60008054906101000a90046001600160a01b03166001600160a01b0316635c975abb6040518163ffffffff1660e01b8152600401602060405180830381600087803b1580156109ae57600080fd5b505af11580156109c2573d6000803e3d6000fd5b505050506040513d601f19601f820116820180604052508101906109e69190611048565b15610a2b5760405162461bcd60e51b8152602060048201526015602482015274189c9a5919d948185b1c9958591e481c185d5cd959605a1b60448201526064016104af565b6002546000908152600660205260408120600154909190610a4e90600a90611189565b9050610a5a81346111c8565b6002830155600354610a6c9042611171565b826004018190555060035460045442610a859190611171565b610a8f9190611171565b6005830155610a9e81346111c8565b33600090815260078401602052604081208054909190610abf908490611171565b909155505060028054906000610ad4836111df565b909155505060405160009082156108fc0290839083818181858288f19350505050158015610b06573d6000803e3d6000fd5b50600554600160a01b900460ff16610b59576000805460408051637dd0480f60e01b815290516001600160a01b0390921692637dd0480f9260048084019382900301818387803b1580156106a057600080fd5b5050565b6005546001600160a01b03163314610b875760405162461bcd60e51b81526004016104af9061114e565b600554600160a01b900460ff16610be05760405162461bcd60e51b815260206004820152601c60248201527f6f776e6572207369676e6174757265206e6f742072657175697265640000000060448201526064016104af565b60008054906101000a90046001600160a01b03166001600160a01b0316635c975abb6040518163ffffffff1660e01b8152600401602060405180830381600087803b158015610c2e57600080fd5b505af1158015610c42573d6000803e3d6000fd5b505050506040513d601f19601f82011682018060405250810190610c669190611048565b15610cab5760405162461bcd60e51b8152602060048201526015602482015274189c9a5919d948185b1c9958591e481c185d5cd959605a1b60448201526064016104af565b600081815260066020526040902060048101544210610d0c5760405162461bcd60e51b815260206004820152601960248201527f7375626d697373696f6e20706572696f6420657870697265640000000000000060448201526064016104af565b6000805460408051637dd0480f60e01b815290516001600160a01b0390921692637dd0480f9260048084019382900301818387803b1580156106a057600080fd5b60003411610d935760405162461bcd60e51b81526020600482015260136024820152721a5b9cdd59999a58da595b9d08185b5bdd5b9d606a1b60448201526064016104af565b600082815260066020526040902060058101544210610de75760405162461bcd60e51b815260206004820152601060248201526f1c1c9bdc1bdcd85b08195e1c1a5c995960821b60448201526064016104af565b60038101546002820154118215610e3d5734826002016000828254610e0c9190611171565b909155505033600090815260078301602052604081208054349290610e32908490611171565b90915550610e7d9050565b34826003016000828254610e519190611171565b909155505033600090815260088301602052604081208054349290610e77908490611171565b90915550505b808015610e9257508160020154826003015410155b8015610ea15750428260040154105b15610ebd57600454610eb39042611171565b60058301556108d6565b80158015610ed2575081600301548260020154115b8015610ee15750428260040154105b156108d657600454610ef39042611171565b600583015550505050565b600082815260066020526040902080546001600160a01b03163314610f555760405162461bcd60e51b815260206004820152600d60248201526c3737ba1034b734ba34b0ba37b960991b60448201526064016104af565b42816004015411610f9b5760405162461bcd60e51b815260206004820152601060248201526f1c1c9bdc1bdcd85b08195e1c1a5c995960821b60448201526064016104af565b60010180546001600160a01b0319166001600160a01b039290921691909117905550565b6005546001600160a01b03163314610fe95760405162461bcd60e51b81526004016104af9061114e565b600580546001600160a01b0319166001600160a01b0392909216919091179055565b80356001600160a01b038116811461102257600080fd5b919050565b600060208284031215611038578081fd5b6110418261100b565b9392505050565b600060208284031215611059578081fd5b815161104181611210565b600060208284031215611075578081fd5b5035919050565b6000806040838503121561108e578081fd5b8235915061109e6020840161100b565b90509250929050565b600080604083850312156110b9578182fd5b8235915060208301356110cb81611210565b809150509250929050565b6001600160a01b038a811682528916602082015260408101889052606081018790526080810186905260a0810185905283151560c082015282151560e082015261012081016003831061113957634e487b7160e01b600052602160045260246000fd5b826101008301529a9950505050505050505050565b6020808252600990820152683737ba1037bbb732b960b91b604082015260600190565b60008219821115611184576111846111fa565b500190565b6000826111a457634e487b7160e01b81526012600452602481fd5b500490565b60008160001904831182151516156111c3576111c36111fa565b500290565b6000828210156111da576111da6111fa565b500390565b60006000198214156111f3576111f36111fa565b5060010190565b634e487b7160e01b600052601160045260246000fd5b801515811461121e57600080fd5b5056fea2646970667358221220c4c99352ce3cba6ac251ee2a23c96c40c70b71659279f9a0bda848636476256c64736f6c63430008030033",
    "linkReferences": {}
  },
  "methodIdentifiers": {
    "bridgeProxy()": "a3d4485b",
    "claim(uint256)": "379607f5",
    "executeProposal(uint256)": "0d61b519",
    "extensionPeriod()": "dedfab72",
    "getProposal(uint256)": "c7f758a8",
    "getVotes(uint256,address)": "68197360",
    "minInitAmount()": "f5e0c69d",
    "owner()": "8da5cb5b",
    "ownerPauseBridge(uint256)": "c667383c",
    "pauseBridge()": "7dd0480f",
    "proposalCount()": "da35c664",
    "proposals(uint256)": "013cf08b",
    "requireOwnerSignature()": "a272e80e",
    "submissionPeriod()": "185fde7e",
    "submitImplementation(uint256,address)": "d989ae97",
    "throwAwayOwnership()": "3de55246",
    "transferOwnership(address)": "f2fde38b",
    "vote(uint256,bool)": "c9d27afe"
  },
  "id": 18
}