{
  "abi": [
    {
      "inputs": [
        {
          "internalType": "address",
          "name": "_bridgeProxy",
          "type": "address"
        },
        {
          "internalType": "uint256",
          "name": "_minInitAmount",
          "type": "uint256"
        },
        {
          "internalType": "uint256",
          "name": "_extensionPeriod",
          "type": "uint256"
        }
      ],
      "stateMutability": "nonpayable",
      "type": "constructor"
    },
    {
      "inputs": [],
      "name": "bridgeProxy",
      "outputs": [
        {
          "internalType": "contract IBridgeProxy",
          "name": "",
          "type": "address"
        }
      ],
      "stateMutability": "view",
      "type": "function"
    },
    {
      "inputs": [
        {
          "internalType": "uint256",
          "name": "_proposalId",
          "type": "uint256"
        }
      ],
      "name": "claim",
      "outputs": [],
      "stateMutability": "nonpayable",
      "type": "function"
    },
    {
      "inputs": [
        {
          "internalType": "uint256",
          "name": "_proposalId",
          "type": "uint256"
        }
      ],
      "name": "executeFork",
      "outputs": [],
      "stateMutability": "nonpayable",
      "type": "function"
    },
    {
      "inputs": [],
      "name": "extensionPeriod",
      "outputs": [
        {
          "internalType": "uint256",
          "name": "",
          "type": "uint256"
        }
      ],
      "stateMutability": "view",
      "type": "function"
    },
    {
      "inputs": [
        {
          "internalType": "uint256",
          "name": "_proposalId",
          "type": "uint256"
        }
      ],
      "name": "getProposal",
      "outputs": [
        {
          "internalType": "address",
          "name": "",
          "type": "address"
        },
        {
          "internalType": "uint256",
          "name": "",
          "type": "uint256"
        },
        {
          "internalType": "uint256",
          "name": "",
          "type": "uint256"
        },
        {
          "internalType": "uint256",
          "name": "",
          "type": "uint256"
        },
        {
          "internalType": "bool",
          "name": "",
          "type": "bool"
        }
      ],
      "stateMutability": "view",
      "type": "function"
    },
    {
      "inputs": [
        {
          "internalType": "uint256",
          "name": "_proposalId",
          "type": "uint256"
        },
        {
          "internalType": "address",
          "name": "_voter",
          "type": "address"
        }
      ],
      "name": "getVotes",
      "outputs": [
        {
          "internalType": "uint256",
          "name": "",
          "type": "uint256"
        },
        {
          "internalType": "uint256",
          "name": "",
          "type": "uint256"
        },
        {
          "internalType": "bool",
          "name": "",
          "type": "bool"
        },
        {
          "internalType": "bool",
          "name": "",
          "type": "bool"
        }
      ],
      "stateMutability": "view",
      "type": "function"
    },
    {
      "inputs": [],
      "name": "minInitAmount",
      "outputs": [
        {
          "internalType": "uint256",
          "name": "",
          "type": "uint256"
        }
      ],
      "stateMutability": "view",
      "type": "function"
    },
    {
      "inputs": [],
      "name": "proposalCount",
      "outputs": [
        {
          "internalType": "uint256",
          "name": "",
          "type": "uint256"
        }
      ],
      "stateMutability": "view",
      "type": "function"
    },
    {
      "inputs": [
        {
          "internalType": "uint256",
          "name": "",
          "type": "uint256"
        }
      ],
      "name": "proposals",
      "outputs": [
        {
          "internalType": "address",
          "name": "proposedImplementation",
          "type": "address"
        },
        {
          "internalType": "uint256",
          "name": "amountFor",
          "type": "uint256"
        },
        {
          "internalType": "uint256",
          "name": "amountAgainst",
          "type": "uint256"
        },
        {
          "internalType": "uint256",
          "name": "expirationTime",
          "type": "uint256"
        },
        {
          "internalType": "bool",
          "name": "executed",
          "type": "bool"
        }
      ],
      "stateMutability": "view",
      "type": "function"
    },
    {
      "inputs": [
        {
          "internalType": "address",
          "name": "_proposedImplementation",
          "type": "address"
        }
      ],
      "name": "proposeFork",
      "outputs": [],
      "stateMutability": "payable",
      "type": "function"
    },
    {
      "inputs": [
        {
          "internalType": "uint256",
          "name": "_proposalId",
          "type": "uint256"
        },
        {
          "internalType": "bool",
          "name": "_for",
          "type": "bool"
        }
      ],
      "name": "vote",
      "outputs": [],
      "stateMutability": "payable",
      "type": "function"
    }
  ],
  "bytecode": {
    "object": "0x608060405234801561001057600080fd5b50604051610ab1380380610ab183398101604081905261002f9161005b565b600080546001600160a01b0319166001600160a01b03949094169390931790925560015560035561009c565b60008060006060848603121561006f578283fd5b83516001600160a01b0381168114610085578384fd5b602085015160409095015190969495509392505050565b610a06806100ab6000396000f3fe60806040526004361061009c5760003560e01c8063a3d4485b11610064578063a3d4485b1461021a578063c7f758a814610252578063c9d27afe146102aa578063da35c664146102bd578063dedfab72146102e1578063f5e0c69d146102f75761009c565b8063013cf08b146100a157806326b7d9f614610132578063379607f51461014757806368197360146101675780636f98d2a0146101fa575b600080fd5b3480156100ad57600080fd5b506100f96100bc3660046108d2565b6004602081905260009182526040909120805460018201546002830154600384015493909401546001600160a01b03909216939092909160ff1685565b604080516001600160a01b03909616865260208601949094529284019190915260608301521515608082015260a0015b60405180910390f35b6101456101403660046108b1565b61030d565b005b34801561015357600080fd5b506101456101623660046108d2565b6103db565b34801561017357600080fd5b506101d26101823660046108ea565b60009182526004602090815260408084206001600160a01b0393909316845260058301825280842080546006909401909252909220805460019384015493909101549193909260ff908116921690565b6040805194855260208501939093529015159183019190915215156060820152608001610129565b34801561020657600080fd5b506101456102153660046108d2565b6105e1565b34801561022657600080fd5b5060005461023a906001600160a01b031681565b6040516001600160a01b039091168152602001610129565b34801561025e57600080fd5b506100f961026d3660046108d2565b6000908152600460208190526040909120805460018201546002830154600384015493909401546001600160a01b03909216949093929160ff1690565b6101456102b8366004610915565b610701565b3480156102c957600080fd5b506102d360025481565b604051908152602001610129565b3480156102ed57600080fd5b506102d360035481565b34801561030357600080fd5b506102d360015481565b60015434101561035a5760405162461bcd60e51b81526020600482015260136024820152721a5b9cdd59999a58da595b9d08185b5bdd5b9d606a1b60448201526064015b60405180910390fd5b600254600090815260046020526040902080546001600160a01b0319166001600160a01b0383161781553460018201556003546103979042610948565b6003820155336000908152600582016020526040812080543492906103bd908490610948565b9091555050600280549060006103d28361099f565b91905055505050565b6000818152600460205260409020600381015442116104335760405162461bcd60e51b81526020600482015260146024820152731c1c9bdc1bdcd85b081b9bdd08195e1c1a5c995960621b6044820152606401610351565b600481015460ff166104765760405162461bcd60e51b815260206004820152600c60248201526b1b9bdd08195e1958dd5d195960a21b6044820152606401610351565b6000808260020154836001015411156104a3575050336000908152600582016020526040902060016104b7565b336000908152600684016020526040902091505b81546104ef5760405162461bcd60e51b81526020600482015260076024820152666e6f20766f746560c81b6044820152606401610351565b600182015460ff16156105365760405162461bcd60e51b815260206004820152600f60248201526e185b1c9958591e4818db185a5b5959608a1b6044820152606401610351565b6001828101805460ff191690911790556000811561057f578254600185015460028601546105649083610980565b61056e9190610960565b6105789190610948565b90506105ac565b8254600285015460018601546105959083610980565b61059f9190610960565b6105a99190610948565b90505b604051339082156108fc029083906000818181858888f193505050501580156105d9573d6000803e3d6000fd5b505050505050565b6000818152600460205260409020600381015442116106395760405162461bcd60e51b81526020600482015260146024820152731c1c9bdc1bdcd85b081b9bdd08195e1c1a5c995960621b6044820152606401610351565b600481015460ff16156106815760405162461bcd60e51b815260206004820152601060248201526f185b1c9958591e48195e1958dd5d195960821b6044820152606401610351565b60048101805460ff1916600190811790915560028201549082015411156106fd5760005481546040516296c8af60e21b81526001600160a01b03918216600482015291169063025b22bc90602401600060405180830381600087803b1580156106e957600080fd5b505af11580156105d9573d6000803e3d6000fd5b5050565b600034116107475760405162461bcd60e51b81526020600482015260136024820152721a5b9cdd59999a58da595b9d08185b5bdd5b9d606a1b6044820152606401610351565b60008281526004602052604090206003810154421061079b5760405162461bcd60e51b815260206004820152601060248201526f1c1c9bdc1bdcd85b08195e1c1a5c995960821b6044820152606401610351565b600281015460018201541182156107f157348260010160008282546107c09190610948565b9091555050336000908152600583016020526040812080543492906107e6908490610948565b909155506108319050565b348260020160008282546108059190610948565b90915550503360009081526006830160205260408120805434929061082b908490610948565b90915550505b80801561084657508160010154826002015410155b15610862576003546108589042610948565b600383015561088f565b80158015610877575081600201548260010154115b1561088f576003546108899042610948565b60038301555b50505050565b80356001600160a01b03811681146108ac57600080fd5b919050565b6000602082840312156108c2578081fd5b6108cb82610895565b9392505050565b6000602082840312156108e3578081fd5b5035919050565b600080604083850312156108fc578081fd5b8235915061090c60208401610895565b90509250929050565b60008060408385031215610927578182fd5b823591506020830135801515811461093d578182fd5b809150509250929050565b6000821982111561095b5761095b6109ba565b500190565b60008261097b57634e487b7160e01b81526012600452602481fd5b500490565b600081600019048311821515161561099a5761099a6109ba565b500290565b60006000198214156109b3576109b36109ba565b5060010190565b634e487b7160e01b600052601160045260246000fdfea2646970667358221220df4d22a9400419189693f425ae8e7a7a5fd707b3558fe637900c819be76f145664736f6c63430008030033",
    "linkReferences": {}
  },
  "methodIdentifiers": {
    "bridgeProxy()": "a3d4485b",
    "claim(uint256)": "379607f5",
    "executeFork(uint256)": "6f98d2a0",
    "extensionPeriod()": "dedfab72",
    "getProposal(uint256)": "c7f758a8",
    "getVotes(uint256,address)": "68197360",
    "minInitAmount()": "f5e0c69d",
    "proposalCount()": "da35c664",
    "proposals(uint256)": "013cf08b",
    "proposeFork(address)": "26b7d9f6",
    "vote(uint256,bool)": "c9d27afe"
  },
  "id": 18
}