{
  "abi": [
    {
      "inputs": [
        {
          "internalType": "address",
          "name": "_bridgeProxy",
          "type": "address"
        },
        {
          "internalType": "uint256",
          "name": "_minInitAmount",
          "type": "uint256"
        },
        {
          "internalType": "uint256",
          "name": "_submissionPeriod",
          "type": "uint256"
        },
        {
          "internalType": "uint256",
          "name": "_extensionPeriod",
          "type": "uint256"
        },
        {
          "internalType": "bool",
          "name": "_requireGuardianSignature",
          "type": "bool"
        },
        {
          "internalType": "address",
          "name": "_guardian",
          "type": "address"
        }
      ],
      "stateMutability": "nonpayable",
      "type": "constructor"
    },
    {
      "inputs": [],
      "name": "bridgeProxy",
      "outputs": [
        {
          "internalType": "contract IBridgeProxy",
          "name": "",
          "type": "address"
        }
      ],
      "stateMutability": "view",
      "type": "function"
    },
    {
      "inputs": [
        {
          "internalType": "uint256",
          "name": "_proposalId",
          "type": "uint256"
        }
      ],
      "name": "claim",
      "outputs": [],
      "stateMutability": "nonpayable",
      "type": "function"
    },
    {
      "inputs": [
        {
          "internalType": "uint256",
          "name": "_proposalId",
          "type": "uint256"
        }
      ],
      "name": "executeProposal",
      "outputs": [],
      "stateMutability": "nonpayable",
      "type": "function"
    },
    {
      "inputs": [],
      "name": "extensionPeriod",
      "outputs": [
        {
          "internalType": "uint256",
          "name": "",
          "type": "uint256"
        }
      ],
      "stateMutability": "view",
      "type": "function"
    },
    {
      "inputs": [
        {
          "internalType": "uint256",
          "name": "_proposalId",
          "type": "uint256"
        }
      ],
      "name": "getProposal",
      "outputs": [
        {
          "internalType": "address",
          "name": "",
          "type": "address"
        },
        {
          "internalType": "address",
          "name": "",
          "type": "address"
        },
        {
          "internalType": "uint256",
          "name": "",
          "type": "uint256"
        },
        {
          "internalType": "uint256",
          "name": "",
          "type": "uint256"
        },
        {
          "internalType": "uint256",
          "name": "",
          "type": "uint256"
        },
        {
          "internalType": "uint256",
          "name": "",
          "type": "uint256"
        },
        {
          "internalType": "bool",
          "name": "",
          "type": "bool"
        },
        {
          "internalType": "bool",
          "name": "",
          "type": "bool"
        },
        {
          "internalType": "enum SimpleSchelling.ProposalOutcome",
          "name": "",
          "type": "uint8"
        }
      ],
      "stateMutability": "view",
      "type": "function"
    },
    {
      "inputs": [
        {
          "internalType": "uint256",
          "name": "_proposalId",
          "type": "uint256"
        },
        {
          "internalType": "address",
          "name": "_voter",
          "type": "address"
        }
      ],
      "name": "getVotes",
      "outputs": [
        {
          "internalType": "uint256",
          "name": "",
          "type": "uint256"
        },
        {
          "internalType": "uint256",
          "name": "",
          "type": "uint256"
        }
      ],
      "stateMutability": "view",
      "type": "function"
    },
    {
      "inputs": [],
      "name": "guardian",
      "outputs": [
        {
          "internalType": "address",
          "name": "",
          "type": "address"
        }
      ],
      "stateMutability": "view",
      "type": "function"
    },
    {
      "inputs": [
        {
          "internalType": "uint256",
          "name": "_proposalId",
          "type": "uint256"
        }
      ],
      "name": "guardianPauseBridge",
      "outputs": [],
      "stateMutability": "nonpayable",
      "type": "function"
    },
    {
      "inputs": [],
      "name": "minInitAmount",
      "outputs": [
        {
          "internalType": "uint256",
          "name": "",
          "type": "uint256"
        }
      ],
      "stateMutability": "view",
      "type": "function"
    },
    {
      "inputs": [],
      "name": "pauseBridge",
      "outputs": [],
      "stateMutability": "payable",
      "type": "function"
    },
    {
      "inputs": [],
      "name": "proposalCount",
      "outputs": [
        {
          "internalType": "uint256",
          "name": "",
          "type": "uint256"
        }
      ],
      "stateMutability": "view",
      "type": "function"
    },
    {
      "inputs": [
        {
          "internalType": "uint256",
          "name": "",
          "type": "uint256"
        }
      ],
      "name": "proposals",
      "outputs": [
        {
          "internalType": "address",
          "name": "initiator",
          "type": "address"
        },
        {
          "internalType": "address",
          "name": "proposedImplementation",
          "type": "address"
        },
        {
          "internalType": "uint256",
          "name": "amountFor",
          "type": "uint256"
        },
        {
          "internalType": "uint256",
          "name": "amountAgainst",
          "type": "uint256"
        },
        {
          "internalType": "uint256",
          "name": "submissionDeadline",
          "type": "uint256"
        },
        {
          "internalType": "uint256",
          "name": "expirationTime",
          "type": "uint256"
        },
        {
          "internalType": "bool",
          "name": "executed",
          "type": "bool"
        },
        {
          "internalType": "bool",
          "name": "guardianSigned",
          "type": "bool"
        },
        {
          "internalType": "enum SimpleSchelling.ProposalOutcome",
          "name": "outcome",
          "type": "uint8"
        }
      ],
      "stateMutability": "view",
      "type": "function"
    },
    {
      "inputs": [],
      "name": "requireGuardianSignature",
      "outputs": [
        {
          "internalType": "bool",
          "name": "",
          "type": "bool"
        }
      ],
      "stateMutability": "view",
      "type": "function"
    },
    {
      "inputs": [],
      "name": "submissionPeriod",
      "outputs": [
        {
          "internalType": "uint256",
          "name": "",
          "type": "uint256"
        }
      ],
      "stateMutability": "view",
      "type": "function"
    },
    {
      "inputs": [
        {
          "internalType": "uint256",
          "name": "_proposalId",
          "type": "uint256"
        },
        {
          "internalType": "address",
          "name": "_proposedImplementation",
          "type": "address"
        }
      ],
      "name": "submitImplementation",
      "outputs": [],
      "stateMutability": "nonpayable",
      "type": "function"
    },
    {
      "inputs": [],
      "name": "throwAwayGuardianship",
      "outputs": [],
      "stateMutability": "nonpayable",
      "type": "function"
    },
    {
      "inputs": [
        {
          "internalType": "address",
          "name": "_newGuardian",
          "type": "address"
        }
      ],
      "name": "transferGuardianship",
      "outputs": [],
      "stateMutability": "nonpayable",
      "type": "function"
    },
    {
      "inputs": [
        {
          "internalType": "uint256",
          "name": "_proposalId",
          "type": "uint256"
        },
        {
          "internalType": "bool",
          "name": "_for",
          "type": "bool"
        }
      ],
      "name": "updateVote",
      "outputs": [],
      "stateMutability": "nonpayable",
      "type": "function"
    },
    {
      "inputs": [
        {
          "internalType": "uint256",
          "name": "_proposalId",
          "type": "uint256"
        },
        {
          "internalType": "bool",
          "name": "_for",
          "type": "bool"
        }
      ],
      "name": "vote",
      "outputs": [],
      "stateMutability": "payable",
      "type": "function"
    }
  ],
  "bytecode": {
    "object": "0x608060405234801561001057600080fd5b506040516200157738038062001577833981016040819052610031916100a7565b600080546001600160a01b039788166001600160a01b0319918216179091556001959095556003939093556004919091556005805492909416901515600160a01b029092166001600160a81b03199091161717905561010b565b80516001600160a01b03811681146100a257600080fd5b919050565b60008060008060008060c087890312156100bf578182fd5b6100c88761008b565b9550602087015194506040870151935060608701519250608087015180151581146100f1578283fd5b91506100ff60a0880161008b565b90509295509295509295565b61145c806200011b6000396000f3fe6080604052600436106101145760003560e01c80637dd0480f116100a0578063c9d27afe11610064578063c9d27afe14610408578063d989ae971461041b578063da35c6641461043b578063dedfab7214610451578063f5e0c69d1461046757610114565b80637dd0480f1461030f5780639cef424014610317578063a3d4485b14610337578063c1427fe114610357578063c7f758a81461038857610114565b8063379607f5116100e7578063379607f51461020e578063452a93201461022e578063489d6dac1461026657806368197360146102865780636cfa68df146102ef57610114565b8063013cf08b146101195780630d61b519146101b3578063185fde7e146101d55780631f8ab0f1146101f9575b600080fd5b34801561012557600080fd5b5061019561013436600461123c565b600660208190526000918252604090912080546001820154600283015460038401546004850154600586015495909601546001600160a01b0394851696939094169491939092919060ff808216916101008104821691620100009091041689565b6040516101aa999897969594939291906112ae565b60405180910390f35b3480156101bf57600080fd5b506101d36101ce36600461123c565b61047d565b005b3480156101e157600080fd5b506101eb60035481565b6040519081526020016101aa565b34801561020557600080fd5b506101d36106e7565b34801561021a57600080fd5b506101d361022936600461123c565b610723565b34801561023a57600080fd5b5060055461024e906001600160a01b031681565b6040516001600160a01b0390911681526020016101aa565b34801561027257600080fd5b506101d361028136600461127f565b610942565b34801561029257600080fd5b506102da6102a1366004611254565b60009182526006602090815260408084206001600160a01b03939093168452600783018252808420546008909301909152909120549091565b604080519283526020830191909152016101aa565b3480156102fb57600080fd5b506101d361030a36600461123c565b610b15565b6101d3610d16565b34801561032357600080fd5b506101d36103323660046111ff565b610f6b565b34801561034357600080fd5b5060005461024e906001600160a01b031681565b34801561036357600080fd5b5060055461037890600160a01b900460ff1681565b60405190151581526020016101aa565b34801561039457600080fd5b506101956103a336600461123c565b600090815260066020819052604090912080546001820154600283015460038401546004850154600586015495909601546001600160a01b03948516979490931695919490939192909160ff8083169261010081048216926201000090910490911690565b6101d361041636600461127f565b610fb7565b34801561042757600080fd5b506101d3610436366004611254565b611145565b34801561044757600080fd5b506101eb60025481565b34801561045d57600080fd5b506101eb60045481565b34801561047357600080fd5b506101eb60015481565b6000818152600660205260409020600481015442116104e35760405162461bcd60e51b815260206004820152601d60248201527f7375626d697373696f6e20706572696f64206e6f74206578706972656400000060448201526064015b60405180910390fd5b600681015460ff161561052b5760405162461bcd60e51b815260206004820152601060248201526f185b1c9958591e48195e1958dd5d195960821b60448201526064016104da565b600554600160a01b900460ff16801561054d57506006810154610100900460ff165b806105625750600554600160a01b900460ff16155b1561066c57428160050154106105b15760405162461bcd60e51b81526020600482015260146024820152731c1c9bdc1bdcd85b081b9bdd08195e1c1a5c995960621b60448201526064016104da565b806003015481600201541180156105d4575060018101546001600160a01b031615155b156106535760005460018201546040516296c8af60e21b81526001600160a01b03918216600482015291169063025b22bc90602401600060405180830381600087803b15801561062357600080fd5b505af1158015610637573d6000803e3d6000fd5b5050505060068101805462ff0000191662010000179055610667565b60068101805462ff00001916620200001790555b61067b565b60068101805462ff0000191690555b60068101805460ff191660011790556000805460408051632a0bc50f60e21b815290516001600160a01b039092169263a82f143c9260048084019382900301818387803b1580156106cb57600080fd5b505af11580156106df573d6000803e3d6000fd5b505050505050565b6005546001600160a01b031633146107115760405162461bcd60e51b81526004016104da90611326565b600580546001600160a81b0319169055565b60008181526006602081905260409091209081015460ff166107765760405162461bcd60e51b815260206004820152600c60248201526b1b9bdd08195e1958dd5d195960a21b60448201526064016104da565b600080600683015462010000900460ff1660028111156107a657634e487b7160e01b600052602160045260246000fd5b14156107fe5733600090815260088301602090815260408083205460078601909252909120546107d69190611376565b33600090815260078401602090815260408083208390556008860190915281205590506108d5565b6001600683015462010000900460ff16600281111561082d57634e487b7160e01b600052602160045260246000fd5b1415610886573360009081526007830160205260409020546002830154600384015461085990836113ae565b610863919061138e565b61086d9190611376565b33600090815260078401602052604081205590506108d5565b336000908152600883016020526040902054600383015460028401546108ac90836113ae565b6108b6919061138e565b6108c09190611376565b33600090815260088401602052604081205590505b6000811161090f5760405162461bcd60e51b81526020600482015260076024820152666e6f20766f746560c81b60448201526064016104da565b604051339082156108fc029083906000818181858888f1935050505015801561093c573d6000803e3d6000fd5b50505050565b600082815260066020526040902080546001600160a01b03163314156109aa5760405162461bcd60e51b815260206004820152601c60248201527f696e69746961746f722063616e6e6f742075706461746520766f74650000000060448201526064016104da565b428160050154116109cd5760405162461bcd60e51b81526004016104da9061134c565b60008215610a5a5750336000908152600882016020526040812054600283018054919283926109fd908490611376565b909155505033600090815260078301602052604081208054839290610a23908490611376565b9250508190555080826003016000828254610a3e91906113cd565b9091555050336000908152600883016020526040812055610adb565b5033600090815260078201602052604081205460038301805491928392610a82908490611376565b909155505033600090815260088301602052604081208054839290610aa8908490611376565b9250508190555080826002016000828254610ac391906113cd565b90915550503360009081526007830160205260408120555b6000811161093c5760405162461bcd60e51b81526020600482015260076024820152666e6f20766f746560c81b60448201526064016104da565b6005546001600160a01b03163314610b3f5760405162461bcd60e51b81526004016104da90611326565b600554600160a01b900460ff16610b985760405162461bcd60e51b815260206004820152601f60248201527f677561726469616e207369676e6174757265206e6f742072657175697265640060448201526064016104da565b60008054906101000a90046001600160a01b03166001600160a01b0316635c975abb6040518163ffffffff1660e01b8152600401602060405180830381600087803b158015610be657600080fd5b505af1158015610bfa573d6000803e3d6000fd5b505050506040513d601f19601f82011682018060405250810190610c1e9190611220565b15610c635760405162461bcd60e51b8152602060048201526015602482015274189c9a5919d948185b1c9958591e481c185d5cd959605a1b60448201526064016104da565b600081815260066020526040902060048101544210610cc45760405162461bcd60e51b815260206004820152601960248201527f7375626d697373696f6e20706572696f6420657870697265640000000000000060448201526064016104da565b60068101805461ff0019166101001790556000805460408051637dd0480f60e01b815290516001600160a01b0390921692637dd0480f9260048084019382900301818387803b1580156106cb57600080fd5b600154341015610d5e5760405162461bcd60e51b81526020600482015260136024820152721a5b9cdd59999a58da595b9d08185b5bdd5b9d606a1b60448201526064016104da565b60008054906101000a90046001600160a01b03166001600160a01b0316635c975abb6040518163ffffffff1660e01b8152600401602060405180830381600087803b158015610dac57600080fd5b505af1158015610dc0573d6000803e3d6000fd5b505050506040513d601f19601f82011682018060405250810190610de49190611220565b15610e295760405162461bcd60e51b8152602060048201526015602482015274189c9a5919d948185b1c9958591e481c185d5cd959605a1b60448201526064016104da565b6002546000908152600660205260408120600154909190610e4c90600a9061138e565b82546001600160a01b031916331783559050610e6881346113cd565b6002830155600354610e7a9042611376565b826004018190555060035460045442610e939190611376565b610e9d9190611376565b6005830155610eac81346113cd565b33600090815260078401602052604081208054909190610ecd908490611376565b909155505060028054906000610ee2836113e4565b909155505060405160009082156108fc0290839083818181858288f19350505050158015610f14573d6000803e3d6000fd5b50600554600160a01b900460ff16610f67576000805460408051637dd0480f60e01b815290516001600160a01b0390921692637dd0480f9260048084019382900301818387803b1580156106cb57600080fd5b5050565b6005546001600160a01b03163314610f955760405162461bcd60e51b81526004016104da90611326565b600580546001600160a01b0319166001600160a01b0392909216919091179055565b60003411610ffd5760405162461bcd60e51b81526020600482015260136024820152721a5b9cdd59999a58da595b9d08185b5bdd5b9d606a1b60448201526064016104da565b60008281526006602052604090206005810154421061102e5760405162461bcd60e51b81526004016104da9061134c565b6003810154600282015411821561108457348260020160008282546110539190611376565b909155505033600090815260078301602052604081208054349290611079908490611376565b909155506110c49050565b348260030160008282546110989190611376565b9091555050336000908152600883016020526040812080543492906110be908490611376565b90915550505b8080156110d957508160020154826003015410155b80156110e85750428260040154105b15611104576004546110fa9042611376565b600583015561093c565b80158015611119575081600301548260020154115b80156111285750428260040154105b1561093c5760045461113a9042611376565b600583015550505050565b600082815260066020526040902080546001600160a01b0316331461119c5760405162461bcd60e51b815260206004820152600d60248201526c3737ba1034b734ba34b0ba37b960991b60448201526064016104da565b428160040154116111bf5760405162461bcd60e51b81526004016104da9061134c565b60010180546001600160a01b0319166001600160a01b039290921691909117905550565b80356001600160a01b03811681146111fa57600080fd5b919050565b600060208284031215611210578081fd5b611219826111e3565b9392505050565b600060208284031215611231578081fd5b815161121981611415565b60006020828403121561124d578081fd5b5035919050565b60008060408385031215611266578081fd5b82359150611276602084016111e3565b90509250929050565b60008060408385031215611291578182fd5b8235915060208301356112a381611415565b809150509250929050565b6001600160a01b038a811682528916602082015260408101889052606081018790526080810186905260a0810185905283151560c082015282151560e082015261012081016003831061131157634e487b7160e01b600052602160045260246000fd5b826101008301529a9950505050505050505050565b6020808252600c908201526b3737ba1033bab0b93234b0b760a11b604082015260600190565b60208082526010908201526f1c1c9bdc1bdcd85b08195e1c1a5c995960821b604082015260600190565b60008219821115611389576113896113ff565b500190565b6000826113a957634e487b7160e01b81526012600452602481fd5b500490565b60008160001904831182151516156113c8576113c86113ff565b500290565b6000828210156113df576113df6113ff565b500390565b60006000198214156113f8576113f86113ff565b5060010190565b634e487b7160e01b600052601160045260246000fd5b801515811461142357600080fd5b5056fea264697066735822122098a1ae4253bee714cdbbb8f3fe07a2bc7d42489574884eabccc173e9e311355564736f6c63430008030033",
    "linkReferences": {}
  },
  "methodIdentifiers": {
    "bridgeProxy()": "a3d4485b",
    "claim(uint256)": "379607f5",
    "executeProposal(uint256)": "0d61b519",
    "extensionPeriod()": "dedfab72",
    "getProposal(uint256)": "c7f758a8",
    "getVotes(uint256,address)": "68197360",
    "guardian()": "452a9320",
    "guardianPauseBridge(uint256)": "6cfa68df",
    "minInitAmount()": "f5e0c69d",
    "pauseBridge()": "7dd0480f",
    "proposalCount()": "da35c664",
    "proposals(uint256)": "013cf08b",
    "requireGuardianSignature()": "c1427fe1",
    "submissionPeriod()": "185fde7e",
    "submitImplementation(uint256,address)": "d989ae97",
    "throwAwayGuardianship()": "1f8ab0f1",
    "transferGuardianship(address)": "9cef4240",
    "updateVote(uint256,bool)": "489d6dac",
    "vote(uint256,bool)": "c9d27afe"
  },
  "id": 18
}