{
  "abi": [
    {
      "inputs": [
        {
          "internalType": "address",
          "name": "_bridgeProxy",
          "type": "address"
        },
        {
          "internalType": "uint256",
          "name": "_minInitAmount",
          "type": "uint256"
        },
        {
          "internalType": "uint256",
          "name": "_submissionPeriod",
          "type": "uint256"
        },
        {
          "internalType": "uint256",
          "name": "_extensionPeriod",
          "type": "uint256"
        },
        {
          "internalType": "bool",
          "name": "_requireGuardianSignature",
          "type": "bool"
        },
        {
          "internalType": "address",
          "name": "_guardian",
          "type": "address"
        }
      ],
      "stateMutability": "nonpayable",
      "type": "constructor"
    },
    {
      "inputs": [],
      "name": "bridgeProxy",
      "outputs": [
        {
          "internalType": "contract IBridgeProxy",
          "name": "",
          "type": "address"
        }
      ],
      "stateMutability": "view",
      "type": "function"
    },
    {
      "inputs": [
        {
          "internalType": "uint256",
          "name": "_proposalId",
          "type": "uint256"
        }
      ],
      "name": "claim",
      "outputs": [],
      "stateMutability": "nonpayable",
      "type": "function"
    },
    {
      "inputs": [
        {
          "internalType": "uint256",
          "name": "_proposalId",
          "type": "uint256"
        }
      ],
      "name": "executeProposal",
      "outputs": [],
      "stateMutability": "nonpayable",
      "type": "function"
    },
    {
      "inputs": [],
      "name": "extensionPeriod",
      "outputs": [
        {
          "internalType": "uint256",
          "name": "",
          "type": "uint256"
        }
      ],
      "stateMutability": "view",
      "type": "function"
    },
    {
      "inputs": [
        {
          "internalType": "uint256",
          "name": "_proposalId",
          "type": "uint256"
        }
      ],
      "name": "getProposal",
      "outputs": [
        {
          "internalType": "address",
          "name": "",
          "type": "address"
        },
        {
          "internalType": "address",
          "name": "",
          "type": "address"
        },
        {
          "internalType": "uint256",
          "name": "",
          "type": "uint256"
        },
        {
          "internalType": "uint256",
          "name": "",
          "type": "uint256"
        },
        {
          "internalType": "uint256",
          "name": "",
          "type": "uint256"
        },
        {
          "internalType": "uint256",
          "name": "",
          "type": "uint256"
        },
        {
          "internalType": "bool",
          "name": "",
          "type": "bool"
        },
        {
          "internalType": "bool",
          "name": "",
          "type": "bool"
        },
        {
          "internalType": "enum SimpleSchelling.ProposalOutcome",
          "name": "",
          "type": "uint8"
        }
      ],
      "stateMutability": "view",
      "type": "function"
    },
    {
      "inputs": [
        {
          "internalType": "uint256",
          "name": "_proposalId",
          "type": "uint256"
        },
        {
          "internalType": "address",
          "name": "_voter",
          "type": "address"
        }
      ],
      "name": "getVotes",
      "outputs": [
        {
          "internalType": "uint256",
          "name": "",
          "type": "uint256"
        },
        {
          "internalType": "uint256",
          "name": "",
          "type": "uint256"
        }
      ],
      "stateMutability": "view",
      "type": "function"
    },
    {
      "inputs": [],
      "name": "guardian",
      "outputs": [
        {
          "internalType": "address",
          "name": "",
          "type": "address"
        }
      ],
      "stateMutability": "view",
      "type": "function"
    },
    {
      "inputs": [
        {
          "internalType": "uint256",
          "name": "_proposalId",
          "type": "uint256"
        }
      ],
      "name": "guardianPauseBridge",
      "outputs": [],
      "stateMutability": "nonpayable",
      "type": "function"
    },
    {
      "inputs": [],
      "name": "initiateProposal",
      "outputs": [],
      "stateMutability": "payable",
      "type": "function"
    },
    {
      "inputs": [],
      "name": "minInitAmount",
      "outputs": [
        {
          "internalType": "uint256",
          "name": "",
          "type": "uint256"
        }
      ],
      "stateMutability": "view",
      "type": "function"
    },
    {
      "inputs": [],
      "name": "proposalCount",
      "outputs": [
        {
          "internalType": "uint256",
          "name": "",
          "type": "uint256"
        }
      ],
      "stateMutability": "view",
      "type": "function"
    },
    {
      "inputs": [
        {
          "internalType": "uint256",
          "name": "",
          "type": "uint256"
        }
      ],
      "name": "proposals",
      "outputs": [
        {
          "internalType": "address",
          "name": "initiator",
          "type": "address"
        },
        {
          "internalType": "address",
          "name": "proposedImplementation",
          "type": "address"
        },
        {
          "internalType": "uint256",
          "name": "amountFor",
          "type": "uint256"
        },
        {
          "internalType": "uint256",
          "name": "amountAgainst",
          "type": "uint256"
        },
        {
          "internalType": "uint256",
          "name": "submissionDeadline",
          "type": "uint256"
        },
        {
          "internalType": "uint256",
          "name": "expirationTime",
          "type": "uint256"
        },
        {
          "internalType": "bool",
          "name": "executed",
          "type": "bool"
        },
        {
          "internalType": "bool",
          "name": "guardianSigned",
          "type": "bool"
        },
        {
          "internalType": "enum SimpleSchelling.ProposalOutcome",
          "name": "outcome",
          "type": "uint8"
        }
      ],
      "stateMutability": "view",
      "type": "function"
    },
    {
      "inputs": [],
      "name": "requireGuardianSignature",
      "outputs": [
        {
          "internalType": "bool",
          "name": "",
          "type": "bool"
        }
      ],
      "stateMutability": "view",
      "type": "function"
    },
    {
      "inputs": [],
      "name": "submissionPeriod",
      "outputs": [
        {
          "internalType": "uint256",
          "name": "",
          "type": "uint256"
        }
      ],
      "stateMutability": "view",
      "type": "function"
    },
    {
      "inputs": [
        {
          "internalType": "uint256",
          "name": "_proposalId",
          "type": "uint256"
        },
        {
          "internalType": "address",
          "name": "_proposedImplementation",
          "type": "address"
        }
      ],
      "name": "submitImplementation",
      "outputs": [],
      "stateMutability": "nonpayable",
      "type": "function"
    },
    {
      "inputs": [],
      "name": "throwAwayGuardianship",
      "outputs": [],
      "stateMutability": "nonpayable",
      "type": "function"
    },
    {
      "inputs": [
        {
          "internalType": "address",
          "name": "_newGuardian",
          "type": "address"
        }
      ],
      "name": "transferGuardianship",
      "outputs": [],
      "stateMutability": "nonpayable",
      "type": "function"
    },
    {
      "inputs": [
        {
          "internalType": "uint256",
          "name": "_proposalId",
          "type": "uint256"
        },
        {
          "internalType": "bool",
          "name": "_for",
          "type": "bool"
        }
      ],
      "name": "updateVote",
      "outputs": [],
      "stateMutability": "nonpayable",
      "type": "function"
    },
    {
      "inputs": [
        {
          "internalType": "uint256",
          "name": "_proposalId",
          "type": "uint256"
        },
        {
          "internalType": "bool",
          "name": "_for",
          "type": "bool"
        }
      ],
      "name": "vote",
      "outputs": [],
      "stateMutability": "payable",
      "type": "function"
    }
  ],
  "bytecode": {
    "object": "0x60806040523480156200001157600080fd5b50604051620016fd380380620016fd8339810160408190526200003491620000ac565b600080546001600160a01b039788166001600160a01b0319918216179091556001959095556003939093556004919091556005805492909416901515600160a01b029092166001600160a81b03199091161717905562000116565b80516001600160a01b0381168114620000a757600080fd5b919050565b60008060008060008060c08789031215620000c5578182fd5b620000d0876200008f565b955060208701519450604087015193506060870151925060808701518015158114620000fa578283fd5b91506200010a60a088016200008f565b90509295509295509295565b6115d780620001266000396000f3fe6080604052600436106101145760003560e01c80637820f78d116100a0578063c9d27afe11610064578063c9d27afe14610408578063d989ae971461041b578063da35c6641461043b578063dedfab7214610451578063f5e0c69d1461046757610114565b80637820f78d1461030f5780639cef424014610317578063a3d4485b14610337578063c1427fe114610357578063c7f758a81461038857610114565b8063379607f5116100e7578063379607f51461020e578063452a93201461022e578063489d6dac1461026657806368197360146102865780636cfa68df146102ef57610114565b8063013cf08b146101195780630d61b519146101b3578063185fde7e146101d55780631f8ab0f1146101f9575b600080fd5b34801561012557600080fd5b506101956101343660046113b7565b600660208190526000918252604090912080546001820154600283015460038401546004850154600586015495909601546001600160a01b0394851696939094169491939092919060ff808216916101008104821691620100009091041689565b6040516101aa99989796959493929190611429565b60405180910390f35b3480156101bf57600080fd5b506101d36101ce3660046113b7565b61047d565b005b3480156101e157600080fd5b506101eb60035481565b6040519081526020016101aa565b34801561020557600080fd5b506101d36106e5565b34801561021a57600080fd5b506101d36102293660046113b7565b610721565b34801561023a57600080fd5b5060055461024e906001600160a01b031681565b6040516001600160a01b0390911681526020016101aa565b34801561027257600080fd5b506101d36102813660046113fa565b610940565b34801561029257600080fd5b506102da6102a13660046113cf565b60009182526006602090815260408084206001600160a01b03939093168452600783018252808420546008909301909152909120549091565b604080519283526020830191909152016101aa565b3480156102fb57600080fd5b506101d361030a3660046113b7565b610c2b565b6101d3610e48565b34801561032357600080fd5b506101d361033236600461137a565b61109d565b34801561034357600080fd5b5060005461024e906001600160a01b031681565b34801561036357600080fd5b5060055461037890600160a01b900460ff1681565b60405190151581526020016101aa565b34801561039457600080fd5b506101956103a33660046113b7565b600090815260066020819052604090912080546001820154600283015460038401546004850154600586015495909601546001600160a01b03948516979490931695919490939192909160ff8083169261010081048216926201000090910490911690565b6101d36104163660046113fa565b6110e9565b34801561042757600080fd5b506101d36104363660046113cf565b611277565b34801561044757600080fd5b506101eb60025481565b34801561045d57600080fd5b506101eb60045481565b34801561047357600080fd5b506101eb60015481565b6000818152600660205260409020600481015442116104e35760405162461bcd60e51b815260206004820152601d60248201527f7375626d697373696f6e20706572696f64206e6f74206578706972656400000060448201526064015b60405180910390fd5b600681015460ff161561052b5760405162461bcd60e51b815260206004820152601060248201526f185b1c9958591e48195e1958dd5d195960821b60448201526064016104da565b600554600160a01b900460ff16801561054d57506006810154610100900460ff165b806105625750600554600160a01b900460ff16155b156106c557428160050154106105b15760405162461bcd60e51b81526020600482015260146024820152731c1c9bdc1bdcd85b081b9bdd08195e1c1a5c995960621b60448201526064016104da565b806003015481600201541180156105d4575060018101546001600160a01b031615155b156106535760005460018201546040516296c8af60e21b81526001600160a01b03918216600482015291169063025b22bc90602401600060405180830381600087803b15801561062357600080fd5b505af1158015610637573d6000803e3d6000fd5b5050505060068101805462ff0000191662010000179055610667565b60068101805462ff00001916620200001790555b6000805460408051632a0bc50f60e21b815290516001600160a01b039092169263a82f143c9260048084019382900301818387803b1580156106a857600080fd5b505af11580156106bc573d6000803e3d6000fd5b505050506106d4565b60068101805462ff0000191690555b600601805460ff1916600117905550565b6005546001600160a01b0316331461070f5760405162461bcd60e51b81526004016104da906114a1565b600580546001600160a81b0319169055565b60008181526006602081905260409091209081015460ff166107745760405162461bcd60e51b815260206004820152600c60248201526b1b9bdd08195e1958dd5d195960a21b60448201526064016104da565b600080600683015462010000900460ff1660028111156107a457634e487b7160e01b600052602160045260246000fd5b14156107fc5733600090815260088301602090815260408083205460078601909252909120546107d491906114f1565b33600090815260078401602090815260408083208390556008860190915281205590506108d3565b6001600683015462010000900460ff16600281111561082b57634e487b7160e01b600052602160045260246000fd5b141561088457336000908152600783016020526040902054600283015460038401546108579083611529565b6108619190611509565b61086b91906114f1565b33600090815260078401602052604081205590506108d3565b336000908152600883016020526040902054600383015460028401546108aa9083611529565b6108b49190611509565b6108be91906114f1565b33600090815260088401602052604081205590505b6000811161090d5760405162461bcd60e51b81526020600482015260076024820152666e6f20766f746560c81b60448201526064016104da565b604051339082156108fc029083906000818181858888f1935050505015801561093a573d6000803e3d6000fd5b50505050565b600082815260066020526040902080546001600160a01b03163314156109a85760405162461bcd60e51b815260206004820152601c60248201527f696e69746961746f722063616e6e6f742075706461746520766f74650000000060448201526064016104da565b428160050154116109cb5760405162461bcd60e51b81526004016104da906114c7565b600381015460028201546000918291118415610a92573360009081526008850160205260409020546109ff90600a90611509565b336000908152600886016020526040902054909250610a1f908390611548565b925082846002016000828254610a3591906114f1565b909155505033600090815260078501602052604081208054859290610a5b9084906114f1565b9250508190555082846003016000828254610a769190611548565b9091555050336000908152600885016020526040812055610b3f565b336000908152600785016020526040902054610ab090600a90611509565b336000908152600786016020526040902054909250610ad0908390611548565b925082846003016000828254610ae691906114f1565b909155505033600090815260088501602052604081208054859290610b0c9084906114f1565b9250508190555082846002016000828254610b279190611548565b90915550503360009081526007850160205260408120555b60008311610b795760405162461bcd60e51b81526020600482015260076024820152666e6f20766f746560c81b60448201526064016104da565b808015610b8e57508360020154846003015410155b8015610b9d5750428460040154105b15610bb957600454610baf90426114f1565b6005850155610bf5565b80158015610bce575083600301548460020154115b8015610bdd5750428460040154105b15610bf557600454610bef90426114f1565b60058501555b60405160009083156108fc0290849083818181858288f19350505050158015610c22573d6000803e3d6000fd5b50505050505050565b6005546001600160a01b03163314610c555760405162461bcd60e51b81526004016104da906114a1565b600554600160a01b900460ff16610cae5760405162461bcd60e51b815260206004820152601f60248201527f677561726469616e207369676e6174757265206e6f742072657175697265640060448201526064016104da565b60008054906101000a90046001600160a01b03166001600160a01b0316635c975abb6040518163ffffffff1660e01b8152600401602060405180830381600087803b158015610cfc57600080fd5b505af1158015610d10573d6000803e3d6000fd5b505050506040513d601f19601f82011682018060405250810190610d34919061139b565b15610d795760405162461bcd60e51b8152602060048201526015602482015274189c9a5919d948185b1c9958591e481c185d5cd959605a1b60448201526064016104da565b600081815260066020526040902060048101544210610dda5760405162461bcd60e51b815260206004820152601960248201527f7375626d697373696f6e20706572696f6420657870697265640000000000000060448201526064016104da565b60068101805461ff0019166101001790556000805460408051637dd0480f60e01b815290516001600160a01b0390921692637dd0480f9260048084019382900301818387803b158015610e2c57600080fd5b505af1158015610e40573d6000803e3d6000fd5b505050505050565b600154341015610e905760405162461bcd60e51b81526020600482015260136024820152721a5b9cdd59999a58da595b9d08185b5bdd5b9d606a1b60448201526064016104da565b60008054906101000a90046001600160a01b03166001600160a01b0316635c975abb6040518163ffffffff1660e01b8152600401602060405180830381600087803b158015610ede57600080fd5b505af1158015610ef2573d6000803e3d6000fd5b505050506040513d601f19601f82011682018060405250810190610f16919061139b565b15610f5b5760405162461bcd60e51b8152602060048201526015602482015274189c9a5919d948185b1c9958591e481c185d5cd959605a1b60448201526064016104da565b6002546000908152600660205260408120600154909190610f7e90600a90611509565b82546001600160a01b031916331783559050610f9a8134611548565b6002830155600354610fac90426114f1565b826004018190555060035460045442610fc591906114f1565b610fcf91906114f1565b6005830155610fde8134611548565b33600090815260078401602052604081208054909190610fff9084906114f1565b9091555050600280549060006110148361155f565b909155505060405160009082156108fc0290839083818181858288f19350505050158015611046573d6000803e3d6000fd5b50600554600160a01b900460ff16611099576000805460408051637dd0480f60e01b815290516001600160a01b0390921692637dd0480f9260048084019382900301818387803b158015610e2c57600080fd5b5050565b6005546001600160a01b031633146110c75760405162461bcd60e51b81526004016104da906114a1565b600580546001600160a01b0319166001600160a01b0392909216919091179055565b6000341161112f5760405162461bcd60e51b81526020600482015260136024820152721a5b9cdd59999a58da595b9d08185b5bdd5b9d606a1b60448201526064016104da565b6000828152600660205260409020600581015442106111605760405162461bcd60e51b81526004016104da906114c7565b600381015460028201541182156111b6573482600201600082825461118591906114f1565b9091555050336000908152600783016020526040812080543492906111ab9084906114f1565b909155506111f69050565b348260030160008282546111ca91906114f1565b9091555050336000908152600883016020526040812080543492906111f09084906114f1565b90915550505b80801561120b57508160020154826003015410155b801561121a5750428260040154105b156112365760045461122c90426114f1565b600583015561093a565b8015801561124b575081600301548260020154115b801561125a5750428260040154105b1561093a5760045461126c90426114f1565b600583015550505050565b600082815260066020526040902080546001600160a01b031633146112ce5760405162461bcd60e51b815260206004820152600d60248201526c3737ba1034b734ba34b0ba37b960991b60448201526064016104da565b60018101546001600160a01b0316156113175760405162461bcd60e51b815260206004820152600b60248201526a185b1c9958591e481cd95d60aa1b60448201526064016104da565b4281600401541161133a5760405162461bcd60e51b81526004016104da906114c7565b60010180546001600160a01b0319166001600160a01b039290921691909117905550565b80356001600160a01b038116811461137557600080fd5b919050565b60006020828403121561138b578081fd5b6113948261135e565b9392505050565b6000602082840312156113ac578081fd5b815161139481611590565b6000602082840312156113c8578081fd5b5035919050565b600080604083850312156113e1578081fd5b823591506113f16020840161135e565b90509250929050565b6000806040838503121561140c578182fd5b82359150602083013561141e81611590565b809150509250929050565b6001600160a01b038a811682528916602082015260408101889052606081018790526080810186905260a0810185905283151560c082015282151560e082015261012081016003831061148c57634e487b7160e01b600052602160045260246000fd5b826101008301529a9950505050505050505050565b6020808252600c908201526b3737ba1033bab0b93234b0b760a11b604082015260600190565b60208082526010908201526f1c1c9bdc1bdcd85b08195e1c1a5c995960821b604082015260600190565b600082198211156115045761150461157a565b500190565b60008261152457634e487b7160e01b81526012600452602481fd5b500490565b60008160001904831182151516156115435761154361157a565b500290565b60008282101561155a5761155a61157a565b500390565b60006000198214156115735761157361157a565b5060010190565b634e487b7160e01b600052601160045260246000fd5b801515811461159e57600080fd5b5056fea26469706673582212201695d94ac15cb2cc3dd5a02a7810256e09001662491cb57cd2f756e950e1e19464736f6c63430008030033",
    "linkReferences": {}
  },
  "methodIdentifiers": {
    "bridgeProxy()": "a3d4485b",
    "claim(uint256)": "379607f5",
    "executeProposal(uint256)": "0d61b519",
    "extensionPeriod()": "dedfab72",
    "getProposal(uint256)": "c7f758a8",
    "getVotes(uint256,address)": "68197360",
    "guardian()": "452a9320",
    "guardianPauseBridge(uint256)": "6cfa68df",
    "initiateProposal()": "7820f78d",
    "minInitAmount()": "f5e0c69d",
    "proposalCount()": "da35c664",
    "proposals(uint256)": "013cf08b",
    "requireGuardianSignature()": "c1427fe1",
    "submissionPeriod()": "185fde7e",
    "submitImplementation(uint256,address)": "d989ae97",
    "throwAwayGuardianship()": "1f8ab0f1",
    "transferGuardianship(address)": "9cef4240",
    "updateVote(uint256,bool)": "489d6dac",
    "vote(uint256,bool)": "c9d27afe"
  },
  "id": 20
}