{
  "_format": "hh-sol-artifact-1",
  "contractName": "TellorGetters",
  "sourceName": "contracts/tellor360/oldContracts/contracts/tellor3/TellorGetters.sol",
  "abi": [
    {
      "inputs": [
        {
          "internalType": "address",
          "name": "",
          "type": "address"
        },
        {
          "internalType": "address",
          "name": "",
          "type": "address"
        }
      ],
      "name": "_allowances",
      "outputs": [
        {
          "internalType": "uint256",
          "name": "",
          "type": "uint256"
        }
      ],
      "stateMutability": "view",
      "type": "function"
    },
    {
      "inputs": [
        {
          "internalType": "bytes32",
          "name": "",
          "type": "bytes32"
        }
      ],
      "name": "addresses",
      "outputs": [
        {
          "internalType": "address",
          "name": "",
          "type": "address"
        }
      ],
      "stateMutability": "view",
      "type": "function"
    },
    {
      "inputs": [
        {
          "internalType": "address",
          "name": "",
          "type": "address"
        },
        {
          "internalType": "uint256",
          "name": "",
          "type": "uint256"
        }
      ],
      "name": "balances",
      "outputs": [
        {
          "internalType": "uint128",
          "name": "fromBlock",
          "type": "uint128"
        },
        {
          "internalType": "uint128",
          "name": "value",
          "type": "uint128"
        }
      ],
      "stateMutability": "view",
      "type": "function"
    },
    {
      "inputs": [
        {
          "internalType": "bytes32",
          "name": "",
          "type": "bytes32"
        }
      ],
      "name": "bytesVars",
      "outputs": [
        {
          "internalType": "bytes32",
          "name": "",
          "type": "bytes32"
        }
      ],
      "stateMutability": "view",
      "type": "function"
    },
    {
      "inputs": [
        {
          "internalType": "uint256",
          "name": "",
          "type": "uint256"
        }
      ],
      "name": "currentMiners",
      "outputs": [
        {
          "internalType": "uint256",
          "name": "value",
          "type": "uint256"
        },
        {
          "internalType": "address",
          "name": "miner",
          "type": "address"
        }
      ],
      "stateMutability": "view",
      "type": "function"
    },
    {
      "inputs": [],
      "name": "decimals",
      "outputs": [
        {
          "internalType": "uint8",
          "name": "",
          "type": "uint8"
        }
      ],
      "stateMutability": "pure",
      "type": "function"
    },
    {
      "inputs": [
        {
          "internalType": "bytes32",
          "name": "_challenge",
          "type": "bytes32"
        },
        {
          "internalType": "address",
          "name": "_miner",
          "type": "address"
        }
      ],
      "name": "didMine",
      "outputs": [
        {
          "internalType": "bool",
          "name": "",
          "type": "bool"
        }
      ],
      "stateMutability": "view",
      "type": "function"
    },
    {
      "inputs": [
        {
          "internalType": "uint256",
          "name": "_disputeId",
          "type": "uint256"
        },
        {
          "internalType": "address",
          "name": "_address",
          "type": "address"
        }
      ],
      "name": "didVote",
      "outputs": [
        {
          "internalType": "bool",
          "name": "",
          "type": "bool"
        }
      ],
      "stateMutability": "view",
      "type": "function"
    },
    {
      "inputs": [
        {
          "internalType": "bytes32",
          "name": "",
          "type": "bytes32"
        }
      ],
      "name": "disputeIdByDisputeHash",
      "outputs": [
        {
          "internalType": "uint256",
          "name": "",
          "type": "uint256"
        }
      ],
      "stateMutability": "view",
      "type": "function"
    },
    {
      "inputs": [
        {
          "internalType": "uint256",
          "name": "",
          "type": "uint256"
        }
      ],
      "name": "disputesById",
      "outputs": [
        {
          "internalType": "bytes32",
          "name": "hash",
          "type": "bytes32"
        },
        {
          "internalType": "int256",
          "name": "tally",
          "type": "int256"
        },
        {
          "internalType": "bool",
          "name": "executed",
          "type": "bool"
        },
        {
          "internalType": "bool",
          "name": "disputeVotePassed",
          "type": "bool"
        },
        {
          "internalType": "bool",
          "name": "isPropFork",
          "type": "bool"
        },
        {
          "internalType": "address",
          "name": "reportedMiner",
          "type": "address"
        },
        {
          "internalType": "address",
          "name": "reportingParty",
          "type": "address"
        },
        {
          "internalType": "address",
          "name": "proposedForkAddress",
          "type": "address"
        }
      ],
      "stateMutability": "view",
      "type": "function"
    },
    {
      "inputs": [
        {
          "internalType": "bytes32",
          "name": "_data",
          "type": "bytes32"
        }
      ],
      "name": "getAddressVars",
      "outputs": [
        {
          "internalType": "address",
          "name": "",
          "type": "address"
        }
      ],
      "stateMutability": "view",
      "type": "function"
    },
    {
      "inputs": [
        {
          "internalType": "uint256",
          "name": "_disputeId",
          "type": "uint256"
        }
      ],
      "name": "getAllDisputeVars",
      "outputs": [
        {
          "internalType": "bytes32",
          "name": "",
          "type": "bytes32"
        },
        {
          "internalType": "bool",
          "name": "",
          "type": "bool"
        },
        {
          "internalType": "bool",
          "name": "",
          "type": "bool"
        },
        {
          "internalType": "bool",
          "name": "",
          "type": "bool"
        },
        {
          "internalType": "address",
          "name": "",
          "type": "address"
        },
        {
          "internalType": "address",
          "name": "",
          "type": "address"
        },
        {
          "internalType": "address",
          "name": "",
          "type": "address"
        },
        {
          "internalType": "uint256[9]",
          "name": "",
          "type": "uint256[9]"
        },
        {
          "internalType": "int256",
          "name": "",
          "type": "int256"
        }
      ],
      "stateMutability": "view",
      "type": "function"
    },
    {
      "inputs": [
        {
          "internalType": "bytes32",
          "name": "_hash",
          "type": "bytes32"
        }
      ],
      "name": "getDisputeIdByDisputeHash",
      "outputs": [
        {
          "internalType": "uint256",
          "name": "",
          "type": "uint256"
        }
      ],
      "stateMutability": "view",
      "type": "function"
    },
    {
      "inputs": [
        {
          "internalType": "uint256",
          "name": "_disputeId",
          "type": "uint256"
        },
        {
          "internalType": "bytes32",
          "name": "_data",
          "type": "bytes32"
        }
      ],
      "name": "getDisputeUintVars",
      "outputs": [
        {
          "internalType": "uint256",
          "name": "",
          "type": "uint256"
        }
      ],
      "stateMutability": "view",
      "type": "function"
    },
    {
      "inputs": [
        {
          "internalType": "uint256",
          "name": "_requestId",
          "type": "uint256"
        }
      ],
      "name": "getLastNewValueById",
      "outputs": [
        {
          "internalType": "uint256",
          "name": "",
          "type": "uint256"
        },
        {
          "internalType": "bool",
          "name": "",
          "type": "bool"
        }
      ],
      "stateMutability": "view",
      "type": "function"
    },
    {
      "inputs": [
        {
          "internalType": "uint256",
          "name": "_requestId",
          "type": "uint256"
        },
        {
          "internalType": "uint256",
          "name": "_timestamp",
          "type": "uint256"
        }
      ],
      "name": "getMinedBlockNum",
      "outputs": [
        {
          "internalType": "uint256",
          "name": "",
          "type": "uint256"
        }
      ],
      "stateMutability": "view",
      "type": "function"
    },
    {
      "inputs": [
        {
          "internalType": "uint256",
          "name": "_requestId",
          "type": "uint256"
        },
        {
          "internalType": "uint256",
          "name": "_timestamp",
          "type": "uint256"
        }
      ],
      "name": "getMinersByRequestIdAndTimestamp",
      "outputs": [
        {
          "internalType": "address[5]",
          "name": "",
          "type": "address[5]"
        }
      ],
      "stateMutability": "view",
      "type": "function"
    },
    {
      "inputs": [],
      "name": "getNewCurrentVariables",
      "outputs": [
        {
          "internalType": "bytes32",
          "name": "_challenge",
          "type": "bytes32"
        },
        {
          "internalType": "uint256[5]",
          "name": "_requestIds",
          "type": "uint256[5]"
        },
        {
          "internalType": "uint256",
          "name": "_diff",
          "type": "uint256"
        },
        {
          "internalType": "uint256",
          "name": "_tip",
          "type": "uint256"
        }
      ],
      "stateMutability": "view",
      "type": "function"
    },
    {
      "inputs": [
        {
          "internalType": "uint256",
          "name": "_requestId",
          "type": "uint256"
        }
      ],
      "name": "getNewValueCountbyRequestId",
      "outputs": [
        {
          "internalType": "uint256",
          "name": "",
          "type": "uint256"
        }
      ],
      "stateMutability": "view",
      "type": "function"
    },
    {
      "inputs": [],
      "name": "getNewVariablesOnDeck",
      "outputs": [
        {
          "internalType": "uint256[5]",
          "name": "idsOnDeck",
          "type": "uint256[5]"
        },
        {
          "internalType": "uint256[5]",
          "name": "tipsOnDeck",
          "type": "uint256[5]"
        }
      ],
      "stateMutability": "view",
      "type": "function"
    },
    {
      "inputs": [
        {
          "internalType": "uint256",
          "name": "_index",
          "type": "uint256"
        }
      ],
      "name": "getRequestIdByRequestQIndex",
      "outputs": [
        {
          "internalType": "uint256",
          "name": "",
          "type": "uint256"
        }
      ],
      "stateMutability": "view",
      "type": "function"
    },
    {
      "inputs": [],
      "name": "getRequestQ",
      "outputs": [
        {
          "internalType": "uint256[51]",
          "name": "",
          "type": "uint256[51]"
        }
      ],
      "stateMutability": "view",
      "type": "function"
    },
    {
      "inputs": [
        {
          "internalType": "uint256",
          "name": "_requestId",
          "type": "uint256"
        },
        {
          "internalType": "bytes32",
          "name": "_data",
          "type": "bytes32"
        }
      ],
      "name": "getRequestUintVars",
      "outputs": [
        {
          "internalType": "uint256",
          "name": "",
          "type": "uint256"
        }
      ],
      "stateMutability": "view",
      "type": "function"
    },
    {
      "inputs": [
        {
          "internalType": "uint256",
          "name": "_requestId",
          "type": "uint256"
        }
      ],
      "name": "getRequestVars",
      "outputs": [
        {
          "internalType": "uint256",
          "name": "",
          "type": "uint256"
        },
        {
          "internalType": "uint256",
          "name": "",
          "type": "uint256"
        }
      ],
      "stateMutability": "view",
      "type": "function"
    },
    {
      "inputs": [
        {
          "internalType": "address",
          "name": "_staker",
          "type": "address"
        }
      ],
      "name": "getStakerInfo",
      "outputs": [
        {
          "internalType": "uint256",
          "name": "",
          "type": "uint256"
        },
        {
          "internalType": "uint256",
          "name": "",
          "type": "uint256"
        }
      ],
      "stateMutability": "view",
      "type": "function"
    },
    {
      "inputs": [
        {
          "internalType": "uint256",
          "name": "_requestId",
          "type": "uint256"
        },
        {
          "internalType": "uint256",
          "name": "_timestamp",
          "type": "uint256"
        }
      ],
      "name": "getSubmissionsByTimestamp",
      "outputs": [
        {
          "internalType": "uint256[5]",
          "name": "",
          "type": "uint256[5]"
        }
      ],
      "stateMutability": "view",
      "type": "function"
    },
    {
      "inputs": [
        {
          "internalType": "uint256",
          "name": "_requestID",
          "type": "uint256"
        },
        {
          "internalType": "uint256",
          "name": "_index",
          "type": "uint256"
        }
      ],
      "name": "getTimestampbyRequestIDandIndex",
      "outputs": [
        {
          "internalType": "uint256",
          "name": "",
          "type": "uint256"
        }
      ],
      "stateMutability": "view",
      "type": "function"
    },
    {
      "inputs": [],
      "name": "getTopRequestIDs",
      "outputs": [
        {
          "internalType": "uint256[5]",
          "name": "_requestIds",
          "type": "uint256[5]"
        }
      ],
      "stateMutability": "view",
      "type": "function"
    },
    {
      "inputs": [
        {
          "internalType": "bytes32",
          "name": "_data",
          "type": "bytes32"
        }
      ],
      "name": "getUintVar",
      "outputs": [
        {
          "internalType": "uint256",
          "name": "",
          "type": "uint256"
        }
      ],
      "stateMutability": "view",
      "type": "function"
    },
    {
      "inputs": [
        {
          "internalType": "uint256",
          "name": "_requestId",
          "type": "uint256"
        },
        {
          "internalType": "uint256",
          "name": "_timestamp",
          "type": "uint256"
        }
      ],
      "name": "isInDispute",
      "outputs": [
        {
          "internalType": "bool",
          "name": "",
          "type": "bool"
        }
      ],
      "stateMutability": "view",
      "type": "function"
    },
    {
      "inputs": [
        {
          "internalType": "address",
          "name": "",
          "type": "address"
        }
      ],
      "name": "migrated",
      "outputs": [
        {
          "internalType": "bool",
          "name": "",
          "type": "bool"
        }
      ],
      "stateMutability": "view",
      "type": "function"
    },
    {
      "inputs": [
        {
          "internalType": "bytes32",
          "name": "",
          "type": "bytes32"
        },
        {
          "internalType": "address",
          "name": "",
          "type": "address"
        }
      ],
      "name": "minersByChallenge",
      "outputs": [
        {
          "internalType": "bool",
          "name": "",
          "type": "bool"
        }
      ],
      "stateMutability": "view",
      "type": "function"
    },
    {
      "inputs": [],
      "name": "name",
      "outputs": [
        {
          "internalType": "string",
          "name": "",
          "type": "string"
        }
      ],
      "stateMutability": "pure",
      "type": "function"
    },
    {
      "inputs": [
        {
          "internalType": "uint256",
          "name": "",
          "type": "uint256"
        }
      ],
      "name": "newValueTimestamps",
      "outputs": [
        {
          "internalType": "uint256",
          "name": "",
          "type": "uint256"
        }
      ],
      "stateMutability": "view",
      "type": "function"
    },
    {
      "inputs": [
        {
          "internalType": "bytes32",
          "name": "",
          "type": "bytes32"
        }
      ],
      "name": "requestIdByQueryHash",
      "outputs": [
        {
          "internalType": "uint256",
          "name": "",
          "type": "uint256"
        }
      ],
      "stateMutability": "view",
      "type": "function"
    },
    {
      "inputs": [
        {
          "internalType": "uint256",
          "name": "_requestId",
          "type": "uint256"
        },
        {
          "internalType": "uint256",
          "name": "_timestamp",
          "type": "uint256"
        }
      ],
      "name": "retrieveData",
      "outputs": [
        {
          "internalType": "uint256",
          "name": "",
          "type": "uint256"
        }
      ],
      "stateMutability": "view",
      "type": "function"
    },
    {
      "inputs": [],
      "name": "symbol",
      "outputs": [
        {
          "internalType": "string",
          "name": "",
          "type": "string"
        }
      ],
      "stateMutability": "pure",
      "type": "function"
    },
    {
      "inputs": [],
      "name": "totalSupply",
      "outputs": [
        {
          "internalType": "uint256",
          "name": "",
          "type": "uint256"
        }
      ],
      "stateMutability": "view",
      "type": "function"
    },
    {
      "inputs": [
        {
          "internalType": "bytes32",
          "name": "",
          "type": "bytes32"
        }
      ],
      "name": "uints",
      "outputs": [
        {
          "internalType": "uint256",
          "name": "",
          "type": "uint256"
        }
      ],
      "stateMutability": "view",
      "type": "function"
    }
  ],
  "bytecode": "0x608060405234801561001057600080fd5b5061163a806100206000396000f3fe608060405234801561001057600080fd5b506004361061023d5760003560e01c806369026d631161013b578063b5413029116100b8578063da3799411161007c578063da379941146108f4578063db085beb14610911578063e0ae93c11461097e578063e1eee6d6146109a1578063fe1cd15d146109be5761023d565b8063b54130291461081e578063b59e14d41461083c578063c775b54214610859578063cbf1304d1461087c578063d01f4d9e146108d75761023d565b806393fa4915116100ff57806393fa4915146106aa57806395d89b41146106cd5780639a7077ab146106d5578063a7c438bc14610741578063af0b13271461076d5761023d565b806369026d63146105e5578063699f200f14610608578063733bdef01461062557806377fbb663146106645780637f6fd5d9146106875761023d565b80634049f198116101c95780635700242c1161018d5780635700242c14610545578063612c8f7f146105625780636173c0b81461057f57806362dd1d2a1461059c57806363bb82ad146105b95761023d565b80634049f19814610464578063438c0aa3146104b957806346eee1c4146104d657806348b18e54146104f35780634ba0a5ee1461051f5761023d565b806318160ddd1161021057806318160ddd146103935780631fd223641461039b578063313ce567146103d95780633180f8df146103f75780633df0777b1461042d5761023d565b8063024c2ddd1461024257806306fdde031461028257806311c98512146102ff578063133bee5e1461035a575b600080fd5b6102706004803603604081101561025857600080fd5b506001600160a01b03813581169160200135166109c6565b60408051918252519081900360200190f35b61028a6109e3565b6040805160208082528351818301528351919283929083019185019080838360005b838110156102c45781810151838201526020016102ac565b50505050905090810190601f1680156102f15780820380516001836020036101000a031916815260200191505b509250505060405180910390f35b6103226004803603604081101561031557600080fd5b5080359060200135610a0c565b604051808260a080838360005b8381101561034757818101518382015260200161032f565b5050505090500191505060405180910390f35b6103776004803603602081101561037057600080fd5b5035610a63565b604080516001600160a01b039092168252519081900360200190f35b610270610a7e565b6103b8600480360360208110156103b157600080fd5b5035610acc565b604080519283526001600160a01b0390911660208301528051918290030190f35b6103e1610af7565b6040805160ff9092168252519081900360200190f35b6104146004803603602081101561040d57600080fd5b5035610afc565b6040805192835290151560208301528051918290030190f35b6104506004803603604081101561044357600080fd5b5080359060200135610b56565b604080519115158252519081900360200190f35b61046c610b7a565b604051848152602081018460a080838360005b8381101561049757818101518382015260200161047f565b5050505090500183815260200182815260200194505050505060405180910390f35b610270600480360360208110156104cf57600080fd5b5035610c5a565b610270600480360360208110156104ec57600080fd5b5035610c7b565b6104506004803603604081101561050957600080fd5b50803590602001356001600160a01b0316610c8d565b6104506004803603602081101561053557600080fd5b50356001600160a01b0316610cad565b6102706004803603602081101561055b57600080fd5b5035610cc2565b6102706004803603602081101561057857600080fd5b5035610cd4565b6102706004803603602081101561059557600080fd5b5035610ce6565b610270600480360360208110156105b257600080fd5b5035610d51565b610450600480360360408110156105cf57600080fd5b50803590602001356001600160a01b0316610d63565b610322600480360360408110156105fb57600080fd5b5080359060200135610d8e565b6103776004803603602081101561061e57600080fd5b5035610df1565b61064b6004803603602081101561063b57600080fd5b50356001600160a01b0316610e0c565b6040805192835260208301919091528051918290030190f35b6102706004803603604081101561067a57600080fd5b5080359060200135610e2f565b6102706004803603604081101561069d57600080fd5b5080359060200135610e5c565b610270600480360360408110156106c057600080fd5b5080359060200135610e7d565b61028a610e9e565b6106dd610ebb565b604051808360a080838360005b838110156107025781810151838201526020016106ea565b5050505090500182600560200280838360005b8381101561072d578181015183820152602001610715565b505050509050019250505060405180910390f35b6104506004803603604081101561075757600080fd5b50803590602001356001600160a01b0316610f5a565b61078a6004803603602081101561078357600080fd5b5035610f89565b604051808a8152602001891515815260200188151581526020018715158152602001866001600160a01b03168152602001856001600160a01b03168152602001846001600160a01b0316815260200183600960200280838360005b838110156107fd5781810151838201526020016107e5565b50505050905001828152602001995050505050505050505060405180910390f35b6108266111b4565b604051815181528082610660808383602061032f565b6102706004803603602081101561085257600080fd5b50356111f0565b6102706004803603604081101561086f57600080fd5b5080359060200135611202565b6108a86004803603604081101561089257600080fd5b506001600160a01b038135169060200135611223565b60405180836001600160801b03168152602001826001600160801b031681526020019250505060405180910390f35b610270600480360360208110156108ed57600080fd5b5035611266565b6102706004803603602081101561090a57600080fd5b5035611278565b61092e6004803603602081101561092757600080fd5b503561128a565b60408051988952602089019790975294151587870152921515606087015290151560808601526001600160a01b0390811660a086015290811660c08501521660e083015251908190036101000190f35b6102706004803603604081101561099457600080fd5b50803590602001356112e6565b61064b600480360360208110156109b757600080fd5b5035611307565b61032261136f565b604a60209081526000928352604080842090915290825290205481565b60408051808201909152600f81526e54656c6c6f7220547269627574657360881b602082015290565b610a146115a8565b600083815260456020908152604080832085845260060190915290819020815160a08101928390529160059082845b815481526020019060010190808311610a43575050505050905092915050565b6000908152604760205260409020546001600160a01b031690565b7fe6148e7230ca038d456350e69a91b66968b222bfac9ebfbea6ff0a1fb738016060005260466020527ffffeead1ec15181fd57b4590d95e0c076bccb59e311315e8b38f23c710aa7c3e5490565b603a8160058110610adc57600080fd5b6002020180546001909101549091506001600160a01b031682565b601290565b6000818152604560205260408120805482919015610b48578054610b3c90859083906000198101908110610b2c57fe5b9060005260206000200154610e7d565b60019250925050610b51565b60008092509250505b915091565b60009182526045602090815260408084209284526004909201905290205460ff1690565b6000610b846115a8565b60008060005b6005811015610bbe57603a8160058110610ba057fe5b6002020154848260058110610bb157fe5b6020020152600101610b8a565b50507f52cb9007c7c6068f8ef37039d4f232cbf5a28ff8d93a5983c4c0c27cd2f9bc0d5460466020527f5bccd7373734898281f858d7562320d2cdfc0b17bd72f779686937174d150025547f09659d32f99e50ac728058418d38174fe83a137c455ff1847e6fb8e15f78f77a6000527f38b16d06a20ab673b01c748aff938df6a38f81640035f4ce8bd9abb03aae5b7254919450915090919293565b60338181548110610c6a57600080fd5b600091825260209091200154905081565b60009081526045602052604090205490565b603960209081526000928352604080842090915290825290205460ff1681565b604b6020526000908152604090205460ff1681565b60376020526000908152604090205481565b60009081526046602052604090205490565b60006032821115610d3e576040805162461bcd60e51b815260206004820152601a60248201527f526571756573745120696e6465782069732061626f7665203530000000000000604482015290519081900360640190fd5b5060009081526035602052604090205490565b60486020526000908152604090205481565b60009182526039602090815260408084206001600160a01b0393909316845291905290205460ff1690565b610d966115a8565b6000838152604560209081526040808320858452600590810190925291829020825160a08101938490529290919082845b81546001600160a01b03168152600190910190602001808311610dc7575050505050905092915050565b6047602052600090815260409020546001600160a01b031681565b6001600160a01b0316600090815260446020526040902080546001909101549091565b6000828152604560205260408120805483908110610e4957fe5b9060005260206000200154905092915050565b60009182526036602090815260408084209284526005909201905290205490565b60009182526045602090815260408084209284526003909201905290205490565b6040805180820190915260038152622a292160e91b602082015290565b610ec36115a8565b610ecb6115a8565b610ed361136f565b915060005b6005811015610f555760456000848360058110610ef157fe5b6020020151815260200190815260200160002060010160007f1590276b7f31dd8e2a06f9a92867333eeb3eddbc91e73b9833e3e55d8e34f77d60001b815260200190815260200160002054828260058110610f4857fe5b6020020152600101610ed8565b509091565b60008281526036602090815260408083206001600160a01b038516845260060190915290205460ff1692915050565b6000806000806000806000610f9c6115c6565b5050506000958652505060366020908152604080862080546002820154600383015460048401548551610120810187527f9f47a2659c3d32b749ae717d975e7962959890862423c4318cf86e4ec220291f8c5260058601808952878d205482527f2f9328a9c75282bec25bb04befad06926366736e0030c985108445fa728335e58d52808952878d2054828a01527f9147231ab14efb72c38117f68521ddef8de64f092c18c69dbfb602ffc4de7f478d52808952878d2054828901527f46f7d53798d31923f6952572c6a19ad2d1a8238d26649c2f3493a6d69e425d288d52808952878d205460608301527f1da378694063870452ce03b189f48e04c1aa026348e74e6c86e10738514ad2c48d52808952878d205460808301527f4b4cefd5ced7569ef0d091282b4bca9c52a034c56471a6061afd1bf307a2de7c8d52808952878d205460a08301527f6de96ee4d33a0617f40a846309c8759048857f51b9d59a12d3c3786d4778883d8d52808952878d205460c08301527f30e85ae205656781c1a951cba9f9f53f884833c049d377a2a7046eb5e6d14b268d52808952878d205460e08301527f1da95f11543c9b03927178e07951795dfc95c7501a9d1cf00e13414ca33bc4098d52909752949099205461010080870191909152600190930154919960ff8083169a948304811699506201000083041697506001600160a01b036301000000909204821696509281169493169291565b6111bc6115e5565b604080516106608101918290529060009060339082845b8154815260200190600101908083116111d3575050505050905090565b60466020526000908152604090205481565b60009182526045602090815260408084209284526002909201905290205490565b6049602052816000526040600020818154811061123f57600080fd5b6000918252602090912001546001600160801b038082169350600160801b90910416905082565b60386020526000908152604090205481565b60009081526038602052604090205490565b603660205260009081526040902080546001820154600283015460038401546004909401549293919260ff808316936101008404821693620100008104909216926001600160a01b036301000000909304831692918216911688565b60009182526045602090815260408084209284526001909201905290205490565b60009081526045602090815260408083207ff68d680ab3160f1aa5d9c3a1383c49e3e60bf3c0c031245cbb036f5ce99afaa18452600101909152808220547f1590276b7f31dd8e2a06f9a92867333eeb3eddbc91e73b9833e3e55d8e34f77d83529120549091565b6113776115a8565b61137f6115a8565b6113876115a8565b604080516106608101918290526113be9160009060339082845b8154815260200190600101908083116113a1575050505050611454565b909250905060005b600581101561144e578281600581106113db57fe5b60200201511561141f57603560008383600581106113f557fe5b602002015181526020019081526020016000205484826005811061141557fe5b6020020152611446565b603a816004036005811061142f57fe5b600202015484826005811061144057fe5b60200201525b6001016113c6565b50505090565b61145c6115a8565b6114646115a8565b60208301516000805b60058110156114e75785816001016033811061148557fe5b602002015185826005811061149657fe5b6020020152600181018482600581106114ab57fe5b6020020152828582600581106114bd57fe5b602002015110156114df578481600581106114d457fe5b602002015192508091505b60010161146d565b5060065b60338110156115a0578286826033811061150157fe5b602002015111156115985785816033811061151857fe5b602002015185836005811061152957fe5b60200201528084836005811061153b57fe5b602002015285816033811061154c57fe5b6020020151925060005b6005811015611596578386826005811061156c57fe5b6020020151101561158e5785816005811061158357fe5b602002015193508092505b600101611556565b505b6001016114eb565b505050915091565b6040518060a001604052806005906020820280368337509192915050565b6040518061012001604052806009906020820280368337509192915050565b604051806106600160405280603390602082028036833750919291505056fea26469706673582212204cce6ca923bc4b95bac900897d9bdf7eeb0405895b54aa95996ffed61ee82ab964736f6c63430007040033",
  "linkReferences": {},
  "deployedLinkReferences": {}
}