{
  "_format": "hh-sol-artifact-1",
  "contractName": "BaseToken",
  "sourceName": "contracts/tellor360/BaseToken.sol",
  "abi": [
    {
      "anonymous": false,
      "inputs": [
        {
          "indexed": true,
          "internalType": "address",
          "name": "_owner",
          "type": "address"
        },
        {
          "indexed": true,
          "internalType": "address",
          "name": "_spender",
          "type": "address"
        },
        {
          "indexed": false,
          "internalType": "uint256",
          "name": "_value",
          "type": "uint256"
        }
      ],
      "name": "Approval",
      "type": "event"
    },
    {
      "anonymous": false,
      "inputs": [
        {
          "indexed": true,
          "internalType": "address",
          "name": "_from",
          "type": "address"
        },
        {
          "indexed": true,
          "internalType": "address",
          "name": "_to",
          "type": "address"
        },
        {
          "indexed": false,
          "internalType": "uint256",
          "name": "_value",
          "type": "uint256"
        }
      ],
      "name": "Transfer",
      "type": "event"
    },
    {
      "inputs": [
        {
          "internalType": "address",
          "name": "",
          "type": "address"
        },
        {
          "internalType": "address",
          "name": "",
          "type": "address"
        }
      ],
      "name": "_allowances",
      "outputs": [
        {
          "internalType": "uint256",
          "name": "",
          "type": "uint256"
        }
      ],
      "stateMutability": "view",
      "type": "function"
    },
    {
      "inputs": [
        {
          "internalType": "bytes32",
          "name": "",
          "type": "bytes32"
        }
      ],
      "name": "addresses",
      "outputs": [
        {
          "internalType": "address",
          "name": "",
          "type": "address"
        }
      ],
      "stateMutability": "view",
      "type": "function"
    },
    {
      "inputs": [
        {
          "internalType": "address",
          "name": "_user",
          "type": "address"
        },
        {
          "internalType": "address",
          "name": "_spender",
          "type": "address"
        }
      ],
      "name": "allowance",
      "outputs": [
        {
          "internalType": "uint256",
          "name": "",
          "type": "uint256"
        }
      ],
      "stateMutability": "view",
      "type": "function"
    },
    {
      "inputs": [
        {
          "internalType": "address",
          "name": "_user",
          "type": "address"
        },
        {
          "internalType": "uint256",
          "name": "_amount",
          "type": "uint256"
        }
      ],
      "name": "allowedToTrade",
      "outputs": [
        {
          "internalType": "bool",
          "name": "",
          "type": "bool"
        }
      ],
      "stateMutability": "view",
      "type": "function"
    },
    {
      "inputs": [
        {
          "internalType": "address",
          "name": "_spender",
          "type": "address"
        },
        {
          "internalType": "uint256",
          "name": "_amount",
          "type": "uint256"
        }
      ],
      "name": "approve",
      "outputs": [
        {
          "internalType": "bool",
          "name": "",
          "type": "bool"
        }
      ],
      "stateMutability": "nonpayable",
      "type": "function"
    },
    {
      "inputs": [
        {
          "internalType": "address",
          "name": "_user",
          "type": "address"
        }
      ],
      "name": "balanceOf",
      "outputs": [
        {
          "internalType": "uint256",
          "name": "",
          "type": "uint256"
        }
      ],
      "stateMutability": "view",
      "type": "function"
    },
    {
      "inputs": [
        {
          "internalType": "address",
          "name": "_user",
          "type": "address"
        },
        {
          "internalType": "uint256",
          "name": "_blockNumber",
          "type": "uint256"
        }
      ],
      "name": "balanceOfAt",
      "outputs": [
        {
          "internalType": "uint256",
          "name": "",
          "type": "uint256"
        }
      ],
      "stateMutability": "view",
      "type": "function"
    },
    {
      "inputs": [
        {
          "internalType": "address",
          "name": "",
          "type": "address"
        },
        {
          "internalType": "uint256",
          "name": "",
          "type": "uint256"
        }
      ],
      "name": "balances",
      "outputs": [
        {
          "internalType": "uint128",
          "name": "fromBlock",
          "type": "uint128"
        },
        {
          "internalType": "uint128",
          "name": "value",
          "type": "uint128"
        }
      ],
      "stateMutability": "view",
      "type": "function"
    },
    {
      "inputs": [
        {
          "internalType": "bytes32",
          "name": "",
          "type": "bytes32"
        }
      ],
      "name": "bytesVars",
      "outputs": [
        {
          "internalType": "bytes32",
          "name": "",
          "type": "bytes32"
        }
      ],
      "stateMutability": "view",
      "type": "function"
    },
    {
      "inputs": [
        {
          "internalType": "uint256",
          "name": "",
          "type": "uint256"
        }
      ],
      "name": "currentMiners",
      "outputs": [
        {
          "internalType": "uint256",
          "name": "value",
          "type": "uint256"
        },
        {
          "internalType": "address",
          "name": "miner",
          "type": "address"
        }
      ],
      "stateMutability": "view",
      "type": "function"
    },
    {
      "inputs": [],
      "name": "decimals",
      "outputs": [
        {
          "internalType": "uint8",
          "name": "",
          "type": "uint8"
        }
      ],
      "stateMutability": "pure",
      "type": "function"
    },
    {
      "inputs": [
        {
          "internalType": "bytes32",
          "name": "",
          "type": "bytes32"
        }
      ],
      "name": "disputeIdByDisputeHash",
      "outputs": [
        {
          "internalType": "uint256",
          "name": "",
          "type": "uint256"
        }
      ],
      "stateMutability": "view",
      "type": "function"
    },
    {
      "inputs": [
        {
          "internalType": "uint256",
          "name": "",
          "type": "uint256"
        }
      ],
      "name": "disputesById",
      "outputs": [
        {
          "internalType": "bytes32",
          "name": "hash",
          "type": "bytes32"
        },
        {
          "internalType": "int256",
          "name": "tally",
          "type": "int256"
        },
        {
          "internalType": "bool",
          "name": "executed",
          "type": "bool"
        },
        {
          "internalType": "bool",
          "name": "disputeVotePassed",
          "type": "bool"
        },
        {
          "internalType": "bool",
          "name": "isPropFork",
          "type": "bool"
        },
        {
          "internalType": "address",
          "name": "reportedMiner",
          "type": "address"
        },
        {
          "internalType": "address",
          "name": "reportingParty",
          "type": "address"
        },
        {
          "internalType": "address",
          "name": "proposedForkAddress",
          "type": "address"
        }
      ],
      "stateMutability": "view",
      "type": "function"
    },
    {
      "inputs": [
        {
          "internalType": "address",
          "name": "",
          "type": "address"
        }
      ],
      "name": "migrated",
      "outputs": [
        {
          "internalType": "bool",
          "name": "",
          "type": "bool"
        }
      ],
      "stateMutability": "view",
      "type": "function"
    },
    {
      "inputs": [
        {
          "internalType": "bytes32",
          "name": "",
          "type": "bytes32"
        },
        {
          "internalType": "address",
          "name": "",
          "type": "address"
        }
      ],
      "name": "minersByChallenge",
      "outputs": [
        {
          "internalType": "bool",
          "name": "",
          "type": "bool"
        }
      ],
      "stateMutability": "view",
      "type": "function"
    },
    {
      "inputs": [],
      "name": "name",
      "outputs": [
        {
          "internalType": "string",
          "name": "",
          "type": "string"
        }
      ],
      "stateMutability": "pure",
      "type": "function"
    },
    {
      "inputs": [
        {
          "internalType": "uint256",
          "name": "",
          "type": "uint256"
        }
      ],
      "name": "newValueTimestamps",
      "outputs": [
        {
          "internalType": "uint256",
          "name": "",
          "type": "uint256"
        }
      ],
      "stateMutability": "view",
      "type": "function"
    },
    {
      "inputs": [
        {
          "internalType": "bytes32",
          "name": "",
          "type": "bytes32"
        }
      ],
      "name": "requestIdByQueryHash",
      "outputs": [
        {
          "internalType": "uint256",
          "name": "",
          "type": "uint256"
        }
      ],
      "stateMutability": "view",
      "type": "function"
    },
    {
      "inputs": [],
      "name": "symbol",
      "outputs": [
        {
          "internalType": "string",
          "name": "",
          "type": "string"
        }
      ],
      "stateMutability": "pure",
      "type": "function"
    },
    {
      "inputs": [
        {
          "internalType": "address",
          "name": "_from",
          "type": "address"
        },
        {
          "internalType": "address",
          "name": "_to",
          "type": "address"
        }
      ],
      "name": "teamTransferDisputedStake",
      "outputs": [],
      "stateMutability": "nonpayable",
      "type": "function"
    },
    {
      "inputs": [],
      "name": "totalSupply",
      "outputs": [
        {
          "internalType": "uint256",
          "name": "",
          "type": "uint256"
        }
      ],
      "stateMutability": "view",
      "type": "function"
    },
    {
      "inputs": [
        {
          "internalType": "address",
          "name": "_to",
          "type": "address"
        },
        {
          "internalType": "uint256",
          "name": "_amount",
          "type": "uint256"
        }
      ],
      "name": "transfer",
      "outputs": [
        {
          "internalType": "bool",
          "name": "success",
          "type": "bool"
        }
      ],
      "stateMutability": "nonpayable",
      "type": "function"
    },
    {
      "inputs": [
        {
          "internalType": "address",
          "name": "_from",
          "type": "address"
        },
        {
          "internalType": "address",
          "name": "_to",
          "type": "address"
        },
        {
          "internalType": "uint256",
          "name": "_amount",
          "type": "uint256"
        }
      ],
      "name": "transferFrom",
      "outputs": [
        {
          "internalType": "bool",
          "name": "success",
          "type": "bool"
        }
      ],
      "stateMutability": "nonpayable",
      "type": "function"
    },
    {
      "inputs": [
        {
          "internalType": "bytes32",
          "name": "",
          "type": "bytes32"
        }
      ],
      "name": "uints",
      "outputs": [
        {
          "internalType": "uint256",
          "name": "",
          "type": "uint256"
        }
      ],
      "stateMutability": "view",
      "type": "function"
    }
  ],
  "bytecode": "0x608060405234801561001057600080fd5b506110d0806100206000396000f3fe608060405234801561001057600080fd5b50600436106101985760003560e01c80635700242c116100e3578063a9059cbb1161008c578063d01f4d9e11610066578063d01f4d9e1461048c578063db085beb146104ac578063dd62ed3e1461056557610198565b8063a9059cbb14610426578063b59e14d414610439578063cbf1304d1461045957610198565b806370a08231116100bd57806370a08231146103e157806395d89b41146103f4578063999cf26c1461041357610198565b80635700242c1461036057806362dd1d2a14610380578063699f200f146103a057610198565b806323b872dd1161014557806348b18e541161011f57806348b18e54146102fc5780634ba0a5ee1461032a5780634ee2cd7e1461034d57610198565b806323b872dd146102c7578063313ce567146102da578063438c0aa3146102e957610198565b80630c8591b3116101765780630c8591b31461023257806318160ddd146102475780631fd223641461029757610198565b8063024c2ddd1461019d57806306fdde03146101db578063095ea7b31461020f575b600080fd5b6101c86101ab366004610ebf565b604a60209081526000928352604080842090915290825290205481565b6040519081526020015b60405180910390f35b60408051808201909152600f81526e54656c6c6f7220547269627574657360881b60208201525b6040516101d29190610f8f565b61022261021d366004610f2c565b61059e565b60405190151581526020016101d2565b610245610240366004610ebf565b61066b565b005b7fe6148e7230ca038d456350e69a91b66968b222bfac9ebfbea6ff0a1fb738016060005260466020527ffffeead1ec15181fd57b4590d95e0c076bccb59e311315e8b38f23c710aa7c3e546101c8565b6102aa6102a5366004610f55565b6107fd565b604080519283526001600160a01b039091166020830152016101d2565b6102226102d5366004610ef1565b610828565b604051601281526020016101d2565b6101c86102f7366004610f55565b6108de565b61022261030a366004610f6d565b603960209081526000928352604080842090915290825290205460ff1681565b610222610338366004610e9e565b604b6020526000908152604090205460ff1681565b6101c861035b366004610f2c565b6108ff565b6101c861036e366004610f55565b60376020526000908152604090205481565b6101c861038e366004610f55565b60486020526000908152604090205481565b6103c96103ae366004610f55565b6047602052600090815260409020546001600160a01b031681565b6040516001600160a01b0390911681526020016101d2565b6101c86103ef366004610e9e565b610b6a565b6040805180820190915260038152622a292160e91b6020820152610202565b610222610421366004610f2c565b610b7e565b610222610434366004610f2c565b610c1b565b6101c8610447366004610f55565b60466020526000908152604090205481565b61046c610467366004610f2c565b610c31565b604080516001600160801b039384168152929091166020830152016101d2565b6101c861049a366004610f55565b60386020526000908152604090205481565b6105166104ba366004610f55565b603660205260009081526040902080546001820154600283015460038401546004909401549293919260ff808316936101008404821693620100008104909216926001600160a01b036301000000909304831692918216911688565b604080519889526020890197909752941515958701959095529115156060860152151560808501526001600160a01b0390811660a085015291821660c08401521660e0820152610100016101d2565b6101c8610573366004610ebf565b6001600160a01b039182166000908152604a6020908152604080832093909416825291909152205490565b60006001600160a01b0383166106065760405162461bcd60e51b815260206004820152602260248201527f45524332303a20617070726f766520746f20746865207a65726f206164647265604482015261737360f01b60648201526084015b60405180910390fd5b336000818152604a602090815260408083206001600160a01b03881680855290835292819020869055518581529192917f8c5be1e5ebec7d5bd14f71427d1e84f3dd0314c0f7b2291e5b200ac8c7c3b925910160405180910390a35060015b92915050565b7f7a39905194de50bde334d18b76bbb36dddd11641d4d50b470cb837cf3bae5def60005260476020527fb5f7e7387e8e977cc9c4c9513388b0d7224264b9a0159cd8e8bdd84a9ed504c3546001600160a01b0316331461071d5760405162461bcd60e51b815260206004820152602760248201527f6f6e6c79206f776e65722063616e207472616e73666572206469737075746564604482015266081cdd185ad95960ca1b60648201526084016105fd565b6001600160a01b0382166000908152604460205260409020546003146107855760405162461bcd60e51b815260206004820152601a60248201527f5f66726f6d2061646472657373206e6f7420646973707574656400000000000060448201526064016105fd565b6001600160a01b038216600090815260446020908152604082208290557f5d9fadfc729fd027e395e5157ef1b53ef9fa4a8f053043c5f159307543e7cc97909152604690527f167af83a0768d27540775cfef6d996eb63f8a61fcdfb26e654c18fb50960e3be546107f99083908390610c74565b5050565b603a816005811061080d57600080fd5b6002020180546001909101549091506001600160a01b031682565b6001600160a01b0383166000908152604a602090815260408083203384529091528120548211156108905760405162461bcd60e51b8152602060048201526012602482015271416c6c6f77616e63652069732077726f6e6760701b60448201526064016105fd565b6001600160a01b0384166000908152604a60209081526040808320338452909152812080548492906108c390849061106d565b909155506108d49050848484610c74565b5060019392505050565b603381815481106108ee57600080fd5b600091825260209091200154905081565b6001600160a01b0382166000908152604960205260408120805415806109595750828160008154811061094257634e487b7160e01b600052603260045260246000fd5b6000918252602090912001546001600160801b0316115b15610968576000915050610665565b805481906109789060019061106d565b8154811061099657634e487b7160e01b600052603260045260246000fd5b6000918252602090912001546001600160801b03168310610a0457805481906109c19060019061106d565b815481106109df57634e487b7160e01b600052603260045260246000fd5b600091825260209091200154600160801b90046001600160801b031691506106659050565b80546000908190610a179060029061106d565b90505b81811115610b235760006002610a30848461100d565b610a3b90600161100d565b610a459190611025565b905085848281548110610a6857634e487b7160e01b600052603260045260246000fd5b6000918252602090912001546001600160801b03161415610acb57838181548110610aa357634e487b7160e01b600052603260045260246000fd5b600091825260209091200154600160801b90046001600160801b031694506106659350505050565b85848281548110610aec57634e487b7160e01b600052603260045260246000fd5b6000918252602090912001546001600160801b03161015610b0f57809250610b1d565b610b1a60018261106d565b91505b50610a1a565b828281548110610b4357634e487b7160e01b600052603260045260246000fd5b600091825260209091200154600160801b90046001600160801b0316935061066592505050565b6000610b7682436108ff565b90505b919050565b6001600160a01b03821660009081526044602052604081205460031415610c08577f5d9fadfc729fd027e395e5157ef1b53ef9fa4a8f053043c5f159307543e7cc9760005260466020527f167af83a0768d27540775cfef6d996eb63f8a61fcdfb26e654c18fb50960e3be548290610bf585610b6a565b610bff919061106d565b10159050610665565b81610c1284610b6a565b10159392505050565b6000610c28338484610c74565b50600192915050565b60496020528160005260406000208181548110610c4d57600080fd5b6000918252602090912001546001600160801b038082169350600160801b90910416905082565b80610c7e57610d6e565b610c888382610b7e565b610ce45760405162461bcd60e51b815260206004820152602760248201527f53686f756c6420686176652073756666696369656e742062616c616e636520746044820152666f20747261646560c81b60648201526084016105fd565b6000610cef84610b6a565b905081610d0585610d008385611045565b610d73565b610d0e84610b6a565b9150610d1e84610d008385610fe2565b836001600160a01b0316856001600160a01b03167fddf252ad1be2c89b69c2b068fc378daa952ba7f163c4a11628f55a4df523b3ef85604051610d6391815260200190565b60405180910390a350505b505050565b6001600160a01b038216600090815260496020526040902080541580610ddc5750805443908290610da69060019061106d565b81548110610dc457634e487b7160e01b600052603260045260246000fd5b6000918252602090912001546001600160801b031614155b15610e2d57604080518082019091526001600160801b03438116825283811660208084019182528454600181018655600086815291909120935191518316600160801b029190921617910155610d6e565b80546000908290610e409060019061106d565b81548110610e5e57634e487b7160e01b600052603260045260246000fd5b600091825260209091200180546001600160801b03808616600160801b02911617905550505050565b80356001600160a01b0381168114610b7957600080fd5b600060208284031215610eaf578081fd5b610eb882610e87565b9392505050565b60008060408385031215610ed1578081fd5b610eda83610e87565b9150610ee860208401610e87565b90509250929050565b600080600060608486031215610f05578081fd5b610f0e84610e87565b9250610f1c60208501610e87565b9150604084013590509250925092565b60008060408385031215610f3e578182fd5b610f4783610e87565b946020939093013593505050565b600060208284031215610f66578081fd5b5035919050565b60008060408385031215610f7f578182fd5b82359150610ee860208401610e87565b6000602080835283518082850152825b81811015610fbb57858101830151858201604001528201610f9f565b81811115610fcc5783604083870101525b50601f01601f1916929092016040019392505050565b60006001600160801b0380831681851680830382111561100457611004611084565b01949350505050565b6000821982111561102057611020611084565b500190565b60008261104057634e487b7160e01b81526012600452602481fd5b500490565b60006001600160801b038381169083168181101561106557611065611084565b039392505050565b60008282101561107f5761107f611084565b500390565b634e487b7160e01b600052601160045260246000fdfea2646970667358221220771e9bab498d5f2fb62898894322d01bd08d3a2c74cdf41b09e439329c1a6bb664736f6c63430008030033",
  "linkReferences": {},
  "deployedLinkReferences": {}
}