{
  "_format": "hh-sol-artifact-1",
  "contractName": "TellorTransfer",
  "sourceName": "contracts/tellor360/oldContracts/contracts/tellor3/TellorTransfer.sol",
  "abi": [
    {
      "anonymous": false,
      "inputs": [
        {
          "indexed": true,
          "internalType": "address",
          "name": "_owner",
          "type": "address"
        },
        {
          "indexed": true,
          "internalType": "address",
          "name": "_spender",
          "type": "address"
        },
        {
          "indexed": false,
          "internalType": "uint256",
          "name": "_value",
          "type": "uint256"
        }
      ],
      "name": "Approval",
      "type": "event"
    },
    {
      "anonymous": false,
      "inputs": [
        {
          "indexed": true,
          "internalType": "address",
          "name": "_from",
          "type": "address"
        },
        {
          "indexed": true,
          "internalType": "address",
          "name": "_to",
          "type": "address"
        },
        {
          "indexed": false,
          "internalType": "uint256",
          "name": "_value",
          "type": "uint256"
        }
      ],
      "name": "Transfer",
      "type": "event"
    },
    {
      "inputs": [
        {
          "internalType": "address",
          "name": "",
          "type": "address"
        },
        {
          "internalType": "address",
          "name": "",
          "type": "address"
        }
      ],
      "name": "_allowances",
      "outputs": [
        {
          "internalType": "uint256",
          "name": "",
          "type": "uint256"
        }
      ],
      "stateMutability": "view",
      "type": "function"
    },
    {
      "inputs": [
        {
          "internalType": "bytes32",
          "name": "",
          "type": "bytes32"
        }
      ],
      "name": "addresses",
      "outputs": [
        {
          "internalType": "address",
          "name": "",
          "type": "address"
        }
      ],
      "stateMutability": "view",
      "type": "function"
    },
    {
      "inputs": [
        {
          "internalType": "address",
          "name": "_user",
          "type": "address"
        },
        {
          "internalType": "address",
          "name": "_spender",
          "type": "address"
        }
      ],
      "name": "allowance",
      "outputs": [
        {
          "internalType": "uint256",
          "name": "",
          "type": "uint256"
        }
      ],
      "stateMutability": "view",
      "type": "function"
    },
    {
      "inputs": [
        {
          "internalType": "address",
          "name": "_user",
          "type": "address"
        },
        {
          "internalType": "uint256",
          "name": "_amount",
          "type": "uint256"
        }
      ],
      "name": "allowedToTrade",
      "outputs": [
        {
          "internalType": "bool",
          "name": "",
          "type": "bool"
        }
      ],
      "stateMutability": "view",
      "type": "function"
    },
    {
      "inputs": [
        {
          "internalType": "address",
          "name": "_spender",
          "type": "address"
        },
        {
          "internalType": "uint256",
          "name": "_amount",
          "type": "uint256"
        }
      ],
      "name": "approve",
      "outputs": [
        {
          "internalType": "bool",
          "name": "",
          "type": "bool"
        }
      ],
      "stateMutability": "nonpayable",
      "type": "function"
    },
    {
      "inputs": [
        {
          "internalType": "address",
          "name": "_user",
          "type": "address"
        }
      ],
      "name": "balanceOf",
      "outputs": [
        {
          "internalType": "uint256",
          "name": "",
          "type": "uint256"
        }
      ],
      "stateMutability": "view",
      "type": "function"
    },
    {
      "inputs": [
        {
          "internalType": "address",
          "name": "_user",
          "type": "address"
        },
        {
          "internalType": "uint256",
          "name": "_blockNumber",
          "type": "uint256"
        }
      ],
      "name": "balanceOfAt",
      "outputs": [
        {
          "internalType": "uint256",
          "name": "",
          "type": "uint256"
        }
      ],
      "stateMutability": "view",
      "type": "function"
    },
    {
      "inputs": [
        {
          "internalType": "address",
          "name": "",
          "type": "address"
        },
        {
          "internalType": "uint256",
          "name": "",
          "type": "uint256"
        }
      ],
      "name": "balances",
      "outputs": [
        {
          "internalType": "uint128",
          "name": "fromBlock",
          "type": "uint128"
        },
        {
          "internalType": "uint128",
          "name": "value",
          "type": "uint128"
        }
      ],
      "stateMutability": "view",
      "type": "function"
    },
    {
      "inputs": [
        {
          "internalType": "bytes32",
          "name": "",
          "type": "bytes32"
        }
      ],
      "name": "bytesVars",
      "outputs": [
        {
          "internalType": "bytes32",
          "name": "",
          "type": "bytes32"
        }
      ],
      "stateMutability": "view",
      "type": "function"
    },
    {
      "inputs": [
        {
          "internalType": "uint256",
          "name": "",
          "type": "uint256"
        }
      ],
      "name": "currentMiners",
      "outputs": [
        {
          "internalType": "uint256",
          "name": "value",
          "type": "uint256"
        },
        {
          "internalType": "address",
          "name": "miner",
          "type": "address"
        }
      ],
      "stateMutability": "view",
      "type": "function"
    },
    {
      "inputs": [
        {
          "internalType": "bytes32",
          "name": "",
          "type": "bytes32"
        }
      ],
      "name": "disputeIdByDisputeHash",
      "outputs": [
        {
          "internalType": "uint256",
          "name": "",
          "type": "uint256"
        }
      ],
      "stateMutability": "view",
      "type": "function"
    },
    {
      "inputs": [
        {
          "internalType": "uint256",
          "name": "",
          "type": "uint256"
        }
      ],
      "name": "disputesById",
      "outputs": [
        {
          "internalType": "bytes32",
          "name": "hash",
          "type": "bytes32"
        },
        {
          "internalType": "int256",
          "name": "tally",
          "type": "int256"
        },
        {
          "internalType": "bool",
          "name": "executed",
          "type": "bool"
        },
        {
          "internalType": "bool",
          "name": "disputeVotePassed",
          "type": "bool"
        },
        {
          "internalType": "bool",
          "name": "isPropFork",
          "type": "bool"
        },
        {
          "internalType": "address",
          "name": "reportedMiner",
          "type": "address"
        },
        {
          "internalType": "address",
          "name": "reportingParty",
          "type": "address"
        },
        {
          "internalType": "address",
          "name": "proposedForkAddress",
          "type": "address"
        }
      ],
      "stateMutability": "view",
      "type": "function"
    },
    {
      "inputs": [
        {
          "internalType": "address",
          "name": "",
          "type": "address"
        }
      ],
      "name": "migrated",
      "outputs": [
        {
          "internalType": "bool",
          "name": "",
          "type": "bool"
        }
      ],
      "stateMutability": "view",
      "type": "function"
    },
    {
      "inputs": [
        {
          "internalType": "bytes32",
          "name": "",
          "type": "bytes32"
        },
        {
          "internalType": "address",
          "name": "",
          "type": "address"
        }
      ],
      "name": "minersByChallenge",
      "outputs": [
        {
          "internalType": "bool",
          "name": "",
          "type": "bool"
        }
      ],
      "stateMutability": "view",
      "type": "function"
    },
    {
      "inputs": [
        {
          "internalType": "uint256",
          "name": "",
          "type": "uint256"
        }
      ],
      "name": "newValueTimestamps",
      "outputs": [
        {
          "internalType": "uint256",
          "name": "",
          "type": "uint256"
        }
      ],
      "stateMutability": "view",
      "type": "function"
    },
    {
      "inputs": [
        {
          "internalType": "bytes32",
          "name": "",
          "type": "bytes32"
        }
      ],
      "name": "requestIdByQueryHash",
      "outputs": [
        {
          "internalType": "uint256",
          "name": "",
          "type": "uint256"
        }
      ],
      "stateMutability": "view",
      "type": "function"
    },
    {
      "inputs": [
        {
          "internalType": "address",
          "name": "_to",
          "type": "address"
        },
        {
          "internalType": "uint256",
          "name": "_amount",
          "type": "uint256"
        }
      ],
      "name": "transfer",
      "outputs": [
        {
          "internalType": "bool",
          "name": "success",
          "type": "bool"
        }
      ],
      "stateMutability": "nonpayable",
      "type": "function"
    },
    {
      "inputs": [
        {
          "internalType": "address",
          "name": "_from",
          "type": "address"
        },
        {
          "internalType": "address",
          "name": "_to",
          "type": "address"
        },
        {
          "internalType": "uint256",
          "name": "_amount",
          "type": "uint256"
        }
      ],
      "name": "transferFrom",
      "outputs": [
        {
          "internalType": "bool",
          "name": "success",
          "type": "bool"
        }
      ],
      "stateMutability": "nonpayable",
      "type": "function"
    },
    {
      "inputs": [
        {
          "internalType": "bytes32",
          "name": "",
          "type": "bytes32"
        }
      ],
      "name": "uints",
      "outputs": [
        {
          "internalType": "uint256",
          "name": "",
          "type": "uint256"
        }
      ],
      "stateMutability": "view",
      "type": "function"
    }
  ],
  "bytecode": "0x608060405234801561001057600080fd5b50610df9806100206000396000f3fe608060405234801561001057600080fd5b50600436106101215760003560e01c806362dd1d2a116100ad578063b59e14d411610071578063b59e14d4146103a6578063cbf1304d146103c3578063d01f4d9e1461041e578063db085beb1461043b578063dd62ed3e146104a857610121565b806362dd1d2a146102d2578063699f200f146102ef57806370a0823114610328578063999cf26c1461034e578063a9059cbb1461037a57610121565b8063438c0aa3116100f4578063438c0aa31461021a57806348b18e54146102375780634ba0a5ee146102635780634ee2cd7e146102895780635700242c146102b557610121565b8063024c2ddd14610126578063095ea7b3146101665780631fd22364146101a657806323b872dd146101e4575b600080fd5b6101546004803603604081101561013c57600080fd5b506001600160a01b03813581169160200135166104d6565b60408051918252519081900360200190f35b6101926004803603604081101561017c57600080fd5b506001600160a01b0381351690602001356104f3565b604080519115158252519081900360200190f35b6101c3600480360360208110156101bc57600080fd5b50356105a2565b604080519283526001600160a01b0390911660208301528051918290030190f35b610192600480360360608110156101fa57600080fd5b506001600160a01b038135811691602081013590911690604001356105cd565b6101546004803603602081101561023057600080fd5b5035610679565b6101926004803603604081101561024d57600080fd5b50803590602001356001600160a01b031661069a565b6101926004803603602081101561027957600080fd5b50356001600160a01b03166106ba565b6101546004803603604081101561029f57600080fd5b506001600160a01b0381351690602001356106cf565b610154600480360360208110156102cb57600080fd5b5035610873565b610154600480360360208110156102e857600080fd5b5035610885565b61030c6004803603602081101561030557600080fd5b5035610897565b604080516001600160a01b039092168252519081900360200190f35b6101546004803603602081101561033e57600080fd5b50356001600160a01b03166108b2565b6101926004803603604081101561036457600080fd5b506001600160a01b0381351690602001356108be565b6101926004803603604081101561039057600080fd5b506001600160a01b03813516906020013561098a565b610154600480360360208110156103bc57600080fd5b50356109a0565b6103ef600480360360408110156103d957600080fd5b506001600160a01b0381351690602001356109b2565b60405180836001600160801b03168152602001826001600160801b031681526020019250505060405180910390f35b6101546004803603602081101561043457600080fd5b50356109f5565b6104586004803603602081101561045157600080fd5b5035610a07565b60408051988952602089019790975294151587870152921515606087015290151560808601526001600160a01b0390811660a086015290811660c08501521660e083015251908190036101000190f35b610154600480360360408110156104be57600080fd5b506001600160a01b0381358116916020013516610a63565b604a60209081526000928352604080842090915290825290205481565b60006001600160a01b03831661053a5760405162461bcd60e51b8152600401808060200182810382526022815260200180610d5a6022913960400191505060405180910390fd5b336000818152604a602090815260408083206001600160a01b03881680855290835292819020869055805186815290519293927f8c5be1e5ebec7d5bd14f71427d1e84f3dd0314c0f7b2291e5b200ac8c7c3b925929181900390910190a35060015b92915050565b603a81600581106105b257600080fd5b6002020180546001909101549091506001600160a01b031682565b6001600160a01b0383166000908152604a6020908152604080832033845290915281205482111561063a576040805162461bcd60e51b8152602060048201526012602482015271416c6c6f77616e63652069732077726f6e6760701b604482015290519081900360640190fd5b6001600160a01b0384166000908152604a6020908152604080832033845290915290208054839003905561066f848484610a8e565b5060019392505050565b6033818154811061068957600080fd5b600091825260209091200154905081565b603960209081526000928352604080842090915290825290205460ff1681565b604b6020526000908152604090205460ff1681565b6001600160a01b038216600090815260496020526040812080541580610715575082816000815481106106fe57fe5b6000918252602090912001546001600160801b0316115b1561072457600091505061059c565b80548190600019810190811061073657fe5b6000918252602090912001546001600160801b031683106107885780548190600019810190811061076357fe5b600091825260209091200154600160801b90046001600160801b0316915061059c9050565b8054600090600119015b818111156108405760006002600183850101049050858482815481106107b457fe5b6000918252602090912001546001600160801b03161415610803578381815481106107db57fe5b600091825260209091200154600160801b90046001600160801b0316945061059c9350505050565b8584828154811061081057fe5b6000918252602090912001546001600160801b031610156108335780925061083a565b6001810391505b50610792565b82828154811061084c57fe5b600091825260209091200154600160801b90046001600160801b0316935061059c92505050565b60376020526000908152604090205481565b60486020526000908152604090205481565b6047602052600090815260409020546001600160a01b031681565b600061059c82436106cf565b6001600160a01b038216600090815260446020526040812054158015906108fd57506001600160a01b0383166000908152604460205260409020546005115b15610977577f5d9fadfc729fd027e395e5157ef1b53ef9fa4a8f053043c5f159307543e7cc9760005260466020527f167af83a0768d27540775cfef6d996eb63f8a61fcdfb26e654c18fb50960e3be5482906109629061095c866108b2565b90610c4a565b1061096f5750600161059c565b50600061059c565b81610981846108b2565b10159392505050565b6000610997338484610a8e565b50600192915050565b60466020526000908152604090205481565b604960205281600052604060002081815481106109ce57600080fd5b6000918252602090912001546001600160801b038082169350600160801b90910416905082565b60386020526000908152604090205481565b603660205260009081526040902080546001820154600283015460038401546004909401549293919260ff808316936101008404821693620100008104909216926001600160a01b036301000000909304831692918216911688565b6001600160a01b039182166000908152604a6020908152604080832093909416825291909152205490565b80610aca5760405162461bcd60e51b8152600401808060200182810382526021815260200180610da36021913960400191505060405180910390fd5b6001600160a01b038216610b25576040805162461bcd60e51b815260206004820152601560248201527f5265636569766572206973203020616464726573730000000000000000000000604482015290519081900360640190fd5b610b2f83826108be565b610b6a5760405162461bcd60e51b8152600401808060200182810382526027815260200180610d7c6027913960400191505060405180910390fd5b6000610b75846108b2565b905081610b8485828403610c5c565b610b8d846108b2565b9150816001600160801b03168183016001600160801b03161015610bec576040805162461bcd60e51b815260206004820152601160248201527013dd995c999b1bddc81a185c1c195b9959607a1b604482015290519081900360640190fd5b610bf884828401610c5c565b836001600160a01b0316856001600160a01b03167fddf252ad1be2c89b69c2b068fc378daa952ba7f163c4a11628f55a4df523b3ef856040518082815260200191505060405180910390a35050505050565b600082821115610c5657fe5b50900390565b6001600160a01b038216600090815260496020526040902080541580610ca957508054439082906000198101908110610c9157fe5b6000918252602090912001546001600160801b031614155b15610d1a5760408051808201909152436001600160801b0390811682528381166020808401918252845460018101865560008681529190912093519301805491516fffffffffffffffffffffffffffffffff19909216938316939093178216600160801b9190921602179055610d54565b805460009082906000198101908110610d2f57fe5b600091825260209091200180546001600160801b03808616600160801b029116179055505b50505056fe45524332303a20617070726f766520746f20746865207a65726f206164647265737353686f756c6420686176652073756666696369656e742062616c616e636520746f207472616465547269656420746f2073656e64206e6f6e2d706f73697469766520616d6f756e74a2646970667358221220389830b37d631a62e835a00078c60ace3ab4dabb25dd1c5dcba433a4d47552d964736f6c63430007040033",
  "linkReferences": {},
  "deployedLinkReferences": {}
}