{"contracts/bridge/LayerLightClientBridge.sol":{"LayerLightClientBridge":{"abi":[{"inputs":[{"internalType":"uint256","name":"_unbondingPeriod","type":"uint256"}],"stateMutability":"nonpayable","type":"constructor"},{"inputs":[{"internalType":"uint256","name":"","type":"uint256"}],"name":"blockDetails","outputs":[{"internalType":"bytes32","name":"oracleHash","type":"bytes32"},{"internalType":"uint64","name":"timeSecond","type":"uint64"},{"internalType":"uint32","name":"timeNanoSecondFraction","type":"uint32"}],"stateMutability":"view","type":"function"},{"inputs":[{"components":[{"internalType":"bytes","name":"signedDataPrefix","type":"bytes"},{"internalType":"bytes","name":"signedDataSuffix","type":"bytes"}],"internalType":"struct LayerLightClientBridge.CommonEncodedVotePartData","name":"_votePart","type":"tuple"},{"internalType":"bytes32","name":"_blockHash","type":"bytes32"}],"name":"checkPartsAndEncodedCommonParts","outputs":[{"internalType":"bytes","name":"","type":"bytes"}],"stateMutability":"pure","type":"function"},{"inputs":[{"components":[{"internalType":"bytes32","name":"r","type":"bytes32"},{"internalType":"bytes32","name":"s","type":"bytes32"},{"internalType":"uint8","name":"v","type":"uint8"},{"internalType":"bytes","name":"encodedTimestamp","type":"bytes"}],"internalType":"struct LayerLightClientBridge.TMSignatureData","name":"_sigData","type":"tuple"},{"internalType":"bytes","name":"_commonEncodedPart","type":"bytes"},{"internalType":"bytes","name":"_encodedChainID","type":"bytes"}],"name":"checkTimeAndRecoverSigner","outputs":[{"internalType":"address","name":"","type":"address"}],"stateMutability":"pure","type":"function"},{"inputs":[],"name":"encodedChainId","outputs":[{"internalType":"bytes","name":"","type":"bytes"}],"stateMutability":"view","type":"function"},{"inputs":[{"components":[{"internalType":"bytes32","name":"oracleIAVLStateHash","type":"bytes32"},{"internalType":"bytes32","name":"paramsStoreMerkleHash","type":"bytes32"},{"internalType":"bytes32","name":"slashingToStakingStoresMerkleHash","type":"bytes32"},{"internalType":"bytes32","name":"govToMintStoresMerkleHash","type":"bytes32"},{"internalType":"bytes32","name":"authToFeegrantStoresMerkleHash","type":"bytes32"},{"internalType":"bytes32","name":"transferToUpgradeStoresMerkleHash","type":"bytes32"}],"internalType":"struct LayerLightClientBridge.MultistoreData","name":"_store","type":"tuple"}],"name":"getAppHash","outputs":[{"internalType":"bytes32","name":"","type":"bytes32"}],"stateMutability":"pure","type":"function"},{"inputs":[{"components":[{"internalType":"bytes32","name":"oracleIAVLStateHash","type":"bytes32"},{"internalType":"bytes32","name":"paramsStoreMerkleHash","type":"bytes32"},{"internalType":"bytes32","name":"slashingToStakingStoresMerkleHash","type":"bytes32"},{"internalType":"bytes32","name":"govToMintStoresMerkleHash","type":"bytes32"},{"internalType":"bytes32","name":"authToFeegrantStoresMerkleHash","type":"bytes32"},{"internalType":"bytes32","name":"transferToUpgradeStoresMerkleHash","type":"bytes32"}],"internalType":"struct LayerLightClientBridge.MultistoreData","name":"_store","type":"tuple"}],"name":"getAppHash2","outputs":[{"internalType":"bytes32","name":"","type":"bytes32"}],"stateMutability":"pure","type":"function"},{"inputs":[{"components":[{"internalType":"bytes32","name":"versionAndChainIdHash","type":"bytes32"},{"internalType":"uint64","name":"height","type":"uint64"},{"internalType":"uint64","name":"timeSecond","type":"uint64"},{"internalType":"uint32","name":"timeNanoSecondFraction","type":"uint32"},{"internalType":"bytes32","name":"lastBlockIdAndOther","type":"bytes32"},{"internalType":"bytes32","name":"nextValidatorHashAndConsensusHash","type":"bytes32"},{"internalType":"bytes32","name":"lastResultsHash","type":"bytes32"},{"internalType":"bytes32","name":"evidenceAndProposerHash","type":"bytes32"}],"internalType":"struct LayerLightClientBridge.BlockHeaderMerkleParts","name":"_merkleParts","type":"tuple"},{"internalType":"bytes32","name":"_appHash","type":"bytes32"}],"name":"getBlockHeader","outputs":[{"internalType":"bytes32","name":"","type":"bytes32"}],"stateMutability":"pure","type":"function"},{"inputs":[{"internalType":"address[]","name":"_validators","type":"address[]"},{"internalType":"uint256[]","name":"_powers","type":"uint256[]"},{"internalType":"string","name":"_encodedChainID","type":"string"}],"name":"init","outputs":[],"stateMutability":"nonpayable","type":"function"},{"inputs":[],"name":"latestBlockHeight","outputs":[{"internalType":"uint256","name":"","type":"uint256"}],"stateMutability":"view","type":"function"},{"inputs":[{"components":[{"internalType":"bytes32","name":"versionAndChainIdHash","type":"bytes32"},{"internalType":"uint64","name":"height","type":"uint64"},{"internalType":"uint64","name":"timeSecond","type":"uint64"},{"internalType":"uint32","name":"timeNanoSecondFraction","type":"uint32"},{"internalType":"bytes32","name":"lastBlockIdAndOther","type":"bytes32"},{"internalType":"bytes32","name":"nextValidatorHashAndConsensusHash","type":"bytes32"},{"internalType":"bytes32","name":"lastResultsHash","type":"bytes32"},{"internalType":"bytes32","name":"evidenceAndProposerHash","type":"bytes32"}],"internalType":"struct LayerLightClientBridge.BlockHeaderMerkleParts","name":"_merkleParts","type":"tuple"}],"name":"readBlockHeaderMerkleParts","outputs":[{"components":[{"internalType":"bytes32","name":"versionAndChainIdHash","type":"bytes32"},{"internalType":"uint64","name":"height","type":"uint64"},{"internalType":"uint64","name":"timeSecond","type":"uint64"},{"internalType":"uint32","name":"timeNanoSecondFraction","type":"uint32"},{"internalType":"bytes32","name":"lastBlockIdAndOther","type":"bytes32"},{"internalType":"bytes32","name":"nextValidatorHashAndConsensusHash","type":"bytes32"},{"internalType":"bytes32","name":"lastResultsHash","type":"bytes32"},{"internalType":"bytes32","name":"evidenceAndProposerHash","type":"bytes32"}],"internalType":"struct LayerLightClientBridge.BlockHeaderMerkleParts","name":"","type":"tuple"}],"stateMutability":"pure","type":"function"},{"inputs":[{"components":[{"internalType":"bytes","name":"signedDataPrefix","type":"bytes"},{"internalType":"bytes","name":"signedDataSuffix","type":"bytes"}],"internalType":"struct LayerLightClientBridge.CommonEncodedVotePartData","name":"_commonEncodedVotePart","type":"tuple"}],"name":"readCommonEncodedVotePartData","outputs":[{"components":[{"internalType":"bytes","name":"signedDataPrefix","type":"bytes"},{"internalType":"bytes","name":"signedDataSuffix","type":"bytes"}],"internalType":"struct LayerLightClientBridge.CommonEncodedVotePartData","name":"","type":"tuple"}],"stateMutability":"pure","type":"function"},{"inputs":[{"components":[{"internalType":"uint256","name":"a","type":"uint256"},{"internalType":"uint256","name":"b","type":"uint256"}],"internalType":"struct LayerLightClientBridge.FakeStruct","name":"_fakeStruct","type":"tuple"}],"name":"readFakeStruct","outputs":[{"components":[{"internalType":"uint256","name":"a","type":"uint256"},{"internalType":"uint256","name":"b","type":"uint256"}],"internalType":"struct LayerLightClientBridge.FakeStruct","name":"","type":"tuple"}],"stateMutability":"pure","type":"function"},{"inputs":[{"internalType":"bytes","name":"_fakeStructBytes","type":"bytes"}],"name":"readFakeStructBytes","outputs":[{"components":[{"internalType":"uint256","name":"a","type":"uint256"},{"internalType":"uint256","name":"b","type":"uint256"}],"internalType":"struct LayerLightClientBridge.FakeStruct","name":"","type":"tuple"}],"stateMutability":"pure","type":"function"},{"inputs":[{"components":[{"internalType":"bytes32","name":"oracleIAVLStateHash","type":"bytes32"},{"internalType":"bytes32","name":"paramsStoreMerkleHash","type":"bytes32"},{"internalType":"bytes32","name":"slashingToStakingStoresMerkleHash","type":"bytes32"},{"internalType":"bytes32","name":"govToMintStoresMerkleHash","type":"bytes32"},{"internalType":"bytes32","name":"authToFeegrantStoresMerkleHash","type":"bytes32"},{"internalType":"bytes32","name":"transferToUpgradeStoresMerkleHash","type":"bytes32"}],"internalType":"struct LayerLightClientBridge.MultistoreData","name":"_multiStore","type":"tuple"}],"name":"readMultistoreData","outputs":[{"internalType":"bytes","name":"","type":"bytes"}],"stateMutability":"pure","type":"function"},{"inputs":[{"components":[{"internalType":"bytes32","name":"r","type":"bytes32"},{"internalType":"bytes32","name":"s","type":"bytes32"},{"internalType":"uint8","name":"v","type":"uint8"},{"internalType":"bytes","name":"encodedTimestamp","type":"bytes"}],"internalType":"struct LayerLightClientBridge.TMSignatureData","name":"_signatureData","type":"tuple"}],"name":"readTMSignatureData","outputs":[{"components":[{"internalType":"bytes32","name":"r","type":"bytes32"},{"internalType":"bytes32","name":"s","type":"bytes32"},{"internalType":"uint8","name":"v","type":"uint8"},{"internalType":"bytes","name":"encodedTimestamp","type":"bytes"}],"internalType":"struct LayerLightClientBridge.TMSignatureData","name":"","type":"tuple"}],"stateMutability":"pure","type":"function"},{"inputs":[{"components":[{"internalType":"bytes32","name":"oracleIAVLStateHash","type":"bytes32"},{"internalType":"bytes32","name":"paramsStoreMerkleHash","type":"bytes32"},{"internalType":"bytes32","name":"slashingToStakingStoresMerkleHash","type":"bytes32"},{"internalType":"bytes32","name":"govToMintStoresMerkleHash","type":"bytes32"},{"internalType":"bytes32","name":"authToFeegrantStoresMerkleHash","type":"bytes32"},{"internalType":"bytes32","name":"transferToUpgradeStoresMerkleHash","type":"bytes32"}],"internalType":"struct LayerLightClientBridge.MultistoreData","name":"_multiStore","type":"tuple"},{"components":[{"internalType":"bytes32","name":"versionAndChainIdHash","type":"bytes32"},{"internalType":"uint64","name":"height","type":"uint64"},{"internalType":"uint64","name":"timeSecond","type":"uint64"},{"internalType":"uint32","name":"timeNanoSecondFraction","type":"uint32"},{"internalType":"bytes32","name":"lastBlockIdAndOther","type":"bytes32"},{"internalType":"bytes32","name":"nextValidatorHashAndConsensusHash","type":"bytes32"},{"internalType":"bytes32","name":"lastResultsHash","type":"bytes32"},{"internalType":"bytes32","name":"evidenceAndProposerHash","type":"bytes32"}],"internalType":"struct LayerLightClientBridge.BlockHeaderMerkleParts","name":"_merkleParts","type":"tuple"},{"components":[{"internalType":"bytes","name":"signedDataPrefix","type":"bytes"},{"internalType":"bytes","name":"signedDataSuffix","type":"bytes"}],"internalType":"struct LayerLightClientBridge.CommonEncodedVotePartData","name":"_commonEncodedVotePart","type":"tuple"},{"components":[{"internalType":"bytes32","name":"r","type":"bytes32"},{"internalType":"bytes32","name":"s","type":"bytes32"},{"internalType":"uint8","name":"v","type":"uint8"},{"internalType":"bytes","name":"encodedTimestamp","type":"bytes"}],"internalType":"struct LayerLightClientBridge.TMSignatureData[]","name":"_signatures","type":"tuple[]"}],"name":"relayBlock","outputs":[],"stateMutability":"nonpayable","type":"function"},{"inputs":[],"name":"totalValidatorPower","outputs":[{"internalType":"uint256","name":"","type":"uint256"}],"stateMutability":"view","type":"function"},{"inputs":[],"name":"unbondingPeriod","outputs":[{"internalType":"uint256","name":"","type":"uint256"}],"stateMutability":"view","type":"function"},{"inputs":[{"internalType":"address","name":"","type":"address"}],"name":"validatorPowers","outputs":[{"internalType":"uint256","name":"","type":"uint256"}],"stateMutability":"view","type":"function"},{"inputs":[{"components":[{"internalType":"bytes32","name":"oracleIAVLStateHash","type":"bytes32"},{"internalType":"bytes32","name":"paramsStoreMerkleHash","type":"bytes32"},{"internalType":"bytes32","name":"slashingToStakingStoresMerkleHash","type":"bytes32"},{"internalType":"bytes32","name":"govToMintStoresMerkleHash","type":"bytes32"},{"internalType":"bytes32","name":"authToFeegrantStoresMerkleHash","type":"bytes32"},{"internalType":"bytes32","name":"transferToUpgradeStoresMerkleHash","type":"bytes32"}],"internalType":"struct LayerLightClientBridge.MultistoreData","name":"_multiStore","type":"tuple"},{"components":[{"internalType":"bytes32","name":"versionAndChainIdHash","type":"bytes32"},{"internalType":"uint64","name":"height","type":"uint64"},{"internalType":"uint64","name":"timeSecond","type":"uint64"},{"internalType":"uint32","name":"timeNanoSecondFraction","type":"uint32"},{"internalType":"bytes32","name":"lastBlockIdAndOther","type":"bytes32"},{"internalType":"bytes32","name":"nextValidatorHashAndConsensusHash","type":"bytes32"},{"internalType":"bytes32","name":"lastResultsHash","type":"bytes32"},{"internalType":"bytes32","name":"evidenceAndProposerHash","type":"bytes32"}],"internalType":"struct LayerLightClientBridge.BlockHeaderMerkleParts","name":"_merkleParts","type":"tuple"},{"components":[{"internalType":"bytes","name":"signedDataPrefix","type":"bytes"},{"internalType":"bytes","name":"signedDataSuffix","type":"bytes"}],"internalType":"struct LayerLightClientBridge.CommonEncodedVotePartData","name":"_commonEncodedVotePart","type":"tuple"},{"components":[{"internalType":"bytes32","name":"r","type":"bytes32"},{"internalType":"bytes32","name":"s","type":"bytes32"},{"internalType":"uint8","name":"v","type":"uint8"},{"internalType":"bytes","name":"encodedTimestamp","type":"bytes"}],"internalType":"struct LayerLightClientBridge.TMSignatureData[]","name":"_signatures","type":"tuple[]"}],"name":"verifyBlockHeader","outputs":[{"internalType":"bool","name":"","type":"bool"}],"stateMutability":"view","type":"function"},{"inputs":[{"internalType":"uint256","name":"_blockHeight","type":"uint256"},{"components":[{"internalType":"string","name":"clientID","type":"string"},{"internalType":"uint64","name":"oracleScriptID","type":"uint64"},{"internalType":"bytes","name":"params","type":"bytes"},{"internalType":"uint64","name":"askCount","type":"uint64"},{"internalType":"uint64","name":"minCount","type":"uint64"},{"internalType":"uint64","name":"requestID","type":"uint64"},{"internalType":"uint64","name":"ansCount","type":"uint64"},{"internalType":"uint64","name":"requestTime","type":"uint64"},{"internalType":"uint64","name":"resolveTime","type":"uint64"},{"internalType":"enum LayerLightClientBridge.ResolveStatus","name":"resolveStatus","type":"uint8"},{"internalType":"bytes","name":"result","type":"bytes"}],"internalType":"struct LayerLightClientBridge.Value","name":"_value","type":"tuple"},{"internalType":"uint256","name":"_oracleHeight","type":"uint256"},{"components":[{"internalType":"bool","name":"isDataOnRight","type":"bool"},{"internalType":"uint8","name":"subtreeHeight","type":"uint8"},{"internalType":"uint256","name":"subtreeSize","type":"uint256"},{"internalType":"uint256","name":"subtreeVersion","type":"uint256"},{"internalType":"bytes32","name":"siblingHash","type":"bytes32"}],"internalType":"struct LayerLightClientBridge.IAVLMerklePath[]","name":"_merklePaths","type":"tuple[]"}],"name":"verifyOracleData","outputs":[{"components":[{"internalType":"string","name":"clientID","type":"string"},{"internalType":"uint64","name":"oracleScriptID","type":"uint64"},{"internalType":"bytes","name":"params","type":"bytes"},{"internalType":"uint64","name":"askCount","type":"uint64"},{"internalType":"uint64","name":"minCount","type":"uint64"},{"internalType":"uint64","name":"requestID","type":"uint64"},{"internalType":"uint64","name":"ansCount","type":"uint64"},{"internalType":"uint64","name":"requestTime","type":"uint64"},{"internalType":"uint64","name":"resolveTime","type":"uint64"},{"internalType":"enum LayerLightClientBridge.ResolveStatus","name":"resolveStatus","type":"uint8"},{"internalType":"bytes","name":"result","type":"bytes"}],"internalType":"struct LayerLightClientBridge.Value","name":"","type":"tuple"}],"stateMutability":"view","type":"function"}],"evm":{"bytecode":{"linkReferences":{},"object":"60806040523480156200001157600080fd5b50604051620049d2380380620049d283398181016040528101906200003791906200005c565b8060028190555050620000ac565b600081519050620000568162000092565b92915050565b6000602082840312156200006f57600080fd5b60006200007f8482850162000045565b91505092915050565b6000819050919050565b6200009d8162000088565b8114620000a957600080fd5b50565b61491680620000bc6000396000f3fe608060405234801561001057600080fd5b50600436106101375760003560e01c8063847c1b23116100b8578063e71296e11161007c578063e71296e1146103c0578063f3f39ee5146103f0578063f61aa09d1461040e578063f8156a6e1461043e578063f953205a1461045c578063fda3442b1461048e57610137565b8063847c1b23146102f857806393a4a13414610328578063af4b910714610344578063c573d97714610360578063cc2532ba1461039057610137565b80635cd2458c116100ff5780635cd2458c1461022c57806364c471931461025c578063676435c71461027a578063679b7b9a146102aa5780636cf6d675146102da57610137565b8063071ee1e11461013c5780630a4723e61461016c5780630ac804c51461019c5780631b60f867146101cc5780632ff08eb5146101fc575b600080fd5b61015660048036038101906101519190613198565b6104be565b6040516101639190613d62565b60405180910390f35b61018660048036038101906101819190612f16565b610627565b6040516101939190613f91565b60405180910390f35b6101b660048036038101906101b19190613098565b610651565b6040516101c39190613d98565b60405180910390f35b6101e660048036038101906101e19190612eae565b61073a565b6040516101f39190613f75565b60405180910390f35b61021660048036038101906102119190613157565b61074a565b6040516102239190613fce565b60405180910390f35b61024660048036038101906102419190612f57565b61075a565b6040516102539190613e2f565b60405180910390f35b610264610830565b6040516102719190613e2f565b60405180910390f35b610294600480360381019061028f9190612e69565b6108be565b6040516102a19190613fb3565b60405180910390f35b6102c460048036038101906102bf9190613098565b6108e5565b6040516102d19190613e2f565b60405180910390f35b6102e2610930565b6040516102ef9190614012565b60405180910390f35b610312600480360381019061030d9190612ed8565b610936565b60405161031f9190613d98565b60405180910390f35b610342600480360381019061033d9190612d9c565b610a1f565b005b61035e60048036038101906103599190612ffd565b610bf9565b005b61037a60048036038101906103759190613258565b610d65565b6040516103879190613ff0565b60405180910390f35b6103aa60048036038101906103a591906130c1565b610f20565b6040516103b79190613d7d565b60405180910390f35b6103da60048036038101906103d59190613098565b611180565b6040516103e79190613d98565b60405180910390f35b6103f8611287565b6040516104059190614012565b60405180910390f35b61042860048036038101906104239190612d73565b61128d565b6040516104359190614012565b60405180910390f35b6104466112a5565b6040516104539190614012565b60405180910390f35b6104766004803603810190610471919061322f565b6112ab565b60405161048593929190613db3565b60405180910390f35b6104a860048036038101906104a39190612fab565b6112f9565b6040516104b59190613fb3565b60405180910390f35b60008360600151516006111580156104dc5750600c84606001515111155b61051b576040517f08c379a000000000000000000000000000000000000000000000000000000000815260040161051290613f35565b60405180910390fd5b600083602a866060015151876060015186604051602001610540959493929190613ae1565b604051602081830303815290604052905060016002825183604051602001610569929190613bdf565b60405160208183030381529060405260405161058591906139f7565b602060405180830381855afa1580156105a2573d6000803e3d6000fd5b5050506040513d601f19601f820116820180604052508101906105c59190612e40565b866040015187600001518860200151604051600081526020016040526040516105f19493929190613dea565b6020604051602081039080840390855afa158015610613573d6000803e3d6000fd5b505050602060405103519150509392505050565b61062f61222a565b61063c8260000151611309565b6106498260200151611309565b819050919050565b60008061072f6107258460800151610720866060015161071b886040015161071661070c60028c6000015160405160200161068c919061396c565b6040516020818303038152906040526040516106a891906139f7565b602060405180830381855afa1580156106c5573d6000803e3d6000fd5b5050506040513d601f19601f820116820180604052508101906106e89190612e40565b6040516020016106f89190613b5a565b6040516020818303038152906040526113a2565b8b6020015161141d565b61141d565b61141d565b61141d565b8460a0015161141d565b905080915050919050565b610742612244565b819050919050565b6107526122b2565b819050919050565b6060600f836000015151148061077557506018836000015151145b6107b4576040517f08c379a00000000000000000000000000000000000000000000000000000000081526004016107ab90613e95565b60405180910390fd5b6026836020015151146107fc576040517f08c379a00000000000000000000000000000000000000000000000000000000081526004016107f390613e75565b60405180910390fd5b826000015182846020015160405160200161081993929190613a0e565b604051602081830303815290604052905092915050565b6000805461083d906143cb565b80601f0160208091040260200160405190810160405280929190818152602001828054610869906143cb565b80156108b65780601f1061088b576101008083540402835291602001916108b6565b820191906000526020600020905b81548152906001019060200180831161089957829003601f168201915b505050505081565b6108c66122e3565b6108dd83838101906108d89190612fab565b6112f9565b905092915050565b6060816000015182602001518360400151846060015185608001518660a0015160405160200161091a96959493929190613987565b6040516020818303038152906040529050919050565b60025481565b600080610a136109b96109af86600001516109aa61098b60086109668b6020015167ffffffffffffffff1661149b565b604051602001610977929190613bdf565b6040516020818303038152906040526113a2565b6109a56109a08b604001518c60600151611666565b6113a2565b61141d565b61141d565b866080015161141d565b610a0e610a048760a001516109ff6109f5600a60208b6040516020016109e193929190613cac565b6040516020818303038152906040526113a2565b8a60c0015161141d565b61141d565b8760e0015161141d565b61141d565b90508091505092915050565b6000808054610a2d906143cb565b905014610a6f576040517f08c379a0000000000000000000000000000000000000000000000000000000008152600401610a6690613ef5565b60405180910390fd5b60005b86869050811015610bb857848482818110610ab6577f4e487b7100000000000000000000000000000000000000000000000000000000600052603260045260246000fd5b9050602002013560046000898985818110610afa577f4e487b7100000000000000000000000000000000000000000000000000000000600052603260045260246000fd5b9050602002016020810190610b0f9190612d73565b73ffffffffffffffffffffffffffffffffffffffff1673ffffffffffffffffffffffffffffffffffffffff16815260200190815260200160002081905550848482818110610b86577f4e487b7100000000000000000000000000000000000000000000000000000000600052603260045260246000fd5b9050602002013560016000828254610b9e9190614150565b925050819055508080610bb09061442e565b915050610a72565b508181604051602001610bcc929190613e51565b60405160208183030381529060405260009080519060200190610bf09291906122fd565b50505050505050565b610c3a85803603810190610c0d9190613098565b85803603810190610c1e9190612eae565b85610c2890614363565b858590610c35919061433c565b610f20565b610c79576040517f08c379a0000000000000000000000000000000000000000000000000000000008152600401610c7090613eb5565b60405180910390fd5b604051806060016040528086600001358152602001856040016020810190610ca19190613319565b67ffffffffffffffff168152602001856060016020810190610cc391906132f0565b63ffffffff1681525060056000866020016020810190610ce39190613319565b67ffffffffffffffff1681526020019081526020016000206000820151816000015560208201518160010160006101000a81548167ffffffffffffffff021916908367ffffffffffffffff16021790555060408201518160010160086101000a81548163ffffffff021916908363ffffffff1602179055509050505050505050565b610d6d612383565b6000600560008881526020019081526020016000206000015490506000801b811415610dce576040517f08c379a0000000000000000000000000000000000000000000000000000000008152600401610dc590613ed5565b60405180910390fd5b60006002610de488610ddf90614376565b6116ea565b604051610df191906139f7565b602060405180830381855afa158015610e0e573d6000803e3d6000fd5b5050506040513d601f19601f82011682018060405250810190610e319190612e40565b9050610eca828760ff8a60a0016020810190610e4d9190613319565b604051602001610e5e929190613c80565b604051602081830303815290604052848989808060200260200160405190810160405280939291908181526020016000905b82821015610ec057848483905060a00201803603810190610eb19190612fd4565b81526020019060010190610e90565b5050505050611d6e565b610f09576040517f08c379a0000000000000000000000000000000000000000000000000000000008152600401610f0090613f15565b60405180910390fd5b86610f1390614376565b9250505095945050505050565b600080610f2c86611180565b90506000610f3a8683610936565b90506000610f48868361075a565b90506000808054610f58906143cb565b80601f0160208091040260200160405190810160405280929190818152602001828054610f84906143cb565b8015610fd15780601f10610fa657610100808354040283529160200191610fd1565b820191906000526020600020905b815481529060010190602001808311610fb457829003601f168201915b5050505050905060008060005b88518110156111515760006110348a8381518110611025577f4e487b7100000000000000000000000000000000000000000000000000000000600052603260045260246000fd5b602002602001015187876104be565b90508373ffffffffffffffffffffffffffffffffffffffff168173ffffffffffffffffffffffffffffffffffffffff16116110a4576040517f08c379a000000000000000000000000000000000000000000000000000000000815260040161109b90613f55565b60405180910390fd5b6000600460008373ffffffffffffffffffffffffffffffffffffffff1673ffffffffffffffffffffffffffffffffffffffff16815260200190815260200160002054111561113a57600460008273ffffffffffffffffffffffffffffffffffffffff1673ffffffffffffffffffffffffffffffffffffffff16815260200190815260200160002054836111379190614150565b92505b8093505080806111499061442e565b915050610fde565b50600260015461116191906141e4565b60038261116e91906141e4565b10159650505050505050949350505050565b60008061121d6002846000015160405160200161119d919061396c565b6040516020818303038152906040526040516111b991906139f7565b602060405180830381855afa1580156111d6573d6000803e3d6000fd5b5050506040513d601f19601f820116820180604052508101906111f99190612e40565b6040516020016112099190613b34565b6040516020818303038152906040526113a2565b9050600061122f82856020015161141d565b9050600061124185604001518361141d565b9050600061125386606001518361141d565b9050600061126587608001518361141d565b90506000611277828960a0015161141d565b9050809650505050505050919050565b60035481565b60046020528060005260406000206000915090505481565b60015481565b60056020528060005260406000206000915090508060000154908060010160009054906101000a900467ffffffffffffffff16908060010160089054906101000a900463ffffffff16905083565b6113016122e3565b819050919050565b61139f8160405160240161131d9190613e2f565b6040516020818303038152906040527f0be77f56000000000000000000000000000000000000000000000000000000007bffffffffffffffffffffffffffffffffffffffffffffffffffffffff19166020820180517bffffffffffffffffffffffffffffffffffffffffffffffffffffffff8381831617835250505050611e7b565b50565b600060026000836040516020016113ba929190613bdf565b6040516020818303038152906040526040516113d691906139f7565b602060405180830381855afa1580156113f3573d6000803e3d6000fd5b5050506040513d601f19601f820116820180604052508101906114169190612e40565b9050919050565b600060026001848460405160200161143793929190613ba2565b60405160208183030381529060405260405161145391906139f7565b602060405180830381855afa158015611470573d6000803e3d6000fd5b5050506040513d601f19601f820116820180604052508101906114939190612e40565b905092915050565b6060600082905060005b60008211156114c657806114b89061442e565b9050600782901c91506114a5565b60008167ffffffffffffffff811115611508577f4e487b7100000000000000000000000000000000000000000000000000000000600052604160045260246000fd5b6040519080825280601f01601f19166020018201604052801561153a5781602001600182028036833780820191505090505b50905084925060005b828110156115d557607f841660801760f81b82828151811061158e577f4e487b7100000000000000000000000000000000000000000000000000000000600052603260045260246000fd5b60200101907effffffffffffffffffffffffffffffffffffffffffffffffffffffffffffff1916908160001a905350600784901c9350806115ce9061442e565b9050611543565b50607f60f81b816001846115e9919061423e565b81518110611620577f4e487b7100000000000000000000000000000000000000000000000000000000600052603260045260246000fd5b6020010181815160f81c60f81b169150907effffffffffffffffffffffffffffffffffffffffffffffffffffffffffffff1916908160001a905350809350505050919050565b6060600061167d8467ffffffffffffffff1661149b565b60405160200161168d9190613b80565b604051602081830303815290604052905060008363ffffffff1611156116e057806116bd8463ffffffff1661149b565b6040516020016116ce929190613ab2565b60405160208183030381529060405290505b8091505092915050565b60608060008360000151511115611778578061174060016002600681111561173b577f4e487b7100000000000000000000000000000000000000000000000000000000600052602160045260246000fd5b611e95565b61174e856000015151611ec4565b85600001516040516020016117669493929190613a74565b60405160208183030381529060405290505b6000836020015167ffffffffffffffff161461180457806117d36002600060068111156117ce577f4e487b7100000000000000000000000000000000000000000000000000000000600052602160045260246000fd5b611e95565b6117e08560200151611ec4565b6040516020016117f293929190613a43565b60405160208183030381529060405290505b6000836040015151111561188f5780611857600360026006811115611852577f4e487b7100000000000000000000000000000000000000000000000000000000600052602160045260246000fd5b611e95565b611865856040015151611ec4565b856040015160405160200161187d9493929190613a74565b60405160208183030381529060405290505b6000836060015167ffffffffffffffff161461191b57806118ea6004600060068111156118e5577f4e487b7100000000000000000000000000000000000000000000000000000000600052602160045260246000fd5b611e95565b6118f78560600151611ec4565b60405160200161190993929190613a43565b60405160208183030381529060405290505b6000836080015167ffffffffffffffff16146119a75780611976600560006006811115611971577f4e487b7100000000000000000000000000000000000000000000000000000000600052602160045260246000fd5b611e95565b6119838560800151611ec4565b60405160200161199593929190613a43565b60405160208183030381529060405290505b60008360a0015167ffffffffffffffff1614611a335780611a026006600060068111156119fd577f4e487b7100000000000000000000000000000000000000000000000000000000600052602160045260246000fd5b611e95565b611a0f8560a00151611ec4565b604051602001611a2193929190613a43565b60405160208183030381529060405290505b60008360c0015167ffffffffffffffff1614611abf5780611a8e600760006006811115611a89577f4e487b7100000000000000000000000000000000000000000000000000000000600052602160045260246000fd5b611e95565b611a9b8560c00151611ec4565b604051602001611aad93929190613a43565b60405160208183030381529060405290505b60008360e0015167ffffffffffffffff1614611b4b5780611b1a600860006006811115611b15577f4e487b7100000000000000000000000000000000000000000000000000000000600052602160045260246000fd5b611e95565b611b278560e00151611ec4565b604051602001611b3993929190613a43565b60405160208183030381529060405290505b600083610100015167ffffffffffffffff1614611bd95780611ba7600960006006811115611ba2577f4e487b7100000000000000000000000000000000000000000000000000000000600052602160045260246000fd5b611e95565b611bb5856101000151611ec4565b604051602001611bc793929190613a43565b60405160208183030381529060405290505b60008361012001516003811115611c19577f4e487b7100000000000000000000000000000000000000000000000000000000600052602160045260246000fd5b67ffffffffffffffff1614611cd75780611c6d600a60006006811115611c68577f4e487b7100000000000000000000000000000000000000000000000000000000600052602160045260246000fd5b611e95565b611cb38561012001516003811115611cae577f4e487b7100000000000000000000000000000000000000000000000000000000600052602160045260246000fd5b611ed6565b604051602001611cc593929190613a43565b60405160208183030381529060405290505b6000836101400151511115611d655780611d2b600b60026006811115611d26577f4e487b7100000000000000000000000000000000000000000000000000000000600052602160045260246000fd5b611e95565b611d3a85610140015151611ec4565b856101400151604051602001611d539493929190613a74565b60405160208183030381529060405290505b80915050919050565b600080611d7a8661149b565b905060006002600060028489518a60208b604051602001611da19796959493929190613ce9565b604051602081830303815290604052604051611dbd91906139f7565b602060405180830381855afa158015611dda573d6000803e3d6000fd5b5050506040513d601f19601f82011682018060405250810190611dfd9190612e40565b905060005b8451811015611e6a57611e55858281518110611e47577f4e487b7100000000000000000000000000000000000000000000000000000000600052603260045260246000fd5b602002602001015183611eee565b91508080611e629061442e565b915050611e02565b508781149250505095945050505050565b611e9281611e8a611fbc611fdd565b63ffffffff16565b50565b606060008260038567ffffffffffffffff16901b1790506000611eb782611fe8565b9050809250505092915050565b6060611ecf82611fe8565b9050919050565b6060611ee78263ffffffff16611fe8565b9050919050565b60008060008460000151611f0757838560800151611f0e565b8460800151845b9150915060026001866020015160ff16901b611f2d876040015161220c565b611f3a886060015161220c565b602086602087604051602001611f569796959493929190613c07565b604051602081830303815290604052604051611f7291906139f7565b602060405180830381855afa158015611f8f573d6000803e3d6000fd5b5050506040513d601f19601f82011682018060405250810190611fb29190612e40565b9250505092915050565b60006a636f6e736f6c652e6c6f679050600080835160208501845afa505050565b61245b819050919050565b606060008290506000600190505b607f8267ffffffffffffffff16111561202e5760078267ffffffffffffffff16901c915060018161202791906141a6565b9050611ff6565b60008167ffffffffffffffff1667ffffffffffffffff81111561207a577f4e487b7100000000000000000000000000000000000000000000000000000000600052604160045260246000fd5b6040519080825280601f01601f1916602001820160405280156120ac5781602001600182028036833780820191505090505b50905084925060005b8267ffffffffffffffff168167ffffffffffffffff16101561217157607f841660801760f81b828267ffffffffffffffff168151811061211e577f4e487b7100000000000000000000000000000000000000000000000000000000600052603260045260246000fd5b60200101907effffffffffffffffffffffffffffffffffffffffffffffffffffffffffffff1916908160001a90535060078467ffffffffffffffff16901c9350808061216990614477565b9150506120b5565b50607f60f81b816001846121859190614272565b67ffffffffffffffff16815181106121c6577f4e487b7100000000000000000000000000000000000000000000000000000000600052603260045260246000fd5b6020010181815160f81c60f81b169150907effffffffffffffffffffffffffffffffffffffffffffffffffffffffffffff1916908160001a905350809350505050919050565b606061222360028361221e91906141e4565b61149b565b9050919050565b604051806040016040528060608152602001606081525090565b60405180610100016040528060008019168152602001600067ffffffffffffffff168152602001600067ffffffffffffffff168152602001600063ffffffff168152602001600080191681526020016000801916815260200160008019168152602001600080191681525090565b60405180608001604052806000801916815260200160008019168152602001600060ff168152602001606081525090565b604051806040016040528060008152602001600081525090565b828054612309906143cb565b90600052602060002090601f01602090048101928261232b5760008555612372565b82601f1061234457805160ff1916838001178555612372565b82800160010185558215612372579182015b82811115612371578251825591602001919060010190612356565b5b50905061237f919061248a565b5090565b60405180610160016040528060608152602001600067ffffffffffffffff16815260200160608152602001600067ffffffffffffffff168152602001600067ffffffffffffffff168152602001600067ffffffffffffffff168152602001600067ffffffffffffffff168152602001600067ffffffffffffffff168152602001600067ffffffffffffffff1681526020016000600381111561244e577f4e487b7100000000000000000000000000000000000000000000000000000000600052602160045260246000fd5b8152602001606081525090565b7f4e487b7100000000000000000000000000000000000000000000000000000000600052605160045260246000fd5b5b808211156124a357600081600090555060010161248b565b5090565b60006124ba6124b584614052565b61402d565b9050808382526020820190508260005b858110156124fa57813585016124e08882612b27565b8452602084019350602083019250506001810190506124ca565b5050509392505050565b60006125176125128461407e565b61402d565b90508281526020810184848401111561252f57600080fd5b61253a848285614389565b509392505050565b6000612555612550846140af565b61402d565b90508281526020810184848401111561256d57600080fd5b612578848285614389565b509392505050565b60008135905061258f8161482f565b92915050565b60008083601f8401126125a757600080fd5b8235905067ffffffffffffffff8111156125c057600080fd5b6020830191508360208202830111156125d857600080fd5b9250929050565b60008083601f8401126125f157600080fd5b8235905067ffffffffffffffff81111561260a57600080fd5b6020830191508360a082028301111561262257600080fd5b9250929050565b60008083601f84011261263b57600080fd5b8235905067ffffffffffffffff81111561265457600080fd5b60208301915083602082028301111561266c57600080fd5b9250929050565b600082601f83011261268457600080fd5b81356126948482602086016124a7565b91505092915050565b60008083601f8401126126af57600080fd5b8235905067ffffffffffffffff8111156126c857600080fd5b6020830191508360208202830111156126e057600080fd5b9250929050565b6000813590506126f681614846565b92915050565b60008135905061270b8161485d565b92915050565b6000815190506127208161485d565b92915050565b60008083601f84011261273857600080fd5b8235905067ffffffffffffffff81111561275157600080fd5b60208301915083600182028301111561276957600080fd5b9250929050565b600082601f83011261278157600080fd5b8135612791848260208601612504565b91505092915050565b6000813590506127a981614874565b92915050565b60008083601f8401126127c157600080fd5b8235905067ffffffffffffffff8111156127da57600080fd5b6020830191508360018202830111156127f257600080fd5b9250929050565b600082601f83011261280a57600080fd5b813561281a848260208601612542565b91505092915050565b6000610100828403121561283657600080fd5b81905092915050565b6000610100828403121561285257600080fd5b61285d61010061402d565b9050600061286d848285016126fc565b600083015250602061288184828501612d49565b602083015250604061289584828501612d49565b60408301525060606128a984828501612d34565b60608301525060806128bd848285016126fc565b60808301525060a06128d1848285016126fc565b60a08301525060c06128e5848285016126fc565b60c08301525060e06128f9848285016126fc565b60e08301525092915050565b60006040828403121561291757600080fd5b81905092915050565b60006040828403121561293257600080fd5b61293c604061402d565b9050600082013567ffffffffffffffff81111561295857600080fd5b61296484828501612770565b600083015250602082013567ffffffffffffffff81111561298457600080fd5b61299084828501612770565b60208301525092915050565b6000604082840312156129ae57600080fd5b6129b8604061402d565b905060006129c884828501612d1f565b60008301525060206129dc84828501612d1f565b60208301525092915050565b600060a082840312156129fa57600080fd5b612a0460a061402d565b90506000612a14848285016126e7565b6000830152506020612a2884828501612d5e565b6020830152506040612a3c84828501612d1f565b6040830152506060612a5084828501612d1f565b6060830152506080612a64848285016126fc565b60808301525092915050565b600060c08284031215612a8257600080fd5b81905092915050565b600060c08284031215612a9d57600080fd5b612aa760c061402d565b90506000612ab7848285016126fc565b6000830152506020612acb848285016126fc565b6020830152506040612adf848285016126fc565b6040830152506060612af3848285016126fc565b6060830152506080612b07848285016126fc565b60808301525060a0612b1b848285016126fc565b60a08301525092915050565b600060808284031215612b3957600080fd5b612b43608061402d565b90506000612b53848285016126fc565b6000830152506020612b67848285016126fc565b6020830152506040612b7b84828501612d5e565b604083015250606082013567ffffffffffffffff811115612b9b57600080fd5b612ba784828501612770565b60608301525092915050565b60006101608284031215612bc657600080fd5b81905092915050565b60006101608284031215612be257600080fd5b612bed61016061402d565b9050600082013567ffffffffffffffff811115612c0957600080fd5b612c15848285016127f9565b6000830152506020612c2984828501612d49565b602083015250604082013567ffffffffffffffff811115612c4957600080fd5b612c5584828501612770565b6040830152506060612c6984828501612d49565b6060830152506080612c7d84828501612d49565b60808301525060a0612c9184828501612d49565b60a08301525060c0612ca584828501612d49565b60c08301525060e0612cb984828501612d49565b60e083015250610100612cce84828501612d49565b61010083015250610120612ce48482850161279a565b6101208301525061014082013567ffffffffffffffff811115612d0657600080fd5b612d1284828501612770565b6101408301525092915050565b600081359050612d2e81614884565b92915050565b600081359050612d438161489b565b92915050565b600081359050612d58816148b2565b92915050565b600081359050612d6d816148c9565b92915050565b600060208284031215612d8557600080fd5b6000612d9384828501612580565b91505092915050565b60008060008060008060608789031215612db557600080fd5b600087013567ffffffffffffffff811115612dcf57600080fd5b612ddb89828a01612595565b9650965050602087013567ffffffffffffffff811115612dfa57600080fd5b612e0689828a0161269d565b9450945050604087013567ffffffffffffffff811115612e2557600080fd5b612e3189828a016127af565b92509250509295509295509295565b600060208284031215612e5257600080fd5b6000612e6084828501612711565b91505092915050565b60008060208385031215612e7c57600080fd5b600083013567ffffffffffffffff811115612e9657600080fd5b612ea285828601612726565b92509250509250929050565b60006101008284031215612ec157600080fd5b6000612ecf8482850161283f565b91505092915050565b6000806101208385031215612eec57600080fd5b6000612efa8582860161283f565b925050610100612f0c858286016126fc565b9150509250929050565b600060208284031215612f2857600080fd5b600082013567ffffffffffffffff811115612f4257600080fd5b612f4e84828501612920565b91505092915050565b60008060408385031215612f6a57600080fd5b600083013567ffffffffffffffff811115612f8457600080fd5b612f9085828601612920565b9250506020612fa1858286016126fc565b9150509250929050565b600060408284031215612fbd57600080fd5b6000612fcb8482850161299c565b91505092915050565b600060a08284031215612fe657600080fd5b6000612ff4848285016129e8565b91505092915050565b6000806000806000610200868803121561301657600080fd5b600061302488828901612a70565b95505060c061303588828901612823565b9450506101c086013567ffffffffffffffff81111561305357600080fd5b61305f88828901612905565b9350506101e086013567ffffffffffffffff81111561307d57600080fd5b61308988828901612629565b92509250509295509295909350565b600060c082840312156130aa57600080fd5b60006130b884828501612a8b565b91505092915050565b60008060008061020085870312156130d857600080fd5b60006130e687828801612a8b565b94505060c06130f78782880161283f565b9350506101c085013567ffffffffffffffff81111561311557600080fd5b61312187828801612920565b9250506101e085013567ffffffffffffffff81111561313f57600080fd5b61314b87828801612673565b91505092959194509250565b60006020828403121561316957600080fd5b600082013567ffffffffffffffff81111561318357600080fd5b61318f84828501612b27565b91505092915050565b6000806000606084860312156131ad57600080fd5b600084013567ffffffffffffffff8111156131c757600080fd5b6131d386828701612b27565b935050602084013567ffffffffffffffff8111156131f057600080fd5b6131fc86828701612770565b925050604084013567ffffffffffffffff81111561321957600080fd5b61322586828701612770565b9150509250925092565b60006020828403121561324157600080fd5b600061324f84828501612d1f565b91505092915050565b60008060008060006080868803121561327057600080fd5b600061327e88828901612d1f565b955050602086013567ffffffffffffffff81111561329b57600080fd5b6132a788828901612bb3565b94505060406132b888828901612d1f565b935050606086013567ffffffffffffffff8111156132d557600080fd5b6132e1888289016125df565b92509250509295509295909350565b60006020828403121561330257600080fd5b600061331084828501612d34565b91505092915050565b60006020828403121561332b57600080fd5b600061333984828501612d49565b91505092915050565b61334b816142a6565b82525050565b61335a816142b8565b82525050565b613369816142c4565b82525050565b613378816142c4565b82525050565b61338f61338a826142c4565b6144a8565b82525050565b60006133a0826140e0565b6133aa81856140f6565b93506133ba818560208601614398565b6133c381614592565b840191505092915050565b60006133d9826140e0565b6133e38185614107565b93506133f3818560208601614398565b6133fc81614592565b840191505092915050565b6000613412826140e0565b61341c8185614118565b935061342c818560208601614398565b80840191505092915050565b61344181614351565b82525050565b60006134538385614134565b9350613460838584614389565b61346983614592565b840190509392505050565b600061347f826140eb565b6134898185614123565b9350613499818560208601614398565b6134a281614592565b840191505092915050565b60006134ba600a83614145565b91506134c5826145bd565b600a82019050919050565b60006134dd602c83614134565b91506134e8826145e6565b604082019050919050565b6000613500602c83614134565b915061350b82614635565b604082019050919050565b6000613523601483614134565b915061352e82614684565b602082019050919050565b6000613546600a83614145565b9150613551826146ad565b600a82019050919050565b6000613569601683614134565b9150613574826146d6565b602082019050919050565b600061358c600183614145565b9150613597826146ff565b600182019050919050565b60006135af600183614145565b91506135ba82614728565b600182019050919050565b60006135d2601383614134565b91506135dd82614751565b602082019050919050565b60006135f5600d83614134565b91506136008261477a565b602082019050919050565b6000613618602583614134565b9150613623826147a3565b604082019050919050565b600061363b601483614134565b9150613646826147f2565b602082019050919050565b610100820160008201516136686000850182613360565b50602082015161367b6020850182613902565b50604082015161368e6040850182613902565b5060608201516136a160608501826138e4565b5060808201516136b46080850182613360565b5060a08201516136c760a0850182613360565b5060c08201516136da60c0850182613360565b5060e08201516136ed60e0850182613360565b50505050565b600060408301600083015184820360008601526137108282613395565b9150506020830151848203602086015261372a8282613395565b9150508091505092915050565b60408201600082015161374d60008501826138c6565b50602082015161376060208501826138c6565b50505050565b600060808301600083015161377e6000860182613360565b5060208301516137916020860182613360565b5060408301516137a46040860182613937565b50606083015184820360608601526137bc8282613395565b9150508091505092915050565b60006101608301600083015184820360008601526137e78282613474565b91505060208301516137fc6020860182613902565b50604083015184820360408601526138148282613395565b91505060608301516138296060860182613902565b50608083015161383c6080860182613902565b5060a083015161384f60a0860182613902565b5060c083015161386260c0860182613902565b5060e083015161387560e0860182613902565b5061010083015161388a610100860182613902565b5061012083015161389f610120860182613438565b506101408301518482036101408601526138b98282613395565b9150508091505092915050565b6138cf81614301565b82525050565b6138de81614301565b82525050565b6138ed8161430b565b82525050565b6138fc8161430b565b82525050565b61390b8161431b565b82525050565b61391a8161431b565b82525050565b61393161392c8261431b565b6144b2565b82525050565b6139408161432f565b82525050565b61394f8161432f565b82525050565b6139666139618261432f565b6144c4565b82525050565b6000613978828461337e565b60208201915081905092915050565b6000613993828961337e565b6020820191506139a3828861337e565b6020820191506139b3828761337e565b6020820191506139c3828661337e565b6020820191506139d3828561337e565b6020820191506139e3828461337e565b602082019150819050979650505050505050565b6000613a038284613407565b915081905092915050565b6000613a1a8286613407565b9150613a26828561337e565b602082019150613a368284613407565b9150819050949350505050565b6000613a4f8286613407565b9150613a5b8285613407565b9150613a678284613407565b9150819050949350505050565b6000613a808287613407565b9150613a8c8286613407565b9150613a988285613407565b9150613aa48284613407565b915081905095945050505050565b6000613abe8285613407565b9150613ac98261357f565b9150613ad58284613407565b91508190509392505050565b6000613aed8288613407565b9150613af98287613955565b600182019150613b098286613955565b600182019150613b198285613407565b9150613b258284613407565b91508190509695505050505050565b6000613b3f826134ad565b9150613b4b828461337e565b60208201915081905092915050565b6000613b6582613539565b9150613b71828461337e565b60208201915081905092915050565b6000613b8b826135a2565b9150613b978284613407565b915081905092915050565b6000613bae8286613955565b600182019150613bbe828561337e565b602082019150613bce828461337e565b602082019150819050949350505050565b6000613beb8285613955565b600182019150613bfb8284613407565b91508190509392505050565b6000613c13828a613955565b600182019150613c238289613407565b9150613c2f8288613407565b9150613c3b8287613955565b600182019150613c4b828661337e565b602082019150613c5b8285613955565b600182019150613c6b828461337e565b60208201915081905098975050505050505050565b6000613c8c8285613955565b600182019150613c9c8284613920565b6008820191508190509392505050565b6000613cb88286613955565b600182019150613cc88285613955565b600182019150613cd8828461337e565b602082019150819050949350505050565b6000613cf5828a613955565b600182019150613d058289613955565b600182019150613d158288613407565b9150613d218287613955565b600182019150613d318286613407565b9150613d3d8285613955565b600182019150613d4d828461337e565b60208201915081905098975050505050505050565b6000602082019050613d776000830184613342565b92915050565b6000602082019050613d926000830184613351565b92915050565b6000602082019050613dad600083018461336f565b92915050565b6000606082019050613dc8600083018661336f565b613dd56020830185613911565b613de260408301846138f3565b949350505050565b6000608082019050613dff600083018761336f565b613e0c6020830186613946565b613e19604083018561336f565b613e26606083018461336f565b95945050505050565b60006020820190508181036000830152613e4981846133ce565b905092915050565b60006020820190508181036000830152613e6c818486613447565b90509392505050565b60006020820190508181036000830152613e8e816134d0565b9050919050565b60006020820190508181036000830152613eae816134f3565b9050919050565b60006020820190508181036000830152613ece81613516565b9050919050565b60006020820190508181036000830152613eee8161355c565b9050919050565b60006020820190508181036000830152613f0e816135c5565b9050919050565b60006020820190508181036000830152613f2e816135e8565b9050919050565b60006020820190508181036000830152613f4e8161360b565b9050919050565b60006020820190508181036000830152613f6e8161362e565b9050919050565b600061010082019050613f8b6000830184613651565b92915050565b60006020820190508181036000830152613fab81846136f3565b905092915050565b6000604082019050613fc86000830184613737565b92915050565b60006020820190508181036000830152613fe88184613766565b905092915050565b6000602082019050818103600083015261400a81846137c9565b905092915050565b600060208201905061402760008301846138d5565b92915050565b6000614037614048565b905061404382826143fd565b919050565b6000604051905090565b600067ffffffffffffffff82111561406d5761406c614563565b5b602082029050602081019050919050565b600067ffffffffffffffff82111561409957614098614563565b5b6140a282614592565b9050602081019050919050565b600067ffffffffffffffff8211156140ca576140c9614563565b5b6140d382614592565b9050602081019050919050565b600081519050919050565b600081519050919050565b600082825260208201905092915050565b600082825260208201905092915050565b600081905092915050565b600082825260208201905092915050565b600082825260208201905092915050565b600081905092915050565b600061415b82614301565b915061416683614301565b9250827fffffffffffffffffffffffffffffffffffffffffffffffffffffffffffffffff0382111561419b5761419a6144d6565b5b828201905092915050565b60006141b18261431b565b91506141bc8361431b565b92508267ffffffffffffffff038211156141d9576141d86144d6565b5b828201905092915050565b60006141ef82614301565b91506141fa83614301565b9250817fffffffffffffffffffffffffffffffffffffffffffffffffffffffffffffffff0483118215151615614233576142326144d6565b5b828202905092915050565b600061424982614301565b915061425483614301565b925082821015614267576142666144d6565b5b828203905092915050565b600061427d8261431b565b91506142888361431b565b92508282101561429b5761429a6144d6565b5b828203905092915050565b60006142b1826142e1565b9050919050565b60008115159050919050565b6000819050919050565b60008190506142dc8261481b565b919050565b600073ffffffffffffffffffffffffffffffffffffffff82169050919050565b6000819050919050565b600063ffffffff82169050919050565b600067ffffffffffffffff82169050919050565b600060ff82169050919050565b60006143493684846124a7565b905092915050565b600061435c826142ce565b9050919050565b600061436f3683612920565b9050919050565b60006143823683612bcf565b9050919050565b82818337600083830152505050565b60005b838110156143b657808201518184015260208101905061439b565b838111156143c5576000848401525b50505050565b600060028204905060018216806143e357607f821691505b602082108114156143f7576143f6614534565b5b50919050565b61440682614592565b810181811067ffffffffffffffff8211171561442557614424614563565b5b80604052505050565b600061443982614301565b91507fffffffffffffffffffffffffffffffffffffffffffffffffffffffffffffffff82141561446c5761446b6144d6565b5b600182019050919050565b60006144828261431b565b915067ffffffffffffffff82141561449d5761449c6144d6565b5b600182019050919050565b6000819050919050565b60006144bd826145a3565b9050919050565b60006144cf826145b0565b9050919050565b7f4e487b7100000000000000000000000000000000000000000000000000000000600052601160045260246000fd5b7f4e487b7100000000000000000000000000000000000000000000000000000000600052602160045260246000fd5b7f4e487b7100000000000000000000000000000000000000000000000000000000600052602260045260246000fd5b7f4e487b7100000000000000000000000000000000000000000000000000000000600052604160045260246000fd5b6000601f19601f8301169050919050565b60008160c01b9050919050565b60008160f81b9050919050565b7f086c7571636861696e2000000000000000000000000000000000000000000000600082015250565b7f436f6d6d6f6e456e636f646564566f7465506172743a20496e76616c6964207360008201527f756666697827732073697a650000000000000000000000000000000000000000602082015250565b7f436f6d6d6f6e456e636f646564566f7465506172743a20496e76616c6964207060008201527f726566697827732073697a650000000000000000000000000000000000000000602082015250565b7f496e76616c696420626c6f636b20686561646572000000000000000000000000600082015250565b7f066c7571636861696e2000000000000000000000000000000000000000000000600082015250565b7f4e6f20726f6f7420617420746869732068656967687400000000000000000000600082015250565b7f1000000000000000000000000000000000000000000000000000000000000000600082015250565b7f0800000000000000000000000000000000000000000000000000000000000000600082015250565b7f416c726561647920696e697469616c697a656400000000000000000000000000600082015250565b7f496e76616c69642070726f6f6600000000000000000000000000000000000000600082015250565b7f544d5369676e61747572653a20496e76616c69642074696d657374616d70277360008201527f2073697a65000000000000000000000000000000000000000000000000000000602082015250565b7f496e76616c6964207369676e6572206f72646572000000000000000000000000600082015250565b6004811061482c5761482b614505565b5b50565b614838816142a6565b811461484357600080fd5b50565b61484f816142b8565b811461485a57600080fd5b50565b614866816142c4565b811461487157600080fd5b50565b6004811061488157600080fd5b50565b61488d81614301565b811461489857600080fd5b50565b6148a48161430b565b81146148af57600080fd5b50565b6148bb8161431b565b81146148c657600080fd5b50565b6148d28161432f565b81146148dd57600080fd5b5056fea2646970667358221220e9a7045df8a55adcdb9cfb3fe50445435368cca71055722b2bcdc59fa282f01a64736f6c63430008030033","opcodes":"PUSH1 0x80 PUSH1 0x40 MSTORE CALLVALUE DUP1 ISZERO PUSH3 0x11 JUMPI PUSH1 0x0 DUP1 REVERT JUMPDEST POP PUSH1 0x40 MLOAD PUSH3 0x49D2 CODESIZE SUB DUP1 PUSH3 0x49D2 DUP4 CODECOPY DUP2 DUP2 ADD PUSH1 0x40 MSTORE DUP2 ADD SWAP1 PUSH3 0x37 SWAP2 SWAP1 PUSH3 0x5C JUMP JUMPDEST DUP1 PUSH1 0x2 DUP2 SWAP1 SSTORE POP POP PUSH3 0xAC JUMP JUMPDEST PUSH1 0x0 DUP2 MLOAD SWAP1 POP PUSH3 0x56 DUP2 PUSH3 0x92 JUMP JUMPDEST SWAP3 SWAP2 POP POP JUMP JUMPDEST PUSH1 0x0 PUSH1 0x20 DUP3 DUP5 SUB SLT ISZERO PUSH3 0x6F JUMPI PUSH1 0x0 DUP1 REVERT JUMPDEST PUSH1 0x0 PUSH3 0x7F DUP5 DUP3 DUP6 ADD PUSH3 0x45 JUMP JUMPDEST SWAP2 POP POP SWAP3 SWAP2 POP POP JUMP JUMPDEST PUSH1 0x0 DUP2 SWAP1 POP SWAP2 SWAP1 POP JUMP JUMPDEST PUSH3 0x9D DUP2 PUSH3 0x88 JUMP JUMPDEST DUP2 EQ PUSH3 0xA9 JUMPI PUSH1 0x0 DUP1 REVERT JUMPDEST POP JUMP JUMPDEST PUSH2 0x4916 DUP1 PUSH3 0xBC PUSH1 0x0 CODECOPY PUSH1 0x0 RETURN INVALID PUSH1 0x80 PUSH1 0x40 MSTORE CALLVALUE DUP1 ISZERO PUSH2 0x10 JUMPI PUSH1 0x0 DUP1 REVERT JUMPDEST POP PUSH1 0x4 CALLDATASIZE LT PUSH2 0x137 JUMPI PUSH1 0x0 CALLDATALOAD PUSH1 0xE0 SHR DUP1 PUSH4 0x847C1B23 GT PUSH2 0xB8 JUMPI DUP1 PUSH4 0xE71296E1 GT PUSH2 0x7C JUMPI DUP1 PUSH4 0xE71296E1 EQ PUSH2 0x3C0 JUMPI DUP1 PUSH4 0xF3F39EE5 EQ PUSH2 0x3F0 JUMPI DUP1 PUSH4 0xF61AA09D EQ PUSH2 0x40E JUMPI DUP1 PUSH4 0xF8156A6E EQ PUSH2 0x43E JUMPI DUP1 PUSH4 0xF953205A EQ PUSH2 0x45C JUMPI DUP1 PUSH4 0xFDA3442B EQ PUSH2 0x48E JUMPI PUSH2 0x137 JUMP JUMPDEST DUP1 PUSH4 0x847C1B23 EQ PUSH2 0x2F8 JUMPI DUP1 PUSH4 0x93A4A134 EQ PUSH2 0x328 JUMPI DUP1 PUSH4 0xAF4B9107 EQ PUSH2 0x344 JUMPI DUP1 PUSH4 0xC573D977 EQ PUSH2 0x360 JUMPI DUP1 PUSH4 0xCC2532BA EQ PUSH2 0x390 JUMPI PUSH2 0x137 JUMP JUMPDEST DUP1 PUSH4 0x5CD2458C GT PUSH2 0xFF JUMPI DUP1 PUSH4 0x5CD2458C EQ PUSH2 0x22C JUMPI DUP1 PUSH4 0x64C47193 EQ PUSH2 0x25C JUMPI DUP1 PUSH4 0x676435C7 EQ PUSH2 0x27A JUMPI DUP1 PUSH4 0x679B7B9A EQ PUSH2 0x2AA JUMPI DUP1 PUSH4 0x6CF6D675 EQ PUSH2 0x2DA JUMPI PUSH2 0x137 JUMP JUMPDEST DUP1 PUSH4 0x71EE1E1 EQ PUSH2 0x13C JUMPI DUP1 PUSH4 0xA4723E6 EQ PUSH2 0x16C JUMPI DUP1 PUSH4 0xAC804C5 EQ PUSH2 0x19C JUMPI DUP1 PUSH4 0x1B60F867 EQ PUSH2 0x1CC JUMPI DUP1 PUSH4 0x2FF08EB5 EQ PUSH2 0x1FC JUMPI JUMPDEST PUSH1 0x0 DUP1 REVERT JUMPDEST PUSH2 0x156 PUSH1 0x4 DUP1 CALLDATASIZE SUB DUP2 ADD SWAP1 PUSH2 0x151 SWAP2 SWAP1 PUSH2 0x3198 JUMP JUMPDEST PUSH2 0x4BE JUMP JUMPDEST PUSH1 0x40 MLOAD PUSH2 0x163 SWAP2 SWAP1 PUSH2 0x3D62 JUMP JUMPDEST PUSH1 0x40 MLOAD DUP1 SWAP2 SUB SWAP1 RETURN JUMPDEST PUSH2 0x186 PUSH1 0x4 DUP1 CALLDATASIZE SUB DUP2 ADD SWAP1 PUSH2 0x181 SWAP2 SWAP1 PUSH2 0x2F16 JUMP JUMPDEST PUSH2 0x627 JUMP JUMPDEST PUSH1 0x40 MLOAD PUSH2 0x193 SWAP2 SWAP1 PUSH2 0x3F91 JUMP JUMPDEST PUSH1 0x40 MLOAD DUP1 SWAP2 SUB SWAP1 RETURN JUMPDEST PUSH2 0x1B6 PUSH1 0x4 DUP1 CALLDATASIZE SUB DUP2 ADD SWAP1 PUSH2 0x1B1 SWAP2 SWAP1 PUSH2 0x3098 JUMP JUMPDEST PUSH2 0x651 JUMP JUMPDEST PUSH1 0x40 MLOAD PUSH2 0x1C3 SWAP2 SWAP1 PUSH2 0x3D98 JUMP JUMPDEST PUSH1 0x40 MLOAD DUP1 SWAP2 SUB SWAP1 RETURN JUMPDEST PUSH2 0x1E6 PUSH1 0x4 DUP1 CALLDATASIZE SUB DUP2 ADD SWAP1 PUSH2 0x1E1 SWAP2 SWAP1 PUSH2 0x2EAE JUMP JUMPDEST PUSH2 0x73A JUMP JUMPDEST PUSH1 0x40 MLOAD PUSH2 0x1F3 SWAP2 SWAP1 PUSH2 0x3F75 JUMP JUMPDEST PUSH1 0x40 MLOAD DUP1 SWAP2 SUB SWAP1 RETURN JUMPDEST PUSH2 0x216 PUSH1 0x4 DUP1 CALLDATASIZE SUB DUP2 ADD SWAP1 PUSH2 0x211 SWAP2 SWAP1 PUSH2 0x3157 JUMP JUMPDEST PUSH2 0x74A JUMP JUMPDEST PUSH1 0x40 MLOAD PUSH2 0x223 SWAP2 SWAP1 PUSH2 0x3FCE JUMP JUMPDEST PUSH1 0x40 MLOAD DUP1 SWAP2 SUB SWAP1 RETURN JUMPDEST PUSH2 0x246 PUSH1 0x4 DUP1 CALLDATASIZE SUB DUP2 ADD SWAP1 PUSH2 0x241 SWAP2 SWAP1 PUSH2 0x2F57 JUMP JUMPDEST PUSH2 0x75A JUMP JUMPDEST PUSH1 0x40 MLOAD PUSH2 0x253 SWAP2 SWAP1 PUSH2 0x3E2F JUMP JUMPDEST PUSH1 0x40 MLOAD DUP1 SWAP2 SUB SWAP1 RETURN JUMPDEST PUSH2 0x264 PUSH2 0x830 JUMP JUMPDEST PUSH1 0x40 MLOAD PUSH2 0x271 SWAP2 SWAP1 PUSH2 0x3E2F JUMP JUMPDEST PUSH1 0x40 MLOAD DUP1 SWAP2 SUB SWAP1 RETURN JUMPDEST PUSH2 0x294 PUSH1 0x4 DUP1 CALLDATASIZE SUB DUP2 ADD SWAP1 PUSH2 0x28F SWAP2 SWAP1 PUSH2 0x2E69 JUMP JUMPDEST PUSH2 0x8BE JUMP JUMPDEST PUSH1 0x40 MLOAD PUSH2 0x2A1 SWAP2 SWAP1 PUSH2 0x3FB3 JUMP JUMPDEST PUSH1 0x40 MLOAD DUP1 SWAP2 SUB SWAP1 RETURN JUMPDEST PUSH2 0x2C4 PUSH1 0x4 DUP1 CALLDATASIZE SUB DUP2 ADD SWAP1 PUSH2 0x2BF SWAP2 SWAP1 PUSH2 0x3098 JUMP JUMPDEST PUSH2 0x8E5 JUMP JUMPDEST PUSH1 0x40 MLOAD PUSH2 0x2D1 SWAP2 SWAP1 PUSH2 0x3E2F JUMP JUMPDEST PUSH1 0x40 MLOAD DUP1 SWAP2 SUB SWAP1 RETURN JUMPDEST PUSH2 0x2E2 PUSH2 0x930 JUMP JUMPDEST PUSH1 0x40 MLOAD PUSH2 0x2EF SWAP2 SWAP1 PUSH2 0x4012 JUMP JUMPDEST PUSH1 0x40 MLOAD DUP1 SWAP2 SUB SWAP1 RETURN JUMPDEST PUSH2 0x312 PUSH1 0x4 DUP1 CALLDATASIZE SUB DUP2 ADD SWAP1 PUSH2 0x30D SWAP2 SWAP1 PUSH2 0x2ED8 JUMP JUMPDEST PUSH2 0x936 JUMP JUMPDEST PUSH1 0x40 MLOAD PUSH2 0x31F SWAP2 SWAP1 PUSH2 0x3D98 JUMP JUMPDEST PUSH1 0x40 MLOAD DUP1 SWAP2 SUB SWAP1 RETURN JUMPDEST PUSH2 0x342 PUSH1 0x4 DUP1 CALLDATASIZE SUB DUP2 ADD SWAP1 PUSH2 0x33D SWAP2 SWAP1 PUSH2 0x2D9C JUMP JUMPDEST PUSH2 0xA1F JUMP JUMPDEST STOP JUMPDEST PUSH2 0x35E PUSH1 0x4 DUP1 CALLDATASIZE SUB DUP2 ADD SWAP1 PUSH2 0x359 SWAP2 SWAP1 PUSH2 0x2FFD JUMP JUMPDEST PUSH2 0xBF9 JUMP JUMPDEST STOP JUMPDEST PUSH2 0x37A PUSH1 0x4 DUP1 CALLDATASIZE SUB DUP2 ADD SWAP1 PUSH2 0x375 SWAP2 SWAP1 PUSH2 0x3258 JUMP JUMPDEST PUSH2 0xD65 JUMP JUMPDEST PUSH1 0x40 MLOAD PUSH2 0x387 SWAP2 SWAP1 PUSH2 0x3FF0 JUMP JUMPDEST PUSH1 0x40 MLOAD DUP1 SWAP2 SUB SWAP1 RETURN JUMPDEST PUSH2 0x3AA PUSH1 0x4 DUP1 CALLDATASIZE SUB DUP2 ADD SWAP1 PUSH2 0x3A5 SWAP2 SWAP1 PUSH2 0x30C1 JUMP JUMPDEST PUSH2 0xF20 JUMP JUMPDEST PUSH1 0x40 MLOAD PUSH2 0x3B7 SWAP2 SWAP1 PUSH2 0x3D7D JUMP JUMPDEST PUSH1 0x40 MLOAD DUP1 SWAP2 SUB SWAP1 RETURN JUMPDEST PUSH2 0x3DA PUSH1 0x4 DUP1 CALLDATASIZE SUB DUP2 ADD SWAP1 PUSH2 0x3D5 SWAP2 SWAP1 PUSH2 0x3098 JUMP JUMPDEST PUSH2 0x1180 JUMP JUMPDEST PUSH1 0x40 MLOAD PUSH2 0x3E7 SWAP2 SWAP1 PUSH2 0x3D98 JUMP JUMPDEST PUSH1 0x40 MLOAD DUP1 SWAP2 SUB SWAP1 RETURN JUMPDEST PUSH2 0x3F8 PUSH2 0x1287 JUMP JUMPDEST PUSH1 0x40 MLOAD PUSH2 0x405 SWAP2 SWAP1 PUSH2 0x4012 JUMP JUMPDEST PUSH1 0x40 MLOAD DUP1 SWAP2 SUB SWAP1 RETURN JUMPDEST PUSH2 0x428 PUSH1 0x4 DUP1 CALLDATASIZE SUB DUP2 ADD SWAP1 PUSH2 0x423 SWAP2 SWAP1 PUSH2 0x2D73 JUMP JUMPDEST PUSH2 0x128D JUMP JUMPDEST PUSH1 0x40 MLOAD PUSH2 0x435 SWAP2 SWAP1 PUSH2 0x4012 JUMP JUMPDEST PUSH1 0x40 MLOAD DUP1 SWAP2 SUB SWAP1 RETURN JUMPDEST PUSH2 0x446 PUSH2 0x12A5 JUMP JUMPDEST PUSH1 0x40 MLOAD PUSH2 0x453 SWAP2 SWAP1 PUSH2 0x4012 JUMP JUMPDEST PUSH1 0x40 MLOAD DUP1 SWAP2 SUB SWAP1 RETURN JUMPDEST PUSH2 0x476 PUSH1 0x4 DUP1 CALLDATASIZE SUB DUP2 ADD SWAP1 PUSH2 0x471 SWAP2 SWAP1 PUSH2 0x322F JUMP JUMPDEST PUSH2 0x12AB JUMP JUMPDEST PUSH1 0x40 MLOAD PUSH2 0x485 SWAP4 SWAP3 SWAP2 SWAP1 PUSH2 0x3DB3 JUMP JUMPDEST PUSH1 0x40 MLOAD DUP1 SWAP2 SUB SWAP1 RETURN JUMPDEST PUSH2 0x4A8 PUSH1 0x4 DUP1 CALLDATASIZE SUB DUP2 ADD SWAP1 PUSH2 0x4A3 SWAP2 SWAP1 PUSH2 0x2FAB JUMP JUMPDEST PUSH2 0x12F9 JUMP JUMPDEST PUSH1 0x40 MLOAD PUSH2 0x4B5 SWAP2 SWAP1 PUSH2 0x3FB3 JUMP JUMPDEST PUSH1 0x40 MLOAD DUP1 SWAP2 SUB SWAP1 RETURN JUMPDEST PUSH1 0x0 DUP4 PUSH1 0x60 ADD MLOAD MLOAD PUSH1 0x6 GT ISZERO DUP1 ISZERO PUSH2 0x4DC JUMPI POP PUSH1 0xC DUP5 PUSH1 0x60 ADD MLOAD MLOAD GT ISZERO JUMPDEST PUSH2 0x51B JUMPI PUSH1 0x40 MLOAD PUSH32 0x8C379A000000000000000000000000000000000000000000000000000000000 DUP2 MSTORE PUSH1 0x4 ADD PUSH2 0x512 SWAP1 PUSH2 0x3F35 JUMP JUMPDEST PUSH1 0x40 MLOAD DUP1 SWAP2 SUB SWAP1 REVERT JUMPDEST PUSH1 0x0 DUP4 PUSH1 0x2A DUP7 PUSH1 0x60 ADD MLOAD MLOAD DUP8 PUSH1 0x60 ADD MLOAD DUP7 PUSH1 0x40 MLOAD PUSH1 0x20 ADD PUSH2 0x540 SWAP6 SWAP5 SWAP4 SWAP3 SWAP2 SWAP1 PUSH2 0x3AE1 JUMP JUMPDEST PUSH1 0x40 MLOAD PUSH1 0x20 DUP2 DUP4 SUB SUB DUP2 MSTORE SWAP1 PUSH1 0x40 MSTORE SWAP1 POP PUSH1 0x1 PUSH1 0x2 DUP3 MLOAD DUP4 PUSH1 0x40 MLOAD PUSH1 0x20 ADD PUSH2 0x569 SWAP3 SWAP2 SWAP1 PUSH2 0x3BDF JUMP JUMPDEST PUSH1 0x40 MLOAD PUSH1 0x20 DUP2 DUP4 SUB SUB DUP2 MSTORE SWAP1 PUSH1 0x40 MSTORE PUSH1 0x40 MLOAD PUSH2 0x585 SWAP2 SWAP1 PUSH2 0x39F7 JUMP JUMPDEST PUSH1 0x20 PUSH1 0x40 MLOAD DUP1 DUP4 SUB DUP2 DUP6 GAS STATICCALL ISZERO DUP1 ISZERO PUSH2 0x5A2 JUMPI RETURNDATASIZE PUSH1 0x0 DUP1 RETURNDATACOPY RETURNDATASIZE PUSH1 0x0 REVERT JUMPDEST POP POP POP PUSH1 0x40 MLOAD RETURNDATASIZE PUSH1 0x1F NOT PUSH1 0x1F DUP3 ADD AND DUP3 ADD DUP1 PUSH1 0x40 MSTORE POP DUP2 ADD SWAP1 PUSH2 0x5C5 SWAP2 SWAP1 PUSH2 0x2E40 JUMP JUMPDEST DUP7 PUSH1 0x40 ADD MLOAD DUP8 PUSH1 0x0 ADD MLOAD DUP9 PUSH1 0x20 ADD MLOAD PUSH1 0x40 MLOAD PUSH1 0x0 DUP2 MSTORE PUSH1 0x20 ADD PUSH1 0x40 MSTORE PUSH1 0x40 MLOAD PUSH2 0x5F1 SWAP5 SWAP4 SWAP3 SWAP2 SWAP1 PUSH2 0x3DEA JUMP JUMPDEST PUSH1 0x20 PUSH1 0x40 MLOAD PUSH1 0x20 DUP2 SUB SWAP1 DUP1 DUP5 SUB SWAP1 DUP6 GAS STATICCALL ISZERO DUP1 ISZERO PUSH2 0x613 JUMPI RETURNDATASIZE PUSH1 0x0 DUP1 RETURNDATACOPY RETURNDATASIZE PUSH1 0x0 REVERT JUMPDEST POP POP POP PUSH1 0x20 PUSH1 0x40 MLOAD SUB MLOAD SWAP2 POP POP SWAP4 SWAP3 POP POP POP JUMP JUMPDEST PUSH2 0x62F PUSH2 0x222A JUMP JUMPDEST PUSH2 0x63C DUP3 PUSH1 0x0 ADD MLOAD PUSH2 0x1309 JUMP JUMPDEST PUSH2 0x649 DUP3 PUSH1 0x20 ADD MLOAD PUSH2 0x1309 JUMP JUMPDEST DUP2 SWAP1 POP SWAP2 SWAP1 POP JUMP JUMPDEST PUSH1 0x0 DUP1 PUSH2 0x72F PUSH2 0x725 DUP5 PUSH1 0x80 ADD MLOAD PUSH2 0x720 DUP7 PUSH1 0x60 ADD MLOAD PUSH2 0x71B DUP9 PUSH1 0x40 ADD MLOAD PUSH2 0x716 PUSH2 0x70C PUSH1 0x2 DUP13 PUSH1 0x0 ADD MLOAD PUSH1 0x40 MLOAD PUSH1 0x20 ADD PUSH2 0x68C SWAP2 SWAP1 PUSH2 0x396C JUMP JUMPDEST PUSH1 0x40 MLOAD PUSH1 0x20 DUP2 DUP4 SUB SUB DUP2 MSTORE SWAP1 PUSH1 0x40 MSTORE PUSH1 0x40 MLOAD PUSH2 0x6A8 SWAP2 SWAP1 PUSH2 0x39F7 JUMP JUMPDEST PUSH1 0x20 PUSH1 0x40 MLOAD DUP1 DUP4 SUB DUP2 DUP6 GAS STATICCALL ISZERO DUP1 ISZERO PUSH2 0x6C5 JUMPI RETURNDATASIZE PUSH1 0x0 DUP1 RETURNDATACOPY RETURNDATASIZE PUSH1 0x0 REVERT JUMPDEST POP POP POP PUSH1 0x40 MLOAD RETURNDATASIZE PUSH1 0x1F NOT PUSH1 0x1F DUP3 ADD AND DUP3 ADD DUP1 PUSH1 0x40 MSTORE POP DUP2 ADD SWAP1 PUSH2 0x6E8 SWAP2 SWAP1 PUSH2 0x2E40 JUMP JUMPDEST PUSH1 0x40 MLOAD PUSH1 0x20 ADD PUSH2 0x6F8 SWAP2 SWAP1 PUSH2 0x3B5A JUMP JUMPDEST PUSH1 0x40 MLOAD PUSH1 0x20 DUP2 DUP4 SUB SUB DUP2 MSTORE SWAP1 PUSH1 0x40 MSTORE PUSH2 0x13A2 JUMP JUMPDEST DUP12 PUSH1 0x20 ADD MLOAD PUSH2 0x141D JUMP JUMPDEST PUSH2 0x141D JUMP JUMPDEST PUSH2 0x141D JUMP JUMPDEST PUSH2 0x141D JUMP JUMPDEST DUP5 PUSH1 0xA0 ADD MLOAD PUSH2 0x141D JUMP JUMPDEST SWAP1 POP DUP1 SWAP2 POP POP SWAP2 SWAP1 POP JUMP JUMPDEST PUSH2 0x742 PUSH2 0x2244 JUMP JUMPDEST DUP2 SWAP1 POP SWAP2 SWAP1 POP JUMP JUMPDEST PUSH2 0x752 PUSH2 0x22B2 JUMP JUMPDEST DUP2 SWAP1 POP SWAP2 SWAP1 POP JUMP JUMPDEST PUSH1 0x60 PUSH1 0xF DUP4 PUSH1 0x0 ADD MLOAD MLOAD EQ DUP1 PUSH2 0x775 JUMPI POP PUSH1 0x18 DUP4 PUSH1 0x0 ADD MLOAD MLOAD EQ JUMPDEST PUSH2 0x7B4 JUMPI PUSH1 0x40 MLOAD PUSH32 0x8C379A000000000000000000000000000000000000000000000000000000000 DUP2 MSTORE PUSH1 0x4 ADD PUSH2 0x7AB SWAP1 PUSH2 0x3E95 JUMP JUMPDEST PUSH1 0x40 MLOAD DUP1 SWAP2 SUB SWAP1 REVERT JUMPDEST PUSH1 0x26 DUP4 PUSH1 0x20 ADD MLOAD MLOAD EQ PUSH2 0x7FC JUMPI PUSH1 0x40 MLOAD PUSH32 0x8C379A000000000000000000000000000000000000000000000000000000000 DUP2 MSTORE PUSH1 0x4 ADD PUSH2 0x7F3 SWAP1 PUSH2 0x3E75 JUMP JUMPDEST PUSH1 0x40 MLOAD DUP1 SWAP2 SUB SWAP1 REVERT JUMPDEST DUP3 PUSH1 0x0 ADD MLOAD DUP3 DUP5 PUSH1 0x20 ADD MLOAD PUSH1 0x40 MLOAD PUSH1 0x20 ADD PUSH2 0x819 SWAP4 SWAP3 SWAP2 SWAP1 PUSH2 0x3A0E JUMP JUMPDEST PUSH1 0x40 MLOAD PUSH1 0x20 DUP2 DUP4 SUB SUB DUP2 MSTORE SWAP1 PUSH1 0x40 MSTORE SWAP1 POP SWAP3 SWAP2 POP POP JUMP JUMPDEST PUSH1 0x0 DUP1 SLOAD PUSH2 0x83D SWAP1 PUSH2 0x43CB JUMP JUMPDEST DUP1 PUSH1 0x1F ADD PUSH1 0x20 DUP1 SWAP2 DIV MUL PUSH1 0x20 ADD PUSH1 0x40 MLOAD SWAP1 DUP2 ADD PUSH1 0x40 MSTORE DUP1 SWAP3 SWAP2 SWAP1 DUP2 DUP2 MSTORE PUSH1 0x20 ADD DUP3 DUP1 SLOAD PUSH2 0x869 SWAP1 PUSH2 0x43CB JUMP JUMPDEST DUP1 ISZERO PUSH2 0x8B6 JUMPI DUP1 PUSH1 0x1F LT PUSH2 0x88B JUMPI PUSH2 0x100 DUP1 DUP4 SLOAD DIV MUL DUP4 MSTORE SWAP2 PUSH1 0x20 ADD SWAP2 PUSH2 0x8B6 JUMP JUMPDEST DUP3 ADD SWAP2 SWAP1 PUSH1 0x0 MSTORE PUSH1 0x20 PUSH1 0x0 KECCAK256 SWAP1 JUMPDEST DUP2 SLOAD DUP2 MSTORE SWAP1 PUSH1 0x1 ADD SWAP1 PUSH1 0x20 ADD DUP1 DUP4 GT PUSH2 0x899 JUMPI DUP3 SWAP1 SUB PUSH1 0x1F AND DUP3 ADD SWAP2 JUMPDEST POP POP POP POP POP DUP2 JUMP JUMPDEST PUSH2 0x8C6 PUSH2 0x22E3 JUMP JUMPDEST PUSH2 0x8DD DUP4 DUP4 DUP2 ADD SWAP1 PUSH2 0x8D8 SWAP2 SWAP1 PUSH2 0x2FAB JUMP JUMPDEST PUSH2 0x12F9 JUMP JUMPDEST SWAP1 POP SWAP3 SWAP2 POP POP JUMP JUMPDEST PUSH1 0x60 DUP2 PUSH1 0x0 ADD MLOAD DUP3 PUSH1 0x20 ADD MLOAD DUP4 PUSH1 0x40 ADD MLOAD DUP5 PUSH1 0x60 ADD MLOAD DUP6 PUSH1 0x80 ADD MLOAD DUP7 PUSH1 0xA0 ADD MLOAD PUSH1 0x40 MLOAD PUSH1 0x20 ADD PUSH2 0x91A SWAP7 SWAP6 SWAP5 SWAP4 SWAP3 SWAP2 SWAP1 PUSH2 0x3987 JUMP JUMPDEST PUSH1 0x40 MLOAD PUSH1 0x20 DUP2 DUP4 SUB SUB DUP2 MSTORE SWAP1 PUSH1 0x40 MSTORE SWAP1 POP SWAP2 SWAP1 POP JUMP JUMPDEST PUSH1 0x2 SLOAD DUP2 JUMP JUMPDEST PUSH1 0x0 DUP1 PUSH2 0xA13 PUSH2 0x9B9 PUSH2 0x9AF DUP7 PUSH1 0x0 ADD MLOAD PUSH2 0x9AA PUSH2 0x98B PUSH1 0x8 PUSH2 0x966 DUP12 PUSH1 0x20 ADD MLOAD PUSH8 0xFFFFFFFFFFFFFFFF AND PUSH2 0x149B JUMP JUMPDEST PUSH1 0x40 MLOAD PUSH1 0x20 ADD PUSH2 0x977 SWAP3 SWAP2 SWAP1 PUSH2 0x3BDF JUMP JUMPDEST PUSH1 0x40 MLOAD PUSH1 0x20 DUP2 DUP4 SUB SUB DUP2 MSTORE SWAP1 PUSH1 0x40 MSTORE PUSH2 0x13A2 JUMP JUMPDEST PUSH2 0x9A5 PUSH2 0x9A0 DUP12 PUSH1 0x40 ADD MLOAD DUP13 PUSH1 0x60 ADD MLOAD PUSH2 0x1666 JUMP JUMPDEST PUSH2 0x13A2 JUMP JUMPDEST PUSH2 0x141D JUMP JUMPDEST PUSH2 0x141D JUMP JUMPDEST DUP7 PUSH1 0x80 ADD MLOAD PUSH2 0x141D JUMP JUMPDEST PUSH2 0xA0E PUSH2 0xA04 DUP8 PUSH1 0xA0 ADD MLOAD PUSH2 0x9FF PUSH2 0x9F5 PUSH1 0xA PUSH1 0x20 DUP12 PUSH1 0x40 MLOAD PUSH1 0x20 ADD PUSH2 0x9E1 SWAP4 SWAP3 SWAP2 SWAP1 PUSH2 0x3CAC JUMP JUMPDEST PUSH1 0x40 MLOAD PUSH1 0x20 DUP2 DUP4 SUB SUB DUP2 MSTORE SWAP1 PUSH1 0x40 MSTORE PUSH2 0x13A2 JUMP JUMPDEST DUP11 PUSH1 0xC0 ADD MLOAD PUSH2 0x141D JUMP JUMPDEST PUSH2 0x141D JUMP JUMPDEST DUP8 PUSH1 0xE0 ADD MLOAD PUSH2 0x141D JUMP JUMPDEST PUSH2 0x141D JUMP JUMPDEST SWAP1 POP DUP1 SWAP2 POP POP SWAP3 SWAP2 POP POP JUMP JUMPDEST PUSH1 0x0 DUP1 DUP1 SLOAD PUSH2 0xA2D SWAP1 PUSH2 0x43CB JUMP JUMPDEST SWAP1 POP EQ PUSH2 0xA6F JUMPI PUSH1 0x40 MLOAD PUSH32 0x8C379A000000000000000000000000000000000000000000000000000000000 DUP2 MSTORE PUSH1 0x4 ADD PUSH2 0xA66 SWAP1 PUSH2 0x3EF5 JUMP JUMPDEST PUSH1 0x40 MLOAD DUP1 SWAP2 SUB SWAP1 REVERT JUMPDEST PUSH1 0x0 JUMPDEST DUP7 DUP7 SWAP1 POP DUP2 LT ISZERO PUSH2 0xBB8 JUMPI DUP5 DUP5 DUP3 DUP2 DUP2 LT PUSH2 0xAB6 JUMPI PUSH32 0x4E487B7100000000000000000000000000000000000000000000000000000000 PUSH1 0x0 MSTORE PUSH1 0x32 PUSH1 0x4 MSTORE PUSH1 0x24 PUSH1 0x0 REVERT JUMPDEST SWAP1 POP PUSH1 0x20 MUL ADD CALLDATALOAD PUSH1 0x4 PUSH1 0x0 DUP10 DUP10 DUP6 DUP2 DUP2 LT PUSH2 0xAFA JUMPI PUSH32 0x4E487B7100000000000000000000000000000000000000000000000000000000 PUSH1 0x0 MSTORE PUSH1 0x32 PUSH1 0x4 MSTORE PUSH1 0x24 PUSH1 0x0 REVERT JUMPDEST SWAP1 POP PUSH1 0x20 MUL ADD PUSH1 0x20 DUP2 ADD SWAP1 PUSH2 0xB0F SWAP2 SWAP1 PUSH2 0x2D73 JUMP JUMPDEST PUSH20 0xFFFFFFFFFFFFFFFFFFFFFFFFFFFFFFFFFFFFFFFF AND PUSH20 0xFFFFFFFFFFFFFFFFFFFFFFFFFFFFFFFFFFFFFFFF AND DUP2 MSTORE PUSH1 0x20 ADD SWAP1 DUP2 MSTORE PUSH1 0x20 ADD PUSH1 0x0 KECCAK256 DUP2 SWAP1 SSTORE POP DUP5 DUP5 DUP3 DUP2 DUP2 LT PUSH2 0xB86 JUMPI PUSH32 0x4E487B7100000000000000000000000000000000000000000000000000000000 PUSH1 0x0 MSTORE PUSH1 0x32 PUSH1 0x4 MSTORE PUSH1 0x24 PUSH1 0x0 REVERT JUMPDEST SWAP1 POP PUSH1 0x20 MUL ADD CALLDATALOAD PUSH1 0x1 PUSH1 0x0 DUP3 DUP3 SLOAD PUSH2 0xB9E SWAP2 SWAP1 PUSH2 0x4150 JUMP JUMPDEST SWAP3 POP POP DUP2 SWAP1 SSTORE POP DUP1 DUP1 PUSH2 0xBB0 SWAP1 PUSH2 0x442E JUMP JUMPDEST SWAP2 POP POP PUSH2 0xA72 JUMP JUMPDEST POP DUP2 DUP2 PUSH1 0x40 MLOAD PUSH1 0x20 ADD PUSH2 0xBCC SWAP3 SWAP2 SWAP1 PUSH2 0x3E51 JUMP JUMPDEST PUSH1 0x40 MLOAD PUSH1 0x20 DUP2 DUP4 SUB SUB DUP2 MSTORE SWAP1 PUSH1 0x40 MSTORE PUSH1 0x0 SWAP1 DUP1 MLOAD SWAP1 PUSH1 0x20 ADD SWAP1 PUSH2 0xBF0 SWAP3 SWAP2 SWAP1 PUSH2 0x22FD JUMP JUMPDEST POP POP POP POP POP POP POP JUMP JUMPDEST PUSH2 0xC3A DUP6 DUP1 CALLDATASIZE SUB DUP2 ADD SWAP1 PUSH2 0xC0D SWAP2 SWAP1 PUSH2 0x3098 JUMP JUMPDEST DUP6 DUP1 CALLDATASIZE SUB DUP2 ADD SWAP1 PUSH2 0xC1E SWAP2 SWAP1 PUSH2 0x2EAE JUMP JUMPDEST DUP6 PUSH2 0xC28 SWAP1 PUSH2 0x4363 JUMP JUMPDEST DUP6 DUP6 SWAP1 PUSH2 0xC35 SWAP2 SWAP1 PUSH2 0x433C JUMP JUMPDEST PUSH2 0xF20 JUMP JUMPDEST PUSH2 0xC79 JUMPI PUSH1 0x40 MLOAD PUSH32 0x8C379A000000000000000000000000000000000000000000000000000000000 DUP2 MSTORE PUSH1 0x4 ADD PUSH2 0xC70 SWAP1 PUSH2 0x3EB5 JUMP JUMPDEST PUSH1 0x40 MLOAD DUP1 SWAP2 SUB SWAP1 REVERT JUMPDEST PUSH1 0x40 MLOAD DUP1 PUSH1 0x60 ADD PUSH1 0x40 MSTORE DUP1 DUP7 PUSH1 0x0 ADD CALLDATALOAD DUP2 MSTORE PUSH1 0x20 ADD DUP6 PUSH1 0x40 ADD PUSH1 0x20 DUP2 ADD SWAP1 PUSH2 0xCA1 SWAP2 SWAP1 PUSH2 0x3319 JUMP JUMPDEST PUSH8 0xFFFFFFFFFFFFFFFF AND DUP2 MSTORE PUSH1 0x20 ADD DUP6 PUSH1 0x60 ADD PUSH1 0x20 DUP2 ADD SWAP1 PUSH2 0xCC3 SWAP2 SWAP1 PUSH2 0x32F0 JUMP JUMPDEST PUSH4 0xFFFFFFFF AND DUP2 MSTORE POP PUSH1 0x5 PUSH1 0x0 DUP7 PUSH1 0x20 ADD PUSH1 0x20 DUP2 ADD SWAP1 PUSH2 0xCE3 SWAP2 SWAP1 PUSH2 0x3319 JUMP JUMPDEST PUSH8 0xFFFFFFFFFFFFFFFF AND DUP2 MSTORE PUSH1 0x20 ADD SWAP1 DUP2 MSTORE PUSH1 0x20 ADD PUSH1 0x0 KECCAK256 PUSH1 0x0 DUP3 ADD MLOAD DUP2 PUSH1 0x0 ADD SSTORE PUSH1 0x20 DUP3 ADD MLOAD DUP2 PUSH1 0x1 ADD PUSH1 0x0 PUSH2 0x100 EXP DUP2 SLOAD DUP2 PUSH8 0xFFFFFFFFFFFFFFFF MUL NOT AND SWAP1 DUP4 PUSH8 0xFFFFFFFFFFFFFFFF AND MUL OR SWAP1 SSTORE POP PUSH1 0x40 DUP3 ADD MLOAD DUP2 PUSH1 0x1 ADD PUSH1 0x8 PUSH2 0x100 EXP DUP2 SLOAD DUP2 PUSH4 0xFFFFFFFF MUL NOT AND SWAP1 DUP4 PUSH4 0xFFFFFFFF AND MUL OR SWAP1 SSTORE POP SWAP1 POP POP POP POP POP POP POP JUMP JUMPDEST PUSH2 0xD6D PUSH2 0x2383 JUMP JUMPDEST PUSH1 0x0 PUSH1 0x5 PUSH1 0x0 DUP9 DUP2 MSTORE PUSH1 0x20 ADD SWAP1 DUP2 MSTORE PUSH1 0x20 ADD PUSH1 0x0 KECCAK256 PUSH1 0x0 ADD SLOAD SWAP1 POP PUSH1 0x0 DUP1 SHL DUP2 EQ ISZERO PUSH2 0xDCE JUMPI PUSH1 0x40 MLOAD PUSH32 0x8C379A000000000000000000000000000000000000000000000000000000000 DUP2 MSTORE PUSH1 0x4 ADD PUSH2 0xDC5 SWAP1 PUSH2 0x3ED5 JUMP JUMPDEST PUSH1 0x40 MLOAD DUP1 SWAP2 SUB SWAP1 REVERT JUMPDEST PUSH1 0x0 PUSH1 0x2 PUSH2 0xDE4 DUP9 PUSH2 0xDDF SWAP1 PUSH2 0x4376 JUMP JUMPDEST PUSH2 0x16EA JUMP JUMPDEST PUSH1 0x40 MLOAD PUSH2 0xDF1 SWAP2 SWAP1 PUSH2 0x39F7 JUMP JUMPDEST PUSH1 0x20 PUSH1 0x40 MLOAD DUP1 DUP4 SUB DUP2 DUP6 GAS STATICCALL ISZERO DUP1 ISZERO PUSH2 0xE0E JUMPI RETURNDATASIZE PUSH1 0x0 DUP1 RETURNDATACOPY RETURNDATASIZE PUSH1 0x0 REVERT JUMPDEST POP POP POP PUSH1 0x40 MLOAD RETURNDATASIZE PUSH1 0x1F NOT PUSH1 0x1F DUP3 ADD AND DUP3 ADD DUP1 PUSH1 0x40 MSTORE POP DUP2 ADD SWAP1 PUSH2 0xE31 SWAP2 SWAP1 PUSH2 0x2E40 JUMP JUMPDEST SWAP1 POP PUSH2 0xECA DUP3 DUP8 PUSH1 0xFF DUP11 PUSH1 0xA0 ADD PUSH1 0x20 DUP2 ADD SWAP1 PUSH2 0xE4D SWAP2 SWAP1 PUSH2 0x3319 JUMP JUMPDEST PUSH1 0x40 MLOAD PUSH1 0x20 ADD PUSH2 0xE5E SWAP3 SWAP2 SWAP1 PUSH2 0x3C80 JUMP JUMPDEST PUSH1 0x40 MLOAD PUSH1 0x20 DUP2 DUP4 SUB SUB DUP2 MSTORE SWAP1 PUSH1 0x40 MSTORE DUP5 DUP10 DUP10 DUP1 DUP1 PUSH1 0x20 MUL PUSH1 0x20 ADD PUSH1 0x40 MLOAD SWAP1 DUP2 ADD PUSH1 0x40 MSTORE DUP1 SWAP4 SWAP3 SWAP2 SWAP1 DUP2 DUP2 MSTORE PUSH1 0x20 ADD PUSH1 0x0 SWAP1 JUMPDEST DUP3 DUP3 LT ISZERO PUSH2 0xEC0 JUMPI DUP5 DUP5 DUP4 SWAP1 POP PUSH1 0xA0 MUL ADD DUP1 CALLDATASIZE SUB DUP2 ADD SWAP1 PUSH2 0xEB1 SWAP2 SWAP1 PUSH2 0x2FD4 JUMP JUMPDEST DUP2 MSTORE PUSH1 0x20 ADD SWAP1 PUSH1 0x1 ADD SWAP1 PUSH2 0xE90 JUMP JUMPDEST POP POP POP POP POP PUSH2 0x1D6E JUMP JUMPDEST PUSH2 0xF09 JUMPI PUSH1 0x40 MLOAD PUSH32 0x8C379A000000000000000000000000000000000000000000000000000000000 DUP2 MSTORE PUSH1 0x4 ADD PUSH2 0xF00 SWAP1 PUSH2 0x3F15 JUMP JUMPDEST PUSH1 0x40 MLOAD DUP1 SWAP2 SUB SWAP1 REVERT JUMPDEST DUP7 PUSH2 0xF13 SWAP1 PUSH2 0x4376 JUMP JUMPDEST SWAP3 POP POP POP SWAP6 SWAP5 POP POP POP POP POP JUMP JUMPDEST PUSH1 0x0 DUP1 PUSH2 0xF2C DUP7 PUSH2 0x1180 JUMP JUMPDEST SWAP1 POP PUSH1 0x0 PUSH2 0xF3A DUP7 DUP4 PUSH2 0x936 JUMP JUMPDEST SWAP1 POP PUSH1 0x0 PUSH2 0xF48 DUP7 DUP4 PUSH2 0x75A JUMP JUMPDEST SWAP1 POP PUSH1 0x0 DUP1 DUP1 SLOAD PUSH2 0xF58 SWAP1 PUSH2 0x43CB JUMP JUMPDEST DUP1 PUSH1 0x1F ADD PUSH1 0x20 DUP1 SWAP2 DIV MUL PUSH1 0x20 ADD PUSH1 0x40 MLOAD SWAP1 DUP2 ADD PUSH1 0x40 MSTORE DUP1 SWAP3 SWAP2 SWAP1 DUP2 DUP2 MSTORE PUSH1 0x20 ADD DUP3 DUP1 SLOAD PUSH2 0xF84 SWAP1 PUSH2 0x43CB JUMP JUMPDEST DUP1 ISZERO PUSH2 0xFD1 JUMPI DUP1 PUSH1 0x1F LT PUSH2 0xFA6 JUMPI PUSH2 0x100 DUP1 DUP4 SLOAD DIV MUL DUP4 MSTORE SWAP2 PUSH1 0x20 ADD SWAP2 PUSH2 0xFD1 JUMP JUMPDEST DUP3 ADD SWAP2 SWAP1 PUSH1 0x0 MSTORE PUSH1 0x20 PUSH1 0x0 KECCAK256 SWAP1 JUMPDEST DUP2 SLOAD DUP2 MSTORE SWAP1 PUSH1 0x1 ADD SWAP1 PUSH1 0x20 ADD DUP1 DUP4 GT PUSH2 0xFB4 JUMPI DUP3 SWAP1 SUB PUSH1 0x1F AND DUP3 ADD SWAP2 JUMPDEST POP POP POP POP POP SWAP1 POP PUSH1 0x0 DUP1 PUSH1 0x0 JUMPDEST DUP9 MLOAD DUP2 LT ISZERO PUSH2 0x1151 JUMPI PUSH1 0x0 PUSH2 0x1034 DUP11 DUP4 DUP2 MLOAD DUP2 LT PUSH2 0x1025 JUMPI PUSH32 0x4E487B7100000000000000000000000000000000000000000000000000000000 PUSH1 0x0 MSTORE PUSH1 0x32 PUSH1 0x4 MSTORE PUSH1 0x24 PUSH1 0x0 REVERT JUMPDEST PUSH1 0x20 MUL PUSH1 0x20 ADD ADD MLOAD DUP8 DUP8 PUSH2 0x4BE JUMP JUMPDEST SWAP1 POP DUP4 PUSH20 0xFFFFFFFFFFFFFFFFFFFFFFFFFFFFFFFFFFFFFFFF AND DUP2 PUSH20 0xFFFFFFFFFFFFFFFFFFFFFFFFFFFFFFFFFFFFFFFF AND GT PUSH2 0x10A4 JUMPI PUSH1 0x40 MLOAD PUSH32 0x8C379A000000000000000000000000000000000000000000000000000000000 DUP2 MSTORE PUSH1 0x4 ADD PUSH2 0x109B SWAP1 PUSH2 0x3F55 JUMP JUMPDEST PUSH1 0x40 MLOAD DUP1 SWAP2 SUB SWAP1 REVERT JUMPDEST PUSH1 0x0 PUSH1 0x4 PUSH1 0x0 DUP4 PUSH20 0xFFFFFFFFFFFFFFFFFFFFFFFFFFFFFFFFFFFFFFFF AND PUSH20 0xFFFFFFFFFFFFFFFFFFFFFFFFFFFFFFFFFFFFFFFF AND DUP2 MSTORE PUSH1 0x20 ADD SWAP1 DUP2 MSTORE PUSH1 0x20 ADD PUSH1 0x0 KECCAK256 SLOAD GT ISZERO PUSH2 0x113A JUMPI PUSH1 0x4 PUSH1 0x0 DUP3 PUSH20 0xFFFFFFFFFFFFFFFFFFFFFFFFFFFFFFFFFFFFFFFF AND PUSH20 0xFFFFFFFFFFFFFFFFFFFFFFFFFFFFFFFFFFFFFFFF AND DUP2 MSTORE PUSH1 0x20 ADD SWAP1 DUP2 MSTORE PUSH1 0x20 ADD PUSH1 0x0 KECCAK256 SLOAD DUP4 PUSH2 0x1137 SWAP2 SWAP1 PUSH2 0x4150 JUMP JUMPDEST SWAP3 POP JUMPDEST DUP1 SWAP4 POP POP DUP1 DUP1 PUSH2 0x1149 SWAP1 PUSH2 0x442E JUMP JUMPDEST SWAP2 POP POP PUSH2 0xFDE JUMP JUMPDEST POP PUSH1 0x2 PUSH1 0x1 SLOAD PUSH2 0x1161 SWAP2 SWAP1 PUSH2 0x41E4 JUMP JUMPDEST PUSH1 0x3 DUP3 PUSH2 0x116E SWAP2 SWAP1 PUSH2 0x41E4 JUMP JUMPDEST LT ISZERO SWAP7 POP POP POP POP POP POP POP SWAP5 SWAP4 POP POP POP POP JUMP JUMPDEST PUSH1 0x0 DUP1 PUSH2 0x121D PUSH1 0x2 DUP5 PUSH1 0x0 ADD MLOAD PUSH1 0x40 MLOAD PUSH1 0x20 ADD PUSH2 0x119D SWAP2 SWAP1 PUSH2 0x396C JUMP JUMPDEST PUSH1 0x40 MLOAD PUSH1 0x20 DUP2 DUP4 SUB SUB DUP2 MSTORE SWAP1 PUSH1 0x40 MSTORE PUSH1 0x40 MLOAD PUSH2 0x11B9 SWAP2 SWAP1 PUSH2 0x39F7 JUMP JUMPDEST PUSH1 0x20 PUSH1 0x40 MLOAD DUP1 DUP4 SUB DUP2 DUP6 GAS STATICCALL ISZERO DUP1 ISZERO PUSH2 0x11D6 JUMPI RETURNDATASIZE PUSH1 0x0 DUP1 RETURNDATACOPY RETURNDATASIZE PUSH1 0x0 REVERT JUMPDEST POP POP POP PUSH1 0x40 MLOAD RETURNDATASIZE PUSH1 0x1F NOT PUSH1 0x1F DUP3 ADD AND DUP3 ADD DUP1 PUSH1 0x40 MSTORE POP DUP2 ADD SWAP1 PUSH2 0x11F9 SWAP2 SWAP1 PUSH2 0x2E40 JUMP JUMPDEST PUSH1 0x40 MLOAD PUSH1 0x20 ADD PUSH2 0x1209 SWAP2 SWAP1 PUSH2 0x3B34 JUMP JUMPDEST PUSH1 0x40 MLOAD PUSH1 0x20 DUP2 DUP4 SUB SUB DUP2 MSTORE SWAP1 PUSH1 0x40 MSTORE PUSH2 0x13A2 JUMP JUMPDEST SWAP1 POP PUSH1 0x0 PUSH2 0x122F DUP3 DUP6 PUSH1 0x20 ADD MLOAD PUSH2 0x141D JUMP JUMPDEST SWAP1 POP PUSH1 0x0 PUSH2 0x1241 DUP6 PUSH1 0x40 ADD MLOAD DUP4 PUSH2 0x141D JUMP JUMPDEST SWAP1 POP PUSH1 0x0 PUSH2 0x1253 DUP7 PUSH1 0x60 ADD MLOAD DUP4 PUSH2 0x141D JUMP JUMPDEST SWAP1 POP PUSH1 0x0 PUSH2 0x1265 DUP8 PUSH1 0x80 ADD MLOAD DUP4 PUSH2 0x141D JUMP JUMPDEST SWAP1 POP PUSH1 0x0 PUSH2 0x1277 DUP3 DUP10 PUSH1 0xA0 ADD MLOAD PUSH2 0x141D JUMP JUMPDEST SWAP1 POP DUP1 SWAP7 POP POP POP POP POP POP POP SWAP2 SWAP1 POP JUMP JUMPDEST PUSH1 0x3 SLOAD DUP2 JUMP JUMPDEST PUSH1 0x4 PUSH1 0x20 MSTORE DUP1 PUSH1 0x0 MSTORE PUSH1 0x40 PUSH1 0x0 KECCAK256 PUSH1 0x0 SWAP2 POP SWAP1 POP SLOAD DUP2 JUMP JUMPDEST PUSH1 0x1 SLOAD DUP2 JUMP JUMPDEST PUSH1 0x5 PUSH1 0x20 MSTORE DUP1 PUSH1 0x0 MSTORE PUSH1 0x40 PUSH1 0x0 KECCAK256 PUSH1 0x0 SWAP2 POP SWAP1 POP DUP1 PUSH1 0x0 ADD SLOAD SWAP1 DUP1 PUSH1 0x1 ADD PUSH1 0x0 SWAP1 SLOAD SWAP1 PUSH2 0x100 EXP SWAP1 DIV PUSH8 0xFFFFFFFFFFFFFFFF AND SWAP1 DUP1 PUSH1 0x1 ADD PUSH1 0x8 SWAP1 SLOAD SWAP1 PUSH2 0x100 EXP SWAP1 DIV PUSH4 0xFFFFFFFF AND SWAP1 POP DUP4 JUMP JUMPDEST PUSH2 0x1301 PUSH2 0x22E3 JUMP JUMPDEST DUP2 SWAP1 POP SWAP2 SWAP1 POP JUMP JUMPDEST PUSH2 0x139F DUP2 PUSH1 0x40 MLOAD PUSH1 0x24 ADD PUSH2 0x131D SWAP2 SWAP1 PUSH2 0x3E2F JUMP JUMPDEST PUSH1 0x40 MLOAD PUSH1 0x20 DUP2 DUP4 SUB SUB DUP2 MSTORE SWAP1 PUSH1 0x40 MSTORE PUSH32 0xBE77F5600000000000000000000000000000000000000000000000000000000 PUSH28 0xFFFFFFFFFFFFFFFFFFFFFFFFFFFFFFFFFFFFFFFFFFFFFFFFFFFFFFFF NOT AND PUSH1 0x20 DUP3 ADD DUP1 MLOAD PUSH28 0xFFFFFFFFFFFFFFFFFFFFFFFFFFFFFFFFFFFFFFFFFFFFFFFFFFFFFFFF DUP4 DUP2 DUP4 AND OR DUP4 MSTORE POP POP POP POP PUSH2 0x1E7B JUMP JUMPDEST POP JUMP JUMPDEST PUSH1 0x0 PUSH1 0x2 PUSH1 0x0 DUP4 PUSH1 0x40 MLOAD PUSH1 0x20 ADD PUSH2 0x13BA SWAP3 SWAP2 SWAP1 PUSH2 0x3BDF JUMP JUMPDEST PUSH1 0x40 MLOAD PUSH1 0x20 DUP2 DUP4 SUB SUB DUP2 MSTORE SWAP1 PUSH1 0x40 MSTORE PUSH1 0x40 MLOAD PUSH2 0x13D6 SWAP2 SWAP1 PUSH2 0x39F7 JUMP JUMPDEST PUSH1 0x20 PUSH1 0x40 MLOAD DUP1 DUP4 SUB DUP2 DUP6 GAS STATICCALL ISZERO DUP1 ISZERO PUSH2 0x13F3 JUMPI RETURNDATASIZE PUSH1 0x0 DUP1 RETURNDATACOPY RETURNDATASIZE PUSH1 0x0 REVERT JUMPDEST POP POP POP PUSH1 0x40 MLOAD RETURNDATASIZE PUSH1 0x1F NOT PUSH1 0x1F DUP3 ADD AND DUP3 ADD DUP1 PUSH1 0x40 MSTORE POP DUP2 ADD SWAP1 PUSH2 0x1416 SWAP2 SWAP1 PUSH2 0x2E40 JUMP JUMPDEST SWAP1 POP SWAP2 SWAP1 POP JUMP JUMPDEST PUSH1 0x0 PUSH1 0x2 PUSH1 0x1 DUP5 DUP5 PUSH1 0x40 MLOAD PUSH1 0x20 ADD PUSH2 0x1437 SWAP4 SWAP3 SWAP2 SWAP1 PUSH2 0x3BA2 JUMP JUMPDEST PUSH1 0x40 MLOAD PUSH1 0x20 DUP2 DUP4 SUB SUB DUP2 MSTORE SWAP1 PUSH1 0x40 MSTORE PUSH1 0x40 MLOAD PUSH2 0x1453 SWAP2 SWAP1 PUSH2 0x39F7 JUMP JUMPDEST PUSH1 0x20 PUSH1 0x40 MLOAD DUP1 DUP4 SUB DUP2 DUP6 GAS STATICCALL ISZERO DUP1 ISZERO PUSH2 0x1470 JUMPI RETURNDATASIZE PUSH1 0x0 DUP1 RETURNDATACOPY RETURNDATASIZE PUSH1 0x0 REVERT JUMPDEST POP POP POP PUSH1 0x40 MLOAD RETURNDATASIZE PUSH1 0x1F NOT PUSH1 0x1F DUP3 ADD AND DUP3 ADD DUP1 PUSH1 0x40 MSTORE POP DUP2 ADD SWAP1 PUSH2 0x1493 SWAP2 SWAP1 PUSH2 0x2E40 JUMP JUMPDEST SWAP1 POP SWAP3 SWAP2 POP POP JUMP JUMPDEST PUSH1 0x60 PUSH1 0x0 DUP3 SWAP1 POP PUSH1 0x0 JUMPDEST PUSH1 0x0 DUP3 GT ISZERO PUSH2 0x14C6 JUMPI DUP1 PUSH2 0x14B8 SWAP1 PUSH2 0x442E JUMP JUMPDEST SWAP1 POP PUSH1 0x7 DUP3 SWAP1 SHR SWAP2 POP PUSH2 0x14A5 JUMP JUMPDEST PUSH1 0x0 DUP2 PUSH8 0xFFFFFFFFFFFFFFFF DUP2 GT ISZERO PUSH2 0x1508 JUMPI PUSH32 0x4E487B7100000000000000000000000000000000000000000000000000000000 PUSH1 0x0 MSTORE PUSH1 0x41 PUSH1 0x4 MSTORE PUSH1 0x24 PUSH1 0x0 REVERT JUMPDEST PUSH1 0x40 MLOAD SWAP1 DUP1 DUP3 MSTORE DUP1 PUSH1 0x1F ADD PUSH1 0x1F NOT AND PUSH1 0x20 ADD DUP3 ADD PUSH1 0x40 MSTORE DUP1 ISZERO PUSH2 0x153A JUMPI DUP2 PUSH1 0x20 ADD PUSH1 0x1 DUP3 MUL DUP1 CALLDATASIZE DUP4 CALLDATACOPY DUP1 DUP3 ADD SWAP2 POP POP SWAP1 POP JUMPDEST POP SWAP1 POP DUP5 SWAP3 POP PUSH1 0x0 JUMPDEST DUP3 DUP2 LT ISZERO PUSH2 0x15D5 JUMPI PUSH1 0x7F DUP5 AND PUSH1 0x80 OR PUSH1 0xF8 SHL DUP3 DUP3 DUP2 MLOAD DUP2 LT PUSH2 0x158E JUMPI PUSH32 0x4E487B7100000000000000000000000000000000000000000000000000000000 PUSH1 0x0 MSTORE PUSH1 0x32 PUSH1 0x4 MSTORE PUSH1 0x24 PUSH1 0x0 REVERT JUMPDEST PUSH1 0x20 ADD ADD SWAP1 PUSH31 0xFFFFFFFFFFFFFFFFFFFFFFFFFFFFFFFFFFFFFFFFFFFFFFFFFFFFFFFFFFFFFF NOT AND SWAP1 DUP2 PUSH1 0x0 BYTE SWAP1 MSTORE8 POP PUSH1 0x7 DUP5 SWAP1 SHR SWAP4 POP DUP1 PUSH2 0x15CE SWAP1 PUSH2 0x442E JUMP JUMPDEST SWAP1 POP PUSH2 0x1543 JUMP JUMPDEST POP PUSH1 0x7F PUSH1 0xF8 SHL DUP2 PUSH1 0x1 DUP5 PUSH2 0x15E9 SWAP2 SWAP1 PUSH2 0x423E JUMP JUMPDEST DUP2 MLOAD DUP2 LT PUSH2 0x1620 JUMPI PUSH32 0x4E487B7100000000000000000000000000000000000000000000000000000000 PUSH1 0x0 MSTORE PUSH1 0x32 PUSH1 0x4 MSTORE PUSH1 0x24 PUSH1 0x0 REVERT JUMPDEST PUSH1 0x20 ADD ADD DUP2 DUP2 MLOAD PUSH1 0xF8 SHR PUSH1 0xF8 SHL AND SWAP2 POP SWAP1 PUSH31 0xFFFFFFFFFFFFFFFFFFFFFFFFFFFFFFFFFFFFFFFFFFFFFFFFFFFFFFFFFFFFFF NOT AND SWAP1 DUP2 PUSH1 0x0 BYTE SWAP1 MSTORE8 POP DUP1 SWAP4 POP POP POP POP SWAP2 SWAP1 POP JUMP JUMPDEST PUSH1 0x60 PUSH1 0x0 PUSH2 0x167D DUP5 PUSH8 0xFFFFFFFFFFFFFFFF AND PUSH2 0x149B JUMP JUMPDEST PUSH1 0x40 MLOAD PUSH1 0x20 ADD PUSH2 0x168D SWAP2 SWAP1 PUSH2 0x3B80 JUMP JUMPDEST PUSH1 0x40 MLOAD PUSH1 0x20 DUP2 DUP4 SUB SUB DUP2 MSTORE SWAP1 PUSH1 0x40 MSTORE SWAP1 POP PUSH1 0x0 DUP4 PUSH4 0xFFFFFFFF AND GT ISZERO PUSH2 0x16E0 JUMPI DUP1 PUSH2 0x16BD DUP5 PUSH4 0xFFFFFFFF AND PUSH2 0x149B JUMP JUMPDEST PUSH1 0x40 MLOAD PUSH1 0x20 ADD PUSH2 0x16CE SWAP3 SWAP2 SWAP1 PUSH2 0x3AB2 JUMP JUMPDEST PUSH1 0x40 MLOAD PUSH1 0x20 DUP2 DUP4 SUB SUB DUP2 MSTORE SWAP1 PUSH1 0x40 MSTORE SWAP1 POP JUMPDEST DUP1 SWAP2 POP POP SWAP3 SWAP2 POP POP JUMP JUMPDEST PUSH1 0x60 DUP1 PUSH1 0x0 DUP4 PUSH1 0x0 ADD MLOAD MLOAD GT ISZERO PUSH2 0x1778 JUMPI DUP1 PUSH2 0x1740 PUSH1 0x1 PUSH1 0x2 PUSH1 0x6 DUP2 GT ISZERO PUSH2 0x173B JUMPI PUSH32 0x4E487B7100000000000000000000000000000000000000000000000000000000 PUSH1 0x0 MSTORE PUSH1 0x21 PUSH1 0x4 MSTORE PUSH1 0x24 PUSH1 0x0 REVERT JUMPDEST PUSH2 0x1E95 JUMP JUMPDEST PUSH2 0x174E DUP6 PUSH1 0x0 ADD MLOAD MLOAD PUSH2 0x1EC4 JUMP JUMPDEST DUP6 PUSH1 0x0 ADD MLOAD PUSH1 0x40 MLOAD PUSH1 0x20 ADD PUSH2 0x1766 SWAP5 SWAP4 SWAP3 SWAP2 SWAP1 PUSH2 0x3A74 JUMP JUMPDEST PUSH1 0x40 MLOAD PUSH1 0x20 DUP2 DUP4 SUB SUB DUP2 MSTORE SWAP1 PUSH1 0x40 MSTORE SWAP1 POP JUMPDEST PUSH1 0x0 DUP4 PUSH1 0x20 ADD MLOAD PUSH8 0xFFFFFFFFFFFFFFFF AND EQ PUSH2 0x1804 JUMPI DUP1 PUSH2 0x17D3 PUSH1 0x2 PUSH1 0x0 PUSH1 0x6 DUP2 GT ISZERO PUSH2 0x17CE JUMPI PUSH32 0x4E487B7100000000000000000000000000000000000000000000000000000000 PUSH1 0x0 MSTORE PUSH1 0x21 PUSH1 0x4 MSTORE PUSH1 0x24 PUSH1 0x0 REVERT JUMPDEST PUSH2 0x1E95 JUMP JUMPDEST PUSH2 0x17E0 DUP6 PUSH1 0x20 ADD MLOAD PUSH2 0x1EC4 JUMP JUMPDEST PUSH1 0x40 MLOAD PUSH1 0x20 ADD PUSH2 0x17F2 SWAP4 SWAP3 SWAP2 SWAP1 PUSH2 0x3A43 JUMP JUMPDEST PUSH1 0x40 MLOAD PUSH1 0x20 DUP2 DUP4 SUB SUB DUP2 MSTORE SWAP1 PUSH1 0x40 MSTORE SWAP1 POP JUMPDEST PUSH1 0x0 DUP4 PUSH1 0x40 ADD MLOAD MLOAD GT ISZERO PUSH2 0x188F JUMPI DUP1 PUSH2 0x1857 PUSH1 0x3 PUSH1 0x2 PUSH1 0x6 DUP2 GT ISZERO PUSH2 0x1852 JUMPI PUSH32 0x4E487B7100000000000000000000000000000000000000000000000000000000 PUSH1 0x0 MSTORE PUSH1 0x21 PUSH1 0x4 MSTORE PUSH1 0x24 PUSH1 0x0 REVERT JUMPDEST PUSH2 0x1E95 JUMP JUMPDEST PUSH2 0x1865 DUP6 PUSH1 0x40 ADD MLOAD MLOAD PUSH2 0x1EC4 JUMP JUMPDEST DUP6 PUSH1 0x40 ADD MLOAD PUSH1 0x40 MLOAD PUSH1 0x20 ADD PUSH2 0x187D SWAP5 SWAP4 SWAP3 SWAP2 SWAP1 PUSH2 0x3A74 JUMP JUMPDEST PUSH1 0x40 MLOAD PUSH1 0x20 DUP2 DUP4 SUB SUB DUP2 MSTORE SWAP1 PUSH1 0x40 MSTORE SWAP1 POP JUMPDEST PUSH1 0x0 DUP4 PUSH1 0x60 ADD MLOAD PUSH8 0xFFFFFFFFFFFFFFFF AND EQ PUSH2 0x191B JUMPI DUP1 PUSH2 0x18EA PUSH1 0x4 PUSH1 0x0 PUSH1 0x6 DUP2 GT ISZERO PUSH2 0x18E5 JUMPI PUSH32 0x4E487B7100000000000000000000000000000000000000000000000000000000 PUSH1 0x0 MSTORE PUSH1 0x21 PUSH1 0x4 MSTORE PUSH1 0x24 PUSH1 0x0 REVERT JUMPDEST PUSH2 0x1E95 JUMP JUMPDEST PUSH2 0x18F7 DUP6 PUSH1 0x60 ADD MLOAD PUSH2 0x1EC4 JUMP JUMPDEST PUSH1 0x40 MLOAD PUSH1 0x20 ADD PUSH2 0x1909 SWAP4 SWAP3 SWAP2 SWAP1 PUSH2 0x3A43 JUMP JUMPDEST PUSH1 0x40 MLOAD PUSH1 0x20 DUP2 DUP4 SUB SUB DUP2 MSTORE SWAP1 PUSH1 0x40 MSTORE SWAP1 POP JUMPDEST PUSH1 0x0 DUP4 PUSH1 0x80 ADD MLOAD PUSH8 0xFFFFFFFFFFFFFFFF AND EQ PUSH2 0x19A7 JUMPI DUP1 PUSH2 0x1976 PUSH1 0x5 PUSH1 0x0 PUSH1 0x6 DUP2 GT ISZERO PUSH2 0x1971 JUMPI PUSH32 0x4E487B7100000000000000000000000000000000000000000000000000000000 PUSH1 0x0 MSTORE PUSH1 0x21 PUSH1 0x4 MSTORE PUSH1 0x24 PUSH1 0x0 REVERT JUMPDEST PUSH2 0x1E95 JUMP JUMPDEST PUSH2 0x1983 DUP6 PUSH1 0x80 ADD MLOAD PUSH2 0x1EC4 JUMP JUMPDEST PUSH1 0x40 MLOAD PUSH1 0x20 ADD PUSH2 0x1995 SWAP4 SWAP3 SWAP2 SWAP1 PUSH2 0x3A43 JUMP JUMPDEST PUSH1 0x40 MLOAD PUSH1 0x20 DUP2 DUP4 SUB SUB DUP2 MSTORE SWAP1 PUSH1 0x40 MSTORE SWAP1 POP JUMPDEST PUSH1 0x0 DUP4 PUSH1 0xA0 ADD MLOAD PUSH8 0xFFFFFFFFFFFFFFFF AND EQ PUSH2 0x1A33 JUMPI DUP1 PUSH2 0x1A02 PUSH1 0x6 PUSH1 0x0 PUSH1 0x6 DUP2 GT ISZERO PUSH2 0x19FD JUMPI PUSH32 0x4E487B7100000000000000000000000000000000000000000000000000000000 PUSH1 0x0 MSTORE PUSH1 0x21 PUSH1 0x4 MSTORE PUSH1 0x24 PUSH1 0x0 REVERT JUMPDEST PUSH2 0x1E95 JUMP JUMPDEST PUSH2 0x1A0F DUP6 PUSH1 0xA0 ADD MLOAD PUSH2 0x1EC4 JUMP JUMPDEST PUSH1 0x40 MLOAD PUSH1 0x20 ADD PUSH2 0x1A21 SWAP4 SWAP3 SWAP2 SWAP1 PUSH2 0x3A43 JUMP JUMPDEST PUSH1 0x40 MLOAD PUSH1 0x20 DUP2 DUP4 SUB SUB DUP2 MSTORE SWAP1 PUSH1 0x40 MSTORE SWAP1 POP JUMPDEST PUSH1 0x0 DUP4 PUSH1 0xC0 ADD MLOAD PUSH8 0xFFFFFFFFFFFFFFFF AND EQ PUSH2 0x1ABF JUMPI DUP1 PUSH2 0x1A8E PUSH1 0x7 PUSH1 0x0 PUSH1 0x6 DUP2 GT ISZERO PUSH2 0x1A89 JUMPI PUSH32 0x4E487B7100000000000000000000000000000000000000000000000000000000 PUSH1 0x0 MSTORE PUSH1 0x21 PUSH1 0x4 MSTORE PUSH1 0x24 PUSH1 0x0 REVERT JUMPDEST PUSH2 0x1E95 JUMP JUMPDEST PUSH2 0x1A9B DUP6 PUSH1 0xC0 ADD MLOAD PUSH2 0x1EC4 JUMP JUMPDEST PUSH1 0x40 MLOAD PUSH1 0x20 ADD PUSH2 0x1AAD SWAP4 SWAP3 SWAP2 SWAP1 PUSH2 0x3A43 JUMP JUMPDEST PUSH1 0x40 MLOAD PUSH1 0x20 DUP2 DUP4 SUB SUB DUP2 MSTORE SWAP1 PUSH1 0x40 MSTORE SWAP1 POP JUMPDEST PUSH1 0x0 DUP4 PUSH1 0xE0 ADD MLOAD PUSH8 0xFFFFFFFFFFFFFFFF AND EQ PUSH2 0x1B4B JUMPI DUP1 PUSH2 0x1B1A PUSH1 0x8 PUSH1 0x0 PUSH1 0x6 DUP2 GT ISZERO PUSH2 0x1B15 JUMPI PUSH32 0x4E487B7100000000000000000000000000000000000000000000000000000000 PUSH1 0x0 MSTORE PUSH1 0x21 PUSH1 0x4 MSTORE PUSH1 0x24 PUSH1 0x0 REVERT JUMPDEST PUSH2 0x1E95 JUMP JUMPDEST PUSH2 0x1B27 DUP6 PUSH1 0xE0 ADD MLOAD PUSH2 0x1EC4 JUMP JUMPDEST PUSH1 0x40 MLOAD PUSH1 0x20 ADD PUSH2 0x1B39 SWAP4 SWAP3 SWAP2 SWAP1 PUSH2 0x3A43 JUMP JUMPDEST PUSH1 0x40 MLOAD PUSH1 0x20 DUP2 DUP4 SUB SUB DUP2 MSTORE SWAP1 PUSH1 0x40 MSTORE SWAP1 POP JUMPDEST PUSH1 0x0 DUP4 PUSH2 0x100 ADD MLOAD PUSH8 0xFFFFFFFFFFFFFFFF AND EQ PUSH2 0x1BD9 JUMPI DUP1 PUSH2 0x1BA7 PUSH1 0x9 PUSH1 0x0 PUSH1 0x6 DUP2 GT ISZERO PUSH2 0x1BA2 JUMPI PUSH32 0x4E487B7100000000000000000000000000000000000000000000000000000000 PUSH1 0x0 MSTORE PUSH1 0x21 PUSH1 0x4 MSTORE PUSH1 0x24 PUSH1 0x0 REVERT JUMPDEST PUSH2 0x1E95 JUMP JUMPDEST PUSH2 0x1BB5 DUP6 PUSH2 0x100 ADD MLOAD PUSH2 0x1EC4 JUMP JUMPDEST PUSH1 0x40 MLOAD PUSH1 0x20 ADD PUSH2 0x1BC7 SWAP4 SWAP3 SWAP2 SWAP1 PUSH2 0x3A43 JUMP JUMPDEST PUSH1 0x40 MLOAD PUSH1 0x20 DUP2 DUP4 SUB SUB DUP2 MSTORE SWAP1 PUSH1 0x40 MSTORE SWAP1 POP JUMPDEST PUSH1 0x0 DUP4 PUSH2 0x120 ADD MLOAD PUSH1 0x3 DUP2 GT ISZERO PUSH2 0x1C19 JUMPI PUSH32 0x4E487B7100000000000000000000000000000000000000000000000000000000 PUSH1 0x0 MSTORE PUSH1 0x21 PUSH1 0x4 MSTORE PUSH1 0x24 PUSH1 0x0 REVERT JUMPDEST PUSH8 0xFFFFFFFFFFFFFFFF AND EQ PUSH2 0x1CD7 JUMPI DUP1 PUSH2 0x1C6D PUSH1 0xA PUSH1 0x0 PUSH1 0x6 DUP2 GT ISZERO PUSH2 0x1C68 JUMPI PUSH32 0x4E487B7100000000000000000000000000000000000000000000000000000000 PUSH1 0x0 MSTORE PUSH1 0x21 PUSH1 0x4 MSTORE PUSH1 0x24 PUSH1 0x0 REVERT JUMPDEST PUSH2 0x1E95 JUMP JUMPDEST PUSH2 0x1CB3 DUP6 PUSH2 0x120 ADD MLOAD PUSH1 0x3 DUP2 GT ISZERO PUSH2 0x1CAE JUMPI PUSH32 0x4E487B7100000000000000000000000000000000000000000000000000000000 PUSH1 0x0 MSTORE PUSH1 0x21 PUSH1 0x4 MSTORE PUSH1 0x24 PUSH1 0x0 REVERT JUMPDEST PUSH2 0x1ED6 JUMP JUMPDEST PUSH1 0x40 MLOAD PUSH1 0x20 ADD PUSH2 0x1CC5 SWAP4 SWAP3 SWAP2 SWAP1 PUSH2 0x3A43 JUMP JUMPDEST PUSH1 0x40 MLOAD PUSH1 0x20 DUP2 DUP4 SUB SUB DUP2 MSTORE SWAP1 PUSH1 0x40 MSTORE SWAP1 POP JUMPDEST PUSH1 0x0 DUP4 PUSH2 0x140 ADD MLOAD MLOAD GT ISZERO PUSH2 0x1D65 JUMPI DUP1 PUSH2 0x1D2B PUSH1 0xB PUSH1 0x2 PUSH1 0x6 DUP2 GT ISZERO PUSH2 0x1D26 JUMPI PUSH32 0x4E487B7100000000000000000000000000000000000000000000000000000000 PUSH1 0x0 MSTORE PUSH1 0x21 PUSH1 0x4 MSTORE PUSH1 0x24 PUSH1 0x0 REVERT JUMPDEST PUSH2 0x1E95 JUMP JUMPDEST PUSH2 0x1D3A DUP6 PUSH2 0x140 ADD MLOAD MLOAD PUSH2 0x1EC4 JUMP JUMPDEST DUP6 PUSH2 0x140 ADD MLOAD PUSH1 0x40 MLOAD PUSH1 0x20 ADD PUSH2 0x1D53 SWAP5 SWAP4 SWAP3 SWAP2 SWAP1 PUSH2 0x3A74 JUMP JUMPDEST PUSH1 0x40 MLOAD PUSH1 0x20 DUP2 DUP4 SUB SUB DUP2 MSTORE SWAP1 PUSH1 0x40 MSTORE SWAP1 POP JUMPDEST DUP1 SWAP2 POP POP SWAP2 SWAP1 POP JUMP JUMPDEST PUSH1 0x0 DUP1 PUSH2 0x1D7A DUP7 PUSH2 0x149B JUMP JUMPDEST SWAP1 POP PUSH1 0x0 PUSH1 0x2 PUSH1 0x0 PUSH1 0x2 DUP5 DUP10 MLOAD DUP11 PUSH1 0x20 DUP12 PUSH1 0x40 MLOAD PUSH1 0x20 ADD PUSH2 0x1DA1 SWAP8 SWAP7 SWAP6 SWAP5 SWAP4 SWAP3 SWAP2 SWAP1 PUSH2 0x3CE9 JUMP JUMPDEST PUSH1 0x40 MLOAD PUSH1 0x20 DUP2 DUP4 SUB SUB DUP2 MSTORE SWAP1 PUSH1 0x40 MSTORE PUSH1 0x40 MLOAD PUSH2 0x1DBD SWAP2 SWAP1 PUSH2 0x39F7 JUMP JUMPDEST PUSH1 0x20 PUSH1 0x40 MLOAD DUP1 DUP4 SUB DUP2 DUP6 GAS STATICCALL ISZERO DUP1 ISZERO PUSH2 0x1DDA JUMPI RETURNDATASIZE PUSH1 0x0 DUP1 RETURNDATACOPY RETURNDATASIZE PUSH1 0x0 REVERT JUMPDEST POP POP POP PUSH1 0x40 MLOAD RETURNDATASIZE PUSH1 0x1F NOT PUSH1 0x1F DUP3 ADD AND DUP3 ADD DUP1 PUSH1 0x40 MSTORE POP DUP2 ADD SWAP1 PUSH2 0x1DFD SWAP2 SWAP1 PUSH2 0x2E40 JUMP JUMPDEST SWAP1 POP PUSH1 0x0 JUMPDEST DUP5 MLOAD DUP2 LT ISZERO PUSH2 0x1E6A JUMPI PUSH2 0x1E55 DUP6 DUP3 DUP2 MLOAD DUP2 LT PUSH2 0x1E47 JUMPI PUSH32 0x4E487B7100000000000000000000000000000000000000000000000000000000 PUSH1 0x0 MSTORE PUSH1 0x32 PUSH1 0x4 MSTORE PUSH1 0x24 PUSH1 0x0 REVERT JUMPDEST PUSH1 0x20 MUL PUSH1 0x20 ADD ADD MLOAD DUP4 PUSH2 0x1EEE JUMP JUMPDEST SWAP2 POP DUP1 DUP1 PUSH2 0x1E62 SWAP1 PUSH2 0x442E JUMP JUMPDEST SWAP2 POP POP PUSH2 0x1E02 JUMP JUMPDEST POP DUP8 DUP2 EQ SWAP3 POP POP POP SWAP6 SWAP5 POP POP POP POP POP JUMP JUMPDEST PUSH2 0x1E92 DUP2 PUSH2 0x1E8A PUSH2 0x1FBC PUSH2 0x1FDD JUMP JUMPDEST PUSH4 0xFFFFFFFF AND JUMP JUMPDEST POP JUMP JUMPDEST PUSH1 0x60 PUSH1 0x0 DUP3 PUSH1 0x3 DUP6 PUSH8 0xFFFFFFFFFFFFFFFF AND SWAP1 SHL OR SWAP1 POP PUSH1 0x0 PUSH2 0x1EB7 DUP3 PUSH2 0x1FE8 JUMP JUMPDEST SWAP1 POP DUP1 SWAP3 POP POP POP SWAP3 SWAP2 POP POP JUMP JUMPDEST PUSH1 0x60 PUSH2 0x1ECF DUP3 PUSH2 0x1FE8 JUMP JUMPDEST SWAP1 POP SWAP2 SWAP1 POP JUMP JUMPDEST PUSH1 0x60 PUSH2 0x1EE7 DUP3 PUSH4 0xFFFFFFFF AND PUSH2 0x1FE8 JUMP JUMPDEST SWAP1 POP SWAP2 SWAP1 POP JUMP JUMPDEST PUSH1 0x0 DUP1 PUSH1 0x0 DUP5 PUSH1 0x0 ADD MLOAD PUSH2 0x1F07 JUMPI DUP4 DUP6 PUSH1 0x80 ADD MLOAD PUSH2 0x1F0E JUMP JUMPDEST DUP5 PUSH1 0x80 ADD MLOAD DUP5 JUMPDEST SWAP2 POP SWAP2 POP PUSH1 0x2 PUSH1 0x1 DUP7 PUSH1 0x20 ADD MLOAD PUSH1 0xFF AND SWAP1 SHL PUSH2 0x1F2D DUP8 PUSH1 0x40 ADD MLOAD PUSH2 0x220C JUMP JUMPDEST PUSH2 0x1F3A DUP9 PUSH1 0x60 ADD MLOAD PUSH2 0x220C JUMP JUMPDEST PUSH1 0x20 DUP7 PUSH1 0x20 DUP8 PUSH1 0x40 MLOAD PUSH1 0x20 ADD PUSH2 0x1F56 SWAP8 SWAP7 SWAP6 SWAP5 SWAP4 SWAP3 SWAP2 SWAP1 PUSH2 0x3C07 JUMP JUMPDEST PUSH1 0x40 MLOAD PUSH1 0x20 DUP2 DUP4 SUB SUB DUP2 MSTORE SWAP1 PUSH1 0x40 MSTORE PUSH1 0x40 MLOAD PUSH2 0x1F72 SWAP2 SWAP1 PUSH2 0x39F7 JUMP JUMPDEST PUSH1 0x20 PUSH1 0x40 MLOAD DUP1 DUP4 SUB DUP2 DUP6 GAS STATICCALL ISZERO DUP1 ISZERO PUSH2 0x1F8F JUMPI RETURNDATASIZE PUSH1 0x0 DUP1 RETURNDATACOPY RETURNDATASIZE PUSH1 0x0 REVERT JUMPDEST POP POP POP PUSH1 0x40 MLOAD RETURNDATASIZE PUSH1 0x1F NOT PUSH1 0x1F DUP3 ADD AND DUP3 ADD DUP1 PUSH1 0x40 MSTORE POP DUP2 ADD SWAP1 PUSH2 0x1FB2 SWAP2 SWAP1 PUSH2 0x2E40 JUMP JUMPDEST SWAP3 POP POP POP SWAP3 SWAP2 POP POP JUMP JUMPDEST PUSH1 0x0 PUSH11 0x636F6E736F6C652E6C6F67 SWAP1 POP PUSH1 0x0 DUP1 DUP4 MLOAD PUSH1 0x20 DUP6 ADD DUP5 GAS STATICCALL POP POP POP JUMP JUMPDEST PUSH2 0x245B DUP2 SWAP1 POP SWAP2 SWAP1 POP JUMP JUMPDEST PUSH1 0x60 PUSH1 0x0 DUP3 SWAP1 POP PUSH1 0x0 PUSH1 0x1 SWAP1 POP JUMPDEST PUSH1 0x7F DUP3 PUSH8 0xFFFFFFFFFFFFFFFF AND GT ISZERO PUSH2 0x202E JUMPI PUSH1 0x7 DUP3 PUSH8 0xFFFFFFFFFFFFFFFF AND SWAP1 SHR SWAP2 POP PUSH1 0x1 DUP2 PUSH2 0x2027 SWAP2 SWAP1 PUSH2 0x41A6 JUMP JUMPDEST SWAP1 POP PUSH2 0x1FF6 JUMP JUMPDEST PUSH1 0x0 DUP2 PUSH8 0xFFFFFFFFFFFFFFFF AND PUSH8 0xFFFFFFFFFFFFFFFF DUP2 GT ISZERO PUSH2 0x207A JUMPI PUSH32 0x4E487B7100000000000000000000000000000000000000000000000000000000 PUSH1 0x0 MSTORE PUSH1 0x41 PUSH1 0x4 MSTORE PUSH1 0x24 PUSH1 0x0 REVERT JUMPDEST PUSH1 0x40 MLOAD SWAP1 DUP1 DUP3 MSTORE DUP1 PUSH1 0x1F ADD PUSH1 0x1F NOT AND PUSH1 0x20 ADD DUP3 ADD PUSH1 0x40 MSTORE DUP1 ISZERO PUSH2 0x20AC JUMPI DUP2 PUSH1 0x20 ADD PUSH1 0x1 DUP3 MUL DUP1 CALLDATASIZE DUP4 CALLDATACOPY DUP1 DUP3 ADD SWAP2 POP POP SWAP1 POP JUMPDEST POP SWAP1 POP DUP5 SWAP3 POP PUSH1 0x0 JUMPDEST DUP3 PUSH8 0xFFFFFFFFFFFFFFFF AND DUP2 PUSH8 0xFFFFFFFFFFFFFFFF AND LT ISZERO PUSH2 0x2171 JUMPI PUSH1 0x7F DUP5 AND PUSH1 0x80 OR PUSH1 0xF8 SHL DUP3 DUP3 PUSH8 0xFFFFFFFFFFFFFFFF AND DUP2 MLOAD DUP2 LT PUSH2 0x211E JUMPI PUSH32 0x4E487B7100000000000000000000000000000000000000000000000000000000 PUSH1 0x0 MSTORE PUSH1 0x32 PUSH1 0x4 MSTORE PUSH1 0x24 PUSH1 0x0 REVERT JUMPDEST PUSH1 0x20 ADD ADD SWAP1 PUSH31 0xFFFFFFFFFFFFFFFFFFFFFFFFFFFFFFFFFFFFFFFFFFFFFFFFFFFFFFFFFFFFFF NOT AND SWAP1 DUP2 PUSH1 0x0 BYTE SWAP1 MSTORE8 POP PUSH1 0x7 DUP5 PUSH8 0xFFFFFFFFFFFFFFFF AND SWAP1 SHR SWAP4 POP DUP1 DUP1 PUSH2 0x2169 SWAP1 PUSH2 0x4477 JUMP JUMPDEST SWAP2 POP POP PUSH2 0x20B5 JUMP JUMPDEST POP PUSH1 0x7F PUSH1 0xF8 SHL DUP2 PUSH1 0x1 DUP5 PUSH2 0x2185 SWAP2 SWAP1 PUSH2 0x4272 JUMP JUMPDEST PUSH8 0xFFFFFFFFFFFFFFFF AND DUP2 MLOAD DUP2 LT PUSH2 0x21C6 JUMPI PUSH32 0x4E487B7100000000000000000000000000000000000000000000000000000000 PUSH1 0x0 MSTORE PUSH1 0x32 PUSH1 0x4 MSTORE PUSH1 0x24 PUSH1 0x0 REVERT JUMPDEST PUSH1 0x20 ADD ADD DUP2 DUP2 MLOAD PUSH1 0xF8 SHR PUSH1 0xF8 SHL AND SWAP2 POP SWAP1 PUSH31 0xFFFFFFFFFFFFFFFFFFFFFFFFFFFFFFFFFFFFFFFFFFFFFFFFFFFFFFFFFFFFFF NOT AND SWAP1 DUP2 PUSH1 0x0 BYTE SWAP1 MSTORE8 POP DUP1 SWAP4 POP POP POP POP SWAP2 SWAP1 POP JUMP JUMPDEST PUSH1 0x60 PUSH2 0x2223 PUSH1 0x2 DUP4 PUSH2 0x221E SWAP2 SWAP1 PUSH2 0x41E4 JUMP JUMPDEST PUSH2 0x149B JUMP JUMPDEST SWAP1 POP SWAP2 SWAP1 POP JUMP JUMPDEST PUSH1 0x40 MLOAD DUP1 PUSH1 0x40 ADD PUSH1 0x40 MSTORE DUP1 PUSH1 0x60 DUP2 MSTORE PUSH1 0x20 ADD PUSH1 0x60 DUP2 MSTORE POP SWAP1 JUMP JUMPDEST PUSH1 0x40 MLOAD DUP1 PUSH2 0x100 ADD PUSH1 0x40 MSTORE DUP1 PUSH1 0x0 DUP1 NOT AND DUP2 MSTORE PUSH1 0x20 ADD PUSH1 0x0 PUSH8 0xFFFFFFFFFFFFFFFF AND DUP2 MSTORE PUSH1 0x20 ADD PUSH1 0x0 PUSH8 0xFFFFFFFFFFFFFFFF AND DUP2 MSTORE PUSH1 0x20 ADD PUSH1 0x0 PUSH4 0xFFFFFFFF AND DUP2 MSTORE PUSH1 0x20 ADD PUSH1 0x0 DUP1 NOT AND DUP2 MSTORE PUSH1 0x20 ADD PUSH1 0x0 DUP1 NOT AND DUP2 MSTORE PUSH1 0x20 ADD PUSH1 0x0 DUP1 NOT AND DUP2 MSTORE PUSH1 0x20 ADD PUSH1 0x0 DUP1 NOT AND DUP2 MSTORE POP SWAP1 JUMP JUMPDEST PUSH1 0x40 MLOAD DUP1 PUSH1 0x80 ADD PUSH1 0x40 MSTORE DUP1 PUSH1 0x0 DUP1 NOT AND DUP2 MSTORE PUSH1 0x20 ADD PUSH1 0x0 DUP1 NOT AND DUP2 MSTORE PUSH1 0x20 ADD PUSH1 0x0 PUSH1 0xFF AND DUP2 MSTORE PUSH1 0x20 ADD PUSH1 0x60 DUP2 MSTORE POP SWAP1 JUMP JUMPDEST PUSH1 0x40 MLOAD DUP1 PUSH1 0x40 ADD PUSH1 0x40 MSTORE DUP1 PUSH1 0x0 DUP2 MSTORE PUSH1 0x20 ADD PUSH1 0x0 DUP2 MSTORE POP SWAP1 JUMP JUMPDEST DUP3 DUP1 SLOAD PUSH2 0x2309 SWAP1 PUSH2 0x43CB JUMP JUMPDEST SWAP1 PUSH1 0x0 MSTORE PUSH1 0x20 PUSH1 0x0 KECCAK256 SWAP1 PUSH1 0x1F ADD PUSH1 0x20 SWAP1 DIV DUP2 ADD SWAP3 DUP3 PUSH2 0x232B JUMPI PUSH1 0x0 DUP6 SSTORE PUSH2 0x2372 JUMP JUMPDEST DUP3 PUSH1 0x1F LT PUSH2 0x2344 JUMPI DUP1 MLOAD PUSH1 0xFF NOT AND DUP4 DUP1 ADD OR DUP6 SSTORE PUSH2 0x2372 JUMP JUMPDEST DUP3 DUP1 ADD PUSH1 0x1 ADD DUP6 SSTORE DUP3 ISZERO PUSH2 0x2372 JUMPI SWAP2 DUP3 ADD JUMPDEST DUP3 DUP2 GT ISZERO PUSH2 0x2371 JUMPI DUP3 MLOAD DUP3 SSTORE SWAP2 PUSH1 0x20 ADD SWAP2 SWAP1 PUSH1 0x1 ADD SWAP1 PUSH2 0x2356 JUMP JUMPDEST JUMPDEST POP SWAP1 POP PUSH2 0x237F SWAP2 SWAP1 PUSH2 0x248A JUMP JUMPDEST POP SWAP1 JUMP JUMPDEST PUSH1 0x40 MLOAD DUP1 PUSH2 0x160 ADD PUSH1 0x40 MSTORE DUP1 PUSH1 0x60 DUP2 MSTORE PUSH1 0x20 ADD PUSH1 0x0 PUSH8 0xFFFFFFFFFFFFFFFF AND DUP2 MSTORE PUSH1 0x20 ADD PUSH1 0x60 DUP2 MSTORE PUSH1 0x20 ADD PUSH1 0x0 PUSH8 0xFFFFFFFFFFFFFFFF AND DUP2 MSTORE PUSH1 0x20 ADD PUSH1 0x0 PUSH8 0xFFFFFFFFFFFFFFFF AND DUP2 MSTORE PUSH1 0x20 ADD PUSH1 0x0 PUSH8 0xFFFFFFFFFFFFFFFF AND DUP2 MSTORE PUSH1 0x20 ADD PUSH1 0x0 PUSH8 0xFFFFFFFFFFFFFFFF AND DUP2 MSTORE PUSH1 0x20 ADD PUSH1 0x0 PUSH8 0xFFFFFFFFFFFFFFFF AND DUP2 MSTORE PUSH1 0x20 ADD PUSH1 0x0 PUSH8 0xFFFFFFFFFFFFFFFF AND DUP2 MSTORE PUSH1 0x20 ADD PUSH1 0x0 PUSH1 0x3 DUP2 GT ISZERO PUSH2 0x244E JUMPI PUSH32 0x4E487B7100000000000000000000000000000000000000000000000000000000 PUSH1 0x0 MSTORE PUSH1 0x21 PUSH1 0x4 MSTORE PUSH1 0x24 PUSH1 0x0 REVERT JUMPDEST DUP2 MSTORE PUSH1 0x20 ADD PUSH1 0x60 DUP2 MSTORE POP SWAP1 JUMP JUMPDEST PUSH32 0x4E487B7100000000000000000000000000000000000000000000000000000000 PUSH1 0x0 MSTORE PUSH1 0x51 PUSH1 0x4 MSTORE PUSH1 0x24 PUSH1 0x0 REVERT JUMPDEST JUMPDEST DUP1 DUP3 GT ISZERO PUSH2 0x24A3 JUMPI PUSH1 0x0 DUP2 PUSH1 0x0 SWAP1 SSTORE POP PUSH1 0x1 ADD PUSH2 0x248B JUMP JUMPDEST POP SWAP1 JUMP JUMPDEST PUSH1 0x0 PUSH2 0x24BA PUSH2 0x24B5 DUP5 PUSH2 0x4052 JUMP JUMPDEST PUSH2 0x402D JUMP JUMPDEST SWAP1 POP DUP1 DUP4 DUP3 MSTORE PUSH1 0x20 DUP3 ADD SWAP1 POP DUP3 PUSH1 0x0 JUMPDEST DUP6 DUP2 LT ISZERO PUSH2 0x24FA JUMPI DUP2 CALLDATALOAD DUP6 ADD PUSH2 0x24E0 DUP9 DUP3 PUSH2 0x2B27 JUMP JUMPDEST DUP5 MSTORE PUSH1 0x20 DUP5 ADD SWAP4 POP PUSH1 0x20 DUP4 ADD SWAP3 POP POP PUSH1 0x1 DUP2 ADD SWAP1 POP PUSH2 0x24CA JUMP JUMPDEST POP POP POP SWAP4 SWAP3 POP POP POP JUMP JUMPDEST PUSH1 0x0 PUSH2 0x2517 PUSH2 0x2512 DUP5 PUSH2 0x407E JUMP JUMPDEST PUSH2 0x402D JUMP JUMPDEST SWAP1 POP DUP3 DUP2 MSTORE PUSH1 0x20 DUP2 ADD DUP5 DUP5 DUP5 ADD GT ISZERO PUSH2 0x252F JUMPI PUSH1 0x0 DUP1 REVERT JUMPDEST PUSH2 0x253A DUP5 DUP3 DUP6 PUSH2 0x4389 JUMP JUMPDEST POP SWAP4 SWAP3 POP POP POP JUMP JUMPDEST PUSH1 0x0 PUSH2 0x2555 PUSH2 0x2550 DUP5 PUSH2 0x40AF JUMP JUMPDEST PUSH2 0x402D JUMP JUMPDEST SWAP1 POP DUP3 DUP2 MSTORE PUSH1 0x20 DUP2 ADD DUP5 DUP5 DUP5 ADD GT ISZERO PUSH2 0x256D JUMPI PUSH1 0x0 DUP1 REVERT JUMPDEST PUSH2 0x2578 DUP5 DUP3 DUP6 PUSH2 0x4389 JUMP JUMPDEST POP SWAP4 SWAP3 POP POP POP JUMP JUMPDEST PUSH1 0x0 DUP2 CALLDATALOAD SWAP1 POP PUSH2 0x258F DUP2 PUSH2 0x482F JUMP JUMPDEST SWAP3 SWAP2 POP POP JUMP JUMPDEST PUSH1 0x0 DUP1 DUP4 PUSH1 0x1F DUP5 ADD SLT PUSH2 0x25A7 JUMPI PUSH1 0x0 DUP1 REVERT JUMPDEST DUP3 CALLDATALOAD SWAP1 POP PUSH8 0xFFFFFFFFFFFFFFFF DUP2 GT ISZERO PUSH2 0x25C0 JUMPI PUSH1 0x0 DUP1 REVERT JUMPDEST PUSH1 0x20 DUP4 ADD SWAP2 POP DUP4 PUSH1 0x20 DUP3 MUL DUP4 ADD GT ISZERO PUSH2 0x25D8 JUMPI PUSH1 0x0 DUP1 REVERT JUMPDEST SWAP3 POP SWAP3 SWAP1 POP JUMP JUMPDEST PUSH1 0x0 DUP1 DUP4 PUSH1 0x1F DUP5 ADD SLT PUSH2 0x25F1 JUMPI PUSH1 0x0 DUP1 REVERT JUMPDEST DUP3 CALLDATALOAD SWAP1 POP PUSH8 0xFFFFFFFFFFFFFFFF DUP2 GT ISZERO PUSH2 0x260A JUMPI PUSH1 0x0 DUP1 REVERT JUMPDEST PUSH1 0x20 DUP4 ADD SWAP2 POP DUP4 PUSH1 0xA0 DUP3 MUL DUP4 ADD GT ISZERO PUSH2 0x2622 JUMPI PUSH1 0x0 DUP1 REVERT JUMPDEST SWAP3 POP SWAP3 SWAP1 POP JUMP JUMPDEST PUSH1 0x0 DUP1 DUP4 PUSH1 0x1F DUP5 ADD SLT PUSH2 0x263B JUMPI PUSH1 0x0 DUP1 REVERT JUMPDEST DUP3 CALLDATALOAD SWAP1 POP PUSH8 0xFFFFFFFFFFFFFFFF DUP2 GT ISZERO PUSH2 0x2654 JUMPI PUSH1 0x0 DUP1 REVERT JUMPDEST PUSH1 0x20 DUP4 ADD SWAP2 POP DUP4 PUSH1 0x20 DUP3 MUL DUP4 ADD GT ISZERO PUSH2 0x266C JUMPI PUSH1 0x0 DUP1 REVERT JUMPDEST SWAP3 POP SWAP3 SWAP1 POP JUMP JUMPDEST PUSH1 0x0 DUP3 PUSH1 0x1F DUP4 ADD SLT PUSH2 0x2684 JUMPI PUSH1 0x0 DUP1 REVERT JUMPDEST DUP2 CALLDATALOAD PUSH2 0x2694 DUP5 DUP3 PUSH1 0x20 DUP7 ADD PUSH2 0x24A7 JUMP JUMPDEST SWAP2 POP POP SWAP3 SWAP2 POP POP JUMP JUMPDEST PUSH1 0x0 DUP1 DUP4 PUSH1 0x1F DUP5 ADD SLT PUSH2 0x26AF JUMPI PUSH1 0x0 DUP1 REVERT JUMPDEST DUP3 CALLDATALOAD SWAP1 POP PUSH8 0xFFFFFFFFFFFFFFFF DUP2 GT ISZERO PUSH2 0x26C8 JUMPI PUSH1 0x0 DUP1 REVERT JUMPDEST PUSH1 0x20 DUP4 ADD SWAP2 POP DUP4 PUSH1 0x20 DUP3 MUL DUP4 ADD GT ISZERO PUSH2 0x26E0 JUMPI PUSH1 0x0 DUP1 REVERT JUMPDEST SWAP3 POP SWAP3 SWAP1 POP JUMP JUMPDEST PUSH1 0x0 DUP2 CALLDATALOAD SWAP1 POP PUSH2 0x26F6 DUP2 PUSH2 0x4846 JUMP JUMPDEST SWAP3 SWAP2 POP POP JUMP JUMPDEST PUSH1 0x0 DUP2 CALLDATALOAD SWAP1 POP PUSH2 0x270B DUP2 PUSH2 0x485D JUMP JUMPDEST SWAP3 SWAP2 POP POP JUMP JUMPDEST PUSH1 0x0 DUP2 MLOAD SWAP1 POP PUSH2 0x2720 DUP2 PUSH2 0x485D JUMP JUMPDEST SWAP3 SWAP2 POP POP JUMP JUMPDEST PUSH1 0x0 DUP1 DUP4 PUSH1 0x1F DUP5 ADD SLT PUSH2 0x2738 JUMPI PUSH1 0x0 DUP1 REVERT JUMPDEST DUP3 CALLDATALOAD SWAP1 POP PUSH8 0xFFFFFFFFFFFFFFFF DUP2 GT ISZERO PUSH2 0x2751 JUMPI PUSH1 0x0 DUP1 REVERT JUMPDEST PUSH1 0x20 DUP4 ADD SWAP2 POP DUP4 PUSH1 0x1 DUP3 MUL DUP4 ADD GT ISZERO PUSH2 0x2769 JUMPI PUSH1 0x0 DUP1 REVERT JUMPDEST SWAP3 POP SWAP3 SWAP1 POP JUMP JUMPDEST PUSH1 0x0 DUP3 PUSH1 0x1F DUP4 ADD SLT PUSH2 0x2781 JUMPI PUSH1 0x0 DUP1 REVERT JUMPDEST DUP2 CALLDATALOAD PUSH2 0x2791 DUP5 DUP3 PUSH1 0x20 DUP7 ADD PUSH2 0x2504 JUMP JUMPDEST SWAP2 POP POP SWAP3 SWAP2 POP POP JUMP JUMPDEST PUSH1 0x0 DUP2 CALLDATALOAD SWAP1 POP PUSH2 0x27A9 DUP2 PUSH2 0x4874 JUMP JUMPDEST SWAP3 SWAP2 POP POP JUMP JUMPDEST PUSH1 0x0 DUP1 DUP4 PUSH1 0x1F DUP5 ADD SLT PUSH2 0x27C1 JUMPI PUSH1 0x0 DUP1 REVERT JUMPDEST DUP3 CALLDATALOAD SWAP1 POP PUSH8 0xFFFFFFFFFFFFFFFF DUP2 GT ISZERO PUSH2 0x27DA JUMPI PUSH1 0x0 DUP1 REVERT JUMPDEST PUSH1 0x20 DUP4 ADD SWAP2 POP DUP4 PUSH1 0x1 DUP3 MUL DUP4 ADD GT ISZERO PUSH2 0x27F2 JUMPI PUSH1 0x0 DUP1 REVERT JUMPDEST SWAP3 POP SWAP3 SWAP1 POP JUMP JUMPDEST PUSH1 0x0 DUP3 PUSH1 0x1F DUP4 ADD SLT PUSH2 0x280A JUMPI PUSH1 0x0 DUP1 REVERT JUMPDEST DUP2 CALLDATALOAD PUSH2 0x281A DUP5 DUP3 PUSH1 0x20 DUP7 ADD PUSH2 0x2542 JUMP JUMPDEST SWAP2 POP POP SWAP3 SWAP2 POP POP JUMP JUMPDEST PUSH1 0x0 PUSH2 0x100 DUP3 DUP5 SUB SLT ISZERO PUSH2 0x2836 JUMPI PUSH1 0x0 DUP1 REVERT JUMPDEST DUP2 SWAP1 POP SWAP3 SWAP2 POP POP JUMP JUMPDEST PUSH1 0x0 PUSH2 0x100 DUP3 DUP5 SUB SLT ISZERO PUSH2 0x2852 JUMPI PUSH1 0x0 DUP1 REVERT JUMPDEST PUSH2 0x285D PUSH2 0x100 PUSH2 0x402D JUMP JUMPDEST SWAP1 POP PUSH1 0x0 PUSH2 0x286D DUP5 DUP3 DUP6 ADD PUSH2 0x26FC JUMP JUMPDEST PUSH1 0x0 DUP4 ADD MSTORE POP PUSH1 0x20 PUSH2 0x2881 DUP5 DUP3 DUP6 ADD PUSH2 0x2D49 JUMP JUMPDEST PUSH1 0x20 DUP4 ADD MSTORE POP PUSH1 0x40 PUSH2 0x2895 DUP5 DUP3 DUP6 ADD PUSH2 0x2D49 JUMP JUMPDEST PUSH1 0x40 DUP4 ADD MSTORE POP PUSH1 0x60 PUSH2 0x28A9 DUP5 DUP3 DUP6 ADD PUSH2 0x2D34 JUMP JUMPDEST PUSH1 0x60 DUP4 ADD MSTORE POP PUSH1 0x80 PUSH2 0x28BD DUP5 DUP3 DUP6 ADD PUSH2 0x26FC JUMP JUMPDEST PUSH1 0x80 DUP4 ADD MSTORE POP PUSH1 0xA0 PUSH2 0x28D1 DUP5 DUP3 DUP6 ADD PUSH2 0x26FC JUMP JUMPDEST PUSH1 0xA0 DUP4 ADD MSTORE POP PUSH1 0xC0 PUSH2 0x28E5 DUP5 DUP3 DUP6 ADD PUSH2 0x26FC JUMP JUMPDEST PUSH1 0xC0 DUP4 ADD MSTORE POP PUSH1 0xE0 PUSH2 0x28F9 DUP5 DUP3 DUP6 ADD PUSH2 0x26FC JUMP JUMPDEST PUSH1 0xE0 DUP4 ADD MSTORE POP SWAP3 SWAP2 POP POP JUMP JUMPDEST PUSH1 0x0 PUSH1 0x40 DUP3 DUP5 SUB SLT ISZERO PUSH2 0x2917 JUMPI PUSH1 0x0 DUP1 REVERT JUMPDEST DUP2 SWAP1 POP SWAP3 SWAP2 POP POP JUMP JUMPDEST PUSH1 0x0 PUSH1 0x40 DUP3 DUP5 SUB SLT ISZERO PUSH2 0x2932 JUMPI PUSH1 0x0 DUP1 REVERT JUMPDEST PUSH2 0x293C PUSH1 0x40 PUSH2 0x402D JUMP JUMPDEST SWAP1 POP PUSH1 0x0 DUP3 ADD CALLDATALOAD PUSH8 0xFFFFFFFFFFFFFFFF DUP2 GT ISZERO PUSH2 0x2958 JUMPI PUSH1 0x0 DUP1 REVERT JUMPDEST PUSH2 0x2964 DUP5 DUP3 DUP6 ADD PUSH2 0x2770 JUMP JUMPDEST PUSH1 0x0 DUP4 ADD MSTORE POP PUSH1 0x20 DUP3 ADD CALLDATALOAD PUSH8 0xFFFFFFFFFFFFFFFF DUP2 GT ISZERO PUSH2 0x2984 JUMPI PUSH1 0x0 DUP1 REVERT JUMPDEST PUSH2 0x2990 DUP5 DUP3 DUP6 ADD PUSH2 0x2770 JUMP JUMPDEST PUSH1 0x20 DUP4 ADD MSTORE POP SWAP3 SWAP2 POP POP JUMP JUMPDEST PUSH1 0x0 PUSH1 0x40 DUP3 DUP5 SUB SLT ISZERO PUSH2 0x29AE JUMPI PUSH1 0x0 DUP1 REVERT JUMPDEST PUSH2 0x29B8 PUSH1 0x40 PUSH2 0x402D JUMP JUMPDEST SWAP1 POP PUSH1 0x0 PUSH2 0x29C8 DUP5 DUP3 DUP6 ADD PUSH2 0x2D1F JUMP JUMPDEST PUSH1 0x0 DUP4 ADD MSTORE POP PUSH1 0x20 PUSH2 0x29DC DUP5 DUP3 DUP6 ADD PUSH2 0x2D1F JUMP JUMPDEST PUSH1 0x20 DUP4 ADD MSTORE POP SWAP3 SWAP2 POP POP JUMP JUMPDEST PUSH1 0x0 PUSH1 0xA0 DUP3 DUP5 SUB SLT ISZERO PUSH2 0x29FA JUMPI PUSH1 0x0 DUP1 REVERT JUMPDEST PUSH2 0x2A04 PUSH1 0xA0 PUSH2 0x402D JUMP JUMPDEST SWAP1 POP PUSH1 0x0 PUSH2 0x2A14 DUP5 DUP3 DUP6 ADD PUSH2 0x26E7 JUMP JUMPDEST PUSH1 0x0 DUP4 ADD MSTORE POP PUSH1 0x20 PUSH2 0x2A28 DUP5 DUP3 DUP6 ADD PUSH2 0x2D5E JUMP JUMPDEST PUSH1 0x20 DUP4 ADD MSTORE POP PUSH1 0x40 PUSH2 0x2A3C DUP5 DUP3 DUP6 ADD PUSH2 0x2D1F JUMP JUMPDEST PUSH1 0x40 DUP4 ADD MSTORE POP PUSH1 0x60 PUSH2 0x2A50 DUP5 DUP3 DUP6 ADD PUSH2 0x2D1F JUMP JUMPDEST PUSH1 0x60 DUP4 ADD MSTORE POP PUSH1 0x80 PUSH2 0x2A64 DUP5 DUP3 DUP6 ADD PUSH2 0x26FC JUMP JUMPDEST PUSH1 0x80 DUP4 ADD MSTORE POP SWAP3 SWAP2 POP POP JUMP JUMPDEST PUSH1 0x0 PUSH1 0xC0 DUP3 DUP5 SUB SLT ISZERO PUSH2 0x2A82 JUMPI PUSH1 0x0 DUP1 REVERT JUMPDEST DUP2 SWAP1 POP SWAP3 SWAP2 POP POP JUMP JUMPDEST PUSH1 0x0 PUSH1 0xC0 DUP3 DUP5 SUB SLT ISZERO PUSH2 0x2A9D JUMPI PUSH1 0x0 DUP1 REVERT JUMPDEST PUSH2 0x2AA7 PUSH1 0xC0 PUSH2 0x402D JUMP JUMPDEST SWAP1 POP PUSH1 0x0 PUSH2 0x2AB7 DUP5 DUP3 DUP6 ADD PUSH2 0x26FC JUMP JUMPDEST PUSH1 0x0 DUP4 ADD MSTORE POP PUSH1 0x20 PUSH2 0x2ACB DUP5 DUP3 DUP6 ADD PUSH2 0x26FC JUMP JUMPDEST PUSH1 0x20 DUP4 ADD MSTORE POP PUSH1 0x40 PUSH2 0x2ADF DUP5 DUP3 DUP6 ADD PUSH2 0x26FC JUMP JUMPDEST PUSH1 0x40 DUP4 ADD MSTORE POP PUSH1 0x60 PUSH2 0x2AF3 DUP5 DUP3 DUP6 ADD PUSH2 0x26FC JUMP JUMPDEST PUSH1 0x60 DUP4 ADD MSTORE POP PUSH1 0x80 PUSH2 0x2B07 DUP5 DUP3 DUP6 ADD PUSH2 0x26FC JUMP JUMPDEST PUSH1 0x80 DUP4 ADD MSTORE POP PUSH1 0xA0 PUSH2 0x2B1B DUP5 DUP3 DUP6 ADD PUSH2 0x26FC JUMP JUMPDEST PUSH1 0xA0 DUP4 ADD MSTORE POP SWAP3 SWAP2 POP POP JUMP JUMPDEST PUSH1 0x0 PUSH1 0x80 DUP3 DUP5 SUB SLT ISZERO PUSH2 0x2B39 JUMPI PUSH1 0x0 DUP1 REVERT JUMPDEST PUSH2 0x2B43 PUSH1 0x80 PUSH2 0x402D JUMP JUMPDEST SWAP1 POP PUSH1 0x0 PUSH2 0x2B53 DUP5 DUP3 DUP6 ADD PUSH2 0x26FC JUMP JUMPDEST PUSH1 0x0 DUP4 ADD MSTORE POP PUSH1 0x20 PUSH2 0x2B67 DUP5 DUP3 DUP6 ADD PUSH2 0x26FC JUMP JUMPDEST PUSH1 0x20 DUP4 ADD MSTORE POP PUSH1 0x40 PUSH2 0x2B7B DUP5 DUP3 DUP6 ADD PUSH2 0x2D5E JUMP JUMPDEST PUSH1 0x40 DUP4 ADD MSTORE POP PUSH1 0x60 DUP3 ADD CALLDATALOAD PUSH8 0xFFFFFFFFFFFFFFFF DUP2 GT ISZERO PUSH2 0x2B9B JUMPI PUSH1 0x0 DUP1 REVERT JUMPDEST PUSH2 0x2BA7 DUP5 DUP3 DUP6 ADD PUSH2 0x2770 JUMP JUMPDEST PUSH1 0x60 DUP4 ADD MSTORE POP SWAP3 SWAP2 POP POP JUMP JUMPDEST PUSH1 0x0 PUSH2 0x160 DUP3 DUP5 SUB SLT ISZERO PUSH2 0x2BC6 JUMPI PUSH1 0x0 DUP1 REVERT JUMPDEST DUP2 SWAP1 POP SWAP3 SWAP2 POP POP JUMP JUMPDEST PUSH1 0x0 PUSH2 0x160 DUP3 DUP5 SUB SLT ISZERO PUSH2 0x2BE2 JUMPI PUSH1 0x0 DUP1 REVERT JUMPDEST PUSH2 0x2BED PUSH2 0x160 PUSH2 0x402D JUMP JUMPDEST SWAP1 POP PUSH1 0x0 DUP3 ADD CALLDATALOAD PUSH8 0xFFFFFFFFFFFFFFFF DUP2 GT ISZERO PUSH2 0x2C09 JUMPI PUSH1 0x0 DUP1 REVERT JUMPDEST PUSH2 0x2C15 DUP5 DUP3 DUP6 ADD PUSH2 0x27F9 JUMP JUMPDEST PUSH1 0x0 DUP4 ADD MSTORE POP PUSH1 0x20 PUSH2 0x2C29 DUP5 DUP3 DUP6 ADD PUSH2 0x2D49 JUMP JUMPDEST PUSH1 0x20 DUP4 ADD MSTORE POP PUSH1 0x40 DUP3 ADD CALLDATALOAD PUSH8 0xFFFFFFFFFFFFFFFF DUP2 GT ISZERO PUSH2 0x2C49 JUMPI PUSH1 0x0 DUP1 REVERT JUMPDEST PUSH2 0x2C55 DUP5 DUP3 DUP6 ADD PUSH2 0x2770 JUMP JUMPDEST PUSH1 0x40 DUP4 ADD MSTORE POP PUSH1 0x60 PUSH2 0x2C69 DUP5 DUP3 DUP6 ADD PUSH2 0x2D49 JUMP JUMPDEST PUSH1 0x60 DUP4 ADD MSTORE POP PUSH1 0x80 PUSH2 0x2C7D DUP5 DUP3 DUP6 ADD PUSH2 0x2D49 JUMP JUMPDEST PUSH1 0x80 DUP4 ADD MSTORE POP PUSH1 0xA0 PUSH2 0x2C91 DUP5 DUP3 DUP6 ADD PUSH2 0x2D49 JUMP JUMPDEST PUSH1 0xA0 DUP4 ADD MSTORE POP PUSH1 0xC0 PUSH2 0x2CA5 DUP5 DUP3 DUP6 ADD PUSH2 0x2D49 JUMP JUMPDEST PUSH1 0xC0 DUP4 ADD MSTORE POP PUSH1 0xE0 PUSH2 0x2CB9 DUP5 DUP3 DUP6 ADD PUSH2 0x2D49 JUMP JUMPDEST PUSH1 0xE0 DUP4 ADD MSTORE POP PUSH2 0x100 PUSH2 0x2CCE DUP5 DUP3 DUP6 ADD PUSH2 0x2D49 JUMP JUMPDEST PUSH2 0x100 DUP4 ADD MSTORE POP PUSH2 0x120 PUSH2 0x2CE4 DUP5 DUP3 DUP6 ADD PUSH2 0x279A JUMP JUMPDEST PUSH2 0x120 DUP4 ADD MSTORE POP PUSH2 0x140 DUP3 ADD CALLDATALOAD PUSH8 0xFFFFFFFFFFFFFFFF DUP2 GT ISZERO PUSH2 0x2D06 JUMPI PUSH1 0x0 DUP1 REVERT JUMPDEST PUSH2 0x2D12 DUP5 DUP3 DUP6 ADD PUSH2 0x2770 JUMP JUMPDEST PUSH2 0x140 DUP4 ADD MSTORE POP SWAP3 SWAP2 POP POP JUMP JUMPDEST PUSH1 0x0 DUP2 CALLDATALOAD SWAP1 POP PUSH2 0x2D2E DUP2 PUSH2 0x4884 JUMP JUMPDEST SWAP3 SWAP2 POP POP JUMP JUMPDEST PUSH1 0x0 DUP2 CALLDATALOAD SWAP1 POP PUSH2 0x2D43 DUP2 PUSH2 0x489B JUMP JUMPDEST SWAP3 SWAP2 POP POP JUMP JUMPDEST PUSH1 0x0 DUP2 CALLDATALOAD SWAP1 POP PUSH2 0x2D58 DUP2 PUSH2 0x48B2 JUMP JUMPDEST SWAP3 SWAP2 POP POP JUMP JUMPDEST PUSH1 0x0 DUP2 CALLDATALOAD SWAP1 POP PUSH2 0x2D6D DUP2 PUSH2 0x48C9 JUMP JUMPDEST SWAP3 SWAP2 POP POP JUMP JUMPDEST PUSH1 0x0 PUSH1 0x20 DUP3 DUP5 SUB SLT ISZERO PUSH2 0x2D85 JUMPI PUSH1 0x0 DUP1 REVERT JUMPDEST PUSH1 0x0 PUSH2 0x2D93 DUP5 DUP3 DUP6 ADD PUSH2 0x2580 JUMP JUMPDEST SWAP2 POP POP SWAP3 SWAP2 POP POP JUMP JUMPDEST PUSH1 0x0 DUP1 PUSH1 0x0 DUP1 PUSH1 0x0 DUP1 PUSH1 0x60 DUP8 DUP10 SUB SLT ISZERO PUSH2 0x2DB5 JUMPI PUSH1 0x0 DUP1 REVERT JUMPDEST PUSH1 0x0 DUP8 ADD CALLDATALOAD PUSH8 0xFFFFFFFFFFFFFFFF DUP2 GT ISZERO PUSH2 0x2DCF JUMPI PUSH1 0x0 DUP1 REVERT JUMPDEST PUSH2 0x2DDB DUP10 DUP3 DUP11 ADD PUSH2 0x2595 JUMP JUMPDEST SWAP7 POP SWAP7 POP POP PUSH1 0x20 DUP8 ADD CALLDATALOAD PUSH8 0xFFFFFFFFFFFFFFFF DUP2 GT ISZERO PUSH2 0x2DFA JUMPI PUSH1 0x0 DUP1 REVERT JUMPDEST PUSH2 0x2E06 DUP10 DUP3 DUP11 ADD PUSH2 0x269D JUMP JUMPDEST SWAP5 POP SWAP5 POP POP PUSH1 0x40 DUP8 ADD CALLDATALOAD PUSH8 0xFFFFFFFFFFFFFFFF DUP2 GT ISZERO PUSH2 0x2E25 JUMPI PUSH1 0x0 DUP1 REVERT JUMPDEST PUSH2 0x2E31 DUP10 DUP3 DUP11 ADD PUSH2 0x27AF JUMP JUMPDEST SWAP3 POP SWAP3 POP POP SWAP3 SWAP6 POP SWAP3 SWAP6 POP SWAP3 SWAP6 JUMP JUMPDEST PUSH1 0x0 PUSH1 0x20 DUP3 DUP5 SUB SLT ISZERO PUSH2 0x2E52 JUMPI PUSH1 0x0 DUP1 REVERT JUMPDEST PUSH1 0x0 PUSH2 0x2E60 DUP5 DUP3 DUP6 ADD PUSH2 0x2711 JUMP JUMPDEST SWAP2 POP POP SWAP3 SWAP2 POP POP JUMP JUMPDEST PUSH1 0x0 DUP1 PUSH1 0x20 DUP4 DUP6 SUB SLT ISZERO PUSH2 0x2E7C JUMPI PUSH1 0x0 DUP1 REVERT JUMPDEST PUSH1 0x0 DUP4 ADD CALLDATALOAD PUSH8 0xFFFFFFFFFFFFFFFF DUP2 GT ISZERO PUSH2 0x2E96 JUMPI PUSH1 0x0 DUP1 REVERT JUMPDEST PUSH2 0x2EA2 DUP6 DUP3 DUP7 ADD PUSH2 0x2726 JUMP JUMPDEST SWAP3 POP SWAP3 POP POP SWAP3 POP SWAP3 SWAP1 POP JUMP JUMPDEST PUSH1 0x0 PUSH2 0x100 DUP3 DUP5 SUB SLT ISZERO PUSH2 0x2EC1 JUMPI PUSH1 0x0 DUP1 REVERT JUMPDEST PUSH1 0x0 PUSH2 0x2ECF DUP5 DUP3 DUP6 ADD PUSH2 0x283F JUMP JUMPDEST SWAP2 POP POP SWAP3 SWAP2 POP POP JUMP JUMPDEST PUSH1 0x0 DUP1 PUSH2 0x120 DUP4 DUP6 SUB SLT ISZERO PUSH2 0x2EEC JUMPI PUSH1 0x0 DUP1 REVERT JUMPDEST PUSH1 0x0 PUSH2 0x2EFA DUP6 DUP3 DUP7 ADD PUSH2 0x283F JUMP JUMPDEST SWAP3 POP POP PUSH2 0x100 PUSH2 0x2F0C DUP6 DUP3 DUP7 ADD PUSH2 0x26FC JUMP JUMPDEST SWAP2 POP POP SWAP3 POP SWAP3 SWAP1 POP JUMP JUMPDEST PUSH1 0x0 PUSH1 0x20 DUP3 DUP5 SUB SLT ISZERO PUSH2 0x2F28 JUMPI PUSH1 0x0 DUP1 REVERT JUMPDEST PUSH1 0x0 DUP3 ADD CALLDATALOAD PUSH8 0xFFFFFFFFFFFFFFFF DUP2 GT ISZERO PUSH2 0x2F42 JUMPI PUSH1 0x0 DUP1 REVERT JUMPDEST PUSH2 0x2F4E DUP5 DUP3 DUP6 ADD PUSH2 0x2920 JUMP JUMPDEST SWAP2 POP POP SWAP3 SWAP2 POP POP JUMP JUMPDEST PUSH1 0x0 DUP1 PUSH1 0x40 DUP4 DUP6 SUB SLT ISZERO PUSH2 0x2F6A JUMPI PUSH1 0x0 DUP1 REVERT JUMPDEST PUSH1 0x0 DUP4 ADD CALLDATALOAD PUSH8 0xFFFFFFFFFFFFFFFF DUP2 GT ISZERO PUSH2 0x2F84 JUMPI PUSH1 0x0 DUP1 REVERT JUMPDEST PUSH2 0x2F90 DUP6 DUP3 DUP7 ADD PUSH2 0x2920 JUMP JUMPDEST SWAP3 POP POP PUSH1 0x20 PUSH2 0x2FA1 DUP6 DUP3 DUP7 ADD PUSH2 0x26FC JUMP JUMPDEST SWAP2 POP POP SWAP3 POP SWAP3 SWAP1 POP JUMP JUMPDEST PUSH1 0x0 PUSH1 0x40 DUP3 DUP5 SUB SLT ISZERO PUSH2 0x2FBD JUMPI PUSH1 0x0 DUP1 REVERT JUMPDEST PUSH1 0x0 PUSH2 0x2FCB DUP5 DUP3 DUP6 ADD PUSH2 0x299C JUMP JUMPDEST SWAP2 POP POP SWAP3 SWAP2 POP POP JUMP JUMPDEST PUSH1 0x0 PUSH1 0xA0 DUP3 DUP5 SUB SLT ISZERO PUSH2 0x2FE6 JUMPI PUSH1 0x0 DUP1 REVERT JUMPDEST PUSH1 0x0 PUSH2 0x2FF4 DUP5 DUP3 DUP6 ADD PUSH2 0x29E8 JUMP JUMPDEST SWAP2 POP POP SWAP3 SWAP2 POP POP JUMP JUMPDEST PUSH1 0x0 DUP1 PUSH1 0x0 DUP1 PUSH1 0x0 PUSH2 0x200 DUP7 DUP9 SUB SLT ISZERO PUSH2 0x3016 JUMPI PUSH1 0x0 DUP1 REVERT JUMPDEST PUSH1 0x0 PUSH2 0x3024 DUP9 DUP3 DUP10 ADD PUSH2 0x2A70 JUMP JUMPDEST SWAP6 POP POP PUSH1 0xC0 PUSH2 0x3035 DUP9 DUP3 DUP10 ADD PUSH2 0x2823 JUMP JUMPDEST SWAP5 POP POP PUSH2 0x1C0 DUP7 ADD CALLDATALOAD PUSH8 0xFFFFFFFFFFFFFFFF DUP2 GT ISZERO PUSH2 0x3053 JUMPI PUSH1 0x0 DUP1 REVERT JUMPDEST PUSH2 0x305F DUP9 DUP3 DUP10 ADD PUSH2 0x2905 JUMP JUMPDEST SWAP4 POP POP PUSH2 0x1E0 DUP7 ADD CALLDATALOAD PUSH8 0xFFFFFFFFFFFFFFFF DUP2 GT ISZERO PUSH2 0x307D JUMPI PUSH1 0x0 DUP1 REVERT JUMPDEST PUSH2 0x3089 DUP9 DUP3 DUP10 ADD PUSH2 0x2629 JUMP JUMPDEST SWAP3 POP SWAP3 POP POP SWAP3 SWAP6 POP SWAP3 SWAP6 SWAP1 SWAP4 POP JUMP JUMPDEST PUSH1 0x0 PUSH1 0xC0 DUP3 DUP5 SUB SLT ISZERO PUSH2 0x30AA JUMPI PUSH1 0x0 DUP1 REVERT JUMPDEST PUSH1 0x0 PUSH2 0x30B8 DUP5 DUP3 DUP6 ADD PUSH2 0x2A8B JUMP JUMPDEST SWAP2 POP POP SWAP3 SWAP2 POP POP JUMP JUMPDEST PUSH1 0x0 DUP1 PUSH1 0x0 DUP1 PUSH2 0x200 DUP6 DUP8 SUB SLT ISZERO PUSH2 0x30D8 JUMPI PUSH1 0x0 DUP1 REVERT JUMPDEST PUSH1 0x0 PUSH2 0x30E6 DUP8 DUP3 DUP9 ADD PUSH2 0x2A8B JUMP JUMPDEST SWAP5 POP POP PUSH1 0xC0 PUSH2 0x30F7 DUP8 DUP3 DUP9 ADD PUSH2 0x283F JUMP JUMPDEST SWAP4 POP POP PUSH2 0x1C0 DUP6 ADD CALLDATALOAD PUSH8 0xFFFFFFFFFFFFFFFF DUP2 GT ISZERO PUSH2 0x3115 JUMPI PUSH1 0x0 DUP1 REVERT JUMPDEST PUSH2 0x3121 DUP8 DUP3 DUP9 ADD PUSH2 0x2920 JUMP JUMPDEST SWAP3 POP POP PUSH2 0x1E0 DUP6 ADD CALLDATALOAD PUSH8 0xFFFFFFFFFFFFFFFF DUP2 GT ISZERO PUSH2 0x313F JUMPI PUSH1 0x0 DUP1 REVERT JUMPDEST PUSH2 0x314B DUP8 DUP3 DUP9 ADD PUSH2 0x2673 JUMP JUMPDEST SWAP2 POP POP SWAP3 SWAP6 SWAP2 SWAP5 POP SWAP3 POP JUMP JUMPDEST PUSH1 0x0 PUSH1 0x20 DUP3 DUP5 SUB SLT ISZERO PUSH2 0x3169 JUMPI PUSH1 0x0 DUP1 REVERT JUMPDEST PUSH1 0x0 DUP3 ADD CALLDATALOAD PUSH8 0xFFFFFFFFFFFFFFFF DUP2 GT ISZERO PUSH2 0x3183 JUMPI PUSH1 0x0 DUP1 REVERT JUMPDEST PUSH2 0x318F DUP5 DUP3 DUP6 ADD PUSH2 0x2B27 JUMP JUMPDEST SWAP2 POP POP SWAP3 SWAP2 POP POP JUMP JUMPDEST PUSH1 0x0 DUP1 PUSH1 0x0 PUSH1 0x60 DUP5 DUP7 SUB SLT ISZERO PUSH2 0x31AD JUMPI PUSH1 0x0 DUP1 REVERT JUMPDEST PUSH1 0x0 DUP5 ADD CALLDATALOAD PUSH8 0xFFFFFFFFFFFFFFFF DUP2 GT ISZERO PUSH2 0x31C7 JUMPI PUSH1 0x0 DUP1 REVERT JUMPDEST PUSH2 0x31D3 DUP7 DUP3 DUP8 ADD PUSH2 0x2B27 JUMP JUMPDEST SWAP4 POP POP PUSH1 0x20 DUP5 ADD CALLDATALOAD PUSH8 0xFFFFFFFFFFFFFFFF DUP2 GT ISZERO PUSH2 0x31F0 JUMPI PUSH1 0x0 DUP1 REVERT JUMPDEST PUSH2 0x31FC DUP7 DUP3 DUP8 ADD PUSH2 0x2770 JUMP JUMPDEST SWAP3 POP POP PUSH1 0x40 DUP5 ADD CALLDATALOAD PUSH8 0xFFFFFFFFFFFFFFFF DUP2 GT ISZERO PUSH2 0x3219 JUMPI PUSH1 0x0 DUP1 REVERT JUMPDEST PUSH2 0x3225 DUP7 DUP3 DUP8 ADD PUSH2 0x2770 JUMP JUMPDEST SWAP2 POP POP SWAP3 POP SWAP3 POP SWAP3 JUMP JUMPDEST PUSH1 0x0 PUSH1 0x20 DUP3 DUP5 SUB SLT ISZERO PUSH2 0x3241 JUMPI PUSH1 0x0 DUP1 REVERT JUMPDEST PUSH1 0x0 PUSH2 0x324F DUP5 DUP3 DUP6 ADD PUSH2 0x2D1F JUMP JUMPDEST SWAP2 POP POP SWAP3 SWAP2 POP POP JUMP JUMPDEST PUSH1 0x0 DUP1 PUSH1 0x0 DUP1 PUSH1 0x0 PUSH1 0x80 DUP7 DUP9 SUB SLT ISZERO PUSH2 0x3270 JUMPI PUSH1 0x0 DUP1 REVERT JUMPDEST PUSH1 0x0 PUSH2 0x327E DUP9 DUP3 DUP10 ADD PUSH2 0x2D1F JUMP JUMPDEST SWAP6 POP POP PUSH1 0x20 DUP7 ADD CALLDATALOAD PUSH8 0xFFFFFFFFFFFFFFFF DUP2 GT ISZERO PUSH2 0x329B JUMPI PUSH1 0x0 DUP1 REVERT JUMPDEST PUSH2 0x32A7 DUP9 DUP3 DUP10 ADD PUSH2 0x2BB3 JUMP JUMPDEST SWAP5 POP POP PUSH1 0x40 PUSH2 0x32B8 DUP9 DUP3 DUP10 ADD PUSH2 0x2D1F JUMP JUMPDEST SWAP4 POP POP PUSH1 0x60 DUP7 ADD CALLDATALOAD PUSH8 0xFFFFFFFFFFFFFFFF DUP2 GT ISZERO PUSH2 0x32D5 JUMPI PUSH1 0x0 DUP1 REVERT JUMPDEST PUSH2 0x32E1 DUP9 DUP3 DUP10 ADD PUSH2 0x25DF JUMP JUMPDEST SWAP3 POP SWAP3 POP POP SWAP3 SWAP6 POP SWAP3 SWAP6 SWAP1 SWAP4 POP JUMP JUMPDEST PUSH1 0x0 PUSH1 0x20 DUP3 DUP5 SUB SLT ISZERO PUSH2 0x3302 JUMPI PUSH1 0x0 DUP1 REVERT JUMPDEST PUSH1 0x0 PUSH2 0x3310 DUP5 DUP3 DUP6 ADD PUSH2 0x2D34 JUMP JUMPDEST SWAP2 POP POP SWAP3 SWAP2 POP POP JUMP JUMPDEST PUSH1 0x0 PUSH1 0x20 DUP3 DUP5 SUB SLT ISZERO PUSH2 0x332B JUMPI PUSH1 0x0 DUP1 REVERT JUMPDEST PUSH1 0x0 PUSH2 0x3339 DUP5 DUP3 DUP6 ADD PUSH2 0x2D49 JUMP JUMPDEST SWAP2 POP POP SWAP3 SWAP2 POP POP JUMP JUMPDEST PUSH2 0x334B DUP2 PUSH2 0x42A6 JUMP JUMPDEST DUP3 MSTORE POP POP JUMP JUMPDEST PUSH2 0x335A DUP2 PUSH2 0x42B8 JUMP JUMPDEST DUP3 MSTORE POP POP JUMP JUMPDEST PUSH2 0x3369 DUP2 PUSH2 0x42C4 JUMP JUMPDEST DUP3 MSTORE POP POP JUMP JUMPDEST PUSH2 0x3378 DUP2 PUSH2 0x42C4 JUMP JUMPDEST DUP3 MSTORE POP POP JUMP JUMPDEST PUSH2 0x338F PUSH2 0x338A DUP3 PUSH2 0x42C4 JUMP JUMPDEST PUSH2 0x44A8 JUMP JUMPDEST DUP3 MSTORE POP POP JUMP JUMPDEST PUSH1 0x0 PUSH2 0x33A0 DUP3 PUSH2 0x40E0 JUMP JUMPDEST PUSH2 0x33AA DUP2 DUP6 PUSH2 0x40F6 JUMP JUMPDEST SWAP4 POP PUSH2 0x33BA DUP2 DUP6 PUSH1 0x20 DUP7 ADD PUSH2 0x4398 JUMP JUMPDEST PUSH2 0x33C3 DUP2 PUSH2 0x4592 JUMP JUMPDEST DUP5 ADD SWAP2 POP POP SWAP3 SWAP2 POP POP JUMP JUMPDEST PUSH1 0x0 PUSH2 0x33D9 DUP3 PUSH2 0x40E0 JUMP JUMPDEST PUSH2 0x33E3 DUP2 DUP6 PUSH2 0x4107 JUMP JUMPDEST SWAP4 POP PUSH2 0x33F3 DUP2 DUP6 PUSH1 0x20 DUP7 ADD PUSH2 0x4398 JUMP JUMPDEST PUSH2 0x33FC DUP2 PUSH2 0x4592 JUMP JUMPDEST DUP5 ADD SWAP2 POP POP SWAP3 SWAP2 POP POP JUMP JUMPDEST PUSH1 0x0 PUSH2 0x3412 DUP3 PUSH2 0x40E0 JUMP JUMPDEST PUSH2 0x341C DUP2 DUP6 PUSH2 0x4118 JUMP JUMPDEST SWAP4 POP PUSH2 0x342C DUP2 DUP6 PUSH1 0x20 DUP7 ADD PUSH2 0x4398 JUMP JUMPDEST DUP1 DUP5 ADD SWAP2 POP POP SWAP3 SWAP2 POP POP JUMP JUMPDEST PUSH2 0x3441 DUP2 PUSH2 0x4351 JUMP JUMPDEST DUP3 MSTORE POP POP JUMP JUMPDEST PUSH1 0x0 PUSH2 0x3453 DUP4 DUP6 PUSH2 0x4134 JUMP JUMPDEST SWAP4 POP PUSH2 0x3460 DUP4 DUP6 DUP5 PUSH2 0x4389 JUMP JUMPDEST PUSH2 0x3469 DUP4 PUSH2 0x4592 JUMP JUMPDEST DUP5 ADD SWAP1 POP SWAP4 SWAP3 POP POP POP JUMP JUMPDEST PUSH1 0x0 PUSH2 0x347F DUP3 PUSH2 0x40EB JUMP JUMPDEST PUSH2 0x3489 DUP2 DUP6 PUSH2 0x4123 JUMP JUMPDEST SWAP4 POP PUSH2 0x3499 DUP2 DUP6 PUSH1 0x20 DUP7 ADD PUSH2 0x4398 JUMP JUMPDEST PUSH2 0x34A2 DUP2 PUSH2 0x4592 JUMP JUMPDEST DUP5 ADD SWAP2 POP POP SWAP3 SWAP2 POP POP JUMP JUMPDEST PUSH1 0x0 PUSH2 0x34BA PUSH1 0xA DUP4 PUSH2 0x4145 JUMP JUMPDEST SWAP2 POP PUSH2 0x34C5 DUP3 PUSH2 0x45BD JUMP JUMPDEST PUSH1 0xA DUP3 ADD SWAP1 POP SWAP2 SWAP1 POP JUMP JUMPDEST PUSH1 0x0 PUSH2 0x34DD PUSH1 0x2C DUP4 PUSH2 0x4134 JUMP JUMPDEST SWAP2 POP PUSH2 0x34E8 DUP3 PUSH2 0x45E6 JUMP JUMPDEST PUSH1 0x40 DUP3 ADD SWAP1 POP SWAP2 SWAP1 POP JUMP JUMPDEST PUSH1 0x0 PUSH2 0x3500 PUSH1 0x2C DUP4 PUSH2 0x4134 JUMP JUMPDEST SWAP2 POP PUSH2 0x350B DUP3 PUSH2 0x4635 JUMP JUMPDEST PUSH1 0x40 DUP3 ADD SWAP1 POP SWAP2 SWAP1 POP JUMP JUMPDEST PUSH1 0x0 PUSH2 0x3523 PUSH1 0x14 DUP4 PUSH2 0x4134 JUMP JUMPDEST SWAP2 POP PUSH2 0x352E DUP3 PUSH2 0x4684 JUMP JUMPDEST PUSH1 0x20 DUP3 ADD SWAP1 POP SWAP2 SWAP1 POP JUMP JUMPDEST PUSH1 0x0 PUSH2 0x3546 PUSH1 0xA DUP4 PUSH2 0x4145 JUMP JUMPDEST SWAP2 POP PUSH2 0x3551 DUP3 PUSH2 0x46AD JUMP JUMPDEST PUSH1 0xA DUP3 ADD SWAP1 POP SWAP2 SWAP1 POP JUMP JUMPDEST PUSH1 0x0 PUSH2 0x3569 PUSH1 0x16 DUP4 PUSH2 0x4134 JUMP JUMPDEST SWAP2 POP PUSH2 0x3574 DUP3 PUSH2 0x46D6 JUMP JUMPDEST PUSH1 0x20 DUP3 ADD SWAP1 POP SWAP2 SWAP1 POP JUMP JUMPDEST PUSH1 0x0 PUSH2 0x358C PUSH1 0x1 DUP4 PUSH2 0x4145 JUMP JUMPDEST SWAP2 POP PUSH2 0x3597 DUP3 PUSH2 0x46FF JUMP JUMPDEST PUSH1 0x1 DUP3 ADD SWAP1 POP SWAP2 SWAP1 POP JUMP JUMPDEST PUSH1 0x0 PUSH2 0x35AF PUSH1 0x1 DUP4 PUSH2 0x4145 JUMP JUMPDEST SWAP2 POP PUSH2 0x35BA DUP3 PUSH2 0x4728 JUMP JUMPDEST PUSH1 0x1 DUP3 ADD SWAP1 POP SWAP2 SWAP1 POP JUMP JUMPDEST PUSH1 0x0 PUSH2 0x35D2 PUSH1 0x13 DUP4 PUSH2 0x4134 JUMP JUMPDEST SWAP2 POP PUSH2 0x35DD DUP3 PUSH2 0x4751 JUMP JUMPDEST PUSH1 0x20 DUP3 ADD SWAP1 POP SWAP2 SWAP1 POP JUMP JUMPDEST PUSH1 0x0 PUSH2 0x35F5 PUSH1 0xD DUP4 PUSH2 0x4134 JUMP JUMPDEST SWAP2 POP PUSH2 0x3600 DUP3 PUSH2 0x477A JUMP JUMPDEST PUSH1 0x20 DUP3 ADD SWAP1 POP SWAP2 SWAP1 POP JUMP JUMPDEST PUSH1 0x0 PUSH2 0x3618 PUSH1 0x25 DUP4 PUSH2 0x4134 JUMP JUMPDEST SWAP2 POP PUSH2 0x3623 DUP3 PUSH2 0x47A3 JUMP JUMPDEST PUSH1 0x40 DUP3 ADD SWAP1 POP SWAP2 SWAP1 POP JUMP JUMPDEST PUSH1 0x0 PUSH2 0x363B PUSH1 0x14 DUP4 PUSH2 0x4134 JUMP JUMPDEST SWAP2 POP PUSH2 0x3646 DUP3 PUSH2 0x47F2 JUMP JUMPDEST PUSH1 0x20 DUP3 ADD SWAP1 POP SWAP2 SWAP1 POP JUMP JUMPDEST PUSH2 0x100 DUP3 ADD PUSH1 0x0 DUP3 ADD MLOAD PUSH2 0x3668 PUSH1 0x0 DUP6 ADD DUP3 PUSH2 0x3360 JUMP JUMPDEST POP PUSH1 0x20 DUP3 ADD MLOAD PUSH2 0x367B PUSH1 0x20 DUP6 ADD DUP3 PUSH2 0x3902 JUMP JUMPDEST POP PUSH1 0x40 DUP3 ADD MLOAD PUSH2 0x368E PUSH1 0x40 DUP6 ADD DUP3 PUSH2 0x3902 JUMP JUMPDEST POP PUSH1 0x60 DUP3 ADD MLOAD PUSH2 0x36A1 PUSH1 0x60 DUP6 ADD DUP3 PUSH2 0x38E4 JUMP JUMPDEST POP PUSH1 0x80 DUP3 ADD MLOAD PUSH2 0x36B4 PUSH1 0x80 DUP6 ADD DUP3 PUSH2 0x3360 JUMP JUMPDEST POP PUSH1 0xA0 DUP3 ADD MLOAD PUSH2 0x36C7 PUSH1 0xA0 DUP6 ADD DUP3 PUSH2 0x3360 JUMP JUMPDEST POP PUSH1 0xC0 DUP3 ADD MLOAD PUSH2 0x36DA PUSH1 0xC0 DUP6 ADD DUP3 PUSH2 0x3360 JUMP JUMPDEST POP PUSH1 0xE0 DUP3 ADD MLOAD PUSH2 0x36ED PUSH1 0xE0 DUP6 ADD DUP3 PUSH2 0x3360 JUMP JUMPDEST POP POP POP POP JUMP JUMPDEST PUSH1 0x0 PUSH1 0x40 DUP4 ADD PUSH1 0x0 DUP4 ADD MLOAD DUP5 DUP3 SUB PUSH1 0x0 DUP7 ADD MSTORE PUSH2 0x3710 DUP3 DUP3 PUSH2 0x3395 JUMP JUMPDEST SWAP2 POP POP PUSH1 0x20 DUP4 ADD MLOAD DUP5 DUP3 SUB PUSH1 0x20 DUP7 ADD MSTORE PUSH2 0x372A DUP3 DUP3 PUSH2 0x3395 JUMP JUMPDEST SWAP2 POP POP DUP1 SWAP2 POP POP SWAP3 SWAP2 POP POP JUMP JUMPDEST PUSH1 0x40 DUP3 ADD PUSH1 0x0 DUP3 ADD MLOAD PUSH2 0x374D PUSH1 0x0 DUP6 ADD DUP3 PUSH2 0x38C6 JUMP JUMPDEST POP PUSH1 0x20 DUP3 ADD MLOAD PUSH2 0x3760 PUSH1 0x20 DUP6 ADD DUP3 PUSH2 0x38C6 JUMP JUMPDEST POP POP POP POP JUMP JUMPDEST PUSH1 0x0 PUSH1 0x80 DUP4 ADD PUSH1 0x0 DUP4 ADD MLOAD PUSH2 0x377E PUSH1 0x0 DUP7 ADD DUP3 PUSH2 0x3360 JUMP JUMPDEST POP PUSH1 0x20 DUP4 ADD MLOAD PUSH2 0x3791 PUSH1 0x20 DUP7 ADD DUP3 PUSH2 0x3360 JUMP JUMPDEST POP PUSH1 0x40 DUP4 ADD MLOAD PUSH2 0x37A4 PUSH1 0x40 DUP7 ADD DUP3 PUSH2 0x3937 JUMP JUMPDEST POP PUSH1 0x60 DUP4 ADD MLOAD DUP5 DUP3 SUB PUSH1 0x60 DUP7 ADD MSTORE PUSH2 0x37BC DUP3 DUP3 PUSH2 0x3395 JUMP JUMPDEST SWAP2 POP POP DUP1 SWAP2 POP POP SWAP3 SWAP2 POP POP JUMP JUMPDEST PUSH1 0x0 PUSH2 0x160 DUP4 ADD PUSH1 0x0 DUP4 ADD MLOAD DUP5 DUP3 SUB PUSH1 0x0 DUP7 ADD MSTORE PUSH2 0x37E7 DUP3 DUP3 PUSH2 0x3474 JUMP JUMPDEST SWAP2 POP POP PUSH1 0x20 DUP4 ADD MLOAD PUSH2 0x37FC PUSH1 0x20 DUP7 ADD DUP3 PUSH2 0x3902 JUMP JUMPDEST POP PUSH1 0x40 DUP4 ADD MLOAD DUP5 DUP3 SUB PUSH1 0x40 DUP7 ADD MSTORE PUSH2 0x3814 DUP3 DUP3 PUSH2 0x3395 JUMP JUMPDEST SWAP2 POP POP PUSH1 0x60 DUP4 ADD MLOAD PUSH2 0x3829 PUSH1 0x60 DUP7 ADD DUP3 PUSH2 0x3902 JUMP JUMPDEST POP PUSH1 0x80 DUP4 ADD MLOAD PUSH2 0x383C PUSH1 0x80 DUP7 ADD DUP3 PUSH2 0x3902 JUMP JUMPDEST POP PUSH1 0xA0 DUP4 ADD MLOAD PUSH2 0x384F PUSH1 0xA0 DUP7 ADD DUP3 PUSH2 0x3902 JUMP JUMPDEST POP PUSH1 0xC0 DUP4 ADD MLOAD PUSH2 0x3862 PUSH1 0xC0 DUP7 ADD DUP3 PUSH2 0x3902 JUMP JUMPDEST POP PUSH1 0xE0 DUP4 ADD MLOAD PUSH2 0x3875 PUSH1 0xE0 DUP7 ADD DUP3 PUSH2 0x3902 JUMP JUMPDEST POP PUSH2 0x100 DUP4 ADD MLOAD PUSH2 0x388A PUSH2 0x100 DUP7 ADD DUP3 PUSH2 0x3902 JUMP JUMPDEST POP PUSH2 0x120 DUP4 ADD MLOAD PUSH2 0x389F PUSH2 0x120 DUP7 ADD DUP3 PUSH2 0x3438 JUMP JUMPDEST POP PUSH2 0x140 DUP4 ADD MLOAD DUP5 DUP3 SUB PUSH2 0x140 DUP7 ADD MSTORE PUSH2 0x38B9 DUP3 DUP3 PUSH2 0x3395 JUMP JUMPDEST SWAP2 POP POP DUP1 SWAP2 POP POP SWAP3 SWAP2 POP POP JUMP JUMPDEST PUSH2 0x38CF DUP2 PUSH2 0x4301 JUMP JUMPDEST DUP3 MSTORE POP POP JUMP JUMPDEST PUSH2 0x38DE DUP2 PUSH2 0x4301 JUMP JUMPDEST DUP3 MSTORE POP POP JUMP JUMPDEST PUSH2 0x38ED DUP2 PUSH2 0x430B JUMP JUMPDEST DUP3 MSTORE POP POP JUMP JUMPDEST PUSH2 0x38FC DUP2 PUSH2 0x430B JUMP JUMPDEST DUP3 MSTORE POP POP JUMP JUMPDEST PUSH2 0x390B DUP2 PUSH2 0x431B JUMP JUMPDEST DUP3 MSTORE POP POP JUMP JUMPDEST PUSH2 0x391A DUP2 PUSH2 0x431B JUMP JUMPDEST DUP3 MSTORE POP POP JUMP JUMPDEST PUSH2 0x3931 PUSH2 0x392C DUP3 PUSH2 0x431B JUMP JUMPDEST PUSH2 0x44B2 JUMP JUMPDEST DUP3 MSTORE POP POP JUMP JUMPDEST PUSH2 0x3940 DUP2 PUSH2 0x432F JUMP JUMPDEST DUP3 MSTORE POP POP JUMP JUMPDEST PUSH2 0x394F DUP2 PUSH2 0x432F JUMP JUMPDEST DUP3 MSTORE POP POP JUMP JUMPDEST PUSH2 0x3966 PUSH2 0x3961 DUP3 PUSH2 0x432F JUMP JUMPDEST PUSH2 0x44C4 JUMP JUMPDEST DUP3 MSTORE POP POP JUMP JUMPDEST PUSH1 0x0 PUSH2 0x3978 DUP3 DUP5 PUSH2 0x337E JUMP JUMPDEST PUSH1 0x20 DUP3 ADD SWAP2 POP DUP2 SWAP1 POP SWAP3 SWAP2 POP POP JUMP JUMPDEST PUSH1 0x0 PUSH2 0x3993 DUP3 DUP10 PUSH2 0x337E JUMP JUMPDEST PUSH1 0x20 DUP3 ADD SWAP2 POP PUSH2 0x39A3 DUP3 DUP9 PUSH2 0x337E JUMP JUMPDEST PUSH1 0x20 DUP3 ADD SWAP2 POP PUSH2 0x39B3 DUP3 DUP8 PUSH2 0x337E JUMP JUMPDEST PUSH1 0x20 DUP3 ADD SWAP2 POP PUSH2 0x39C3 DUP3 DUP7 PUSH2 0x337E JUMP JUMPDEST PUSH1 0x20 DUP3 ADD SWAP2 POP PUSH2 0x39D3 DUP3 DUP6 PUSH2 0x337E JUMP JUMPDEST PUSH1 0x20 DUP3 ADD SWAP2 POP PUSH2 0x39E3 DUP3 DUP5 PUSH2 0x337E JUMP JUMPDEST PUSH1 0x20 DUP3 ADD SWAP2 POP DUP2 SWAP1 POP SWAP8 SWAP7 POP POP POP POP POP POP POP JUMP JUMPDEST PUSH1 0x0 PUSH2 0x3A03 DUP3 DUP5 PUSH2 0x3407 JUMP JUMPDEST SWAP2 POP DUP2 SWAP1 POP SWAP3 SWAP2 POP POP JUMP JUMPDEST PUSH1 0x0 PUSH2 0x3A1A DUP3 DUP7 PUSH2 0x3407 JUMP JUMPDEST SWAP2 POP PUSH2 0x3A26 DUP3 DUP6 PUSH2 0x337E JUMP JUMPDEST PUSH1 0x20 DUP3 ADD SWAP2 POP PUSH2 0x3A36 DUP3 DUP5 PUSH2 0x3407 JUMP JUMPDEST SWAP2 POP DUP2 SWAP1 POP SWAP5 SWAP4 POP POP POP POP JUMP JUMPDEST PUSH1 0x0 PUSH2 0x3A4F DUP3 DUP7 PUSH2 0x3407 JUMP JUMPDEST SWAP2 POP PUSH2 0x3A5B DUP3 DUP6 PUSH2 0x3407 JUMP JUMPDEST SWAP2 POP PUSH2 0x3A67 DUP3 DUP5 PUSH2 0x3407 JUMP JUMPDEST SWAP2 POP DUP2 SWAP1 POP SWAP5 SWAP4 POP POP POP POP JUMP JUMPDEST PUSH1 0x0 PUSH2 0x3A80 DUP3 DUP8 PUSH2 0x3407 JUMP JUMPDEST SWAP2 POP PUSH2 0x3A8C DUP3 DUP7 PUSH2 0x3407 JUMP JUMPDEST SWAP2 POP PUSH2 0x3A98 DUP3 DUP6 PUSH2 0x3407 JUMP JUMPDEST SWAP2 POP PUSH2 0x3AA4 DUP3 DUP5 PUSH2 0x3407 JUMP JUMPDEST SWAP2 POP DUP2 SWAP1 POP SWAP6 SWAP5 POP POP POP POP POP JUMP JUMPDEST PUSH1 0x0 PUSH2 0x3ABE DUP3 DUP6 PUSH2 0x3407 JUMP JUMPDEST SWAP2 POP PUSH2 0x3AC9 DUP3 PUSH2 0x357F JUMP JUMPDEST SWAP2 POP PUSH2 0x3AD5 DUP3 DUP5 PUSH2 0x3407 JUMP JUMPDEST SWAP2 POP DUP2 SWAP1 POP SWAP4 SWAP3 POP POP POP JUMP JUMPDEST PUSH1 0x0 PUSH2 0x3AED DUP3 DUP9 PUSH2 0x3407 JUMP JUMPDEST SWAP2 POP PUSH2 0x3AF9 DUP3 DUP8 PUSH2 0x3955 JUMP JUMPDEST PUSH1 0x1 DUP3 ADD SWAP2 POP PUSH2 0x3B09 DUP3 DUP7 PUSH2 0x3955 JUMP JUMPDEST PUSH1 0x1 DUP3 ADD SWAP2 POP PUSH2 0x3B19 DUP3 DUP6 PUSH2 0x3407 JUMP JUMPDEST SWAP2 POP PUSH2 0x3B25 DUP3 DUP5 PUSH2 0x3407 JUMP JUMPDEST SWAP2 POP DUP2 SWAP1 POP SWAP7 SWAP6 POP POP POP POP POP POP JUMP JUMPDEST PUSH1 0x0 PUSH2 0x3B3F DUP3 PUSH2 0x34AD JUMP JUMPDEST SWAP2 POP PUSH2 0x3B4B DUP3 DUP5 PUSH2 0x337E JUMP JUMPDEST PUSH1 0x20 DUP3 ADD SWAP2 POP DUP2 SWAP1 POP SWAP3 SWAP2 POP POP JUMP JUMPDEST PUSH1 0x0 PUSH2 0x3B65 DUP3 PUSH2 0x3539 JUMP JUMPDEST SWAP2 POP PUSH2 0x3B71 DUP3 DUP5 PUSH2 0x337E JUMP JUMPDEST PUSH1 0x20 DUP3 ADD SWAP2 POP DUP2 SWAP1 POP SWAP3 SWAP2 POP POP JUMP JUMPDEST PUSH1 0x0 PUSH2 0x3B8B DUP3 PUSH2 0x35A2 JUMP JUMPDEST SWAP2 POP PUSH2 0x3B97 DUP3 DUP5 PUSH2 0x3407 JUMP JUMPDEST SWAP2 POP DUP2 SWAP1 POP SWAP3 SWAP2 POP POP JUMP JUMPDEST PUSH1 0x0 PUSH2 0x3BAE DUP3 DUP7 PUSH2 0x3955 JUMP JUMPDEST PUSH1 0x1 DUP3 ADD SWAP2 POP PUSH2 0x3BBE DUP3 DUP6 PUSH2 0x337E JUMP JUMPDEST PUSH1 0x20 DUP3 ADD SWAP2 POP PUSH2 0x3BCE DUP3 DUP5 PUSH2 0x337E JUMP JUMPDEST PUSH1 0x20 DUP3 ADD SWAP2 POP DUP2 SWAP1 POP SWAP5 SWAP4 POP POP POP POP JUMP JUMPDEST PUSH1 0x0 PUSH2 0x3BEB DUP3 DUP6 PUSH2 0x3955 JUMP JUMPDEST PUSH1 0x1 DUP3 ADD SWAP2 POP PUSH2 0x3BFB DUP3 DUP5 PUSH2 0x3407 JUMP JUMPDEST SWAP2 POP DUP2 SWAP1 POP SWAP4 SWAP3 POP POP POP JUMP JUMPDEST PUSH1 0x0 PUSH2 0x3C13 DUP3 DUP11 PUSH2 0x3955 JUMP JUMPDEST PUSH1 0x1 DUP3 ADD SWAP2 POP PUSH2 0x3C23 DUP3 DUP10 PUSH2 0x3407 JUMP JUMPDEST SWAP2 POP PUSH2 0x3C2F DUP3 DUP9 PUSH2 0x3407 JUMP JUMPDEST SWAP2 POP PUSH2 0x3C3B DUP3 DUP8 PUSH2 0x3955 JUMP JUMPDEST PUSH1 0x1 DUP3 ADD SWAP2 POP PUSH2 0x3C4B DUP3 DUP7 PUSH2 0x337E JUMP JUMPDEST PUSH1 0x20 DUP3 ADD SWAP2 POP PUSH2 0x3C5B DUP3 DUP6 PUSH2 0x3955 JUMP JUMPDEST PUSH1 0x1 DUP3 ADD SWAP2 POP PUSH2 0x3C6B DUP3 DUP5 PUSH2 0x337E JUMP JUMPDEST PUSH1 0x20 DUP3 ADD SWAP2 POP DUP2 SWAP1 POP SWAP9 SWAP8 POP POP POP POP POP POP POP POP JUMP JUMPDEST PUSH1 0x0 PUSH2 0x3C8C DUP3 DUP6 PUSH2 0x3955 JUMP JUMPDEST PUSH1 0x1 DUP3 ADD SWAP2 POP PUSH2 0x3C9C DUP3 DUP5 PUSH2 0x3920 JUMP JUMPDEST PUSH1 0x8 DUP3 ADD SWAP2 POP DUP2 SWAP1 POP SWAP4 SWAP3 POP POP POP JUMP JUMPDEST PUSH1 0x0 PUSH2 0x3CB8 DUP3 DUP7 PUSH2 0x3955 JUMP JUMPDEST PUSH1 0x1 DUP3 ADD SWAP2 POP PUSH2 0x3CC8 DUP3 DUP6 PUSH2 0x3955 JUMP JUMPDEST PUSH1 0x1 DUP3 ADD SWAP2 POP PUSH2 0x3CD8 DUP3 DUP5 PUSH2 0x337E JUMP JUMPDEST PUSH1 0x20 DUP3 ADD SWAP2 POP DUP2 SWAP1 POP SWAP5 SWAP4 POP POP POP POP JUMP JUMPDEST PUSH1 0x0 PUSH2 0x3CF5 DUP3 DUP11 PUSH2 0x3955 JUMP JUMPDEST PUSH1 0x1 DUP3 ADD SWAP2 POP PUSH2 0x3D05 DUP3 DUP10 PUSH2 0x3955 JUMP JUMPDEST PUSH1 0x1 DUP3 ADD SWAP2 POP PUSH2 0x3D15 DUP3 DUP9 PUSH2 0x3407 JUMP JUMPDEST SWAP2 POP PUSH2 0x3D21 DUP3 DUP8 PUSH2 0x3955 JUMP JUMPDEST PUSH1 0x1 DUP3 ADD SWAP2 POP PUSH2 0x3D31 DUP3 DUP7 PUSH2 0x3407 JUMP JUMPDEST SWAP2 POP PUSH2 0x3D3D DUP3 DUP6 PUSH2 0x3955 JUMP JUMPDEST PUSH1 0x1 DUP3 ADD SWAP2 POP PUSH2 0x3D4D DUP3 DUP5 PUSH2 0x337E JUMP JUMPDEST PUSH1 0x20 DUP3 ADD SWAP2 POP DUP2 SWAP1 POP SWAP9 SWAP8 POP POP POP POP POP POP POP POP JUMP JUMPDEST PUSH1 0x0 PUSH1 0x20 DUP3 ADD SWAP1 POP PUSH2 0x3D77 PUSH1 0x0 DUP4 ADD DUP5 PUSH2 0x3342 JUMP JUMPDEST SWAP3 SWAP2 POP POP JUMP JUMPDEST PUSH1 0x0 PUSH1 0x20 DUP3 ADD SWAP1 POP PUSH2 0x3D92 PUSH1 0x0 DUP4 ADD DUP5 PUSH2 0x3351 JUMP JUMPDEST SWAP3 SWAP2 POP POP JUMP JUMPDEST PUSH1 0x0 PUSH1 0x20 DUP3 ADD SWAP1 POP PUSH2 0x3DAD PUSH1 0x0 DUP4 ADD DUP5 PUSH2 0x336F JUMP JUMPDEST SWAP3 SWAP2 POP POP JUMP JUMPDEST PUSH1 0x0 PUSH1 0x60 DUP3 ADD SWAP1 POP PUSH2 0x3DC8 PUSH1 0x0 DUP4 ADD DUP7 PUSH2 0x336F JUMP JUMPDEST PUSH2 0x3DD5 PUSH1 0x20 DUP4 ADD DUP6 PUSH2 0x3911 JUMP JUMPDEST PUSH2 0x3DE2 PUSH1 0x40 DUP4 ADD DUP5 PUSH2 0x38F3 JUMP JUMPDEST SWAP5 SWAP4 POP POP POP POP JUMP JUMPDEST PUSH1 0x0 PUSH1 0x80 DUP3 ADD SWAP1 POP PUSH2 0x3DFF PUSH1 0x0 DUP4 ADD DUP8 PUSH2 0x336F JUMP JUMPDEST PUSH2 0x3E0C PUSH1 0x20 DUP4 ADD DUP7 PUSH2 0x3946 JUMP JUMPDEST PUSH2 0x3E19 PUSH1 0x40 DUP4 ADD DUP6 PUSH2 0x336F JUMP JUMPDEST PUSH2 0x3E26 PUSH1 0x60 DUP4 ADD DUP5 PUSH2 0x336F JUMP JUMPDEST SWAP6 SWAP5 POP POP POP POP POP JUMP JUMPDEST PUSH1 0x0 PUSH1 0x20 DUP3 ADD SWAP1 POP DUP2 DUP2 SUB PUSH1 0x0 DUP4 ADD MSTORE PUSH2 0x3E49 DUP2 DUP5 PUSH2 0x33CE JUMP JUMPDEST SWAP1 POP SWAP3 SWAP2 POP POP JUMP JUMPDEST PUSH1 0x0 PUSH1 0x20 DUP3 ADD SWAP1 POP DUP2 DUP2 SUB PUSH1 0x0 DUP4 ADD MSTORE PUSH2 0x3E6C DUP2 DUP5 DUP7 PUSH2 0x3447 JUMP JUMPDEST SWAP1 POP SWAP4 SWAP3 POP POP POP JUMP JUMPDEST PUSH1 0x0 PUSH1 0x20 DUP3 ADD SWAP1 POP DUP2 DUP2 SUB PUSH1 0x0 DUP4 ADD MSTORE PUSH2 0x3E8E DUP2 PUSH2 0x34D0 JUMP JUMPDEST SWAP1 POP SWAP2 SWAP1 POP JUMP JUMPDEST PUSH1 0x0 PUSH1 0x20 DUP3 ADD SWAP1 POP DUP2 DUP2 SUB PUSH1 0x0 DUP4 ADD MSTORE PUSH2 0x3EAE DUP2 PUSH2 0x34F3 JUMP JUMPDEST SWAP1 POP SWAP2 SWAP1 POP JUMP JUMPDEST PUSH1 0x0 PUSH1 0x20 DUP3 ADD SWAP1 POP DUP2 DUP2 SUB PUSH1 0x0 DUP4 ADD MSTORE PUSH2 0x3ECE DUP2 PUSH2 0x3516 JUMP JUMPDEST SWAP1 POP SWAP2 SWAP1 POP JUMP JUMPDEST PUSH1 0x0 PUSH1 0x20 DUP3 ADD SWAP1 POP DUP2 DUP2 SUB PUSH1 0x0 DUP4 ADD MSTORE PUSH2 0x3EEE DUP2 PUSH2 0x355C JUMP JUMPDEST SWAP1 POP SWAP2 SWAP1 POP JUMP JUMPDEST PUSH1 0x0 PUSH1 0x20 DUP3 ADD SWAP1 POP DUP2 DUP2 SUB PUSH1 0x0 DUP4 ADD MSTORE PUSH2 0x3F0E DUP2 PUSH2 0x35C5 JUMP JUMPDEST SWAP1 POP SWAP2 SWAP1 POP JUMP JUMPDEST PUSH1 0x0 PUSH1 0x20 DUP3 ADD SWAP1 POP DUP2 DUP2 SUB PUSH1 0x0 DUP4 ADD MSTORE PUSH2 0x3F2E DUP2 PUSH2 0x35E8 JUMP JUMPDEST SWAP1 POP SWAP2 SWAP1 POP JUMP JUMPDEST PUSH1 0x0 PUSH1 0x20 DUP3 ADD SWAP1 POP DUP2 DUP2 SUB PUSH1 0x0 DUP4 ADD MSTORE PUSH2 0x3F4E DUP2 PUSH2 0x360B JUMP JUMPDEST SWAP1 POP SWAP2 SWAP1 POP JUMP JUMPDEST PUSH1 0x0 PUSH1 0x20 DUP3 ADD SWAP1 POP DUP2 DUP2 SUB PUSH1 0x0 DUP4 ADD MSTORE PUSH2 0x3F6E DUP2 PUSH2 0x362E JUMP JUMPDEST SWAP1 POP SWAP2 SWAP1 POP JUMP JUMPDEST PUSH1 0x0 PUSH2 0x100 DUP3 ADD SWAP1 POP PUSH2 0x3F8B PUSH1 0x0 DUP4 ADD DUP5 PUSH2 0x3651 JUMP JUMPDEST SWAP3 SWAP2 POP POP JUMP JUMPDEST PUSH1 0x0 PUSH1 0x20 DUP3 ADD SWAP1 POP DUP2 DUP2 SUB PUSH1 0x0 DUP4 ADD MSTORE PUSH2 0x3FAB DUP2 DUP5 PUSH2 0x36F3 JUMP JUMPDEST SWAP1 POP SWAP3 SWAP2 POP POP JUMP JUMPDEST PUSH1 0x0 PUSH1 0x40 DUP3 ADD SWAP1 POP PUSH2 0x3FC8 PUSH1 0x0 DUP4 ADD DUP5 PUSH2 0x3737 JUMP JUMPDEST SWAP3 SWAP2 POP POP JUMP JUMPDEST PUSH1 0x0 PUSH1 0x20 DUP3 ADD SWAP1 POP DUP2 DUP2 SUB PUSH1 0x0 DUP4 ADD MSTORE PUSH2 0x3FE8 DUP2 DUP5 PUSH2 0x3766 JUMP JUMPDEST SWAP1 POP SWAP3 SWAP2 POP POP JUMP JUMPDEST PUSH1 0x0 PUSH1 0x20 DUP3 ADD SWAP1 POP DUP2 DUP2 SUB PUSH1 0x0 DUP4 ADD MSTORE PUSH2 0x400A DUP2 DUP5 PUSH2 0x37C9 JUMP JUMPDEST SWAP1 POP SWAP3 SWAP2 POP POP JUMP JUMPDEST PUSH1 0x0 PUSH1 0x20 DUP3 ADD SWAP1 POP PUSH2 0x4027 PUSH1 0x0 DUP4 ADD DUP5 PUSH2 0x38D5 JUMP JUMPDEST SWAP3 SWAP2 POP POP JUMP JUMPDEST PUSH1 0x0 PUSH2 0x4037 PUSH2 0x4048 JUMP JUMPDEST SWAP1 POP PUSH2 0x4043 DUP3 DUP3 PUSH2 0x43FD JUMP JUMPDEST SWAP2 SWAP1 POP JUMP JUMPDEST PUSH1 0x0 PUSH1 0x40 MLOAD SWAP1 POP SWAP1 JUMP JUMPDEST PUSH1 0x0 PUSH8 0xFFFFFFFFFFFFFFFF DUP3 GT ISZERO PUSH2 0x406D JUMPI PUSH2 0x406C PUSH2 0x4563 JUMP JUMPDEST JUMPDEST PUSH1 0x20 DUP3 MUL SWAP1 POP PUSH1 0x20 DUP2 ADD SWAP1 POP SWAP2 SWAP1 POP JUMP JUMPDEST PUSH1 0x0 PUSH8 0xFFFFFFFFFFFFFFFF DUP3 GT ISZERO PUSH2 0x4099 JUMPI PUSH2 0x4098 PUSH2 0x4563 JUMP JUMPDEST JUMPDEST PUSH2 0x40A2 DUP3 PUSH2 0x4592 JUMP JUMPDEST SWAP1 POP PUSH1 0x20 DUP2 ADD SWAP1 POP SWAP2 SWAP1 POP JUMP JUMPDEST PUSH1 0x0 PUSH8 0xFFFFFFFFFFFFFFFF DUP3 GT ISZERO PUSH2 0x40CA JUMPI PUSH2 0x40C9 PUSH2 0x4563 JUMP JUMPDEST JUMPDEST PUSH2 0x40D3 DUP3 PUSH2 0x4592 JUMP JUMPDEST SWAP1 POP PUSH1 0x20 DUP2 ADD SWAP1 POP SWAP2 SWAP1 POP JUMP JUMPDEST PUSH1 0x0 DUP2 MLOAD SWAP1 POP SWAP2 SWAP1 POP JUMP JUMPDEST PUSH1 0x0 DUP2 MLOAD SWAP1 POP SWAP2 SWAP1 POP JUMP JUMPDEST PUSH1 0x0 DUP3 DUP3 MSTORE PUSH1 0x20 DUP3 ADD SWAP1 POP SWAP3 SWAP2 POP POP JUMP JUMPDEST PUSH1 0x0 DUP3 DUP3 MSTORE PUSH1 0x20 DUP3 ADD SWAP1 POP SWAP3 SWAP2 POP POP JUMP JUMPDEST PUSH1 0x0 DUP2 SWAP1 POP SWAP3 SWAP2 POP POP JUMP JUMPDEST PUSH1 0x0 DUP3 DUP3 MSTORE PUSH1 0x20 DUP3 ADD SWAP1 POP SWAP3 SWAP2 POP POP JUMP JUMPDEST PUSH1 0x0 DUP3 DUP3 MSTORE PUSH1 0x20 DUP3 ADD SWAP1 POP SWAP3 SWAP2 POP POP JUMP JUMPDEST PUSH1 0x0 DUP2 SWAP1 POP SWAP3 SWAP2 POP POP JUMP JUMPDEST PUSH1 0x0 PUSH2 0x415B DUP3 PUSH2 0x4301 JUMP JUMPDEST SWAP2 POP PUSH2 0x4166 DUP4 PUSH2 0x4301 JUMP JUMPDEST SWAP3 POP DUP3 PUSH32 0xFFFFFFFFFFFFFFFFFFFFFFFFFFFFFFFFFFFFFFFFFFFFFFFFFFFFFFFFFFFFFFFF SUB DUP3 GT ISZERO PUSH2 0x419B JUMPI PUSH2 0x419A PUSH2 0x44D6 JUMP JUMPDEST JUMPDEST DUP3 DUP3 ADD SWAP1 POP SWAP3 SWAP2 POP POP JUMP JUMPDEST PUSH1 0x0 PUSH2 0x41B1 DUP3 PUSH2 0x431B JUMP JUMPDEST SWAP2 POP PUSH2 0x41BC DUP4 PUSH2 0x431B JUMP JUMPDEST SWAP3 POP DUP3 PUSH8 0xFFFFFFFFFFFFFFFF SUB DUP3 GT ISZERO PUSH2 0x41D9 JUMPI PUSH2 0x41D8 PUSH2 0x44D6 JUMP JUMPDEST JUMPDEST DUP3 DUP3 ADD SWAP1 POP SWAP3 SWAP2 POP POP JUMP JUMPDEST PUSH1 0x0 PUSH2 0x41EF DUP3 PUSH2 0x4301 JUMP JUMPDEST SWAP2 POP PUSH2 0x41FA DUP4 PUSH2 0x4301 JUMP JUMPDEST SWAP3 POP DUP2 PUSH32 0xFFFFFFFFFFFFFFFFFFFFFFFFFFFFFFFFFFFFFFFFFFFFFFFFFFFFFFFFFFFFFFFF DIV DUP4 GT DUP3 ISZERO ISZERO AND ISZERO PUSH2 0x4233 JUMPI PUSH2 0x4232 PUSH2 0x44D6 JUMP JUMPDEST JUMPDEST DUP3 DUP3 MUL SWAP1 POP SWAP3 SWAP2 POP POP JUMP JUMPDEST PUSH1 0x0 PUSH2 0x4249 DUP3 PUSH2 0x4301 JUMP JUMPDEST SWAP2 POP PUSH2 0x4254 DUP4 PUSH2 0x4301 JUMP JUMPDEST SWAP3 POP DUP3 DUP3 LT ISZERO PUSH2 0x4267 JUMPI PUSH2 0x4266 PUSH2 0x44D6 JUMP JUMPDEST JUMPDEST DUP3 DUP3 SUB SWAP1 POP SWAP3 SWAP2 POP POP JUMP JUMPDEST PUSH1 0x0 PUSH2 0x427D DUP3 PUSH2 0x431B JUMP JUMPDEST SWAP2 POP PUSH2 0x4288 DUP4 PUSH2 0x431B JUMP JUMPDEST SWAP3 POP DUP3 DUP3 LT ISZERO PUSH2 0x429B JUMPI PUSH2 0x429A PUSH2 0x44D6 JUMP JUMPDEST JUMPDEST DUP3 DUP3 SUB SWAP1 POP SWAP3 SWAP2 POP POP JUMP JUMPDEST PUSH1 0x0 PUSH2 0x42B1 DUP3 PUSH2 0x42E1 JUMP JUMPDEST SWAP1 POP SWAP2 SWAP1 POP JUMP JUMPDEST PUSH1 0x0 DUP2 ISZERO ISZERO SWAP1 POP SWAP2 SWAP1 POP JUMP JUMPDEST PUSH1 0x0 DUP2 SWAP1 POP SWAP2 SWAP1 POP JUMP JUMPDEST PUSH1 0x0 DUP2 SWAP1 POP PUSH2 0x42DC DUP3 PUSH2 0x481B JUMP JUMPDEST SWAP2 SWAP1 POP JUMP JUMPDEST PUSH1 0x0 PUSH20 0xFFFFFFFFFFFFFFFFFFFFFFFFFFFFFFFFFFFFFFFF DUP3 AND SWAP1 POP SWAP2 SWAP1 POP JUMP JUMPDEST PUSH1 0x0 DUP2 SWAP1 POP SWAP2 SWAP1 POP JUMP JUMPDEST PUSH1 0x0 PUSH4 0xFFFFFFFF DUP3 AND SWAP1 POP SWAP2 SWAP1 POP JUMP JUMPDEST PUSH1 0x0 PUSH8 0xFFFFFFFFFFFFFFFF DUP3 AND SWAP1 POP SWAP2 SWAP1 POP JUMP JUMPDEST PUSH1 0x0 PUSH1 0xFF DUP3 AND SWAP1 POP SWAP2 SWAP1 POP JUMP JUMPDEST PUSH1 0x0 PUSH2 0x4349 CALLDATASIZE DUP5 DUP5 PUSH2 0x24A7 JUMP JUMPDEST SWAP1 POP SWAP3 SWAP2 POP POP JUMP JUMPDEST PUSH1 0x0 PUSH2 0x435C DUP3 PUSH2 0x42CE JUMP JUMPDEST SWAP1 POP SWAP2 SWAP1 POP JUMP JUMPDEST PUSH1 0x0 PUSH2 0x436F CALLDATASIZE DUP4 PUSH2 0x2920 JUMP JUMPDEST SWAP1 POP SWAP2 SWAP1 POP JUMP JUMPDEST PUSH1 0x0 PUSH2 0x4382 CALLDATASIZE DUP4 PUSH2 0x2BCF JUMP JUMPDEST SWAP1 POP SWAP2 SWAP1 POP JUMP JUMPDEST DUP3 DUP2 DUP4 CALLDATACOPY PUSH1 0x0 DUP4 DUP4 ADD MSTORE POP POP POP JUMP JUMPDEST PUSH1 0x0 JUMPDEST DUP4 DUP2 LT ISZERO PUSH2 0x43B6 JUMPI DUP1 DUP3 ADD MLOAD DUP2 DUP5 ADD MSTORE PUSH1 0x20 DUP2 ADD SWAP1 POP PUSH2 0x439B JUMP JUMPDEST DUP4 DUP2 GT ISZERO PUSH2 0x43C5 JUMPI PUSH1 0x0 DUP5 DUP5 ADD MSTORE JUMPDEST POP POP POP POP JUMP JUMPDEST PUSH1 0x0 PUSH1 0x2 DUP3 DIV SWAP1 POP PUSH1 0x1 DUP3 AND DUP1 PUSH2 0x43E3 JUMPI PUSH1 0x7F DUP3 AND SWAP2 POP JUMPDEST PUSH1 0x20 DUP3 LT DUP2 EQ ISZERO PUSH2 0x43F7 JUMPI PUSH2 0x43F6 PUSH2 0x4534 JUMP JUMPDEST JUMPDEST POP SWAP2 SWAP1 POP JUMP JUMPDEST PUSH2 0x4406 DUP3 PUSH2 0x4592 JUMP JUMPDEST DUP2 ADD DUP2 DUP2 LT PUSH8 0xFFFFFFFFFFFFFFFF DUP3 GT OR ISZERO PUSH2 0x4425 JUMPI PUSH2 0x4424 PUSH2 0x4563 JUMP JUMPDEST JUMPDEST DUP1 PUSH1 0x40 MSTORE POP POP POP JUMP JUMPDEST PUSH1 0x0 PUSH2 0x4439 DUP3 PUSH2 0x4301 JUMP JUMPDEST SWAP2 POP PUSH32 0xFFFFFFFFFFFFFFFFFFFFFFFFFFFFFFFFFFFFFFFFFFFFFFFFFFFFFFFFFFFFFFFF DUP3 EQ ISZERO PUSH2 0x446C JUMPI PUSH2 0x446B PUSH2 0x44D6 JUMP JUMPDEST JUMPDEST PUSH1 0x1 DUP3 ADD SWAP1 POP SWAP2 SWAP1 POP JUMP JUMPDEST PUSH1 0x0 PUSH2 0x4482 DUP3 PUSH2 0x431B JUMP JUMPDEST SWAP2 POP PUSH8 0xFFFFFFFFFFFFFFFF DUP3 EQ ISZERO PUSH2 0x449D JUMPI PUSH2 0x449C PUSH2 0x44D6 JUMP JUMPDEST JUMPDEST PUSH1 0x1 DUP3 ADD SWAP1 POP SWAP2 SWAP1 POP JUMP JUMPDEST PUSH1 0x0 DUP2 SWAP1 POP SWAP2 SWAP1 POP JUMP JUMPDEST PUSH1 0x0 PUSH2 0x44BD DUP3 PUSH2 0x45A3 JUMP JUMPDEST SWAP1 POP SWAP2 SWAP1 POP JUMP JUMPDEST PUSH1 0x0 PUSH2 0x44CF DUP3 PUSH2 0x45B0 JUMP JUMPDEST SWAP1 POP SWAP2 SWAP1 POP JUMP JUMPDEST PUSH32 0x4E487B7100000000000000000000000000000000000000000000000000000000 PUSH1 0x0 MSTORE PUSH1 0x11 PUSH1 0x4 MSTORE PUSH1 0x24 PUSH1 0x0 REVERT JUMPDEST PUSH32 0x4E487B7100000000000000000000000000000000000000000000000000000000 PUSH1 0x0 MSTORE PUSH1 0x21 PUSH1 0x4 MSTORE PUSH1 0x24 PUSH1 0x0 REVERT JUMPDEST PUSH32 0x4E487B7100000000000000000000000000000000000000000000000000000000 PUSH1 0x0 MSTORE PUSH1 0x22 PUSH1 0x4 MSTORE PUSH1 0x24 PUSH1 0x0 REVERT JUMPDEST PUSH32 0x4E487B7100000000000000000000000000000000000000000000000000000000 PUSH1 0x0 MSTORE PUSH1 0x41 PUSH1 0x4 MSTORE PUSH1 0x24 PUSH1 0x0 REVERT JUMPDEST PUSH1 0x0 PUSH1 0x1F NOT PUSH1 0x1F DUP4 ADD AND SWAP1 POP SWAP2 SWAP1 POP JUMP JUMPDEST PUSH1 0x0 DUP2 PUSH1 0xC0 SHL SWAP1 POP SWAP2 SWAP1 POP JUMP JUMPDEST PUSH1 0x0 DUP2 PUSH1 0xF8 SHL SWAP1 POP SWAP2 SWAP1 POP JUMP JUMPDEST PUSH32 0x86C7571636861696E2000000000000000000000000000000000000000000000 PUSH1 0x0 DUP3 ADD MSTORE POP JUMP JUMPDEST PUSH32 0x436F6D6D6F6E456E636F646564566F7465506172743A20496E76616C69642073 PUSH1 0x0 DUP3 ADD MSTORE PUSH32 0x756666697827732073697A650000000000000000000000000000000000000000 PUSH1 0x20 DUP3 ADD MSTORE POP JUMP JUMPDEST PUSH32 0x436F6D6D6F6E456E636F646564566F7465506172743A20496E76616C69642070 PUSH1 0x0 DUP3 ADD MSTORE PUSH32 0x726566697827732073697A650000000000000000000000000000000000000000 PUSH1 0x20 DUP3 ADD MSTORE POP JUMP JUMPDEST PUSH32 0x496E76616C696420626C6F636B20686561646572000000000000000000000000 PUSH1 0x0 DUP3 ADD MSTORE POP JUMP JUMPDEST PUSH32 0x66C7571636861696E2000000000000000000000000000000000000000000000 PUSH1 0x0 DUP3 ADD MSTORE POP JUMP JUMPDEST PUSH32 0x4E6F20726F6F7420617420746869732068656967687400000000000000000000 PUSH1 0x0 DUP3 ADD MSTORE POP JUMP JUMPDEST PUSH32 0x1000000000000000000000000000000000000000000000000000000000000000 PUSH1 0x0 DUP3 ADD MSTORE POP JUMP JUMPDEST PUSH32 0x800000000000000000000000000000000000000000000000000000000000000 PUSH1 0x0 DUP3 ADD MSTORE POP JUMP JUMPDEST PUSH32 0x416C726561647920696E697469616C697A656400000000000000000000000000 PUSH1 0x0 DUP3 ADD MSTORE POP JUMP JUMPDEST PUSH32 0x496E76616C69642070726F6F6600000000000000000000000000000000000000 PUSH1 0x0 DUP3 ADD MSTORE POP JUMP JUMPDEST PUSH32 0x544D5369676E61747572653A20496E76616C69642074696D657374616D702773 PUSH1 0x0 DUP3 ADD MSTORE PUSH32 0x2073697A65000000000000000000000000000000000000000000000000000000 PUSH1 0x20 DUP3 ADD MSTORE POP JUMP JUMPDEST PUSH32 0x496E76616C6964207369676E6572206F72646572000000000000000000000000 PUSH1 0x0 DUP3 ADD MSTORE POP JUMP JUMPDEST PUSH1 0x4 DUP2 LT PUSH2 0x482C JUMPI PUSH2 0x482B PUSH2 0x4505 JUMP JUMPDEST JUMPDEST POP JUMP JUMPDEST PUSH2 0x4838 DUP2 PUSH2 0x42A6 JUMP JUMPDEST DUP2 EQ PUSH2 0x4843 JUMPI PUSH1 0x0 DUP1 REVERT JUMPDEST POP JUMP JUMPDEST PUSH2 0x484F DUP2 PUSH2 0x42B8 JUMP JUMPDEST DUP2 EQ PUSH2 0x485A JUMPI PUSH1 0x0 DUP1 REVERT JUMPDEST POP JUMP JUMPDEST PUSH2 0x4866 DUP2 PUSH2 0x42C4 JUMP JUMPDEST DUP2 EQ PUSH2 0x4871 JUMPI PUSH1 0x0 DUP1 REVERT JUMPDEST POP JUMP JUMPDEST PUSH1 0x4 DUP2 LT PUSH2 0x4881 JUMPI PUSH1 0x0 DUP1 REVERT JUMPDEST POP JUMP JUMPDEST PUSH2 0x488D DUP2 PUSH2 0x4301 JUMP JUMPDEST DUP2 EQ PUSH2 0x4898 JUMPI PUSH1 0x0 DUP1 REVERT JUMPDEST POP JUMP JUMPDEST PUSH2 0x48A4 DUP2 PUSH2 0x430B JUMP JUMPDEST DUP2 EQ PUSH2 0x48AF JUMPI PUSH1 0x0 DUP1 REVERT JUMPDEST POP JUMP JUMPDEST PUSH2 0x48BB DUP2 PUSH2 0x431B JUMP JUMPDEST DUP2 EQ PUSH2 0x48C6 JUMPI PUSH1 0x0 DUP1 REVERT JUMPDEST POP JUMP JUMPDEST PUSH2 0x48D2 DUP2 PUSH2 0x432F JUMP JUMPDEST DUP2 EQ PUSH2 0x48DD JUMPI PUSH1 0x0 DUP1 REVERT JUMPDEST POP JUMP INVALID LOG2 PUSH5 0x6970667358 0x22 SLT KECCAK256 0xE9 0xA7 DIV 0x5D 0xF8 0xA5 GAS 0xDC 0xDB SWAP13 0xFB EXTCODEHASH 0xE5 DIV GASLIMIT NUMBER MSTORE8 PUSH9 0xCCA71055722B2BCDC5 SWAP16 LOG2 DUP3 CREATE BYTE PUSH5 0x736F6C6343 STOP ADDMOD SUB STOP CALLER "},"methodIdentifiers":{"blockDetails(uint256)":"f953205a","checkPartsAndEncodedCommonParts((bytes,bytes),bytes32)":"5cd2458c","checkTimeAndRecoverSigner((bytes32,bytes32,uint8,bytes),bytes,bytes)":"071ee1e1","encodedChainId()":"64c47193","getAppHash((bytes32,bytes32,bytes32,bytes32,bytes32,bytes32))":"e71296e1","getAppHash2((bytes32,bytes32,bytes32,bytes32,bytes32,bytes32))":"0ac804c5","getBlockHeader((bytes32,uint64,uint64,uint32,bytes32,bytes32,bytes32,bytes32),bytes32)":"847c1b23","init(address[],uint256[],string)":"93a4a134","latestBlockHeight()":"f3f39ee5","readBlockHeaderMerkleParts((bytes32,uint64,uint64,uint32,bytes32,bytes32,bytes32,bytes32))":"1b60f867","readCommonEncodedVotePartData((bytes,bytes))":"0a4723e6","readFakeStruct((uint256,uint256))":"fda3442b","readFakeStructBytes(bytes)":"676435c7","readMultistoreData((bytes32,bytes32,bytes32,bytes32,bytes32,bytes32))":"679b7b9a","readTMSignatureData((bytes32,bytes32,uint8,bytes))":"2ff08eb5","relayBlock((bytes32,bytes32,bytes32,bytes32,bytes32,bytes32),(bytes32,uint64,uint64,uint32,bytes32,bytes32,bytes32,bytes32),(bytes,bytes),(bytes32,bytes32,uint8,bytes)[])":"af4b9107","totalValidatorPower()":"f8156a6e","unbondingPeriod()":"6cf6d675","validatorPowers(address)":"f61aa09d","verifyBlockHeader((bytes32,bytes32,bytes32,bytes32,bytes32,bytes32),(bytes32,uint64,uint64,uint32,bytes32,bytes32,bytes32,bytes32),(bytes,bytes),(bytes32,bytes32,uint8,bytes)[])":"cc2532ba","verifyOracleData(uint256,(string,uint64,bytes,uint64,uint64,uint64,uint64,uint64,uint64,uint8,bytes),uint256,(bool,uint8,uint256,uint256,bytes32)[])":"c573d977"}}}}}