{"contracts/bridge/BlobstreamO.sol":{"BlobstreamO":{"abi":[{"inputs":[{"internalType":"uint256","name":"_nonce","type":"uint256"},{"internalType":"uint256","name":"_powerThreshold","type":"uint256"},{"internalType":"bytes32","name":"_validatorSetCheckpoint","type":"bytes32"}],"stateMutability":"nonpayable","type":"constructor"},{"inputs":[],"name":"ECDSAInvalidSignature","type":"error"},{"inputs":[{"internalType":"uint256","name":"length","type":"uint256"}],"name":"ECDSAInvalidSignatureLength","type":"error"},{"inputs":[{"internalType":"bytes32","name":"s","type":"bytes32"}],"name":"ECDSAInvalidSignatureS","type":"error"},{"inputs":[],"name":"InsufficientVotingPower","type":"error"},{"inputs":[],"name":"InvalidSignature","type":"error"},{"inputs":[],"name":"InvalidValidatorSetNonce","type":"error"},{"inputs":[],"name":"MalformedCurrentValidatorSet","type":"error"},{"inputs":[],"name":"SuppliedValidatorSetInvalid","type":"error"},{"anonymous":false,"inputs":[{"indexed":false,"internalType":"bytes32","name":"_oracleRoot","type":"bytes32"}],"name":"NewOracleRoot","type":"event"},{"anonymous":false,"inputs":[{"indexed":true,"internalType":"uint256","name":"_nonce","type":"uint256"},{"indexed":false,"internalType":"uint256","name":"_powerThreshold","type":"uint256"},{"indexed":false,"internalType":"bytes32","name":"_validatorSetHash","type":"bytes32"}],"name":"ValidatorSetUpdated","type":"event"},{"inputs":[],"name":"currentRelayedBlockHeight","outputs":[{"internalType":"uint256","name":"","type":"uint256"}],"stateMutability":"view","type":"function"},{"inputs":[{"components":[{"internalType":"address","name":"addr","type":"address"},{"internalType":"uint256","name":"power","type":"uint256"}],"internalType":"struct Validator[]","name":"_currentValidatorSet","type":"tuple[]"}],"name":"deleteThisInputValSet","outputs":[{"internalType":"address","name":"","type":"address"}],"stateMutability":"pure","type":"function"},{"inputs":[{"internalType":"bytes32","name":"","type":"bytes32"}],"name":"isOracleRoot","outputs":[{"internalType":"bool","name":"","type":"bool"}],"stateMutability":"view","type":"function"},{"inputs":[],"name":"lastValidatorSetCheckpoint","outputs":[{"internalType":"bytes32","name":"","type":"bytes32"}],"stateMutability":"view","type":"function"},{"inputs":[{"internalType":"uint256","name":"","type":"uint256"}],"name":"oracleRoots","outputs":[{"internalType":"bytes32","name":"","type":"bytes32"}],"stateMutability":"view","type":"function"},{"inputs":[],"name":"powerThreshold","outputs":[{"internalType":"uint256","name":"","type":"uint256"}],"stateMutability":"view","type":"function"},{"inputs":[{"internalType":"bytes32","name":"_hash","type":"bytes32"}],"name":"toEthSignedMessageHashPublic","outputs":[{"internalType":"bytes32","name":"","type":"bytes32"}],"stateMutability":"pure","type":"function"},{"inputs":[{"internalType":"bytes32","name":"_hash","type":"bytes32"},{"internalType":"bytes","name":"signature","type":"bytes"}],"name":"tryRecoverPublic","outputs":[{"internalType":"address","name":"","type":"address"},{"internalType":"enum ECDSA.RecoverError","name":"","type":"uint8"},{"internalType":"bytes32","name":"","type":"bytes32"}],"stateMutability":"pure","type":"function"},{"inputs":[{"internalType":"bytes32","name":"_newValidatorSetHash","type":"bytes32"},{"internalType":"uint64","name":"_newPowerThreshold","type":"uint64"},{"components":[{"internalType":"address","name":"addr","type":"address"},{"internalType":"uint256","name":"power","type":"uint256"}],"internalType":"struct Validator[]","name":"_currentValidatorSet","type":"tuple[]"},{"components":[{"internalType":"uint8","name":"v","type":"uint8"},{"internalType":"bytes32","name":"r","type":"bytes32"},{"internalType":"bytes32","name":"s","type":"bytes32"}],"internalType":"struct Signature[]","name":"_sigs","type":"tuple[]"}],"name":"updateValidatorSet","outputs":[],"stateMutability":"nonpayable","type":"function"},{"inputs":[],"name":"validatorNonce","outputs":[{"internalType":"uint256","name":"","type":"uint256"}],"stateMutability":"view","type":"function"},{"inputs":[{"components":[{"internalType":"bytes32","name":"queryId","type":"bytes32"},{"components":[{"internalType":"bytes","name":"value","type":"bytes"},{"internalType":"uint256","name":"timestamp","type":"uint256"},{"internalType":"uint256","name":"consensusThreshold","type":"uint256"}],"internalType":"struct ReportData","name":"report","type":"tuple"},{"internalType":"uint256","name":"validatorNonce","type":"uint256"},{"internalType":"uint256","name":"powerThreshold","type":"uint256"},{"internalType":"bytes32","name":"validatorSetHash","type":"bytes32"},{"internalType":"uint256","name":"blockTimestamp","type":"uint256"}],"internalType":"struct OracleAttestationData","name":"_attest","type":"tuple"},{"components":[{"internalType":"address","name":"addr","type":"address"},{"internalType":"uint256","name":"power","type":"uint256"}],"internalType":"struct Validator[]","name":"_currentValidatorSet","type":"tuple[]"},{"components":[{"internalType":"uint8","name":"v","type":"uint8"},{"internalType":"bytes32","name":"r","type":"bytes32"},{"internalType":"bytes32","name":"s","type":"bytes32"}],"internalType":"struct Signature[]","name":"_sigs","type":"tuple[]"}],"name":"verifyOracleData","outputs":[{"internalType":"bool","name":"","type":"bool"}],"stateMutability":"view","type":"function"}],"evm":{"bytecode":{"linkReferences":{},"object":"60806040523480156200001157600080fd5b5060405162001a7e38038062001a7e8339818101604052810190620000379190620000d0565b8260028190555080600081905550816001819055505050506200012c565b600080fd5b6000819050919050565b6200006f816200005a565b81146200007b57600080fd5b50565b6000815190506200008f8162000064565b92915050565b6000819050919050565b620000aa8162000095565b8114620000b657600080fd5b50565b600081519050620000ca816200009f565b92915050565b600080600060608486031215620000ec57620000eb62000055565b5b6000620000fc868287016200007e565b93505060206200010f868287016200007e565b92505060406200012286828701620000b9565b9150509250925092565b611942806200013c6000396000f3fe608060405234801561001057600080fd5b50600436106100a95760003560e01c8063adf9a27611610071578063adf9a2761461018c578063af082a7d146101bc578063ba95ec27146101da578063cb908d52146101f8578063d8256ec714610228578063e17a684f14610246576100a9565b80632abafff2146100ae57806331b53e52146100de5780634bf05a091461010e57806391f6b44b1461014057806393319d6e14610170575b600080fd5b6100c860048036038101906100c39190610d2c565b610264565b6040516100d59190610dba565b60405180910390f35b6100f860048036038101906100f39190610e0b565b61029a565b6040516101059190610e53565b60405180910390f35b61012860048036038101906101239190610faf565b6102ba565b60405161013793929190611091565b60405180910390f35b61015a600480360381019061015591906110fe565b6102d6565b604051610167919061112b565b60405180910390f35b61018a600480360381019061018591906111dc565b6102ee565b005b6101a660048036038101906101a19190610e0b565b61042e565b6040516101b3919061112b565b60405180910390f35b6101c4610440565b6040516101d1919061112b565b60405180910390f35b6101e2610446565b6040516101ef9190611292565b60405180910390f35b610212600480360381019061020d91906112d1565b61044c565b60405161021f9190610e53565b60405180910390f35b61023061054f565b60405161023d9190611292565b60405180910390f35b61024e610555565b60405161025b9190611292565b60405180910390f35b60008282600081811061027a57610279611382565b5b905060400201600001602081019061029291906113dd565b905092915050565b60056020528060005260406000206000915054906101000a900460ff1681565b60008060006102c9858561055b565b9250925092509250925092565b60046020528060005260406000206000915090505481565b81819050848490501461032d576040517fc6617b7b00000000000000000000000000000000000000000000000000000000815260040160405180910390fd5b600061033985856105b7565b905060005461034d600254600154846105ea565b14610384576040517f177b5d9200000000000000000000000000000000000000000000000000000000815260040160405180910390fd5b600061039d6002548867ffffffffffffffff168a6105ea565b90506103a881610645565b6103b886868686856001546106de565b806000819055508667ffffffffffffffff16600181905550600260008154809291906103e390611439565b91905055506002547fe304b71f81a1aaf6d714401de28ba1ebdbb5ff9c5fee59ef2a6eb984f9e8da7e888a60405161041c9291906114bc565b60405180910390a25050505050505050565b60006104398261087d565b9050919050565b60005481565b60015481565b600082829050858590501461048d576040517fc6617b7b00000000000000000000000000000000000000000000000000000000815260040160405180910390fd5b600061049986866105b7565b90506000546104ad600254600154846105ea565b146104e4576040517f177b5d9200000000000000000000000000000000000000000000000000000000815260040160405180910390fd5b600254876040013514610523576040517fd146bffa00000000000000000000000000000000000000000000000000000000815260040160405180910390fd5b600061052e886108b3565b905061054087878787856001546106de565b60019250505095945050505050565b60035481565b60025481565b600080600060418451036105a05760008060006020870151925060408701519150606087015160001a90506105928882858561096f565b9550955095505050506105b0565b60006002855160001b9250925092505b9250925092565b600082826040516020016105cc929190611618565b60405160208183030381529060405280519060200120905092915050565b60007f636865636b706f696e740000000000000000000000000000000000000000000060001b848484604051602001610626949392919061163c565b6040516020818303038152906040528051906020012090509392505050565b6106db81604051602401610659919061112b565b6040516020818303038152906040527f27b7cf85000000000000000000000000000000000000000000000000000000007bffffffffffffffffffffffffffffffffffffffffffffffffffffffff19166020820180517bffffffffffffffffffffffffffffffffffffffffffffffffffffffff8381831617835250505050610a63565b50565b6000805b87879050811015610839576000801b86868381811061070457610703611382565b5b9050606002016020013514801561073957506000801b86868381811061072d5761072c611382565b5b90506060020160400135145b80156107725750600086868381811061075557610754611382565b5b905060600201600001602081019061076d91906116ba565b60ff16145b61082c576107c388888381811061078c5761078b611382565b5b90506040020160000160208101906107a491906113dd565b858888858181106107b8576107b7611382565b5b905060600201610a7d565b6107f9576040517f8baa579f00000000000000000000000000000000000000000000000000000000815260040160405180910390fd5b87878281811061080c5761080b611382565b5b905060400201602001358261082191906116e7565b915082821015610839575b80806001019150506106e2565b5081811015610874576040517fcabeb65500000000000000000000000000000000000000000000000000000000815260040160405180910390fd5b50505050505050565b60007f19457468657265756d205369676e6564204d6573736167653a0a33320000000060005281601c52603c6000209050919050565b60007f74656c6c6f7243757272656e744174746573746174696f6e000000000000000060001b82600001358380602001906108ee919061172a565b80600001906108fd9190611752565b85806020019061090d919061172a565b60200135868060200190610921919061172a565b604001358760400135886060013589608001358a60a001356040516020016109529a999897969594939291906117f3565b604051602081830303815290604052805190602001209050919050565b60008060007f7fffffffffffffffffffffffffffffff5d576e7357a4501ddfe92f46681b20a08460001c11156109af576000600385925092509250610a59565b6000600188888888604051600081526020016040526040516109d49493929190611898565b6020604051602081039080840390855afa1580156109f6573d6000803e3d6000fd5b505050602060405103519050600073ffffffffffffffffffffffffffffffffffffffff168173ffffffffffffffffffffffffffffffffffffffff1603610a4a57600060016000801b93509350935050610a59565b8060008060001b935093509350505b9450945094915050565b610a7a81610a72610ae9610b0a565b63ffffffff16565b50565b600080610a898461087d565b9050610ab181846000016020810190610aa291906116ba565b85602001358660400135610b15565b73ffffffffffffffffffffffffffffffffffffffff168573ffffffffffffffffffffffffffffffffffffffff16149150509392505050565b60006a636f6e736f6c652e6c6f679050600080835160208501845afa505050565b610ca9819050919050565b600080600080610b278888888861096f565b925092509250610b378282610b45565b829350505050949350505050565b60006003811115610b5957610b5861100b565b5b826003811115610b6c57610b6b61100b565b5b0315610ca55760016003811115610b8657610b8561100b565b5b826003811115610b9957610b9861100b565b5b03610bd0576040517ff645eedf00000000000000000000000000000000000000000000000000000000815260040160405180910390fd5b60026003811115610be457610be361100b565b5b826003811115610bf757610bf661100b565b5b03610c3c578060001c6040517ffce698f7000000000000000000000000000000000000000000000000000000008152600401610c339190611292565b60405180910390fd5b600380811115610c4f57610c4e61100b565b5b826003811115610c6257610c6161100b565b5b03610ca457806040517fd78bce0c000000000000000000000000000000000000000000000000000000008152600401610c9b919061112b565b60405180910390fd5b5b5050565b610cb16118dd565b565b6000604051905090565b600080fd5b600080fd5b600080fd5b600080fd5b600080fd5b60008083601f840112610cec57610ceb610cc7565b5b8235905067ffffffffffffffff811115610d0957610d08610ccc565b5b602083019150836040820283011115610d2557610d24610cd1565b5b9250929050565b60008060208385031215610d4357610d42610cbd565b5b600083013567ffffffffffffffff811115610d6157610d60610cc2565b5b610d6d85828601610cd6565b92509250509250929050565b600073ffffffffffffffffffffffffffffffffffffffff82169050919050565b6000610da482610d79565b9050919050565b610db481610d99565b82525050565b6000602082019050610dcf6000830184610dab565b92915050565b6000819050919050565b610de881610dd5565b8114610df357600080fd5b50565b600081359050610e0581610ddf565b92915050565b600060208284031215610e2157610e20610cbd565b5b6000610e2f84828501610df6565b91505092915050565b60008115159050919050565b610e4d81610e38565b82525050565b6000602082019050610e686000830184610e44565b92915050565b600080fd5b6000601f19601f8301169050919050565b7f4e487b7100000000000000000000000000000000000000000000000000000000600052604160045260246000fd5b610ebc82610e73565b810181811067ffffffffffffffff82111715610edb57610eda610e84565b5b80604052505050565b6000610eee610cb3565b9050610efa8282610eb3565b919050565b600067ffffffffffffffff821115610f1a57610f19610e84565b5b610f2382610e73565b9050602081019050919050565b82818337600083830152505050565b6000610f52610f4d84610eff565b610ee4565b905082815260208101848484011115610f6e57610f6d610e6e565b5b610f79848285610f30565b509392505050565b600082601f830112610f9657610f95610cc7565b5b8135610fa6848260208601610f3f565b91505092915050565b60008060408385031215610fc657610fc5610cbd565b5b6000610fd485828601610df6565b925050602083013567ffffffffffffffff811115610ff557610ff4610cc2565b5b61100185828601610f81565b9150509250929050565b7f4e487b7100000000000000000000000000000000000000000000000000000000600052602160045260246000fd5b6004811061104b5761104a61100b565b5b50565b600081905061105c8261103a565b919050565b600061106c8261104e565b9050919050565b61107c81611061565b82525050565b61108b81610dd5565b82525050565b60006060820190506110a66000830186610dab565b6110b36020830185611073565b6110c06040830184611082565b949350505050565b6000819050919050565b6110db816110c8565b81146110e657600080fd5b50565b6000813590506110f8816110d2565b92915050565b60006020828403121561111457611113610cbd565b5b6000611122848285016110e9565b91505092915050565b60006020820190506111406000830184611082565b92915050565b600067ffffffffffffffff82169050919050565b61116381611146565b811461116e57600080fd5b50565b6000813590506111808161115a565b92915050565b60008083601f84011261119c5761119b610cc7565b5b8235905067ffffffffffffffff8111156111b9576111b8610ccc565b5b6020830191508360608202830111156111d5576111d4610cd1565b5b9250929050565b600080600080600080608087890312156111f9576111f8610cbd565b5b600061120789828a01610df6565b965050602061121889828a01611171565b955050604087013567ffffffffffffffff81111561123957611238610cc2565b5b61124589828a01610cd6565b9450945050606087013567ffffffffffffffff81111561126857611267610cc2565b5b61127489828a01611186565b92509250509295509295509295565b61128c816110c8565b82525050565b60006020820190506112a76000830184611283565b92915050565b600080fd5b600060c082840312156112c8576112c76112ad565b5b81905092915050565b6000806000806000606086880312156112ed576112ec610cbd565b5b600086013567ffffffffffffffff81111561130b5761130a610cc2565b5b611317888289016112b2565b955050602086013567ffffffffffffffff81111561133857611337610cc2565b5b61134488828901610cd6565b9450945050604086013567ffffffffffffffff81111561136757611366610cc2565b5b61137388828901611186565b92509250509295509295909350565b7f4e487b7100000000000000000000000000000000000000000000000000000000600052603260045260246000fd5b6113ba81610d99565b81146113c557600080fd5b50565b6000813590506113d7816113b1565b92915050565b6000602082840312156113f3576113f2610cbd565b5b6000611401848285016113c8565b91505092915050565b7f4e487b7100000000000000000000000000000000000000000000000000000000600052601160045260246000fd5b6000611444826110c8565b91507fffffffffffffffffffffffffffffffffffffffffffffffffffffffffffffffff82036114765761147561140a565b5b600182019050919050565b6000819050919050565b60006114a66114a161149c84611146565b611481565b6110c8565b9050919050565b6114b68161148b565b82525050565b60006040820190506114d160008301856114ad565b6114de6020830184611082565b9392505050565b600082825260208201905092915050565b6000819050919050565b600061150f60208401846113c8565b905092915050565b61152081610d99565b82525050565b600061153560208401846110e9565b905092915050565b611546816110c8565b82525050565b6040820161155d6000830183611500565b61156a6000850182611517565b506115786020830183611526565b611585602085018261153d565b50505050565b6000611597838361154c565b60408301905092915050565b600082905092915050565b6000604082019050919050565b60006115c783856114e5565b93506115d2826114f6565b8060005b8581101561160b576115e882846115a3565b6115f2888261158b565b97506115fd836115ae565b9250506001810190506115d6565b5085925050509392505050565b600060208201905081810360008301526116338184866115bb565b90509392505050565b60006080820190506116516000830187611082565b61165e6020830186611283565b61166b6040830185611283565b6116786060830184611082565b95945050505050565b600060ff82169050919050565b61169781611681565b81146116a257600080fd5b50565b6000813590506116b48161168e565b92915050565b6000602082840312156116d0576116cf610cbd565b5b60006116de848285016116a5565b91505092915050565b60006116f2826110c8565b91506116fd836110c8565b92508282019050808211156117155761171461140a565b5b92915050565b600080fd5b600080fd5b600080fd5b6000823560016060038336030381126117465761174561171b565b5b80830191505092915050565b6000808335600160200384360303811261176f5761176e61171b565b5b80840192508235915067ffffffffffffffff82111561179157611790611720565b5b6020830192506001820236038313156117ad576117ac611725565b5b509250929050565b600082825260208201905092915050565b60006117d283856117b5565b93506117df838584610f30565b6117e883610e73565b840190509392505050565b600061012082019050611809600083018d611082565b611816602083018c611082565b8181036040830152611829818a8c6117c6565b90506118386060830189611283565b6118456080830188611283565b61185260a0830187611283565b61185f60c0830186611283565b61186c60e0830185611082565b61187a610100830184611283565b9b9a5050505050505050505050565b61189281611681565b82525050565b60006080820190506118ad6000830187611082565b6118ba6020830186611889565b6118c76040830185611082565b6118d46060830184611082565b95945050505050565b7f4e487b7100000000000000000000000000000000000000000000000000000000600052605160045260246000fdfea2646970667358221220a5a9e004c29e1b477867c631e6857435f7f9d3800dd9fb8446d4ab2000b686e164736f6c63430008160033","opcodes":"PUSH1 0x80 PUSH1 0x40 MSTORE CALLVALUE DUP1 ISZERO PUSH3 0x11 JUMPI PUSH1 0x0 DUP1 REVERT JUMPDEST POP PUSH1 0x40 MLOAD PUSH3 0x1A7E CODESIZE SUB DUP1 PUSH3 0x1A7E DUP4 CODECOPY DUP2 DUP2 ADD PUSH1 0x40 MSTORE DUP2 ADD SWAP1 PUSH3 0x37 SWAP2 SWAP1 PUSH3 0xD0 JUMP JUMPDEST DUP3 PUSH1 0x2 DUP2 SWAP1 SSTORE POP DUP1 PUSH1 0x0 DUP2 SWAP1 SSTORE POP DUP2 PUSH1 0x1 DUP2 SWAP1 SSTORE POP POP POP POP PUSH3 0x12C JUMP JUMPDEST PUSH1 0x0 DUP1 REVERT JUMPDEST PUSH1 0x0 DUP2 SWAP1 POP SWAP2 SWAP1 POP JUMP JUMPDEST PUSH3 0x6F DUP2 PUSH3 0x5A JUMP JUMPDEST DUP2 EQ PUSH3 0x7B JUMPI PUSH1 0x0 DUP1 REVERT JUMPDEST POP JUMP JUMPDEST PUSH1 0x0 DUP2 MLOAD SWAP1 POP PUSH3 0x8F DUP2 PUSH3 0x64 JUMP JUMPDEST SWAP3 SWAP2 POP POP JUMP JUMPDEST PUSH1 0x0 DUP2 SWAP1 POP SWAP2 SWAP1 POP JUMP JUMPDEST PUSH3 0xAA DUP2 PUSH3 0x95 JUMP JUMPDEST DUP2 EQ PUSH3 0xB6 JUMPI PUSH1 0x0 DUP1 REVERT JUMPDEST POP JUMP JUMPDEST PUSH1 0x0 DUP2 MLOAD SWAP1 POP PUSH3 0xCA DUP2 PUSH3 0x9F JUMP JUMPDEST SWAP3 SWAP2 POP POP JUMP JUMPDEST PUSH1 0x0 DUP1 PUSH1 0x0 PUSH1 0x60 DUP5 DUP7 SUB SLT ISZERO PUSH3 0xEC JUMPI PUSH3 0xEB PUSH3 0x55 JUMP JUMPDEST JUMPDEST PUSH1 0x0 PUSH3 0xFC DUP7 DUP3 DUP8 ADD PUSH3 0x7E JUMP JUMPDEST SWAP4 POP POP PUSH1 0x20 PUSH3 0x10F DUP7 DUP3 DUP8 ADD PUSH3 0x7E JUMP JUMPDEST SWAP3 POP POP PUSH1 0x40 PUSH3 0x122 DUP7 DUP3 DUP8 ADD PUSH3 0xB9 JUMP JUMPDEST SWAP2 POP POP SWAP3 POP SWAP3 POP SWAP3 JUMP JUMPDEST PUSH2 0x1942 DUP1 PUSH3 0x13C PUSH1 0x0 CODECOPY PUSH1 0x0 RETURN INVALID PUSH1 0x80 PUSH1 0x40 MSTORE CALLVALUE DUP1 ISZERO PUSH2 0x10 JUMPI PUSH1 0x0 DUP1 REVERT JUMPDEST POP PUSH1 0x4 CALLDATASIZE LT PUSH2 0xA9 JUMPI PUSH1 0x0 CALLDATALOAD PUSH1 0xE0 SHR DUP1 PUSH4 0xADF9A276 GT PUSH2 0x71 JUMPI DUP1 PUSH4 0xADF9A276 EQ PUSH2 0x18C JUMPI DUP1 PUSH4 0xAF082A7D EQ PUSH2 0x1BC JUMPI DUP1 PUSH4 0xBA95EC27 EQ PUSH2 0x1DA JUMPI DUP1 PUSH4 0xCB908D52 EQ PUSH2 0x1F8 JUMPI DUP1 PUSH4 0xD8256EC7 EQ PUSH2 0x228 JUMPI DUP1 PUSH4 0xE17A684F EQ PUSH2 0x246 JUMPI PUSH2 0xA9 JUMP JUMPDEST DUP1 PUSH4 0x2ABAFFF2 EQ PUSH2 0xAE JUMPI DUP1 PUSH4 0x31B53E52 EQ PUSH2 0xDE JUMPI DUP1 PUSH4 0x4BF05A09 EQ PUSH2 0x10E JUMPI DUP1 PUSH4 0x91F6B44B EQ PUSH2 0x140 JUMPI DUP1 PUSH4 0x93319D6E EQ PUSH2 0x170 JUMPI JUMPDEST PUSH1 0x0 DUP1 REVERT JUMPDEST PUSH2 0xC8 PUSH1 0x4 DUP1 CALLDATASIZE SUB DUP2 ADD SWAP1 PUSH2 0xC3 SWAP2 SWAP1 PUSH2 0xD2C JUMP JUMPDEST PUSH2 0x264 JUMP JUMPDEST PUSH1 0x40 MLOAD PUSH2 0xD5 SWAP2 SWAP1 PUSH2 0xDBA JUMP JUMPDEST PUSH1 0x40 MLOAD DUP1 SWAP2 SUB SWAP1 RETURN JUMPDEST PUSH2 0xF8 PUSH1 0x4 DUP1 CALLDATASIZE SUB DUP2 ADD SWAP1 PUSH2 0xF3 SWAP2 SWAP1 PUSH2 0xE0B JUMP JUMPDEST PUSH2 0x29A JUMP JUMPDEST PUSH1 0x40 MLOAD PUSH2 0x105 SWAP2 SWAP1 PUSH2 0xE53 JUMP JUMPDEST PUSH1 0x40 MLOAD DUP1 SWAP2 SUB SWAP1 RETURN JUMPDEST PUSH2 0x128 PUSH1 0x4 DUP1 CALLDATASIZE SUB DUP2 ADD SWAP1 PUSH2 0x123 SWAP2 SWAP1 PUSH2 0xFAF JUMP JUMPDEST PUSH2 0x2BA JUMP JUMPDEST PUSH1 0x40 MLOAD PUSH2 0x137 SWAP4 SWAP3 SWAP2 SWAP1 PUSH2 0x1091 JUMP JUMPDEST PUSH1 0x40 MLOAD DUP1 SWAP2 SUB SWAP1 RETURN JUMPDEST PUSH2 0x15A PUSH1 0x4 DUP1 CALLDATASIZE SUB DUP2 ADD SWAP1 PUSH2 0x155 SWAP2 SWAP1 PUSH2 0x10FE JUMP JUMPDEST PUSH2 0x2D6 JUMP JUMPDEST PUSH1 0x40 MLOAD PUSH2 0x167 SWAP2 SWAP1 PUSH2 0x112B JUMP JUMPDEST PUSH1 0x40 MLOAD DUP1 SWAP2 SUB SWAP1 RETURN JUMPDEST PUSH2 0x18A PUSH1 0x4 DUP1 CALLDATASIZE SUB DUP2 ADD SWAP1 PUSH2 0x185 SWAP2 SWAP1 PUSH2 0x11DC JUMP JUMPDEST PUSH2 0x2EE JUMP JUMPDEST STOP JUMPDEST PUSH2 0x1A6 PUSH1 0x4 DUP1 CALLDATASIZE SUB DUP2 ADD SWAP1 PUSH2 0x1A1 SWAP2 SWAP1 PUSH2 0xE0B JUMP JUMPDEST PUSH2 0x42E JUMP JUMPDEST PUSH1 0x40 MLOAD PUSH2 0x1B3 SWAP2 SWAP1 PUSH2 0x112B JUMP JUMPDEST PUSH1 0x40 MLOAD DUP1 SWAP2 SUB SWAP1 RETURN JUMPDEST PUSH2 0x1C4 PUSH2 0x440 JUMP JUMPDEST PUSH1 0x40 MLOAD PUSH2 0x1D1 SWAP2 SWAP1 PUSH2 0x112B JUMP JUMPDEST PUSH1 0x40 MLOAD DUP1 SWAP2 SUB SWAP1 RETURN JUMPDEST PUSH2 0x1E2 PUSH2 0x446 JUMP JUMPDEST PUSH1 0x40 MLOAD PUSH2 0x1EF SWAP2 SWAP1 PUSH2 0x1292 JUMP JUMPDEST PUSH1 0x40 MLOAD DUP1 SWAP2 SUB SWAP1 RETURN JUMPDEST PUSH2 0x212 PUSH1 0x4 DUP1 CALLDATASIZE SUB DUP2 ADD SWAP1 PUSH2 0x20D SWAP2 SWAP1 PUSH2 0x12D1 JUMP JUMPDEST PUSH2 0x44C JUMP JUMPDEST PUSH1 0x40 MLOAD PUSH2 0x21F SWAP2 SWAP1 PUSH2 0xE53 JUMP JUMPDEST PUSH1 0x40 MLOAD DUP1 SWAP2 SUB SWAP1 RETURN JUMPDEST PUSH2 0x230 PUSH2 0x54F JUMP JUMPDEST PUSH1 0x40 MLOAD PUSH2 0x23D SWAP2 SWAP1 PUSH2 0x1292 JUMP JUMPDEST PUSH1 0x40 MLOAD DUP1 SWAP2 SUB SWAP1 RETURN JUMPDEST PUSH2 0x24E PUSH2 0x555 JUMP JUMPDEST PUSH1 0x40 MLOAD PUSH2 0x25B SWAP2 SWAP1 PUSH2 0x1292 JUMP JUMPDEST PUSH1 0x40 MLOAD DUP1 SWAP2 SUB SWAP1 RETURN JUMPDEST PUSH1 0x0 DUP3 DUP3 PUSH1 0x0 DUP2 DUP2 LT PUSH2 0x27A JUMPI PUSH2 0x279 PUSH2 0x1382 JUMP JUMPDEST JUMPDEST SWAP1 POP PUSH1 0x40 MUL ADD PUSH1 0x0 ADD PUSH1 0x20 DUP2 ADD SWAP1 PUSH2 0x292 SWAP2 SWAP1 PUSH2 0x13DD JUMP JUMPDEST SWAP1 POP SWAP3 SWAP2 POP POP JUMP JUMPDEST PUSH1 0x5 PUSH1 0x20 MSTORE DUP1 PUSH1 0x0 MSTORE PUSH1 0x40 PUSH1 0x0 KECCAK256 PUSH1 0x0 SWAP2 POP SLOAD SWAP1 PUSH2 0x100 EXP SWAP1 DIV PUSH1 0xFF AND DUP2 JUMP JUMPDEST PUSH1 0x0 DUP1 PUSH1 0x0 PUSH2 0x2C9 DUP6 DUP6 PUSH2 0x55B JUMP JUMPDEST SWAP3 POP SWAP3 POP SWAP3 POP SWAP3 POP SWAP3 POP SWAP3 JUMP JUMPDEST PUSH1 0x4 PUSH1 0x20 MSTORE DUP1 PUSH1 0x0 MSTORE PUSH1 0x40 PUSH1 0x0 KECCAK256 PUSH1 0x0 SWAP2 POP SWAP1 POP SLOAD DUP2 JUMP JUMPDEST DUP2 DUP2 SWAP1 POP DUP5 DUP5 SWAP1 POP EQ PUSH2 0x32D JUMPI PUSH1 0x40 MLOAD PUSH32 0xC6617B7B00000000000000000000000000000000000000000000000000000000 DUP2 MSTORE PUSH1 0x4 ADD PUSH1 0x40 MLOAD DUP1 SWAP2 SUB SWAP1 REVERT JUMPDEST PUSH1 0x0 PUSH2 0x339 DUP6 DUP6 PUSH2 0x5B7 JUMP JUMPDEST SWAP1 POP PUSH1 0x0 SLOAD PUSH2 0x34D PUSH1 0x2 SLOAD PUSH1 0x1 SLOAD DUP5 PUSH2 0x5EA JUMP JUMPDEST EQ PUSH2 0x384 JUMPI PUSH1 0x40 MLOAD PUSH32 0x177B5D9200000000000000000000000000000000000000000000000000000000 DUP2 MSTORE PUSH1 0x4 ADD PUSH1 0x40 MLOAD DUP1 SWAP2 SUB SWAP1 REVERT JUMPDEST PUSH1 0x0 PUSH2 0x39D PUSH1 0x2 SLOAD DUP9 PUSH8 0xFFFFFFFFFFFFFFFF AND DUP11 PUSH2 0x5EA JUMP JUMPDEST SWAP1 POP PUSH2 0x3A8 DUP2 PUSH2 0x645 JUMP JUMPDEST PUSH2 0x3B8 DUP7 DUP7 DUP7 DUP7 DUP6 PUSH1 0x1 SLOAD PUSH2 0x6DE JUMP JUMPDEST DUP1 PUSH1 0x0 DUP2 SWAP1 SSTORE POP DUP7 PUSH8 0xFFFFFFFFFFFFFFFF AND PUSH1 0x1 DUP2 SWAP1 SSTORE POP PUSH1 0x2 PUSH1 0x0 DUP2 SLOAD DUP1 SWAP3 SWAP2 SWAP1 PUSH2 0x3E3 SWAP1 PUSH2 0x1439 JUMP JUMPDEST SWAP2 SWAP1 POP SSTORE POP PUSH1 0x2 SLOAD PUSH32 0xE304B71F81A1AAF6D714401DE28BA1EBDBB5FF9C5FEE59EF2A6EB984F9E8DA7E DUP9 DUP11 PUSH1 0x40 MLOAD PUSH2 0x41C SWAP3 SWAP2 SWAP1 PUSH2 0x14BC JUMP JUMPDEST PUSH1 0x40 MLOAD DUP1 SWAP2 SUB SWAP1 LOG2 POP POP POP POP POP POP POP POP JUMP JUMPDEST PUSH1 0x0 PUSH2 0x439 DUP3 PUSH2 0x87D JUMP JUMPDEST SWAP1 POP SWAP2 SWAP1 POP JUMP JUMPDEST PUSH1 0x0 SLOAD DUP2 JUMP JUMPDEST PUSH1 0x1 SLOAD DUP2 JUMP JUMPDEST PUSH1 0x0 DUP3 DUP3 SWAP1 POP DUP6 DUP6 SWAP1 POP EQ PUSH2 0x48D JUMPI PUSH1 0x40 MLOAD PUSH32 0xC6617B7B00000000000000000000000000000000000000000000000000000000 DUP2 MSTORE PUSH1 0x4 ADD PUSH1 0x40 MLOAD DUP1 SWAP2 SUB SWAP1 REVERT JUMPDEST PUSH1 0x0 PUSH2 0x499 DUP7 DUP7 PUSH2 0x5B7 JUMP JUMPDEST SWAP1 POP PUSH1 0x0 SLOAD PUSH2 0x4AD PUSH1 0x2 SLOAD PUSH1 0x1 SLOAD DUP5 PUSH2 0x5EA JUMP JUMPDEST EQ PUSH2 0x4E4 JUMPI PUSH1 0x40 MLOAD PUSH32 0x177B5D9200000000000000000000000000000000000000000000000000000000 DUP2 MSTORE PUSH1 0x4 ADD PUSH1 0x40 MLOAD DUP1 SWAP2 SUB SWAP1 REVERT JUMPDEST PUSH1 0x2 SLOAD DUP8 PUSH1 0x40 ADD CALLDATALOAD EQ PUSH2 0x523 JUMPI PUSH1 0x40 MLOAD PUSH32 0xD146BFFA00000000000000000000000000000000000000000000000000000000 DUP2 MSTORE PUSH1 0x4 ADD PUSH1 0x40 MLOAD DUP1 SWAP2 SUB SWAP1 REVERT JUMPDEST PUSH1 0x0 PUSH2 0x52E DUP9 PUSH2 0x8B3 JUMP JUMPDEST SWAP1 POP PUSH2 0x540 DUP8 DUP8 DUP8 DUP8 DUP6 PUSH1 0x1 SLOAD PUSH2 0x6DE JUMP JUMPDEST PUSH1 0x1 SWAP3 POP POP POP SWAP6 SWAP5 POP POP POP POP POP JUMP JUMPDEST PUSH1 0x3 SLOAD DUP2 JUMP JUMPDEST PUSH1 0x2 SLOAD DUP2 JUMP JUMPDEST PUSH1 0x0 DUP1 PUSH1 0x0 PUSH1 0x41 DUP5 MLOAD SUB PUSH2 0x5A0 JUMPI PUSH1 0x0 DUP1 PUSH1 0x0 PUSH1 0x20 DUP8 ADD MLOAD SWAP3 POP PUSH1 0x40 DUP8 ADD MLOAD SWAP2 POP PUSH1 0x60 DUP8 ADD MLOAD PUSH1 0x0 BYTE SWAP1 POP PUSH2 0x592 DUP9 DUP3 DUP6 DUP6 PUSH2 0x96F JUMP JUMPDEST SWAP6 POP SWAP6 POP SWAP6 POP POP POP POP PUSH2 0x5B0 JUMP JUMPDEST PUSH1 0x0 PUSH1 0x2 DUP6 MLOAD PUSH1 0x0 SHL SWAP3 POP SWAP3 POP SWAP3 POP JUMPDEST SWAP3 POP SWAP3 POP SWAP3 JUMP JUMPDEST PUSH1 0x0 DUP3 DUP3 PUSH1 0x40 MLOAD PUSH1 0x20 ADD PUSH2 0x5CC SWAP3 SWAP2 SWAP1 PUSH2 0x1618 JUMP JUMPDEST PUSH1 0x40 MLOAD PUSH1 0x20 DUP2 DUP4 SUB SUB DUP2 MSTORE SWAP1 PUSH1 0x40 MSTORE DUP1 MLOAD SWAP1 PUSH1 0x20 ADD KECCAK256 SWAP1 POP SWAP3 SWAP2 POP POP JUMP JUMPDEST PUSH1 0x0 PUSH32 0x636865636B706F696E7400000000000000000000000000000000000000000000 PUSH1 0x0 SHL DUP5 DUP5 DUP5 PUSH1 0x40 MLOAD PUSH1 0x20 ADD PUSH2 0x626 SWAP5 SWAP4 SWAP3 SWAP2 SWAP1 PUSH2 0x163C JUMP JUMPDEST PUSH1 0x40 MLOAD PUSH1 0x20 DUP2 DUP4 SUB SUB DUP2 MSTORE SWAP1 PUSH1 0x40 MSTORE DUP1 MLOAD SWAP1 PUSH1 0x20 ADD KECCAK256 SWAP1 POP SWAP4 SWAP3 POP POP POP JUMP JUMPDEST PUSH2 0x6DB DUP2 PUSH1 0x40 MLOAD PUSH1 0x24 ADD PUSH2 0x659 SWAP2 SWAP1 PUSH2 0x112B JUMP JUMPDEST PUSH1 0x40 MLOAD PUSH1 0x20 DUP2 DUP4 SUB SUB DUP2 MSTORE SWAP1 PUSH1 0x40 MSTORE PUSH32 0x27B7CF8500000000000000000000000000000000000000000000000000000000 PUSH28 0xFFFFFFFFFFFFFFFFFFFFFFFFFFFFFFFFFFFFFFFFFFFFFFFFFFFFFFFF NOT AND PUSH1 0x20 DUP3 ADD DUP1 MLOAD PUSH28 0xFFFFFFFFFFFFFFFFFFFFFFFFFFFFFFFFFFFFFFFFFFFFFFFFFFFFFFFF DUP4 DUP2 DUP4 AND OR DUP4 MSTORE POP POP POP POP PUSH2 0xA63 JUMP JUMPDEST POP JUMP JUMPDEST PUSH1 0x0 DUP1 JUMPDEST DUP8 DUP8 SWAP1 POP DUP2 LT ISZERO PUSH2 0x839 JUMPI PUSH1 0x0 DUP1 SHL DUP7 DUP7 DUP4 DUP2 DUP2 LT PUSH2 0x704 JUMPI PUSH2 0x703 PUSH2 0x1382 JUMP JUMPDEST JUMPDEST SWAP1 POP PUSH1 0x60 MUL ADD PUSH1 0x20 ADD CALLDATALOAD EQ DUP1 ISZERO PUSH2 0x739 JUMPI POP PUSH1 0x0 DUP1 SHL DUP7 DUP7 DUP4 DUP2 DUP2 LT PUSH2 0x72D JUMPI PUSH2 0x72C PUSH2 0x1382 JUMP JUMPDEST JUMPDEST SWAP1 POP PUSH1 0x60 MUL ADD PUSH1 0x40 ADD CALLDATALOAD EQ JUMPDEST DUP1 ISZERO PUSH2 0x772 JUMPI POP PUSH1 0x0 DUP7 DUP7 DUP4 DUP2 DUP2 LT PUSH2 0x755 JUMPI PUSH2 0x754 PUSH2 0x1382 JUMP JUMPDEST JUMPDEST SWAP1 POP PUSH1 0x60 MUL ADD PUSH1 0x0 ADD PUSH1 0x20 DUP2 ADD SWAP1 PUSH2 0x76D SWAP2 SWAP1 PUSH2 0x16BA JUMP JUMPDEST PUSH1 0xFF AND EQ JUMPDEST PUSH2 0x82C JUMPI PUSH2 0x7C3 DUP9 DUP9 DUP4 DUP2 DUP2 LT PUSH2 0x78C JUMPI PUSH2 0x78B PUSH2 0x1382 JUMP JUMPDEST JUMPDEST SWAP1 POP PUSH1 0x40 MUL ADD PUSH1 0x0 ADD PUSH1 0x20 DUP2 ADD SWAP1 PUSH2 0x7A4 SWAP2 SWAP1 PUSH2 0x13DD JUMP JUMPDEST DUP6 DUP9 DUP9 DUP6 DUP2 DUP2 LT PUSH2 0x7B8 JUMPI PUSH2 0x7B7 PUSH2 0x1382 JUMP JUMPDEST JUMPDEST SWAP1 POP PUSH1 0x60 MUL ADD PUSH2 0xA7D JUMP JUMPDEST PUSH2 0x7F9 JUMPI PUSH1 0x40 MLOAD PUSH32 0x8BAA579F00000000000000000000000000000000000000000000000000000000 DUP2 MSTORE PUSH1 0x4 ADD PUSH1 0x40 MLOAD DUP1 SWAP2 SUB SWAP1 REVERT JUMPDEST DUP8 DUP8 DUP3 DUP2 DUP2 LT PUSH2 0x80C JUMPI PUSH2 0x80B PUSH2 0x1382 JUMP JUMPDEST JUMPDEST SWAP1 POP PUSH1 0x40 MUL ADD PUSH1 0x20 ADD CALLDATALOAD DUP3 PUSH2 0x821 SWAP2 SWAP1 PUSH2 0x16E7 JUMP JUMPDEST SWAP2 POP DUP3 DUP3 LT ISZERO PUSH2 0x839 JUMPI JUMPDEST DUP1 DUP1 PUSH1 0x1 ADD SWAP2 POP POP PUSH2 0x6E2 JUMP JUMPDEST POP DUP2 DUP2 LT ISZERO PUSH2 0x874 JUMPI PUSH1 0x40 MLOAD PUSH32 0xCABEB65500000000000000000000000000000000000000000000000000000000 DUP2 MSTORE PUSH1 0x4 ADD PUSH1 0x40 MLOAD DUP1 SWAP2 SUB SWAP1 REVERT JUMPDEST POP POP POP POP POP POP POP JUMP JUMPDEST PUSH1 0x0 PUSH32 0x19457468657265756D205369676E6564204D6573736167653A0A333200000000 PUSH1 0x0 MSTORE DUP2 PUSH1 0x1C MSTORE PUSH1 0x3C PUSH1 0x0 KECCAK256 SWAP1 POP SWAP2 SWAP1 POP JUMP JUMPDEST PUSH1 0x0 PUSH32 0x74656C6C6F7243757272656E744174746573746174696F6E0000000000000000 PUSH1 0x0 SHL DUP3 PUSH1 0x0 ADD CALLDATALOAD DUP4 DUP1 PUSH1 0x20 ADD SWAP1 PUSH2 0x8EE SWAP2 SWAP1 PUSH2 0x172A JUMP JUMPDEST DUP1 PUSH1 0x0 ADD SWAP1 PUSH2 0x8FD SWAP2 SWAP1 PUSH2 0x1752 JUMP JUMPDEST DUP6 DUP1 PUSH1 0x20 ADD SWAP1 PUSH2 0x90D SWAP2 SWAP1 PUSH2 0x172A JUMP JUMPDEST PUSH1 0x20 ADD CALLDATALOAD DUP7 DUP1 PUSH1 0x20 ADD SWAP1 PUSH2 0x921 SWAP2 SWAP1 PUSH2 0x172A JUMP JUMPDEST PUSH1 0x40 ADD CALLDATALOAD DUP8 PUSH1 0x40 ADD CALLDATALOAD DUP9 PUSH1 0x60 ADD CALLDATALOAD DUP10 PUSH1 0x80 ADD CALLDATALOAD DUP11 PUSH1 0xA0 ADD CALLDATALOAD PUSH1 0x40 MLOAD PUSH1 0x20 ADD PUSH2 0x952 SWAP11 SWAP10 SWAP9 SWAP8 SWAP7 SWAP6 SWAP5 SWAP4 SWAP3 SWAP2 SWAP1 PUSH2 0x17F3 JUMP JUMPDEST PUSH1 0x40 MLOAD PUSH1 0x20 DUP2 DUP4 SUB SUB DUP2 MSTORE SWAP1 PUSH1 0x40 MSTORE DUP1 MLOAD SWAP1 PUSH1 0x20 ADD KECCAK256 SWAP1 POP SWAP2 SWAP1 POP JUMP JUMPDEST PUSH1 0x0 DUP1 PUSH1 0x0 PUSH32 0x7FFFFFFFFFFFFFFFFFFFFFFFFFFFFFFF5D576E7357A4501DDFE92F46681B20A0 DUP5 PUSH1 0x0 SHR GT ISZERO PUSH2 0x9AF JUMPI PUSH1 0x0 PUSH1 0x3 DUP6 SWAP3 POP SWAP3 POP SWAP3 POP PUSH2 0xA59 JUMP JUMPDEST PUSH1 0x0 PUSH1 0x1 DUP9 DUP9 DUP9 DUP9 PUSH1 0x40 MLOAD PUSH1 0x0 DUP2 MSTORE PUSH1 0x20 ADD PUSH1 0x40 MSTORE PUSH1 0x40 MLOAD PUSH2 0x9D4 SWAP5 SWAP4 SWAP3 SWAP2 SWAP1 PUSH2 0x1898 JUMP JUMPDEST PUSH1 0x20 PUSH1 0x40 MLOAD PUSH1 0x20 DUP2 SUB SWAP1 DUP1 DUP5 SUB SWAP1 DUP6 GAS STATICCALL ISZERO DUP1 ISZERO PUSH2 0x9F6 JUMPI RETURNDATASIZE PUSH1 0x0 DUP1 RETURNDATACOPY RETURNDATASIZE PUSH1 0x0 REVERT JUMPDEST POP POP POP PUSH1 0x20 PUSH1 0x40 MLOAD SUB MLOAD SWAP1 POP PUSH1 0x0 PUSH20 0xFFFFFFFFFFFFFFFFFFFFFFFFFFFFFFFFFFFFFFFF AND DUP2 PUSH20 0xFFFFFFFFFFFFFFFFFFFFFFFFFFFFFFFFFFFFFFFF AND SUB PUSH2 0xA4A JUMPI PUSH1 0x0 PUSH1 0x1 PUSH1 0x0 DUP1 SHL SWAP4 POP SWAP4 POP SWAP4 POP POP PUSH2 0xA59 JUMP JUMPDEST DUP1 PUSH1 0x0 DUP1 PUSH1 0x0 SHL SWAP4 POP SWAP4 POP SWAP4 POP POP JUMPDEST SWAP5 POP SWAP5 POP SWAP5 SWAP2 POP POP JUMP JUMPDEST PUSH2 0xA7A DUP2 PUSH2 0xA72 PUSH2 0xAE9 PUSH2 0xB0A JUMP JUMPDEST PUSH4 0xFFFFFFFF AND JUMP JUMPDEST POP JUMP JUMPDEST PUSH1 0x0 DUP1 PUSH2 0xA89 DUP5 PUSH2 0x87D JUMP JUMPDEST SWAP1 POP PUSH2 0xAB1 DUP2 DUP5 PUSH1 0x0 ADD PUSH1 0x20 DUP2 ADD SWAP1 PUSH2 0xAA2 SWAP2 SWAP1 PUSH2 0x16BA JUMP JUMPDEST DUP6 PUSH1 0x20 ADD CALLDATALOAD DUP7 PUSH1 0x40 ADD CALLDATALOAD PUSH2 0xB15 JUMP JUMPDEST PUSH20 0xFFFFFFFFFFFFFFFFFFFFFFFFFFFFFFFFFFFFFFFF AND DUP6 PUSH20 0xFFFFFFFFFFFFFFFFFFFFFFFFFFFFFFFFFFFFFFFF AND EQ SWAP2 POP POP SWAP4 SWAP3 POP POP POP JUMP JUMPDEST PUSH1 0x0 PUSH11 0x636F6E736F6C652E6C6F67 SWAP1 POP PUSH1 0x0 DUP1 DUP4 MLOAD PUSH1 0x20 DUP6 ADD DUP5 GAS STATICCALL POP POP POP JUMP JUMPDEST PUSH2 0xCA9 DUP2 SWAP1 POP SWAP2 SWAP1 POP JUMP JUMPDEST PUSH1 0x0 DUP1 PUSH1 0x0 DUP1 PUSH2 0xB27 DUP9 DUP9 DUP9 DUP9 PUSH2 0x96F JUMP JUMPDEST SWAP3 POP SWAP3 POP SWAP3 POP PUSH2 0xB37 DUP3 DUP3 PUSH2 0xB45 JUMP JUMPDEST DUP3 SWAP4 POP POP POP POP SWAP5 SWAP4 POP POP POP POP JUMP JUMPDEST PUSH1 0x0 PUSH1 0x3 DUP2 GT ISZERO PUSH2 0xB59 JUMPI PUSH2 0xB58 PUSH2 0x100B JUMP JUMPDEST JUMPDEST DUP3 PUSH1 0x3 DUP2 GT ISZERO PUSH2 0xB6C JUMPI PUSH2 0xB6B PUSH2 0x100B JUMP JUMPDEST JUMPDEST SUB ISZERO PUSH2 0xCA5 JUMPI PUSH1 0x1 PUSH1 0x3 DUP2 GT ISZERO PUSH2 0xB86 JUMPI PUSH2 0xB85 PUSH2 0x100B JUMP JUMPDEST JUMPDEST DUP3 PUSH1 0x3 DUP2 GT ISZERO PUSH2 0xB99 JUMPI PUSH2 0xB98 PUSH2 0x100B JUMP JUMPDEST JUMPDEST SUB PUSH2 0xBD0 JUMPI PUSH1 0x40 MLOAD PUSH32 0xF645EEDF00000000000000000000000000000000000000000000000000000000 DUP2 MSTORE PUSH1 0x4 ADD PUSH1 0x40 MLOAD DUP1 SWAP2 SUB SWAP1 REVERT JUMPDEST PUSH1 0x2 PUSH1 0x3 DUP2 GT ISZERO PUSH2 0xBE4 JUMPI PUSH2 0xBE3 PUSH2 0x100B JUMP JUMPDEST JUMPDEST DUP3 PUSH1 0x3 DUP2 GT ISZERO PUSH2 0xBF7 JUMPI PUSH2 0xBF6 PUSH2 0x100B JUMP JUMPDEST JUMPDEST SUB PUSH2 0xC3C JUMPI DUP1 PUSH1 0x0 SHR PUSH1 0x40 MLOAD PUSH32 0xFCE698F700000000000000000000000000000000000000000000000000000000 DUP2 MSTORE PUSH1 0x4 ADD PUSH2 0xC33 SWAP2 SWAP1 PUSH2 0x1292 JUMP JUMPDEST PUSH1 0x40 MLOAD DUP1 SWAP2 SUB SWAP1 REVERT JUMPDEST PUSH1 0x3 DUP1 DUP2 GT ISZERO PUSH2 0xC4F JUMPI PUSH2 0xC4E PUSH2 0x100B JUMP JUMPDEST JUMPDEST DUP3 PUSH1 0x3 DUP2 GT ISZERO PUSH2 0xC62 JUMPI PUSH2 0xC61 PUSH2 0x100B JUMP JUMPDEST JUMPDEST SUB PUSH2 0xCA4 JUMPI DUP1 PUSH1 0x40 MLOAD PUSH32 0xD78BCE0C00000000000000000000000000000000000000000000000000000000 DUP2 MSTORE PUSH1 0x4 ADD PUSH2 0xC9B SWAP2 SWAP1 PUSH2 0x112B JUMP JUMPDEST PUSH1 0x40 MLOAD DUP1 SWAP2 SUB SWAP1 REVERT JUMPDEST JUMPDEST POP POP JUMP JUMPDEST PUSH2 0xCB1 PUSH2 0x18DD JUMP JUMPDEST JUMP JUMPDEST PUSH1 0x0 PUSH1 0x40 MLOAD SWAP1 POP SWAP1 JUMP JUMPDEST PUSH1 0x0 DUP1 REVERT JUMPDEST PUSH1 0x0 DUP1 REVERT JUMPDEST PUSH1 0x0 DUP1 REVERT JUMPDEST PUSH1 0x0 DUP1 REVERT JUMPDEST PUSH1 0x0 DUP1 REVERT JUMPDEST PUSH1 0x0 DUP1 DUP4 PUSH1 0x1F DUP5 ADD SLT PUSH2 0xCEC JUMPI PUSH2 0xCEB PUSH2 0xCC7 JUMP JUMPDEST JUMPDEST DUP3 CALLDATALOAD SWAP1 POP PUSH8 0xFFFFFFFFFFFFFFFF DUP2 GT ISZERO PUSH2 0xD09 JUMPI PUSH2 0xD08 PUSH2 0xCCC JUMP JUMPDEST JUMPDEST PUSH1 0x20 DUP4 ADD SWAP2 POP DUP4 PUSH1 0x40 DUP3 MUL DUP4 ADD GT ISZERO PUSH2 0xD25 JUMPI PUSH2 0xD24 PUSH2 0xCD1 JUMP JUMPDEST JUMPDEST SWAP3 POP SWAP3 SWAP1 POP JUMP JUMPDEST PUSH1 0x0 DUP1 PUSH1 0x20 DUP4 DUP6 SUB SLT ISZERO PUSH2 0xD43 JUMPI PUSH2 0xD42 PUSH2 0xCBD JUMP JUMPDEST JUMPDEST PUSH1 0x0 DUP4 ADD CALLDATALOAD PUSH8 0xFFFFFFFFFFFFFFFF DUP2 GT ISZERO PUSH2 0xD61 JUMPI PUSH2 0xD60 PUSH2 0xCC2 JUMP JUMPDEST JUMPDEST PUSH2 0xD6D DUP6 DUP3 DUP7 ADD PUSH2 0xCD6 JUMP JUMPDEST SWAP3 POP SWAP3 POP POP SWAP3 POP SWAP3 SWAP1 POP JUMP JUMPDEST PUSH1 0x0 PUSH20 0xFFFFFFFFFFFFFFFFFFFFFFFFFFFFFFFFFFFFFFFF DUP3 AND SWAP1 POP SWAP2 SWAP1 POP JUMP JUMPDEST PUSH1 0x0 PUSH2 0xDA4 DUP3 PUSH2 0xD79 JUMP JUMPDEST SWAP1 POP SWAP2 SWAP1 POP JUMP JUMPDEST PUSH2 0xDB4 DUP2 PUSH2 0xD99 JUMP JUMPDEST DUP3 MSTORE POP POP JUMP JUMPDEST PUSH1 0x0 PUSH1 0x20 DUP3 ADD SWAP1 POP PUSH2 0xDCF PUSH1 0x0 DUP4 ADD DUP5 PUSH2 0xDAB JUMP JUMPDEST SWAP3 SWAP2 POP POP JUMP JUMPDEST PUSH1 0x0 DUP2 SWAP1 POP SWAP2 SWAP1 POP JUMP JUMPDEST PUSH2 0xDE8 DUP2 PUSH2 0xDD5 JUMP JUMPDEST DUP2 EQ PUSH2 0xDF3 JUMPI PUSH1 0x0 DUP1 REVERT JUMPDEST POP JUMP JUMPDEST PUSH1 0x0 DUP2 CALLDATALOAD SWAP1 POP PUSH2 0xE05 DUP2 PUSH2 0xDDF JUMP JUMPDEST SWAP3 SWAP2 POP POP JUMP JUMPDEST PUSH1 0x0 PUSH1 0x20 DUP3 DUP5 SUB SLT ISZERO PUSH2 0xE21 JUMPI PUSH2 0xE20 PUSH2 0xCBD JUMP JUMPDEST JUMPDEST PUSH1 0x0 PUSH2 0xE2F DUP5 DUP3 DUP6 ADD PUSH2 0xDF6 JUMP JUMPDEST SWAP2 POP POP SWAP3 SWAP2 POP POP JUMP JUMPDEST PUSH1 0x0 DUP2 ISZERO ISZERO SWAP1 POP SWAP2 SWAP1 POP JUMP JUMPDEST PUSH2 0xE4D DUP2 PUSH2 0xE38 JUMP JUMPDEST DUP3 MSTORE POP POP JUMP JUMPDEST PUSH1 0x0 PUSH1 0x20 DUP3 ADD SWAP1 POP PUSH2 0xE68 PUSH1 0x0 DUP4 ADD DUP5 PUSH2 0xE44 JUMP JUMPDEST SWAP3 SWAP2 POP POP JUMP JUMPDEST PUSH1 0x0 DUP1 REVERT JUMPDEST PUSH1 0x0 PUSH1 0x1F NOT PUSH1 0x1F DUP4 ADD AND SWAP1 POP SWAP2 SWAP1 POP JUMP JUMPDEST PUSH32 0x4E487B7100000000000000000000000000000000000000000000000000000000 PUSH1 0x0 MSTORE PUSH1 0x41 PUSH1 0x4 MSTORE PUSH1 0x24 PUSH1 0x0 REVERT JUMPDEST PUSH2 0xEBC DUP3 PUSH2 0xE73 JUMP JUMPDEST DUP2 ADD DUP2 DUP2 LT PUSH8 0xFFFFFFFFFFFFFFFF DUP3 GT OR ISZERO PUSH2 0xEDB JUMPI PUSH2 0xEDA PUSH2 0xE84 JUMP JUMPDEST JUMPDEST DUP1 PUSH1 0x40 MSTORE POP POP POP JUMP JUMPDEST PUSH1 0x0 PUSH2 0xEEE PUSH2 0xCB3 JUMP JUMPDEST SWAP1 POP PUSH2 0xEFA DUP3 DUP3 PUSH2 0xEB3 JUMP JUMPDEST SWAP2 SWAP1 POP JUMP JUMPDEST PUSH1 0x0 PUSH8 0xFFFFFFFFFFFFFFFF DUP3 GT ISZERO PUSH2 0xF1A JUMPI PUSH2 0xF19 PUSH2 0xE84 JUMP JUMPDEST JUMPDEST PUSH2 0xF23 DUP3 PUSH2 0xE73 JUMP JUMPDEST SWAP1 POP PUSH1 0x20 DUP2 ADD SWAP1 POP SWAP2 SWAP1 POP JUMP JUMPDEST DUP3 DUP2 DUP4 CALLDATACOPY PUSH1 0x0 DUP4 DUP4 ADD MSTORE POP POP POP JUMP JUMPDEST PUSH1 0x0 PUSH2 0xF52 PUSH2 0xF4D DUP5 PUSH2 0xEFF JUMP JUMPDEST PUSH2 0xEE4 JUMP JUMPDEST SWAP1 POP DUP3 DUP2 MSTORE PUSH1 0x20 DUP2 ADD DUP5 DUP5 DUP5 ADD GT ISZERO PUSH2 0xF6E JUMPI PUSH2 0xF6D PUSH2 0xE6E JUMP JUMPDEST JUMPDEST PUSH2 0xF79 DUP5 DUP3 DUP6 PUSH2 0xF30 JUMP JUMPDEST POP SWAP4 SWAP3 POP POP POP JUMP JUMPDEST PUSH1 0x0 DUP3 PUSH1 0x1F DUP4 ADD SLT PUSH2 0xF96 JUMPI PUSH2 0xF95 PUSH2 0xCC7 JUMP JUMPDEST JUMPDEST DUP2 CALLDATALOAD PUSH2 0xFA6 DUP5 DUP3 PUSH1 0x20 DUP7 ADD PUSH2 0xF3F JUMP JUMPDEST SWAP2 POP POP SWAP3 SWAP2 POP POP JUMP JUMPDEST PUSH1 0x0 DUP1 PUSH1 0x40 DUP4 DUP6 SUB SLT ISZERO PUSH2 0xFC6 JUMPI PUSH2 0xFC5 PUSH2 0xCBD JUMP JUMPDEST JUMPDEST PUSH1 0x0 PUSH2 0xFD4 DUP6 DUP3 DUP7 ADD PUSH2 0xDF6 JUMP JUMPDEST SWAP3 POP POP PUSH1 0x20 DUP4 ADD CALLDATALOAD PUSH8 0xFFFFFFFFFFFFFFFF DUP2 GT ISZERO PUSH2 0xFF5 JUMPI PUSH2 0xFF4 PUSH2 0xCC2 JUMP JUMPDEST JUMPDEST PUSH2 0x1001 DUP6 DUP3 DUP7 ADD PUSH2 0xF81 JUMP JUMPDEST SWAP2 POP POP SWAP3 POP SWAP3 SWAP1 POP JUMP JUMPDEST PUSH32 0x4E487B7100000000000000000000000000000000000000000000000000000000 PUSH1 0x0 MSTORE PUSH1 0x21 PUSH1 0x4 MSTORE PUSH1 0x24 PUSH1 0x0 REVERT JUMPDEST PUSH1 0x4 DUP2 LT PUSH2 0x104B JUMPI PUSH2 0x104A PUSH2 0x100B JUMP JUMPDEST JUMPDEST POP JUMP JUMPDEST PUSH1 0x0 DUP2 SWAP1 POP PUSH2 0x105C DUP3 PUSH2 0x103A JUMP JUMPDEST SWAP2 SWAP1 POP JUMP JUMPDEST PUSH1 0x0 PUSH2 0x106C DUP3 PUSH2 0x104E JUMP JUMPDEST SWAP1 POP SWAP2 SWAP1 POP JUMP JUMPDEST PUSH2 0x107C DUP2 PUSH2 0x1061 JUMP JUMPDEST DUP3 MSTORE POP POP JUMP JUMPDEST PUSH2 0x108B DUP2 PUSH2 0xDD5 JUMP JUMPDEST DUP3 MSTORE POP POP JUMP JUMPDEST PUSH1 0x0 PUSH1 0x60 DUP3 ADD SWAP1 POP PUSH2 0x10A6 PUSH1 0x0 DUP4 ADD DUP7 PUSH2 0xDAB JUMP JUMPDEST PUSH2 0x10B3 PUSH1 0x20 DUP4 ADD DUP6 PUSH2 0x1073 JUMP JUMPDEST PUSH2 0x10C0 PUSH1 0x40 DUP4 ADD DUP5 PUSH2 0x1082 JUMP JUMPDEST SWAP5 SWAP4 POP POP POP POP JUMP JUMPDEST PUSH1 0x0 DUP2 SWAP1 POP SWAP2 SWAP1 POP JUMP JUMPDEST PUSH2 0x10DB DUP2 PUSH2 0x10C8 JUMP JUMPDEST DUP2 EQ PUSH2 0x10E6 JUMPI PUSH1 0x0 DUP1 REVERT JUMPDEST POP JUMP JUMPDEST PUSH1 0x0 DUP2 CALLDATALOAD SWAP1 POP PUSH2 0x10F8 DUP2 PUSH2 0x10D2 JUMP JUMPDEST SWAP3 SWAP2 POP POP JUMP JUMPDEST PUSH1 0x0 PUSH1 0x20 DUP3 DUP5 SUB SLT ISZERO PUSH2 0x1114 JUMPI PUSH2 0x1113 PUSH2 0xCBD JUMP JUMPDEST JUMPDEST PUSH1 0x0 PUSH2 0x1122 DUP5 DUP3 DUP6 ADD PUSH2 0x10E9 JUMP JUMPDEST SWAP2 POP POP SWAP3 SWAP2 POP POP JUMP JUMPDEST PUSH1 0x0 PUSH1 0x20 DUP3 ADD SWAP1 POP PUSH2 0x1140 PUSH1 0x0 DUP4 ADD DUP5 PUSH2 0x1082 JUMP JUMPDEST SWAP3 SWAP2 POP POP JUMP JUMPDEST PUSH1 0x0 PUSH8 0xFFFFFFFFFFFFFFFF DUP3 AND SWAP1 POP SWAP2 SWAP1 POP JUMP JUMPDEST PUSH2 0x1163 DUP2 PUSH2 0x1146 JUMP JUMPDEST DUP2 EQ PUSH2 0x116E JUMPI PUSH1 0x0 DUP1 REVERT JUMPDEST POP JUMP JUMPDEST PUSH1 0x0 DUP2 CALLDATALOAD SWAP1 POP PUSH2 0x1180 DUP2 PUSH2 0x115A JUMP JUMPDEST SWAP3 SWAP2 POP POP JUMP JUMPDEST PUSH1 0x0 DUP1 DUP4 PUSH1 0x1F DUP5 ADD SLT PUSH2 0x119C JUMPI PUSH2 0x119B PUSH2 0xCC7 JUMP JUMPDEST JUMPDEST DUP3 CALLDATALOAD SWAP1 POP PUSH8 0xFFFFFFFFFFFFFFFF DUP2 GT ISZERO PUSH2 0x11B9 JUMPI PUSH2 0x11B8 PUSH2 0xCCC JUMP JUMPDEST JUMPDEST PUSH1 0x20 DUP4 ADD SWAP2 POP DUP4 PUSH1 0x60 DUP3 MUL DUP4 ADD GT ISZERO PUSH2 0x11D5 JUMPI PUSH2 0x11D4 PUSH2 0xCD1 JUMP JUMPDEST JUMPDEST SWAP3 POP SWAP3 SWAP1 POP JUMP JUMPDEST PUSH1 0x0 DUP1 PUSH1 0x0 DUP1 PUSH1 0x0 DUP1 PUSH1 0x80 DUP8 DUP10 SUB SLT ISZERO PUSH2 0x11F9 JUMPI PUSH2 0x11F8 PUSH2 0xCBD JUMP JUMPDEST JUMPDEST PUSH1 0x0 PUSH2 0x1207 DUP10 DUP3 DUP11 ADD PUSH2 0xDF6 JUMP JUMPDEST SWAP7 POP POP PUSH1 0x20 PUSH2 0x1218 DUP10 DUP3 DUP11 ADD PUSH2 0x1171 JUMP JUMPDEST SWAP6 POP POP PUSH1 0x40 DUP8 ADD CALLDATALOAD PUSH8 0xFFFFFFFFFFFFFFFF DUP2 GT ISZERO PUSH2 0x1239 JUMPI PUSH2 0x1238 PUSH2 0xCC2 JUMP JUMPDEST JUMPDEST PUSH2 0x1245 DUP10 DUP3 DUP11 ADD PUSH2 0xCD6 JUMP JUMPDEST SWAP5 POP SWAP5 POP POP PUSH1 0x60 DUP8 ADD CALLDATALOAD PUSH8 0xFFFFFFFFFFFFFFFF DUP2 GT ISZERO PUSH2 0x1268 JUMPI PUSH2 0x1267 PUSH2 0xCC2 JUMP JUMPDEST JUMPDEST PUSH2 0x1274 DUP10 DUP3 DUP11 ADD PUSH2 0x1186 JUMP JUMPDEST SWAP3 POP SWAP3 POP POP SWAP3 SWAP6 POP SWAP3 SWAP6 POP SWAP3 SWAP6 JUMP JUMPDEST PUSH2 0x128C DUP2 PUSH2 0x10C8 JUMP JUMPDEST DUP3 MSTORE POP POP JUMP JUMPDEST PUSH1 0x0 PUSH1 0x20 DUP3 ADD SWAP1 POP PUSH2 0x12A7 PUSH1 0x0 DUP4 ADD DUP5 PUSH2 0x1283 JUMP JUMPDEST SWAP3 SWAP2 POP POP JUMP JUMPDEST PUSH1 0x0 DUP1 REVERT JUMPDEST PUSH1 0x0 PUSH1 0xC0 DUP3 DUP5 SUB SLT ISZERO PUSH2 0x12C8 JUMPI PUSH2 0x12C7 PUSH2 0x12AD JUMP JUMPDEST JUMPDEST DUP2 SWAP1 POP SWAP3 SWAP2 POP POP JUMP JUMPDEST PUSH1 0x0 DUP1 PUSH1 0x0 DUP1 PUSH1 0x0 PUSH1 0x60 DUP7 DUP9 SUB SLT ISZERO PUSH2 0x12ED JUMPI PUSH2 0x12EC PUSH2 0xCBD JUMP JUMPDEST JUMPDEST PUSH1 0x0 DUP7 ADD CALLDATALOAD PUSH8 0xFFFFFFFFFFFFFFFF DUP2 GT ISZERO PUSH2 0x130B JUMPI PUSH2 0x130A PUSH2 0xCC2 JUMP JUMPDEST JUMPDEST PUSH2 0x1317 DUP9 DUP3 DUP10 ADD PUSH2 0x12B2 JUMP JUMPDEST SWAP6 POP POP PUSH1 0x20 DUP7 ADD CALLDATALOAD PUSH8 0xFFFFFFFFFFFFFFFF DUP2 GT ISZERO PUSH2 0x1338 JUMPI PUSH2 0x1337 PUSH2 0xCC2 JUMP JUMPDEST JUMPDEST PUSH2 0x1344 DUP9 DUP3 DUP10 ADD PUSH2 0xCD6 JUMP JUMPDEST SWAP5 POP SWAP5 POP POP PUSH1 0x40 DUP7 ADD CALLDATALOAD PUSH8 0xFFFFFFFFFFFFFFFF DUP2 GT ISZERO PUSH2 0x1367 JUMPI PUSH2 0x1366 PUSH2 0xCC2 JUMP JUMPDEST JUMPDEST PUSH2 0x1373 DUP9 DUP3 DUP10 ADD PUSH2 0x1186 JUMP JUMPDEST SWAP3 POP SWAP3 POP POP SWAP3 SWAP6 POP SWAP3 SWAP6 SWAP1 SWAP4 POP JUMP JUMPDEST PUSH32 0x4E487B7100000000000000000000000000000000000000000000000000000000 PUSH1 0x0 MSTORE PUSH1 0x32 PUSH1 0x4 MSTORE PUSH1 0x24 PUSH1 0x0 REVERT JUMPDEST PUSH2 0x13BA DUP2 PUSH2 0xD99 JUMP JUMPDEST DUP2 EQ PUSH2 0x13C5 JUMPI PUSH1 0x0 DUP1 REVERT JUMPDEST POP JUMP JUMPDEST PUSH1 0x0 DUP2 CALLDATALOAD SWAP1 POP PUSH2 0x13D7 DUP2 PUSH2 0x13B1 JUMP JUMPDEST SWAP3 SWAP2 POP POP JUMP JUMPDEST PUSH1 0x0 PUSH1 0x20 DUP3 DUP5 SUB SLT ISZERO PUSH2 0x13F3 JUMPI PUSH2 0x13F2 PUSH2 0xCBD JUMP JUMPDEST JUMPDEST PUSH1 0x0 PUSH2 0x1401 DUP5 DUP3 DUP6 ADD PUSH2 0x13C8 JUMP JUMPDEST SWAP2 POP POP SWAP3 SWAP2 POP POP JUMP JUMPDEST PUSH32 0x4E487B7100000000000000000000000000000000000000000000000000000000 PUSH1 0x0 MSTORE PUSH1 0x11 PUSH1 0x4 MSTORE PUSH1 0x24 PUSH1 0x0 REVERT JUMPDEST PUSH1 0x0 PUSH2 0x1444 DUP3 PUSH2 0x10C8 JUMP JUMPDEST SWAP2 POP PUSH32 0xFFFFFFFFFFFFFFFFFFFFFFFFFFFFFFFFFFFFFFFFFFFFFFFFFFFFFFFFFFFFFFFF DUP3 SUB PUSH2 0x1476 JUMPI PUSH2 0x1475 PUSH2 0x140A JUMP JUMPDEST JUMPDEST PUSH1 0x1 DUP3 ADD SWAP1 POP SWAP2 SWAP1 POP JUMP JUMPDEST PUSH1 0x0 DUP2 SWAP1 POP SWAP2 SWAP1 POP JUMP JUMPDEST PUSH1 0x0 PUSH2 0x14A6 PUSH2 0x14A1 PUSH2 0x149C DUP5 PUSH2 0x1146 JUMP JUMPDEST PUSH2 0x1481 JUMP JUMPDEST PUSH2 0x10C8 JUMP JUMPDEST SWAP1 POP SWAP2 SWAP1 POP JUMP JUMPDEST PUSH2 0x14B6 DUP2 PUSH2 0x148B JUMP JUMPDEST DUP3 MSTORE POP POP JUMP JUMPDEST PUSH1 0x0 PUSH1 0x40 DUP3 ADD SWAP1 POP PUSH2 0x14D1 PUSH1 0x0 DUP4 ADD DUP6 PUSH2 0x14AD JUMP JUMPDEST PUSH2 0x14DE PUSH1 0x20 DUP4 ADD DUP5 PUSH2 0x1082 JUMP JUMPDEST SWAP4 SWAP3 POP POP POP JUMP JUMPDEST PUSH1 0x0 DUP3 DUP3 MSTORE PUSH1 0x20 DUP3 ADD SWAP1 POP SWAP3 SWAP2 POP POP JUMP JUMPDEST PUSH1 0x0 DUP2 SWAP1 POP SWAP2 SWAP1 POP JUMP JUMPDEST PUSH1 0x0 PUSH2 0x150F PUSH1 0x20 DUP5 ADD DUP5 PUSH2 0x13C8 JUMP JUMPDEST SWAP1 POP SWAP3 SWAP2 POP POP JUMP JUMPDEST PUSH2 0x1520 DUP2 PUSH2 0xD99 JUMP JUMPDEST DUP3 MSTORE POP POP JUMP JUMPDEST PUSH1 0x0 PUSH2 0x1535 PUSH1 0x20 DUP5 ADD DUP5 PUSH2 0x10E9 JUMP JUMPDEST SWAP1 POP SWAP3 SWAP2 POP POP JUMP JUMPDEST PUSH2 0x1546 DUP2 PUSH2 0x10C8 JUMP JUMPDEST DUP3 MSTORE POP POP JUMP JUMPDEST PUSH1 0x40 DUP3 ADD PUSH2 0x155D PUSH1 0x0 DUP4 ADD DUP4 PUSH2 0x1500 JUMP JUMPDEST PUSH2 0x156A PUSH1 0x0 DUP6 ADD DUP3 PUSH2 0x1517 JUMP JUMPDEST POP PUSH2 0x1578 PUSH1 0x20 DUP4 ADD DUP4 PUSH2 0x1526 JUMP JUMPDEST PUSH2 0x1585 PUSH1 0x20 DUP6 ADD DUP3 PUSH2 0x153D JUMP JUMPDEST POP POP POP POP JUMP JUMPDEST PUSH1 0x0 PUSH2 0x1597 DUP4 DUP4 PUSH2 0x154C JUMP JUMPDEST PUSH1 0x40 DUP4 ADD SWAP1 POP SWAP3 SWAP2 POP POP JUMP JUMPDEST PUSH1 0x0 DUP3 SWAP1 POP SWAP3 SWAP2 POP POP JUMP JUMPDEST PUSH1 0x0 PUSH1 0x40 DUP3 ADD SWAP1 POP SWAP2 SWAP1 POP JUMP JUMPDEST PUSH1 0x0 PUSH2 0x15C7 DUP4 DUP6 PUSH2 0x14E5 JUMP JUMPDEST SWAP4 POP PUSH2 0x15D2 DUP3 PUSH2 0x14F6 JUMP JUMPDEST DUP1 PUSH1 0x0 JUMPDEST DUP6 DUP2 LT ISZERO PUSH2 0x160B JUMPI PUSH2 0x15E8 DUP3 DUP5 PUSH2 0x15A3 JUMP JUMPDEST PUSH2 0x15F2 DUP9 DUP3 PUSH2 0x158B JUMP JUMPDEST SWAP8 POP PUSH2 0x15FD DUP4 PUSH2 0x15AE JUMP JUMPDEST SWAP3 POP POP PUSH1 0x1 DUP2 ADD SWAP1 POP PUSH2 0x15D6 JUMP JUMPDEST POP DUP6 SWAP3 POP POP POP SWAP4 SWAP3 POP POP POP JUMP JUMPDEST PUSH1 0x0 PUSH1 0x20 DUP3 ADD SWAP1 POP DUP2 DUP2 SUB PUSH1 0x0 DUP4 ADD MSTORE PUSH2 0x1633 DUP2 DUP5 DUP7 PUSH2 0x15BB JUMP JUMPDEST SWAP1 POP SWAP4 SWAP3 POP POP POP JUMP JUMPDEST PUSH1 0x0 PUSH1 0x80 DUP3 ADD SWAP1 POP PUSH2 0x1651 PUSH1 0x0 DUP4 ADD DUP8 PUSH2 0x1082 JUMP JUMPDEST PUSH2 0x165E PUSH1 0x20 DUP4 ADD DUP7 PUSH2 0x1283 JUMP JUMPDEST PUSH2 0x166B PUSH1 0x40 DUP4 ADD DUP6 PUSH2 0x1283 JUMP JUMPDEST PUSH2 0x1678 PUSH1 0x60 DUP4 ADD DUP5 PUSH2 0x1082 JUMP JUMPDEST SWAP6 SWAP5 POP POP POP POP POP JUMP JUMPDEST PUSH1 0x0 PUSH1 0xFF DUP3 AND SWAP1 POP SWAP2 SWAP1 POP JUMP JUMPDEST PUSH2 0x1697 DUP2 PUSH2 0x1681 JUMP JUMPDEST DUP2 EQ PUSH2 0x16A2 JUMPI PUSH1 0x0 DUP1 REVERT JUMPDEST POP JUMP JUMPDEST PUSH1 0x0 DUP2 CALLDATALOAD SWAP1 POP PUSH2 0x16B4 DUP2 PUSH2 0x168E JUMP JUMPDEST SWAP3 SWAP2 POP POP JUMP JUMPDEST PUSH1 0x0 PUSH1 0x20 DUP3 DUP5 SUB SLT ISZERO PUSH2 0x16D0 JUMPI PUSH2 0x16CF PUSH2 0xCBD JUMP JUMPDEST JUMPDEST PUSH1 0x0 PUSH2 0x16DE DUP5 DUP3 DUP6 ADD PUSH2 0x16A5 JUMP JUMPDEST SWAP2 POP POP SWAP3 SWAP2 POP POP JUMP JUMPDEST PUSH1 0x0 PUSH2 0x16F2 DUP3 PUSH2 0x10C8 JUMP JUMPDEST SWAP2 POP PUSH2 0x16FD DUP4 PUSH2 0x10C8 JUMP JUMPDEST SWAP3 POP DUP3 DUP3 ADD SWAP1 POP DUP1 DUP3 GT ISZERO PUSH2 0x1715 JUMPI PUSH2 0x1714 PUSH2 0x140A JUMP JUMPDEST JUMPDEST SWAP3 SWAP2 POP POP JUMP JUMPDEST PUSH1 0x0 DUP1 REVERT JUMPDEST PUSH1 0x0 DUP1 REVERT JUMPDEST PUSH1 0x0 DUP1 REVERT JUMPDEST PUSH1 0x0 DUP3 CALLDATALOAD PUSH1 0x1 PUSH1 0x60 SUB DUP4 CALLDATASIZE SUB SUB DUP2 SLT PUSH2 0x1746 JUMPI PUSH2 0x1745 PUSH2 0x171B JUMP JUMPDEST JUMPDEST DUP1 DUP4 ADD SWAP2 POP POP SWAP3 SWAP2 POP POP JUMP JUMPDEST PUSH1 0x0 DUP1 DUP4 CALLDATALOAD PUSH1 0x1 PUSH1 0x20 SUB DUP5 CALLDATASIZE SUB SUB DUP2 SLT PUSH2 0x176F JUMPI PUSH2 0x176E PUSH2 0x171B JUMP JUMPDEST JUMPDEST DUP1 DUP5 ADD SWAP3 POP DUP3 CALLDATALOAD SWAP2 POP PUSH8 0xFFFFFFFFFFFFFFFF DUP3 GT ISZERO PUSH2 0x1791 JUMPI PUSH2 0x1790 PUSH2 0x1720 JUMP JUMPDEST JUMPDEST PUSH1 0x20 DUP4 ADD SWAP3 POP PUSH1 0x1 DUP3 MUL CALLDATASIZE SUB DUP4 SGT ISZERO PUSH2 0x17AD JUMPI PUSH2 0x17AC PUSH2 0x1725 JUMP JUMPDEST JUMPDEST POP SWAP3 POP SWAP3 SWAP1 POP JUMP JUMPDEST PUSH1 0x0 DUP3 DUP3 MSTORE PUSH1 0x20 DUP3 ADD SWAP1 POP SWAP3 SWAP2 POP POP JUMP JUMPDEST PUSH1 0x0 PUSH2 0x17D2 DUP4 DUP6 PUSH2 0x17B5 JUMP JUMPDEST SWAP4 POP PUSH2 0x17DF DUP4 DUP6 DUP5 PUSH2 0xF30 JUMP JUMPDEST PUSH2 0x17E8 DUP4 PUSH2 0xE73 JUMP JUMPDEST DUP5 ADD SWAP1 POP SWAP4 SWAP3 POP POP POP JUMP JUMPDEST PUSH1 0x0 PUSH2 0x120 DUP3 ADD SWAP1 POP PUSH2 0x1809 PUSH1 0x0 DUP4 ADD DUP14 PUSH2 0x1082 JUMP JUMPDEST PUSH2 0x1816 PUSH1 0x20 DUP4 ADD DUP13 PUSH2 0x1082 JUMP JUMPDEST DUP2 DUP2 SUB PUSH1 0x40 DUP4 ADD MSTORE PUSH2 0x1829 DUP2 DUP11 DUP13 PUSH2 0x17C6 JUMP JUMPDEST SWAP1 POP PUSH2 0x1838 PUSH1 0x60 DUP4 ADD DUP10 PUSH2 0x1283 JUMP JUMPDEST PUSH2 0x1845 PUSH1 0x80 DUP4 ADD DUP9 PUSH2 0x1283 JUMP JUMPDEST PUSH2 0x1852 PUSH1 0xA0 DUP4 ADD DUP8 PUSH2 0x1283 JUMP JUMPDEST PUSH2 0x185F PUSH1 0xC0 DUP4 ADD DUP7 PUSH2 0x1283 JUMP JUMPDEST PUSH2 0x186C PUSH1 0xE0 DUP4 ADD DUP6 PUSH2 0x1082 JUMP JUMPDEST PUSH2 0x187A PUSH2 0x100 DUP4 ADD DUP5 PUSH2 0x1283 JUMP JUMPDEST SWAP12 SWAP11 POP POP POP POP POP POP POP POP POP POP POP JUMP JUMPDEST PUSH2 0x1892 DUP2 PUSH2 0x1681 JUMP JUMPDEST DUP3 MSTORE POP POP JUMP JUMPDEST PUSH1 0x0 PUSH1 0x80 DUP3 ADD SWAP1 POP PUSH2 0x18AD PUSH1 0x0 DUP4 ADD DUP8 PUSH2 0x1082 JUMP JUMPDEST PUSH2 0x18BA PUSH1 0x20 DUP4 ADD DUP7 PUSH2 0x1889 JUMP JUMPDEST PUSH2 0x18C7 PUSH1 0x40 DUP4 ADD DUP6 PUSH2 0x1082 JUMP JUMPDEST PUSH2 0x18D4 PUSH1 0x60 DUP4 ADD DUP5 PUSH2 0x1082 JUMP JUMPDEST SWAP6 SWAP5 POP POP POP POP POP JUMP JUMPDEST PUSH32 0x4E487B7100000000000000000000000000000000000000000000000000000000 PUSH1 0x0 MSTORE PUSH1 0x51 PUSH1 0x4 MSTORE PUSH1 0x24 PUSH1 0x0 REVERT INVALID LOG2 PUSH5 0x6970667358 0x22 SLT KECCAK256 0xA5 0xA9 0xE0 DIV 0xC2 SWAP15 SHL SELFBALANCE PUSH25 0x67C631E6857435F7F9D3800DD9FB8446D4AB2000B686E16473 PUSH16 0x6C634300081600330000000000000000 "},"methodIdentifiers":{"currentRelayedBlockHeight()":"d8256ec7","deleteThisInputValSet((address,uint256)[])":"2abafff2","isOracleRoot(bytes32)":"31b53e52","lastValidatorSetCheckpoint()":"af082a7d","oracleRoots(uint256)":"91f6b44b","powerThreshold()":"ba95ec27","toEthSignedMessageHashPublic(bytes32)":"adf9a276","tryRecoverPublic(bytes32,bytes)":"4bf05a09","updateValidatorSet(bytes32,uint64,(address,uint256)[],(uint8,bytes32,bytes32)[])":"93319d6e","validatorNonce()":"e17a684f","verifyOracleData((bytes32,(bytes,uint256,uint256),uint256,uint256,bytes32,uint256),(address,uint256)[],(uint8,bytes32,bytes32)[])":"cb908d52"}}}}}