{"contracts/bridge/BlobstreamO.sol":{"BlobstreamO":{"abi":[{"inputs":[{"internalType":"uint256","name":"_nonce","type":"uint256"},{"internalType":"uint256","name":"_powerThreshold","type":"uint256"},{"internalType":"uint256","name":"_validatorTimestamp","type":"uint256"},{"internalType":"uint256","name":"_unbondingPeriod","type":"uint256"},{"internalType":"bytes32","name":"_validatorSetCheckpoint","type":"bytes32"}],"stateMutability":"nonpayable","type":"constructor"},{"inputs":[],"name":"ECDSAInvalidSignature","type":"error"},{"inputs":[{"internalType":"uint256","name":"length","type":"uint256"}],"name":"ECDSAInvalidSignatureLength","type":"error"},{"inputs":[{"internalType":"bytes32","name":"s","type":"bytes32"}],"name":"ECDSAInvalidSignatureS","type":"error"},{"inputs":[],"name":"InsufficientVotingPower","type":"error"},{"inputs":[],"name":"InvalidSignature","type":"error"},{"inputs":[],"name":"InvalidValidatorSetNonce","type":"error"},{"inputs":[],"name":"MalformedCurrentValidatorSet","type":"error"},{"inputs":[],"name":"NotGuardian","type":"error"},{"inputs":[],"name":"StaleValidatorSet","type":"error"},{"inputs":[],"name":"SuppliedValidatorSetInvalid","type":"error"},{"inputs":[],"name":"ValidatorSetNotStale","type":"error"},{"anonymous":false,"inputs":[{"indexed":true,"internalType":"uint256","name":"_nonce","type":"uint256"},{"indexed":false,"internalType":"uint256","name":"_powerThreshold","type":"uint256"},{"indexed":false,"internalType":"bytes32","name":"_validatorSetHash","type":"bytes32"}],"name":"ValidatorSetUpdated","type":"event"},{"inputs":[],"name":"guardian","outputs":[{"internalType":"address","name":"","type":"address"}],"stateMutability":"view","type":"function"},{"inputs":[{"internalType":"uint256","name":"_nonce","type":"uint256"},{"internalType":"uint256","name":"_powerThreshold","type":"uint256"},{"internalType":"uint256","name":"_validatorTimestamp","type":"uint256"},{"internalType":"bytes32","name":"_validatorSetCheckpoint","type":"bytes32"}],"name":"guardianResetValidatorSet","outputs":[],"stateMutability":"nonpayable","type":"function"},{"inputs":[],"name":"lastValidatorSetCheckpoint","outputs":[{"internalType":"bytes32","name":"","type":"bytes32"}],"stateMutability":"view","type":"function"},{"inputs":[],"name":"powerThreshold","outputs":[{"internalType":"uint256","name":"","type":"uint256"}],"stateMutability":"view","type":"function"},{"inputs":[],"name":"unbondingPeriod","outputs":[{"internalType":"uint256","name":"","type":"uint256"}],"stateMutability":"view","type":"function"},{"inputs":[{"internalType":"bytes32","name":"_newValidatorSetHash","type":"bytes32"},{"internalType":"uint64","name":"_newPowerThreshold","type":"uint64"},{"internalType":"uint256","name":"_newValidatorTimestamp","type":"uint256"},{"components":[{"internalType":"address","name":"addr","type":"address"},{"internalType":"uint256","name":"power","type":"uint256"}],"internalType":"struct Validator[]","name":"_currentValidatorSet","type":"tuple[]"},{"components":[{"internalType":"uint8","name":"v","type":"uint8"},{"internalType":"bytes32","name":"r","type":"bytes32"},{"internalType":"bytes32","name":"s","type":"bytes32"}],"internalType":"struct Signature[]","name":"_sigs","type":"tuple[]"}],"name":"updateValidatorSet","outputs":[],"stateMutability":"nonpayable","type":"function"},{"inputs":[],"name":"validatorNonce","outputs":[{"internalType":"uint256","name":"","type":"uint256"}],"stateMutability":"view","type":"function"},{"inputs":[],"name":"validatorTimestamp","outputs":[{"internalType":"uint256","name":"","type":"uint256"}],"stateMutability":"view","type":"function"},{"inputs":[{"components":[{"internalType":"bytes32","name":"queryId","type":"bytes32"},{"components":[{"internalType":"bytes","name":"value","type":"bytes"},{"internalType":"uint256","name":"timestamp","type":"uint256"},{"internalType":"uint256","name":"consensusThreshold","type":"uint256"}],"internalType":"struct ReportData","name":"report","type":"tuple"},{"internalType":"uint256","name":"validatorNonce","type":"uint256"},{"internalType":"uint256","name":"powerThreshold","type":"uint256"},{"internalType":"bytes32","name":"validatorSetHash","type":"bytes32"},{"internalType":"uint256","name":"blockTimestamp","type":"uint256"}],"internalType":"struct OracleAttestationData","name":"_attest","type":"tuple"},{"components":[{"internalType":"address","name":"addr","type":"address"},{"internalType":"uint256","name":"power","type":"uint256"}],"internalType":"struct Validator[]","name":"_currentValidatorSet","type":"tuple[]"},{"components":[{"internalType":"uint8","name":"v","type":"uint8"},{"internalType":"bytes32","name":"r","type":"bytes32"},{"internalType":"bytes32","name":"s","type":"bytes32"}],"internalType":"struct Signature[]","name":"_sigs","type":"tuple[]"}],"name":"verifyOracleData","outputs":[{"internalType":"bool","name":"","type":"bool"}],"stateMutability":"view","type":"function"}],"evm":{"bytecode":{"linkReferences":{},"object":"60806040523480156200001157600080fd5b5060405162001774380380620017748339818101604052810190620000379190620000e0565b8460028190555083600181905550826003819055508160048190555080600081905550505050505062000168565b600080fd5b6000819050919050565b6200007f816200006a565b81146200008b57600080fd5b50565b6000815190506200009f8162000074565b92915050565b6000819050919050565b620000ba81620000a5565b8114620000c657600080fd5b50565b600081519050620000da81620000af565b92915050565b600080600080600060a08688031215620000ff57620000fe62000065565b5b60006200010f888289016200008e565b955050602062000122888289016200008e565b945050604062000135888289016200008e565b935050606062000148888289016200008e565b92505060806200015b88828901620000c9565b9150509295509295909350565b6115fc80620001786000396000f3fe608060405234801561001057600080fd5b50600436106100935760003560e01c806384330d4c1161006657806384330d4c1461010e578063af082a7d1461012a578063ba95ec2714610148578063cb908d5214610166578063e17a684f1461019657610093565b80633acb764614610098578063452a9320146100b45780634f76f1ee146100d25780636cf6d675146100f0575b600080fd5b6100b260048036038101906100ad9190610c01565b6101b4565b005b6100bc6102a6565b6040516100c99190610ca9565b60405180910390f35b6100da6102cc565b6040516100e79190610cd3565b60405180910390f35b6100f86102d2565b6040516101059190610cd3565b60405180910390f35b61012860048036038101906101239190610de9565b6102d8565b005b610132610414565b60405161013f9190610eb4565b60405180910390f35b61015061041a565b60405161015d9190610cd3565b60405180910390f35b610180600480360381019061017b9190610ef3565b610420565b60405161018d9190610fbf565b60405180910390f35b61019e610526565b6040516101ab9190610cd3565b60405180910390f35b600560009054906101000a900473ffffffffffffffffffffffffffffffffffffffff1673ffffffffffffffffffffffffffffffffffffffff163373ffffffffffffffffffffffffffffffffffffffff161461023b576040517fef6d0f0200000000000000000000000000000000000000000000000000000000815260040160405180910390fd5b6004546003544261024c9190611009565b1015610284576040517f1c36ced200000000000000000000000000000000000000000000000000000000815260040160405180910390fd5b8360028190555082600181905550816003819055508060008190555050505050565b600560009054906101000a900473ffffffffffffffffffffffffffffffffffffffff1681565b60035481565b60045481565b818190508484905014610317576040517fc6617b7b00000000000000000000000000000000000000000000000000000000815260040160405180910390fd5b6000610323858561052c565b905060005461033a6002546001546003548561055f565b14610371576040517f177b5d9200000000000000000000000000000000000000000000000000000000815260040160405180910390fd5b600061038b6002548967ffffffffffffffff16898c61055f565b905061039d86868686856001546105bd565b806000819055508767ffffffffffffffff16600181905550600260008154809291906103c89061103d565b91905055506002547fe304b71f81a1aaf6d714401de28ba1ebdbb5ff9c5fee59ef2a6eb984f9e8da7e898b6040516104019291906110c0565b60405180910390a2505050505050505050565b60005481565b60015481565b6000828290508585905014610461576040517fc6617b7b00000000000000000000000000000000000000000000000000000000815260040160405180910390fd5b600061046d868661052c565b90506000546104846002546001546003548561055f565b146104bb576040517f177b5d9200000000000000000000000000000000000000000000000000000000815260040160405180910390fd5b6002548760400135146104fa576040517fd146bffa00000000000000000000000000000000000000000000000000000000815260040160405180910390fd5b6000610505886107a5565b905061051787878787856001546105bd565b60019250505095945050505050565b60025481565b60008282604051602001610541929190611248565b60405160208183030381529060405280519060200120905092915050565b60007f636865636b706f696e740000000000000000000000000000000000000000000060001b8585858560405160200161059d95949392919061126c565b604051602081830303815290604052805190602001209050949350505050565b600454600354426105ce9190611009565b1115610606576040517fe5e5e46400000000000000000000000000000000000000000000000000000000815260040160405180910390fd5b6000805b87879050811015610761576000801b86868381811061062c5761062b6112bf565b5b9050606002016020013514801561066157506000801b868683818110610655576106546112bf565b5b90506060020160400135145b801561069a5750600086868381811061067d5761067c6112bf565b5b90506060020160000160208101906106959190611327565b60ff16145b610754576106eb8888838181106106b4576106b36112bf565b5b90506040020160000160208101906106cc9190611354565b858888858181106106e0576106df6112bf565b5b905060600201610861565b610721576040517f8baa579f00000000000000000000000000000000000000000000000000000000815260040160405180910390fd5b878782818110610734576107336112bf565b5b90506040020160200135826107499190611381565b915082821015610761575b808060010191505061060a565b508181101561079c576040517fcabeb65500000000000000000000000000000000000000000000000000000000815260040160405180910390fd5b50505050505050565b60007f74656c6c6f7243757272656e744174746573746174696f6e000000000000000060001b82600001358380602001906107e091906113c4565b80600001906107ef91906113ec565b8580602001906107ff91906113c4565b6020013586806020019061081391906113c4565b604001358760400135886060013589608001358a60a001356040516020016108449a999897969594939291906114ad565b604051602081830303815290604052805190602001209050919050565b60008061086d846108cd565b9050610895818460000160208101906108869190611327565b85602001358660400135610903565b73ffffffffffffffffffffffffffffffffffffffff168573ffffffffffffffffffffffffffffffffffffffff16149150509392505050565b60007f19457468657265756d205369676e6564204d6573736167653a0a33320000000060005281601c52603c6000209050919050565b60008060008061091588888888610933565b9250925092506109258282610a27565b829350505050949350505050565b60008060007f7fffffffffffffffffffffffffffffff5d576e7357a4501ddfe92f46681b20a08460001c1115610973576000600385925092509250610a1d565b6000600188888888604051600081526020016040526040516109989493929190611552565b6020604051602081039080840390855afa1580156109ba573d6000803e3d6000fd5b505050602060405103519050600073ffffffffffffffffffffffffffffffffffffffff168173ffffffffffffffffffffffffffffffffffffffff1603610a0e57600060016000801b93509350935050610a1d565b8060008060001b935093509350505b9450945094915050565b60006003811115610a3b57610a3a611597565b5b826003811115610a4e57610a4d611597565b5b0315610b875760016003811115610a6857610a67611597565b5b826003811115610a7b57610a7a611597565b5b03610ab2576040517ff645eedf00000000000000000000000000000000000000000000000000000000815260040160405180910390fd5b60026003811115610ac657610ac5611597565b5b826003811115610ad957610ad8611597565b5b03610b1e578060001c6040517ffce698f7000000000000000000000000000000000000000000000000000000008152600401610b159190610cd3565b60405180910390fd5b600380811115610b3157610b30611597565b5b826003811115610b4457610b43611597565b5b03610b8657806040517fd78bce0c000000000000000000000000000000000000000000000000000000008152600401610b7d9190610eb4565b60405180910390fd5b5b5050565b600080fd5b600080fd5b6000819050919050565b610ba881610b95565b8114610bb357600080fd5b50565b600081359050610bc581610b9f565b92915050565b6000819050919050565b610bde81610bcb565b8114610be957600080fd5b50565b600081359050610bfb81610bd5565b92915050565b60008060008060808587031215610c1b57610c1a610b8b565b5b6000610c2987828801610bb6565b9450506020610c3a87828801610bb6565b9350506040610c4b87828801610bb6565b9250506060610c5c87828801610bec565b91505092959194509250565b600073ffffffffffffffffffffffffffffffffffffffff82169050919050565b6000610c9382610c68565b9050919050565b610ca381610c88565b82525050565b6000602082019050610cbe6000830184610c9a565b92915050565b610ccd81610b95565b82525050565b6000602082019050610ce86000830184610cc4565b92915050565b600067ffffffffffffffff82169050919050565b610d0b81610cee565b8114610d1657600080fd5b50565b600081359050610d2881610d02565b92915050565b600080fd5b600080fd5b600080fd5b60008083601f840112610d5357610d52610d2e565b5b8235905067ffffffffffffffff811115610d7057610d6f610d33565b5b602083019150836040820283011115610d8c57610d8b610d38565b5b9250929050565b60008083601f840112610da957610da8610d2e565b5b8235905067ffffffffffffffff811115610dc657610dc5610d33565b5b602083019150836060820283011115610de257610de1610d38565b5b9250929050565b600080600080600080600060a0888a031215610e0857610e07610b8b565b5b6000610e168a828b01610bec565b9750506020610e278a828b01610d19565b9650506040610e388a828b01610bb6565b955050606088013567ffffffffffffffff811115610e5957610e58610b90565b5b610e658a828b01610d3d565b9450945050608088013567ffffffffffffffff811115610e8857610e87610b90565b5b610e948a828b01610d93565b925092505092959891949750929550565b610eae81610bcb565b82525050565b6000602082019050610ec96000830184610ea5565b92915050565b600080fd5b600060c08284031215610eea57610ee9610ecf565b5b81905092915050565b600080600080600060608688031215610f0f57610f0e610b8b565b5b600086013567ffffffffffffffff811115610f2d57610f2c610b90565b5b610f3988828901610ed4565b955050602086013567ffffffffffffffff811115610f5a57610f59610b90565b5b610f6688828901610d3d565b9450945050604086013567ffffffffffffffff811115610f8957610f88610b90565b5b610f9588828901610d93565b92509250509295509295909350565b60008115159050919050565b610fb981610fa4565b82525050565b6000602082019050610fd46000830184610fb0565b92915050565b7f4e487b7100000000000000000000000000000000000000000000000000000000600052601160045260246000fd5b600061101482610b95565b915061101f83610b95565b925082820390508181111561103757611036610fda565b5b92915050565b600061104882610b95565b91507fffffffffffffffffffffffffffffffffffffffffffffffffffffffffffffffff820361107a57611079610fda565b5b600182019050919050565b6000819050919050565b60006110aa6110a56110a084610cee565b611085565b610b95565b9050919050565b6110ba8161108f565b82525050565b60006040820190506110d560008301856110b1565b6110e26020830184610ea5565b9392505050565b600082825260208201905092915050565b6000819050919050565b61110d81610c88565b811461111857600080fd5b50565b60008135905061112a81611104565b92915050565b600061113f602084018461111b565b905092915050565b61115081610c88565b82525050565b60006111656020840184610bb6565b905092915050565b61117681610b95565b82525050565b6040820161118d6000830183611130565b61119a6000850182611147565b506111a86020830183611156565b6111b5602085018261116d565b50505050565b60006111c7838361117c565b60408301905092915050565b600082905092915050565b6000604082019050919050565b60006111f783856110e9565b9350611202826110fa565b8060005b8581101561123b5761121882846111d3565b61122288826111bb565b975061122d836111de565b925050600181019050611206565b5085925050509392505050565b600060208201905081810360008301526112638184866111eb565b90509392505050565b600060a0820190506112816000830188610ea5565b61128e6020830187610cc4565b61129b6040830186610cc4565b6112a86060830185610cc4565b6112b56080830184610ea5565b9695505050505050565b7f4e487b7100000000000000000000000000000000000000000000000000000000600052603260045260246000fd5b600060ff82169050919050565b611304816112ee565b811461130f57600080fd5b50565b600081359050611321816112fb565b92915050565b60006020828403121561133d5761133c610b8b565b5b600061134b84828501611312565b91505092915050565b60006020828403121561136a57611369610b8b565b5b60006113788482850161111b565b91505092915050565b600061138c82610b95565b915061139783610b95565b92508282019050808211156113af576113ae610fda565b5b92915050565b600080fd5b600080fd5b600080fd5b6000823560016060038336030381126113e0576113df6113b5565b5b80830191505092915050565b60008083356001602003843603038112611409576114086113b5565b5b80840192508235915067ffffffffffffffff82111561142b5761142a6113ba565b5b602083019250600182023603831315611447576114466113bf565b5b509250929050565b600082825260208201905092915050565b82818337600083830152505050565b6000601f19601f8301169050919050565b600061148c838561144f565b9350611499838584611460565b6114a28361146f565b840190509392505050565b6000610120820190506114c3600083018d610ea5565b6114d0602083018c610ea5565b81810360408301526114e3818a8c611480565b90506114f26060830189610cc4565b6114ff6080830188610cc4565b61150c60a0830187610cc4565b61151960c0830186610cc4565b61152660e0830185610ea5565b611534610100830184610cc4565b9b9a5050505050505050505050565b61154c816112ee565b82525050565b60006080820190506115676000830187610ea5565b6115746020830186611543565b6115816040830185610ea5565b61158e6060830184610ea5565b95945050505050565b7f4e487b7100000000000000000000000000000000000000000000000000000000600052602160045260246000fdfea264697066735822122065d3c310dd87664a02b4e2c451d38c967a77353a1ddb92f66b0a0649dc448ce364736f6c63430008160033","opcodes":"PUSH1 0x80 PUSH1 0x40 MSTORE CALLVALUE DUP1 ISZERO PUSH3 0x11 JUMPI PUSH1 0x0 DUP1 REVERT JUMPDEST POP PUSH1 0x40 MLOAD PUSH3 0x1774 CODESIZE SUB DUP1 PUSH3 0x1774 DUP4 CODECOPY DUP2 DUP2 ADD PUSH1 0x40 MSTORE DUP2 ADD SWAP1 PUSH3 0x37 SWAP2 SWAP1 PUSH3 0xE0 JUMP JUMPDEST DUP5 PUSH1 0x2 DUP2 SWAP1 SSTORE POP DUP4 PUSH1 0x1 DUP2 SWAP1 SSTORE POP DUP3 PUSH1 0x3 DUP2 SWAP1 SSTORE POP DUP2 PUSH1 0x4 DUP2 SWAP1 SSTORE POP DUP1 PUSH1 0x0 DUP2 SWAP1 SSTORE POP POP POP POP POP POP PUSH3 0x168 JUMP JUMPDEST PUSH1 0x0 DUP1 REVERT JUMPDEST PUSH1 0x0 DUP2 SWAP1 POP SWAP2 SWAP1 POP JUMP JUMPDEST PUSH3 0x7F DUP2 PUSH3 0x6A JUMP JUMPDEST DUP2 EQ PUSH3 0x8B JUMPI PUSH1 0x0 DUP1 REVERT JUMPDEST POP JUMP JUMPDEST PUSH1 0x0 DUP2 MLOAD SWAP1 POP PUSH3 0x9F DUP2 PUSH3 0x74 JUMP JUMPDEST SWAP3 SWAP2 POP POP JUMP JUMPDEST PUSH1 0x0 DUP2 SWAP1 POP SWAP2 SWAP1 POP JUMP JUMPDEST PUSH3 0xBA DUP2 PUSH3 0xA5 JUMP JUMPDEST DUP2 EQ PUSH3 0xC6 JUMPI PUSH1 0x0 DUP1 REVERT JUMPDEST POP JUMP JUMPDEST PUSH1 0x0 DUP2 MLOAD SWAP1 POP PUSH3 0xDA DUP2 PUSH3 0xAF JUMP JUMPDEST SWAP3 SWAP2 POP POP JUMP JUMPDEST PUSH1 0x0 DUP1 PUSH1 0x0 DUP1 PUSH1 0x0 PUSH1 0xA0 DUP7 DUP9 SUB SLT ISZERO PUSH3 0xFF JUMPI PUSH3 0xFE PUSH3 0x65 JUMP JUMPDEST JUMPDEST PUSH1 0x0 PUSH3 0x10F DUP9 DUP3 DUP10 ADD PUSH3 0x8E JUMP JUMPDEST SWAP6 POP POP PUSH1 0x20 PUSH3 0x122 DUP9 DUP3 DUP10 ADD PUSH3 0x8E JUMP JUMPDEST SWAP5 POP POP PUSH1 0x40 PUSH3 0x135 DUP9 DUP3 DUP10 ADD PUSH3 0x8E JUMP JUMPDEST SWAP4 POP POP PUSH1 0x60 PUSH3 0x148 DUP9 DUP3 DUP10 ADD PUSH3 0x8E JUMP JUMPDEST SWAP3 POP POP PUSH1 0x80 PUSH3 0x15B DUP9 DUP3 DUP10 ADD PUSH3 0xC9 JUMP JUMPDEST SWAP2 POP POP SWAP3 SWAP6 POP SWAP3 SWAP6 SWAP1 SWAP4 POP JUMP JUMPDEST PUSH2 0x15FC DUP1 PUSH3 0x178 PUSH1 0x0 CODECOPY PUSH1 0x0 RETURN INVALID PUSH1 0x80 PUSH1 0x40 MSTORE CALLVALUE DUP1 ISZERO PUSH2 0x10 JUMPI PUSH1 0x0 DUP1 REVERT JUMPDEST POP PUSH1 0x4 CALLDATASIZE LT PUSH2 0x93 JUMPI PUSH1 0x0 CALLDATALOAD PUSH1 0xE0 SHR DUP1 PUSH4 0x84330D4C GT PUSH2 0x66 JUMPI DUP1 PUSH4 0x84330D4C EQ PUSH2 0x10E JUMPI DUP1 PUSH4 0xAF082A7D EQ PUSH2 0x12A JUMPI DUP1 PUSH4 0xBA95EC27 EQ PUSH2 0x148 JUMPI DUP1 PUSH4 0xCB908D52 EQ PUSH2 0x166 JUMPI DUP1 PUSH4 0xE17A684F EQ PUSH2 0x196 JUMPI PUSH2 0x93 JUMP JUMPDEST DUP1 PUSH4 0x3ACB7646 EQ PUSH2 0x98 JUMPI DUP1 PUSH4 0x452A9320 EQ PUSH2 0xB4 JUMPI DUP1 PUSH4 0x4F76F1EE EQ PUSH2 0xD2 JUMPI DUP1 PUSH4 0x6CF6D675 EQ PUSH2 0xF0 JUMPI JUMPDEST PUSH1 0x0 DUP1 REVERT JUMPDEST PUSH2 0xB2 PUSH1 0x4 DUP1 CALLDATASIZE SUB DUP2 ADD SWAP1 PUSH2 0xAD SWAP2 SWAP1 PUSH2 0xC01 JUMP JUMPDEST PUSH2 0x1B4 JUMP JUMPDEST STOP JUMPDEST PUSH2 0xBC PUSH2 0x2A6 JUMP JUMPDEST PUSH1 0x40 MLOAD PUSH2 0xC9 SWAP2 SWAP1 PUSH2 0xCA9 JUMP JUMPDEST PUSH1 0x40 MLOAD DUP1 SWAP2 SUB SWAP1 RETURN JUMPDEST PUSH2 0xDA PUSH2 0x2CC JUMP JUMPDEST PUSH1 0x40 MLOAD PUSH2 0xE7 SWAP2 SWAP1 PUSH2 0xCD3 JUMP JUMPDEST PUSH1 0x40 MLOAD DUP1 SWAP2 SUB SWAP1 RETURN JUMPDEST PUSH2 0xF8 PUSH2 0x2D2 JUMP JUMPDEST PUSH1 0x40 MLOAD PUSH2 0x105 SWAP2 SWAP1 PUSH2 0xCD3 JUMP JUMPDEST PUSH1 0x40 MLOAD DUP1 SWAP2 SUB SWAP1 RETURN JUMPDEST PUSH2 0x128 PUSH1 0x4 DUP1 CALLDATASIZE SUB DUP2 ADD SWAP1 PUSH2 0x123 SWAP2 SWAP1 PUSH2 0xDE9 JUMP JUMPDEST PUSH2 0x2D8 JUMP JUMPDEST STOP JUMPDEST PUSH2 0x132 PUSH2 0x414 JUMP JUMPDEST PUSH1 0x40 MLOAD PUSH2 0x13F SWAP2 SWAP1 PUSH2 0xEB4 JUMP JUMPDEST PUSH1 0x40 MLOAD DUP1 SWAP2 SUB SWAP1 RETURN JUMPDEST PUSH2 0x150 PUSH2 0x41A JUMP JUMPDEST PUSH1 0x40 MLOAD PUSH2 0x15D SWAP2 SWAP1 PUSH2 0xCD3 JUMP JUMPDEST PUSH1 0x40 MLOAD DUP1 SWAP2 SUB SWAP1 RETURN JUMPDEST PUSH2 0x180 PUSH1 0x4 DUP1 CALLDATASIZE SUB DUP2 ADD SWAP1 PUSH2 0x17B SWAP2 SWAP1 PUSH2 0xEF3 JUMP JUMPDEST PUSH2 0x420 JUMP JUMPDEST PUSH1 0x40 MLOAD PUSH2 0x18D SWAP2 SWAP1 PUSH2 0xFBF JUMP JUMPDEST PUSH1 0x40 MLOAD DUP1 SWAP2 SUB SWAP1 RETURN JUMPDEST PUSH2 0x19E PUSH2 0x526 JUMP JUMPDEST PUSH1 0x40 MLOAD PUSH2 0x1AB SWAP2 SWAP1 PUSH2 0xCD3 JUMP JUMPDEST PUSH1 0x40 MLOAD DUP1 SWAP2 SUB SWAP1 RETURN JUMPDEST PUSH1 0x5 PUSH1 0x0 SWAP1 SLOAD SWAP1 PUSH2 0x100 EXP SWAP1 DIV PUSH20 0xFFFFFFFFFFFFFFFFFFFFFFFFFFFFFFFFFFFFFFFF AND PUSH20 0xFFFFFFFFFFFFFFFFFFFFFFFFFFFFFFFFFFFFFFFF AND CALLER PUSH20 0xFFFFFFFFFFFFFFFFFFFFFFFFFFFFFFFFFFFFFFFF AND EQ PUSH2 0x23B JUMPI PUSH1 0x40 MLOAD PUSH32 0xEF6D0F0200000000000000000000000000000000000000000000000000000000 DUP2 MSTORE PUSH1 0x4 ADD PUSH1 0x40 MLOAD DUP1 SWAP2 SUB SWAP1 REVERT JUMPDEST PUSH1 0x4 SLOAD PUSH1 0x3 SLOAD TIMESTAMP PUSH2 0x24C SWAP2 SWAP1 PUSH2 0x1009 JUMP JUMPDEST LT ISZERO PUSH2 0x284 JUMPI PUSH1 0x40 MLOAD PUSH32 0x1C36CED200000000000000000000000000000000000000000000000000000000 DUP2 MSTORE PUSH1 0x4 ADD PUSH1 0x40 MLOAD DUP1 SWAP2 SUB SWAP1 REVERT JUMPDEST DUP4 PUSH1 0x2 DUP2 SWAP1 SSTORE POP DUP3 PUSH1 0x1 DUP2 SWAP1 SSTORE POP DUP2 PUSH1 0x3 DUP2 SWAP1 SSTORE POP DUP1 PUSH1 0x0 DUP2 SWAP1 SSTORE POP POP POP POP POP JUMP JUMPDEST PUSH1 0x5 PUSH1 0x0 SWAP1 SLOAD SWAP1 PUSH2 0x100 EXP SWAP1 DIV PUSH20 0xFFFFFFFFFFFFFFFFFFFFFFFFFFFFFFFFFFFFFFFF AND DUP2 JUMP JUMPDEST PUSH1 0x3 SLOAD DUP2 JUMP JUMPDEST PUSH1 0x4 SLOAD DUP2 JUMP JUMPDEST DUP2 DUP2 SWAP1 POP DUP5 DUP5 SWAP1 POP EQ PUSH2 0x317 JUMPI PUSH1 0x40 MLOAD PUSH32 0xC6617B7B00000000000000000000000000000000000000000000000000000000 DUP2 MSTORE PUSH1 0x4 ADD PUSH1 0x40 MLOAD DUP1 SWAP2 SUB SWAP1 REVERT JUMPDEST PUSH1 0x0 PUSH2 0x323 DUP6 DUP6 PUSH2 0x52C JUMP JUMPDEST SWAP1 POP PUSH1 0x0 SLOAD PUSH2 0x33A PUSH1 0x2 SLOAD PUSH1 0x1 SLOAD PUSH1 0x3 SLOAD DUP6 PUSH2 0x55F JUMP JUMPDEST EQ PUSH2 0x371 JUMPI PUSH1 0x40 MLOAD PUSH32 0x177B5D9200000000000000000000000000000000000000000000000000000000 DUP2 MSTORE PUSH1 0x4 ADD PUSH1 0x40 MLOAD DUP1 SWAP2 SUB SWAP1 REVERT JUMPDEST PUSH1 0x0 PUSH2 0x38B PUSH1 0x2 SLOAD DUP10 PUSH8 0xFFFFFFFFFFFFFFFF AND DUP10 DUP13 PUSH2 0x55F JUMP JUMPDEST SWAP1 POP PUSH2 0x39D DUP7 DUP7 DUP7 DUP7 DUP6 PUSH1 0x1 SLOAD PUSH2 0x5BD JUMP JUMPDEST DUP1 PUSH1 0x0 DUP2 SWAP1 SSTORE POP DUP8 PUSH8 0xFFFFFFFFFFFFFFFF AND PUSH1 0x1 DUP2 SWAP1 SSTORE POP PUSH1 0x2 PUSH1 0x0 DUP2 SLOAD DUP1 SWAP3 SWAP2 SWAP1 PUSH2 0x3C8 SWAP1 PUSH2 0x103D JUMP JUMPDEST SWAP2 SWAP1 POP SSTORE POP PUSH1 0x2 SLOAD PUSH32 0xE304B71F81A1AAF6D714401DE28BA1EBDBB5FF9C5FEE59EF2A6EB984F9E8DA7E DUP10 DUP12 PUSH1 0x40 MLOAD PUSH2 0x401 SWAP3 SWAP2 SWAP1 PUSH2 0x10C0 JUMP JUMPDEST PUSH1 0x40 MLOAD DUP1 SWAP2 SUB SWAP1 LOG2 POP POP POP POP POP POP POP POP POP JUMP JUMPDEST PUSH1 0x0 SLOAD DUP2 JUMP JUMPDEST PUSH1 0x1 SLOAD DUP2 JUMP JUMPDEST PUSH1 0x0 DUP3 DUP3 SWAP1 POP DUP6 DUP6 SWAP1 POP EQ PUSH2 0x461 JUMPI PUSH1 0x40 MLOAD PUSH32 0xC6617B7B00000000000000000000000000000000000000000000000000000000 DUP2 MSTORE PUSH1 0x4 ADD PUSH1 0x40 MLOAD DUP1 SWAP2 SUB SWAP1 REVERT JUMPDEST PUSH1 0x0 PUSH2 0x46D DUP7 DUP7 PUSH2 0x52C JUMP JUMPDEST SWAP1 POP PUSH1 0x0 SLOAD PUSH2 0x484 PUSH1 0x2 SLOAD PUSH1 0x1 SLOAD PUSH1 0x3 SLOAD DUP6 PUSH2 0x55F JUMP JUMPDEST EQ PUSH2 0x4BB JUMPI PUSH1 0x40 MLOAD PUSH32 0x177B5D9200000000000000000000000000000000000000000000000000000000 DUP2 MSTORE PUSH1 0x4 ADD PUSH1 0x40 MLOAD DUP1 SWAP2 SUB SWAP1 REVERT JUMPDEST PUSH1 0x2 SLOAD DUP8 PUSH1 0x40 ADD CALLDATALOAD EQ PUSH2 0x4FA JUMPI PUSH1 0x40 MLOAD PUSH32 0xD146BFFA00000000000000000000000000000000000000000000000000000000 DUP2 MSTORE PUSH1 0x4 ADD PUSH1 0x40 MLOAD DUP1 SWAP2 SUB SWAP1 REVERT JUMPDEST PUSH1 0x0 PUSH2 0x505 DUP9 PUSH2 0x7A5 JUMP JUMPDEST SWAP1 POP PUSH2 0x517 DUP8 DUP8 DUP8 DUP8 DUP6 PUSH1 0x1 SLOAD PUSH2 0x5BD JUMP JUMPDEST PUSH1 0x1 SWAP3 POP POP POP SWAP6 SWAP5 POP POP POP POP POP JUMP JUMPDEST PUSH1 0x2 SLOAD DUP2 JUMP JUMPDEST PUSH1 0x0 DUP3 DUP3 PUSH1 0x40 MLOAD PUSH1 0x20 ADD PUSH2 0x541 SWAP3 SWAP2 SWAP1 PUSH2 0x1248 JUMP JUMPDEST PUSH1 0x40 MLOAD PUSH1 0x20 DUP2 DUP4 SUB SUB DUP2 MSTORE SWAP1 PUSH1 0x40 MSTORE DUP1 MLOAD SWAP1 PUSH1 0x20 ADD KECCAK256 SWAP1 POP SWAP3 SWAP2 POP POP JUMP JUMPDEST PUSH1 0x0 PUSH32 0x636865636B706F696E7400000000000000000000000000000000000000000000 PUSH1 0x0 SHL DUP6 DUP6 DUP6 DUP6 PUSH1 0x40 MLOAD PUSH1 0x20 ADD PUSH2 0x59D SWAP6 SWAP5 SWAP4 SWAP3 SWAP2 SWAP1 PUSH2 0x126C JUMP JUMPDEST PUSH1 0x40 MLOAD PUSH1 0x20 DUP2 DUP4 SUB SUB DUP2 MSTORE SWAP1 PUSH1 0x40 MSTORE DUP1 MLOAD SWAP1 PUSH1 0x20 ADD KECCAK256 SWAP1 POP SWAP5 SWAP4 POP POP POP POP JUMP JUMPDEST PUSH1 0x4 SLOAD PUSH1 0x3 SLOAD TIMESTAMP PUSH2 0x5CE SWAP2 SWAP1 PUSH2 0x1009 JUMP JUMPDEST GT ISZERO PUSH2 0x606 JUMPI PUSH1 0x40 MLOAD PUSH32 0xE5E5E46400000000000000000000000000000000000000000000000000000000 DUP2 MSTORE PUSH1 0x4 ADD PUSH1 0x40 MLOAD DUP1 SWAP2 SUB SWAP1 REVERT JUMPDEST PUSH1 0x0 DUP1 JUMPDEST DUP8 DUP8 SWAP1 POP DUP2 LT ISZERO PUSH2 0x761 JUMPI PUSH1 0x0 DUP1 SHL DUP7 DUP7 DUP4 DUP2 DUP2 LT PUSH2 0x62C JUMPI PUSH2 0x62B PUSH2 0x12BF JUMP JUMPDEST JUMPDEST SWAP1 POP PUSH1 0x60 MUL ADD PUSH1 0x20 ADD CALLDATALOAD EQ DUP1 ISZERO PUSH2 0x661 JUMPI POP PUSH1 0x0 DUP1 SHL DUP7 DUP7 DUP4 DUP2 DUP2 LT PUSH2 0x655 JUMPI PUSH2 0x654 PUSH2 0x12BF JUMP JUMPDEST JUMPDEST SWAP1 POP PUSH1 0x60 MUL ADD PUSH1 0x40 ADD CALLDATALOAD EQ JUMPDEST DUP1 ISZERO PUSH2 0x69A JUMPI POP PUSH1 0x0 DUP7 DUP7 DUP4 DUP2 DUP2 LT PUSH2 0x67D JUMPI PUSH2 0x67C PUSH2 0x12BF JUMP JUMPDEST JUMPDEST SWAP1 POP PUSH1 0x60 MUL ADD PUSH1 0x0 ADD PUSH1 0x20 DUP2 ADD SWAP1 PUSH2 0x695 SWAP2 SWAP1 PUSH2 0x1327 JUMP JUMPDEST PUSH1 0xFF AND EQ JUMPDEST PUSH2 0x754 JUMPI PUSH2 0x6EB DUP9 DUP9 DUP4 DUP2 DUP2 LT PUSH2 0x6B4 JUMPI PUSH2 0x6B3 PUSH2 0x12BF JUMP JUMPDEST JUMPDEST SWAP1 POP PUSH1 0x40 MUL ADD PUSH1 0x0 ADD PUSH1 0x20 DUP2 ADD SWAP1 PUSH2 0x6CC SWAP2 SWAP1 PUSH2 0x1354 JUMP JUMPDEST DUP6 DUP9 DUP9 DUP6 DUP2 DUP2 LT PUSH2 0x6E0 JUMPI PUSH2 0x6DF PUSH2 0x12BF JUMP JUMPDEST JUMPDEST SWAP1 POP PUSH1 0x60 MUL ADD PUSH2 0x861 JUMP JUMPDEST PUSH2 0x721 JUMPI PUSH1 0x40 MLOAD PUSH32 0x8BAA579F00000000000000000000000000000000000000000000000000000000 DUP2 MSTORE PUSH1 0x4 ADD PUSH1 0x40 MLOAD DUP1 SWAP2 SUB SWAP1 REVERT JUMPDEST DUP8 DUP8 DUP3 DUP2 DUP2 LT PUSH2 0x734 JUMPI PUSH2 0x733 PUSH2 0x12BF JUMP JUMPDEST JUMPDEST SWAP1 POP PUSH1 0x40 MUL ADD PUSH1 0x20 ADD CALLDATALOAD DUP3 PUSH2 0x749 SWAP2 SWAP1 PUSH2 0x1381 JUMP JUMPDEST SWAP2 POP DUP3 DUP3 LT ISZERO PUSH2 0x761 JUMPI JUMPDEST DUP1 DUP1 PUSH1 0x1 ADD SWAP2 POP POP PUSH2 0x60A JUMP JUMPDEST POP DUP2 DUP2 LT ISZERO PUSH2 0x79C JUMPI PUSH1 0x40 MLOAD PUSH32 0xCABEB65500000000000000000000000000000000000000000000000000000000 DUP2 MSTORE PUSH1 0x4 ADD PUSH1 0x40 MLOAD DUP1 SWAP2 SUB SWAP1 REVERT JUMPDEST POP POP POP POP POP POP POP JUMP JUMPDEST PUSH1 0x0 PUSH32 0x74656C6C6F7243757272656E744174746573746174696F6E0000000000000000 PUSH1 0x0 SHL DUP3 PUSH1 0x0 ADD CALLDATALOAD DUP4 DUP1 PUSH1 0x20 ADD SWAP1 PUSH2 0x7E0 SWAP2 SWAP1 PUSH2 0x13C4 JUMP JUMPDEST DUP1 PUSH1 0x0 ADD SWAP1 PUSH2 0x7EF SWAP2 SWAP1 PUSH2 0x13EC JUMP JUMPDEST DUP6 DUP1 PUSH1 0x20 ADD SWAP1 PUSH2 0x7FF SWAP2 SWAP1 PUSH2 0x13C4 JUMP JUMPDEST PUSH1 0x20 ADD CALLDATALOAD DUP7 DUP1 PUSH1 0x20 ADD SWAP1 PUSH2 0x813 SWAP2 SWAP1 PUSH2 0x13C4 JUMP JUMPDEST PUSH1 0x40 ADD CALLDATALOAD DUP8 PUSH1 0x40 ADD CALLDATALOAD DUP9 PUSH1 0x60 ADD CALLDATALOAD DUP10 PUSH1 0x80 ADD CALLDATALOAD DUP11 PUSH1 0xA0 ADD CALLDATALOAD PUSH1 0x40 MLOAD PUSH1 0x20 ADD PUSH2 0x844 SWAP11 SWAP10 SWAP9 SWAP8 SWAP7 SWAP6 SWAP5 SWAP4 SWAP3 SWAP2 SWAP1 PUSH2 0x14AD JUMP JUMPDEST PUSH1 0x40 MLOAD PUSH1 0x20 DUP2 DUP4 SUB SUB DUP2 MSTORE SWAP1 PUSH1 0x40 MSTORE DUP1 MLOAD SWAP1 PUSH1 0x20 ADD KECCAK256 SWAP1 POP SWAP2 SWAP1 POP JUMP JUMPDEST PUSH1 0x0 DUP1 PUSH2 0x86D DUP5 PUSH2 0x8CD JUMP JUMPDEST SWAP1 POP PUSH2 0x895 DUP2 DUP5 PUSH1 0x0 ADD PUSH1 0x20 DUP2 ADD SWAP1 PUSH2 0x886 SWAP2 SWAP1 PUSH2 0x1327 JUMP JUMPDEST DUP6 PUSH1 0x20 ADD CALLDATALOAD DUP7 PUSH1 0x40 ADD CALLDATALOAD PUSH2 0x903 JUMP JUMPDEST PUSH20 0xFFFFFFFFFFFFFFFFFFFFFFFFFFFFFFFFFFFFFFFF AND DUP6 PUSH20 0xFFFFFFFFFFFFFFFFFFFFFFFFFFFFFFFFFFFFFFFF AND EQ SWAP2 POP POP SWAP4 SWAP3 POP POP POP JUMP JUMPDEST PUSH1 0x0 PUSH32 0x19457468657265756D205369676E6564204D6573736167653A0A333200000000 PUSH1 0x0 MSTORE DUP2 PUSH1 0x1C MSTORE PUSH1 0x3C PUSH1 0x0 KECCAK256 SWAP1 POP SWAP2 SWAP1 POP JUMP JUMPDEST PUSH1 0x0 DUP1 PUSH1 0x0 DUP1 PUSH2 0x915 DUP9 DUP9 DUP9 DUP9 PUSH2 0x933 JUMP JUMPDEST SWAP3 POP SWAP3 POP SWAP3 POP PUSH2 0x925 DUP3 DUP3 PUSH2 0xA27 JUMP JUMPDEST DUP3 SWAP4 POP POP POP POP SWAP5 SWAP4 POP POP POP POP JUMP JUMPDEST PUSH1 0x0 DUP1 PUSH1 0x0 PUSH32 0x7FFFFFFFFFFFFFFFFFFFFFFFFFFFFFFF5D576E7357A4501DDFE92F46681B20A0 DUP5 PUSH1 0x0 SHR GT ISZERO PUSH2 0x973 JUMPI PUSH1 0x0 PUSH1 0x3 DUP6 SWAP3 POP SWAP3 POP SWAP3 POP PUSH2 0xA1D JUMP JUMPDEST PUSH1 0x0 PUSH1 0x1 DUP9 DUP9 DUP9 DUP9 PUSH1 0x40 MLOAD PUSH1 0x0 DUP2 MSTORE PUSH1 0x20 ADD PUSH1 0x40 MSTORE PUSH1 0x40 MLOAD PUSH2 0x998 SWAP5 SWAP4 SWAP3 SWAP2 SWAP1 PUSH2 0x1552 JUMP JUMPDEST PUSH1 0x20 PUSH1 0x40 MLOAD PUSH1 0x20 DUP2 SUB SWAP1 DUP1 DUP5 SUB SWAP1 DUP6 GAS STATICCALL ISZERO DUP1 ISZERO PUSH2 0x9BA JUMPI RETURNDATASIZE PUSH1 0x0 DUP1 RETURNDATACOPY RETURNDATASIZE PUSH1 0x0 REVERT JUMPDEST POP POP POP PUSH1 0x20 PUSH1 0x40 MLOAD SUB MLOAD SWAP1 POP PUSH1 0x0 PUSH20 0xFFFFFFFFFFFFFFFFFFFFFFFFFFFFFFFFFFFFFFFF AND DUP2 PUSH20 0xFFFFFFFFFFFFFFFFFFFFFFFFFFFFFFFFFFFFFFFF AND SUB PUSH2 0xA0E JUMPI PUSH1 0x0 PUSH1 0x1 PUSH1 0x0 DUP1 SHL SWAP4 POP SWAP4 POP SWAP4 POP POP PUSH2 0xA1D JUMP JUMPDEST DUP1 PUSH1 0x0 DUP1 PUSH1 0x0 SHL SWAP4 POP SWAP4 POP SWAP4 POP POP JUMPDEST SWAP5 POP SWAP5 POP SWAP5 SWAP2 POP POP JUMP JUMPDEST PUSH1 0x0 PUSH1 0x3 DUP2 GT ISZERO PUSH2 0xA3B JUMPI PUSH2 0xA3A PUSH2 0x1597 JUMP JUMPDEST JUMPDEST DUP3 PUSH1 0x3 DUP2 GT ISZERO PUSH2 0xA4E JUMPI PUSH2 0xA4D PUSH2 0x1597 JUMP JUMPDEST JUMPDEST SUB ISZERO PUSH2 0xB87 JUMPI PUSH1 0x1 PUSH1 0x3 DUP2 GT ISZERO PUSH2 0xA68 JUMPI PUSH2 0xA67 PUSH2 0x1597 JUMP JUMPDEST JUMPDEST DUP3 PUSH1 0x3 DUP2 GT ISZERO PUSH2 0xA7B JUMPI PUSH2 0xA7A PUSH2 0x1597 JUMP JUMPDEST JUMPDEST SUB PUSH2 0xAB2 JUMPI PUSH1 0x40 MLOAD PUSH32 0xF645EEDF00000000000000000000000000000000000000000000000000000000 DUP2 MSTORE PUSH1 0x4 ADD PUSH1 0x40 MLOAD DUP1 SWAP2 SUB SWAP1 REVERT JUMPDEST PUSH1 0x2 PUSH1 0x3 DUP2 GT ISZERO PUSH2 0xAC6 JUMPI PUSH2 0xAC5 PUSH2 0x1597 JUMP JUMPDEST JUMPDEST DUP3 PUSH1 0x3 DUP2 GT ISZERO PUSH2 0xAD9 JUMPI PUSH2 0xAD8 PUSH2 0x1597 JUMP JUMPDEST JUMPDEST SUB PUSH2 0xB1E JUMPI DUP1 PUSH1 0x0 SHR PUSH1 0x40 MLOAD PUSH32 0xFCE698F700000000000000000000000000000000000000000000000000000000 DUP2 MSTORE PUSH1 0x4 ADD PUSH2 0xB15 SWAP2 SWAP1 PUSH2 0xCD3 JUMP JUMPDEST PUSH1 0x40 MLOAD DUP1 SWAP2 SUB SWAP1 REVERT JUMPDEST PUSH1 0x3 DUP1 DUP2 GT ISZERO PUSH2 0xB31 JUMPI PUSH2 0xB30 PUSH2 0x1597 JUMP JUMPDEST JUMPDEST DUP3 PUSH1 0x3 DUP2 GT ISZERO PUSH2 0xB44 JUMPI PUSH2 0xB43 PUSH2 0x1597 JUMP JUMPDEST JUMPDEST SUB PUSH2 0xB86 JUMPI DUP1 PUSH1 0x40 MLOAD PUSH32 0xD78BCE0C00000000000000000000000000000000000000000000000000000000 DUP2 MSTORE PUSH1 0x4 ADD PUSH2 0xB7D SWAP2 SWAP1 PUSH2 0xEB4 JUMP JUMPDEST PUSH1 0x40 MLOAD DUP1 SWAP2 SUB SWAP1 REVERT JUMPDEST JUMPDEST POP POP JUMP JUMPDEST PUSH1 0x0 DUP1 REVERT JUMPDEST PUSH1 0x0 DUP1 REVERT JUMPDEST PUSH1 0x0 DUP2 SWAP1 POP SWAP2 SWAP1 POP JUMP JUMPDEST PUSH2 0xBA8 DUP2 PUSH2 0xB95 JUMP JUMPDEST DUP2 EQ PUSH2 0xBB3 JUMPI PUSH1 0x0 DUP1 REVERT JUMPDEST POP JUMP JUMPDEST PUSH1 0x0 DUP2 CALLDATALOAD SWAP1 POP PUSH2 0xBC5 DUP2 PUSH2 0xB9F JUMP JUMPDEST SWAP3 SWAP2 POP POP JUMP JUMPDEST PUSH1 0x0 DUP2 SWAP1 POP SWAP2 SWAP1 POP JUMP JUMPDEST PUSH2 0xBDE DUP2 PUSH2 0xBCB JUMP JUMPDEST DUP2 EQ PUSH2 0xBE9 JUMPI PUSH1 0x0 DUP1 REVERT JUMPDEST POP JUMP JUMPDEST PUSH1 0x0 DUP2 CALLDATALOAD SWAP1 POP PUSH2 0xBFB DUP2 PUSH2 0xBD5 JUMP JUMPDEST SWAP3 SWAP2 POP POP JUMP JUMPDEST PUSH1 0x0 DUP1 PUSH1 0x0 DUP1 PUSH1 0x80 DUP6 DUP8 SUB SLT ISZERO PUSH2 0xC1B JUMPI PUSH2 0xC1A PUSH2 0xB8B JUMP JUMPDEST JUMPDEST PUSH1 0x0 PUSH2 0xC29 DUP8 DUP3 DUP9 ADD PUSH2 0xBB6 JUMP JUMPDEST SWAP5 POP POP PUSH1 0x20 PUSH2 0xC3A DUP8 DUP3 DUP9 ADD PUSH2 0xBB6 JUMP JUMPDEST SWAP4 POP POP PUSH1 0x40 PUSH2 0xC4B DUP8 DUP3 DUP9 ADD PUSH2 0xBB6 JUMP JUMPDEST SWAP3 POP POP PUSH1 0x60 PUSH2 0xC5C DUP8 DUP3 DUP9 ADD PUSH2 0xBEC JUMP JUMPDEST SWAP2 POP POP SWAP3 SWAP6 SWAP2 SWAP5 POP SWAP3 POP JUMP JUMPDEST PUSH1 0x0 PUSH20 0xFFFFFFFFFFFFFFFFFFFFFFFFFFFFFFFFFFFFFFFF DUP3 AND SWAP1 POP SWAP2 SWAP1 POP JUMP JUMPDEST PUSH1 0x0 PUSH2 0xC93 DUP3 PUSH2 0xC68 JUMP JUMPDEST SWAP1 POP SWAP2 SWAP1 POP JUMP JUMPDEST PUSH2 0xCA3 DUP2 PUSH2 0xC88 JUMP JUMPDEST DUP3 MSTORE POP POP JUMP JUMPDEST PUSH1 0x0 PUSH1 0x20 DUP3 ADD SWAP1 POP PUSH2 0xCBE PUSH1 0x0 DUP4 ADD DUP5 PUSH2 0xC9A JUMP JUMPDEST SWAP3 SWAP2 POP POP JUMP JUMPDEST PUSH2 0xCCD DUP2 PUSH2 0xB95 JUMP JUMPDEST DUP3 MSTORE POP POP JUMP JUMPDEST PUSH1 0x0 PUSH1 0x20 DUP3 ADD SWAP1 POP PUSH2 0xCE8 PUSH1 0x0 DUP4 ADD DUP5 PUSH2 0xCC4 JUMP JUMPDEST SWAP3 SWAP2 POP POP JUMP JUMPDEST PUSH1 0x0 PUSH8 0xFFFFFFFFFFFFFFFF DUP3 AND SWAP1 POP SWAP2 SWAP1 POP JUMP JUMPDEST PUSH2 0xD0B DUP2 PUSH2 0xCEE JUMP JUMPDEST DUP2 EQ PUSH2 0xD16 JUMPI PUSH1 0x0 DUP1 REVERT JUMPDEST POP JUMP JUMPDEST PUSH1 0x0 DUP2 CALLDATALOAD SWAP1 POP PUSH2 0xD28 DUP2 PUSH2 0xD02 JUMP JUMPDEST SWAP3 SWAP2 POP POP JUMP JUMPDEST PUSH1 0x0 DUP1 REVERT JUMPDEST PUSH1 0x0 DUP1 REVERT JUMPDEST PUSH1 0x0 DUP1 REVERT JUMPDEST PUSH1 0x0 DUP1 DUP4 PUSH1 0x1F DUP5 ADD SLT PUSH2 0xD53 JUMPI PUSH2 0xD52 PUSH2 0xD2E JUMP JUMPDEST JUMPDEST DUP3 CALLDATALOAD SWAP1 POP PUSH8 0xFFFFFFFFFFFFFFFF DUP2 GT ISZERO PUSH2 0xD70 JUMPI PUSH2 0xD6F PUSH2 0xD33 JUMP JUMPDEST JUMPDEST PUSH1 0x20 DUP4 ADD SWAP2 POP DUP4 PUSH1 0x40 DUP3 MUL DUP4 ADD GT ISZERO PUSH2 0xD8C JUMPI PUSH2 0xD8B PUSH2 0xD38 JUMP JUMPDEST JUMPDEST SWAP3 POP SWAP3 SWAP1 POP JUMP JUMPDEST PUSH1 0x0 DUP1 DUP4 PUSH1 0x1F DUP5 ADD SLT PUSH2 0xDA9 JUMPI PUSH2 0xDA8 PUSH2 0xD2E JUMP JUMPDEST JUMPDEST DUP3 CALLDATALOAD SWAP1 POP PUSH8 0xFFFFFFFFFFFFFFFF DUP2 GT ISZERO PUSH2 0xDC6 JUMPI PUSH2 0xDC5 PUSH2 0xD33 JUMP JUMPDEST JUMPDEST PUSH1 0x20 DUP4 ADD SWAP2 POP DUP4 PUSH1 0x60 DUP3 MUL DUP4 ADD GT ISZERO PUSH2 0xDE2 JUMPI PUSH2 0xDE1 PUSH2 0xD38 JUMP JUMPDEST JUMPDEST SWAP3 POP SWAP3 SWAP1 POP JUMP JUMPDEST PUSH1 0x0 DUP1 PUSH1 0x0 DUP1 PUSH1 0x0 DUP1 PUSH1 0x0 PUSH1 0xA0 DUP9 DUP11 SUB SLT ISZERO PUSH2 0xE08 JUMPI PUSH2 0xE07 PUSH2 0xB8B JUMP JUMPDEST JUMPDEST PUSH1 0x0 PUSH2 0xE16 DUP11 DUP3 DUP12 ADD PUSH2 0xBEC JUMP JUMPDEST SWAP8 POP POP PUSH1 0x20 PUSH2 0xE27 DUP11 DUP3 DUP12 ADD PUSH2 0xD19 JUMP JUMPDEST SWAP7 POP POP PUSH1 0x40 PUSH2 0xE38 DUP11 DUP3 DUP12 ADD PUSH2 0xBB6 JUMP JUMPDEST SWAP6 POP POP PUSH1 0x60 DUP9 ADD CALLDATALOAD PUSH8 0xFFFFFFFFFFFFFFFF DUP2 GT ISZERO PUSH2 0xE59 JUMPI PUSH2 0xE58 PUSH2 0xB90 JUMP JUMPDEST JUMPDEST PUSH2 0xE65 DUP11 DUP3 DUP12 ADD PUSH2 0xD3D JUMP JUMPDEST SWAP5 POP SWAP5 POP POP PUSH1 0x80 DUP9 ADD CALLDATALOAD PUSH8 0xFFFFFFFFFFFFFFFF DUP2 GT ISZERO PUSH2 0xE88 JUMPI PUSH2 0xE87 PUSH2 0xB90 JUMP JUMPDEST JUMPDEST PUSH2 0xE94 DUP11 DUP3 DUP12 ADD PUSH2 0xD93 JUMP JUMPDEST SWAP3 POP SWAP3 POP POP SWAP3 SWAP6 SWAP9 SWAP2 SWAP5 SWAP8 POP SWAP3 SWAP6 POP JUMP JUMPDEST PUSH2 0xEAE DUP2 PUSH2 0xBCB JUMP JUMPDEST DUP3 MSTORE POP POP JUMP JUMPDEST PUSH1 0x0 PUSH1 0x20 DUP3 ADD SWAP1 POP PUSH2 0xEC9 PUSH1 0x0 DUP4 ADD DUP5 PUSH2 0xEA5 JUMP JUMPDEST SWAP3 SWAP2 POP POP JUMP JUMPDEST PUSH1 0x0 DUP1 REVERT JUMPDEST PUSH1 0x0 PUSH1 0xC0 DUP3 DUP5 SUB SLT ISZERO PUSH2 0xEEA JUMPI PUSH2 0xEE9 PUSH2 0xECF JUMP JUMPDEST JUMPDEST DUP2 SWAP1 POP SWAP3 SWAP2 POP POP JUMP JUMPDEST PUSH1 0x0 DUP1 PUSH1 0x0 DUP1 PUSH1 0x0 PUSH1 0x60 DUP7 DUP9 SUB SLT ISZERO PUSH2 0xF0F JUMPI PUSH2 0xF0E PUSH2 0xB8B JUMP JUMPDEST JUMPDEST PUSH1 0x0 DUP7 ADD CALLDATALOAD PUSH8 0xFFFFFFFFFFFFFFFF DUP2 GT ISZERO PUSH2 0xF2D JUMPI PUSH2 0xF2C PUSH2 0xB90 JUMP JUMPDEST JUMPDEST PUSH2 0xF39 DUP9 DUP3 DUP10 ADD PUSH2 0xED4 JUMP JUMPDEST SWAP6 POP POP PUSH1 0x20 DUP7 ADD CALLDATALOAD PUSH8 0xFFFFFFFFFFFFFFFF DUP2 GT ISZERO PUSH2 0xF5A JUMPI PUSH2 0xF59 PUSH2 0xB90 JUMP JUMPDEST JUMPDEST PUSH2 0xF66 DUP9 DUP3 DUP10 ADD PUSH2 0xD3D JUMP JUMPDEST SWAP5 POP SWAP5 POP POP PUSH1 0x40 DUP7 ADD CALLDATALOAD PUSH8 0xFFFFFFFFFFFFFFFF DUP2 GT ISZERO PUSH2 0xF89 JUMPI PUSH2 0xF88 PUSH2 0xB90 JUMP JUMPDEST JUMPDEST PUSH2 0xF95 DUP9 DUP3 DUP10 ADD PUSH2 0xD93 JUMP JUMPDEST SWAP3 POP SWAP3 POP POP SWAP3 SWAP6 POP SWAP3 SWAP6 SWAP1 SWAP4 POP JUMP JUMPDEST PUSH1 0x0 DUP2 ISZERO ISZERO SWAP1 POP SWAP2 SWAP1 POP JUMP JUMPDEST PUSH2 0xFB9 DUP2 PUSH2 0xFA4 JUMP JUMPDEST DUP3 MSTORE POP POP JUMP JUMPDEST PUSH1 0x0 PUSH1 0x20 DUP3 ADD SWAP1 POP PUSH2 0xFD4 PUSH1 0x0 DUP4 ADD DUP5 PUSH2 0xFB0 JUMP JUMPDEST SWAP3 SWAP2 POP POP JUMP JUMPDEST PUSH32 0x4E487B7100000000000000000000000000000000000000000000000000000000 PUSH1 0x0 MSTORE PUSH1 0x11 PUSH1 0x4 MSTORE PUSH1 0x24 PUSH1 0x0 REVERT JUMPDEST PUSH1 0x0 PUSH2 0x1014 DUP3 PUSH2 0xB95 JUMP JUMPDEST SWAP2 POP PUSH2 0x101F DUP4 PUSH2 0xB95 JUMP JUMPDEST SWAP3 POP DUP3 DUP3 SUB SWAP1 POP DUP2 DUP2 GT ISZERO PUSH2 0x1037 JUMPI PUSH2 0x1036 PUSH2 0xFDA JUMP JUMPDEST JUMPDEST SWAP3 SWAP2 POP POP JUMP JUMPDEST PUSH1 0x0 PUSH2 0x1048 DUP3 PUSH2 0xB95 JUMP JUMPDEST SWAP2 POP PUSH32 0xFFFFFFFFFFFFFFFFFFFFFFFFFFFFFFFFFFFFFFFFFFFFFFFFFFFFFFFFFFFFFFFF DUP3 SUB PUSH2 0x107A JUMPI PUSH2 0x1079 PUSH2 0xFDA JUMP JUMPDEST JUMPDEST PUSH1 0x1 DUP3 ADD SWAP1 POP SWAP2 SWAP1 POP JUMP JUMPDEST PUSH1 0x0 DUP2 SWAP1 POP SWAP2 SWAP1 POP JUMP JUMPDEST PUSH1 0x0 PUSH2 0x10AA PUSH2 0x10A5 PUSH2 0x10A0 DUP5 PUSH2 0xCEE JUMP JUMPDEST PUSH2 0x1085 JUMP JUMPDEST PUSH2 0xB95 JUMP JUMPDEST SWAP1 POP SWAP2 SWAP1 POP JUMP JUMPDEST PUSH2 0x10BA DUP2 PUSH2 0x108F JUMP JUMPDEST DUP3 MSTORE POP POP JUMP JUMPDEST PUSH1 0x0 PUSH1 0x40 DUP3 ADD SWAP1 POP PUSH2 0x10D5 PUSH1 0x0 DUP4 ADD DUP6 PUSH2 0x10B1 JUMP JUMPDEST PUSH2 0x10E2 PUSH1 0x20 DUP4 ADD DUP5 PUSH2 0xEA5 JUMP JUMPDEST SWAP4 SWAP3 POP POP POP JUMP JUMPDEST PUSH1 0x0 DUP3 DUP3 MSTORE PUSH1 0x20 DUP3 ADD SWAP1 POP SWAP3 SWAP2 POP POP JUMP JUMPDEST PUSH1 0x0 DUP2 SWAP1 POP SWAP2 SWAP1 POP JUMP JUMPDEST PUSH2 0x110D DUP2 PUSH2 0xC88 JUMP JUMPDEST DUP2 EQ PUSH2 0x1118 JUMPI PUSH1 0x0 DUP1 REVERT JUMPDEST POP JUMP JUMPDEST PUSH1 0x0 DUP2 CALLDATALOAD SWAP1 POP PUSH2 0x112A DUP2 PUSH2 0x1104 JUMP JUMPDEST SWAP3 SWAP2 POP POP JUMP JUMPDEST PUSH1 0x0 PUSH2 0x113F PUSH1 0x20 DUP5 ADD DUP5 PUSH2 0x111B JUMP JUMPDEST SWAP1 POP SWAP3 SWAP2 POP POP JUMP JUMPDEST PUSH2 0x1150 DUP2 PUSH2 0xC88 JUMP JUMPDEST DUP3 MSTORE POP POP JUMP JUMPDEST PUSH1 0x0 PUSH2 0x1165 PUSH1 0x20 DUP5 ADD DUP5 PUSH2 0xBB6 JUMP JUMPDEST SWAP1 POP SWAP3 SWAP2 POP POP JUMP JUMPDEST PUSH2 0x1176 DUP2 PUSH2 0xB95 JUMP JUMPDEST DUP3 MSTORE POP POP JUMP JUMPDEST PUSH1 0x40 DUP3 ADD PUSH2 0x118D PUSH1 0x0 DUP4 ADD DUP4 PUSH2 0x1130 JUMP JUMPDEST PUSH2 0x119A PUSH1 0x0 DUP6 ADD DUP3 PUSH2 0x1147 JUMP JUMPDEST POP PUSH2 0x11A8 PUSH1 0x20 DUP4 ADD DUP4 PUSH2 0x1156 JUMP JUMPDEST PUSH2 0x11B5 PUSH1 0x20 DUP6 ADD DUP3 PUSH2 0x116D JUMP JUMPDEST POP POP POP POP JUMP JUMPDEST PUSH1 0x0 PUSH2 0x11C7 DUP4 DUP4 PUSH2 0x117C JUMP JUMPDEST PUSH1 0x40 DUP4 ADD SWAP1 POP SWAP3 SWAP2 POP POP JUMP JUMPDEST PUSH1 0x0 DUP3 SWAP1 POP SWAP3 SWAP2 POP POP JUMP JUMPDEST PUSH1 0x0 PUSH1 0x40 DUP3 ADD SWAP1 POP SWAP2 SWAP1 POP JUMP JUMPDEST PUSH1 0x0 PUSH2 0x11F7 DUP4 DUP6 PUSH2 0x10E9 JUMP JUMPDEST SWAP4 POP PUSH2 0x1202 DUP3 PUSH2 0x10FA JUMP JUMPDEST DUP1 PUSH1 0x0 JUMPDEST DUP6 DUP2 LT ISZERO PUSH2 0x123B JUMPI PUSH2 0x1218 DUP3 DUP5 PUSH2 0x11D3 JUMP JUMPDEST PUSH2 0x1222 DUP9 DUP3 PUSH2 0x11BB JUMP JUMPDEST SWAP8 POP PUSH2 0x122D DUP4 PUSH2 0x11DE JUMP JUMPDEST SWAP3 POP POP PUSH1 0x1 DUP2 ADD SWAP1 POP PUSH2 0x1206 JUMP JUMPDEST POP DUP6 SWAP3 POP POP POP SWAP4 SWAP3 POP POP POP JUMP JUMPDEST PUSH1 0x0 PUSH1 0x20 DUP3 ADD SWAP1 POP DUP2 DUP2 SUB PUSH1 0x0 DUP4 ADD MSTORE PUSH2 0x1263 DUP2 DUP5 DUP7 PUSH2 0x11EB JUMP JUMPDEST SWAP1 POP SWAP4 SWAP3 POP POP POP JUMP JUMPDEST PUSH1 0x0 PUSH1 0xA0 DUP3 ADD SWAP1 POP PUSH2 0x1281 PUSH1 0x0 DUP4 ADD DUP9 PUSH2 0xEA5 JUMP JUMPDEST PUSH2 0x128E PUSH1 0x20 DUP4 ADD DUP8 PUSH2 0xCC4 JUMP JUMPDEST PUSH2 0x129B PUSH1 0x40 DUP4 ADD DUP7 PUSH2 0xCC4 JUMP JUMPDEST PUSH2 0x12A8 PUSH1 0x60 DUP4 ADD DUP6 PUSH2 0xCC4 JUMP JUMPDEST PUSH2 0x12B5 PUSH1 0x80 DUP4 ADD DUP5 PUSH2 0xEA5 JUMP JUMPDEST SWAP7 SWAP6 POP POP POP POP POP POP JUMP JUMPDEST PUSH32 0x4E487B7100000000000000000000000000000000000000000000000000000000 PUSH1 0x0 MSTORE PUSH1 0x32 PUSH1 0x4 MSTORE PUSH1 0x24 PUSH1 0x0 REVERT JUMPDEST PUSH1 0x0 PUSH1 0xFF DUP3 AND SWAP1 POP SWAP2 SWAP1 POP JUMP JUMPDEST PUSH2 0x1304 DUP2 PUSH2 0x12EE JUMP JUMPDEST DUP2 EQ PUSH2 0x130F JUMPI PUSH1 0x0 DUP1 REVERT JUMPDEST POP JUMP JUMPDEST PUSH1 0x0 DUP2 CALLDATALOAD SWAP1 POP PUSH2 0x1321 DUP2 PUSH2 0x12FB JUMP JUMPDEST SWAP3 SWAP2 POP POP JUMP JUMPDEST PUSH1 0x0 PUSH1 0x20 DUP3 DUP5 SUB SLT ISZERO PUSH2 0x133D JUMPI PUSH2 0x133C PUSH2 0xB8B JUMP JUMPDEST JUMPDEST PUSH1 0x0 PUSH2 0x134B DUP5 DUP3 DUP6 ADD PUSH2 0x1312 JUMP JUMPDEST SWAP2 POP POP SWAP3 SWAP2 POP POP JUMP JUMPDEST PUSH1 0x0 PUSH1 0x20 DUP3 DUP5 SUB SLT ISZERO PUSH2 0x136A JUMPI PUSH2 0x1369 PUSH2 0xB8B JUMP JUMPDEST JUMPDEST PUSH1 0x0 PUSH2 0x1378 DUP5 DUP3 DUP6 ADD PUSH2 0x111B JUMP JUMPDEST SWAP2 POP POP SWAP3 SWAP2 POP POP JUMP JUMPDEST PUSH1 0x0 PUSH2 0x138C DUP3 PUSH2 0xB95 JUMP JUMPDEST SWAP2 POP PUSH2 0x1397 DUP4 PUSH2 0xB95 JUMP JUMPDEST SWAP3 POP DUP3 DUP3 ADD SWAP1 POP DUP1 DUP3 GT ISZERO PUSH2 0x13AF JUMPI PUSH2 0x13AE PUSH2 0xFDA JUMP JUMPDEST JUMPDEST SWAP3 SWAP2 POP POP JUMP JUMPDEST PUSH1 0x0 DUP1 REVERT JUMPDEST PUSH1 0x0 DUP1 REVERT JUMPDEST PUSH1 0x0 DUP1 REVERT JUMPDEST PUSH1 0x0 DUP3 CALLDATALOAD PUSH1 0x1 PUSH1 0x60 SUB DUP4 CALLDATASIZE SUB SUB DUP2 SLT PUSH2 0x13E0 JUMPI PUSH2 0x13DF PUSH2 0x13B5 JUMP JUMPDEST JUMPDEST DUP1 DUP4 ADD SWAP2 POP POP SWAP3 SWAP2 POP POP JUMP JUMPDEST PUSH1 0x0 DUP1 DUP4 CALLDATALOAD PUSH1 0x1 PUSH1 0x20 SUB DUP5 CALLDATASIZE SUB SUB DUP2 SLT PUSH2 0x1409 JUMPI PUSH2 0x1408 PUSH2 0x13B5 JUMP JUMPDEST JUMPDEST DUP1 DUP5 ADD SWAP3 POP DUP3 CALLDATALOAD SWAP2 POP PUSH8 0xFFFFFFFFFFFFFFFF DUP3 GT ISZERO PUSH2 0x142B JUMPI PUSH2 0x142A PUSH2 0x13BA JUMP JUMPDEST JUMPDEST PUSH1 0x20 DUP4 ADD SWAP3 POP PUSH1 0x1 DUP3 MUL CALLDATASIZE SUB DUP4 SGT ISZERO PUSH2 0x1447 JUMPI PUSH2 0x1446 PUSH2 0x13BF JUMP JUMPDEST JUMPDEST POP SWAP3 POP SWAP3 SWAP1 POP JUMP JUMPDEST PUSH1 0x0 DUP3 DUP3 MSTORE PUSH1 0x20 DUP3 ADD SWAP1 POP SWAP3 SWAP2 POP POP JUMP JUMPDEST DUP3 DUP2 DUP4 CALLDATACOPY PUSH1 0x0 DUP4 DUP4 ADD MSTORE POP POP POP JUMP JUMPDEST PUSH1 0x0 PUSH1 0x1F NOT PUSH1 0x1F DUP4 ADD AND SWAP1 POP SWAP2 SWAP1 POP JUMP JUMPDEST PUSH1 0x0 PUSH2 0x148C DUP4 DUP6 PUSH2 0x144F JUMP JUMPDEST SWAP4 POP PUSH2 0x1499 DUP4 DUP6 DUP5 PUSH2 0x1460 JUMP JUMPDEST PUSH2 0x14A2 DUP4 PUSH2 0x146F JUMP JUMPDEST DUP5 ADD SWAP1 POP SWAP4 SWAP3 POP POP POP JUMP JUMPDEST PUSH1 0x0 PUSH2 0x120 DUP3 ADD SWAP1 POP PUSH2 0x14C3 PUSH1 0x0 DUP4 ADD DUP14 PUSH2 0xEA5 JUMP JUMPDEST PUSH2 0x14D0 PUSH1 0x20 DUP4 ADD DUP13 PUSH2 0xEA5 JUMP JUMPDEST DUP2 DUP2 SUB PUSH1 0x40 DUP4 ADD MSTORE PUSH2 0x14E3 DUP2 DUP11 DUP13 PUSH2 0x1480 JUMP JUMPDEST SWAP1 POP PUSH2 0x14F2 PUSH1 0x60 DUP4 ADD DUP10 PUSH2 0xCC4 JUMP JUMPDEST PUSH2 0x14FF PUSH1 0x80 DUP4 ADD DUP9 PUSH2 0xCC4 JUMP JUMPDEST PUSH2 0x150C PUSH1 0xA0 DUP4 ADD DUP8 PUSH2 0xCC4 JUMP JUMPDEST PUSH2 0x1519 PUSH1 0xC0 DUP4 ADD DUP7 PUSH2 0xCC4 JUMP JUMPDEST PUSH2 0x1526 PUSH1 0xE0 DUP4 ADD DUP6 PUSH2 0xEA5 JUMP JUMPDEST PUSH2 0x1534 PUSH2 0x100 DUP4 ADD DUP5 PUSH2 0xCC4 JUMP JUMPDEST SWAP12 SWAP11 POP POP POP POP POP POP POP POP POP POP POP JUMP JUMPDEST PUSH2 0x154C DUP2 PUSH2 0x12EE JUMP JUMPDEST DUP3 MSTORE POP POP JUMP JUMPDEST PUSH1 0x0 PUSH1 0x80 DUP3 ADD SWAP1 POP PUSH2 0x1567 PUSH1 0x0 DUP4 ADD DUP8 PUSH2 0xEA5 JUMP JUMPDEST PUSH2 0x1574 PUSH1 0x20 DUP4 ADD DUP7 PUSH2 0x1543 JUMP JUMPDEST PUSH2 0x1581 PUSH1 0x40 DUP4 ADD DUP6 PUSH2 0xEA5 JUMP JUMPDEST PUSH2 0x158E PUSH1 0x60 DUP4 ADD DUP5 PUSH2 0xEA5 JUMP JUMPDEST SWAP6 SWAP5 POP POP POP POP POP JUMP JUMPDEST PUSH32 0x4E487B7100000000000000000000000000000000000000000000000000000000 PUSH1 0x0 MSTORE PUSH1 0x21 PUSH1 0x4 MSTORE PUSH1 0x24 PUSH1 0x0 REVERT INVALID LOG2 PUSH5 0x6970667358 0x22 SLT KECCAK256 PUSH6 0xD3C310DD8766 0x4A MUL 0xB4 0xE2 0xC4 MLOAD 0xD3 DUP13 SWAP7 PUSH27 0x77353A1DDB92F66B0A0649DC448CE364736F6C6343000816003300 "},"methodIdentifiers":{"guardian()":"452a9320","guardianResetValidatorSet(uint256,uint256,uint256,bytes32)":"3acb7646","lastValidatorSetCheckpoint()":"af082a7d","powerThreshold()":"ba95ec27","unbondingPeriod()":"6cf6d675","updateValidatorSet(bytes32,uint64,uint256,(address,uint256)[],(uint8,bytes32,bytes32)[])":"84330d4c","validatorNonce()":"e17a684f","validatorTimestamp()":"4f76f1ee","verifyOracleData((bytes32,(bytes,uint256,uint256),uint256,uint256,bytes32,uint256),(address,uint256)[],(uint8,bytes32,bytes32)[])":"cb908d52"}}}}}