{"contracts/bridge/LayerLightClientBridge.sol":{"LayerLightClientBridge":{"abi":[{"inputs":[{"internalType":"uint256","name":"_unbondingPeriod","type":"uint256"}],"stateMutability":"nonpayable","type":"constructor"},{"inputs":[{"internalType":"uint256","name":"","type":"uint256"}],"name":"blockDetails","outputs":[{"internalType":"bytes32","name":"oracleHash","type":"bytes32"},{"internalType":"uint64","name":"timeSecond","type":"uint64"},{"internalType":"uint32","name":"timeNanoSecondFraction","type":"uint32"}],"stateMutability":"view","type":"function"},{"inputs":[{"components":[{"internalType":"bytes","name":"signedDataPrefix","type":"bytes"},{"internalType":"bytes","name":"signedDataSuffix","type":"bytes"}],"internalType":"struct LayerLightClientBridge.CommonEncodedVotePartData","name":"_votePart","type":"tuple"},{"internalType":"bytes32","name":"_blockHash","type":"bytes32"}],"name":"checkPartsAndEncodedCommonParts","outputs":[{"internalType":"bytes","name":"","type":"bytes"}],"stateMutability":"pure","type":"function"},{"inputs":[{"components":[{"internalType":"bytes32","name":"r","type":"bytes32"},{"internalType":"bytes32","name":"s","type":"bytes32"},{"internalType":"uint8","name":"v","type":"uint8"},{"internalType":"bytes","name":"encodedTimestamp","type":"bytes"}],"internalType":"struct LayerLightClientBridge.TMSignatureData","name":"_sigData","type":"tuple"},{"internalType":"bytes","name":"_commonEncodedPart","type":"bytes"},{"internalType":"bytes","name":"_encodedChainID","type":"bytes"}],"name":"checkTimeAndRecoverSigner","outputs":[{"internalType":"address","name":"","type":"address"}],"stateMutability":"pure","type":"function"},{"inputs":[],"name":"encodedChainId","outputs":[{"internalType":"bytes","name":"","type":"bytes"}],"stateMutability":"view","type":"function"},{"inputs":[{"components":[{"internalType":"bytes32","name":"oracleIAVLStateHash","type":"bytes32"},{"internalType":"bytes32","name":"paramsStoreMerkleHash","type":"bytes32"},{"internalType":"bytes32","name":"slashingToStakingStoresMerkleHash","type":"bytes32"},{"internalType":"bytes32","name":"govToMintStoresMerkleHash","type":"bytes32"},{"internalType":"bytes32","name":"authToFeegrantStoresMerkleHash","type":"bytes32"},{"internalType":"bytes32","name":"transferToUpgradeStoresMerkleHash","type":"bytes32"}],"internalType":"struct LayerLightClientBridge.MultistoreData","name":"_store","type":"tuple"}],"name":"getAppHash","outputs":[{"internalType":"bytes32","name":"","type":"bytes32"}],"stateMutability":"pure","type":"function"},{"inputs":[{"components":[{"internalType":"bytes32","name":"oracleIAVLStateHash","type":"bytes32"},{"internalType":"bytes32","name":"paramsStoreMerkleHash","type":"bytes32"},{"internalType":"bytes32","name":"slashingToStakingStoresMerkleHash","type":"bytes32"},{"internalType":"bytes32","name":"govToMintStoresMerkleHash","type":"bytes32"},{"internalType":"bytes32","name":"authToFeegrantStoresMerkleHash","type":"bytes32"},{"internalType":"bytes32","name":"transferToUpgradeStoresMerkleHash","type":"bytes32"}],"internalType":"struct LayerLightClientBridge.MultistoreData","name":"_store","type":"tuple"}],"name":"getAppHash2","outputs":[{"internalType":"bytes32","name":"","type":"bytes32"}],"stateMutability":"pure","type":"function"},{"inputs":[{"components":[{"internalType":"bytes32","name":"oracleIAVLStateHash","type":"bytes32"},{"internalType":"bytes32","name":"paramsStoreMerkleHash","type":"bytes32"},{"internalType":"bytes32","name":"slashingToStakingStoresMerkleHash","type":"bytes32"},{"internalType":"bytes32","name":"govToMintStoresMerkleHash","type":"bytes32"},{"internalType":"bytes32","name":"authToFeegrantStoresMerkleHash","type":"bytes32"},{"internalType":"bytes32","name":"transferToUpgradeStoresMerkleHash","type":"bytes32"}],"internalType":"struct LayerLightClientBridge.MultistoreData","name":"_store","type":"tuple"}],"name":"getAppHash3","outputs":[{"internalType":"bytes32","name":"","type":"bytes32"}],"stateMutability":"pure","type":"function"},{"inputs":[{"components":[{"internalType":"bytes32","name":"versionAndChainIdHash","type":"bytes32"},{"internalType":"uint64","name":"height","type":"uint64"},{"internalType":"uint64","name":"timeSecond","type":"uint64"},{"internalType":"uint32","name":"timeNanoSecondFraction","type":"uint32"},{"internalType":"bytes32","name":"lastBlockIdAndOther","type":"bytes32"},{"internalType":"bytes32","name":"nextValidatorHashAndConsensusHash","type":"bytes32"},{"internalType":"bytes32","name":"lastResultsHash","type":"bytes32"},{"internalType":"bytes32","name":"evidenceAndProposerHash","type":"bytes32"}],"internalType":"struct LayerLightClientBridge.BlockHeaderMerkleParts","name":"_merkleParts","type":"tuple"},{"internalType":"bytes32","name":"_appHash","type":"bytes32"}],"name":"getBlockHeader","outputs":[{"internalType":"bytes32","name":"","type":"bytes32"}],"stateMutability":"pure","type":"function"},{"inputs":[{"internalType":"address[]","name":"_validators","type":"address[]"},{"internalType":"uint256[]","name":"_powers","type":"uint256[]"},{"internalType":"string","name":"_encodedChainID","type":"string"}],"name":"init","outputs":[],"stateMutability":"nonpayable","type":"function"},{"inputs":[],"name":"latestBlockHeight","outputs":[{"internalType":"uint256","name":"","type":"uint256"}],"stateMutability":"view","type":"function"},{"inputs":[{"components":[{"internalType":"bytes32","name":"versionAndChainIdHash","type":"bytes32"},{"internalType":"uint64","name":"height","type":"uint64"},{"internalType":"uint64","name":"timeSecond","type":"uint64"},{"internalType":"uint32","name":"timeNanoSecondFraction","type":"uint32"},{"internalType":"bytes32","name":"lastBlockIdAndOther","type":"bytes32"},{"internalType":"bytes32","name":"nextValidatorHashAndConsensusHash","type":"bytes32"},{"internalType":"bytes32","name":"lastResultsHash","type":"bytes32"},{"internalType":"bytes32","name":"evidenceAndProposerHash","type":"bytes32"}],"internalType":"struct LayerLightClientBridge.BlockHeaderMerkleParts","name":"_merkleParts","type":"tuple"}],"name":"readBlockHeaderMerkleParts","outputs":[{"components":[{"internalType":"bytes32","name":"versionAndChainIdHash","type":"bytes32"},{"internalType":"uint64","name":"height","type":"uint64"},{"internalType":"uint64","name":"timeSecond","type":"uint64"},{"internalType":"uint32","name":"timeNanoSecondFraction","type":"uint32"},{"internalType":"bytes32","name":"lastBlockIdAndOther","type":"bytes32"},{"internalType":"bytes32","name":"nextValidatorHashAndConsensusHash","type":"bytes32"},{"internalType":"bytes32","name":"lastResultsHash","type":"bytes32"},{"internalType":"bytes32","name":"evidenceAndProposerHash","type":"bytes32"}],"internalType":"struct LayerLightClientBridge.BlockHeaderMerkleParts","name":"","type":"tuple"}],"stateMutability":"pure","type":"function"},{"inputs":[{"components":[{"internalType":"bytes","name":"signedDataPrefix","type":"bytes"},{"internalType":"bytes","name":"signedDataSuffix","type":"bytes"}],"internalType":"struct LayerLightClientBridge.CommonEncodedVotePartData","name":"_commonEncodedVotePart","type":"tuple"}],"name":"readCommonEncodedVotePartData","outputs":[{"components":[{"internalType":"bytes","name":"signedDataPrefix","type":"bytes"},{"internalType":"bytes","name":"signedDataSuffix","type":"bytes"}],"internalType":"struct LayerLightClientBridge.CommonEncodedVotePartData","name":"","type":"tuple"}],"stateMutability":"pure","type":"function"},{"inputs":[{"components":[{"internalType":"bytes32","name":"oracleIAVLStateHash","type":"bytes32"},{"internalType":"bytes32","name":"paramsStoreMerkleHash","type":"bytes32"},{"internalType":"bytes32","name":"slashingToStakingStoresMerkleHash","type":"bytes32"},{"internalType":"bytes32","name":"govToMintStoresMerkleHash","type":"bytes32"},{"internalType":"bytes32","name":"authToFeegrantStoresMerkleHash","type":"bytes32"},{"internalType":"bytes32","name":"transferToUpgradeStoresMerkleHash","type":"bytes32"}],"internalType":"struct LayerLightClientBridge.MultistoreData","name":"_multiStore","type":"tuple"}],"name":"readMultistoreData","outputs":[{"internalType":"bytes","name":"","type":"bytes"}],"stateMutability":"pure","type":"function"},{"inputs":[{"components":[{"internalType":"bytes32","name":"r","type":"bytes32"},{"internalType":"bytes32","name":"s","type":"bytes32"},{"internalType":"uint8","name":"v","type":"uint8"},{"internalType":"bytes","name":"encodedTimestamp","type":"bytes"}],"internalType":"struct LayerLightClientBridge.TMSignatureData","name":"_signatureData","type":"tuple"}],"name":"readTMSignatureData","outputs":[{"components":[{"internalType":"bytes32","name":"r","type":"bytes32"},{"internalType":"bytes32","name":"s","type":"bytes32"},{"internalType":"uint8","name":"v","type":"uint8"},{"internalType":"bytes","name":"encodedTimestamp","type":"bytes"}],"internalType":"struct LayerLightClientBridge.TMSignatureData","name":"","type":"tuple"}],"stateMutability":"pure","type":"function"},{"inputs":[{"components":[{"internalType":"bytes32","name":"oracleIAVLStateHash","type":"bytes32"},{"internalType":"bytes32","name":"paramsStoreMerkleHash","type":"bytes32"},{"internalType":"bytes32","name":"slashingToStakingStoresMerkleHash","type":"bytes32"},{"internalType":"bytes32","name":"govToMintStoresMerkleHash","type":"bytes32"},{"internalType":"bytes32","name":"authToFeegrantStoresMerkleHash","type":"bytes32"},{"internalType":"bytes32","name":"transferToUpgradeStoresMerkleHash","type":"bytes32"}],"internalType":"struct LayerLightClientBridge.MultistoreData","name":"_multiStore","type":"tuple"},{"components":[{"internalType":"bytes32","name":"versionAndChainIdHash","type":"bytes32"},{"internalType":"uint64","name":"height","type":"uint64"},{"internalType":"uint64","name":"timeSecond","type":"uint64"},{"internalType":"uint32","name":"timeNanoSecondFraction","type":"uint32"},{"internalType":"bytes32","name":"lastBlockIdAndOther","type":"bytes32"},{"internalType":"bytes32","name":"nextValidatorHashAndConsensusHash","type":"bytes32"},{"internalType":"bytes32","name":"lastResultsHash","type":"bytes32"},{"internalType":"bytes32","name":"evidenceAndProposerHash","type":"bytes32"}],"internalType":"struct LayerLightClientBridge.BlockHeaderMerkleParts","name":"_merkleParts","type":"tuple"},{"components":[{"internalType":"bytes","name":"signedDataPrefix","type":"bytes"},{"internalType":"bytes","name":"signedDataSuffix","type":"bytes"}],"internalType":"struct LayerLightClientBridge.CommonEncodedVotePartData","name":"_commonEncodedVotePart","type":"tuple"},{"components":[{"internalType":"bytes32","name":"r","type":"bytes32"},{"internalType":"bytes32","name":"s","type":"bytes32"},{"internalType":"uint8","name":"v","type":"uint8"},{"internalType":"bytes","name":"encodedTimestamp","type":"bytes"}],"internalType":"struct LayerLightClientBridge.TMSignatureData[]","name":"_signatures","type":"tuple[]"}],"name":"relayBlock","outputs":[],"stateMutability":"nonpayable","type":"function"},{"inputs":[],"name":"totalValidatorPower","outputs":[{"internalType":"uint256","name":"","type":"uint256"}],"stateMutability":"view","type":"function"},{"inputs":[],"name":"unbondingPeriod","outputs":[{"internalType":"uint256","name":"","type":"uint256"}],"stateMutability":"view","type":"function"},{"inputs":[{"internalType":"address","name":"","type":"address"}],"name":"validatorPowers","outputs":[{"internalType":"uint256","name":"","type":"uint256"}],"stateMutability":"view","type":"function"},{"inputs":[{"components":[{"internalType":"bytes32","name":"oracleIAVLStateHash","type":"bytes32"},{"internalType":"bytes32","name":"paramsStoreMerkleHash","type":"bytes32"},{"internalType":"bytes32","name":"slashingToStakingStoresMerkleHash","type":"bytes32"},{"internalType":"bytes32","name":"govToMintStoresMerkleHash","type":"bytes32"},{"internalType":"bytes32","name":"authToFeegrantStoresMerkleHash","type":"bytes32"},{"internalType":"bytes32","name":"transferToUpgradeStoresMerkleHash","type":"bytes32"}],"internalType":"struct LayerLightClientBridge.MultistoreData","name":"_multiStore","type":"tuple"},{"components":[{"internalType":"bytes32","name":"versionAndChainIdHash","type":"bytes32"},{"internalType":"uint64","name":"height","type":"uint64"},{"internalType":"uint64","name":"timeSecond","type":"uint64"},{"internalType":"uint32","name":"timeNanoSecondFraction","type":"uint32"},{"internalType":"bytes32","name":"lastBlockIdAndOther","type":"bytes32"},{"internalType":"bytes32","name":"nextValidatorHashAndConsensusHash","type":"bytes32"},{"internalType":"bytes32","name":"lastResultsHash","type":"bytes32"},{"internalType":"bytes32","name":"evidenceAndProposerHash","type":"bytes32"}],"internalType":"struct LayerLightClientBridge.BlockHeaderMerkleParts","name":"_merkleParts","type":"tuple"},{"components":[{"internalType":"bytes","name":"signedDataPrefix","type":"bytes"},{"internalType":"bytes","name":"signedDataSuffix","type":"bytes"}],"internalType":"struct LayerLightClientBridge.CommonEncodedVotePartData","name":"_commonEncodedVotePart","type":"tuple"},{"components":[{"internalType":"bytes32","name":"r","type":"bytes32"},{"internalType":"bytes32","name":"s","type":"bytes32"},{"internalType":"uint8","name":"v","type":"uint8"},{"internalType":"bytes","name":"encodedTimestamp","type":"bytes"}],"internalType":"struct LayerLightClientBridge.TMSignatureData[]","name":"_signatures","type":"tuple[]"}],"name":"verifyBlockHeader","outputs":[{"internalType":"bool","name":"","type":"bool"}],"stateMutability":"view","type":"function"},{"inputs":[{"internalType":"uint256","name":"_blockHeight","type":"uint256"},{"components":[{"internalType":"string","name":"clientID","type":"string"},{"internalType":"uint64","name":"oracleScriptID","type":"uint64"},{"internalType":"bytes","name":"params","type":"bytes"},{"internalType":"uint64","name":"askCount","type":"uint64"},{"internalType":"uint64","name":"minCount","type":"uint64"},{"internalType":"uint64","name":"requestID","type":"uint64"},{"internalType":"uint64","name":"ansCount","type":"uint64"},{"internalType":"uint64","name":"requestTime","type":"uint64"},{"internalType":"uint64","name":"resolveTime","type":"uint64"},{"internalType":"enum LayerLightClientBridge.ResolveStatus","name":"resolveStatus","type":"uint8"},{"internalType":"bytes","name":"result","type":"bytes"}],"internalType":"struct LayerLightClientBridge.Value","name":"_value","type":"tuple"},{"internalType":"uint256","name":"_oracleHeight","type":"uint256"},{"components":[{"internalType":"bool","name":"isDataOnRight","type":"bool"},{"internalType":"uint8","name":"subtreeHeight","type":"uint8"},{"internalType":"uint256","name":"subtreeSize","type":"uint256"},{"internalType":"uint256","name":"subtreeVersion","type":"uint256"},{"internalType":"bytes32","name":"siblingHash","type":"bytes32"}],"internalType":"struct LayerLightClientBridge.IAVLMerklePath[]","name":"_merklePaths","type":"tuple[]"}],"name":"verifyOracleData","outputs":[{"components":[{"internalType":"string","name":"clientID","type":"string"},{"internalType":"uint64","name":"oracleScriptID","type":"uint64"},{"internalType":"bytes","name":"params","type":"bytes"},{"internalType":"uint64","name":"askCount","type":"uint64"},{"internalType":"uint64","name":"minCount","type":"uint64"},{"internalType":"uint64","name":"requestID","type":"uint64"},{"internalType":"uint64","name":"ansCount","type":"uint64"},{"internalType":"uint64","name":"requestTime","type":"uint64"},{"internalType":"uint64","name":"resolveTime","type":"uint64"},{"internalType":"enum LayerLightClientBridge.ResolveStatus","name":"resolveStatus","type":"uint8"},{"internalType":"bytes","name":"result","type":"bytes"}],"internalType":"struct LayerLightClientBridge.Value","name":"","type":"tuple"}],"stateMutability":"view","type":"function"}],"evm":{"bytecode":{"linkReferences":{},"object":"60806040523480156200001157600080fd5b50604051620048f0380380620048f083398181016040528101906200003791906200005c565b8060028190555050620000ac565b600081519050620000568162000092565b92915050565b6000602082840312156200006f57600080fd5b60006200007f8482850162000045565b91505092915050565b6000819050919050565b6200009d8162000088565b8114620000a957600080fd5b50565b61483480620000bc6000396000f3fe608060405234801561001057600080fd5b506004361061012c5760003560e01c8063847c1b23116100ad578063e71296e111610071578063e71296e1146103b5578063f3f39ee5146103e5578063f61aa09d14610403578063f8156a6e14610433578063f953205a146104515761012c565b8063847c1b23146102ed57806393a4a1341461031d578063af4b910714610339578063c573d97714610355578063cc2532ba146103855761012c565b80635cd2458c116100f45780635cd2458c1461022157806364c4719314610251578063679b7b9a1461026f5780636cf6d6751461029f578063760729c3146102bd5761012c565b8063071ee1e1146101315780630a4723e6146101615780630ac804c5146101915780631b60f867146101c15780632ff08eb5146101f1575b600080fd5b61014b6004803603810190610146919061310f565b610483565b6040516101589190613c9b565b60405180910390f35b61017b60048036038101906101769190612eb6565b6105ec565b6040516101889190613eca565b60405180910390f35b6101ab60048036038101906101a6919061300f565b610616565b6040516101b89190613cd1565b60405180910390f35b6101db60048036038101906101d69190612e4e565b6106ff565b6040516101e89190613eae565b60405180910390f35b61020b600480360381019061020691906130ce565b61070f565b6040516102189190613eec565b60405180910390f35b61023b60048036038101906102369190612ef7565b61071f565b6040516102489190613d68565b60405180910390f35b6102596107f5565b6040516102669190613d68565b60405180910390f35b6102896004803603810190610284919061300f565b610883565b6040516102969190613d68565b60405180910390f35b6102a76108ce565b6040516102b49190613f30565b60405180910390f35b6102d760048036038101906102d2919061300f565b6108d4565b6040516102e49190613cd1565b60405180910390f35b61030760048036038101906103029190612e78565b6109db565b6040516103149190613cd1565b60405180910390f35b61033760048036038101906103329190612d81565b610ac4565b005b610353600480360381019061034e9190612f74565b610c9e565b005b61036f600480360381019061036a91906131cf565b610e0a565b60405161037c9190613f0e565b60405180910390f35b61039f600480360381019061039a9190613038565b610fc5565b6040516103ac9190613cb6565b60405180910390f35b6103cf60048036038101906103ca919061300f565b611225565b6040516103dc9190613cd1565b60405180910390f35b6103ed61132c565b6040516103fa9190613f30565b60405180910390f35b61041d60048036038101906104189190612d58565b611332565b60405161042a9190613f30565b60405180910390f35b61043b61134a565b6040516104489190613f30565b60405180910390f35b61046b600480360381019061046691906131a6565b611350565b60405161047a93929190613cec565b60405180910390f35b60008360600151516006111580156104a15750600c84606001515111155b6104e0576040517f08c379a00000000000000000000000000000000000000000000000000000000081526004016104d790613e6e565b60405180910390fd5b600083602a866060015151876060015186604051602001610505959493929190613a1a565b60405160208183030381529060405290506001600282518360405160200161052e929190613b18565b60405160208183030381529060405260405161054a9190613930565b602060405180830381855afa158015610567573d6000803e3d6000fd5b5050506040513d601f19601f8201168201806040525081019061058a9190612e25565b866040015187600001518860200151604051600081526020016040526040516105b69493929190613d23565b6020604051602081039080840390855afa1580156105d8573d6000803e3d6000fd5b505050602060405103519150509392505050565b6105f46122bf565b610601826000015161139e565b61060e826020015161139e565b819050919050565b6000806106f46106ea84608001516106e586606001516106e088604001516106db6106d160028c6000015160405160200161065191906138a5565b60405160208183030381529060405260405161066d9190613930565b602060405180830381855afa15801561068a573d6000803e3d6000fd5b5050506040513d601f19601f820116820180604052508101906106ad9190612e25565b6040516020016106bd9190613a93565b604051602081830303815290604052611437565b8b602001516114b2565b6114b2565b6114b2565b6114b2565b8460a001516114b2565b905080915050919050565b6107076122d9565b819050919050565b610717612347565b819050919050565b6060600f836000015151148061073a57506018836000015151145b610779576040517f08c379a000000000000000000000000000000000000000000000000000000000815260040161077090613dce565b60405180910390fd5b6026836020015151146107c1576040517f08c379a00000000000000000000000000000000000000000000000000000000081526004016107b890613dae565b60405180910390fd5b82600001518284602001516040516020016107de93929190613947565b604051602081830303815290604052905092915050565b60008054610802906142e9565b80601f016020809104026020016040519081016040528092919081815260200182805461082e906142e9565b801561087b5780601f106108505761010080835404028352916020019161087b565b820191906000526020600020905b81548152906001019060200180831161085e57829003601f168201915b505050505081565b6060816000015182602001518360400151846060015185608001518660a001516040516020016108b8969594939291906138c0565b6040516020818303038152906040529050919050565b60025481565b600080610971600284600001516040516020016108f191906138a5565b60405160208183030381529060405260405161090d9190613930565b602060405180830381855afa15801561092a573d6000803e3d6000fd5b5050506040513d601f19601f8201168201806040525081019061094d9190612e25565b60405160200161095d9190613a6d565b604051602081830303815290604052611437565b905060006109838285602001516114b2565b905060006109958560400151836114b2565b905060006109a78660600151836114b2565b905060006109b98760800151836114b2565b905060006109cb828960a001516114b2565b9050809650505050505050919050565b600080610ab8610a5e610a548660000151610a4f610a306008610a0b8b6020015167ffffffffffffffff16611530565b604051602001610a1c929190613b18565b604051602081830303815290604052611437565b610a4a610a458b604001518c606001516116fb565b611437565b6114b2565b6114b2565b86608001516114b2565b610ab3610aa98760a00151610aa4610a9a600a60208b604051602001610a8693929190613be5565b604051602081830303815290604052611437565b8a60c001516114b2565b6114b2565b8760e001516114b2565b6114b2565b90508091505092915050565b6000808054610ad2906142e9565b905014610b14576040517f08c379a0000000000000000000000000000000000000000000000000000000008152600401610b0b90613e2e565b60405180910390fd5b60005b86869050811015610c5d57848482818110610b5b577f4e487b7100000000000000000000000000000000000000000000000000000000600052603260045260246000fd5b9050602002013560046000898985818110610b9f577f4e487b7100000000000000000000000000000000000000000000000000000000600052603260045260246000fd5b9050602002016020810190610bb49190612d58565b73ffffffffffffffffffffffffffffffffffffffff1673ffffffffffffffffffffffffffffffffffffffff16815260200190815260200160002081905550848482818110610c2b577f4e487b7100000000000000000000000000000000000000000000000000000000600052603260045260246000fd5b9050602002013560016000828254610c43919061406e565b925050819055508080610c559061434c565b915050610b17565b508181604051602001610c71929190613d8a565b60405160208183030381529060405260009080519060200190610c95929190612378565b50505050505050565b610cdf85803603810190610cb2919061300f565b85803603810190610cc39190612e4e565b85610ccd90614281565b858590610cda919061425a565b610fc5565b610d1e576040517f08c379a0000000000000000000000000000000000000000000000000000000008152600401610d1590613dee565b60405180910390fd5b604051806060016040528086600001358152602001856040016020810190610d469190613290565b67ffffffffffffffff168152602001856060016020810190610d689190613267565b63ffffffff1681525060056000866020016020810190610d889190613290565b67ffffffffffffffff1681526020019081526020016000206000820151816000015560208201518160010160006101000a81548167ffffffffffffffff021916908367ffffffffffffffff16021790555060408201518160010160086101000a81548163ffffffff021916908363ffffffff1602179055509050505050505050565b610e126123fe565b6000600560008881526020019081526020016000206000015490506000801b811415610e73576040517f08c379a0000000000000000000000000000000000000000000000000000000008152600401610e6a90613e0e565b60405180910390fd5b60006002610e8988610e8490614294565b61177f565b604051610e969190613930565b602060405180830381855afa158015610eb3573d6000803e3d6000fd5b5050506040513d601f19601f82011682018060405250810190610ed69190612e25565b9050610f6f828760ff8a60a0016020810190610ef29190613290565b604051602001610f03929190613bb9565b604051602081830303815290604052848989808060200260200160405190810160405280939291908181526020016000905b82821015610f6557848483905060a00201803603810190610f569190612f4b565b81526020019060010190610f35565b5050505050611e03565b610fae576040517f08c379a0000000000000000000000000000000000000000000000000000000008152600401610fa590613e4e565b60405180910390fd5b86610fb890614294565b9250505095945050505050565b600080610fd186611225565b90506000610fdf86836109db565b90506000610fed868361071f565b90506000808054610ffd906142e9565b80601f0160208091040260200160405190810160405280929190818152602001828054611029906142e9565b80156110765780601f1061104b57610100808354040283529160200191611076565b820191906000526020600020905b81548152906001019060200180831161105957829003601f168201915b5050505050905060008060005b88518110156111f65760006110d98a83815181106110ca577f4e487b7100000000000000000000000000000000000000000000000000000000600052603260045260246000fd5b60200260200101518787610483565b90508373ffffffffffffffffffffffffffffffffffffffff168173ffffffffffffffffffffffffffffffffffffffff1611611149576040517f08c379a000000000000000000000000000000000000000000000000000000000815260040161114090613e8e565b60405180910390fd5b6000600460008373ffffffffffffffffffffffffffffffffffffffff1673ffffffffffffffffffffffffffffffffffffffff1681526020019081526020016000205411156111df57600460008273ffffffffffffffffffffffffffffffffffffffff1673ffffffffffffffffffffffffffffffffffffffff16815260200190815260200160002054836111dc919061406e565b92505b8093505080806111ee9061434c565b915050611083565b5060026001546112069190614102565b6003826112139190614102565b10159650505050505050949350505050565b6000806112c26002846000015160405160200161124291906138a5565b60405160208183030381529060405260405161125e9190613930565b602060405180830381855afa15801561127b573d6000803e3d6000fd5b5050506040513d601f19601f8201168201806040525081019061129e9190612e25565b6040516020016112ae9190613a6d565b604051602081830303815290604052611437565b905060006112d48460200151836114b2565b905060006112e68560400151836114b2565b905060006112f88660600151836114b2565b9050600061130a8760800151836114b2565b9050600061131c828960a001516114b2565b9050809650505050505050919050565b60035481565b60046020528060005260406000206000915090505481565b60015481565b60056020528060005260406000206000915090508060000154908060010160009054906101000a900467ffffffffffffffff16908060010160089054906101000a900463ffffffff16905083565b611434816040516024016113b29190613d68565b6040516020818303038152906040527f0be77f56000000000000000000000000000000000000000000000000000000007bffffffffffffffffffffffffffffffffffffffffffffffffffffffff19166020820180517bffffffffffffffffffffffffffffffffffffffffffffffffffffffff8381831617835250505050611f10565b50565b6000600260008360405160200161144f929190613b18565b60405160208183030381529060405260405161146b9190613930565b602060405180830381855afa158015611488573d6000803e3d6000fd5b5050506040513d601f19601f820116820180604052508101906114ab9190612e25565b9050919050565b60006002600184846040516020016114cc93929190613adb565b6040516020818303038152906040526040516114e89190613930565b602060405180830381855afa158015611505573d6000803e3d6000fd5b5050506040513d601f19601f820116820180604052508101906115289190612e25565b905092915050565b6060600082905060005b600082111561155b578061154d9061434c565b9050600782901c915061153a565b60008167ffffffffffffffff81111561159d577f4e487b7100000000000000000000000000000000000000000000000000000000600052604160045260246000fd5b6040519080825280601f01601f1916602001820160405280156115cf5781602001600182028036833780820191505090505b50905084925060005b8281101561166a57607f841660801760f81b828281518110611623577f4e487b7100000000000000000000000000000000000000000000000000000000600052603260045260246000fd5b60200101907effffffffffffffffffffffffffffffffffffffffffffffffffffffffffffff1916908160001a905350600784901c9350806116639061434c565b90506115d8565b50607f60f81b8160018461167e919061415c565b815181106116b5577f4e487b7100000000000000000000000000000000000000000000000000000000600052603260045260246000fd5b6020010181815160f81c60f81b169150907effffffffffffffffffffffffffffffffffffffffffffffffffffffffffffff1916908160001a905350809350505050919050565b606060006117128467ffffffffffffffff16611530565b6040516020016117229190613ab9565b604051602081830303815290604052905060008363ffffffff16111561177557806117528463ffffffff16611530565b6040516020016117639291906139eb565b60405160208183030381529060405290505b8091505092915050565b6060806000836000015151111561180d57806117d56001600260068111156117d0577f4e487b7100000000000000000000000000000000000000000000000000000000600052602160045260246000fd5b611f2a565b6117e3856000015151611f59565b85600001516040516020016117fb94939291906139ad565b60405160208183030381529060405290505b6000836020015167ffffffffffffffff16146118995780611868600260006006811115611863577f4e487b7100000000000000000000000000000000000000000000000000000000600052602160045260246000fd5b611f2a565b6118758560200151611f59565b6040516020016118879392919061397c565b60405160208183030381529060405290505b6000836040015151111561192457806118ec6003600260068111156118e7577f4e487b7100000000000000000000000000000000000000000000000000000000600052602160045260246000fd5b611f2a565b6118fa856040015151611f59565b856040015160405160200161191294939291906139ad565b60405160208183030381529060405290505b6000836060015167ffffffffffffffff16146119b0578061197f60046000600681111561197a577f4e487b7100000000000000000000000000000000000000000000000000000000600052602160045260246000fd5b611f2a565b61198c8560600151611f59565b60405160200161199e9392919061397c565b60405160208183030381529060405290505b6000836080015167ffffffffffffffff1614611a3c5780611a0b600560006006811115611a06577f4e487b7100000000000000000000000000000000000000000000000000000000600052602160045260246000fd5b611f2a565b611a188560800151611f59565b604051602001611a2a9392919061397c565b60405160208183030381529060405290505b60008360a0015167ffffffffffffffff1614611ac85780611a97600660006006811115611a92577f4e487b7100000000000000000000000000000000000000000000000000000000600052602160045260246000fd5b611f2a565b611aa48560a00151611f59565b604051602001611ab69392919061397c565b60405160208183030381529060405290505b60008360c0015167ffffffffffffffff1614611b545780611b23600760006006811115611b1e577f4e487b7100000000000000000000000000000000000000000000000000000000600052602160045260246000fd5b611f2a565b611b308560c00151611f59565b604051602001611b429392919061397c565b60405160208183030381529060405290505b60008360e0015167ffffffffffffffff1614611be05780611baf600860006006811115611baa577f4e487b7100000000000000000000000000000000000000000000000000000000600052602160045260246000fd5b611f2a565b611bbc8560e00151611f59565b604051602001611bce9392919061397c565b60405160208183030381529060405290505b600083610100015167ffffffffffffffff1614611c6e5780611c3c600960006006811115611c37577f4e487b7100000000000000000000000000000000000000000000000000000000600052602160045260246000fd5b611f2a565b611c4a856101000151611f59565b604051602001611c5c9392919061397c565b60405160208183030381529060405290505b60008361012001516003811115611cae577f4e487b7100000000000000000000000000000000000000000000000000000000600052602160045260246000fd5b67ffffffffffffffff1614611d6c5780611d02600a60006006811115611cfd577f4e487b7100000000000000000000000000000000000000000000000000000000600052602160045260246000fd5b611f2a565b611d488561012001516003811115611d43577f4e487b7100000000000000000000000000000000000000000000000000000000600052602160045260246000fd5b611f6b565b604051602001611d5a9392919061397c565b60405160208183030381529060405290505b6000836101400151511115611dfa5780611dc0600b60026006811115611dbb577f4e487b7100000000000000000000000000000000000000000000000000000000600052602160045260246000fd5b611f2a565b611dcf85610140015151611f59565b856101400151604051602001611de894939291906139ad565b60405160208183030381529060405290505b80915050919050565b600080611e0f86611530565b905060006002600060028489518a60208b604051602001611e369796959493929190613c22565b604051602081830303815290604052604051611e529190613930565b602060405180830381855afa158015611e6f573d6000803e3d6000fd5b5050506040513d601f19601f82011682018060405250810190611e929190612e25565b905060005b8451811015611eff57611eea858281518110611edc577f4e487b7100000000000000000000000000000000000000000000000000000000600052603260045260246000fd5b602002602001015183611f83565b91508080611ef79061434c565b915050611e97565b508781149250505095945050505050565b611f2781611f1f612051612072565b63ffffffff16565b50565b606060008260038567ffffffffffffffff16901b1790506000611f4c8261207d565b9050809250505092915050565b6060611f648261207d565b9050919050565b6060611f7c8263ffffffff1661207d565b9050919050565b60008060008460000151611f9c57838560800151611fa3565b8460800151845b9150915060026001866020015160ff16901b611fc287604001516122a1565b611fcf88606001516122a1565b602086602087604051602001611feb9796959493929190613b40565b6040516020818303038152906040526040516120079190613930565b602060405180830381855afa158015612024573d6000803e3d6000fd5b5050506040513d601f19601f820116820180604052508101906120479190612e25565b9250505092915050565b60006a636f6e736f6c652e6c6f679050600080835160208501845afa505050565b6124d6819050919050565b606060008290506000600190505b607f8267ffffffffffffffff1611156120c35760078267ffffffffffffffff16901c91506001816120bc91906140c4565b905061208b565b60008167ffffffffffffffff1667ffffffffffffffff81111561210f577f4e487b7100000000000000000000000000000000000000000000000000000000600052604160045260246000fd5b6040519080825280601f01601f1916602001820160405280156121415781602001600182028036833780820191505090505b50905084925060005b8267ffffffffffffffff168167ffffffffffffffff16101561220657607f841660801760f81b828267ffffffffffffffff16815181106121b3577f4e487b7100000000000000000000000000000000000000000000000000000000600052603260045260246000fd5b60200101907effffffffffffffffffffffffffffffffffffffffffffffffffffffffffffff1916908160001a90535060078467ffffffffffffffff16901c935080806121fe90614395565b91505061214a565b50607f60f81b8160018461221a9190614190565b67ffffffffffffffff168151811061225b577f4e487b7100000000000000000000000000000000000000000000000000000000600052603260045260246000fd5b6020010181815160f81c60f81b169150907effffffffffffffffffffffffffffffffffffffffffffffffffffffffffffff1916908160001a905350809350505050919050565b60606122b86002836122b39190614102565b611530565b9050919050565b604051806040016040528060608152602001606081525090565b60405180610100016040528060008019168152602001600067ffffffffffffffff168152602001600067ffffffffffffffff168152602001600063ffffffff168152602001600080191681526020016000801916815260200160008019168152602001600080191681525090565b60405180608001604052806000801916815260200160008019168152602001600060ff168152602001606081525090565b828054612384906142e9565b90600052602060002090601f0160209004810192826123a657600085556123ed565b82601f106123bf57805160ff19168380011785556123ed565b828001600101855582156123ed579182015b828111156123ec5782518255916020019190600101906123d1565b5b5090506123fa9190612505565b5090565b60405180610160016040528060608152602001600067ffffffffffffffff16815260200160608152602001600067ffffffffffffffff168152602001600067ffffffffffffffff168152602001600067ffffffffffffffff168152602001600067ffffffffffffffff168152602001600067ffffffffffffffff168152602001600067ffffffffffffffff168152602001600060038111156124c9577f4e487b7100000000000000000000000000000000000000000000000000000000600052602160045260246000fd5b8152602001606081525090565b7f4e487b7100000000000000000000000000000000000000000000000000000000600052605160045260246000fd5b5b8082111561251e576000816000905550600101612506565b5090565b600061253561253084613f70565b613f4b565b9050808382526020820190508260005b85811015612575578135850161255b8882612b0c565b845260208401935060208301925050600181019050612545565b5050509392505050565b600061259261258d84613f9c565b613f4b565b9050828152602081018484840111156125aa57600080fd5b6125b58482856142a7565b509392505050565b60006125d06125cb84613fcd565b613f4b565b9050828152602081018484840111156125e857600080fd5b6125f38482856142a7565b509392505050565b60008135905061260a8161474d565b92915050565b60008083601f84011261262257600080fd5b8235905067ffffffffffffffff81111561263b57600080fd5b60208301915083602082028301111561265357600080fd5b9250929050565b60008083601f84011261266c57600080fd5b8235905067ffffffffffffffff81111561268557600080fd5b6020830191508360a082028301111561269d57600080fd5b9250929050565b60008083601f8401126126b657600080fd5b8235905067ffffffffffffffff8111156126cf57600080fd5b6020830191508360208202830111156126e757600080fd5b9250929050565b600082601f8301126126ff57600080fd5b813561270f848260208601612522565b91505092915050565b60008083601f84011261272a57600080fd5b8235905067ffffffffffffffff81111561274357600080fd5b60208301915083602082028301111561275b57600080fd5b9250929050565b60008135905061277181614764565b92915050565b6000813590506127868161477b565b92915050565b60008151905061279b8161477b565b92915050565b600082601f8301126127b257600080fd5b81356127c284826020860161257f565b91505092915050565b6000813590506127da81614792565b92915050565b60008083601f8401126127f257600080fd5b8235905067ffffffffffffffff81111561280b57600080fd5b60208301915083600182028301111561282357600080fd5b9250929050565b600082601f83011261283b57600080fd5b813561284b8482602086016125bd565b91505092915050565b6000610100828403121561286757600080fd5b81905092915050565b6000610100828403121561288357600080fd5b61288e610100613f4b565b9050600061289e84828501612777565b60008301525060206128b284828501612d2e565b60208301525060406128c684828501612d2e565b60408301525060606128da84828501612d19565b60608301525060806128ee84828501612777565b60808301525060a061290284828501612777565b60a08301525060c061291684828501612777565b60c08301525060e061292a84828501612777565b60e08301525092915050565b60006040828403121561294857600080fd5b81905092915050565b60006040828403121561296357600080fd5b61296d6040613f4b565b9050600082013567ffffffffffffffff81111561298957600080fd5b612995848285016127a1565b600083015250602082013567ffffffffffffffff8111156129b557600080fd5b6129c1848285016127a1565b60208301525092915050565b600060a082840312156129df57600080fd5b6129e960a0613f4b565b905060006129f984828501612762565b6000830152506020612a0d84828501612d43565b6020830152506040612a2184828501612d04565b6040830152506060612a3584828501612d04565b6060830152506080612a4984828501612777565b60808301525092915050565b600060c08284031215612a6757600080fd5b81905092915050565b600060c08284031215612a8257600080fd5b612a8c60c0613f4b565b90506000612a9c84828501612777565b6000830152506020612ab084828501612777565b6020830152506040612ac484828501612777565b6040830152506060612ad884828501612777565b6060830152506080612aec84828501612777565b60808301525060a0612b0084828501612777565b60a08301525092915050565b600060808284031215612b1e57600080fd5b612b286080613f4b565b90506000612b3884828501612777565b6000830152506020612b4c84828501612777565b6020830152506040612b6084828501612d43565b604083015250606082013567ffffffffffffffff811115612b8057600080fd5b612b8c848285016127a1565b60608301525092915050565b60006101608284031215612bab57600080fd5b81905092915050565b60006101608284031215612bc757600080fd5b612bd2610160613f4b565b9050600082013567ffffffffffffffff811115612bee57600080fd5b612bfa8482850161282a565b6000830152506020612c0e84828501612d2e565b602083015250604082013567ffffffffffffffff811115612c2e57600080fd5b612c3a848285016127a1565b6040830152506060612c4e84828501612d2e565b6060830152506080612c6284828501612d2e565b60808301525060a0612c7684828501612d2e565b60a08301525060c0612c8a84828501612d2e565b60c08301525060e0612c9e84828501612d2e565b60e083015250610100612cb384828501612d2e565b61010083015250610120612cc9848285016127cb565b6101208301525061014082013567ffffffffffffffff811115612ceb57600080fd5b612cf7848285016127a1565b6101408301525092915050565b600081359050612d13816147a2565b92915050565b600081359050612d28816147b9565b92915050565b600081359050612d3d816147d0565b92915050565b600081359050612d52816147e7565b92915050565b600060208284031215612d6a57600080fd5b6000612d78848285016125fb565b91505092915050565b60008060008060008060608789031215612d9a57600080fd5b600087013567ffffffffffffffff811115612db457600080fd5b612dc089828a01612610565b9650965050602087013567ffffffffffffffff811115612ddf57600080fd5b612deb89828a01612718565b9450945050604087013567ffffffffffffffff811115612e0a57600080fd5b612e1689828a016127e0565b92509250509295509295509295565b600060208284031215612e3757600080fd5b6000612e458482850161278c565b91505092915050565b60006101008284031215612e6157600080fd5b6000612e6f84828501612870565b91505092915050565b6000806101208385031215612e8c57600080fd5b6000612e9a85828601612870565b925050610100612eac85828601612777565b9150509250929050565b600060208284031215612ec857600080fd5b600082013567ffffffffffffffff811115612ee257600080fd5b612eee84828501612951565b91505092915050565b60008060408385031215612f0a57600080fd5b600083013567ffffffffffffffff811115612f2457600080fd5b612f3085828601612951565b9250506020612f4185828601612777565b9150509250929050565b600060a08284031215612f5d57600080fd5b6000612f6b848285016129cd565b91505092915050565b60008060008060006102008688031215612f8d57600080fd5b6000612f9b88828901612a55565b95505060c0612fac88828901612854565b9450506101c086013567ffffffffffffffff811115612fca57600080fd5b612fd688828901612936565b9350506101e086013567ffffffffffffffff811115612ff457600080fd5b613000888289016126a4565b92509250509295509295909350565b600060c0828403121561302157600080fd5b600061302f84828501612a70565b91505092915050565b600080600080610200858703121561304f57600080fd5b600061305d87828801612a70565b94505060c061306e87828801612870565b9350506101c085013567ffffffffffffffff81111561308c57600080fd5b61309887828801612951565b9250506101e085013567ffffffffffffffff8111156130b657600080fd5b6130c2878288016126ee565b91505092959194509250565b6000602082840312156130e057600080fd5b600082013567ffffffffffffffff8111156130fa57600080fd5b61310684828501612b0c565b91505092915050565b60008060006060848603121561312457600080fd5b600084013567ffffffffffffffff81111561313e57600080fd5b61314a86828701612b0c565b935050602084013567ffffffffffffffff81111561316757600080fd5b613173868287016127a1565b925050604084013567ffffffffffffffff81111561319057600080fd5b61319c868287016127a1565b9150509250925092565b6000602082840312156131b857600080fd5b60006131c684828501612d04565b91505092915050565b6000806000806000608086880312156131e757600080fd5b60006131f588828901612d04565b955050602086013567ffffffffffffffff81111561321257600080fd5b61321e88828901612b98565b945050604061322f88828901612d04565b935050606086013567ffffffffffffffff81111561324c57600080fd5b6132588882890161265a565b92509250509295509295909350565b60006020828403121561327957600080fd5b600061328784828501612d19565b91505092915050565b6000602082840312156132a257600080fd5b60006132b084828501612d2e565b91505092915050565b6132c2816141c4565b82525050565b6132d1816141d6565b82525050565b6132e0816141e2565b82525050565b6132ef816141e2565b82525050565b613306613301826141e2565b6143c6565b82525050565b600061331782613ffe565b6133218185614014565b93506133318185602086016142b6565b61333a816144b0565b840191505092915050565b600061335082613ffe565b61335a8185614025565b935061336a8185602086016142b6565b613373816144b0565b840191505092915050565b600061338982613ffe565b6133938185614036565b93506133a38185602086016142b6565b80840191505092915050565b6133b88161426f565b82525050565b60006133ca8385614052565b93506133d78385846142a7565b6133e0836144b0565b840190509392505050565b60006133f682614009565b6134008185614041565b93506134108185602086016142b6565b613419816144b0565b840191505092915050565b6000613431600883614063565b915061343c826144db565b600882019050919050565b6000613454602c83614052565b915061345f82614504565b604082019050919050565b6000613477602c83614052565b915061348282614553565b604082019050919050565b600061349a601483614052565b91506134a5826145a2565b602082019050919050565b60006134bd601683614052565b91506134c8826145cb565b602082019050919050565b60006134e0600183614063565b91506134eb826145f4565b600182019050919050565b6000613503600883614063565b915061350e8261461d565b600882019050919050565b6000613526600183614063565b915061353182614646565b600182019050919050565b6000613549601383614052565b91506135548261466f565b602082019050919050565b600061356c600d83614052565b915061357782614698565b602082019050919050565b600061358f602583614052565b915061359a826146c1565b604082019050919050565b60006135b2601483614052565b91506135bd82614710565b602082019050919050565b610100820160008201516135df60008501826132d7565b5060208201516135f2602085018261383b565b506040820151613605604085018261383b565b506060820151613618606085018261381d565b50608082015161362b60808501826132d7565b5060a082015161363e60a08501826132d7565b5060c082015161365160c08501826132d7565b5060e082015161366460e08501826132d7565b50505050565b60006040830160008301518482036000860152613687828261330c565b915050602083015184820360208601526136a1828261330c565b9150508091505092915050565b60006080830160008301516136c660008601826132d7565b5060208301516136d960208601826132d7565b5060408301516136ec6040860182613870565b5060608301518482036060860152613704828261330c565b9150508091505092915050565b600061016083016000830151848203600086015261372f82826133eb565b9150506020830151613744602086018261383b565b506040830151848203604086015261375c828261330c565b9150506060830151613771606086018261383b565b506080830151613784608086018261383b565b5060a083015161379760a086018261383b565b5060c08301516137aa60c086018261383b565b5060e08301516137bd60e086018261383b565b506101008301516137d261010086018261383b565b506101208301516137e76101208601826133af565b50610140830151848203610140860152613801828261330c565b9150508091505092915050565b6138178161421f565b82525050565b61382681614229565b82525050565b61383581614229565b82525050565b61384481614239565b82525050565b61385381614239565b82525050565b61386a61386582614239565b6143d0565b82525050565b6138798161424d565b82525050565b6138888161424d565b82525050565b61389f61389a8261424d565b6143e2565b82525050565b60006138b182846132f5565b60208201915081905092915050565b60006138cc82896132f5565b6020820191506138dc82886132f5565b6020820191506138ec82876132f5565b6020820191506138fc82866132f5565b60208201915061390c82856132f5565b60208201915061391c82846132f5565b602082019150819050979650505050505050565b600061393c828461337e565b915081905092915050565b6000613953828661337e565b915061395f82856132f5565b60208201915061396f828461337e565b9150819050949350505050565b6000613988828661337e565b9150613994828561337e565b91506139a0828461337e565b9150819050949350505050565b60006139b9828761337e565b91506139c5828661337e565b91506139d1828561337e565b91506139dd828461337e565b915081905095945050505050565b60006139f7828561337e565b9150613a02826134d3565b9150613a0e828461337e565b91508190509392505050565b6000613a26828861337e565b9150613a32828761388e565b600182019150613a42828661388e565b600182019150613a52828561337e565b9150613a5e828461337e565b91508190509695505050505050565b6000613a7882613424565b9150613a8482846132f5565b60208201915081905092915050565b6000613a9e826134f6565b9150613aaa82846132f5565b60208201915081905092915050565b6000613ac482613519565b9150613ad0828461337e565b915081905092915050565b6000613ae7828661388e565b600182019150613af782856132f5565b602082019150613b0782846132f5565b602082019150819050949350505050565b6000613b24828561388e565b600182019150613b34828461337e565b91508190509392505050565b6000613b4c828a61388e565b600182019150613b5c828961337e565b9150613b68828861337e565b9150613b74828761388e565b600182019150613b8482866132f5565b602082019150613b94828561388e565b600182019150613ba482846132f5565b60208201915081905098975050505050505050565b6000613bc5828561388e565b600182019150613bd58284613859565b6008820191508190509392505050565b6000613bf1828661388e565b600182019150613c01828561388e565b600182019150613c1182846132f5565b602082019150819050949350505050565b6000613c2e828a61388e565b600182019150613c3e828961388e565b600182019150613c4e828861337e565b9150613c5a828761388e565b600182019150613c6a828661337e565b9150613c76828561388e565b600182019150613c8682846132f5565b60208201915081905098975050505050505050565b6000602082019050613cb060008301846132b9565b92915050565b6000602082019050613ccb60008301846132c8565b92915050565b6000602082019050613ce660008301846132e6565b92915050565b6000606082019050613d0160008301866132e6565b613d0e602083018561384a565b613d1b604083018461382c565b949350505050565b6000608082019050613d3860008301876132e6565b613d45602083018661387f565b613d5260408301856132e6565b613d5f60608301846132e6565b95945050505050565b60006020820190508181036000830152613d828184613345565b905092915050565b60006020820190508181036000830152613da58184866133be565b90509392505050565b60006020820190508181036000830152613dc781613447565b9050919050565b60006020820190508181036000830152613de78161346a565b9050919050565b60006020820190508181036000830152613e078161348d565b9050919050565b60006020820190508181036000830152613e27816134b0565b9050919050565b60006020820190508181036000830152613e478161353c565b9050919050565b60006020820190508181036000830152613e678161355f565b9050919050565b60006020820190508181036000830152613e8781613582565b9050919050565b60006020820190508181036000830152613ea7816135a5565b9050919050565b600061010082019050613ec460008301846135c8565b92915050565b60006020820190508181036000830152613ee4818461366a565b905092915050565b60006020820190508181036000830152613f0681846136ae565b905092915050565b60006020820190508181036000830152613f288184613711565b905092915050565b6000602082019050613f45600083018461380e565b92915050565b6000613f55613f66565b9050613f61828261431b565b919050565b6000604051905090565b600067ffffffffffffffff821115613f8b57613f8a614481565b5b602082029050602081019050919050565b600067ffffffffffffffff821115613fb757613fb6614481565b5b613fc0826144b0565b9050602081019050919050565b600067ffffffffffffffff821115613fe857613fe7614481565b5b613ff1826144b0565b9050602081019050919050565b600081519050919050565b600081519050919050565b600082825260208201905092915050565b600082825260208201905092915050565b600081905092915050565b600082825260208201905092915050565b600082825260208201905092915050565b600081905092915050565b60006140798261421f565b91506140848361421f565b9250827fffffffffffffffffffffffffffffffffffffffffffffffffffffffffffffffff038211156140b9576140b86143f4565b5b828201905092915050565b60006140cf82614239565b91506140da83614239565b92508267ffffffffffffffff038211156140f7576140f66143f4565b5b828201905092915050565b600061410d8261421f565b91506141188361421f565b9250817fffffffffffffffffffffffffffffffffffffffffffffffffffffffffffffffff0483118215151615614151576141506143f4565b5b828202905092915050565b60006141678261421f565b91506141728361421f565b925082821015614185576141846143f4565b5b828203905092915050565b600061419b82614239565b91506141a683614239565b9250828210156141b9576141b86143f4565b5b828203905092915050565b60006141cf826141ff565b9050919050565b60008115159050919050565b6000819050919050565b60008190506141fa82614739565b919050565b600073ffffffffffffffffffffffffffffffffffffffff82169050919050565b6000819050919050565b600063ffffffff82169050919050565b600067ffffffffffffffff82169050919050565b600060ff82169050919050565b6000614267368484612522565b905092915050565b600061427a826141ec565b9050919050565b600061428d3683612951565b9050919050565b60006142a03683612bb4565b9050919050565b82818337600083830152505050565b60005b838110156142d45780820151818401526020810190506142b9565b838111156142e3576000848401525b50505050565b6000600282049050600182168061430157607f821691505b6020821081141561431557614314614452565b5b50919050565b614324826144b0565b810181811067ffffffffffffffff8211171561434357614342614481565b5b80604052505050565b60006143578261421f565b91507fffffffffffffffffffffffffffffffffffffffffffffffffffffffffffffffff82141561438a576143896143f4565b5b600182019050919050565b60006143a082614239565b915067ffffffffffffffff8214156143bb576143ba6143f4565b5b600182019050919050565b6000819050919050565b60006143db826144c1565b9050919050565b60006143ed826144ce565b9050919050565b7f4e487b7100000000000000000000000000000000000000000000000000000000600052601160045260246000fd5b7f4e487b7100000000000000000000000000000000000000000000000000000000600052602160045260246000fd5b7f4e487b7100000000000000000000000000000000000000000000000000000000600052602260045260246000fd5b7f4e487b7100000000000000000000000000000000000000000000000000000000600052604160045260246000fd5b6000601f19601f8301169050919050565b60008160c01b9050919050565b60008160f81b9050919050565b7f066f7261636c6520000000000000000000000000000000000000000000000000600082015250565b7f436f6d6d6f6e456e636f646564566f7465506172743a20496e76616c6964207360008201527f756666697827732073697a650000000000000000000000000000000000000000602082015250565b7f436f6d6d6f6e456e636f646564566f7465506172743a20496e76616c6964207060008201527f726566697827732073697a650000000000000000000000000000000000000000602082015250565b7f496e76616c696420626c6f636b20686561646572000000000000000000000000600082015250565b7f4e6f20726f6f7420617420746869732068656967687400000000000000000000600082015250565b7f1000000000000000000000000000000000000000000000000000000000000000600082015250565b7f086f7261636c6520000000000000000000000000000000000000000000000000600082015250565b7f0800000000000000000000000000000000000000000000000000000000000000600082015250565b7f416c726561647920696e697469616c697a656400000000000000000000000000600082015250565b7f496e76616c69642070726f6f6600000000000000000000000000000000000000600082015250565b7f544d5369676e61747572653a20496e76616c69642074696d657374616d70277360008201527f2073697a65000000000000000000000000000000000000000000000000000000602082015250565b7f496e76616c6964207369676e6572206f72646572000000000000000000000000600082015250565b6004811061474a57614749614423565b5b50565b614756816141c4565b811461476157600080fd5b50565b61476d816141d6565b811461477857600080fd5b50565b614784816141e2565b811461478f57600080fd5b50565b6004811061479f57600080fd5b50565b6147ab8161421f565b81146147b657600080fd5b50565b6147c281614229565b81146147cd57600080fd5b50565b6147d981614239565b81146147e457600080fd5b50565b6147f08161424d565b81146147fb57600080fd5b5056fea2646970667358221220d132dd755952f01da7770fb62006379a2a0fc91f279005c09a9a269c7eec839264736f6c63430008030033","opcodes":"PUSH1 0x80 PUSH1 0x40 MSTORE CALLVALUE DUP1 ISZERO PUSH3 0x11 JUMPI PUSH1 0x0 DUP1 REVERT JUMPDEST POP PUSH1 0x40 MLOAD PUSH3 0x48F0 CODESIZE SUB DUP1 PUSH3 0x48F0 DUP4 CODECOPY DUP2 DUP2 ADD PUSH1 0x40 MSTORE DUP2 ADD SWAP1 PUSH3 0x37 SWAP2 SWAP1 PUSH3 0x5C JUMP JUMPDEST DUP1 PUSH1 0x2 DUP2 SWAP1 SSTORE POP POP PUSH3 0xAC JUMP JUMPDEST PUSH1 0x0 DUP2 MLOAD SWAP1 POP PUSH3 0x56 DUP2 PUSH3 0x92 JUMP JUMPDEST SWAP3 SWAP2 POP POP JUMP JUMPDEST PUSH1 0x0 PUSH1 0x20 DUP3 DUP5 SUB SLT ISZERO PUSH3 0x6F JUMPI PUSH1 0x0 DUP1 REVERT JUMPDEST PUSH1 0x0 PUSH3 0x7F DUP5 DUP3 DUP6 ADD PUSH3 0x45 JUMP JUMPDEST SWAP2 POP POP SWAP3 SWAP2 POP POP JUMP JUMPDEST PUSH1 0x0 DUP2 SWAP1 POP SWAP2 SWAP1 POP JUMP JUMPDEST PUSH3 0x9D DUP2 PUSH3 0x88 JUMP JUMPDEST DUP2 EQ PUSH3 0xA9 JUMPI PUSH1 0x0 DUP1 REVERT JUMPDEST POP JUMP JUMPDEST PUSH2 0x4834 DUP1 PUSH3 0xBC PUSH1 0x0 CODECOPY PUSH1 0x0 RETURN INVALID PUSH1 0x80 PUSH1 0x40 MSTORE CALLVALUE DUP1 ISZERO PUSH2 0x10 JUMPI PUSH1 0x0 DUP1 REVERT JUMPDEST POP PUSH1 0x4 CALLDATASIZE LT PUSH2 0x12C JUMPI PUSH1 0x0 CALLDATALOAD PUSH1 0xE0 SHR DUP1 PUSH4 0x847C1B23 GT PUSH2 0xAD JUMPI DUP1 PUSH4 0xE71296E1 GT PUSH2 0x71 JUMPI DUP1 PUSH4 0xE71296E1 EQ PUSH2 0x3B5 JUMPI DUP1 PUSH4 0xF3F39EE5 EQ PUSH2 0x3E5 JUMPI DUP1 PUSH4 0xF61AA09D EQ PUSH2 0x403 JUMPI DUP1 PUSH4 0xF8156A6E EQ PUSH2 0x433 JUMPI DUP1 PUSH4 0xF953205A EQ PUSH2 0x451 JUMPI PUSH2 0x12C JUMP JUMPDEST DUP1 PUSH4 0x847C1B23 EQ PUSH2 0x2ED JUMPI DUP1 PUSH4 0x93A4A134 EQ PUSH2 0x31D JUMPI DUP1 PUSH4 0xAF4B9107 EQ PUSH2 0x339 JUMPI DUP1 PUSH4 0xC573D977 EQ PUSH2 0x355 JUMPI DUP1 PUSH4 0xCC2532BA EQ PUSH2 0x385 JUMPI PUSH2 0x12C JUMP JUMPDEST DUP1 PUSH4 0x5CD2458C GT PUSH2 0xF4 JUMPI DUP1 PUSH4 0x5CD2458C EQ PUSH2 0x221 JUMPI DUP1 PUSH4 0x64C47193 EQ PUSH2 0x251 JUMPI DUP1 PUSH4 0x679B7B9A EQ PUSH2 0x26F JUMPI DUP1 PUSH4 0x6CF6D675 EQ PUSH2 0x29F JUMPI DUP1 PUSH4 0x760729C3 EQ PUSH2 0x2BD JUMPI PUSH2 0x12C JUMP JUMPDEST DUP1 PUSH4 0x71EE1E1 EQ PUSH2 0x131 JUMPI DUP1 PUSH4 0xA4723E6 EQ PUSH2 0x161 JUMPI DUP1 PUSH4 0xAC804C5 EQ PUSH2 0x191 JUMPI DUP1 PUSH4 0x1B60F867 EQ PUSH2 0x1C1 JUMPI DUP1 PUSH4 0x2FF08EB5 EQ PUSH2 0x1F1 JUMPI JUMPDEST PUSH1 0x0 DUP1 REVERT JUMPDEST PUSH2 0x14B PUSH1 0x4 DUP1 CALLDATASIZE SUB DUP2 ADD SWAP1 PUSH2 0x146 SWAP2 SWAP1 PUSH2 0x310F JUMP JUMPDEST PUSH2 0x483 JUMP JUMPDEST PUSH1 0x40 MLOAD PUSH2 0x158 SWAP2 SWAP1 PUSH2 0x3C9B JUMP JUMPDEST PUSH1 0x40 MLOAD DUP1 SWAP2 SUB SWAP1 RETURN JUMPDEST PUSH2 0x17B PUSH1 0x4 DUP1 CALLDATASIZE SUB DUP2 ADD SWAP1 PUSH2 0x176 SWAP2 SWAP1 PUSH2 0x2EB6 JUMP JUMPDEST PUSH2 0x5EC JUMP JUMPDEST PUSH1 0x40 MLOAD PUSH2 0x188 SWAP2 SWAP1 PUSH2 0x3ECA JUMP JUMPDEST PUSH1 0x40 MLOAD DUP1 SWAP2 SUB SWAP1 RETURN JUMPDEST PUSH2 0x1AB PUSH1 0x4 DUP1 CALLDATASIZE SUB DUP2 ADD SWAP1 PUSH2 0x1A6 SWAP2 SWAP1 PUSH2 0x300F JUMP JUMPDEST PUSH2 0x616 JUMP JUMPDEST PUSH1 0x40 MLOAD PUSH2 0x1B8 SWAP2 SWAP1 PUSH2 0x3CD1 JUMP JUMPDEST PUSH1 0x40 MLOAD DUP1 SWAP2 SUB SWAP1 RETURN JUMPDEST PUSH2 0x1DB PUSH1 0x4 DUP1 CALLDATASIZE SUB DUP2 ADD SWAP1 PUSH2 0x1D6 SWAP2 SWAP1 PUSH2 0x2E4E JUMP JUMPDEST PUSH2 0x6FF JUMP JUMPDEST PUSH1 0x40 MLOAD PUSH2 0x1E8 SWAP2 SWAP1 PUSH2 0x3EAE JUMP JUMPDEST PUSH1 0x40 MLOAD DUP1 SWAP2 SUB SWAP1 RETURN JUMPDEST PUSH2 0x20B PUSH1 0x4 DUP1 CALLDATASIZE SUB DUP2 ADD SWAP1 PUSH2 0x206 SWAP2 SWAP1 PUSH2 0x30CE JUMP JUMPDEST PUSH2 0x70F JUMP JUMPDEST PUSH1 0x40 MLOAD PUSH2 0x218 SWAP2 SWAP1 PUSH2 0x3EEC JUMP JUMPDEST PUSH1 0x40 MLOAD DUP1 SWAP2 SUB SWAP1 RETURN JUMPDEST PUSH2 0x23B PUSH1 0x4 DUP1 CALLDATASIZE SUB DUP2 ADD SWAP1 PUSH2 0x236 SWAP2 SWAP1 PUSH2 0x2EF7 JUMP JUMPDEST PUSH2 0x71F JUMP JUMPDEST PUSH1 0x40 MLOAD PUSH2 0x248 SWAP2 SWAP1 PUSH2 0x3D68 JUMP JUMPDEST PUSH1 0x40 MLOAD DUP1 SWAP2 SUB SWAP1 RETURN JUMPDEST PUSH2 0x259 PUSH2 0x7F5 JUMP JUMPDEST PUSH1 0x40 MLOAD PUSH2 0x266 SWAP2 SWAP1 PUSH2 0x3D68 JUMP JUMPDEST PUSH1 0x40 MLOAD DUP1 SWAP2 SUB SWAP1 RETURN JUMPDEST PUSH2 0x289 PUSH1 0x4 DUP1 CALLDATASIZE SUB DUP2 ADD SWAP1 PUSH2 0x284 SWAP2 SWAP1 PUSH2 0x300F JUMP JUMPDEST PUSH2 0x883 JUMP JUMPDEST PUSH1 0x40 MLOAD PUSH2 0x296 SWAP2 SWAP1 PUSH2 0x3D68 JUMP JUMPDEST PUSH1 0x40 MLOAD DUP1 SWAP2 SUB SWAP1 RETURN JUMPDEST PUSH2 0x2A7 PUSH2 0x8CE JUMP JUMPDEST PUSH1 0x40 MLOAD PUSH2 0x2B4 SWAP2 SWAP1 PUSH2 0x3F30 JUMP JUMPDEST PUSH1 0x40 MLOAD DUP1 SWAP2 SUB SWAP1 RETURN JUMPDEST PUSH2 0x2D7 PUSH1 0x4 DUP1 CALLDATASIZE SUB DUP2 ADD SWAP1 PUSH2 0x2D2 SWAP2 SWAP1 PUSH2 0x300F JUMP JUMPDEST PUSH2 0x8D4 JUMP JUMPDEST PUSH1 0x40 MLOAD PUSH2 0x2E4 SWAP2 SWAP1 PUSH2 0x3CD1 JUMP JUMPDEST PUSH1 0x40 MLOAD DUP1 SWAP2 SUB SWAP1 RETURN JUMPDEST PUSH2 0x307 PUSH1 0x4 DUP1 CALLDATASIZE SUB DUP2 ADD SWAP1 PUSH2 0x302 SWAP2 SWAP1 PUSH2 0x2E78 JUMP JUMPDEST PUSH2 0x9DB JUMP JUMPDEST PUSH1 0x40 MLOAD PUSH2 0x314 SWAP2 SWAP1 PUSH2 0x3CD1 JUMP JUMPDEST PUSH1 0x40 MLOAD DUP1 SWAP2 SUB SWAP1 RETURN JUMPDEST PUSH2 0x337 PUSH1 0x4 DUP1 CALLDATASIZE SUB DUP2 ADD SWAP1 PUSH2 0x332 SWAP2 SWAP1 PUSH2 0x2D81 JUMP JUMPDEST PUSH2 0xAC4 JUMP JUMPDEST STOP JUMPDEST PUSH2 0x353 PUSH1 0x4 DUP1 CALLDATASIZE SUB DUP2 ADD SWAP1 PUSH2 0x34E SWAP2 SWAP1 PUSH2 0x2F74 JUMP JUMPDEST PUSH2 0xC9E JUMP JUMPDEST STOP JUMPDEST PUSH2 0x36F PUSH1 0x4 DUP1 CALLDATASIZE SUB DUP2 ADD SWAP1 PUSH2 0x36A SWAP2 SWAP1 PUSH2 0x31CF JUMP JUMPDEST PUSH2 0xE0A JUMP JUMPDEST PUSH1 0x40 MLOAD PUSH2 0x37C SWAP2 SWAP1 PUSH2 0x3F0E JUMP JUMPDEST PUSH1 0x40 MLOAD DUP1 SWAP2 SUB SWAP1 RETURN JUMPDEST PUSH2 0x39F PUSH1 0x4 DUP1 CALLDATASIZE SUB DUP2 ADD SWAP1 PUSH2 0x39A SWAP2 SWAP1 PUSH2 0x3038 JUMP JUMPDEST PUSH2 0xFC5 JUMP JUMPDEST PUSH1 0x40 MLOAD PUSH2 0x3AC SWAP2 SWAP1 PUSH2 0x3CB6 JUMP JUMPDEST PUSH1 0x40 MLOAD DUP1 SWAP2 SUB SWAP1 RETURN JUMPDEST PUSH2 0x3CF PUSH1 0x4 DUP1 CALLDATASIZE SUB DUP2 ADD SWAP1 PUSH2 0x3CA SWAP2 SWAP1 PUSH2 0x300F JUMP JUMPDEST PUSH2 0x1225 JUMP JUMPDEST PUSH1 0x40 MLOAD PUSH2 0x3DC SWAP2 SWAP1 PUSH2 0x3CD1 JUMP JUMPDEST PUSH1 0x40 MLOAD DUP1 SWAP2 SUB SWAP1 RETURN JUMPDEST PUSH2 0x3ED PUSH2 0x132C JUMP JUMPDEST PUSH1 0x40 MLOAD PUSH2 0x3FA SWAP2 SWAP1 PUSH2 0x3F30 JUMP JUMPDEST PUSH1 0x40 MLOAD DUP1 SWAP2 SUB SWAP1 RETURN JUMPDEST PUSH2 0x41D PUSH1 0x4 DUP1 CALLDATASIZE SUB DUP2 ADD SWAP1 PUSH2 0x418 SWAP2 SWAP1 PUSH2 0x2D58 JUMP JUMPDEST PUSH2 0x1332 JUMP JUMPDEST PUSH1 0x40 MLOAD PUSH2 0x42A SWAP2 SWAP1 PUSH2 0x3F30 JUMP JUMPDEST PUSH1 0x40 MLOAD DUP1 SWAP2 SUB SWAP1 RETURN JUMPDEST PUSH2 0x43B PUSH2 0x134A JUMP JUMPDEST PUSH1 0x40 MLOAD PUSH2 0x448 SWAP2 SWAP1 PUSH2 0x3F30 JUMP JUMPDEST PUSH1 0x40 MLOAD DUP1 SWAP2 SUB SWAP1 RETURN JUMPDEST PUSH2 0x46B PUSH1 0x4 DUP1 CALLDATASIZE SUB DUP2 ADD SWAP1 PUSH2 0x466 SWAP2 SWAP1 PUSH2 0x31A6 JUMP JUMPDEST PUSH2 0x1350 JUMP JUMPDEST PUSH1 0x40 MLOAD PUSH2 0x47A SWAP4 SWAP3 SWAP2 SWAP1 PUSH2 0x3CEC JUMP JUMPDEST PUSH1 0x40 MLOAD DUP1 SWAP2 SUB SWAP1 RETURN JUMPDEST PUSH1 0x0 DUP4 PUSH1 0x60 ADD MLOAD MLOAD PUSH1 0x6 GT ISZERO DUP1 ISZERO PUSH2 0x4A1 JUMPI POP PUSH1 0xC DUP5 PUSH1 0x60 ADD MLOAD MLOAD GT ISZERO JUMPDEST PUSH2 0x4E0 JUMPI PUSH1 0x40 MLOAD PUSH32 0x8C379A000000000000000000000000000000000000000000000000000000000 DUP2 MSTORE PUSH1 0x4 ADD PUSH2 0x4D7 SWAP1 PUSH2 0x3E6E JUMP JUMPDEST PUSH1 0x40 MLOAD DUP1 SWAP2 SUB SWAP1 REVERT JUMPDEST PUSH1 0x0 DUP4 PUSH1 0x2A DUP7 PUSH1 0x60 ADD MLOAD MLOAD DUP8 PUSH1 0x60 ADD MLOAD DUP7 PUSH1 0x40 MLOAD PUSH1 0x20 ADD PUSH2 0x505 SWAP6 SWAP5 SWAP4 SWAP3 SWAP2 SWAP1 PUSH2 0x3A1A JUMP JUMPDEST PUSH1 0x40 MLOAD PUSH1 0x20 DUP2 DUP4 SUB SUB DUP2 MSTORE SWAP1 PUSH1 0x40 MSTORE SWAP1 POP PUSH1 0x1 PUSH1 0x2 DUP3 MLOAD DUP4 PUSH1 0x40 MLOAD PUSH1 0x20 ADD PUSH2 0x52E SWAP3 SWAP2 SWAP1 PUSH2 0x3B18 JUMP JUMPDEST PUSH1 0x40 MLOAD PUSH1 0x20 DUP2 DUP4 SUB SUB DUP2 MSTORE SWAP1 PUSH1 0x40 MSTORE PUSH1 0x40 MLOAD PUSH2 0x54A SWAP2 SWAP1 PUSH2 0x3930 JUMP JUMPDEST PUSH1 0x20 PUSH1 0x40 MLOAD DUP1 DUP4 SUB DUP2 DUP6 GAS STATICCALL ISZERO DUP1 ISZERO PUSH2 0x567 JUMPI RETURNDATASIZE PUSH1 0x0 DUP1 RETURNDATACOPY RETURNDATASIZE PUSH1 0x0 REVERT JUMPDEST POP POP POP PUSH1 0x40 MLOAD RETURNDATASIZE PUSH1 0x1F NOT PUSH1 0x1F DUP3 ADD AND DUP3 ADD DUP1 PUSH1 0x40 MSTORE POP DUP2 ADD SWAP1 PUSH2 0x58A SWAP2 SWAP1 PUSH2 0x2E25 JUMP JUMPDEST DUP7 PUSH1 0x40 ADD MLOAD DUP8 PUSH1 0x0 ADD MLOAD DUP9 PUSH1 0x20 ADD MLOAD PUSH1 0x40 MLOAD PUSH1 0x0 DUP2 MSTORE PUSH1 0x20 ADD PUSH1 0x40 MSTORE PUSH1 0x40 MLOAD PUSH2 0x5B6 SWAP5 SWAP4 SWAP3 SWAP2 SWAP1 PUSH2 0x3D23 JUMP JUMPDEST PUSH1 0x20 PUSH1 0x40 MLOAD PUSH1 0x20 DUP2 SUB SWAP1 DUP1 DUP5 SUB SWAP1 DUP6 GAS STATICCALL ISZERO DUP1 ISZERO PUSH2 0x5D8 JUMPI RETURNDATASIZE PUSH1 0x0 DUP1 RETURNDATACOPY RETURNDATASIZE PUSH1 0x0 REVERT JUMPDEST POP POP POP PUSH1 0x20 PUSH1 0x40 MLOAD SUB MLOAD SWAP2 POP POP SWAP4 SWAP3 POP POP POP JUMP JUMPDEST PUSH2 0x5F4 PUSH2 0x22BF JUMP JUMPDEST PUSH2 0x601 DUP3 PUSH1 0x0 ADD MLOAD PUSH2 0x139E JUMP JUMPDEST PUSH2 0x60E DUP3 PUSH1 0x20 ADD MLOAD PUSH2 0x139E JUMP JUMPDEST DUP2 SWAP1 POP SWAP2 SWAP1 POP JUMP JUMPDEST PUSH1 0x0 DUP1 PUSH2 0x6F4 PUSH2 0x6EA DUP5 PUSH1 0x80 ADD MLOAD PUSH2 0x6E5 DUP7 PUSH1 0x60 ADD MLOAD PUSH2 0x6E0 DUP9 PUSH1 0x40 ADD MLOAD PUSH2 0x6DB PUSH2 0x6D1 PUSH1 0x2 DUP13 PUSH1 0x0 ADD MLOAD PUSH1 0x40 MLOAD PUSH1 0x20 ADD PUSH2 0x651 SWAP2 SWAP1 PUSH2 0x38A5 JUMP JUMPDEST PUSH1 0x40 MLOAD PUSH1 0x20 DUP2 DUP4 SUB SUB DUP2 MSTORE SWAP1 PUSH1 0x40 MSTORE PUSH1 0x40 MLOAD PUSH2 0x66D SWAP2 SWAP1 PUSH2 0x3930 JUMP JUMPDEST PUSH1 0x20 PUSH1 0x40 MLOAD DUP1 DUP4 SUB DUP2 DUP6 GAS STATICCALL ISZERO DUP1 ISZERO PUSH2 0x68A JUMPI RETURNDATASIZE PUSH1 0x0 DUP1 RETURNDATACOPY RETURNDATASIZE PUSH1 0x0 REVERT JUMPDEST POP POP POP PUSH1 0x40 MLOAD RETURNDATASIZE PUSH1 0x1F NOT PUSH1 0x1F DUP3 ADD AND DUP3 ADD DUP1 PUSH1 0x40 MSTORE POP DUP2 ADD SWAP1 PUSH2 0x6AD SWAP2 SWAP1 PUSH2 0x2E25 JUMP JUMPDEST PUSH1 0x40 MLOAD PUSH1 0x20 ADD PUSH2 0x6BD SWAP2 SWAP1 PUSH2 0x3A93 JUMP JUMPDEST PUSH1 0x40 MLOAD PUSH1 0x20 DUP2 DUP4 SUB SUB DUP2 MSTORE SWAP1 PUSH1 0x40 MSTORE PUSH2 0x1437 JUMP JUMPDEST DUP12 PUSH1 0x20 ADD MLOAD PUSH2 0x14B2 JUMP JUMPDEST PUSH2 0x14B2 JUMP JUMPDEST PUSH2 0x14B2 JUMP JUMPDEST PUSH2 0x14B2 JUMP JUMPDEST DUP5 PUSH1 0xA0 ADD MLOAD PUSH2 0x14B2 JUMP JUMPDEST SWAP1 POP DUP1 SWAP2 POP POP SWAP2 SWAP1 POP JUMP JUMPDEST PUSH2 0x707 PUSH2 0x22D9 JUMP JUMPDEST DUP2 SWAP1 POP SWAP2 SWAP1 POP JUMP JUMPDEST PUSH2 0x717 PUSH2 0x2347 JUMP JUMPDEST DUP2 SWAP1 POP SWAP2 SWAP1 POP JUMP JUMPDEST PUSH1 0x60 PUSH1 0xF DUP4 PUSH1 0x0 ADD MLOAD MLOAD EQ DUP1 PUSH2 0x73A JUMPI POP PUSH1 0x18 DUP4 PUSH1 0x0 ADD MLOAD MLOAD EQ JUMPDEST PUSH2 0x779 JUMPI PUSH1 0x40 MLOAD PUSH32 0x8C379A000000000000000000000000000000000000000000000000000000000 DUP2 MSTORE PUSH1 0x4 ADD PUSH2 0x770 SWAP1 PUSH2 0x3DCE JUMP JUMPDEST PUSH1 0x40 MLOAD DUP1 SWAP2 SUB SWAP1 REVERT JUMPDEST PUSH1 0x26 DUP4 PUSH1 0x20 ADD MLOAD MLOAD EQ PUSH2 0x7C1 JUMPI PUSH1 0x40 MLOAD PUSH32 0x8C379A000000000000000000000000000000000000000000000000000000000 DUP2 MSTORE PUSH1 0x4 ADD PUSH2 0x7B8 SWAP1 PUSH2 0x3DAE JUMP JUMPDEST PUSH1 0x40 MLOAD DUP1 SWAP2 SUB SWAP1 REVERT JUMPDEST DUP3 PUSH1 0x0 ADD MLOAD DUP3 DUP5 PUSH1 0x20 ADD MLOAD PUSH1 0x40 MLOAD PUSH1 0x20 ADD PUSH2 0x7DE SWAP4 SWAP3 SWAP2 SWAP1 PUSH2 0x3947 JUMP JUMPDEST PUSH1 0x40 MLOAD PUSH1 0x20 DUP2 DUP4 SUB SUB DUP2 MSTORE SWAP1 PUSH1 0x40 MSTORE SWAP1 POP SWAP3 SWAP2 POP POP JUMP JUMPDEST PUSH1 0x0 DUP1 SLOAD PUSH2 0x802 SWAP1 PUSH2 0x42E9 JUMP JUMPDEST DUP1 PUSH1 0x1F ADD PUSH1 0x20 DUP1 SWAP2 DIV MUL PUSH1 0x20 ADD PUSH1 0x40 MLOAD SWAP1 DUP2 ADD PUSH1 0x40 MSTORE DUP1 SWAP3 SWAP2 SWAP1 DUP2 DUP2 MSTORE PUSH1 0x20 ADD DUP3 DUP1 SLOAD PUSH2 0x82E SWAP1 PUSH2 0x42E9 JUMP JUMPDEST DUP1 ISZERO PUSH2 0x87B JUMPI DUP1 PUSH1 0x1F LT PUSH2 0x850 JUMPI PUSH2 0x100 DUP1 DUP4 SLOAD DIV MUL DUP4 MSTORE SWAP2 PUSH1 0x20 ADD SWAP2 PUSH2 0x87B JUMP JUMPDEST DUP3 ADD SWAP2 SWAP1 PUSH1 0x0 MSTORE PUSH1 0x20 PUSH1 0x0 KECCAK256 SWAP1 JUMPDEST DUP2 SLOAD DUP2 MSTORE SWAP1 PUSH1 0x1 ADD SWAP1 PUSH1 0x20 ADD DUP1 DUP4 GT PUSH2 0x85E JUMPI DUP3 SWAP1 SUB PUSH1 0x1F AND DUP3 ADD SWAP2 JUMPDEST POP POP POP POP POP DUP2 JUMP JUMPDEST PUSH1 0x60 DUP2 PUSH1 0x0 ADD MLOAD DUP3 PUSH1 0x20 ADD MLOAD DUP4 PUSH1 0x40 ADD MLOAD DUP5 PUSH1 0x60 ADD MLOAD DUP6 PUSH1 0x80 ADD MLOAD DUP7 PUSH1 0xA0 ADD MLOAD PUSH1 0x40 MLOAD PUSH1 0x20 ADD PUSH2 0x8B8 SWAP7 SWAP6 SWAP5 SWAP4 SWAP3 SWAP2 SWAP1 PUSH2 0x38C0 JUMP JUMPDEST PUSH1 0x40 MLOAD PUSH1 0x20 DUP2 DUP4 SUB SUB DUP2 MSTORE SWAP1 PUSH1 0x40 MSTORE SWAP1 POP SWAP2 SWAP1 POP JUMP JUMPDEST PUSH1 0x2 SLOAD DUP2 JUMP JUMPDEST PUSH1 0x0 DUP1 PUSH2 0x971 PUSH1 0x2 DUP5 PUSH1 0x0 ADD MLOAD PUSH1 0x40 MLOAD PUSH1 0x20 ADD PUSH2 0x8F1 SWAP2 SWAP1 PUSH2 0x38A5 JUMP JUMPDEST PUSH1 0x40 MLOAD PUSH1 0x20 DUP2 DUP4 SUB SUB DUP2 MSTORE SWAP1 PUSH1 0x40 MSTORE PUSH1 0x40 MLOAD PUSH2 0x90D SWAP2 SWAP1 PUSH2 0x3930 JUMP JUMPDEST PUSH1 0x20 PUSH1 0x40 MLOAD DUP1 DUP4 SUB DUP2 DUP6 GAS STATICCALL ISZERO DUP1 ISZERO PUSH2 0x92A JUMPI RETURNDATASIZE PUSH1 0x0 DUP1 RETURNDATACOPY RETURNDATASIZE PUSH1 0x0 REVERT JUMPDEST POP POP POP PUSH1 0x40 MLOAD RETURNDATASIZE PUSH1 0x1F NOT PUSH1 0x1F DUP3 ADD AND DUP3 ADD DUP1 PUSH1 0x40 MSTORE POP DUP2 ADD SWAP1 PUSH2 0x94D SWAP2 SWAP1 PUSH2 0x2E25 JUMP JUMPDEST PUSH1 0x40 MLOAD PUSH1 0x20 ADD PUSH2 0x95D SWAP2 SWAP1 PUSH2 0x3A6D JUMP JUMPDEST PUSH1 0x40 MLOAD PUSH1 0x20 DUP2 DUP4 SUB SUB DUP2 MSTORE SWAP1 PUSH1 0x40 MSTORE PUSH2 0x1437 JUMP JUMPDEST SWAP1 POP PUSH1 0x0 PUSH2 0x983 DUP3 DUP6 PUSH1 0x20 ADD MLOAD PUSH2 0x14B2 JUMP JUMPDEST SWAP1 POP PUSH1 0x0 PUSH2 0x995 DUP6 PUSH1 0x40 ADD MLOAD DUP4 PUSH2 0x14B2 JUMP JUMPDEST SWAP1 POP PUSH1 0x0 PUSH2 0x9A7 DUP7 PUSH1 0x60 ADD MLOAD DUP4 PUSH2 0x14B2 JUMP JUMPDEST SWAP1 POP PUSH1 0x0 PUSH2 0x9B9 DUP8 PUSH1 0x80 ADD MLOAD DUP4 PUSH2 0x14B2 JUMP JUMPDEST SWAP1 POP PUSH1 0x0 PUSH2 0x9CB DUP3 DUP10 PUSH1 0xA0 ADD MLOAD PUSH2 0x14B2 JUMP JUMPDEST SWAP1 POP DUP1 SWAP7 POP POP POP POP POP POP POP SWAP2 SWAP1 POP JUMP JUMPDEST PUSH1 0x0 DUP1 PUSH2 0xAB8 PUSH2 0xA5E PUSH2 0xA54 DUP7 PUSH1 0x0 ADD MLOAD PUSH2 0xA4F PUSH2 0xA30 PUSH1 0x8 PUSH2 0xA0B DUP12 PUSH1 0x20 ADD MLOAD PUSH8 0xFFFFFFFFFFFFFFFF AND PUSH2 0x1530 JUMP JUMPDEST PUSH1 0x40 MLOAD PUSH1 0x20 ADD PUSH2 0xA1C SWAP3 SWAP2 SWAP1 PUSH2 0x3B18 JUMP JUMPDEST PUSH1 0x40 MLOAD PUSH1 0x20 DUP2 DUP4 SUB SUB DUP2 MSTORE SWAP1 PUSH1 0x40 MSTORE PUSH2 0x1437 JUMP JUMPDEST PUSH2 0xA4A PUSH2 0xA45 DUP12 PUSH1 0x40 ADD MLOAD DUP13 PUSH1 0x60 ADD MLOAD PUSH2 0x16FB JUMP JUMPDEST PUSH2 0x1437 JUMP JUMPDEST PUSH2 0x14B2 JUMP JUMPDEST PUSH2 0x14B2 JUMP JUMPDEST DUP7 PUSH1 0x80 ADD MLOAD PUSH2 0x14B2 JUMP JUMPDEST PUSH2 0xAB3 PUSH2 0xAA9 DUP8 PUSH1 0xA0 ADD MLOAD PUSH2 0xAA4 PUSH2 0xA9A PUSH1 0xA PUSH1 0x20 DUP12 PUSH1 0x40 MLOAD PUSH1 0x20 ADD PUSH2 0xA86 SWAP4 SWAP3 SWAP2 SWAP1 PUSH2 0x3BE5 JUMP JUMPDEST PUSH1 0x40 MLOAD PUSH1 0x20 DUP2 DUP4 SUB SUB DUP2 MSTORE SWAP1 PUSH1 0x40 MSTORE PUSH2 0x1437 JUMP JUMPDEST DUP11 PUSH1 0xC0 ADD MLOAD PUSH2 0x14B2 JUMP JUMPDEST PUSH2 0x14B2 JUMP JUMPDEST DUP8 PUSH1 0xE0 ADD MLOAD PUSH2 0x14B2 JUMP JUMPDEST PUSH2 0x14B2 JUMP JUMPDEST SWAP1 POP DUP1 SWAP2 POP POP SWAP3 SWAP2 POP POP JUMP JUMPDEST PUSH1 0x0 DUP1 DUP1 SLOAD PUSH2 0xAD2 SWAP1 PUSH2 0x42E9 JUMP JUMPDEST SWAP1 POP EQ PUSH2 0xB14 JUMPI PUSH1 0x40 MLOAD PUSH32 0x8C379A000000000000000000000000000000000000000000000000000000000 DUP2 MSTORE PUSH1 0x4 ADD PUSH2 0xB0B SWAP1 PUSH2 0x3E2E JUMP JUMPDEST PUSH1 0x40 MLOAD DUP1 SWAP2 SUB SWAP1 REVERT JUMPDEST PUSH1 0x0 JUMPDEST DUP7 DUP7 SWAP1 POP DUP2 LT ISZERO PUSH2 0xC5D JUMPI DUP5 DUP5 DUP3 DUP2 DUP2 LT PUSH2 0xB5B JUMPI PUSH32 0x4E487B7100000000000000000000000000000000000000000000000000000000 PUSH1 0x0 MSTORE PUSH1 0x32 PUSH1 0x4 MSTORE PUSH1 0x24 PUSH1 0x0 REVERT JUMPDEST SWAP1 POP PUSH1 0x20 MUL ADD CALLDATALOAD PUSH1 0x4 PUSH1 0x0 DUP10 DUP10 DUP6 DUP2 DUP2 LT PUSH2 0xB9F JUMPI PUSH32 0x4E487B7100000000000000000000000000000000000000000000000000000000 PUSH1 0x0 MSTORE PUSH1 0x32 PUSH1 0x4 MSTORE PUSH1 0x24 PUSH1 0x0 REVERT JUMPDEST SWAP1 POP PUSH1 0x20 MUL ADD PUSH1 0x20 DUP2 ADD SWAP1 PUSH2 0xBB4 SWAP2 SWAP1 PUSH2 0x2D58 JUMP JUMPDEST PUSH20 0xFFFFFFFFFFFFFFFFFFFFFFFFFFFFFFFFFFFFFFFF AND PUSH20 0xFFFFFFFFFFFFFFFFFFFFFFFFFFFFFFFFFFFFFFFF AND DUP2 MSTORE PUSH1 0x20 ADD SWAP1 DUP2 MSTORE PUSH1 0x20 ADD PUSH1 0x0 KECCAK256 DUP2 SWAP1 SSTORE POP DUP5 DUP5 DUP3 DUP2 DUP2 LT PUSH2 0xC2B JUMPI PUSH32 0x4E487B7100000000000000000000000000000000000000000000000000000000 PUSH1 0x0 MSTORE PUSH1 0x32 PUSH1 0x4 MSTORE PUSH1 0x24 PUSH1 0x0 REVERT JUMPDEST SWAP1 POP PUSH1 0x20 MUL ADD CALLDATALOAD PUSH1 0x1 PUSH1 0x0 DUP3 DUP3 SLOAD PUSH2 0xC43 SWAP2 SWAP1 PUSH2 0x406E JUMP JUMPDEST SWAP3 POP POP DUP2 SWAP1 SSTORE POP DUP1 DUP1 PUSH2 0xC55 SWAP1 PUSH2 0x434C JUMP JUMPDEST SWAP2 POP POP PUSH2 0xB17 JUMP JUMPDEST POP DUP2 DUP2 PUSH1 0x40 MLOAD PUSH1 0x20 ADD PUSH2 0xC71 SWAP3 SWAP2 SWAP1 PUSH2 0x3D8A JUMP JUMPDEST PUSH1 0x40 MLOAD PUSH1 0x20 DUP2 DUP4 SUB SUB DUP2 MSTORE SWAP1 PUSH1 0x40 MSTORE PUSH1 0x0 SWAP1 DUP1 MLOAD SWAP1 PUSH1 0x20 ADD SWAP1 PUSH2 0xC95 SWAP3 SWAP2 SWAP1 PUSH2 0x2378 JUMP JUMPDEST POP POP POP POP POP POP POP JUMP JUMPDEST PUSH2 0xCDF DUP6 DUP1 CALLDATASIZE SUB DUP2 ADD SWAP1 PUSH2 0xCB2 SWAP2 SWAP1 PUSH2 0x300F JUMP JUMPDEST DUP6 DUP1 CALLDATASIZE SUB DUP2 ADD SWAP1 PUSH2 0xCC3 SWAP2 SWAP1 PUSH2 0x2E4E JUMP JUMPDEST DUP6 PUSH2 0xCCD SWAP1 PUSH2 0x4281 JUMP JUMPDEST DUP6 DUP6 SWAP1 PUSH2 0xCDA SWAP2 SWAP1 PUSH2 0x425A JUMP JUMPDEST PUSH2 0xFC5 JUMP JUMPDEST PUSH2 0xD1E JUMPI PUSH1 0x40 MLOAD PUSH32 0x8C379A000000000000000000000000000000000000000000000000000000000 DUP2 MSTORE PUSH1 0x4 ADD PUSH2 0xD15 SWAP1 PUSH2 0x3DEE JUMP JUMPDEST PUSH1 0x40 MLOAD DUP1 SWAP2 SUB SWAP1 REVERT JUMPDEST PUSH1 0x40 MLOAD DUP1 PUSH1 0x60 ADD PUSH1 0x40 MSTORE DUP1 DUP7 PUSH1 0x0 ADD CALLDATALOAD DUP2 MSTORE PUSH1 0x20 ADD DUP6 PUSH1 0x40 ADD PUSH1 0x20 DUP2 ADD SWAP1 PUSH2 0xD46 SWAP2 SWAP1 PUSH2 0x3290 JUMP JUMPDEST PUSH8 0xFFFFFFFFFFFFFFFF AND DUP2 MSTORE PUSH1 0x20 ADD DUP6 PUSH1 0x60 ADD PUSH1 0x20 DUP2 ADD SWAP1 PUSH2 0xD68 SWAP2 SWAP1 PUSH2 0x3267 JUMP JUMPDEST PUSH4 0xFFFFFFFF AND DUP2 MSTORE POP PUSH1 0x5 PUSH1 0x0 DUP7 PUSH1 0x20 ADD PUSH1 0x20 DUP2 ADD SWAP1 PUSH2 0xD88 SWAP2 SWAP1 PUSH2 0x3290 JUMP JUMPDEST PUSH8 0xFFFFFFFFFFFFFFFF AND DUP2 MSTORE PUSH1 0x20 ADD SWAP1 DUP2 MSTORE PUSH1 0x20 ADD PUSH1 0x0 KECCAK256 PUSH1 0x0 DUP3 ADD MLOAD DUP2 PUSH1 0x0 ADD SSTORE PUSH1 0x20 DUP3 ADD MLOAD DUP2 PUSH1 0x1 ADD PUSH1 0x0 PUSH2 0x100 EXP DUP2 SLOAD DUP2 PUSH8 0xFFFFFFFFFFFFFFFF MUL NOT AND SWAP1 DUP4 PUSH8 0xFFFFFFFFFFFFFFFF AND MUL OR SWAP1 SSTORE POP PUSH1 0x40 DUP3 ADD MLOAD DUP2 PUSH1 0x1 ADD PUSH1 0x8 PUSH2 0x100 EXP DUP2 SLOAD DUP2 PUSH4 0xFFFFFFFF MUL NOT AND SWAP1 DUP4 PUSH4 0xFFFFFFFF AND MUL OR SWAP1 SSTORE POP SWAP1 POP POP POP POP POP POP POP JUMP JUMPDEST PUSH2 0xE12 PUSH2 0x23FE JUMP JUMPDEST PUSH1 0x0 PUSH1 0x5 PUSH1 0x0 DUP9 DUP2 MSTORE PUSH1 0x20 ADD SWAP1 DUP2 MSTORE PUSH1 0x20 ADD PUSH1 0x0 KECCAK256 PUSH1 0x0 ADD SLOAD SWAP1 POP PUSH1 0x0 DUP1 SHL DUP2 EQ ISZERO PUSH2 0xE73 JUMPI PUSH1 0x40 MLOAD PUSH32 0x8C379A000000000000000000000000000000000000000000000000000000000 DUP2 MSTORE PUSH1 0x4 ADD PUSH2 0xE6A SWAP1 PUSH2 0x3E0E JUMP JUMPDEST PUSH1 0x40 MLOAD DUP1 SWAP2 SUB SWAP1 REVERT JUMPDEST PUSH1 0x0 PUSH1 0x2 PUSH2 0xE89 DUP9 PUSH2 0xE84 SWAP1 PUSH2 0x4294 JUMP JUMPDEST PUSH2 0x177F JUMP JUMPDEST PUSH1 0x40 MLOAD PUSH2 0xE96 SWAP2 SWAP1 PUSH2 0x3930 JUMP JUMPDEST PUSH1 0x20 PUSH1 0x40 MLOAD DUP1 DUP4 SUB DUP2 DUP6 GAS STATICCALL ISZERO DUP1 ISZERO PUSH2 0xEB3 JUMPI RETURNDATASIZE PUSH1 0x0 DUP1 RETURNDATACOPY RETURNDATASIZE PUSH1 0x0 REVERT JUMPDEST POP POP POP PUSH1 0x40 MLOAD RETURNDATASIZE PUSH1 0x1F NOT PUSH1 0x1F DUP3 ADD AND DUP3 ADD DUP1 PUSH1 0x40 MSTORE POP DUP2 ADD SWAP1 PUSH2 0xED6 SWAP2 SWAP1 PUSH2 0x2E25 JUMP JUMPDEST SWAP1 POP PUSH2 0xF6F DUP3 DUP8 PUSH1 0xFF DUP11 PUSH1 0xA0 ADD PUSH1 0x20 DUP2 ADD SWAP1 PUSH2 0xEF2 SWAP2 SWAP1 PUSH2 0x3290 JUMP JUMPDEST PUSH1 0x40 MLOAD PUSH1 0x20 ADD PUSH2 0xF03 SWAP3 SWAP2 SWAP1 PUSH2 0x3BB9 JUMP JUMPDEST PUSH1 0x40 MLOAD PUSH1 0x20 DUP2 DUP4 SUB SUB DUP2 MSTORE SWAP1 PUSH1 0x40 MSTORE DUP5 DUP10 DUP10 DUP1 DUP1 PUSH1 0x20 MUL PUSH1 0x20 ADD PUSH1 0x40 MLOAD SWAP1 DUP2 ADD PUSH1 0x40 MSTORE DUP1 SWAP4 SWAP3 SWAP2 SWAP1 DUP2 DUP2 MSTORE PUSH1 0x20 ADD PUSH1 0x0 SWAP1 JUMPDEST DUP3 DUP3 LT ISZERO PUSH2 0xF65 JUMPI DUP5 DUP5 DUP4 SWAP1 POP PUSH1 0xA0 MUL ADD DUP1 CALLDATASIZE SUB DUP2 ADD SWAP1 PUSH2 0xF56 SWAP2 SWAP1 PUSH2 0x2F4B JUMP JUMPDEST DUP2 MSTORE PUSH1 0x20 ADD SWAP1 PUSH1 0x1 ADD SWAP1 PUSH2 0xF35 JUMP JUMPDEST POP POP POP POP POP PUSH2 0x1E03 JUMP JUMPDEST PUSH2 0xFAE JUMPI PUSH1 0x40 MLOAD PUSH32 0x8C379A000000000000000000000000000000000000000000000000000000000 DUP2 MSTORE PUSH1 0x4 ADD PUSH2 0xFA5 SWAP1 PUSH2 0x3E4E JUMP JUMPDEST PUSH1 0x40 MLOAD DUP1 SWAP2 SUB SWAP1 REVERT JUMPDEST DUP7 PUSH2 0xFB8 SWAP1 PUSH2 0x4294 JUMP JUMPDEST SWAP3 POP POP POP SWAP6 SWAP5 POP POP POP POP POP JUMP JUMPDEST PUSH1 0x0 DUP1 PUSH2 0xFD1 DUP7 PUSH2 0x1225 JUMP JUMPDEST SWAP1 POP PUSH1 0x0 PUSH2 0xFDF DUP7 DUP4 PUSH2 0x9DB JUMP JUMPDEST SWAP1 POP PUSH1 0x0 PUSH2 0xFED DUP7 DUP4 PUSH2 0x71F JUMP JUMPDEST SWAP1 POP PUSH1 0x0 DUP1 DUP1 SLOAD PUSH2 0xFFD SWAP1 PUSH2 0x42E9 JUMP JUMPDEST DUP1 PUSH1 0x1F ADD PUSH1 0x20 DUP1 SWAP2 DIV MUL PUSH1 0x20 ADD PUSH1 0x40 MLOAD SWAP1 DUP2 ADD PUSH1 0x40 MSTORE DUP1 SWAP3 SWAP2 SWAP1 DUP2 DUP2 MSTORE PUSH1 0x20 ADD DUP3 DUP1 SLOAD PUSH2 0x1029 SWAP1 PUSH2 0x42E9 JUMP JUMPDEST DUP1 ISZERO PUSH2 0x1076 JUMPI DUP1 PUSH1 0x1F LT PUSH2 0x104B JUMPI PUSH2 0x100 DUP1 DUP4 SLOAD DIV MUL DUP4 MSTORE SWAP2 PUSH1 0x20 ADD SWAP2 PUSH2 0x1076 JUMP JUMPDEST DUP3 ADD SWAP2 SWAP1 PUSH1 0x0 MSTORE PUSH1 0x20 PUSH1 0x0 KECCAK256 SWAP1 JUMPDEST DUP2 SLOAD DUP2 MSTORE SWAP1 PUSH1 0x1 ADD SWAP1 PUSH1 0x20 ADD DUP1 DUP4 GT PUSH2 0x1059 JUMPI DUP3 SWAP1 SUB PUSH1 0x1F AND DUP3 ADD SWAP2 JUMPDEST POP POP POP POP POP SWAP1 POP PUSH1 0x0 DUP1 PUSH1 0x0 JUMPDEST DUP9 MLOAD DUP2 LT ISZERO PUSH2 0x11F6 JUMPI PUSH1 0x0 PUSH2 0x10D9 DUP11 DUP4 DUP2 MLOAD DUP2 LT PUSH2 0x10CA JUMPI PUSH32 0x4E487B7100000000000000000000000000000000000000000000000000000000 PUSH1 0x0 MSTORE PUSH1 0x32 PUSH1 0x4 MSTORE PUSH1 0x24 PUSH1 0x0 REVERT JUMPDEST PUSH1 0x20 MUL PUSH1 0x20 ADD ADD MLOAD DUP8 DUP8 PUSH2 0x483 JUMP JUMPDEST SWAP1 POP DUP4 PUSH20 0xFFFFFFFFFFFFFFFFFFFFFFFFFFFFFFFFFFFFFFFF AND DUP2 PUSH20 0xFFFFFFFFFFFFFFFFFFFFFFFFFFFFFFFFFFFFFFFF AND GT PUSH2 0x1149 JUMPI PUSH1 0x40 MLOAD PUSH32 0x8C379A000000000000000000000000000000000000000000000000000000000 DUP2 MSTORE PUSH1 0x4 ADD PUSH2 0x1140 SWAP1 PUSH2 0x3E8E JUMP JUMPDEST PUSH1 0x40 MLOAD DUP1 SWAP2 SUB SWAP1 REVERT JUMPDEST PUSH1 0x0 PUSH1 0x4 PUSH1 0x0 DUP4 PUSH20 0xFFFFFFFFFFFFFFFFFFFFFFFFFFFFFFFFFFFFFFFF AND PUSH20 0xFFFFFFFFFFFFFFFFFFFFFFFFFFFFFFFFFFFFFFFF AND DUP2 MSTORE PUSH1 0x20 ADD SWAP1 DUP2 MSTORE PUSH1 0x20 ADD PUSH1 0x0 KECCAK256 SLOAD GT ISZERO PUSH2 0x11DF JUMPI PUSH1 0x4 PUSH1 0x0 DUP3 PUSH20 0xFFFFFFFFFFFFFFFFFFFFFFFFFFFFFFFFFFFFFFFF AND PUSH20 0xFFFFFFFFFFFFFFFFFFFFFFFFFFFFFFFFFFFFFFFF AND DUP2 MSTORE PUSH1 0x20 ADD SWAP1 DUP2 MSTORE PUSH1 0x20 ADD PUSH1 0x0 KECCAK256 SLOAD DUP4 PUSH2 0x11DC SWAP2 SWAP1 PUSH2 0x406E JUMP JUMPDEST SWAP3 POP JUMPDEST DUP1 SWAP4 POP POP DUP1 DUP1 PUSH2 0x11EE SWAP1 PUSH2 0x434C JUMP JUMPDEST SWAP2 POP POP PUSH2 0x1083 JUMP JUMPDEST POP PUSH1 0x2 PUSH1 0x1 SLOAD PUSH2 0x1206 SWAP2 SWAP1 PUSH2 0x4102 JUMP JUMPDEST PUSH1 0x3 DUP3 PUSH2 0x1213 SWAP2 SWAP1 PUSH2 0x4102 JUMP JUMPDEST LT ISZERO SWAP7 POP POP POP POP POP POP POP SWAP5 SWAP4 POP POP POP POP JUMP JUMPDEST PUSH1 0x0 DUP1 PUSH2 0x12C2 PUSH1 0x2 DUP5 PUSH1 0x0 ADD MLOAD PUSH1 0x40 MLOAD PUSH1 0x20 ADD PUSH2 0x1242 SWAP2 SWAP1 PUSH2 0x38A5 JUMP JUMPDEST PUSH1 0x40 MLOAD PUSH1 0x20 DUP2 DUP4 SUB SUB DUP2 MSTORE SWAP1 PUSH1 0x40 MSTORE PUSH1 0x40 MLOAD PUSH2 0x125E SWAP2 SWAP1 PUSH2 0x3930 JUMP JUMPDEST PUSH1 0x20 PUSH1 0x40 MLOAD DUP1 DUP4 SUB DUP2 DUP6 GAS STATICCALL ISZERO DUP1 ISZERO PUSH2 0x127B JUMPI RETURNDATASIZE PUSH1 0x0 DUP1 RETURNDATACOPY RETURNDATASIZE PUSH1 0x0 REVERT JUMPDEST POP POP POP PUSH1 0x40 MLOAD RETURNDATASIZE PUSH1 0x1F NOT PUSH1 0x1F DUP3 ADD AND DUP3 ADD DUP1 PUSH1 0x40 MSTORE POP DUP2 ADD SWAP1 PUSH2 0x129E SWAP2 SWAP1 PUSH2 0x2E25 JUMP JUMPDEST PUSH1 0x40 MLOAD PUSH1 0x20 ADD PUSH2 0x12AE SWAP2 SWAP1 PUSH2 0x3A6D JUMP JUMPDEST PUSH1 0x40 MLOAD PUSH1 0x20 DUP2 DUP4 SUB SUB DUP2 MSTORE SWAP1 PUSH1 0x40 MSTORE PUSH2 0x1437 JUMP JUMPDEST SWAP1 POP PUSH1 0x0 PUSH2 0x12D4 DUP5 PUSH1 0x20 ADD MLOAD DUP4 PUSH2 0x14B2 JUMP JUMPDEST SWAP1 POP PUSH1 0x0 PUSH2 0x12E6 DUP6 PUSH1 0x40 ADD MLOAD DUP4 PUSH2 0x14B2 JUMP JUMPDEST SWAP1 POP PUSH1 0x0 PUSH2 0x12F8 DUP7 PUSH1 0x60 ADD MLOAD DUP4 PUSH2 0x14B2 JUMP JUMPDEST SWAP1 POP PUSH1 0x0 PUSH2 0x130A DUP8 PUSH1 0x80 ADD MLOAD DUP4 PUSH2 0x14B2 JUMP JUMPDEST SWAP1 POP PUSH1 0x0 PUSH2 0x131C DUP3 DUP10 PUSH1 0xA0 ADD MLOAD PUSH2 0x14B2 JUMP JUMPDEST SWAP1 POP DUP1 SWAP7 POP POP POP POP POP POP POP SWAP2 SWAP1 POP JUMP JUMPDEST PUSH1 0x3 SLOAD DUP2 JUMP JUMPDEST PUSH1 0x4 PUSH1 0x20 MSTORE DUP1 PUSH1 0x0 MSTORE PUSH1 0x40 PUSH1 0x0 KECCAK256 PUSH1 0x0 SWAP2 POP SWAP1 POP SLOAD DUP2 JUMP JUMPDEST PUSH1 0x1 SLOAD DUP2 JUMP JUMPDEST PUSH1 0x5 PUSH1 0x20 MSTORE DUP1 PUSH1 0x0 MSTORE PUSH1 0x40 PUSH1 0x0 KECCAK256 PUSH1 0x0 SWAP2 POP SWAP1 POP DUP1 PUSH1 0x0 ADD SLOAD SWAP1 DUP1 PUSH1 0x1 ADD PUSH1 0x0 SWAP1 SLOAD SWAP1 PUSH2 0x100 EXP SWAP1 DIV PUSH8 0xFFFFFFFFFFFFFFFF AND SWAP1 DUP1 PUSH1 0x1 ADD PUSH1 0x8 SWAP1 SLOAD SWAP1 PUSH2 0x100 EXP SWAP1 DIV PUSH4 0xFFFFFFFF AND SWAP1 POP DUP4 JUMP JUMPDEST PUSH2 0x1434 DUP2 PUSH1 0x40 MLOAD PUSH1 0x24 ADD PUSH2 0x13B2 SWAP2 SWAP1 PUSH2 0x3D68 JUMP JUMPDEST PUSH1 0x40 MLOAD PUSH1 0x20 DUP2 DUP4 SUB SUB DUP2 MSTORE SWAP1 PUSH1 0x40 MSTORE PUSH32 0xBE77F5600000000000000000000000000000000000000000000000000000000 PUSH28 0xFFFFFFFFFFFFFFFFFFFFFFFFFFFFFFFFFFFFFFFFFFFFFFFFFFFFFFFF NOT AND PUSH1 0x20 DUP3 ADD DUP1 MLOAD PUSH28 0xFFFFFFFFFFFFFFFFFFFFFFFFFFFFFFFFFFFFFFFFFFFFFFFFFFFFFFFF DUP4 DUP2 DUP4 AND OR DUP4 MSTORE POP POP POP POP PUSH2 0x1F10 JUMP JUMPDEST POP JUMP JUMPDEST PUSH1 0x0 PUSH1 0x2 PUSH1 0x0 DUP4 PUSH1 0x40 MLOAD PUSH1 0x20 ADD PUSH2 0x144F SWAP3 SWAP2 SWAP1 PUSH2 0x3B18 JUMP JUMPDEST PUSH1 0x40 MLOAD PUSH1 0x20 DUP2 DUP4 SUB SUB DUP2 MSTORE SWAP1 PUSH1 0x40 MSTORE PUSH1 0x40 MLOAD PUSH2 0x146B SWAP2 SWAP1 PUSH2 0x3930 JUMP JUMPDEST PUSH1 0x20 PUSH1 0x40 MLOAD DUP1 DUP4 SUB DUP2 DUP6 GAS STATICCALL ISZERO DUP1 ISZERO PUSH2 0x1488 JUMPI RETURNDATASIZE PUSH1 0x0 DUP1 RETURNDATACOPY RETURNDATASIZE PUSH1 0x0 REVERT JUMPDEST POP POP POP PUSH1 0x40 MLOAD RETURNDATASIZE PUSH1 0x1F NOT PUSH1 0x1F DUP3 ADD AND DUP3 ADD DUP1 PUSH1 0x40 MSTORE POP DUP2 ADD SWAP1 PUSH2 0x14AB SWAP2 SWAP1 PUSH2 0x2E25 JUMP JUMPDEST SWAP1 POP SWAP2 SWAP1 POP JUMP JUMPDEST PUSH1 0x0 PUSH1 0x2 PUSH1 0x1 DUP5 DUP5 PUSH1 0x40 MLOAD PUSH1 0x20 ADD PUSH2 0x14CC SWAP4 SWAP3 SWAP2 SWAP1 PUSH2 0x3ADB JUMP JUMPDEST PUSH1 0x40 MLOAD PUSH1 0x20 DUP2 DUP4 SUB SUB DUP2 MSTORE SWAP1 PUSH1 0x40 MSTORE PUSH1 0x40 MLOAD PUSH2 0x14E8 SWAP2 SWAP1 PUSH2 0x3930 JUMP JUMPDEST PUSH1 0x20 PUSH1 0x40 MLOAD DUP1 DUP4 SUB DUP2 DUP6 GAS STATICCALL ISZERO DUP1 ISZERO PUSH2 0x1505 JUMPI RETURNDATASIZE PUSH1 0x0 DUP1 RETURNDATACOPY RETURNDATASIZE PUSH1 0x0 REVERT JUMPDEST POP POP POP PUSH1 0x40 MLOAD RETURNDATASIZE PUSH1 0x1F NOT PUSH1 0x1F DUP3 ADD AND DUP3 ADD DUP1 PUSH1 0x40 MSTORE POP DUP2 ADD SWAP1 PUSH2 0x1528 SWAP2 SWAP1 PUSH2 0x2E25 JUMP JUMPDEST SWAP1 POP SWAP3 SWAP2 POP POP JUMP JUMPDEST PUSH1 0x60 PUSH1 0x0 DUP3 SWAP1 POP PUSH1 0x0 JUMPDEST PUSH1 0x0 DUP3 GT ISZERO PUSH2 0x155B JUMPI DUP1 PUSH2 0x154D SWAP1 PUSH2 0x434C JUMP JUMPDEST SWAP1 POP PUSH1 0x7 DUP3 SWAP1 SHR SWAP2 POP PUSH2 0x153A JUMP JUMPDEST PUSH1 0x0 DUP2 PUSH8 0xFFFFFFFFFFFFFFFF DUP2 GT ISZERO PUSH2 0x159D JUMPI PUSH32 0x4E487B7100000000000000000000000000000000000000000000000000000000 PUSH1 0x0 MSTORE PUSH1 0x41 PUSH1 0x4 MSTORE PUSH1 0x24 PUSH1 0x0 REVERT JUMPDEST PUSH1 0x40 MLOAD SWAP1 DUP1 DUP3 MSTORE DUP1 PUSH1 0x1F ADD PUSH1 0x1F NOT AND PUSH1 0x20 ADD DUP3 ADD PUSH1 0x40 MSTORE DUP1 ISZERO PUSH2 0x15CF JUMPI DUP2 PUSH1 0x20 ADD PUSH1 0x1 DUP3 MUL DUP1 CALLDATASIZE DUP4 CALLDATACOPY DUP1 DUP3 ADD SWAP2 POP POP SWAP1 POP JUMPDEST POP SWAP1 POP DUP5 SWAP3 POP PUSH1 0x0 JUMPDEST DUP3 DUP2 LT ISZERO PUSH2 0x166A JUMPI PUSH1 0x7F DUP5 AND PUSH1 0x80 OR PUSH1 0xF8 SHL DUP3 DUP3 DUP2 MLOAD DUP2 LT PUSH2 0x1623 JUMPI PUSH32 0x4E487B7100000000000000000000000000000000000000000000000000000000 PUSH1 0x0 MSTORE PUSH1 0x32 PUSH1 0x4 MSTORE PUSH1 0x24 PUSH1 0x0 REVERT JUMPDEST PUSH1 0x20 ADD ADD SWAP1 PUSH31 0xFFFFFFFFFFFFFFFFFFFFFFFFFFFFFFFFFFFFFFFFFFFFFFFFFFFFFFFFFFFFFF NOT AND SWAP1 DUP2 PUSH1 0x0 BYTE SWAP1 MSTORE8 POP PUSH1 0x7 DUP5 SWAP1 SHR SWAP4 POP DUP1 PUSH2 0x1663 SWAP1 PUSH2 0x434C JUMP JUMPDEST SWAP1 POP PUSH2 0x15D8 JUMP JUMPDEST POP PUSH1 0x7F PUSH1 0xF8 SHL DUP2 PUSH1 0x1 DUP5 PUSH2 0x167E SWAP2 SWAP1 PUSH2 0x415C JUMP JUMPDEST DUP2 MLOAD DUP2 LT PUSH2 0x16B5 JUMPI PUSH32 0x4E487B7100000000000000000000000000000000000000000000000000000000 PUSH1 0x0 MSTORE PUSH1 0x32 PUSH1 0x4 MSTORE PUSH1 0x24 PUSH1 0x0 REVERT JUMPDEST PUSH1 0x20 ADD ADD DUP2 DUP2 MLOAD PUSH1 0xF8 SHR PUSH1 0xF8 SHL AND SWAP2 POP SWAP1 PUSH31 0xFFFFFFFFFFFFFFFFFFFFFFFFFFFFFFFFFFFFFFFFFFFFFFFFFFFFFFFFFFFFFF NOT AND SWAP1 DUP2 PUSH1 0x0 BYTE SWAP1 MSTORE8 POP DUP1 SWAP4 POP POP POP POP SWAP2 SWAP1 POP JUMP JUMPDEST PUSH1 0x60 PUSH1 0x0 PUSH2 0x1712 DUP5 PUSH8 0xFFFFFFFFFFFFFFFF AND PUSH2 0x1530 JUMP JUMPDEST PUSH1 0x40 MLOAD PUSH1 0x20 ADD PUSH2 0x1722 SWAP2 SWAP1 PUSH2 0x3AB9 JUMP JUMPDEST PUSH1 0x40 MLOAD PUSH1 0x20 DUP2 DUP4 SUB SUB DUP2 MSTORE SWAP1 PUSH1 0x40 MSTORE SWAP1 POP PUSH1 0x0 DUP4 PUSH4 0xFFFFFFFF AND GT ISZERO PUSH2 0x1775 JUMPI DUP1 PUSH2 0x1752 DUP5 PUSH4 0xFFFFFFFF AND PUSH2 0x1530 JUMP JUMPDEST PUSH1 0x40 MLOAD PUSH1 0x20 ADD PUSH2 0x1763 SWAP3 SWAP2 SWAP1 PUSH2 0x39EB JUMP JUMPDEST PUSH1 0x40 MLOAD PUSH1 0x20 DUP2 DUP4 SUB SUB DUP2 MSTORE SWAP1 PUSH1 0x40 MSTORE SWAP1 POP JUMPDEST DUP1 SWAP2 POP POP SWAP3 SWAP2 POP POP JUMP JUMPDEST PUSH1 0x60 DUP1 PUSH1 0x0 DUP4 PUSH1 0x0 ADD MLOAD MLOAD GT ISZERO PUSH2 0x180D JUMPI DUP1 PUSH2 0x17D5 PUSH1 0x1 PUSH1 0x2 PUSH1 0x6 DUP2 GT ISZERO PUSH2 0x17D0 JUMPI PUSH32 0x4E487B7100000000000000000000000000000000000000000000000000000000 PUSH1 0x0 MSTORE PUSH1 0x21 PUSH1 0x4 MSTORE PUSH1 0x24 PUSH1 0x0 REVERT JUMPDEST PUSH2 0x1F2A JUMP JUMPDEST PUSH2 0x17E3 DUP6 PUSH1 0x0 ADD MLOAD MLOAD PUSH2 0x1F59 JUMP JUMPDEST DUP6 PUSH1 0x0 ADD MLOAD PUSH1 0x40 MLOAD PUSH1 0x20 ADD PUSH2 0x17FB SWAP5 SWAP4 SWAP3 SWAP2 SWAP1 PUSH2 0x39AD JUMP JUMPDEST PUSH1 0x40 MLOAD PUSH1 0x20 DUP2 DUP4 SUB SUB DUP2 MSTORE SWAP1 PUSH1 0x40 MSTORE SWAP1 POP JUMPDEST PUSH1 0x0 DUP4 PUSH1 0x20 ADD MLOAD PUSH8 0xFFFFFFFFFFFFFFFF AND EQ PUSH2 0x1899 JUMPI DUP1 PUSH2 0x1868 PUSH1 0x2 PUSH1 0x0 PUSH1 0x6 DUP2 GT ISZERO PUSH2 0x1863 JUMPI PUSH32 0x4E487B7100000000000000000000000000000000000000000000000000000000 PUSH1 0x0 MSTORE PUSH1 0x21 PUSH1 0x4 MSTORE PUSH1 0x24 PUSH1 0x0 REVERT JUMPDEST PUSH2 0x1F2A JUMP JUMPDEST PUSH2 0x1875 DUP6 PUSH1 0x20 ADD MLOAD PUSH2 0x1F59 JUMP JUMPDEST PUSH1 0x40 MLOAD PUSH1 0x20 ADD PUSH2 0x1887 SWAP4 SWAP3 SWAP2 SWAP1 PUSH2 0x397C JUMP JUMPDEST PUSH1 0x40 MLOAD PUSH1 0x20 DUP2 DUP4 SUB SUB DUP2 MSTORE SWAP1 PUSH1 0x40 MSTORE SWAP1 POP JUMPDEST PUSH1 0x0 DUP4 PUSH1 0x40 ADD MLOAD MLOAD GT ISZERO PUSH2 0x1924 JUMPI DUP1 PUSH2 0x18EC PUSH1 0x3 PUSH1 0x2 PUSH1 0x6 DUP2 GT ISZERO PUSH2 0x18E7 JUMPI PUSH32 0x4E487B7100000000000000000000000000000000000000000000000000000000 PUSH1 0x0 MSTORE PUSH1 0x21 PUSH1 0x4 MSTORE PUSH1 0x24 PUSH1 0x0 REVERT JUMPDEST PUSH2 0x1F2A JUMP JUMPDEST PUSH2 0x18FA DUP6 PUSH1 0x40 ADD MLOAD MLOAD PUSH2 0x1F59 JUMP JUMPDEST DUP6 PUSH1 0x40 ADD MLOAD PUSH1 0x40 MLOAD PUSH1 0x20 ADD PUSH2 0x1912 SWAP5 SWAP4 SWAP3 SWAP2 SWAP1 PUSH2 0x39AD JUMP JUMPDEST PUSH1 0x40 MLOAD PUSH1 0x20 DUP2 DUP4 SUB SUB DUP2 MSTORE SWAP1 PUSH1 0x40 MSTORE SWAP1 POP JUMPDEST PUSH1 0x0 DUP4 PUSH1 0x60 ADD MLOAD PUSH8 0xFFFFFFFFFFFFFFFF AND EQ PUSH2 0x19B0 JUMPI DUP1 PUSH2 0x197F PUSH1 0x4 PUSH1 0x0 PUSH1 0x6 DUP2 GT ISZERO PUSH2 0x197A JUMPI PUSH32 0x4E487B7100000000000000000000000000000000000000000000000000000000 PUSH1 0x0 MSTORE PUSH1 0x21 PUSH1 0x4 MSTORE PUSH1 0x24 PUSH1 0x0 REVERT JUMPDEST PUSH2 0x1F2A JUMP JUMPDEST PUSH2 0x198C DUP6 PUSH1 0x60 ADD MLOAD PUSH2 0x1F59 JUMP JUMPDEST PUSH1 0x40 MLOAD PUSH1 0x20 ADD PUSH2 0x199E SWAP4 SWAP3 SWAP2 SWAP1 PUSH2 0x397C JUMP JUMPDEST PUSH1 0x40 MLOAD PUSH1 0x20 DUP2 DUP4 SUB SUB DUP2 MSTORE SWAP1 PUSH1 0x40 MSTORE SWAP1 POP JUMPDEST PUSH1 0x0 DUP4 PUSH1 0x80 ADD MLOAD PUSH8 0xFFFFFFFFFFFFFFFF AND EQ PUSH2 0x1A3C JUMPI DUP1 PUSH2 0x1A0B PUSH1 0x5 PUSH1 0x0 PUSH1 0x6 DUP2 GT ISZERO PUSH2 0x1A06 JUMPI PUSH32 0x4E487B7100000000000000000000000000000000000000000000000000000000 PUSH1 0x0 MSTORE PUSH1 0x21 PUSH1 0x4 MSTORE PUSH1 0x24 PUSH1 0x0 REVERT JUMPDEST PUSH2 0x1F2A JUMP JUMPDEST PUSH2 0x1A18 DUP6 PUSH1 0x80 ADD MLOAD PUSH2 0x1F59 JUMP JUMPDEST PUSH1 0x40 MLOAD PUSH1 0x20 ADD PUSH2 0x1A2A SWAP4 SWAP3 SWAP2 SWAP1 PUSH2 0x397C JUMP JUMPDEST PUSH1 0x40 MLOAD PUSH1 0x20 DUP2 DUP4 SUB SUB DUP2 MSTORE SWAP1 PUSH1 0x40 MSTORE SWAP1 POP JUMPDEST PUSH1 0x0 DUP4 PUSH1 0xA0 ADD MLOAD PUSH8 0xFFFFFFFFFFFFFFFF AND EQ PUSH2 0x1AC8 JUMPI DUP1 PUSH2 0x1A97 PUSH1 0x6 PUSH1 0x0 PUSH1 0x6 DUP2 GT ISZERO PUSH2 0x1A92 JUMPI PUSH32 0x4E487B7100000000000000000000000000000000000000000000000000000000 PUSH1 0x0 MSTORE PUSH1 0x21 PUSH1 0x4 MSTORE PUSH1 0x24 PUSH1 0x0 REVERT JUMPDEST PUSH2 0x1F2A JUMP JUMPDEST PUSH2 0x1AA4 DUP6 PUSH1 0xA0 ADD MLOAD PUSH2 0x1F59 JUMP JUMPDEST PUSH1 0x40 MLOAD PUSH1 0x20 ADD PUSH2 0x1AB6 SWAP4 SWAP3 SWAP2 SWAP1 PUSH2 0x397C JUMP JUMPDEST PUSH1 0x40 MLOAD PUSH1 0x20 DUP2 DUP4 SUB SUB DUP2 MSTORE SWAP1 PUSH1 0x40 MSTORE SWAP1 POP JUMPDEST PUSH1 0x0 DUP4 PUSH1 0xC0 ADD MLOAD PUSH8 0xFFFFFFFFFFFFFFFF AND EQ PUSH2 0x1B54 JUMPI DUP1 PUSH2 0x1B23 PUSH1 0x7 PUSH1 0x0 PUSH1 0x6 DUP2 GT ISZERO PUSH2 0x1B1E JUMPI PUSH32 0x4E487B7100000000000000000000000000000000000000000000000000000000 PUSH1 0x0 MSTORE PUSH1 0x21 PUSH1 0x4 MSTORE PUSH1 0x24 PUSH1 0x0 REVERT JUMPDEST PUSH2 0x1F2A JUMP JUMPDEST PUSH2 0x1B30 DUP6 PUSH1 0xC0 ADD MLOAD PUSH2 0x1F59 JUMP JUMPDEST PUSH1 0x40 MLOAD PUSH1 0x20 ADD PUSH2 0x1B42 SWAP4 SWAP3 SWAP2 SWAP1 PUSH2 0x397C JUMP JUMPDEST PUSH1 0x40 MLOAD PUSH1 0x20 DUP2 DUP4 SUB SUB DUP2 MSTORE SWAP1 PUSH1 0x40 MSTORE SWAP1 POP JUMPDEST PUSH1 0x0 DUP4 PUSH1 0xE0 ADD MLOAD PUSH8 0xFFFFFFFFFFFFFFFF AND EQ PUSH2 0x1BE0 JUMPI DUP1 PUSH2 0x1BAF PUSH1 0x8 PUSH1 0x0 PUSH1 0x6 DUP2 GT ISZERO PUSH2 0x1BAA JUMPI PUSH32 0x4E487B7100000000000000000000000000000000000000000000000000000000 PUSH1 0x0 MSTORE PUSH1 0x21 PUSH1 0x4 MSTORE PUSH1 0x24 PUSH1 0x0 REVERT JUMPDEST PUSH2 0x1F2A JUMP JUMPDEST PUSH2 0x1BBC DUP6 PUSH1 0xE0 ADD MLOAD PUSH2 0x1F59 JUMP JUMPDEST PUSH1 0x40 MLOAD PUSH1 0x20 ADD PUSH2 0x1BCE SWAP4 SWAP3 SWAP2 SWAP1 PUSH2 0x397C JUMP JUMPDEST PUSH1 0x40 MLOAD PUSH1 0x20 DUP2 DUP4 SUB SUB DUP2 MSTORE SWAP1 PUSH1 0x40 MSTORE SWAP1 POP JUMPDEST PUSH1 0x0 DUP4 PUSH2 0x100 ADD MLOAD PUSH8 0xFFFFFFFFFFFFFFFF AND EQ PUSH2 0x1C6E JUMPI DUP1 PUSH2 0x1C3C PUSH1 0x9 PUSH1 0x0 PUSH1 0x6 DUP2 GT ISZERO PUSH2 0x1C37 JUMPI PUSH32 0x4E487B7100000000000000000000000000000000000000000000000000000000 PUSH1 0x0 MSTORE PUSH1 0x21 PUSH1 0x4 MSTORE PUSH1 0x24 PUSH1 0x0 REVERT JUMPDEST PUSH2 0x1F2A JUMP JUMPDEST PUSH2 0x1C4A DUP6 PUSH2 0x100 ADD MLOAD PUSH2 0x1F59 JUMP JUMPDEST PUSH1 0x40 MLOAD PUSH1 0x20 ADD PUSH2 0x1C5C SWAP4 SWAP3 SWAP2 SWAP1 PUSH2 0x397C JUMP JUMPDEST PUSH1 0x40 MLOAD PUSH1 0x20 DUP2 DUP4 SUB SUB DUP2 MSTORE SWAP1 PUSH1 0x40 MSTORE SWAP1 POP JUMPDEST PUSH1 0x0 DUP4 PUSH2 0x120 ADD MLOAD PUSH1 0x3 DUP2 GT ISZERO PUSH2 0x1CAE JUMPI PUSH32 0x4E487B7100000000000000000000000000000000000000000000000000000000 PUSH1 0x0 MSTORE PUSH1 0x21 PUSH1 0x4 MSTORE PUSH1 0x24 PUSH1 0x0 REVERT JUMPDEST PUSH8 0xFFFFFFFFFFFFFFFF AND EQ PUSH2 0x1D6C JUMPI DUP1 PUSH2 0x1D02 PUSH1 0xA PUSH1 0x0 PUSH1 0x6 DUP2 GT ISZERO PUSH2 0x1CFD JUMPI PUSH32 0x4E487B7100000000000000000000000000000000000000000000000000000000 PUSH1 0x0 MSTORE PUSH1 0x21 PUSH1 0x4 MSTORE PUSH1 0x24 PUSH1 0x0 REVERT JUMPDEST PUSH2 0x1F2A JUMP JUMPDEST PUSH2 0x1D48 DUP6 PUSH2 0x120 ADD MLOAD PUSH1 0x3 DUP2 GT ISZERO PUSH2 0x1D43 JUMPI PUSH32 0x4E487B7100000000000000000000000000000000000000000000000000000000 PUSH1 0x0 MSTORE PUSH1 0x21 PUSH1 0x4 MSTORE PUSH1 0x24 PUSH1 0x0 REVERT JUMPDEST PUSH2 0x1F6B JUMP JUMPDEST PUSH1 0x40 MLOAD PUSH1 0x20 ADD PUSH2 0x1D5A SWAP4 SWAP3 SWAP2 SWAP1 PUSH2 0x397C JUMP JUMPDEST PUSH1 0x40 MLOAD PUSH1 0x20 DUP2 DUP4 SUB SUB DUP2 MSTORE SWAP1 PUSH1 0x40 MSTORE SWAP1 POP JUMPDEST PUSH1 0x0 DUP4 PUSH2 0x140 ADD MLOAD MLOAD GT ISZERO PUSH2 0x1DFA JUMPI DUP1 PUSH2 0x1DC0 PUSH1 0xB PUSH1 0x2 PUSH1 0x6 DUP2 GT ISZERO PUSH2 0x1DBB JUMPI PUSH32 0x4E487B7100000000000000000000000000000000000000000000000000000000 PUSH1 0x0 MSTORE PUSH1 0x21 PUSH1 0x4 MSTORE PUSH1 0x24 PUSH1 0x0 REVERT JUMPDEST PUSH2 0x1F2A JUMP JUMPDEST PUSH2 0x1DCF DUP6 PUSH2 0x140 ADD MLOAD MLOAD PUSH2 0x1F59 JUMP JUMPDEST DUP6 PUSH2 0x140 ADD MLOAD PUSH1 0x40 MLOAD PUSH1 0x20 ADD PUSH2 0x1DE8 SWAP5 SWAP4 SWAP3 SWAP2 SWAP1 PUSH2 0x39AD JUMP JUMPDEST PUSH1 0x40 MLOAD PUSH1 0x20 DUP2 DUP4 SUB SUB DUP2 MSTORE SWAP1 PUSH1 0x40 MSTORE SWAP1 POP JUMPDEST DUP1 SWAP2 POP POP SWAP2 SWAP1 POP JUMP JUMPDEST PUSH1 0x0 DUP1 PUSH2 0x1E0F DUP7 PUSH2 0x1530 JUMP JUMPDEST SWAP1 POP PUSH1 0x0 PUSH1 0x2 PUSH1 0x0 PUSH1 0x2 DUP5 DUP10 MLOAD DUP11 PUSH1 0x20 DUP12 PUSH1 0x40 MLOAD PUSH1 0x20 ADD PUSH2 0x1E36 SWAP8 SWAP7 SWAP6 SWAP5 SWAP4 SWAP3 SWAP2 SWAP1 PUSH2 0x3C22 JUMP JUMPDEST PUSH1 0x40 MLOAD PUSH1 0x20 DUP2 DUP4 SUB SUB DUP2 MSTORE SWAP1 PUSH1 0x40 MSTORE PUSH1 0x40 MLOAD PUSH2 0x1E52 SWAP2 SWAP1 PUSH2 0x3930 JUMP JUMPDEST PUSH1 0x20 PUSH1 0x40 MLOAD DUP1 DUP4 SUB DUP2 DUP6 GAS STATICCALL ISZERO DUP1 ISZERO PUSH2 0x1E6F JUMPI RETURNDATASIZE PUSH1 0x0 DUP1 RETURNDATACOPY RETURNDATASIZE PUSH1 0x0 REVERT JUMPDEST POP POP POP PUSH1 0x40 MLOAD RETURNDATASIZE PUSH1 0x1F NOT PUSH1 0x1F DUP3 ADD AND DUP3 ADD DUP1 PUSH1 0x40 MSTORE POP DUP2 ADD SWAP1 PUSH2 0x1E92 SWAP2 SWAP1 PUSH2 0x2E25 JUMP JUMPDEST SWAP1 POP PUSH1 0x0 JUMPDEST DUP5 MLOAD DUP2 LT ISZERO PUSH2 0x1EFF JUMPI PUSH2 0x1EEA DUP6 DUP3 DUP2 MLOAD DUP2 LT PUSH2 0x1EDC JUMPI PUSH32 0x4E487B7100000000000000000000000000000000000000000000000000000000 PUSH1 0x0 MSTORE PUSH1 0x32 PUSH1 0x4 MSTORE PUSH1 0x24 PUSH1 0x0 REVERT JUMPDEST PUSH1 0x20 MUL PUSH1 0x20 ADD ADD MLOAD DUP4 PUSH2 0x1F83 JUMP JUMPDEST SWAP2 POP DUP1 DUP1 PUSH2 0x1EF7 SWAP1 PUSH2 0x434C JUMP JUMPDEST SWAP2 POP POP PUSH2 0x1E97 JUMP JUMPDEST POP DUP8 DUP2 EQ SWAP3 POP POP POP SWAP6 SWAP5 POP POP POP POP POP JUMP JUMPDEST PUSH2 0x1F27 DUP2 PUSH2 0x1F1F PUSH2 0x2051 PUSH2 0x2072 JUMP JUMPDEST PUSH4 0xFFFFFFFF AND JUMP JUMPDEST POP JUMP JUMPDEST PUSH1 0x60 PUSH1 0x0 DUP3 PUSH1 0x3 DUP6 PUSH8 0xFFFFFFFFFFFFFFFF AND SWAP1 SHL OR SWAP1 POP PUSH1 0x0 PUSH2 0x1F4C DUP3 PUSH2 0x207D JUMP JUMPDEST SWAP1 POP DUP1 SWAP3 POP POP POP SWAP3 SWAP2 POP POP JUMP JUMPDEST PUSH1 0x60 PUSH2 0x1F64 DUP3 PUSH2 0x207D JUMP JUMPDEST SWAP1 POP SWAP2 SWAP1 POP JUMP JUMPDEST PUSH1 0x60 PUSH2 0x1F7C DUP3 PUSH4 0xFFFFFFFF AND PUSH2 0x207D JUMP JUMPDEST SWAP1 POP SWAP2 SWAP1 POP JUMP JUMPDEST PUSH1 0x0 DUP1 PUSH1 0x0 DUP5 PUSH1 0x0 ADD MLOAD PUSH2 0x1F9C JUMPI DUP4 DUP6 PUSH1 0x80 ADD MLOAD PUSH2 0x1FA3 JUMP JUMPDEST DUP5 PUSH1 0x80 ADD MLOAD DUP5 JUMPDEST SWAP2 POP SWAP2 POP PUSH1 0x2 PUSH1 0x1 DUP7 PUSH1 0x20 ADD MLOAD PUSH1 0xFF AND SWAP1 SHL PUSH2 0x1FC2 DUP8 PUSH1 0x40 ADD MLOAD PUSH2 0x22A1 JUMP JUMPDEST PUSH2 0x1FCF DUP9 PUSH1 0x60 ADD MLOAD PUSH2 0x22A1 JUMP JUMPDEST PUSH1 0x20 DUP7 PUSH1 0x20 DUP8 PUSH1 0x40 MLOAD PUSH1 0x20 ADD PUSH2 0x1FEB SWAP8 SWAP7 SWAP6 SWAP5 SWAP4 SWAP3 SWAP2 SWAP1 PUSH2 0x3B40 JUMP JUMPDEST PUSH1 0x40 MLOAD PUSH1 0x20 DUP2 DUP4 SUB SUB DUP2 MSTORE SWAP1 PUSH1 0x40 MSTORE PUSH1 0x40 MLOAD PUSH2 0x2007 SWAP2 SWAP1 PUSH2 0x3930 JUMP JUMPDEST PUSH1 0x20 PUSH1 0x40 MLOAD DUP1 DUP4 SUB DUP2 DUP6 GAS STATICCALL ISZERO DUP1 ISZERO PUSH2 0x2024 JUMPI RETURNDATASIZE PUSH1 0x0 DUP1 RETURNDATACOPY RETURNDATASIZE PUSH1 0x0 REVERT JUMPDEST POP POP POP PUSH1 0x40 MLOAD RETURNDATASIZE PUSH1 0x1F NOT PUSH1 0x1F DUP3 ADD AND DUP3 ADD DUP1 PUSH1 0x40 MSTORE POP DUP2 ADD SWAP1 PUSH2 0x2047 SWAP2 SWAP1 PUSH2 0x2E25 JUMP JUMPDEST SWAP3 POP POP POP SWAP3 SWAP2 POP POP JUMP JUMPDEST PUSH1 0x0 PUSH11 0x636F6E736F6C652E6C6F67 SWAP1 POP PUSH1 0x0 DUP1 DUP4 MLOAD PUSH1 0x20 DUP6 ADD DUP5 GAS STATICCALL POP POP POP JUMP JUMPDEST PUSH2 0x24D6 DUP2 SWAP1 POP SWAP2 SWAP1 POP JUMP JUMPDEST PUSH1 0x60 PUSH1 0x0 DUP3 SWAP1 POP PUSH1 0x0 PUSH1 0x1 SWAP1 POP JUMPDEST PUSH1 0x7F DUP3 PUSH8 0xFFFFFFFFFFFFFFFF AND GT ISZERO PUSH2 0x20C3 JUMPI PUSH1 0x7 DUP3 PUSH8 0xFFFFFFFFFFFFFFFF AND SWAP1 SHR SWAP2 POP PUSH1 0x1 DUP2 PUSH2 0x20BC SWAP2 SWAP1 PUSH2 0x40C4 JUMP JUMPDEST SWAP1 POP PUSH2 0x208B JUMP JUMPDEST PUSH1 0x0 DUP2 PUSH8 0xFFFFFFFFFFFFFFFF AND PUSH8 0xFFFFFFFFFFFFFFFF DUP2 GT ISZERO PUSH2 0x210F JUMPI PUSH32 0x4E487B7100000000000000000000000000000000000000000000000000000000 PUSH1 0x0 MSTORE PUSH1 0x41 PUSH1 0x4 MSTORE PUSH1 0x24 PUSH1 0x0 REVERT JUMPDEST PUSH1 0x40 MLOAD SWAP1 DUP1 DUP3 MSTORE DUP1 PUSH1 0x1F ADD PUSH1 0x1F NOT AND PUSH1 0x20 ADD DUP3 ADD PUSH1 0x40 MSTORE DUP1 ISZERO PUSH2 0x2141 JUMPI DUP2 PUSH1 0x20 ADD PUSH1 0x1 DUP3 MUL DUP1 CALLDATASIZE DUP4 CALLDATACOPY DUP1 DUP3 ADD SWAP2 POP POP SWAP1 POP JUMPDEST POP SWAP1 POP DUP5 SWAP3 POP PUSH1 0x0 JUMPDEST DUP3 PUSH8 0xFFFFFFFFFFFFFFFF AND DUP2 PUSH8 0xFFFFFFFFFFFFFFFF AND LT ISZERO PUSH2 0x2206 JUMPI PUSH1 0x7F DUP5 AND PUSH1 0x80 OR PUSH1 0xF8 SHL DUP3 DUP3 PUSH8 0xFFFFFFFFFFFFFFFF AND DUP2 MLOAD DUP2 LT PUSH2 0x21B3 JUMPI PUSH32 0x4E487B7100000000000000000000000000000000000000000000000000000000 PUSH1 0x0 MSTORE PUSH1 0x32 PUSH1 0x4 MSTORE PUSH1 0x24 PUSH1 0x0 REVERT JUMPDEST PUSH1 0x20 ADD ADD SWAP1 PUSH31 0xFFFFFFFFFFFFFFFFFFFFFFFFFFFFFFFFFFFFFFFFFFFFFFFFFFFFFFFFFFFFFF NOT AND SWAP1 DUP2 PUSH1 0x0 BYTE SWAP1 MSTORE8 POP PUSH1 0x7 DUP5 PUSH8 0xFFFFFFFFFFFFFFFF AND SWAP1 SHR SWAP4 POP DUP1 DUP1 PUSH2 0x21FE SWAP1 PUSH2 0x4395 JUMP JUMPDEST SWAP2 POP POP PUSH2 0x214A JUMP JUMPDEST POP PUSH1 0x7F PUSH1 0xF8 SHL DUP2 PUSH1 0x1 DUP5 PUSH2 0x221A SWAP2 SWAP1 PUSH2 0x4190 JUMP JUMPDEST PUSH8 0xFFFFFFFFFFFFFFFF AND DUP2 MLOAD DUP2 LT PUSH2 0x225B JUMPI PUSH32 0x4E487B7100000000000000000000000000000000000000000000000000000000 PUSH1 0x0 MSTORE PUSH1 0x32 PUSH1 0x4 MSTORE PUSH1 0x24 PUSH1 0x0 REVERT JUMPDEST PUSH1 0x20 ADD ADD DUP2 DUP2 MLOAD PUSH1 0xF8 SHR PUSH1 0xF8 SHL AND SWAP2 POP SWAP1 PUSH31 0xFFFFFFFFFFFFFFFFFFFFFFFFFFFFFFFFFFFFFFFFFFFFFFFFFFFFFFFFFFFFFF NOT AND SWAP1 DUP2 PUSH1 0x0 BYTE SWAP1 MSTORE8 POP DUP1 SWAP4 POP POP POP POP SWAP2 SWAP1 POP JUMP JUMPDEST PUSH1 0x60 PUSH2 0x22B8 PUSH1 0x2 DUP4 PUSH2 0x22B3 SWAP2 SWAP1 PUSH2 0x4102 JUMP JUMPDEST PUSH2 0x1530 JUMP JUMPDEST SWAP1 POP SWAP2 SWAP1 POP JUMP JUMPDEST PUSH1 0x40 MLOAD DUP1 PUSH1 0x40 ADD PUSH1 0x40 MSTORE DUP1 PUSH1 0x60 DUP2 MSTORE PUSH1 0x20 ADD PUSH1 0x60 DUP2 MSTORE POP SWAP1 JUMP JUMPDEST PUSH1 0x40 MLOAD DUP1 PUSH2 0x100 ADD PUSH1 0x40 MSTORE DUP1 PUSH1 0x0 DUP1 NOT AND DUP2 MSTORE PUSH1 0x20 ADD PUSH1 0x0 PUSH8 0xFFFFFFFFFFFFFFFF AND DUP2 MSTORE PUSH1 0x20 ADD PUSH1 0x0 PUSH8 0xFFFFFFFFFFFFFFFF AND DUP2 MSTORE PUSH1 0x20 ADD PUSH1 0x0 PUSH4 0xFFFFFFFF AND DUP2 MSTORE PUSH1 0x20 ADD PUSH1 0x0 DUP1 NOT AND DUP2 MSTORE PUSH1 0x20 ADD PUSH1 0x0 DUP1 NOT AND DUP2 MSTORE PUSH1 0x20 ADD PUSH1 0x0 DUP1 NOT AND DUP2 MSTORE PUSH1 0x20 ADD PUSH1 0x0 DUP1 NOT AND DUP2 MSTORE POP SWAP1 JUMP JUMPDEST PUSH1 0x40 MLOAD DUP1 PUSH1 0x80 ADD PUSH1 0x40 MSTORE DUP1 PUSH1 0x0 DUP1 NOT AND DUP2 MSTORE PUSH1 0x20 ADD PUSH1 0x0 DUP1 NOT AND DUP2 MSTORE PUSH1 0x20 ADD PUSH1 0x0 PUSH1 0xFF AND DUP2 MSTORE PUSH1 0x20 ADD PUSH1 0x60 DUP2 MSTORE POP SWAP1 JUMP JUMPDEST DUP3 DUP1 SLOAD PUSH2 0x2384 SWAP1 PUSH2 0x42E9 JUMP JUMPDEST SWAP1 PUSH1 0x0 MSTORE PUSH1 0x20 PUSH1 0x0 KECCAK256 SWAP1 PUSH1 0x1F ADD PUSH1 0x20 SWAP1 DIV DUP2 ADD SWAP3 DUP3 PUSH2 0x23A6 JUMPI PUSH1 0x0 DUP6 SSTORE PUSH2 0x23ED JUMP JUMPDEST DUP3 PUSH1 0x1F LT PUSH2 0x23BF JUMPI DUP1 MLOAD PUSH1 0xFF NOT AND DUP4 DUP1 ADD OR DUP6 SSTORE PUSH2 0x23ED JUMP JUMPDEST DUP3 DUP1 ADD PUSH1 0x1 ADD DUP6 SSTORE DUP3 ISZERO PUSH2 0x23ED JUMPI SWAP2 DUP3 ADD JUMPDEST DUP3 DUP2 GT ISZERO PUSH2 0x23EC JUMPI DUP3 MLOAD DUP3 SSTORE SWAP2 PUSH1 0x20 ADD SWAP2 SWAP1 PUSH1 0x1 ADD SWAP1 PUSH2 0x23D1 JUMP JUMPDEST JUMPDEST POP SWAP1 POP PUSH2 0x23FA SWAP2 SWAP1 PUSH2 0x2505 JUMP JUMPDEST POP SWAP1 JUMP JUMPDEST PUSH1 0x40 MLOAD DUP1 PUSH2 0x160 ADD PUSH1 0x40 MSTORE DUP1 PUSH1 0x60 DUP2 MSTORE PUSH1 0x20 ADD PUSH1 0x0 PUSH8 0xFFFFFFFFFFFFFFFF AND DUP2 MSTORE PUSH1 0x20 ADD PUSH1 0x60 DUP2 MSTORE PUSH1 0x20 ADD PUSH1 0x0 PUSH8 0xFFFFFFFFFFFFFFFF AND DUP2 MSTORE PUSH1 0x20 ADD PUSH1 0x0 PUSH8 0xFFFFFFFFFFFFFFFF AND DUP2 MSTORE PUSH1 0x20 ADD PUSH1 0x0 PUSH8 0xFFFFFFFFFFFFFFFF AND DUP2 MSTORE PUSH1 0x20 ADD PUSH1 0x0 PUSH8 0xFFFFFFFFFFFFFFFF AND DUP2 MSTORE PUSH1 0x20 ADD PUSH1 0x0 PUSH8 0xFFFFFFFFFFFFFFFF AND DUP2 MSTORE PUSH1 0x20 ADD PUSH1 0x0 PUSH8 0xFFFFFFFFFFFFFFFF AND DUP2 MSTORE PUSH1 0x20 ADD PUSH1 0x0 PUSH1 0x3 DUP2 GT ISZERO PUSH2 0x24C9 JUMPI PUSH32 0x4E487B7100000000000000000000000000000000000000000000000000000000 PUSH1 0x0 MSTORE PUSH1 0x21 PUSH1 0x4 MSTORE PUSH1 0x24 PUSH1 0x0 REVERT JUMPDEST DUP2 MSTORE PUSH1 0x20 ADD PUSH1 0x60 DUP2 MSTORE POP SWAP1 JUMP JUMPDEST PUSH32 0x4E487B7100000000000000000000000000000000000000000000000000000000 PUSH1 0x0 MSTORE PUSH1 0x51 PUSH1 0x4 MSTORE PUSH1 0x24 PUSH1 0x0 REVERT JUMPDEST JUMPDEST DUP1 DUP3 GT ISZERO PUSH2 0x251E JUMPI PUSH1 0x0 DUP2 PUSH1 0x0 SWAP1 SSTORE POP PUSH1 0x1 ADD PUSH2 0x2506 JUMP JUMPDEST POP SWAP1 JUMP JUMPDEST PUSH1 0x0 PUSH2 0x2535 PUSH2 0x2530 DUP5 PUSH2 0x3F70 JUMP JUMPDEST PUSH2 0x3F4B JUMP JUMPDEST SWAP1 POP DUP1 DUP4 DUP3 MSTORE PUSH1 0x20 DUP3 ADD SWAP1 POP DUP3 PUSH1 0x0 JUMPDEST DUP6 DUP2 LT ISZERO PUSH2 0x2575 JUMPI DUP2 CALLDATALOAD DUP6 ADD PUSH2 0x255B DUP9 DUP3 PUSH2 0x2B0C JUMP JUMPDEST DUP5 MSTORE PUSH1 0x20 DUP5 ADD SWAP4 POP PUSH1 0x20 DUP4 ADD SWAP3 POP POP PUSH1 0x1 DUP2 ADD SWAP1 POP PUSH2 0x2545 JUMP JUMPDEST POP POP POP SWAP4 SWAP3 POP POP POP JUMP JUMPDEST PUSH1 0x0 PUSH2 0x2592 PUSH2 0x258D DUP5 PUSH2 0x3F9C JUMP JUMPDEST PUSH2 0x3F4B JUMP JUMPDEST SWAP1 POP DUP3 DUP2 MSTORE PUSH1 0x20 DUP2 ADD DUP5 DUP5 DUP5 ADD GT ISZERO PUSH2 0x25AA JUMPI PUSH1 0x0 DUP1 REVERT JUMPDEST PUSH2 0x25B5 DUP5 DUP3 DUP6 PUSH2 0x42A7 JUMP JUMPDEST POP SWAP4 SWAP3 POP POP POP JUMP JUMPDEST PUSH1 0x0 PUSH2 0x25D0 PUSH2 0x25CB DUP5 PUSH2 0x3FCD JUMP JUMPDEST PUSH2 0x3F4B JUMP JUMPDEST SWAP1 POP DUP3 DUP2 MSTORE PUSH1 0x20 DUP2 ADD DUP5 DUP5 DUP5 ADD GT ISZERO PUSH2 0x25E8 JUMPI PUSH1 0x0 DUP1 REVERT JUMPDEST PUSH2 0x25F3 DUP5 DUP3 DUP6 PUSH2 0x42A7 JUMP JUMPDEST POP SWAP4 SWAP3 POP POP POP JUMP JUMPDEST PUSH1 0x0 DUP2 CALLDATALOAD SWAP1 POP PUSH2 0x260A DUP2 PUSH2 0x474D JUMP JUMPDEST SWAP3 SWAP2 POP POP JUMP JUMPDEST PUSH1 0x0 DUP1 DUP4 PUSH1 0x1F DUP5 ADD SLT PUSH2 0x2622 JUMPI PUSH1 0x0 DUP1 REVERT JUMPDEST DUP3 CALLDATALOAD SWAP1 POP PUSH8 0xFFFFFFFFFFFFFFFF DUP2 GT ISZERO PUSH2 0x263B JUMPI PUSH1 0x0 DUP1 REVERT JUMPDEST PUSH1 0x20 DUP4 ADD SWAP2 POP DUP4 PUSH1 0x20 DUP3 MUL DUP4 ADD GT ISZERO PUSH2 0x2653 JUMPI PUSH1 0x0 DUP1 REVERT JUMPDEST SWAP3 POP SWAP3 SWAP1 POP JUMP JUMPDEST PUSH1 0x0 DUP1 DUP4 PUSH1 0x1F DUP5 ADD SLT PUSH2 0x266C JUMPI PUSH1 0x0 DUP1 REVERT JUMPDEST DUP3 CALLDATALOAD SWAP1 POP PUSH8 0xFFFFFFFFFFFFFFFF DUP2 GT ISZERO PUSH2 0x2685 JUMPI PUSH1 0x0 DUP1 REVERT JUMPDEST PUSH1 0x20 DUP4 ADD SWAP2 POP DUP4 PUSH1 0xA0 DUP3 MUL DUP4 ADD GT ISZERO PUSH2 0x269D JUMPI PUSH1 0x0 DUP1 REVERT JUMPDEST SWAP3 POP SWAP3 SWAP1 POP JUMP JUMPDEST PUSH1 0x0 DUP1 DUP4 PUSH1 0x1F DUP5 ADD SLT PUSH2 0x26B6 JUMPI PUSH1 0x0 DUP1 REVERT JUMPDEST DUP3 CALLDATALOAD SWAP1 POP PUSH8 0xFFFFFFFFFFFFFFFF DUP2 GT ISZERO PUSH2 0x26CF JUMPI PUSH1 0x0 DUP1 REVERT JUMPDEST PUSH1 0x20 DUP4 ADD SWAP2 POP DUP4 PUSH1 0x20 DUP3 MUL DUP4 ADD GT ISZERO PUSH2 0x26E7 JUMPI PUSH1 0x0 DUP1 REVERT JUMPDEST SWAP3 POP SWAP3 SWAP1 POP JUMP JUMPDEST PUSH1 0x0 DUP3 PUSH1 0x1F DUP4 ADD SLT PUSH2 0x26FF JUMPI PUSH1 0x0 DUP1 REVERT JUMPDEST DUP2 CALLDATALOAD PUSH2 0x270F DUP5 DUP3 PUSH1 0x20 DUP7 ADD PUSH2 0x2522 JUMP JUMPDEST SWAP2 POP POP SWAP3 SWAP2 POP POP JUMP JUMPDEST PUSH1 0x0 DUP1 DUP4 PUSH1 0x1F DUP5 ADD SLT PUSH2 0x272A JUMPI PUSH1 0x0 DUP1 REVERT JUMPDEST DUP3 CALLDATALOAD SWAP1 POP PUSH8 0xFFFFFFFFFFFFFFFF DUP2 GT ISZERO PUSH2 0x2743 JUMPI PUSH1 0x0 DUP1 REVERT JUMPDEST PUSH1 0x20 DUP4 ADD SWAP2 POP DUP4 PUSH1 0x20 DUP3 MUL DUP4 ADD GT ISZERO PUSH2 0x275B JUMPI PUSH1 0x0 DUP1 REVERT JUMPDEST SWAP3 POP SWAP3 SWAP1 POP JUMP JUMPDEST PUSH1 0x0 DUP2 CALLDATALOAD SWAP1 POP PUSH2 0x2771 DUP2 PUSH2 0x4764 JUMP JUMPDEST SWAP3 SWAP2 POP POP JUMP JUMPDEST PUSH1 0x0 DUP2 CALLDATALOAD SWAP1 POP PUSH2 0x2786 DUP2 PUSH2 0x477B JUMP JUMPDEST SWAP3 SWAP2 POP POP JUMP JUMPDEST PUSH1 0x0 DUP2 MLOAD SWAP1 POP PUSH2 0x279B DUP2 PUSH2 0x477B JUMP JUMPDEST SWAP3 SWAP2 POP POP JUMP JUMPDEST PUSH1 0x0 DUP3 PUSH1 0x1F DUP4 ADD SLT PUSH2 0x27B2 JUMPI PUSH1 0x0 DUP1 REVERT JUMPDEST DUP2 CALLDATALOAD PUSH2 0x27C2 DUP5 DUP3 PUSH1 0x20 DUP7 ADD PUSH2 0x257F JUMP JUMPDEST SWAP2 POP POP SWAP3 SWAP2 POP POP JUMP JUMPDEST PUSH1 0x0 DUP2 CALLDATALOAD SWAP1 POP PUSH2 0x27DA DUP2 PUSH2 0x4792 JUMP JUMPDEST SWAP3 SWAP2 POP POP JUMP JUMPDEST PUSH1 0x0 DUP1 DUP4 PUSH1 0x1F DUP5 ADD SLT PUSH2 0x27F2 JUMPI PUSH1 0x0 DUP1 REVERT JUMPDEST DUP3 CALLDATALOAD SWAP1 POP PUSH8 0xFFFFFFFFFFFFFFFF DUP2 GT ISZERO PUSH2 0x280B JUMPI PUSH1 0x0 DUP1 REVERT JUMPDEST PUSH1 0x20 DUP4 ADD SWAP2 POP DUP4 PUSH1 0x1 DUP3 MUL DUP4 ADD GT ISZERO PUSH2 0x2823 JUMPI PUSH1 0x0 DUP1 REVERT JUMPDEST SWAP3 POP SWAP3 SWAP1 POP JUMP JUMPDEST PUSH1 0x0 DUP3 PUSH1 0x1F DUP4 ADD SLT PUSH2 0x283B JUMPI PUSH1 0x0 DUP1 REVERT JUMPDEST DUP2 CALLDATALOAD PUSH2 0x284B DUP5 DUP3 PUSH1 0x20 DUP7 ADD PUSH2 0x25BD JUMP JUMPDEST SWAP2 POP POP SWAP3 SWAP2 POP POP JUMP JUMPDEST PUSH1 0x0 PUSH2 0x100 DUP3 DUP5 SUB SLT ISZERO PUSH2 0x2867 JUMPI PUSH1 0x0 DUP1 REVERT JUMPDEST DUP2 SWAP1 POP SWAP3 SWAP2 POP POP JUMP JUMPDEST PUSH1 0x0 PUSH2 0x100 DUP3 DUP5 SUB SLT ISZERO PUSH2 0x2883 JUMPI PUSH1 0x0 DUP1 REVERT JUMPDEST PUSH2 0x288E PUSH2 0x100 PUSH2 0x3F4B JUMP JUMPDEST SWAP1 POP PUSH1 0x0 PUSH2 0x289E DUP5 DUP3 DUP6 ADD PUSH2 0x2777 JUMP JUMPDEST PUSH1 0x0 DUP4 ADD MSTORE POP PUSH1 0x20 PUSH2 0x28B2 DUP5 DUP3 DUP6 ADD PUSH2 0x2D2E JUMP JUMPDEST PUSH1 0x20 DUP4 ADD MSTORE POP PUSH1 0x40 PUSH2 0x28C6 DUP5 DUP3 DUP6 ADD PUSH2 0x2D2E JUMP JUMPDEST PUSH1 0x40 DUP4 ADD MSTORE POP PUSH1 0x60 PUSH2 0x28DA DUP5 DUP3 DUP6 ADD PUSH2 0x2D19 JUMP JUMPDEST PUSH1 0x60 DUP4 ADD MSTORE POP PUSH1 0x80 PUSH2 0x28EE DUP5 DUP3 DUP6 ADD PUSH2 0x2777 JUMP JUMPDEST PUSH1 0x80 DUP4 ADD MSTORE POP PUSH1 0xA0 PUSH2 0x2902 DUP5 DUP3 DUP6 ADD PUSH2 0x2777 JUMP JUMPDEST PUSH1 0xA0 DUP4 ADD MSTORE POP PUSH1 0xC0 PUSH2 0x2916 DUP5 DUP3 DUP6 ADD PUSH2 0x2777 JUMP JUMPDEST PUSH1 0xC0 DUP4 ADD MSTORE POP PUSH1 0xE0 PUSH2 0x292A DUP5 DUP3 DUP6 ADD PUSH2 0x2777 JUMP JUMPDEST PUSH1 0xE0 DUP4 ADD MSTORE POP SWAP3 SWAP2 POP POP JUMP JUMPDEST PUSH1 0x0 PUSH1 0x40 DUP3 DUP5 SUB SLT ISZERO PUSH2 0x2948 JUMPI PUSH1 0x0 DUP1 REVERT JUMPDEST DUP2 SWAP1 POP SWAP3 SWAP2 POP POP JUMP JUMPDEST PUSH1 0x0 PUSH1 0x40 DUP3 DUP5 SUB SLT ISZERO PUSH2 0x2963 JUMPI PUSH1 0x0 DUP1 REVERT JUMPDEST PUSH2 0x296D PUSH1 0x40 PUSH2 0x3F4B JUMP JUMPDEST SWAP1 POP PUSH1 0x0 DUP3 ADD CALLDATALOAD PUSH8 0xFFFFFFFFFFFFFFFF DUP2 GT ISZERO PUSH2 0x2989 JUMPI PUSH1 0x0 DUP1 REVERT JUMPDEST PUSH2 0x2995 DUP5 DUP3 DUP6 ADD PUSH2 0x27A1 JUMP JUMPDEST PUSH1 0x0 DUP4 ADD MSTORE POP PUSH1 0x20 DUP3 ADD CALLDATALOAD PUSH8 0xFFFFFFFFFFFFFFFF DUP2 GT ISZERO PUSH2 0x29B5 JUMPI PUSH1 0x0 DUP1 REVERT JUMPDEST PUSH2 0x29C1 DUP5 DUP3 DUP6 ADD PUSH2 0x27A1 JUMP JUMPDEST PUSH1 0x20 DUP4 ADD MSTORE POP SWAP3 SWAP2 POP POP JUMP JUMPDEST PUSH1 0x0 PUSH1 0xA0 DUP3 DUP5 SUB SLT ISZERO PUSH2 0x29DF JUMPI PUSH1 0x0 DUP1 REVERT JUMPDEST PUSH2 0x29E9 PUSH1 0xA0 PUSH2 0x3F4B JUMP JUMPDEST SWAP1 POP PUSH1 0x0 PUSH2 0x29F9 DUP5 DUP3 DUP6 ADD PUSH2 0x2762 JUMP JUMPDEST PUSH1 0x0 DUP4 ADD MSTORE POP PUSH1 0x20 PUSH2 0x2A0D DUP5 DUP3 DUP6 ADD PUSH2 0x2D43 JUMP JUMPDEST PUSH1 0x20 DUP4 ADD MSTORE POP PUSH1 0x40 PUSH2 0x2A21 DUP5 DUP3 DUP6 ADD PUSH2 0x2D04 JUMP JUMPDEST PUSH1 0x40 DUP4 ADD MSTORE POP PUSH1 0x60 PUSH2 0x2A35 DUP5 DUP3 DUP6 ADD PUSH2 0x2D04 JUMP JUMPDEST PUSH1 0x60 DUP4 ADD MSTORE POP PUSH1 0x80 PUSH2 0x2A49 DUP5 DUP3 DUP6 ADD PUSH2 0x2777 JUMP JUMPDEST PUSH1 0x80 DUP4 ADD MSTORE POP SWAP3 SWAP2 POP POP JUMP JUMPDEST PUSH1 0x0 PUSH1 0xC0 DUP3 DUP5 SUB SLT ISZERO PUSH2 0x2A67 JUMPI PUSH1 0x0 DUP1 REVERT JUMPDEST DUP2 SWAP1 POP SWAP3 SWAP2 POP POP JUMP JUMPDEST PUSH1 0x0 PUSH1 0xC0 DUP3 DUP5 SUB SLT ISZERO PUSH2 0x2A82 JUMPI PUSH1 0x0 DUP1 REVERT JUMPDEST PUSH2 0x2A8C PUSH1 0xC0 PUSH2 0x3F4B JUMP JUMPDEST SWAP1 POP PUSH1 0x0 PUSH2 0x2A9C DUP5 DUP3 DUP6 ADD PUSH2 0x2777 JUMP JUMPDEST PUSH1 0x0 DUP4 ADD MSTORE POP PUSH1 0x20 PUSH2 0x2AB0 DUP5 DUP3 DUP6 ADD PUSH2 0x2777 JUMP JUMPDEST PUSH1 0x20 DUP4 ADD MSTORE POP PUSH1 0x40 PUSH2 0x2AC4 DUP5 DUP3 DUP6 ADD PUSH2 0x2777 JUMP JUMPDEST PUSH1 0x40 DUP4 ADD MSTORE POP PUSH1 0x60 PUSH2 0x2AD8 DUP5 DUP3 DUP6 ADD PUSH2 0x2777 JUMP JUMPDEST PUSH1 0x60 DUP4 ADD MSTORE POP PUSH1 0x80 PUSH2 0x2AEC DUP5 DUP3 DUP6 ADD PUSH2 0x2777 JUMP JUMPDEST PUSH1 0x80 DUP4 ADD MSTORE POP PUSH1 0xA0 PUSH2 0x2B00 DUP5 DUP3 DUP6 ADD PUSH2 0x2777 JUMP JUMPDEST PUSH1 0xA0 DUP4 ADD MSTORE POP SWAP3 SWAP2 POP POP JUMP JUMPDEST PUSH1 0x0 PUSH1 0x80 DUP3 DUP5 SUB SLT ISZERO PUSH2 0x2B1E JUMPI PUSH1 0x0 DUP1 REVERT JUMPDEST PUSH2 0x2B28 PUSH1 0x80 PUSH2 0x3F4B JUMP JUMPDEST SWAP1 POP PUSH1 0x0 PUSH2 0x2B38 DUP5 DUP3 DUP6 ADD PUSH2 0x2777 JUMP JUMPDEST PUSH1 0x0 DUP4 ADD MSTORE POP PUSH1 0x20 PUSH2 0x2B4C DUP5 DUP3 DUP6 ADD PUSH2 0x2777 JUMP JUMPDEST PUSH1 0x20 DUP4 ADD MSTORE POP PUSH1 0x40 PUSH2 0x2B60 DUP5 DUP3 DUP6 ADD PUSH2 0x2D43 JUMP JUMPDEST PUSH1 0x40 DUP4 ADD MSTORE POP PUSH1 0x60 DUP3 ADD CALLDATALOAD PUSH8 0xFFFFFFFFFFFFFFFF DUP2 GT ISZERO PUSH2 0x2B80 JUMPI PUSH1 0x0 DUP1 REVERT JUMPDEST PUSH2 0x2B8C DUP5 DUP3 DUP6 ADD PUSH2 0x27A1 JUMP JUMPDEST PUSH1 0x60 DUP4 ADD MSTORE POP SWAP3 SWAP2 POP POP JUMP JUMPDEST PUSH1 0x0 PUSH2 0x160 DUP3 DUP5 SUB SLT ISZERO PUSH2 0x2BAB JUMPI PUSH1 0x0 DUP1 REVERT JUMPDEST DUP2 SWAP1 POP SWAP3 SWAP2 POP POP JUMP JUMPDEST PUSH1 0x0 PUSH2 0x160 DUP3 DUP5 SUB SLT ISZERO PUSH2 0x2BC7 JUMPI PUSH1 0x0 DUP1 REVERT JUMPDEST PUSH2 0x2BD2 PUSH2 0x160 PUSH2 0x3F4B JUMP JUMPDEST SWAP1 POP PUSH1 0x0 DUP3 ADD CALLDATALOAD PUSH8 0xFFFFFFFFFFFFFFFF DUP2 GT ISZERO PUSH2 0x2BEE JUMPI PUSH1 0x0 DUP1 REVERT JUMPDEST PUSH2 0x2BFA DUP5 DUP3 DUP6 ADD PUSH2 0x282A JUMP JUMPDEST PUSH1 0x0 DUP4 ADD MSTORE POP PUSH1 0x20 PUSH2 0x2C0E DUP5 DUP3 DUP6 ADD PUSH2 0x2D2E JUMP JUMPDEST PUSH1 0x20 DUP4 ADD MSTORE POP PUSH1 0x40 DUP3 ADD CALLDATALOAD PUSH8 0xFFFFFFFFFFFFFFFF DUP2 GT ISZERO PUSH2 0x2C2E JUMPI PUSH1 0x0 DUP1 REVERT JUMPDEST PUSH2 0x2C3A DUP5 DUP3 DUP6 ADD PUSH2 0x27A1 JUMP JUMPDEST PUSH1 0x40 DUP4 ADD MSTORE POP PUSH1 0x60 PUSH2 0x2C4E DUP5 DUP3 DUP6 ADD PUSH2 0x2D2E JUMP JUMPDEST PUSH1 0x60 DUP4 ADD MSTORE POP PUSH1 0x80 PUSH2 0x2C62 DUP5 DUP3 DUP6 ADD PUSH2 0x2D2E JUMP JUMPDEST PUSH1 0x80 DUP4 ADD MSTORE POP PUSH1 0xA0 PUSH2 0x2C76 DUP5 DUP3 DUP6 ADD PUSH2 0x2D2E JUMP JUMPDEST PUSH1 0xA0 DUP4 ADD MSTORE POP PUSH1 0xC0 PUSH2 0x2C8A DUP5 DUP3 DUP6 ADD PUSH2 0x2D2E JUMP JUMPDEST PUSH1 0xC0 DUP4 ADD MSTORE POP PUSH1 0xE0 PUSH2 0x2C9E DUP5 DUP3 DUP6 ADD PUSH2 0x2D2E JUMP JUMPDEST PUSH1 0xE0 DUP4 ADD MSTORE POP PUSH2 0x100 PUSH2 0x2CB3 DUP5 DUP3 DUP6 ADD PUSH2 0x2D2E JUMP JUMPDEST PUSH2 0x100 DUP4 ADD MSTORE POP PUSH2 0x120 PUSH2 0x2CC9 DUP5 DUP3 DUP6 ADD PUSH2 0x27CB JUMP JUMPDEST PUSH2 0x120 DUP4 ADD MSTORE POP PUSH2 0x140 DUP3 ADD CALLDATALOAD PUSH8 0xFFFFFFFFFFFFFFFF DUP2 GT ISZERO PUSH2 0x2CEB JUMPI PUSH1 0x0 DUP1 REVERT JUMPDEST PUSH2 0x2CF7 DUP5 DUP3 DUP6 ADD PUSH2 0x27A1 JUMP JUMPDEST PUSH2 0x140 DUP4 ADD MSTORE POP SWAP3 SWAP2 POP POP JUMP JUMPDEST PUSH1 0x0 DUP2 CALLDATALOAD SWAP1 POP PUSH2 0x2D13 DUP2 PUSH2 0x47A2 JUMP JUMPDEST SWAP3 SWAP2 POP POP JUMP JUMPDEST PUSH1 0x0 DUP2 CALLDATALOAD SWAP1 POP PUSH2 0x2D28 DUP2 PUSH2 0x47B9 JUMP JUMPDEST SWAP3 SWAP2 POP POP JUMP JUMPDEST PUSH1 0x0 DUP2 CALLDATALOAD SWAP1 POP PUSH2 0x2D3D DUP2 PUSH2 0x47D0 JUMP JUMPDEST SWAP3 SWAP2 POP POP JUMP JUMPDEST PUSH1 0x0 DUP2 CALLDATALOAD SWAP1 POP PUSH2 0x2D52 DUP2 PUSH2 0x47E7 JUMP JUMPDEST SWAP3 SWAP2 POP POP JUMP JUMPDEST PUSH1 0x0 PUSH1 0x20 DUP3 DUP5 SUB SLT ISZERO PUSH2 0x2D6A JUMPI PUSH1 0x0 DUP1 REVERT JUMPDEST PUSH1 0x0 PUSH2 0x2D78 DUP5 DUP3 DUP6 ADD PUSH2 0x25FB JUMP JUMPDEST SWAP2 POP POP SWAP3 SWAP2 POP POP JUMP JUMPDEST PUSH1 0x0 DUP1 PUSH1 0x0 DUP1 PUSH1 0x0 DUP1 PUSH1 0x60 DUP8 DUP10 SUB SLT ISZERO PUSH2 0x2D9A JUMPI PUSH1 0x0 DUP1 REVERT JUMPDEST PUSH1 0x0 DUP8 ADD CALLDATALOAD PUSH8 0xFFFFFFFFFFFFFFFF DUP2 GT ISZERO PUSH2 0x2DB4 JUMPI PUSH1 0x0 DUP1 REVERT JUMPDEST PUSH2 0x2DC0 DUP10 DUP3 DUP11 ADD PUSH2 0x2610 JUMP JUMPDEST SWAP7 POP SWAP7 POP POP PUSH1 0x20 DUP8 ADD CALLDATALOAD PUSH8 0xFFFFFFFFFFFFFFFF DUP2 GT ISZERO PUSH2 0x2DDF JUMPI PUSH1 0x0 DUP1 REVERT JUMPDEST PUSH2 0x2DEB DUP10 DUP3 DUP11 ADD PUSH2 0x2718 JUMP JUMPDEST SWAP5 POP SWAP5 POP POP PUSH1 0x40 DUP8 ADD CALLDATALOAD PUSH8 0xFFFFFFFFFFFFFFFF DUP2 GT ISZERO PUSH2 0x2E0A JUMPI PUSH1 0x0 DUP1 REVERT JUMPDEST PUSH2 0x2E16 DUP10 DUP3 DUP11 ADD PUSH2 0x27E0 JUMP JUMPDEST SWAP3 POP SWAP3 POP POP SWAP3 SWAP6 POP SWAP3 SWAP6 POP SWAP3 SWAP6 JUMP JUMPDEST PUSH1 0x0 PUSH1 0x20 DUP3 DUP5 SUB SLT ISZERO PUSH2 0x2E37 JUMPI PUSH1 0x0 DUP1 REVERT JUMPDEST PUSH1 0x0 PUSH2 0x2E45 DUP5 DUP3 DUP6 ADD PUSH2 0x278C JUMP JUMPDEST SWAP2 POP POP SWAP3 SWAP2 POP POP JUMP JUMPDEST PUSH1 0x0 PUSH2 0x100 DUP3 DUP5 SUB SLT ISZERO PUSH2 0x2E61 JUMPI PUSH1 0x0 DUP1 REVERT JUMPDEST PUSH1 0x0 PUSH2 0x2E6F DUP5 DUP3 DUP6 ADD PUSH2 0x2870 JUMP JUMPDEST SWAP2 POP POP SWAP3 SWAP2 POP POP JUMP JUMPDEST PUSH1 0x0 DUP1 PUSH2 0x120 DUP4 DUP6 SUB SLT ISZERO PUSH2 0x2E8C JUMPI PUSH1 0x0 DUP1 REVERT JUMPDEST PUSH1 0x0 PUSH2 0x2E9A DUP6 DUP3 DUP7 ADD PUSH2 0x2870 JUMP JUMPDEST SWAP3 POP POP PUSH2 0x100 PUSH2 0x2EAC DUP6 DUP3 DUP7 ADD PUSH2 0x2777 JUMP JUMPDEST SWAP2 POP POP SWAP3 POP SWAP3 SWAP1 POP JUMP JUMPDEST PUSH1 0x0 PUSH1 0x20 DUP3 DUP5 SUB SLT ISZERO PUSH2 0x2EC8 JUMPI PUSH1 0x0 DUP1 REVERT JUMPDEST PUSH1 0x0 DUP3 ADD CALLDATALOAD PUSH8 0xFFFFFFFFFFFFFFFF DUP2 GT ISZERO PUSH2 0x2EE2 JUMPI PUSH1 0x0 DUP1 REVERT JUMPDEST PUSH2 0x2EEE DUP5 DUP3 DUP6 ADD PUSH2 0x2951 JUMP JUMPDEST SWAP2 POP POP SWAP3 SWAP2 POP POP JUMP JUMPDEST PUSH1 0x0 DUP1 PUSH1 0x40 DUP4 DUP6 SUB SLT ISZERO PUSH2 0x2F0A JUMPI PUSH1 0x0 DUP1 REVERT JUMPDEST PUSH1 0x0 DUP4 ADD CALLDATALOAD PUSH8 0xFFFFFFFFFFFFFFFF DUP2 GT ISZERO PUSH2 0x2F24 JUMPI PUSH1 0x0 DUP1 REVERT JUMPDEST PUSH2 0x2F30 DUP6 DUP3 DUP7 ADD PUSH2 0x2951 JUMP JUMPDEST SWAP3 POP POP PUSH1 0x20 PUSH2 0x2F41 DUP6 DUP3 DUP7 ADD PUSH2 0x2777 JUMP JUMPDEST SWAP2 POP POP SWAP3 POP SWAP3 SWAP1 POP JUMP JUMPDEST PUSH1 0x0 PUSH1 0xA0 DUP3 DUP5 SUB SLT ISZERO PUSH2 0x2F5D JUMPI PUSH1 0x0 DUP1 REVERT JUMPDEST PUSH1 0x0 PUSH2 0x2F6B DUP5 DUP3 DUP6 ADD PUSH2 0x29CD JUMP JUMPDEST SWAP2 POP POP SWAP3 SWAP2 POP POP JUMP JUMPDEST PUSH1 0x0 DUP1 PUSH1 0x0 DUP1 PUSH1 0x0 PUSH2 0x200 DUP7 DUP9 SUB SLT ISZERO PUSH2 0x2F8D JUMPI PUSH1 0x0 DUP1 REVERT JUMPDEST PUSH1 0x0 PUSH2 0x2F9B DUP9 DUP3 DUP10 ADD PUSH2 0x2A55 JUMP JUMPDEST SWAP6 POP POP PUSH1 0xC0 PUSH2 0x2FAC DUP9 DUP3 DUP10 ADD PUSH2 0x2854 JUMP JUMPDEST SWAP5 POP POP PUSH2 0x1C0 DUP7 ADD CALLDATALOAD PUSH8 0xFFFFFFFFFFFFFFFF DUP2 GT ISZERO PUSH2 0x2FCA JUMPI PUSH1 0x0 DUP1 REVERT JUMPDEST PUSH2 0x2FD6 DUP9 DUP3 DUP10 ADD PUSH2 0x2936 JUMP JUMPDEST SWAP4 POP POP PUSH2 0x1E0 DUP7 ADD CALLDATALOAD PUSH8 0xFFFFFFFFFFFFFFFF DUP2 GT ISZERO PUSH2 0x2FF4 JUMPI PUSH1 0x0 DUP1 REVERT JUMPDEST PUSH2 0x3000 DUP9 DUP3 DUP10 ADD PUSH2 0x26A4 JUMP JUMPDEST SWAP3 POP SWAP3 POP POP SWAP3 SWAP6 POP SWAP3 SWAP6 SWAP1 SWAP4 POP JUMP JUMPDEST PUSH1 0x0 PUSH1 0xC0 DUP3 DUP5 SUB SLT ISZERO PUSH2 0x3021 JUMPI PUSH1 0x0 DUP1 REVERT JUMPDEST PUSH1 0x0 PUSH2 0x302F DUP5 DUP3 DUP6 ADD PUSH2 0x2A70 JUMP JUMPDEST SWAP2 POP POP SWAP3 SWAP2 POP POP JUMP JUMPDEST PUSH1 0x0 DUP1 PUSH1 0x0 DUP1 PUSH2 0x200 DUP6 DUP8 SUB SLT ISZERO PUSH2 0x304F JUMPI PUSH1 0x0 DUP1 REVERT JUMPDEST PUSH1 0x0 PUSH2 0x305D DUP8 DUP3 DUP9 ADD PUSH2 0x2A70 JUMP JUMPDEST SWAP5 POP POP PUSH1 0xC0 PUSH2 0x306E DUP8 DUP3 DUP9 ADD PUSH2 0x2870 JUMP JUMPDEST SWAP4 POP POP PUSH2 0x1C0 DUP6 ADD CALLDATALOAD PUSH8 0xFFFFFFFFFFFFFFFF DUP2 GT ISZERO PUSH2 0x308C JUMPI PUSH1 0x0 DUP1 REVERT JUMPDEST PUSH2 0x3098 DUP8 DUP3 DUP9 ADD PUSH2 0x2951 JUMP JUMPDEST SWAP3 POP POP PUSH2 0x1E0 DUP6 ADD CALLDATALOAD PUSH8 0xFFFFFFFFFFFFFFFF DUP2 GT ISZERO PUSH2 0x30B6 JUMPI PUSH1 0x0 DUP1 REVERT JUMPDEST PUSH2 0x30C2 DUP8 DUP3 DUP9 ADD PUSH2 0x26EE JUMP JUMPDEST SWAP2 POP POP SWAP3 SWAP6 SWAP2 SWAP5 POP SWAP3 POP JUMP JUMPDEST PUSH1 0x0 PUSH1 0x20 DUP3 DUP5 SUB SLT ISZERO PUSH2 0x30E0 JUMPI PUSH1 0x0 DUP1 REVERT JUMPDEST PUSH1 0x0 DUP3 ADD CALLDATALOAD PUSH8 0xFFFFFFFFFFFFFFFF DUP2 GT ISZERO PUSH2 0x30FA JUMPI PUSH1 0x0 DUP1 REVERT JUMPDEST PUSH2 0x3106 DUP5 DUP3 DUP6 ADD PUSH2 0x2B0C JUMP JUMPDEST SWAP2 POP POP SWAP3 SWAP2 POP POP JUMP JUMPDEST PUSH1 0x0 DUP1 PUSH1 0x0 PUSH1 0x60 DUP5 DUP7 SUB SLT ISZERO PUSH2 0x3124 JUMPI PUSH1 0x0 DUP1 REVERT JUMPDEST PUSH1 0x0 DUP5 ADD CALLDATALOAD PUSH8 0xFFFFFFFFFFFFFFFF DUP2 GT ISZERO PUSH2 0x313E JUMPI PUSH1 0x0 DUP1 REVERT JUMPDEST PUSH2 0x314A DUP7 DUP3 DUP8 ADD PUSH2 0x2B0C JUMP JUMPDEST SWAP4 POP POP PUSH1 0x20 DUP5 ADD CALLDATALOAD PUSH8 0xFFFFFFFFFFFFFFFF DUP2 GT ISZERO PUSH2 0x3167 JUMPI PUSH1 0x0 DUP1 REVERT JUMPDEST PUSH2 0x3173 DUP7 DUP3 DUP8 ADD PUSH2 0x27A1 JUMP JUMPDEST SWAP3 POP POP PUSH1 0x40 DUP5 ADD CALLDATALOAD PUSH8 0xFFFFFFFFFFFFFFFF DUP2 GT ISZERO PUSH2 0x3190 JUMPI PUSH1 0x0 DUP1 REVERT JUMPDEST PUSH2 0x319C DUP7 DUP3 DUP8 ADD PUSH2 0x27A1 JUMP JUMPDEST SWAP2 POP POP SWAP3 POP SWAP3 POP SWAP3 JUMP JUMPDEST PUSH1 0x0 PUSH1 0x20 DUP3 DUP5 SUB SLT ISZERO PUSH2 0x31B8 JUMPI PUSH1 0x0 DUP1 REVERT JUMPDEST PUSH1 0x0 PUSH2 0x31C6 DUP5 DUP3 DUP6 ADD PUSH2 0x2D04 JUMP JUMPDEST SWAP2 POP POP SWAP3 SWAP2 POP POP JUMP JUMPDEST PUSH1 0x0 DUP1 PUSH1 0x0 DUP1 PUSH1 0x0 PUSH1 0x80 DUP7 DUP9 SUB SLT ISZERO PUSH2 0x31E7 JUMPI PUSH1 0x0 DUP1 REVERT JUMPDEST PUSH1 0x0 PUSH2 0x31F5 DUP9 DUP3 DUP10 ADD PUSH2 0x2D04 JUMP JUMPDEST SWAP6 POP POP PUSH1 0x20 DUP7 ADD CALLDATALOAD PUSH8 0xFFFFFFFFFFFFFFFF DUP2 GT ISZERO PUSH2 0x3212 JUMPI PUSH1 0x0 DUP1 REVERT JUMPDEST PUSH2 0x321E DUP9 DUP3 DUP10 ADD PUSH2 0x2B98 JUMP JUMPDEST SWAP5 POP POP PUSH1 0x40 PUSH2 0x322F DUP9 DUP3 DUP10 ADD PUSH2 0x2D04 JUMP JUMPDEST SWAP4 POP POP PUSH1 0x60 DUP7 ADD CALLDATALOAD PUSH8 0xFFFFFFFFFFFFFFFF DUP2 GT ISZERO PUSH2 0x324C JUMPI PUSH1 0x0 DUP1 REVERT JUMPDEST PUSH2 0x3258 DUP9 DUP3 DUP10 ADD PUSH2 0x265A JUMP JUMPDEST SWAP3 POP SWAP3 POP POP SWAP3 SWAP6 POP SWAP3 SWAP6 SWAP1 SWAP4 POP JUMP JUMPDEST PUSH1 0x0 PUSH1 0x20 DUP3 DUP5 SUB SLT ISZERO PUSH2 0x3279 JUMPI PUSH1 0x0 DUP1 REVERT JUMPDEST PUSH1 0x0 PUSH2 0x3287 DUP5 DUP3 DUP6 ADD PUSH2 0x2D19 JUMP JUMPDEST SWAP2 POP POP SWAP3 SWAP2 POP POP JUMP JUMPDEST PUSH1 0x0 PUSH1 0x20 DUP3 DUP5 SUB SLT ISZERO PUSH2 0x32A2 JUMPI PUSH1 0x0 DUP1 REVERT JUMPDEST PUSH1 0x0 PUSH2 0x32B0 DUP5 DUP3 DUP6 ADD PUSH2 0x2D2E JUMP JUMPDEST SWAP2 POP POP SWAP3 SWAP2 POP POP JUMP JUMPDEST PUSH2 0x32C2 DUP2 PUSH2 0x41C4 JUMP JUMPDEST DUP3 MSTORE POP POP JUMP JUMPDEST PUSH2 0x32D1 DUP2 PUSH2 0x41D6 JUMP JUMPDEST DUP3 MSTORE POP POP JUMP JUMPDEST PUSH2 0x32E0 DUP2 PUSH2 0x41E2 JUMP JUMPDEST DUP3 MSTORE POP POP JUMP JUMPDEST PUSH2 0x32EF DUP2 PUSH2 0x41E2 JUMP JUMPDEST DUP3 MSTORE POP POP JUMP JUMPDEST PUSH2 0x3306 PUSH2 0x3301 DUP3 PUSH2 0x41E2 JUMP JUMPDEST PUSH2 0x43C6 JUMP JUMPDEST DUP3 MSTORE POP POP JUMP JUMPDEST PUSH1 0x0 PUSH2 0x3317 DUP3 PUSH2 0x3FFE JUMP JUMPDEST PUSH2 0x3321 DUP2 DUP6 PUSH2 0x4014 JUMP JUMPDEST SWAP4 POP PUSH2 0x3331 DUP2 DUP6 PUSH1 0x20 DUP7 ADD PUSH2 0x42B6 JUMP JUMPDEST PUSH2 0x333A DUP2 PUSH2 0x44B0 JUMP JUMPDEST DUP5 ADD SWAP2 POP POP SWAP3 SWAP2 POP POP JUMP JUMPDEST PUSH1 0x0 PUSH2 0x3350 DUP3 PUSH2 0x3FFE JUMP JUMPDEST PUSH2 0x335A DUP2 DUP6 PUSH2 0x4025 JUMP JUMPDEST SWAP4 POP PUSH2 0x336A DUP2 DUP6 PUSH1 0x20 DUP7 ADD PUSH2 0x42B6 JUMP JUMPDEST PUSH2 0x3373 DUP2 PUSH2 0x44B0 JUMP JUMPDEST DUP5 ADD SWAP2 POP POP SWAP3 SWAP2 POP POP JUMP JUMPDEST PUSH1 0x0 PUSH2 0x3389 DUP3 PUSH2 0x3FFE JUMP JUMPDEST PUSH2 0x3393 DUP2 DUP6 PUSH2 0x4036 JUMP JUMPDEST SWAP4 POP PUSH2 0x33A3 DUP2 DUP6 PUSH1 0x20 DUP7 ADD PUSH2 0x42B6 JUMP JUMPDEST DUP1 DUP5 ADD SWAP2 POP POP SWAP3 SWAP2 POP POP JUMP JUMPDEST PUSH2 0x33B8 DUP2 PUSH2 0x426F JUMP JUMPDEST DUP3 MSTORE POP POP JUMP JUMPDEST PUSH1 0x0 PUSH2 0x33CA DUP4 DUP6 PUSH2 0x4052 JUMP JUMPDEST SWAP4 POP PUSH2 0x33D7 DUP4 DUP6 DUP5 PUSH2 0x42A7 JUMP JUMPDEST PUSH2 0x33E0 DUP4 PUSH2 0x44B0 JUMP JUMPDEST DUP5 ADD SWAP1 POP SWAP4 SWAP3 POP POP POP JUMP JUMPDEST PUSH1 0x0 PUSH2 0x33F6 DUP3 PUSH2 0x4009 JUMP JUMPDEST PUSH2 0x3400 DUP2 DUP6 PUSH2 0x4041 JUMP JUMPDEST SWAP4 POP PUSH2 0x3410 DUP2 DUP6 PUSH1 0x20 DUP7 ADD PUSH2 0x42B6 JUMP JUMPDEST PUSH2 0x3419 DUP2 PUSH2 0x44B0 JUMP JUMPDEST DUP5 ADD SWAP2 POP POP SWAP3 SWAP2 POP POP JUMP JUMPDEST PUSH1 0x0 PUSH2 0x3431 PUSH1 0x8 DUP4 PUSH2 0x4063 JUMP JUMPDEST SWAP2 POP PUSH2 0x343C DUP3 PUSH2 0x44DB JUMP JUMPDEST PUSH1 0x8 DUP3 ADD SWAP1 POP SWAP2 SWAP1 POP JUMP JUMPDEST PUSH1 0x0 PUSH2 0x3454 PUSH1 0x2C DUP4 PUSH2 0x4052 JUMP JUMPDEST SWAP2 POP PUSH2 0x345F DUP3 PUSH2 0x4504 JUMP JUMPDEST PUSH1 0x40 DUP3 ADD SWAP1 POP SWAP2 SWAP1 POP JUMP JUMPDEST PUSH1 0x0 PUSH2 0x3477 PUSH1 0x2C DUP4 PUSH2 0x4052 JUMP JUMPDEST SWAP2 POP PUSH2 0x3482 DUP3 PUSH2 0x4553 JUMP JUMPDEST PUSH1 0x40 DUP3 ADD SWAP1 POP SWAP2 SWAP1 POP JUMP JUMPDEST PUSH1 0x0 PUSH2 0x349A PUSH1 0x14 DUP4 PUSH2 0x4052 JUMP JUMPDEST SWAP2 POP PUSH2 0x34A5 DUP3 PUSH2 0x45A2 JUMP JUMPDEST PUSH1 0x20 DUP3 ADD SWAP1 POP SWAP2 SWAP1 POP JUMP JUMPDEST PUSH1 0x0 PUSH2 0x34BD PUSH1 0x16 DUP4 PUSH2 0x4052 JUMP JUMPDEST SWAP2 POP PUSH2 0x34C8 DUP3 PUSH2 0x45CB JUMP JUMPDEST PUSH1 0x20 DUP3 ADD SWAP1 POP SWAP2 SWAP1 POP JUMP JUMPDEST PUSH1 0x0 PUSH2 0x34E0 PUSH1 0x1 DUP4 PUSH2 0x4063 JUMP JUMPDEST SWAP2 POP PUSH2 0x34EB DUP3 PUSH2 0x45F4 JUMP JUMPDEST PUSH1 0x1 DUP3 ADD SWAP1 POP SWAP2 SWAP1 POP JUMP JUMPDEST PUSH1 0x0 PUSH2 0x3503 PUSH1 0x8 DUP4 PUSH2 0x4063 JUMP JUMPDEST SWAP2 POP PUSH2 0x350E DUP3 PUSH2 0x461D JUMP JUMPDEST PUSH1 0x8 DUP3 ADD SWAP1 POP SWAP2 SWAP1 POP JUMP JUMPDEST PUSH1 0x0 PUSH2 0x3526 PUSH1 0x1 DUP4 PUSH2 0x4063 JUMP JUMPDEST SWAP2 POP PUSH2 0x3531 DUP3 PUSH2 0x4646 JUMP JUMPDEST PUSH1 0x1 DUP3 ADD SWAP1 POP SWAP2 SWAP1 POP JUMP JUMPDEST PUSH1 0x0 PUSH2 0x3549 PUSH1 0x13 DUP4 PUSH2 0x4052 JUMP JUMPDEST SWAP2 POP PUSH2 0x3554 DUP3 PUSH2 0x466F JUMP JUMPDEST PUSH1 0x20 DUP3 ADD SWAP1 POP SWAP2 SWAP1 POP JUMP JUMPDEST PUSH1 0x0 PUSH2 0x356C PUSH1 0xD DUP4 PUSH2 0x4052 JUMP JUMPDEST SWAP2 POP PUSH2 0x3577 DUP3 PUSH2 0x4698 JUMP JUMPDEST PUSH1 0x20 DUP3 ADD SWAP1 POP SWAP2 SWAP1 POP JUMP JUMPDEST PUSH1 0x0 PUSH2 0x358F PUSH1 0x25 DUP4 PUSH2 0x4052 JUMP JUMPDEST SWAP2 POP PUSH2 0x359A DUP3 PUSH2 0x46C1 JUMP JUMPDEST PUSH1 0x40 DUP3 ADD SWAP1 POP SWAP2 SWAP1 POP JUMP JUMPDEST PUSH1 0x0 PUSH2 0x35B2 PUSH1 0x14 DUP4 PUSH2 0x4052 JUMP JUMPDEST SWAP2 POP PUSH2 0x35BD DUP3 PUSH2 0x4710 JUMP JUMPDEST PUSH1 0x20 DUP3 ADD SWAP1 POP SWAP2 SWAP1 POP JUMP JUMPDEST PUSH2 0x100 DUP3 ADD PUSH1 0x0 DUP3 ADD MLOAD PUSH2 0x35DF PUSH1 0x0 DUP6 ADD DUP3 PUSH2 0x32D7 JUMP JUMPDEST POP PUSH1 0x20 DUP3 ADD MLOAD PUSH2 0x35F2 PUSH1 0x20 DUP6 ADD DUP3 PUSH2 0x383B JUMP JUMPDEST POP PUSH1 0x40 DUP3 ADD MLOAD PUSH2 0x3605 PUSH1 0x40 DUP6 ADD DUP3 PUSH2 0x383B JUMP JUMPDEST POP PUSH1 0x60 DUP3 ADD MLOAD PUSH2 0x3618 PUSH1 0x60 DUP6 ADD DUP3 PUSH2 0x381D JUMP JUMPDEST POP PUSH1 0x80 DUP3 ADD MLOAD PUSH2 0x362B PUSH1 0x80 DUP6 ADD DUP3 PUSH2 0x32D7 JUMP JUMPDEST POP PUSH1 0xA0 DUP3 ADD MLOAD PUSH2 0x363E PUSH1 0xA0 DUP6 ADD DUP3 PUSH2 0x32D7 JUMP JUMPDEST POP PUSH1 0xC0 DUP3 ADD MLOAD PUSH2 0x3651 PUSH1 0xC0 DUP6 ADD DUP3 PUSH2 0x32D7 JUMP JUMPDEST POP PUSH1 0xE0 DUP3 ADD MLOAD PUSH2 0x3664 PUSH1 0xE0 DUP6 ADD DUP3 PUSH2 0x32D7 JUMP JUMPDEST POP POP POP POP JUMP JUMPDEST PUSH1 0x0 PUSH1 0x40 DUP4 ADD PUSH1 0x0 DUP4 ADD MLOAD DUP5 DUP3 SUB PUSH1 0x0 DUP7 ADD MSTORE PUSH2 0x3687 DUP3 DUP3 PUSH2 0x330C JUMP JUMPDEST SWAP2 POP POP PUSH1 0x20 DUP4 ADD MLOAD DUP5 DUP3 SUB PUSH1 0x20 DUP7 ADD MSTORE PUSH2 0x36A1 DUP3 DUP3 PUSH2 0x330C JUMP JUMPDEST SWAP2 POP POP DUP1 SWAP2 POP POP SWAP3 SWAP2 POP POP JUMP JUMPDEST PUSH1 0x0 PUSH1 0x80 DUP4 ADD PUSH1 0x0 DUP4 ADD MLOAD PUSH2 0x36C6 PUSH1 0x0 DUP7 ADD DUP3 PUSH2 0x32D7 JUMP JUMPDEST POP PUSH1 0x20 DUP4 ADD MLOAD PUSH2 0x36D9 PUSH1 0x20 DUP7 ADD DUP3 PUSH2 0x32D7 JUMP JUMPDEST POP PUSH1 0x40 DUP4 ADD MLOAD PUSH2 0x36EC PUSH1 0x40 DUP7 ADD DUP3 PUSH2 0x3870 JUMP JUMPDEST POP PUSH1 0x60 DUP4 ADD MLOAD DUP5 DUP3 SUB PUSH1 0x60 DUP7 ADD MSTORE PUSH2 0x3704 DUP3 DUP3 PUSH2 0x330C JUMP JUMPDEST SWAP2 POP POP DUP1 SWAP2 POP POP SWAP3 SWAP2 POP POP JUMP JUMPDEST PUSH1 0x0 PUSH2 0x160 DUP4 ADD PUSH1 0x0 DUP4 ADD MLOAD DUP5 DUP3 SUB PUSH1 0x0 DUP7 ADD MSTORE PUSH2 0x372F DUP3 DUP3 PUSH2 0x33EB JUMP JUMPDEST SWAP2 POP POP PUSH1 0x20 DUP4 ADD MLOAD PUSH2 0x3744 PUSH1 0x20 DUP7 ADD DUP3 PUSH2 0x383B JUMP JUMPDEST POP PUSH1 0x40 DUP4 ADD MLOAD DUP5 DUP3 SUB PUSH1 0x40 DUP7 ADD MSTORE PUSH2 0x375C DUP3 DUP3 PUSH2 0x330C JUMP JUMPDEST SWAP2 POP POP PUSH1 0x60 DUP4 ADD MLOAD PUSH2 0x3771 PUSH1 0x60 DUP7 ADD DUP3 PUSH2 0x383B JUMP JUMPDEST POP PUSH1 0x80 DUP4 ADD MLOAD PUSH2 0x3784 PUSH1 0x80 DUP7 ADD DUP3 PUSH2 0x383B JUMP JUMPDEST POP PUSH1 0xA0 DUP4 ADD MLOAD PUSH2 0x3797 PUSH1 0xA0 DUP7 ADD DUP3 PUSH2 0x383B JUMP JUMPDEST POP PUSH1 0xC0 DUP4 ADD MLOAD PUSH2 0x37AA PUSH1 0xC0 DUP7 ADD DUP3 PUSH2 0x383B JUMP JUMPDEST POP PUSH1 0xE0 DUP4 ADD MLOAD PUSH2 0x37BD PUSH1 0xE0 DUP7 ADD DUP3 PUSH2 0x383B JUMP JUMPDEST POP PUSH2 0x100 DUP4 ADD MLOAD PUSH2 0x37D2 PUSH2 0x100 DUP7 ADD DUP3 PUSH2 0x383B JUMP JUMPDEST POP PUSH2 0x120 DUP4 ADD MLOAD PUSH2 0x37E7 PUSH2 0x120 DUP7 ADD DUP3 PUSH2 0x33AF JUMP JUMPDEST POP PUSH2 0x140 DUP4 ADD MLOAD DUP5 DUP3 SUB PUSH2 0x140 DUP7 ADD MSTORE PUSH2 0x3801 DUP3 DUP3 PUSH2 0x330C JUMP JUMPDEST SWAP2 POP POP DUP1 SWAP2 POP POP SWAP3 SWAP2 POP POP JUMP JUMPDEST PUSH2 0x3817 DUP2 PUSH2 0x421F JUMP JUMPDEST DUP3 MSTORE POP POP JUMP JUMPDEST PUSH2 0x3826 DUP2 PUSH2 0x4229 JUMP JUMPDEST DUP3 MSTORE POP POP JUMP JUMPDEST PUSH2 0x3835 DUP2 PUSH2 0x4229 JUMP JUMPDEST DUP3 MSTORE POP POP JUMP JUMPDEST PUSH2 0x3844 DUP2 PUSH2 0x4239 JUMP JUMPDEST DUP3 MSTORE POP POP JUMP JUMPDEST PUSH2 0x3853 DUP2 PUSH2 0x4239 JUMP JUMPDEST DUP3 MSTORE POP POP JUMP JUMPDEST PUSH2 0x386A PUSH2 0x3865 DUP3 PUSH2 0x4239 JUMP JUMPDEST PUSH2 0x43D0 JUMP JUMPDEST DUP3 MSTORE POP POP JUMP JUMPDEST PUSH2 0x3879 DUP2 PUSH2 0x424D JUMP JUMPDEST DUP3 MSTORE POP POP JUMP JUMPDEST PUSH2 0x3888 DUP2 PUSH2 0x424D JUMP JUMPDEST DUP3 MSTORE POP POP JUMP JUMPDEST PUSH2 0x389F PUSH2 0x389A DUP3 PUSH2 0x424D JUMP JUMPDEST PUSH2 0x43E2 JUMP JUMPDEST DUP3 MSTORE POP POP JUMP JUMPDEST PUSH1 0x0 PUSH2 0x38B1 DUP3 DUP5 PUSH2 0x32F5 JUMP JUMPDEST PUSH1 0x20 DUP3 ADD SWAP2 POP DUP2 SWAP1 POP SWAP3 SWAP2 POP POP JUMP JUMPDEST PUSH1 0x0 PUSH2 0x38CC DUP3 DUP10 PUSH2 0x32F5 JUMP JUMPDEST PUSH1 0x20 DUP3 ADD SWAP2 POP PUSH2 0x38DC DUP3 DUP9 PUSH2 0x32F5 JUMP JUMPDEST PUSH1 0x20 DUP3 ADD SWAP2 POP PUSH2 0x38EC DUP3 DUP8 PUSH2 0x32F5 JUMP JUMPDEST PUSH1 0x20 DUP3 ADD SWAP2 POP PUSH2 0x38FC DUP3 DUP7 PUSH2 0x32F5 JUMP JUMPDEST PUSH1 0x20 DUP3 ADD SWAP2 POP PUSH2 0x390C DUP3 DUP6 PUSH2 0x32F5 JUMP JUMPDEST PUSH1 0x20 DUP3 ADD SWAP2 POP PUSH2 0x391C DUP3 DUP5 PUSH2 0x32F5 JUMP JUMPDEST PUSH1 0x20 DUP3 ADD SWAP2 POP DUP2 SWAP1 POP SWAP8 SWAP7 POP POP POP POP POP POP POP JUMP JUMPDEST PUSH1 0x0 PUSH2 0x393C DUP3 DUP5 PUSH2 0x337E JUMP JUMPDEST SWAP2 POP DUP2 SWAP1 POP SWAP3 SWAP2 POP POP JUMP JUMPDEST PUSH1 0x0 PUSH2 0x3953 DUP3 DUP7 PUSH2 0x337E JUMP JUMPDEST SWAP2 POP PUSH2 0x395F DUP3 DUP6 PUSH2 0x32F5 JUMP JUMPDEST PUSH1 0x20 DUP3 ADD SWAP2 POP PUSH2 0x396F DUP3 DUP5 PUSH2 0x337E JUMP JUMPDEST SWAP2 POP DUP2 SWAP1 POP SWAP5 SWAP4 POP POP POP POP JUMP JUMPDEST PUSH1 0x0 PUSH2 0x3988 DUP3 DUP7 PUSH2 0x337E JUMP JUMPDEST SWAP2 POP PUSH2 0x3994 DUP3 DUP6 PUSH2 0x337E JUMP JUMPDEST SWAP2 POP PUSH2 0x39A0 DUP3 DUP5 PUSH2 0x337E JUMP JUMPDEST SWAP2 POP DUP2 SWAP1 POP SWAP5 SWAP4 POP POP POP POP JUMP JUMPDEST PUSH1 0x0 PUSH2 0x39B9 DUP3 DUP8 PUSH2 0x337E JUMP JUMPDEST SWAP2 POP PUSH2 0x39C5 DUP3 DUP7 PUSH2 0x337E JUMP JUMPDEST SWAP2 POP PUSH2 0x39D1 DUP3 DUP6 PUSH2 0x337E JUMP JUMPDEST SWAP2 POP PUSH2 0x39DD DUP3 DUP5 PUSH2 0x337E JUMP JUMPDEST SWAP2 POP DUP2 SWAP1 POP SWAP6 SWAP5 POP POP POP POP POP JUMP JUMPDEST PUSH1 0x0 PUSH2 0x39F7 DUP3 DUP6 PUSH2 0x337E JUMP JUMPDEST SWAP2 POP PUSH2 0x3A02 DUP3 PUSH2 0x34D3 JUMP JUMPDEST SWAP2 POP PUSH2 0x3A0E DUP3 DUP5 PUSH2 0x337E JUMP JUMPDEST SWAP2 POP DUP2 SWAP1 POP SWAP4 SWAP3 POP POP POP JUMP JUMPDEST PUSH1 0x0 PUSH2 0x3A26 DUP3 DUP9 PUSH2 0x337E JUMP JUMPDEST SWAP2 POP PUSH2 0x3A32 DUP3 DUP8 PUSH2 0x388E JUMP JUMPDEST PUSH1 0x1 DUP3 ADD SWAP2 POP PUSH2 0x3A42 DUP3 DUP7 PUSH2 0x388E JUMP JUMPDEST PUSH1 0x1 DUP3 ADD SWAP2 POP PUSH2 0x3A52 DUP3 DUP6 PUSH2 0x337E JUMP JUMPDEST SWAP2 POP PUSH2 0x3A5E DUP3 DUP5 PUSH2 0x337E JUMP JUMPDEST SWAP2 POP DUP2 SWAP1 POP SWAP7 SWAP6 POP POP POP POP POP POP JUMP JUMPDEST PUSH1 0x0 PUSH2 0x3A78 DUP3 PUSH2 0x3424 JUMP JUMPDEST SWAP2 POP PUSH2 0x3A84 DUP3 DUP5 PUSH2 0x32F5 JUMP JUMPDEST PUSH1 0x20 DUP3 ADD SWAP2 POP DUP2 SWAP1 POP SWAP3 SWAP2 POP POP JUMP JUMPDEST PUSH1 0x0 PUSH2 0x3A9E DUP3 PUSH2 0x34F6 JUMP JUMPDEST SWAP2 POP PUSH2 0x3AAA DUP3 DUP5 PUSH2 0x32F5 JUMP JUMPDEST PUSH1 0x20 DUP3 ADD SWAP2 POP DUP2 SWAP1 POP SWAP3 SWAP2 POP POP JUMP JUMPDEST PUSH1 0x0 PUSH2 0x3AC4 DUP3 PUSH2 0x3519 JUMP JUMPDEST SWAP2 POP PUSH2 0x3AD0 DUP3 DUP5 PUSH2 0x337E JUMP JUMPDEST SWAP2 POP DUP2 SWAP1 POP SWAP3 SWAP2 POP POP JUMP JUMPDEST PUSH1 0x0 PUSH2 0x3AE7 DUP3 DUP7 PUSH2 0x388E JUMP JUMPDEST PUSH1 0x1 DUP3 ADD SWAP2 POP PUSH2 0x3AF7 DUP3 DUP6 PUSH2 0x32F5 JUMP JUMPDEST PUSH1 0x20 DUP3 ADD SWAP2 POP PUSH2 0x3B07 DUP3 DUP5 PUSH2 0x32F5 JUMP JUMPDEST PUSH1 0x20 DUP3 ADD SWAP2 POP DUP2 SWAP1 POP SWAP5 SWAP4 POP POP POP POP JUMP JUMPDEST PUSH1 0x0 PUSH2 0x3B24 DUP3 DUP6 PUSH2 0x388E JUMP JUMPDEST PUSH1 0x1 DUP3 ADD SWAP2 POP PUSH2 0x3B34 DUP3 DUP5 PUSH2 0x337E JUMP JUMPDEST SWAP2 POP DUP2 SWAP1 POP SWAP4 SWAP3 POP POP POP JUMP JUMPDEST PUSH1 0x0 PUSH2 0x3B4C DUP3 DUP11 PUSH2 0x388E JUMP JUMPDEST PUSH1 0x1 DUP3 ADD SWAP2 POP PUSH2 0x3B5C DUP3 DUP10 PUSH2 0x337E JUMP JUMPDEST SWAP2 POP PUSH2 0x3B68 DUP3 DUP9 PUSH2 0x337E JUMP JUMPDEST SWAP2 POP PUSH2 0x3B74 DUP3 DUP8 PUSH2 0x388E JUMP JUMPDEST PUSH1 0x1 DUP3 ADD SWAP2 POP PUSH2 0x3B84 DUP3 DUP7 PUSH2 0x32F5 JUMP JUMPDEST PUSH1 0x20 DUP3 ADD SWAP2 POP PUSH2 0x3B94 DUP3 DUP6 PUSH2 0x388E JUMP JUMPDEST PUSH1 0x1 DUP3 ADD SWAP2 POP PUSH2 0x3BA4 DUP3 DUP5 PUSH2 0x32F5 JUMP JUMPDEST PUSH1 0x20 DUP3 ADD SWAP2 POP DUP2 SWAP1 POP SWAP9 SWAP8 POP POP POP POP POP POP POP POP JUMP JUMPDEST PUSH1 0x0 PUSH2 0x3BC5 DUP3 DUP6 PUSH2 0x388E JUMP JUMPDEST PUSH1 0x1 DUP3 ADD SWAP2 POP PUSH2 0x3BD5 DUP3 DUP5 PUSH2 0x3859 JUMP JUMPDEST PUSH1 0x8 DUP3 ADD SWAP2 POP DUP2 SWAP1 POP SWAP4 SWAP3 POP POP POP JUMP JUMPDEST PUSH1 0x0 PUSH2 0x3BF1 DUP3 DUP7 PUSH2 0x388E JUMP JUMPDEST PUSH1 0x1 DUP3 ADD SWAP2 POP PUSH2 0x3C01 DUP3 DUP6 PUSH2 0x388E JUMP JUMPDEST PUSH1 0x1 DUP3 ADD SWAP2 POP PUSH2 0x3C11 DUP3 DUP5 PUSH2 0x32F5 JUMP JUMPDEST PUSH1 0x20 DUP3 ADD SWAP2 POP DUP2 SWAP1 POP SWAP5 SWAP4 POP POP POP POP JUMP JUMPDEST PUSH1 0x0 PUSH2 0x3C2E DUP3 DUP11 PUSH2 0x388E JUMP JUMPDEST PUSH1 0x1 DUP3 ADD SWAP2 POP PUSH2 0x3C3E DUP3 DUP10 PUSH2 0x388E JUMP JUMPDEST PUSH1 0x1 DUP3 ADD SWAP2 POP PUSH2 0x3C4E DUP3 DUP9 PUSH2 0x337E JUMP JUMPDEST SWAP2 POP PUSH2 0x3C5A DUP3 DUP8 PUSH2 0x388E JUMP JUMPDEST PUSH1 0x1 DUP3 ADD SWAP2 POP PUSH2 0x3C6A DUP3 DUP7 PUSH2 0x337E JUMP JUMPDEST SWAP2 POP PUSH2 0x3C76 DUP3 DUP6 PUSH2 0x388E JUMP JUMPDEST PUSH1 0x1 DUP3 ADD SWAP2 POP PUSH2 0x3C86 DUP3 DUP5 PUSH2 0x32F5 JUMP JUMPDEST PUSH1 0x20 DUP3 ADD SWAP2 POP DUP2 SWAP1 POP SWAP9 SWAP8 POP POP POP POP POP POP POP POP JUMP JUMPDEST PUSH1 0x0 PUSH1 0x20 DUP3 ADD SWAP1 POP PUSH2 0x3CB0 PUSH1 0x0 DUP4 ADD DUP5 PUSH2 0x32B9 JUMP JUMPDEST SWAP3 SWAP2 POP POP JUMP JUMPDEST PUSH1 0x0 PUSH1 0x20 DUP3 ADD SWAP1 POP PUSH2 0x3CCB PUSH1 0x0 DUP4 ADD DUP5 PUSH2 0x32C8 JUMP JUMPDEST SWAP3 SWAP2 POP POP JUMP JUMPDEST PUSH1 0x0 PUSH1 0x20 DUP3 ADD SWAP1 POP PUSH2 0x3CE6 PUSH1 0x0 DUP4 ADD DUP5 PUSH2 0x32E6 JUMP JUMPDEST SWAP3 SWAP2 POP POP JUMP JUMPDEST PUSH1 0x0 PUSH1 0x60 DUP3 ADD SWAP1 POP PUSH2 0x3D01 PUSH1 0x0 DUP4 ADD DUP7 PUSH2 0x32E6 JUMP JUMPDEST PUSH2 0x3D0E PUSH1 0x20 DUP4 ADD DUP6 PUSH2 0x384A JUMP JUMPDEST PUSH2 0x3D1B PUSH1 0x40 DUP4 ADD DUP5 PUSH2 0x382C JUMP JUMPDEST SWAP5 SWAP4 POP POP POP POP JUMP JUMPDEST PUSH1 0x0 PUSH1 0x80 DUP3 ADD SWAP1 POP PUSH2 0x3D38 PUSH1 0x0 DUP4 ADD DUP8 PUSH2 0x32E6 JUMP JUMPDEST PUSH2 0x3D45 PUSH1 0x20 DUP4 ADD DUP7 PUSH2 0x387F JUMP JUMPDEST PUSH2 0x3D52 PUSH1 0x40 DUP4 ADD DUP6 PUSH2 0x32E6 JUMP JUMPDEST PUSH2 0x3D5F PUSH1 0x60 DUP4 ADD DUP5 PUSH2 0x32E6 JUMP JUMPDEST SWAP6 SWAP5 POP POP POP POP POP JUMP JUMPDEST PUSH1 0x0 PUSH1 0x20 DUP3 ADD SWAP1 POP DUP2 DUP2 SUB PUSH1 0x0 DUP4 ADD MSTORE PUSH2 0x3D82 DUP2 DUP5 PUSH2 0x3345 JUMP JUMPDEST SWAP1 POP SWAP3 SWAP2 POP POP JUMP JUMPDEST PUSH1 0x0 PUSH1 0x20 DUP3 ADD SWAP1 POP DUP2 DUP2 SUB PUSH1 0x0 DUP4 ADD MSTORE PUSH2 0x3DA5 DUP2 DUP5 DUP7 PUSH2 0x33BE JUMP JUMPDEST SWAP1 POP SWAP4 SWAP3 POP POP POP JUMP JUMPDEST PUSH1 0x0 PUSH1 0x20 DUP3 ADD SWAP1 POP DUP2 DUP2 SUB PUSH1 0x0 DUP4 ADD MSTORE PUSH2 0x3DC7 DUP2 PUSH2 0x3447 JUMP JUMPDEST SWAP1 POP SWAP2 SWAP1 POP JUMP JUMPDEST PUSH1 0x0 PUSH1 0x20 DUP3 ADD SWAP1 POP DUP2 DUP2 SUB PUSH1 0x0 DUP4 ADD MSTORE PUSH2 0x3DE7 DUP2 PUSH2 0x346A JUMP JUMPDEST SWAP1 POP SWAP2 SWAP1 POP JUMP JUMPDEST PUSH1 0x0 PUSH1 0x20 DUP3 ADD SWAP1 POP DUP2 DUP2 SUB PUSH1 0x0 DUP4 ADD MSTORE PUSH2 0x3E07 DUP2 PUSH2 0x348D JUMP JUMPDEST SWAP1 POP SWAP2 SWAP1 POP JUMP JUMPDEST PUSH1 0x0 PUSH1 0x20 DUP3 ADD SWAP1 POP DUP2 DUP2 SUB PUSH1 0x0 DUP4 ADD MSTORE PUSH2 0x3E27 DUP2 PUSH2 0x34B0 JUMP JUMPDEST SWAP1 POP SWAP2 SWAP1 POP JUMP JUMPDEST PUSH1 0x0 PUSH1 0x20 DUP3 ADD SWAP1 POP DUP2 DUP2 SUB PUSH1 0x0 DUP4 ADD MSTORE PUSH2 0x3E47 DUP2 PUSH2 0x353C JUMP JUMPDEST SWAP1 POP SWAP2 SWAP1 POP JUMP JUMPDEST PUSH1 0x0 PUSH1 0x20 DUP3 ADD SWAP1 POP DUP2 DUP2 SUB PUSH1 0x0 DUP4 ADD MSTORE PUSH2 0x3E67 DUP2 PUSH2 0x355F JUMP JUMPDEST SWAP1 POP SWAP2 SWAP1 POP JUMP JUMPDEST PUSH1 0x0 PUSH1 0x20 DUP3 ADD SWAP1 POP DUP2 DUP2 SUB PUSH1 0x0 DUP4 ADD MSTORE PUSH2 0x3E87 DUP2 PUSH2 0x3582 JUMP JUMPDEST SWAP1 POP SWAP2 SWAP1 POP JUMP JUMPDEST PUSH1 0x0 PUSH1 0x20 DUP3 ADD SWAP1 POP DUP2 DUP2 SUB PUSH1 0x0 DUP4 ADD MSTORE PUSH2 0x3EA7 DUP2 PUSH2 0x35A5 JUMP JUMPDEST SWAP1 POP SWAP2 SWAP1 POP JUMP JUMPDEST PUSH1 0x0 PUSH2 0x100 DUP3 ADD SWAP1 POP PUSH2 0x3EC4 PUSH1 0x0 DUP4 ADD DUP5 PUSH2 0x35C8 JUMP JUMPDEST SWAP3 SWAP2 POP POP JUMP JUMPDEST PUSH1 0x0 PUSH1 0x20 DUP3 ADD SWAP1 POP DUP2 DUP2 SUB PUSH1 0x0 DUP4 ADD MSTORE PUSH2 0x3EE4 DUP2 DUP5 PUSH2 0x366A JUMP JUMPDEST SWAP1 POP SWAP3 SWAP2 POP POP JUMP JUMPDEST PUSH1 0x0 PUSH1 0x20 DUP3 ADD SWAP1 POP DUP2 DUP2 SUB PUSH1 0x0 DUP4 ADD MSTORE PUSH2 0x3F06 DUP2 DUP5 PUSH2 0x36AE JUMP JUMPDEST SWAP1 POP SWAP3 SWAP2 POP POP JUMP JUMPDEST PUSH1 0x0 PUSH1 0x20 DUP3 ADD SWAP1 POP DUP2 DUP2 SUB PUSH1 0x0 DUP4 ADD MSTORE PUSH2 0x3F28 DUP2 DUP5 PUSH2 0x3711 JUMP JUMPDEST SWAP1 POP SWAP3 SWAP2 POP POP JUMP JUMPDEST PUSH1 0x0 PUSH1 0x20 DUP3 ADD SWAP1 POP PUSH2 0x3F45 PUSH1 0x0 DUP4 ADD DUP5 PUSH2 0x380E JUMP JUMPDEST SWAP3 SWAP2 POP POP JUMP JUMPDEST PUSH1 0x0 PUSH2 0x3F55 PUSH2 0x3F66 JUMP JUMPDEST SWAP1 POP PUSH2 0x3F61 DUP3 DUP3 PUSH2 0x431B JUMP JUMPDEST SWAP2 SWAP1 POP JUMP JUMPDEST PUSH1 0x0 PUSH1 0x40 MLOAD SWAP1 POP SWAP1 JUMP JUMPDEST PUSH1 0x0 PUSH8 0xFFFFFFFFFFFFFFFF DUP3 GT ISZERO PUSH2 0x3F8B JUMPI PUSH2 0x3F8A PUSH2 0x4481 JUMP JUMPDEST JUMPDEST PUSH1 0x20 DUP3 MUL SWAP1 POP PUSH1 0x20 DUP2 ADD SWAP1 POP SWAP2 SWAP1 POP JUMP JUMPDEST PUSH1 0x0 PUSH8 0xFFFFFFFFFFFFFFFF DUP3 GT ISZERO PUSH2 0x3FB7 JUMPI PUSH2 0x3FB6 PUSH2 0x4481 JUMP JUMPDEST JUMPDEST PUSH2 0x3FC0 DUP3 PUSH2 0x44B0 JUMP JUMPDEST SWAP1 POP PUSH1 0x20 DUP2 ADD SWAP1 POP SWAP2 SWAP1 POP JUMP JUMPDEST PUSH1 0x0 PUSH8 0xFFFFFFFFFFFFFFFF DUP3 GT ISZERO PUSH2 0x3FE8 JUMPI PUSH2 0x3FE7 PUSH2 0x4481 JUMP JUMPDEST JUMPDEST PUSH2 0x3FF1 DUP3 PUSH2 0x44B0 JUMP JUMPDEST SWAP1 POP PUSH1 0x20 DUP2 ADD SWAP1 POP SWAP2 SWAP1 POP JUMP JUMPDEST PUSH1 0x0 DUP2 MLOAD SWAP1 POP SWAP2 SWAP1 POP JUMP JUMPDEST PUSH1 0x0 DUP2 MLOAD SWAP1 POP SWAP2 SWAP1 POP JUMP JUMPDEST PUSH1 0x0 DUP3 DUP3 MSTORE PUSH1 0x20 DUP3 ADD SWAP1 POP SWAP3 SWAP2 POP POP JUMP JUMPDEST PUSH1 0x0 DUP3 DUP3 MSTORE PUSH1 0x20 DUP3 ADD SWAP1 POP SWAP3 SWAP2 POP POP JUMP JUMPDEST PUSH1 0x0 DUP2 SWAP1 POP SWAP3 SWAP2 POP POP JUMP JUMPDEST PUSH1 0x0 DUP3 DUP3 MSTORE PUSH1 0x20 DUP3 ADD SWAP1 POP SWAP3 SWAP2 POP POP JUMP JUMPDEST PUSH1 0x0 DUP3 DUP3 MSTORE PUSH1 0x20 DUP3 ADD SWAP1 POP SWAP3 SWAP2 POP POP JUMP JUMPDEST PUSH1 0x0 DUP2 SWAP1 POP SWAP3 SWAP2 POP POP JUMP JUMPDEST PUSH1 0x0 PUSH2 0x4079 DUP3 PUSH2 0x421F JUMP JUMPDEST SWAP2 POP PUSH2 0x4084 DUP4 PUSH2 0x421F JUMP JUMPDEST SWAP3 POP DUP3 PUSH32 0xFFFFFFFFFFFFFFFFFFFFFFFFFFFFFFFFFFFFFFFFFFFFFFFFFFFFFFFFFFFFFFFF SUB DUP3 GT ISZERO PUSH2 0x40B9 JUMPI PUSH2 0x40B8 PUSH2 0x43F4 JUMP JUMPDEST JUMPDEST DUP3 DUP3 ADD SWAP1 POP SWAP3 SWAP2 POP POP JUMP JUMPDEST PUSH1 0x0 PUSH2 0x40CF DUP3 PUSH2 0x4239 JUMP JUMPDEST SWAP2 POP PUSH2 0x40DA DUP4 PUSH2 0x4239 JUMP JUMPDEST SWAP3 POP DUP3 PUSH8 0xFFFFFFFFFFFFFFFF SUB DUP3 GT ISZERO PUSH2 0x40F7 JUMPI PUSH2 0x40F6 PUSH2 0x43F4 JUMP JUMPDEST JUMPDEST DUP3 DUP3 ADD SWAP1 POP SWAP3 SWAP2 POP POP JUMP JUMPDEST PUSH1 0x0 PUSH2 0x410D DUP3 PUSH2 0x421F JUMP JUMPDEST SWAP2 POP PUSH2 0x4118 DUP4 PUSH2 0x421F JUMP JUMPDEST SWAP3 POP DUP2 PUSH32 0xFFFFFFFFFFFFFFFFFFFFFFFFFFFFFFFFFFFFFFFFFFFFFFFFFFFFFFFFFFFFFFFF DIV DUP4 GT DUP3 ISZERO ISZERO AND ISZERO PUSH2 0x4151 JUMPI PUSH2 0x4150 PUSH2 0x43F4 JUMP JUMPDEST JUMPDEST DUP3 DUP3 MUL SWAP1 POP SWAP3 SWAP2 POP POP JUMP JUMPDEST PUSH1 0x0 PUSH2 0x4167 DUP3 PUSH2 0x421F JUMP JUMPDEST SWAP2 POP PUSH2 0x4172 DUP4 PUSH2 0x421F JUMP JUMPDEST SWAP3 POP DUP3 DUP3 LT ISZERO PUSH2 0x4185 JUMPI PUSH2 0x4184 PUSH2 0x43F4 JUMP JUMPDEST JUMPDEST DUP3 DUP3 SUB SWAP1 POP SWAP3 SWAP2 POP POP JUMP JUMPDEST PUSH1 0x0 PUSH2 0x419B DUP3 PUSH2 0x4239 JUMP JUMPDEST SWAP2 POP PUSH2 0x41A6 DUP4 PUSH2 0x4239 JUMP JUMPDEST SWAP3 POP DUP3 DUP3 LT ISZERO PUSH2 0x41B9 JUMPI PUSH2 0x41B8 PUSH2 0x43F4 JUMP JUMPDEST JUMPDEST DUP3 DUP3 SUB SWAP1 POP SWAP3 SWAP2 POP POP JUMP JUMPDEST PUSH1 0x0 PUSH2 0x41CF DUP3 PUSH2 0x41FF JUMP JUMPDEST SWAP1 POP SWAP2 SWAP1 POP JUMP JUMPDEST PUSH1 0x0 DUP2 ISZERO ISZERO SWAP1 POP SWAP2 SWAP1 POP JUMP JUMPDEST PUSH1 0x0 DUP2 SWAP1 POP SWAP2 SWAP1 POP JUMP JUMPDEST PUSH1 0x0 DUP2 SWAP1 POP PUSH2 0x41FA DUP3 PUSH2 0x4739 JUMP JUMPDEST SWAP2 SWAP1 POP JUMP JUMPDEST PUSH1 0x0 PUSH20 0xFFFFFFFFFFFFFFFFFFFFFFFFFFFFFFFFFFFFFFFF DUP3 AND SWAP1 POP SWAP2 SWAP1 POP JUMP JUMPDEST PUSH1 0x0 DUP2 SWAP1 POP SWAP2 SWAP1 POP JUMP JUMPDEST PUSH1 0x0 PUSH4 0xFFFFFFFF DUP3 AND SWAP1 POP SWAP2 SWAP1 POP JUMP JUMPDEST PUSH1 0x0 PUSH8 0xFFFFFFFFFFFFFFFF DUP3 AND SWAP1 POP SWAP2 SWAP1 POP JUMP JUMPDEST PUSH1 0x0 PUSH1 0xFF DUP3 AND SWAP1 POP SWAP2 SWAP1 POP JUMP JUMPDEST PUSH1 0x0 PUSH2 0x4267 CALLDATASIZE DUP5 DUP5 PUSH2 0x2522 JUMP JUMPDEST SWAP1 POP SWAP3 SWAP2 POP POP JUMP JUMPDEST PUSH1 0x0 PUSH2 0x427A DUP3 PUSH2 0x41EC JUMP JUMPDEST SWAP1 POP SWAP2 SWAP1 POP JUMP JUMPDEST PUSH1 0x0 PUSH2 0x428D CALLDATASIZE DUP4 PUSH2 0x2951 JUMP JUMPDEST SWAP1 POP SWAP2 SWAP1 POP JUMP JUMPDEST PUSH1 0x0 PUSH2 0x42A0 CALLDATASIZE DUP4 PUSH2 0x2BB4 JUMP JUMPDEST SWAP1 POP SWAP2 SWAP1 POP JUMP JUMPDEST DUP3 DUP2 DUP4 CALLDATACOPY PUSH1 0x0 DUP4 DUP4 ADD MSTORE POP POP POP JUMP JUMPDEST PUSH1 0x0 JUMPDEST DUP4 DUP2 LT ISZERO PUSH2 0x42D4 JUMPI DUP1 DUP3 ADD MLOAD DUP2 DUP5 ADD MSTORE PUSH1 0x20 DUP2 ADD SWAP1 POP PUSH2 0x42B9 JUMP JUMPDEST DUP4 DUP2 GT ISZERO PUSH2 0x42E3 JUMPI PUSH1 0x0 DUP5 DUP5 ADD MSTORE JUMPDEST POP POP POP POP JUMP JUMPDEST PUSH1 0x0 PUSH1 0x2 DUP3 DIV SWAP1 POP PUSH1 0x1 DUP3 AND DUP1 PUSH2 0x4301 JUMPI PUSH1 0x7F DUP3 AND SWAP2 POP JUMPDEST PUSH1 0x20 DUP3 LT DUP2 EQ ISZERO PUSH2 0x4315 JUMPI PUSH2 0x4314 PUSH2 0x4452 JUMP JUMPDEST JUMPDEST POP SWAP2 SWAP1 POP JUMP JUMPDEST PUSH2 0x4324 DUP3 PUSH2 0x44B0 JUMP JUMPDEST DUP2 ADD DUP2 DUP2 LT PUSH8 0xFFFFFFFFFFFFFFFF DUP3 GT OR ISZERO PUSH2 0x4343 JUMPI PUSH2 0x4342 PUSH2 0x4481 JUMP JUMPDEST JUMPDEST DUP1 PUSH1 0x40 MSTORE POP POP POP JUMP JUMPDEST PUSH1 0x0 PUSH2 0x4357 DUP3 PUSH2 0x421F JUMP JUMPDEST SWAP2 POP PUSH32 0xFFFFFFFFFFFFFFFFFFFFFFFFFFFFFFFFFFFFFFFFFFFFFFFFFFFFFFFFFFFFFFFF DUP3 EQ ISZERO PUSH2 0x438A JUMPI PUSH2 0x4389 PUSH2 0x43F4 JUMP JUMPDEST JUMPDEST PUSH1 0x1 DUP3 ADD SWAP1 POP SWAP2 SWAP1 POP JUMP JUMPDEST PUSH1 0x0 PUSH2 0x43A0 DUP3 PUSH2 0x4239 JUMP JUMPDEST SWAP2 POP PUSH8 0xFFFFFFFFFFFFFFFF DUP3 EQ ISZERO PUSH2 0x43BB JUMPI PUSH2 0x43BA PUSH2 0x43F4 JUMP JUMPDEST JUMPDEST PUSH1 0x1 DUP3 ADD SWAP1 POP SWAP2 SWAP1 POP JUMP JUMPDEST PUSH1 0x0 DUP2 SWAP1 POP SWAP2 SWAP1 POP JUMP JUMPDEST PUSH1 0x0 PUSH2 0x43DB DUP3 PUSH2 0x44C1 JUMP JUMPDEST SWAP1 POP SWAP2 SWAP1 POP JUMP JUMPDEST PUSH1 0x0 PUSH2 0x43ED DUP3 PUSH2 0x44CE JUMP JUMPDEST SWAP1 POP SWAP2 SWAP1 POP JUMP JUMPDEST PUSH32 0x4E487B7100000000000000000000000000000000000000000000000000000000 PUSH1 0x0 MSTORE PUSH1 0x11 PUSH1 0x4 MSTORE PUSH1 0x24 PUSH1 0x0 REVERT JUMPDEST PUSH32 0x4E487B7100000000000000000000000000000000000000000000000000000000 PUSH1 0x0 MSTORE PUSH1 0x21 PUSH1 0x4 MSTORE PUSH1 0x24 PUSH1 0x0 REVERT JUMPDEST PUSH32 0x4E487B7100000000000000000000000000000000000000000000000000000000 PUSH1 0x0 MSTORE PUSH1 0x22 PUSH1 0x4 MSTORE PUSH1 0x24 PUSH1 0x0 REVERT JUMPDEST PUSH32 0x4E487B7100000000000000000000000000000000000000000000000000000000 PUSH1 0x0 MSTORE PUSH1 0x41 PUSH1 0x4 MSTORE PUSH1 0x24 PUSH1 0x0 REVERT JUMPDEST PUSH1 0x0 PUSH1 0x1F NOT PUSH1 0x1F DUP4 ADD AND SWAP1 POP SWAP2 SWAP1 POP JUMP JUMPDEST PUSH1 0x0 DUP2 PUSH1 0xC0 SHL SWAP1 POP SWAP2 SWAP1 POP JUMP JUMPDEST PUSH1 0x0 DUP2 PUSH1 0xF8 SHL SWAP1 POP SWAP2 SWAP1 POP JUMP JUMPDEST PUSH32 0x66F7261636C6520000000000000000000000000000000000000000000000000 PUSH1 0x0 DUP3 ADD MSTORE POP JUMP JUMPDEST PUSH32 0x436F6D6D6F6E456E636F646564566F7465506172743A20496E76616C69642073 PUSH1 0x0 DUP3 ADD MSTORE PUSH32 0x756666697827732073697A650000000000000000000000000000000000000000 PUSH1 0x20 DUP3 ADD MSTORE POP JUMP JUMPDEST PUSH32 0x436F6D6D6F6E456E636F646564566F7465506172743A20496E76616C69642070 PUSH1 0x0 DUP3 ADD MSTORE PUSH32 0x726566697827732073697A650000000000000000000000000000000000000000 PUSH1 0x20 DUP3 ADD MSTORE POP JUMP JUMPDEST PUSH32 0x496E76616C696420626C6F636B20686561646572000000000000000000000000 PUSH1 0x0 DUP3 ADD MSTORE POP JUMP JUMPDEST PUSH32 0x4E6F20726F6F7420617420746869732068656967687400000000000000000000 PUSH1 0x0 DUP3 ADD MSTORE POP JUMP JUMPDEST PUSH32 0x1000000000000000000000000000000000000000000000000000000000000000 PUSH1 0x0 DUP3 ADD MSTORE POP JUMP JUMPDEST PUSH32 0x86F7261636C6520000000000000000000000000000000000000000000000000 PUSH1 0x0 DUP3 ADD MSTORE POP JUMP JUMPDEST PUSH32 0x800000000000000000000000000000000000000000000000000000000000000 PUSH1 0x0 DUP3 ADD MSTORE POP JUMP JUMPDEST PUSH32 0x416C726561647920696E697469616C697A656400000000000000000000000000 PUSH1 0x0 DUP3 ADD MSTORE POP JUMP JUMPDEST PUSH32 0x496E76616C69642070726F6F6600000000000000000000000000000000000000 PUSH1 0x0 DUP3 ADD MSTORE POP JUMP JUMPDEST PUSH32 0x544D5369676E61747572653A20496E76616C69642074696D657374616D702773 PUSH1 0x0 DUP3 ADD MSTORE PUSH32 0x2073697A65000000000000000000000000000000000000000000000000000000 PUSH1 0x20 DUP3 ADD MSTORE POP JUMP JUMPDEST PUSH32 0x496E76616C6964207369676E6572206F72646572000000000000000000000000 PUSH1 0x0 DUP3 ADD MSTORE POP JUMP JUMPDEST PUSH1 0x4 DUP2 LT PUSH2 0x474A JUMPI PUSH2 0x4749 PUSH2 0x4423 JUMP JUMPDEST JUMPDEST POP JUMP JUMPDEST PUSH2 0x4756 DUP2 PUSH2 0x41C4 JUMP JUMPDEST DUP2 EQ PUSH2 0x4761 JUMPI PUSH1 0x0 DUP1 REVERT JUMPDEST POP JUMP JUMPDEST PUSH2 0x476D DUP2 PUSH2 0x41D6 JUMP JUMPDEST DUP2 EQ PUSH2 0x4778 JUMPI PUSH1 0x0 DUP1 REVERT JUMPDEST POP JUMP JUMPDEST PUSH2 0x4784 DUP2 PUSH2 0x41E2 JUMP JUMPDEST DUP2 EQ PUSH2 0x478F JUMPI PUSH1 0x0 DUP1 REVERT JUMPDEST POP JUMP JUMPDEST PUSH1 0x4 DUP2 LT PUSH2 0x479F JUMPI PUSH1 0x0 DUP1 REVERT JUMPDEST POP JUMP JUMPDEST PUSH2 0x47AB DUP2 PUSH2 0x421F JUMP JUMPDEST DUP2 EQ PUSH2 0x47B6 JUMPI PUSH1 0x0 DUP1 REVERT JUMPDEST POP JUMP JUMPDEST PUSH2 0x47C2 DUP2 PUSH2 0x4229 JUMP JUMPDEST DUP2 EQ PUSH2 0x47CD JUMPI PUSH1 0x0 DUP1 REVERT JUMPDEST POP JUMP JUMPDEST PUSH2 0x47D9 DUP2 PUSH2 0x4239 JUMP JUMPDEST DUP2 EQ PUSH2 0x47E4 JUMPI PUSH1 0x0 DUP1 REVERT JUMPDEST POP JUMP JUMPDEST PUSH2 0x47F0 DUP2 PUSH2 0x424D JUMP JUMPDEST DUP2 EQ PUSH2 0x47FB JUMPI PUSH1 0x0 DUP1 REVERT JUMPDEST POP JUMP INVALID LOG2 PUSH5 0x6970667358 0x22 SLT KECCAK256 0xD1 ORIGIN 0xDD PUSH22 0x5952F01DA7770FB62006379A2A0FC91F279005C09A9A 0x26 SWAP13 PUSH31 0xEC839264736F6C634300080300330000000000000000000000000000000000 "},"methodIdentifiers":{"blockDetails(uint256)":"f953205a","checkPartsAndEncodedCommonParts((bytes,bytes),bytes32)":"5cd2458c","checkTimeAndRecoverSigner((bytes32,bytes32,uint8,bytes),bytes,bytes)":"071ee1e1","encodedChainId()":"64c47193","getAppHash((bytes32,bytes32,bytes32,bytes32,bytes32,bytes32))":"e71296e1","getAppHash2((bytes32,bytes32,bytes32,bytes32,bytes32,bytes32))":"0ac804c5","getAppHash3((bytes32,bytes32,bytes32,bytes32,bytes32,bytes32))":"760729c3","getBlockHeader((bytes32,uint64,uint64,uint32,bytes32,bytes32,bytes32,bytes32),bytes32)":"847c1b23","init(address[],uint256[],string)":"93a4a134","latestBlockHeight()":"f3f39ee5","readBlockHeaderMerkleParts((bytes32,uint64,uint64,uint32,bytes32,bytes32,bytes32,bytes32))":"1b60f867","readCommonEncodedVotePartData((bytes,bytes))":"0a4723e6","readMultistoreData((bytes32,bytes32,bytes32,bytes32,bytes32,bytes32))":"679b7b9a","readTMSignatureData((bytes32,bytes32,uint8,bytes))":"2ff08eb5","relayBlock((bytes32,bytes32,bytes32,bytes32,bytes32,bytes32),(bytes32,uint64,uint64,uint32,bytes32,bytes32,bytes32,bytes32),(bytes,bytes),(bytes32,bytes32,uint8,bytes)[])":"af4b9107","totalValidatorPower()":"f8156a6e","unbondingPeriod()":"6cf6d675","validatorPowers(address)":"f61aa09d","verifyBlockHeader((bytes32,bytes32,bytes32,bytes32,bytes32,bytes32),(bytes32,uint64,uint64,uint32,bytes32,bytes32,bytes32,bytes32),(bytes,bytes),(bytes32,bytes32,uint8,bytes)[])":"cc2532ba","verifyOracleData(uint256,(string,uint64,bytes,uint64,uint64,uint64,uint64,uint64,uint64,uint8,bytes),uint256,(bool,uint8,uint256,uint256,bytes32)[])":"c573d977"}}}}}