{"polygongovernance/contracts/Governance.sol":{"Governance":{"abi":[{"inputs":[{"internalType":"address payable","name":"_tellor","type":"address"},{"internalType":"address","name":"_teamMultisig","type":"address"}],"stateMutability":"nonpayable","type":"constructor"},{"anonymous":false,"inputs":[{"indexed":false,"internalType":"uint256","name":"_disputeId","type":"uint256"},{"indexed":false,"internalType":"bytes32","name":"_queryId","type":"bytes32"},{"indexed":false,"internalType":"uint256","name":"_timestamp","type":"uint256"},{"indexed":false,"internalType":"address","name":"_reporter","type":"address"}],"name":"NewDispute","type":"event"},{"anonymous":false,"inputs":[{"indexed":false,"internalType":"uint256","name":"_disputeId","type":"uint256"},{"indexed":false,"internalType":"enum Governance.VoteResult","name":"_result","type":"uint8"}],"name":"VoteExecuted","type":"event"},{"anonymous":false,"inputs":[{"indexed":false,"internalType":"uint256","name":"_disputeId","type":"uint256"},{"indexed":false,"internalType":"enum Governance.VoteResult","name":"_result","type":"uint8"},{"indexed":false,"internalType":"address","name":"_initiator","type":"address"},{"indexed":false,"internalType":"address","name":"_reporter","type":"address"}],"name":"VoteTallied","type":"event"},{"anonymous":false,"inputs":[{"indexed":false,"internalType":"uint256","name":"_disputeId","type":"uint256"},{"indexed":false,"internalType":"bool","name":"_supports","type":"bool"},{"indexed":false,"internalType":"address","name":"_voter","type":"address"},{"indexed":false,"internalType":"bool","name":"_invalidQuery","type":"bool"}],"name":"Voted","type":"event"},{"inputs":[],"name":"autopayAddrsQueryId","outputs":[{"internalType":"bytes32","name":"","type":"bytes32"}],"stateMutability":"view","type":"function"},{"inputs":[{"internalType":"bytes32","name":"_queryId","type":"bytes32"},{"internalType":"uint256","name":"_timestamp","type":"uint256"}],"name":"beginDispute","outputs":[],"stateMutability":"nonpayable","type":"function"},{"inputs":[{"internalType":"uint256","name":"_disputeId","type":"uint256"},{"internalType":"address","name":"_voter","type":"address"}],"name":"didVote","outputs":[{"internalType":"bool","name":"","type":"bool"}],"stateMutability":"view","type":"function"},{"inputs":[{"internalType":"uint256","name":"_disputeId","type":"uint256"}],"name":"executeVote","outputs":[],"stateMutability":"nonpayable","type":"function"},{"inputs":[{"internalType":"bytes32","name":"_queryId","type":"bytes32"},{"internalType":"uint256","name":"_timestamp","type":"uint256"}],"name":"getDataAfter","outputs":[{"internalType":"bytes","name":"_value","type":"bytes"},{"internalType":"uint256","name":"_timestampRetrieved","type":"uint256"}],"stateMutability":"view","type":"function"},{"inputs":[{"internalType":"bytes32","name":"_queryId","type":"bytes32"},{"internalType":"uint256","name":"_timestamp","type":"uint256"}],"name":"getDataBefore","outputs":[{"internalType":"bytes","name":"_value","type":"bytes"},{"internalType":"uint256","name":"_timestampRetrieved","type":"uint256"}],"stateMutability":"view","type":"function"},{"inputs":[],"name":"getDisputeFee","outputs":[{"internalType":"uint256","name":"","type":"uint256"}],"stateMutability":"view","type":"function"},{"inputs":[{"internalType":"uint256","name":"_disputeId","type":"uint256"}],"name":"getDisputeInfo","outputs":[{"internalType":"bytes32","name":"","type":"bytes32"},{"internalType":"uint256","name":"","type":"uint256"},{"internalType":"bytes","name":"","type":"bytes"},{"internalType":"address","name":"","type":"address"}],"stateMutability":"view","type":"function"},{"inputs":[{"internalType":"address","name":"_reporter","type":"address"}],"name":"getDisputesByReporter","outputs":[{"internalType":"uint256[]","name":"","type":"uint256[]"}],"stateMutability":"view","type":"function"},{"inputs":[{"internalType":"bytes32","name":"_queryId","type":"bytes32"},{"internalType":"uint256","name":"_timestamp","type":"uint256"}],"name":"getIndexForDataAfter","outputs":[{"internalType":"bool","name":"_found","type":"bool"},{"internalType":"uint256","name":"_index","type":"uint256"}],"stateMutability":"view","type":"function"},{"inputs":[{"internalType":"bytes32","name":"_queryId","type":"bytes32"},{"internalType":"uint256","name":"_timestamp","type":"uint256"}],"name":"getIndexForDataBefore","outputs":[{"internalType":"bool","name":"_found","type":"bool"},{"internalType":"uint256","name":"_index","type":"uint256"}],"stateMutability":"view","type":"function"},{"inputs":[{"internalType":"bytes32","name":"_queryId","type":"bytes32"},{"internalType":"uint256","name":"_timestamp","type":"uint256"},{"internalType":"uint256","name":"_maxAge","type":"uint256"},{"internalType":"uint256","name":"_maxCount","type":"uint256"}],"name":"getMultipleValuesBefore","outputs":[{"internalType":"bytes[]","name":"_values","type":"bytes[]"},{"internalType":"uint256[]","name":"_timestamps","type":"uint256[]"}],"stateMutability":"view","type":"function"},{"inputs":[{"internalType":"bytes32","name":"_queryId","type":"bytes32"}],"name":"getNewValueCountbyQueryId","outputs":[{"internalType":"uint256","name":"","type":"uint256"}],"stateMutability":"view","type":"function"},{"inputs":[{"internalType":"bytes32","name":"_queryId","type":"bytes32"}],"name":"getOpenDisputesOnId","outputs":[{"internalType":"uint256","name":"","type":"uint256"}],"stateMutability":"view","type":"function"},{"inputs":[{"internalType":"bytes32","name":"_queryId","type":"bytes32"},{"internalType":"uint256","name":"_timestamp","type":"uint256"}],"name":"getReporterByTimestamp","outputs":[{"internalType":"address","name":"","type":"address"}],"stateMutability":"view","type":"function"},{"inputs":[{"internalType":"bytes32","name":"_queryId","type":"bytes32"},{"internalType":"uint256","name":"_index","type":"uint256"}],"name":"getTimestampbyQueryIdandIndex","outputs":[{"internalType":"uint256","name":"","type":"uint256"}],"stateMutability":"view","type":"function"},{"inputs":[],"name":"getVoteCount","outputs":[{"internalType":"uint256","name":"","type":"uint256"}],"stateMutability":"view","type":"function"},{"inputs":[{"internalType":"uint256","name":"_disputeId","type":"uint256"}],"name":"getVoteInfo","outputs":[{"internalType":"bytes32","name":"","type":"bytes32"},{"internalType":"uint256[17]","name":"","type":"uint256[17]"},{"internalType":"bool","name":"","type":"bool"},{"internalType":"enum Governance.VoteResult","name":"","type":"uint8"},{"internalType":"address","name":"","type":"address"}],"stateMutability":"view","type":"function"},{"inputs":[{"internalType":"bytes32","name":"_hash","type":"bytes32"}],"name":"getVoteRounds","outputs":[{"internalType":"uint256[]","name":"","type":"uint256[]"}],"stateMutability":"view","type":"function"},{"inputs":[{"internalType":"address","name":"_voter","type":"address"}],"name":"getVoteTallyByAddress","outputs":[{"internalType":"uint256","name":"","type":"uint256"}],"stateMutability":"view","type":"function"},{"inputs":[],"name":"idMappingContract","outputs":[{"internalType":"contract IMappingContract","name":"","type":"address"}],"stateMutability":"view","type":"function"},{"inputs":[{"internalType":"bytes32","name":"_queryId","type":"bytes32"},{"internalType":"uint256","name":"_timestamp","type":"uint256"}],"name":"isInDispute","outputs":[{"internalType":"bool","name":"","type":"bool"}],"stateMutability":"view","type":"function"},{"inputs":[],"name":"oracle","outputs":[{"internalType":"contract IOracle","name":"","type":"address"}],"stateMutability":"view","type":"function"},{"inputs":[],"name":"oracleAddress","outputs":[{"internalType":"address","name":"","type":"address"}],"stateMutability":"view","type":"function"},{"inputs":[{"internalType":"bytes32","name":"_queryId","type":"bytes32"},{"internalType":"uint256","name":"_timestamp","type":"uint256"}],"name":"retrieveData","outputs":[{"internalType":"bytes","name":"","type":"bytes"}],"stateMutability":"view","type":"function"},{"inputs":[{"internalType":"address","name":"_addy","type":"address"}],"name":"setIdMappingContract","outputs":[],"stateMutability":"nonpayable","type":"function"},{"inputs":[{"internalType":"uint256","name":"_disputeId","type":"uint256"}],"name":"tallyVotes","outputs":[],"stateMutability":"nonpayable","type":"function"},{"inputs":[],"name":"teamMultisig","outputs":[{"internalType":"address","name":"","type":"address"}],"stateMutability":"view","type":"function"},{"inputs":[],"name":"tellor","outputs":[{"internalType":"contract ITellor","name":"","type":"address"}],"stateMutability":"view","type":"function"},{"inputs":[],"name":"token","outputs":[{"internalType":"contract IERC20","name":"","type":"address"}],"stateMutability":"view","type":"function"},{"inputs":[{"internalType":"bytes32","name":"_id","type":"bytes32"}],"name":"valueFor","outputs":[{"internalType":"int256","name":"_value","type":"int256"},{"internalType":"uint256","name":"_timestamp","type":"uint256"},{"internalType":"uint256","name":"_statusCode","type":"uint256"}],"stateMutability":"view","type":"function"},{"inputs":[{"internalType":"uint256","name":"_disputeId","type":"uint256"},{"internalType":"bool","name":"_supports","type":"bool"},{"internalType":"bool","name":"_invalidQuery","type":"bool"}],"name":"vote","outputs":[],"stateMutability":"nonpayable","type":"function"},{"inputs":[],"name":"voteCount","outputs":[{"internalType":"uint256","name":"","type":"uint256"}],"stateMutability":"view","type":"function"},{"inputs":[{"internalType":"uint256[]","name":"_disputeIds","type":"uint256[]"},{"internalType":"bool[]","name":"_supports","type":"bool[]"},{"internalType":"bool[]","name":"_invalidQuery","type":"bool[]"}],"name":"voteOnMultipleDisputes","outputs":[],"stateMutability":"nonpayable","type":"function"}],"evm":{"bytecode":{"linkReferences":{},"object":"60a060405260006080908152620000189060c06200020f565b60408051601f1981840301815290829052620000379160200162000224565b604051602081830303815290604052805190602001206007553480156200005d57600080fd5b5060405162003eaf38038062003eaf833981016040819052620000809162000183565b600080546001600160a01b0384166001600160a01b0319918216811790925560028054909116821790556040805163021fd35d60e31b815290516310fe9ae891600480820192602092909190829003018186803b158015620000e157600080fd5b505afa158015620000f6573d6000803e3d6000fd5b505050506040513d601f19601f820116820180604052508101906200011c91906200015d565b600380546001600160a01b03199081166001600160a01b03938416179091556004805482169483169490941790935560058054909316911617905562000279565b6000602082840312156200016f578081fd5b81516200017c8162000260565b9392505050565b6000806040838503121562000196578081fd5b8251620001a38162000260565b6020840151909250620001b68162000260565b809150509250929050565b60008151808452815b81811015620001e857602081850181015186830182015201620001ca565b81811115620001fa5782602083870101525b50601f01601f19169290920160200192915050565b6000602082526200017c6020830184620001c1565b600060408252601060408301526f4175746f70617941646472657373657360801b6060830152608060208301526200017c6080830184620001c1565b6001600160a01b03811681146200027657600080fd5b50565b613c2680620002896000396000f3fe608060405234801561001057600080fd5b50600436106102055760003560e01c8063a7c438bc1161011a578063dbc0c085116100ad578063f66f49c31161007c578063f66f49c3146104f1578063f78eea8314610504578063f98a4eca14610532578063fc0c546a14610545578063fcd4a5461461055857610205565b8063dbc0c085146104b0578063df133bca146104c3578063e07c5486146104d6578063e7b3387c146104e957610205565b8063c5958af9116100e9578063c5958af91461046b578063c63840711461048b578063ce5e11bf14610494578063d8add0f6146104a757610205565b8063a7c438bc146103ea578063a89ae4ba14610427578063bbf3e10b1461043a578063bdc7d9d81461044257610205565b806344e87f911161019d57806364ee3c6d1161016c57806364ee3c6d1461036c57806377b03e0d1461038d5780637dc0d1d0146103a05780638d824273146103b3578063a792765f146103d757610205565b806344e87f91146103005780634d318b0e146103235780634e9fe708146103365780636169c3081461034957610205565b80631f379acc116101d95780631f379acc14610290578063248638e5146102a357806329449085146102c35780632af8aae0146102ed57610205565b8062b121901461020a5780630e1596ef1461021f578063193b505b146102525780631959ad5b14610265575b600080fd5b61021d6102183660046133f7565b610579565b005b61023f61022d366004613575565b60009081526009602052604090205490565b6040519081526020015b60405180910390f35b61021d610260366004613323565b61061d565b600054610278906001600160a01b031681565b6040516001600160a01b039091168152602001610249565b61021d61029e3660046135a5565b610655565b6102b66102b1366004613575565b610f22565b604051610249919061380f565b6102d66102d13660046135a5565b610f84565b604080519215158352602083019190915201610249565b600154610278906001600160a01b031681565b61031361030e3660046135a5565b611013565b6040519015158152602001610249565b61021d610331366004613575565b61109e565b6102b6610344366004613323565b6115c6565b61035c610357366004613575565b611630565b6040516102499493929190613885565b61037f61037a3660046135a5565b611704565b6040516102499291906138d1565b61023f61039b366004613575565b61175d565b600254610278906001600160a01b031681565b6103c66103c1366004613575565b6117e0565b604051610249959493929190613822565b61037f6103e53660046135a5565b6118e5565b6103136103f836600461362a565b6000828152600a602090815260408083206001600160a01b038516845260130190915290205460ff1692915050565b600454610278906001600160a01b031681565b61023f61197b565b61023f610450366004613323565b6001600160a01b03166000908152600c602052604090205490565b61047e6104793660046135a5565b611a14565b60405161024991906138be565b61023f60065481565b61023f6104a23660046135a5565b611a9c565b61023f60075481565b600554610278906001600160a01b031681565b61021d6104d1366004613659565b611b20565b6102786104e43660046135a5565b6120fd565b60065461023f565b6102d66104ff3660046135a5565b612181565b610517610512366004613575565b61233d565b60408051938452602084019290925290820152606001610249565b61021d610540366004613575565b61240d565b600354610278906001600160a01b031681565b61056b6105663660046135c6565b612bec565b60405161024992919061379a565b60005b8351811015610617576106058482815181106105a857634e487b7160e01b600052603260045260246000fd5b60200260200101518483815181106105d057634e487b7160e01b600052603260045260246000fd5b60200260200101518484815181106105f857634e487b7160e01b600052603260045260246000fd5b6020026020010151611b20565b8061060f81613b83565b91505061057c565b50505050565b6001546001600160a01b03161561063357600080fd5b600180546001600160a01b0319166001600160a01b0392909216919091179055565b600254604051630935408d60e41b815260048101849052602481018390526001600160a01b039091169063935408d09060440160206040518083038186803b1580156106a057600080fd5b505afa1580156106b4573d6000803e3d6000fd5b505050506040513d601f19601f820116820180604052508101906106d8919061358d565b6107345760405162461bcd60e51b815260206004820152602260248201527f6e6f2076616c75652065786973747320617420676976656e2074696d6573746160448201526106d760f41b60648201526084015b60405180910390fd5b6040805160208082018590528183018490528251808303840181526060909201909252805191012060065460009061076d906001613992565b6000838152600b60209081526040808320805460018082018355828652848620909101869055858552600a8452828520600890945293829020898155938401889055600254915163703e2a4360e11b8152600481018a905260248101899052949550939192916001600160a01b039091169063e07c54869060440160206040518083038186803b15801561080057600080fd5b505afa158015610814573d6000803e3d6000fd5b505050506040513d601f19601f82011682018060405250810190610838919061333f565b600382810180546001600160a01b0319166001600160a01b0393841617815587855560128501805475ffffffffffffffffffffffffffffffffffffffff000019163362010000021790554391850191909155426002850155845460018581019190915590549091166000908152600d60209081526040822080549384018155825281209091018590556108c961197b565b845490915060011415610b335761a8c06108e38842613af4565b1061094b5760405162461bcd60e51b815260206004820152603260248201527f44697370757465206d75737420626520737461727465642077697468696e207260448201527165706f7274696e67206c6f636b2074696d6560701b606482015260840161072b565b600088815260096020526040812080549161096583613b83565b909155505060008881526009602052604090205461098590600190613af4565b610990906002613a07565b61099a9082613ad5565b600254600384015460405163137f0a8d60e21b81526001600160a01b0391821660048201523060248201529293501690634dfc2a3490604401602060405180830381600087803b1580156109ed57600080fd5b505af1158015610a01573d6000803e3d6000fd5b505050506040513d601f19601f82011682018060405250810190610a25919061358d565b60048381019190915560025460405163c5958af960e01b81529182018a9052602482018990526001600160a01b03169063c5958af99060440160006040518083038186803b158015610a7657600080fd5b505afa158015610a8a573d6000803e3d6000fd5b505050506040513d6000823e601f3d908101601f19168201604052610ab291908101906135f7565b8051610ac891600285019160209091019061310e565b506002546040516316d7b73f60e21b8152600481018a9052602481018990526001600160a01b0390911690635b5edcfc90604401600060405180830381600087803b158015610b1657600080fd5b505af1158015610b2a573d6000803e3d6000fd5b50505050610cc9565b83546000908590610b4690600290613af4565b81548110610b6457634e487b7160e01b600052603260045260246000fd5b9060005260206000200154905062015180600a60008381526020019081526020016000206005015442610b979190613af4565b10610bfb5760405162461bcd60e51b815260206004820152602e60248201527f4e6577206469737075746520726f756e64206d7573742062652073746172746560448201526d642077697468696e20612064617960901b606482015260840161072b565b8454610c0990600190613af4565b610c14906002613a07565b610c1e9083613ad5565b91506008600086600081548110610c4557634e487b7160e01b600052603260045260246000fd5b906000526020600020015481526020019081526020016000206004015483600401819055506008600086600081548110610c8f57634e487b7160e01b600052603260045260246000fd5b9060005260206000200154815260200190815260200160002060020183600201908054610cbb90613b4e565b610cc6929190613192565b50505b600260009054906101000a90046001600160a01b03166001600160a01b031663722580b66040518163ffffffff1660e01b815260040160206040518083038186803b158015610d1757600080fd5b505afa158015610d2b573d6000803e3d6000fd5b505050506040513d601f19601f82011682018060405250810190610d4f919061358d565b811115610ddf57600260009054906101000a90046001600160a01b03166001600160a01b031663722580b66040518163ffffffff1660e01b815260040160206040518083038186803b158015610da457600080fd5b505afa158015610db8573d6000803e3d6000fd5b505050506040513d601f19601f82011682018060405250810190610ddc919061358d565b90505b6004830181905560068054906000610df683613b83565b90915550506003546040516323b872dd60e01b8152336004820152306024820152604481018390526001600160a01b03909116906323b872dd90606401602060405180830381600087803b158015610e4d57600080fd5b505af1158015610e61573d6000803e3d6000fd5b505050506040513d601f19601f82011682018060405250810190610e8591906134d4565b610ec45760405162461bcd60e51b815260206004820152601060248201526f119959481b5d5cdd081899481c185a5960821b604482015260640161072b565b600382015460408051878152602081018b90528082018a90526001600160a01b039092166060830152517f12b7317353cd7caa8eae8057464e3de356c1429d814fb3421797eccb190430449181900360800190a15050505050505050565b6000818152600b6020908152604091829020805483518184028101840190945280845260609392830182828015610f7857602002820191906000526020600020905b815481526020019060010190808311610f64575b50505050509050919050565b60008054604051632944908560e01b8152600481018590526024810184905282916001600160a01b031690632944908590604401604080518083038186803b158015610fcf57600080fd5b505afa158015610fe3573d6000803e3d6000fd5b505050506040513d601f19601f820116820180604052508101906110079190613548565b915091505b9250929050565b600080546040516344e87f9160e01b815260048101859052602481018490526001600160a01b03909116906344e87f919060440160206040518083038186803b15801561105f57600080fd5b505afa158015611073573d6000803e3d6000fd5b505050506040513d601f19601f8201168201806040525081019061109791906134d4565b9392505050565b6000818152600a602052604090206005810154156110fe5760405162461bcd60e51b815260206004820152601d60248201527f566f74652068617320616c7265616479206265656e2074616c6c696564000000604482015260640161072b565b60065482111580156111105750600082115b6111525760405162461bcd60e51b8152602060048201526013602482015272159bdd1948191bd95cc81b9bdd08195e1a5cdd606a1b604482015260640161072b565b60018101546111649062015180613ad5565b60028201546111739042613af4565b10158061119257506207e90081600201544261118f9190613af4565b10155b6111de5760405162461bcd60e51b815260206004820152601f60248201527f54696d6520666f7220766f74696e6720686173206e6f7420656c617073656400604482015260640161072b565b600881015460078201546006830154600092916111fa91613992565b6112049190613992565b600e830154600d840154600c8501549293506000926112239190613992565b61122d9190613992565b60118401546010850154600f86015492935060009261124c9190613992565b6112569190613992565b600b850154600a86015460098701549293506000926112759190613992565b61127f9190613992565b905083611294578361129081613b83565b9450505b826112a757826112a381613b83565b9350505b816112ba57816112b681613b83565b9250505b806112cd57806112c981613b83565b9150505b600985015460009082906112e990670de0b6b3a7640000613ad5565b6112f391906139aa565b600f870154849061130c90670de0b6b3a7640000613ad5565b61131691906139aa565b600c880154869061132f90670de0b6b3a7640000613ad5565b61133991906139aa565b6006890154889061135290670de0b6b3a7640000613ad5565b61135c91906139aa565b6113669190613992565b6113709190613992565b61137a9190613992565b90506000828760090160010154670de0b6b3a764000061139a9190613ad5565b6113a491906139aa565b601088015485906113bd90670de0b6b3a7640000613ad5565b6113c791906139aa565b600d89015487906113e090670de0b6b3a7640000613ad5565b6113ea91906139aa565b60078a0154899061140390670de0b6b3a7640000613ad5565b61140d91906139aa565b6114179190613992565b6114219190613992565b61142b9190613992565b90506000838860090160020154670de0b6b3a764000061144b9190613ad5565b61145591906139aa565b6011890154869061146e90670de0b6b3a7640000613ad5565b61147891906139aa565b600e8a0154889061149190670de0b6b3a7640000613ad5565b61149b91906139aa565b60088b01548a906114b490670de0b6b3a7640000613ad5565b6114be91906139aa565b6114c89190613992565b6114d29190613992565b6114dc9190613992565b90506114e88183613992565b83111561150d576012880180546001919061ff001916610100835b0217905550611548565b6115178184613992565b821115611536576012880180546000919061ff00191661010083611503565b60128801805461ff0019166102001790555b426005890155601288015460008a815260086020526040908190206003015490517fa2d4e500801849d40ad00f0f12ba92a5263f83ec68946e647be95cfbe581c7b6926115b3928d9260ff610100840416926001600160a01b03620100009091048116921690613907565b60405180910390a1505050505050505050565b6001600160a01b0381166000908152600d6020908152604091829020805483518184028101840190945280845260609392830182828015610f785760200282019190600052602060002090815481526020019060010190808311610f645750505050509050919050565b6000818152600860205260408120805460018201546003830154600284018054869560609587959194909391926001600160a01b0390911690829061167490613b4e565b80601f01602080910402602001604051908101604052809291908181526020018280546116a090613b4e565b80156116ed5780601f106116c2576101008083540402835291602001916116ed565b820191906000526020600020905b8154815290600101906020018083116116d057829003601f168201915b505050505091509450945094509450509193509193565b606060008060006117158686612181565b915091508161173c576000604051806020016040528060008152509093509350505061100c565b6117468682611a9c565b92506117528684611a14565b935050509250929050565b600080546040516377b03e0d60e01b8152600481018490526001600160a01b03909116906377b03e0d9060240160206040518083038186803b1580156117a257600080fd5b505afa1580156117b6573d6000803e3d6000fd5b505050506040513d601f19601f820116820180604052508101906117da919061358d565b92915050565b60006117ea61320d565b50506000908152600a60208181526040928390208054845161022081018652600183015481526002830154938101939093526003820154948301949094526004810154606083015260058101546080830152600681015460a0830152600781015460c0830152600881015460e083015260098101546101008084019190915292810154610120830152600b810154610140830152600c810154610160830152600d810154610180830152600e8101546101a0830152600f8101546101c083015260108101546101e08301526011810154610200830152601201549293909260ff8082169382041691620100009091046001600160a01b031690565b6000805460405163a792765f60e01b81526004810185905260248101849052606092916001600160a01b03169063a792765f9060440160006040518083038186803b15801561193357600080fd5b505afa158015611947573d6000803e3d6000fd5b505050506040513d6000823e601f3d908101601f1916820160405261196f91908101906134f0565b90969095509350505050565b6000600a600260009054906101000a90046001600160a01b03166001600160a01b031663722580b66040518163ffffffff1660e01b815260040160206040518083038186803b1580156119cd57600080fd5b505afa1580156119e1573d6000803e3d6000fd5b505050506040513d601f19601f82011682018060405250810190611a05919061358d565b611a0f91906139aa565b905090565b60005460405163c5958af960e01b815260048101849052602481018390526060916001600160a01b03169063c5958af99060440160006040518083038186803b158015611a6057600080fd5b505afa158015611a74573d6000803e3d6000fd5b505050506040513d6000823e601f3d908101601f1916820160405261109791908101906135f7565b6000805460405163ce5e11bf60e01b815260048101859052602481018490526001600160a01b039091169063ce5e11bf9060440160206040518083038186803b158015611ae857600080fd5b505afa158015611afc573d6000803e3d6000fd5b505050506040513d601f19601f82011682018060405250810190611097919061358d565b6006548311158015611b325750600083115b611b745760405162461bcd60e51b8152602060048201526013602482015272159bdd1948191bd95cc81b9bdd08195e1a5cdd606a1b604482015260640161072b565b6000838152600a60205260409020600581015415611bd45760405162461bcd60e51b815260206004820152601d60248201527f566f74652068617320616c7265616479206265656e2074616c6c696564000000604482015260640161072b565b33600090815260138201602052604090205460ff1615611c365760405162461bcd60e51b815260206004820152601860248201527f53656e6465722068617320616c726561647920766f7465640000000000000000604482015260640161072b565b336000818152601383016020526040808220805460ff1916600117905560035490516370a0823160e01b8152600481019390935290916001600160a01b03909116906370a082319060240160206040518083038186803b158015611c9957600080fd5b505afa158015611cad573d6000803e3d6000fd5b505050506040513d601f19601f82011682018060405250810190611cd1919061358d565b600254604051630733bdef60e41b815233600482015291925060009182916001600160a01b03169063733bdef0906024016101006040518083038186803b158015611d1b57600080fd5b505afa158015611d2f573d6000803e3d6000fd5b505050506040513d601f19601f82011682018060405250810190611d53919061369a565b505050505092509250508082611d699190613992565b611d739084613992565b92508415611e845782846006016002016000828254611d929190613992565b9091555050600254604051631c3c149f60e11b81523360048201526001600160a01b0390911690633878293e9060240160206040518083038186803b158015611dda57600080fd5b505afa158015611dee573d6000803e3d6000fd5b505050506040513d601f19601f82011682018060405250810190611e12919061358d565b600e85018054600090611e26908490613992565b90915550611e35905033612f4b565b600b85018054600090611e49908490613992565b90915550506005546001600160a01b0316331415611e7f57600184600f016002016000828254611e799190613992565b90915550505b61208c565b8515611f885782846006016000016000828254611ea19190613992565b9091555050600254604051631c3c149f60e11b81523360048201526001600160a01b0390911690633878293e9060240160206040518083038186803b158015611ee957600080fd5b505afa158015611efd573d6000803e3d6000fd5b505050506040513d601f19601f82011682018060405250810190611f21919061358d565b600c85018054600090611f35908490613992565b90915550611f44905033612f4b565b600985018054600090611f58908490613992565b90915550506005546001600160a01b0316331415611e7f57600184600f016000016000828254611e799190613992565b82846006016001016000828254611f9f9190613992565b9091555050600254604051631c3c149f60e11b81523360048201526001600160a01b0390911690633878293e9060240160206040518083038186803b158015611fe757600080fd5b505afa158015611ffb573d6000803e3d6000fd5b505050506040513d601f19601f8201168201806040525081019061201f919061358d565b600d85018054600090612033908490613992565b90915550612042905033612f4b565b600a85018054600090612056908490613992565b90915550506005546001600160a01b031633141561208c57600184600f0160010160008282546120869190613992565b90915550505b336000908152600c602052604081208054916120a783613b83565b90915550506040805188815287151560208201523381830152861515606082015290517fbe6f1c58cc15c8e86d6f0ef23c5a30eb33319af3b57f6b7d9b56ccfa87696b849181900360800190a150505050505050565b6000805460405163703e2a4360e11b815260048101859052602481018490526001600160a01b039091169063e07c54869060440160206040518083038186803b15801561214957600080fd5b505afa15801561215d573d6000803e3d6000fd5b505050506040513d601f19601f82011682018060405250810190611097919061333f565b600080600061218f8561175d565b9050806121a357600080925092505061100c565b806121ad81613b37565b91506001905060008083816121c28a83611a9c565b90508881116121dd576000809750975050505050505061100c565b6121e78a84611a9c565b9050888111156121f657600094505b84156122a85760026122088484613992565b61221291906139aa565b935061221e8a85611a9c565b90508881111561225f5760006122398b6104a2600188613af4565b905089811161224b5760009550612259565b612256600186613af4565b92505b506122a3565b60006122708b6104a2876001613992565b90508981111561229357600095508461228881613b83565b9550508091506122a1565b61229e856001613992565b93505b505b6121f6565b6122b28a82611013565b6122c8576001849750975050505050505061100c565b6122d28a82611013565b80156122dd57508584105b1561230057836122ec81613b83565b9450506122f98a85611a9c565b90506122c8565b858414801561231457506123148a82611013565b1561232b576000809750975050505050505061100c565b6001849750975050505050505061100c565b6001546040516387a475fd60e01b8152600481018390526000918291829182916001600160a01b03909116906387a475fd9060240160206040518083038186803b15801561238a57600080fd5b505afa15801561239e573d6000803e3d6000fd5b505050506040513d601f19601f820116820180604052508101906123c2919061358d565b905060606123d5826103e5426001613992565b94509050836123f1576000806101949450945094505050612406565b60006123fc826130a9565b955060c893505050505b9193909250565b6000818152600a60205260409020600654821180159061242d5750600082115b6124795760405162461bcd60e51b815260206004820152601860248201527f44697370757465204944206d7573742062652076616c69640000000000000000604482015260640161072b565b601281015460ff16156124ce5760405162461bcd60e51b815260206004820152601e60248201527f566f74652068617320616c7265616479206265656e2065786563757465640000604482015260640161072b565b60008160050154116125225760405162461bcd60e51b815260206004820152601460248201527f566f7465206d7573742062652074616c6c696564000000000000000000000000604482015260640161072b565b600181015481546000908152600b6020526040902054146125855760405162461bcd60e51b815260206004820152601660248201527f4d757374206265207468652066696e616c20766f746500000000000000000000604482015260640161072b565b620151808160050154426125999190613af4565b10156126035760405162461bcd60e51b815260206004820152603360248201527f31206461792068617320746f20706173732061667465722074616c6c7920746f60448201527220616c6c6f7720666f7220646973707574657360681b606482015260840161072b565b60128101805460ff19166001179055600082815260086020908152604080832080548452600990925282208054919261263b83613b37565b90915550600090508060016012850154610100900460ff16600281111561267257634e487b7160e01b600052602160045260246000fd5b141561283c5783546000908152600b602052604090205491505b81156128375783546000908152600b602052604090206126ad600184613af4565b815481106126cb57634e487b7160e01b600052603260045260246000fd5b90600052602060002001549050600a60008281526020019081526020016000209350816001141561278e57600354601285015460048581015460405163a9059cbb60e01b81526001600160a01b0362010000909404841692810192909252602482015291169063a9059cbb90604401602060405180830381600087803b15801561275457600080fd5b505af1158015612768573d6000803e3d6000fd5b505050506040513d601f19601f8201168201806040525081019061278c91906134d4565b505b600354601285015460048087015460405163a9059cbb60e01b81526001600160a01b0362010000909404841692810192909252602482015291169063a9059cbb90604401602060405180830381600087803b1580156127ec57600080fd5b505af1158015612800573d6000803e3d6000fd5b505050506040513d601f19601f8201168201806040525081019061282491906134d4565b508161282f81613b37565b92505061268c565b612b91565b60026012850154610100900460ff16600281111561286a57634e487b7160e01b600052602160045260246000fd5b1415612a265783546000908152600b602052604090205491505b81156129905783546000908152600b602052604090206128a5600184613af4565b815481106128c357634e487b7160e01b600052603260045260246000fd5b600091825260208083209190910154808352600a9091526040918290206003546012820154600480840154955163a9059cbb60e01b81526001600160a01b03620100009093048316918101919091526024810195909552919750919350169063a9059cbb90604401602060405180830381600087803b15801561294557600080fd5b505af1158015612959573d6000803e3d6000fd5b505050506040513d601f19601f8201168201806040525081019061297d91906134d4565b508161298881613b37565b925050612884565b600380549084015460048086015460405163a9059cbb60e01b81526001600160a01b0393841692810192909252602482015291169063a9059cbb90604401602060405180830381600087803b1580156129e857600080fd5b505af11580156129fc573d6000803e3d6000fd5b505050506040513d601f19601f82011682018060405250810190612a2091906134d4565b50612b91565b60006012850154610100900460ff166002811115612a5457634e487b7160e01b600052602160045260246000fd5b1415612b915783546000908152600b602052604081205492505b8215612af35784546000908152600b60205260409020612a8f600185613af4565b81548110612aad57634e487b7160e01b600052603260045260246000fd5b90600052602060002001549150600a60008381526020019081526020016000209450846004015481612adf9190613992565b905082612aeb81613b37565b935050612a6e565b6004840154612b029082613992565b600380549086015460405163a9059cbb60e01b81526001600160a01b03918216600482015260248101849052929350169063a9059cbb90604401602060405180830381600087803b158015612b5657600080fd5b505af1158015612b6a573d6000803e3d6000fd5b505050506040513d601f19601f82011682018060405250810190612b8e91906134d4565b50505b6000858152600a6020526040908190206012015490517f40d231bf91823121de9e1c012d95f835ea5684dc1d93360d9510a30543345da491612bdd918891610100900460ff16906138f3565b60405180910390a15050505050565b606080600080612c00886104ff888a613af4565b9150915081612c51576040805160008082526020820190925290612c34565b6060815260200190600190039081612c1f5790505b506040805160008152602081019091529094509250612f42915050565b6000612c5d8989610f84565b909350905082612cb0576040805160008082526020820190925290612c92565b6060815260200190600190039081612c7d5790505b506040805160008152602081019091529095509350612f4292505050565b60008060008867ffffffffffffffff811115612cdc57634e487b7160e01b600052604160045260246000fd5b604051908082528060200260200182016040528015612d05578160200160208202803683370190505b5090505b8883108015612d2c57508482612d20866001613992565b612d2a9190613af4565b115b15612d9e576000612d418d6104a28588613af4565b9050612d4d8d82611013565b612d8b5780828581518110612d7257634e487b7160e01b600052603260045260246000fd5b602090810291909101015283612d8781613b83565b9450505b82612d9581613b83565b93505050612d09565b60008367ffffffffffffffff811115612dc757634e487b7160e01b600052604160045260246000fd5b604051908082528060200260200182016040528015612dfa57816020015b6060815260200190600190039081612de55790505b50905060008467ffffffffffffffff811115612e2657634e487b7160e01b600052604160045260246000fd5b604051908082528060200260200182016040528015612e4f578160200160208202803683370190505b50905060005b85811015612f35578381612e6a600189613af4565b612e749190613af4565b81518110612e9257634e487b7160e01b600052603260045260246000fd5b6020026020010151828281518110612eba57634e487b7160e01b600052603260045260246000fd5b602002602001018181525050612ef78f838381518110612eea57634e487b7160e01b600052603260045260246000fd5b6020026020010151611a14565b838281518110612f1757634e487b7160e01b600052603260045260246000fd5b60200260200101819052508080612f2d90613b83565b915050612e55565b5090985096505050505050505b94509492505050565b6000806000612f6460075461a8c0426103e59190613af4565b909250905080156130a257600082806020019051810190612f85919061335b565b905060005b815181101561309f57600080838381518110612fb657634e487b7160e01b600052603260045260246000fd5b60200260200101516001600160a01b031688604051602401612fe791906001600160a01b0391909116815260200190565b60408051601f198184030181529181526020820180516001600160e01b03166345d6082360e01b1790525161301c919061377e565b6000604051808303816000865af19150503d8060008114613059576040519150601f19603f3d011682016040523d82523d6000602084013e61305e565b606091505b5091509150811561308a578080602001905181019061307d919061358d565b6130879088613992565b96505b5050808061309790613b83565b915050612f8a565b50505b5050919050565b6000805b8251811015613108578281815181106130d657634e487b7160e01b600052603260045260246000fd5b016020015160f81c6130ea83610100613ad5565b6130f49190613992565b91508061310081613b83565b9150506130ad565b50919050565b82805461311a90613b4e565b90600052602060002090601f01602090048101928261313c5760008555613182565b82601f1061315557805160ff1916838001178555613182565b82800160010185558215613182579182015b82811115613182578251825591602001919060010190613167565b5061318e92915061322c565b5090565b82805461319e90613b4e565b90600052602060002090601f0160209004810192826131c05760008555613182565b82601f106131d15780548555613182565b8280016001018555821561318257600052602060002091601f016020900482015b828111156131825782548255916001019190600101906131f2565b6040518061022001604052806011906020820280368337509192915050565b5b8082111561318e576000815560010161322d565b600082601f830112613251578081fd5b813560206132666132618361396e565b61393d565b80838252828201915082860187848660051b8901011115613285578586fd5b855b858110156132ac57813561329a81613be2565b84529284019290840190600101613287565b5090979650505050505050565b600082601f8301126132c9578081fd5b815167ffffffffffffffff8111156132e3576132e3613bb4565b6132f6601f8201601f191660200161393d565b81815284602083860101111561330a578283fd5b61331b826020830160208701613b0b565b949350505050565b600060208284031215613334578081fd5b813561109781613bca565b600060208284031215613350578081fd5b815161109781613bca565b6000602080838503121561336d578182fd5b825167ffffffffffffffff811115613383578283fd5b8301601f81018513613393578283fd5b80516133a16132618261396e565b80828252848201915084840188868560051b87010111156133c0578687fd5b8694505b838510156133eb5780516133d781613bca565b8352600194909401939185019185016133c4565b50979650505050505050565b60008060006060848603121561340b578182fd5b833567ffffffffffffffff80821115613422578384fd5b818601915086601f830112613435578384fd5b813560206134456132618361396e565b8083825282820191508286018b848660051b8901011115613464578889fd5b8896505b84871015613486578035835260019690960195918301918301613468565b509750508701359250508082111561349c578384fd5b6134a887838801613241565b935060408601359150808211156134bd578283fd5b506134ca86828701613241565b9150509250925092565b6000602082840312156134e5578081fd5b815161109781613be2565b600080600060608486031215613504578283fd5b835161350f81613be2565b602085015190935067ffffffffffffffff81111561352b578283fd5b613537868287016132b9565b925050604084015190509250925092565b6000806040838503121561355a578182fd5b825161356581613be2565b6020939093015192949293505050565b600060208284031215613586578081fd5b5035919050565b60006020828403121561359e578081fd5b5051919050565b600080604083850312156135b7578182fd5b50508035926020909101359150565b600080600080608085870312156135db578182fd5b5050823594602084013594506040840135936060013592509050565b600060208284031215613608578081fd5b815167ffffffffffffffff81111561361e578182fd5b61331b848285016132b9565b6000806040838503121561363c578182fd5b82359150602083013561364e81613bca565b809150509250929050565b60008060006060848603121561366d578081fd5b83359250602084013561367f81613be2565b9150604084013561368f81613be2565b809150509250925092565b600080600080600080600080610100898b0312156136b6578586fd5b505086516020880151604089015160608a015160808b015160a08c015160c08d015160e0909d0151959e949d50929b919a50985090965094509092509050565b6000815180845260208085019450808401835b8381101561372557815187529582019590820190600101613709565b509495945050505050565b60008151808452613748816020860160208601613b0b565b601f01601f19169290920160200192915050565b6003811061377a57634e487b7160e01b600052602160045260246000fd5b9052565b60008251613790818460208701613b0b565b9190910192915050565b6000604082016040835280855180835260608501915060608160051b86010192506020808801855b838110156137f057605f198887030185526137de868351613730565b955093820193908201906001016137c2565b50508584038187015250505061380681856136f6565b95945050505050565b60006020825261109760208301846136f6565b8581526102a0810160208083018760005b601181101561385057815183529183019190830190600101613833565b5050505084151561024083015261386b61026083018561375c565b6001600160a01b0383166102808301529695505050505050565b6000858252846020830152608060408301526138a46080830185613730565b90506001600160a01b038316606083015295945050505050565b6000602082526110976020830184613730565b6000604082526138e46040830185613730565b90508260208301529392505050565b82815260408101611097602083018461375c565b8481526080810161391b602083018661375c565b6001600160a01b03808516604084015280841660608401525095945050505050565b604051601f8201601f1916810167ffffffffffffffff8111828210171561396657613966613bb4565b604052919050565b600067ffffffffffffffff82111561398857613988613bb4565b5060051b60200190565b600082198211156139a5576139a5613b9e565b500190565b6000826139c557634e487b7160e01b81526012600452602481fd5b500490565b80825b60018086116139dc5750612f42565b8187048211156139ee576139ee613b9e565b808616156139fb57918102915b9490941c9380026139cd565b60006110976000198484600082613a2057506001611097565b81613a2d57506000611097565b8160018114613a435760028114613a4d57613a7a565b6001915050611097565b60ff841115613a5e57613a5e613b9e565b6001841b915084821115613a7457613a74613b9e565b50611097565b5060208310610133831016604e8410600b8410161715613aad575081810a83811115613aa857613aa8613b9e565b611097565b613aba84848460016139ca565b808604821115613acc57613acc613b9e565b02949350505050565b6000816000190483118215151615613aef57613aef613b9e565b500290565b600082821015613b0657613b06613b9e565b500390565b60005b83811015613b26578181015183820152602001613b0e565b838111156106175750506000910152565b600081613b4657613b46613b9e565b506000190190565b600181811c90821680613b6257607f821691505b6020821081141561310857634e487b7160e01b600052602260045260246000fd5b6000600019821415613b9757613b97613b9e565b5060010190565b634e487b7160e01b600052601160045260246000fd5b634e487b7160e01b600052604160045260246000fd5b6001600160a01b0381168114613bdf57600080fd5b50565b8015158114613bdf57600080fdfea26469706673582212207adcee8cad848a7f3146e2cffd63eea587fe7ce26923c3cc78b3c1f2d8c9ad2d64736f6c63430008030033","opcodes":"PUSH1 0xA0 PUSH1 0x40 MSTORE PUSH1 0x0 PUSH1 0x80 SWAP1 DUP2 MSTORE PUSH3 0x18 SWAP1 PUSH1 0xC0 PUSH3 0x20F JUMP JUMPDEST PUSH1 0x40 DUP1 MLOAD PUSH1 0x1F NOT DUP2 DUP5 SUB ADD DUP2 MSTORE SWAP1 DUP3 SWAP1 MSTORE PUSH3 0x37 SWAP2 PUSH1 0x20 ADD PUSH3 0x224 JUMP JUMPDEST PUSH1 0x40 MLOAD PUSH1 0x20 DUP2 DUP4 SUB SUB DUP2 MSTORE SWAP1 PUSH1 0x40 MSTORE DUP1 MLOAD SWAP1 PUSH1 0x20 ADD KECCAK256 PUSH1 0x7 SSTORE CALLVALUE DUP1 ISZERO PUSH3 0x5D JUMPI PUSH1 0x0 DUP1 REVERT JUMPDEST POP PUSH1 0x40 MLOAD PUSH3 0x3EAF CODESIZE SUB DUP1 PUSH3 0x3EAF DUP4 CODECOPY DUP2 ADD PUSH1 0x40 DUP2 SWAP1 MSTORE PUSH3 0x80 SWAP2 PUSH3 0x183 JUMP JUMPDEST PUSH1 0x0 DUP1 SLOAD PUSH1 0x1 PUSH1 0x1 PUSH1 0xA0 SHL SUB DUP5 AND PUSH1 0x1 PUSH1 0x1 PUSH1 0xA0 SHL SUB NOT SWAP2 DUP3 AND DUP2 OR SWAP1 SWAP3 SSTORE PUSH1 0x2 DUP1 SLOAD SWAP1 SWAP2 AND DUP3 OR SWAP1 SSTORE PUSH1 0x40 DUP1 MLOAD PUSH4 0x21FD35D PUSH1 0xE3 SHL DUP2 MSTORE SWAP1 MLOAD PUSH4 0x10FE9AE8 SWAP2 PUSH1 0x4 DUP1 DUP3 ADD SWAP3 PUSH1 0x20 SWAP3 SWAP1 SWAP2 SWAP1 DUP3 SWAP1 SUB ADD DUP2 DUP7 DUP1 EXTCODESIZE ISZERO DUP1 ISZERO PUSH3 0xE1 JUMPI PUSH1 0x0 DUP1 REVERT JUMPDEST POP GAS STATICCALL ISZERO DUP1 ISZERO PUSH3 0xF6 JUMPI RETURNDATASIZE PUSH1 0x0 DUP1 RETURNDATACOPY RETURNDATASIZE PUSH1 0x0 REVERT JUMPDEST POP POP POP POP PUSH1 0x40 MLOAD RETURNDATASIZE PUSH1 0x1F NOT PUSH1 0x1F DUP3 ADD AND DUP3 ADD DUP1 PUSH1 0x40 MSTORE POP DUP2 ADD SWAP1 PUSH3 0x11C SWAP2 SWAP1 PUSH3 0x15D JUMP JUMPDEST PUSH1 0x3 DUP1 SLOAD PUSH1 0x1 PUSH1 0x1 PUSH1 0xA0 SHL SUB NOT SWAP1 DUP2 AND PUSH1 0x1 PUSH1 0x1 PUSH1 0xA0 SHL SUB SWAP4 DUP5 AND OR SWAP1 SWAP2 SSTORE PUSH1 0x4 DUP1 SLOAD DUP3 AND SWAP5 DUP4 AND SWAP5 SWAP1 SWAP5 OR SWAP1 SWAP4 SSTORE PUSH1 0x5 DUP1 SLOAD SWAP1 SWAP4 AND SWAP2 AND OR SWAP1 SSTORE PUSH3 0x279 JUMP JUMPDEST PUSH1 0x0 PUSH1 0x20 DUP3 DUP5 SUB SLT ISZERO PUSH3 0x16F JUMPI DUP1 DUP2 REVERT JUMPDEST DUP2 MLOAD PUSH3 0x17C DUP2 PUSH3 0x260 JUMP JUMPDEST SWAP4 SWAP3 POP POP POP JUMP JUMPDEST PUSH1 0x0 DUP1 PUSH1 0x40 DUP4 DUP6 SUB SLT ISZERO PUSH3 0x196 JUMPI DUP1 DUP2 REVERT JUMPDEST DUP3 MLOAD PUSH3 0x1A3 DUP2 PUSH3 0x260 JUMP JUMPDEST PUSH1 0x20 DUP5 ADD MLOAD SWAP1 SWAP3 POP PUSH3 0x1B6 DUP2 PUSH3 0x260 JUMP JUMPDEST DUP1 SWAP2 POP POP SWAP3 POP SWAP3 SWAP1 POP JUMP JUMPDEST PUSH1 0x0 DUP2 MLOAD DUP1 DUP5 MSTORE DUP2 JUMPDEST DUP2 DUP2 LT ISZERO PUSH3 0x1E8 JUMPI PUSH1 0x20 DUP2 DUP6 ADD DUP2 ADD MLOAD DUP7 DUP4 ADD DUP3 ADD MSTORE ADD PUSH3 0x1CA JUMP JUMPDEST DUP2 DUP2 GT ISZERO PUSH3 0x1FA JUMPI DUP3 PUSH1 0x20 DUP4 DUP8 ADD ADD MSTORE JUMPDEST POP PUSH1 0x1F ADD PUSH1 0x1F NOT AND SWAP3 SWAP1 SWAP3 ADD PUSH1 0x20 ADD SWAP3 SWAP2 POP POP JUMP JUMPDEST PUSH1 0x0 PUSH1 0x20 DUP3 MSTORE PUSH3 0x17C PUSH1 0x20 DUP4 ADD DUP5 PUSH3 0x1C1 JUMP JUMPDEST PUSH1 0x0 PUSH1 0x40 DUP3 MSTORE PUSH1 0x10 PUSH1 0x40 DUP4 ADD MSTORE PUSH16 0x4175746F706179416464726573736573 PUSH1 0x80 SHL PUSH1 0x60 DUP4 ADD MSTORE PUSH1 0x80 PUSH1 0x20 DUP4 ADD MSTORE PUSH3 0x17C PUSH1 0x80 DUP4 ADD DUP5 PUSH3 0x1C1 JUMP JUMPDEST PUSH1 0x1 PUSH1 0x1 PUSH1 0xA0 SHL SUB DUP2 AND DUP2 EQ PUSH3 0x276 JUMPI PUSH1 0x0 DUP1 REVERT JUMPDEST POP JUMP JUMPDEST PUSH2 0x3C26 DUP1 PUSH3 0x289 PUSH1 0x0 CODECOPY PUSH1 0x0 RETURN INVALID PUSH1 0x80 PUSH1 0x40 MSTORE CALLVALUE DUP1 ISZERO PUSH2 0x10 JUMPI PUSH1 0x0 DUP1 REVERT JUMPDEST POP PUSH1 0x4 CALLDATASIZE LT PUSH2 0x205 JUMPI PUSH1 0x0 CALLDATALOAD PUSH1 0xE0 SHR DUP1 PUSH4 0xA7C438BC GT PUSH2 0x11A JUMPI DUP1 PUSH4 0xDBC0C085 GT PUSH2 0xAD JUMPI DUP1 PUSH4 0xF66F49C3 GT PUSH2 0x7C JUMPI DUP1 PUSH4 0xF66F49C3 EQ PUSH2 0x4F1 JUMPI DUP1 PUSH4 0xF78EEA83 EQ PUSH2 0x504 JUMPI DUP1 PUSH4 0xF98A4ECA EQ PUSH2 0x532 JUMPI DUP1 PUSH4 0xFC0C546A EQ PUSH2 0x545 JUMPI DUP1 PUSH4 0xFCD4A546 EQ PUSH2 0x558 JUMPI PUSH2 0x205 JUMP JUMPDEST DUP1 PUSH4 0xDBC0C085 EQ PUSH2 0x4B0 JUMPI DUP1 PUSH4 0xDF133BCA EQ PUSH2 0x4C3 JUMPI DUP1 PUSH4 0xE07C5486 EQ PUSH2 0x4D6 JUMPI DUP1 PUSH4 0xE7B3387C EQ PUSH2 0x4E9 JUMPI PUSH2 0x205 JUMP JUMPDEST DUP1 PUSH4 0xC5958AF9 GT PUSH2 0xE9 JUMPI DUP1 PUSH4 0xC5958AF9 EQ PUSH2 0x46B JUMPI DUP1 PUSH4 0xC6384071 EQ PUSH2 0x48B JUMPI DUP1 PUSH4 0xCE5E11BF EQ PUSH2 0x494 JUMPI DUP1 PUSH4 0xD8ADD0F6 EQ PUSH2 0x4A7 JUMPI PUSH2 0x205 JUMP JUMPDEST DUP1 PUSH4 0xA7C438BC EQ PUSH2 0x3EA JUMPI DUP1 PUSH4 0xA89AE4BA EQ PUSH2 0x427 JUMPI DUP1 PUSH4 0xBBF3E10B EQ PUSH2 0x43A JUMPI DUP1 PUSH4 0xBDC7D9D8 EQ PUSH2 0x442 JUMPI PUSH2 0x205 JUMP JUMPDEST DUP1 PUSH4 0x44E87F91 GT PUSH2 0x19D JUMPI DUP1 PUSH4 0x64EE3C6D GT PUSH2 0x16C JUMPI DUP1 PUSH4 0x64EE3C6D EQ PUSH2 0x36C JUMPI DUP1 PUSH4 0x77B03E0D EQ PUSH2 0x38D JUMPI DUP1 PUSH4 0x7DC0D1D0 EQ PUSH2 0x3A0 JUMPI DUP1 PUSH4 0x8D824273 EQ PUSH2 0x3B3 JUMPI DUP1 PUSH4 0xA792765F EQ PUSH2 0x3D7 JUMPI PUSH2 0x205 JUMP JUMPDEST DUP1 PUSH4 0x44E87F91 EQ PUSH2 0x300 JUMPI DUP1 PUSH4 0x4D318B0E EQ PUSH2 0x323 JUMPI DUP1 PUSH4 0x4E9FE708 EQ PUSH2 0x336 JUMPI DUP1 PUSH4 0x6169C308 EQ PUSH2 0x349 JUMPI PUSH2 0x205 JUMP JUMPDEST DUP1 PUSH4 0x1F379ACC GT PUSH2 0x1D9 JUMPI DUP1 PUSH4 0x1F379ACC EQ PUSH2 0x290 JUMPI DUP1 PUSH4 0x248638E5 EQ PUSH2 0x2A3 JUMPI DUP1 PUSH4 0x29449085 EQ PUSH2 0x2C3 JUMPI DUP1 PUSH4 0x2AF8AAE0 EQ PUSH2 0x2ED JUMPI PUSH2 0x205 JUMP JUMPDEST DUP1 PUSH3 0xB12190 EQ PUSH2 0x20A JUMPI DUP1 PUSH4 0xE1596EF EQ PUSH2 0x21F JUMPI DUP1 PUSH4 0x193B505B EQ PUSH2 0x252 JUMPI DUP1 PUSH4 0x1959AD5B EQ PUSH2 0x265 JUMPI JUMPDEST PUSH1 0x0 DUP1 REVERT JUMPDEST PUSH2 0x21D PUSH2 0x218 CALLDATASIZE PUSH1 0x4 PUSH2 0x33F7 JUMP JUMPDEST PUSH2 0x579 JUMP JUMPDEST STOP JUMPDEST PUSH2 0x23F PUSH2 0x22D CALLDATASIZE PUSH1 0x4 PUSH2 0x3575 JUMP JUMPDEST PUSH1 0x0 SWAP1 DUP2 MSTORE PUSH1 0x9 PUSH1 0x20 MSTORE PUSH1 0x40 SWAP1 KECCAK256 SLOAD SWAP1 JUMP JUMPDEST PUSH1 0x40 MLOAD SWAP1 DUP2 MSTORE PUSH1 0x20 ADD JUMPDEST PUSH1 0x40 MLOAD DUP1 SWAP2 SUB SWAP1 RETURN JUMPDEST PUSH2 0x21D PUSH2 0x260 CALLDATASIZE PUSH1 0x4 PUSH2 0x3323 JUMP JUMPDEST PUSH2 0x61D JUMP JUMPDEST PUSH1 0x0 SLOAD PUSH2 0x278 SWAP1 PUSH1 0x1 PUSH1 0x1 PUSH1 0xA0 SHL SUB AND DUP2 JUMP JUMPDEST PUSH1 0x40 MLOAD PUSH1 0x1 PUSH1 0x1 PUSH1 0xA0 SHL SUB SWAP1 SWAP2 AND DUP2 MSTORE PUSH1 0x20 ADD PUSH2 0x249 JUMP JUMPDEST PUSH2 0x21D PUSH2 0x29E CALLDATASIZE PUSH1 0x4 PUSH2 0x35A5 JUMP JUMPDEST PUSH2 0x655 JUMP JUMPDEST PUSH2 0x2B6 PUSH2 0x2B1 CALLDATASIZE PUSH1 0x4 PUSH2 0x3575 JUMP JUMPDEST PUSH2 0xF22 JUMP JUMPDEST PUSH1 0x40 MLOAD PUSH2 0x249 SWAP2 SWAP1 PUSH2 0x380F JUMP JUMPDEST PUSH2 0x2D6 PUSH2 0x2D1 CALLDATASIZE PUSH1 0x4 PUSH2 0x35A5 JUMP JUMPDEST PUSH2 0xF84 JUMP JUMPDEST PUSH1 0x40 DUP1 MLOAD SWAP3 ISZERO ISZERO DUP4 MSTORE PUSH1 0x20 DUP4 ADD SWAP2 SWAP1 SWAP2 MSTORE ADD PUSH2 0x249 JUMP JUMPDEST PUSH1 0x1 SLOAD PUSH2 0x278 SWAP1 PUSH1 0x1 PUSH1 0x1 PUSH1 0xA0 SHL SUB AND DUP2 JUMP JUMPDEST PUSH2 0x313 PUSH2 0x30E CALLDATASIZE PUSH1 0x4 PUSH2 0x35A5 JUMP JUMPDEST PUSH2 0x1013 JUMP JUMPDEST PUSH1 0x40 MLOAD SWAP1 ISZERO ISZERO DUP2 MSTORE PUSH1 0x20 ADD PUSH2 0x249 JUMP JUMPDEST PUSH2 0x21D PUSH2 0x331 CALLDATASIZE PUSH1 0x4 PUSH2 0x3575 JUMP JUMPDEST PUSH2 0x109E JUMP JUMPDEST PUSH2 0x2B6 PUSH2 0x344 CALLDATASIZE PUSH1 0x4 PUSH2 0x3323 JUMP JUMPDEST PUSH2 0x15C6 JUMP JUMPDEST PUSH2 0x35C PUSH2 0x357 CALLDATASIZE PUSH1 0x4 PUSH2 0x3575 JUMP JUMPDEST PUSH2 0x1630 JUMP JUMPDEST PUSH1 0x40 MLOAD PUSH2 0x249 SWAP5 SWAP4 SWAP3 SWAP2 SWAP1 PUSH2 0x3885 JUMP JUMPDEST PUSH2 0x37F PUSH2 0x37A CALLDATASIZE PUSH1 0x4 PUSH2 0x35A5 JUMP JUMPDEST PUSH2 0x1704 JUMP JUMPDEST PUSH1 0x40 MLOAD PUSH2 0x249 SWAP3 SWAP2 SWAP1 PUSH2 0x38D1 JUMP JUMPDEST PUSH2 0x23F PUSH2 0x39B CALLDATASIZE PUSH1 0x4 PUSH2 0x3575 JUMP JUMPDEST PUSH2 0x175D JUMP JUMPDEST PUSH1 0x2 SLOAD PUSH2 0x278 SWAP1 PUSH1 0x1 PUSH1 0x1 PUSH1 0xA0 SHL SUB AND DUP2 JUMP JUMPDEST PUSH2 0x3C6 PUSH2 0x3C1 CALLDATASIZE PUSH1 0x4 PUSH2 0x3575 JUMP JUMPDEST PUSH2 0x17E0 JUMP JUMPDEST PUSH1 0x40 MLOAD PUSH2 0x249 SWAP6 SWAP5 SWAP4 SWAP3 SWAP2 SWAP1 PUSH2 0x3822 JUMP JUMPDEST PUSH2 0x37F PUSH2 0x3E5 CALLDATASIZE PUSH1 0x4 PUSH2 0x35A5 JUMP JUMPDEST PUSH2 0x18E5 JUMP JUMPDEST PUSH2 0x313 PUSH2 0x3F8 CALLDATASIZE PUSH1 0x4 PUSH2 0x362A JUMP JUMPDEST PUSH1 0x0 DUP3 DUP2 MSTORE PUSH1 0xA PUSH1 0x20 SWAP1 DUP2 MSTORE PUSH1 0x40 DUP1 DUP4 KECCAK256 PUSH1 0x1 PUSH1 0x1 PUSH1 0xA0 SHL SUB DUP6 AND DUP5 MSTORE PUSH1 0x13 ADD SWAP1 SWAP2 MSTORE SWAP1 KECCAK256 SLOAD PUSH1 0xFF AND SWAP3 SWAP2 POP POP JUMP JUMPDEST PUSH1 0x4 SLOAD PUSH2 0x278 SWAP1 PUSH1 0x1 PUSH1 0x1 PUSH1 0xA0 SHL SUB AND DUP2 JUMP JUMPDEST PUSH2 0x23F PUSH2 0x197B JUMP JUMPDEST PUSH2 0x23F PUSH2 0x450 CALLDATASIZE PUSH1 0x4 PUSH2 0x3323 JUMP JUMPDEST PUSH1 0x1 PUSH1 0x1 PUSH1 0xA0 SHL SUB AND PUSH1 0x0 SWAP1 DUP2 MSTORE PUSH1 0xC PUSH1 0x20 MSTORE PUSH1 0x40 SWAP1 KECCAK256 SLOAD SWAP1 JUMP JUMPDEST PUSH2 0x47E PUSH2 0x479 CALLDATASIZE PUSH1 0x4 PUSH2 0x35A5 JUMP JUMPDEST PUSH2 0x1A14 JUMP JUMPDEST PUSH1 0x40 MLOAD PUSH2 0x249 SWAP2 SWAP1 PUSH2 0x38BE JUMP JUMPDEST PUSH2 0x23F PUSH1 0x6 SLOAD DUP2 JUMP JUMPDEST PUSH2 0x23F PUSH2 0x4A2 CALLDATASIZE PUSH1 0x4 PUSH2 0x35A5 JUMP JUMPDEST PUSH2 0x1A9C JUMP JUMPDEST PUSH2 0x23F PUSH1 0x7 SLOAD DUP2 JUMP JUMPDEST PUSH1 0x5 SLOAD PUSH2 0x278 SWAP1 PUSH1 0x1 PUSH1 0x1 PUSH1 0xA0 SHL SUB AND DUP2 JUMP JUMPDEST PUSH2 0x21D PUSH2 0x4D1 CALLDATASIZE PUSH1 0x4 PUSH2 0x3659 JUMP JUMPDEST PUSH2 0x1B20 JUMP JUMPDEST PUSH2 0x278 PUSH2 0x4E4 CALLDATASIZE PUSH1 0x4 PUSH2 0x35A5 JUMP JUMPDEST PUSH2 0x20FD JUMP JUMPDEST PUSH1 0x6 SLOAD PUSH2 0x23F JUMP JUMPDEST PUSH2 0x2D6 PUSH2 0x4FF CALLDATASIZE PUSH1 0x4 PUSH2 0x35A5 JUMP JUMPDEST PUSH2 0x2181 JUMP JUMPDEST PUSH2 0x517 PUSH2 0x512 CALLDATASIZE PUSH1 0x4 PUSH2 0x3575 JUMP JUMPDEST PUSH2 0x233D JUMP JUMPDEST PUSH1 0x40 DUP1 MLOAD SWAP4 DUP5 MSTORE PUSH1 0x20 DUP5 ADD SWAP3 SWAP1 SWAP3 MSTORE SWAP1 DUP3 ADD MSTORE PUSH1 0x60 ADD PUSH2 0x249 JUMP JUMPDEST PUSH2 0x21D PUSH2 0x540 CALLDATASIZE PUSH1 0x4 PUSH2 0x3575 JUMP JUMPDEST PUSH2 0x240D JUMP JUMPDEST PUSH1 0x3 SLOAD PUSH2 0x278 SWAP1 PUSH1 0x1 PUSH1 0x1 PUSH1 0xA0 SHL SUB AND DUP2 JUMP JUMPDEST PUSH2 0x56B PUSH2 0x566 CALLDATASIZE PUSH1 0x4 PUSH2 0x35C6 JUMP JUMPDEST PUSH2 0x2BEC JUMP JUMPDEST PUSH1 0x40 MLOAD PUSH2 0x249 SWAP3 SWAP2 SWAP1 PUSH2 0x379A JUMP JUMPDEST PUSH1 0x0 JUMPDEST DUP4 MLOAD DUP2 LT ISZERO PUSH2 0x617 JUMPI PUSH2 0x605 DUP5 DUP3 DUP2 MLOAD DUP2 LT PUSH2 0x5A8 JUMPI PUSH4 0x4E487B71 PUSH1 0xE0 SHL PUSH1 0x0 MSTORE PUSH1 0x32 PUSH1 0x4 MSTORE PUSH1 0x24 PUSH1 0x0 REVERT JUMPDEST PUSH1 0x20 MUL PUSH1 0x20 ADD ADD MLOAD DUP5 DUP4 DUP2 MLOAD DUP2 LT PUSH2 0x5D0 JUMPI PUSH4 0x4E487B71 PUSH1 0xE0 SHL PUSH1 0x0 MSTORE PUSH1 0x32 PUSH1 0x4 MSTORE PUSH1 0x24 PUSH1 0x0 REVERT JUMPDEST PUSH1 0x20 MUL PUSH1 0x20 ADD ADD MLOAD DUP5 DUP5 DUP2 MLOAD DUP2 LT PUSH2 0x5F8 JUMPI PUSH4 0x4E487B71 PUSH1 0xE0 SHL PUSH1 0x0 MSTORE PUSH1 0x32 PUSH1 0x4 MSTORE PUSH1 0x24 PUSH1 0x0 REVERT JUMPDEST PUSH1 0x20 MUL PUSH1 0x20 ADD ADD MLOAD PUSH2 0x1B20 JUMP JUMPDEST DUP1 PUSH2 0x60F DUP2 PUSH2 0x3B83 JUMP JUMPDEST SWAP2 POP POP PUSH2 0x57C JUMP JUMPDEST POP POP POP POP JUMP JUMPDEST PUSH1 0x1 SLOAD PUSH1 0x1 PUSH1 0x1 PUSH1 0xA0 SHL SUB AND ISZERO PUSH2 0x633 JUMPI PUSH1 0x0 DUP1 REVERT JUMPDEST PUSH1 0x1 DUP1 SLOAD PUSH1 0x1 PUSH1 0x1 PUSH1 0xA0 SHL SUB NOT AND PUSH1 0x1 PUSH1 0x1 PUSH1 0xA0 SHL SUB SWAP3 SWAP1 SWAP3 AND SWAP2 SWAP1 SWAP2 OR SWAP1 SSTORE JUMP JUMPDEST PUSH1 0x2 SLOAD PUSH1 0x40 MLOAD PUSH4 0x935408D PUSH1 0xE4 SHL DUP2 MSTORE PUSH1 0x4 DUP2 ADD DUP5 SWAP1 MSTORE PUSH1 0x24 DUP2 ADD DUP4 SWAP1 MSTORE PUSH1 0x1 PUSH1 0x1 PUSH1 0xA0 SHL SUB SWAP1 SWAP2 AND SWAP1 PUSH4 0x935408D0 SWAP1 PUSH1 0x44 ADD PUSH1 0x20 PUSH1 0x40 MLOAD DUP1 DUP4 SUB DUP2 DUP7 DUP1 EXTCODESIZE ISZERO DUP1 ISZERO PUSH2 0x6A0 JUMPI PUSH1 0x0 DUP1 REVERT JUMPDEST POP GAS STATICCALL ISZERO DUP1 ISZERO PUSH2 0x6B4 JUMPI RETURNDATASIZE PUSH1 0x0 DUP1 RETURNDATACOPY RETURNDATASIZE PUSH1 0x0 REVERT JUMPDEST POP POP POP POP PUSH1 0x40 MLOAD RETURNDATASIZE PUSH1 0x1F NOT PUSH1 0x1F DUP3 ADD AND DUP3 ADD DUP1 PUSH1 0x40 MSTORE POP DUP2 ADD SWAP1 PUSH2 0x6D8 SWAP2 SWAP1 PUSH2 0x358D JUMP JUMPDEST PUSH2 0x734 JUMPI PUSH1 0x40 MLOAD PUSH3 0x461BCD PUSH1 0xE5 SHL DUP2 MSTORE PUSH1 0x20 PUSH1 0x4 DUP3 ADD MSTORE PUSH1 0x22 PUSH1 0x24 DUP3 ADD MSTORE PUSH32 0x6E6F2076616C75652065786973747320617420676976656E2074696D65737461 PUSH1 0x44 DUP3 ADD MSTORE PUSH2 0x6D7 PUSH1 0xF4 SHL PUSH1 0x64 DUP3 ADD MSTORE PUSH1 0x84 ADD JUMPDEST PUSH1 0x40 MLOAD DUP1 SWAP2 SUB SWAP1 REVERT JUMPDEST PUSH1 0x40 DUP1 MLOAD PUSH1 0x20 DUP1 DUP3 ADD DUP6 SWAP1 MSTORE DUP2 DUP4 ADD DUP5 SWAP1 MSTORE DUP3 MLOAD DUP1 DUP4 SUB DUP5 ADD DUP2 MSTORE PUSH1 0x60 SWAP1 SWAP3 ADD SWAP1 SWAP3 MSTORE DUP1 MLOAD SWAP2 ADD KECCAK256 PUSH1 0x6 SLOAD PUSH1 0x0 SWAP1 PUSH2 0x76D SWAP1 PUSH1 0x1 PUSH2 0x3992 JUMP JUMPDEST PUSH1 0x0 DUP4 DUP2 MSTORE PUSH1 0xB PUSH1 0x20 SWAP1 DUP2 MSTORE PUSH1 0x40 DUP1 DUP4 KECCAK256 DUP1 SLOAD PUSH1 0x1 DUP1 DUP3 ADD DUP4 SSTORE DUP3 DUP7 MSTORE DUP5 DUP7 KECCAK256 SWAP1 SWAP2 ADD DUP7 SWAP1 SSTORE DUP6 DUP6 MSTORE PUSH1 0xA DUP5 MSTORE DUP3 DUP6 KECCAK256 PUSH1 0x8 SWAP1 SWAP5 MSTORE SWAP4 DUP3 SWAP1 KECCAK256 DUP10 DUP2 SSTORE SWAP4 DUP5 ADD DUP9 SWAP1 SSTORE PUSH1 0x2 SLOAD SWAP2 MLOAD PUSH4 0x703E2A43 PUSH1 0xE1 SHL DUP2 MSTORE PUSH1 0x4 DUP2 ADD DUP11 SWAP1 MSTORE PUSH1 0x24 DUP2 ADD DUP10 SWAP1 MSTORE SWAP5 SWAP6 POP SWAP4 SWAP2 SWAP3 SWAP2 PUSH1 0x1 PUSH1 0x1 PUSH1 0xA0 SHL SUB SWAP1 SWAP2 AND SWAP1 PUSH4 0xE07C5486 SWAP1 PUSH1 0x44 ADD PUSH1 0x20 PUSH1 0x40 MLOAD DUP1 DUP4 SUB DUP2 DUP7 DUP1 EXTCODESIZE ISZERO DUP1 ISZERO PUSH2 0x800 JUMPI PUSH1 0x0 DUP1 REVERT JUMPDEST POP GAS STATICCALL ISZERO DUP1 ISZERO PUSH2 0x814 JUMPI RETURNDATASIZE PUSH1 0x0 DUP1 RETURNDATACOPY RETURNDATASIZE PUSH1 0x0 REVERT JUMPDEST POP POP POP POP PUSH1 0x40 MLOAD RETURNDATASIZE PUSH1 0x1F NOT PUSH1 0x1F DUP3 ADD AND DUP3 ADD DUP1 PUSH1 0x40 MSTORE POP DUP2 ADD SWAP1 PUSH2 0x838 SWAP2 SWAP1 PUSH2 0x333F JUMP JUMPDEST PUSH1 0x3 DUP3 DUP2 ADD DUP1 SLOAD PUSH1 0x1 PUSH1 0x1 PUSH1 0xA0 SHL SUB NOT AND PUSH1 0x1 PUSH1 0x1 PUSH1 0xA0 SHL SUB SWAP4 DUP5 AND OR DUP2 SSTORE DUP8 DUP6 SSTORE PUSH1 0x12 DUP6 ADD DUP1 SLOAD PUSH22 0xFFFFFFFFFFFFFFFFFFFFFFFFFFFFFFFFFFFFFFFF0000 NOT AND CALLER PUSH3 0x10000 MUL OR SWAP1 SSTORE NUMBER SWAP2 DUP6 ADD SWAP2 SWAP1 SWAP2 SSTORE TIMESTAMP PUSH1 0x2 DUP6 ADD SSTORE DUP5 SLOAD PUSH1 0x1 DUP6 DUP2 ADD SWAP2 SWAP1 SWAP2 SSTORE SWAP1 SLOAD SWAP1 SWAP2 AND PUSH1 0x0 SWAP1 DUP2 MSTORE PUSH1 0xD PUSH1 0x20 SWAP1 DUP2 MSTORE PUSH1 0x40 DUP3 KECCAK256 DUP1 SLOAD SWAP4 DUP5 ADD DUP2 SSTORE DUP3 MSTORE DUP2 KECCAK256 SWAP1 SWAP2 ADD DUP6 SWAP1 SSTORE PUSH2 0x8C9 PUSH2 0x197B JUMP JUMPDEST DUP5 SLOAD SWAP1 SWAP2 POP PUSH1 0x1 EQ ISZERO PUSH2 0xB33 JUMPI PUSH2 0xA8C0 PUSH2 0x8E3 DUP9 TIMESTAMP PUSH2 0x3AF4 JUMP JUMPDEST LT PUSH2 0x94B JUMPI PUSH1 0x40 MLOAD PUSH3 0x461BCD PUSH1 0xE5 SHL DUP2 MSTORE PUSH1 0x20 PUSH1 0x4 DUP3 ADD MSTORE PUSH1 0x32 PUSH1 0x24 DUP3 ADD MSTORE PUSH32 0x44697370757465206D75737420626520737461727465642077697468696E2072 PUSH1 0x44 DUP3 ADD MSTORE PUSH18 0x65706F7274696E67206C6F636B2074696D65 PUSH1 0x70 SHL PUSH1 0x64 DUP3 ADD MSTORE PUSH1 0x84 ADD PUSH2 0x72B JUMP JUMPDEST PUSH1 0x0 DUP9 DUP2 MSTORE PUSH1 0x9 PUSH1 0x20 MSTORE PUSH1 0x40 DUP2 KECCAK256 DUP1 SLOAD SWAP2 PUSH2 0x965 DUP4 PUSH2 0x3B83 JUMP JUMPDEST SWAP1 SWAP2 SSTORE POP POP PUSH1 0x0 DUP9 DUP2 MSTORE PUSH1 0x9 PUSH1 0x20 MSTORE PUSH1 0x40 SWAP1 KECCAK256 SLOAD PUSH2 0x985 SWAP1 PUSH1 0x1 SWAP1 PUSH2 0x3AF4 JUMP JUMPDEST PUSH2 0x990 SWAP1 PUSH1 0x2 PUSH2 0x3A07 JUMP JUMPDEST PUSH2 0x99A SWAP1 DUP3 PUSH2 0x3AD5 JUMP JUMPDEST PUSH1 0x2 SLOAD PUSH1 0x3 DUP5 ADD SLOAD PUSH1 0x40 MLOAD PUSH4 0x137F0A8D PUSH1 0xE2 SHL DUP2 MSTORE PUSH1 0x1 PUSH1 0x1 PUSH1 0xA0 SHL SUB SWAP2 DUP3 AND PUSH1 0x4 DUP3 ADD MSTORE ADDRESS PUSH1 0x24 DUP3 ADD MSTORE SWAP3 SWAP4 POP AND SWAP1 PUSH4 0x4DFC2A34 SWAP1 PUSH1 0x44 ADD PUSH1 0x20 PUSH1 0x40 MLOAD DUP1 DUP4 SUB DUP2 PUSH1 0x0 DUP8 DUP1 EXTCODESIZE ISZERO DUP1 ISZERO PUSH2 0x9ED JUMPI PUSH1 0x0 DUP1 REVERT JUMPDEST POP GAS CALL ISZERO DUP1 ISZERO PUSH2 0xA01 JUMPI RETURNDATASIZE PUSH1 0x0 DUP1 RETURNDATACOPY RETURNDATASIZE PUSH1 0x0 REVERT JUMPDEST POP POP POP POP PUSH1 0x40 MLOAD RETURNDATASIZE PUSH1 0x1F NOT PUSH1 0x1F DUP3 ADD AND DUP3 ADD DUP1 PUSH1 0x40 MSTORE POP DUP2 ADD SWAP1 PUSH2 0xA25 SWAP2 SWAP1 PUSH2 0x358D JUMP JUMPDEST PUSH1 0x4 DUP4 DUP2 ADD SWAP2 SWAP1 SWAP2 SSTORE PUSH1 0x2 SLOAD PUSH1 0x40 MLOAD PUSH4 0xC5958AF9 PUSH1 0xE0 SHL DUP2 MSTORE SWAP2 DUP3 ADD DUP11 SWAP1 MSTORE PUSH1 0x24 DUP3 ADD DUP10 SWAP1 MSTORE PUSH1 0x1 PUSH1 0x1 PUSH1 0xA0 SHL SUB AND SWAP1 PUSH4 0xC5958AF9 SWAP1 PUSH1 0x44 ADD PUSH1 0x0 PUSH1 0x40 MLOAD DUP1 DUP4 SUB DUP2 DUP7 DUP1 EXTCODESIZE ISZERO DUP1 ISZERO PUSH2 0xA76 JUMPI PUSH1 0x0 DUP1 REVERT JUMPDEST POP GAS STATICCALL ISZERO DUP1 ISZERO PUSH2 0xA8A JUMPI RETURNDATASIZE PUSH1 0x0 DUP1 RETURNDATACOPY RETURNDATASIZE PUSH1 0x0 REVERT JUMPDEST POP POP POP POP PUSH1 0x40 MLOAD RETURNDATASIZE PUSH1 0x0 DUP3 RETURNDATACOPY PUSH1 0x1F RETURNDATASIZE SWAP1 DUP2 ADD PUSH1 0x1F NOT AND DUP3 ADD PUSH1 0x40 MSTORE PUSH2 0xAB2 SWAP2 SWAP1 DUP2 ADD SWAP1 PUSH2 0x35F7 JUMP JUMPDEST DUP1 MLOAD PUSH2 0xAC8 SWAP2 PUSH1 0x2 DUP6 ADD SWAP2 PUSH1 0x20 SWAP1 SWAP2 ADD SWAP1 PUSH2 0x310E JUMP JUMPDEST POP PUSH1 0x2 SLOAD PUSH1 0x40 MLOAD PUSH4 0x16D7B73F PUSH1 0xE2 SHL DUP2 MSTORE PUSH1 0x4 DUP2 ADD DUP11 SWAP1 MSTORE PUSH1 0x24 DUP2 ADD DUP10 SWAP1 MSTORE PUSH1 0x1 PUSH1 0x1 PUSH1 0xA0 SHL SUB SWAP1 SWAP2 AND SWAP1 PUSH4 0x5B5EDCFC SWAP1 PUSH1 0x44 ADD PUSH1 0x0 PUSH1 0x40 MLOAD DUP1 DUP4 SUB DUP2 PUSH1 0x0 DUP8 DUP1 EXTCODESIZE ISZERO DUP1 ISZERO PUSH2 0xB16 JUMPI PUSH1 0x0 DUP1 REVERT JUMPDEST POP GAS CALL ISZERO DUP1 ISZERO PUSH2 0xB2A JUMPI RETURNDATASIZE PUSH1 0x0 DUP1 RETURNDATACOPY RETURNDATASIZE PUSH1 0x0 REVERT JUMPDEST POP POP POP POP PUSH2 0xCC9 JUMP JUMPDEST DUP4 SLOAD PUSH1 0x0 SWAP1 DUP6 SWAP1 PUSH2 0xB46 SWAP1 PUSH1 0x2 SWAP1 PUSH2 0x3AF4 JUMP JUMPDEST DUP2 SLOAD DUP2 LT PUSH2 0xB64 JUMPI PUSH4 0x4E487B71 PUSH1 0xE0 SHL PUSH1 0x0 MSTORE PUSH1 0x32 PUSH1 0x4 MSTORE PUSH1 0x24 PUSH1 0x0 REVERT JUMPDEST SWAP1 PUSH1 0x0 MSTORE PUSH1 0x20 PUSH1 0x0 KECCAK256 ADD SLOAD SWAP1 POP PUSH3 0x15180 PUSH1 0xA PUSH1 0x0 DUP4 DUP2 MSTORE PUSH1 0x20 ADD SWAP1 DUP2 MSTORE PUSH1 0x20 ADD PUSH1 0x0 KECCAK256 PUSH1 0x5 ADD SLOAD TIMESTAMP PUSH2 0xB97 SWAP2 SWAP1 PUSH2 0x3AF4 JUMP JUMPDEST LT PUSH2 0xBFB JUMPI PUSH1 0x40 MLOAD PUSH3 0x461BCD PUSH1 0xE5 SHL DUP2 MSTORE PUSH1 0x20 PUSH1 0x4 DUP3 ADD MSTORE PUSH1 0x2E PUSH1 0x24 DUP3 ADD MSTORE PUSH32 0x4E6577206469737075746520726F756E64206D75737420626520737461727465 PUSH1 0x44 DUP3 ADD MSTORE PUSH14 0x642077697468696E206120646179 PUSH1 0x90 SHL PUSH1 0x64 DUP3 ADD MSTORE PUSH1 0x84 ADD PUSH2 0x72B JUMP JUMPDEST DUP5 SLOAD PUSH2 0xC09 SWAP1 PUSH1 0x1 SWAP1 PUSH2 0x3AF4 JUMP JUMPDEST PUSH2 0xC14 SWAP1 PUSH1 0x2 PUSH2 0x3A07 JUMP JUMPDEST PUSH2 0xC1E SWAP1 DUP4 PUSH2 0x3AD5 JUMP JUMPDEST SWAP2 POP PUSH1 0x8 PUSH1 0x0 DUP7 PUSH1 0x0 DUP2 SLOAD DUP2 LT PUSH2 0xC45 JUMPI PUSH4 0x4E487B71 PUSH1 0xE0 SHL PUSH1 0x0 MSTORE PUSH1 0x32 PUSH1 0x4 MSTORE PUSH1 0x24 PUSH1 0x0 REVERT JUMPDEST SWAP1 PUSH1 0x0 MSTORE PUSH1 0x20 PUSH1 0x0 KECCAK256 ADD SLOAD DUP2 MSTORE PUSH1 0x20 ADD SWAP1 DUP2 MSTORE PUSH1 0x20 ADD PUSH1 0x0 KECCAK256 PUSH1 0x4 ADD SLOAD DUP4 PUSH1 0x4 ADD DUP2 SWAP1 SSTORE POP PUSH1 0x8 PUSH1 0x0 DUP7 PUSH1 0x0 DUP2 SLOAD DUP2 LT PUSH2 0xC8F JUMPI PUSH4 0x4E487B71 PUSH1 0xE0 SHL PUSH1 0x0 MSTORE PUSH1 0x32 PUSH1 0x4 MSTORE PUSH1 0x24 PUSH1 0x0 REVERT JUMPDEST SWAP1 PUSH1 0x0 MSTORE PUSH1 0x20 PUSH1 0x0 KECCAK256 ADD SLOAD DUP2 MSTORE PUSH1 0x20 ADD SWAP1 DUP2 MSTORE PUSH1 0x20 ADD PUSH1 0x0 KECCAK256 PUSH1 0x2 ADD DUP4 PUSH1 0x2 ADD SWAP1 DUP1 SLOAD PUSH2 0xCBB SWAP1 PUSH2 0x3B4E JUMP JUMPDEST PUSH2 0xCC6 SWAP3 SWAP2 SWAP1 PUSH2 0x3192 JUMP JUMPDEST POP POP JUMPDEST PUSH1 0x2 PUSH1 0x0 SWAP1 SLOAD SWAP1 PUSH2 0x100 EXP SWAP1 DIV PUSH1 0x1 PUSH1 0x1 PUSH1 0xA0 SHL SUB AND PUSH1 0x1 PUSH1 0x1 PUSH1 0xA0 SHL SUB AND PUSH4 0x722580B6 PUSH1 0x40 MLOAD DUP2 PUSH4 0xFFFFFFFF AND PUSH1 0xE0 SHL DUP2 MSTORE PUSH1 0x4 ADD PUSH1 0x20 PUSH1 0x40 MLOAD DUP1 DUP4 SUB DUP2 DUP7 DUP1 EXTCODESIZE ISZERO DUP1 ISZERO PUSH2 0xD17 JUMPI PUSH1 0x0 DUP1 REVERT JUMPDEST POP GAS STATICCALL ISZERO DUP1 ISZERO PUSH2 0xD2B JUMPI RETURNDATASIZE PUSH1 0x0 DUP1 RETURNDATACOPY RETURNDATASIZE PUSH1 0x0 REVERT JUMPDEST POP POP POP POP PUSH1 0x40 MLOAD RETURNDATASIZE PUSH1 0x1F NOT PUSH1 0x1F DUP3 ADD AND DUP3 ADD DUP1 PUSH1 0x40 MSTORE POP DUP2 ADD SWAP1 PUSH2 0xD4F SWAP2 SWAP1 PUSH2 0x358D JUMP JUMPDEST DUP2 GT ISZERO PUSH2 0xDDF JUMPI PUSH1 0x2 PUSH1 0x0 SWAP1 SLOAD SWAP1 PUSH2 0x100 EXP SWAP1 DIV PUSH1 0x1 PUSH1 0x1 PUSH1 0xA0 SHL SUB AND PUSH1 0x1 PUSH1 0x1 PUSH1 0xA0 SHL SUB AND PUSH4 0x722580B6 PUSH1 0x40 MLOAD DUP2 PUSH4 0xFFFFFFFF AND PUSH1 0xE0 SHL DUP2 MSTORE PUSH1 0x4 ADD PUSH1 0x20 PUSH1 0x40 MLOAD DUP1 DUP4 SUB DUP2 DUP7 DUP1 EXTCODESIZE ISZERO DUP1 ISZERO PUSH2 0xDA4 JUMPI PUSH1 0x0 DUP1 REVERT JUMPDEST POP GAS STATICCALL ISZERO DUP1 ISZERO PUSH2 0xDB8 JUMPI RETURNDATASIZE PUSH1 0x0 DUP1 RETURNDATACOPY RETURNDATASIZE PUSH1 0x0 REVERT JUMPDEST POP POP POP POP PUSH1 0x40 MLOAD RETURNDATASIZE PUSH1 0x1F NOT PUSH1 0x1F DUP3 ADD AND DUP3 ADD DUP1 PUSH1 0x40 MSTORE POP DUP2 ADD SWAP1 PUSH2 0xDDC SWAP2 SWAP1 PUSH2 0x358D JUMP JUMPDEST SWAP1 POP JUMPDEST PUSH1 0x4 DUP4 ADD DUP2 SWAP1 SSTORE PUSH1 0x6 DUP1 SLOAD SWAP1 PUSH1 0x0 PUSH2 0xDF6 DUP4 PUSH2 0x3B83 JUMP JUMPDEST SWAP1 SWAP2 SSTORE POP POP PUSH1 0x3 SLOAD PUSH1 0x40 MLOAD PUSH4 0x23B872DD PUSH1 0xE0 SHL DUP2 MSTORE CALLER PUSH1 0x4 DUP3 ADD MSTORE ADDRESS PUSH1 0x24 DUP3 ADD MSTORE PUSH1 0x44 DUP2 ADD DUP4 SWAP1 MSTORE PUSH1 0x1 PUSH1 0x1 PUSH1 0xA0 SHL SUB SWAP1 SWAP2 AND SWAP1 PUSH4 0x23B872DD SWAP1 PUSH1 0x64 ADD PUSH1 0x20 PUSH1 0x40 MLOAD DUP1 DUP4 SUB DUP2 PUSH1 0x0 DUP8 DUP1 EXTCODESIZE ISZERO DUP1 ISZERO PUSH2 0xE4D JUMPI PUSH1 0x0 DUP1 REVERT JUMPDEST POP GAS CALL ISZERO DUP1 ISZERO PUSH2 0xE61 JUMPI RETURNDATASIZE PUSH1 0x0 DUP1 RETURNDATACOPY RETURNDATASIZE PUSH1 0x0 REVERT JUMPDEST POP POP POP POP PUSH1 0x40 MLOAD RETURNDATASIZE PUSH1 0x1F NOT PUSH1 0x1F DUP3 ADD AND DUP3 ADD DUP1 PUSH1 0x40 MSTORE POP DUP2 ADD SWAP1 PUSH2 0xE85 SWAP2 SWAP1 PUSH2 0x34D4 JUMP JUMPDEST PUSH2 0xEC4 JUMPI PUSH1 0x40 MLOAD PUSH3 0x461BCD PUSH1 0xE5 SHL DUP2 MSTORE PUSH1 0x20 PUSH1 0x4 DUP3 ADD MSTORE PUSH1 0x10 PUSH1 0x24 DUP3 ADD MSTORE PUSH16 0x119959481B5D5CDD081899481C185A59 PUSH1 0x82 SHL PUSH1 0x44 DUP3 ADD MSTORE PUSH1 0x64 ADD PUSH2 0x72B JUMP JUMPDEST PUSH1 0x3 DUP3 ADD SLOAD PUSH1 0x40 DUP1 MLOAD DUP8 DUP2 MSTORE PUSH1 0x20 DUP2 ADD DUP12 SWAP1 MSTORE DUP1 DUP3 ADD DUP11 SWAP1 MSTORE PUSH1 0x1 PUSH1 0x1 PUSH1 0xA0 SHL SUB SWAP1 SWAP3 AND PUSH1 0x60 DUP4 ADD MSTORE MLOAD PUSH32 0x12B7317353CD7CAA8EAE8057464E3DE356C1429D814FB3421797ECCB19043044 SWAP2 DUP2 SWAP1 SUB PUSH1 0x80 ADD SWAP1 LOG1 POP POP POP POP POP POP POP POP JUMP JUMPDEST PUSH1 0x0 DUP2 DUP2 MSTORE PUSH1 0xB PUSH1 0x20 SWAP1 DUP2 MSTORE PUSH1 0x40 SWAP2 DUP3 SWAP1 KECCAK256 DUP1 SLOAD DUP4 MLOAD DUP2 DUP5 MUL DUP2 ADD DUP5 ADD SWAP1 SWAP5 MSTORE DUP1 DUP5 MSTORE PUSH1 0x60 SWAP4 SWAP3 DUP4 ADD DUP3 DUP3 DUP1 ISZERO PUSH2 0xF78 JUMPI PUSH1 0x20 MUL DUP3 ADD SWAP2 SWAP1 PUSH1 0x0 MSTORE PUSH1 0x20 PUSH1 0x0 KECCAK256 SWAP1 JUMPDEST DUP2 SLOAD DUP2 MSTORE PUSH1 0x20 ADD SWAP1 PUSH1 0x1 ADD SWAP1 DUP1 DUP4 GT PUSH2 0xF64 JUMPI JUMPDEST POP POP POP POP POP SWAP1 POP SWAP2 SWAP1 POP JUMP JUMPDEST PUSH1 0x0 DUP1 SLOAD PUSH1 0x40 MLOAD PUSH4 0x29449085 PUSH1 0xE0 SHL DUP2 MSTORE PUSH1 0x4 DUP2 ADD DUP6 SWAP1 MSTORE PUSH1 0x24 DUP2 ADD DUP5 SWAP1 MSTORE DUP3 SWAP2 PUSH1 0x1 PUSH1 0x1 PUSH1 0xA0 SHL SUB AND SWAP1 PUSH4 0x29449085 SWAP1 PUSH1 0x44 ADD PUSH1 0x40 DUP1 MLOAD DUP1 DUP4 SUB DUP2 DUP7 DUP1 EXTCODESIZE ISZERO DUP1 ISZERO PUSH2 0xFCF JUMPI PUSH1 0x0 DUP1 REVERT JUMPDEST POP GAS STATICCALL ISZERO DUP1 ISZERO PUSH2 0xFE3 JUMPI RETURNDATASIZE PUSH1 0x0 DUP1 RETURNDATACOPY RETURNDATASIZE PUSH1 0x0 REVERT JUMPDEST POP POP POP POP PUSH1 0x40 MLOAD RETURNDATASIZE PUSH1 0x1F NOT PUSH1 0x1F DUP3 ADD AND DUP3 ADD DUP1 PUSH1 0x40 MSTORE POP DUP2 ADD SWAP1 PUSH2 0x1007 SWAP2 SWAP1 PUSH2 0x3548 JUMP JUMPDEST SWAP2 POP SWAP2 POP JUMPDEST SWAP3 POP SWAP3 SWAP1 POP JUMP JUMPDEST PUSH1 0x0 DUP1 SLOAD PUSH1 0x40 MLOAD PUSH4 0x44E87F91 PUSH1 0xE0 SHL DUP2 MSTORE PUSH1 0x4 DUP2 ADD DUP6 SWAP1 MSTORE PUSH1 0x24 DUP2 ADD DUP5 SWAP1 MSTORE PUSH1 0x1 PUSH1 0x1 PUSH1 0xA0 SHL SUB SWAP1 SWAP2 AND SWAP1 PUSH4 0x44E87F91 SWAP1 PUSH1 0x44 ADD PUSH1 0x20 PUSH1 0x40 MLOAD DUP1 DUP4 SUB DUP2 DUP7 DUP1 EXTCODESIZE ISZERO DUP1 ISZERO PUSH2 0x105F JUMPI PUSH1 0x0 DUP1 REVERT JUMPDEST POP GAS STATICCALL ISZERO DUP1 ISZERO PUSH2 0x1073 JUMPI RETURNDATASIZE PUSH1 0x0 DUP1 RETURNDATACOPY RETURNDATASIZE PUSH1 0x0 REVERT JUMPDEST POP POP POP POP PUSH1 0x40 MLOAD RETURNDATASIZE PUSH1 0x1F NOT PUSH1 0x1F DUP3 ADD AND DUP3 ADD DUP1 PUSH1 0x40 MSTORE POP DUP2 ADD SWAP1 PUSH2 0x1097 SWAP2 SWAP1 PUSH2 0x34D4 JUMP JUMPDEST SWAP4 SWAP3 POP POP POP JUMP JUMPDEST PUSH1 0x0 DUP2 DUP2 MSTORE PUSH1 0xA PUSH1 0x20 MSTORE PUSH1 0x40 SWAP1 KECCAK256 PUSH1 0x5 DUP2 ADD SLOAD ISZERO PUSH2 0x10FE JUMPI PUSH1 0x40 MLOAD PUSH3 0x461BCD PUSH1 0xE5 SHL DUP2 MSTORE PUSH1 0x20 PUSH1 0x4 DUP3 ADD MSTORE PUSH1 0x1D PUSH1 0x24 DUP3 ADD MSTORE PUSH32 0x566F74652068617320616C7265616479206265656E2074616C6C696564000000 PUSH1 0x44 DUP3 ADD MSTORE PUSH1 0x64 ADD PUSH2 0x72B JUMP JUMPDEST PUSH1 0x6 SLOAD DUP3 GT ISZERO DUP1 ISZERO PUSH2 0x1110 JUMPI POP PUSH1 0x0 DUP3 GT JUMPDEST PUSH2 0x1152 JUMPI PUSH1 0x40 MLOAD PUSH3 0x461BCD PUSH1 0xE5 SHL DUP2 MSTORE PUSH1 0x20 PUSH1 0x4 DUP3 ADD MSTORE PUSH1 0x13 PUSH1 0x24 DUP3 ADD MSTORE PUSH19 0x159BDD1948191BD95CC81B9BDD08195E1A5CDD PUSH1 0x6A SHL PUSH1 0x44 DUP3 ADD MSTORE PUSH1 0x64 ADD PUSH2 0x72B JUMP JUMPDEST PUSH1 0x1 DUP2 ADD SLOAD PUSH2 0x1164 SWAP1 PUSH3 0x15180 PUSH2 0x3AD5 JUMP JUMPDEST PUSH1 0x2 DUP3 ADD SLOAD PUSH2 0x1173 SWAP1 TIMESTAMP PUSH2 0x3AF4 JUMP JUMPDEST LT ISZERO DUP1 PUSH2 0x1192 JUMPI POP PUSH3 0x7E900 DUP2 PUSH1 0x2 ADD SLOAD TIMESTAMP PUSH2 0x118F SWAP2 SWAP1 PUSH2 0x3AF4 JUMP JUMPDEST LT ISZERO JUMPDEST PUSH2 0x11DE JUMPI PUSH1 0x40 MLOAD PUSH3 0x461BCD PUSH1 0xE5 SHL DUP2 MSTORE PUSH1 0x20 PUSH1 0x4 DUP3 ADD MSTORE PUSH1 0x1F PUSH1 0x24 DUP3 ADD MSTORE PUSH32 0x54696D6520666F7220766F74696E6720686173206E6F7420656C617073656400 PUSH1 0x44 DUP3 ADD MSTORE PUSH1 0x64 ADD PUSH2 0x72B JUMP JUMPDEST PUSH1 0x8 DUP2 ADD SLOAD PUSH1 0x7 DUP3 ADD SLOAD PUSH1 0x6 DUP4 ADD SLOAD PUSH1 0x0 SWAP3 SWAP2 PUSH2 0x11FA SWAP2 PUSH2 0x3992 JUMP JUMPDEST PUSH2 0x1204 SWAP2 SWAP1 PUSH2 0x3992 JUMP JUMPDEST PUSH1 0xE DUP4 ADD SLOAD PUSH1 0xD DUP5 ADD SLOAD PUSH1 0xC DUP6 ADD SLOAD SWAP3 SWAP4 POP PUSH1 0x0 SWAP3 PUSH2 0x1223 SWAP2 SWAP1 PUSH2 0x3992 JUMP JUMPDEST PUSH2 0x122D SWAP2 SWAP1 PUSH2 0x3992 JUMP JUMPDEST PUSH1 0x11 DUP5 ADD SLOAD PUSH1 0x10 DUP6 ADD SLOAD PUSH1 0xF DUP7 ADD SLOAD SWAP3 SWAP4 POP PUSH1 0x0 SWAP3 PUSH2 0x124C SWAP2 SWAP1 PUSH2 0x3992 JUMP JUMPDEST PUSH2 0x1256 SWAP2 SWAP1 PUSH2 0x3992 JUMP JUMPDEST PUSH1 0xB DUP6 ADD SLOAD PUSH1 0xA DUP7 ADD SLOAD PUSH1 0x9 DUP8 ADD SLOAD SWAP3 SWAP4 POP PUSH1 0x0 SWAP3 PUSH2 0x1275 SWAP2 SWAP1 PUSH2 0x3992 JUMP JUMPDEST PUSH2 0x127F SWAP2 SWAP1 PUSH2 0x3992 JUMP JUMPDEST SWAP1 POP DUP4 PUSH2 0x1294 JUMPI DUP4 PUSH2 0x1290 DUP2 PUSH2 0x3B83 JUMP JUMPDEST SWAP5 POP POP JUMPDEST DUP3 PUSH2 0x12A7 JUMPI DUP3 PUSH2 0x12A3 DUP2 PUSH2 0x3B83 JUMP JUMPDEST SWAP4 POP POP JUMPDEST DUP2 PUSH2 0x12BA JUMPI DUP2 PUSH2 0x12B6 DUP2 PUSH2 0x3B83 JUMP JUMPDEST SWAP3 POP POP JUMPDEST DUP1 PUSH2 0x12CD JUMPI DUP1 PUSH2 0x12C9 DUP2 PUSH2 0x3B83 JUMP JUMPDEST SWAP2 POP POP JUMPDEST PUSH1 0x9 DUP6 ADD SLOAD PUSH1 0x0 SWAP1 DUP3 SWAP1 PUSH2 0x12E9 SWAP1 PUSH8 0xDE0B6B3A7640000 PUSH2 0x3AD5 JUMP JUMPDEST PUSH2 0x12F3 SWAP2 SWAP1 PUSH2 0x39AA JUMP JUMPDEST PUSH1 0xF DUP8 ADD SLOAD DUP5 SWAP1 PUSH2 0x130C SWAP1 PUSH8 0xDE0B6B3A7640000 PUSH2 0x3AD5 JUMP JUMPDEST PUSH2 0x1316 SWAP2 SWAP1 PUSH2 0x39AA JUMP JUMPDEST PUSH1 0xC DUP9 ADD SLOAD DUP7 SWAP1 PUSH2 0x132F SWAP1 PUSH8 0xDE0B6B3A7640000 PUSH2 0x3AD5 JUMP JUMPDEST PUSH2 0x1339 SWAP2 SWAP1 PUSH2 0x39AA JUMP JUMPDEST PUSH1 0x6 DUP10 ADD SLOAD DUP9 SWAP1 PUSH2 0x1352 SWAP1 PUSH8 0xDE0B6B3A7640000 PUSH2 0x3AD5 JUMP JUMPDEST PUSH2 0x135C SWAP2 SWAP1 PUSH2 0x39AA JUMP JUMPDEST PUSH2 0x1366 SWAP2 SWAP1 PUSH2 0x3992 JUMP JUMPDEST PUSH2 0x1370 SWAP2 SWAP1 PUSH2 0x3992 JUMP JUMPDEST PUSH2 0x137A SWAP2 SWAP1 PUSH2 0x3992 JUMP JUMPDEST SWAP1 POP PUSH1 0x0 DUP3 DUP8 PUSH1 0x9 ADD PUSH1 0x1 ADD SLOAD PUSH8 0xDE0B6B3A7640000 PUSH2 0x139A SWAP2 SWAP1 PUSH2 0x3AD5 JUMP JUMPDEST PUSH2 0x13A4 SWAP2 SWAP1 PUSH2 0x39AA JUMP JUMPDEST PUSH1 0x10 DUP9 ADD SLOAD DUP6 SWAP1 PUSH2 0x13BD SWAP1 PUSH8 0xDE0B6B3A7640000 PUSH2 0x3AD5 JUMP JUMPDEST PUSH2 0x13C7 SWAP2 SWAP1 PUSH2 0x39AA JUMP JUMPDEST PUSH1 0xD DUP10 ADD SLOAD DUP8 SWAP1 PUSH2 0x13E0 SWAP1 PUSH8 0xDE0B6B3A7640000 PUSH2 0x3AD5 JUMP JUMPDEST PUSH2 0x13EA SWAP2 SWAP1 PUSH2 0x39AA JUMP JUMPDEST PUSH1 0x7 DUP11 ADD SLOAD DUP10 SWAP1 PUSH2 0x1403 SWAP1 PUSH8 0xDE0B6B3A7640000 PUSH2 0x3AD5 JUMP JUMPDEST PUSH2 0x140D SWAP2 SWAP1 PUSH2 0x39AA JUMP JUMPDEST PUSH2 0x1417 SWAP2 SWAP1 PUSH2 0x3992 JUMP JUMPDEST PUSH2 0x1421 SWAP2 SWAP1 PUSH2 0x3992 JUMP JUMPDEST PUSH2 0x142B SWAP2 SWAP1 PUSH2 0x3992 JUMP JUMPDEST SWAP1 POP PUSH1 0x0 DUP4 DUP9 PUSH1 0x9 ADD PUSH1 0x2 ADD SLOAD PUSH8 0xDE0B6B3A7640000 PUSH2 0x144B SWAP2 SWAP1 PUSH2 0x3AD5 JUMP JUMPDEST PUSH2 0x1455 SWAP2 SWAP1 PUSH2 0x39AA JUMP JUMPDEST PUSH1 0x11 DUP10 ADD SLOAD DUP7 SWAP1 PUSH2 0x146E SWAP1 PUSH8 0xDE0B6B3A7640000 PUSH2 0x3AD5 JUMP JUMPDEST PUSH2 0x1478 SWAP2 SWAP1 PUSH2 0x39AA JUMP JUMPDEST PUSH1 0xE DUP11 ADD SLOAD DUP9 SWAP1 PUSH2 0x1491 SWAP1 PUSH8 0xDE0B6B3A7640000 PUSH2 0x3AD5 JUMP JUMPDEST PUSH2 0x149B SWAP2 SWAP1 PUSH2 0x39AA JUMP JUMPDEST PUSH1 0x8 DUP12 ADD SLOAD DUP11 SWAP1 PUSH2 0x14B4 SWAP1 PUSH8 0xDE0B6B3A7640000 PUSH2 0x3AD5 JUMP JUMPDEST PUSH2 0x14BE SWAP2 SWAP1 PUSH2 0x39AA JUMP JUMPDEST PUSH2 0x14C8 SWAP2 SWAP1 PUSH2 0x3992 JUMP JUMPDEST PUSH2 0x14D2 SWAP2 SWAP1 PUSH2 0x3992 JUMP JUMPDEST PUSH2 0x14DC SWAP2 SWAP1 PUSH2 0x3992 JUMP JUMPDEST SWAP1 POP PUSH2 0x14E8 DUP2 DUP4 PUSH2 0x3992 JUMP JUMPDEST DUP4 GT ISZERO PUSH2 0x150D JUMPI PUSH1 0x12 DUP9 ADD DUP1 SLOAD PUSH1 0x1 SWAP2 SWAP1 PUSH2 0xFF00 NOT AND PUSH2 0x100 DUP4 JUMPDEST MUL OR SWAP1 SSTORE POP PUSH2 0x1548 JUMP JUMPDEST PUSH2 0x1517 DUP2 DUP5 PUSH2 0x3992 JUMP JUMPDEST DUP3 GT ISZERO PUSH2 0x1536 JUMPI PUSH1 0x12 DUP9 ADD DUP1 SLOAD PUSH1 0x0 SWAP2 SWAP1 PUSH2 0xFF00 NOT AND PUSH2 0x100 DUP4 PUSH2 0x1503 JUMP JUMPDEST PUSH1 0x12 DUP9 ADD DUP1 SLOAD PUSH2 0xFF00 NOT AND PUSH2 0x200 OR SWAP1 SSTORE JUMPDEST TIMESTAMP PUSH1 0x5 DUP10 ADD SSTORE PUSH1 0x12 DUP9 ADD SLOAD PUSH1 0x0 DUP11 DUP2 MSTORE PUSH1 0x8 PUSH1 0x20 MSTORE PUSH1 0x40 SWAP1 DUP2 SWAP1 KECCAK256 PUSH1 0x3 ADD SLOAD SWAP1 MLOAD PUSH32 0xA2D4E500801849D40AD00F0F12BA92A5263F83EC68946E647BE95CFBE581C7B6 SWAP3 PUSH2 0x15B3 SWAP3 DUP14 SWAP3 PUSH1 0xFF PUSH2 0x100 DUP5 DIV AND SWAP3 PUSH1 0x1 PUSH1 0x1 PUSH1 0xA0 SHL SUB PUSH3 0x10000 SWAP1 SWAP2 DIV DUP2 AND SWAP3 AND SWAP1 PUSH2 0x3907 JUMP JUMPDEST PUSH1 0x40 MLOAD DUP1 SWAP2 SUB SWAP1 LOG1 POP POP POP POP POP POP POP POP POP JUMP JUMPDEST PUSH1 0x1 PUSH1 0x1 PUSH1 0xA0 SHL SUB DUP2 AND PUSH1 0x0 SWAP1 DUP2 MSTORE PUSH1 0xD PUSH1 0x20 SWAP1 DUP2 MSTORE PUSH1 0x40 SWAP2 DUP3 SWAP1 KECCAK256 DUP1 SLOAD DUP4 MLOAD DUP2 DUP5 MUL DUP2 ADD DUP5 ADD SWAP1 SWAP5 MSTORE DUP1 DUP5 MSTORE PUSH1 0x60 SWAP4 SWAP3 DUP4 ADD DUP3 DUP3 DUP1 ISZERO PUSH2 0xF78 JUMPI PUSH1 0x20 MUL DUP3 ADD SWAP2 SWAP1 PUSH1 0x0 MSTORE PUSH1 0x20 PUSH1 0x0 KECCAK256 SWAP1 DUP2 SLOAD DUP2 MSTORE PUSH1 0x20 ADD SWAP1 PUSH1 0x1 ADD SWAP1 DUP1 DUP4 GT PUSH2 0xF64 JUMPI POP POP POP POP POP SWAP1 POP SWAP2 SWAP1 POP JUMP JUMPDEST PUSH1 0x0 DUP2 DUP2 MSTORE PUSH1 0x8 PUSH1 0x20 MSTORE PUSH1 0x40 DUP2 KECCAK256 DUP1 SLOAD PUSH1 0x1 DUP3 ADD SLOAD PUSH1 0x3 DUP4 ADD SLOAD PUSH1 0x2 DUP5 ADD DUP1 SLOAD DUP7 SWAP6 PUSH1 0x60 SWAP6 DUP8 SWAP6 SWAP2 SWAP5 SWAP1 SWAP4 SWAP2 SWAP3 PUSH1 0x1 PUSH1 0x1 PUSH1 0xA0 SHL SUB SWAP1 SWAP2 AND SWAP1 DUP3 SWAP1 PUSH2 0x1674 SWAP1 PUSH2 0x3B4E JUMP JUMPDEST DUP1 PUSH1 0x1F ADD PUSH1 0x20 DUP1 SWAP2 DIV MUL PUSH1 0x20 ADD PUSH1 0x40 MLOAD SWAP1 DUP2 ADD PUSH1 0x40 MSTORE DUP1 SWAP3 SWAP2 SWAP1 DUP2 DUP2 MSTORE PUSH1 0x20 ADD DUP3 DUP1 SLOAD PUSH2 0x16A0 SWAP1 PUSH2 0x3B4E JUMP JUMPDEST DUP1 ISZERO PUSH2 0x16ED JUMPI DUP1 PUSH1 0x1F LT PUSH2 0x16C2 JUMPI PUSH2 0x100 DUP1 DUP4 SLOAD DIV MUL DUP4 MSTORE SWAP2 PUSH1 0x20 ADD SWAP2 PUSH2 0x16ED JUMP JUMPDEST DUP3 ADD SWAP2 SWAP1 PUSH1 0x0 MSTORE PUSH1 0x20 PUSH1 0x0 KECCAK256 SWAP1 JUMPDEST DUP2 SLOAD DUP2 MSTORE SWAP1 PUSH1 0x1 ADD SWAP1 PUSH1 0x20 ADD DUP1 DUP4 GT PUSH2 0x16D0 JUMPI DUP3 SWAP1 SUB PUSH1 0x1F AND DUP3 ADD SWAP2 JUMPDEST POP POP POP POP POP SWAP2 POP SWAP5 POP SWAP5 POP SWAP5 POP SWAP5 POP POP SWAP2 SWAP4 POP SWAP2 SWAP4 JUMP JUMPDEST PUSH1 0x60 PUSH1 0x0 DUP1 PUSH1 0x0 PUSH2 0x1715 DUP7 DUP7 PUSH2 0x2181 JUMP JUMPDEST SWAP2 POP SWAP2 POP DUP2 PUSH2 0x173C JUMPI PUSH1 0x0 PUSH1 0x40 MLOAD DUP1 PUSH1 0x20 ADD PUSH1 0x40 MSTORE DUP1 PUSH1 0x0 DUP2 MSTORE POP SWAP1 SWAP4 POP SWAP4 POP POP POP PUSH2 0x100C JUMP JUMPDEST PUSH2 0x1746 DUP7 DUP3 PUSH2 0x1A9C JUMP JUMPDEST SWAP3 POP PUSH2 0x1752 DUP7 DUP5 PUSH2 0x1A14 JUMP JUMPDEST SWAP4 POP POP POP SWAP3 POP SWAP3 SWAP1 POP JUMP JUMPDEST PUSH1 0x0 DUP1 SLOAD PUSH1 0x40 MLOAD PUSH4 0x77B03E0D PUSH1 0xE0 SHL DUP2 MSTORE PUSH1 0x4 DUP2 ADD DUP5 SWAP1 MSTORE PUSH1 0x1 PUSH1 0x1 PUSH1 0xA0 SHL SUB SWAP1 SWAP2 AND SWAP1 PUSH4 0x77B03E0D SWAP1 PUSH1 0x24 ADD PUSH1 0x20 PUSH1 0x40 MLOAD DUP1 DUP4 SUB DUP2 DUP7 DUP1 EXTCODESIZE ISZERO DUP1 ISZERO PUSH2 0x17A2 JUMPI PUSH1 0x0 DUP1 REVERT JUMPDEST POP GAS STATICCALL ISZERO DUP1 ISZERO PUSH2 0x17B6 JUMPI RETURNDATASIZE PUSH1 0x0 DUP1 RETURNDATACOPY RETURNDATASIZE PUSH1 0x0 REVERT JUMPDEST POP POP POP POP PUSH1 0x40 MLOAD RETURNDATASIZE PUSH1 0x1F NOT PUSH1 0x1F DUP3 ADD AND DUP3 ADD DUP1 PUSH1 0x40 MSTORE POP DUP2 ADD SWAP1 PUSH2 0x17DA SWAP2 SWAP1 PUSH2 0x358D JUMP JUMPDEST SWAP3 SWAP2 POP POP JUMP JUMPDEST PUSH1 0x0 PUSH2 0x17EA PUSH2 0x320D JUMP JUMPDEST POP POP PUSH1 0x0 SWAP1 DUP2 MSTORE PUSH1 0xA PUSH1 0x20 DUP2 DUP2 MSTORE PUSH1 0x40 SWAP3 DUP4 SWAP1 KECCAK256 DUP1 SLOAD DUP5 MLOAD PUSH2 0x220 DUP2 ADD DUP7 MSTORE PUSH1 0x1 DUP4 ADD SLOAD DUP2 MSTORE PUSH1 0x2 DUP4 ADD SLOAD SWAP4 DUP2 ADD SWAP4 SWAP1 SWAP4 MSTORE PUSH1 0x3 DUP3 ADD SLOAD SWAP5 DUP4 ADD SWAP5 SWAP1 SWAP5 MSTORE PUSH1 0x4 DUP2 ADD SLOAD PUSH1 0x60 DUP4 ADD MSTORE PUSH1 0x5 DUP2 ADD SLOAD PUSH1 0x80 DUP4 ADD MSTORE PUSH1 0x6 DUP2 ADD SLOAD PUSH1 0xA0 DUP4 ADD MSTORE PUSH1 0x7 DUP2 ADD SLOAD PUSH1 0xC0 DUP4 ADD MSTORE PUSH1 0x8 DUP2 ADD SLOAD PUSH1 0xE0 DUP4 ADD MSTORE PUSH1 0x9 DUP2 ADD SLOAD PUSH2 0x100 DUP1 DUP5 ADD SWAP2 SWAP1 SWAP2 MSTORE SWAP3 DUP2 ADD SLOAD PUSH2 0x120 DUP4 ADD MSTORE PUSH1 0xB DUP2 ADD SLOAD PUSH2 0x140 DUP4 ADD MSTORE PUSH1 0xC DUP2 ADD SLOAD PUSH2 0x160 DUP4 ADD MSTORE PUSH1 0xD DUP2 ADD SLOAD PUSH2 0x180 DUP4 ADD MSTORE PUSH1 0xE DUP2 ADD SLOAD PUSH2 0x1A0 DUP4 ADD MSTORE PUSH1 0xF DUP2 ADD SLOAD PUSH2 0x1C0 DUP4 ADD MSTORE PUSH1 0x10 DUP2 ADD SLOAD PUSH2 0x1E0 DUP4 ADD MSTORE PUSH1 0x11 DUP2 ADD SLOAD PUSH2 0x200 DUP4 ADD MSTORE PUSH1 0x12 ADD SLOAD SWAP3 SWAP4 SWAP1 SWAP3 PUSH1 0xFF DUP1 DUP3 AND SWAP4 DUP3 DIV AND SWAP2 PUSH3 0x10000 SWAP1 SWAP2 DIV PUSH1 0x1 PUSH1 0x1 PUSH1 0xA0 SHL SUB AND SWAP1 JUMP JUMPDEST PUSH1 0x0 DUP1 SLOAD PUSH1 0x40 MLOAD PUSH4 0xA792765F PUSH1 0xE0 SHL DUP2 MSTORE PUSH1 0x4 DUP2 ADD DUP6 SWAP1 MSTORE PUSH1 0x24 DUP2 ADD DUP5 SWAP1 MSTORE PUSH1 0x60 SWAP3 SWAP2 PUSH1 0x1 PUSH1 0x1 PUSH1 0xA0 SHL SUB AND SWAP1 PUSH4 0xA792765F SWAP1 PUSH1 0x44 ADD PUSH1 0x0 PUSH1 0x40 MLOAD DUP1 DUP4 SUB DUP2 DUP7 DUP1 EXTCODESIZE ISZERO DUP1 ISZERO PUSH2 0x1933 JUMPI PUSH1 0x0 DUP1 REVERT JUMPDEST POP GAS STATICCALL ISZERO DUP1 ISZERO PUSH2 0x1947 JUMPI RETURNDATASIZE PUSH1 0x0 DUP1 RETURNDATACOPY RETURNDATASIZE PUSH1 0x0 REVERT JUMPDEST POP POP POP POP PUSH1 0x40 MLOAD RETURNDATASIZE PUSH1 0x0 DUP3 RETURNDATACOPY PUSH1 0x1F RETURNDATASIZE SWAP1 DUP2 ADD PUSH1 0x1F NOT AND DUP3 ADD PUSH1 0x40 MSTORE PUSH2 0x196F SWAP2 SWAP1 DUP2 ADD SWAP1 PUSH2 0x34F0 JUMP JUMPDEST SWAP1 SWAP7 SWAP1 SWAP6 POP SWAP4 POP POP POP POP JUMP JUMPDEST PUSH1 0x0 PUSH1 0xA PUSH1 0x2 PUSH1 0x0 SWAP1 SLOAD SWAP1 PUSH2 0x100 EXP SWAP1 DIV PUSH1 0x1 PUSH1 0x1 PUSH1 0xA0 SHL SUB AND PUSH1 0x1 PUSH1 0x1 PUSH1 0xA0 SHL SUB AND PUSH4 0x722580B6 PUSH1 0x40 MLOAD DUP2 PUSH4 0xFFFFFFFF AND PUSH1 0xE0 SHL DUP2 MSTORE PUSH1 0x4 ADD PUSH1 0x20 PUSH1 0x40 MLOAD DUP1 DUP4 SUB DUP2 DUP7 DUP1 EXTCODESIZE ISZERO DUP1 ISZERO PUSH2 0x19CD JUMPI PUSH1 0x0 DUP1 REVERT JUMPDEST POP GAS STATICCALL ISZERO DUP1 ISZERO PUSH2 0x19E1 JUMPI RETURNDATASIZE PUSH1 0x0 DUP1 RETURNDATACOPY RETURNDATASIZE PUSH1 0x0 REVERT JUMPDEST POP POP POP POP PUSH1 0x40 MLOAD RETURNDATASIZE PUSH1 0x1F NOT PUSH1 0x1F DUP3 ADD AND DUP3 ADD DUP1 PUSH1 0x40 MSTORE POP DUP2 ADD SWAP1 PUSH2 0x1A05 SWAP2 SWAP1 PUSH2 0x358D JUMP JUMPDEST PUSH2 0x1A0F SWAP2 SWAP1 PUSH2 0x39AA JUMP JUMPDEST SWAP1 POP SWAP1 JUMP JUMPDEST PUSH1 0x0 SLOAD PUSH1 0x40 MLOAD PUSH4 0xC5958AF9 PUSH1 0xE0 SHL DUP2 MSTORE PUSH1 0x4 DUP2 ADD DUP5 SWAP1 MSTORE PUSH1 0x24 DUP2 ADD DUP4 SWAP1 MSTORE PUSH1 0x60 SWAP2 PUSH1 0x1 PUSH1 0x1 PUSH1 0xA0 SHL SUB AND SWAP1 PUSH4 0xC5958AF9 SWAP1 PUSH1 0x44 ADD PUSH1 0x0 PUSH1 0x40 MLOAD DUP1 DUP4 SUB DUP2 DUP7 DUP1 EXTCODESIZE ISZERO DUP1 ISZERO PUSH2 0x1A60 JUMPI PUSH1 0x0 DUP1 REVERT JUMPDEST POP GAS STATICCALL ISZERO DUP1 ISZERO PUSH2 0x1A74 JUMPI RETURNDATASIZE PUSH1 0x0 DUP1 RETURNDATACOPY RETURNDATASIZE PUSH1 0x0 REVERT JUMPDEST POP POP POP POP PUSH1 0x40 MLOAD RETURNDATASIZE PUSH1 0x0 DUP3 RETURNDATACOPY PUSH1 0x1F RETURNDATASIZE SWAP1 DUP2 ADD PUSH1 0x1F NOT AND DUP3 ADD PUSH1 0x40 MSTORE PUSH2 0x1097 SWAP2 SWAP1 DUP2 ADD SWAP1 PUSH2 0x35F7 JUMP JUMPDEST PUSH1 0x0 DUP1 SLOAD PUSH1 0x40 MLOAD PUSH4 0xCE5E11BF PUSH1 0xE0 SHL DUP2 MSTORE PUSH1 0x4 DUP2 ADD DUP6 SWAP1 MSTORE PUSH1 0x24 DUP2 ADD DUP5 SWAP1 MSTORE PUSH1 0x1 PUSH1 0x1 PUSH1 0xA0 SHL SUB SWAP1 SWAP2 AND SWAP1 PUSH4 0xCE5E11BF SWAP1 PUSH1 0x44 ADD PUSH1 0x20 PUSH1 0x40 MLOAD DUP1 DUP4 SUB DUP2 DUP7 DUP1 EXTCODESIZE ISZERO DUP1 ISZERO PUSH2 0x1AE8 JUMPI PUSH1 0x0 DUP1 REVERT JUMPDEST POP GAS STATICCALL ISZERO DUP1 ISZERO PUSH2 0x1AFC JUMPI RETURNDATASIZE PUSH1 0x0 DUP1 RETURNDATACOPY RETURNDATASIZE PUSH1 0x0 REVERT JUMPDEST POP POP POP POP PUSH1 0x40 MLOAD RETURNDATASIZE PUSH1 0x1F NOT PUSH1 0x1F DUP3 ADD AND DUP3 ADD DUP1 PUSH1 0x40 MSTORE POP DUP2 ADD SWAP1 PUSH2 0x1097 SWAP2 SWAP1 PUSH2 0x358D JUMP JUMPDEST PUSH1 0x6 SLOAD DUP4 GT ISZERO DUP1 ISZERO PUSH2 0x1B32 JUMPI POP PUSH1 0x0 DUP4 GT JUMPDEST PUSH2 0x1B74 JUMPI PUSH1 0x40 MLOAD PUSH3 0x461BCD PUSH1 0xE5 SHL DUP2 MSTORE PUSH1 0x20 PUSH1 0x4 DUP3 ADD MSTORE PUSH1 0x13 PUSH1 0x24 DUP3 ADD MSTORE PUSH19 0x159BDD1948191BD95CC81B9BDD08195E1A5CDD PUSH1 0x6A SHL PUSH1 0x44 DUP3 ADD MSTORE PUSH1 0x64 ADD PUSH2 0x72B JUMP JUMPDEST PUSH1 0x0 DUP4 DUP2 MSTORE PUSH1 0xA PUSH1 0x20 MSTORE PUSH1 0x40 SWAP1 KECCAK256 PUSH1 0x5 DUP2 ADD SLOAD ISZERO PUSH2 0x1BD4 JUMPI PUSH1 0x40 MLOAD PUSH3 0x461BCD PUSH1 0xE5 SHL DUP2 MSTORE PUSH1 0x20 PUSH1 0x4 DUP3 ADD MSTORE PUSH1 0x1D PUSH1 0x24 DUP3 ADD MSTORE PUSH32 0x566F74652068617320616C7265616479206265656E2074616C6C696564000000 PUSH1 0x44 DUP3 ADD MSTORE PUSH1 0x64 ADD PUSH2 0x72B JUMP JUMPDEST CALLER PUSH1 0x0 SWAP1 DUP2 MSTORE PUSH1 0x13 DUP3 ADD PUSH1 0x20 MSTORE PUSH1 0x40 SWAP1 KECCAK256 SLOAD PUSH1 0xFF AND ISZERO PUSH2 0x1C36 JUMPI PUSH1 0x40 MLOAD PUSH3 0x461BCD PUSH1 0xE5 SHL DUP2 MSTORE PUSH1 0x20 PUSH1 0x4 DUP3 ADD MSTORE PUSH1 0x18 PUSH1 0x24 DUP3 ADD MSTORE PUSH32 0x53656E6465722068617320616C726561647920766F7465640000000000000000 PUSH1 0x44 DUP3 ADD MSTORE PUSH1 0x64 ADD PUSH2 0x72B JUMP JUMPDEST CALLER PUSH1 0x0 DUP2 DUP2 MSTORE PUSH1 0x13 DUP4 ADD PUSH1 0x20 MSTORE PUSH1 0x40 DUP1 DUP3 KECCAK256 DUP1 SLOAD PUSH1 0xFF NOT AND PUSH1 0x1 OR SWAP1 SSTORE PUSH1 0x3 SLOAD SWAP1 MLOAD PUSH4 0x70A08231 PUSH1 0xE0 SHL DUP2 MSTORE PUSH1 0x4 DUP2 ADD SWAP4 SWAP1 SWAP4 MSTORE SWAP1 SWAP2 PUSH1 0x1 PUSH1 0x1 PUSH1 0xA0 SHL SUB SWAP1 SWAP2 AND SWAP1 PUSH4 0x70A08231 SWAP1 PUSH1 0x24 ADD PUSH1 0x20 PUSH1 0x40 MLOAD DUP1 DUP4 SUB DUP2 DUP7 DUP1 EXTCODESIZE ISZERO DUP1 ISZERO PUSH2 0x1C99 JUMPI PUSH1 0x0 DUP1 REVERT JUMPDEST POP GAS STATICCALL ISZERO DUP1 ISZERO PUSH2 0x1CAD JUMPI RETURNDATASIZE PUSH1 0x0 DUP1 RETURNDATACOPY RETURNDATASIZE PUSH1 0x0 REVERT JUMPDEST POP POP POP POP PUSH1 0x40 MLOAD RETURNDATASIZE PUSH1 0x1F NOT PUSH1 0x1F DUP3 ADD AND DUP3 ADD DUP1 PUSH1 0x40 MSTORE POP DUP2 ADD SWAP1 PUSH2 0x1CD1 SWAP2 SWAP1 PUSH2 0x358D JUMP JUMPDEST PUSH1 0x2 SLOAD PUSH1 0x40 MLOAD PUSH4 0x733BDEF PUSH1 0xE4 SHL DUP2 MSTORE CALLER PUSH1 0x4 DUP3 ADD MSTORE SWAP2 SWAP3 POP PUSH1 0x0 SWAP2 DUP3 SWAP2 PUSH1 0x1 PUSH1 0x1 PUSH1 0xA0 SHL SUB AND SWAP1 PUSH4 0x733BDEF0 SWAP1 PUSH1 0x24 ADD PUSH2 0x100 PUSH1 0x40 MLOAD DUP1 DUP4 SUB DUP2 DUP7 DUP1 EXTCODESIZE ISZERO DUP1 ISZERO PUSH2 0x1D1B JUMPI PUSH1 0x0 DUP1 REVERT JUMPDEST POP GAS STATICCALL ISZERO DUP1 ISZERO PUSH2 0x1D2F JUMPI RETURNDATASIZE PUSH1 0x0 DUP1 RETURNDATACOPY RETURNDATASIZE PUSH1 0x0 REVERT JUMPDEST POP POP POP POP PUSH1 0x40 MLOAD RETURNDATASIZE PUSH1 0x1F NOT PUSH1 0x1F DUP3 ADD AND DUP3 ADD DUP1 PUSH1 0x40 MSTORE POP DUP2 ADD SWAP1 PUSH2 0x1D53 SWAP2 SWAP1 PUSH2 0x369A JUMP JUMPDEST POP POP POP POP POP SWAP3 POP SWAP3 POP POP DUP1 DUP3 PUSH2 0x1D69 SWAP2 SWAP1 PUSH2 0x3992 JUMP JUMPDEST PUSH2 0x1D73 SWAP1 DUP5 PUSH2 0x3992 JUMP JUMPDEST SWAP3 POP DUP5 ISZERO PUSH2 0x1E84 JUMPI DUP3 DUP5 PUSH1 0x6 ADD PUSH1 0x2 ADD PUSH1 0x0 DUP3 DUP3 SLOAD PUSH2 0x1D92 SWAP2 SWAP1 PUSH2 0x3992 JUMP JUMPDEST SWAP1 SWAP2 SSTORE POP POP PUSH1 0x2 SLOAD PUSH1 0x40 MLOAD PUSH4 0x1C3C149F PUSH1 0xE1 SHL DUP2 MSTORE CALLER PUSH1 0x4 DUP3 ADD MSTORE PUSH1 0x1 PUSH1 0x1 PUSH1 0xA0 SHL SUB SWAP1 SWAP2 AND SWAP1 PUSH4 0x3878293E SWAP1 PUSH1 0x24 ADD PUSH1 0x20 PUSH1 0x40 MLOAD DUP1 DUP4 SUB DUP2 DUP7 DUP1 EXTCODESIZE ISZERO DUP1 ISZERO PUSH2 0x1DDA JUMPI PUSH1 0x0 DUP1 REVERT JUMPDEST POP GAS STATICCALL ISZERO DUP1 ISZERO PUSH2 0x1DEE JUMPI RETURNDATASIZE PUSH1 0x0 DUP1 RETURNDATACOPY RETURNDATASIZE PUSH1 0x0 REVERT JUMPDEST POP POP POP POP PUSH1 0x40 MLOAD RETURNDATASIZE PUSH1 0x1F NOT PUSH1 0x1F DUP3 ADD AND DUP3 ADD DUP1 PUSH1 0x40 MSTORE POP DUP2 ADD SWAP1 PUSH2 0x1E12 SWAP2 SWAP1 PUSH2 0x358D JUMP JUMPDEST PUSH1 0xE DUP6 ADD DUP1 SLOAD PUSH1 0x0 SWAP1 PUSH2 0x1E26 SWAP1 DUP5 SWAP1 PUSH2 0x3992 JUMP JUMPDEST SWAP1 SWAP2 SSTORE POP PUSH2 0x1E35 SWAP1 POP CALLER PUSH2 0x2F4B JUMP JUMPDEST PUSH1 0xB DUP6 ADD DUP1 SLOAD PUSH1 0x0 SWAP1 PUSH2 0x1E49 SWAP1 DUP5 SWAP1 PUSH2 0x3992 JUMP JUMPDEST SWAP1 SWAP2 SSTORE POP POP PUSH1 0x5 SLOAD PUSH1 0x1 PUSH1 0x1 PUSH1 0xA0 SHL SUB AND CALLER EQ ISZERO PUSH2 0x1E7F JUMPI PUSH1 0x1 DUP5 PUSH1 0xF ADD PUSH1 0x2 ADD PUSH1 0x0 DUP3 DUP3 SLOAD PUSH2 0x1E79 SWAP2 SWAP1 PUSH2 0x3992 JUMP JUMPDEST SWAP1 SWAP2 SSTORE POP POP JUMPDEST PUSH2 0x208C JUMP JUMPDEST DUP6 ISZERO PUSH2 0x1F88 JUMPI DUP3 DUP5 PUSH1 0x6 ADD PUSH1 0x0 ADD PUSH1 0x0 DUP3 DUP3 SLOAD PUSH2 0x1EA1 SWAP2 SWAP1 PUSH2 0x3992 JUMP JUMPDEST SWAP1 SWAP2 SSTORE POP POP PUSH1 0x2 SLOAD PUSH1 0x40 MLOAD PUSH4 0x1C3C149F PUSH1 0xE1 SHL DUP2 MSTORE CALLER PUSH1 0x4 DUP3 ADD MSTORE PUSH1 0x1 PUSH1 0x1 PUSH1 0xA0 SHL SUB SWAP1 SWAP2 AND SWAP1 PUSH4 0x3878293E SWAP1 PUSH1 0x24 ADD PUSH1 0x20 PUSH1 0x40 MLOAD DUP1 DUP4 SUB DUP2 DUP7 DUP1 EXTCODESIZE ISZERO DUP1 ISZERO PUSH2 0x1EE9 JUMPI PUSH1 0x0 DUP1 REVERT JUMPDEST POP GAS STATICCALL ISZERO DUP1 ISZERO PUSH2 0x1EFD JUMPI RETURNDATASIZE PUSH1 0x0 DUP1 RETURNDATACOPY RETURNDATASIZE PUSH1 0x0 REVERT JUMPDEST POP POP POP POP PUSH1 0x40 MLOAD RETURNDATASIZE PUSH1 0x1F NOT PUSH1 0x1F DUP3 ADD AND DUP3 ADD DUP1 PUSH1 0x40 MSTORE POP DUP2 ADD SWAP1 PUSH2 0x1F21 SWAP2 SWAP1 PUSH2 0x358D JUMP JUMPDEST PUSH1 0xC DUP6 ADD DUP1 SLOAD PUSH1 0x0 SWAP1 PUSH2 0x1F35 SWAP1 DUP5 SWAP1 PUSH2 0x3992 JUMP JUMPDEST SWAP1 SWAP2 SSTORE POP PUSH2 0x1F44 SWAP1 POP CALLER PUSH2 0x2F4B JUMP JUMPDEST PUSH1 0x9 DUP6 ADD DUP1 SLOAD PUSH1 0x0 SWAP1 PUSH2 0x1F58 SWAP1 DUP5 SWAP1 PUSH2 0x3992 JUMP JUMPDEST SWAP1 SWAP2 SSTORE POP POP PUSH1 0x5 SLOAD PUSH1 0x1 PUSH1 0x1 PUSH1 0xA0 SHL SUB AND CALLER EQ ISZERO PUSH2 0x1E7F JUMPI PUSH1 0x1 DUP5 PUSH1 0xF ADD PUSH1 0x0 ADD PUSH1 0x0 DUP3 DUP3 SLOAD PUSH2 0x1E79 SWAP2 SWAP1 PUSH2 0x3992 JUMP JUMPDEST DUP3 DUP5 PUSH1 0x6 ADD PUSH1 0x1 ADD PUSH1 0x0 DUP3 DUP3 SLOAD PUSH2 0x1F9F SWAP2 SWAP1 PUSH2 0x3992 JUMP JUMPDEST SWAP1 SWAP2 SSTORE POP POP PUSH1 0x2 SLOAD PUSH1 0x40 MLOAD PUSH4 0x1C3C149F PUSH1 0xE1 SHL DUP2 MSTORE CALLER PUSH1 0x4 DUP3 ADD MSTORE PUSH1 0x1 PUSH1 0x1 PUSH1 0xA0 SHL SUB SWAP1 SWAP2 AND SWAP1 PUSH4 0x3878293E SWAP1 PUSH1 0x24 ADD PUSH1 0x20 PUSH1 0x40 MLOAD DUP1 DUP4 SUB DUP2 DUP7 DUP1 EXTCODESIZE ISZERO DUP1 ISZERO PUSH2 0x1FE7 JUMPI PUSH1 0x0 DUP1 REVERT JUMPDEST POP GAS STATICCALL ISZERO DUP1 ISZERO PUSH2 0x1FFB JUMPI RETURNDATASIZE PUSH1 0x0 DUP1 RETURNDATACOPY RETURNDATASIZE PUSH1 0x0 REVERT JUMPDEST POP POP POP POP PUSH1 0x40 MLOAD RETURNDATASIZE PUSH1 0x1F NOT PUSH1 0x1F DUP3 ADD AND DUP3 ADD DUP1 PUSH1 0x40 MSTORE POP DUP2 ADD SWAP1 PUSH2 0x201F SWAP2 SWAP1 PUSH2 0x358D JUMP JUMPDEST PUSH1 0xD DUP6 ADD DUP1 SLOAD PUSH1 0x0 SWAP1 PUSH2 0x2033 SWAP1 DUP5 SWAP1 PUSH2 0x3992 JUMP JUMPDEST SWAP1 SWAP2 SSTORE POP PUSH2 0x2042 SWAP1 POP CALLER PUSH2 0x2F4B JUMP JUMPDEST PUSH1 0xA DUP6 ADD DUP1 SLOAD PUSH1 0x0 SWAP1 PUSH2 0x2056 SWAP1 DUP5 SWAP1 PUSH2 0x3992 JUMP JUMPDEST SWAP1 SWAP2 SSTORE POP POP PUSH1 0x5 SLOAD PUSH1 0x1 PUSH1 0x1 PUSH1 0xA0 SHL SUB AND CALLER EQ ISZERO PUSH2 0x208C JUMPI PUSH1 0x1 DUP5 PUSH1 0xF ADD PUSH1 0x1 ADD PUSH1 0x0 DUP3 DUP3 SLOAD PUSH2 0x2086 SWAP2 SWAP1 PUSH2 0x3992 JUMP JUMPDEST SWAP1 SWAP2 SSTORE POP POP JUMPDEST CALLER PUSH1 0x0 SWAP1 DUP2 MSTORE PUSH1 0xC PUSH1 0x20 MSTORE PUSH1 0x40 DUP2 KECCAK256 DUP1 SLOAD SWAP2 PUSH2 0x20A7 DUP4 PUSH2 0x3B83 JUMP JUMPDEST SWAP1 SWAP2 SSTORE POP POP PUSH1 0x40 DUP1 MLOAD DUP9 DUP2 MSTORE DUP8 ISZERO ISZERO PUSH1 0x20 DUP3 ADD MSTORE CALLER DUP2 DUP4 ADD MSTORE DUP7 ISZERO ISZERO PUSH1 0x60 DUP3 ADD MSTORE SWAP1 MLOAD PUSH32 0xBE6F1C58CC15C8E86D6F0EF23C5A30EB33319AF3B57F6B7D9B56CCFA87696B84 SWAP2 DUP2 SWAP1 SUB PUSH1 0x80 ADD SWAP1 LOG1 POP POP POP POP POP POP POP JUMP JUMPDEST PUSH1 0x0 DUP1 SLOAD PUSH1 0x40 MLOAD PUSH4 0x703E2A43 PUSH1 0xE1 SHL DUP2 MSTORE PUSH1 0x4 DUP2 ADD DUP6 SWAP1 MSTORE PUSH1 0x24 DUP2 ADD DUP5 SWAP1 MSTORE PUSH1 0x1 PUSH1 0x1 PUSH1 0xA0 SHL SUB SWAP1 SWAP2 AND SWAP1 PUSH4 0xE07C5486 SWAP1 PUSH1 0x44 ADD PUSH1 0x20 PUSH1 0x40 MLOAD DUP1 DUP4 SUB DUP2 DUP7 DUP1 EXTCODESIZE ISZERO DUP1 ISZERO PUSH2 0x2149 JUMPI PUSH1 0x0 DUP1 REVERT JUMPDEST POP GAS STATICCALL ISZERO DUP1 ISZERO PUSH2 0x215D JUMPI RETURNDATASIZE PUSH1 0x0 DUP1 RETURNDATACOPY RETURNDATASIZE PUSH1 0x0 REVERT JUMPDEST POP POP POP POP PUSH1 0x40 MLOAD RETURNDATASIZE PUSH1 0x1F NOT PUSH1 0x1F DUP3 ADD AND DUP3 ADD DUP1 PUSH1 0x40 MSTORE POP DUP2 ADD SWAP1 PUSH2 0x1097 SWAP2 SWAP1 PUSH2 0x333F JUMP JUMPDEST PUSH1 0x0 DUP1 PUSH1 0x0 PUSH2 0x218F DUP6 PUSH2 0x175D JUMP JUMPDEST SWAP1 POP DUP1 PUSH2 0x21A3 JUMPI PUSH1 0x0 DUP1 SWAP3 POP SWAP3 POP POP PUSH2 0x100C JUMP JUMPDEST DUP1 PUSH2 0x21AD DUP2 PUSH2 0x3B37 JUMP JUMPDEST SWAP2 POP PUSH1 0x1 SWAP1 POP PUSH1 0x0 DUP1 DUP4 DUP2 PUSH2 0x21C2 DUP11 DUP4 PUSH2 0x1A9C JUMP JUMPDEST SWAP1 POP DUP9 DUP2 GT PUSH2 0x21DD JUMPI PUSH1 0x0 DUP1 SWAP8 POP SWAP8 POP POP POP POP POP POP POP PUSH2 0x100C JUMP JUMPDEST PUSH2 0x21E7 DUP11 DUP5 PUSH2 0x1A9C JUMP JUMPDEST SWAP1 POP DUP9 DUP2 GT ISZERO PUSH2 0x21F6 JUMPI PUSH1 0x0 SWAP5 POP JUMPDEST DUP5 ISZERO PUSH2 0x22A8 JUMPI PUSH1 0x2 PUSH2 0x2208 DUP5 DUP5 PUSH2 0x3992 JUMP JUMPDEST PUSH2 0x2212 SWAP2 SWAP1 PUSH2 0x39AA JUMP JUMPDEST SWAP4 POP PUSH2 0x221E DUP11 DUP6 PUSH2 0x1A9C JUMP JUMPDEST SWAP1 POP DUP9 DUP2 GT ISZERO PUSH2 0x225F JUMPI PUSH1 0x0 PUSH2 0x2239 DUP12 PUSH2 0x4A2 PUSH1 0x1 DUP9 PUSH2 0x3AF4 JUMP JUMPDEST SWAP1 POP DUP10 DUP2 GT PUSH2 0x224B JUMPI PUSH1 0x0 SWAP6 POP PUSH2 0x2259 JUMP JUMPDEST PUSH2 0x2256 PUSH1 0x1 DUP7 PUSH2 0x3AF4 JUMP JUMPDEST SWAP3 POP JUMPDEST POP PUSH2 0x22A3 JUMP JUMPDEST PUSH1 0x0 PUSH2 0x2270 DUP12 PUSH2 0x4A2 DUP8 PUSH1 0x1 PUSH2 0x3992 JUMP JUMPDEST SWAP1 POP DUP10 DUP2 GT ISZERO PUSH2 0x2293 JUMPI PUSH1 0x0 SWAP6 POP DUP5 PUSH2 0x2288 DUP2 PUSH2 0x3B83 JUMP JUMPDEST SWAP6 POP POP DUP1 SWAP2 POP PUSH2 0x22A1 JUMP JUMPDEST PUSH2 0x229E DUP6 PUSH1 0x1 PUSH2 0x3992 JUMP JUMPDEST SWAP4 POP JUMPDEST POP JUMPDEST PUSH2 0x21F6 JUMP JUMPDEST PUSH2 0x22B2 DUP11 DUP3 PUSH2 0x1013 JUMP JUMPDEST PUSH2 0x22C8 JUMPI PUSH1 0x1 DUP5 SWAP8 POP SWAP8 POP POP POP POP POP POP POP PUSH2 0x100C JUMP JUMPDEST PUSH2 0x22D2 DUP11 DUP3 PUSH2 0x1013 JUMP JUMPDEST DUP1 ISZERO PUSH2 0x22DD JUMPI POP DUP6 DUP5 LT JUMPDEST ISZERO PUSH2 0x2300 JUMPI DUP4 PUSH2 0x22EC DUP2 PUSH2 0x3B83 JUMP JUMPDEST SWAP5 POP POP PUSH2 0x22F9 DUP11 DUP6 PUSH2 0x1A9C JUMP JUMPDEST SWAP1 POP PUSH2 0x22C8 JUMP JUMPDEST DUP6 DUP5 EQ DUP1 ISZERO PUSH2 0x2314 JUMPI POP PUSH2 0x2314 DUP11 DUP3 PUSH2 0x1013 JUMP JUMPDEST ISZERO PUSH2 0x232B JUMPI PUSH1 0x0 DUP1 SWAP8 POP SWAP8 POP POP POP POP POP POP POP PUSH2 0x100C JUMP JUMPDEST PUSH1 0x1 DUP5 SWAP8 POP SWAP8 POP POP POP POP POP POP POP PUSH2 0x100C JUMP JUMPDEST PUSH1 0x1 SLOAD PUSH1 0x40 MLOAD PUSH4 0x87A475FD PUSH1 0xE0 SHL DUP2 MSTORE PUSH1 0x4 DUP2 ADD DUP4 SWAP1 MSTORE PUSH1 0x0 SWAP2 DUP3 SWAP2 DUP3 SWAP2 DUP3 SWAP2 PUSH1 0x1 PUSH1 0x1 PUSH1 0xA0 SHL SUB SWAP1 SWAP2 AND SWAP1 PUSH4 0x87A475FD SWAP1 PUSH1 0x24 ADD PUSH1 0x20 PUSH1 0x40 MLOAD DUP1 DUP4 SUB DUP2 DUP7 DUP1 EXTCODESIZE ISZERO DUP1 ISZERO PUSH2 0x238A JUMPI PUSH1 0x0 DUP1 REVERT JUMPDEST POP GAS STATICCALL ISZERO DUP1 ISZERO PUSH2 0x239E JUMPI RETURNDATASIZE PUSH1 0x0 DUP1 RETURNDATACOPY RETURNDATASIZE PUSH1 0x0 REVERT JUMPDEST POP POP POP POP PUSH1 0x40 MLOAD RETURNDATASIZE PUSH1 0x1F NOT PUSH1 0x1F DUP3 ADD AND DUP3 ADD DUP1 PUSH1 0x40 MSTORE POP DUP2 ADD SWAP1 PUSH2 0x23C2 SWAP2 SWAP1 PUSH2 0x358D JUMP JUMPDEST SWAP1 POP PUSH1 0x60 PUSH2 0x23D5 DUP3 PUSH2 0x3E5 TIMESTAMP PUSH1 0x1 PUSH2 0x3992 JUMP JUMPDEST SWAP5 POP SWAP1 POP DUP4 PUSH2 0x23F1 JUMPI PUSH1 0x0 DUP1 PUSH2 0x194 SWAP5 POP SWAP5 POP SWAP5 POP POP POP PUSH2 0x2406 JUMP JUMPDEST PUSH1 0x0 PUSH2 0x23FC DUP3 PUSH2 0x30A9 JUMP JUMPDEST SWAP6 POP PUSH1 0xC8 SWAP4 POP POP POP POP JUMPDEST SWAP2 SWAP4 SWAP1 SWAP3 POP JUMP JUMPDEST PUSH1 0x0 DUP2 DUP2 MSTORE PUSH1 0xA PUSH1 0x20 MSTORE PUSH1 0x40 SWAP1 KECCAK256 PUSH1 0x6 SLOAD DUP3 GT DUP1 ISZERO SWAP1 PUSH2 0x242D JUMPI POP PUSH1 0x0 DUP3 GT JUMPDEST PUSH2 0x2479 JUMPI PUSH1 0x40 MLOAD PUSH3 0x461BCD PUSH1 0xE5 SHL DUP2 MSTORE PUSH1 0x20 PUSH1 0x4 DUP3 ADD MSTORE PUSH1 0x18 PUSH1 0x24 DUP3 ADD MSTORE PUSH32 0x44697370757465204944206D7573742062652076616C69640000000000000000 PUSH1 0x44 DUP3 ADD MSTORE PUSH1 0x64 ADD PUSH2 0x72B JUMP JUMPDEST PUSH1 0x12 DUP2 ADD SLOAD PUSH1 0xFF AND ISZERO PUSH2 0x24CE JUMPI PUSH1 0x40 MLOAD PUSH3 0x461BCD PUSH1 0xE5 SHL DUP2 MSTORE PUSH1 0x20 PUSH1 0x4 DUP3 ADD MSTORE PUSH1 0x1E PUSH1 0x24 DUP3 ADD MSTORE PUSH32 0x566F74652068617320616C7265616479206265656E2065786563757465640000 PUSH1 0x44 DUP3 ADD MSTORE PUSH1 0x64 ADD PUSH2 0x72B JUMP JUMPDEST PUSH1 0x0 DUP2 PUSH1 0x5 ADD SLOAD GT PUSH2 0x2522 JUMPI PUSH1 0x40 MLOAD PUSH3 0x461BCD PUSH1 0xE5 SHL DUP2 MSTORE PUSH1 0x20 PUSH1 0x4 DUP3 ADD MSTORE PUSH1 0x14 PUSH1 0x24 DUP3 ADD MSTORE PUSH32 0x566F7465206D7573742062652074616C6C696564000000000000000000000000 PUSH1 0x44 DUP3 ADD MSTORE PUSH1 0x64 ADD PUSH2 0x72B JUMP JUMPDEST PUSH1 0x1 DUP2 ADD SLOAD DUP2 SLOAD PUSH1 0x0 SWAP1 DUP2 MSTORE PUSH1 0xB PUSH1 0x20 MSTORE PUSH1 0x40 SWAP1 KECCAK256 SLOAD EQ PUSH2 0x2585 JUMPI PUSH1 0x40 MLOAD PUSH3 0x461BCD PUSH1 0xE5 SHL DUP2 MSTORE PUSH1 0x20 PUSH1 0x4 DUP3 ADD MSTORE PUSH1 0x16 PUSH1 0x24 DUP3 ADD MSTORE PUSH32 0x4D757374206265207468652066696E616C20766F746500000000000000000000 PUSH1 0x44 DUP3 ADD MSTORE PUSH1 0x64 ADD PUSH2 0x72B JUMP JUMPDEST PUSH3 0x15180 DUP2 PUSH1 0x5 ADD SLOAD TIMESTAMP PUSH2 0x2599 SWAP2 SWAP1 PUSH2 0x3AF4 JUMP JUMPDEST LT ISZERO PUSH2 0x2603 JUMPI PUSH1 0x40 MLOAD PUSH3 0x461BCD PUSH1 0xE5 SHL DUP2 MSTORE PUSH1 0x20 PUSH1 0x4 DUP3 ADD MSTORE PUSH1 0x33 PUSH1 0x24 DUP3 ADD MSTORE PUSH32 0x31206461792068617320746F20706173732061667465722074616C6C7920746F PUSH1 0x44 DUP3 ADD MSTORE PUSH19 0x20616C6C6F7720666F72206469737075746573 PUSH1 0x68 SHL PUSH1 0x64 DUP3 ADD MSTORE PUSH1 0x84 ADD PUSH2 0x72B JUMP JUMPDEST PUSH1 0x12 DUP2 ADD DUP1 SLOAD PUSH1 0xFF NOT AND PUSH1 0x1 OR SWAP1 SSTORE PUSH1 0x0 DUP3 DUP2 MSTORE PUSH1 0x8 PUSH1 0x20 SWAP1 DUP2 MSTORE PUSH1 0x40 DUP1 DUP4 KECCAK256 DUP1 SLOAD DUP5 MSTORE PUSH1 0x9 SWAP1 SWAP3 MSTORE DUP3 KECCAK256 DUP1 SLOAD SWAP2 SWAP3 PUSH2 0x263B DUP4 PUSH2 0x3B37 JUMP JUMPDEST SWAP1 SWAP2 SSTORE POP PUSH1 0x0 SWAP1 POP DUP1 PUSH1 0x1 PUSH1 0x12 DUP6 ADD SLOAD PUSH2 0x100 SWAP1 DIV PUSH1 0xFF AND PUSH1 0x2 DUP2 GT ISZERO PUSH2 0x2672 JUMPI PUSH4 0x4E487B71 PUSH1 0xE0 SHL PUSH1 0x0 MSTORE PUSH1 0x21 PUSH1 0x4 MSTORE PUSH1 0x24 PUSH1 0x0 REVERT JUMPDEST EQ ISZERO PUSH2 0x283C JUMPI DUP4 SLOAD PUSH1 0x0 SWAP1 DUP2 MSTORE PUSH1 0xB PUSH1 0x20 MSTORE PUSH1 0x40 SWAP1 KECCAK256 SLOAD SWAP2 POP JUMPDEST DUP2 ISZERO PUSH2 0x2837 JUMPI DUP4 SLOAD PUSH1 0x0 SWAP1 DUP2 MSTORE PUSH1 0xB PUSH1 0x20 MSTORE PUSH1 0x40 SWAP1 KECCAK256 PUSH2 0x26AD PUSH1 0x1 DUP5 PUSH2 0x3AF4 JUMP JUMPDEST DUP2 SLOAD DUP2 LT PUSH2 0x26CB JUMPI PUSH4 0x4E487B71 PUSH1 0xE0 SHL PUSH1 0x0 MSTORE PUSH1 0x32 PUSH1 0x4 MSTORE PUSH1 0x24 PUSH1 0x0 REVERT JUMPDEST SWAP1 PUSH1 0x0 MSTORE PUSH1 0x20 PUSH1 0x0 KECCAK256 ADD SLOAD SWAP1 POP PUSH1 0xA PUSH1 0x0 DUP3 DUP2 MSTORE PUSH1 0x20 ADD SWAP1 DUP2 MSTORE PUSH1 0x20 ADD PUSH1 0x0 KECCAK256 SWAP4 POP DUP2 PUSH1 0x1 EQ ISZERO PUSH2 0x278E JUMPI PUSH1 0x3 SLOAD PUSH1 0x12 DUP6 ADD SLOAD PUSH1 0x4 DUP6 DUP2 ADD SLOAD PUSH1 0x40 MLOAD PUSH4 0xA9059CBB PUSH1 0xE0 SHL DUP2 MSTORE PUSH1 0x1 PUSH1 0x1 PUSH1 0xA0 SHL SUB PUSH3 0x10000 SWAP1 SWAP5 DIV DUP5 AND SWAP3 DUP2 ADD SWAP3 SWAP1 SWAP3 MSTORE PUSH1 0x24 DUP3 ADD MSTORE SWAP2 AND SWAP1 PUSH4 0xA9059CBB SWAP1 PUSH1 0x44 ADD PUSH1 0x20 PUSH1 0x40 MLOAD DUP1 DUP4 SUB DUP2 PUSH1 0x0 DUP8 DUP1 EXTCODESIZE ISZERO DUP1 ISZERO PUSH2 0x2754 JUMPI PUSH1 0x0 DUP1 REVERT JUMPDEST POP GAS CALL ISZERO DUP1 ISZERO PUSH2 0x2768 JUMPI RETURNDATASIZE PUSH1 0x0 DUP1 RETURNDATACOPY RETURNDATASIZE PUSH1 0x0 REVERT JUMPDEST POP POP POP POP PUSH1 0x40 MLOAD RETURNDATASIZE PUSH1 0x1F NOT PUSH1 0x1F DUP3 ADD AND DUP3 ADD DUP1 PUSH1 0x40 MSTORE POP DUP2 ADD SWAP1 PUSH2 0x278C SWAP2 SWAP1 PUSH2 0x34D4 JUMP JUMPDEST POP JUMPDEST PUSH1 0x3 SLOAD PUSH1 0x12 DUP6 ADD SLOAD PUSH1 0x4 DUP1 DUP8 ADD SLOAD PUSH1 0x40 MLOAD PUSH4 0xA9059CBB PUSH1 0xE0 SHL DUP2 MSTORE PUSH1 0x1 PUSH1 0x1 PUSH1 0xA0 SHL SUB PUSH3 0x10000 SWAP1 SWAP5 DIV DUP5 AND SWAP3 DUP2 ADD SWAP3 SWAP1 SWAP3 MSTORE PUSH1 0x24 DUP3 ADD MSTORE SWAP2 AND SWAP1 PUSH4 0xA9059CBB SWAP1 PUSH1 0x44 ADD PUSH1 0x20 PUSH1 0x40 MLOAD DUP1 DUP4 SUB DUP2 PUSH1 0x0 DUP8 DUP1 EXTCODESIZE ISZERO DUP1 ISZERO PUSH2 0x27EC JUMPI PUSH1 0x0 DUP1 REVERT JUMPDEST POP GAS CALL ISZERO DUP1 ISZERO PUSH2 0x2800 JUMPI RETURNDATASIZE PUSH1 0x0 DUP1 RETURNDATACOPY RETURNDATASIZE PUSH1 0x0 REVERT JUMPDEST POP POP POP POP PUSH1 0x40 MLOAD RETURNDATASIZE PUSH1 0x1F NOT PUSH1 0x1F DUP3 ADD AND DUP3 ADD DUP1 PUSH1 0x40 MSTORE POP DUP2 ADD SWAP1 PUSH2 0x2824 SWAP2 SWAP1 PUSH2 0x34D4 JUMP JUMPDEST POP DUP2 PUSH2 0x282F DUP2 PUSH2 0x3B37 JUMP JUMPDEST SWAP3 POP POP PUSH2 0x268C JUMP JUMPDEST PUSH2 0x2B91 JUMP JUMPDEST PUSH1 0x2 PUSH1 0x12 DUP6 ADD SLOAD PUSH2 0x100 SWAP1 DIV PUSH1 0xFF AND PUSH1 0x2 DUP2 GT ISZERO PUSH2 0x286A JUMPI PUSH4 0x4E487B71 PUSH1 0xE0 SHL PUSH1 0x0 MSTORE PUSH1 0x21 PUSH1 0x4 MSTORE PUSH1 0x24 PUSH1 0x0 REVERT JUMPDEST EQ ISZERO PUSH2 0x2A26 JUMPI DUP4 SLOAD PUSH1 0x0 SWAP1 DUP2 MSTORE PUSH1 0xB PUSH1 0x20 MSTORE PUSH1 0x40 SWAP1 KECCAK256 SLOAD SWAP2 POP JUMPDEST DUP2 ISZERO PUSH2 0x2990 JUMPI DUP4 SLOAD PUSH1 0x0 SWAP1 DUP2 MSTORE PUSH1 0xB PUSH1 0x20 MSTORE PUSH1 0x40 SWAP1 KECCAK256 PUSH2 0x28A5 PUSH1 0x1 DUP5 PUSH2 0x3AF4 JUMP JUMPDEST DUP2 SLOAD DUP2 LT PUSH2 0x28C3 JUMPI PUSH4 0x4E487B71 PUSH1 0xE0 SHL PUSH1 0x0 MSTORE PUSH1 0x32 PUSH1 0x4 MSTORE PUSH1 0x24 PUSH1 0x0 REVERT JUMPDEST PUSH1 0x0 SWAP2 DUP3 MSTORE PUSH1 0x20 DUP1 DUP4 KECCAK256 SWAP2 SWAP1 SWAP2 ADD SLOAD DUP1 DUP4 MSTORE PUSH1 0xA SWAP1 SWAP2 MSTORE PUSH1 0x40 SWAP2 DUP3 SWAP1 KECCAK256 PUSH1 0x3 SLOAD PUSH1 0x12 DUP3 ADD SLOAD PUSH1 0x4 DUP1 DUP5 ADD SLOAD SWAP6 MLOAD PUSH4 0xA9059CBB PUSH1 0xE0 SHL DUP2 MSTORE PUSH1 0x1 PUSH1 0x1 PUSH1 0xA0 SHL SUB PUSH3 0x10000 SWAP1 SWAP4 DIV DUP4 AND SWAP2 DUP2 ADD SWAP2 SWAP1 SWAP2 MSTORE PUSH1 0x24 DUP2 ADD SWAP6 SWAP1 SWAP6 MSTORE SWAP2 SWAP8 POP SWAP2 SWAP4 POP AND SWAP1 PUSH4 0xA9059CBB SWAP1 PUSH1 0x44 ADD PUSH1 0x20 PUSH1 0x40 MLOAD DUP1 DUP4 SUB DUP2 PUSH1 0x0 DUP8 DUP1 EXTCODESIZE ISZERO DUP1 ISZERO PUSH2 0x2945 JUMPI PUSH1 0x0 DUP1 REVERT JUMPDEST POP GAS CALL ISZERO DUP1 ISZERO PUSH2 0x2959 JUMPI RETURNDATASIZE PUSH1 0x0 DUP1 RETURNDATACOPY RETURNDATASIZE PUSH1 0x0 REVERT JUMPDEST POP POP POP POP PUSH1 0x40 MLOAD RETURNDATASIZE PUSH1 0x1F NOT PUSH1 0x1F DUP3 ADD AND DUP3 ADD DUP1 PUSH1 0x40 MSTORE POP DUP2 ADD SWAP1 PUSH2 0x297D SWAP2 SWAP1 PUSH2 0x34D4 JUMP JUMPDEST POP DUP2 PUSH2 0x2988 DUP2 PUSH2 0x3B37 JUMP JUMPDEST SWAP3 POP POP PUSH2 0x2884 JUMP JUMPDEST PUSH1 0x3 DUP1 SLOAD SWAP1 DUP5 ADD SLOAD PUSH1 0x4 DUP1 DUP7 ADD SLOAD PUSH1 0x40 MLOAD PUSH4 0xA9059CBB PUSH1 0xE0 SHL DUP2 MSTORE PUSH1 0x1 PUSH1 0x1 PUSH1 0xA0 SHL SUB SWAP4 DUP5 AND SWAP3 DUP2 ADD SWAP3 SWAP1 SWAP3 MSTORE PUSH1 0x24 DUP3 ADD MSTORE SWAP2 AND SWAP1 PUSH4 0xA9059CBB SWAP1 PUSH1 0x44 ADD PUSH1 0x20 PUSH1 0x40 MLOAD DUP1 DUP4 SUB DUP2 PUSH1 0x0 DUP8 DUP1 EXTCODESIZE ISZERO DUP1 ISZERO PUSH2 0x29E8 JUMPI PUSH1 0x0 DUP1 REVERT JUMPDEST POP GAS CALL ISZERO DUP1 ISZERO PUSH2 0x29FC JUMPI RETURNDATASIZE PUSH1 0x0 DUP1 RETURNDATACOPY RETURNDATASIZE PUSH1 0x0 REVERT JUMPDEST POP POP POP POP PUSH1 0x40 MLOAD RETURNDATASIZE PUSH1 0x1F NOT PUSH1 0x1F DUP3 ADD AND DUP3 ADD DUP1 PUSH1 0x40 MSTORE POP DUP2 ADD SWAP1 PUSH2 0x2A20 SWAP2 SWAP1 PUSH2 0x34D4 JUMP JUMPDEST POP PUSH2 0x2B91 JUMP JUMPDEST PUSH1 0x0 PUSH1 0x12 DUP6 ADD SLOAD PUSH2 0x100 SWAP1 DIV PUSH1 0xFF AND PUSH1 0x2 DUP2 GT ISZERO PUSH2 0x2A54 JUMPI PUSH4 0x4E487B71 PUSH1 0xE0 SHL PUSH1 0x0 MSTORE PUSH1 0x21 PUSH1 0x4 MSTORE PUSH1 0x24 PUSH1 0x0 REVERT JUMPDEST EQ ISZERO PUSH2 0x2B91 JUMPI DUP4 SLOAD PUSH1 0x0 SWAP1 DUP2 MSTORE PUSH1 0xB PUSH1 0x20 MSTORE PUSH1 0x40 DUP2 KECCAK256 SLOAD SWAP3 POP JUMPDEST DUP3 ISZERO PUSH2 0x2AF3 JUMPI DUP5 SLOAD PUSH1 0x0 SWAP1 DUP2 MSTORE PUSH1 0xB PUSH1 0x20 MSTORE PUSH1 0x40 SWAP1 KECCAK256 PUSH2 0x2A8F PUSH1 0x1 DUP6 PUSH2 0x3AF4 JUMP JUMPDEST DUP2 SLOAD DUP2 LT PUSH2 0x2AAD JUMPI PUSH4 0x4E487B71 PUSH1 0xE0 SHL PUSH1 0x0 MSTORE PUSH1 0x32 PUSH1 0x4 MSTORE PUSH1 0x24 PUSH1 0x0 REVERT JUMPDEST SWAP1 PUSH1 0x0 MSTORE PUSH1 0x20 PUSH1 0x0 KECCAK256 ADD SLOAD SWAP2 POP PUSH1 0xA PUSH1 0x0 DUP4 DUP2 MSTORE PUSH1 0x20 ADD SWAP1 DUP2 MSTORE PUSH1 0x20 ADD PUSH1 0x0 KECCAK256 SWAP5 POP DUP5 PUSH1 0x4 ADD SLOAD DUP2 PUSH2 0x2ADF SWAP2 SWAP1 PUSH2 0x3992 JUMP JUMPDEST SWAP1 POP DUP3 PUSH2 0x2AEB DUP2 PUSH2 0x3B37 JUMP JUMPDEST SWAP4 POP POP PUSH2 0x2A6E JUMP JUMPDEST PUSH1 0x4 DUP5 ADD SLOAD PUSH2 0x2B02 SWAP1 DUP3 PUSH2 0x3992 JUMP JUMPDEST PUSH1 0x3 DUP1 SLOAD SWAP1 DUP7 ADD SLOAD PUSH1 0x40 MLOAD PUSH4 0xA9059CBB PUSH1 0xE0 SHL DUP2 MSTORE PUSH1 0x1 PUSH1 0x1 PUSH1 0xA0 SHL SUB SWAP2 DUP3 AND PUSH1 0x4 DUP3 ADD MSTORE PUSH1 0x24 DUP2 ADD DUP5 SWAP1 MSTORE SWAP3 SWAP4 POP AND SWAP1 PUSH4 0xA9059CBB SWAP1 PUSH1 0x44 ADD PUSH1 0x20 PUSH1 0x40 MLOAD DUP1 DUP4 SUB DUP2 PUSH1 0x0 DUP8 DUP1 EXTCODESIZE ISZERO DUP1 ISZERO PUSH2 0x2B56 JUMPI PUSH1 0x0 DUP1 REVERT JUMPDEST POP GAS CALL ISZERO DUP1 ISZERO PUSH2 0x2B6A JUMPI RETURNDATASIZE PUSH1 0x0 DUP1 RETURNDATACOPY RETURNDATASIZE PUSH1 0x0 REVERT JUMPDEST POP POP POP POP PUSH1 0x40 MLOAD RETURNDATASIZE PUSH1 0x1F NOT PUSH1 0x1F DUP3 ADD AND DUP3 ADD DUP1 PUSH1 0x40 MSTORE POP DUP2 ADD SWAP1 PUSH2 0x2B8E SWAP2 SWAP1 PUSH2 0x34D4 JUMP JUMPDEST POP POP JUMPDEST PUSH1 0x0 DUP6 DUP2 MSTORE PUSH1 0xA PUSH1 0x20 MSTORE PUSH1 0x40 SWAP1 DUP2 SWAP1 KECCAK256 PUSH1 0x12 ADD SLOAD SWAP1 MLOAD PUSH32 0x40D231BF91823121DE9E1C012D95F835EA5684DC1D93360D9510A30543345DA4 SWAP2 PUSH2 0x2BDD SWAP2 DUP9 SWAP2 PUSH2 0x100 SWAP1 DIV PUSH1 0xFF AND SWAP1 PUSH2 0x38F3 JUMP JUMPDEST PUSH1 0x40 MLOAD DUP1 SWAP2 SUB SWAP1 LOG1 POP POP POP POP POP JUMP JUMPDEST PUSH1 0x60 DUP1 PUSH1 0x0 DUP1 PUSH2 0x2C00 DUP9 PUSH2 0x4FF DUP9 DUP11 PUSH2 0x3AF4 JUMP JUMPDEST SWAP2 POP SWAP2 POP DUP2 PUSH2 0x2C51 JUMPI PUSH1 0x40 DUP1 MLOAD PUSH1 0x0 DUP1 DUP3 MSTORE PUSH1 0x20 DUP3 ADD SWAP1 SWAP3 MSTORE SWAP1 PUSH2 0x2C34 JUMP JUMPDEST PUSH1 0x60 DUP2 MSTORE PUSH1 0x20 ADD SWAP1 PUSH1 0x1 SWAP1 SUB SWAP1 DUP2 PUSH2 0x2C1F JUMPI SWAP1 POP JUMPDEST POP PUSH1 0x40 DUP1 MLOAD PUSH1 0x0 DUP2 MSTORE PUSH1 0x20 DUP2 ADD SWAP1 SWAP2 MSTORE SWAP1 SWAP5 POP SWAP3 POP PUSH2 0x2F42 SWAP2 POP POP JUMP JUMPDEST PUSH1 0x0 PUSH2 0x2C5D DUP10 DUP10 PUSH2 0xF84 JUMP JUMPDEST SWAP1 SWAP4 POP SWAP1 POP DUP3 PUSH2 0x2CB0 JUMPI PUSH1 0x40 DUP1 MLOAD PUSH1 0x0 DUP1 DUP3 MSTORE PUSH1 0x20 DUP3 ADD SWAP1 SWAP3 MSTORE SWAP1 PUSH2 0x2C92 JUMP JUMPDEST PUSH1 0x60 DUP2 MSTORE PUSH1 0x20 ADD SWAP1 PUSH1 0x1 SWAP1 SUB SWAP1 DUP2 PUSH2 0x2C7D JUMPI SWAP1 POP JUMPDEST POP PUSH1 0x40 DUP1 MLOAD PUSH1 0x0 DUP2 MSTORE PUSH1 0x20 DUP2 ADD SWAP1 SWAP2 MSTORE SWAP1 SWAP6 POP SWAP4 POP PUSH2 0x2F42 SWAP3 POP POP POP JUMP JUMPDEST PUSH1 0x0 DUP1 PUSH1 0x0 DUP9 PUSH8 0xFFFFFFFFFFFFFFFF DUP2 GT ISZERO PUSH2 0x2CDC JUMPI PUSH4 0x4E487B71 PUSH1 0xE0 SHL PUSH1 0x0 MSTORE PUSH1 0x41 PUSH1 0x4 MSTORE PUSH1 0x24 PUSH1 0x0 REVERT JUMPDEST PUSH1 0x40 MLOAD SWAP1 DUP1 DUP3 MSTORE DUP1 PUSH1 0x20 MUL PUSH1 0x20 ADD DUP3 ADD PUSH1 0x40 MSTORE DUP1 ISZERO PUSH2 0x2D05 JUMPI DUP2 PUSH1 0x20 ADD PUSH1 0x20 DUP3 MUL DUP1 CALLDATASIZE DUP4 CALLDATACOPY ADD SWAP1 POP JUMPDEST POP SWAP1 POP JUMPDEST DUP9 DUP4 LT DUP1 ISZERO PUSH2 0x2D2C JUMPI POP DUP5 DUP3 PUSH2 0x2D20 DUP7 PUSH1 0x1 PUSH2 0x3992 JUMP JUMPDEST PUSH2 0x2D2A SWAP2 SWAP1 PUSH2 0x3AF4 JUMP JUMPDEST GT JUMPDEST ISZERO PUSH2 0x2D9E JUMPI PUSH1 0x0 PUSH2 0x2D41 DUP14 PUSH2 0x4A2 DUP6 DUP9 PUSH2 0x3AF4 JUMP JUMPDEST SWAP1 POP PUSH2 0x2D4D DUP14 DUP3 PUSH2 0x1013 JUMP JUMPDEST PUSH2 0x2D8B JUMPI DUP1 DUP3 DUP6 DUP2 MLOAD DUP2 LT PUSH2 0x2D72 JUMPI PUSH4 0x4E487B71 PUSH1 0xE0 SHL PUSH1 0x0 MSTORE PUSH1 0x32 PUSH1 0x4 MSTORE PUSH1 0x24 PUSH1 0x0 REVERT JUMPDEST PUSH1 0x20 SWAP1 DUP2 MUL SWAP2 SWAP1 SWAP2 ADD ADD MSTORE DUP4 PUSH2 0x2D87 DUP2 PUSH2 0x3B83 JUMP JUMPDEST SWAP5 POP POP JUMPDEST DUP3 PUSH2 0x2D95 DUP2 PUSH2 0x3B83 JUMP JUMPDEST SWAP4 POP POP POP PUSH2 0x2D09 JUMP JUMPDEST PUSH1 0x0 DUP4 PUSH8 0xFFFFFFFFFFFFFFFF DUP2 GT ISZERO PUSH2 0x2DC7 JUMPI PUSH4 0x4E487B71 PUSH1 0xE0 SHL PUSH1 0x0 MSTORE PUSH1 0x41 PUSH1 0x4 MSTORE PUSH1 0x24 PUSH1 0x0 REVERT JUMPDEST PUSH1 0x40 MLOAD SWAP1 DUP1 DUP3 MSTORE DUP1 PUSH1 0x20 MUL PUSH1 0x20 ADD DUP3 ADD PUSH1 0x40 MSTORE DUP1 ISZERO PUSH2 0x2DFA JUMPI DUP2 PUSH1 0x20 ADD JUMPDEST PUSH1 0x60 DUP2 MSTORE PUSH1 0x20 ADD SWAP1 PUSH1 0x1 SWAP1 SUB SWAP1 DUP2 PUSH2 0x2DE5 JUMPI SWAP1 POP JUMPDEST POP SWAP1 POP PUSH1 0x0 DUP5 PUSH8 0xFFFFFFFFFFFFFFFF DUP2 GT ISZERO PUSH2 0x2E26 JUMPI PUSH4 0x4E487B71 PUSH1 0xE0 SHL PUSH1 0x0 MSTORE PUSH1 0x41 PUSH1 0x4 MSTORE PUSH1 0x24 PUSH1 0x0 REVERT JUMPDEST PUSH1 0x40 MLOAD SWAP1 DUP1 DUP3 MSTORE DUP1 PUSH1 0x20 MUL PUSH1 0x20 ADD DUP3 ADD PUSH1 0x40 MSTORE DUP1 ISZERO PUSH2 0x2E4F JUMPI DUP2 PUSH1 0x20 ADD PUSH1 0x20 DUP3 MUL DUP1 CALLDATASIZE DUP4 CALLDATACOPY ADD SWAP1 POP JUMPDEST POP SWAP1 POP PUSH1 0x0 JUMPDEST DUP6 DUP2 LT ISZERO PUSH2 0x2F35 JUMPI DUP4 DUP2 PUSH2 0x2E6A PUSH1 0x1 DUP10 PUSH2 0x3AF4 JUMP JUMPDEST PUSH2 0x2E74 SWAP2 SWAP1 PUSH2 0x3AF4 JUMP JUMPDEST DUP2 MLOAD DUP2 LT PUSH2 0x2E92 JUMPI PUSH4 0x4E487B71 PUSH1 0xE0 SHL PUSH1 0x0 MSTORE PUSH1 0x32 PUSH1 0x4 MSTORE PUSH1 0x24 PUSH1 0x0 REVERT JUMPDEST PUSH1 0x20 MUL PUSH1 0x20 ADD ADD MLOAD DUP3 DUP3 DUP2 MLOAD DUP2 LT PUSH2 0x2EBA JUMPI PUSH4 0x4E487B71 PUSH1 0xE0 SHL PUSH1 0x0 MSTORE PUSH1 0x32 PUSH1 0x4 MSTORE PUSH1 0x24 PUSH1 0x0 REVERT JUMPDEST PUSH1 0x20 MUL PUSH1 0x20 ADD ADD DUP2 DUP2 MSTORE POP POP PUSH2 0x2EF7 DUP16 DUP4 DUP4 DUP2 MLOAD DUP2 LT PUSH2 0x2EEA JUMPI PUSH4 0x4E487B71 PUSH1 0xE0 SHL PUSH1 0x0 MSTORE PUSH1 0x32 PUSH1 0x4 MSTORE PUSH1 0x24 PUSH1 0x0 REVERT JUMPDEST PUSH1 0x20 MUL PUSH1 0x20 ADD ADD MLOAD PUSH2 0x1A14 JUMP JUMPDEST DUP4 DUP3 DUP2 MLOAD DUP2 LT PUSH2 0x2F17 JUMPI PUSH4 0x4E487B71 PUSH1 0xE0 SHL PUSH1 0x0 MSTORE PUSH1 0x32 PUSH1 0x4 MSTORE PUSH1 0x24 PUSH1 0x0 REVERT JUMPDEST PUSH1 0x20 MUL PUSH1 0x20 ADD ADD DUP2 SWAP1 MSTORE POP DUP1 DUP1 PUSH2 0x2F2D SWAP1 PUSH2 0x3B83 JUMP JUMPDEST SWAP2 POP POP PUSH2 0x2E55 JUMP JUMPDEST POP SWAP1 SWAP9 POP SWAP7 POP POP POP POP POP POP POP JUMPDEST SWAP5 POP SWAP5 SWAP3 POP POP POP JUMP JUMPDEST PUSH1 0x0 DUP1 PUSH1 0x0 PUSH2 0x2F64 PUSH1 0x7 SLOAD PUSH2 0xA8C0 TIMESTAMP PUSH2 0x3E5 SWAP2 SWAP1 PUSH2 0x3AF4 JUMP JUMPDEST SWAP1 SWAP3 POP SWAP1 POP DUP1 ISZERO PUSH2 0x30A2 JUMPI PUSH1 0x0 DUP3 DUP1 PUSH1 0x20 ADD SWAP1 MLOAD DUP2 ADD SWAP1 PUSH2 0x2F85 SWAP2 SWAP1 PUSH2 0x335B JUMP JUMPDEST SWAP1 POP PUSH1 0x0 JUMPDEST DUP2 MLOAD DUP2 LT ISZERO PUSH2 0x309F JUMPI PUSH1 0x0 DUP1 DUP4 DUP4 DUP2 MLOAD DUP2 LT PUSH2 0x2FB6 JUMPI PUSH4 0x4E487B71 PUSH1 0xE0 SHL PUSH1 0x0 MSTORE PUSH1 0x32 PUSH1 0x4 MSTORE PUSH1 0x24 PUSH1 0x0 REVERT JUMPDEST PUSH1 0x20 MUL PUSH1 0x20 ADD ADD MLOAD PUSH1 0x1 PUSH1 0x1 PUSH1 0xA0 SHL SUB AND DUP9 PUSH1 0x40 MLOAD PUSH1 0x24 ADD PUSH2 0x2FE7 SWAP2 SWAP1 PUSH1 0x1 PUSH1 0x1 PUSH1 0xA0 SHL SUB SWAP2 SWAP1 SWAP2 AND DUP2 MSTORE PUSH1 0x20 ADD SWAP1 JUMP JUMPDEST PUSH1 0x40 DUP1 MLOAD PUSH1 0x1F NOT DUP2 DUP5 SUB ADD DUP2 MSTORE SWAP2 DUP2 MSTORE PUSH1 0x20 DUP3 ADD DUP1 MLOAD PUSH1 0x1 PUSH1 0x1 PUSH1 0xE0 SHL SUB AND PUSH4 0x45D60823 PUSH1 0xE0 SHL OR SWAP1 MSTORE MLOAD PUSH2 0x301C SWAP2 SWAP1 PUSH2 0x377E JUMP JUMPDEST PUSH1 0x0 PUSH1 0x40 MLOAD DUP1 DUP4 SUB DUP2 PUSH1 0x0 DUP7 GAS CALL SWAP2 POP POP RETURNDATASIZE DUP1 PUSH1 0x0 DUP2 EQ PUSH2 0x3059 JUMPI PUSH1 0x40 MLOAD SWAP2 POP PUSH1 0x1F NOT PUSH1 0x3F RETURNDATASIZE ADD AND DUP3 ADD PUSH1 0x40 MSTORE RETURNDATASIZE DUP3 MSTORE RETURNDATASIZE PUSH1 0x0 PUSH1 0x20 DUP5 ADD RETURNDATACOPY PUSH2 0x305E JUMP JUMPDEST PUSH1 0x60 SWAP2 POP JUMPDEST POP SWAP2 POP SWAP2 POP DUP2 ISZERO PUSH2 0x308A JUMPI DUP1 DUP1 PUSH1 0x20 ADD SWAP1 MLOAD DUP2 ADD SWAP1 PUSH2 0x307D SWAP2 SWAP1 PUSH2 0x358D JUMP JUMPDEST PUSH2 0x3087 SWAP1 DUP9 PUSH2 0x3992 JUMP JUMPDEST SWAP7 POP JUMPDEST POP POP DUP1 DUP1 PUSH2 0x3097 SWAP1 PUSH2 0x3B83 JUMP JUMPDEST SWAP2 POP POP PUSH2 0x2F8A JUMP JUMPDEST POP POP JUMPDEST POP POP SWAP2 SWAP1 POP JUMP JUMPDEST PUSH1 0x0 DUP1 JUMPDEST DUP3 MLOAD DUP2 LT ISZERO PUSH2 0x3108 JUMPI DUP3 DUP2 DUP2 MLOAD DUP2 LT PUSH2 0x30D6 JUMPI PUSH4 0x4E487B71 PUSH1 0xE0 SHL PUSH1 0x0 MSTORE PUSH1 0x32 PUSH1 0x4 MSTORE PUSH1 0x24 PUSH1 0x0 REVERT JUMPDEST ADD PUSH1 0x20 ADD MLOAD PUSH1 0xF8 SHR PUSH2 0x30EA DUP4 PUSH2 0x100 PUSH2 0x3AD5 JUMP JUMPDEST PUSH2 0x30F4 SWAP2 SWAP1 PUSH2 0x3992 JUMP JUMPDEST SWAP2 POP DUP1 PUSH2 0x3100 DUP2 PUSH2 0x3B83 JUMP JUMPDEST SWAP2 POP POP PUSH2 0x30AD JUMP JUMPDEST POP SWAP2 SWAP1 POP JUMP JUMPDEST DUP3 DUP1 SLOAD PUSH2 0x311A SWAP1 PUSH2 0x3B4E JUMP JUMPDEST SWAP1 PUSH1 0x0 MSTORE PUSH1 0x20 PUSH1 0x0 KECCAK256 SWAP1 PUSH1 0x1F ADD PUSH1 0x20 SWAP1 DIV DUP2 ADD SWAP3 DUP3 PUSH2 0x313C JUMPI PUSH1 0x0 DUP6 SSTORE PUSH2 0x3182 JUMP JUMPDEST DUP3 PUSH1 0x1F LT PUSH2 0x3155 JUMPI DUP1 MLOAD PUSH1 0xFF NOT AND DUP4 DUP1 ADD OR DUP6 SSTORE PUSH2 0x3182 JUMP JUMPDEST DUP3 DUP1 ADD PUSH1 0x1 ADD DUP6 SSTORE DUP3 ISZERO PUSH2 0x3182 JUMPI SWAP2 DUP3 ADD JUMPDEST DUP3 DUP2 GT ISZERO PUSH2 0x3182 JUMPI DUP3 MLOAD DUP3 SSTORE SWAP2 PUSH1 0x20 ADD SWAP2 SWAP1 PUSH1 0x1 ADD SWAP1 PUSH2 0x3167 JUMP JUMPDEST POP PUSH2 0x318E SWAP3 SWAP2 POP PUSH2 0x322C JUMP JUMPDEST POP SWAP1 JUMP JUMPDEST DUP3 DUP1 SLOAD PUSH2 0x319E SWAP1 PUSH2 0x3B4E JUMP JUMPDEST SWAP1 PUSH1 0x0 MSTORE PUSH1 0x20 PUSH1 0x0 KECCAK256 SWAP1 PUSH1 0x1F ADD PUSH1 0x20 SWAP1 DIV DUP2 ADD SWAP3 DUP3 PUSH2 0x31C0 JUMPI PUSH1 0x0 DUP6 SSTORE PUSH2 0x3182 JUMP JUMPDEST DUP3 PUSH1 0x1F LT PUSH2 0x31D1 JUMPI DUP1 SLOAD DUP6 SSTORE PUSH2 0x3182 JUMP JUMPDEST DUP3 DUP1 ADD PUSH1 0x1 ADD DUP6 SSTORE DUP3 ISZERO PUSH2 0x3182 JUMPI PUSH1 0x0 MSTORE PUSH1 0x20 PUSH1 0x0 KECCAK256 SWAP2 PUSH1 0x1F ADD PUSH1 0x20 SWAP1 DIV DUP3 ADD JUMPDEST DUP3 DUP2 GT ISZERO PUSH2 0x3182 JUMPI DUP3 SLOAD DUP3 SSTORE SWAP2 PUSH1 0x1 ADD SWAP2 SWAP1 PUSH1 0x1 ADD SWAP1 PUSH2 0x31F2 JUMP JUMPDEST PUSH1 0x40 MLOAD DUP1 PUSH2 0x220 ADD PUSH1 0x40 MSTORE DUP1 PUSH1 0x11 SWAP1 PUSH1 0x20 DUP3 MUL DUP1 CALLDATASIZE DUP4 CALLDATACOPY POP SWAP2 SWAP3 SWAP2 POP POP JUMP JUMPDEST JUMPDEST DUP1 DUP3 GT ISZERO PUSH2 0x318E JUMPI PUSH1 0x0 DUP2 SSTORE PUSH1 0x1 ADD PUSH2 0x322D JUMP JUMPDEST PUSH1 0x0 DUP3 PUSH1 0x1F DUP4 ADD SLT PUSH2 0x3251 JUMPI DUP1 DUP2 REVERT JUMPDEST DUP2 CALLDATALOAD PUSH1 0x20 PUSH2 0x3266 PUSH2 0x3261 DUP4 PUSH2 0x396E JUMP JUMPDEST PUSH2 0x393D JUMP JUMPDEST DUP1 DUP4 DUP3 MSTORE DUP3 DUP3 ADD SWAP2 POP DUP3 DUP7 ADD DUP8 DUP5 DUP7 PUSH1 0x5 SHL DUP10 ADD ADD GT ISZERO PUSH2 0x3285 JUMPI DUP6 DUP7 REVERT JUMPDEST DUP6 JUMPDEST DUP6 DUP2 LT ISZERO PUSH2 0x32AC JUMPI DUP2 CALLDATALOAD PUSH2 0x329A DUP2 PUSH2 0x3BE2 JUMP JUMPDEST DUP5 MSTORE SWAP3 DUP5 ADD SWAP3 SWAP1 DUP5 ADD SWAP1 PUSH1 0x1 ADD PUSH2 0x3287 JUMP JUMPDEST POP SWAP1 SWAP8 SWAP7 POP POP POP POP POP POP POP JUMP JUMPDEST PUSH1 0x0 DUP3 PUSH1 0x1F DUP4 ADD SLT PUSH2 0x32C9 JUMPI DUP1 DUP2 REVERT JUMPDEST DUP2 MLOAD PUSH8 0xFFFFFFFFFFFFFFFF DUP2 GT ISZERO PUSH2 0x32E3 JUMPI PUSH2 0x32E3 PUSH2 0x3BB4 JUMP JUMPDEST PUSH2 0x32F6 PUSH1 0x1F DUP3 ADD PUSH1 0x1F NOT AND PUSH1 0x20 ADD PUSH2 0x393D JUMP JUMPDEST DUP2 DUP2 MSTORE DUP5 PUSH1 0x20 DUP4 DUP7 ADD ADD GT ISZERO PUSH2 0x330A JUMPI DUP3 DUP4 REVERT JUMPDEST PUSH2 0x331B DUP3 PUSH1 0x20 DUP4 ADD PUSH1 0x20 DUP8 ADD PUSH2 0x3B0B JUMP JUMPDEST SWAP5 SWAP4 POP POP POP POP JUMP JUMPDEST PUSH1 0x0 PUSH1 0x20 DUP3 DUP5 SUB SLT ISZERO PUSH2 0x3334 JUMPI DUP1 DUP2 REVERT JUMPDEST DUP2 CALLDATALOAD PUSH2 0x1097 DUP2 PUSH2 0x3BCA JUMP JUMPDEST PUSH1 0x0 PUSH1 0x20 DUP3 DUP5 SUB SLT ISZERO PUSH2 0x3350 JUMPI DUP1 DUP2 REVERT JUMPDEST DUP2 MLOAD PUSH2 0x1097 DUP2 PUSH2 0x3BCA JUMP JUMPDEST PUSH1 0x0 PUSH1 0x20 DUP1 DUP4 DUP6 SUB SLT ISZERO PUSH2 0x336D JUMPI DUP2 DUP3 REVERT JUMPDEST DUP3 MLOAD PUSH8 0xFFFFFFFFFFFFFFFF DUP2 GT ISZERO PUSH2 0x3383 JUMPI DUP3 DUP4 REVERT JUMPDEST DUP4 ADD PUSH1 0x1F DUP2 ADD DUP6 SGT PUSH2 0x3393 JUMPI DUP3 DUP4 REVERT JUMPDEST DUP1 MLOAD PUSH2 0x33A1 PUSH2 0x3261 DUP3 PUSH2 0x396E JUMP JUMPDEST DUP1 DUP3 DUP3 MSTORE DUP5 DUP3 ADD SWAP2 POP DUP5 DUP5 ADD DUP9 DUP7 DUP6 PUSH1 0x5 SHL DUP8 ADD ADD GT ISZERO PUSH2 0x33C0 JUMPI DUP7 DUP8 REVERT JUMPDEST DUP7 SWAP5 POP JUMPDEST DUP4 DUP6 LT ISZERO PUSH2 0x33EB JUMPI DUP1 MLOAD PUSH2 0x33D7 DUP2 PUSH2 0x3BCA JUMP JUMPDEST DUP4 MSTORE PUSH1 0x1 SWAP5 SWAP1 SWAP5 ADD SWAP4 SWAP2 DUP6 ADD SWAP2 DUP6 ADD PUSH2 0x33C4 JUMP JUMPDEST POP SWAP8 SWAP7 POP POP POP POP POP POP POP JUMP JUMPDEST PUSH1 0x0 DUP1 PUSH1 0x0 PUSH1 0x60 DUP5 DUP7 SUB SLT ISZERO PUSH2 0x340B JUMPI DUP2 DUP3 REVERT JUMPDEST DUP4 CALLDATALOAD PUSH8 0xFFFFFFFFFFFFFFFF DUP1 DUP3 GT ISZERO PUSH2 0x3422 JUMPI DUP4 DUP5 REVERT JUMPDEST DUP2 DUP7 ADD SWAP2 POP DUP7 PUSH1 0x1F DUP4 ADD SLT PUSH2 0x3435 JUMPI DUP4 DUP5 REVERT JUMPDEST DUP2 CALLDATALOAD PUSH1 0x20 PUSH2 0x3445 PUSH2 0x3261 DUP4 PUSH2 0x396E JUMP JUMPDEST DUP1 DUP4 DUP3 MSTORE DUP3 DUP3 ADD SWAP2 POP DUP3 DUP7 ADD DUP12 DUP5 DUP7 PUSH1 0x5 SHL DUP10 ADD ADD GT ISZERO PUSH2 0x3464 JUMPI DUP9 DUP10 REVERT JUMPDEST DUP9 SWAP7 POP JUMPDEST DUP5 DUP8 LT ISZERO PUSH2 0x3486 JUMPI DUP1 CALLDATALOAD DUP4 MSTORE PUSH1 0x1 SWAP7 SWAP1 SWAP7 ADD SWAP6 SWAP2 DUP4 ADD SWAP2 DUP4 ADD PUSH2 0x3468 JUMP JUMPDEST POP SWAP8 POP POP DUP8 ADD CALLDATALOAD SWAP3 POP POP DUP1 DUP3 GT ISZERO PUSH2 0x349C JUMPI DUP4 DUP5 REVERT JUMPDEST PUSH2 0x34A8 DUP8 DUP4 DUP9 ADD PUSH2 0x3241 JUMP JUMPDEST SWAP4 POP PUSH1 0x40 DUP7 ADD CALLDATALOAD SWAP2 POP DUP1 DUP3 GT ISZERO PUSH2 0x34BD JUMPI DUP3 DUP4 REVERT JUMPDEST POP PUSH2 0x34CA DUP7 DUP3 DUP8 ADD PUSH2 0x3241 JUMP JUMPDEST SWAP2 POP POP SWAP3 POP SWAP3 POP SWAP3 JUMP JUMPDEST PUSH1 0x0 PUSH1 0x20 DUP3 DUP5 SUB SLT ISZERO PUSH2 0x34E5 JUMPI DUP1 DUP2 REVERT JUMPDEST DUP2 MLOAD PUSH2 0x1097 DUP2 PUSH2 0x3BE2 JUMP JUMPDEST PUSH1 0x0 DUP1 PUSH1 0x0 PUSH1 0x60 DUP5 DUP7 SUB SLT ISZERO PUSH2 0x3504 JUMPI DUP3 DUP4 REVERT JUMPDEST DUP4 MLOAD PUSH2 0x350F DUP2 PUSH2 0x3BE2 JUMP JUMPDEST PUSH1 0x20 DUP6 ADD MLOAD SWAP1 SWAP4 POP PUSH8 0xFFFFFFFFFFFFFFFF DUP2 GT ISZERO PUSH2 0x352B JUMPI DUP3 DUP4 REVERT JUMPDEST PUSH2 0x3537 DUP7 DUP3 DUP8 ADD PUSH2 0x32B9 JUMP JUMPDEST SWAP3 POP POP PUSH1 0x40 DUP5 ADD MLOAD SWAP1 POP SWAP3 POP SWAP3 POP SWAP3 JUMP JUMPDEST PUSH1 0x0 DUP1 PUSH1 0x40 DUP4 DUP6 SUB SLT ISZERO PUSH2 0x355A JUMPI DUP2 DUP3 REVERT JUMPDEST DUP3 MLOAD PUSH2 0x3565 DUP2 PUSH2 0x3BE2 JUMP JUMPDEST PUSH1 0x20 SWAP4 SWAP1 SWAP4 ADD MLOAD SWAP3 SWAP5 SWAP3 SWAP4 POP POP POP JUMP JUMPDEST PUSH1 0x0 PUSH1 0x20 DUP3 DUP5 SUB SLT ISZERO PUSH2 0x3586 JUMPI DUP1 DUP2 REVERT JUMPDEST POP CALLDATALOAD SWAP2 SWAP1 POP JUMP JUMPDEST PUSH1 0x0 PUSH1 0x20 DUP3 DUP5 SUB SLT ISZERO PUSH2 0x359E JUMPI DUP1 DUP2 REVERT JUMPDEST POP MLOAD SWAP2 SWAP1 POP JUMP JUMPDEST PUSH1 0x0 DUP1 PUSH1 0x40 DUP4 DUP6 SUB SLT ISZERO PUSH2 0x35B7 JUMPI DUP2 DUP3 REVERT JUMPDEST POP POP DUP1 CALLDATALOAD SWAP3 PUSH1 0x20 SWAP1 SWAP2 ADD CALLDATALOAD SWAP2 POP JUMP JUMPDEST PUSH1 0x0 DUP1 PUSH1 0x0 DUP1 PUSH1 0x80 DUP6 DUP8 SUB SLT ISZERO PUSH2 0x35DB JUMPI DUP2 DUP3 REVERT JUMPDEST POP POP DUP3 CALLDATALOAD SWAP5 PUSH1 0x20 DUP5 ADD CALLDATALOAD SWAP5 POP PUSH1 0x40 DUP5 ADD CALLDATALOAD SWAP4 PUSH1 0x60 ADD CALLDATALOAD SWAP3 POP SWAP1 POP JUMP JUMPDEST PUSH1 0x0 PUSH1 0x20 DUP3 DUP5 SUB SLT ISZERO PUSH2 0x3608 JUMPI DUP1 DUP2 REVERT JUMPDEST DUP2 MLOAD PUSH8 0xFFFFFFFFFFFFFFFF DUP2 GT ISZERO PUSH2 0x361E JUMPI DUP2 DUP3 REVERT JUMPDEST PUSH2 0x331B DUP5 DUP3 DUP6 ADD PUSH2 0x32B9 JUMP JUMPDEST PUSH1 0x0 DUP1 PUSH1 0x40 DUP4 DUP6 SUB SLT ISZERO PUSH2 0x363C JUMPI DUP2 DUP3 REVERT JUMPDEST DUP3 CALLDATALOAD SWAP2 POP PUSH1 0x20 DUP4 ADD CALLDATALOAD PUSH2 0x364E DUP2 PUSH2 0x3BCA JUMP JUMPDEST DUP1 SWAP2 POP POP SWAP3 POP SWAP3 SWAP1 POP JUMP JUMPDEST PUSH1 0x0 DUP1 PUSH1 0x0 PUSH1 0x60 DUP5 DUP7 SUB SLT ISZERO PUSH2 0x366D JUMPI DUP1 DUP2 REVERT JUMPDEST DUP4 CALLDATALOAD SWAP3 POP PUSH1 0x20 DUP5 ADD CALLDATALOAD PUSH2 0x367F DUP2 PUSH2 0x3BE2 JUMP JUMPDEST SWAP2 POP PUSH1 0x40 DUP5 ADD CALLDATALOAD PUSH2 0x368F DUP2 PUSH2 0x3BE2 JUMP JUMPDEST DUP1 SWAP2 POP POP SWAP3 POP SWAP3 POP SWAP3 JUMP JUMPDEST PUSH1 0x0 DUP1 PUSH1 0x0 DUP1 PUSH1 0x0 DUP1 PUSH1 0x0 DUP1 PUSH2 0x100 DUP10 DUP12 SUB SLT ISZERO PUSH2 0x36B6 JUMPI DUP6 DUP7 REVERT JUMPDEST POP POP DUP7 MLOAD PUSH1 0x20 DUP9 ADD MLOAD PUSH1 0x40 DUP10 ADD MLOAD PUSH1 0x60 DUP11 ADD MLOAD PUSH1 0x80 DUP12 ADD MLOAD PUSH1 0xA0 DUP13 ADD MLOAD PUSH1 0xC0 DUP14 ADD MLOAD PUSH1 0xE0 SWAP1 SWAP14 ADD MLOAD SWAP6 SWAP15 SWAP5 SWAP14 POP SWAP3 SWAP12 SWAP2 SWAP11 POP SWAP9 POP SWAP1 SWAP7 POP SWAP5 POP SWAP1 SWAP3 POP SWAP1 POP JUMP JUMPDEST PUSH1 0x0 DUP2 MLOAD DUP1 DUP5 MSTORE PUSH1 0x20 DUP1 DUP6 ADD SWAP5 POP DUP1 DUP5 ADD DUP4 JUMPDEST DUP4 DUP2 LT ISZERO PUSH2 0x3725 JUMPI DUP2 MLOAD DUP8 MSTORE SWAP6 DUP3 ADD SWAP6 SWAP1 DUP3 ADD SWAP1 PUSH1 0x1 ADD PUSH2 0x3709 JUMP JUMPDEST POP SWAP5 SWAP6 SWAP5 POP POP POP POP POP JUMP JUMPDEST PUSH1 0x0 DUP2 MLOAD DUP1 DUP5 MSTORE PUSH2 0x3748 DUP2 PUSH1 0x20 DUP7 ADD PUSH1 0x20 DUP7 ADD PUSH2 0x3B0B JUMP JUMPDEST PUSH1 0x1F ADD PUSH1 0x1F NOT AND SWAP3 SWAP1 SWAP3 ADD PUSH1 0x20 ADD SWAP3 SWAP2 POP POP JUMP JUMPDEST PUSH1 0x3 DUP2 LT PUSH2 0x377A JUMPI PUSH4 0x4E487B71 PUSH1 0xE0 SHL PUSH1 0x0 MSTORE PUSH1 0x21 PUSH1 0x4 MSTORE PUSH1 0x24 PUSH1 0x0 REVERT JUMPDEST SWAP1 MSTORE JUMP JUMPDEST PUSH1 0x0 DUP3 MLOAD PUSH2 0x3790 DUP2 DUP5 PUSH1 0x20 DUP8 ADD PUSH2 0x3B0B JUMP JUMPDEST SWAP2 SWAP1 SWAP2 ADD SWAP3 SWAP2 POP POP JUMP JUMPDEST PUSH1 0x0 PUSH1 0x40 DUP3 ADD PUSH1 0x40 DUP4 MSTORE DUP1 DUP6 MLOAD DUP1 DUP4 MSTORE PUSH1 0x60 DUP6 ADD SWAP2 POP PUSH1 0x60 DUP2 PUSH1 0x5 SHL DUP7 ADD ADD SWAP3 POP PUSH1 0x20 DUP1 DUP9 ADD DUP6 JUMPDEST DUP4 DUP2 LT ISZERO PUSH2 0x37F0 JUMPI PUSH1 0x5F NOT DUP9 DUP8 SUB ADD DUP6 MSTORE PUSH2 0x37DE DUP7 DUP4 MLOAD PUSH2 0x3730 JUMP JUMPDEST SWAP6 POP SWAP4 DUP3 ADD SWAP4 SWAP1 DUP3 ADD SWAP1 PUSH1 0x1 ADD PUSH2 0x37C2 JUMP JUMPDEST POP POP DUP6 DUP5 SUB DUP2 DUP8 ADD MSTORE POP POP POP PUSH2 0x3806 DUP2 DUP6 PUSH2 0x36F6 JUMP JUMPDEST SWAP6 SWAP5 POP POP POP POP POP JUMP JUMPDEST PUSH1 0x0 PUSH1 0x20 DUP3 MSTORE PUSH2 0x1097 PUSH1 0x20 DUP4 ADD DUP5 PUSH2 0x36F6 JUMP JUMPDEST DUP6 DUP2 MSTORE PUSH2 0x2A0 DUP2 ADD PUSH1 0x20 DUP1 DUP4 ADD DUP8 PUSH1 0x0 JUMPDEST PUSH1 0x11 DUP2 LT ISZERO PUSH2 0x3850 JUMPI DUP2 MLOAD DUP4 MSTORE SWAP2 DUP4 ADD SWAP2 SWAP1 DUP4 ADD SWAP1 PUSH1 0x1 ADD PUSH2 0x3833 JUMP JUMPDEST POP POP POP POP DUP5 ISZERO ISZERO PUSH2 0x240 DUP4 ADD MSTORE PUSH2 0x386B PUSH2 0x260 DUP4 ADD DUP6 PUSH2 0x375C JUMP JUMPDEST PUSH1 0x1 PUSH1 0x1 PUSH1 0xA0 SHL SUB DUP4 AND PUSH2 0x280 DUP4 ADD MSTORE SWAP7 SWAP6 POP POP POP POP POP POP JUMP JUMPDEST PUSH1 0x0 DUP6 DUP3 MSTORE DUP5 PUSH1 0x20 DUP4 ADD MSTORE PUSH1 0x80 PUSH1 0x40 DUP4 ADD MSTORE PUSH2 0x38A4 PUSH1 0x80 DUP4 ADD DUP6 PUSH2 0x3730 JUMP JUMPDEST SWAP1 POP PUSH1 0x1 PUSH1 0x1 PUSH1 0xA0 SHL SUB DUP4 AND PUSH1 0x60 DUP4 ADD MSTORE SWAP6 SWAP5 POP POP POP POP POP JUMP JUMPDEST PUSH1 0x0 PUSH1 0x20 DUP3 MSTORE PUSH2 0x1097 PUSH1 0x20 DUP4 ADD DUP5 PUSH2 0x3730 JUMP JUMPDEST PUSH1 0x0 PUSH1 0x40 DUP3 MSTORE PUSH2 0x38E4 PUSH1 0x40 DUP4 ADD DUP6 PUSH2 0x3730 JUMP JUMPDEST SWAP1 POP DUP3 PUSH1 0x20 DUP4 ADD MSTORE SWAP4 SWAP3 POP POP POP JUMP JUMPDEST DUP3 DUP2 MSTORE PUSH1 0x40 DUP2 ADD PUSH2 0x1097 PUSH1 0x20 DUP4 ADD DUP5 PUSH2 0x375C JUMP JUMPDEST DUP5 DUP2 MSTORE PUSH1 0x80 DUP2 ADD PUSH2 0x391B PUSH1 0x20 DUP4 ADD DUP7 PUSH2 0x375C JUMP JUMPDEST PUSH1 0x1 PUSH1 0x1 PUSH1 0xA0 SHL SUB DUP1 DUP6 AND PUSH1 0x40 DUP5 ADD MSTORE DUP1 DUP5 AND PUSH1 0x60 DUP5 ADD MSTORE POP SWAP6 SWAP5 POP POP POP POP POP JUMP JUMPDEST PUSH1 0x40 MLOAD PUSH1 0x1F DUP3 ADD PUSH1 0x1F NOT AND DUP2 ADD PUSH8 0xFFFFFFFFFFFFFFFF DUP2 GT DUP3 DUP3 LT OR ISZERO PUSH2 0x3966 JUMPI PUSH2 0x3966 PUSH2 0x3BB4 JUMP JUMPDEST PUSH1 0x40 MSTORE SWAP2 SWAP1 POP JUMP JUMPDEST PUSH1 0x0 PUSH8 0xFFFFFFFFFFFFFFFF DUP3 GT ISZERO PUSH2 0x3988 JUMPI PUSH2 0x3988 PUSH2 0x3BB4 JUMP JUMPDEST POP PUSH1 0x5 SHL PUSH1 0x20 ADD SWAP1 JUMP JUMPDEST PUSH1 0x0 DUP3 NOT DUP3 GT ISZERO PUSH2 0x39A5 JUMPI PUSH2 0x39A5 PUSH2 0x3B9E JUMP JUMPDEST POP ADD SWAP1 JUMP JUMPDEST PUSH1 0x0 DUP3 PUSH2 0x39C5 JUMPI PUSH4 0x4E487B71 PUSH1 0xE0 SHL DUP2 MSTORE PUSH1 0x12 PUSH1 0x4 MSTORE PUSH1 0x24 DUP2 REVERT JUMPDEST POP DIV SWAP1 JUMP JUMPDEST DUP1 DUP3 JUMPDEST PUSH1 0x1 DUP1 DUP7 GT PUSH2 0x39DC JUMPI POP PUSH2 0x2F42 JUMP JUMPDEST DUP2 DUP8 DIV DUP3 GT ISZERO PUSH2 0x39EE JUMPI PUSH2 0x39EE PUSH2 0x3B9E JUMP JUMPDEST DUP1 DUP7 AND ISZERO PUSH2 0x39FB JUMPI SWAP2 DUP2 MUL SWAP2 JUMPDEST SWAP5 SWAP1 SWAP5 SHR SWAP4 DUP1 MUL PUSH2 0x39CD JUMP JUMPDEST PUSH1 0x0 PUSH2 0x1097 PUSH1 0x0 NOT DUP5 DUP5 PUSH1 0x0 DUP3 PUSH2 0x3A20 JUMPI POP PUSH1 0x1 PUSH2 0x1097 JUMP JUMPDEST DUP2 PUSH2 0x3A2D JUMPI POP PUSH1 0x0 PUSH2 0x1097 JUMP JUMPDEST DUP2 PUSH1 0x1 DUP2 EQ PUSH2 0x3A43 JUMPI PUSH1 0x2 DUP2 EQ PUSH2 0x3A4D JUMPI PUSH2 0x3A7A JUMP JUMPDEST PUSH1 0x1 SWAP2 POP POP PUSH2 0x1097 JUMP JUMPDEST PUSH1 0xFF DUP5 GT ISZERO PUSH2 0x3A5E JUMPI PUSH2 0x3A5E PUSH2 0x3B9E JUMP JUMPDEST PUSH1 0x1 DUP5 SHL SWAP2 POP DUP5 DUP3 GT ISZERO PUSH2 0x3A74 JUMPI PUSH2 0x3A74 PUSH2 0x3B9E JUMP JUMPDEST POP PUSH2 0x1097 JUMP JUMPDEST POP PUSH1 0x20 DUP4 LT PUSH2 0x133 DUP4 LT AND PUSH1 0x4E DUP5 LT PUSH1 0xB DUP5 LT AND OR ISZERO PUSH2 0x3AAD JUMPI POP DUP2 DUP2 EXP DUP4 DUP2 GT ISZERO PUSH2 0x3AA8 JUMPI PUSH2 0x3AA8 PUSH2 0x3B9E JUMP JUMPDEST PUSH2 0x1097 JUMP JUMPDEST PUSH2 0x3ABA DUP5 DUP5 DUP5 PUSH1 0x1 PUSH2 0x39CA JUMP JUMPDEST DUP1 DUP7 DIV DUP3 GT ISZERO PUSH2 0x3ACC JUMPI PUSH2 0x3ACC PUSH2 0x3B9E JUMP JUMPDEST MUL SWAP5 SWAP4 POP POP POP POP JUMP JUMPDEST PUSH1 0x0 DUP2 PUSH1 0x0 NOT DIV DUP4 GT DUP3 ISZERO ISZERO AND ISZERO PUSH2 0x3AEF JUMPI PUSH2 0x3AEF PUSH2 0x3B9E JUMP JUMPDEST POP MUL SWAP1 JUMP JUMPDEST PUSH1 0x0 DUP3 DUP3 LT ISZERO PUSH2 0x3B06 JUMPI PUSH2 0x3B06 PUSH2 0x3B9E JUMP JUMPDEST POP SUB SWAP1 JUMP JUMPDEST PUSH1 0x0 JUMPDEST DUP4 DUP2 LT ISZERO PUSH2 0x3B26 JUMPI DUP2 DUP2 ADD MLOAD DUP4 DUP3 ADD MSTORE PUSH1 0x20 ADD PUSH2 0x3B0E JUMP JUMPDEST DUP4 DUP2 GT ISZERO PUSH2 0x617 JUMPI POP POP PUSH1 0x0 SWAP2 ADD MSTORE JUMP JUMPDEST PUSH1 0x0 DUP2 PUSH2 0x3B46 JUMPI PUSH2 0x3B46 PUSH2 0x3B9E JUMP JUMPDEST POP PUSH1 0x0 NOT ADD SWAP1 JUMP JUMPDEST PUSH1 0x1 DUP2 DUP2 SHR SWAP1 DUP3 AND DUP1 PUSH2 0x3B62 JUMPI PUSH1 0x7F DUP3 AND SWAP2 POP JUMPDEST PUSH1 0x20 DUP3 LT DUP2 EQ ISZERO PUSH2 0x3108 JUMPI PUSH4 0x4E487B71 PUSH1 0xE0 SHL PUSH1 0x0 MSTORE PUSH1 0x22 PUSH1 0x4 MSTORE PUSH1 0x24 PUSH1 0x0 REVERT JUMPDEST PUSH1 0x0 PUSH1 0x0 NOT DUP3 EQ ISZERO PUSH2 0x3B97 JUMPI PUSH2 0x3B97 PUSH2 0x3B9E JUMP JUMPDEST POP PUSH1 0x1 ADD SWAP1 JUMP JUMPDEST PUSH4 0x4E487B71 PUSH1 0xE0 SHL PUSH1 0x0 MSTORE PUSH1 0x11 PUSH1 0x4 MSTORE PUSH1 0x24 PUSH1 0x0 REVERT JUMPDEST PUSH4 0x4E487B71 PUSH1 0xE0 SHL PUSH1 0x0 MSTORE PUSH1 0x41 PUSH1 0x4 MSTORE PUSH1 0x24 PUSH1 0x0 REVERT JUMPDEST PUSH1 0x1 PUSH1 0x1 PUSH1 0xA0 SHL SUB DUP2 AND DUP2 EQ PUSH2 0x3BDF JUMPI PUSH1 0x0 DUP1 REVERT JUMPDEST POP JUMP JUMPDEST DUP1 ISZERO ISZERO DUP2 EQ PUSH2 0x3BDF JUMPI PUSH1 0x0 DUP1 REVERT INVALID LOG2 PUSH5 0x6970667358 0x22 SLT KECCAK256 PUSH27 0xDCEE8CAD848A7F3146E2CFFD63EEA587FE7CE26923C3CC78B3C1F2 0xD8 0xC9 0xAD 0x2D PUSH5 0x736F6C6343 STOP ADDMOD SUB STOP CALLER "},"methodIdentifiers":{"autopayAddrsQueryId()":"d8add0f6","beginDispute(bytes32,uint256)":"1f379acc","didVote(uint256,address)":"a7c438bc","executeVote(uint256)":"f98a4eca","getDataAfter(bytes32,uint256)":"64ee3c6d","getDataBefore(bytes32,uint256)":"a792765f","getDisputeFee()":"bbf3e10b","getDisputeInfo(uint256)":"6169c308","getDisputesByReporter(address)":"4e9fe708","getIndexForDataAfter(bytes32,uint256)":"f66f49c3","getIndexForDataBefore(bytes32,uint256)":"29449085","getMultipleValuesBefore(bytes32,uint256,uint256,uint256)":"fcd4a546","getNewValueCountbyQueryId(bytes32)":"77b03e0d","getOpenDisputesOnId(bytes32)":"0e1596ef","getReporterByTimestamp(bytes32,uint256)":"e07c5486","getTimestampbyQueryIdandIndex(bytes32,uint256)":"ce5e11bf","getVoteCount()":"e7b3387c","getVoteInfo(uint256)":"8d824273","getVoteRounds(bytes32)":"248638e5","getVoteTallyByAddress(address)":"bdc7d9d8","idMappingContract()":"2af8aae0","isInDispute(bytes32,uint256)":"44e87f91","oracle()":"7dc0d1d0","oracleAddress()":"a89ae4ba","retrieveData(bytes32,uint256)":"c5958af9","setIdMappingContract(address)":"193b505b","tallyVotes(uint256)":"4d318b0e","teamMultisig()":"dbc0c085","tellor()":"1959ad5b","token()":"fc0c546a","valueFor(bytes32)":"f78eea83","vote(uint256,bool,bool)":"df133bca","voteCount()":"c6384071","voteOnMultipleDisputes(uint256[],bool[],bool[])":"00b12190"}}}}}