{"usingtellor/contracts/UsingTellor.sol":{"UsingTellor":{"abi":[{"inputs":[{"internalType":"address payable","name":"_tellor","type":"address"}],"stateMutability":"nonpayable","type":"constructor"},{"inputs":[{"internalType":"bytes32","name":"_queryId","type":"bytes32"},{"internalType":"uint256","name":"_timestamp","type":"uint256"}],"name":"getDataAfter","outputs":[{"internalType":"bytes","name":"_value","type":"bytes"},{"internalType":"uint256","name":"_timestampRetrieved","type":"uint256"}],"stateMutability":"view","type":"function"},{"inputs":[{"internalType":"bytes32","name":"_queryId","type":"bytes32"},{"internalType":"uint256","name":"_timestamp","type":"uint256"}],"name":"getDataBefore","outputs":[{"internalType":"bytes","name":"_value","type":"bytes"},{"internalType":"uint256","name":"_timestampRetrieved","type":"uint256"}],"stateMutability":"view","type":"function"},{"inputs":[{"internalType":"bytes32","name":"_queryId","type":"bytes32"},{"internalType":"uint256","name":"_timestamp","type":"uint256"}],"name":"getIndexForDataAfter","outputs":[{"internalType":"bool","name":"_found","type":"bool"},{"internalType":"uint256","name":"_index","type":"uint256"}],"stateMutability":"view","type":"function"},{"inputs":[{"internalType":"bytes32","name":"_queryId","type":"bytes32"},{"internalType":"uint256","name":"_timestamp","type":"uint256"}],"name":"getIndexForDataBefore","outputs":[{"internalType":"bool","name":"_found","type":"bool"},{"internalType":"uint256","name":"_index","type":"uint256"}],"stateMutability":"view","type":"function"},{"inputs":[{"internalType":"bytes32","name":"_queryId","type":"bytes32"},{"internalType":"uint256","name":"_timestamp","type":"uint256"},{"internalType":"uint256","name":"_maxAge","type":"uint256"},{"internalType":"uint256","name":"_maxCount","type":"uint256"}],"name":"getMultipleValuesBefore","outputs":[{"internalType":"bytes[]","name":"_values","type":"bytes[]"},{"internalType":"uint256[]","name":"_timestamps","type":"uint256[]"}],"stateMutability":"view","type":"function"},{"inputs":[{"internalType":"bytes32","name":"_queryId","type":"bytes32"}],"name":"getNewValueCountbyQueryId","outputs":[{"internalType":"uint256","name":"","type":"uint256"}],"stateMutability":"view","type":"function"},{"inputs":[{"internalType":"bytes32","name":"_queryId","type":"bytes32"},{"internalType":"uint256","name":"_timestamp","type":"uint256"}],"name":"getReporterByTimestamp","outputs":[{"internalType":"address","name":"","type":"address"}],"stateMutability":"view","type":"function"},{"inputs":[{"internalType":"bytes32","name":"_queryId","type":"bytes32"},{"internalType":"uint256","name":"_index","type":"uint256"}],"name":"getTimestampbyQueryIdandIndex","outputs":[{"internalType":"uint256","name":"","type":"uint256"}],"stateMutability":"view","type":"function"},{"inputs":[],"name":"idMappingContract","outputs":[{"internalType":"contract IMappingContract","name":"","type":"address"}],"stateMutability":"view","type":"function"},{"inputs":[{"internalType":"bytes32","name":"_queryId","type":"bytes32"},{"internalType":"uint256","name":"_timestamp","type":"uint256"}],"name":"isInDispute","outputs":[{"internalType":"bool","name":"","type":"bool"}],"stateMutability":"view","type":"function"},{"inputs":[{"internalType":"bytes32","name":"_queryId","type":"bytes32"},{"internalType":"uint256","name":"_timestamp","type":"uint256"}],"name":"retrieveData","outputs":[{"internalType":"bytes","name":"","type":"bytes"}],"stateMutability":"view","type":"function"},{"inputs":[{"internalType":"address","name":"_addy","type":"address"}],"name":"setIdMappingContract","outputs":[],"stateMutability":"nonpayable","type":"function"},{"inputs":[],"name":"tellor","outputs":[{"internalType":"contract ITellor","name":"","type":"address"}],"stateMutability":"view","type":"function"},{"inputs":[{"internalType":"bytes32","name":"_id","type":"bytes32"}],"name":"valueFor","outputs":[{"internalType":"int256","name":"_value","type":"int256"},{"internalType":"uint256","name":"_timestamp","type":"uint256"},{"internalType":"uint256","name":"_statusCode","type":"uint256"}],"stateMutability":"view","type":"function"}],"evm":{"bytecode":{"linkReferences":{},"object":"608060405234801561001057600080fd5b5060405161123e38038061123e83398101604081905261002f91610054565b600080546001600160a01b0319166001600160a01b0392909216919091179055610082565b600060208284031215610065578081fd5b81516001600160a01b038116811461007b578182fd5b9392505050565b6111ad806100916000396000f3fe608060405234801561001057600080fd5b50600436106100ea5760003560e01c8063a792765f1161008c578063e07c548611610066578063e07c54861461021c578063f66f49c31461022f578063f78eea8314610242578063fcd4a54614610270576100ea565b8063a792765f146101d6578063c5958af9146101e9578063ce5e11bf14610209576100ea565b80632af8aae0116100c85780632af8aae01461015e57806344e87f911461017157806364ee3c6d1461019457806377b03e0d146101b5576100ea565b8063193b505b146100ef5780631959ad5b146101045780632944908514610134575b600080fd5b6101026100fd366004610dda565b610291565b005b600054610117906001600160a01b031681565b6040516001600160a01b0390911681526020015b60405180910390f35b610147610142366004610edc565b6102d6565b60408051921515835260208301919091520161012b565b600154610117906001600160a01b031681565b61018461017f366004610edc565b610365565b604051901515815260200161012b565b6101a76101a2366004610edc565b6103f0565b60405161012b929190611041565b6101c86101c3366004610eac565b610449565b60405190815260200161012b565b6101a76101e4366004610edc565b6104ce565b6101fc6101f7366004610edc565b610564565b60405161012b919061102e565b6101c8610217366004610edc565b6105ec565b61011761022a366004610edc565b610670565b61014761023d366004610edc565b6106f4565b610255610250366004610eac565b6108b0565b6040805193845260208401929092529082015260600161012b565b61028361027e366004610efd565b610980565b60405161012b929190610f95565b6001546001600160a01b0316156102a757600080fd5b6001805473ffffffffffffffffffffffffffffffffffffffff19166001600160a01b0392909216919091179055565b60008054604051632944908560e01b8152600481018590526024810184905282916001600160a01b031690632944908590604401604080518083038186803b15801561032157600080fd5b505afa158015610335573d6000803e3d6000fd5b505050506040513d601f19601f820116820180604052508101906103599190610e81565b915091505b9250929050565b600080546040516344e87f9160e01b815260048101859052602481018490526001600160a01b03909116906344e87f919060440160206040518083038186803b1580156103b157600080fd5b505afa1580156103c5573d6000803e3d6000fd5b505050506040513d601f19601f820116820180604052508101906103e99190610e12565b9392505050565b6060600080600061040186866106f4565b9150915081610428576000604051806020016040528060008152509093509350505061035e565b61043286826105ec565b925061043e8684610564565b935050509250929050565b600080546040516377b03e0d60e01b8152600481018490526001600160a01b03909116906377b03e0d9060240160206040518083038186803b15801561048e57600080fd5b505afa1580156104a2573d6000803e3d6000fd5b505050506040513d601f19601f820116820180604052508101906104c69190610ec4565b90505b919050565b6000805460405163a792765f60e01b81526004810185905260248101849052606092916001600160a01b03169063a792765f9060440160006040518083038186803b15801561051c57600080fd5b505afa158015610530573d6000803e3d6000fd5b505050506040513d6000823e601f3d908101601f191682016040526105589190810190610e2c565b90969095509350505050565b60005460405163c5958af960e01b815260048101849052602481018390526060916001600160a01b03169063c5958af99060440160006040518083038186803b1580156105b057600080fd5b505afa1580156105c4573d6000803e3d6000fd5b505050506040513d6000823e601f3d908101601f191682016040526103e99190810190610f2e565b6000805460405163ce5e11bf60e01b815260048101859052602481018490526001600160a01b039091169063ce5e11bf9060440160206040518083038186803b15801561063857600080fd5b505afa15801561064c573d6000803e3d6000fd5b505050506040513d601f19601f820116820180604052508101906103e99190610ec4565b6000805460405163703e2a4360e11b815260048101859052602481018490526001600160a01b039091169063e07c54869060440160206040518083038186803b1580156106bc57600080fd5b505afa1580156106d0573d6000803e3d6000fd5b505050506040513d601f19601f820116820180604052508101906103e99190610df6565b600080600061070285610449565b90508061071657600080925092505061035e565b8061072081611101565b91506001905060008083816107358a836105ec565b9050888111610750576000809750975050505050505061035e565b61075a8a846105ec565b90508881111561076957600094505b841561081b57600261077b8484611063565b610785919061107b565b93506107918a856105ec565b9050888111156107d25760006107ac8b6102176001886110ba565b90508981116107be57600095506107cc565b6107c96001866110ba565b92505b50610816565b60006107e38b610217876001611063565b9050898111156108065760009550846107fb81611118565b955050809150610814565b610811856001611063565b93505b505b610769565b6108258a82610365565b61083b576001849750975050505050505061035e565b6108458a82610365565b801561085057508584105b15610873578361085f81611118565b94505061086c8a856105ec565b905061083b565b858414801561088757506108878a82610365565b1561089e576000809750975050505050505061035e565b6001849750975050505050505061035e565b6001546040516387a475fd60e01b8152600481018390526000918291829182916001600160a01b03909116906387a475fd9060240160206040518083038186803b1580156108fd57600080fd5b505afa158015610911573d6000803e3d6000fd5b505050506040513d601f19601f820116820180604052508101906109359190610ec4565b90506060610948826101e4426001611063565b9450905083610964576000806101949450945094505050610979565b600061096f82610cdf565b955060c893505050505b9193909250565b6060806000806109948861023d888a6110ba565b91509150816109e55760408051600080825260208201909252906109c8565b60608152602001906001900390816109b35790505b506040805160008152602081019091529094509250610cd6915050565b60006109f189896102d6565b909350905082610a44576040805160008082526020820190925290610a26565b6060815260200190600190039081610a115790505b506040805160008152602081019091529095509350610cd692505050565b60008060008867ffffffffffffffff811115610a7057634e487b7160e01b600052604160045260246000fd5b604051908082528060200260200182016040528015610a99578160200160208202803683370190505b5090505b8883108015610ac057508482610ab4866001611063565b610abe91906110ba565b115b15610b32576000610ad58d61021785886110ba565b9050610ae18d82610365565b610b1f5780828581518110610b0657634e487b7160e01b600052603260045260246000fd5b602090810291909101015283610b1b81611118565b9450505b82610b2981611118565b93505050610a9d565b60008367ffffffffffffffff811115610b5b57634e487b7160e01b600052604160045260246000fd5b604051908082528060200260200182016040528015610b8e57816020015b6060815260200190600190039081610b795790505b50905060008467ffffffffffffffff811115610bba57634e487b7160e01b600052604160045260246000fd5b604051908082528060200260200182016040528015610be3578160200160208202803683370190505b50905060005b85811015610cc9578381610bfe6001896110ba565b610c0891906110ba565b81518110610c2657634e487b7160e01b600052603260045260246000fd5b6020026020010151828281518110610c4e57634e487b7160e01b600052603260045260246000fd5b602002602001018181525050610c8b8f838381518110610c7e57634e487b7160e01b600052603260045260246000fd5b6020026020010151610564565b838281518110610cab57634e487b7160e01b600052603260045260246000fd5b60200260200101819052508080610cc190611118565b915050610be9565b5090985096505050505050505b94509492505050565b6000805b8251811015610d3e57828181518110610d0c57634e487b7160e01b600052603260045260246000fd5b016020015160f81c610d208361010061109b565b610d2a9190611063565b915080610d3681611118565b915050610ce3565b50919050565b805180151581146104c957600080fd5b600082601f830112610d64578081fd5b815167ffffffffffffffff80821115610d7f57610d7f611149565b604051601f8301601f19908116603f01168101908282118183101715610da757610da7611149565b81604052838152866020858801011115610dbf578485fd5b610dd08460208301602089016110d1565b9695505050505050565b600060208284031215610deb578081fd5b81356103e98161115f565b600060208284031215610e07578081fd5b81516103e98161115f565b600060208284031215610e23578081fd5b6103e982610d44565b600080600060608486031215610e40578182fd5b610e4984610d44565b9250602084015167ffffffffffffffff811115610e64578283fd5b610e7086828701610d54565b925050604084015190509250925092565b60008060408385031215610e93578182fd5b610e9c83610d44565b9150602083015190509250929050565b600060208284031215610ebd578081fd5b5035919050565b600060208284031215610ed5578081fd5b5051919050565b60008060408385031215610eee578182fd5b50508035926020909101359150565b60008060008060808587031215610f12578081fd5b5050823594602084013594506040840135936060013592509050565b600060208284031215610f3f578081fd5b815167ffffffffffffffff811115610f55578182fd5b610f6184828501610d54565b949350505050565b60008151808452610f818160208601602086016110d1565b601f01601f19169290920160200192915050565b6000604082016040835280855180835260608501915060608160051b86010192506020808801855b83811015610feb57605f19888703018552610fd9868351610f69565b95509382019390820190600101610fbd565b505085840381870152865180855287820194820193509150845b8281101561102157845184529381019392810192600101611005565b5091979650505050505050565b6000602082526103e96020830184610f69565b6000604082526110546040830185610f69565b90508260208301529392505050565b6000821982111561107657611076611133565b500190565b60008261109657634e487b7160e01b81526012600452602481fd5b500490565b60008160001904831182151516156110b5576110b5611133565b500290565b6000828210156110cc576110cc611133565b500390565b60005b838110156110ec5781810151838201526020016110d4565b838111156110fb576000848401525b50505050565b60008161111057611110611133565b506000190190565b600060001982141561112c5761112c611133565b5060010190565b634e487b7160e01b600052601160045260246000fd5b634e487b7160e01b600052604160045260246000fd5b6001600160a01b038116811461117457600080fd5b5056fea2646970667358221220d925f50347774f002c777d494fb2a05b6c8be2b39672a88bd7c665e93795370464736f6c63430008030033","opcodes":"PUSH1 0x80 PUSH1 0x40 MSTORE CALLVALUE DUP1 ISZERO PUSH2 0x10 JUMPI PUSH1 0x0 DUP1 REVERT JUMPDEST POP PUSH1 0x40 MLOAD PUSH2 0x123E CODESIZE SUB DUP1 PUSH2 0x123E DUP4 CODECOPY DUP2 ADD PUSH1 0x40 DUP2 SWAP1 MSTORE PUSH2 0x2F SWAP2 PUSH2 0x54 JUMP JUMPDEST PUSH1 0x0 DUP1 SLOAD PUSH1 0x1 PUSH1 0x1 PUSH1 0xA0 SHL SUB NOT AND PUSH1 0x1 PUSH1 0x1 PUSH1 0xA0 SHL SUB SWAP3 SWAP1 SWAP3 AND SWAP2 SWAP1 SWAP2 OR SWAP1 SSTORE PUSH2 0x82 JUMP JUMPDEST PUSH1 0x0 PUSH1 0x20 DUP3 DUP5 SUB SLT ISZERO PUSH2 0x65 JUMPI DUP1 DUP2 REVERT JUMPDEST DUP2 MLOAD PUSH1 0x1 PUSH1 0x1 PUSH1 0xA0 SHL SUB DUP2 AND DUP2 EQ PUSH2 0x7B JUMPI DUP2 DUP3 REVERT JUMPDEST SWAP4 SWAP3 POP POP POP JUMP JUMPDEST PUSH2 0x11AD DUP1 PUSH2 0x91 PUSH1 0x0 CODECOPY PUSH1 0x0 RETURN INVALID PUSH1 0x80 PUSH1 0x40 MSTORE CALLVALUE DUP1 ISZERO PUSH2 0x10 JUMPI PUSH1 0x0 DUP1 REVERT JUMPDEST POP PUSH1 0x4 CALLDATASIZE LT PUSH2 0xEA JUMPI PUSH1 0x0 CALLDATALOAD PUSH1 0xE0 SHR DUP1 PUSH4 0xA792765F GT PUSH2 0x8C JUMPI DUP1 PUSH4 0xE07C5486 GT PUSH2 0x66 JUMPI DUP1 PUSH4 0xE07C5486 EQ PUSH2 0x21C JUMPI DUP1 PUSH4 0xF66F49C3 EQ PUSH2 0x22F JUMPI DUP1 PUSH4 0xF78EEA83 EQ PUSH2 0x242 JUMPI DUP1 PUSH4 0xFCD4A546 EQ PUSH2 0x270 JUMPI PUSH2 0xEA JUMP JUMPDEST DUP1 PUSH4 0xA792765F EQ PUSH2 0x1D6 JUMPI DUP1 PUSH4 0xC5958AF9 EQ PUSH2 0x1E9 JUMPI DUP1 PUSH4 0xCE5E11BF EQ PUSH2 0x209 JUMPI PUSH2 0xEA JUMP JUMPDEST DUP1 PUSH4 0x2AF8AAE0 GT PUSH2 0xC8 JUMPI DUP1 PUSH4 0x2AF8AAE0 EQ PUSH2 0x15E JUMPI DUP1 PUSH4 0x44E87F91 EQ PUSH2 0x171 JUMPI DUP1 PUSH4 0x64EE3C6D EQ PUSH2 0x194 JUMPI DUP1 PUSH4 0x77B03E0D EQ PUSH2 0x1B5 JUMPI PUSH2 0xEA JUMP JUMPDEST DUP1 PUSH4 0x193B505B EQ PUSH2 0xEF JUMPI DUP1 PUSH4 0x1959AD5B EQ PUSH2 0x104 JUMPI DUP1 PUSH4 0x29449085 EQ PUSH2 0x134 JUMPI JUMPDEST PUSH1 0x0 DUP1 REVERT JUMPDEST PUSH2 0x102 PUSH2 0xFD CALLDATASIZE PUSH1 0x4 PUSH2 0xDDA JUMP JUMPDEST PUSH2 0x291 JUMP JUMPDEST STOP JUMPDEST PUSH1 0x0 SLOAD PUSH2 0x117 SWAP1 PUSH1 0x1 PUSH1 0x1 PUSH1 0xA0 SHL SUB AND DUP2 JUMP JUMPDEST PUSH1 0x40 MLOAD PUSH1 0x1 PUSH1 0x1 PUSH1 0xA0 SHL SUB SWAP1 SWAP2 AND DUP2 MSTORE PUSH1 0x20 ADD JUMPDEST PUSH1 0x40 MLOAD DUP1 SWAP2 SUB SWAP1 RETURN JUMPDEST PUSH2 0x147 PUSH2 0x142 CALLDATASIZE PUSH1 0x4 PUSH2 0xEDC JUMP JUMPDEST PUSH2 0x2D6 JUMP JUMPDEST PUSH1 0x40 DUP1 MLOAD SWAP3 ISZERO ISZERO DUP4 MSTORE PUSH1 0x20 DUP4 ADD SWAP2 SWAP1 SWAP2 MSTORE ADD PUSH2 0x12B JUMP JUMPDEST PUSH1 0x1 SLOAD PUSH2 0x117 SWAP1 PUSH1 0x1 PUSH1 0x1 PUSH1 0xA0 SHL SUB AND DUP2 JUMP JUMPDEST PUSH2 0x184 PUSH2 0x17F CALLDATASIZE PUSH1 0x4 PUSH2 0xEDC JUMP JUMPDEST PUSH2 0x365 JUMP JUMPDEST PUSH1 0x40 MLOAD SWAP1 ISZERO ISZERO DUP2 MSTORE PUSH1 0x20 ADD PUSH2 0x12B JUMP JUMPDEST PUSH2 0x1A7 PUSH2 0x1A2 CALLDATASIZE PUSH1 0x4 PUSH2 0xEDC JUMP JUMPDEST PUSH2 0x3F0 JUMP JUMPDEST PUSH1 0x40 MLOAD PUSH2 0x12B SWAP3 SWAP2 SWAP1 PUSH2 0x1041 JUMP JUMPDEST PUSH2 0x1C8 PUSH2 0x1C3 CALLDATASIZE PUSH1 0x4 PUSH2 0xEAC JUMP JUMPDEST PUSH2 0x449 JUMP JUMPDEST PUSH1 0x40 MLOAD SWAP1 DUP2 MSTORE PUSH1 0x20 ADD PUSH2 0x12B JUMP JUMPDEST PUSH2 0x1A7 PUSH2 0x1E4 CALLDATASIZE PUSH1 0x4 PUSH2 0xEDC JUMP JUMPDEST PUSH2 0x4CE JUMP JUMPDEST PUSH2 0x1FC PUSH2 0x1F7 CALLDATASIZE PUSH1 0x4 PUSH2 0xEDC JUMP JUMPDEST PUSH2 0x564 JUMP JUMPDEST PUSH1 0x40 MLOAD PUSH2 0x12B SWAP2 SWAP1 PUSH2 0x102E JUMP JUMPDEST PUSH2 0x1C8 PUSH2 0x217 CALLDATASIZE PUSH1 0x4 PUSH2 0xEDC JUMP JUMPDEST PUSH2 0x5EC JUMP JUMPDEST PUSH2 0x117 PUSH2 0x22A CALLDATASIZE PUSH1 0x4 PUSH2 0xEDC JUMP JUMPDEST PUSH2 0x670 JUMP JUMPDEST PUSH2 0x147 PUSH2 0x23D CALLDATASIZE PUSH1 0x4 PUSH2 0xEDC JUMP JUMPDEST PUSH2 0x6F4 JUMP JUMPDEST PUSH2 0x255 PUSH2 0x250 CALLDATASIZE PUSH1 0x4 PUSH2 0xEAC JUMP JUMPDEST PUSH2 0x8B0 JUMP JUMPDEST PUSH1 0x40 DUP1 MLOAD SWAP4 DUP5 MSTORE PUSH1 0x20 DUP5 ADD SWAP3 SWAP1 SWAP3 MSTORE SWAP1 DUP3 ADD MSTORE PUSH1 0x60 ADD PUSH2 0x12B JUMP JUMPDEST PUSH2 0x283 PUSH2 0x27E CALLDATASIZE PUSH1 0x4 PUSH2 0xEFD JUMP JUMPDEST PUSH2 0x980 JUMP JUMPDEST PUSH1 0x40 MLOAD PUSH2 0x12B SWAP3 SWAP2 SWAP1 PUSH2 0xF95 JUMP JUMPDEST PUSH1 0x1 SLOAD PUSH1 0x1 PUSH1 0x1 PUSH1 0xA0 SHL SUB AND ISZERO PUSH2 0x2A7 JUMPI PUSH1 0x0 DUP1 REVERT JUMPDEST PUSH1 0x1 DUP1 SLOAD PUSH20 0xFFFFFFFFFFFFFFFFFFFFFFFFFFFFFFFFFFFFFFFF NOT AND PUSH1 0x1 PUSH1 0x1 PUSH1 0xA0 SHL SUB SWAP3 SWAP1 SWAP3 AND SWAP2 SWAP1 SWAP2 OR SWAP1 SSTORE JUMP JUMPDEST PUSH1 0x0 DUP1 SLOAD PUSH1 0x40 MLOAD PUSH4 0x29449085 PUSH1 0xE0 SHL DUP2 MSTORE PUSH1 0x4 DUP2 ADD DUP6 SWAP1 MSTORE PUSH1 0x24 DUP2 ADD DUP5 SWAP1 MSTORE DUP3 SWAP2 PUSH1 0x1 PUSH1 0x1 PUSH1 0xA0 SHL SUB AND SWAP1 PUSH4 0x29449085 SWAP1 PUSH1 0x44 ADD PUSH1 0x40 DUP1 MLOAD DUP1 DUP4 SUB DUP2 DUP7 DUP1 EXTCODESIZE ISZERO DUP1 ISZERO PUSH2 0x321 JUMPI PUSH1 0x0 DUP1 REVERT JUMPDEST POP GAS STATICCALL ISZERO DUP1 ISZERO PUSH2 0x335 JUMPI RETURNDATASIZE PUSH1 0x0 DUP1 RETURNDATACOPY RETURNDATASIZE PUSH1 0x0 REVERT JUMPDEST POP POP POP POP PUSH1 0x40 MLOAD RETURNDATASIZE PUSH1 0x1F NOT PUSH1 0x1F DUP3 ADD AND DUP3 ADD DUP1 PUSH1 0x40 MSTORE POP DUP2 ADD SWAP1 PUSH2 0x359 SWAP2 SWAP1 PUSH2 0xE81 JUMP JUMPDEST SWAP2 POP SWAP2 POP JUMPDEST SWAP3 POP SWAP3 SWAP1 POP JUMP JUMPDEST PUSH1 0x0 DUP1 SLOAD PUSH1 0x40 MLOAD PUSH4 0x44E87F91 PUSH1 0xE0 SHL DUP2 MSTORE PUSH1 0x4 DUP2 ADD DUP6 SWAP1 MSTORE PUSH1 0x24 DUP2 ADD DUP5 SWAP1 MSTORE PUSH1 0x1 PUSH1 0x1 PUSH1 0xA0 SHL SUB SWAP1 SWAP2 AND SWAP1 PUSH4 0x44E87F91 SWAP1 PUSH1 0x44 ADD PUSH1 0x20 PUSH1 0x40 MLOAD DUP1 DUP4 SUB DUP2 DUP7 DUP1 EXTCODESIZE ISZERO DUP1 ISZERO PUSH2 0x3B1 JUMPI PUSH1 0x0 DUP1 REVERT JUMPDEST POP GAS STATICCALL ISZERO DUP1 ISZERO PUSH2 0x3C5 JUMPI RETURNDATASIZE PUSH1 0x0 DUP1 RETURNDATACOPY RETURNDATASIZE PUSH1 0x0 REVERT JUMPDEST POP POP POP POP PUSH1 0x40 MLOAD RETURNDATASIZE PUSH1 0x1F NOT PUSH1 0x1F DUP3 ADD AND DUP3 ADD DUP1 PUSH1 0x40 MSTORE POP DUP2 ADD SWAP1 PUSH2 0x3E9 SWAP2 SWAP1 PUSH2 0xE12 JUMP JUMPDEST SWAP4 SWAP3 POP POP POP JUMP JUMPDEST PUSH1 0x60 PUSH1 0x0 DUP1 PUSH1 0x0 PUSH2 0x401 DUP7 DUP7 PUSH2 0x6F4 JUMP JUMPDEST SWAP2 POP SWAP2 POP DUP2 PUSH2 0x428 JUMPI PUSH1 0x0 PUSH1 0x40 MLOAD DUP1 PUSH1 0x20 ADD PUSH1 0x40 MSTORE DUP1 PUSH1 0x0 DUP2 MSTORE POP SWAP1 SWAP4 POP SWAP4 POP POP POP PUSH2 0x35E JUMP JUMPDEST PUSH2 0x432 DUP7 DUP3 PUSH2 0x5EC JUMP JUMPDEST SWAP3 POP PUSH2 0x43E DUP7 DUP5 PUSH2 0x564 JUMP JUMPDEST SWAP4 POP POP POP SWAP3 POP SWAP3 SWAP1 POP JUMP JUMPDEST PUSH1 0x0 DUP1 SLOAD PUSH1 0x40 MLOAD PUSH4 0x77B03E0D PUSH1 0xE0 SHL DUP2 MSTORE PUSH1 0x4 DUP2 ADD DUP5 SWAP1 MSTORE PUSH1 0x1 PUSH1 0x1 PUSH1 0xA0 SHL SUB SWAP1 SWAP2 AND SWAP1 PUSH4 0x77B03E0D SWAP1 PUSH1 0x24 ADD PUSH1 0x20 PUSH1 0x40 MLOAD DUP1 DUP4 SUB DUP2 DUP7 DUP1 EXTCODESIZE ISZERO DUP1 ISZERO PUSH2 0x48E JUMPI PUSH1 0x0 DUP1 REVERT JUMPDEST POP GAS STATICCALL ISZERO DUP1 ISZERO PUSH2 0x4A2 JUMPI RETURNDATASIZE PUSH1 0x0 DUP1 RETURNDATACOPY RETURNDATASIZE PUSH1 0x0 REVERT JUMPDEST POP POP POP POP PUSH1 0x40 MLOAD RETURNDATASIZE PUSH1 0x1F NOT PUSH1 0x1F DUP3 ADD AND DUP3 ADD DUP1 PUSH1 0x40 MSTORE POP DUP2 ADD SWAP1 PUSH2 0x4C6 SWAP2 SWAP1 PUSH2 0xEC4 JUMP JUMPDEST SWAP1 POP JUMPDEST SWAP2 SWAP1 POP JUMP JUMPDEST PUSH1 0x0 DUP1 SLOAD PUSH1 0x40 MLOAD PUSH4 0xA792765F PUSH1 0xE0 SHL DUP2 MSTORE PUSH1 0x4 DUP2 ADD DUP6 SWAP1 MSTORE PUSH1 0x24 DUP2 ADD DUP5 SWAP1 MSTORE PUSH1 0x60 SWAP3 SWAP2 PUSH1 0x1 PUSH1 0x1 PUSH1 0xA0 SHL SUB AND SWAP1 PUSH4 0xA792765F SWAP1 PUSH1 0x44 ADD PUSH1 0x0 PUSH1 0x40 MLOAD DUP1 DUP4 SUB DUP2 DUP7 DUP1 EXTCODESIZE ISZERO DUP1 ISZERO PUSH2 0x51C JUMPI PUSH1 0x0 DUP1 REVERT JUMPDEST POP GAS STATICCALL ISZERO DUP1 ISZERO PUSH2 0x530 JUMPI RETURNDATASIZE PUSH1 0x0 DUP1 RETURNDATACOPY RETURNDATASIZE PUSH1 0x0 REVERT JUMPDEST POP POP POP POP PUSH1 0x40 MLOAD RETURNDATASIZE PUSH1 0x0 DUP3 RETURNDATACOPY PUSH1 0x1F RETURNDATASIZE SWAP1 DUP2 ADD PUSH1 0x1F NOT AND DUP3 ADD PUSH1 0x40 MSTORE PUSH2 0x558 SWAP2 SWAP1 DUP2 ADD SWAP1 PUSH2 0xE2C JUMP JUMPDEST SWAP1 SWAP7 SWAP1 SWAP6 POP SWAP4 POP POP POP POP JUMP JUMPDEST PUSH1 0x0 SLOAD PUSH1 0x40 MLOAD PUSH4 0xC5958AF9 PUSH1 0xE0 SHL DUP2 MSTORE PUSH1 0x4 DUP2 ADD DUP5 SWAP1 MSTORE PUSH1 0x24 DUP2 ADD DUP4 SWAP1 MSTORE PUSH1 0x60 SWAP2 PUSH1 0x1 PUSH1 0x1 PUSH1 0xA0 SHL SUB AND SWAP1 PUSH4 0xC5958AF9 SWAP1 PUSH1 0x44 ADD PUSH1 0x0 PUSH1 0x40 MLOAD DUP1 DUP4 SUB DUP2 DUP7 DUP1 EXTCODESIZE ISZERO DUP1 ISZERO PUSH2 0x5B0 JUMPI PUSH1 0x0 DUP1 REVERT JUMPDEST POP GAS STATICCALL ISZERO DUP1 ISZERO PUSH2 0x5C4 JUMPI RETURNDATASIZE PUSH1 0x0 DUP1 RETURNDATACOPY RETURNDATASIZE PUSH1 0x0 REVERT JUMPDEST POP POP POP POP PUSH1 0x40 MLOAD RETURNDATASIZE PUSH1 0x0 DUP3 RETURNDATACOPY PUSH1 0x1F RETURNDATASIZE SWAP1 DUP2 ADD PUSH1 0x1F NOT AND DUP3 ADD PUSH1 0x40 MSTORE PUSH2 0x3E9 SWAP2 SWAP1 DUP2 ADD SWAP1 PUSH2 0xF2E JUMP JUMPDEST PUSH1 0x0 DUP1 SLOAD PUSH1 0x40 MLOAD PUSH4 0xCE5E11BF PUSH1 0xE0 SHL DUP2 MSTORE PUSH1 0x4 DUP2 ADD DUP6 SWAP1 MSTORE PUSH1 0x24 DUP2 ADD DUP5 SWAP1 MSTORE PUSH1 0x1 PUSH1 0x1 PUSH1 0xA0 SHL SUB SWAP1 SWAP2 AND SWAP1 PUSH4 0xCE5E11BF SWAP1 PUSH1 0x44 ADD PUSH1 0x20 PUSH1 0x40 MLOAD DUP1 DUP4 SUB DUP2 DUP7 DUP1 EXTCODESIZE ISZERO DUP1 ISZERO PUSH2 0x638 JUMPI PUSH1 0x0 DUP1 REVERT JUMPDEST POP GAS STATICCALL ISZERO DUP1 ISZERO PUSH2 0x64C JUMPI RETURNDATASIZE PUSH1 0x0 DUP1 RETURNDATACOPY RETURNDATASIZE PUSH1 0x0 REVERT JUMPDEST POP POP POP POP PUSH1 0x40 MLOAD RETURNDATASIZE PUSH1 0x1F NOT PUSH1 0x1F DUP3 ADD AND DUP3 ADD DUP1 PUSH1 0x40 MSTORE POP DUP2 ADD SWAP1 PUSH2 0x3E9 SWAP2 SWAP1 PUSH2 0xEC4 JUMP JUMPDEST PUSH1 0x0 DUP1 SLOAD PUSH1 0x40 MLOAD PUSH4 0x703E2A43 PUSH1 0xE1 SHL DUP2 MSTORE PUSH1 0x4 DUP2 ADD DUP6 SWAP1 MSTORE PUSH1 0x24 DUP2 ADD DUP5 SWAP1 MSTORE PUSH1 0x1 PUSH1 0x1 PUSH1 0xA0 SHL SUB SWAP1 SWAP2 AND SWAP1 PUSH4 0xE07C5486 SWAP1 PUSH1 0x44 ADD PUSH1 0x20 PUSH1 0x40 MLOAD DUP1 DUP4 SUB DUP2 DUP7 DUP1 EXTCODESIZE ISZERO DUP1 ISZERO PUSH2 0x6BC JUMPI PUSH1 0x0 DUP1 REVERT JUMPDEST POP GAS STATICCALL ISZERO DUP1 ISZERO PUSH2 0x6D0 JUMPI RETURNDATASIZE PUSH1 0x0 DUP1 RETURNDATACOPY RETURNDATASIZE PUSH1 0x0 REVERT JUMPDEST POP POP POP POP PUSH1 0x40 MLOAD RETURNDATASIZE PUSH1 0x1F NOT PUSH1 0x1F DUP3 ADD AND DUP3 ADD DUP1 PUSH1 0x40 MSTORE POP DUP2 ADD SWAP1 PUSH2 0x3E9 SWAP2 SWAP1 PUSH2 0xDF6 JUMP JUMPDEST PUSH1 0x0 DUP1 PUSH1 0x0 PUSH2 0x702 DUP6 PUSH2 0x449 JUMP JUMPDEST SWAP1 POP DUP1 PUSH2 0x716 JUMPI PUSH1 0x0 DUP1 SWAP3 POP SWAP3 POP POP PUSH2 0x35E JUMP JUMPDEST DUP1 PUSH2 0x720 DUP2 PUSH2 0x1101 JUMP JUMPDEST SWAP2 POP PUSH1 0x1 SWAP1 POP PUSH1 0x0 DUP1 DUP4 DUP2 PUSH2 0x735 DUP11 DUP4 PUSH2 0x5EC JUMP JUMPDEST SWAP1 POP DUP9 DUP2 GT PUSH2 0x750 JUMPI PUSH1 0x0 DUP1 SWAP8 POP SWAP8 POP POP POP POP POP POP POP PUSH2 0x35E JUMP JUMPDEST PUSH2 0x75A DUP11 DUP5 PUSH2 0x5EC JUMP JUMPDEST SWAP1 POP DUP9 DUP2 GT ISZERO PUSH2 0x769 JUMPI PUSH1 0x0 SWAP5 POP JUMPDEST DUP5 ISZERO PUSH2 0x81B JUMPI PUSH1 0x2 PUSH2 0x77B DUP5 DUP5 PUSH2 0x1063 JUMP JUMPDEST PUSH2 0x785 SWAP2 SWAP1 PUSH2 0x107B JUMP JUMPDEST SWAP4 POP PUSH2 0x791 DUP11 DUP6 PUSH2 0x5EC JUMP JUMPDEST SWAP1 POP DUP9 DUP2 GT ISZERO PUSH2 0x7D2 JUMPI PUSH1 0x0 PUSH2 0x7AC DUP12 PUSH2 0x217 PUSH1 0x1 DUP9 PUSH2 0x10BA JUMP JUMPDEST SWAP1 POP DUP10 DUP2 GT PUSH2 0x7BE JUMPI PUSH1 0x0 SWAP6 POP PUSH2 0x7CC JUMP JUMPDEST PUSH2 0x7C9 PUSH1 0x1 DUP7 PUSH2 0x10BA JUMP JUMPDEST SWAP3 POP JUMPDEST POP PUSH2 0x816 JUMP JUMPDEST PUSH1 0x0 PUSH2 0x7E3 DUP12 PUSH2 0x217 DUP8 PUSH1 0x1 PUSH2 0x1063 JUMP JUMPDEST SWAP1 POP DUP10 DUP2 GT ISZERO PUSH2 0x806 JUMPI PUSH1 0x0 SWAP6 POP DUP5 PUSH2 0x7FB DUP2 PUSH2 0x1118 JUMP JUMPDEST SWAP6 POP POP DUP1 SWAP2 POP PUSH2 0x814 JUMP JUMPDEST PUSH2 0x811 DUP6 PUSH1 0x1 PUSH2 0x1063 JUMP JUMPDEST SWAP4 POP JUMPDEST POP JUMPDEST PUSH2 0x769 JUMP JUMPDEST PUSH2 0x825 DUP11 DUP3 PUSH2 0x365 JUMP JUMPDEST PUSH2 0x83B JUMPI PUSH1 0x1 DUP5 SWAP8 POP SWAP8 POP POP POP POP POP POP POP PUSH2 0x35E JUMP JUMPDEST PUSH2 0x845 DUP11 DUP3 PUSH2 0x365 JUMP JUMPDEST DUP1 ISZERO PUSH2 0x850 JUMPI POP DUP6 DUP5 LT JUMPDEST ISZERO PUSH2 0x873 JUMPI DUP4 PUSH2 0x85F DUP2 PUSH2 0x1118 JUMP JUMPDEST SWAP5 POP POP PUSH2 0x86C DUP11 DUP6 PUSH2 0x5EC JUMP JUMPDEST SWAP1 POP PUSH2 0x83B JUMP JUMPDEST DUP6 DUP5 EQ DUP1 ISZERO PUSH2 0x887 JUMPI POP PUSH2 0x887 DUP11 DUP3 PUSH2 0x365 JUMP JUMPDEST ISZERO PUSH2 0x89E JUMPI PUSH1 0x0 DUP1 SWAP8 POP SWAP8 POP POP POP POP POP POP POP PUSH2 0x35E JUMP JUMPDEST PUSH1 0x1 DUP5 SWAP8 POP SWAP8 POP POP POP POP POP POP POP PUSH2 0x35E JUMP JUMPDEST PUSH1 0x1 SLOAD PUSH1 0x40 MLOAD PUSH4 0x87A475FD PUSH1 0xE0 SHL DUP2 MSTORE PUSH1 0x4 DUP2 ADD DUP4 SWAP1 MSTORE PUSH1 0x0 SWAP2 DUP3 SWAP2 DUP3 SWAP2 DUP3 SWAP2 PUSH1 0x1 PUSH1 0x1 PUSH1 0xA0 SHL SUB SWAP1 SWAP2 AND SWAP1 PUSH4 0x87A475FD SWAP1 PUSH1 0x24 ADD PUSH1 0x20 PUSH1 0x40 MLOAD DUP1 DUP4 SUB DUP2 DUP7 DUP1 EXTCODESIZE ISZERO DUP1 ISZERO PUSH2 0x8FD JUMPI PUSH1 0x0 DUP1 REVERT JUMPDEST POP GAS STATICCALL ISZERO DUP1 ISZERO PUSH2 0x911 JUMPI RETURNDATASIZE PUSH1 0x0 DUP1 RETURNDATACOPY RETURNDATASIZE PUSH1 0x0 REVERT JUMPDEST POP POP POP POP PUSH1 0x40 MLOAD RETURNDATASIZE PUSH1 0x1F NOT PUSH1 0x1F DUP3 ADD AND DUP3 ADD DUP1 PUSH1 0x40 MSTORE POP DUP2 ADD SWAP1 PUSH2 0x935 SWAP2 SWAP1 PUSH2 0xEC4 JUMP JUMPDEST SWAP1 POP PUSH1 0x60 PUSH2 0x948 DUP3 PUSH2 0x1E4 TIMESTAMP PUSH1 0x1 PUSH2 0x1063 JUMP JUMPDEST SWAP5 POP SWAP1 POP DUP4 PUSH2 0x964 JUMPI PUSH1 0x0 DUP1 PUSH2 0x194 SWAP5 POP SWAP5 POP SWAP5 POP POP POP PUSH2 0x979 JUMP JUMPDEST PUSH1 0x0 PUSH2 0x96F DUP3 PUSH2 0xCDF JUMP JUMPDEST SWAP6 POP PUSH1 0xC8 SWAP4 POP POP POP POP JUMPDEST SWAP2 SWAP4 SWAP1 SWAP3 POP JUMP JUMPDEST PUSH1 0x60 DUP1 PUSH1 0x0 DUP1 PUSH2 0x994 DUP9 PUSH2 0x23D DUP9 DUP11 PUSH2 0x10BA JUMP JUMPDEST SWAP2 POP SWAP2 POP DUP2 PUSH2 0x9E5 JUMPI PUSH1 0x40 DUP1 MLOAD PUSH1 0x0 DUP1 DUP3 MSTORE PUSH1 0x20 DUP3 ADD SWAP1 SWAP3 MSTORE SWAP1 PUSH2 0x9C8 JUMP JUMPDEST PUSH1 0x60 DUP2 MSTORE PUSH1 0x20 ADD SWAP1 PUSH1 0x1 SWAP1 SUB SWAP1 DUP2 PUSH2 0x9B3 JUMPI SWAP1 POP JUMPDEST POP PUSH1 0x40 DUP1 MLOAD PUSH1 0x0 DUP2 MSTORE PUSH1 0x20 DUP2 ADD SWAP1 SWAP2 MSTORE SWAP1 SWAP5 POP SWAP3 POP PUSH2 0xCD6 SWAP2 POP POP JUMP JUMPDEST PUSH1 0x0 PUSH2 0x9F1 DUP10 DUP10 PUSH2 0x2D6 JUMP JUMPDEST SWAP1 SWAP4 POP SWAP1 POP DUP3 PUSH2 0xA44 JUMPI PUSH1 0x40 DUP1 MLOAD PUSH1 0x0 DUP1 DUP3 MSTORE PUSH1 0x20 DUP3 ADD SWAP1 SWAP3 MSTORE SWAP1 PUSH2 0xA26 JUMP JUMPDEST PUSH1 0x60 DUP2 MSTORE PUSH1 0x20 ADD SWAP1 PUSH1 0x1 SWAP1 SUB SWAP1 DUP2 PUSH2 0xA11 JUMPI SWAP1 POP JUMPDEST POP PUSH1 0x40 DUP1 MLOAD PUSH1 0x0 DUP2 MSTORE PUSH1 0x20 DUP2 ADD SWAP1 SWAP2 MSTORE SWAP1 SWAP6 POP SWAP4 POP PUSH2 0xCD6 SWAP3 POP POP POP JUMP JUMPDEST PUSH1 0x0 DUP1 PUSH1 0x0 DUP9 PUSH8 0xFFFFFFFFFFFFFFFF DUP2 GT ISZERO PUSH2 0xA70 JUMPI PUSH4 0x4E487B71 PUSH1 0xE0 SHL PUSH1 0x0 MSTORE PUSH1 0x41 PUSH1 0x4 MSTORE PUSH1 0x24 PUSH1 0x0 REVERT JUMPDEST PUSH1 0x40 MLOAD SWAP1 DUP1 DUP3 MSTORE DUP1 PUSH1 0x20 MUL PUSH1 0x20 ADD DUP3 ADD PUSH1 0x40 MSTORE DUP1 ISZERO PUSH2 0xA99 JUMPI DUP2 PUSH1 0x20 ADD PUSH1 0x20 DUP3 MUL DUP1 CALLDATASIZE DUP4 CALLDATACOPY ADD SWAP1 POP JUMPDEST POP SWAP1 POP JUMPDEST DUP9 DUP4 LT DUP1 ISZERO PUSH2 0xAC0 JUMPI POP DUP5 DUP3 PUSH2 0xAB4 DUP7 PUSH1 0x1 PUSH2 0x1063 JUMP JUMPDEST PUSH2 0xABE SWAP2 SWAP1 PUSH2 0x10BA JUMP JUMPDEST GT JUMPDEST ISZERO PUSH2 0xB32 JUMPI PUSH1 0x0 PUSH2 0xAD5 DUP14 PUSH2 0x217 DUP6 DUP9 PUSH2 0x10BA JUMP JUMPDEST SWAP1 POP PUSH2 0xAE1 DUP14 DUP3 PUSH2 0x365 JUMP JUMPDEST PUSH2 0xB1F JUMPI DUP1 DUP3 DUP6 DUP2 MLOAD DUP2 LT PUSH2 0xB06 JUMPI PUSH4 0x4E487B71 PUSH1 0xE0 SHL PUSH1 0x0 MSTORE PUSH1 0x32 PUSH1 0x4 MSTORE PUSH1 0x24 PUSH1 0x0 REVERT JUMPDEST PUSH1 0x20 SWAP1 DUP2 MUL SWAP2 SWAP1 SWAP2 ADD ADD MSTORE DUP4 PUSH2 0xB1B DUP2 PUSH2 0x1118 JUMP JUMPDEST SWAP5 POP POP JUMPDEST DUP3 PUSH2 0xB29 DUP2 PUSH2 0x1118 JUMP JUMPDEST SWAP4 POP POP POP PUSH2 0xA9D JUMP JUMPDEST PUSH1 0x0 DUP4 PUSH8 0xFFFFFFFFFFFFFFFF DUP2 GT ISZERO PUSH2 0xB5B JUMPI PUSH4 0x4E487B71 PUSH1 0xE0 SHL PUSH1 0x0 MSTORE PUSH1 0x41 PUSH1 0x4 MSTORE PUSH1 0x24 PUSH1 0x0 REVERT JUMPDEST PUSH1 0x40 MLOAD SWAP1 DUP1 DUP3 MSTORE DUP1 PUSH1 0x20 MUL PUSH1 0x20 ADD DUP3 ADD PUSH1 0x40 MSTORE DUP1 ISZERO PUSH2 0xB8E JUMPI DUP2 PUSH1 0x20 ADD JUMPDEST PUSH1 0x60 DUP2 MSTORE PUSH1 0x20 ADD SWAP1 PUSH1 0x1 SWAP1 SUB SWAP1 DUP2 PUSH2 0xB79 JUMPI SWAP1 POP JUMPDEST POP SWAP1 POP PUSH1 0x0 DUP5 PUSH8 0xFFFFFFFFFFFFFFFF DUP2 GT ISZERO PUSH2 0xBBA JUMPI PUSH4 0x4E487B71 PUSH1 0xE0 SHL PUSH1 0x0 MSTORE PUSH1 0x41 PUSH1 0x4 MSTORE PUSH1 0x24 PUSH1 0x0 REVERT JUMPDEST PUSH1 0x40 MLOAD SWAP1 DUP1 DUP3 MSTORE DUP1 PUSH1 0x20 MUL PUSH1 0x20 ADD DUP3 ADD PUSH1 0x40 MSTORE DUP1 ISZERO PUSH2 0xBE3 JUMPI DUP2 PUSH1 0x20 ADD PUSH1 0x20 DUP3 MUL DUP1 CALLDATASIZE DUP4 CALLDATACOPY ADD SWAP1 POP JUMPDEST POP SWAP1 POP PUSH1 0x0 JUMPDEST DUP6 DUP2 LT ISZERO PUSH2 0xCC9 JUMPI DUP4 DUP2 PUSH2 0xBFE PUSH1 0x1 DUP10 PUSH2 0x10BA JUMP JUMPDEST PUSH2 0xC08 SWAP2 SWAP1 PUSH2 0x10BA JUMP JUMPDEST DUP2 MLOAD DUP2 LT PUSH2 0xC26 JUMPI PUSH4 0x4E487B71 PUSH1 0xE0 SHL PUSH1 0x0 MSTORE PUSH1 0x32 PUSH1 0x4 MSTORE PUSH1 0x24 PUSH1 0x0 REVERT JUMPDEST PUSH1 0x20 MUL PUSH1 0x20 ADD ADD MLOAD DUP3 DUP3 DUP2 MLOAD DUP2 LT PUSH2 0xC4E JUMPI PUSH4 0x4E487B71 PUSH1 0xE0 SHL PUSH1 0x0 MSTORE PUSH1 0x32 PUSH1 0x4 MSTORE PUSH1 0x24 PUSH1 0x0 REVERT JUMPDEST PUSH1 0x20 MUL PUSH1 0x20 ADD ADD DUP2 DUP2 MSTORE POP POP PUSH2 0xC8B DUP16 DUP4 DUP4 DUP2 MLOAD DUP2 LT PUSH2 0xC7E JUMPI PUSH4 0x4E487B71 PUSH1 0xE0 SHL PUSH1 0x0 MSTORE PUSH1 0x32 PUSH1 0x4 MSTORE PUSH1 0x24 PUSH1 0x0 REVERT JUMPDEST PUSH1 0x20 MUL PUSH1 0x20 ADD ADD MLOAD PUSH2 0x564 JUMP JUMPDEST DUP4 DUP3 DUP2 MLOAD DUP2 LT PUSH2 0xCAB JUMPI PUSH4 0x4E487B71 PUSH1 0xE0 SHL PUSH1 0x0 MSTORE PUSH1 0x32 PUSH1 0x4 MSTORE PUSH1 0x24 PUSH1 0x0 REVERT JUMPDEST PUSH1 0x20 MUL PUSH1 0x20 ADD ADD DUP2 SWAP1 MSTORE POP DUP1 DUP1 PUSH2 0xCC1 SWAP1 PUSH2 0x1118 JUMP JUMPDEST SWAP2 POP POP PUSH2 0xBE9 JUMP JUMPDEST POP SWAP1 SWAP9 POP SWAP7 POP POP POP POP POP POP POP JUMPDEST SWAP5 POP SWAP5 SWAP3 POP POP POP JUMP JUMPDEST PUSH1 0x0 DUP1 JUMPDEST DUP3 MLOAD DUP2 LT ISZERO PUSH2 0xD3E JUMPI DUP3 DUP2 DUP2 MLOAD DUP2 LT PUSH2 0xD0C JUMPI PUSH4 0x4E487B71 PUSH1 0xE0 SHL PUSH1 0x0 MSTORE PUSH1 0x32 PUSH1 0x4 MSTORE PUSH1 0x24 PUSH1 0x0 REVERT JUMPDEST ADD PUSH1 0x20 ADD MLOAD PUSH1 0xF8 SHR PUSH2 0xD20 DUP4 PUSH2 0x100 PUSH2 0x109B JUMP JUMPDEST PUSH2 0xD2A SWAP2 SWAP1 PUSH2 0x1063 JUMP JUMPDEST SWAP2 POP DUP1 PUSH2 0xD36 DUP2 PUSH2 0x1118 JUMP JUMPDEST SWAP2 POP POP PUSH2 0xCE3 JUMP JUMPDEST POP SWAP2 SWAP1 POP JUMP JUMPDEST DUP1 MLOAD DUP1 ISZERO ISZERO DUP2 EQ PUSH2 0x4C9 JUMPI PUSH1 0x0 DUP1 REVERT JUMPDEST PUSH1 0x0 DUP3 PUSH1 0x1F DUP4 ADD SLT PUSH2 0xD64 JUMPI DUP1 DUP2 REVERT JUMPDEST DUP2 MLOAD PUSH8 0xFFFFFFFFFFFFFFFF DUP1 DUP3 GT ISZERO PUSH2 0xD7F JUMPI PUSH2 0xD7F PUSH2 0x1149 JUMP JUMPDEST PUSH1 0x40 MLOAD PUSH1 0x1F DUP4 ADD PUSH1 0x1F NOT SWAP1 DUP2 AND PUSH1 0x3F ADD AND DUP2 ADD SWAP1 DUP3 DUP3 GT DUP2 DUP4 LT OR ISZERO PUSH2 0xDA7 JUMPI PUSH2 0xDA7 PUSH2 0x1149 JUMP JUMPDEST DUP2 PUSH1 0x40 MSTORE DUP4 DUP2 MSTORE DUP7 PUSH1 0x20 DUP6 DUP9 ADD ADD GT ISZERO PUSH2 0xDBF JUMPI DUP5 DUP6 REVERT JUMPDEST PUSH2 0xDD0 DUP5 PUSH1 0x20 DUP4 ADD PUSH1 0x20 DUP10 ADD PUSH2 0x10D1 JUMP JUMPDEST SWAP7 SWAP6 POP POP POP POP POP POP JUMP JUMPDEST PUSH1 0x0 PUSH1 0x20 DUP3 DUP5 SUB SLT ISZERO PUSH2 0xDEB JUMPI DUP1 DUP2 REVERT JUMPDEST DUP2 CALLDATALOAD PUSH2 0x3E9 DUP2 PUSH2 0x115F JUMP JUMPDEST PUSH1 0x0 PUSH1 0x20 DUP3 DUP5 SUB SLT ISZERO PUSH2 0xE07 JUMPI DUP1 DUP2 REVERT JUMPDEST DUP2 MLOAD PUSH2 0x3E9 DUP2 PUSH2 0x115F JUMP JUMPDEST PUSH1 0x0 PUSH1 0x20 DUP3 DUP5 SUB SLT ISZERO PUSH2 0xE23 JUMPI DUP1 DUP2 REVERT JUMPDEST PUSH2 0x3E9 DUP3 PUSH2 0xD44 JUMP JUMPDEST PUSH1 0x0 DUP1 PUSH1 0x0 PUSH1 0x60 DUP5 DUP7 SUB SLT ISZERO PUSH2 0xE40 JUMPI DUP2 DUP3 REVERT JUMPDEST PUSH2 0xE49 DUP5 PUSH2 0xD44 JUMP JUMPDEST SWAP3 POP PUSH1 0x20 DUP5 ADD MLOAD PUSH8 0xFFFFFFFFFFFFFFFF DUP2 GT ISZERO PUSH2 0xE64 JUMPI DUP3 DUP4 REVERT JUMPDEST PUSH2 0xE70 DUP7 DUP3 DUP8 ADD PUSH2 0xD54 JUMP JUMPDEST SWAP3 POP POP PUSH1 0x40 DUP5 ADD MLOAD SWAP1 POP SWAP3 POP SWAP3 POP SWAP3 JUMP JUMPDEST PUSH1 0x0 DUP1 PUSH1 0x40 DUP4 DUP6 SUB SLT ISZERO PUSH2 0xE93 JUMPI DUP2 DUP3 REVERT JUMPDEST PUSH2 0xE9C DUP4 PUSH2 0xD44 JUMP JUMPDEST SWAP2 POP PUSH1 0x20 DUP4 ADD MLOAD SWAP1 POP SWAP3 POP SWAP3 SWAP1 POP JUMP JUMPDEST PUSH1 0x0 PUSH1 0x20 DUP3 DUP5 SUB SLT ISZERO PUSH2 0xEBD JUMPI DUP1 DUP2 REVERT JUMPDEST POP CALLDATALOAD SWAP2 SWAP1 POP JUMP JUMPDEST PUSH1 0x0 PUSH1 0x20 DUP3 DUP5 SUB SLT ISZERO PUSH2 0xED5 JUMPI DUP1 DUP2 REVERT JUMPDEST POP MLOAD SWAP2 SWAP1 POP JUMP JUMPDEST PUSH1 0x0 DUP1 PUSH1 0x40 DUP4 DUP6 SUB SLT ISZERO PUSH2 0xEEE JUMPI DUP2 DUP3 REVERT JUMPDEST POP POP DUP1 CALLDATALOAD SWAP3 PUSH1 0x20 SWAP1 SWAP2 ADD CALLDATALOAD SWAP2 POP JUMP JUMPDEST PUSH1 0x0 DUP1 PUSH1 0x0 DUP1 PUSH1 0x80 DUP6 DUP8 SUB SLT ISZERO PUSH2 0xF12 JUMPI DUP1 DUP2 REVERT JUMPDEST POP POP DUP3 CALLDATALOAD SWAP5 PUSH1 0x20 DUP5 ADD CALLDATALOAD SWAP5 POP PUSH1 0x40 DUP5 ADD CALLDATALOAD SWAP4 PUSH1 0x60 ADD CALLDATALOAD SWAP3 POP SWAP1 POP JUMP JUMPDEST PUSH1 0x0 PUSH1 0x20 DUP3 DUP5 SUB SLT ISZERO PUSH2 0xF3F JUMPI DUP1 DUP2 REVERT JUMPDEST DUP2 MLOAD PUSH8 0xFFFFFFFFFFFFFFFF DUP2 GT ISZERO PUSH2 0xF55 JUMPI DUP2 DUP3 REVERT JUMPDEST PUSH2 0xF61 DUP5 DUP3 DUP6 ADD PUSH2 0xD54 JUMP JUMPDEST SWAP5 SWAP4 POP POP POP POP JUMP JUMPDEST PUSH1 0x0 DUP2 MLOAD DUP1 DUP5 MSTORE PUSH2 0xF81 DUP2 PUSH1 0x20 DUP7 ADD PUSH1 0x20 DUP7 ADD PUSH2 0x10D1 JUMP JUMPDEST PUSH1 0x1F ADD PUSH1 0x1F NOT AND SWAP3 SWAP1 SWAP3 ADD PUSH1 0x20 ADD SWAP3 SWAP2 POP POP JUMP JUMPDEST PUSH1 0x0 PUSH1 0x40 DUP3 ADD PUSH1 0x40 DUP4 MSTORE DUP1 DUP6 MLOAD DUP1 DUP4 MSTORE PUSH1 0x60 DUP6 ADD SWAP2 POP PUSH1 0x60 DUP2 PUSH1 0x5 SHL DUP7 ADD ADD SWAP3 POP PUSH1 0x20 DUP1 DUP9 ADD DUP6 JUMPDEST DUP4 DUP2 LT ISZERO PUSH2 0xFEB JUMPI PUSH1 0x5F NOT DUP9 DUP8 SUB ADD DUP6 MSTORE PUSH2 0xFD9 DUP7 DUP4 MLOAD PUSH2 0xF69 JUMP JUMPDEST SWAP6 POP SWAP4 DUP3 ADD SWAP4 SWAP1 DUP3 ADD SWAP1 PUSH1 0x1 ADD PUSH2 0xFBD JUMP JUMPDEST POP POP DUP6 DUP5 SUB DUP2 DUP8 ADD MSTORE DUP7 MLOAD DUP1 DUP6 MSTORE DUP8 DUP3 ADD SWAP5 DUP3 ADD SWAP4 POP SWAP2 POP DUP5 JUMPDEST DUP3 DUP2 LT ISZERO PUSH2 0x1021 JUMPI DUP5 MLOAD DUP5 MSTORE SWAP4 DUP2 ADD SWAP4 SWAP3 DUP2 ADD SWAP3 PUSH1 0x1 ADD PUSH2 0x1005 JUMP JUMPDEST POP SWAP2 SWAP8 SWAP7 POP POP POP POP POP POP POP JUMP JUMPDEST PUSH1 0x0 PUSH1 0x20 DUP3 MSTORE PUSH2 0x3E9 PUSH1 0x20 DUP4 ADD DUP5 PUSH2 0xF69 JUMP JUMPDEST PUSH1 0x0 PUSH1 0x40 DUP3 MSTORE PUSH2 0x1054 PUSH1 0x40 DUP4 ADD DUP6 PUSH2 0xF69 JUMP JUMPDEST SWAP1 POP DUP3 PUSH1 0x20 DUP4 ADD MSTORE SWAP4 SWAP3 POP POP POP JUMP JUMPDEST PUSH1 0x0 DUP3 NOT DUP3 GT ISZERO PUSH2 0x1076 JUMPI PUSH2 0x1076 PUSH2 0x1133 JUMP JUMPDEST POP ADD SWAP1 JUMP JUMPDEST PUSH1 0x0 DUP3 PUSH2 0x1096 JUMPI PUSH4 0x4E487B71 PUSH1 0xE0 SHL DUP2 MSTORE PUSH1 0x12 PUSH1 0x4 MSTORE PUSH1 0x24 DUP2 REVERT JUMPDEST POP DIV SWAP1 JUMP JUMPDEST PUSH1 0x0 DUP2 PUSH1 0x0 NOT DIV DUP4 GT DUP3 ISZERO ISZERO AND ISZERO PUSH2 0x10B5 JUMPI PUSH2 0x10B5 PUSH2 0x1133 JUMP JUMPDEST POP MUL SWAP1 JUMP JUMPDEST PUSH1 0x0 DUP3 DUP3 LT ISZERO PUSH2 0x10CC JUMPI PUSH2 0x10CC PUSH2 0x1133 JUMP JUMPDEST POP SUB SWAP1 JUMP JUMPDEST PUSH1 0x0 JUMPDEST DUP4 DUP2 LT ISZERO PUSH2 0x10EC JUMPI DUP2 DUP2 ADD MLOAD DUP4 DUP3 ADD MSTORE PUSH1 0x20 ADD PUSH2 0x10D4 JUMP JUMPDEST DUP4 DUP2 GT ISZERO PUSH2 0x10FB JUMPI PUSH1 0x0 DUP5 DUP5 ADD MSTORE JUMPDEST POP POP POP POP JUMP JUMPDEST PUSH1 0x0 DUP2 PUSH2 0x1110 JUMPI PUSH2 0x1110 PUSH2 0x1133 JUMP JUMPDEST POP PUSH1 0x0 NOT ADD SWAP1 JUMP JUMPDEST PUSH1 0x0 PUSH1 0x0 NOT DUP3 EQ ISZERO PUSH2 0x112C JUMPI PUSH2 0x112C PUSH2 0x1133 JUMP JUMPDEST POP PUSH1 0x1 ADD SWAP1 JUMP JUMPDEST PUSH4 0x4E487B71 PUSH1 0xE0 SHL PUSH1 0x0 MSTORE PUSH1 0x11 PUSH1 0x4 MSTORE PUSH1 0x24 PUSH1 0x0 REVERT JUMPDEST PUSH4 0x4E487B71 PUSH1 0xE0 SHL PUSH1 0x0 MSTORE PUSH1 0x41 PUSH1 0x4 MSTORE PUSH1 0x24 PUSH1 0x0 REVERT JUMPDEST PUSH1 0x1 PUSH1 0x1 PUSH1 0xA0 SHL SUB DUP2 AND DUP2 EQ PUSH2 0x1174 JUMPI PUSH1 0x0 DUP1 REVERT JUMPDEST POP JUMP INVALID LOG2 PUSH5 0x6970667358 0x22 SLT KECCAK256 0xD9 0x25 CREATE2 SUB SELFBALANCE PUSH24 0x4F002C777D494FB2A05B6C8BE2B39672A88BD7C665E93795 CALLDATACOPY DIV PUSH5 0x736F6C6343 STOP ADDMOD SUB STOP CALLER "},"methodIdentifiers":{"getDataAfter(bytes32,uint256)":"64ee3c6d","getDataBefore(bytes32,uint256)":"a792765f","getIndexForDataAfter(bytes32,uint256)":"f66f49c3","getIndexForDataBefore(bytes32,uint256)":"29449085","getMultipleValuesBefore(bytes32,uint256,uint256,uint256)":"fcd4a546","getNewValueCountbyQueryId(bytes32)":"77b03e0d","getReporterByTimestamp(bytes32,uint256)":"e07c5486","getTimestampbyQueryIdandIndex(bytes32,uint256)":"ce5e11bf","idMappingContract()":"2af8aae0","isInDispute(bytes32,uint256)":"44e87f91","retrieveData(bytes32,uint256)":"c5958af9","setIdMappingContract(address)":"193b505b","tellor()":"1959ad5b","valueFor(bytes32)":"f78eea83"}}}}}