{"contracts/bridge/BlobstreamO.sol":{"BlobstreamO":{"abi":[{"inputs":[{"internalType":"uint256","name":"_nonce","type":"uint256"},{"internalType":"uint256","name":"_powerThreshold","type":"uint256"},{"internalType":"bytes32","name":"_validatorSetCheckpoint","type":"bytes32"}],"stateMutability":"nonpayable","type":"constructor"},{"inputs":[],"name":"ECDSAInvalidSignature","type":"error"},{"inputs":[{"internalType":"uint256","name":"length","type":"uint256"}],"name":"ECDSAInvalidSignatureLength","type":"error"},{"inputs":[{"internalType":"bytes32","name":"s","type":"bytes32"}],"name":"ECDSAInvalidSignatureS","type":"error"},{"inputs":[],"name":"InsufficientVotingPower","type":"error"},{"inputs":[],"name":"InvalidSignature","type":"error"},{"inputs":[],"name":"InvalidValidatorSetNonce","type":"error"},{"inputs":[],"name":"MalformedCurrentValidatorSet","type":"error"},{"inputs":[],"name":"SuppliedValidatorSetInvalid","type":"error"},{"anonymous":false,"inputs":[{"indexed":false,"internalType":"bytes32","name":"_oracleRoot","type":"bytes32"}],"name":"NewOracleRoot","type":"event"},{"anonymous":false,"inputs":[{"indexed":true,"internalType":"uint256","name":"_nonce","type":"uint256"},{"indexed":false,"internalType":"uint256","name":"_powerThreshold","type":"uint256"},{"indexed":false,"internalType":"bytes32","name":"_validatorSetHash","type":"bytes32"}],"name":"ValidatorSetUpdated","type":"event"},{"inputs":[],"name":"currentRelayedBlockHeight","outputs":[{"internalType":"uint256","name":"","type":"uint256"}],"stateMutability":"view","type":"function"},{"inputs":[{"internalType":"bytes32","name":"","type":"bytes32"}],"name":"isOracleRoot","outputs":[{"internalType":"bool","name":"","type":"bool"}],"stateMutability":"view","type":"function"},{"inputs":[],"name":"lastValidatorSetCheckpoint","outputs":[{"internalType":"bytes32","name":"","type":"bytes32"}],"stateMutability":"view","type":"function"},{"inputs":[{"internalType":"uint256","name":"","type":"uint256"}],"name":"oracleRoots","outputs":[{"internalType":"bytes32","name":"","type":"bytes32"}],"stateMutability":"view","type":"function"},{"inputs":[],"name":"powerThreshold","outputs":[{"internalType":"uint256","name":"","type":"uint256"}],"stateMutability":"view","type":"function"},{"inputs":[{"internalType":"bytes32","name":"_newValidatorSetHash","type":"bytes32"},{"internalType":"uint64","name":"_newPowerThreshold","type":"uint64"},{"components":[{"internalType":"address","name":"addr","type":"address"},{"internalType":"uint256","name":"power","type":"uint256"}],"internalType":"struct Validator[]","name":"_currentValidatorSet","type":"tuple[]"},{"components":[{"internalType":"uint8","name":"v","type":"uint8"},{"internalType":"bytes32","name":"r","type":"bytes32"},{"internalType":"bytes32","name":"s","type":"bytes32"}],"internalType":"struct Signature[]","name":"_sigs","type":"tuple[]"}],"name":"updateValidatorSet","outputs":[],"stateMutability":"nonpayable","type":"function"},{"inputs":[],"name":"validatorNonce","outputs":[{"internalType":"uint256","name":"","type":"uint256"}],"stateMutability":"view","type":"function"},{"inputs":[{"components":[{"internalType":"bytes32","name":"queryId","type":"bytes32"},{"components":[{"internalType":"bytes","name":"value","type":"bytes"},{"internalType":"uint256","name":"timestamp","type":"uint256"},{"internalType":"uint256","name":"consensusThreshold","type":"uint256"}],"internalType":"struct ReportData","name":"report","type":"tuple"},{"internalType":"uint256","name":"validatorNonce","type":"uint256"},{"internalType":"uint256","name":"powerThreshold","type":"uint256"},{"internalType":"bytes32","name":"validatorSetHash","type":"bytes32"},{"internalType":"uint256","name":"blockTimestamp","type":"uint256"}],"internalType":"struct OracleAttestationData","name":"_attest","type":"tuple"},{"components":[{"internalType":"address","name":"addr","type":"address"},{"internalType":"uint256","name":"power","type":"uint256"}],"internalType":"struct Validator[]","name":"_currentValidatorSet","type":"tuple[]"},{"components":[{"internalType":"uint8","name":"v","type":"uint8"},{"internalType":"bytes32","name":"r","type":"bytes32"},{"internalType":"bytes32","name":"s","type":"bytes32"}],"internalType":"struct Signature[]","name":"_sigs","type":"tuple[]"}],"name":"verifyOracleData","outputs":[{"internalType":"bool","name":"","type":"bool"}],"stateMutability":"view","type":"function"}],"evm":{"bytecode":{"linkReferences":{},"object":"60806040523480156200001157600080fd5b506040516200156d3803806200156d8339818101604052810190620000379190620000d0565b8260028190555080600081905550816001819055505050506200012c565b600080fd5b6000819050919050565b6200006f816200005a565b81146200007b57600080fd5b50565b6000815190506200008f8162000064565b92915050565b6000819050919050565b620000aa8162000095565b8114620000b657600080fd5b50565b600081519050620000ca816200009f565b92915050565b600080600060608486031215620000ec57620000eb62000055565b5b6000620000fc868287016200007e565b93505060206200010f868287016200007e565b92505060406200012286828701620000b9565b9150509250925092565b611431806200013c6000396000f3fe608060405234801561001057600080fd5b50600436106100885760003560e01c8063ba95ec271161005b578063ba95ec2714610127578063cb908d5214610145578063d8256ec714610175578063e17a684f1461019357610088565b806331b53e521461008d57806391f6b44b146100bd57806393319d6e146100ed578063af082a7d14610109575b600080fd5b6100a760048036038101906100a29190610a8e565b6101b1565b6040516100b49190610ad6565b60405180910390f35b6100d760048036038101906100d29190610b27565b6101d1565b6040516100e49190610b63565b60405180910390f35b61010760048036038101906101029190610c79565b6101e9565b005b610111610320565b60405161011e9190610b63565b60405180910390f35b61012f610326565b60405161013c9190610d2f565b60405180910390f35b61015f600480360381019061015a9190610d6e565b61032c565b60405161016c9190610ad6565b60405180910390f35b61017d61042f565b60405161018a9190610d2f565b60405180910390f35b61019b610435565b6040516101a89190610d2f565b60405180910390f35b60056020528060005260406000206000915054906101000a900460ff1681565b60046020528060005260406000206000915090505481565b818190508484905014610228576040517fc6617b7b00000000000000000000000000000000000000000000000000000000815260040160405180910390fd5b6000610234858561043b565b90506000546102486002546001548461046e565b1461027f576040517f177b5d9200000000000000000000000000000000000000000000000000000000815260040160405180910390fd5b60006102986002548867ffffffffffffffff168a61046e565b90506102aa86868686856001546104c9565b806000819055508667ffffffffffffffff16600181905550600260008154809291906102d590610e4e565b91905055506002547fe304b71f81a1aaf6d714401de28ba1ebdbb5ff9c5fee59ef2a6eb984f9e8da7e888a60405161030e929190610ed1565b60405180910390a25050505050505050565b60005481565b60015481565b600082829050858590501461036d576040517fc6617b7b00000000000000000000000000000000000000000000000000000000815260040160405180910390fd5b6000610379868661043b565b905060005461038d6002546001548461046e565b146103c4576040517f177b5d9200000000000000000000000000000000000000000000000000000000815260040160405180910390fd5b600254876040013514610403576040517fd146bffa00000000000000000000000000000000000000000000000000000000815260040160405180910390fd5b600061040e88610668565b905061042087878787856001546104c9565b60019250505095945050505050565b60035481565b60025481565b6000828260405160200161045092919061108b565b60405160208183030381529060405280519060200120905092915050565b60007f636865636b706f696e740000000000000000000000000000000000000000000060001b8484846040516020016104aa94939291906110af565b6040516020818303038152906040528051906020012090509392505050565b6000805b87879050811015610624576000801b8686838181106104ef576104ee6110f4565b5b9050606002016020013514801561052457506000801b868683818110610518576105176110f4565b5b90506060020160400135145b801561055d575060008686838181106105405761053f6110f4565b5b9050606002016000016020810190610558919061115c565b60ff16145b610617576105ae888883818110610577576105766110f4565b5b905060400201600001602081019061058f9190611189565b858888858181106105a3576105a26110f4565b5b905060600201610724565b6105e4576040517f8baa579f00000000000000000000000000000000000000000000000000000000815260040160405180910390fd5b8787828181106105f7576105f66110f4565b5b905060400201602001358261060c91906111b6565b915082821015610624575b80806001019150506104cd565b508181101561065f576040517fcabeb65500000000000000000000000000000000000000000000000000000000815260040160405180910390fd5b50505050505050565b60007f74656c6c6f7243757272656e744174746573746174696f6e000000000000000060001b82600001358380602001906106a391906111f9565b80600001906106b29190611221565b8580602001906106c291906111f9565b602001358680602001906106d691906111f9565b604001358760400135886060013589608001358a60a001356040516020016107079a999897969594939291906112e2565b604051602081830303815290604052805190602001209050919050565b60008061073084610790565b905061075881846000016020810190610749919061115c565b856020013586604001356107c6565b73ffffffffffffffffffffffffffffffffffffffff168573ffffffffffffffffffffffffffffffffffffffff16149150509392505050565b60007f19457468657265756d205369676e6564204d6573736167653a0a33320000000060005281601c52603c6000209050919050565b6000806000806107d8888888886107f6565b9250925092506107e882826108ea565b829350505050949350505050565b60008060007f7fffffffffffffffffffffffffffffff5d576e7357a4501ddfe92f46681b20a08460001c11156108365760006003859250925092506108e0565b60006001888888886040516000815260200160405260405161085b9493929190611387565b6020604051602081039080840390855afa15801561087d573d6000803e3d6000fd5b505050602060405103519050600073ffffffffffffffffffffffffffffffffffffffff168173ffffffffffffffffffffffffffffffffffffffff16036108d157600060016000801b935093509350506108e0565b8060008060001b935093509350505b9450945094915050565b600060038111156108fe576108fd6113cc565b5b826003811115610911576109106113cc565b5b0315610a4a576001600381111561092b5761092a6113cc565b5b82600381111561093e5761093d6113cc565b5b03610975576040517ff645eedf00000000000000000000000000000000000000000000000000000000815260040160405180910390fd5b60026003811115610989576109886113cc565b5b82600381111561099c5761099b6113cc565b5b036109e1578060001c6040517ffce698f70000000000000000000000000000000000000000000000000000000081526004016109d89190610d2f565b60405180910390fd5b6003808111156109f4576109f36113cc565b5b826003811115610a0757610a066113cc565b5b03610a4957806040517fd78bce0c000000000000000000000000000000000000000000000000000000008152600401610a409190610b63565b60405180910390fd5b5b5050565b600080fd5b600080fd5b6000819050919050565b610a6b81610a58565b8114610a7657600080fd5b50565b600081359050610a8881610a62565b92915050565b600060208284031215610aa457610aa3610a4e565b5b6000610ab284828501610a79565b91505092915050565b60008115159050919050565b610ad081610abb565b82525050565b6000602082019050610aeb6000830184610ac7565b92915050565b6000819050919050565b610b0481610af1565b8114610b0f57600080fd5b50565b600081359050610b2181610afb565b92915050565b600060208284031215610b3d57610b3c610a4e565b5b6000610b4b84828501610b12565b91505092915050565b610b5d81610a58565b82525050565b6000602082019050610b786000830184610b54565b92915050565b600067ffffffffffffffff82169050919050565b610b9b81610b7e565b8114610ba657600080fd5b50565b600081359050610bb881610b92565b92915050565b600080fd5b600080fd5b600080fd5b60008083601f840112610be357610be2610bbe565b5b8235905067ffffffffffffffff811115610c0057610bff610bc3565b5b602083019150836040820283011115610c1c57610c1b610bc8565b5b9250929050565b60008083601f840112610c3957610c38610bbe565b5b8235905067ffffffffffffffff811115610c5657610c55610bc3565b5b602083019150836060820283011115610c7257610c71610bc8565b5b9250929050565b60008060008060008060808789031215610c9657610c95610a4e565b5b6000610ca489828a01610a79565b9650506020610cb589828a01610ba9565b955050604087013567ffffffffffffffff811115610cd657610cd5610a53565b5b610ce289828a01610bcd565b9450945050606087013567ffffffffffffffff811115610d0557610d04610a53565b5b610d1189828a01610c23565b92509250509295509295509295565b610d2981610af1565b82525050565b6000602082019050610d446000830184610d20565b92915050565b600080fd5b600060c08284031215610d6557610d64610d4a565b5b81905092915050565b600080600080600060608688031215610d8a57610d89610a4e565b5b600086013567ffffffffffffffff811115610da857610da7610a53565b5b610db488828901610d4f565b955050602086013567ffffffffffffffff811115610dd557610dd4610a53565b5b610de188828901610bcd565b9450945050604086013567ffffffffffffffff811115610e0457610e03610a53565b5b610e1088828901610c23565b92509250509295509295909350565b7f4e487b7100000000000000000000000000000000000000000000000000000000600052601160045260246000fd5b6000610e5982610af1565b91507fffffffffffffffffffffffffffffffffffffffffffffffffffffffffffffffff8203610e8b57610e8a610e1f565b5b600182019050919050565b6000819050919050565b6000610ebb610eb6610eb184610b7e565b610e96565b610af1565b9050919050565b610ecb81610ea0565b82525050565b6000604082019050610ee66000830185610ec2565b610ef36020830184610b54565b9392505050565b600082825260208201905092915050565b6000819050919050565b600073ffffffffffffffffffffffffffffffffffffffff82169050919050565b6000610f4082610f15565b9050919050565b610f5081610f35565b8114610f5b57600080fd5b50565b600081359050610f6d81610f47565b92915050565b6000610f826020840184610f5e565b905092915050565b610f9381610f35565b82525050565b6000610fa86020840184610b12565b905092915050565b610fb981610af1565b82525050565b60408201610fd06000830183610f73565b610fdd6000850182610f8a565b50610feb6020830183610f99565b610ff86020850182610fb0565b50505050565b600061100a8383610fbf565b60408301905092915050565b600082905092915050565b6000604082019050919050565b600061103a8385610efa565b935061104582610f0b565b8060005b8581101561107e5761105b8284611016565b6110658882610ffe565b975061107083611021565b925050600181019050611049565b5085925050509392505050565b600060208201905081810360008301526110a681848661102e565b90509392505050565b60006080820190506110c46000830187610b54565b6110d16020830186610d20565b6110de6040830185610d20565b6110eb6060830184610b54565b95945050505050565b7f4e487b7100000000000000000000000000000000000000000000000000000000600052603260045260246000fd5b600060ff82169050919050565b61113981611123565b811461114457600080fd5b50565b60008135905061115681611130565b92915050565b60006020828403121561117257611171610a4e565b5b600061118084828501611147565b91505092915050565b60006020828403121561119f5761119e610a4e565b5b60006111ad84828501610f5e565b91505092915050565b60006111c182610af1565b91506111cc83610af1565b92508282019050808211156111e4576111e3610e1f565b5b92915050565b600080fd5b600080fd5b600080fd5b600082356001606003833603038112611215576112146111ea565b5b80830191505092915050565b6000808335600160200384360303811261123e5761123d6111ea565b5b80840192508235915067ffffffffffffffff8211156112605761125f6111ef565b5b60208301925060018202360383131561127c5761127b6111f4565b5b509250929050565b600082825260208201905092915050565b82818337600083830152505050565b6000601f19601f8301169050919050565b60006112c18385611284565b93506112ce838584611295565b6112d7836112a4565b840190509392505050565b6000610120820190506112f8600083018d610b54565b611305602083018c610b54565b8181036040830152611318818a8c6112b5565b90506113276060830189610d20565b6113346080830188610d20565b61134160a0830187610d20565b61134e60c0830186610d20565b61135b60e0830185610b54565b611369610100830184610d20565b9b9a5050505050505050505050565b61138181611123565b82525050565b600060808201905061139c6000830187610b54565b6113a96020830186611378565b6113b66040830185610b54565b6113c36060830184610b54565b95945050505050565b7f4e487b7100000000000000000000000000000000000000000000000000000000600052602160045260246000fdfea2646970667358221220978655a49d4772924e6d65af61cfd60797c9d5a5c8097ce0a199e2c456bc15e664736f6c63430008160033","opcodes":"PUSH1 0x80 PUSH1 0x40 MSTORE CALLVALUE DUP1 ISZERO PUSH3 0x11 JUMPI PUSH1 0x0 DUP1 REVERT JUMPDEST POP PUSH1 0x40 MLOAD PUSH3 0x156D CODESIZE SUB DUP1 PUSH3 0x156D DUP4 CODECOPY DUP2 DUP2 ADD PUSH1 0x40 MSTORE DUP2 ADD SWAP1 PUSH3 0x37 SWAP2 SWAP1 PUSH3 0xD0 JUMP JUMPDEST DUP3 PUSH1 0x2 DUP2 SWAP1 SSTORE POP DUP1 PUSH1 0x0 DUP2 SWAP1 SSTORE POP DUP2 PUSH1 0x1 DUP2 SWAP1 SSTORE POP POP POP POP PUSH3 0x12C JUMP JUMPDEST PUSH1 0x0 DUP1 REVERT JUMPDEST PUSH1 0x0 DUP2 SWAP1 POP SWAP2 SWAP1 POP JUMP JUMPDEST PUSH3 0x6F DUP2 PUSH3 0x5A JUMP JUMPDEST DUP2 EQ PUSH3 0x7B JUMPI PUSH1 0x0 DUP1 REVERT JUMPDEST POP JUMP JUMPDEST PUSH1 0x0 DUP2 MLOAD SWAP1 POP PUSH3 0x8F DUP2 PUSH3 0x64 JUMP JUMPDEST SWAP3 SWAP2 POP POP JUMP JUMPDEST PUSH1 0x0 DUP2 SWAP1 POP SWAP2 SWAP1 POP JUMP JUMPDEST PUSH3 0xAA DUP2 PUSH3 0x95 JUMP JUMPDEST DUP2 EQ PUSH3 0xB6 JUMPI PUSH1 0x0 DUP1 REVERT JUMPDEST POP JUMP JUMPDEST PUSH1 0x0 DUP2 MLOAD SWAP1 POP PUSH3 0xCA DUP2 PUSH3 0x9F JUMP JUMPDEST SWAP3 SWAP2 POP POP JUMP JUMPDEST PUSH1 0x0 DUP1 PUSH1 0x0 PUSH1 0x60 DUP5 DUP7 SUB SLT ISZERO PUSH3 0xEC JUMPI PUSH3 0xEB PUSH3 0x55 JUMP JUMPDEST JUMPDEST PUSH1 0x0 PUSH3 0xFC DUP7 DUP3 DUP8 ADD PUSH3 0x7E JUMP JUMPDEST SWAP4 POP POP PUSH1 0x20 PUSH3 0x10F DUP7 DUP3 DUP8 ADD PUSH3 0x7E JUMP JUMPDEST SWAP3 POP POP PUSH1 0x40 PUSH3 0x122 DUP7 DUP3 DUP8 ADD PUSH3 0xB9 JUMP JUMPDEST SWAP2 POP POP SWAP3 POP SWAP3 POP SWAP3 JUMP JUMPDEST PUSH2 0x1431 DUP1 PUSH3 0x13C PUSH1 0x0 CODECOPY PUSH1 0x0 RETURN INVALID PUSH1 0x80 PUSH1 0x40 MSTORE CALLVALUE DUP1 ISZERO PUSH2 0x10 JUMPI PUSH1 0x0 DUP1 REVERT JUMPDEST POP PUSH1 0x4 CALLDATASIZE LT PUSH2 0x88 JUMPI PUSH1 0x0 CALLDATALOAD PUSH1 0xE0 SHR DUP1 PUSH4 0xBA95EC27 GT PUSH2 0x5B JUMPI DUP1 PUSH4 0xBA95EC27 EQ PUSH2 0x127 JUMPI DUP1 PUSH4 0xCB908D52 EQ PUSH2 0x145 JUMPI DUP1 PUSH4 0xD8256EC7 EQ PUSH2 0x175 JUMPI DUP1 PUSH4 0xE17A684F EQ PUSH2 0x193 JUMPI PUSH2 0x88 JUMP JUMPDEST DUP1 PUSH4 0x31B53E52 EQ PUSH2 0x8D JUMPI DUP1 PUSH4 0x91F6B44B EQ PUSH2 0xBD JUMPI DUP1 PUSH4 0x93319D6E EQ PUSH2 0xED JUMPI DUP1 PUSH4 0xAF082A7D EQ PUSH2 0x109 JUMPI JUMPDEST PUSH1 0x0 DUP1 REVERT JUMPDEST PUSH2 0xA7 PUSH1 0x4 DUP1 CALLDATASIZE SUB DUP2 ADD SWAP1 PUSH2 0xA2 SWAP2 SWAP1 PUSH2 0xA8E JUMP JUMPDEST PUSH2 0x1B1 JUMP JUMPDEST PUSH1 0x40 MLOAD PUSH2 0xB4 SWAP2 SWAP1 PUSH2 0xAD6 JUMP JUMPDEST PUSH1 0x40 MLOAD DUP1 SWAP2 SUB SWAP1 RETURN JUMPDEST PUSH2 0xD7 PUSH1 0x4 DUP1 CALLDATASIZE SUB DUP2 ADD SWAP1 PUSH2 0xD2 SWAP2 SWAP1 PUSH2 0xB27 JUMP JUMPDEST PUSH2 0x1D1 JUMP JUMPDEST PUSH1 0x40 MLOAD PUSH2 0xE4 SWAP2 SWAP1 PUSH2 0xB63 JUMP JUMPDEST PUSH1 0x40 MLOAD DUP1 SWAP2 SUB SWAP1 RETURN JUMPDEST PUSH2 0x107 PUSH1 0x4 DUP1 CALLDATASIZE SUB DUP2 ADD SWAP1 PUSH2 0x102 SWAP2 SWAP1 PUSH2 0xC79 JUMP JUMPDEST PUSH2 0x1E9 JUMP JUMPDEST STOP JUMPDEST PUSH2 0x111 PUSH2 0x320 JUMP JUMPDEST PUSH1 0x40 MLOAD PUSH2 0x11E SWAP2 SWAP1 PUSH2 0xB63 JUMP JUMPDEST PUSH1 0x40 MLOAD DUP1 SWAP2 SUB SWAP1 RETURN JUMPDEST PUSH2 0x12F PUSH2 0x326 JUMP JUMPDEST PUSH1 0x40 MLOAD PUSH2 0x13C SWAP2 SWAP1 PUSH2 0xD2F JUMP JUMPDEST PUSH1 0x40 MLOAD DUP1 SWAP2 SUB SWAP1 RETURN JUMPDEST PUSH2 0x15F PUSH1 0x4 DUP1 CALLDATASIZE SUB DUP2 ADD SWAP1 PUSH2 0x15A SWAP2 SWAP1 PUSH2 0xD6E JUMP JUMPDEST PUSH2 0x32C JUMP JUMPDEST PUSH1 0x40 MLOAD PUSH2 0x16C SWAP2 SWAP1 PUSH2 0xAD6 JUMP JUMPDEST PUSH1 0x40 MLOAD DUP1 SWAP2 SUB SWAP1 RETURN JUMPDEST PUSH2 0x17D PUSH2 0x42F JUMP JUMPDEST PUSH1 0x40 MLOAD PUSH2 0x18A SWAP2 SWAP1 PUSH2 0xD2F JUMP JUMPDEST PUSH1 0x40 MLOAD DUP1 SWAP2 SUB SWAP1 RETURN JUMPDEST PUSH2 0x19B PUSH2 0x435 JUMP JUMPDEST PUSH1 0x40 MLOAD PUSH2 0x1A8 SWAP2 SWAP1 PUSH2 0xD2F JUMP JUMPDEST PUSH1 0x40 MLOAD DUP1 SWAP2 SUB SWAP1 RETURN JUMPDEST PUSH1 0x5 PUSH1 0x20 MSTORE DUP1 PUSH1 0x0 MSTORE PUSH1 0x40 PUSH1 0x0 KECCAK256 PUSH1 0x0 SWAP2 POP SLOAD SWAP1 PUSH2 0x100 EXP SWAP1 DIV PUSH1 0xFF AND DUP2 JUMP JUMPDEST PUSH1 0x4 PUSH1 0x20 MSTORE DUP1 PUSH1 0x0 MSTORE PUSH1 0x40 PUSH1 0x0 KECCAK256 PUSH1 0x0 SWAP2 POP SWAP1 POP SLOAD DUP2 JUMP JUMPDEST DUP2 DUP2 SWAP1 POP DUP5 DUP5 SWAP1 POP EQ PUSH2 0x228 JUMPI PUSH1 0x40 MLOAD PUSH32 0xC6617B7B00000000000000000000000000000000000000000000000000000000 DUP2 MSTORE PUSH1 0x4 ADD PUSH1 0x40 MLOAD DUP1 SWAP2 SUB SWAP1 REVERT JUMPDEST PUSH1 0x0 PUSH2 0x234 DUP6 DUP6 PUSH2 0x43B JUMP JUMPDEST SWAP1 POP PUSH1 0x0 SLOAD PUSH2 0x248 PUSH1 0x2 SLOAD PUSH1 0x1 SLOAD DUP5 PUSH2 0x46E JUMP JUMPDEST EQ PUSH2 0x27F JUMPI PUSH1 0x40 MLOAD PUSH32 0x177B5D9200000000000000000000000000000000000000000000000000000000 DUP2 MSTORE PUSH1 0x4 ADD PUSH1 0x40 MLOAD DUP1 SWAP2 SUB SWAP1 REVERT JUMPDEST PUSH1 0x0 PUSH2 0x298 PUSH1 0x2 SLOAD DUP9 PUSH8 0xFFFFFFFFFFFFFFFF AND DUP11 PUSH2 0x46E JUMP JUMPDEST SWAP1 POP PUSH2 0x2AA DUP7 DUP7 DUP7 DUP7 DUP6 PUSH1 0x1 SLOAD PUSH2 0x4C9 JUMP JUMPDEST DUP1 PUSH1 0x0 DUP2 SWAP1 SSTORE POP DUP7 PUSH8 0xFFFFFFFFFFFFFFFF AND PUSH1 0x1 DUP2 SWAP1 SSTORE POP PUSH1 0x2 PUSH1 0x0 DUP2 SLOAD DUP1 SWAP3 SWAP2 SWAP1 PUSH2 0x2D5 SWAP1 PUSH2 0xE4E JUMP JUMPDEST SWAP2 SWAP1 POP SSTORE POP PUSH1 0x2 SLOAD PUSH32 0xE304B71F81A1AAF6D714401DE28BA1EBDBB5FF9C5FEE59EF2A6EB984F9E8DA7E DUP9 DUP11 PUSH1 0x40 MLOAD PUSH2 0x30E SWAP3 SWAP2 SWAP1 PUSH2 0xED1 JUMP JUMPDEST PUSH1 0x40 MLOAD DUP1 SWAP2 SUB SWAP1 LOG2 POP POP POP POP POP POP POP POP JUMP JUMPDEST PUSH1 0x0 SLOAD DUP2 JUMP JUMPDEST PUSH1 0x1 SLOAD DUP2 JUMP JUMPDEST PUSH1 0x0 DUP3 DUP3 SWAP1 POP DUP6 DUP6 SWAP1 POP EQ PUSH2 0x36D JUMPI PUSH1 0x40 MLOAD PUSH32 0xC6617B7B00000000000000000000000000000000000000000000000000000000 DUP2 MSTORE PUSH1 0x4 ADD PUSH1 0x40 MLOAD DUP1 SWAP2 SUB SWAP1 REVERT JUMPDEST PUSH1 0x0 PUSH2 0x379 DUP7 DUP7 PUSH2 0x43B JUMP JUMPDEST SWAP1 POP PUSH1 0x0 SLOAD PUSH2 0x38D PUSH1 0x2 SLOAD PUSH1 0x1 SLOAD DUP5 PUSH2 0x46E JUMP JUMPDEST EQ PUSH2 0x3C4 JUMPI PUSH1 0x40 MLOAD PUSH32 0x177B5D9200000000000000000000000000000000000000000000000000000000 DUP2 MSTORE PUSH1 0x4 ADD PUSH1 0x40 MLOAD DUP1 SWAP2 SUB SWAP1 REVERT JUMPDEST PUSH1 0x2 SLOAD DUP8 PUSH1 0x40 ADD CALLDATALOAD EQ PUSH2 0x403 JUMPI PUSH1 0x40 MLOAD PUSH32 0xD146BFFA00000000000000000000000000000000000000000000000000000000 DUP2 MSTORE PUSH1 0x4 ADD PUSH1 0x40 MLOAD DUP1 SWAP2 SUB SWAP1 REVERT JUMPDEST PUSH1 0x0 PUSH2 0x40E DUP9 PUSH2 0x668 JUMP JUMPDEST SWAP1 POP PUSH2 0x420 DUP8 DUP8 DUP8 DUP8 DUP6 PUSH1 0x1 SLOAD PUSH2 0x4C9 JUMP JUMPDEST PUSH1 0x1 SWAP3 POP POP POP SWAP6 SWAP5 POP POP POP POP POP JUMP JUMPDEST PUSH1 0x3 SLOAD DUP2 JUMP JUMPDEST PUSH1 0x2 SLOAD DUP2 JUMP JUMPDEST PUSH1 0x0 DUP3 DUP3 PUSH1 0x40 MLOAD PUSH1 0x20 ADD PUSH2 0x450 SWAP3 SWAP2 SWAP1 PUSH2 0x108B JUMP JUMPDEST PUSH1 0x40 MLOAD PUSH1 0x20 DUP2 DUP4 SUB SUB DUP2 MSTORE SWAP1 PUSH1 0x40 MSTORE DUP1 MLOAD SWAP1 PUSH1 0x20 ADD KECCAK256 SWAP1 POP SWAP3 SWAP2 POP POP JUMP JUMPDEST PUSH1 0x0 PUSH32 0x636865636B706F696E7400000000000000000000000000000000000000000000 PUSH1 0x0 SHL DUP5 DUP5 DUP5 PUSH1 0x40 MLOAD PUSH1 0x20 ADD PUSH2 0x4AA SWAP5 SWAP4 SWAP3 SWAP2 SWAP1 PUSH2 0x10AF JUMP JUMPDEST PUSH1 0x40 MLOAD PUSH1 0x20 DUP2 DUP4 SUB SUB DUP2 MSTORE SWAP1 PUSH1 0x40 MSTORE DUP1 MLOAD SWAP1 PUSH1 0x20 ADD KECCAK256 SWAP1 POP SWAP4 SWAP3 POP POP POP JUMP JUMPDEST PUSH1 0x0 DUP1 JUMPDEST DUP8 DUP8 SWAP1 POP DUP2 LT ISZERO PUSH2 0x624 JUMPI PUSH1 0x0 DUP1 SHL DUP7 DUP7 DUP4 DUP2 DUP2 LT PUSH2 0x4EF JUMPI PUSH2 0x4EE PUSH2 0x10F4 JUMP JUMPDEST JUMPDEST SWAP1 POP PUSH1 0x60 MUL ADD PUSH1 0x20 ADD CALLDATALOAD EQ DUP1 ISZERO PUSH2 0x524 JUMPI POP PUSH1 0x0 DUP1 SHL DUP7 DUP7 DUP4 DUP2 DUP2 LT PUSH2 0x518 JUMPI PUSH2 0x517 PUSH2 0x10F4 JUMP JUMPDEST JUMPDEST SWAP1 POP PUSH1 0x60 MUL ADD PUSH1 0x40 ADD CALLDATALOAD EQ JUMPDEST DUP1 ISZERO PUSH2 0x55D JUMPI POP PUSH1 0x0 DUP7 DUP7 DUP4 DUP2 DUP2 LT PUSH2 0x540 JUMPI PUSH2 0x53F PUSH2 0x10F4 JUMP JUMPDEST JUMPDEST SWAP1 POP PUSH1 0x60 MUL ADD PUSH1 0x0 ADD PUSH1 0x20 DUP2 ADD SWAP1 PUSH2 0x558 SWAP2 SWAP1 PUSH2 0x115C JUMP JUMPDEST PUSH1 0xFF AND EQ JUMPDEST PUSH2 0x617 JUMPI PUSH2 0x5AE DUP9 DUP9 DUP4 DUP2 DUP2 LT PUSH2 0x577 JUMPI PUSH2 0x576 PUSH2 0x10F4 JUMP JUMPDEST JUMPDEST SWAP1 POP PUSH1 0x40 MUL ADD PUSH1 0x0 ADD PUSH1 0x20 DUP2 ADD SWAP1 PUSH2 0x58F SWAP2 SWAP1 PUSH2 0x1189 JUMP JUMPDEST DUP6 DUP9 DUP9 DUP6 DUP2 DUP2 LT PUSH2 0x5A3 JUMPI PUSH2 0x5A2 PUSH2 0x10F4 JUMP JUMPDEST JUMPDEST SWAP1 POP PUSH1 0x60 MUL ADD PUSH2 0x724 JUMP JUMPDEST PUSH2 0x5E4 JUMPI PUSH1 0x40 MLOAD PUSH32 0x8BAA579F00000000000000000000000000000000000000000000000000000000 DUP2 MSTORE PUSH1 0x4 ADD PUSH1 0x40 MLOAD DUP1 SWAP2 SUB SWAP1 REVERT JUMPDEST DUP8 DUP8 DUP3 DUP2 DUP2 LT PUSH2 0x5F7 JUMPI PUSH2 0x5F6 PUSH2 0x10F4 JUMP JUMPDEST JUMPDEST SWAP1 POP PUSH1 0x40 MUL ADD PUSH1 0x20 ADD CALLDATALOAD DUP3 PUSH2 0x60C SWAP2 SWAP1 PUSH2 0x11B6 JUMP JUMPDEST SWAP2 POP DUP3 DUP3 LT ISZERO PUSH2 0x624 JUMPI JUMPDEST DUP1 DUP1 PUSH1 0x1 ADD SWAP2 POP POP PUSH2 0x4CD JUMP JUMPDEST POP DUP2 DUP2 LT ISZERO PUSH2 0x65F JUMPI PUSH1 0x40 MLOAD PUSH32 0xCABEB65500000000000000000000000000000000000000000000000000000000 DUP2 MSTORE PUSH1 0x4 ADD PUSH1 0x40 MLOAD DUP1 SWAP2 SUB SWAP1 REVERT JUMPDEST POP POP POP POP POP POP POP JUMP JUMPDEST PUSH1 0x0 PUSH32 0x74656C6C6F7243757272656E744174746573746174696F6E0000000000000000 PUSH1 0x0 SHL DUP3 PUSH1 0x0 ADD CALLDATALOAD DUP4 DUP1 PUSH1 0x20 ADD SWAP1 PUSH2 0x6A3 SWAP2 SWAP1 PUSH2 0x11F9 JUMP JUMPDEST DUP1 PUSH1 0x0 ADD SWAP1 PUSH2 0x6B2 SWAP2 SWAP1 PUSH2 0x1221 JUMP JUMPDEST DUP6 DUP1 PUSH1 0x20 ADD SWAP1 PUSH2 0x6C2 SWAP2 SWAP1 PUSH2 0x11F9 JUMP JUMPDEST PUSH1 0x20 ADD CALLDATALOAD DUP7 DUP1 PUSH1 0x20 ADD SWAP1 PUSH2 0x6D6 SWAP2 SWAP1 PUSH2 0x11F9 JUMP JUMPDEST PUSH1 0x40 ADD CALLDATALOAD DUP8 PUSH1 0x40 ADD CALLDATALOAD DUP9 PUSH1 0x60 ADD CALLDATALOAD DUP10 PUSH1 0x80 ADD CALLDATALOAD DUP11 PUSH1 0xA0 ADD CALLDATALOAD PUSH1 0x40 MLOAD PUSH1 0x20 ADD PUSH2 0x707 SWAP11 SWAP10 SWAP9 SWAP8 SWAP7 SWAP6 SWAP5 SWAP4 SWAP3 SWAP2 SWAP1 PUSH2 0x12E2 JUMP JUMPDEST PUSH1 0x40 MLOAD PUSH1 0x20 DUP2 DUP4 SUB SUB DUP2 MSTORE SWAP1 PUSH1 0x40 MSTORE DUP1 MLOAD SWAP1 PUSH1 0x20 ADD KECCAK256 SWAP1 POP SWAP2 SWAP1 POP JUMP JUMPDEST PUSH1 0x0 DUP1 PUSH2 0x730 DUP5 PUSH2 0x790 JUMP JUMPDEST SWAP1 POP PUSH2 0x758 DUP2 DUP5 PUSH1 0x0 ADD PUSH1 0x20 DUP2 ADD SWAP1 PUSH2 0x749 SWAP2 SWAP1 PUSH2 0x115C JUMP JUMPDEST DUP6 PUSH1 0x20 ADD CALLDATALOAD DUP7 PUSH1 0x40 ADD CALLDATALOAD PUSH2 0x7C6 JUMP JUMPDEST PUSH20 0xFFFFFFFFFFFFFFFFFFFFFFFFFFFFFFFFFFFFFFFF AND DUP6 PUSH20 0xFFFFFFFFFFFFFFFFFFFFFFFFFFFFFFFFFFFFFFFF AND EQ SWAP2 POP POP SWAP4 SWAP3 POP POP POP JUMP JUMPDEST PUSH1 0x0 PUSH32 0x19457468657265756D205369676E6564204D6573736167653A0A333200000000 PUSH1 0x0 MSTORE DUP2 PUSH1 0x1C MSTORE PUSH1 0x3C PUSH1 0x0 KECCAK256 SWAP1 POP SWAP2 SWAP1 POP JUMP JUMPDEST PUSH1 0x0 DUP1 PUSH1 0x0 DUP1 PUSH2 0x7D8 DUP9 DUP9 DUP9 DUP9 PUSH2 0x7F6 JUMP JUMPDEST SWAP3 POP SWAP3 POP SWAP3 POP PUSH2 0x7E8 DUP3 DUP3 PUSH2 0x8EA JUMP JUMPDEST DUP3 SWAP4 POP POP POP POP SWAP5 SWAP4 POP POP POP POP JUMP JUMPDEST PUSH1 0x0 DUP1 PUSH1 0x0 PUSH32 0x7FFFFFFFFFFFFFFFFFFFFFFFFFFFFFFF5D576E7357A4501DDFE92F46681B20A0 DUP5 PUSH1 0x0 SHR GT ISZERO PUSH2 0x836 JUMPI PUSH1 0x0 PUSH1 0x3 DUP6 SWAP3 POP SWAP3 POP SWAP3 POP PUSH2 0x8E0 JUMP JUMPDEST PUSH1 0x0 PUSH1 0x1 DUP9 DUP9 DUP9 DUP9 PUSH1 0x40 MLOAD PUSH1 0x0 DUP2 MSTORE PUSH1 0x20 ADD PUSH1 0x40 MSTORE PUSH1 0x40 MLOAD PUSH2 0x85B SWAP5 SWAP4 SWAP3 SWAP2 SWAP1 PUSH2 0x1387 JUMP JUMPDEST PUSH1 0x20 PUSH1 0x40 MLOAD PUSH1 0x20 DUP2 SUB SWAP1 DUP1 DUP5 SUB SWAP1 DUP6 GAS STATICCALL ISZERO DUP1 ISZERO PUSH2 0x87D JUMPI RETURNDATASIZE PUSH1 0x0 DUP1 RETURNDATACOPY RETURNDATASIZE PUSH1 0x0 REVERT JUMPDEST POP POP POP PUSH1 0x20 PUSH1 0x40 MLOAD SUB MLOAD SWAP1 POP PUSH1 0x0 PUSH20 0xFFFFFFFFFFFFFFFFFFFFFFFFFFFFFFFFFFFFFFFF AND DUP2 PUSH20 0xFFFFFFFFFFFFFFFFFFFFFFFFFFFFFFFFFFFFFFFF AND SUB PUSH2 0x8D1 JUMPI PUSH1 0x0 PUSH1 0x1 PUSH1 0x0 DUP1 SHL SWAP4 POP SWAP4 POP SWAP4 POP POP PUSH2 0x8E0 JUMP JUMPDEST DUP1 PUSH1 0x0 DUP1 PUSH1 0x0 SHL SWAP4 POP SWAP4 POP SWAP4 POP POP JUMPDEST SWAP5 POP SWAP5 POP SWAP5 SWAP2 POP POP JUMP JUMPDEST PUSH1 0x0 PUSH1 0x3 DUP2 GT ISZERO PUSH2 0x8FE JUMPI PUSH2 0x8FD PUSH2 0x13CC JUMP JUMPDEST JUMPDEST DUP3 PUSH1 0x3 DUP2 GT ISZERO PUSH2 0x911 JUMPI PUSH2 0x910 PUSH2 0x13CC JUMP JUMPDEST JUMPDEST SUB ISZERO PUSH2 0xA4A JUMPI PUSH1 0x1 PUSH1 0x3 DUP2 GT ISZERO PUSH2 0x92B JUMPI PUSH2 0x92A PUSH2 0x13CC JUMP JUMPDEST JUMPDEST DUP3 PUSH1 0x3 DUP2 GT ISZERO PUSH2 0x93E JUMPI PUSH2 0x93D PUSH2 0x13CC JUMP JUMPDEST JUMPDEST SUB PUSH2 0x975 JUMPI PUSH1 0x40 MLOAD PUSH32 0xF645EEDF00000000000000000000000000000000000000000000000000000000 DUP2 MSTORE PUSH1 0x4 ADD PUSH1 0x40 MLOAD DUP1 SWAP2 SUB SWAP1 REVERT JUMPDEST PUSH1 0x2 PUSH1 0x3 DUP2 GT ISZERO PUSH2 0x989 JUMPI PUSH2 0x988 PUSH2 0x13CC JUMP JUMPDEST JUMPDEST DUP3 PUSH1 0x3 DUP2 GT ISZERO PUSH2 0x99C JUMPI PUSH2 0x99B PUSH2 0x13CC JUMP JUMPDEST JUMPDEST SUB PUSH2 0x9E1 JUMPI DUP1 PUSH1 0x0 SHR PUSH1 0x40 MLOAD PUSH32 0xFCE698F700000000000000000000000000000000000000000000000000000000 DUP2 MSTORE PUSH1 0x4 ADD PUSH2 0x9D8 SWAP2 SWAP1 PUSH2 0xD2F JUMP JUMPDEST PUSH1 0x40 MLOAD DUP1 SWAP2 SUB SWAP1 REVERT JUMPDEST PUSH1 0x3 DUP1 DUP2 GT ISZERO PUSH2 0x9F4 JUMPI PUSH2 0x9F3 PUSH2 0x13CC JUMP JUMPDEST JUMPDEST DUP3 PUSH1 0x3 DUP2 GT ISZERO PUSH2 0xA07 JUMPI PUSH2 0xA06 PUSH2 0x13CC JUMP JUMPDEST JUMPDEST SUB PUSH2 0xA49 JUMPI DUP1 PUSH1 0x40 MLOAD PUSH32 0xD78BCE0C00000000000000000000000000000000000000000000000000000000 DUP2 MSTORE PUSH1 0x4 ADD PUSH2 0xA40 SWAP2 SWAP1 PUSH2 0xB63 JUMP JUMPDEST PUSH1 0x40 MLOAD DUP1 SWAP2 SUB SWAP1 REVERT JUMPDEST JUMPDEST POP POP JUMP JUMPDEST PUSH1 0x0 DUP1 REVERT JUMPDEST PUSH1 0x0 DUP1 REVERT JUMPDEST PUSH1 0x0 DUP2 SWAP1 POP SWAP2 SWAP1 POP JUMP JUMPDEST PUSH2 0xA6B DUP2 PUSH2 0xA58 JUMP JUMPDEST DUP2 EQ PUSH2 0xA76 JUMPI PUSH1 0x0 DUP1 REVERT JUMPDEST POP JUMP JUMPDEST PUSH1 0x0 DUP2 CALLDATALOAD SWAP1 POP PUSH2 0xA88 DUP2 PUSH2 0xA62 JUMP JUMPDEST SWAP3 SWAP2 POP POP JUMP JUMPDEST PUSH1 0x0 PUSH1 0x20 DUP3 DUP5 SUB SLT ISZERO PUSH2 0xAA4 JUMPI PUSH2 0xAA3 PUSH2 0xA4E JUMP JUMPDEST JUMPDEST PUSH1 0x0 PUSH2 0xAB2 DUP5 DUP3 DUP6 ADD PUSH2 0xA79 JUMP JUMPDEST SWAP2 POP POP SWAP3 SWAP2 POP POP JUMP JUMPDEST PUSH1 0x0 DUP2 ISZERO ISZERO SWAP1 POP SWAP2 SWAP1 POP JUMP JUMPDEST PUSH2 0xAD0 DUP2 PUSH2 0xABB JUMP JUMPDEST DUP3 MSTORE POP POP JUMP JUMPDEST PUSH1 0x0 PUSH1 0x20 DUP3 ADD SWAP1 POP PUSH2 0xAEB PUSH1 0x0 DUP4 ADD DUP5 PUSH2 0xAC7 JUMP JUMPDEST SWAP3 SWAP2 POP POP JUMP JUMPDEST PUSH1 0x0 DUP2 SWAP1 POP SWAP2 SWAP1 POP JUMP JUMPDEST PUSH2 0xB04 DUP2 PUSH2 0xAF1 JUMP JUMPDEST DUP2 EQ PUSH2 0xB0F JUMPI PUSH1 0x0 DUP1 REVERT JUMPDEST POP JUMP JUMPDEST PUSH1 0x0 DUP2 CALLDATALOAD SWAP1 POP PUSH2 0xB21 DUP2 PUSH2 0xAFB JUMP JUMPDEST SWAP3 SWAP2 POP POP JUMP JUMPDEST PUSH1 0x0 PUSH1 0x20 DUP3 DUP5 SUB SLT ISZERO PUSH2 0xB3D JUMPI PUSH2 0xB3C PUSH2 0xA4E JUMP JUMPDEST JUMPDEST PUSH1 0x0 PUSH2 0xB4B DUP5 DUP3 DUP6 ADD PUSH2 0xB12 JUMP JUMPDEST SWAP2 POP POP SWAP3 SWAP2 POP POP JUMP JUMPDEST PUSH2 0xB5D DUP2 PUSH2 0xA58 JUMP JUMPDEST DUP3 MSTORE POP POP JUMP JUMPDEST PUSH1 0x0 PUSH1 0x20 DUP3 ADD SWAP1 POP PUSH2 0xB78 PUSH1 0x0 DUP4 ADD DUP5 PUSH2 0xB54 JUMP JUMPDEST SWAP3 SWAP2 POP POP JUMP JUMPDEST PUSH1 0x0 PUSH8 0xFFFFFFFFFFFFFFFF DUP3 AND SWAP1 POP SWAP2 SWAP1 POP JUMP JUMPDEST PUSH2 0xB9B DUP2 PUSH2 0xB7E JUMP JUMPDEST DUP2 EQ PUSH2 0xBA6 JUMPI PUSH1 0x0 DUP1 REVERT JUMPDEST POP JUMP JUMPDEST PUSH1 0x0 DUP2 CALLDATALOAD SWAP1 POP PUSH2 0xBB8 DUP2 PUSH2 0xB92 JUMP JUMPDEST SWAP3 SWAP2 POP POP JUMP JUMPDEST PUSH1 0x0 DUP1 REVERT JUMPDEST PUSH1 0x0 DUP1 REVERT JUMPDEST PUSH1 0x0 DUP1 REVERT JUMPDEST PUSH1 0x0 DUP1 DUP4 PUSH1 0x1F DUP5 ADD SLT PUSH2 0xBE3 JUMPI PUSH2 0xBE2 PUSH2 0xBBE JUMP JUMPDEST JUMPDEST DUP3 CALLDATALOAD SWAP1 POP PUSH8 0xFFFFFFFFFFFFFFFF DUP2 GT ISZERO PUSH2 0xC00 JUMPI PUSH2 0xBFF PUSH2 0xBC3 JUMP JUMPDEST JUMPDEST PUSH1 0x20 DUP4 ADD SWAP2 POP DUP4 PUSH1 0x40 DUP3 MUL DUP4 ADD GT ISZERO PUSH2 0xC1C JUMPI PUSH2 0xC1B PUSH2 0xBC8 JUMP JUMPDEST JUMPDEST SWAP3 POP SWAP3 SWAP1 POP JUMP JUMPDEST PUSH1 0x0 DUP1 DUP4 PUSH1 0x1F DUP5 ADD SLT PUSH2 0xC39 JUMPI PUSH2 0xC38 PUSH2 0xBBE JUMP JUMPDEST JUMPDEST DUP3 CALLDATALOAD SWAP1 POP PUSH8 0xFFFFFFFFFFFFFFFF DUP2 GT ISZERO PUSH2 0xC56 JUMPI PUSH2 0xC55 PUSH2 0xBC3 JUMP JUMPDEST JUMPDEST PUSH1 0x20 DUP4 ADD SWAP2 POP DUP4 PUSH1 0x60 DUP3 MUL DUP4 ADD GT ISZERO PUSH2 0xC72 JUMPI PUSH2 0xC71 PUSH2 0xBC8 JUMP JUMPDEST JUMPDEST SWAP3 POP SWAP3 SWAP1 POP JUMP JUMPDEST PUSH1 0x0 DUP1 PUSH1 0x0 DUP1 PUSH1 0x0 DUP1 PUSH1 0x80 DUP8 DUP10 SUB SLT ISZERO PUSH2 0xC96 JUMPI PUSH2 0xC95 PUSH2 0xA4E JUMP JUMPDEST JUMPDEST PUSH1 0x0 PUSH2 0xCA4 DUP10 DUP3 DUP11 ADD PUSH2 0xA79 JUMP JUMPDEST SWAP7 POP POP PUSH1 0x20 PUSH2 0xCB5 DUP10 DUP3 DUP11 ADD PUSH2 0xBA9 JUMP JUMPDEST SWAP6 POP POP PUSH1 0x40 DUP8 ADD CALLDATALOAD PUSH8 0xFFFFFFFFFFFFFFFF DUP2 GT ISZERO PUSH2 0xCD6 JUMPI PUSH2 0xCD5 PUSH2 0xA53 JUMP JUMPDEST JUMPDEST PUSH2 0xCE2 DUP10 DUP3 DUP11 ADD PUSH2 0xBCD JUMP JUMPDEST SWAP5 POP SWAP5 POP POP PUSH1 0x60 DUP8 ADD CALLDATALOAD PUSH8 0xFFFFFFFFFFFFFFFF DUP2 GT ISZERO PUSH2 0xD05 JUMPI PUSH2 0xD04 PUSH2 0xA53 JUMP JUMPDEST JUMPDEST PUSH2 0xD11 DUP10 DUP3 DUP11 ADD PUSH2 0xC23 JUMP JUMPDEST SWAP3 POP SWAP3 POP POP SWAP3 SWAP6 POP SWAP3 SWAP6 POP SWAP3 SWAP6 JUMP JUMPDEST PUSH2 0xD29 DUP2 PUSH2 0xAF1 JUMP JUMPDEST DUP3 MSTORE POP POP JUMP JUMPDEST PUSH1 0x0 PUSH1 0x20 DUP3 ADD SWAP1 POP PUSH2 0xD44 PUSH1 0x0 DUP4 ADD DUP5 PUSH2 0xD20 JUMP JUMPDEST SWAP3 SWAP2 POP POP JUMP JUMPDEST PUSH1 0x0 DUP1 REVERT JUMPDEST PUSH1 0x0 PUSH1 0xC0 DUP3 DUP5 SUB SLT ISZERO PUSH2 0xD65 JUMPI PUSH2 0xD64 PUSH2 0xD4A JUMP JUMPDEST JUMPDEST DUP2 SWAP1 POP SWAP3 SWAP2 POP POP JUMP JUMPDEST PUSH1 0x0 DUP1 PUSH1 0x0 DUP1 PUSH1 0x0 PUSH1 0x60 DUP7 DUP9 SUB SLT ISZERO PUSH2 0xD8A JUMPI PUSH2 0xD89 PUSH2 0xA4E JUMP JUMPDEST JUMPDEST PUSH1 0x0 DUP7 ADD CALLDATALOAD PUSH8 0xFFFFFFFFFFFFFFFF DUP2 GT ISZERO PUSH2 0xDA8 JUMPI PUSH2 0xDA7 PUSH2 0xA53 JUMP JUMPDEST JUMPDEST PUSH2 0xDB4 DUP9 DUP3 DUP10 ADD PUSH2 0xD4F JUMP JUMPDEST SWAP6 POP POP PUSH1 0x20 DUP7 ADD CALLDATALOAD PUSH8 0xFFFFFFFFFFFFFFFF DUP2 GT ISZERO PUSH2 0xDD5 JUMPI PUSH2 0xDD4 PUSH2 0xA53 JUMP JUMPDEST JUMPDEST PUSH2 0xDE1 DUP9 DUP3 DUP10 ADD PUSH2 0xBCD JUMP JUMPDEST SWAP5 POP SWAP5 POP POP PUSH1 0x40 DUP7 ADD CALLDATALOAD PUSH8 0xFFFFFFFFFFFFFFFF DUP2 GT ISZERO PUSH2 0xE04 JUMPI PUSH2 0xE03 PUSH2 0xA53 JUMP JUMPDEST JUMPDEST PUSH2 0xE10 DUP9 DUP3 DUP10 ADD PUSH2 0xC23 JUMP JUMPDEST SWAP3 POP SWAP3 POP POP SWAP3 SWAP6 POP SWAP3 SWAP6 SWAP1 SWAP4 POP JUMP JUMPDEST PUSH32 0x4E487B7100000000000000000000000000000000000000000000000000000000 PUSH1 0x0 MSTORE PUSH1 0x11 PUSH1 0x4 MSTORE PUSH1 0x24 PUSH1 0x0 REVERT JUMPDEST PUSH1 0x0 PUSH2 0xE59 DUP3 PUSH2 0xAF1 JUMP JUMPDEST SWAP2 POP PUSH32 0xFFFFFFFFFFFFFFFFFFFFFFFFFFFFFFFFFFFFFFFFFFFFFFFFFFFFFFFFFFFFFFFF DUP3 SUB PUSH2 0xE8B JUMPI PUSH2 0xE8A PUSH2 0xE1F JUMP JUMPDEST JUMPDEST PUSH1 0x1 DUP3 ADD SWAP1 POP SWAP2 SWAP1 POP JUMP JUMPDEST PUSH1 0x0 DUP2 SWAP1 POP SWAP2 SWAP1 POP JUMP JUMPDEST PUSH1 0x0 PUSH2 0xEBB PUSH2 0xEB6 PUSH2 0xEB1 DUP5 PUSH2 0xB7E JUMP JUMPDEST PUSH2 0xE96 JUMP JUMPDEST PUSH2 0xAF1 JUMP JUMPDEST SWAP1 POP SWAP2 SWAP1 POP JUMP JUMPDEST PUSH2 0xECB DUP2 PUSH2 0xEA0 JUMP JUMPDEST DUP3 MSTORE POP POP JUMP JUMPDEST PUSH1 0x0 PUSH1 0x40 DUP3 ADD SWAP1 POP PUSH2 0xEE6 PUSH1 0x0 DUP4 ADD DUP6 PUSH2 0xEC2 JUMP JUMPDEST PUSH2 0xEF3 PUSH1 0x20 DUP4 ADD DUP5 PUSH2 0xB54 JUMP JUMPDEST SWAP4 SWAP3 POP POP POP JUMP JUMPDEST PUSH1 0x0 DUP3 DUP3 MSTORE PUSH1 0x20 DUP3 ADD SWAP1 POP SWAP3 SWAP2 POP POP JUMP JUMPDEST PUSH1 0x0 DUP2 SWAP1 POP SWAP2 SWAP1 POP JUMP JUMPDEST PUSH1 0x0 PUSH20 0xFFFFFFFFFFFFFFFFFFFFFFFFFFFFFFFFFFFFFFFF DUP3 AND SWAP1 POP SWAP2 SWAP1 POP JUMP JUMPDEST PUSH1 0x0 PUSH2 0xF40 DUP3 PUSH2 0xF15 JUMP JUMPDEST SWAP1 POP SWAP2 SWAP1 POP JUMP JUMPDEST PUSH2 0xF50 DUP2 PUSH2 0xF35 JUMP JUMPDEST DUP2 EQ PUSH2 0xF5B JUMPI PUSH1 0x0 DUP1 REVERT JUMPDEST POP JUMP JUMPDEST PUSH1 0x0 DUP2 CALLDATALOAD SWAP1 POP PUSH2 0xF6D DUP2 PUSH2 0xF47 JUMP JUMPDEST SWAP3 SWAP2 POP POP JUMP JUMPDEST PUSH1 0x0 PUSH2 0xF82 PUSH1 0x20 DUP5 ADD DUP5 PUSH2 0xF5E JUMP JUMPDEST SWAP1 POP SWAP3 SWAP2 POP POP JUMP JUMPDEST PUSH2 0xF93 DUP2 PUSH2 0xF35 JUMP JUMPDEST DUP3 MSTORE POP POP JUMP JUMPDEST PUSH1 0x0 PUSH2 0xFA8 PUSH1 0x20 DUP5 ADD DUP5 PUSH2 0xB12 JUMP JUMPDEST SWAP1 POP SWAP3 SWAP2 POP POP JUMP JUMPDEST PUSH2 0xFB9 DUP2 PUSH2 0xAF1 JUMP JUMPDEST DUP3 MSTORE POP POP JUMP JUMPDEST PUSH1 0x40 DUP3 ADD PUSH2 0xFD0 PUSH1 0x0 DUP4 ADD DUP4 PUSH2 0xF73 JUMP JUMPDEST PUSH2 0xFDD PUSH1 0x0 DUP6 ADD DUP3 PUSH2 0xF8A JUMP JUMPDEST POP PUSH2 0xFEB PUSH1 0x20 DUP4 ADD DUP4 PUSH2 0xF99 JUMP JUMPDEST PUSH2 0xFF8 PUSH1 0x20 DUP6 ADD DUP3 PUSH2 0xFB0 JUMP JUMPDEST POP POP POP POP JUMP JUMPDEST PUSH1 0x0 PUSH2 0x100A DUP4 DUP4 PUSH2 0xFBF JUMP JUMPDEST PUSH1 0x40 DUP4 ADD SWAP1 POP SWAP3 SWAP2 POP POP JUMP JUMPDEST PUSH1 0x0 DUP3 SWAP1 POP SWAP3 SWAP2 POP POP JUMP JUMPDEST PUSH1 0x0 PUSH1 0x40 DUP3 ADD SWAP1 POP SWAP2 SWAP1 POP JUMP JUMPDEST PUSH1 0x0 PUSH2 0x103A DUP4 DUP6 PUSH2 0xEFA JUMP JUMPDEST SWAP4 POP PUSH2 0x1045 DUP3 PUSH2 0xF0B JUMP JUMPDEST DUP1 PUSH1 0x0 JUMPDEST DUP6 DUP2 LT ISZERO PUSH2 0x107E JUMPI PUSH2 0x105B DUP3 DUP5 PUSH2 0x1016 JUMP JUMPDEST PUSH2 0x1065 DUP9 DUP3 PUSH2 0xFFE JUMP JUMPDEST SWAP8 POP PUSH2 0x1070 DUP4 PUSH2 0x1021 JUMP JUMPDEST SWAP3 POP POP PUSH1 0x1 DUP2 ADD SWAP1 POP PUSH2 0x1049 JUMP JUMPDEST POP DUP6 SWAP3 POP POP POP SWAP4 SWAP3 POP POP POP JUMP JUMPDEST PUSH1 0x0 PUSH1 0x20 DUP3 ADD SWAP1 POP DUP2 DUP2 SUB PUSH1 0x0 DUP4 ADD MSTORE PUSH2 0x10A6 DUP2 DUP5 DUP7 PUSH2 0x102E JUMP JUMPDEST SWAP1 POP SWAP4 SWAP3 POP POP POP JUMP JUMPDEST PUSH1 0x0 PUSH1 0x80 DUP3 ADD SWAP1 POP PUSH2 0x10C4 PUSH1 0x0 DUP4 ADD DUP8 PUSH2 0xB54 JUMP JUMPDEST PUSH2 0x10D1 PUSH1 0x20 DUP4 ADD DUP7 PUSH2 0xD20 JUMP JUMPDEST PUSH2 0x10DE PUSH1 0x40 DUP4 ADD DUP6 PUSH2 0xD20 JUMP JUMPDEST PUSH2 0x10EB PUSH1 0x60 DUP4 ADD DUP5 PUSH2 0xB54 JUMP JUMPDEST SWAP6 SWAP5 POP POP POP POP POP JUMP JUMPDEST PUSH32 0x4E487B7100000000000000000000000000000000000000000000000000000000 PUSH1 0x0 MSTORE PUSH1 0x32 PUSH1 0x4 MSTORE PUSH1 0x24 PUSH1 0x0 REVERT JUMPDEST PUSH1 0x0 PUSH1 0xFF DUP3 AND SWAP1 POP SWAP2 SWAP1 POP JUMP JUMPDEST PUSH2 0x1139 DUP2 PUSH2 0x1123 JUMP JUMPDEST DUP2 EQ PUSH2 0x1144 JUMPI PUSH1 0x0 DUP1 REVERT JUMPDEST POP JUMP JUMPDEST PUSH1 0x0 DUP2 CALLDATALOAD SWAP1 POP PUSH2 0x1156 DUP2 PUSH2 0x1130 JUMP JUMPDEST SWAP3 SWAP2 POP POP JUMP JUMPDEST PUSH1 0x0 PUSH1 0x20 DUP3 DUP5 SUB SLT ISZERO PUSH2 0x1172 JUMPI PUSH2 0x1171 PUSH2 0xA4E JUMP JUMPDEST JUMPDEST PUSH1 0x0 PUSH2 0x1180 DUP5 DUP3 DUP6 ADD PUSH2 0x1147 JUMP JUMPDEST SWAP2 POP POP SWAP3 SWAP2 POP POP JUMP JUMPDEST PUSH1 0x0 PUSH1 0x20 DUP3 DUP5 SUB SLT ISZERO PUSH2 0x119F JUMPI PUSH2 0x119E PUSH2 0xA4E JUMP JUMPDEST JUMPDEST PUSH1 0x0 PUSH2 0x11AD DUP5 DUP3 DUP6 ADD PUSH2 0xF5E JUMP JUMPDEST SWAP2 POP POP SWAP3 SWAP2 POP POP JUMP JUMPDEST PUSH1 0x0 PUSH2 0x11C1 DUP3 PUSH2 0xAF1 JUMP JUMPDEST SWAP2 POP PUSH2 0x11CC DUP4 PUSH2 0xAF1 JUMP JUMPDEST SWAP3 POP DUP3 DUP3 ADD SWAP1 POP DUP1 DUP3 GT ISZERO PUSH2 0x11E4 JUMPI PUSH2 0x11E3 PUSH2 0xE1F JUMP JUMPDEST JUMPDEST SWAP3 SWAP2 POP POP JUMP JUMPDEST PUSH1 0x0 DUP1 REVERT JUMPDEST PUSH1 0x0 DUP1 REVERT JUMPDEST PUSH1 0x0 DUP1 REVERT JUMPDEST PUSH1 0x0 DUP3 CALLDATALOAD PUSH1 0x1 PUSH1 0x60 SUB DUP4 CALLDATASIZE SUB SUB DUP2 SLT PUSH2 0x1215 JUMPI PUSH2 0x1214 PUSH2 0x11EA JUMP JUMPDEST JUMPDEST DUP1 DUP4 ADD SWAP2 POP POP SWAP3 SWAP2 POP POP JUMP JUMPDEST PUSH1 0x0 DUP1 DUP4 CALLDATALOAD PUSH1 0x1 PUSH1 0x20 SUB DUP5 CALLDATASIZE SUB SUB DUP2 SLT PUSH2 0x123E JUMPI PUSH2 0x123D PUSH2 0x11EA JUMP JUMPDEST JUMPDEST DUP1 DUP5 ADD SWAP3 POP DUP3 CALLDATALOAD SWAP2 POP PUSH8 0xFFFFFFFFFFFFFFFF DUP3 GT ISZERO PUSH2 0x1260 JUMPI PUSH2 0x125F PUSH2 0x11EF JUMP JUMPDEST JUMPDEST PUSH1 0x20 DUP4 ADD SWAP3 POP PUSH1 0x1 DUP3 MUL CALLDATASIZE SUB DUP4 SGT ISZERO PUSH2 0x127C JUMPI PUSH2 0x127B PUSH2 0x11F4 JUMP JUMPDEST JUMPDEST POP SWAP3 POP SWAP3 SWAP1 POP JUMP JUMPDEST PUSH1 0x0 DUP3 DUP3 MSTORE PUSH1 0x20 DUP3 ADD SWAP1 POP SWAP3 SWAP2 POP POP JUMP JUMPDEST DUP3 DUP2 DUP4 CALLDATACOPY PUSH1 0x0 DUP4 DUP4 ADD MSTORE POP POP POP JUMP JUMPDEST PUSH1 0x0 PUSH1 0x1F NOT PUSH1 0x1F DUP4 ADD AND SWAP1 POP SWAP2 SWAP1 POP JUMP JUMPDEST PUSH1 0x0 PUSH2 0x12C1 DUP4 DUP6 PUSH2 0x1284 JUMP JUMPDEST SWAP4 POP PUSH2 0x12CE DUP4 DUP6 DUP5 PUSH2 0x1295 JUMP JUMPDEST PUSH2 0x12D7 DUP4 PUSH2 0x12A4 JUMP JUMPDEST DUP5 ADD SWAP1 POP SWAP4 SWAP3 POP POP POP JUMP JUMPDEST PUSH1 0x0 PUSH2 0x120 DUP3 ADD SWAP1 POP PUSH2 0x12F8 PUSH1 0x0 DUP4 ADD DUP14 PUSH2 0xB54 JUMP JUMPDEST PUSH2 0x1305 PUSH1 0x20 DUP4 ADD DUP13 PUSH2 0xB54 JUMP JUMPDEST DUP2 DUP2 SUB PUSH1 0x40 DUP4 ADD MSTORE PUSH2 0x1318 DUP2 DUP11 DUP13 PUSH2 0x12B5 JUMP JUMPDEST SWAP1 POP PUSH2 0x1327 PUSH1 0x60 DUP4 ADD DUP10 PUSH2 0xD20 JUMP JUMPDEST PUSH2 0x1334 PUSH1 0x80 DUP4 ADD DUP9 PUSH2 0xD20 JUMP JUMPDEST PUSH2 0x1341 PUSH1 0xA0 DUP4 ADD DUP8 PUSH2 0xD20 JUMP JUMPDEST PUSH2 0x134E PUSH1 0xC0 DUP4 ADD DUP7 PUSH2 0xD20 JUMP JUMPDEST PUSH2 0x135B PUSH1 0xE0 DUP4 ADD DUP6 PUSH2 0xB54 JUMP JUMPDEST PUSH2 0x1369 PUSH2 0x100 DUP4 ADD DUP5 PUSH2 0xD20 JUMP JUMPDEST SWAP12 SWAP11 POP POP POP POP POP POP POP POP POP POP POP JUMP JUMPDEST PUSH2 0x1381 DUP2 PUSH2 0x1123 JUMP JUMPDEST DUP3 MSTORE POP POP JUMP JUMPDEST PUSH1 0x0 PUSH1 0x80 DUP3 ADD SWAP1 POP PUSH2 0x139C PUSH1 0x0 DUP4 ADD DUP8 PUSH2 0xB54 JUMP JUMPDEST PUSH2 0x13A9 PUSH1 0x20 DUP4 ADD DUP7 PUSH2 0x1378 JUMP JUMPDEST PUSH2 0x13B6 PUSH1 0x40 DUP4 ADD DUP6 PUSH2 0xB54 JUMP JUMPDEST PUSH2 0x13C3 PUSH1 0x60 DUP4 ADD DUP5 PUSH2 0xB54 JUMP JUMPDEST SWAP6 SWAP5 POP POP POP POP POP JUMP JUMPDEST PUSH32 0x4E487B7100000000000000000000000000000000000000000000000000000000 PUSH1 0x0 MSTORE PUSH1 0x21 PUSH1 0x4 MSTORE PUSH1 0x24 PUSH1 0x0 REVERT INVALID LOG2 PUSH5 0x6970667358 0x22 SLT KECCAK256 SWAP8 DUP7 SSTORE LOG4 SWAP14 SELFBALANCE PUSH19 0x924E6D65AF61CFD60797C9D5A5C8097CE0A199 0xE2 0xC4 JUMP 0xBC ISZERO 0xE6 PUSH5 0x736F6C6343 STOP ADDMOD AND STOP CALLER "},"methodIdentifiers":{"currentRelayedBlockHeight()":"d8256ec7","isOracleRoot(bytes32)":"31b53e52","lastValidatorSetCheckpoint()":"af082a7d","oracleRoots(uint256)":"91f6b44b","powerThreshold()":"ba95ec27","updateValidatorSet(bytes32,uint64,(address,uint256)[],(uint8,bytes32,bytes32)[])":"93319d6e","validatorNonce()":"e17a684f","verifyOracleData((bytes32,(bytes,uint256,uint256),uint256,uint256,bytes32,uint256),(address,uint256)[],(uint8,bytes32,bytes32)[])":"cb908d52"}}}}}