{"contracts/transition/TellorLayerTransition.sol":{"TellorLayerTransition":{"abi":[{"inputs":[{"internalType":"address","name":"_token","type":"address"},{"internalType":"address","name":"_tokenBridge","type":"address"},{"internalType":"address","name":"_dataBridge","type":"address"}],"stateMutability":"nonpayable","type":"constructor"},{"inputs":[{"internalType":"uint256","name":"_amount","type":"uint256"}],"name":"addStakingRewards","outputs":[],"stateMutability":"nonpayable","type":"function"},{"inputs":[],"name":"dataBridge","outputs":[{"internalType":"address","name":"","type":"address"}],"stateMutability":"view","type":"function"},{"inputs":[{"internalType":"bytes32","name":"_queryId","type":"bytes32"},{"internalType":"uint256","name":"_timestamp","type":"uint256"}],"name":"getDataBefore","outputs":[{"internalType":"bool","name":"_ifRetrieve","type":"bool"},{"internalType":"bytes","name":"_value","type":"bytes"},{"internalType":"uint256","name":"_timestampRetrieved","type":"uint256"}],"stateMutability":"view","type":"function"},{"inputs":[{"internalType":"bytes32","name":"_queryId","type":"bytes32"},{"internalType":"uint256","name":"_timestamp","type":"uint256"}],"name":"getIndexForDataBefore","outputs":[{"internalType":"bool","name":"_found","type":"bool"},{"internalType":"uint256","name":"_index","type":"uint256"}],"stateMutability":"view","type":"function"},{"inputs":[{"internalType":"bytes32","name":"_queryId","type":"bytes32"}],"name":"getNewValueCountbyQueryId","outputs":[{"internalType":"uint256","name":"","type":"uint256"}],"stateMutability":"view","type":"function"},{"inputs":[{"internalType":"bytes32","name":"_queryId","type":"bytes32"},{"internalType":"uint256","name":"_timestamp","type":"uint256"}],"name":"getReporterByTimestamp","outputs":[{"internalType":"address","name":"","type":"address"}],"stateMutability":"view","type":"function"},{"inputs":[{"internalType":"bytes32","name":"_queryId","type":"bytes32"},{"internalType":"uint256","name":"_index","type":"uint256"}],"name":"getTimestampbyQueryIdandIndex","outputs":[{"internalType":"uint256","name":"","type":"uint256"}],"stateMutability":"view","type":"function"},{"inputs":[{"internalType":"bytes32","name":"","type":"bytes32"},{"internalType":"uint256","name":"","type":"uint256"}],"name":"isDisputed","outputs":[{"internalType":"bool","name":"","type":"bool"}],"stateMutability":"view","type":"function"},{"inputs":[{"internalType":"bytes32","name":"_queryId","type":"bytes32"},{"internalType":"uint256","name":"_timestamp","type":"uint256"}],"name":"isInDispute","outputs":[{"internalType":"bool","name":"","type":"bool"}],"stateMutability":"view","type":"function"},{"inputs":[{"internalType":"bytes32","name":"","type":"bytes32"},{"internalType":"uint256","name":"","type":"uint256"}],"name":"reporterByTimestamp","outputs":[{"internalType":"address","name":"","type":"address"}],"stateMutability":"view","type":"function"},{"inputs":[{"internalType":"bytes32","name":"_queryId","type":"bytes32"},{"internalType":"uint256","name":"_timestamp","type":"uint256"}],"name":"retrieveData","outputs":[{"internalType":"bytes","name":"","type":"bytes"}],"stateMutability":"view","type":"function"},{"inputs":[{"internalType":"bytes32","name":"","type":"bytes32"},{"internalType":"uint256","name":"","type":"uint256"}],"name":"timestamps","outputs":[{"internalType":"uint256","name":"","type":"uint256"}],"stateMutability":"view","type":"function"},{"inputs":[],"name":"token","outputs":[{"internalType":"contract IERC20","name":"","type":"address"}],"stateMutability":"view","type":"function"},{"inputs":[],"name":"tokenBridge","outputs":[{"internalType":"address","name":"","type":"address"}],"stateMutability":"view","type":"function"},{"inputs":[],"name":"transferToTokenBridge","outputs":[],"stateMutability":"nonpayable","type":"function"},{"inputs":[{"internalType":"bytes32","name":"","type":"bytes32"},{"internalType":"uint256","name":"","type":"uint256"}],"name":"values","outputs":[{"internalType":"bytes","name":"","type":"bytes"}],"stateMutability":"view","type":"function"},{"inputs":[],"name":"verify","outputs":[{"internalType":"uint256","name":"","type":"uint256"}],"stateMutability":"pure","type":"function"},{"inputs":[{"internalType":"uint256","name":"_blockHeight","type":"uint256"},{"components":[{"internalType":"string","name":"clientID","type":"string"},{"internalType":"uint64","name":"oracleScriptID","type":"uint64"},{"internalType":"bytes","name":"params","type":"bytes"},{"internalType":"uint64","name":"askCount","type":"uint64"},{"internalType":"uint64","name":"minCount","type":"uint64"},{"internalType":"uint64","name":"requestID","type":"uint64"},{"internalType":"uint64","name":"ansCount","type":"uint64"},{"internalType":"uint64","name":"requestTime","type":"uint64"},{"internalType":"uint64","name":"resolveTime","type":"uint64"},{"internalType":"enum LayerLightClientBridge.ResolveStatus","name":"resolveStatus","type":"uint8"},{"internalType":"bytes","name":"result","type":"bytes"}],"internalType":"struct LayerLightClientBridge.Report","name":"_report","type":"tuple"},{"internalType":"uint256","name":"_oracleHeight","type":"uint256"},{"components":[{"internalType":"bool","name":"isDataOnRight","type":"bool"},{"internalType":"uint8","name":"subtreeHeight","type":"uint8"},{"internalType":"uint256","name":"subtreeSize","type":"uint256"},{"internalType":"uint256","name":"subtreeVersion","type":"uint256"},{"internalType":"bytes32","name":"siblingHash","type":"bytes32"}],"internalType":"struct LayerLightClientBridge.IAVLMerklePath[]","name":"_merklePaths","type":"tuple[]"}],"name":"verifyAndStore","outputs":[],"stateMutability":"nonpayable","type":"function"}],"evm":{"bytecode":{"linkReferences":{},"object":"608060405234801561001057600080fd5b50604051610e52380380610e5283398101604081905261002f9161008d565b600080546001600160a01b039485166001600160a01b0319918216179091556001805493851693821693909317909255600280549190931691161790556100cf565b80516001600160a01b038116811461008857600080fd5b919050565b6000806000606084860312156100a1578283fd5b6100aa84610071565b92506100b860208501610071565b91506100c660408501610071565b90509250925092565b610d74806100de6000396000f3fe608060405234801561001057600080fd5b50600436106101165760003560e01c8063b64ed20f116100a2578063d9c51cd411610071578063d9c51cd4146102c6578063e07c5486146102d9578063f25133f31461030d578063fc0c546a14610320578063fc735e991461033357610116565b8063b64ed20f14610278578063c5958af91461028d578063c6328a46146102a0578063ce5e11bf146102b357610116565b80634947ec84116100e95780634947ec84146101dd578063578855b2146101e757806364473df2146101fa57806377b03e0d14610228578063a792765f1461025657610116565b8063091b50ff1461011b578063217053c014610144578063294490851461019057806344e87f91146101ba575b600080fd5b61012e610129366004610b18565b61033b565b60405161013b9190610c74565b60405180910390f35b610178610152366004610b18565b60046020908152600092835260408084209091529082529020546001600160a01b031681565b6040516001600160a01b03909116815260200161013b565b6101a361019e366004610b18565b6103e0565b60408051921515835260208301919091520161013b565b6101cd6101c8366004610b18565b61067b565b604051901515815260200161013b565b6101e561069f565b005b600254610178906001600160a01b031681565b6101cd610208366004610b18565b600360209081526000928352604080842090915290825290205460ff1681565b610248610236366004610b00565b60009081526005602052604090205490565b60405190815260200161013b565b610269610264366004610b18565b610802565b60405161013b93929190610c49565b6101e5610286366004610b51565b5050505050565b61012e61029b366004610b18565b6108ff565b600154610178906001600160a01b031681565b6102486102c1366004610b18565b6109ad565b6101e56102d4366004610b00565b610a1a565b6101786102e7366004610b18565b60009182526004602090815260408084209284529190529020546001600160a01b031690565b61024861031b366004610b18565b610aa8565b600054610178906001600160a01b031681565b61270f610248565b60066020908152600092835260408084209091529082529020805461035f90610ced565b80601f016020809104026020016040519081016040528092919081815260200182805461038b90610ced565b80156103d85780601f106103ad576101008083540402835291602001916103d8565b820191906000526020600020905b8154815290600101906020018083116103bb57829003601f168201915b505050505081565b6000828152600560205260408120548190801561066b5760008080610406600185610cbf565b9050600061041489846109ad565b905087811061042e57600080965096505050505050610674565b61043889836109ad565b9050878110156104b5575b61044d898261067b565b80156104595750600082115b1561047c578161046881610cd6565b92505061047589836109ad565b9050610443565b8115801561048f575061048f898261067b565b156104a557600080965096505050505050610674565b5060019550935061067492505050565b8260026104c28285610cbf565b6104cc9190610c9f565b6104d7906001610c87565b6104e19190610c87565b93506104ed89856109ad565b9050878110156105b95760006105088a6102c1876001610c87565b90508881106105a65761051b8a8361067b565b6105315760018597509750505050505050610674565b61053b8a8361067b565b80156105475750600085115b1561056a578461055681610cd6565b9550506105638a866109ad565b9150610531565b8415801561057d575061057d8a8361067b565b156105945760008097509750505050505050610674565b60018597509750505050505050610674565b6105b1856001610c87565b935050610666565b60006105ca8a6102c1600188610cbf565b905088811015610657576105de8a8261067b565b6105fd5760016105ee8187610cbf565b97509750505050505050610674565b8461060781610cd6565b9550505b6106158a8261067b565b80156106215750600085115b15610644578461063081610cd6565b95505061063d8a866109ad565b905061060b565b8415801561057d575061057d8a8261067b565b610662600186610cbf565b9250505b6104b5565b60008092509250505b9250929050565b600082815260036020908152604080832084845290915290205460ff165b92915050565b600080546040805163b67f8cbd60e01b815290516001600160a01b039092169263b67f8cbd9260048084019382900301818387803b1580156106e057600080fd5b505af11580156106f4573d6000803e3d6000fd5b50506000546001546040516370a0823160e01b81523060048201526001600160a01b03928316945063a9059cbb935091169083906370a082319060240160206040518083038186803b15801561074957600080fd5b505afa15801561075d573d6000803e3d6000fd5b505050506040513d601f19601f820116820180604052508101906107819190610b39565b6040516001600160e01b031960e085901b1681526001600160a01b0390921660048301526024820152604401602060405180830381600087803b1580156107c757600080fd5b505af11580156107db573d6000803e3d6000fd5b505050506040513d601f19601f820116820180604052508101906107ff9190610ad9565b50565b60006060600080600061081587876103e0565b915091508161083f57600060405180602001604052806000815250600094509450945050506108f8565b61084987826109ad565b6000888152600660209081526040808320848452909152902080549194509061087190610ced565b80601f016020809104026020016040519081016040528092919081815260200182805461089d90610ced565b80156108ea5780601f106108bf576101008083540402835291602001916108ea565b820191906000526020600020905b8154815290600101906020018083116108cd57829003601f168201915b505050505093506001945050505b9250925092565b6000828152600660209081526040808320848452909152902080546060919061092790610ced565b80601f016020809104026020016040519081016040528092919081815260200182805461095390610ced565b80156109a05780601f10610975576101008083540402835291602001916109a0565b820191906000526020600020905b81548152906001019060200180831161098357829003601f168201915b5050505050905092915050565b6000828152600560205260408120548015806109c95750828111155b156109d8576000915050610699565b6000848152600560205260409020805484908110610a0657634e487b7160e01b600052603260045260246000fd5b906000526020600020015491505092915050565b6000546040516323b872dd60e01b8152336004820152306024820152604481018390526001600160a01b03909116906323b872dd90606401602060405180830381600087803b158015610a6c57600080fd5b505af1158015610a80573d6000803e3d6000fd5b505050506040513d601f19601f82011682018060405250810190610aa49190610ad9565b5050565b60056020528160005260406000208181548110610ac457600080fd5b90600052602060002001600091509150505481565b600060208284031215610aea578081fd5b81518015158114610af9578182fd5b9392505050565b600060208284031215610b11578081fd5b5035919050565b60008060408385031215610b2a578081fd5b50508035926020909101359150565b600060208284031215610b4a578081fd5b5051919050565b600080600080600060808688031215610b68578081fd5b85359450602086013567ffffffffffffffff80821115610b86578283fd5b90870190610160828a031215610b9a578283fd5b9094506040870135935060608701359080821115610bb6578283fd5b818801915088601f830112610bc9578283fd5b813581811115610bd7578384fd5b89602060a083028501011115610beb578384fd5b9699959850939650602001949392505050565b60008151808452815b81811015610c2357602081850181015186830182015201610c07565b81811115610c345782602083870101525b50601f01601f19169290920160200192915050565b6000841515825260606020830152610c646060830185610bfe565b9050826040830152949350505050565b600060208252610af96020830184610bfe565b60008219821115610c9a57610c9a610d28565b500190565b600082610cba57634e487b7160e01b81526012600452602481fd5b500490565b600082821015610cd157610cd1610d28565b500390565b600081610ce557610ce5610d28565b506000190190565b600181811c90821680610d0157607f821691505b60208210811415610d2257634e487b7160e01b600052602260045260246000fd5b50919050565b634e487b7160e01b600052601160045260246000fdfea26469706673582212205b4368151ceac8f1b95d20c40dc5a6646bd83c9dd6e2b0f081402ad4de44453264736f6c63430008030033","opcodes":"PUSH1 0x80 PUSH1 0x40 MSTORE CALLVALUE DUP1 ISZERO PUSH2 0x10 JUMPI PUSH1 0x0 DUP1 REVERT JUMPDEST POP PUSH1 0x40 MLOAD PUSH2 0xE52 CODESIZE SUB DUP1 PUSH2 0xE52 DUP4 CODECOPY DUP2 ADD PUSH1 0x40 DUP2 SWAP1 MSTORE PUSH2 0x2F SWAP2 PUSH2 0x8D JUMP JUMPDEST PUSH1 0x0 DUP1 SLOAD PUSH1 0x1 PUSH1 0x1 PUSH1 0xA0 SHL SUB SWAP5 DUP6 AND PUSH1 0x1 PUSH1 0x1 PUSH1 0xA0 SHL SUB NOT SWAP2 DUP3 AND OR SWAP1 SWAP2 SSTORE PUSH1 0x1 DUP1 SLOAD SWAP4 DUP6 AND SWAP4 DUP3 AND SWAP4 SWAP1 SWAP4 OR SWAP1 SWAP3 SSTORE PUSH1 0x2 DUP1 SLOAD SWAP2 SWAP1 SWAP4 AND SWAP2 AND OR SWAP1 SSTORE PUSH2 0xCF JUMP JUMPDEST DUP1 MLOAD PUSH1 0x1 PUSH1 0x1 PUSH1 0xA0 SHL SUB DUP2 AND DUP2 EQ PUSH2 0x88 JUMPI PUSH1 0x0 DUP1 REVERT JUMPDEST SWAP2 SWAP1 POP JUMP JUMPDEST PUSH1 0x0 DUP1 PUSH1 0x0 PUSH1 0x60 DUP5 DUP7 SUB SLT ISZERO PUSH2 0xA1 JUMPI DUP3 DUP4 REVERT JUMPDEST PUSH2 0xAA DUP5 PUSH2 0x71 JUMP JUMPDEST SWAP3 POP PUSH2 0xB8 PUSH1 0x20 DUP6 ADD PUSH2 0x71 JUMP JUMPDEST SWAP2 POP PUSH2 0xC6 PUSH1 0x40 DUP6 ADD PUSH2 0x71 JUMP JUMPDEST SWAP1 POP SWAP3 POP SWAP3 POP SWAP3 JUMP JUMPDEST PUSH2 0xD74 DUP1 PUSH2 0xDE PUSH1 0x0 CODECOPY PUSH1 0x0 RETURN INVALID PUSH1 0x80 PUSH1 0x40 MSTORE CALLVALUE DUP1 ISZERO PUSH2 0x10 JUMPI PUSH1 0x0 DUP1 REVERT JUMPDEST POP PUSH1 0x4 CALLDATASIZE LT PUSH2 0x116 JUMPI PUSH1 0x0 CALLDATALOAD PUSH1 0xE0 SHR DUP1 PUSH4 0xB64ED20F GT PUSH2 0xA2 JUMPI DUP1 PUSH4 0xD9C51CD4 GT PUSH2 0x71 JUMPI DUP1 PUSH4 0xD9C51CD4 EQ PUSH2 0x2C6 JUMPI DUP1 PUSH4 0xE07C5486 EQ PUSH2 0x2D9 JUMPI DUP1 PUSH4 0xF25133F3 EQ PUSH2 0x30D JUMPI DUP1 PUSH4 0xFC0C546A EQ PUSH2 0x320 JUMPI DUP1 PUSH4 0xFC735E99 EQ PUSH2 0x333 JUMPI PUSH2 0x116 JUMP JUMPDEST DUP1 PUSH4 0xB64ED20F EQ PUSH2 0x278 JUMPI DUP1 PUSH4 0xC5958AF9 EQ PUSH2 0x28D JUMPI DUP1 PUSH4 0xC6328A46 EQ PUSH2 0x2A0 JUMPI DUP1 PUSH4 0xCE5E11BF EQ PUSH2 0x2B3 JUMPI PUSH2 0x116 JUMP JUMPDEST DUP1 PUSH4 0x4947EC84 GT PUSH2 0xE9 JUMPI DUP1 PUSH4 0x4947EC84 EQ PUSH2 0x1DD JUMPI DUP1 PUSH4 0x578855B2 EQ PUSH2 0x1E7 JUMPI DUP1 PUSH4 0x64473DF2 EQ PUSH2 0x1FA JUMPI DUP1 PUSH4 0x77B03E0D EQ PUSH2 0x228 JUMPI DUP1 PUSH4 0xA792765F EQ PUSH2 0x256 JUMPI PUSH2 0x116 JUMP JUMPDEST DUP1 PUSH4 0x91B50FF EQ PUSH2 0x11B JUMPI DUP1 PUSH4 0x217053C0 EQ PUSH2 0x144 JUMPI DUP1 PUSH4 0x29449085 EQ PUSH2 0x190 JUMPI DUP1 PUSH4 0x44E87F91 EQ PUSH2 0x1BA JUMPI JUMPDEST PUSH1 0x0 DUP1 REVERT JUMPDEST PUSH2 0x12E PUSH2 0x129 CALLDATASIZE PUSH1 0x4 PUSH2 0xB18 JUMP JUMPDEST PUSH2 0x33B JUMP JUMPDEST PUSH1 0x40 MLOAD PUSH2 0x13B SWAP2 SWAP1 PUSH2 0xC74 JUMP JUMPDEST PUSH1 0x40 MLOAD DUP1 SWAP2 SUB SWAP1 RETURN JUMPDEST PUSH2 0x178 PUSH2 0x152 CALLDATASIZE PUSH1 0x4 PUSH2 0xB18 JUMP JUMPDEST PUSH1 0x4 PUSH1 0x20 SWAP1 DUP2 MSTORE PUSH1 0x0 SWAP3 DUP4 MSTORE PUSH1 0x40 DUP1 DUP5 KECCAK256 SWAP1 SWAP2 MSTORE SWAP1 DUP3 MSTORE SWAP1 KECCAK256 SLOAD PUSH1 0x1 PUSH1 0x1 PUSH1 0xA0 SHL SUB AND DUP2 JUMP JUMPDEST PUSH1 0x40 MLOAD PUSH1 0x1 PUSH1 0x1 PUSH1 0xA0 SHL SUB SWAP1 SWAP2 AND DUP2 MSTORE PUSH1 0x20 ADD PUSH2 0x13B JUMP JUMPDEST PUSH2 0x1A3 PUSH2 0x19E CALLDATASIZE PUSH1 0x4 PUSH2 0xB18 JUMP JUMPDEST PUSH2 0x3E0 JUMP JUMPDEST PUSH1 0x40 DUP1 MLOAD SWAP3 ISZERO ISZERO DUP4 MSTORE PUSH1 0x20 DUP4 ADD SWAP2 SWAP1 SWAP2 MSTORE ADD PUSH2 0x13B JUMP JUMPDEST PUSH2 0x1CD PUSH2 0x1C8 CALLDATASIZE PUSH1 0x4 PUSH2 0xB18 JUMP JUMPDEST PUSH2 0x67B JUMP JUMPDEST PUSH1 0x40 MLOAD SWAP1 ISZERO ISZERO DUP2 MSTORE PUSH1 0x20 ADD PUSH2 0x13B JUMP JUMPDEST PUSH2 0x1E5 PUSH2 0x69F JUMP JUMPDEST STOP JUMPDEST PUSH1 0x2 SLOAD PUSH2 0x178 SWAP1 PUSH1 0x1 PUSH1 0x1 PUSH1 0xA0 SHL SUB AND DUP2 JUMP JUMPDEST PUSH2 0x1CD PUSH2 0x208 CALLDATASIZE PUSH1 0x4 PUSH2 0xB18 JUMP JUMPDEST PUSH1 0x3 PUSH1 0x20 SWAP1 DUP2 MSTORE PUSH1 0x0 SWAP3 DUP4 MSTORE PUSH1 0x40 DUP1 DUP5 KECCAK256 SWAP1 SWAP2 MSTORE SWAP1 DUP3 MSTORE SWAP1 KECCAK256 SLOAD PUSH1 0xFF AND DUP2 JUMP JUMPDEST PUSH2 0x248 PUSH2 0x236 CALLDATASIZE PUSH1 0x4 PUSH2 0xB00 JUMP JUMPDEST PUSH1 0x0 SWAP1 DUP2 MSTORE PUSH1 0x5 PUSH1 0x20 MSTORE PUSH1 0x40 SWAP1 KECCAK256 SLOAD SWAP1 JUMP JUMPDEST PUSH1 0x40 MLOAD SWAP1 DUP2 MSTORE PUSH1 0x20 ADD PUSH2 0x13B JUMP JUMPDEST PUSH2 0x269 PUSH2 0x264 CALLDATASIZE PUSH1 0x4 PUSH2 0xB18 JUMP JUMPDEST PUSH2 0x802 JUMP JUMPDEST PUSH1 0x40 MLOAD PUSH2 0x13B SWAP4 SWAP3 SWAP2 SWAP1 PUSH2 0xC49 JUMP JUMPDEST PUSH2 0x1E5 PUSH2 0x286 CALLDATASIZE PUSH1 0x4 PUSH2 0xB51 JUMP JUMPDEST POP POP POP POP POP JUMP JUMPDEST PUSH2 0x12E PUSH2 0x29B CALLDATASIZE PUSH1 0x4 PUSH2 0xB18 JUMP JUMPDEST PUSH2 0x8FF JUMP JUMPDEST PUSH1 0x1 SLOAD PUSH2 0x178 SWAP1 PUSH1 0x1 PUSH1 0x1 PUSH1 0xA0 SHL SUB AND DUP2 JUMP JUMPDEST PUSH2 0x248 PUSH2 0x2C1 CALLDATASIZE PUSH1 0x4 PUSH2 0xB18 JUMP JUMPDEST PUSH2 0x9AD JUMP JUMPDEST PUSH2 0x1E5 PUSH2 0x2D4 CALLDATASIZE PUSH1 0x4 PUSH2 0xB00 JUMP JUMPDEST PUSH2 0xA1A JUMP JUMPDEST PUSH2 0x178 PUSH2 0x2E7 CALLDATASIZE PUSH1 0x4 PUSH2 0xB18 JUMP JUMPDEST PUSH1 0x0 SWAP2 DUP3 MSTORE PUSH1 0x4 PUSH1 0x20 SWAP1 DUP2 MSTORE PUSH1 0x40 DUP1 DUP5 KECCAK256 SWAP3 DUP5 MSTORE SWAP2 SWAP1 MSTORE SWAP1 KECCAK256 SLOAD PUSH1 0x1 PUSH1 0x1 PUSH1 0xA0 SHL SUB AND SWAP1 JUMP JUMPDEST PUSH2 0x248 PUSH2 0x31B CALLDATASIZE PUSH1 0x4 PUSH2 0xB18 JUMP JUMPDEST PUSH2 0xAA8 JUMP JUMPDEST PUSH1 0x0 SLOAD PUSH2 0x178 SWAP1 PUSH1 0x1 PUSH1 0x1 PUSH1 0xA0 SHL SUB AND DUP2 JUMP JUMPDEST PUSH2 0x270F PUSH2 0x248 JUMP JUMPDEST PUSH1 0x6 PUSH1 0x20 SWAP1 DUP2 MSTORE PUSH1 0x0 SWAP3 DUP4 MSTORE PUSH1 0x40 DUP1 DUP5 KECCAK256 SWAP1 SWAP2 MSTORE SWAP1 DUP3 MSTORE SWAP1 KECCAK256 DUP1 SLOAD PUSH2 0x35F SWAP1 PUSH2 0xCED JUMP JUMPDEST DUP1 PUSH1 0x1F ADD PUSH1 0x20 DUP1 SWAP2 DIV MUL PUSH1 0x20 ADD PUSH1 0x40 MLOAD SWAP1 DUP2 ADD PUSH1 0x40 MSTORE DUP1 SWAP3 SWAP2 SWAP1 DUP2 DUP2 MSTORE PUSH1 0x20 ADD DUP3 DUP1 SLOAD PUSH2 0x38B SWAP1 PUSH2 0xCED JUMP JUMPDEST DUP1 ISZERO PUSH2 0x3D8 JUMPI DUP1 PUSH1 0x1F LT PUSH2 0x3AD JUMPI PUSH2 0x100 DUP1 DUP4 SLOAD DIV MUL DUP4 MSTORE SWAP2 PUSH1 0x20 ADD SWAP2 PUSH2 0x3D8 JUMP JUMPDEST DUP3 ADD SWAP2 SWAP1 PUSH1 0x0 MSTORE PUSH1 0x20 PUSH1 0x0 KECCAK256 SWAP1 JUMPDEST DUP2 SLOAD DUP2 MSTORE SWAP1 PUSH1 0x1 ADD SWAP1 PUSH1 0x20 ADD DUP1 DUP4 GT PUSH2 0x3BB JUMPI DUP3 SWAP1 SUB PUSH1 0x1F AND DUP3 ADD SWAP2 JUMPDEST POP POP POP POP POP DUP2 JUMP JUMPDEST PUSH1 0x0 DUP3 DUP2 MSTORE PUSH1 0x5 PUSH1 0x20 MSTORE PUSH1 0x40 DUP2 KECCAK256 SLOAD DUP2 SWAP1 DUP1 ISZERO PUSH2 0x66B JUMPI PUSH1 0x0 DUP1 DUP1 PUSH2 0x406 PUSH1 0x1 DUP6 PUSH2 0xCBF JUMP JUMPDEST SWAP1 POP PUSH1 0x0 PUSH2 0x414 DUP10 DUP5 PUSH2 0x9AD JUMP JUMPDEST SWAP1 POP DUP8 DUP2 LT PUSH2 0x42E JUMPI PUSH1 0x0 DUP1 SWAP7 POP SWAP7 POP POP POP POP POP POP PUSH2 0x674 JUMP JUMPDEST PUSH2 0x438 DUP10 DUP4 PUSH2 0x9AD JUMP JUMPDEST SWAP1 POP DUP8 DUP2 LT ISZERO PUSH2 0x4B5 JUMPI JUMPDEST PUSH2 0x44D DUP10 DUP3 PUSH2 0x67B JUMP JUMPDEST DUP1 ISZERO PUSH2 0x459 JUMPI POP PUSH1 0x0 DUP3 GT JUMPDEST ISZERO PUSH2 0x47C JUMPI DUP2 PUSH2 0x468 DUP2 PUSH2 0xCD6 JUMP JUMPDEST SWAP3 POP POP PUSH2 0x475 DUP10 DUP4 PUSH2 0x9AD JUMP JUMPDEST SWAP1 POP PUSH2 0x443 JUMP JUMPDEST DUP2 ISZERO DUP1 ISZERO PUSH2 0x48F JUMPI POP PUSH2 0x48F DUP10 DUP3 PUSH2 0x67B JUMP JUMPDEST ISZERO PUSH2 0x4A5 JUMPI PUSH1 0x0 DUP1 SWAP7 POP SWAP7 POP POP POP POP POP POP PUSH2 0x674 JUMP JUMPDEST POP PUSH1 0x1 SWAP6 POP SWAP4 POP PUSH2 0x674 SWAP3 POP POP POP JUMP JUMPDEST DUP3 PUSH1 0x2 PUSH2 0x4C2 DUP3 DUP6 PUSH2 0xCBF JUMP JUMPDEST PUSH2 0x4CC SWAP2 SWAP1 PUSH2 0xC9F JUMP JUMPDEST PUSH2 0x4D7 SWAP1 PUSH1 0x1 PUSH2 0xC87 JUMP JUMPDEST PUSH2 0x4E1 SWAP2 SWAP1 PUSH2 0xC87 JUMP JUMPDEST SWAP4 POP PUSH2 0x4ED DUP10 DUP6 PUSH2 0x9AD JUMP JUMPDEST SWAP1 POP DUP8 DUP2 LT ISZERO PUSH2 0x5B9 JUMPI PUSH1 0x0 PUSH2 0x508 DUP11 PUSH2 0x2C1 DUP8 PUSH1 0x1 PUSH2 0xC87 JUMP JUMPDEST SWAP1 POP DUP9 DUP2 LT PUSH2 0x5A6 JUMPI PUSH2 0x51B DUP11 DUP4 PUSH2 0x67B JUMP JUMPDEST PUSH2 0x531 JUMPI PUSH1 0x1 DUP6 SWAP8 POP SWAP8 POP POP POP POP POP POP POP PUSH2 0x674 JUMP JUMPDEST PUSH2 0x53B DUP11 DUP4 PUSH2 0x67B JUMP JUMPDEST DUP1 ISZERO PUSH2 0x547 JUMPI POP PUSH1 0x0 DUP6 GT JUMPDEST ISZERO PUSH2 0x56A JUMPI DUP5 PUSH2 0x556 DUP2 PUSH2 0xCD6 JUMP JUMPDEST SWAP6 POP POP PUSH2 0x563 DUP11 DUP7 PUSH2 0x9AD JUMP JUMPDEST SWAP2 POP PUSH2 0x531 JUMP JUMPDEST DUP5 ISZERO DUP1 ISZERO PUSH2 0x57D JUMPI POP PUSH2 0x57D DUP11 DUP4 PUSH2 0x67B JUMP JUMPDEST ISZERO PUSH2 0x594 JUMPI PUSH1 0x0 DUP1 SWAP8 POP SWAP8 POP POP POP POP POP POP POP PUSH2 0x674 JUMP JUMPDEST PUSH1 0x1 DUP6 SWAP8 POP SWAP8 POP POP POP POP POP POP POP PUSH2 0x674 JUMP JUMPDEST PUSH2 0x5B1 DUP6 PUSH1 0x1 PUSH2 0xC87 JUMP JUMPDEST SWAP4 POP POP PUSH2 0x666 JUMP JUMPDEST PUSH1 0x0 PUSH2 0x5CA DUP11 PUSH2 0x2C1 PUSH1 0x1 DUP9 PUSH2 0xCBF JUMP JUMPDEST SWAP1 POP DUP9 DUP2 LT ISZERO PUSH2 0x657 JUMPI PUSH2 0x5DE DUP11 DUP3 PUSH2 0x67B JUMP JUMPDEST PUSH2 0x5FD JUMPI PUSH1 0x1 PUSH2 0x5EE DUP2 DUP8 PUSH2 0xCBF JUMP JUMPDEST SWAP8 POP SWAP8 POP POP POP POP POP POP POP PUSH2 0x674 JUMP JUMPDEST DUP5 PUSH2 0x607 DUP2 PUSH2 0xCD6 JUMP JUMPDEST SWAP6 POP POP JUMPDEST PUSH2 0x615 DUP11 DUP3 PUSH2 0x67B JUMP JUMPDEST DUP1 ISZERO PUSH2 0x621 JUMPI POP PUSH1 0x0 DUP6 GT JUMPDEST ISZERO PUSH2 0x644 JUMPI DUP5 PUSH2 0x630 DUP2 PUSH2 0xCD6 JUMP JUMPDEST SWAP6 POP POP PUSH2 0x63D DUP11 DUP7 PUSH2 0x9AD JUMP JUMPDEST SWAP1 POP PUSH2 0x60B JUMP JUMPDEST DUP5 ISZERO DUP1 ISZERO PUSH2 0x57D JUMPI POP PUSH2 0x57D DUP11 DUP3 PUSH2 0x67B JUMP JUMPDEST PUSH2 0x662 PUSH1 0x1 DUP7 PUSH2 0xCBF JUMP JUMPDEST SWAP3 POP POP JUMPDEST PUSH2 0x4B5 JUMP JUMPDEST PUSH1 0x0 DUP1 SWAP3 POP SWAP3 POP POP JUMPDEST SWAP3 POP SWAP3 SWAP1 POP JUMP JUMPDEST PUSH1 0x0 DUP3 DUP2 MSTORE PUSH1 0x3 PUSH1 0x20 SWAP1 DUP2 MSTORE PUSH1 0x40 DUP1 DUP4 KECCAK256 DUP5 DUP5 MSTORE SWAP1 SWAP2 MSTORE SWAP1 KECCAK256 SLOAD PUSH1 0xFF AND JUMPDEST SWAP3 SWAP2 POP POP JUMP JUMPDEST PUSH1 0x0 DUP1 SLOAD PUSH1 0x40 DUP1 MLOAD PUSH4 0xB67F8CBD PUSH1 0xE0 SHL DUP2 MSTORE SWAP1 MLOAD PUSH1 0x1 PUSH1 0x1 PUSH1 0xA0 SHL SUB SWAP1 SWAP3 AND SWAP3 PUSH4 0xB67F8CBD SWAP3 PUSH1 0x4 DUP1 DUP5 ADD SWAP4 DUP3 SWAP1 SUB ADD DUP2 DUP4 DUP8 DUP1 EXTCODESIZE ISZERO DUP1 ISZERO PUSH2 0x6E0 JUMPI PUSH1 0x0 DUP1 REVERT JUMPDEST POP GAS CALL ISZERO DUP1 ISZERO PUSH2 0x6F4 JUMPI RETURNDATASIZE PUSH1 0x0 DUP1 RETURNDATACOPY RETURNDATASIZE PUSH1 0x0 REVERT JUMPDEST POP POP PUSH1 0x0 SLOAD PUSH1 0x1 SLOAD PUSH1 0x40 MLOAD PUSH4 0x70A08231 PUSH1 0xE0 SHL DUP2 MSTORE ADDRESS PUSH1 0x4 DUP3 ADD MSTORE PUSH1 0x1 PUSH1 0x1 PUSH1 0xA0 SHL SUB SWAP3 DUP4 AND SWAP5 POP PUSH4 0xA9059CBB SWAP4 POP SWAP2 AND SWAP1 DUP4 SWAP1 PUSH4 0x70A08231 SWAP1 PUSH1 0x24 ADD PUSH1 0x20 PUSH1 0x40 MLOAD DUP1 DUP4 SUB DUP2 DUP7 DUP1 EXTCODESIZE ISZERO DUP1 ISZERO PUSH2 0x749 JUMPI PUSH1 0x0 DUP1 REVERT JUMPDEST POP GAS STATICCALL ISZERO DUP1 ISZERO PUSH2 0x75D JUMPI RETURNDATASIZE PUSH1 0x0 DUP1 RETURNDATACOPY RETURNDATASIZE PUSH1 0x0 REVERT JUMPDEST POP POP POP POP PUSH1 0x40 MLOAD RETURNDATASIZE PUSH1 0x1F NOT PUSH1 0x1F DUP3 ADD AND DUP3 ADD DUP1 PUSH1 0x40 MSTORE POP DUP2 ADD SWAP1 PUSH2 0x781 SWAP2 SWAP1 PUSH2 0xB39 JUMP JUMPDEST PUSH1 0x40 MLOAD PUSH1 0x1 PUSH1 0x1 PUSH1 0xE0 SHL SUB NOT PUSH1 0xE0 DUP6 SWAP1 SHL AND DUP2 MSTORE PUSH1 0x1 PUSH1 0x1 PUSH1 0xA0 SHL SUB SWAP1 SWAP3 AND PUSH1 0x4 DUP4 ADD MSTORE PUSH1 0x24 DUP3 ADD MSTORE PUSH1 0x44 ADD PUSH1 0x20 PUSH1 0x40 MLOAD DUP1 DUP4 SUB DUP2 PUSH1 0x0 DUP8 DUP1 EXTCODESIZE ISZERO DUP1 ISZERO PUSH2 0x7C7 JUMPI PUSH1 0x0 DUP1 REVERT JUMPDEST POP GAS CALL ISZERO DUP1 ISZERO PUSH2 0x7DB JUMPI RETURNDATASIZE PUSH1 0x0 DUP1 RETURNDATACOPY RETURNDATASIZE PUSH1 0x0 REVERT JUMPDEST POP POP POP POP PUSH1 0x40 MLOAD RETURNDATASIZE PUSH1 0x1F NOT PUSH1 0x1F DUP3 ADD AND DUP3 ADD DUP1 PUSH1 0x40 MSTORE POP DUP2 ADD SWAP1 PUSH2 0x7FF SWAP2 SWAP1 PUSH2 0xAD9 JUMP JUMPDEST POP JUMP JUMPDEST PUSH1 0x0 PUSH1 0x60 PUSH1 0x0 DUP1 PUSH1 0x0 PUSH2 0x815 DUP8 DUP8 PUSH2 0x3E0 JUMP JUMPDEST SWAP2 POP SWAP2 POP DUP2 PUSH2 0x83F JUMPI PUSH1 0x0 PUSH1 0x40 MLOAD DUP1 PUSH1 0x20 ADD PUSH1 0x40 MSTORE DUP1 PUSH1 0x0 DUP2 MSTORE POP PUSH1 0x0 SWAP5 POP SWAP5 POP SWAP5 POP POP POP PUSH2 0x8F8 JUMP JUMPDEST PUSH2 0x849 DUP8 DUP3 PUSH2 0x9AD JUMP JUMPDEST PUSH1 0x0 DUP9 DUP2 MSTORE PUSH1 0x6 PUSH1 0x20 SWAP1 DUP2 MSTORE PUSH1 0x40 DUP1 DUP4 KECCAK256 DUP5 DUP5 MSTORE SWAP1 SWAP2 MSTORE SWAP1 KECCAK256 DUP1 SLOAD SWAP2 SWAP5 POP SWAP1 PUSH2 0x871 SWAP1 PUSH2 0xCED JUMP JUMPDEST DUP1 PUSH1 0x1F ADD PUSH1 0x20 DUP1 SWAP2 DIV MUL PUSH1 0x20 ADD PUSH1 0x40 MLOAD SWAP1 DUP2 ADD PUSH1 0x40 MSTORE DUP1 SWAP3 SWAP2 SWAP1 DUP2 DUP2 MSTORE PUSH1 0x20 ADD DUP3 DUP1 SLOAD PUSH2 0x89D SWAP1 PUSH2 0xCED JUMP JUMPDEST DUP1 ISZERO PUSH2 0x8EA JUMPI DUP1 PUSH1 0x1F LT PUSH2 0x8BF JUMPI PUSH2 0x100 DUP1 DUP4 SLOAD DIV MUL DUP4 MSTORE SWAP2 PUSH1 0x20 ADD SWAP2 PUSH2 0x8EA JUMP JUMPDEST DUP3 ADD SWAP2 SWAP1 PUSH1 0x0 MSTORE PUSH1 0x20 PUSH1 0x0 KECCAK256 SWAP1 JUMPDEST DUP2 SLOAD DUP2 MSTORE SWAP1 PUSH1 0x1 ADD SWAP1 PUSH1 0x20 ADD DUP1 DUP4 GT PUSH2 0x8CD JUMPI DUP3 SWAP1 SUB PUSH1 0x1F AND DUP3 ADD SWAP2 JUMPDEST POP POP POP POP POP SWAP4 POP PUSH1 0x1 SWAP5 POP POP POP JUMPDEST SWAP3 POP SWAP3 POP SWAP3 JUMP JUMPDEST PUSH1 0x0 DUP3 DUP2 MSTORE PUSH1 0x6 PUSH1 0x20 SWAP1 DUP2 MSTORE PUSH1 0x40 DUP1 DUP4 KECCAK256 DUP5 DUP5 MSTORE SWAP1 SWAP2 MSTORE SWAP1 KECCAK256 DUP1 SLOAD PUSH1 0x60 SWAP2 SWAP1 PUSH2 0x927 SWAP1 PUSH2 0xCED JUMP JUMPDEST DUP1 PUSH1 0x1F ADD PUSH1 0x20 DUP1 SWAP2 DIV MUL PUSH1 0x20 ADD PUSH1 0x40 MLOAD SWAP1 DUP2 ADD PUSH1 0x40 MSTORE DUP1 SWAP3 SWAP2 SWAP1 DUP2 DUP2 MSTORE PUSH1 0x20 ADD DUP3 DUP1 SLOAD PUSH2 0x953 SWAP1 PUSH2 0xCED JUMP JUMPDEST DUP1 ISZERO PUSH2 0x9A0 JUMPI DUP1 PUSH1 0x1F LT PUSH2 0x975 JUMPI PUSH2 0x100 DUP1 DUP4 SLOAD DIV MUL DUP4 MSTORE SWAP2 PUSH1 0x20 ADD SWAP2 PUSH2 0x9A0 JUMP JUMPDEST DUP3 ADD SWAP2 SWAP1 PUSH1 0x0 MSTORE PUSH1 0x20 PUSH1 0x0 KECCAK256 SWAP1 JUMPDEST DUP2 SLOAD DUP2 MSTORE SWAP1 PUSH1 0x1 ADD SWAP1 PUSH1 0x20 ADD DUP1 DUP4 GT PUSH2 0x983 JUMPI DUP3 SWAP1 SUB PUSH1 0x1F AND DUP3 ADD SWAP2 JUMPDEST POP POP POP POP POP SWAP1 POP SWAP3 SWAP2 POP POP JUMP JUMPDEST PUSH1 0x0 DUP3 DUP2 MSTORE PUSH1 0x5 PUSH1 0x20 MSTORE PUSH1 0x40 DUP2 KECCAK256 SLOAD DUP1 ISZERO DUP1 PUSH2 0x9C9 JUMPI POP DUP3 DUP2 GT ISZERO JUMPDEST ISZERO PUSH2 0x9D8 JUMPI PUSH1 0x0 SWAP2 POP POP PUSH2 0x699 JUMP JUMPDEST PUSH1 0x0 DUP5 DUP2 MSTORE PUSH1 0x5 PUSH1 0x20 MSTORE PUSH1 0x40 SWAP1 KECCAK256 DUP1 SLOAD DUP5 SWAP1 DUP2 LT PUSH2 0xA06 JUMPI PUSH4 0x4E487B71 PUSH1 0xE0 SHL PUSH1 0x0 MSTORE PUSH1 0x32 PUSH1 0x4 MSTORE PUSH1 0x24 PUSH1 0x0 REVERT JUMPDEST SWAP1 PUSH1 0x0 MSTORE PUSH1 0x20 PUSH1 0x0 KECCAK256 ADD SLOAD SWAP2 POP POP SWAP3 SWAP2 POP POP JUMP JUMPDEST PUSH1 0x0 SLOAD PUSH1 0x40 MLOAD PUSH4 0x23B872DD PUSH1 0xE0 SHL DUP2 MSTORE CALLER PUSH1 0x4 DUP3 ADD MSTORE ADDRESS PUSH1 0x24 DUP3 ADD MSTORE PUSH1 0x44 DUP2 ADD DUP4 SWAP1 MSTORE PUSH1 0x1 PUSH1 0x1 PUSH1 0xA0 SHL SUB SWAP1 SWAP2 AND SWAP1 PUSH4 0x23B872DD SWAP1 PUSH1 0x64 ADD PUSH1 0x20 PUSH1 0x40 MLOAD DUP1 DUP4 SUB DUP2 PUSH1 0x0 DUP8 DUP1 EXTCODESIZE ISZERO DUP1 ISZERO PUSH2 0xA6C JUMPI PUSH1 0x0 DUP1 REVERT JUMPDEST POP GAS CALL ISZERO DUP1 ISZERO PUSH2 0xA80 JUMPI RETURNDATASIZE PUSH1 0x0 DUP1 RETURNDATACOPY RETURNDATASIZE PUSH1 0x0 REVERT JUMPDEST POP POP POP POP PUSH1 0x40 MLOAD RETURNDATASIZE PUSH1 0x1F NOT PUSH1 0x1F DUP3 ADD AND DUP3 ADD DUP1 PUSH1 0x40 MSTORE POP DUP2 ADD SWAP1 PUSH2 0xAA4 SWAP2 SWAP1 PUSH2 0xAD9 JUMP JUMPDEST POP POP JUMP JUMPDEST PUSH1 0x5 PUSH1 0x20 MSTORE DUP2 PUSH1 0x0 MSTORE PUSH1 0x40 PUSH1 0x0 KECCAK256 DUP2 DUP2 SLOAD DUP2 LT PUSH2 0xAC4 JUMPI PUSH1 0x0 DUP1 REVERT JUMPDEST SWAP1 PUSH1 0x0 MSTORE PUSH1 0x20 PUSH1 0x0 KECCAK256 ADD PUSH1 0x0 SWAP2 POP SWAP2 POP POP SLOAD DUP2 JUMP JUMPDEST PUSH1 0x0 PUSH1 0x20 DUP3 DUP5 SUB SLT ISZERO PUSH2 0xAEA JUMPI DUP1 DUP2 REVERT JUMPDEST DUP2 MLOAD DUP1 ISZERO ISZERO DUP2 EQ PUSH2 0xAF9 JUMPI DUP2 DUP3 REVERT JUMPDEST SWAP4 SWAP3 POP POP POP JUMP JUMPDEST PUSH1 0x0 PUSH1 0x20 DUP3 DUP5 SUB SLT ISZERO PUSH2 0xB11 JUMPI DUP1 DUP2 REVERT JUMPDEST POP CALLDATALOAD SWAP2 SWAP1 POP JUMP JUMPDEST PUSH1 0x0 DUP1 PUSH1 0x40 DUP4 DUP6 SUB SLT ISZERO PUSH2 0xB2A JUMPI DUP1 DUP2 REVERT JUMPDEST POP POP DUP1 CALLDATALOAD SWAP3 PUSH1 0x20 SWAP1 SWAP2 ADD CALLDATALOAD SWAP2 POP JUMP JUMPDEST PUSH1 0x0 PUSH1 0x20 DUP3 DUP5 SUB SLT ISZERO PUSH2 0xB4A JUMPI DUP1 DUP2 REVERT JUMPDEST POP MLOAD SWAP2 SWAP1 POP JUMP JUMPDEST PUSH1 0x0 DUP1 PUSH1 0x0 DUP1 PUSH1 0x0 PUSH1 0x80 DUP7 DUP9 SUB SLT ISZERO PUSH2 0xB68 JUMPI DUP1 DUP2 REVERT JUMPDEST DUP6 CALLDATALOAD SWAP5 POP PUSH1 0x20 DUP7 ADD CALLDATALOAD PUSH8 0xFFFFFFFFFFFFFFFF DUP1 DUP3 GT ISZERO PUSH2 0xB86 JUMPI DUP3 DUP4 REVERT JUMPDEST SWAP1 DUP8 ADD SWAP1 PUSH2 0x160 DUP3 DUP11 SUB SLT ISZERO PUSH2 0xB9A JUMPI DUP3 DUP4 REVERT JUMPDEST SWAP1 SWAP5 POP PUSH1 0x40 DUP8 ADD CALLDATALOAD SWAP4 POP PUSH1 0x60 DUP8 ADD CALLDATALOAD SWAP1 DUP1 DUP3 GT ISZERO PUSH2 0xBB6 JUMPI DUP3 DUP4 REVERT JUMPDEST DUP2 DUP9 ADD SWAP2 POP DUP9 PUSH1 0x1F DUP4 ADD SLT PUSH2 0xBC9 JUMPI DUP3 DUP4 REVERT JUMPDEST DUP2 CALLDATALOAD DUP2 DUP2 GT ISZERO PUSH2 0xBD7 JUMPI DUP4 DUP5 REVERT JUMPDEST DUP10 PUSH1 0x20 PUSH1 0xA0 DUP4 MUL DUP6 ADD ADD GT ISZERO PUSH2 0xBEB JUMPI DUP4 DUP5 REVERT JUMPDEST SWAP7 SWAP10 SWAP6 SWAP9 POP SWAP4 SWAP7 POP PUSH1 0x20 ADD SWAP5 SWAP4 SWAP3 POP POP POP JUMP JUMPDEST PUSH1 0x0 DUP2 MLOAD DUP1 DUP5 MSTORE DUP2 JUMPDEST DUP2 DUP2 LT ISZERO PUSH2 0xC23 JUMPI PUSH1 0x20 DUP2 DUP6 ADD DUP2 ADD MLOAD DUP7 DUP4 ADD DUP3 ADD MSTORE ADD PUSH2 0xC07 JUMP JUMPDEST DUP2 DUP2 GT ISZERO PUSH2 0xC34 JUMPI DUP3 PUSH1 0x20 DUP4 DUP8 ADD ADD MSTORE JUMPDEST POP PUSH1 0x1F ADD PUSH1 0x1F NOT AND SWAP3 SWAP1 SWAP3 ADD PUSH1 0x20 ADD SWAP3 SWAP2 POP POP JUMP JUMPDEST PUSH1 0x0 DUP5 ISZERO ISZERO DUP3 MSTORE PUSH1 0x60 PUSH1 0x20 DUP4 ADD MSTORE PUSH2 0xC64 PUSH1 0x60 DUP4 ADD DUP6 PUSH2 0xBFE JUMP JUMPDEST SWAP1 POP DUP3 PUSH1 0x40 DUP4 ADD MSTORE SWAP5 SWAP4 POP POP POP POP JUMP JUMPDEST PUSH1 0x0 PUSH1 0x20 DUP3 MSTORE PUSH2 0xAF9 PUSH1 0x20 DUP4 ADD DUP5 PUSH2 0xBFE JUMP JUMPDEST PUSH1 0x0 DUP3 NOT DUP3 GT ISZERO PUSH2 0xC9A JUMPI PUSH2 0xC9A PUSH2 0xD28 JUMP JUMPDEST POP ADD SWAP1 JUMP JUMPDEST PUSH1 0x0 DUP3 PUSH2 0xCBA JUMPI PUSH4 0x4E487B71 PUSH1 0xE0 SHL DUP2 MSTORE PUSH1 0x12 PUSH1 0x4 MSTORE PUSH1 0x24 DUP2 REVERT JUMPDEST POP DIV SWAP1 JUMP JUMPDEST PUSH1 0x0 DUP3 DUP3 LT ISZERO PUSH2 0xCD1 JUMPI PUSH2 0xCD1 PUSH2 0xD28 JUMP JUMPDEST POP SUB SWAP1 JUMP JUMPDEST PUSH1 0x0 DUP2 PUSH2 0xCE5 JUMPI PUSH2 0xCE5 PUSH2 0xD28 JUMP JUMPDEST POP PUSH1 0x0 NOT ADD SWAP1 JUMP JUMPDEST PUSH1 0x1 DUP2 DUP2 SHR SWAP1 DUP3 AND DUP1 PUSH2 0xD01 JUMPI PUSH1 0x7F DUP3 AND SWAP2 POP JUMPDEST PUSH1 0x20 DUP3 LT DUP2 EQ ISZERO PUSH2 0xD22 JUMPI PUSH4 0x4E487B71 PUSH1 0xE0 SHL PUSH1 0x0 MSTORE PUSH1 0x22 PUSH1 0x4 MSTORE PUSH1 0x24 PUSH1 0x0 REVERT JUMPDEST POP SWAP2 SWAP1 POP JUMP JUMPDEST PUSH4 0x4E487B71 PUSH1 0xE0 SHL PUSH1 0x0 MSTORE PUSH1 0x11 PUSH1 0x4 MSTORE PUSH1 0x24 PUSH1 0x0 REVERT INVALID LOG2 PUSH5 0x6970667358 0x22 SLT KECCAK256 JUMPDEST NUMBER PUSH9 0x151CEAC8F1B95D20C4 0xD 0xC5 0xA6 PUSH5 0x6BD83C9DD6 0xE2 0xB0 CREATE DUP2 BLOCKHASH 0x2A 0xD4 0xDE DIFFICULTY GASLIMIT ORIGIN PUSH5 0x736F6C6343 STOP ADDMOD SUB STOP CALLER "},"methodIdentifiers":{"addStakingRewards(uint256)":"d9c51cd4","dataBridge()":"578855b2","getDataBefore(bytes32,uint256)":"a792765f","getIndexForDataBefore(bytes32,uint256)":"29449085","getNewValueCountbyQueryId(bytes32)":"77b03e0d","getReporterByTimestamp(bytes32,uint256)":"e07c5486","getTimestampbyQueryIdandIndex(bytes32,uint256)":"ce5e11bf","isDisputed(bytes32,uint256)":"64473df2","isInDispute(bytes32,uint256)":"44e87f91","reporterByTimestamp(bytes32,uint256)":"217053c0","retrieveData(bytes32,uint256)":"c5958af9","timestamps(bytes32,uint256)":"f25133f3","token()":"fc0c546a","tokenBridge()":"c6328a46","transferToTokenBridge()":"4947ec84","values(bytes32,uint256)":"091b50ff","verify()":"fc735e99","verifyAndStore(uint256,(string,uint64,bytes,uint64,uint64,uint64,uint64,uint64,uint64,uint8,bytes),uint256,(bool,uint8,uint256,uint256,bytes32)[])":"b64ed20f"}}}}}