{"contracts/bridge/LayerLightClientBridge.sol":{"LayerLightClientBridge":{"abi":[{"inputs":[{"internalType":"uint256","name":"_unbondingPeriod","type":"uint256"}],"stateMutability":"nonpayable","type":"constructor"},{"inputs":[{"internalType":"uint256","name":"","type":"uint256"}],"name":"blockDetails","outputs":[{"internalType":"bytes32","name":"oracleHash","type":"bytes32"},{"internalType":"uint64","name":"timeSecond","type":"uint64"},{"internalType":"uint32","name":"timeNanoSecondFraction","type":"uint32"}],"stateMutability":"view","type":"function"},{"inputs":[{"components":[{"internalType":"bytes","name":"signedDataPrefix","type":"bytes"},{"internalType":"bytes","name":"signedDataSuffix","type":"bytes"}],"internalType":"struct LayerLightClientBridge.CommonEncodedVotePartData","name":"_votePart","type":"tuple"},{"internalType":"bytes32","name":"_blockHash","type":"bytes32"}],"name":"checkPartsAndEncodedCommonParts","outputs":[{"internalType":"bytes","name":"","type":"bytes"}],"stateMutability":"pure","type":"function"},{"inputs":[{"components":[{"internalType":"bytes32","name":"r","type":"bytes32"},{"internalType":"bytes32","name":"s","type":"bytes32"},{"internalType":"uint8","name":"v","type":"uint8"},{"internalType":"bytes","name":"encodedTimestamp","type":"bytes"}],"internalType":"struct LayerLightClientBridge.TMSignatureData","name":"_sigData","type":"tuple"},{"internalType":"bytes","name":"_commonEncodedPart","type":"bytes"},{"internalType":"bytes","name":"_encodedChainID","type":"bytes"}],"name":"checkTimeAndRecoverSigner","outputs":[{"internalType":"address","name":"","type":"address"}],"stateMutability":"pure","type":"function"},{"inputs":[],"name":"encodedChainId","outputs":[{"internalType":"bytes","name":"","type":"bytes"}],"stateMutability":"view","type":"function"},{"inputs":[{"components":[{"internalType":"bytes32","name":"oracleIAVLStateHash","type":"bytes32"},{"internalType":"bytes32","name":"paramsStoreMerkleHash","type":"bytes32"},{"internalType":"bytes32","name":"slashingToStakingStoresMerkleHash","type":"bytes32"},{"internalType":"bytes32","name":"govToMintStoresMerkleHash","type":"bytes32"},{"internalType":"bytes32","name":"authToFeegrantStoresMerkleHash","type":"bytes32"},{"internalType":"bytes32","name":"transferToUpgradeStoresMerkleHash","type":"bytes32"}],"internalType":"struct LayerLightClientBridge.MultistoreData","name":"_store","type":"tuple"}],"name":"getAppHash","outputs":[{"internalType":"bytes32","name":"","type":"bytes32"}],"stateMutability":"pure","type":"function"},{"inputs":[{"components":[{"internalType":"bytes32","name":"oracleIAVLStateHash","type":"bytes32"},{"internalType":"bytes32","name":"paramsStoreMerkleHash","type":"bytes32"},{"internalType":"bytes32","name":"slashingToStakingStoresMerkleHash","type":"bytes32"},{"internalType":"bytes32","name":"govToMintStoresMerkleHash","type":"bytes32"},{"internalType":"bytes32","name":"authToFeegrantStoresMerkleHash","type":"bytes32"},{"internalType":"bytes32","name":"transferToUpgradeStoresMerkleHash","type":"bytes32"}],"internalType":"struct LayerLightClientBridge.MultistoreData","name":"_store","type":"tuple"}],"name":"getAppHash2","outputs":[{"internalType":"bytes32","name":"","type":"bytes32"}],"stateMutability":"pure","type":"function"},{"inputs":[{"components":[{"internalType":"bytes32","name":"oracleIAVLStateHash","type":"bytes32"},{"internalType":"bytes32","name":"paramsStoreMerkleHash","type":"bytes32"},{"internalType":"bytes32","name":"slashingToStakingStoresMerkleHash","type":"bytes32"},{"internalType":"bytes32","name":"govToMintStoresMerkleHash","type":"bytes32"},{"internalType":"bytes32","name":"authToFeegrantStoresMerkleHash","type":"bytes32"},{"internalType":"bytes32","name":"transferToUpgradeStoresMerkleHash","type":"bytes32"}],"internalType":"struct LayerLightClientBridge.MultistoreData","name":"_store","type":"tuple"}],"name":"getAppHash3","outputs":[{"internalType":"bytes32","name":"","type":"bytes32"}],"stateMutability":"pure","type":"function"},{"inputs":[{"components":[{"internalType":"bytes32","name":"versionAndChainIdHash","type":"bytes32"},{"internalType":"uint64","name":"height","type":"uint64"},{"internalType":"uint64","name":"timeSecond","type":"uint64"},{"internalType":"uint32","name":"timeNanoSecondFraction","type":"uint32"},{"internalType":"bytes32","name":"lastBlockIdAndOther","type":"bytes32"},{"internalType":"bytes32","name":"nextValidatorHashAndConsensusHash","type":"bytes32"},{"internalType":"bytes32","name":"lastResultsHash","type":"bytes32"},{"internalType":"bytes32","name":"evidenceAndProposerHash","type":"bytes32"}],"internalType":"struct LayerLightClientBridge.BlockHeaderMerkleParts","name":"_merkleParts","type":"tuple"},{"internalType":"bytes32","name":"_appHash","type":"bytes32"}],"name":"getBlockHeader","outputs":[{"internalType":"bytes32","name":"","type":"bytes32"}],"stateMutability":"pure","type":"function"},{"inputs":[{"internalType":"address[]","name":"_validators","type":"address[]"},{"internalType":"uint256[]","name":"_powers","type":"uint256[]"},{"internalType":"string","name":"_encodedChainID","type":"string"}],"name":"init","outputs":[],"stateMutability":"nonpayable","type":"function"},{"inputs":[],"name":"latestBlockHeight","outputs":[{"internalType":"uint256","name":"","type":"uint256"}],"stateMutability":"view","type":"function"},{"inputs":[{"components":[{"internalType":"bytes32","name":"versionAndChainIdHash","type":"bytes32"},{"internalType":"uint64","name":"height","type":"uint64"},{"internalType":"uint64","name":"timeSecond","type":"uint64"},{"internalType":"uint32","name":"timeNanoSecondFraction","type":"uint32"},{"internalType":"bytes32","name":"lastBlockIdAndOther","type":"bytes32"},{"internalType":"bytes32","name":"nextValidatorHashAndConsensusHash","type":"bytes32"},{"internalType":"bytes32","name":"lastResultsHash","type":"bytes32"},{"internalType":"bytes32","name":"evidenceAndProposerHash","type":"bytes32"}],"internalType":"struct LayerLightClientBridge.BlockHeaderMerkleParts","name":"_merkleParts","type":"tuple"}],"name":"readBlockHeaderMerkleParts","outputs":[{"components":[{"internalType":"bytes32","name":"versionAndChainIdHash","type":"bytes32"},{"internalType":"uint64","name":"height","type":"uint64"},{"internalType":"uint64","name":"timeSecond","type":"uint64"},{"internalType":"uint32","name":"timeNanoSecondFraction","type":"uint32"},{"internalType":"bytes32","name":"lastBlockIdAndOther","type":"bytes32"},{"internalType":"bytes32","name":"nextValidatorHashAndConsensusHash","type":"bytes32"},{"internalType":"bytes32","name":"lastResultsHash","type":"bytes32"},{"internalType":"bytes32","name":"evidenceAndProposerHash","type":"bytes32"}],"internalType":"struct LayerLightClientBridge.BlockHeaderMerkleParts","name":"","type":"tuple"}],"stateMutability":"pure","type":"function"},{"inputs":[{"components":[{"internalType":"bytes","name":"signedDataPrefix","type":"bytes"},{"internalType":"bytes","name":"signedDataSuffix","type":"bytes"}],"internalType":"struct LayerLightClientBridge.CommonEncodedVotePartData","name":"_commonEncodedVotePart","type":"tuple"}],"name":"readCommonEncodedVotePartData","outputs":[{"components":[{"internalType":"bytes","name":"signedDataPrefix","type":"bytes"},{"internalType":"bytes","name":"signedDataSuffix","type":"bytes"}],"internalType":"struct LayerLightClientBridge.CommonEncodedVotePartData","name":"","type":"tuple"}],"stateMutability":"pure","type":"function"},{"inputs":[{"components":[{"internalType":"bytes32","name":"oracleIAVLStateHash","type":"bytes32"},{"internalType":"bytes32","name":"paramsStoreMerkleHash","type":"bytes32"},{"internalType":"bytes32","name":"slashingToStakingStoresMerkleHash","type":"bytes32"},{"internalType":"bytes32","name":"govToMintStoresMerkleHash","type":"bytes32"},{"internalType":"bytes32","name":"authToFeegrantStoresMerkleHash","type":"bytes32"},{"internalType":"bytes32","name":"transferToUpgradeStoresMerkleHash","type":"bytes32"}],"internalType":"struct LayerLightClientBridge.MultistoreData","name":"_multiStore","type":"tuple"}],"name":"readMultistoreData","outputs":[{"internalType":"bytes","name":"","type":"bytes"}],"stateMutability":"pure","type":"function"},{"inputs":[{"components":[{"internalType":"bytes32","name":"r","type":"bytes32"},{"internalType":"bytes32","name":"s","type":"bytes32"},{"internalType":"uint8","name":"v","type":"uint8"},{"internalType":"bytes","name":"encodedTimestamp","type":"bytes"}],"internalType":"struct LayerLightClientBridge.TMSignatureData","name":"_signatureData","type":"tuple"}],"name":"readTMSignatureData","outputs":[{"components":[{"internalType":"bytes32","name":"r","type":"bytes32"},{"internalType":"bytes32","name":"s","type":"bytes32"},{"internalType":"uint8","name":"v","type":"uint8"},{"internalType":"bytes","name":"encodedTimestamp","type":"bytes"}],"internalType":"struct LayerLightClientBridge.TMSignatureData","name":"","type":"tuple"}],"stateMutability":"pure","type":"function"},{"inputs":[{"components":[{"internalType":"bytes32","name":"oracleIAVLStateHash","type":"bytes32"},{"internalType":"bytes32","name":"paramsStoreMerkleHash","type":"bytes32"},{"internalType":"bytes32","name":"slashingToStakingStoresMerkleHash","type":"bytes32"},{"internalType":"bytes32","name":"govToMintStoresMerkleHash","type":"bytes32"},{"internalType":"bytes32","name":"authToFeegrantStoresMerkleHash","type":"bytes32"},{"internalType":"bytes32","name":"transferToUpgradeStoresMerkleHash","type":"bytes32"}],"internalType":"struct LayerLightClientBridge.MultistoreData","name":"_multiStore","type":"tuple"},{"components":[{"internalType":"bytes32","name":"versionAndChainIdHash","type":"bytes32"},{"internalType":"uint64","name":"height","type":"uint64"},{"internalType":"uint64","name":"timeSecond","type":"uint64"},{"internalType":"uint32","name":"timeNanoSecondFraction","type":"uint32"},{"internalType":"bytes32","name":"lastBlockIdAndOther","type":"bytes32"},{"internalType":"bytes32","name":"nextValidatorHashAndConsensusHash","type":"bytes32"},{"internalType":"bytes32","name":"lastResultsHash","type":"bytes32"},{"internalType":"bytes32","name":"evidenceAndProposerHash","type":"bytes32"}],"internalType":"struct LayerLightClientBridge.BlockHeaderMerkleParts","name":"_merkleParts","type":"tuple"},{"components":[{"internalType":"bytes","name":"signedDataPrefix","type":"bytes"},{"internalType":"bytes","name":"signedDataSuffix","type":"bytes"}],"internalType":"struct LayerLightClientBridge.CommonEncodedVotePartData","name":"_commonEncodedVotePart","type":"tuple"},{"components":[{"internalType":"bytes32","name":"r","type":"bytes32"},{"internalType":"bytes32","name":"s","type":"bytes32"},{"internalType":"uint8","name":"v","type":"uint8"},{"internalType":"bytes","name":"encodedTimestamp","type":"bytes"}],"internalType":"struct LayerLightClientBridge.TMSignatureData[]","name":"_signatures","type":"tuple[]"}],"name":"relayBlock","outputs":[],"stateMutability":"nonpayable","type":"function"},{"inputs":[],"name":"totalValidatorPower","outputs":[{"internalType":"uint256","name":"","type":"uint256"}],"stateMutability":"view","type":"function"},{"inputs":[],"name":"unbondingPeriod","outputs":[{"internalType":"uint256","name":"","type":"uint256"}],"stateMutability":"view","type":"function"},{"inputs":[{"internalType":"address","name":"","type":"address"}],"name":"validatorPowers","outputs":[{"internalType":"uint256","name":"","type":"uint256"}],"stateMutability":"view","type":"function"},{"inputs":[{"components":[{"internalType":"bytes32","name":"oracleIAVLStateHash","type":"bytes32"},{"internalType":"bytes32","name":"paramsStoreMerkleHash","type":"bytes32"},{"internalType":"bytes32","name":"slashingToStakingStoresMerkleHash","type":"bytes32"},{"internalType":"bytes32","name":"govToMintStoresMerkleHash","type":"bytes32"},{"internalType":"bytes32","name":"authToFeegrantStoresMerkleHash","type":"bytes32"},{"internalType":"bytes32","name":"transferToUpgradeStoresMerkleHash","type":"bytes32"}],"internalType":"struct LayerLightClientBridge.MultistoreData","name":"_multiStore","type":"tuple"},{"components":[{"internalType":"bytes32","name":"versionAndChainIdHash","type":"bytes32"},{"internalType":"uint64","name":"height","type":"uint64"},{"internalType":"uint64","name":"timeSecond","type":"uint64"},{"internalType":"uint32","name":"timeNanoSecondFraction","type":"uint32"},{"internalType":"bytes32","name":"lastBlockIdAndOther","type":"bytes32"},{"internalType":"bytes32","name":"nextValidatorHashAndConsensusHash","type":"bytes32"},{"internalType":"bytes32","name":"lastResultsHash","type":"bytes32"},{"internalType":"bytes32","name":"evidenceAndProposerHash","type":"bytes32"}],"internalType":"struct LayerLightClientBridge.BlockHeaderMerkleParts","name":"_merkleParts","type":"tuple"},{"components":[{"internalType":"bytes","name":"signedDataPrefix","type":"bytes"},{"internalType":"bytes","name":"signedDataSuffix","type":"bytes"}],"internalType":"struct LayerLightClientBridge.CommonEncodedVotePartData","name":"_commonEncodedVotePart","type":"tuple"},{"components":[{"internalType":"bytes32","name":"r","type":"bytes32"},{"internalType":"bytes32","name":"s","type":"bytes32"},{"internalType":"uint8","name":"v","type":"uint8"},{"internalType":"bytes","name":"encodedTimestamp","type":"bytes"}],"internalType":"struct LayerLightClientBridge.TMSignatureData[]","name":"_signatures","type":"tuple[]"}],"name":"verifyBlockHeader","outputs":[{"internalType":"bool","name":"","type":"bool"}],"stateMutability":"view","type":"function"},{"inputs":[{"internalType":"uint256","name":"_blockHeight","type":"uint256"},{"components":[{"internalType":"string","name":"clientID","type":"string"},{"internalType":"uint64","name":"oracleScriptID","type":"uint64"},{"internalType":"bytes","name":"params","type":"bytes"},{"internalType":"uint64","name":"askCount","type":"uint64"},{"internalType":"uint64","name":"minCount","type":"uint64"},{"internalType":"uint64","name":"requestID","type":"uint64"},{"internalType":"uint64","name":"ansCount","type":"uint64"},{"internalType":"uint64","name":"requestTime","type":"uint64"},{"internalType":"uint64","name":"resolveTime","type":"uint64"},{"internalType":"enum LayerLightClientBridge.ResolveStatus","name":"resolveStatus","type":"uint8"},{"internalType":"bytes","name":"result","type":"bytes"}],"internalType":"struct LayerLightClientBridge.Report","name":"_report","type":"tuple"},{"internalType":"uint256","name":"_oracleHeight","type":"uint256"},{"components":[{"internalType":"bool","name":"isDataOnRight","type":"bool"},{"internalType":"uint8","name":"subtreeHeight","type":"uint8"},{"internalType":"uint256","name":"subtreeSize","type":"uint256"},{"internalType":"uint256","name":"subtreeVersion","type":"uint256"},{"internalType":"bytes32","name":"siblingHash","type":"bytes32"}],"internalType":"struct LayerLightClientBridge.IAVLMerklePath[]","name":"_merklePaths","type":"tuple[]"}],"name":"verifyOracleData","outputs":[{"components":[{"internalType":"string","name":"clientID","type":"string"},{"internalType":"uint64","name":"oracleScriptID","type":"uint64"},{"internalType":"bytes","name":"params","type":"bytes"},{"internalType":"uint64","name":"askCount","type":"uint64"},{"internalType":"uint64","name":"minCount","type":"uint64"},{"internalType":"uint64","name":"requestID","type":"uint64"},{"internalType":"uint64","name":"ansCount","type":"uint64"},{"internalType":"uint64","name":"requestTime","type":"uint64"},{"internalType":"uint64","name":"resolveTime","type":"uint64"},{"internalType":"enum LayerLightClientBridge.ResolveStatus","name":"resolveStatus","type":"uint8"},{"internalType":"bytes","name":"result","type":"bytes"}],"internalType":"struct LayerLightClientBridge.Report","name":"","type":"tuple"}],"stateMutability":"view","type":"function"}],"evm":{"bytecode":{"linkReferences":{},"object":"60806040523480156200001157600080fd5b5060405162002d1838038062002d1883398101604081905262000034916200003d565b60025562000056565b6000602082840312156200004f578081fd5b5051919050565b612cb280620000666000396000f3fe608060405234801561001057600080fd5b506004361061012c5760003560e01c8063847c1b23116100ad578063e71296e111610071578063e71296e114610320578063f3f39ee514610333578063f61aa09d1461033c578063f8156a6e1461035c578063f953205a146103655761012c565b8063847c1b23146102a257806393a4a134146102b5578063af4b9107146102ca578063c573d977146102dd578063cc2532ba146102fd5761012c565b80635cd2458c116100f45780635cd2458c1461024b57806364c471931461026b578063679b7b9a146102735780636cf6d67514610286578063760729c31461028f5761012c565b8063071ee1e1146101315780630a4723e6146101615780630ac804c5146101815780631b60f867146101a25780632ff08eb51461022b575b600080fd5b61014461013f36600461231a565b6103cd565b6040516001600160a01b0390911681526020015b60405180910390f35b61017461016f3660046120b8565b610560565b60405161015891906127f6565b61019461018f366004612234565b610594565b604051908152602001610158565b6101b56101b0366004612070565b61067e565b60405161015891906000610100820190508251825260208301516001600160401b038082166020850152806040860151166040850152505063ffffffff60608401511660608301526080830151608083015260a083015160a083015260c083015160c083015260e083015160e083015292915050565b61023e6102393660046122e8565b6106c4565b6040516101589190612958565b61025e6102593660046120ea565b6106ec565b60405161015891906127b4565b61025e6107fd565b61025e610281366004612234565b61088b565b61019460025481565b61019461029d366004612234565b6108f9565b6101946102b036600461208c565b6109fb565b6102c86102c3366004611f9a565b610ab4565b005b6102c86102d8366004612191565b610c1c565b6102f06102eb3660046123b5565b610d60565b604051610158919061282f565b61031061030b36600461224f565b610f83565b6040519015158152602001610158565b61019461032e366004612234565b611164565b61019460035481565b61019461034a366004611f73565b60046020526000908152604090205481565b61019460015481565b6103a461037336600461239d565b600560205260009081526040902080546001909101546001600160401b03811690600160401b900463ffffffff1683565b604080519384526001600160401b03909216602084015263ffffffff1690820152606001610158565b60008360600151516006111580156103eb5750600c84606001515111155b61044a5760405162461bcd60e51b815260206004820152602560248201527f544d5369676e61747572653a20496e76616c69642074696d657374616d7027736044820152642073697a6560d81b60648201526084015b60405180910390fd5b6060840151805160405160009261046b928792602a9290889060200161260c565b60405160208183030381529060405290506001600282518360405160200161049492919061269f565b60408051601f19818403018152908290526104ae916124e3565b602060405180830381855afa1580156104cb573d6000803e3d6000fd5b5050506040513d601f19601f820116820180604052508101906104ee9190612058565b60408088015188516020808b01518451600081529091019384905261052a94845260ff9290921660208401526040830152606082015260800190565b6020604051602081039080840390855afa15801561054c573d6000803e3d6000fd5b5050604051601f1901519695505050505050565b6040805180820190915260608082526020820152815161057f90611195565b61058c8260200151611195565b50805b919050565b60008061067761066d84608001516106688660600151610668886040015161066861065e60028c600001516040516020016105d191815260200190565b60408051601f19818403018152908290526105eb916124e3565b602060405180830381855afa158015610608573d6000803e3d6000fd5b5050506040513d601f19601f8201168201806040525081019061062b9190612058565b60405166437b930b1b632960c51b602082015260288101919091526048015b6040516020818303038152906040526111db565b8b60200151611253565b611253565b8460a00151611253565b9392505050565b6040805161010081018252600080825260208201819052918101829052606081018290526080810182905260a0810182905260c0810182905260e081019190915261058c565b604080516080810182526000808252602082018190529181019190915260608082015261058c565b815151606090600f148061070257508251516018145b6107635760405162461bcd60e51b815260206004820152602c60248201527f436f6d6d6f6e456e636f646564566f7465506172743a20496e76616c6964207060448201526b726566697827732073697a6560a01b6064820152608401610441565b8260200151516026146107cd5760405162461bcd60e51b815260206004820152602c60248201527f436f6d6d6f6e456e636f646564566f7465506172743a20496e76616c6964207360448201526b756666697827732073697a6560a01b6064820152608401610441565b82516020808501516040516107e69392869291016124ff565b604051602081830303815290604052905092915050565b6000805461080a90612bd3565b80601f016020809104026020016040519081016040528092919081815260200182805461083690612bd3565b80156108835780601f1061085857610100808354040283529160200191610883565b820191906000526020600020905b81548152906001019060200180831161086657829003601f168201915b505050505081565b6060816000015182602001518360400151846060015185608001518660a001516040516020016108e396959493929190958652602086019490945260408501929092526060840152608083015260a082015260c00190565b6040516020818303038152906040529050919050565b6000806109956002846000015160405160200161091891815260200190565b60408051601f1981840301815290829052610932916124e3565b602060405180830381855afa15801561094f573d6000803e3d6000fd5b5050506040513d601f19601f820116820180604052508101906109729190612058565b60405166337b930b1b632960c51b6020820152602881019190915260480161064a565b905060006109a7828560200151611253565b905060006109b9856040015183611253565b905060006109cb866060015183611253565b905060006109dd876080015183611253565b905060006109ef828960a00151611253565b98975050505050505050565b600080610aac610a5f610a558660000151610668610a3b6008610a2a8b602001516001600160401b03166112d1565b60405160200161064a92919061269f565b610668610a508b604001518c60600151611403565b6111db565b8660800151611253565b60a0860151604051600560f91b6020820152600160fd1b60218201526022810187905261066891610aa2918390610a989060420161064a565b8a60c00151611253565b8760e00151611253565b949350505050565b60008054610ac190612bd3565b159050610b065760405162461bcd60e51b8152602060048201526013602482015272105b1c9958591e481a5b9a5d1a585b1a5e9959606a1b6044820152606401610441565b60005b85811015610bdb57848482818110610b3157634e487b7160e01b600052603260045260246000fd5b9050602002013560046000898985818110610b5c57634e487b7160e01b600052603260045260246000fd5b9050602002016020810190610b719190611f73565b6001600160a01b03168152602081019190915260400160002055848482818110610bab57634e487b7160e01b600052603260045260246000fd5b9050602002013560016000828254610bc391906129c4565b90915550819050610bd381612c0e565b915050610b09565b508181604051602001610bef9291906127c7565b60405160208183030381529060405260009080519060200190610c13929190611bbc565b50505050505050565b610c50610c2e36879003870187612234565b610c3d36879003870187612070565b610c4686612a72565b61030b8587612a65565b610c9c5760405162461bcd60e51b815260206004820152601460248201527f496e76616c696420626c6f636b206865616465720000000000000000000000006044820152606401610441565b604051806060016040528086600001358152602001856040016020810190610cc4919061247b565b6001600160401b03168152602001610ce26080870160608801612461565b63ffffffff16905260056000610cfe604088016020890161247b565b6001600160401b0390811682526020808301939093526040918201600020845181559284015160019093018054949092015163ffffffff16600160401b026bffffffffffffffffffffffff199094169216919091179190911790555050505050565b610dbf6040805161016081018252606080825260006020830181905292820181905281018290526080810182905260a0810182905260c0810182905260e081018290526101008101829052906101208201908152602001606081525090565b60008681526005602052604090205480610e1b5760405162461bcd60e51b815260206004820152601660248201527f4e6f20726f6f74206174207468697320686569676874000000000000000000006044820152606401610441565b60006002610e30610e2b89612a7e565b611480565b604051610e3d91906124e3565b602060405180830381855afa158015610e5a573d6000803e3d6000fd5b5050506040513d601f19601f82011682018060405250810190610e7d9190612058565b9050610f3e828760ff610e9660c08c0160a08d0161247b565b604051602001610edd92919060f89290921b6001600160f81b031916825260c01b77ffffffffffffffffffffffffffffffffffffffffffffffff1916600182015260090190565b60408051601f1981840301815260208a8102840181019092528983529186918b908b90819060009085015b82821015610f3457610f2560a0830286013681900381019061212c565b81526020019060010190610f08565b5050505050611829565b610f7a5760405162461bcd60e51b815260206004820152600d60248201526c24b73b30b634b210383937b7b360991b6044820152606401610441565b6109ef87612a7e565b600080610f8f86611164565b90506000610f9d86836109fb565b90506000610fab86836106ec565b90506000808054610fbb90612bd3565b80601f0160208091040260200160405190810160405280929190818152602001828054610fe790612bd3565b80156110345780601f1061100957610100808354040283529160200191611034565b820191906000526020600020905b81548152906001019060200180831161101757829003601f168201915b5050505050905060008060005b885181101561113957600061107e8a838151811061106f57634e487b7160e01b600052603260045260246000fd5b602002602001015187876103cd565b9050836001600160a01b0316816001600160a01b0316116110e15760405162461bcd60e51b815260206004820152601460248201527f496e76616c6964207369676e6572206f726465720000000000000000000000006044820152606401610441565b6001600160a01b03811660009081526004602052604090205415611125576001600160a01b03811660009081526004602052604090205461112290846129c4565b92505b92508061113181612c0e565b915050611041565b50600154611148906002612a07565b611153826003612a07565b10159b9a5050505050505050505050565b6000806111836002846000015160405160200161091891815260200190565b905060006109a7846020015183611253565b6111d8816040516024016111a991906127b4565b60408051601f198184030181529190526020810180516001600160e01b03166305f3bfab60e11b179052611917565b50565b600060026000836040516020016111f392919061269f565b60408051601f198184030181529082905261120d916124e3565b602060405180830381855afa15801561122a573d6000803e3d6000fd5b5050506040513d601f19601f8201168201806040525081019061124d9190612058565b92915050565b604051600160f81b6020820152602181018390526041810182905260009060029060610160408051601f1981840301815290829052611291916124e3565b602060405180830381855afa1580156112ae573d6000803e3d6000fd5b5050506040513d601f19601f820116820180604052508101906106779190612058565b60608160005b81156112f4576112e681612c0e565b9050600782901c91506112d7565b6000816001600160401b0381111561131c57634e487b7160e01b600052604160045260246000fd5b6040519080825280601f01601f191660200182016040528015611346576020820181803683370190505b50905084925060005b828110156113af5783607f1660801760f81b82828151811061138157634e487b7160e01b600052603260045260246000fd5b60200101906001600160f81b031916908160001a90535060079390931c926113a881612c0e565b905061134f565b50607f60f81b816113c1600185612a26565b815181106113df57634e487b7160e01b600052603260045260246000fd5b0160200180519091166001600160f81b03191690600082901a905350949350505050565b60606000611419846001600160401b03166112d1565b6040516020016114299190612675565b60408051601f19818403018152919052905063ffffffff83161561067757806114578463ffffffff166112d1565b6040516020016114689291906125d0565b60405160208183030381529060405290509392505050565b8051516060908190156114ce578061149b600160025b611920565b8451516114a790611948565b85516040516114bc9493929190602001612579565b60405160208183030381529060405290505b60208301516001600160401b03161561151f57806114ee60026000611496565b6114fb8560200151611948565b60405160200161150d93929190612536565b60405160208183030381529060405290505b6040830151511561156f578061153760036002611496565b611545856040015151611948565b856040015160405160200161155d9493929190612579565b60405160208183030381529060405290505b60608301516001600160401b0316156115c0578061158f60046000611496565b61159c8560600151611948565b6040516020016115ae93929190612536565b60405160208183030381529060405290505b60808301516001600160401b03161561161157806115e060056000611496565b6115ed8560800151611948565b6040516020016115ff93929190612536565b60405160208183030381529060405290505b60a08301516001600160401b031615611662578061163160066000611496565b61163e8560a00151611948565b60405160200161165093929190612536565b60405160208183030381529060405290505b60c08301516001600160401b0316156116b3578061168260076000611496565b61168f8560c00151611948565b6040516020016116a193929190612536565b60405160208183030381529060405290505b60e08301516001600160401b03161561170457806116d360086000611496565b6116e08560e00151611948565b6040516020016116f293929190612536565b60405160208183030381529060405290505b6101008301516001600160401b031615611757578061172560096000611496565b611733856101000151611948565b60405160200161174593929190612536565b60405160208183030381529060405290505b826101200151600381111561177c57634e487b7160e01b600052602160045260246000fd5b6001600160401b0316156117e85780611797600a6000611496565b6117c485610120015160038111156117bf57634e487b7160e01b600052602160045260246000fd5b611953565b6040516020016117d693929190612536565b60405160208183030381529060405290505b610140830151511561124d5780611801600b6002611496565b61181085610140015151611948565b8561014001516040516020016107e69493929190612579565b600080611835866112d1565b905060006002600060028489518a60208b60405160200161185c979695949392919061273d565b60408051601f1981840301815290829052611876916124e3565b602060405180830381855afa158015611893573d6000803e3d6000fd5b5050506040513d601f19601f820116820180604052508101906118b69190612058565b905060005b8451811015611909576118f58582815181106118e757634e487b7160e01b600052603260045260246000fd5b602002602001015183611964565b91508061190181612c0e565b9150506118bb565b509096149695505050505050565b6111d881611a26565b60606807fffffffffffffff8600384901b168217600061193f82611a47565b95945050505050565b606061124d82611a47565b606061124d8263ffffffff16611a47565b6000806000846000015161197d57838560800151611984565b8460800151845b9150915060026001866020015160ff16901b6119a38760400151611ba7565b6119b08860600151611ba7565b6020866020876040516020016119cc97969594939291906126ce565b60408051601f19818403018152908290526119e6916124e3565b602060405180830381855afa158015611a03573d6000803e3d6000fd5b5050506040513d601f19601f8201168201806040525081019061193f9190612058565b60006a636f6e736f6c652e6c6f679050600080835160208501845afa505050565b60608160015b607f826001600160401b03161115611a83576007826001600160401b0316901c9150600181611a7c91906129dc565b9050611a4d565b6000816001600160401b03166001600160401b03811115611ab457634e487b7160e01b600052604160045260246000fd5b6040519080825280601f01601f191660200182016040528015611ade576020820181803683370190505b50905084925060005b826001600160401b0316816001600160401b03161015611b6e5783607f1660801760f81b82826001600160401b031681518110611b3457634e487b7160e01b600052603260045260246000fd5b60200101906001600160f81b031916908160001a9053506007846001600160401b0316901c93508080611b6690612c29565b915050611ae7565b50607f60f81b81611b80600185612a3d565b6001600160401b0316815181106113df57634e487b7160e01b600052603260045260246000fd5b606061124d611bb7836002612a07565b6112d1565b828054611bc890612bd3565b90600052602060002090601f016020900481019282611bea5760008555611c30565b82601f10611c0357805160ff1916838001178555611c30565b82800160010185558215611c30579182015b82811115611c30578251825591602001919060010190611c15565b50611c3c929150611c40565b5090565b5b80821115611c3c5760008155600101611c41565b60006001600160401b03831115611c6e57611c6e612c66565b6020611c7e818560051b01612994565b84815291508082018360005b86811015611cb157611c9f8883358801611eca565b83529183019190830190600101611c8a565b505050509392505050565b60008083601f840112611ccd578182fd5b5081356001600160401b03811115611ce3578182fd5b6020830191508360208260051b8501011115611cfe57600080fd5b9250929050565b600082601f830112611d15578081fd5b81356001600160401b03811115611d2e57611d2e612c66565b611d41601f8201601f1916602001612994565b818152846020838601011115611d55578283fd5b816020850160208301379081016020019190915292915050565b80356004811061058f57600080fd5b6000610100808385031215611d91578182fd5b611d9a81612994565b91505081358152611dad60208301611f4b565b6020820152611dbe60408301611f4b565b6040820152611dcf60608301611f37565b60608201526080820135608082015260a082013560a082015260c082013560c082015260e082013560e082015292915050565b600060408284031215611e13578081fd5b611e1d6040612994565b905081356001600160401b0380821115611e3657600080fd5b611e4285838601611d05565b83526020840135915080821115611e5857600080fd5b50611e6584828501611d05565b60208301525092915050565b600060c08284031215611e82578081fd5b611e8c60c0612994565b9050813581526020820135602082015260408201356040820152606082013560608201526080820135608082015260a082013560a082015292915050565b600060808284031215611edb578081fd5b611ee56080612994565b90508135815260208201356020820152611f0160408301611f62565b604082015260608201356001600160401b03811115611f1f57600080fd5b611f2b84828501611d05565b60608301525092915050565b803563ffffffff8116811461058f57600080fd5b80356001600160401b038116811461058f57600080fd5b803560ff8116811461058f57600080fd5b600060208284031215611f84578081fd5b81356001600160a01b0381168114610677578182fd5b60008060008060008060608789031215611fb2578182fd5b86356001600160401b0380821115611fc8578384fd5b611fd48a838b01611cbc565b90985096506020890135915080821115611fec578384fd5b611ff88a838b01611cbc565b90965094506040890135915080821115612010578384fd5b818901915089601f830112612023578384fd5b813581811115612031578485fd5b8a6020828501011115612042578485fd5b6020830194508093505050509295509295509295565b600060208284031215612069578081fd5b5051919050565b60006101008284031215612082578081fd5b6106778383611d7e565b600080610120838503121561209f578182fd5b6120a98484611d7e565b94610100939093013593505050565b6000602082840312156120c9578081fd5b81356001600160401b038111156120de578182fd5b610aac84828501611e02565b600080604083850312156120fc578182fd5b82356001600160401b03811115612111578283fd5b61211d85828601611e02565b95602094909401359450505050565b600060a0828403121561213d578081fd5b61214760a0612994565b82358015158114612156578283fd5b815261216460208401611f62565b60208201526040830135604082015260608301356060820152608083013560808201528091505092915050565b60008060008060008587036102008112156121aa578384fd5b60c08112156121b7578384fd5b86955061010060bf19820112156121cc578384fd5b5060c0860193506101c08601356001600160401b03808211156121ed578485fd5b908701906040828a031215612200578485fd5b9093506101e08701359080821115612216578283fd5b5061222388828901611cbc565b969995985093965092949392505050565b600060c08284031215612245578081fd5b6106778383611e71565b6000806000806102008587031215612265578182fd5b61226f8686611e71565b935061227e8660c08701611d7e565b92506101c08501356001600160401b038082111561229a578384fd5b6122a688838901611e02565b93506101e08701359150808211156122bc578283fd5b508501601f810187136122cd578182fd5b6122dc87823560208401611c55565b91505092959194509250565b6000602082840312156122f9578081fd5b81356001600160401b0381111561230e578182fd5b610aac84828501611eca565b60008060006060848603121561232e578081fd5b83356001600160401b0380821115612344578283fd5b61235087838801611eca565b94506020860135915080821115612365578283fd5b61237187838801611d05565b93506040860135915080821115612386578283fd5b5061239386828701611d05565b9150509250925092565b6000602082840312156123ae578081fd5b5035919050565b6000806000806000608086880312156123cc578283fd5b8535945060208601356001600160401b03808211156123e9578485fd5b90870190610160828a0312156123fd578485fd5b9094506040870135935060608701359080821115612419578283fd5b818801915088601f83011261242c578283fd5b81358181111561243a578384fd5b89602060a08302850101111561244e578384fd5b9699959850939650602001949392505050565b600060208284031215612472578081fd5b61067782611f37565b60006020828403121561248c578081fd5b61067782611f4b565b600081518084526124ad816020860160208601612ba3565b601f01601f19169290920160200192915050565b600481106124df57634e487b7160e01b600052602160045260246000fd5b9052565b600082516124f5818460208701612ba3565b9190910192915050565b60008451612511818460208901612ba3565b82018481528351612529816020808501908801612ba3565b0160200195945050505050565b60008451612548818460208901612ba3565b84519083019061255c818360208901612ba3565b845191019061256f818360208801612ba3565b0195945050505050565b6000855161258b818460208a01612ba3565b85519083019061259f818360208a01612ba3565b85519101906125b2818360208901612ba3565b84519101906125c5818360208801612ba3565b019695505050505050565b600083516125e2818460208801612ba3565b600160fc1b9083019081528351612600816001840160208801612ba3565b01600101949350505050565b6000865161261e818460208b01612ba3565b6001600160f81b031960f888811b821692850192835287901b1660018201528451612650816002840160208901612ba3565b8451910190612666816002840160208801612ba3565b01600201979650505050505050565b600160fb1b81528151600090612692816001850160208701612ba3565b9190910160010192915050565b600060ff60f81b8460f81b16825282516126c0816001850160208701612ba3565b919091016001019392505050565b600060ff60f81b808a60f81b16835288516126f0816001860160208d01612ba3565b885190840190612707816001840160208d01612ba3565b60f898891b83166001929091019182015260028101969096529390951b9092166022840152602383015250604301949350505050565b600060ff60f81b808a60f81b168352808960f81b166001840152875161276a816002860160208c01612ba3565b8084019050818860f81b166002820152865161278d816003840160208b01612ba3565b60f89690961b91909116940160038101949094525050600482015260240195945050505050565b6000602082526106776020830184612495565b60006020825282602083015282846040840137818301604090810191909152601f909201601f19160101919050565b6000602082528251604060208401526128126060840182612495565b90506020840151601f1984830301604085015261193f8282612495565b600060208252825161016080602085015261284e610180850183612495565b9150602085015161286a60408601826001600160401b03169052565b506040850151601f19808685030160608701526128878483612495565b9350606087015191506128a560808701836001600160401b03169052565b60808701516001600160401b03811660a0880152915060a08701516001600160401b03811660c0880152915060c08701516001600160401b03811660e0880152915060e08701519150610100612905818801846001600160401b03169052565b8701519150610120612921878201846001600160401b03169052565b8701519150610140612935878201846124c1565b87015186850390910183870152905061294e8382612495565b9695505050505050565b600060208252825160208301526020830151604083015260ff60408401511660608301526060830151608080840152610aac60a0840182612495565b604051601f8201601f191681016001600160401b03811182821017156129bc576129bc612c66565b604052919050565b600082198211156129d7576129d7612c50565b500190565b60006001600160401b038083168185168083038211156129fe576129fe612c50565b01949350505050565b6000816000190483118215151615612a2157612a21612c50565b500290565b600082821015612a3857612a38612c50565b500390565b60006001600160401b0383811690831681811015612a5d57612a5d612c50565b039392505050565b6000610677368484611c55565b600061124d3683611e02565b6000610160808336031215612a91578182fd5b612a9a81612994565b905082356001600160401b0380821115612ab2578384fd5b612abe36838701611d05565b8352612acc60208601611f4b565b60208401526040850135915080821115612ae4578384fd5b612af036838701611d05565b6040840152612b0160608601611f4b565b6060840152612b1260808601611f4b565b6080840152612b2360a08601611f4b565b60a0840152612b3460c08601611f4b565b60c0840152612b4560e08601611f4b565b60e08401526101009150612b5a828601611f4b565b828401526101209150612b6e828601611d6f565b8284015261014091508185013581811115612b87578485fd5b612b9336828801611d05565b8385015250505080915050919050565b60005b83811015612bbe578181015183820152602001612ba6565b83811115612bcd576000848401525b50505050565b600181811c90821680612be757607f821691505b60208210811415612c0857634e487b7160e01b600052602260045260246000fd5b50919050565b6000600019821415612c2257612c22612c50565b5060010190565b60006001600160401b0380831681811415612c4657612c46612c50565b6001019392505050565b634e487b7160e01b600052601160045260246000fd5b634e487b7160e01b600052604160045260246000fdfea2646970667358221220ecd09a4cb7a935cd7d05006056c623c9640579cd73919f8fbcc64f1ab0718dfe64736f6c63430008030033","opcodes":"PUSH1 0x80 PUSH1 0x40 MSTORE CALLVALUE DUP1 ISZERO PUSH3 0x11 JUMPI PUSH1 0x0 DUP1 REVERT JUMPDEST POP PUSH1 0x40 MLOAD PUSH3 0x2D18 CODESIZE SUB DUP1 PUSH3 0x2D18 DUP4 CODECOPY DUP2 ADD PUSH1 0x40 DUP2 SWAP1 MSTORE PUSH3 0x34 SWAP2 PUSH3 0x3D JUMP JUMPDEST PUSH1 0x2 SSTORE PUSH3 0x56 JUMP JUMPDEST PUSH1 0x0 PUSH1 0x20 DUP3 DUP5 SUB SLT ISZERO PUSH3 0x4F JUMPI DUP1 DUP2 REVERT JUMPDEST POP MLOAD SWAP2 SWAP1 POP JUMP JUMPDEST PUSH2 0x2CB2 DUP1 PUSH3 0x66 PUSH1 0x0 CODECOPY PUSH1 0x0 RETURN INVALID PUSH1 0x80 PUSH1 0x40 MSTORE CALLVALUE DUP1 ISZERO PUSH2 0x10 JUMPI PUSH1 0x0 DUP1 REVERT JUMPDEST POP PUSH1 0x4 CALLDATASIZE LT PUSH2 0x12C JUMPI PUSH1 0x0 CALLDATALOAD PUSH1 0xE0 SHR DUP1 PUSH4 0x847C1B23 GT PUSH2 0xAD JUMPI DUP1 PUSH4 0xE71296E1 GT PUSH2 0x71 JUMPI DUP1 PUSH4 0xE71296E1 EQ PUSH2 0x320 JUMPI DUP1 PUSH4 0xF3F39EE5 EQ PUSH2 0x333 JUMPI DUP1 PUSH4 0xF61AA09D EQ PUSH2 0x33C JUMPI DUP1 PUSH4 0xF8156A6E EQ PUSH2 0x35C JUMPI DUP1 PUSH4 0xF953205A EQ PUSH2 0x365 JUMPI PUSH2 0x12C JUMP JUMPDEST DUP1 PUSH4 0x847C1B23 EQ PUSH2 0x2A2 JUMPI DUP1 PUSH4 0x93A4A134 EQ PUSH2 0x2B5 JUMPI DUP1 PUSH4 0xAF4B9107 EQ PUSH2 0x2CA JUMPI DUP1 PUSH4 0xC573D977 EQ PUSH2 0x2DD JUMPI DUP1 PUSH4 0xCC2532BA EQ PUSH2 0x2FD JUMPI PUSH2 0x12C JUMP JUMPDEST DUP1 PUSH4 0x5CD2458C GT PUSH2 0xF4 JUMPI DUP1 PUSH4 0x5CD2458C EQ PUSH2 0x24B JUMPI DUP1 PUSH4 0x64C47193 EQ PUSH2 0x26B JUMPI DUP1 PUSH4 0x679B7B9A EQ PUSH2 0x273 JUMPI DUP1 PUSH4 0x6CF6D675 EQ PUSH2 0x286 JUMPI DUP1 PUSH4 0x760729C3 EQ PUSH2 0x28F JUMPI PUSH2 0x12C JUMP JUMPDEST DUP1 PUSH4 0x71EE1E1 EQ PUSH2 0x131 JUMPI DUP1 PUSH4 0xA4723E6 EQ PUSH2 0x161 JUMPI DUP1 PUSH4 0xAC804C5 EQ PUSH2 0x181 JUMPI DUP1 PUSH4 0x1B60F867 EQ PUSH2 0x1A2 JUMPI DUP1 PUSH4 0x2FF08EB5 EQ PUSH2 0x22B JUMPI JUMPDEST PUSH1 0x0 DUP1 REVERT JUMPDEST PUSH2 0x144 PUSH2 0x13F CALLDATASIZE PUSH1 0x4 PUSH2 0x231A JUMP JUMPDEST PUSH2 0x3CD JUMP JUMPDEST PUSH1 0x40 MLOAD PUSH1 0x1 PUSH1 0x1 PUSH1 0xA0 SHL SUB SWAP1 SWAP2 AND DUP2 MSTORE PUSH1 0x20 ADD JUMPDEST PUSH1 0x40 MLOAD DUP1 SWAP2 SUB SWAP1 RETURN JUMPDEST PUSH2 0x174 PUSH2 0x16F CALLDATASIZE PUSH1 0x4 PUSH2 0x20B8 JUMP JUMPDEST PUSH2 0x560 JUMP JUMPDEST PUSH1 0x40 MLOAD PUSH2 0x158 SWAP2 SWAP1 PUSH2 0x27F6 JUMP JUMPDEST PUSH2 0x194 PUSH2 0x18F CALLDATASIZE PUSH1 0x4 PUSH2 0x2234 JUMP JUMPDEST PUSH2 0x594 JUMP JUMPDEST PUSH1 0x40 MLOAD SWAP1 DUP2 MSTORE PUSH1 0x20 ADD PUSH2 0x158 JUMP JUMPDEST PUSH2 0x1B5 PUSH2 0x1B0 CALLDATASIZE PUSH1 0x4 PUSH2 0x2070 JUMP JUMPDEST PUSH2 0x67E JUMP JUMPDEST PUSH1 0x40 MLOAD PUSH2 0x158 SWAP2 SWAP1 PUSH1 0x0 PUSH2 0x100 DUP3 ADD SWAP1 POP DUP3 MLOAD DUP3 MSTORE PUSH1 0x20 DUP4 ADD MLOAD PUSH1 0x1 PUSH1 0x1 PUSH1 0x40 SHL SUB DUP1 DUP3 AND PUSH1 0x20 DUP6 ADD MSTORE DUP1 PUSH1 0x40 DUP7 ADD MLOAD AND PUSH1 0x40 DUP6 ADD MSTORE POP POP PUSH4 0xFFFFFFFF PUSH1 0x60 DUP5 ADD MLOAD AND PUSH1 0x60 DUP4 ADD MSTORE PUSH1 0x80 DUP4 ADD MLOAD PUSH1 0x80 DUP4 ADD MSTORE PUSH1 0xA0 DUP4 ADD MLOAD PUSH1 0xA0 DUP4 ADD MSTORE PUSH1 0xC0 DUP4 ADD MLOAD PUSH1 0xC0 DUP4 ADD MSTORE PUSH1 0xE0 DUP4 ADD MLOAD PUSH1 0xE0 DUP4 ADD MSTORE SWAP3 SWAP2 POP POP JUMP JUMPDEST PUSH2 0x23E PUSH2 0x239 CALLDATASIZE PUSH1 0x4 PUSH2 0x22E8 JUMP JUMPDEST PUSH2 0x6C4 JUMP JUMPDEST PUSH1 0x40 MLOAD PUSH2 0x158 SWAP2 SWAP1 PUSH2 0x2958 JUMP JUMPDEST PUSH2 0x25E PUSH2 0x259 CALLDATASIZE PUSH1 0x4 PUSH2 0x20EA JUMP JUMPDEST PUSH2 0x6EC JUMP JUMPDEST PUSH1 0x40 MLOAD PUSH2 0x158 SWAP2 SWAP1 PUSH2 0x27B4 JUMP JUMPDEST PUSH2 0x25E PUSH2 0x7FD JUMP JUMPDEST PUSH2 0x25E PUSH2 0x281 CALLDATASIZE PUSH1 0x4 PUSH2 0x2234 JUMP JUMPDEST PUSH2 0x88B JUMP JUMPDEST PUSH2 0x194 PUSH1 0x2 SLOAD DUP2 JUMP JUMPDEST PUSH2 0x194 PUSH2 0x29D CALLDATASIZE PUSH1 0x4 PUSH2 0x2234 JUMP JUMPDEST PUSH2 0x8F9 JUMP JUMPDEST PUSH2 0x194 PUSH2 0x2B0 CALLDATASIZE PUSH1 0x4 PUSH2 0x208C JUMP JUMPDEST PUSH2 0x9FB JUMP JUMPDEST PUSH2 0x2C8 PUSH2 0x2C3 CALLDATASIZE PUSH1 0x4 PUSH2 0x1F9A JUMP JUMPDEST PUSH2 0xAB4 JUMP JUMPDEST STOP JUMPDEST PUSH2 0x2C8 PUSH2 0x2D8 CALLDATASIZE PUSH1 0x4 PUSH2 0x2191 JUMP JUMPDEST PUSH2 0xC1C JUMP JUMPDEST PUSH2 0x2F0 PUSH2 0x2EB CALLDATASIZE PUSH1 0x4 PUSH2 0x23B5 JUMP JUMPDEST PUSH2 0xD60 JUMP JUMPDEST PUSH1 0x40 MLOAD PUSH2 0x158 SWAP2 SWAP1 PUSH2 0x282F JUMP JUMPDEST PUSH2 0x310 PUSH2 0x30B CALLDATASIZE PUSH1 0x4 PUSH2 0x224F JUMP JUMPDEST PUSH2 0xF83 JUMP JUMPDEST PUSH1 0x40 MLOAD SWAP1 ISZERO ISZERO DUP2 MSTORE PUSH1 0x20 ADD PUSH2 0x158 JUMP JUMPDEST PUSH2 0x194 PUSH2 0x32E CALLDATASIZE PUSH1 0x4 PUSH2 0x2234 JUMP JUMPDEST PUSH2 0x1164 JUMP JUMPDEST PUSH2 0x194 PUSH1 0x3 SLOAD DUP2 JUMP JUMPDEST PUSH2 0x194 PUSH2 0x34A CALLDATASIZE PUSH1 0x4 PUSH2 0x1F73 JUMP JUMPDEST PUSH1 0x4 PUSH1 0x20 MSTORE PUSH1 0x0 SWAP1 DUP2 MSTORE PUSH1 0x40 SWAP1 KECCAK256 SLOAD DUP2 JUMP JUMPDEST PUSH2 0x194 PUSH1 0x1 SLOAD DUP2 JUMP JUMPDEST PUSH2 0x3A4 PUSH2 0x373 CALLDATASIZE PUSH1 0x4 PUSH2 0x239D JUMP JUMPDEST PUSH1 0x5 PUSH1 0x20 MSTORE PUSH1 0x0 SWAP1 DUP2 MSTORE PUSH1 0x40 SWAP1 KECCAK256 DUP1 SLOAD PUSH1 0x1 SWAP1 SWAP2 ADD SLOAD PUSH1 0x1 PUSH1 0x1 PUSH1 0x40 SHL SUB DUP2 AND SWAP1 PUSH1 0x1 PUSH1 0x40 SHL SWAP1 DIV PUSH4 0xFFFFFFFF AND DUP4 JUMP JUMPDEST PUSH1 0x40 DUP1 MLOAD SWAP4 DUP5 MSTORE PUSH1 0x1 PUSH1 0x1 PUSH1 0x40 SHL SUB SWAP1 SWAP3 AND PUSH1 0x20 DUP5 ADD MSTORE PUSH4 0xFFFFFFFF AND SWAP1 DUP3 ADD MSTORE PUSH1 0x60 ADD PUSH2 0x158 JUMP JUMPDEST PUSH1 0x0 DUP4 PUSH1 0x60 ADD MLOAD MLOAD PUSH1 0x6 GT ISZERO DUP1 ISZERO PUSH2 0x3EB JUMPI POP PUSH1 0xC DUP5 PUSH1 0x60 ADD MLOAD MLOAD GT ISZERO JUMPDEST PUSH2 0x44A JUMPI PUSH1 0x40 MLOAD PUSH3 0x461BCD PUSH1 0xE5 SHL DUP2 MSTORE PUSH1 0x20 PUSH1 0x4 DUP3 ADD MSTORE PUSH1 0x25 PUSH1 0x24 DUP3 ADD MSTORE PUSH32 0x544D5369676E61747572653A20496E76616C69642074696D657374616D702773 PUSH1 0x44 DUP3 ADD MSTORE PUSH5 0x2073697A65 PUSH1 0xD8 SHL PUSH1 0x64 DUP3 ADD MSTORE PUSH1 0x84 ADD JUMPDEST PUSH1 0x40 MLOAD DUP1 SWAP2 SUB SWAP1 REVERT JUMPDEST PUSH1 0x60 DUP5 ADD MLOAD DUP1 MLOAD PUSH1 0x40 MLOAD PUSH1 0x0 SWAP3 PUSH2 0x46B SWAP3 DUP8 SWAP3 PUSH1 0x2A SWAP3 SWAP1 DUP9 SWAP1 PUSH1 0x20 ADD PUSH2 0x260C JUMP JUMPDEST PUSH1 0x40 MLOAD PUSH1 0x20 DUP2 DUP4 SUB SUB DUP2 MSTORE SWAP1 PUSH1 0x40 MSTORE SWAP1 POP PUSH1 0x1 PUSH1 0x2 DUP3 MLOAD DUP4 PUSH1 0x40 MLOAD PUSH1 0x20 ADD PUSH2 0x494 SWAP3 SWAP2 SWAP1 PUSH2 0x269F JUMP JUMPDEST PUSH1 0x40 DUP1 MLOAD PUSH1 0x1F NOT DUP2 DUP5 SUB ADD DUP2 MSTORE SWAP1 DUP3 SWAP1 MSTORE PUSH2 0x4AE SWAP2 PUSH2 0x24E3 JUMP JUMPDEST PUSH1 0x20 PUSH1 0x40 MLOAD DUP1 DUP4 SUB DUP2 DUP6 GAS STATICCALL ISZERO DUP1 ISZERO PUSH2 0x4CB JUMPI RETURNDATASIZE PUSH1 0x0 DUP1 RETURNDATACOPY RETURNDATASIZE PUSH1 0x0 REVERT JUMPDEST POP POP POP PUSH1 0x40 MLOAD RETURNDATASIZE PUSH1 0x1F NOT PUSH1 0x1F DUP3 ADD AND DUP3 ADD DUP1 PUSH1 0x40 MSTORE POP DUP2 ADD SWAP1 PUSH2 0x4EE SWAP2 SWAP1 PUSH2 0x2058 JUMP JUMPDEST PUSH1 0x40 DUP1 DUP9 ADD MLOAD DUP9 MLOAD PUSH1 0x20 DUP1 DUP12 ADD MLOAD DUP5 MLOAD PUSH1 0x0 DUP2 MSTORE SWAP1 SWAP2 ADD SWAP4 DUP5 SWAP1 MSTORE PUSH2 0x52A SWAP5 DUP5 MSTORE PUSH1 0xFF SWAP3 SWAP1 SWAP3 AND PUSH1 0x20 DUP5 ADD MSTORE PUSH1 0x40 DUP4 ADD MSTORE PUSH1 0x60 DUP3 ADD MSTORE PUSH1 0x80 ADD SWAP1 JUMP JUMPDEST PUSH1 0x20 PUSH1 0x40 MLOAD PUSH1 0x20 DUP2 SUB SWAP1 DUP1 DUP5 SUB SWAP1 DUP6 GAS STATICCALL ISZERO DUP1 ISZERO PUSH2 0x54C JUMPI RETURNDATASIZE PUSH1 0x0 DUP1 RETURNDATACOPY RETURNDATASIZE PUSH1 0x0 REVERT JUMPDEST POP POP PUSH1 0x40 MLOAD PUSH1 0x1F NOT ADD MLOAD SWAP7 SWAP6 POP POP POP POP POP POP JUMP JUMPDEST PUSH1 0x40 DUP1 MLOAD DUP1 DUP3 ADD SWAP1 SWAP2 MSTORE PUSH1 0x60 DUP1 DUP3 MSTORE PUSH1 0x20 DUP3 ADD MSTORE DUP2 MLOAD PUSH2 0x57F SWAP1 PUSH2 0x1195 JUMP JUMPDEST PUSH2 0x58C DUP3 PUSH1 0x20 ADD MLOAD PUSH2 0x1195 JUMP JUMPDEST POP DUP1 JUMPDEST SWAP2 SWAP1 POP JUMP JUMPDEST PUSH1 0x0 DUP1 PUSH2 0x677 PUSH2 0x66D DUP5 PUSH1 0x80 ADD MLOAD PUSH2 0x668 DUP7 PUSH1 0x60 ADD MLOAD PUSH2 0x668 DUP9 PUSH1 0x40 ADD MLOAD PUSH2 0x668 PUSH2 0x65E PUSH1 0x2 DUP13 PUSH1 0x0 ADD MLOAD PUSH1 0x40 MLOAD PUSH1 0x20 ADD PUSH2 0x5D1 SWAP2 DUP2 MSTORE PUSH1 0x20 ADD SWAP1 JUMP JUMPDEST PUSH1 0x40 DUP1 MLOAD PUSH1 0x1F NOT DUP2 DUP5 SUB ADD DUP2 MSTORE SWAP1 DUP3 SWAP1 MSTORE PUSH2 0x5EB SWAP2 PUSH2 0x24E3 JUMP JUMPDEST PUSH1 0x20 PUSH1 0x40 MLOAD DUP1 DUP4 SUB DUP2 DUP6 GAS STATICCALL ISZERO DUP1 ISZERO PUSH2 0x608 JUMPI RETURNDATASIZE PUSH1 0x0 DUP1 RETURNDATACOPY RETURNDATASIZE PUSH1 0x0 REVERT JUMPDEST POP POP POP PUSH1 0x40 MLOAD RETURNDATASIZE PUSH1 0x1F NOT PUSH1 0x1F DUP3 ADD AND DUP3 ADD DUP1 PUSH1 0x40 MSTORE POP DUP2 ADD SWAP1 PUSH2 0x62B SWAP2 SWAP1 PUSH2 0x2058 JUMP JUMPDEST PUSH1 0x40 MLOAD PUSH7 0x437B930B1B6329 PUSH1 0xC5 SHL PUSH1 0x20 DUP3 ADD MSTORE PUSH1 0x28 DUP2 ADD SWAP2 SWAP1 SWAP2 MSTORE PUSH1 0x48 ADD JUMPDEST PUSH1 0x40 MLOAD PUSH1 0x20 DUP2 DUP4 SUB SUB DUP2 MSTORE SWAP1 PUSH1 0x40 MSTORE PUSH2 0x11DB JUMP JUMPDEST DUP12 PUSH1 0x20 ADD MLOAD PUSH2 0x1253 JUMP JUMPDEST PUSH2 0x1253 JUMP JUMPDEST DUP5 PUSH1 0xA0 ADD MLOAD PUSH2 0x1253 JUMP JUMPDEST SWAP4 SWAP3 POP POP POP JUMP JUMPDEST PUSH1 0x40 DUP1 MLOAD PUSH2 0x100 DUP2 ADD DUP3 MSTORE PUSH1 0x0 DUP1 DUP3 MSTORE PUSH1 0x20 DUP3 ADD DUP2 SWAP1 MSTORE SWAP2 DUP2 ADD DUP3 SWAP1 MSTORE PUSH1 0x60 DUP2 ADD DUP3 SWAP1 MSTORE PUSH1 0x80 DUP2 ADD DUP3 SWAP1 MSTORE PUSH1 0xA0 DUP2 ADD DUP3 SWAP1 MSTORE PUSH1 0xC0 DUP2 ADD DUP3 SWAP1 MSTORE PUSH1 0xE0 DUP2 ADD SWAP2 SWAP1 SWAP2 MSTORE PUSH2 0x58C JUMP JUMPDEST PUSH1 0x40 DUP1 MLOAD PUSH1 0x80 DUP2 ADD DUP3 MSTORE PUSH1 0x0 DUP1 DUP3 MSTORE PUSH1 0x20 DUP3 ADD DUP2 SWAP1 MSTORE SWAP2 DUP2 ADD SWAP2 SWAP1 SWAP2 MSTORE PUSH1 0x60 DUP1 DUP3 ADD MSTORE PUSH2 0x58C JUMP JUMPDEST DUP2 MLOAD MLOAD PUSH1 0x60 SWAP1 PUSH1 0xF EQ DUP1 PUSH2 0x702 JUMPI POP DUP3 MLOAD MLOAD PUSH1 0x18 EQ JUMPDEST PUSH2 0x763 JUMPI PUSH1 0x40 MLOAD PUSH3 0x461BCD PUSH1 0xE5 SHL DUP2 MSTORE PUSH1 0x20 PUSH1 0x4 DUP3 ADD MSTORE PUSH1 0x2C PUSH1 0x24 DUP3 ADD MSTORE PUSH32 0x436F6D6D6F6E456E636F646564566F7465506172743A20496E76616C69642070 PUSH1 0x44 DUP3 ADD MSTORE PUSH12 0x726566697827732073697A65 PUSH1 0xA0 SHL PUSH1 0x64 DUP3 ADD MSTORE PUSH1 0x84 ADD PUSH2 0x441 JUMP JUMPDEST DUP3 PUSH1 0x20 ADD MLOAD MLOAD PUSH1 0x26 EQ PUSH2 0x7CD JUMPI PUSH1 0x40 MLOAD PUSH3 0x461BCD PUSH1 0xE5 SHL DUP2 MSTORE PUSH1 0x20 PUSH1 0x4 DUP3 ADD MSTORE PUSH1 0x2C PUSH1 0x24 DUP3 ADD MSTORE PUSH32 0x436F6D6D6F6E456E636F646564566F7465506172743A20496E76616C69642073 PUSH1 0x44 DUP3 ADD MSTORE PUSH12 0x756666697827732073697A65 PUSH1 0xA0 SHL PUSH1 0x64 DUP3 ADD MSTORE PUSH1 0x84 ADD PUSH2 0x441 JUMP JUMPDEST DUP3 MLOAD PUSH1 0x20 DUP1 DUP6 ADD MLOAD PUSH1 0x40 MLOAD PUSH2 0x7E6 SWAP4 SWAP3 DUP7 SWAP3 SWAP2 ADD PUSH2 0x24FF JUMP JUMPDEST PUSH1 0x40 MLOAD PUSH1 0x20 DUP2 DUP4 SUB SUB DUP2 MSTORE SWAP1 PUSH1 0x40 MSTORE SWAP1 POP SWAP3 SWAP2 POP POP JUMP JUMPDEST PUSH1 0x0 DUP1 SLOAD PUSH2 0x80A SWAP1 PUSH2 0x2BD3 JUMP JUMPDEST DUP1 PUSH1 0x1F ADD PUSH1 0x20 DUP1 SWAP2 DIV MUL PUSH1 0x20 ADD PUSH1 0x40 MLOAD SWAP1 DUP2 ADD PUSH1 0x40 MSTORE DUP1 SWAP3 SWAP2 SWAP1 DUP2 DUP2 MSTORE PUSH1 0x20 ADD DUP3 DUP1 SLOAD PUSH2 0x836 SWAP1 PUSH2 0x2BD3 JUMP JUMPDEST DUP1 ISZERO PUSH2 0x883 JUMPI DUP1 PUSH1 0x1F LT PUSH2 0x858 JUMPI PUSH2 0x100 DUP1 DUP4 SLOAD DIV MUL DUP4 MSTORE SWAP2 PUSH1 0x20 ADD SWAP2 PUSH2 0x883 JUMP JUMPDEST DUP3 ADD SWAP2 SWAP1 PUSH1 0x0 MSTORE PUSH1 0x20 PUSH1 0x0 KECCAK256 SWAP1 JUMPDEST DUP2 SLOAD DUP2 MSTORE SWAP1 PUSH1 0x1 ADD SWAP1 PUSH1 0x20 ADD DUP1 DUP4 GT PUSH2 0x866 JUMPI DUP3 SWAP1 SUB PUSH1 0x1F AND DUP3 ADD SWAP2 JUMPDEST POP POP POP POP POP DUP2 JUMP JUMPDEST PUSH1 0x60 DUP2 PUSH1 0x0 ADD MLOAD DUP3 PUSH1 0x20 ADD MLOAD DUP4 PUSH1 0x40 ADD MLOAD DUP5 PUSH1 0x60 ADD MLOAD DUP6 PUSH1 0x80 ADD MLOAD DUP7 PUSH1 0xA0 ADD MLOAD PUSH1 0x40 MLOAD PUSH1 0x20 ADD PUSH2 0x8E3 SWAP7 SWAP6 SWAP5 SWAP4 SWAP3 SWAP2 SWAP1 SWAP6 DUP7 MSTORE PUSH1 0x20 DUP7 ADD SWAP5 SWAP1 SWAP5 MSTORE PUSH1 0x40 DUP6 ADD SWAP3 SWAP1 SWAP3 MSTORE PUSH1 0x60 DUP5 ADD MSTORE PUSH1 0x80 DUP4 ADD MSTORE PUSH1 0xA0 DUP3 ADD MSTORE PUSH1 0xC0 ADD SWAP1 JUMP JUMPDEST PUSH1 0x40 MLOAD PUSH1 0x20 DUP2 DUP4 SUB SUB DUP2 MSTORE SWAP1 PUSH1 0x40 MSTORE SWAP1 POP SWAP2 SWAP1 POP JUMP JUMPDEST PUSH1 0x0 DUP1 PUSH2 0x995 PUSH1 0x2 DUP5 PUSH1 0x0 ADD MLOAD PUSH1 0x40 MLOAD PUSH1 0x20 ADD PUSH2 0x918 SWAP2 DUP2 MSTORE PUSH1 0x20 ADD SWAP1 JUMP JUMPDEST PUSH1 0x40 DUP1 MLOAD PUSH1 0x1F NOT DUP2 DUP5 SUB ADD DUP2 MSTORE SWAP1 DUP3 SWAP1 MSTORE PUSH2 0x932 SWAP2 PUSH2 0x24E3 JUMP JUMPDEST PUSH1 0x20 PUSH1 0x40 MLOAD DUP1 DUP4 SUB DUP2 DUP6 GAS STATICCALL ISZERO DUP1 ISZERO PUSH2 0x94F JUMPI RETURNDATASIZE PUSH1 0x0 DUP1 RETURNDATACOPY RETURNDATASIZE PUSH1 0x0 REVERT JUMPDEST POP POP POP PUSH1 0x40 MLOAD RETURNDATASIZE PUSH1 0x1F NOT PUSH1 0x1F DUP3 ADD AND DUP3 ADD DUP1 PUSH1 0x40 MSTORE POP DUP2 ADD SWAP1 PUSH2 0x972 SWAP2 SWAP1 PUSH2 0x2058 JUMP JUMPDEST PUSH1 0x40 MLOAD PUSH7 0x337B930B1B6329 PUSH1 0xC5 SHL PUSH1 0x20 DUP3 ADD MSTORE PUSH1 0x28 DUP2 ADD SWAP2 SWAP1 SWAP2 MSTORE PUSH1 0x48 ADD PUSH2 0x64A JUMP JUMPDEST SWAP1 POP PUSH1 0x0 PUSH2 0x9A7 DUP3 DUP6 PUSH1 0x20 ADD MLOAD PUSH2 0x1253 JUMP JUMPDEST SWAP1 POP PUSH1 0x0 PUSH2 0x9B9 DUP6 PUSH1 0x40 ADD MLOAD DUP4 PUSH2 0x1253 JUMP JUMPDEST SWAP1 POP PUSH1 0x0 PUSH2 0x9CB DUP7 PUSH1 0x60 ADD MLOAD DUP4 PUSH2 0x1253 JUMP JUMPDEST SWAP1 POP PUSH1 0x0 PUSH2 0x9DD DUP8 PUSH1 0x80 ADD MLOAD DUP4 PUSH2 0x1253 JUMP JUMPDEST SWAP1 POP PUSH1 0x0 PUSH2 0x9EF DUP3 DUP10 PUSH1 0xA0 ADD MLOAD PUSH2 0x1253 JUMP JUMPDEST SWAP9 SWAP8 POP POP POP POP POP POP POP POP JUMP JUMPDEST PUSH1 0x0 DUP1 PUSH2 0xAAC PUSH2 0xA5F PUSH2 0xA55 DUP7 PUSH1 0x0 ADD MLOAD PUSH2 0x668 PUSH2 0xA3B PUSH1 0x8 PUSH2 0xA2A DUP12 PUSH1 0x20 ADD MLOAD PUSH1 0x1 PUSH1 0x1 PUSH1 0x40 SHL SUB AND PUSH2 0x12D1 JUMP JUMPDEST PUSH1 0x40 MLOAD PUSH1 0x20 ADD PUSH2 0x64A SWAP3 SWAP2 SWAP1 PUSH2 0x269F JUMP JUMPDEST PUSH2 0x668 PUSH2 0xA50 DUP12 PUSH1 0x40 ADD MLOAD DUP13 PUSH1 0x60 ADD MLOAD PUSH2 0x1403 JUMP JUMPDEST PUSH2 0x11DB JUMP JUMPDEST DUP7 PUSH1 0x80 ADD MLOAD PUSH2 0x1253 JUMP JUMPDEST PUSH1 0xA0 DUP7 ADD MLOAD PUSH1 0x40 MLOAD PUSH1 0x5 PUSH1 0xF9 SHL PUSH1 0x20 DUP3 ADD MSTORE PUSH1 0x1 PUSH1 0xFD SHL PUSH1 0x21 DUP3 ADD MSTORE PUSH1 0x22 DUP2 ADD DUP8 SWAP1 MSTORE PUSH2 0x668 SWAP2 PUSH2 0xAA2 SWAP2 DUP4 SWAP1 PUSH2 0xA98 SWAP1 PUSH1 0x42 ADD PUSH2 0x64A JUMP JUMPDEST DUP11 PUSH1 0xC0 ADD MLOAD PUSH2 0x1253 JUMP JUMPDEST DUP8 PUSH1 0xE0 ADD MLOAD PUSH2 0x1253 JUMP JUMPDEST SWAP5 SWAP4 POP POP POP POP JUMP JUMPDEST PUSH1 0x0 DUP1 SLOAD PUSH2 0xAC1 SWAP1 PUSH2 0x2BD3 JUMP JUMPDEST ISZERO SWAP1 POP PUSH2 0xB06 JUMPI PUSH1 0x40 MLOAD PUSH3 0x461BCD PUSH1 0xE5 SHL DUP2 MSTORE PUSH1 0x20 PUSH1 0x4 DUP3 ADD MSTORE PUSH1 0x13 PUSH1 0x24 DUP3 ADD MSTORE PUSH19 0x105B1C9958591E481A5B9A5D1A585B1A5E9959 PUSH1 0x6A SHL PUSH1 0x44 DUP3 ADD MSTORE PUSH1 0x64 ADD PUSH2 0x441 JUMP JUMPDEST PUSH1 0x0 JUMPDEST DUP6 DUP2 LT ISZERO PUSH2 0xBDB JUMPI DUP5 DUP5 DUP3 DUP2 DUP2 LT PUSH2 0xB31 JUMPI PUSH4 0x4E487B71 PUSH1 0xE0 SHL PUSH1 0x0 MSTORE PUSH1 0x32 PUSH1 0x4 MSTORE PUSH1 0x24 PUSH1 0x0 REVERT JUMPDEST SWAP1 POP PUSH1 0x20 MUL ADD CALLDATALOAD PUSH1 0x4 PUSH1 0x0 DUP10 DUP10 DUP6 DUP2 DUP2 LT PUSH2 0xB5C JUMPI PUSH4 0x4E487B71 PUSH1 0xE0 SHL PUSH1 0x0 MSTORE PUSH1 0x32 PUSH1 0x4 MSTORE PUSH1 0x24 PUSH1 0x0 REVERT JUMPDEST SWAP1 POP PUSH1 0x20 MUL ADD PUSH1 0x20 DUP2 ADD SWAP1 PUSH2 0xB71 SWAP2 SWAP1 PUSH2 0x1F73 JUMP JUMPDEST PUSH1 0x1 PUSH1 0x1 PUSH1 0xA0 SHL SUB AND DUP2 MSTORE PUSH1 0x20 DUP2 ADD SWAP2 SWAP1 SWAP2 MSTORE PUSH1 0x40 ADD PUSH1 0x0 KECCAK256 SSTORE DUP5 DUP5 DUP3 DUP2 DUP2 LT PUSH2 0xBAB JUMPI PUSH4 0x4E487B71 PUSH1 0xE0 SHL PUSH1 0x0 MSTORE PUSH1 0x32 PUSH1 0x4 MSTORE PUSH1 0x24 PUSH1 0x0 REVERT JUMPDEST SWAP1 POP PUSH1 0x20 MUL ADD CALLDATALOAD PUSH1 0x1 PUSH1 0x0 DUP3 DUP3 SLOAD PUSH2 0xBC3 SWAP2 SWAP1 PUSH2 0x29C4 JUMP JUMPDEST SWAP1 SWAP2 SSTORE POP DUP2 SWAP1 POP PUSH2 0xBD3 DUP2 PUSH2 0x2C0E JUMP JUMPDEST SWAP2 POP POP PUSH2 0xB09 JUMP JUMPDEST POP DUP2 DUP2 PUSH1 0x40 MLOAD PUSH1 0x20 ADD PUSH2 0xBEF SWAP3 SWAP2 SWAP1 PUSH2 0x27C7 JUMP JUMPDEST PUSH1 0x40 MLOAD PUSH1 0x20 DUP2 DUP4 SUB SUB DUP2 MSTORE SWAP1 PUSH1 0x40 MSTORE PUSH1 0x0 SWAP1 DUP1 MLOAD SWAP1 PUSH1 0x20 ADD SWAP1 PUSH2 0xC13 SWAP3 SWAP2 SWAP1 PUSH2 0x1BBC JUMP JUMPDEST POP POP POP POP POP POP POP JUMP JUMPDEST PUSH2 0xC50 PUSH2 0xC2E CALLDATASIZE DUP8 SWAP1 SUB DUP8 ADD DUP8 PUSH2 0x2234 JUMP JUMPDEST PUSH2 0xC3D CALLDATASIZE DUP8 SWAP1 SUB DUP8 ADD DUP8 PUSH2 0x2070 JUMP JUMPDEST PUSH2 0xC46 DUP7 PUSH2 0x2A72 JUMP JUMPDEST PUSH2 0x30B DUP6 DUP8 PUSH2 0x2A65 JUMP JUMPDEST PUSH2 0xC9C JUMPI PUSH1 0x40 MLOAD PUSH3 0x461BCD PUSH1 0xE5 SHL DUP2 MSTORE PUSH1 0x20 PUSH1 0x4 DUP3 ADD MSTORE PUSH1 0x14 PUSH1 0x24 DUP3 ADD MSTORE PUSH32 0x496E76616C696420626C6F636B20686561646572000000000000000000000000 PUSH1 0x44 DUP3 ADD MSTORE PUSH1 0x64 ADD PUSH2 0x441 JUMP JUMPDEST PUSH1 0x40 MLOAD DUP1 PUSH1 0x60 ADD PUSH1 0x40 MSTORE DUP1 DUP7 PUSH1 0x0 ADD CALLDATALOAD DUP2 MSTORE PUSH1 0x20 ADD DUP6 PUSH1 0x40 ADD PUSH1 0x20 DUP2 ADD SWAP1 PUSH2 0xCC4 SWAP2 SWAP1 PUSH2 0x247B JUMP JUMPDEST PUSH1 0x1 PUSH1 0x1 PUSH1 0x40 SHL SUB AND DUP2 MSTORE PUSH1 0x20 ADD PUSH2 0xCE2 PUSH1 0x80 DUP8 ADD PUSH1 0x60 DUP9 ADD PUSH2 0x2461 JUMP JUMPDEST PUSH4 0xFFFFFFFF AND SWAP1 MSTORE PUSH1 0x5 PUSH1 0x0 PUSH2 0xCFE PUSH1 0x40 DUP9 ADD PUSH1 0x20 DUP10 ADD PUSH2 0x247B JUMP JUMPDEST PUSH1 0x1 PUSH1 0x1 PUSH1 0x40 SHL SUB SWAP1 DUP2 AND DUP3 MSTORE PUSH1 0x20 DUP1 DUP4 ADD SWAP4 SWAP1 SWAP4 MSTORE PUSH1 0x40 SWAP2 DUP3 ADD PUSH1 0x0 KECCAK256 DUP5 MLOAD DUP2 SSTORE SWAP3 DUP5 ADD MLOAD PUSH1 0x1 SWAP1 SWAP4 ADD DUP1 SLOAD SWAP5 SWAP1 SWAP3 ADD MLOAD PUSH4 0xFFFFFFFF AND PUSH1 0x1 PUSH1 0x40 SHL MUL PUSH12 0xFFFFFFFFFFFFFFFFFFFFFFFF NOT SWAP1 SWAP5 AND SWAP3 AND SWAP2 SWAP1 SWAP2 OR SWAP2 SWAP1 SWAP2 OR SWAP1 SSTORE POP POP POP POP POP JUMP JUMPDEST PUSH2 0xDBF PUSH1 0x40 DUP1 MLOAD PUSH2 0x160 DUP2 ADD DUP3 MSTORE PUSH1 0x60 DUP1 DUP3 MSTORE PUSH1 0x0 PUSH1 0x20 DUP4 ADD DUP2 SWAP1 MSTORE SWAP3 DUP3 ADD DUP2 SWAP1 MSTORE DUP2 ADD DUP3 SWAP1 MSTORE PUSH1 0x80 DUP2 ADD DUP3 SWAP1 MSTORE PUSH1 0xA0 DUP2 ADD DUP3 SWAP1 MSTORE PUSH1 0xC0 DUP2 ADD DUP3 SWAP1 MSTORE PUSH1 0xE0 DUP2 ADD DUP3 SWAP1 MSTORE PUSH2 0x100 DUP2 ADD DUP3 SWAP1 MSTORE SWAP1 PUSH2 0x120 DUP3 ADD SWAP1 DUP2 MSTORE PUSH1 0x20 ADD PUSH1 0x60 DUP2 MSTORE POP SWAP1 JUMP JUMPDEST PUSH1 0x0 DUP7 DUP2 MSTORE PUSH1 0x5 PUSH1 0x20 MSTORE PUSH1 0x40 SWAP1 KECCAK256 SLOAD DUP1 PUSH2 0xE1B JUMPI PUSH1 0x40 MLOAD PUSH3 0x461BCD PUSH1 0xE5 SHL DUP2 MSTORE PUSH1 0x20 PUSH1 0x4 DUP3 ADD MSTORE PUSH1 0x16 PUSH1 0x24 DUP3 ADD MSTORE PUSH32 0x4E6F20726F6F7420617420746869732068656967687400000000000000000000 PUSH1 0x44 DUP3 ADD MSTORE PUSH1 0x64 ADD PUSH2 0x441 JUMP JUMPDEST PUSH1 0x0 PUSH1 0x2 PUSH2 0xE30 PUSH2 0xE2B DUP10 PUSH2 0x2A7E JUMP JUMPDEST PUSH2 0x1480 JUMP JUMPDEST PUSH1 0x40 MLOAD PUSH2 0xE3D SWAP2 SWAP1 PUSH2 0x24E3 JUMP JUMPDEST PUSH1 0x20 PUSH1 0x40 MLOAD DUP1 DUP4 SUB DUP2 DUP6 GAS STATICCALL ISZERO DUP1 ISZERO PUSH2 0xE5A JUMPI RETURNDATASIZE PUSH1 0x0 DUP1 RETURNDATACOPY RETURNDATASIZE PUSH1 0x0 REVERT JUMPDEST POP POP POP PUSH1 0x40 MLOAD RETURNDATASIZE PUSH1 0x1F NOT PUSH1 0x1F DUP3 ADD AND DUP3 ADD DUP1 PUSH1 0x40 MSTORE POP DUP2 ADD SWAP1 PUSH2 0xE7D SWAP2 SWAP1 PUSH2 0x2058 JUMP JUMPDEST SWAP1 POP PUSH2 0xF3E DUP3 DUP8 PUSH1 0xFF PUSH2 0xE96 PUSH1 0xC0 DUP13 ADD PUSH1 0xA0 DUP14 ADD PUSH2 0x247B JUMP JUMPDEST PUSH1 0x40 MLOAD PUSH1 0x20 ADD PUSH2 0xEDD SWAP3 SWAP2 SWAP1 PUSH1 0xF8 SWAP3 SWAP1 SWAP3 SHL PUSH1 0x1 PUSH1 0x1 PUSH1 0xF8 SHL SUB NOT AND DUP3 MSTORE PUSH1 0xC0 SHL PUSH24 0xFFFFFFFFFFFFFFFFFFFFFFFFFFFFFFFFFFFFFFFFFFFFFFFF NOT AND PUSH1 0x1 DUP3 ADD MSTORE PUSH1 0x9 ADD SWAP1 JUMP JUMPDEST PUSH1 0x40 DUP1 MLOAD PUSH1 0x1F NOT DUP2 DUP5 SUB ADD DUP2 MSTORE PUSH1 0x20 DUP11 DUP2 MUL DUP5 ADD DUP2 ADD SWAP1 SWAP3 MSTORE DUP10 DUP4 MSTORE SWAP2 DUP7 SWAP2 DUP12 SWAP1 DUP12 SWAP1 DUP2 SWAP1 PUSH1 0x0 SWAP1 DUP6 ADD JUMPDEST DUP3 DUP3 LT ISZERO PUSH2 0xF34 JUMPI PUSH2 0xF25 PUSH1 0xA0 DUP4 MUL DUP7 ADD CALLDATASIZE DUP2 SWAP1 SUB DUP2 ADD SWAP1 PUSH2 0x212C JUMP JUMPDEST DUP2 MSTORE PUSH1 0x20 ADD SWAP1 PUSH1 0x1 ADD SWAP1 PUSH2 0xF08 JUMP JUMPDEST POP POP POP POP POP PUSH2 0x1829 JUMP JUMPDEST PUSH2 0xF7A JUMPI PUSH1 0x40 MLOAD PUSH3 0x461BCD PUSH1 0xE5 SHL DUP2 MSTORE PUSH1 0x20 PUSH1 0x4 DUP3 ADD MSTORE PUSH1 0xD PUSH1 0x24 DUP3 ADD MSTORE PUSH13 0x24B73B30B634B210383937B7B3 PUSH1 0x99 SHL PUSH1 0x44 DUP3 ADD MSTORE PUSH1 0x64 ADD PUSH2 0x441 JUMP JUMPDEST PUSH2 0x9EF DUP8 PUSH2 0x2A7E JUMP JUMPDEST PUSH1 0x0 DUP1 PUSH2 0xF8F DUP7 PUSH2 0x1164 JUMP JUMPDEST SWAP1 POP PUSH1 0x0 PUSH2 0xF9D DUP7 DUP4 PUSH2 0x9FB JUMP JUMPDEST SWAP1 POP PUSH1 0x0 PUSH2 0xFAB DUP7 DUP4 PUSH2 0x6EC JUMP JUMPDEST SWAP1 POP PUSH1 0x0 DUP1 DUP1 SLOAD PUSH2 0xFBB SWAP1 PUSH2 0x2BD3 JUMP JUMPDEST DUP1 PUSH1 0x1F ADD PUSH1 0x20 DUP1 SWAP2 DIV MUL PUSH1 0x20 ADD PUSH1 0x40 MLOAD SWAP1 DUP2 ADD PUSH1 0x40 MSTORE DUP1 SWAP3 SWAP2 SWAP1 DUP2 DUP2 MSTORE PUSH1 0x20 ADD DUP3 DUP1 SLOAD PUSH2 0xFE7 SWAP1 PUSH2 0x2BD3 JUMP JUMPDEST DUP1 ISZERO PUSH2 0x1034 JUMPI DUP1 PUSH1 0x1F LT PUSH2 0x1009 JUMPI PUSH2 0x100 DUP1 DUP4 SLOAD DIV MUL DUP4 MSTORE SWAP2 PUSH1 0x20 ADD SWAP2 PUSH2 0x1034 JUMP JUMPDEST DUP3 ADD SWAP2 SWAP1 PUSH1 0x0 MSTORE PUSH1 0x20 PUSH1 0x0 KECCAK256 SWAP1 JUMPDEST DUP2 SLOAD DUP2 MSTORE SWAP1 PUSH1 0x1 ADD SWAP1 PUSH1 0x20 ADD DUP1 DUP4 GT PUSH2 0x1017 JUMPI DUP3 SWAP1 SUB PUSH1 0x1F AND DUP3 ADD SWAP2 JUMPDEST POP POP POP POP POP SWAP1 POP PUSH1 0x0 DUP1 PUSH1 0x0 JUMPDEST DUP9 MLOAD DUP2 LT ISZERO PUSH2 0x1139 JUMPI PUSH1 0x0 PUSH2 0x107E DUP11 DUP4 DUP2 MLOAD DUP2 LT PUSH2 0x106F JUMPI PUSH4 0x4E487B71 PUSH1 0xE0 SHL PUSH1 0x0 MSTORE PUSH1 0x32 PUSH1 0x4 MSTORE PUSH1 0x24 PUSH1 0x0 REVERT JUMPDEST PUSH1 0x20 MUL PUSH1 0x20 ADD ADD MLOAD DUP8 DUP8 PUSH2 0x3CD JUMP JUMPDEST SWAP1 POP DUP4 PUSH1 0x1 PUSH1 0x1 PUSH1 0xA0 SHL SUB AND DUP2 PUSH1 0x1 PUSH1 0x1 PUSH1 0xA0 SHL SUB AND GT PUSH2 0x10E1 JUMPI PUSH1 0x40 MLOAD PUSH3 0x461BCD PUSH1 0xE5 SHL DUP2 MSTORE PUSH1 0x20 PUSH1 0x4 DUP3 ADD MSTORE PUSH1 0x14 PUSH1 0x24 DUP3 ADD MSTORE PUSH32 0x496E76616C6964207369676E6572206F72646572000000000000000000000000 PUSH1 0x44 DUP3 ADD MSTORE PUSH1 0x64 ADD PUSH2 0x441 JUMP JUMPDEST PUSH1 0x1 PUSH1 0x1 PUSH1 0xA0 SHL SUB DUP2 AND PUSH1 0x0 SWAP1 DUP2 MSTORE PUSH1 0x4 PUSH1 0x20 MSTORE PUSH1 0x40 SWAP1 KECCAK256 SLOAD ISZERO PUSH2 0x1125 JUMPI PUSH1 0x1 PUSH1 0x1 PUSH1 0xA0 SHL SUB DUP2 AND PUSH1 0x0 SWAP1 DUP2 MSTORE PUSH1 0x4 PUSH1 0x20 MSTORE PUSH1 0x40 SWAP1 KECCAK256 SLOAD PUSH2 0x1122 SWAP1 DUP5 PUSH2 0x29C4 JUMP JUMPDEST SWAP3 POP JUMPDEST SWAP3 POP DUP1 PUSH2 0x1131 DUP2 PUSH2 0x2C0E JUMP JUMPDEST SWAP2 POP POP PUSH2 0x1041 JUMP JUMPDEST POP PUSH1 0x1 SLOAD PUSH2 0x1148 SWAP1 PUSH1 0x2 PUSH2 0x2A07 JUMP JUMPDEST PUSH2 0x1153 DUP3 PUSH1 0x3 PUSH2 0x2A07 JUMP JUMPDEST LT ISZERO SWAP12 SWAP11 POP POP POP POP POP POP POP POP POP POP POP JUMP JUMPDEST PUSH1 0x0 DUP1 PUSH2 0x1183 PUSH1 0x2 DUP5 PUSH1 0x0 ADD MLOAD PUSH1 0x40 MLOAD PUSH1 0x20 ADD PUSH2 0x918 SWAP2 DUP2 MSTORE PUSH1 0x20 ADD SWAP1 JUMP JUMPDEST SWAP1 POP PUSH1 0x0 PUSH2 0x9A7 DUP5 PUSH1 0x20 ADD MLOAD DUP4 PUSH2 0x1253 JUMP JUMPDEST PUSH2 0x11D8 DUP2 PUSH1 0x40 MLOAD PUSH1 0x24 ADD PUSH2 0x11A9 SWAP2 SWAP1 PUSH2 0x27B4 JUMP JUMPDEST PUSH1 0x40 DUP1 MLOAD PUSH1 0x1F NOT DUP2 DUP5 SUB ADD DUP2 MSTORE SWAP2 SWAP1 MSTORE PUSH1 0x20 DUP2 ADD DUP1 MLOAD PUSH1 0x1 PUSH1 0x1 PUSH1 0xE0 SHL SUB AND PUSH4 0x5F3BFAB PUSH1 0xE1 SHL OR SWAP1 MSTORE PUSH2 0x1917 JUMP JUMPDEST POP JUMP JUMPDEST PUSH1 0x0 PUSH1 0x2 PUSH1 0x0 DUP4 PUSH1 0x40 MLOAD PUSH1 0x20 ADD PUSH2 0x11F3 SWAP3 SWAP2 SWAP1 PUSH2 0x269F JUMP JUMPDEST PUSH1 0x40 DUP1 MLOAD PUSH1 0x1F NOT DUP2 DUP5 SUB ADD DUP2 MSTORE SWAP1 DUP3 SWAP1 MSTORE PUSH2 0x120D SWAP2 PUSH2 0x24E3 JUMP JUMPDEST PUSH1 0x20 PUSH1 0x40 MLOAD DUP1 DUP4 SUB DUP2 DUP6 GAS STATICCALL ISZERO DUP1 ISZERO PUSH2 0x122A JUMPI RETURNDATASIZE PUSH1 0x0 DUP1 RETURNDATACOPY RETURNDATASIZE PUSH1 0x0 REVERT JUMPDEST POP POP POP PUSH1 0x40 MLOAD RETURNDATASIZE PUSH1 0x1F NOT PUSH1 0x1F DUP3 ADD AND DUP3 ADD DUP1 PUSH1 0x40 MSTORE POP DUP2 ADD SWAP1 PUSH2 0x124D SWAP2 SWAP1 PUSH2 0x2058 JUMP JUMPDEST SWAP3 SWAP2 POP POP JUMP JUMPDEST PUSH1 0x40 MLOAD PUSH1 0x1 PUSH1 0xF8 SHL PUSH1 0x20 DUP3 ADD MSTORE PUSH1 0x21 DUP2 ADD DUP4 SWAP1 MSTORE PUSH1 0x41 DUP2 ADD DUP3 SWAP1 MSTORE PUSH1 0x0 SWAP1 PUSH1 0x2 SWAP1 PUSH1 0x61 ADD PUSH1 0x40 DUP1 MLOAD PUSH1 0x1F NOT DUP2 DUP5 SUB ADD DUP2 MSTORE SWAP1 DUP3 SWAP1 MSTORE PUSH2 0x1291 SWAP2 PUSH2 0x24E3 JUMP JUMPDEST PUSH1 0x20 PUSH1 0x40 MLOAD DUP1 DUP4 SUB DUP2 DUP6 GAS STATICCALL ISZERO DUP1 ISZERO PUSH2 0x12AE JUMPI RETURNDATASIZE PUSH1 0x0 DUP1 RETURNDATACOPY RETURNDATASIZE PUSH1 0x0 REVERT JUMPDEST POP POP POP PUSH1 0x40 MLOAD RETURNDATASIZE PUSH1 0x1F NOT PUSH1 0x1F DUP3 ADD AND DUP3 ADD DUP1 PUSH1 0x40 MSTORE POP DUP2 ADD SWAP1 PUSH2 0x677 SWAP2 SWAP1 PUSH2 0x2058 JUMP JUMPDEST PUSH1 0x60 DUP2 PUSH1 0x0 JUMPDEST DUP2 ISZERO PUSH2 0x12F4 JUMPI PUSH2 0x12E6 DUP2 PUSH2 0x2C0E JUMP JUMPDEST SWAP1 POP PUSH1 0x7 DUP3 SWAP1 SHR SWAP2 POP PUSH2 0x12D7 JUMP JUMPDEST PUSH1 0x0 DUP2 PUSH1 0x1 PUSH1 0x1 PUSH1 0x40 SHL SUB DUP2 GT ISZERO PUSH2 0x131C JUMPI PUSH4 0x4E487B71 PUSH1 0xE0 SHL PUSH1 0x0 MSTORE PUSH1 0x41 PUSH1 0x4 MSTORE PUSH1 0x24 PUSH1 0x0 REVERT JUMPDEST PUSH1 0x40 MLOAD SWAP1 DUP1 DUP3 MSTORE DUP1 PUSH1 0x1F ADD PUSH1 0x1F NOT AND PUSH1 0x20 ADD DUP3 ADD PUSH1 0x40 MSTORE DUP1 ISZERO PUSH2 0x1346 JUMPI PUSH1 0x20 DUP3 ADD DUP2 DUP1 CALLDATASIZE DUP4 CALLDATACOPY ADD SWAP1 POP JUMPDEST POP SWAP1 POP DUP5 SWAP3 POP PUSH1 0x0 JUMPDEST DUP3 DUP2 LT ISZERO PUSH2 0x13AF JUMPI DUP4 PUSH1 0x7F AND PUSH1 0x80 OR PUSH1 0xF8 SHL DUP3 DUP3 DUP2 MLOAD DUP2 LT PUSH2 0x1381 JUMPI PUSH4 0x4E487B71 PUSH1 0xE0 SHL PUSH1 0x0 MSTORE PUSH1 0x32 PUSH1 0x4 MSTORE PUSH1 0x24 PUSH1 0x0 REVERT JUMPDEST PUSH1 0x20 ADD ADD SWAP1 PUSH1 0x1 PUSH1 0x1 PUSH1 0xF8 SHL SUB NOT AND SWAP1 DUP2 PUSH1 0x0 BYTE SWAP1 MSTORE8 POP PUSH1 0x7 SWAP4 SWAP1 SWAP4 SHR SWAP3 PUSH2 0x13A8 DUP2 PUSH2 0x2C0E JUMP JUMPDEST SWAP1 POP PUSH2 0x134F JUMP JUMPDEST POP PUSH1 0x7F PUSH1 0xF8 SHL DUP2 PUSH2 0x13C1 PUSH1 0x1 DUP6 PUSH2 0x2A26 JUMP JUMPDEST DUP2 MLOAD DUP2 LT PUSH2 0x13DF JUMPI PUSH4 0x4E487B71 PUSH1 0xE0 SHL PUSH1 0x0 MSTORE PUSH1 0x32 PUSH1 0x4 MSTORE PUSH1 0x24 PUSH1 0x0 REVERT JUMPDEST ADD PUSH1 0x20 ADD DUP1 MLOAD SWAP1 SWAP2 AND PUSH1 0x1 PUSH1 0x1 PUSH1 0xF8 SHL SUB NOT AND SWAP1 PUSH1 0x0 DUP3 SWAP1 BYTE SWAP1 MSTORE8 POP SWAP5 SWAP4 POP POP POP POP JUMP JUMPDEST PUSH1 0x60 PUSH1 0x0 PUSH2 0x1419 DUP5 PUSH1 0x1 PUSH1 0x1 PUSH1 0x40 SHL SUB AND PUSH2 0x12D1 JUMP JUMPDEST PUSH1 0x40 MLOAD PUSH1 0x20 ADD PUSH2 0x1429 SWAP2 SWAP1 PUSH2 0x2675 JUMP JUMPDEST PUSH1 0x40 DUP1 MLOAD PUSH1 0x1F NOT DUP2 DUP5 SUB ADD DUP2 MSTORE SWAP2 SWAP1 MSTORE SWAP1 POP PUSH4 0xFFFFFFFF DUP4 AND ISZERO PUSH2 0x677 JUMPI DUP1 PUSH2 0x1457 DUP5 PUSH4 0xFFFFFFFF AND PUSH2 0x12D1 JUMP JUMPDEST PUSH1 0x40 MLOAD PUSH1 0x20 ADD PUSH2 0x1468 SWAP3 SWAP2 SWAP1 PUSH2 0x25D0 JUMP JUMPDEST PUSH1 0x40 MLOAD PUSH1 0x20 DUP2 DUP4 SUB SUB DUP2 MSTORE SWAP1 PUSH1 0x40 MSTORE SWAP1 POP SWAP4 SWAP3 POP POP POP JUMP JUMPDEST DUP1 MLOAD MLOAD PUSH1 0x60 SWAP1 DUP2 SWAP1 ISZERO PUSH2 0x14CE JUMPI DUP1 PUSH2 0x149B PUSH1 0x1 PUSH1 0x2 JUMPDEST PUSH2 0x1920 JUMP JUMPDEST DUP5 MLOAD MLOAD PUSH2 0x14A7 SWAP1 PUSH2 0x1948 JUMP JUMPDEST DUP6 MLOAD PUSH1 0x40 MLOAD PUSH2 0x14BC SWAP5 SWAP4 SWAP3 SWAP2 SWAP1 PUSH1 0x20 ADD PUSH2 0x2579 JUMP JUMPDEST PUSH1 0x40 MLOAD PUSH1 0x20 DUP2 DUP4 SUB SUB DUP2 MSTORE SWAP1 PUSH1 0x40 MSTORE SWAP1 POP JUMPDEST PUSH1 0x20 DUP4 ADD MLOAD PUSH1 0x1 PUSH1 0x1 PUSH1 0x40 SHL SUB AND ISZERO PUSH2 0x151F JUMPI DUP1 PUSH2 0x14EE PUSH1 0x2 PUSH1 0x0 PUSH2 0x1496 JUMP JUMPDEST PUSH2 0x14FB DUP6 PUSH1 0x20 ADD MLOAD PUSH2 0x1948 JUMP JUMPDEST PUSH1 0x40 MLOAD PUSH1 0x20 ADD PUSH2 0x150D SWAP4 SWAP3 SWAP2 SWAP1 PUSH2 0x2536 JUMP JUMPDEST PUSH1 0x40 MLOAD PUSH1 0x20 DUP2 DUP4 SUB SUB DUP2 MSTORE SWAP1 PUSH1 0x40 MSTORE SWAP1 POP JUMPDEST PUSH1 0x40 DUP4 ADD MLOAD MLOAD ISZERO PUSH2 0x156F JUMPI DUP1 PUSH2 0x1537 PUSH1 0x3 PUSH1 0x2 PUSH2 0x1496 JUMP JUMPDEST PUSH2 0x1545 DUP6 PUSH1 0x40 ADD MLOAD MLOAD PUSH2 0x1948 JUMP JUMPDEST DUP6 PUSH1 0x40 ADD MLOAD PUSH1 0x40 MLOAD PUSH1 0x20 ADD PUSH2 0x155D SWAP5 SWAP4 SWAP3 SWAP2 SWAP1 PUSH2 0x2579 JUMP JUMPDEST PUSH1 0x40 MLOAD PUSH1 0x20 DUP2 DUP4 SUB SUB DUP2 MSTORE SWAP1 PUSH1 0x40 MSTORE SWAP1 POP JUMPDEST PUSH1 0x60 DUP4 ADD MLOAD PUSH1 0x1 PUSH1 0x1 PUSH1 0x40 SHL SUB AND ISZERO PUSH2 0x15C0 JUMPI DUP1 PUSH2 0x158F PUSH1 0x4 PUSH1 0x0 PUSH2 0x1496 JUMP JUMPDEST PUSH2 0x159C DUP6 PUSH1 0x60 ADD MLOAD PUSH2 0x1948 JUMP JUMPDEST PUSH1 0x40 MLOAD PUSH1 0x20 ADD PUSH2 0x15AE SWAP4 SWAP3 SWAP2 SWAP1 PUSH2 0x2536 JUMP JUMPDEST PUSH1 0x40 MLOAD PUSH1 0x20 DUP2 DUP4 SUB SUB DUP2 MSTORE SWAP1 PUSH1 0x40 MSTORE SWAP1 POP JUMPDEST PUSH1 0x80 DUP4 ADD MLOAD PUSH1 0x1 PUSH1 0x1 PUSH1 0x40 SHL SUB AND ISZERO PUSH2 0x1611 JUMPI DUP1 PUSH2 0x15E0 PUSH1 0x5 PUSH1 0x0 PUSH2 0x1496 JUMP JUMPDEST PUSH2 0x15ED DUP6 PUSH1 0x80 ADD MLOAD PUSH2 0x1948 JUMP JUMPDEST PUSH1 0x40 MLOAD PUSH1 0x20 ADD PUSH2 0x15FF SWAP4 SWAP3 SWAP2 SWAP1 PUSH2 0x2536 JUMP JUMPDEST PUSH1 0x40 MLOAD PUSH1 0x20 DUP2 DUP4 SUB SUB DUP2 MSTORE SWAP1 PUSH1 0x40 MSTORE SWAP1 POP JUMPDEST PUSH1 0xA0 DUP4 ADD MLOAD PUSH1 0x1 PUSH1 0x1 PUSH1 0x40 SHL SUB AND ISZERO PUSH2 0x1662 JUMPI DUP1 PUSH2 0x1631 PUSH1 0x6 PUSH1 0x0 PUSH2 0x1496 JUMP JUMPDEST PUSH2 0x163E DUP6 PUSH1 0xA0 ADD MLOAD PUSH2 0x1948 JUMP JUMPDEST PUSH1 0x40 MLOAD PUSH1 0x20 ADD PUSH2 0x1650 SWAP4 SWAP3 SWAP2 SWAP1 PUSH2 0x2536 JUMP JUMPDEST PUSH1 0x40 MLOAD PUSH1 0x20 DUP2 DUP4 SUB SUB DUP2 MSTORE SWAP1 PUSH1 0x40 MSTORE SWAP1 POP JUMPDEST PUSH1 0xC0 DUP4 ADD MLOAD PUSH1 0x1 PUSH1 0x1 PUSH1 0x40 SHL SUB AND ISZERO PUSH2 0x16B3 JUMPI DUP1 PUSH2 0x1682 PUSH1 0x7 PUSH1 0x0 PUSH2 0x1496 JUMP JUMPDEST PUSH2 0x168F DUP6 PUSH1 0xC0 ADD MLOAD PUSH2 0x1948 JUMP JUMPDEST PUSH1 0x40 MLOAD PUSH1 0x20 ADD PUSH2 0x16A1 SWAP4 SWAP3 SWAP2 SWAP1 PUSH2 0x2536 JUMP JUMPDEST PUSH1 0x40 MLOAD PUSH1 0x20 DUP2 DUP4 SUB SUB DUP2 MSTORE SWAP1 PUSH1 0x40 MSTORE SWAP1 POP JUMPDEST PUSH1 0xE0 DUP4 ADD MLOAD PUSH1 0x1 PUSH1 0x1 PUSH1 0x40 SHL SUB AND ISZERO PUSH2 0x1704 JUMPI DUP1 PUSH2 0x16D3 PUSH1 0x8 PUSH1 0x0 PUSH2 0x1496 JUMP JUMPDEST PUSH2 0x16E0 DUP6 PUSH1 0xE0 ADD MLOAD PUSH2 0x1948 JUMP JUMPDEST PUSH1 0x40 MLOAD PUSH1 0x20 ADD PUSH2 0x16F2 SWAP4 SWAP3 SWAP2 SWAP1 PUSH2 0x2536 JUMP JUMPDEST PUSH1 0x40 MLOAD PUSH1 0x20 DUP2 DUP4 SUB SUB DUP2 MSTORE SWAP1 PUSH1 0x40 MSTORE SWAP1 POP JUMPDEST PUSH2 0x100 DUP4 ADD MLOAD PUSH1 0x1 PUSH1 0x1 PUSH1 0x40 SHL SUB AND ISZERO PUSH2 0x1757 JUMPI DUP1 PUSH2 0x1725 PUSH1 0x9 PUSH1 0x0 PUSH2 0x1496 JUMP JUMPDEST PUSH2 0x1733 DUP6 PUSH2 0x100 ADD MLOAD PUSH2 0x1948 JUMP JUMPDEST PUSH1 0x40 MLOAD PUSH1 0x20 ADD PUSH2 0x1745 SWAP4 SWAP3 SWAP2 SWAP1 PUSH2 0x2536 JUMP JUMPDEST PUSH1 0x40 MLOAD PUSH1 0x20 DUP2 DUP4 SUB SUB DUP2 MSTORE SWAP1 PUSH1 0x40 MSTORE SWAP1 POP JUMPDEST DUP3 PUSH2 0x120 ADD MLOAD PUSH1 0x3 DUP2 GT ISZERO PUSH2 0x177C JUMPI PUSH4 0x4E487B71 PUSH1 0xE0 SHL PUSH1 0x0 MSTORE PUSH1 0x21 PUSH1 0x4 MSTORE PUSH1 0x24 PUSH1 0x0 REVERT JUMPDEST PUSH1 0x1 PUSH1 0x1 PUSH1 0x40 SHL SUB AND ISZERO PUSH2 0x17E8 JUMPI DUP1 PUSH2 0x1797 PUSH1 0xA PUSH1 0x0 PUSH2 0x1496 JUMP JUMPDEST PUSH2 0x17C4 DUP6 PUSH2 0x120 ADD MLOAD PUSH1 0x3 DUP2 GT ISZERO PUSH2 0x17BF JUMPI PUSH4 0x4E487B71 PUSH1 0xE0 SHL PUSH1 0x0 MSTORE PUSH1 0x21 PUSH1 0x4 MSTORE PUSH1 0x24 PUSH1 0x0 REVERT JUMPDEST PUSH2 0x1953 JUMP JUMPDEST PUSH1 0x40 MLOAD PUSH1 0x20 ADD PUSH2 0x17D6 SWAP4 SWAP3 SWAP2 SWAP1 PUSH2 0x2536 JUMP JUMPDEST PUSH1 0x40 MLOAD PUSH1 0x20 DUP2 DUP4 SUB SUB DUP2 MSTORE SWAP1 PUSH1 0x40 MSTORE SWAP1 POP JUMPDEST PUSH2 0x140 DUP4 ADD MLOAD MLOAD ISZERO PUSH2 0x124D JUMPI DUP1 PUSH2 0x1801 PUSH1 0xB PUSH1 0x2 PUSH2 0x1496 JUMP JUMPDEST PUSH2 0x1810 DUP6 PUSH2 0x140 ADD MLOAD MLOAD PUSH2 0x1948 JUMP JUMPDEST DUP6 PUSH2 0x140 ADD MLOAD PUSH1 0x40 MLOAD PUSH1 0x20 ADD PUSH2 0x7E6 SWAP5 SWAP4 SWAP3 SWAP2 SWAP1 PUSH2 0x2579 JUMP JUMPDEST PUSH1 0x0 DUP1 PUSH2 0x1835 DUP7 PUSH2 0x12D1 JUMP JUMPDEST SWAP1 POP PUSH1 0x0 PUSH1 0x2 PUSH1 0x0 PUSH1 0x2 DUP5 DUP10 MLOAD DUP11 PUSH1 0x20 DUP12 PUSH1 0x40 MLOAD PUSH1 0x20 ADD PUSH2 0x185C SWAP8 SWAP7 SWAP6 SWAP5 SWAP4 SWAP3 SWAP2 SWAP1 PUSH2 0x273D JUMP JUMPDEST PUSH1 0x40 DUP1 MLOAD PUSH1 0x1F NOT DUP2 DUP5 SUB ADD DUP2 MSTORE SWAP1 DUP3 SWAP1 MSTORE PUSH2 0x1876 SWAP2 PUSH2 0x24E3 JUMP JUMPDEST PUSH1 0x20 PUSH1 0x40 MLOAD DUP1 DUP4 SUB DUP2 DUP6 GAS STATICCALL ISZERO DUP1 ISZERO PUSH2 0x1893 JUMPI RETURNDATASIZE PUSH1 0x0 DUP1 RETURNDATACOPY RETURNDATASIZE PUSH1 0x0 REVERT JUMPDEST POP POP POP PUSH1 0x40 MLOAD RETURNDATASIZE PUSH1 0x1F NOT PUSH1 0x1F DUP3 ADD AND DUP3 ADD DUP1 PUSH1 0x40 MSTORE POP DUP2 ADD SWAP1 PUSH2 0x18B6 SWAP2 SWAP1 PUSH2 0x2058 JUMP JUMPDEST SWAP1 POP PUSH1 0x0 JUMPDEST DUP5 MLOAD DUP2 LT ISZERO PUSH2 0x1909 JUMPI PUSH2 0x18F5 DUP6 DUP3 DUP2 MLOAD DUP2 LT PUSH2 0x18E7 JUMPI PUSH4 0x4E487B71 PUSH1 0xE0 SHL PUSH1 0x0 MSTORE PUSH1 0x32 PUSH1 0x4 MSTORE PUSH1 0x24 PUSH1 0x0 REVERT JUMPDEST PUSH1 0x20 MUL PUSH1 0x20 ADD ADD MLOAD DUP4 PUSH2 0x1964 JUMP JUMPDEST SWAP2 POP DUP1 PUSH2 0x1901 DUP2 PUSH2 0x2C0E JUMP JUMPDEST SWAP2 POP POP PUSH2 0x18BB JUMP JUMPDEST POP SWAP1 SWAP7 EQ SWAP7 SWAP6 POP POP POP POP POP POP JUMP JUMPDEST PUSH2 0x11D8 DUP2 PUSH2 0x1A26 JUMP JUMPDEST PUSH1 0x60 PUSH9 0x7FFFFFFFFFFFFFFF8 PUSH1 0x3 DUP5 SWAP1 SHL AND DUP3 OR PUSH1 0x0 PUSH2 0x193F DUP3 PUSH2 0x1A47 JUMP JUMPDEST SWAP6 SWAP5 POP POP POP POP POP JUMP JUMPDEST PUSH1 0x60 PUSH2 0x124D DUP3 PUSH2 0x1A47 JUMP JUMPDEST PUSH1 0x60 PUSH2 0x124D DUP3 PUSH4 0xFFFFFFFF AND PUSH2 0x1A47 JUMP JUMPDEST PUSH1 0x0 DUP1 PUSH1 0x0 DUP5 PUSH1 0x0 ADD MLOAD PUSH2 0x197D JUMPI DUP4 DUP6 PUSH1 0x80 ADD MLOAD PUSH2 0x1984 JUMP JUMPDEST DUP5 PUSH1 0x80 ADD MLOAD DUP5 JUMPDEST SWAP2 POP SWAP2 POP PUSH1 0x2 PUSH1 0x1 DUP7 PUSH1 0x20 ADD MLOAD PUSH1 0xFF AND SWAP1 SHL PUSH2 0x19A3 DUP8 PUSH1 0x40 ADD MLOAD PUSH2 0x1BA7 JUMP JUMPDEST PUSH2 0x19B0 DUP9 PUSH1 0x60 ADD MLOAD PUSH2 0x1BA7 JUMP JUMPDEST PUSH1 0x20 DUP7 PUSH1 0x20 DUP8 PUSH1 0x40 MLOAD PUSH1 0x20 ADD PUSH2 0x19CC SWAP8 SWAP7 SWAP6 SWAP5 SWAP4 SWAP3 SWAP2 SWAP1 PUSH2 0x26CE JUMP JUMPDEST PUSH1 0x40 DUP1 MLOAD PUSH1 0x1F NOT DUP2 DUP5 SUB ADD DUP2 MSTORE SWAP1 DUP3 SWAP1 MSTORE PUSH2 0x19E6 SWAP2 PUSH2 0x24E3 JUMP JUMPDEST PUSH1 0x20 PUSH1 0x40 MLOAD DUP1 DUP4 SUB DUP2 DUP6 GAS STATICCALL ISZERO DUP1 ISZERO PUSH2 0x1A03 JUMPI RETURNDATASIZE PUSH1 0x0 DUP1 RETURNDATACOPY RETURNDATASIZE PUSH1 0x0 REVERT JUMPDEST POP POP POP PUSH1 0x40 MLOAD RETURNDATASIZE PUSH1 0x1F NOT PUSH1 0x1F DUP3 ADD AND DUP3 ADD DUP1 PUSH1 0x40 MSTORE POP DUP2 ADD SWAP1 PUSH2 0x193F SWAP2 SWAP1 PUSH2 0x2058 JUMP JUMPDEST PUSH1 0x0 PUSH11 0x636F6E736F6C652E6C6F67 SWAP1 POP PUSH1 0x0 DUP1 DUP4 MLOAD PUSH1 0x20 DUP6 ADD DUP5 GAS STATICCALL POP POP POP JUMP JUMPDEST PUSH1 0x60 DUP2 PUSH1 0x1 JUMPDEST PUSH1 0x7F DUP3 PUSH1 0x1 PUSH1 0x1 PUSH1 0x40 SHL SUB AND GT ISZERO PUSH2 0x1A83 JUMPI PUSH1 0x7 DUP3 PUSH1 0x1 PUSH1 0x1 PUSH1 0x40 SHL SUB AND SWAP1 SHR SWAP2 POP PUSH1 0x1 DUP2 PUSH2 0x1A7C SWAP2 SWAP1 PUSH2 0x29DC JUMP JUMPDEST SWAP1 POP PUSH2 0x1A4D JUMP JUMPDEST PUSH1 0x0 DUP2 PUSH1 0x1 PUSH1 0x1 PUSH1 0x40 SHL SUB AND PUSH1 0x1 PUSH1 0x1 PUSH1 0x40 SHL SUB DUP2 GT ISZERO PUSH2 0x1AB4 JUMPI PUSH4 0x4E487B71 PUSH1 0xE0 SHL PUSH1 0x0 MSTORE PUSH1 0x41 PUSH1 0x4 MSTORE PUSH1 0x24 PUSH1 0x0 REVERT JUMPDEST PUSH1 0x40 MLOAD SWAP1 DUP1 DUP3 MSTORE DUP1 PUSH1 0x1F ADD PUSH1 0x1F NOT AND PUSH1 0x20 ADD DUP3 ADD PUSH1 0x40 MSTORE DUP1 ISZERO PUSH2 0x1ADE JUMPI PUSH1 0x20 DUP3 ADD DUP2 DUP1 CALLDATASIZE DUP4 CALLDATACOPY ADD SWAP1 POP JUMPDEST POP SWAP1 POP DUP5 SWAP3 POP PUSH1 0x0 JUMPDEST DUP3 PUSH1 0x1 PUSH1 0x1 PUSH1 0x40 SHL SUB AND DUP2 PUSH1 0x1 PUSH1 0x1 PUSH1 0x40 SHL SUB AND LT ISZERO PUSH2 0x1B6E JUMPI DUP4 PUSH1 0x7F AND PUSH1 0x80 OR PUSH1 0xF8 SHL DUP3 DUP3 PUSH1 0x1 PUSH1 0x1 PUSH1 0x40 SHL SUB AND DUP2 MLOAD DUP2 LT PUSH2 0x1B34 JUMPI PUSH4 0x4E487B71 PUSH1 0xE0 SHL PUSH1 0x0 MSTORE PUSH1 0x32 PUSH1 0x4 MSTORE PUSH1 0x24 PUSH1 0x0 REVERT JUMPDEST PUSH1 0x20 ADD ADD SWAP1 PUSH1 0x1 PUSH1 0x1 PUSH1 0xF8 SHL SUB NOT AND SWAP1 DUP2 PUSH1 0x0 BYTE SWAP1 MSTORE8 POP PUSH1 0x7 DUP5 PUSH1 0x1 PUSH1 0x1 PUSH1 0x40 SHL SUB AND SWAP1 SHR SWAP4 POP DUP1 DUP1 PUSH2 0x1B66 SWAP1 PUSH2 0x2C29 JUMP JUMPDEST SWAP2 POP POP PUSH2 0x1AE7 JUMP JUMPDEST POP PUSH1 0x7F PUSH1 0xF8 SHL DUP2 PUSH2 0x1B80 PUSH1 0x1 DUP6 PUSH2 0x2A3D JUMP JUMPDEST PUSH1 0x1 PUSH1 0x1 PUSH1 0x40 SHL SUB AND DUP2 MLOAD DUP2 LT PUSH2 0x13DF JUMPI PUSH4 0x4E487B71 PUSH1 0xE0 SHL PUSH1 0x0 MSTORE PUSH1 0x32 PUSH1 0x4 MSTORE PUSH1 0x24 PUSH1 0x0 REVERT JUMPDEST PUSH1 0x60 PUSH2 0x124D PUSH2 0x1BB7 DUP4 PUSH1 0x2 PUSH2 0x2A07 JUMP JUMPDEST PUSH2 0x12D1 JUMP JUMPDEST DUP3 DUP1 SLOAD PUSH2 0x1BC8 SWAP1 PUSH2 0x2BD3 JUMP JUMPDEST SWAP1 PUSH1 0x0 MSTORE PUSH1 0x20 PUSH1 0x0 KECCAK256 SWAP1 PUSH1 0x1F ADD PUSH1 0x20 SWAP1 DIV DUP2 ADD SWAP3 DUP3 PUSH2 0x1BEA JUMPI PUSH1 0x0 DUP6 SSTORE PUSH2 0x1C30 JUMP JUMPDEST DUP3 PUSH1 0x1F LT PUSH2 0x1C03 JUMPI DUP1 MLOAD PUSH1 0xFF NOT AND DUP4 DUP1 ADD OR DUP6 SSTORE PUSH2 0x1C30 JUMP JUMPDEST DUP3 DUP1 ADD PUSH1 0x1 ADD DUP6 SSTORE DUP3 ISZERO PUSH2 0x1C30 JUMPI SWAP2 DUP3 ADD JUMPDEST DUP3 DUP2 GT ISZERO PUSH2 0x1C30 JUMPI DUP3 MLOAD DUP3 SSTORE SWAP2 PUSH1 0x20 ADD SWAP2 SWAP1 PUSH1 0x1 ADD SWAP1 PUSH2 0x1C15 JUMP JUMPDEST POP PUSH2 0x1C3C SWAP3 SWAP2 POP PUSH2 0x1C40 JUMP JUMPDEST POP SWAP1 JUMP JUMPDEST JUMPDEST DUP1 DUP3 GT ISZERO PUSH2 0x1C3C JUMPI PUSH1 0x0 DUP2 SSTORE PUSH1 0x1 ADD PUSH2 0x1C41 JUMP JUMPDEST PUSH1 0x0 PUSH1 0x1 PUSH1 0x1 PUSH1 0x40 SHL SUB DUP4 GT ISZERO PUSH2 0x1C6E JUMPI PUSH2 0x1C6E PUSH2 0x2C66 JUMP JUMPDEST PUSH1 0x20 PUSH2 0x1C7E DUP2 DUP6 PUSH1 0x5 SHL ADD PUSH2 0x2994 JUMP JUMPDEST DUP5 DUP2 MSTORE SWAP2 POP DUP1 DUP3 ADD DUP4 PUSH1 0x0 JUMPDEST DUP7 DUP2 LT ISZERO PUSH2 0x1CB1 JUMPI PUSH2 0x1C9F DUP9 DUP4 CALLDATALOAD DUP9 ADD PUSH2 0x1ECA JUMP JUMPDEST DUP4 MSTORE SWAP2 DUP4 ADD SWAP2 SWAP1 DUP4 ADD SWAP1 PUSH1 0x1 ADD PUSH2 0x1C8A JUMP JUMPDEST POP POP POP POP SWAP4 SWAP3 POP POP POP JUMP JUMPDEST PUSH1 0x0 DUP1 DUP4 PUSH1 0x1F DUP5 ADD SLT PUSH2 0x1CCD JUMPI DUP2 DUP3 REVERT JUMPDEST POP DUP2 CALLDATALOAD PUSH1 0x1 PUSH1 0x1 PUSH1 0x40 SHL SUB DUP2 GT ISZERO PUSH2 0x1CE3 JUMPI DUP2 DUP3 REVERT JUMPDEST PUSH1 0x20 DUP4 ADD SWAP2 POP DUP4 PUSH1 0x20 DUP3 PUSH1 0x5 SHL DUP6 ADD ADD GT ISZERO PUSH2 0x1CFE JUMPI PUSH1 0x0 DUP1 REVERT JUMPDEST SWAP3 POP SWAP3 SWAP1 POP JUMP JUMPDEST PUSH1 0x0 DUP3 PUSH1 0x1F DUP4 ADD SLT PUSH2 0x1D15 JUMPI DUP1 DUP2 REVERT JUMPDEST DUP2 CALLDATALOAD PUSH1 0x1 PUSH1 0x1 PUSH1 0x40 SHL SUB DUP2 GT ISZERO PUSH2 0x1D2E JUMPI PUSH2 0x1D2E PUSH2 0x2C66 JUMP JUMPDEST PUSH2 0x1D41 PUSH1 0x1F DUP3 ADD PUSH1 0x1F NOT AND PUSH1 0x20 ADD PUSH2 0x2994 JUMP JUMPDEST DUP2 DUP2 MSTORE DUP5 PUSH1 0x20 DUP4 DUP7 ADD ADD GT ISZERO PUSH2 0x1D55 JUMPI DUP3 DUP4 REVERT JUMPDEST DUP2 PUSH1 0x20 DUP6 ADD PUSH1 0x20 DUP4 ADD CALLDATACOPY SWAP1 DUP2 ADD PUSH1 0x20 ADD SWAP2 SWAP1 SWAP2 MSTORE SWAP3 SWAP2 POP POP JUMP JUMPDEST DUP1 CALLDATALOAD PUSH1 0x4 DUP2 LT PUSH2 0x58F JUMPI PUSH1 0x0 DUP1 REVERT JUMPDEST PUSH1 0x0 PUSH2 0x100 DUP1 DUP4 DUP6 SUB SLT ISZERO PUSH2 0x1D91 JUMPI DUP2 DUP3 REVERT JUMPDEST PUSH2 0x1D9A DUP2 PUSH2 0x2994 JUMP JUMPDEST SWAP2 POP POP DUP2 CALLDATALOAD DUP2 MSTORE PUSH2 0x1DAD PUSH1 0x20 DUP4 ADD PUSH2 0x1F4B JUMP JUMPDEST PUSH1 0x20 DUP3 ADD MSTORE PUSH2 0x1DBE PUSH1 0x40 DUP4 ADD PUSH2 0x1F4B JUMP JUMPDEST PUSH1 0x40 DUP3 ADD MSTORE PUSH2 0x1DCF PUSH1 0x60 DUP4 ADD PUSH2 0x1F37 JUMP JUMPDEST PUSH1 0x60 DUP3 ADD MSTORE PUSH1 0x80 DUP3 ADD CALLDATALOAD PUSH1 0x80 DUP3 ADD MSTORE PUSH1 0xA0 DUP3 ADD CALLDATALOAD PUSH1 0xA0 DUP3 ADD MSTORE PUSH1 0xC0 DUP3 ADD CALLDATALOAD PUSH1 0xC0 DUP3 ADD MSTORE PUSH1 0xE0 DUP3 ADD CALLDATALOAD PUSH1 0xE0 DUP3 ADD MSTORE SWAP3 SWAP2 POP POP JUMP JUMPDEST PUSH1 0x0 PUSH1 0x40 DUP3 DUP5 SUB SLT ISZERO PUSH2 0x1E13 JUMPI DUP1 DUP2 REVERT JUMPDEST PUSH2 0x1E1D PUSH1 0x40 PUSH2 0x2994 JUMP JUMPDEST SWAP1 POP DUP2 CALLDATALOAD PUSH1 0x1 PUSH1 0x1 PUSH1 0x40 SHL SUB DUP1 DUP3 GT ISZERO PUSH2 0x1E36 JUMPI PUSH1 0x0 DUP1 REVERT JUMPDEST PUSH2 0x1E42 DUP6 DUP4 DUP7 ADD PUSH2 0x1D05 JUMP JUMPDEST DUP4 MSTORE PUSH1 0x20 DUP5 ADD CALLDATALOAD SWAP2 POP DUP1 DUP3 GT ISZERO PUSH2 0x1E58 JUMPI PUSH1 0x0 DUP1 REVERT JUMPDEST POP PUSH2 0x1E65 DUP5 DUP3 DUP6 ADD PUSH2 0x1D05 JUMP JUMPDEST PUSH1 0x20 DUP4 ADD MSTORE POP SWAP3 SWAP2 POP POP JUMP JUMPDEST PUSH1 0x0 PUSH1 0xC0 DUP3 DUP5 SUB SLT ISZERO PUSH2 0x1E82 JUMPI DUP1 DUP2 REVERT JUMPDEST PUSH2 0x1E8C PUSH1 0xC0 PUSH2 0x2994 JUMP JUMPDEST SWAP1 POP DUP2 CALLDATALOAD DUP2 MSTORE PUSH1 0x20 DUP3 ADD CALLDATALOAD PUSH1 0x20 DUP3 ADD MSTORE PUSH1 0x40 DUP3 ADD CALLDATALOAD PUSH1 0x40 DUP3 ADD MSTORE PUSH1 0x60 DUP3 ADD CALLDATALOAD PUSH1 0x60 DUP3 ADD MSTORE PUSH1 0x80 DUP3 ADD CALLDATALOAD PUSH1 0x80 DUP3 ADD MSTORE PUSH1 0xA0 DUP3 ADD CALLDATALOAD PUSH1 0xA0 DUP3 ADD MSTORE SWAP3 SWAP2 POP POP JUMP JUMPDEST PUSH1 0x0 PUSH1 0x80 DUP3 DUP5 SUB SLT ISZERO PUSH2 0x1EDB JUMPI DUP1 DUP2 REVERT JUMPDEST PUSH2 0x1EE5 PUSH1 0x80 PUSH2 0x2994 JUMP JUMPDEST SWAP1 POP DUP2 CALLDATALOAD DUP2 MSTORE PUSH1 0x20 DUP3 ADD CALLDATALOAD PUSH1 0x20 DUP3 ADD MSTORE PUSH2 0x1F01 PUSH1 0x40 DUP4 ADD PUSH2 0x1F62 JUMP JUMPDEST PUSH1 0x40 DUP3 ADD MSTORE PUSH1 0x60 DUP3 ADD CALLDATALOAD PUSH1 0x1 PUSH1 0x1 PUSH1 0x40 SHL SUB DUP2 GT ISZERO PUSH2 0x1F1F JUMPI PUSH1 0x0 DUP1 REVERT JUMPDEST PUSH2 0x1F2B DUP5 DUP3 DUP6 ADD PUSH2 0x1D05 JUMP JUMPDEST PUSH1 0x60 DUP4 ADD MSTORE POP SWAP3 SWAP2 POP POP JUMP JUMPDEST DUP1 CALLDATALOAD PUSH4 0xFFFFFFFF DUP2 AND DUP2 EQ PUSH2 0x58F JUMPI PUSH1 0x0 DUP1 REVERT JUMPDEST DUP1 CALLDATALOAD PUSH1 0x1 PUSH1 0x1 PUSH1 0x40 SHL SUB DUP2 AND DUP2 EQ PUSH2 0x58F JUMPI PUSH1 0x0 DUP1 REVERT JUMPDEST DUP1 CALLDATALOAD PUSH1 0xFF DUP2 AND DUP2 EQ PUSH2 0x58F JUMPI PUSH1 0x0 DUP1 REVERT JUMPDEST PUSH1 0x0 PUSH1 0x20 DUP3 DUP5 SUB SLT ISZERO PUSH2 0x1F84 JUMPI DUP1 DUP2 REVERT JUMPDEST DUP2 CALLDATALOAD PUSH1 0x1 PUSH1 0x1 PUSH1 0xA0 SHL SUB DUP2 AND DUP2 EQ PUSH2 0x677 JUMPI DUP2 DUP3 REVERT JUMPDEST PUSH1 0x0 DUP1 PUSH1 0x0 DUP1 PUSH1 0x0 DUP1 PUSH1 0x60 DUP8 DUP10 SUB SLT ISZERO PUSH2 0x1FB2 JUMPI DUP2 DUP3 REVERT JUMPDEST DUP7 CALLDATALOAD PUSH1 0x1 PUSH1 0x1 PUSH1 0x40 SHL SUB DUP1 DUP3 GT ISZERO PUSH2 0x1FC8 JUMPI DUP4 DUP5 REVERT JUMPDEST PUSH2 0x1FD4 DUP11 DUP4 DUP12 ADD PUSH2 0x1CBC JUMP JUMPDEST SWAP1 SWAP9 POP SWAP7 POP PUSH1 0x20 DUP10 ADD CALLDATALOAD SWAP2 POP DUP1 DUP3 GT ISZERO PUSH2 0x1FEC JUMPI DUP4 DUP5 REVERT JUMPDEST PUSH2 0x1FF8 DUP11 DUP4 DUP12 ADD PUSH2 0x1CBC JUMP JUMPDEST SWAP1 SWAP7 POP SWAP5 POP PUSH1 0x40 DUP10 ADD CALLDATALOAD SWAP2 POP DUP1 DUP3 GT ISZERO PUSH2 0x2010 JUMPI DUP4 DUP5 REVERT JUMPDEST DUP2 DUP10 ADD SWAP2 POP DUP10 PUSH1 0x1F DUP4 ADD SLT PUSH2 0x2023 JUMPI DUP4 DUP5 REVERT JUMPDEST DUP2 CALLDATALOAD DUP2 DUP2 GT ISZERO PUSH2 0x2031 JUMPI DUP5 DUP6 REVERT JUMPDEST DUP11 PUSH1 0x20 DUP3 DUP6 ADD ADD GT ISZERO PUSH2 0x2042 JUMPI DUP5 DUP6 REVERT JUMPDEST PUSH1 0x20 DUP4 ADD SWAP5 POP DUP1 SWAP4 POP POP POP POP SWAP3 SWAP6 POP SWAP3 SWAP6 POP SWAP3 SWAP6 JUMP JUMPDEST PUSH1 0x0 PUSH1 0x20 DUP3 DUP5 SUB SLT ISZERO PUSH2 0x2069 JUMPI DUP1 DUP2 REVERT JUMPDEST POP MLOAD SWAP2 SWAP1 POP JUMP JUMPDEST PUSH1 0x0 PUSH2 0x100 DUP3 DUP5 SUB SLT ISZERO PUSH2 0x2082 JUMPI DUP1 DUP2 REVERT JUMPDEST PUSH2 0x677 DUP4 DUP4 PUSH2 0x1D7E JUMP JUMPDEST PUSH1 0x0 DUP1 PUSH2 0x120 DUP4 DUP6 SUB SLT ISZERO PUSH2 0x209F JUMPI DUP2 DUP3 REVERT JUMPDEST PUSH2 0x20A9 DUP5 DUP5 PUSH2 0x1D7E JUMP JUMPDEST SWAP5 PUSH2 0x100 SWAP4 SWAP1 SWAP4 ADD CALLDATALOAD SWAP4 POP POP POP JUMP JUMPDEST PUSH1 0x0 PUSH1 0x20 DUP3 DUP5 SUB SLT ISZERO PUSH2 0x20C9 JUMPI DUP1 DUP2 REVERT JUMPDEST DUP2 CALLDATALOAD PUSH1 0x1 PUSH1 0x1 PUSH1 0x40 SHL SUB DUP2 GT ISZERO PUSH2 0x20DE JUMPI DUP2 DUP3 REVERT JUMPDEST PUSH2 0xAAC DUP5 DUP3 DUP6 ADD PUSH2 0x1E02 JUMP JUMPDEST PUSH1 0x0 DUP1 PUSH1 0x40 DUP4 DUP6 SUB SLT ISZERO PUSH2 0x20FC JUMPI DUP2 DUP3 REVERT JUMPDEST DUP3 CALLDATALOAD PUSH1 0x1 PUSH1 0x1 PUSH1 0x40 SHL SUB DUP2 GT ISZERO PUSH2 0x2111 JUMPI DUP3 DUP4 REVERT JUMPDEST PUSH2 0x211D DUP6 DUP3 DUP7 ADD PUSH2 0x1E02 JUMP JUMPDEST SWAP6 PUSH1 0x20 SWAP5 SWAP1 SWAP5 ADD CALLDATALOAD SWAP5 POP POP POP POP JUMP JUMPDEST PUSH1 0x0 PUSH1 0xA0 DUP3 DUP5 SUB SLT ISZERO PUSH2 0x213D JUMPI DUP1 DUP2 REVERT JUMPDEST PUSH2 0x2147 PUSH1 0xA0 PUSH2 0x2994 JUMP JUMPDEST DUP3 CALLDATALOAD DUP1 ISZERO ISZERO DUP2 EQ PUSH2 0x2156 JUMPI DUP3 DUP4 REVERT JUMPDEST DUP2 MSTORE PUSH2 0x2164 PUSH1 0x20 DUP5 ADD PUSH2 0x1F62 JUMP JUMPDEST PUSH1 0x20 DUP3 ADD MSTORE PUSH1 0x40 DUP4 ADD CALLDATALOAD PUSH1 0x40 DUP3 ADD MSTORE PUSH1 0x60 DUP4 ADD CALLDATALOAD PUSH1 0x60 DUP3 ADD MSTORE PUSH1 0x80 DUP4 ADD CALLDATALOAD PUSH1 0x80 DUP3 ADD MSTORE DUP1 SWAP2 POP POP SWAP3 SWAP2 POP POP JUMP JUMPDEST PUSH1 0x0 DUP1 PUSH1 0x0 DUP1 PUSH1 0x0 DUP6 DUP8 SUB PUSH2 0x200 DUP2 SLT ISZERO PUSH2 0x21AA JUMPI DUP4 DUP5 REVERT JUMPDEST PUSH1 0xC0 DUP2 SLT ISZERO PUSH2 0x21B7 JUMPI DUP4 DUP5 REVERT JUMPDEST DUP7 SWAP6 POP PUSH2 0x100 PUSH1 0xBF NOT DUP3 ADD SLT ISZERO PUSH2 0x21CC JUMPI DUP4 DUP5 REVERT JUMPDEST POP PUSH1 0xC0 DUP7 ADD SWAP4 POP PUSH2 0x1C0 DUP7 ADD CALLDATALOAD PUSH1 0x1 PUSH1 0x1 PUSH1 0x40 SHL SUB DUP1 DUP3 GT ISZERO PUSH2 0x21ED JUMPI DUP5 DUP6 REVERT JUMPDEST SWAP1 DUP8 ADD SWAP1 PUSH1 0x40 DUP3 DUP11 SUB SLT ISZERO PUSH2 0x2200 JUMPI DUP5 DUP6 REVERT JUMPDEST SWAP1 SWAP4 POP PUSH2 0x1E0 DUP8 ADD CALLDATALOAD SWAP1 DUP1 DUP3 GT ISZERO PUSH2 0x2216 JUMPI DUP3 DUP4 REVERT JUMPDEST POP PUSH2 0x2223 DUP9 DUP3 DUP10 ADD PUSH2 0x1CBC JUMP JUMPDEST SWAP7 SWAP10 SWAP6 SWAP9 POP SWAP4 SWAP7 POP SWAP3 SWAP5 SWAP4 SWAP3 POP POP POP JUMP JUMPDEST PUSH1 0x0 PUSH1 0xC0 DUP3 DUP5 SUB SLT ISZERO PUSH2 0x2245 JUMPI DUP1 DUP2 REVERT JUMPDEST PUSH2 0x677 DUP4 DUP4 PUSH2 0x1E71 JUMP JUMPDEST PUSH1 0x0 DUP1 PUSH1 0x0 DUP1 PUSH2 0x200 DUP6 DUP8 SUB SLT ISZERO PUSH2 0x2265 JUMPI DUP2 DUP3 REVERT JUMPDEST PUSH2 0x226F DUP7 DUP7 PUSH2 0x1E71 JUMP JUMPDEST SWAP4 POP PUSH2 0x227E DUP7 PUSH1 0xC0 DUP8 ADD PUSH2 0x1D7E JUMP JUMPDEST SWAP3 POP PUSH2 0x1C0 DUP6 ADD CALLDATALOAD PUSH1 0x1 PUSH1 0x1 PUSH1 0x40 SHL SUB DUP1 DUP3 GT ISZERO PUSH2 0x229A JUMPI DUP4 DUP5 REVERT JUMPDEST PUSH2 0x22A6 DUP9 DUP4 DUP10 ADD PUSH2 0x1E02 JUMP JUMPDEST SWAP4 POP PUSH2 0x1E0 DUP8 ADD CALLDATALOAD SWAP2 POP DUP1 DUP3 GT ISZERO PUSH2 0x22BC JUMPI DUP3 DUP4 REVERT JUMPDEST POP DUP6 ADD PUSH1 0x1F DUP2 ADD DUP8 SGT PUSH2 0x22CD JUMPI DUP2 DUP3 REVERT JUMPDEST PUSH2 0x22DC DUP8 DUP3 CALLDATALOAD PUSH1 0x20 DUP5 ADD PUSH2 0x1C55 JUMP JUMPDEST SWAP2 POP POP SWAP3 SWAP6 SWAP2 SWAP5 POP SWAP3 POP JUMP JUMPDEST PUSH1 0x0 PUSH1 0x20 DUP3 DUP5 SUB SLT ISZERO PUSH2 0x22F9 JUMPI DUP1 DUP2 REVERT JUMPDEST DUP2 CALLDATALOAD PUSH1 0x1 PUSH1 0x1 PUSH1 0x40 SHL SUB DUP2 GT ISZERO PUSH2 0x230E JUMPI DUP2 DUP3 REVERT JUMPDEST PUSH2 0xAAC DUP5 DUP3 DUP6 ADD PUSH2 0x1ECA JUMP JUMPDEST PUSH1 0x0 DUP1 PUSH1 0x0 PUSH1 0x60 DUP5 DUP7 SUB SLT ISZERO PUSH2 0x232E JUMPI DUP1 DUP2 REVERT JUMPDEST DUP4 CALLDATALOAD PUSH1 0x1 PUSH1 0x1 PUSH1 0x40 SHL SUB DUP1 DUP3 GT ISZERO PUSH2 0x2344 JUMPI DUP3 DUP4 REVERT JUMPDEST PUSH2 0x2350 DUP8 DUP4 DUP9 ADD PUSH2 0x1ECA JUMP JUMPDEST SWAP5 POP PUSH1 0x20 DUP7 ADD CALLDATALOAD SWAP2 POP DUP1 DUP3 GT ISZERO PUSH2 0x2365 JUMPI DUP3 DUP4 REVERT JUMPDEST PUSH2 0x2371 DUP8 DUP4 DUP9 ADD PUSH2 0x1D05 JUMP JUMPDEST SWAP4 POP PUSH1 0x40 DUP7 ADD CALLDATALOAD SWAP2 POP DUP1 DUP3 GT ISZERO PUSH2 0x2386 JUMPI DUP3 DUP4 REVERT JUMPDEST POP PUSH2 0x2393 DUP7 DUP3 DUP8 ADD PUSH2 0x1D05 JUMP JUMPDEST SWAP2 POP POP SWAP3 POP SWAP3 POP SWAP3 JUMP JUMPDEST PUSH1 0x0 PUSH1 0x20 DUP3 DUP5 SUB SLT ISZERO PUSH2 0x23AE JUMPI DUP1 DUP2 REVERT JUMPDEST POP CALLDATALOAD SWAP2 SWAP1 POP JUMP JUMPDEST PUSH1 0x0 DUP1 PUSH1 0x0 DUP1 PUSH1 0x0 PUSH1 0x80 DUP7 DUP9 SUB SLT ISZERO PUSH2 0x23CC JUMPI DUP3 DUP4 REVERT JUMPDEST DUP6 CALLDATALOAD SWAP5 POP PUSH1 0x20 DUP7 ADD CALLDATALOAD PUSH1 0x1 PUSH1 0x1 PUSH1 0x40 SHL SUB DUP1 DUP3 GT ISZERO PUSH2 0x23E9 JUMPI DUP5 DUP6 REVERT JUMPDEST SWAP1 DUP8 ADD SWAP1 PUSH2 0x160 DUP3 DUP11 SUB SLT ISZERO PUSH2 0x23FD JUMPI DUP5 DUP6 REVERT JUMPDEST SWAP1 SWAP5 POP PUSH1 0x40 DUP8 ADD CALLDATALOAD SWAP4 POP PUSH1 0x60 DUP8 ADD CALLDATALOAD SWAP1 DUP1 DUP3 GT ISZERO PUSH2 0x2419 JUMPI DUP3 DUP4 REVERT JUMPDEST DUP2 DUP9 ADD SWAP2 POP DUP9 PUSH1 0x1F DUP4 ADD SLT PUSH2 0x242C JUMPI DUP3 DUP4 REVERT JUMPDEST DUP2 CALLDATALOAD DUP2 DUP2 GT ISZERO PUSH2 0x243A JUMPI DUP4 DUP5 REVERT JUMPDEST DUP10 PUSH1 0x20 PUSH1 0xA0 DUP4 MUL DUP6 ADD ADD GT ISZERO PUSH2 0x244E JUMPI DUP4 DUP5 REVERT JUMPDEST SWAP7 SWAP10 SWAP6 SWAP9 POP SWAP4 SWAP7 POP PUSH1 0x20 ADD SWAP5 SWAP4 SWAP3 POP POP POP JUMP JUMPDEST PUSH1 0x0 PUSH1 0x20 DUP3 DUP5 SUB SLT ISZERO PUSH2 0x2472 JUMPI DUP1 DUP2 REVERT JUMPDEST PUSH2 0x677 DUP3 PUSH2 0x1F37 JUMP JUMPDEST PUSH1 0x0 PUSH1 0x20 DUP3 DUP5 SUB SLT ISZERO PUSH2 0x248C JUMPI DUP1 DUP2 REVERT JUMPDEST PUSH2 0x677 DUP3 PUSH2 0x1F4B JUMP JUMPDEST PUSH1 0x0 DUP2 MLOAD DUP1 DUP5 MSTORE PUSH2 0x24AD DUP2 PUSH1 0x20 DUP7 ADD PUSH1 0x20 DUP7 ADD PUSH2 0x2BA3 JUMP JUMPDEST PUSH1 0x1F ADD PUSH1 0x1F NOT AND SWAP3 SWAP1 SWAP3 ADD PUSH1 0x20 ADD SWAP3 SWAP2 POP POP JUMP JUMPDEST PUSH1 0x4 DUP2 LT PUSH2 0x24DF JUMPI PUSH4 0x4E487B71 PUSH1 0xE0 SHL PUSH1 0x0 MSTORE PUSH1 0x21 PUSH1 0x4 MSTORE PUSH1 0x24 PUSH1 0x0 REVERT JUMPDEST SWAP1 MSTORE JUMP JUMPDEST PUSH1 0x0 DUP3 MLOAD PUSH2 0x24F5 DUP2 DUP5 PUSH1 0x20 DUP8 ADD PUSH2 0x2BA3 JUMP JUMPDEST SWAP2 SWAP1 SWAP2 ADD SWAP3 SWAP2 POP POP JUMP JUMPDEST PUSH1 0x0 DUP5 MLOAD PUSH2 0x2511 DUP2 DUP5 PUSH1 0x20 DUP10 ADD PUSH2 0x2BA3 JUMP JUMPDEST DUP3 ADD DUP5 DUP2 MSTORE DUP4 MLOAD PUSH2 0x2529 DUP2 PUSH1 0x20 DUP1 DUP6 ADD SWAP1 DUP9 ADD PUSH2 0x2BA3 JUMP JUMPDEST ADD PUSH1 0x20 ADD SWAP6 SWAP5 POP POP POP POP POP JUMP JUMPDEST PUSH1 0x0 DUP5 MLOAD PUSH2 0x2548 DUP2 DUP5 PUSH1 0x20 DUP10 ADD PUSH2 0x2BA3 JUMP JUMPDEST DUP5 MLOAD SWAP1 DUP4 ADD SWAP1 PUSH2 0x255C DUP2 DUP4 PUSH1 0x20 DUP10 ADD PUSH2 0x2BA3 JUMP JUMPDEST DUP5 MLOAD SWAP2 ADD SWAP1 PUSH2 0x256F DUP2 DUP4 PUSH1 0x20 DUP9 ADD PUSH2 0x2BA3 JUMP JUMPDEST ADD SWAP6 SWAP5 POP POP POP POP POP JUMP JUMPDEST PUSH1 0x0 DUP6 MLOAD PUSH2 0x258B DUP2 DUP5 PUSH1 0x20 DUP11 ADD PUSH2 0x2BA3 JUMP JUMPDEST DUP6 MLOAD SWAP1 DUP4 ADD SWAP1 PUSH2 0x259F DUP2 DUP4 PUSH1 0x20 DUP11 ADD PUSH2 0x2BA3 JUMP JUMPDEST DUP6 MLOAD SWAP2 ADD SWAP1 PUSH2 0x25B2 DUP2 DUP4 PUSH1 0x20 DUP10 ADD PUSH2 0x2BA3 JUMP JUMPDEST DUP5 MLOAD SWAP2 ADD SWAP1 PUSH2 0x25C5 DUP2 DUP4 PUSH1 0x20 DUP9 ADD PUSH2 0x2BA3 JUMP JUMPDEST ADD SWAP7 SWAP6 POP POP POP POP POP POP JUMP JUMPDEST PUSH1 0x0 DUP4 MLOAD PUSH2 0x25E2 DUP2 DUP5 PUSH1 0x20 DUP9 ADD PUSH2 0x2BA3 JUMP JUMPDEST PUSH1 0x1 PUSH1 0xFC SHL SWAP1 DUP4 ADD SWAP1 DUP2 MSTORE DUP4 MLOAD PUSH2 0x2600 DUP2 PUSH1 0x1 DUP5 ADD PUSH1 0x20 DUP9 ADD PUSH2 0x2BA3 JUMP JUMPDEST ADD PUSH1 0x1 ADD SWAP5 SWAP4 POP POP POP POP JUMP JUMPDEST PUSH1 0x0 DUP7 MLOAD PUSH2 0x261E DUP2 DUP5 PUSH1 0x20 DUP12 ADD PUSH2 0x2BA3 JUMP JUMPDEST PUSH1 0x1 PUSH1 0x1 PUSH1 0xF8 SHL SUB NOT PUSH1 0xF8 DUP9 DUP2 SHL DUP3 AND SWAP3 DUP6 ADD SWAP3 DUP4 MSTORE DUP8 SWAP1 SHL AND PUSH1 0x1 DUP3 ADD MSTORE DUP5 MLOAD PUSH2 0x2650 DUP2 PUSH1 0x2 DUP5 ADD PUSH1 0x20 DUP10 ADD PUSH2 0x2BA3 JUMP JUMPDEST DUP5 MLOAD SWAP2 ADD SWAP1 PUSH2 0x2666 DUP2 PUSH1 0x2 DUP5 ADD PUSH1 0x20 DUP9 ADD PUSH2 0x2BA3 JUMP JUMPDEST ADD PUSH1 0x2 ADD SWAP8 SWAP7 POP POP POP POP POP POP POP JUMP JUMPDEST PUSH1 0x1 PUSH1 0xFB SHL DUP2 MSTORE DUP2 MLOAD PUSH1 0x0 SWAP1 PUSH2 0x2692 DUP2 PUSH1 0x1 DUP6 ADD PUSH1 0x20 DUP8 ADD PUSH2 0x2BA3 JUMP JUMPDEST SWAP2 SWAP1 SWAP2 ADD PUSH1 0x1 ADD SWAP3 SWAP2 POP POP JUMP JUMPDEST PUSH1 0x0 PUSH1 0xFF PUSH1 0xF8 SHL DUP5 PUSH1 0xF8 SHL AND DUP3 MSTORE DUP3 MLOAD PUSH2 0x26C0 DUP2 PUSH1 0x1 DUP6 ADD PUSH1 0x20 DUP8 ADD PUSH2 0x2BA3 JUMP JUMPDEST SWAP2 SWAP1 SWAP2 ADD PUSH1 0x1 ADD SWAP4 SWAP3 POP POP POP JUMP JUMPDEST PUSH1 0x0 PUSH1 0xFF PUSH1 0xF8 SHL DUP1 DUP11 PUSH1 0xF8 SHL AND DUP4 MSTORE DUP9 MLOAD PUSH2 0x26F0 DUP2 PUSH1 0x1 DUP7 ADD PUSH1 0x20 DUP14 ADD PUSH2 0x2BA3 JUMP JUMPDEST DUP9 MLOAD SWAP1 DUP5 ADD SWAP1 PUSH2 0x2707 DUP2 PUSH1 0x1 DUP5 ADD PUSH1 0x20 DUP14 ADD PUSH2 0x2BA3 JUMP JUMPDEST PUSH1 0xF8 SWAP9 DUP10 SHL DUP4 AND PUSH1 0x1 SWAP3 SWAP1 SWAP2 ADD SWAP2 DUP3 ADD MSTORE PUSH1 0x2 DUP2 ADD SWAP7 SWAP1 SWAP7 MSTORE SWAP4 SWAP1 SWAP6 SHL SWAP1 SWAP3 AND PUSH1 0x22 DUP5 ADD MSTORE PUSH1 0x23 DUP4 ADD MSTORE POP PUSH1 0x43 ADD SWAP5 SWAP4 POP POP POP POP JUMP JUMPDEST PUSH1 0x0 PUSH1 0xFF PUSH1 0xF8 SHL DUP1 DUP11 PUSH1 0xF8 SHL AND DUP4 MSTORE DUP1 DUP10 PUSH1 0xF8 SHL AND PUSH1 0x1 DUP5 ADD MSTORE DUP8 MLOAD PUSH2 0x276A DUP2 PUSH1 0x2 DUP7 ADD PUSH1 0x20 DUP13 ADD PUSH2 0x2BA3 JUMP JUMPDEST DUP1 DUP5 ADD SWAP1 POP DUP2 DUP9 PUSH1 0xF8 SHL AND PUSH1 0x2 DUP3 ADD MSTORE DUP7 MLOAD PUSH2 0x278D DUP2 PUSH1 0x3 DUP5 ADD PUSH1 0x20 DUP12 ADD PUSH2 0x2BA3 JUMP JUMPDEST PUSH1 0xF8 SWAP7 SWAP1 SWAP7 SHL SWAP2 SWAP1 SWAP2 AND SWAP5 ADD PUSH1 0x3 DUP2 ADD SWAP5 SWAP1 SWAP5 MSTORE POP POP PUSH1 0x4 DUP3 ADD MSTORE PUSH1 0x24 ADD SWAP6 SWAP5 POP POP POP POP POP JUMP JUMPDEST PUSH1 0x0 PUSH1 0x20 DUP3 MSTORE PUSH2 0x677 PUSH1 0x20 DUP4 ADD DUP5 PUSH2 0x2495 JUMP JUMPDEST PUSH1 0x0 PUSH1 0x20 DUP3 MSTORE DUP3 PUSH1 0x20 DUP4 ADD MSTORE DUP3 DUP5 PUSH1 0x40 DUP5 ADD CALLDATACOPY DUP2 DUP4 ADD PUSH1 0x40 SWAP1 DUP2 ADD SWAP2 SWAP1 SWAP2 MSTORE PUSH1 0x1F SWAP1 SWAP3 ADD PUSH1 0x1F NOT AND ADD ADD SWAP2 SWAP1 POP JUMP JUMPDEST PUSH1 0x0 PUSH1 0x20 DUP3 MSTORE DUP3 MLOAD PUSH1 0x40 PUSH1 0x20 DUP5 ADD MSTORE PUSH2 0x2812 PUSH1 0x60 DUP5 ADD DUP3 PUSH2 0x2495 JUMP JUMPDEST SWAP1 POP PUSH1 0x20 DUP5 ADD MLOAD PUSH1 0x1F NOT DUP5 DUP4 SUB ADD PUSH1 0x40 DUP6 ADD MSTORE PUSH2 0x193F DUP3 DUP3 PUSH2 0x2495 JUMP JUMPDEST PUSH1 0x0 PUSH1 0x20 DUP3 MSTORE DUP3 MLOAD PUSH2 0x160 DUP1 PUSH1 0x20 DUP6 ADD MSTORE PUSH2 0x284E PUSH2 0x180 DUP6 ADD DUP4 PUSH2 0x2495 JUMP JUMPDEST SWAP2 POP PUSH1 0x20 DUP6 ADD MLOAD PUSH2 0x286A PUSH1 0x40 DUP7 ADD DUP3 PUSH1 0x1 PUSH1 0x1 PUSH1 0x40 SHL SUB AND SWAP1 MSTORE JUMP JUMPDEST POP PUSH1 0x40 DUP6 ADD MLOAD PUSH1 0x1F NOT DUP1 DUP7 DUP6 SUB ADD PUSH1 0x60 DUP8 ADD MSTORE PUSH2 0x2887 DUP5 DUP4 PUSH2 0x2495 JUMP JUMPDEST SWAP4 POP PUSH1 0x60 DUP8 ADD MLOAD SWAP2 POP PUSH2 0x28A5 PUSH1 0x80 DUP8 ADD DUP4 PUSH1 0x1 PUSH1 0x1 PUSH1 0x40 SHL SUB AND SWAP1 MSTORE JUMP JUMPDEST PUSH1 0x80 DUP8 ADD MLOAD PUSH1 0x1 PUSH1 0x1 PUSH1 0x40 SHL SUB DUP2 AND PUSH1 0xA0 DUP9 ADD MSTORE SWAP2 POP PUSH1 0xA0 DUP8 ADD MLOAD PUSH1 0x1 PUSH1 0x1 PUSH1 0x40 SHL SUB DUP2 AND PUSH1 0xC0 DUP9 ADD MSTORE SWAP2 POP PUSH1 0xC0 DUP8 ADD MLOAD PUSH1 0x1 PUSH1 0x1 PUSH1 0x40 SHL SUB DUP2 AND PUSH1 0xE0 DUP9 ADD MSTORE SWAP2 POP PUSH1 0xE0 DUP8 ADD MLOAD SWAP2 POP PUSH2 0x100 PUSH2 0x2905 DUP2 DUP9 ADD DUP5 PUSH1 0x1 PUSH1 0x1 PUSH1 0x40 SHL SUB AND SWAP1 MSTORE JUMP JUMPDEST DUP8 ADD MLOAD SWAP2 POP PUSH2 0x120 PUSH2 0x2921 DUP8 DUP3 ADD DUP5 PUSH1 0x1 PUSH1 0x1 PUSH1 0x40 SHL SUB AND SWAP1 MSTORE JUMP JUMPDEST DUP8 ADD MLOAD SWAP2 POP PUSH2 0x140 PUSH2 0x2935 DUP8 DUP3 ADD DUP5 PUSH2 0x24C1 JUMP JUMPDEST DUP8 ADD MLOAD DUP7 DUP6 SUB SWAP1 SWAP2 ADD DUP4 DUP8 ADD MSTORE SWAP1 POP PUSH2 0x294E DUP4 DUP3 PUSH2 0x2495 JUMP JUMPDEST SWAP7 SWAP6 POP POP POP POP POP POP JUMP JUMPDEST PUSH1 0x0 PUSH1 0x20 DUP3 MSTORE DUP3 MLOAD PUSH1 0x20 DUP4 ADD MSTORE PUSH1 0x20 DUP4 ADD MLOAD PUSH1 0x40 DUP4 ADD MSTORE PUSH1 0xFF PUSH1 0x40 DUP5 ADD MLOAD AND PUSH1 0x60 DUP4 ADD MSTORE PUSH1 0x60 DUP4 ADD MLOAD PUSH1 0x80 DUP1 DUP5 ADD MSTORE PUSH2 0xAAC PUSH1 0xA0 DUP5 ADD DUP3 PUSH2 0x2495 JUMP JUMPDEST PUSH1 0x40 MLOAD PUSH1 0x1F DUP3 ADD PUSH1 0x1F NOT AND DUP2 ADD PUSH1 0x1 PUSH1 0x1 PUSH1 0x40 SHL SUB DUP2 GT DUP3 DUP3 LT OR ISZERO PUSH2 0x29BC JUMPI PUSH2 0x29BC PUSH2 0x2C66 JUMP JUMPDEST PUSH1 0x40 MSTORE SWAP2 SWAP1 POP JUMP JUMPDEST PUSH1 0x0 DUP3 NOT DUP3 GT ISZERO PUSH2 0x29D7 JUMPI PUSH2 0x29D7 PUSH2 0x2C50 JUMP JUMPDEST POP ADD SWAP1 JUMP JUMPDEST PUSH1 0x0 PUSH1 0x1 PUSH1 0x1 PUSH1 0x40 SHL SUB DUP1 DUP4 AND DUP2 DUP6 AND DUP1 DUP4 SUB DUP3 GT ISZERO PUSH2 0x29FE JUMPI PUSH2 0x29FE PUSH2 0x2C50 JUMP JUMPDEST ADD SWAP5 SWAP4 POP POP POP POP JUMP JUMPDEST PUSH1 0x0 DUP2 PUSH1 0x0 NOT DIV DUP4 GT DUP3 ISZERO ISZERO AND ISZERO PUSH2 0x2A21 JUMPI PUSH2 0x2A21 PUSH2 0x2C50 JUMP JUMPDEST POP MUL SWAP1 JUMP JUMPDEST PUSH1 0x0 DUP3 DUP3 LT ISZERO PUSH2 0x2A38 JUMPI PUSH2 0x2A38 PUSH2 0x2C50 JUMP JUMPDEST POP SUB SWAP1 JUMP JUMPDEST PUSH1 0x0 PUSH1 0x1 PUSH1 0x1 PUSH1 0x40 SHL SUB DUP4 DUP2 AND SWAP1 DUP4 AND DUP2 DUP2 LT ISZERO PUSH2 0x2A5D JUMPI PUSH2 0x2A5D PUSH2 0x2C50 JUMP JUMPDEST SUB SWAP4 SWAP3 POP POP POP JUMP JUMPDEST PUSH1 0x0 PUSH2 0x677 CALLDATASIZE DUP5 DUP5 PUSH2 0x1C55 JUMP JUMPDEST PUSH1 0x0 PUSH2 0x124D CALLDATASIZE DUP4 PUSH2 0x1E02 JUMP JUMPDEST PUSH1 0x0 PUSH2 0x160 DUP1 DUP4 CALLDATASIZE SUB SLT ISZERO PUSH2 0x2A91 JUMPI DUP2 DUP3 REVERT JUMPDEST PUSH2 0x2A9A DUP2 PUSH2 0x2994 JUMP JUMPDEST SWAP1 POP DUP3 CALLDATALOAD PUSH1 0x1 PUSH1 0x1 PUSH1 0x40 SHL SUB DUP1 DUP3 GT ISZERO PUSH2 0x2AB2 JUMPI DUP4 DUP5 REVERT JUMPDEST PUSH2 0x2ABE CALLDATASIZE DUP4 DUP8 ADD PUSH2 0x1D05 JUMP JUMPDEST DUP4 MSTORE PUSH2 0x2ACC PUSH1 0x20 DUP7 ADD PUSH2 0x1F4B JUMP JUMPDEST PUSH1 0x20 DUP5 ADD MSTORE PUSH1 0x40 DUP6 ADD CALLDATALOAD SWAP2 POP DUP1 DUP3 GT ISZERO PUSH2 0x2AE4 JUMPI DUP4 DUP5 REVERT JUMPDEST PUSH2 0x2AF0 CALLDATASIZE DUP4 DUP8 ADD PUSH2 0x1D05 JUMP JUMPDEST PUSH1 0x40 DUP5 ADD MSTORE PUSH2 0x2B01 PUSH1 0x60 DUP7 ADD PUSH2 0x1F4B JUMP JUMPDEST PUSH1 0x60 DUP5 ADD MSTORE PUSH2 0x2B12 PUSH1 0x80 DUP7 ADD PUSH2 0x1F4B JUMP JUMPDEST PUSH1 0x80 DUP5 ADD MSTORE PUSH2 0x2B23 PUSH1 0xA0 DUP7 ADD PUSH2 0x1F4B JUMP JUMPDEST PUSH1 0xA0 DUP5 ADD MSTORE PUSH2 0x2B34 PUSH1 0xC0 DUP7 ADD PUSH2 0x1F4B JUMP JUMPDEST PUSH1 0xC0 DUP5 ADD MSTORE PUSH2 0x2B45 PUSH1 0xE0 DUP7 ADD PUSH2 0x1F4B JUMP JUMPDEST PUSH1 0xE0 DUP5 ADD MSTORE PUSH2 0x100 SWAP2 POP PUSH2 0x2B5A DUP3 DUP7 ADD PUSH2 0x1F4B JUMP JUMPDEST DUP3 DUP5 ADD MSTORE PUSH2 0x120 SWAP2 POP PUSH2 0x2B6E DUP3 DUP7 ADD PUSH2 0x1D6F JUMP JUMPDEST DUP3 DUP5 ADD MSTORE PUSH2 0x140 SWAP2 POP DUP2 DUP6 ADD CALLDATALOAD DUP2 DUP2 GT ISZERO PUSH2 0x2B87 JUMPI DUP5 DUP6 REVERT JUMPDEST PUSH2 0x2B93 CALLDATASIZE DUP3 DUP9 ADD PUSH2 0x1D05 JUMP JUMPDEST DUP4 DUP6 ADD MSTORE POP POP POP DUP1 SWAP2 POP POP SWAP2 SWAP1 POP JUMP JUMPDEST PUSH1 0x0 JUMPDEST DUP4 DUP2 LT ISZERO PUSH2 0x2BBE JUMPI DUP2 DUP2 ADD MLOAD DUP4 DUP3 ADD MSTORE PUSH1 0x20 ADD PUSH2 0x2BA6 JUMP JUMPDEST DUP4 DUP2 GT ISZERO PUSH2 0x2BCD JUMPI PUSH1 0x0 DUP5 DUP5 ADD MSTORE JUMPDEST POP POP POP POP JUMP JUMPDEST PUSH1 0x1 DUP2 DUP2 SHR SWAP1 DUP3 AND DUP1 PUSH2 0x2BE7 JUMPI PUSH1 0x7F DUP3 AND SWAP2 POP JUMPDEST PUSH1 0x20 DUP3 LT DUP2 EQ ISZERO PUSH2 0x2C08 JUMPI PUSH4 0x4E487B71 PUSH1 0xE0 SHL PUSH1 0x0 MSTORE PUSH1 0x22 PUSH1 0x4 MSTORE PUSH1 0x24 PUSH1 0x0 REVERT JUMPDEST POP SWAP2 SWAP1 POP JUMP JUMPDEST PUSH1 0x0 PUSH1 0x0 NOT DUP3 EQ ISZERO PUSH2 0x2C22 JUMPI PUSH2 0x2C22 PUSH2 0x2C50 JUMP JUMPDEST POP PUSH1 0x1 ADD SWAP1 JUMP JUMPDEST PUSH1 0x0 PUSH1 0x1 PUSH1 0x1 PUSH1 0x40 SHL SUB DUP1 DUP4 AND DUP2 DUP2 EQ ISZERO PUSH2 0x2C46 JUMPI PUSH2 0x2C46 PUSH2 0x2C50 JUMP JUMPDEST PUSH1 0x1 ADD SWAP4 SWAP3 POP POP POP JUMP JUMPDEST PUSH4 0x4E487B71 PUSH1 0xE0 SHL PUSH1 0x0 MSTORE PUSH1 0x11 PUSH1 0x4 MSTORE PUSH1 0x24 PUSH1 0x0 REVERT JUMPDEST PUSH4 0x4E487B71 PUSH1 0xE0 SHL PUSH1 0x0 MSTORE PUSH1 0x41 PUSH1 0x4 MSTORE PUSH1 0x24 PUSH1 0x0 REVERT INVALID LOG2 PUSH5 0x6970667358 0x22 SLT KECCAK256 0xEC 0xD0 SWAP11 0x4C 0xB7 0xA9 CALLDATALOAD 0xCD PUSH30 0x5006056C623C9640579CD73919F8FBCC64F1AB0718DFE64736F6C634300 ADDMOD SUB STOP CALLER "},"methodIdentifiers":{"blockDetails(uint256)":"f953205a","checkPartsAndEncodedCommonParts((bytes,bytes),bytes32)":"5cd2458c","checkTimeAndRecoverSigner((bytes32,bytes32,uint8,bytes),bytes,bytes)":"071ee1e1","encodedChainId()":"64c47193","getAppHash((bytes32,bytes32,bytes32,bytes32,bytes32,bytes32))":"e71296e1","getAppHash2((bytes32,bytes32,bytes32,bytes32,bytes32,bytes32))":"0ac804c5","getAppHash3((bytes32,bytes32,bytes32,bytes32,bytes32,bytes32))":"760729c3","getBlockHeader((bytes32,uint64,uint64,uint32,bytes32,bytes32,bytes32,bytes32),bytes32)":"847c1b23","init(address[],uint256[],string)":"93a4a134","latestBlockHeight()":"f3f39ee5","readBlockHeaderMerkleParts((bytes32,uint64,uint64,uint32,bytes32,bytes32,bytes32,bytes32))":"1b60f867","readCommonEncodedVotePartData((bytes,bytes))":"0a4723e6","readMultistoreData((bytes32,bytes32,bytes32,bytes32,bytes32,bytes32))":"679b7b9a","readTMSignatureData((bytes32,bytes32,uint8,bytes))":"2ff08eb5","relayBlock((bytes32,bytes32,bytes32,bytes32,bytes32,bytes32),(bytes32,uint64,uint64,uint32,bytes32,bytes32,bytes32,bytes32),(bytes,bytes),(bytes32,bytes32,uint8,bytes)[])":"af4b9107","totalValidatorPower()":"f8156a6e","unbondingPeriod()":"6cf6d675","validatorPowers(address)":"f61aa09d","verifyBlockHeader((bytes32,bytes32,bytes32,bytes32,bytes32,bytes32),(bytes32,uint64,uint64,uint32,bytes32,bytes32,bytes32,bytes32),(bytes,bytes),(bytes32,bytes32,uint8,bytes)[])":"cc2532ba","verifyOracleData(uint256,(string,uint64,bytes,uint64,uint64,uint64,uint64,uint64,uint64,uint8,bytes),uint256,(bool,uint8,uint256,uint256,bytes32)[])":"c573d977"}}}}}