{"contracts/bridge/BlobstreamO.sol":{"BlobstreamO":{"abi":[{"inputs":[{"internalType":"uint256","name":"_nonce","type":"uint256"},{"internalType":"uint256","name":"_powerThreshold","type":"uint256"},{"internalType":"bytes32","name":"_validatorSetCheckpoint","type":"bytes32"}],"stateMutability":"nonpayable","type":"constructor"},{"inputs":[],"name":"ECDSAInvalidSignature","type":"error"},{"inputs":[{"internalType":"uint256","name":"length","type":"uint256"}],"name":"ECDSAInvalidSignatureLength","type":"error"},{"inputs":[{"internalType":"bytes32","name":"s","type":"bytes32"}],"name":"ECDSAInvalidSignatureS","type":"error"},{"inputs":[],"name":"InsufficientVotingPower","type":"error"},{"inputs":[],"name":"InvalidSignature","type":"error"},{"inputs":[],"name":"MalformedCurrentValidatorSet","type":"error"},{"inputs":[],"name":"SuppliedValidatorSetInvalid","type":"error"},{"anonymous":false,"inputs":[{"indexed":false,"internalType":"bytes32","name":"_oracleRoot","type":"bytes32"}],"name":"NewOracleRoot","type":"event"},{"anonymous":false,"inputs":[{"indexed":true,"internalType":"uint256","name":"_nonce","type":"uint256"},{"indexed":false,"internalType":"uint256","name":"_powerThreshold","type":"uint256"},{"indexed":false,"internalType":"bytes32","name":"_validatorSetHash","type":"bytes32"}],"name":"ValidatorSetUpdated","type":"event"},{"inputs":[],"name":"currentRelayedBlockHeight","outputs":[{"internalType":"uint256","name":"","type":"uint256"}],"stateMutability":"view","type":"function"},{"inputs":[{"internalType":"bytes32","name":"","type":"bytes32"}],"name":"isOracleRoot","outputs":[{"internalType":"bool","name":"","type":"bool"}],"stateMutability":"view","type":"function"},{"inputs":[],"name":"lastValidatorSetCheckpoint","outputs":[{"internalType":"bytes32","name":"","type":"bytes32"}],"stateMutability":"view","type":"function"},{"inputs":[{"internalType":"uint256","name":"","type":"uint256"}],"name":"oracleRoots","outputs":[{"internalType":"bytes32","name":"","type":"bytes32"}],"stateMutability":"view","type":"function"},{"inputs":[],"name":"powerThreshold","outputs":[{"internalType":"uint256","name":"","type":"uint256"}],"stateMutability":"view","type":"function"},{"inputs":[{"internalType":"bytes32","name":"_oracleRoot","type":"bytes32"},{"internalType":"uint256","name":"_blockHeight","type":"uint256"},{"components":[{"internalType":"address","name":"addr","type":"address"},{"internalType":"uint256","name":"power","type":"uint256"}],"internalType":"struct Validator[]","name":"_currentValidatorSet","type":"tuple[]"},{"components":[{"internalType":"uint8","name":"v","type":"uint8"},{"internalType":"bytes32","name":"r","type":"bytes32"},{"internalType":"bytes32","name":"s","type":"bytes32"}],"internalType":"struct Signature[]","name":"_sigs","type":"tuple[]"}],"name":"submitOracleRoot","outputs":[],"stateMutability":"nonpayable","type":"function"},{"inputs":[{"internalType":"bytes32","name":"_newValidatorSetHash","type":"bytes32"},{"internalType":"uint64","name":"_newPowerThreshold","type":"uint64"},{"components":[{"internalType":"address","name":"addr","type":"address"},{"internalType":"uint256","name":"power","type":"uint256"}],"internalType":"struct Validator[]","name":"_currentValidatorSet","type":"tuple[]"},{"components":[{"internalType":"uint8","name":"v","type":"uint8"},{"internalType":"bytes32","name":"r","type":"bytes32"},{"internalType":"bytes32","name":"s","type":"bytes32"}],"internalType":"struct Signature[]","name":"_sigs","type":"tuple[]"}],"name":"updateValidatorSet","outputs":[],"stateMutability":"nonpayable","type":"function"},{"inputs":[],"name":"validatorNonce","outputs":[{"internalType":"uint256","name":"","type":"uint256"}],"stateMutability":"view","type":"function"},{"inputs":[{"internalType":"bytes32","name":"_oracleRoot","type":"bytes32"},{"components":[{"internalType":"uint256","name":"height","type":"uint256"},{"internalType":"bytes32","name":"dataRoot","type":"bytes32"}],"internalType":"struct DataRootTuple","name":"_tuple","type":"tuple"},{"components":[{"internalType":"bytes32[]","name":"sideNodes","type":"bytes32[]"},{"internalType":"uint256","name":"key","type":"uint256"},{"internalType":"uint256","name":"numLeaves","type":"uint256"}],"internalType":"struct BinaryMerkleProof","name":"_proof","type":"tuple"}],"name":"verifyAttestation","outputs":[{"internalType":"bool","name":"","type":"bool"}],"stateMutability":"view","type":"function"},{"inputs":[{"components":[{"internalType":"bytes32","name":"queryId","type":"bytes32"},{"components":[{"internalType":"bytes","name":"value","type":"bytes"},{"internalType":"uint256","name":"timestamp","type":"uint256"},{"internalType":"uint256","name":"consensusThreshold","type":"uint256"}],"internalType":"struct ReportData","name":"report","type":"tuple"},{"internalType":"uint256","name":"validatorNonce","type":"uint256"},{"internalType":"uint256","name":"powerThreshold","type":"uint256"},{"internalType":"bytes32","name":"validatorSetHash","type":"bytes32"},{"internalType":"uint256","name":"blockTimestamp","type":"uint256"}],"internalType":"struct OracleAttestationData","name":"_attest","type":"tuple"},{"components":[{"internalType":"address","name":"addr","type":"address"},{"internalType":"uint256","name":"power","type":"uint256"}],"internalType":"struct Validator[]","name":"_currentValidatorSet","type":"tuple[]"},{"components":[{"internalType":"uint8","name":"v","type":"uint8"},{"internalType":"bytes32","name":"r","type":"bytes32"},{"internalType":"bytes32","name":"s","type":"bytes32"}],"internalType":"struct Signature[]","name":"_sigs","type":"tuple[]"}],"name":"verifyOracleData","outputs":[{"internalType":"bool","name":"","type":"bool"}],"stateMutability":"view","type":"function"}],"evm":{"bytecode":{"linkReferences":{},"object":"60806040523480156200001157600080fd5b5060405162002604380380620026048339818101604052810190620000379190620000d0565b8260028190555080600081905550816001819055505050506200012c565b600080fd5b6000819050919050565b6200006f816200005a565b81146200007b57600080fd5b50565b6000815190506200008f8162000064565b92915050565b6000819050919050565b620000aa8162000095565b8114620000b657600080fd5b50565b600081519050620000ca816200009f565b92915050565b600080600060608486031215620000ec57620000eb62000055565b5b6000620000fc868287016200007e565b93505060206200010f868287016200007e565b92505060406200012286828701620000b9565b9150509250925092565b6124c8806200013c6000396000f3fe608060405234801561001057600080fd5b506004361061009e5760003560e01c8063ba95ec2711610066578063ba95ec2714610159578063cb908d5214610177578063d8256ec7146101a7578063e17a684f146101c5578063e5e57eb5146101e35761009e565b806331b53e52146100a357806391f6b44b146100d357806393319d6e14610103578063ae0024951461011f578063af082a7d1461013b575b600080fd5b6100bd60048036038101906100b8919061132e565b610213565b6040516100ca9190611376565b60405180910390f35b6100ed60048036038101906100e891906113c7565b610233565b6040516100fa9190611403565b60405180910390f35b61011d60048036038101906101189190611519565b61024b565b005b610139600480360381019061013491906115c0565b610382565b005b6101436104d3565b6040516101509190611403565b60405180910390f35b6101616104d9565b60405161016e9190611676565b60405180910390f35b610191600480360381019061018c91906116b5565b6104df565b60405161019e9190611376565b60405180910390f35b6101af6105e2565b6040516101bc9190611676565b60405180910390f35b6101cd6105e8565b6040516101da9190611676565b60405180910390f35b6101fd60048036038101906101f8919061198f565b6105ee565b60405161020a9190611376565b60405180910390f35b60056020528060005260406000206000915054906101000a900460ff1681565b60046020528060005260406000206000915090505481565b81819050848490501461028a576040517fc6617b7b00000000000000000000000000000000000000000000000000000000815260040160405180910390fd5b6000610296858561064d565b90506000546102aa60025460015484610680565b146102e1576040517f177b5d9200000000000000000000000000000000000000000000000000000000815260040160405180910390fd5b60006102fa6002548867ffffffffffffffff168a610680565b905061030c86868686856001546106db565b806000819055508667ffffffffffffffff166001819055506002600081548092919061033790611a2d565b91905055506002547fe304b71f81a1aaf6d714401de28ba1ebdbb5ff9c5fee59ef2a6eb984f9e8da7e888a604051610370929190611ab0565b60405180910390a25050505050505050565b8181905084849050146103c1576040517fc6617b7b00000000000000000000000000000000000000000000000000000000815260040160405180910390fd5b60035485116103cf57600080fd5b8460038190555060006103e2858561064d565b90506000546103f660025460015484610680565b1461042d576040517f177b5d9200000000000000000000000000000000000000000000000000000000815260040160405180910390fd5b600061043c600254888a61087a565b905061044e86868686856001546106db565b6001600560008a815260200190815260200160002060006101000a81548160ff0219169083151502179055508760046000898152602001908152602001600020819055507ffc8ea9eff66c3609bd97a4e7f00008b2fd44294c5e1996f6954fedec62c68afa886040516104c19190611403565b60405180910390a15050505050505050565b60005481565b60015481565b6000828290508585905014610520576040517fc6617b7b00000000000000000000000000000000000000000000000000000000815260040160405180910390fd5b600061052c868661064d565b905060005461054060025460015484610680565b14610577576040517f177b5d9200000000000000000000000000000000000000000000000000000000815260040160405180910390fd5b6002548760400135146105b6576040517f177b5d9200000000000000000000000000000000000000000000000000000000815260040160405180910390fd5b60006105c1886108d5565b90506105d387878787856001546106db565b60019250505095945050505050565b60035481565b60025481565b60006005600085815260200190815260200160002060009054906101000a900460ff1661061a57600080fd5b6106448483856040516020016106309190611b26565b604051602081830303815290604052610991565b90509392505050565b60008282604051602001610662929190611cc3565b60405160208183030381529060405280519060200120905092915050565b60007f636865636b706f696e740000000000000000000000000000000000000000000060001b8484846040516020016106bc9493929190611ce7565b6040516020818303038152906040528051906020012090509392505050565b6000805b87879050811015610836576000801b86868381811061070157610700611d2c565b5b9050606002016020013514801561073657506000801b86868381811061072a57610729611d2c565b5b90506060020160400135145b801561076f5750600086868381811061075257610751611d2c565b5b905060600201600001602081019061076a9190611d94565b60ff16145b610829576107c088888381811061078957610788611d2c565b5b90506040020160000160208101906107a19190611dc1565b858888858181106107b5576107b4611d2c565b5b905060600201610a5f565b6107f6576040517f8baa579f00000000000000000000000000000000000000000000000000000000815260040160405180910390fd5b87878281811061080957610808611d2c565b5b905060400201602001358261081e9190611dee565b915082821015610836575b80806001019150506106df565b5081811015610871576040517fcabeb65500000000000000000000000000000000000000000000000000000000815260040160405180910390fd5b50505050505050565b60007f7472616e73616374696f6e42617463680000000000000000000000000000000060001b8484846040516020016108b69493929190611ce7565b6040516020818303038152906040528051906020012090509392505050565b60007f74656c6c6f7243757272656e744174746573746174696f6e000000000000000060001b82600001358380602001906109109190611e31565b806000019061091f9190611e59565b85806020019061092f9190611e31565b602001358680602001906109439190611e31565b604001358760400135886060013589608001358a60a001356040516020016109749a99989796959493929190611f09565b604051602081830303815290604052805190602001209050919050565b600060018360400151116109ba576000836000015151146109b55760009050610a58565b6109e1565b6109cc83602001518460400151610acb565b836000015151146109e05760009050610a58565b5b82604001518360200151106109f95760009050610a58565b6000610a0483610b5b565b9050600084600001515103610a34576001846040015103610a2a57808514915050610a58565b6000915050610a58565b6000610a4e85602001518660400151848860000151610bd9565b9050858114925050505b9392505050565b600080610a6b84610d97565b9050610a9381846000016020810190610a849190611d94565b85602001358660400135610dcd565b73ffffffffffffffffffffffffffffffffffffffff168573ffffffffffffffffffffffffffffffffffffffff16149150509392505050565b6000610ad682610dfd565b610100610ae39190611f9f565b90506000600182610af49190611f9f565b6001901b9050600181610b079190611f9f565b8411610b135750610b55565b60018103610b25576001915050610b55565b610b458185610b349190611f9f565b8285610b409190611f9f565b610acb565b6001610b519190611dee565b9150505b92915050565b60006002600060f81b83604051602001610b76929190612091565b604051602081830303815290604052604051610b9291906120b9565b602060405180830381855afa158015610baf573d6000803e3d6000fd5b5050506040513d601f19601f82011682018060405250810190610bd291906120e5565b9050919050565b6000808403610c1d576040517f08c379a0000000000000000000000000000000000000000000000000000000008152600401610c1490612195565b60405180910390fd5b60018403610c71576000825114610c69576040517f08c379a0000000000000000000000000000000000000000000000000000000008152600401610c6090612201565b60405180910390fd5b829050610d8f565b6000825103610cb5576040517f08c379a0000000000000000000000000000000000000000000000000000000008152600401610cac9061226d565b60405180910390fd5b6000610cc085610e35565b90506000610cdd84600060018751610cd89190611f9f565b610e80565b905081871015610d32576000610cf588848885610bd9565b9050610d28818660018851610d0a9190611f9f565b81518110610d1b57610d1a611d2c565b5b6020026020010151610fd8565b9350505050610d8f565b6000610d568389610d439190611f9f565b8489610d4f9190611f9f565b8885610bd9565b9050610d898560018751610d6a9190611f9f565b81518110610d7b57610d7a611d2c565b5b602002602001015182610fd8565b93505050505b949350505050565b60007f19457468657265756d205369676e6564204d6573736167653a0a33320000000060005281601c52603c6000209050919050565b600080600080610ddf88888888611059565b925092509250610def828261114d565b829350505050949350505050565b60005b81816001901b1015610e2057600181610e199190611dee565b9050610e00565b80610100610e2e9190611f9f565b9050919050565b60006001821015610e4557600080fd5b6000610e50836112b1565b90506000600182610e619190611f9f565b6001901b9050838103610e7657600181901c90505b8092505050919050565b606081831115610ec5576040517f08c379a0000000000000000000000000000000000000000000000000000000008152600401610ebc906122ff565b60405180910390fd5b8351831180610ed45750835182115b15610f14576040517f08c379a0000000000000000000000000000000000000000000000000000000008152600401610f0b90612391565b60405180910390fd5b60008383610f229190611f9f565b67ffffffffffffffff811115610f3b57610f3a61177c565b5b604051908082528060200260200182016040528015610f695781602001602082028036833780820191505090505b50905060008490505b83811015610fcc57858181518110610f8d57610f8c611d2c565b5b6020026020010151828683610fa29190611f9f565b81518110610fb357610fb2611d2c565b5b6020026020010181815250508080600101915050610f72565b50809150509392505050565b60006002600160f81b8484604051602001610ff5939291906123d2565b60405160208183030381529060405260405161101191906120b9565b602060405180830381855afa15801561102e573d6000803e3d6000fd5b5050506040513d601f19601f8201168201806040525081019061105191906120e5565b905092915050565b60008060007f7fffffffffffffffffffffffffffffff5d576e7357a4501ddfe92f46681b20a08460001c1115611099576000600385925092509250611143565b6000600188888888604051600081526020016040526040516110be949392919061241e565b6020604051602081039080840390855afa1580156110e0573d6000803e3d6000fd5b505050602060405103519050600073ffffffffffffffffffffffffffffffffffffffff168173ffffffffffffffffffffffffffffffffffffffff160361113457600060016000801b93509350935050611143565b8060008060001b935093509350505b9450945094915050565b6000600381111561116157611160612463565b5b82600381111561117457611173612463565b5b03156112ad576001600381111561118e5761118d612463565b5b8260038111156111a1576111a0612463565b5b036111d8576040517ff645eedf00000000000000000000000000000000000000000000000000000000815260040160405180910390fd5b600260038111156111ec576111eb612463565b5b8260038111156111ff576111fe612463565b5b03611244578060001c6040517ffce698f700000000000000000000000000000000000000000000000000000000815260040161123b9190611676565b60405180910390fd5b60038081111561125757611256612463565b5b82600381111561126a57611269612463565b5b036112ac57806040517fd78bce0c0000000000000000000000000000000000000000000000000000000081526004016112a39190611403565b60405180910390fd5b5b5050565b600080600090505b600083146112db5780806112cc90611a2d565b915050600183901c92506112b9565b80915050919050565b6000604051905090565b600080fd5b600080fd5b6000819050919050565b61130b816112f8565b811461131657600080fd5b50565b60008135905061132881611302565b92915050565b600060208284031215611344576113436112ee565b5b600061135284828501611319565b91505092915050565b60008115159050919050565b6113708161135b565b82525050565b600060208201905061138b6000830184611367565b92915050565b6000819050919050565b6113a481611391565b81146113af57600080fd5b50565b6000813590506113c18161139b565b92915050565b6000602082840312156113dd576113dc6112ee565b5b60006113eb848285016113b2565b91505092915050565b6113fd816112f8565b82525050565b600060208201905061141860008301846113f4565b92915050565b600067ffffffffffffffff82169050919050565b61143b8161141e565b811461144657600080fd5b50565b60008135905061145881611432565b92915050565b600080fd5b600080fd5b600080fd5b60008083601f8401126114835761148261145e565b5b8235905067ffffffffffffffff8111156114a05761149f611463565b5b6020830191508360408202830111156114bc576114bb611468565b5b9250929050565b60008083601f8401126114d9576114d861145e565b5b8235905067ffffffffffffffff8111156114f6576114f5611463565b5b60208301915083606082028301111561151257611511611468565b5b9250929050565b60008060008060008060808789031215611536576115356112ee565b5b600061154489828a01611319565b965050602061155589828a01611449565b955050604087013567ffffffffffffffff811115611576576115756112f3565b5b61158289828a0161146d565b9450945050606087013567ffffffffffffffff8111156115a5576115a46112f3565b5b6115b189828a016114c3565b92509250509295509295509295565b600080600080600080608087890312156115dd576115dc6112ee565b5b60006115eb89828a01611319565b96505060206115fc89828a016113b2565b955050604087013567ffffffffffffffff81111561161d5761161c6112f3565b5b61162989828a0161146d565b9450945050606087013567ffffffffffffffff81111561164c5761164b6112f3565b5b61165889828a016114c3565b92509250509295509295509295565b61167081611391565b82525050565b600060208201905061168b6000830184611667565b92915050565b600080fd5b600060c082840312156116ac576116ab611691565b5b81905092915050565b6000806000806000606086880312156116d1576116d06112ee565b5b600086013567ffffffffffffffff8111156116ef576116ee6112f3565b5b6116fb88828901611696565b955050602086013567ffffffffffffffff81111561171c5761171b6112f3565b5b6117288882890161146d565b9450945050604086013567ffffffffffffffff81111561174b5761174a6112f3565b5b611757888289016114c3565b92509250509295509295909350565b600080fd5b6000601f19601f8301169050919050565b7f4e487b7100000000000000000000000000000000000000000000000000000000600052604160045260246000fd5b6117b48261176b565b810181811067ffffffffffffffff821117156117d3576117d261177c565b5b80604052505050565b60006117e66112e4565b90506117f282826117ab565b919050565b600080fd5b60006040828403121561181257611811611766565b5b61181c60406117dc565b9050600061182c848285016113b2565b600083015250602061184084828501611319565b60208301525092915050565b600067ffffffffffffffff8211156118675761186661177c565b5b602082029050602081019050919050565b600061188b6118868461184c565b6117dc565b905080838252602082019050602084028301858111156118ae576118ad611468565b5b835b818110156118d757806118c38882611319565b8452602084019350506020810190506118b0565b5050509392505050565b600082601f8301126118f6576118f561145e565b5b8135611906848260208601611878565b91505092915050565b60006060828403121561192557611924611766565b5b61192f60606117dc565b9050600082013567ffffffffffffffff81111561194f5761194e6117f7565b5b61195b848285016118e1565b600083015250602061196f848285016113b2565b6020830152506040611983848285016113b2565b60408301525092915050565b6000806000608084860312156119a8576119a76112ee565b5b60006119b686828701611319565b93505060206119c7868287016117fc565b925050606084013567ffffffffffffffff8111156119e8576119e76112f3565b5b6119f48682870161190f565b9150509250925092565b7f4e487b7100000000000000000000000000000000000000000000000000000000600052601160045260246000fd5b6000611a3882611391565b91507fffffffffffffffffffffffffffffffffffffffffffffffffffffffffffffffff8203611a6a57611a696119fe565b5b600182019050919050565b6000819050919050565b6000611a9a611a95611a908461141e565b611a75565b611391565b9050919050565b611aaa81611a7f565b82525050565b6000604082019050611ac56000830185611aa1565b611ad260208301846113f4565b9392505050565b611ae281611391565b82525050565b611af1816112f8565b82525050565b604082016000820151611b0d6000850182611ad9565b506020820151611b206020850182611ae8565b50505050565b6000604082019050611b3b6000830184611af7565b92915050565b600082825260208201905092915050565b6000819050919050565b600073ffffffffffffffffffffffffffffffffffffffff82169050919050565b6000611b8782611b5c565b9050919050565b611b9781611b7c565b8114611ba257600080fd5b50565b600081359050611bb481611b8e565b92915050565b6000611bc96020840184611ba5565b905092915050565b611bda81611b7c565b82525050565b6000611bef60208401846113b2565b905092915050565b60408201611c086000830183611bba565b611c156000850182611bd1565b50611c236020830183611be0565b611c306020850182611ad9565b50505050565b6000611c428383611bf7565b60408301905092915050565b600082905092915050565b6000604082019050919050565b6000611c728385611b41565b9350611c7d82611b52565b8060005b85811015611cb657611c938284611c4e565b611c9d8882611c36565b9750611ca883611c59565b925050600181019050611c81565b5085925050509392505050565b60006020820190508181036000830152611cde818486611c66565b90509392505050565b6000608082019050611cfc60008301876113f4565b611d096020830186611667565b611d166040830185611667565b611d2360608301846113f4565b95945050505050565b7f4e487b7100000000000000000000000000000000000000000000000000000000600052603260045260246000fd5b600060ff82169050919050565b611d7181611d5b565b8114611d7c57600080fd5b50565b600081359050611d8e81611d68565b92915050565b600060208284031215611daa57611da96112ee565b5b6000611db884828501611d7f565b91505092915050565b600060208284031215611dd757611dd66112ee565b5b6000611de584828501611ba5565b91505092915050565b6000611df982611391565b9150611e0483611391565b9250828201905080821115611e1c57611e1b6119fe565b5b92915050565b600080fd5b600080fd5b600080fd5b600082356001606003833603038112611e4d57611e4c611e22565b5b80830191505092915050565b60008083356001602003843603038112611e7657611e75611e22565b5b80840192508235915067ffffffffffffffff821115611e9857611e97611e27565b5b602083019250600182023603831315611eb457611eb3611e2c565b5b509250929050565b600082825260208201905092915050565b82818337600083830152505050565b6000611ee88385611ebc565b9350611ef5838584611ecd565b611efe8361176b565b840190509392505050565b600061012082019050611f1f600083018d6113f4565b611f2c602083018c6113f4565b8181036040830152611f3f818a8c611edc565b9050611f4e6060830189611667565b611f5b6080830188611667565b611f6860a0830187611667565b611f7560c0830186611667565b611f8260e08301856113f4565b611f90610100830184611667565b9b9a5050505050505050505050565b6000611faa82611391565b9150611fb583611391565b9250828203905081811115611fcd57611fcc6119fe565b5b92915050565b60007fff0000000000000000000000000000000000000000000000000000000000000082169050919050565b6000819050919050565b61201a61201582611fd3565b611fff565b82525050565b600081519050919050565b600081905092915050565b60005b83811015612054578082015181840152602081019050612039565b60008484015250505050565b600061206b82612020565b612075818561202b565b9350612085818560208601612036565b80840191505092915050565b600061209d8285612009565b6001820191506120ad8284612060565b91508190509392505050565b60006120c58284612060565b915081905092915050565b6000815190506120df81611302565b92915050565b6000602082840312156120fb576120fa6112ee565b5b6000612109848285016120d0565b91505092915050565b600082825260208201905092915050565b7f63616e6e6f742063616c6c20636f6d70757465526f6f7448617368207769746860008201527f2030206e756d626572206f66206c656176657300000000000000000000000000602082015250565b600061217f603383612112565b915061218a82612123565b604082019050919050565b600060208201905081810360008301526121ae81612172565b9050919050565b7f756e657870656374656420696e6e657220686173686573000000000000000000600082015250565b60006121eb601783612112565b91506121f6826121b5565b602082019050919050565b6000602082019050818103600083015261221a816121de565b9050919050565b7f6578706563746564206174206c65617374206f6e6520696e6e65722068617368600082015250565b6000612257602083612112565b915061226282612221565b602082019050919050565b600060208201905081810360008301526122868161224a565b9050919050565b7f496e76616c69642072616e67653a205f626567696e206973206772656174657260008201527f207468616e205f656e6400000000000000000000000000000000000000000000602082015250565b60006122e9602a83612112565b91506122f48261228d565b604082019050919050565b60006020820190508181036000830152612318816122dc565b9050919050565b7f496e76616c69642072616e67653a205f626567696e206f72205f656e6420617260008201527f65206f7574206f6620626f756e64730000000000000000000000000000000000602082015250565b600061237b602f83612112565b91506123868261231f565b604082019050919050565b600060208201905081810360008301526123aa8161236e565b9050919050565b6000819050919050565b6123cc6123c7826112f8565b6123b1565b82525050565b60006123de8286612009565b6001820191506123ee82856123bb565b6020820191506123fe82846123bb565b602082019150819050949350505050565b61241881611d5b565b82525050565b600060808201905061243360008301876113f4565b612440602083018661240f565b61244d60408301856113f4565b61245a60608301846113f4565b95945050505050565b7f4e487b7100000000000000000000000000000000000000000000000000000000600052602160045260246000fdfea26469706673582212204b864b9886a9975814875515763ceded6502684f26f182c4ae9bd3cd7bb57ebf64736f6c63430008160033","opcodes":"PUSH1 0x80 PUSH1 0x40 MSTORE CALLVALUE DUP1 ISZERO PUSH3 0x11 JUMPI PUSH1 0x0 DUP1 REVERT JUMPDEST POP PUSH1 0x40 MLOAD PUSH3 0x2604 CODESIZE SUB DUP1 PUSH3 0x2604 DUP4 CODECOPY DUP2 DUP2 ADD PUSH1 0x40 MSTORE DUP2 ADD SWAP1 PUSH3 0x37 SWAP2 SWAP1 PUSH3 0xD0 JUMP JUMPDEST DUP3 PUSH1 0x2 DUP2 SWAP1 SSTORE POP DUP1 PUSH1 0x0 DUP2 SWAP1 SSTORE POP DUP2 PUSH1 0x1 DUP2 SWAP1 SSTORE POP POP POP POP PUSH3 0x12C JUMP JUMPDEST PUSH1 0x0 DUP1 REVERT JUMPDEST PUSH1 0x0 DUP2 SWAP1 POP SWAP2 SWAP1 POP JUMP JUMPDEST PUSH3 0x6F DUP2 PUSH3 0x5A JUMP JUMPDEST DUP2 EQ PUSH3 0x7B JUMPI PUSH1 0x0 DUP1 REVERT JUMPDEST POP JUMP JUMPDEST PUSH1 0x0 DUP2 MLOAD SWAP1 POP PUSH3 0x8F DUP2 PUSH3 0x64 JUMP JUMPDEST SWAP3 SWAP2 POP POP JUMP JUMPDEST PUSH1 0x0 DUP2 SWAP1 POP SWAP2 SWAP1 POP JUMP JUMPDEST PUSH3 0xAA DUP2 PUSH3 0x95 JUMP JUMPDEST DUP2 EQ PUSH3 0xB6 JUMPI PUSH1 0x0 DUP1 REVERT JUMPDEST POP JUMP JUMPDEST PUSH1 0x0 DUP2 MLOAD SWAP1 POP PUSH3 0xCA DUP2 PUSH3 0x9F JUMP JUMPDEST SWAP3 SWAP2 POP POP JUMP JUMPDEST PUSH1 0x0 DUP1 PUSH1 0x0 PUSH1 0x60 DUP5 DUP7 SUB SLT ISZERO PUSH3 0xEC JUMPI PUSH3 0xEB PUSH3 0x55 JUMP JUMPDEST JUMPDEST PUSH1 0x0 PUSH3 0xFC DUP7 DUP3 DUP8 ADD PUSH3 0x7E JUMP JUMPDEST SWAP4 POP POP PUSH1 0x20 PUSH3 0x10F DUP7 DUP3 DUP8 ADD PUSH3 0x7E JUMP JUMPDEST SWAP3 POP POP PUSH1 0x40 PUSH3 0x122 DUP7 DUP3 DUP8 ADD PUSH3 0xB9 JUMP JUMPDEST SWAP2 POP POP SWAP3 POP SWAP3 POP SWAP3 JUMP JUMPDEST PUSH2 0x24C8 DUP1 PUSH3 0x13C PUSH1 0x0 CODECOPY PUSH1 0x0 RETURN INVALID PUSH1 0x80 PUSH1 0x40 MSTORE CALLVALUE DUP1 ISZERO PUSH2 0x10 JUMPI PUSH1 0x0 DUP1 REVERT JUMPDEST POP PUSH1 0x4 CALLDATASIZE LT PUSH2 0x9E JUMPI PUSH1 0x0 CALLDATALOAD PUSH1 0xE0 SHR DUP1 PUSH4 0xBA95EC27 GT PUSH2 0x66 JUMPI DUP1 PUSH4 0xBA95EC27 EQ PUSH2 0x159 JUMPI DUP1 PUSH4 0xCB908D52 EQ PUSH2 0x177 JUMPI DUP1 PUSH4 0xD8256EC7 EQ PUSH2 0x1A7 JUMPI DUP1 PUSH4 0xE17A684F EQ PUSH2 0x1C5 JUMPI DUP1 PUSH4 0xE5E57EB5 EQ PUSH2 0x1E3 JUMPI PUSH2 0x9E JUMP JUMPDEST DUP1 PUSH4 0x31B53E52 EQ PUSH2 0xA3 JUMPI DUP1 PUSH4 0x91F6B44B EQ PUSH2 0xD3 JUMPI DUP1 PUSH4 0x93319D6E EQ PUSH2 0x103 JUMPI DUP1 PUSH4 0xAE002495 EQ PUSH2 0x11F JUMPI DUP1 PUSH4 0xAF082A7D EQ PUSH2 0x13B JUMPI JUMPDEST PUSH1 0x0 DUP1 REVERT JUMPDEST PUSH2 0xBD PUSH1 0x4 DUP1 CALLDATASIZE SUB DUP2 ADD SWAP1 PUSH2 0xB8 SWAP2 SWAP1 PUSH2 0x132E JUMP JUMPDEST PUSH2 0x213 JUMP JUMPDEST PUSH1 0x40 MLOAD PUSH2 0xCA SWAP2 SWAP1 PUSH2 0x1376 JUMP JUMPDEST PUSH1 0x40 MLOAD DUP1 SWAP2 SUB SWAP1 RETURN JUMPDEST PUSH2 0xED PUSH1 0x4 DUP1 CALLDATASIZE SUB DUP2 ADD SWAP1 PUSH2 0xE8 SWAP2 SWAP1 PUSH2 0x13C7 JUMP JUMPDEST PUSH2 0x233 JUMP JUMPDEST PUSH1 0x40 MLOAD PUSH2 0xFA SWAP2 SWAP1 PUSH2 0x1403 JUMP JUMPDEST PUSH1 0x40 MLOAD DUP1 SWAP2 SUB SWAP1 RETURN JUMPDEST PUSH2 0x11D PUSH1 0x4 DUP1 CALLDATASIZE SUB DUP2 ADD SWAP1 PUSH2 0x118 SWAP2 SWAP1 PUSH2 0x1519 JUMP JUMPDEST PUSH2 0x24B JUMP JUMPDEST STOP JUMPDEST PUSH2 0x139 PUSH1 0x4 DUP1 CALLDATASIZE SUB DUP2 ADD SWAP1 PUSH2 0x134 SWAP2 SWAP1 PUSH2 0x15C0 JUMP JUMPDEST PUSH2 0x382 JUMP JUMPDEST STOP JUMPDEST PUSH2 0x143 PUSH2 0x4D3 JUMP JUMPDEST PUSH1 0x40 MLOAD PUSH2 0x150 SWAP2 SWAP1 PUSH2 0x1403 JUMP JUMPDEST PUSH1 0x40 MLOAD DUP1 SWAP2 SUB SWAP1 RETURN JUMPDEST PUSH2 0x161 PUSH2 0x4D9 JUMP JUMPDEST PUSH1 0x40 MLOAD PUSH2 0x16E SWAP2 SWAP1 PUSH2 0x1676 JUMP JUMPDEST PUSH1 0x40 MLOAD DUP1 SWAP2 SUB SWAP1 RETURN JUMPDEST PUSH2 0x191 PUSH1 0x4 DUP1 CALLDATASIZE SUB DUP2 ADD SWAP1 PUSH2 0x18C SWAP2 SWAP1 PUSH2 0x16B5 JUMP JUMPDEST PUSH2 0x4DF JUMP JUMPDEST PUSH1 0x40 MLOAD PUSH2 0x19E SWAP2 SWAP1 PUSH2 0x1376 JUMP JUMPDEST PUSH1 0x40 MLOAD DUP1 SWAP2 SUB SWAP1 RETURN JUMPDEST PUSH2 0x1AF PUSH2 0x5E2 JUMP JUMPDEST PUSH1 0x40 MLOAD PUSH2 0x1BC SWAP2 SWAP1 PUSH2 0x1676 JUMP JUMPDEST PUSH1 0x40 MLOAD DUP1 SWAP2 SUB SWAP1 RETURN JUMPDEST PUSH2 0x1CD PUSH2 0x5E8 JUMP JUMPDEST PUSH1 0x40 MLOAD PUSH2 0x1DA SWAP2 SWAP1 PUSH2 0x1676 JUMP JUMPDEST PUSH1 0x40 MLOAD DUP1 SWAP2 SUB SWAP1 RETURN JUMPDEST PUSH2 0x1FD PUSH1 0x4 DUP1 CALLDATASIZE SUB DUP2 ADD SWAP1 PUSH2 0x1F8 SWAP2 SWAP1 PUSH2 0x198F JUMP JUMPDEST PUSH2 0x5EE JUMP JUMPDEST PUSH1 0x40 MLOAD PUSH2 0x20A SWAP2 SWAP1 PUSH2 0x1376 JUMP JUMPDEST PUSH1 0x40 MLOAD DUP1 SWAP2 SUB SWAP1 RETURN JUMPDEST PUSH1 0x5 PUSH1 0x20 MSTORE DUP1 PUSH1 0x0 MSTORE PUSH1 0x40 PUSH1 0x0 KECCAK256 PUSH1 0x0 SWAP2 POP SLOAD SWAP1 PUSH2 0x100 EXP SWAP1 DIV PUSH1 0xFF AND DUP2 JUMP JUMPDEST PUSH1 0x4 PUSH1 0x20 MSTORE DUP1 PUSH1 0x0 MSTORE PUSH1 0x40 PUSH1 0x0 KECCAK256 PUSH1 0x0 SWAP2 POP SWAP1 POP SLOAD DUP2 JUMP JUMPDEST DUP2 DUP2 SWAP1 POP DUP5 DUP5 SWAP1 POP EQ PUSH2 0x28A JUMPI PUSH1 0x40 MLOAD PUSH32 0xC6617B7B00000000000000000000000000000000000000000000000000000000 DUP2 MSTORE PUSH1 0x4 ADD PUSH1 0x40 MLOAD DUP1 SWAP2 SUB SWAP1 REVERT JUMPDEST PUSH1 0x0 PUSH2 0x296 DUP6 DUP6 PUSH2 0x64D JUMP JUMPDEST SWAP1 POP PUSH1 0x0 SLOAD PUSH2 0x2AA PUSH1 0x2 SLOAD PUSH1 0x1 SLOAD DUP5 PUSH2 0x680 JUMP JUMPDEST EQ PUSH2 0x2E1 JUMPI PUSH1 0x40 MLOAD PUSH32 0x177B5D9200000000000000000000000000000000000000000000000000000000 DUP2 MSTORE PUSH1 0x4 ADD PUSH1 0x40 MLOAD DUP1 SWAP2 SUB SWAP1 REVERT JUMPDEST PUSH1 0x0 PUSH2 0x2FA PUSH1 0x2 SLOAD DUP9 PUSH8 0xFFFFFFFFFFFFFFFF AND DUP11 PUSH2 0x680 JUMP JUMPDEST SWAP1 POP PUSH2 0x30C DUP7 DUP7 DUP7 DUP7 DUP6 PUSH1 0x1 SLOAD PUSH2 0x6DB JUMP JUMPDEST DUP1 PUSH1 0x0 DUP2 SWAP1 SSTORE POP DUP7 PUSH8 0xFFFFFFFFFFFFFFFF AND PUSH1 0x1 DUP2 SWAP1 SSTORE POP PUSH1 0x2 PUSH1 0x0 DUP2 SLOAD DUP1 SWAP3 SWAP2 SWAP1 PUSH2 0x337 SWAP1 PUSH2 0x1A2D JUMP JUMPDEST SWAP2 SWAP1 POP SSTORE POP PUSH1 0x2 SLOAD PUSH32 0xE304B71F81A1AAF6D714401DE28BA1EBDBB5FF9C5FEE59EF2A6EB984F9E8DA7E DUP9 DUP11 PUSH1 0x40 MLOAD PUSH2 0x370 SWAP3 SWAP2 SWAP1 PUSH2 0x1AB0 JUMP JUMPDEST PUSH1 0x40 MLOAD DUP1 SWAP2 SUB SWAP1 LOG2 POP POP POP POP POP POP POP POP JUMP JUMPDEST DUP2 DUP2 SWAP1 POP DUP5 DUP5 SWAP1 POP EQ PUSH2 0x3C1 JUMPI PUSH1 0x40 MLOAD PUSH32 0xC6617B7B00000000000000000000000000000000000000000000000000000000 DUP2 MSTORE PUSH1 0x4 ADD PUSH1 0x40 MLOAD DUP1 SWAP2 SUB SWAP1 REVERT JUMPDEST PUSH1 0x3 SLOAD DUP6 GT PUSH2 0x3CF JUMPI PUSH1 0x0 DUP1 REVERT JUMPDEST DUP5 PUSH1 0x3 DUP2 SWAP1 SSTORE POP PUSH1 0x0 PUSH2 0x3E2 DUP6 DUP6 PUSH2 0x64D JUMP JUMPDEST SWAP1 POP PUSH1 0x0 SLOAD PUSH2 0x3F6 PUSH1 0x2 SLOAD PUSH1 0x1 SLOAD DUP5 PUSH2 0x680 JUMP JUMPDEST EQ PUSH2 0x42D JUMPI PUSH1 0x40 MLOAD PUSH32 0x177B5D9200000000000000000000000000000000000000000000000000000000 DUP2 MSTORE PUSH1 0x4 ADD PUSH1 0x40 MLOAD DUP1 SWAP2 SUB SWAP1 REVERT JUMPDEST PUSH1 0x0 PUSH2 0x43C PUSH1 0x2 SLOAD DUP9 DUP11 PUSH2 0x87A JUMP JUMPDEST SWAP1 POP PUSH2 0x44E DUP7 DUP7 DUP7 DUP7 DUP6 PUSH1 0x1 SLOAD PUSH2 0x6DB JUMP JUMPDEST PUSH1 0x1 PUSH1 0x5 PUSH1 0x0 DUP11 DUP2 MSTORE PUSH1 0x20 ADD SWAP1 DUP2 MSTORE PUSH1 0x20 ADD PUSH1 0x0 KECCAK256 PUSH1 0x0 PUSH2 0x100 EXP DUP2 SLOAD DUP2 PUSH1 0xFF MUL NOT AND SWAP1 DUP4 ISZERO ISZERO MUL OR SWAP1 SSTORE POP DUP8 PUSH1 0x4 PUSH1 0x0 DUP10 DUP2 MSTORE PUSH1 0x20 ADD SWAP1 DUP2 MSTORE PUSH1 0x20 ADD PUSH1 0x0 KECCAK256 DUP2 SWAP1 SSTORE POP PUSH32 0xFC8EA9EFF66C3609BD97A4E7F00008B2FD44294C5E1996F6954FEDEC62C68AFA DUP9 PUSH1 0x40 MLOAD PUSH2 0x4C1 SWAP2 SWAP1 PUSH2 0x1403 JUMP JUMPDEST PUSH1 0x40 MLOAD DUP1 SWAP2 SUB SWAP1 LOG1 POP POP POP POP POP POP POP POP JUMP JUMPDEST PUSH1 0x0 SLOAD DUP2 JUMP JUMPDEST PUSH1 0x1 SLOAD DUP2 JUMP JUMPDEST PUSH1 0x0 DUP3 DUP3 SWAP1 POP DUP6 DUP6 SWAP1 POP EQ PUSH2 0x520 JUMPI PUSH1 0x40 MLOAD PUSH32 0xC6617B7B00000000000000000000000000000000000000000000000000000000 DUP2 MSTORE PUSH1 0x4 ADD PUSH1 0x40 MLOAD DUP1 SWAP2 SUB SWAP1 REVERT JUMPDEST PUSH1 0x0 PUSH2 0x52C DUP7 DUP7 PUSH2 0x64D JUMP JUMPDEST SWAP1 POP PUSH1 0x0 SLOAD PUSH2 0x540 PUSH1 0x2 SLOAD PUSH1 0x1 SLOAD DUP5 PUSH2 0x680 JUMP JUMPDEST EQ PUSH2 0x577 JUMPI PUSH1 0x40 MLOAD PUSH32 0x177B5D9200000000000000000000000000000000000000000000000000000000 DUP2 MSTORE PUSH1 0x4 ADD PUSH1 0x40 MLOAD DUP1 SWAP2 SUB SWAP1 REVERT JUMPDEST PUSH1 0x2 SLOAD DUP8 PUSH1 0x40 ADD CALLDATALOAD EQ PUSH2 0x5B6 JUMPI PUSH1 0x40 MLOAD PUSH32 0x177B5D9200000000000000000000000000000000000000000000000000000000 DUP2 MSTORE PUSH1 0x4 ADD PUSH1 0x40 MLOAD DUP1 SWAP2 SUB SWAP1 REVERT JUMPDEST PUSH1 0x0 PUSH2 0x5C1 DUP9 PUSH2 0x8D5 JUMP JUMPDEST SWAP1 POP PUSH2 0x5D3 DUP8 DUP8 DUP8 DUP8 DUP6 PUSH1 0x1 SLOAD PUSH2 0x6DB JUMP JUMPDEST PUSH1 0x1 SWAP3 POP POP POP SWAP6 SWAP5 POP POP POP POP POP JUMP JUMPDEST PUSH1 0x3 SLOAD DUP2 JUMP JUMPDEST PUSH1 0x2 SLOAD DUP2 JUMP JUMPDEST PUSH1 0x0 PUSH1 0x5 PUSH1 0x0 DUP6 DUP2 MSTORE PUSH1 0x20 ADD SWAP1 DUP2 MSTORE PUSH1 0x20 ADD PUSH1 0x0 KECCAK256 PUSH1 0x0 SWAP1 SLOAD SWAP1 PUSH2 0x100 EXP SWAP1 DIV PUSH1 0xFF AND PUSH2 0x61A JUMPI PUSH1 0x0 DUP1 REVERT JUMPDEST PUSH2 0x644 DUP5 DUP4 DUP6 PUSH1 0x40 MLOAD PUSH1 0x20 ADD PUSH2 0x630 SWAP2 SWAP1 PUSH2 0x1B26 JUMP JUMPDEST PUSH1 0x40 MLOAD PUSH1 0x20 DUP2 DUP4 SUB SUB DUP2 MSTORE SWAP1 PUSH1 0x40 MSTORE PUSH2 0x991 JUMP JUMPDEST SWAP1 POP SWAP4 SWAP3 POP POP POP JUMP JUMPDEST PUSH1 0x0 DUP3 DUP3 PUSH1 0x40 MLOAD PUSH1 0x20 ADD PUSH2 0x662 SWAP3 SWAP2 SWAP1 PUSH2 0x1CC3 JUMP JUMPDEST PUSH1 0x40 MLOAD PUSH1 0x20 DUP2 DUP4 SUB SUB DUP2 MSTORE SWAP1 PUSH1 0x40 MSTORE DUP1 MLOAD SWAP1 PUSH1 0x20 ADD KECCAK256 SWAP1 POP SWAP3 SWAP2 POP POP JUMP JUMPDEST PUSH1 0x0 PUSH32 0x636865636B706F696E7400000000000000000000000000000000000000000000 PUSH1 0x0 SHL DUP5 DUP5 DUP5 PUSH1 0x40 MLOAD PUSH1 0x20 ADD PUSH2 0x6BC SWAP5 SWAP4 SWAP3 SWAP2 SWAP1 PUSH2 0x1CE7 JUMP JUMPDEST PUSH1 0x40 MLOAD PUSH1 0x20 DUP2 DUP4 SUB SUB DUP2 MSTORE SWAP1 PUSH1 0x40 MSTORE DUP1 MLOAD SWAP1 PUSH1 0x20 ADD KECCAK256 SWAP1 POP SWAP4 SWAP3 POP POP POP JUMP JUMPDEST PUSH1 0x0 DUP1 JUMPDEST DUP8 DUP8 SWAP1 POP DUP2 LT ISZERO PUSH2 0x836 JUMPI PUSH1 0x0 DUP1 SHL DUP7 DUP7 DUP4 DUP2 DUP2 LT PUSH2 0x701 JUMPI PUSH2 0x700 PUSH2 0x1D2C JUMP JUMPDEST JUMPDEST SWAP1 POP PUSH1 0x60 MUL ADD PUSH1 0x20 ADD CALLDATALOAD EQ DUP1 ISZERO PUSH2 0x736 JUMPI POP PUSH1 0x0 DUP1 SHL DUP7 DUP7 DUP4 DUP2 DUP2 LT PUSH2 0x72A JUMPI PUSH2 0x729 PUSH2 0x1D2C JUMP JUMPDEST JUMPDEST SWAP1 POP PUSH1 0x60 MUL ADD PUSH1 0x40 ADD CALLDATALOAD EQ JUMPDEST DUP1 ISZERO PUSH2 0x76F JUMPI POP PUSH1 0x0 DUP7 DUP7 DUP4 DUP2 DUP2 LT PUSH2 0x752 JUMPI PUSH2 0x751 PUSH2 0x1D2C JUMP JUMPDEST JUMPDEST SWAP1 POP PUSH1 0x60 MUL ADD PUSH1 0x0 ADD PUSH1 0x20 DUP2 ADD SWAP1 PUSH2 0x76A SWAP2 SWAP1 PUSH2 0x1D94 JUMP JUMPDEST PUSH1 0xFF AND EQ JUMPDEST PUSH2 0x829 JUMPI PUSH2 0x7C0 DUP9 DUP9 DUP4 DUP2 DUP2 LT PUSH2 0x789 JUMPI PUSH2 0x788 PUSH2 0x1D2C JUMP JUMPDEST JUMPDEST SWAP1 POP PUSH1 0x40 MUL ADD PUSH1 0x0 ADD PUSH1 0x20 DUP2 ADD SWAP1 PUSH2 0x7A1 SWAP2 SWAP1 PUSH2 0x1DC1 JUMP JUMPDEST DUP6 DUP9 DUP9 DUP6 DUP2 DUP2 LT PUSH2 0x7B5 JUMPI PUSH2 0x7B4 PUSH2 0x1D2C JUMP JUMPDEST JUMPDEST SWAP1 POP PUSH1 0x60 MUL ADD PUSH2 0xA5F JUMP JUMPDEST PUSH2 0x7F6 JUMPI PUSH1 0x40 MLOAD PUSH32 0x8BAA579F00000000000000000000000000000000000000000000000000000000 DUP2 MSTORE PUSH1 0x4 ADD PUSH1 0x40 MLOAD DUP1 SWAP2 SUB SWAP1 REVERT JUMPDEST DUP8 DUP8 DUP3 DUP2 DUP2 LT PUSH2 0x809 JUMPI PUSH2 0x808 PUSH2 0x1D2C JUMP JUMPDEST JUMPDEST SWAP1 POP PUSH1 0x40 MUL ADD PUSH1 0x20 ADD CALLDATALOAD DUP3 PUSH2 0x81E SWAP2 SWAP1 PUSH2 0x1DEE JUMP JUMPDEST SWAP2 POP DUP3 DUP3 LT ISZERO PUSH2 0x836 JUMPI JUMPDEST DUP1 DUP1 PUSH1 0x1 ADD SWAP2 POP POP PUSH2 0x6DF JUMP JUMPDEST POP DUP2 DUP2 LT ISZERO PUSH2 0x871 JUMPI PUSH1 0x40 MLOAD PUSH32 0xCABEB65500000000000000000000000000000000000000000000000000000000 DUP2 MSTORE PUSH1 0x4 ADD PUSH1 0x40 MLOAD DUP1 SWAP2 SUB SWAP1 REVERT JUMPDEST POP POP POP POP POP POP POP JUMP JUMPDEST PUSH1 0x0 PUSH32 0x7472616E73616374696F6E426174636800000000000000000000000000000000 PUSH1 0x0 SHL DUP5 DUP5 DUP5 PUSH1 0x40 MLOAD PUSH1 0x20 ADD PUSH2 0x8B6 SWAP5 SWAP4 SWAP3 SWAP2 SWAP1 PUSH2 0x1CE7 JUMP JUMPDEST PUSH1 0x40 MLOAD PUSH1 0x20 DUP2 DUP4 SUB SUB DUP2 MSTORE SWAP1 PUSH1 0x40 MSTORE DUP1 MLOAD SWAP1 PUSH1 0x20 ADD KECCAK256 SWAP1 POP SWAP4 SWAP3 POP POP POP JUMP JUMPDEST PUSH1 0x0 PUSH32 0x74656C6C6F7243757272656E744174746573746174696F6E0000000000000000 PUSH1 0x0 SHL DUP3 PUSH1 0x0 ADD CALLDATALOAD DUP4 DUP1 PUSH1 0x20 ADD SWAP1 PUSH2 0x910 SWAP2 SWAP1 PUSH2 0x1E31 JUMP JUMPDEST DUP1 PUSH1 0x0 ADD SWAP1 PUSH2 0x91F SWAP2 SWAP1 PUSH2 0x1E59 JUMP JUMPDEST DUP6 DUP1 PUSH1 0x20 ADD SWAP1 PUSH2 0x92F SWAP2 SWAP1 PUSH2 0x1E31 JUMP JUMPDEST PUSH1 0x20 ADD CALLDATALOAD DUP7 DUP1 PUSH1 0x20 ADD SWAP1 PUSH2 0x943 SWAP2 SWAP1 PUSH2 0x1E31 JUMP JUMPDEST PUSH1 0x40 ADD CALLDATALOAD DUP8 PUSH1 0x40 ADD CALLDATALOAD DUP9 PUSH1 0x60 ADD CALLDATALOAD DUP10 PUSH1 0x80 ADD CALLDATALOAD DUP11 PUSH1 0xA0 ADD CALLDATALOAD PUSH1 0x40 MLOAD PUSH1 0x20 ADD PUSH2 0x974 SWAP11 SWAP10 SWAP9 SWAP8 SWAP7 SWAP6 SWAP5 SWAP4 SWAP3 SWAP2 SWAP1 PUSH2 0x1F09 JUMP JUMPDEST PUSH1 0x40 MLOAD PUSH1 0x20 DUP2 DUP4 SUB SUB DUP2 MSTORE SWAP1 PUSH1 0x40 MSTORE DUP1 MLOAD SWAP1 PUSH1 0x20 ADD KECCAK256 SWAP1 POP SWAP2 SWAP1 POP JUMP JUMPDEST PUSH1 0x0 PUSH1 0x1 DUP4 PUSH1 0x40 ADD MLOAD GT PUSH2 0x9BA JUMPI PUSH1 0x0 DUP4 PUSH1 0x0 ADD MLOAD MLOAD EQ PUSH2 0x9B5 JUMPI PUSH1 0x0 SWAP1 POP PUSH2 0xA58 JUMP JUMPDEST PUSH2 0x9E1 JUMP JUMPDEST PUSH2 0x9CC DUP4 PUSH1 0x20 ADD MLOAD DUP5 PUSH1 0x40 ADD MLOAD PUSH2 0xACB JUMP JUMPDEST DUP4 PUSH1 0x0 ADD MLOAD MLOAD EQ PUSH2 0x9E0 JUMPI PUSH1 0x0 SWAP1 POP PUSH2 0xA58 JUMP JUMPDEST JUMPDEST DUP3 PUSH1 0x40 ADD MLOAD DUP4 PUSH1 0x20 ADD MLOAD LT PUSH2 0x9F9 JUMPI PUSH1 0x0 SWAP1 POP PUSH2 0xA58 JUMP JUMPDEST PUSH1 0x0 PUSH2 0xA04 DUP4 PUSH2 0xB5B JUMP JUMPDEST SWAP1 POP PUSH1 0x0 DUP5 PUSH1 0x0 ADD MLOAD MLOAD SUB PUSH2 0xA34 JUMPI PUSH1 0x1 DUP5 PUSH1 0x40 ADD MLOAD SUB PUSH2 0xA2A JUMPI DUP1 DUP6 EQ SWAP2 POP POP PUSH2 0xA58 JUMP JUMPDEST PUSH1 0x0 SWAP2 POP POP PUSH2 0xA58 JUMP JUMPDEST PUSH1 0x0 PUSH2 0xA4E DUP6 PUSH1 0x20 ADD MLOAD DUP7 PUSH1 0x40 ADD MLOAD DUP5 DUP9 PUSH1 0x0 ADD MLOAD PUSH2 0xBD9 JUMP JUMPDEST SWAP1 POP DUP6 DUP2 EQ SWAP3 POP POP POP JUMPDEST SWAP4 SWAP3 POP POP POP JUMP JUMPDEST PUSH1 0x0 DUP1 PUSH2 0xA6B DUP5 PUSH2 0xD97 JUMP JUMPDEST SWAP1 POP PUSH2 0xA93 DUP2 DUP5 PUSH1 0x0 ADD PUSH1 0x20 DUP2 ADD SWAP1 PUSH2 0xA84 SWAP2 SWAP1 PUSH2 0x1D94 JUMP JUMPDEST DUP6 PUSH1 0x20 ADD CALLDATALOAD DUP7 PUSH1 0x40 ADD CALLDATALOAD PUSH2 0xDCD JUMP JUMPDEST PUSH20 0xFFFFFFFFFFFFFFFFFFFFFFFFFFFFFFFFFFFFFFFF AND DUP6 PUSH20 0xFFFFFFFFFFFFFFFFFFFFFFFFFFFFFFFFFFFFFFFF AND EQ SWAP2 POP POP SWAP4 SWAP3 POP POP POP JUMP JUMPDEST PUSH1 0x0 PUSH2 0xAD6 DUP3 PUSH2 0xDFD JUMP JUMPDEST PUSH2 0x100 PUSH2 0xAE3 SWAP2 SWAP1 PUSH2 0x1F9F JUMP JUMPDEST SWAP1 POP PUSH1 0x0 PUSH1 0x1 DUP3 PUSH2 0xAF4 SWAP2 SWAP1 PUSH2 0x1F9F JUMP JUMPDEST PUSH1 0x1 SWAP1 SHL SWAP1 POP PUSH1 0x1 DUP2 PUSH2 0xB07 SWAP2 SWAP1 PUSH2 0x1F9F JUMP JUMPDEST DUP5 GT PUSH2 0xB13 JUMPI POP PUSH2 0xB55 JUMP JUMPDEST PUSH1 0x1 DUP2 SUB PUSH2 0xB25 JUMPI PUSH1 0x1 SWAP2 POP POP PUSH2 0xB55 JUMP JUMPDEST PUSH2 0xB45 DUP2 DUP6 PUSH2 0xB34 SWAP2 SWAP1 PUSH2 0x1F9F JUMP JUMPDEST DUP3 DUP6 PUSH2 0xB40 SWAP2 SWAP1 PUSH2 0x1F9F JUMP JUMPDEST PUSH2 0xACB JUMP JUMPDEST PUSH1 0x1 PUSH2 0xB51 SWAP2 SWAP1 PUSH2 0x1DEE JUMP JUMPDEST SWAP2 POP POP JUMPDEST SWAP3 SWAP2 POP POP JUMP JUMPDEST PUSH1 0x0 PUSH1 0x2 PUSH1 0x0 PUSH1 0xF8 SHL DUP4 PUSH1 0x40 MLOAD PUSH1 0x20 ADD PUSH2 0xB76 SWAP3 SWAP2 SWAP1 PUSH2 0x2091 JUMP JUMPDEST PUSH1 0x40 MLOAD PUSH1 0x20 DUP2 DUP4 SUB SUB DUP2 MSTORE SWAP1 PUSH1 0x40 MSTORE PUSH1 0x40 MLOAD PUSH2 0xB92 SWAP2 SWAP1 PUSH2 0x20B9 JUMP JUMPDEST PUSH1 0x20 PUSH1 0x40 MLOAD DUP1 DUP4 SUB DUP2 DUP6 GAS STATICCALL ISZERO DUP1 ISZERO PUSH2 0xBAF JUMPI RETURNDATASIZE PUSH1 0x0 DUP1 RETURNDATACOPY RETURNDATASIZE PUSH1 0x0 REVERT JUMPDEST POP POP POP PUSH1 0x40 MLOAD RETURNDATASIZE PUSH1 0x1F NOT PUSH1 0x1F DUP3 ADD AND DUP3 ADD DUP1 PUSH1 0x40 MSTORE POP DUP2 ADD SWAP1 PUSH2 0xBD2 SWAP2 SWAP1 PUSH2 0x20E5 JUMP JUMPDEST SWAP1 POP SWAP2 SWAP1 POP JUMP JUMPDEST PUSH1 0x0 DUP1 DUP5 SUB PUSH2 0xC1D JUMPI PUSH1 0x40 MLOAD PUSH32 0x8C379A000000000000000000000000000000000000000000000000000000000 DUP2 MSTORE PUSH1 0x4 ADD PUSH2 0xC14 SWAP1 PUSH2 0x2195 JUMP JUMPDEST PUSH1 0x40 MLOAD DUP1 SWAP2 SUB SWAP1 REVERT JUMPDEST PUSH1 0x1 DUP5 SUB PUSH2 0xC71 JUMPI PUSH1 0x0 DUP3 MLOAD EQ PUSH2 0xC69 JUMPI PUSH1 0x40 MLOAD PUSH32 0x8C379A000000000000000000000000000000000000000000000000000000000 DUP2 MSTORE PUSH1 0x4 ADD PUSH2 0xC60 SWAP1 PUSH2 0x2201 JUMP JUMPDEST PUSH1 0x40 MLOAD DUP1 SWAP2 SUB SWAP1 REVERT JUMPDEST DUP3 SWAP1 POP PUSH2 0xD8F JUMP JUMPDEST PUSH1 0x0 DUP3 MLOAD SUB PUSH2 0xCB5 JUMPI PUSH1 0x40 MLOAD PUSH32 0x8C379A000000000000000000000000000000000000000000000000000000000 DUP2 MSTORE PUSH1 0x4 ADD PUSH2 0xCAC SWAP1 PUSH2 0x226D JUMP JUMPDEST PUSH1 0x40 MLOAD DUP1 SWAP2 SUB SWAP1 REVERT JUMPDEST PUSH1 0x0 PUSH2 0xCC0 DUP6 PUSH2 0xE35 JUMP JUMPDEST SWAP1 POP PUSH1 0x0 PUSH2 0xCDD DUP5 PUSH1 0x0 PUSH1 0x1 DUP8 MLOAD PUSH2 0xCD8 SWAP2 SWAP1 PUSH2 0x1F9F JUMP JUMPDEST PUSH2 0xE80 JUMP JUMPDEST SWAP1 POP DUP2 DUP8 LT ISZERO PUSH2 0xD32 JUMPI PUSH1 0x0 PUSH2 0xCF5 DUP9 DUP5 DUP9 DUP6 PUSH2 0xBD9 JUMP JUMPDEST SWAP1 POP PUSH2 0xD28 DUP2 DUP7 PUSH1 0x1 DUP9 MLOAD PUSH2 0xD0A SWAP2 SWAP1 PUSH2 0x1F9F JUMP JUMPDEST DUP2 MLOAD DUP2 LT PUSH2 0xD1B JUMPI PUSH2 0xD1A PUSH2 0x1D2C JUMP JUMPDEST JUMPDEST PUSH1 0x20 MUL PUSH1 0x20 ADD ADD MLOAD PUSH2 0xFD8 JUMP JUMPDEST SWAP4 POP POP POP POP PUSH2 0xD8F JUMP JUMPDEST PUSH1 0x0 PUSH2 0xD56 DUP4 DUP10 PUSH2 0xD43 SWAP2 SWAP1 PUSH2 0x1F9F JUMP JUMPDEST DUP5 DUP10 PUSH2 0xD4F SWAP2 SWAP1 PUSH2 0x1F9F JUMP JUMPDEST DUP9 DUP6 PUSH2 0xBD9 JUMP JUMPDEST SWAP1 POP PUSH2 0xD89 DUP6 PUSH1 0x1 DUP8 MLOAD PUSH2 0xD6A SWAP2 SWAP1 PUSH2 0x1F9F JUMP JUMPDEST DUP2 MLOAD DUP2 LT PUSH2 0xD7B JUMPI PUSH2 0xD7A PUSH2 0x1D2C JUMP JUMPDEST JUMPDEST PUSH1 0x20 MUL PUSH1 0x20 ADD ADD MLOAD DUP3 PUSH2 0xFD8 JUMP JUMPDEST SWAP4 POP POP POP POP JUMPDEST SWAP5 SWAP4 POP POP POP POP JUMP JUMPDEST PUSH1 0x0 PUSH32 0x19457468657265756D205369676E6564204D6573736167653A0A333200000000 PUSH1 0x0 MSTORE DUP2 PUSH1 0x1C MSTORE PUSH1 0x3C PUSH1 0x0 KECCAK256 SWAP1 POP SWAP2 SWAP1 POP JUMP JUMPDEST PUSH1 0x0 DUP1 PUSH1 0x0 DUP1 PUSH2 0xDDF DUP9 DUP9 DUP9 DUP9 PUSH2 0x1059 JUMP JUMPDEST SWAP3 POP SWAP3 POP SWAP3 POP PUSH2 0xDEF DUP3 DUP3 PUSH2 0x114D JUMP JUMPDEST DUP3 SWAP4 POP POP POP POP SWAP5 SWAP4 POP POP POP POP JUMP JUMPDEST PUSH1 0x0 JUMPDEST DUP2 DUP2 PUSH1 0x1 SWAP1 SHL LT ISZERO PUSH2 0xE20 JUMPI PUSH1 0x1 DUP2 PUSH2 0xE19 SWAP2 SWAP1 PUSH2 0x1DEE JUMP JUMPDEST SWAP1 POP PUSH2 0xE00 JUMP JUMPDEST DUP1 PUSH2 0x100 PUSH2 0xE2E SWAP2 SWAP1 PUSH2 0x1F9F JUMP JUMPDEST SWAP1 POP SWAP2 SWAP1 POP JUMP JUMPDEST PUSH1 0x0 PUSH1 0x1 DUP3 LT ISZERO PUSH2 0xE45 JUMPI PUSH1 0x0 DUP1 REVERT JUMPDEST PUSH1 0x0 PUSH2 0xE50 DUP4 PUSH2 0x12B1 JUMP JUMPDEST SWAP1 POP PUSH1 0x0 PUSH1 0x1 DUP3 PUSH2 0xE61 SWAP2 SWAP1 PUSH2 0x1F9F JUMP JUMPDEST PUSH1 0x1 SWAP1 SHL SWAP1 POP DUP4 DUP2 SUB PUSH2 0xE76 JUMPI PUSH1 0x1 DUP2 SWAP1 SHR SWAP1 POP JUMPDEST DUP1 SWAP3 POP POP POP SWAP2 SWAP1 POP JUMP JUMPDEST PUSH1 0x60 DUP2 DUP4 GT ISZERO PUSH2 0xEC5 JUMPI PUSH1 0x40 MLOAD PUSH32 0x8C379A000000000000000000000000000000000000000000000000000000000 DUP2 MSTORE PUSH1 0x4 ADD PUSH2 0xEBC SWAP1 PUSH2 0x22FF JUMP JUMPDEST PUSH1 0x40 MLOAD DUP1 SWAP2 SUB SWAP1 REVERT JUMPDEST DUP4 MLOAD DUP4 GT DUP1 PUSH2 0xED4 JUMPI POP DUP4 MLOAD DUP3 GT JUMPDEST ISZERO PUSH2 0xF14 JUMPI PUSH1 0x40 MLOAD PUSH32 0x8C379A000000000000000000000000000000000000000000000000000000000 DUP2 MSTORE PUSH1 0x4 ADD PUSH2 0xF0B SWAP1 PUSH2 0x2391 JUMP JUMPDEST PUSH1 0x40 MLOAD DUP1 SWAP2 SUB SWAP1 REVERT JUMPDEST PUSH1 0x0 DUP4 DUP4 PUSH2 0xF22 SWAP2 SWAP1 PUSH2 0x1F9F JUMP JUMPDEST PUSH8 0xFFFFFFFFFFFFFFFF DUP2 GT ISZERO PUSH2 0xF3B JUMPI PUSH2 0xF3A PUSH2 0x177C JUMP JUMPDEST JUMPDEST PUSH1 0x40 MLOAD SWAP1 DUP1 DUP3 MSTORE DUP1 PUSH1 0x20 MUL PUSH1 0x20 ADD DUP3 ADD PUSH1 0x40 MSTORE DUP1 ISZERO PUSH2 0xF69 JUMPI DUP2 PUSH1 0x20 ADD PUSH1 0x20 DUP3 MUL DUP1 CALLDATASIZE DUP4 CALLDATACOPY DUP1 DUP3 ADD SWAP2 POP POP SWAP1 POP JUMPDEST POP SWAP1 POP PUSH1 0x0 DUP5 SWAP1 POP JUMPDEST DUP4 DUP2 LT ISZERO PUSH2 0xFCC JUMPI DUP6 DUP2 DUP2 MLOAD DUP2 LT PUSH2 0xF8D JUMPI PUSH2 0xF8C PUSH2 0x1D2C JUMP JUMPDEST JUMPDEST PUSH1 0x20 MUL PUSH1 0x20 ADD ADD MLOAD DUP3 DUP7 DUP4 PUSH2 0xFA2 SWAP2 SWAP1 PUSH2 0x1F9F JUMP JUMPDEST DUP2 MLOAD DUP2 LT PUSH2 0xFB3 JUMPI PUSH2 0xFB2 PUSH2 0x1D2C JUMP JUMPDEST JUMPDEST PUSH1 0x20 MUL PUSH1 0x20 ADD ADD DUP2 DUP2 MSTORE POP POP DUP1 DUP1 PUSH1 0x1 ADD SWAP2 POP POP PUSH2 0xF72 JUMP JUMPDEST POP DUP1 SWAP2 POP POP SWAP4 SWAP3 POP POP POP JUMP JUMPDEST PUSH1 0x0 PUSH1 0x2 PUSH1 0x1 PUSH1 0xF8 SHL DUP5 DUP5 PUSH1 0x40 MLOAD PUSH1 0x20 ADD PUSH2 0xFF5 SWAP4 SWAP3 SWAP2 SWAP1 PUSH2 0x23D2 JUMP JUMPDEST PUSH1 0x40 MLOAD PUSH1 0x20 DUP2 DUP4 SUB SUB DUP2 MSTORE SWAP1 PUSH1 0x40 MSTORE PUSH1 0x40 MLOAD PUSH2 0x1011 SWAP2 SWAP1 PUSH2 0x20B9 JUMP JUMPDEST PUSH1 0x20 PUSH1 0x40 MLOAD DUP1 DUP4 SUB DUP2 DUP6 GAS STATICCALL ISZERO DUP1 ISZERO PUSH2 0x102E JUMPI RETURNDATASIZE PUSH1 0x0 DUP1 RETURNDATACOPY RETURNDATASIZE PUSH1 0x0 REVERT JUMPDEST POP POP POP PUSH1 0x40 MLOAD RETURNDATASIZE PUSH1 0x1F NOT PUSH1 0x1F DUP3 ADD AND DUP3 ADD DUP1 PUSH1 0x40 MSTORE POP DUP2 ADD SWAP1 PUSH2 0x1051 SWAP2 SWAP1 PUSH2 0x20E5 JUMP JUMPDEST SWAP1 POP SWAP3 SWAP2 POP POP JUMP JUMPDEST PUSH1 0x0 DUP1 PUSH1 0x0 PUSH32 0x7FFFFFFFFFFFFFFFFFFFFFFFFFFFFFFF5D576E7357A4501DDFE92F46681B20A0 DUP5 PUSH1 0x0 SHR GT ISZERO PUSH2 0x1099 JUMPI PUSH1 0x0 PUSH1 0x3 DUP6 SWAP3 POP SWAP3 POP SWAP3 POP PUSH2 0x1143 JUMP JUMPDEST PUSH1 0x0 PUSH1 0x1 DUP9 DUP9 DUP9 DUP9 PUSH1 0x40 MLOAD PUSH1 0x0 DUP2 MSTORE PUSH1 0x20 ADD PUSH1 0x40 MSTORE PUSH1 0x40 MLOAD PUSH2 0x10BE SWAP5 SWAP4 SWAP3 SWAP2 SWAP1 PUSH2 0x241E JUMP JUMPDEST PUSH1 0x20 PUSH1 0x40 MLOAD PUSH1 0x20 DUP2 SUB SWAP1 DUP1 DUP5 SUB SWAP1 DUP6 GAS STATICCALL ISZERO DUP1 ISZERO PUSH2 0x10E0 JUMPI RETURNDATASIZE PUSH1 0x0 DUP1 RETURNDATACOPY RETURNDATASIZE PUSH1 0x0 REVERT JUMPDEST POP POP POP PUSH1 0x20 PUSH1 0x40 MLOAD SUB MLOAD SWAP1 POP PUSH1 0x0 PUSH20 0xFFFFFFFFFFFFFFFFFFFFFFFFFFFFFFFFFFFFFFFF AND DUP2 PUSH20 0xFFFFFFFFFFFFFFFFFFFFFFFFFFFFFFFFFFFFFFFF AND SUB PUSH2 0x1134 JUMPI PUSH1 0x0 PUSH1 0x1 PUSH1 0x0 DUP1 SHL SWAP4 POP SWAP4 POP SWAP4 POP POP PUSH2 0x1143 JUMP JUMPDEST DUP1 PUSH1 0x0 DUP1 PUSH1 0x0 SHL SWAP4 POP SWAP4 POP SWAP4 POP POP JUMPDEST SWAP5 POP SWAP5 POP SWAP5 SWAP2 POP POP JUMP JUMPDEST PUSH1 0x0 PUSH1 0x3 DUP2 GT ISZERO PUSH2 0x1161 JUMPI PUSH2 0x1160 PUSH2 0x2463 JUMP JUMPDEST JUMPDEST DUP3 PUSH1 0x3 DUP2 GT ISZERO PUSH2 0x1174 JUMPI PUSH2 0x1173 PUSH2 0x2463 JUMP JUMPDEST JUMPDEST SUB ISZERO PUSH2 0x12AD JUMPI PUSH1 0x1 PUSH1 0x3 DUP2 GT ISZERO PUSH2 0x118E JUMPI PUSH2 0x118D PUSH2 0x2463 JUMP JUMPDEST JUMPDEST DUP3 PUSH1 0x3 DUP2 GT ISZERO PUSH2 0x11A1 JUMPI PUSH2 0x11A0 PUSH2 0x2463 JUMP JUMPDEST JUMPDEST SUB PUSH2 0x11D8 JUMPI PUSH1 0x40 MLOAD PUSH32 0xF645EEDF00000000000000000000000000000000000000000000000000000000 DUP2 MSTORE PUSH1 0x4 ADD PUSH1 0x40 MLOAD DUP1 SWAP2 SUB SWAP1 REVERT JUMPDEST PUSH1 0x2 PUSH1 0x3 DUP2 GT ISZERO PUSH2 0x11EC JUMPI PUSH2 0x11EB PUSH2 0x2463 JUMP JUMPDEST JUMPDEST DUP3 PUSH1 0x3 DUP2 GT ISZERO PUSH2 0x11FF JUMPI PUSH2 0x11FE PUSH2 0x2463 JUMP JUMPDEST JUMPDEST SUB PUSH2 0x1244 JUMPI DUP1 PUSH1 0x0 SHR PUSH1 0x40 MLOAD PUSH32 0xFCE698F700000000000000000000000000000000000000000000000000000000 DUP2 MSTORE PUSH1 0x4 ADD PUSH2 0x123B SWAP2 SWAP1 PUSH2 0x1676 JUMP JUMPDEST PUSH1 0x40 MLOAD DUP1 SWAP2 SUB SWAP1 REVERT JUMPDEST PUSH1 0x3 DUP1 DUP2 GT ISZERO PUSH2 0x1257 JUMPI PUSH2 0x1256 PUSH2 0x2463 JUMP JUMPDEST JUMPDEST DUP3 PUSH1 0x3 DUP2 GT ISZERO PUSH2 0x126A JUMPI PUSH2 0x1269 PUSH2 0x2463 JUMP JUMPDEST JUMPDEST SUB PUSH2 0x12AC JUMPI DUP1 PUSH1 0x40 MLOAD PUSH32 0xD78BCE0C00000000000000000000000000000000000000000000000000000000 DUP2 MSTORE PUSH1 0x4 ADD PUSH2 0x12A3 SWAP2 SWAP1 PUSH2 0x1403 JUMP JUMPDEST PUSH1 0x40 MLOAD DUP1 SWAP2 SUB SWAP1 REVERT JUMPDEST JUMPDEST POP POP JUMP JUMPDEST PUSH1 0x0 DUP1 PUSH1 0x0 SWAP1 POP JUMPDEST PUSH1 0x0 DUP4 EQ PUSH2 0x12DB JUMPI DUP1 DUP1 PUSH2 0x12CC SWAP1 PUSH2 0x1A2D JUMP JUMPDEST SWAP2 POP POP PUSH1 0x1 DUP4 SWAP1 SHR SWAP3 POP PUSH2 0x12B9 JUMP JUMPDEST DUP1 SWAP2 POP POP SWAP2 SWAP1 POP JUMP JUMPDEST PUSH1 0x0 PUSH1 0x40 MLOAD SWAP1 POP SWAP1 JUMP JUMPDEST PUSH1 0x0 DUP1 REVERT JUMPDEST PUSH1 0x0 DUP1 REVERT JUMPDEST PUSH1 0x0 DUP2 SWAP1 POP SWAP2 SWAP1 POP JUMP JUMPDEST PUSH2 0x130B DUP2 PUSH2 0x12F8 JUMP JUMPDEST DUP2 EQ PUSH2 0x1316 JUMPI PUSH1 0x0 DUP1 REVERT JUMPDEST POP JUMP JUMPDEST PUSH1 0x0 DUP2 CALLDATALOAD SWAP1 POP PUSH2 0x1328 DUP2 PUSH2 0x1302 JUMP JUMPDEST SWAP3 SWAP2 POP POP JUMP JUMPDEST PUSH1 0x0 PUSH1 0x20 DUP3 DUP5 SUB SLT ISZERO PUSH2 0x1344 JUMPI PUSH2 0x1343 PUSH2 0x12EE JUMP JUMPDEST JUMPDEST PUSH1 0x0 PUSH2 0x1352 DUP5 DUP3 DUP6 ADD PUSH2 0x1319 JUMP JUMPDEST SWAP2 POP POP SWAP3 SWAP2 POP POP JUMP JUMPDEST PUSH1 0x0 DUP2 ISZERO ISZERO SWAP1 POP SWAP2 SWAP1 POP JUMP JUMPDEST PUSH2 0x1370 DUP2 PUSH2 0x135B JUMP JUMPDEST DUP3 MSTORE POP POP JUMP JUMPDEST PUSH1 0x0 PUSH1 0x20 DUP3 ADD SWAP1 POP PUSH2 0x138B PUSH1 0x0 DUP4 ADD DUP5 PUSH2 0x1367 JUMP JUMPDEST SWAP3 SWAP2 POP POP JUMP JUMPDEST PUSH1 0x0 DUP2 SWAP1 POP SWAP2 SWAP1 POP JUMP JUMPDEST PUSH2 0x13A4 DUP2 PUSH2 0x1391 JUMP JUMPDEST DUP2 EQ PUSH2 0x13AF JUMPI PUSH1 0x0 DUP1 REVERT JUMPDEST POP JUMP JUMPDEST PUSH1 0x0 DUP2 CALLDATALOAD SWAP1 POP PUSH2 0x13C1 DUP2 PUSH2 0x139B JUMP JUMPDEST SWAP3 SWAP2 POP POP JUMP JUMPDEST PUSH1 0x0 PUSH1 0x20 DUP3 DUP5 SUB SLT ISZERO PUSH2 0x13DD JUMPI PUSH2 0x13DC PUSH2 0x12EE JUMP JUMPDEST JUMPDEST PUSH1 0x0 PUSH2 0x13EB DUP5 DUP3 DUP6 ADD PUSH2 0x13B2 JUMP JUMPDEST SWAP2 POP POP SWAP3 SWAP2 POP POP JUMP JUMPDEST PUSH2 0x13FD DUP2 PUSH2 0x12F8 JUMP JUMPDEST DUP3 MSTORE POP POP JUMP JUMPDEST PUSH1 0x0 PUSH1 0x20 DUP3 ADD SWAP1 POP PUSH2 0x1418 PUSH1 0x0 DUP4 ADD DUP5 PUSH2 0x13F4 JUMP JUMPDEST SWAP3 SWAP2 POP POP JUMP JUMPDEST PUSH1 0x0 PUSH8 0xFFFFFFFFFFFFFFFF DUP3 AND SWAP1 POP SWAP2 SWAP1 POP JUMP JUMPDEST PUSH2 0x143B DUP2 PUSH2 0x141E JUMP JUMPDEST DUP2 EQ PUSH2 0x1446 JUMPI PUSH1 0x0 DUP1 REVERT JUMPDEST POP JUMP JUMPDEST PUSH1 0x0 DUP2 CALLDATALOAD SWAP1 POP PUSH2 0x1458 DUP2 PUSH2 0x1432 JUMP JUMPDEST SWAP3 SWAP2 POP POP JUMP JUMPDEST PUSH1 0x0 DUP1 REVERT JUMPDEST PUSH1 0x0 DUP1 REVERT JUMPDEST PUSH1 0x0 DUP1 REVERT JUMPDEST PUSH1 0x0 DUP1 DUP4 PUSH1 0x1F DUP5 ADD SLT PUSH2 0x1483 JUMPI PUSH2 0x1482 PUSH2 0x145E JUMP JUMPDEST JUMPDEST DUP3 CALLDATALOAD SWAP1 POP PUSH8 0xFFFFFFFFFFFFFFFF DUP2 GT ISZERO PUSH2 0x14A0 JUMPI PUSH2 0x149F PUSH2 0x1463 JUMP JUMPDEST JUMPDEST PUSH1 0x20 DUP4 ADD SWAP2 POP DUP4 PUSH1 0x40 DUP3 MUL DUP4 ADD GT ISZERO PUSH2 0x14BC JUMPI PUSH2 0x14BB PUSH2 0x1468 JUMP JUMPDEST JUMPDEST SWAP3 POP SWAP3 SWAP1 POP JUMP JUMPDEST PUSH1 0x0 DUP1 DUP4 PUSH1 0x1F DUP5 ADD SLT PUSH2 0x14D9 JUMPI PUSH2 0x14D8 PUSH2 0x145E JUMP JUMPDEST JUMPDEST DUP3 CALLDATALOAD SWAP1 POP PUSH8 0xFFFFFFFFFFFFFFFF DUP2 GT ISZERO PUSH2 0x14F6 JUMPI PUSH2 0x14F5 PUSH2 0x1463 JUMP JUMPDEST JUMPDEST PUSH1 0x20 DUP4 ADD SWAP2 POP DUP4 PUSH1 0x60 DUP3 MUL DUP4 ADD GT ISZERO PUSH2 0x1512 JUMPI PUSH2 0x1511 PUSH2 0x1468 JUMP JUMPDEST JUMPDEST SWAP3 POP SWAP3 SWAP1 POP JUMP JUMPDEST PUSH1 0x0 DUP1 PUSH1 0x0 DUP1 PUSH1 0x0 DUP1 PUSH1 0x80 DUP8 DUP10 SUB SLT ISZERO PUSH2 0x1536 JUMPI PUSH2 0x1535 PUSH2 0x12EE JUMP JUMPDEST JUMPDEST PUSH1 0x0 PUSH2 0x1544 DUP10 DUP3 DUP11 ADD PUSH2 0x1319 JUMP JUMPDEST SWAP7 POP POP PUSH1 0x20 PUSH2 0x1555 DUP10 DUP3 DUP11 ADD PUSH2 0x1449 JUMP JUMPDEST SWAP6 POP POP PUSH1 0x40 DUP8 ADD CALLDATALOAD PUSH8 0xFFFFFFFFFFFFFFFF DUP2 GT ISZERO PUSH2 0x1576 JUMPI PUSH2 0x1575 PUSH2 0x12F3 JUMP JUMPDEST JUMPDEST PUSH2 0x1582 DUP10 DUP3 DUP11 ADD PUSH2 0x146D JUMP JUMPDEST SWAP5 POP SWAP5 POP POP PUSH1 0x60 DUP8 ADD CALLDATALOAD PUSH8 0xFFFFFFFFFFFFFFFF DUP2 GT ISZERO PUSH2 0x15A5 JUMPI PUSH2 0x15A4 PUSH2 0x12F3 JUMP JUMPDEST JUMPDEST PUSH2 0x15B1 DUP10 DUP3 DUP11 ADD PUSH2 0x14C3 JUMP JUMPDEST SWAP3 POP SWAP3 POP POP SWAP3 SWAP6 POP SWAP3 SWAP6 POP SWAP3 SWAP6 JUMP JUMPDEST PUSH1 0x0 DUP1 PUSH1 0x0 DUP1 PUSH1 0x0 DUP1 PUSH1 0x80 DUP8 DUP10 SUB SLT ISZERO PUSH2 0x15DD JUMPI PUSH2 0x15DC PUSH2 0x12EE JUMP JUMPDEST JUMPDEST PUSH1 0x0 PUSH2 0x15EB DUP10 DUP3 DUP11 ADD PUSH2 0x1319 JUMP JUMPDEST SWAP7 POP POP PUSH1 0x20 PUSH2 0x15FC DUP10 DUP3 DUP11 ADD PUSH2 0x13B2 JUMP JUMPDEST SWAP6 POP POP PUSH1 0x40 DUP8 ADD CALLDATALOAD PUSH8 0xFFFFFFFFFFFFFFFF DUP2 GT ISZERO PUSH2 0x161D JUMPI PUSH2 0x161C PUSH2 0x12F3 JUMP JUMPDEST JUMPDEST PUSH2 0x1629 DUP10 DUP3 DUP11 ADD PUSH2 0x146D JUMP JUMPDEST SWAP5 POP SWAP5 POP POP PUSH1 0x60 DUP8 ADD CALLDATALOAD PUSH8 0xFFFFFFFFFFFFFFFF DUP2 GT ISZERO PUSH2 0x164C JUMPI PUSH2 0x164B PUSH2 0x12F3 JUMP JUMPDEST JUMPDEST PUSH2 0x1658 DUP10 DUP3 DUP11 ADD PUSH2 0x14C3 JUMP JUMPDEST SWAP3 POP SWAP3 POP POP SWAP3 SWAP6 POP SWAP3 SWAP6 POP SWAP3 SWAP6 JUMP JUMPDEST PUSH2 0x1670 DUP2 PUSH2 0x1391 JUMP JUMPDEST DUP3 MSTORE POP POP JUMP JUMPDEST PUSH1 0x0 PUSH1 0x20 DUP3 ADD SWAP1 POP PUSH2 0x168B PUSH1 0x0 DUP4 ADD DUP5 PUSH2 0x1667 JUMP JUMPDEST SWAP3 SWAP2 POP POP JUMP JUMPDEST PUSH1 0x0 DUP1 REVERT JUMPDEST PUSH1 0x0 PUSH1 0xC0 DUP3 DUP5 SUB SLT ISZERO PUSH2 0x16AC JUMPI PUSH2 0x16AB PUSH2 0x1691 JUMP JUMPDEST JUMPDEST DUP2 SWAP1 POP SWAP3 SWAP2 POP POP JUMP JUMPDEST PUSH1 0x0 DUP1 PUSH1 0x0 DUP1 PUSH1 0x0 PUSH1 0x60 DUP7 DUP9 SUB SLT ISZERO PUSH2 0x16D1 JUMPI PUSH2 0x16D0 PUSH2 0x12EE JUMP JUMPDEST JUMPDEST PUSH1 0x0 DUP7 ADD CALLDATALOAD PUSH8 0xFFFFFFFFFFFFFFFF DUP2 GT ISZERO PUSH2 0x16EF JUMPI PUSH2 0x16EE PUSH2 0x12F3 JUMP JUMPDEST JUMPDEST PUSH2 0x16FB DUP9 DUP3 DUP10 ADD PUSH2 0x1696 JUMP JUMPDEST SWAP6 POP POP PUSH1 0x20 DUP7 ADD CALLDATALOAD PUSH8 0xFFFFFFFFFFFFFFFF DUP2 GT ISZERO PUSH2 0x171C JUMPI PUSH2 0x171B PUSH2 0x12F3 JUMP JUMPDEST JUMPDEST PUSH2 0x1728 DUP9 DUP3 DUP10 ADD PUSH2 0x146D JUMP JUMPDEST SWAP5 POP SWAP5 POP POP PUSH1 0x40 DUP7 ADD CALLDATALOAD PUSH8 0xFFFFFFFFFFFFFFFF DUP2 GT ISZERO PUSH2 0x174B JUMPI PUSH2 0x174A PUSH2 0x12F3 JUMP JUMPDEST JUMPDEST PUSH2 0x1757 DUP9 DUP3 DUP10 ADD PUSH2 0x14C3 JUMP JUMPDEST SWAP3 POP SWAP3 POP POP SWAP3 SWAP6 POP SWAP3 SWAP6 SWAP1 SWAP4 POP JUMP JUMPDEST PUSH1 0x0 DUP1 REVERT JUMPDEST PUSH1 0x0 PUSH1 0x1F NOT PUSH1 0x1F DUP4 ADD AND SWAP1 POP SWAP2 SWAP1 POP JUMP JUMPDEST PUSH32 0x4E487B7100000000000000000000000000000000000000000000000000000000 PUSH1 0x0 MSTORE PUSH1 0x41 PUSH1 0x4 MSTORE PUSH1 0x24 PUSH1 0x0 REVERT JUMPDEST PUSH2 0x17B4 DUP3 PUSH2 0x176B JUMP JUMPDEST DUP2 ADD DUP2 DUP2 LT PUSH8 0xFFFFFFFFFFFFFFFF DUP3 GT OR ISZERO PUSH2 0x17D3 JUMPI PUSH2 0x17D2 PUSH2 0x177C JUMP JUMPDEST JUMPDEST DUP1 PUSH1 0x40 MSTORE POP POP POP JUMP JUMPDEST PUSH1 0x0 PUSH2 0x17E6 PUSH2 0x12E4 JUMP JUMPDEST SWAP1 POP PUSH2 0x17F2 DUP3 DUP3 PUSH2 0x17AB JUMP JUMPDEST SWAP2 SWAP1 POP JUMP JUMPDEST PUSH1 0x0 DUP1 REVERT JUMPDEST PUSH1 0x0 PUSH1 0x40 DUP3 DUP5 SUB SLT ISZERO PUSH2 0x1812 JUMPI PUSH2 0x1811 PUSH2 0x1766 JUMP JUMPDEST JUMPDEST PUSH2 0x181C PUSH1 0x40 PUSH2 0x17DC JUMP JUMPDEST SWAP1 POP PUSH1 0x0 PUSH2 0x182C DUP5 DUP3 DUP6 ADD PUSH2 0x13B2 JUMP JUMPDEST PUSH1 0x0 DUP4 ADD MSTORE POP PUSH1 0x20 PUSH2 0x1840 DUP5 DUP3 DUP6 ADD PUSH2 0x1319 JUMP JUMPDEST PUSH1 0x20 DUP4 ADD MSTORE POP SWAP3 SWAP2 POP POP JUMP JUMPDEST PUSH1 0x0 PUSH8 0xFFFFFFFFFFFFFFFF DUP3 GT ISZERO PUSH2 0x1867 JUMPI PUSH2 0x1866 PUSH2 0x177C JUMP JUMPDEST JUMPDEST PUSH1 0x20 DUP3 MUL SWAP1 POP PUSH1 0x20 DUP2 ADD SWAP1 POP SWAP2 SWAP1 POP JUMP JUMPDEST PUSH1 0x0 PUSH2 0x188B PUSH2 0x1886 DUP5 PUSH2 0x184C JUMP JUMPDEST PUSH2 0x17DC JUMP JUMPDEST SWAP1 POP DUP1 DUP4 DUP3 MSTORE PUSH1 0x20 DUP3 ADD SWAP1 POP PUSH1 0x20 DUP5 MUL DUP4 ADD DUP6 DUP2 GT ISZERO PUSH2 0x18AE JUMPI PUSH2 0x18AD PUSH2 0x1468 JUMP JUMPDEST JUMPDEST DUP4 JUMPDEST DUP2 DUP2 LT ISZERO PUSH2 0x18D7 JUMPI DUP1 PUSH2 0x18C3 DUP9 DUP3 PUSH2 0x1319 JUMP JUMPDEST DUP5 MSTORE PUSH1 0x20 DUP5 ADD SWAP4 POP POP PUSH1 0x20 DUP2 ADD SWAP1 POP PUSH2 0x18B0 JUMP JUMPDEST POP POP POP SWAP4 SWAP3 POP POP POP JUMP JUMPDEST PUSH1 0x0 DUP3 PUSH1 0x1F DUP4 ADD SLT PUSH2 0x18F6 JUMPI PUSH2 0x18F5 PUSH2 0x145E JUMP JUMPDEST JUMPDEST DUP2 CALLDATALOAD PUSH2 0x1906 DUP5 DUP3 PUSH1 0x20 DUP7 ADD PUSH2 0x1878 JUMP JUMPDEST SWAP2 POP POP SWAP3 SWAP2 POP POP JUMP JUMPDEST PUSH1 0x0 PUSH1 0x60 DUP3 DUP5 SUB SLT ISZERO PUSH2 0x1925 JUMPI PUSH2 0x1924 PUSH2 0x1766 JUMP JUMPDEST JUMPDEST PUSH2 0x192F PUSH1 0x60 PUSH2 0x17DC JUMP JUMPDEST SWAP1 POP PUSH1 0x0 DUP3 ADD CALLDATALOAD PUSH8 0xFFFFFFFFFFFFFFFF DUP2 GT ISZERO PUSH2 0x194F JUMPI PUSH2 0x194E PUSH2 0x17F7 JUMP JUMPDEST JUMPDEST PUSH2 0x195B DUP5 DUP3 DUP6 ADD PUSH2 0x18E1 JUMP JUMPDEST PUSH1 0x0 DUP4 ADD MSTORE POP PUSH1 0x20 PUSH2 0x196F DUP5 DUP3 DUP6 ADD PUSH2 0x13B2 JUMP JUMPDEST PUSH1 0x20 DUP4 ADD MSTORE POP PUSH1 0x40 PUSH2 0x1983 DUP5 DUP3 DUP6 ADD PUSH2 0x13B2 JUMP JUMPDEST PUSH1 0x40 DUP4 ADD MSTORE POP SWAP3 SWAP2 POP POP JUMP JUMPDEST PUSH1 0x0 DUP1 PUSH1 0x0 PUSH1 0x80 DUP5 DUP7 SUB SLT ISZERO PUSH2 0x19A8 JUMPI PUSH2 0x19A7 PUSH2 0x12EE JUMP JUMPDEST JUMPDEST PUSH1 0x0 PUSH2 0x19B6 DUP7 DUP3 DUP8 ADD PUSH2 0x1319 JUMP JUMPDEST SWAP4 POP POP PUSH1 0x20 PUSH2 0x19C7 DUP7 DUP3 DUP8 ADD PUSH2 0x17FC JUMP JUMPDEST SWAP3 POP POP PUSH1 0x60 DUP5 ADD CALLDATALOAD PUSH8 0xFFFFFFFFFFFFFFFF DUP2 GT ISZERO PUSH2 0x19E8 JUMPI PUSH2 0x19E7 PUSH2 0x12F3 JUMP JUMPDEST JUMPDEST PUSH2 0x19F4 DUP7 DUP3 DUP8 ADD PUSH2 0x190F JUMP JUMPDEST SWAP2 POP POP SWAP3 POP SWAP3 POP SWAP3 JUMP JUMPDEST PUSH32 0x4E487B7100000000000000000000000000000000000000000000000000000000 PUSH1 0x0 MSTORE PUSH1 0x11 PUSH1 0x4 MSTORE PUSH1 0x24 PUSH1 0x0 REVERT JUMPDEST PUSH1 0x0 PUSH2 0x1A38 DUP3 PUSH2 0x1391 JUMP JUMPDEST SWAP2 POP PUSH32 0xFFFFFFFFFFFFFFFFFFFFFFFFFFFFFFFFFFFFFFFFFFFFFFFFFFFFFFFFFFFFFFFF DUP3 SUB PUSH2 0x1A6A JUMPI PUSH2 0x1A69 PUSH2 0x19FE JUMP JUMPDEST JUMPDEST PUSH1 0x1 DUP3 ADD SWAP1 POP SWAP2 SWAP1 POP JUMP JUMPDEST PUSH1 0x0 DUP2 SWAP1 POP SWAP2 SWAP1 POP JUMP JUMPDEST PUSH1 0x0 PUSH2 0x1A9A PUSH2 0x1A95 PUSH2 0x1A90 DUP5 PUSH2 0x141E JUMP JUMPDEST PUSH2 0x1A75 JUMP JUMPDEST PUSH2 0x1391 JUMP JUMPDEST SWAP1 POP SWAP2 SWAP1 POP JUMP JUMPDEST PUSH2 0x1AAA DUP2 PUSH2 0x1A7F JUMP JUMPDEST DUP3 MSTORE POP POP JUMP JUMPDEST PUSH1 0x0 PUSH1 0x40 DUP3 ADD SWAP1 POP PUSH2 0x1AC5 PUSH1 0x0 DUP4 ADD DUP6 PUSH2 0x1AA1 JUMP JUMPDEST PUSH2 0x1AD2 PUSH1 0x20 DUP4 ADD DUP5 PUSH2 0x13F4 JUMP JUMPDEST SWAP4 SWAP3 POP POP POP JUMP JUMPDEST PUSH2 0x1AE2 DUP2 PUSH2 0x1391 JUMP JUMPDEST DUP3 MSTORE POP POP JUMP JUMPDEST PUSH2 0x1AF1 DUP2 PUSH2 0x12F8 JUMP JUMPDEST DUP3 MSTORE POP POP JUMP JUMPDEST PUSH1 0x40 DUP3 ADD PUSH1 0x0 DUP3 ADD MLOAD PUSH2 0x1B0D PUSH1 0x0 DUP6 ADD DUP3 PUSH2 0x1AD9 JUMP JUMPDEST POP PUSH1 0x20 DUP3 ADD MLOAD PUSH2 0x1B20 PUSH1 0x20 DUP6 ADD DUP3 PUSH2 0x1AE8 JUMP JUMPDEST POP POP POP POP JUMP JUMPDEST PUSH1 0x0 PUSH1 0x40 DUP3 ADD SWAP1 POP PUSH2 0x1B3B PUSH1 0x0 DUP4 ADD DUP5 PUSH2 0x1AF7 JUMP JUMPDEST SWAP3 SWAP2 POP POP JUMP JUMPDEST PUSH1 0x0 DUP3 DUP3 MSTORE PUSH1 0x20 DUP3 ADD SWAP1 POP SWAP3 SWAP2 POP POP JUMP JUMPDEST PUSH1 0x0 DUP2 SWAP1 POP SWAP2 SWAP1 POP JUMP JUMPDEST PUSH1 0x0 PUSH20 0xFFFFFFFFFFFFFFFFFFFFFFFFFFFFFFFFFFFFFFFF DUP3 AND SWAP1 POP SWAP2 SWAP1 POP JUMP JUMPDEST PUSH1 0x0 PUSH2 0x1B87 DUP3 PUSH2 0x1B5C JUMP JUMPDEST SWAP1 POP SWAP2 SWAP1 POP JUMP JUMPDEST PUSH2 0x1B97 DUP2 PUSH2 0x1B7C JUMP JUMPDEST DUP2 EQ PUSH2 0x1BA2 JUMPI PUSH1 0x0 DUP1 REVERT JUMPDEST POP JUMP JUMPDEST PUSH1 0x0 DUP2 CALLDATALOAD SWAP1 POP PUSH2 0x1BB4 DUP2 PUSH2 0x1B8E JUMP JUMPDEST SWAP3 SWAP2 POP POP JUMP JUMPDEST PUSH1 0x0 PUSH2 0x1BC9 PUSH1 0x20 DUP5 ADD DUP5 PUSH2 0x1BA5 JUMP JUMPDEST SWAP1 POP SWAP3 SWAP2 POP POP JUMP JUMPDEST PUSH2 0x1BDA DUP2 PUSH2 0x1B7C JUMP JUMPDEST DUP3 MSTORE POP POP JUMP JUMPDEST PUSH1 0x0 PUSH2 0x1BEF PUSH1 0x20 DUP5 ADD DUP5 PUSH2 0x13B2 JUMP JUMPDEST SWAP1 POP SWAP3 SWAP2 POP POP JUMP JUMPDEST PUSH1 0x40 DUP3 ADD PUSH2 0x1C08 PUSH1 0x0 DUP4 ADD DUP4 PUSH2 0x1BBA JUMP JUMPDEST PUSH2 0x1C15 PUSH1 0x0 DUP6 ADD DUP3 PUSH2 0x1BD1 JUMP JUMPDEST POP PUSH2 0x1C23 PUSH1 0x20 DUP4 ADD DUP4 PUSH2 0x1BE0 JUMP JUMPDEST PUSH2 0x1C30 PUSH1 0x20 DUP6 ADD DUP3 PUSH2 0x1AD9 JUMP JUMPDEST POP POP POP POP JUMP JUMPDEST PUSH1 0x0 PUSH2 0x1C42 DUP4 DUP4 PUSH2 0x1BF7 JUMP JUMPDEST PUSH1 0x40 DUP4 ADD SWAP1 POP SWAP3 SWAP2 POP POP JUMP JUMPDEST PUSH1 0x0 DUP3 SWAP1 POP SWAP3 SWAP2 POP POP JUMP JUMPDEST PUSH1 0x0 PUSH1 0x40 DUP3 ADD SWAP1 POP SWAP2 SWAP1 POP JUMP JUMPDEST PUSH1 0x0 PUSH2 0x1C72 DUP4 DUP6 PUSH2 0x1B41 JUMP JUMPDEST SWAP4 POP PUSH2 0x1C7D DUP3 PUSH2 0x1B52 JUMP JUMPDEST DUP1 PUSH1 0x0 JUMPDEST DUP6 DUP2 LT ISZERO PUSH2 0x1CB6 JUMPI PUSH2 0x1C93 DUP3 DUP5 PUSH2 0x1C4E JUMP JUMPDEST PUSH2 0x1C9D DUP9 DUP3 PUSH2 0x1C36 JUMP JUMPDEST SWAP8 POP PUSH2 0x1CA8 DUP4 PUSH2 0x1C59 JUMP JUMPDEST SWAP3 POP POP PUSH1 0x1 DUP2 ADD SWAP1 POP PUSH2 0x1C81 JUMP JUMPDEST POP DUP6 SWAP3 POP POP POP SWAP4 SWAP3 POP POP POP JUMP JUMPDEST PUSH1 0x0 PUSH1 0x20 DUP3 ADD SWAP1 POP DUP2 DUP2 SUB PUSH1 0x0 DUP4 ADD MSTORE PUSH2 0x1CDE DUP2 DUP5 DUP7 PUSH2 0x1C66 JUMP JUMPDEST SWAP1 POP SWAP4 SWAP3 POP POP POP JUMP JUMPDEST PUSH1 0x0 PUSH1 0x80 DUP3 ADD SWAP1 POP PUSH2 0x1CFC PUSH1 0x0 DUP4 ADD DUP8 PUSH2 0x13F4 JUMP JUMPDEST PUSH2 0x1D09 PUSH1 0x20 DUP4 ADD DUP7 PUSH2 0x1667 JUMP JUMPDEST PUSH2 0x1D16 PUSH1 0x40 DUP4 ADD DUP6 PUSH2 0x1667 JUMP JUMPDEST PUSH2 0x1D23 PUSH1 0x60 DUP4 ADD DUP5 PUSH2 0x13F4 JUMP JUMPDEST SWAP6 SWAP5 POP POP POP POP POP JUMP JUMPDEST PUSH32 0x4E487B7100000000000000000000000000000000000000000000000000000000 PUSH1 0x0 MSTORE PUSH1 0x32 PUSH1 0x4 MSTORE PUSH1 0x24 PUSH1 0x0 REVERT JUMPDEST PUSH1 0x0 PUSH1 0xFF DUP3 AND SWAP1 POP SWAP2 SWAP1 POP JUMP JUMPDEST PUSH2 0x1D71 DUP2 PUSH2 0x1D5B JUMP JUMPDEST DUP2 EQ PUSH2 0x1D7C JUMPI PUSH1 0x0 DUP1 REVERT JUMPDEST POP JUMP JUMPDEST PUSH1 0x0 DUP2 CALLDATALOAD SWAP1 POP PUSH2 0x1D8E DUP2 PUSH2 0x1D68 JUMP JUMPDEST SWAP3 SWAP2 POP POP JUMP JUMPDEST PUSH1 0x0 PUSH1 0x20 DUP3 DUP5 SUB SLT ISZERO PUSH2 0x1DAA JUMPI PUSH2 0x1DA9 PUSH2 0x12EE JUMP JUMPDEST JUMPDEST PUSH1 0x0 PUSH2 0x1DB8 DUP5 DUP3 DUP6 ADD PUSH2 0x1D7F JUMP JUMPDEST SWAP2 POP POP SWAP3 SWAP2 POP POP JUMP JUMPDEST PUSH1 0x0 PUSH1 0x20 DUP3 DUP5 SUB SLT ISZERO PUSH2 0x1DD7 JUMPI PUSH2 0x1DD6 PUSH2 0x12EE JUMP JUMPDEST JUMPDEST PUSH1 0x0 PUSH2 0x1DE5 DUP5 DUP3 DUP6 ADD PUSH2 0x1BA5 JUMP JUMPDEST SWAP2 POP POP SWAP3 SWAP2 POP POP JUMP JUMPDEST PUSH1 0x0 PUSH2 0x1DF9 DUP3 PUSH2 0x1391 JUMP JUMPDEST SWAP2 POP PUSH2 0x1E04 DUP4 PUSH2 0x1391 JUMP JUMPDEST SWAP3 POP DUP3 DUP3 ADD SWAP1 POP DUP1 DUP3 GT ISZERO PUSH2 0x1E1C JUMPI PUSH2 0x1E1B PUSH2 0x19FE JUMP JUMPDEST JUMPDEST SWAP3 SWAP2 POP POP JUMP JUMPDEST PUSH1 0x0 DUP1 REVERT JUMPDEST PUSH1 0x0 DUP1 REVERT JUMPDEST PUSH1 0x0 DUP1 REVERT JUMPDEST PUSH1 0x0 DUP3 CALLDATALOAD PUSH1 0x1 PUSH1 0x60 SUB DUP4 CALLDATASIZE SUB SUB DUP2 SLT PUSH2 0x1E4D JUMPI PUSH2 0x1E4C PUSH2 0x1E22 JUMP JUMPDEST JUMPDEST DUP1 DUP4 ADD SWAP2 POP POP SWAP3 SWAP2 POP POP JUMP JUMPDEST PUSH1 0x0 DUP1 DUP4 CALLDATALOAD PUSH1 0x1 PUSH1 0x20 SUB DUP5 CALLDATASIZE SUB SUB DUP2 SLT PUSH2 0x1E76 JUMPI PUSH2 0x1E75 PUSH2 0x1E22 JUMP JUMPDEST JUMPDEST DUP1 DUP5 ADD SWAP3 POP DUP3 CALLDATALOAD SWAP2 POP PUSH8 0xFFFFFFFFFFFFFFFF DUP3 GT ISZERO PUSH2 0x1E98 JUMPI PUSH2 0x1E97 PUSH2 0x1E27 JUMP JUMPDEST JUMPDEST PUSH1 0x20 DUP4 ADD SWAP3 POP PUSH1 0x1 DUP3 MUL CALLDATASIZE SUB DUP4 SGT ISZERO PUSH2 0x1EB4 JUMPI PUSH2 0x1EB3 PUSH2 0x1E2C JUMP JUMPDEST JUMPDEST POP SWAP3 POP SWAP3 SWAP1 POP JUMP JUMPDEST PUSH1 0x0 DUP3 DUP3 MSTORE PUSH1 0x20 DUP3 ADD SWAP1 POP SWAP3 SWAP2 POP POP JUMP JUMPDEST DUP3 DUP2 DUP4 CALLDATACOPY PUSH1 0x0 DUP4 DUP4 ADD MSTORE POP POP POP JUMP JUMPDEST PUSH1 0x0 PUSH2 0x1EE8 DUP4 DUP6 PUSH2 0x1EBC JUMP JUMPDEST SWAP4 POP PUSH2 0x1EF5 DUP4 DUP6 DUP5 PUSH2 0x1ECD JUMP JUMPDEST PUSH2 0x1EFE DUP4 PUSH2 0x176B JUMP JUMPDEST DUP5 ADD SWAP1 POP SWAP4 SWAP3 POP POP POP JUMP JUMPDEST PUSH1 0x0 PUSH2 0x120 DUP3 ADD SWAP1 POP PUSH2 0x1F1F PUSH1 0x0 DUP4 ADD DUP14 PUSH2 0x13F4 JUMP JUMPDEST PUSH2 0x1F2C PUSH1 0x20 DUP4 ADD DUP13 PUSH2 0x13F4 JUMP JUMPDEST DUP2 DUP2 SUB PUSH1 0x40 DUP4 ADD MSTORE PUSH2 0x1F3F DUP2 DUP11 DUP13 PUSH2 0x1EDC JUMP JUMPDEST SWAP1 POP PUSH2 0x1F4E PUSH1 0x60 DUP4 ADD DUP10 PUSH2 0x1667 JUMP JUMPDEST PUSH2 0x1F5B PUSH1 0x80 DUP4 ADD DUP9 PUSH2 0x1667 JUMP JUMPDEST PUSH2 0x1F68 PUSH1 0xA0 DUP4 ADD DUP8 PUSH2 0x1667 JUMP JUMPDEST PUSH2 0x1F75 PUSH1 0xC0 DUP4 ADD DUP7 PUSH2 0x1667 JUMP JUMPDEST PUSH2 0x1F82 PUSH1 0xE0 DUP4 ADD DUP6 PUSH2 0x13F4 JUMP JUMPDEST PUSH2 0x1F90 PUSH2 0x100 DUP4 ADD DUP5 PUSH2 0x1667 JUMP JUMPDEST SWAP12 SWAP11 POP POP POP POP POP POP POP POP POP POP POP JUMP JUMPDEST PUSH1 0x0 PUSH2 0x1FAA DUP3 PUSH2 0x1391 JUMP JUMPDEST SWAP2 POP PUSH2 0x1FB5 DUP4 PUSH2 0x1391 JUMP JUMPDEST SWAP3 POP DUP3 DUP3 SUB SWAP1 POP DUP2 DUP2 GT ISZERO PUSH2 0x1FCD JUMPI PUSH2 0x1FCC PUSH2 0x19FE JUMP JUMPDEST JUMPDEST SWAP3 SWAP2 POP POP JUMP JUMPDEST PUSH1 0x0 PUSH32 0xFF00000000000000000000000000000000000000000000000000000000000000 DUP3 AND SWAP1 POP SWAP2 SWAP1 POP JUMP JUMPDEST PUSH1 0x0 DUP2 SWAP1 POP SWAP2 SWAP1 POP JUMP JUMPDEST PUSH2 0x201A PUSH2 0x2015 DUP3 PUSH2 0x1FD3 JUMP JUMPDEST PUSH2 0x1FFF JUMP JUMPDEST DUP3 MSTORE POP POP JUMP JUMPDEST PUSH1 0x0 DUP2 MLOAD SWAP1 POP SWAP2 SWAP1 POP JUMP JUMPDEST PUSH1 0x0 DUP2 SWAP1 POP SWAP3 SWAP2 POP POP JUMP JUMPDEST PUSH1 0x0 JUMPDEST DUP4 DUP2 LT ISZERO PUSH2 0x2054 JUMPI DUP1 DUP3 ADD MLOAD DUP2 DUP5 ADD MSTORE PUSH1 0x20 DUP2 ADD SWAP1 POP PUSH2 0x2039 JUMP JUMPDEST PUSH1 0x0 DUP5 DUP5 ADD MSTORE POP POP POP POP JUMP JUMPDEST PUSH1 0x0 PUSH2 0x206B DUP3 PUSH2 0x2020 JUMP JUMPDEST PUSH2 0x2075 DUP2 DUP6 PUSH2 0x202B JUMP JUMPDEST SWAP4 POP PUSH2 0x2085 DUP2 DUP6 PUSH1 0x20 DUP7 ADD PUSH2 0x2036 JUMP JUMPDEST DUP1 DUP5 ADD SWAP2 POP POP SWAP3 SWAP2 POP POP JUMP JUMPDEST PUSH1 0x0 PUSH2 0x209D DUP3 DUP6 PUSH2 0x2009 JUMP JUMPDEST PUSH1 0x1 DUP3 ADD SWAP2 POP PUSH2 0x20AD DUP3 DUP5 PUSH2 0x2060 JUMP JUMPDEST SWAP2 POP DUP2 SWAP1 POP SWAP4 SWAP3 POP POP POP JUMP JUMPDEST PUSH1 0x0 PUSH2 0x20C5 DUP3 DUP5 PUSH2 0x2060 JUMP JUMPDEST SWAP2 POP DUP2 SWAP1 POP SWAP3 SWAP2 POP POP JUMP JUMPDEST PUSH1 0x0 DUP2 MLOAD SWAP1 POP PUSH2 0x20DF DUP2 PUSH2 0x1302 JUMP JUMPDEST SWAP3 SWAP2 POP POP JUMP JUMPDEST PUSH1 0x0 PUSH1 0x20 DUP3 DUP5 SUB SLT ISZERO PUSH2 0x20FB JUMPI PUSH2 0x20FA PUSH2 0x12EE JUMP JUMPDEST JUMPDEST PUSH1 0x0 PUSH2 0x2109 DUP5 DUP3 DUP6 ADD PUSH2 0x20D0 JUMP JUMPDEST SWAP2 POP POP SWAP3 SWAP2 POP POP JUMP JUMPDEST PUSH1 0x0 DUP3 DUP3 MSTORE PUSH1 0x20 DUP3 ADD SWAP1 POP SWAP3 SWAP2 POP POP JUMP JUMPDEST PUSH32 0x63616E6E6F742063616C6C20636F6D70757465526F6F74486173682077697468 PUSH1 0x0 DUP3 ADD MSTORE PUSH32 0x2030206E756D626572206F66206C656176657300000000000000000000000000 PUSH1 0x20 DUP3 ADD MSTORE POP JUMP JUMPDEST PUSH1 0x0 PUSH2 0x217F PUSH1 0x33 DUP4 PUSH2 0x2112 JUMP JUMPDEST SWAP2 POP PUSH2 0x218A DUP3 PUSH2 0x2123 JUMP JUMPDEST PUSH1 0x40 DUP3 ADD SWAP1 POP SWAP2 SWAP1 POP JUMP JUMPDEST PUSH1 0x0 PUSH1 0x20 DUP3 ADD SWAP1 POP DUP2 DUP2 SUB PUSH1 0x0 DUP4 ADD MSTORE PUSH2 0x21AE DUP2 PUSH2 0x2172 JUMP JUMPDEST SWAP1 POP SWAP2 SWAP1 POP JUMP JUMPDEST PUSH32 0x756E657870656374656420696E6E657220686173686573000000000000000000 PUSH1 0x0 DUP3 ADD MSTORE POP JUMP JUMPDEST PUSH1 0x0 PUSH2 0x21EB PUSH1 0x17 DUP4 PUSH2 0x2112 JUMP JUMPDEST SWAP2 POP PUSH2 0x21F6 DUP3 PUSH2 0x21B5 JUMP JUMPDEST PUSH1 0x20 DUP3 ADD SWAP1 POP SWAP2 SWAP1 POP JUMP JUMPDEST PUSH1 0x0 PUSH1 0x20 DUP3 ADD SWAP1 POP DUP2 DUP2 SUB PUSH1 0x0 DUP4 ADD MSTORE PUSH2 0x221A DUP2 PUSH2 0x21DE JUMP JUMPDEST SWAP1 POP SWAP2 SWAP1 POP JUMP JUMPDEST PUSH32 0x6578706563746564206174206C65617374206F6E6520696E6E65722068617368 PUSH1 0x0 DUP3 ADD MSTORE POP JUMP JUMPDEST PUSH1 0x0 PUSH2 0x2257 PUSH1 0x20 DUP4 PUSH2 0x2112 JUMP JUMPDEST SWAP2 POP PUSH2 0x2262 DUP3 PUSH2 0x2221 JUMP JUMPDEST PUSH1 0x20 DUP3 ADD SWAP1 POP SWAP2 SWAP1 POP JUMP JUMPDEST PUSH1 0x0 PUSH1 0x20 DUP3 ADD SWAP1 POP DUP2 DUP2 SUB PUSH1 0x0 DUP4 ADD MSTORE PUSH2 0x2286 DUP2 PUSH2 0x224A JUMP JUMPDEST SWAP1 POP SWAP2 SWAP1 POP JUMP JUMPDEST PUSH32 0x496E76616C69642072616E67653A205F626567696E2069732067726561746572 PUSH1 0x0 DUP3 ADD MSTORE PUSH32 0x207468616E205F656E6400000000000000000000000000000000000000000000 PUSH1 0x20 DUP3 ADD MSTORE POP JUMP JUMPDEST PUSH1 0x0 PUSH2 0x22E9 PUSH1 0x2A DUP4 PUSH2 0x2112 JUMP JUMPDEST SWAP2 POP PUSH2 0x22F4 DUP3 PUSH2 0x228D JUMP JUMPDEST PUSH1 0x40 DUP3 ADD SWAP1 POP SWAP2 SWAP1 POP JUMP JUMPDEST PUSH1 0x0 PUSH1 0x20 DUP3 ADD SWAP1 POP DUP2 DUP2 SUB PUSH1 0x0 DUP4 ADD MSTORE PUSH2 0x2318 DUP2 PUSH2 0x22DC JUMP JUMPDEST SWAP1 POP SWAP2 SWAP1 POP JUMP JUMPDEST PUSH32 0x496E76616C69642072616E67653A205F626567696E206F72205F656E64206172 PUSH1 0x0 DUP3 ADD MSTORE PUSH32 0x65206F7574206F6620626F756E64730000000000000000000000000000000000 PUSH1 0x20 DUP3 ADD MSTORE POP JUMP JUMPDEST PUSH1 0x0 PUSH2 0x237B PUSH1 0x2F DUP4 PUSH2 0x2112 JUMP JUMPDEST SWAP2 POP PUSH2 0x2386 DUP3 PUSH2 0x231F JUMP JUMPDEST PUSH1 0x40 DUP3 ADD SWAP1 POP SWAP2 SWAP1 POP JUMP JUMPDEST PUSH1 0x0 PUSH1 0x20 DUP3 ADD SWAP1 POP DUP2 DUP2 SUB PUSH1 0x0 DUP4 ADD MSTORE PUSH2 0x23AA DUP2 PUSH2 0x236E JUMP JUMPDEST SWAP1 POP SWAP2 SWAP1 POP JUMP JUMPDEST PUSH1 0x0 DUP2 SWAP1 POP SWAP2 SWAP1 POP JUMP JUMPDEST PUSH2 0x23CC PUSH2 0x23C7 DUP3 PUSH2 0x12F8 JUMP JUMPDEST PUSH2 0x23B1 JUMP JUMPDEST DUP3 MSTORE POP POP JUMP JUMPDEST PUSH1 0x0 PUSH2 0x23DE DUP3 DUP7 PUSH2 0x2009 JUMP JUMPDEST PUSH1 0x1 DUP3 ADD SWAP2 POP PUSH2 0x23EE DUP3 DUP6 PUSH2 0x23BB JUMP JUMPDEST PUSH1 0x20 DUP3 ADD SWAP2 POP PUSH2 0x23FE DUP3 DUP5 PUSH2 0x23BB JUMP JUMPDEST PUSH1 0x20 DUP3 ADD SWAP2 POP DUP2 SWAP1 POP SWAP5 SWAP4 POP POP POP POP JUMP JUMPDEST PUSH2 0x2418 DUP2 PUSH2 0x1D5B JUMP JUMPDEST DUP3 MSTORE POP POP JUMP JUMPDEST PUSH1 0x0 PUSH1 0x80 DUP3 ADD SWAP1 POP PUSH2 0x2433 PUSH1 0x0 DUP4 ADD DUP8 PUSH2 0x13F4 JUMP JUMPDEST PUSH2 0x2440 PUSH1 0x20 DUP4 ADD DUP7 PUSH2 0x240F JUMP JUMPDEST PUSH2 0x244D PUSH1 0x40 DUP4 ADD DUP6 PUSH2 0x13F4 JUMP JUMPDEST PUSH2 0x245A PUSH1 0x60 DUP4 ADD DUP5 PUSH2 0x13F4 JUMP JUMPDEST SWAP6 SWAP5 POP POP POP POP POP JUMP JUMPDEST PUSH32 0x4E487B7100000000000000000000000000000000000000000000000000000000 PUSH1 0x0 MSTORE PUSH1 0x21 PUSH1 0x4 MSTORE PUSH1 0x24 PUSH1 0x0 REVERT INVALID LOG2 PUSH5 0x6970667358 0x22 SLT KECCAK256 0x4B DUP7 0x4B SWAP9 DUP7 0xA9 SWAP8 PC EQ DUP8 SSTORE ISZERO PUSH23 0x3CEDED6502684F26F182C4AE9BD3CD7BB57EBF64736F6C PUSH4 0x43000816 STOP CALLER "},"methodIdentifiers":{"currentRelayedBlockHeight()":"d8256ec7","isOracleRoot(bytes32)":"31b53e52","lastValidatorSetCheckpoint()":"af082a7d","oracleRoots(uint256)":"91f6b44b","powerThreshold()":"ba95ec27","submitOracleRoot(bytes32,uint256,(address,uint256)[],(uint8,bytes32,bytes32)[])":"ae002495","updateValidatorSet(bytes32,uint64,(address,uint256)[],(uint8,bytes32,bytes32)[])":"93319d6e","validatorNonce()":"e17a684f","verifyAttestation(bytes32,(uint256,bytes32),(bytes32[],uint256,uint256))":"e5e57eb5","verifyOracleData((bytes32,(bytes,uint256,uint256),uint256,uint256,bytes32,uint256),(address,uint256)[],(uint8,bytes32,bytes32)[])":"cb908d52"}}}}}