{"contracts/bridge/mock/BridgeCaller.sol":{"BridgeCaller":{"abi":[{"inputs":[{"internalType":"address","name":"_bridge","type":"address"}],"stateMutability":"nonpayable","type":"constructor"},{"inputs":[],"name":"bridge","outputs":[{"internalType":"contract BlobstreamO","name":"","type":"address"}],"stateMutability":"view","type":"function"},{"inputs":[],"name":"oracleData","outputs":[{"internalType":"bytes","name":"","type":"bytes"}],"stateMutability":"view","type":"function"},{"inputs":[],"name":"oracleDataTimestamp","outputs":[{"internalType":"uint256","name":"","type":"uint256"}],"stateMutability":"view","type":"function"},{"inputs":[{"components":[{"internalType":"bytes32","name":"queryId","type":"bytes32"},{"components":[{"internalType":"bytes","name":"value","type":"bytes"},{"internalType":"uint256","name":"timestamp","type":"uint256"},{"internalType":"uint256","name":"aggregatePower","type":"uint256"},{"internalType":"uint256","name":"previousTimestamp","type":"uint256"},{"internalType":"uint256","name":"nextTimestamp","type":"uint256"}],"internalType":"struct ReportData","name":"report","type":"tuple"},{"internalType":"uint256","name":"attestTimestamp","type":"uint256"}],"internalType":"struct OracleAttestationData","name":"_attest","type":"tuple"},{"components":[{"internalType":"address","name":"addr","type":"address"},{"internalType":"uint256","name":"power","type":"uint256"}],"internalType":"struct Validator[]","name":"_currentValidatorSet","type":"tuple[]"},{"components":[{"internalType":"uint8","name":"v","type":"uint8"},{"internalType":"bytes32","name":"r","type":"bytes32"},{"internalType":"bytes32","name":"s","type":"bytes32"}],"internalType":"struct Signature[]","name":"_sigs","type":"tuple[]"}],"name":"verifyAndSaveOracleData","outputs":[],"stateMutability":"nonpayable","type":"function"}],"evm":{"bytecode":{"linkReferences":{},"object":"60806040523480156200001157600080fd5b5060405162001098380380620010988339818101604052810190620000379190620000e8565b806000806101000a81548173ffffffffffffffffffffffffffffffffffffffff021916908373ffffffffffffffffffffffffffffffffffffffff160217905550506200011a565b600080fd5b600073ffffffffffffffffffffffffffffffffffffffff82169050919050565b6000620000b08262000083565b9050919050565b620000c281620000a3565b8114620000ce57600080fd5b50565b600081519050620000e281620000b7565b92915050565b6000602082840312156200010157620001006200007e565b5b60006200011184828501620000d1565b91505092915050565b610f6e806200012a6000396000f3fe608060405234801561001057600080fd5b506004361061004c5760003560e01c806337e440031461005157806374645ff31461006d578063b5d1460b1461008b578063e78cea92146100a9575b600080fd5b61006b60048036038101906100669190610363565b6100c7565b005b6100756101c2565b60405161008291906104a4565b60405180910390f35b610093610250565b6040516100a091906104df565b60405180910390f35b6100b1610256565b6040516100be9190610579565b60405180910390f35b60008054906101000a900473ffffffffffffffffffffffffffffffffffffffff1673ffffffffffffffffffffffffffffffffffffffff16635121b26e86868686866040518663ffffffff1660e01b8152600401610128959493929190610add565b602060405180830381865afa158015610145573d6000803e3d6000fd5b505050506040513d601f19601f820116820180604052508101906101699190610b65565b61017257600080fd5b8480602001906101829190610ba1565b80600001906101919190610bc9565b600191826101a0929190610e68565b508480602001906101b19190610ba1565b602001356002819055505050505050565b600180546101cf90610c95565b80601f01602080910402602001604051908101604052809291908181526020018280546101fb90610c95565b80156102485780601f1061021d57610100808354040283529160200191610248565b820191906000526020600020905b81548152906001019060200180831161022b57829003601f168201915b505050505081565b60025481565b60008054906101000a900473ffffffffffffffffffffffffffffffffffffffff1681565b600080fd5b600080fd5b600080fd5b60006060828403121561029f5761029e610284565b5b81905092915050565b600080fd5b600080fd5b600080fd5b60008083601f8401126102cd576102cc6102a8565b5b8235905067ffffffffffffffff8111156102ea576102e96102ad565b5b602083019150836040820283011115610306576103056102b2565b5b9250929050565b60008083601f840112610323576103226102a8565b5b8235905067ffffffffffffffff8111156103405761033f6102ad565b5b60208301915083606082028301111561035c5761035b6102b2565b5b9250929050565b60008060008060006060868803121561037f5761037e61027a565b5b600086013567ffffffffffffffff81111561039d5761039c61027f565b5b6103a988828901610289565b955050602086013567ffffffffffffffff8111156103ca576103c961027f565b5b6103d6888289016102b7565b9450945050604086013567ffffffffffffffff8111156103f9576103f861027f565b5b6104058882890161030d565b92509250509295509295909350565b600081519050919050565b600082825260208201905092915050565b60005b8381101561044e578082015181840152602081019050610433565b60008484015250505050565b6000601f19601f8301169050919050565b600061047682610414565b610480818561041f565b9350610490818560208601610430565b6104998161045a565b840191505092915050565b600060208201905081810360008301526104be818461046b565b905092915050565b6000819050919050565b6104d9816104c6565b82525050565b60006020820190506104f460008301846104d0565b92915050565b600073ffffffffffffffffffffffffffffffffffffffff82169050919050565b6000819050919050565b600061053f61053a610535846104fa565b61051a565b6104fa565b9050919050565b600061055182610524565b9050919050565b600061056382610546565b9050919050565b61057381610558565b82525050565b600060208201905061058e600083018461056a565b92915050565b6000819050919050565b6105a781610594565b81146105b257600080fd5b50565b6000813590506105c48161059e565b92915050565b60006105d960208401846105b5565b905092915050565b6105ea81610594565b82525050565b600080fd5b60008235600160a003833603038112610611576106106105f0565b5b82810191505092915050565b600080fd5b600080fd5b60008083356001602003843603038112610644576106436105f0565b5b83810192508235915060208301925067ffffffffffffffff82111561066c5761066b61061d565b5b60018202360383131561068257610681610622565b5b509250929050565b600082825260208201905092915050565b82818337600083830152505050565b60006106b6838561068a565b93506106c383858461069b565b6106cc8361045a565b840190509392505050565b6106e0816104c6565b81146106eb57600080fd5b50565b6000813590506106fd816106d7565b92915050565b600061071260208401846106ee565b905092915050565b610723816104c6565b82525050565b600060a0830161073c6000840184610627565b858303600087015261074f8382846106aa565b925050506107606020840184610703565b61076d602086018261071a565b5061077b6040840184610703565b610788604086018261071a565b506107966060840184610703565b6107a3606086018261071a565b506107b16080840184610703565b6107be608086018261071a565b508091505092915050565b6000606083016107dc60008401846105ca565b6107e960008601826105e1565b506107f760208401846105f5565b84820360208601526108098282610729565b9150506108196040840184610703565b610826604086018261071a565b508091505092915050565b600082825260208201905092915050565b6000819050919050565b6000610857826104fa565b9050919050565b6108678161084c565b811461087257600080fd5b50565b6000813590506108848161085e565b92915050565b60006108996020840184610875565b905092915050565b6108aa8161084c565b82525050565b604082016108c1600083018361088a565b6108ce60008501826108a1565b506108dc6020830183610703565b6108e9602085018261071a565b50505050565b60006108fb83836108b0565b60408301905092915050565b600082905092915050565b6000604082019050919050565b600061092b8385610831565b935061093682610842565b8060005b8581101561096f5761094c8284610907565b61095688826108ef565b975061096183610912565b92505060018101905061093a565b5085925050509392505050565b600082825260208201905092915050565b6000819050919050565b600060ff82169050919050565b6109ad81610997565b81146109b857600080fd5b50565b6000813590506109ca816109a4565b92915050565b60006109df60208401846109bb565b905092915050565b6109f081610997565b82525050565b60608201610a0760008301836109d0565b610a1460008501826109e7565b50610a2260208301836105ca565b610a2f60208501826105e1565b50610a3d60408301836105ca565b610a4a60408501826105e1565b50505050565b6000610a5c83836109f6565b60608301905092915050565b600082905092915050565b6000606082019050919050565b6000610a8c838561097c565b9350610a978261098d565b8060005b85811015610ad057610aad8284610a68565b610ab78882610a50565b9750610ac283610a73565b925050600181019050610a9b565b5085925050509392505050565b60006060820190508181036000830152610af781886107c9565b90508181036020830152610b0c81868861091f565b90508181036040830152610b21818486610a80565b90509695505050505050565b60008115159050919050565b610b4281610b2d565b8114610b4d57600080fd5b50565b600081519050610b5f81610b39565b92915050565b600060208284031215610b7b57610b7a61027a565b5b6000610b8984828501610b50565b91505092915050565b600080fd5b600080fd5b600080fd5b60008235600160a003833603038112610bbd57610bbc610b92565b5b80830191505092915050565b60008083356001602003843603038112610be657610be5610b92565b5b80840192508235915067ffffffffffffffff821115610c0857610c07610b97565b5b602083019250600182023603831315610c2457610c23610b9c565b5b509250929050565b600082905092915050565b7f4e487b7100000000000000000000000000000000000000000000000000000000600052604160045260246000fd5b7f4e487b7100000000000000000000000000000000000000000000000000000000600052602260045260246000fd5b60006002820490506001821680610cad57607f821691505b602082108103610cc057610cbf610c66565b5b50919050565b60008190508160005260206000209050919050565b60006020601f8301049050919050565b600082821b905092915050565b600060088302610d287fffffffffffffffffffffffffffffffffffffffffffffffffffffffffffffffff82610ceb565b610d328683610ceb565b95508019841693508086168417925050509392505050565b6000610d65610d60610d5b846104c6565b61051a565b6104c6565b9050919050565b6000819050919050565b610d7f83610d4a565b610d93610d8b82610d6c565b848454610cf8565b825550505050565b600090565b610da8610d9b565b610db3818484610d76565b505050565b5b81811015610dd757610dcc600082610da0565b600181019050610db9565b5050565b601f821115610e1c57610ded81610cc6565b610df684610cdb565b81016020851015610e05578190505b610e19610e1185610cdb565b830182610db8565b50505b505050565b600082821c905092915050565b6000610e3f60001984600802610e21565b1980831691505092915050565b6000610e588383610e2e565b9150826002028217905092915050565b610e728383610c2c565b67ffffffffffffffff811115610e8b57610e8a610c37565b5b610e958254610c95565b610ea0828285610ddb565b6000601f831160018114610ecf5760008415610ebd578287013590505b610ec78582610e4c565b865550610f2f565b601f198416610edd86610cc6565b60005b82811015610f0557848901358255600182019150602085019450602081019050610ee0565b86831015610f225784890135610f1e601f891682610e2e565b8355505b6001600288020188555050505b5050505050505056fea26469706673582212209e950d56e7329d023a43233fcdb5ab9eb531284cdd866d2ef98b15c8e1059c3e64736f6c63430008160033","opcodes":"PUSH1 0x80 PUSH1 0x40 MSTORE CALLVALUE DUP1 ISZERO PUSH3 0x11 JUMPI PUSH1 0x0 DUP1 REVERT JUMPDEST POP PUSH1 0x40 MLOAD PUSH3 0x1098 CODESIZE SUB DUP1 PUSH3 0x1098 DUP4 CODECOPY DUP2 DUP2 ADD PUSH1 0x40 MSTORE DUP2 ADD SWAP1 PUSH3 0x37 SWAP2 SWAP1 PUSH3 0xE8 JUMP JUMPDEST DUP1 PUSH1 0x0 DUP1 PUSH2 0x100 EXP DUP2 SLOAD DUP2 PUSH20 0xFFFFFFFFFFFFFFFFFFFFFFFFFFFFFFFFFFFFFFFF MUL NOT AND SWAP1 DUP4 PUSH20 0xFFFFFFFFFFFFFFFFFFFFFFFFFFFFFFFFFFFFFFFF AND MUL OR SWAP1 SSTORE POP POP PUSH3 0x11A JUMP JUMPDEST PUSH1 0x0 DUP1 REVERT JUMPDEST PUSH1 0x0 PUSH20 0xFFFFFFFFFFFFFFFFFFFFFFFFFFFFFFFFFFFFFFFF DUP3 AND SWAP1 POP SWAP2 SWAP1 POP JUMP JUMPDEST PUSH1 0x0 PUSH3 0xB0 DUP3 PUSH3 0x83 JUMP JUMPDEST SWAP1 POP SWAP2 SWAP1 POP JUMP JUMPDEST PUSH3 0xC2 DUP2 PUSH3 0xA3 JUMP JUMPDEST DUP2 EQ PUSH3 0xCE JUMPI PUSH1 0x0 DUP1 REVERT JUMPDEST POP JUMP JUMPDEST PUSH1 0x0 DUP2 MLOAD SWAP1 POP PUSH3 0xE2 DUP2 PUSH3 0xB7 JUMP JUMPDEST SWAP3 SWAP2 POP POP JUMP JUMPDEST PUSH1 0x0 PUSH1 0x20 DUP3 DUP5 SUB SLT ISZERO PUSH3 0x101 JUMPI PUSH3 0x100 PUSH3 0x7E JUMP JUMPDEST JUMPDEST PUSH1 0x0 PUSH3 0x111 DUP5 DUP3 DUP6 ADD PUSH3 0xD1 JUMP JUMPDEST SWAP2 POP POP SWAP3 SWAP2 POP POP JUMP JUMPDEST PUSH2 0xF6E DUP1 PUSH3 0x12A PUSH1 0x0 CODECOPY PUSH1 0x0 RETURN INVALID PUSH1 0x80 PUSH1 0x40 MSTORE CALLVALUE DUP1 ISZERO PUSH2 0x10 JUMPI PUSH1 0x0 DUP1 REVERT JUMPDEST POP PUSH1 0x4 CALLDATASIZE LT PUSH2 0x4C JUMPI PUSH1 0x0 CALLDATALOAD PUSH1 0xE0 SHR DUP1 PUSH4 0x37E44003 EQ PUSH2 0x51 JUMPI DUP1 PUSH4 0x74645FF3 EQ PUSH2 0x6D JUMPI DUP1 PUSH4 0xB5D1460B EQ PUSH2 0x8B JUMPI DUP1 PUSH4 0xE78CEA92 EQ PUSH2 0xA9 JUMPI JUMPDEST PUSH1 0x0 DUP1 REVERT JUMPDEST PUSH2 0x6B PUSH1 0x4 DUP1 CALLDATASIZE SUB DUP2 ADD SWAP1 PUSH2 0x66 SWAP2 SWAP1 PUSH2 0x363 JUMP JUMPDEST PUSH2 0xC7 JUMP JUMPDEST STOP JUMPDEST PUSH2 0x75 PUSH2 0x1C2 JUMP JUMPDEST PUSH1 0x40 MLOAD PUSH2 0x82 SWAP2 SWAP1 PUSH2 0x4A4 JUMP JUMPDEST PUSH1 0x40 MLOAD DUP1 SWAP2 SUB SWAP1 RETURN JUMPDEST PUSH2 0x93 PUSH2 0x250 JUMP JUMPDEST PUSH1 0x40 MLOAD PUSH2 0xA0 SWAP2 SWAP1 PUSH2 0x4DF JUMP JUMPDEST PUSH1 0x40 MLOAD DUP1 SWAP2 SUB SWAP1 RETURN JUMPDEST PUSH2 0xB1 PUSH2 0x256 JUMP JUMPDEST PUSH1 0x40 MLOAD PUSH2 0xBE SWAP2 SWAP1 PUSH2 0x579 JUMP JUMPDEST PUSH1 0x40 MLOAD DUP1 SWAP2 SUB SWAP1 RETURN JUMPDEST PUSH1 0x0 DUP1 SLOAD SWAP1 PUSH2 0x100 EXP SWAP1 DIV PUSH20 0xFFFFFFFFFFFFFFFFFFFFFFFFFFFFFFFFFFFFFFFF AND PUSH20 0xFFFFFFFFFFFFFFFFFFFFFFFFFFFFFFFFFFFFFFFF AND PUSH4 0x5121B26E DUP7 DUP7 DUP7 DUP7 DUP7 PUSH1 0x40 MLOAD DUP7 PUSH4 0xFFFFFFFF AND PUSH1 0xE0 SHL DUP2 MSTORE PUSH1 0x4 ADD PUSH2 0x128 SWAP6 SWAP5 SWAP4 SWAP3 SWAP2 SWAP1 PUSH2 0xADD JUMP JUMPDEST PUSH1 0x20 PUSH1 0x40 MLOAD DUP1 DUP4 SUB DUP2 DUP7 GAS STATICCALL ISZERO DUP1 ISZERO PUSH2 0x145 JUMPI RETURNDATASIZE PUSH1 0x0 DUP1 RETURNDATACOPY RETURNDATASIZE PUSH1 0x0 REVERT JUMPDEST POP POP POP POP PUSH1 0x40 MLOAD RETURNDATASIZE PUSH1 0x1F NOT PUSH1 0x1F DUP3 ADD AND DUP3 ADD DUP1 PUSH1 0x40 MSTORE POP DUP2 ADD SWAP1 PUSH2 0x169 SWAP2 SWAP1 PUSH2 0xB65 JUMP JUMPDEST PUSH2 0x172 JUMPI PUSH1 0x0 DUP1 REVERT JUMPDEST DUP5 DUP1 PUSH1 0x20 ADD SWAP1 PUSH2 0x182 SWAP2 SWAP1 PUSH2 0xBA1 JUMP JUMPDEST DUP1 PUSH1 0x0 ADD SWAP1 PUSH2 0x191 SWAP2 SWAP1 PUSH2 0xBC9 JUMP JUMPDEST PUSH1 0x1 SWAP2 DUP3 PUSH2 0x1A0 SWAP3 SWAP2 SWAP1 PUSH2 0xE68 JUMP JUMPDEST POP DUP5 DUP1 PUSH1 0x20 ADD SWAP1 PUSH2 0x1B1 SWAP2 SWAP1 PUSH2 0xBA1 JUMP JUMPDEST PUSH1 0x20 ADD CALLDATALOAD PUSH1 0x2 DUP2 SWAP1 SSTORE POP POP POP POP POP POP JUMP JUMPDEST PUSH1 0x1 DUP1 SLOAD PUSH2 0x1CF SWAP1 PUSH2 0xC95 JUMP JUMPDEST DUP1 PUSH1 0x1F ADD PUSH1 0x20 DUP1 SWAP2 DIV MUL PUSH1 0x20 ADD PUSH1 0x40 MLOAD SWAP1 DUP2 ADD PUSH1 0x40 MSTORE DUP1 SWAP3 SWAP2 SWAP1 DUP2 DUP2 MSTORE PUSH1 0x20 ADD DUP3 DUP1 SLOAD PUSH2 0x1FB SWAP1 PUSH2 0xC95 JUMP JUMPDEST DUP1 ISZERO PUSH2 0x248 JUMPI DUP1 PUSH1 0x1F LT PUSH2 0x21D JUMPI PUSH2 0x100 DUP1 DUP4 SLOAD DIV MUL DUP4 MSTORE SWAP2 PUSH1 0x20 ADD SWAP2 PUSH2 0x248 JUMP JUMPDEST DUP3 ADD SWAP2 SWAP1 PUSH1 0x0 MSTORE PUSH1 0x20 PUSH1 0x0 KECCAK256 SWAP1 JUMPDEST DUP2 SLOAD DUP2 MSTORE SWAP1 PUSH1 0x1 ADD SWAP1 PUSH1 0x20 ADD DUP1 DUP4 GT PUSH2 0x22B JUMPI DUP3 SWAP1 SUB PUSH1 0x1F AND DUP3 ADD SWAP2 JUMPDEST POP POP POP POP POP DUP2 JUMP JUMPDEST PUSH1 0x2 SLOAD DUP2 JUMP JUMPDEST PUSH1 0x0 DUP1 SLOAD SWAP1 PUSH2 0x100 EXP SWAP1 DIV PUSH20 0xFFFFFFFFFFFFFFFFFFFFFFFFFFFFFFFFFFFFFFFF AND DUP2 JUMP JUMPDEST PUSH1 0x0 DUP1 REVERT JUMPDEST PUSH1 0x0 DUP1 REVERT JUMPDEST PUSH1 0x0 DUP1 REVERT JUMPDEST PUSH1 0x0 PUSH1 0x60 DUP3 DUP5 SUB SLT ISZERO PUSH2 0x29F JUMPI PUSH2 0x29E PUSH2 0x284 JUMP JUMPDEST JUMPDEST DUP2 SWAP1 POP SWAP3 SWAP2 POP POP JUMP JUMPDEST PUSH1 0x0 DUP1 REVERT JUMPDEST PUSH1 0x0 DUP1 REVERT JUMPDEST PUSH1 0x0 DUP1 REVERT JUMPDEST PUSH1 0x0 DUP1 DUP4 PUSH1 0x1F DUP5 ADD SLT PUSH2 0x2CD JUMPI PUSH2 0x2CC PUSH2 0x2A8 JUMP JUMPDEST JUMPDEST DUP3 CALLDATALOAD SWAP1 POP PUSH8 0xFFFFFFFFFFFFFFFF DUP2 GT ISZERO PUSH2 0x2EA JUMPI PUSH2 0x2E9 PUSH2 0x2AD JUMP JUMPDEST JUMPDEST PUSH1 0x20 DUP4 ADD SWAP2 POP DUP4 PUSH1 0x40 DUP3 MUL DUP4 ADD GT ISZERO PUSH2 0x306 JUMPI PUSH2 0x305 PUSH2 0x2B2 JUMP JUMPDEST JUMPDEST SWAP3 POP SWAP3 SWAP1 POP JUMP JUMPDEST PUSH1 0x0 DUP1 DUP4 PUSH1 0x1F DUP5 ADD SLT PUSH2 0x323 JUMPI PUSH2 0x322 PUSH2 0x2A8 JUMP JUMPDEST JUMPDEST DUP3 CALLDATALOAD SWAP1 POP PUSH8 0xFFFFFFFFFFFFFFFF DUP2 GT ISZERO PUSH2 0x340 JUMPI PUSH2 0x33F PUSH2 0x2AD JUMP JUMPDEST JUMPDEST PUSH1 0x20 DUP4 ADD SWAP2 POP DUP4 PUSH1 0x60 DUP3 MUL DUP4 ADD GT ISZERO PUSH2 0x35C JUMPI PUSH2 0x35B PUSH2 0x2B2 JUMP JUMPDEST JUMPDEST SWAP3 POP SWAP3 SWAP1 POP JUMP JUMPDEST PUSH1 0x0 DUP1 PUSH1 0x0 DUP1 PUSH1 0x0 PUSH1 0x60 DUP7 DUP9 SUB SLT ISZERO PUSH2 0x37F JUMPI PUSH2 0x37E PUSH2 0x27A JUMP JUMPDEST JUMPDEST PUSH1 0x0 DUP7 ADD CALLDATALOAD PUSH8 0xFFFFFFFFFFFFFFFF DUP2 GT ISZERO PUSH2 0x39D JUMPI PUSH2 0x39C PUSH2 0x27F JUMP JUMPDEST JUMPDEST PUSH2 0x3A9 DUP9 DUP3 DUP10 ADD PUSH2 0x289 JUMP JUMPDEST SWAP6 POP POP PUSH1 0x20 DUP7 ADD CALLDATALOAD PUSH8 0xFFFFFFFFFFFFFFFF DUP2 GT ISZERO PUSH2 0x3CA JUMPI PUSH2 0x3C9 PUSH2 0x27F JUMP JUMPDEST JUMPDEST PUSH2 0x3D6 DUP9 DUP3 DUP10 ADD PUSH2 0x2B7 JUMP JUMPDEST SWAP5 POP SWAP5 POP POP PUSH1 0x40 DUP7 ADD CALLDATALOAD PUSH8 0xFFFFFFFFFFFFFFFF DUP2 GT ISZERO PUSH2 0x3F9 JUMPI PUSH2 0x3F8 PUSH2 0x27F JUMP JUMPDEST JUMPDEST PUSH2 0x405 DUP9 DUP3 DUP10 ADD PUSH2 0x30D JUMP JUMPDEST SWAP3 POP SWAP3 POP POP SWAP3 SWAP6 POP SWAP3 SWAP6 SWAP1 SWAP4 POP JUMP JUMPDEST PUSH1 0x0 DUP2 MLOAD SWAP1 POP SWAP2 SWAP1 POP JUMP JUMPDEST PUSH1 0x0 DUP3 DUP3 MSTORE PUSH1 0x20 DUP3 ADD SWAP1 POP SWAP3 SWAP2 POP POP JUMP JUMPDEST PUSH1 0x0 JUMPDEST DUP4 DUP2 LT ISZERO PUSH2 0x44E JUMPI DUP1 DUP3 ADD MLOAD DUP2 DUP5 ADD MSTORE PUSH1 0x20 DUP2 ADD SWAP1 POP PUSH2 0x433 JUMP JUMPDEST PUSH1 0x0 DUP5 DUP5 ADD MSTORE POP POP POP POP JUMP JUMPDEST PUSH1 0x0 PUSH1 0x1F NOT PUSH1 0x1F DUP4 ADD AND SWAP1 POP SWAP2 SWAP1 POP JUMP JUMPDEST PUSH1 0x0 PUSH2 0x476 DUP3 PUSH2 0x414 JUMP JUMPDEST PUSH2 0x480 DUP2 DUP6 PUSH2 0x41F JUMP JUMPDEST SWAP4 POP PUSH2 0x490 DUP2 DUP6 PUSH1 0x20 DUP7 ADD PUSH2 0x430 JUMP JUMPDEST PUSH2 0x499 DUP2 PUSH2 0x45A JUMP JUMPDEST DUP5 ADD SWAP2 POP POP SWAP3 SWAP2 POP POP JUMP JUMPDEST PUSH1 0x0 PUSH1 0x20 DUP3 ADD SWAP1 POP DUP2 DUP2 SUB PUSH1 0x0 DUP4 ADD MSTORE PUSH2 0x4BE DUP2 DUP5 PUSH2 0x46B JUMP JUMPDEST SWAP1 POP SWAP3 SWAP2 POP POP JUMP JUMPDEST PUSH1 0x0 DUP2 SWAP1 POP SWAP2 SWAP1 POP JUMP JUMPDEST PUSH2 0x4D9 DUP2 PUSH2 0x4C6 JUMP JUMPDEST DUP3 MSTORE POP POP JUMP JUMPDEST PUSH1 0x0 PUSH1 0x20 DUP3 ADD SWAP1 POP PUSH2 0x4F4 PUSH1 0x0 DUP4 ADD DUP5 PUSH2 0x4D0 JUMP JUMPDEST SWAP3 SWAP2 POP POP JUMP JUMPDEST PUSH1 0x0 PUSH20 0xFFFFFFFFFFFFFFFFFFFFFFFFFFFFFFFFFFFFFFFF DUP3 AND SWAP1 POP SWAP2 SWAP1 POP JUMP JUMPDEST PUSH1 0x0 DUP2 SWAP1 POP SWAP2 SWAP1 POP JUMP JUMPDEST PUSH1 0x0 PUSH2 0x53F PUSH2 0x53A PUSH2 0x535 DUP5 PUSH2 0x4FA JUMP JUMPDEST PUSH2 0x51A JUMP JUMPDEST PUSH2 0x4FA JUMP JUMPDEST SWAP1 POP SWAP2 SWAP1 POP JUMP JUMPDEST PUSH1 0x0 PUSH2 0x551 DUP3 PUSH2 0x524 JUMP JUMPDEST SWAP1 POP SWAP2 SWAP1 POP JUMP JUMPDEST PUSH1 0x0 PUSH2 0x563 DUP3 PUSH2 0x546 JUMP JUMPDEST SWAP1 POP SWAP2 SWAP1 POP JUMP JUMPDEST PUSH2 0x573 DUP2 PUSH2 0x558 JUMP JUMPDEST DUP3 MSTORE POP POP JUMP JUMPDEST PUSH1 0x0 PUSH1 0x20 DUP3 ADD SWAP1 POP PUSH2 0x58E PUSH1 0x0 DUP4 ADD DUP5 PUSH2 0x56A JUMP JUMPDEST SWAP3 SWAP2 POP POP JUMP JUMPDEST PUSH1 0x0 DUP2 SWAP1 POP SWAP2 SWAP1 POP JUMP JUMPDEST PUSH2 0x5A7 DUP2 PUSH2 0x594 JUMP JUMPDEST DUP2 EQ PUSH2 0x5B2 JUMPI PUSH1 0x0 DUP1 REVERT JUMPDEST POP JUMP JUMPDEST PUSH1 0x0 DUP2 CALLDATALOAD SWAP1 POP PUSH2 0x5C4 DUP2 PUSH2 0x59E JUMP JUMPDEST SWAP3 SWAP2 POP POP JUMP JUMPDEST PUSH1 0x0 PUSH2 0x5D9 PUSH1 0x20 DUP5 ADD DUP5 PUSH2 0x5B5 JUMP JUMPDEST SWAP1 POP SWAP3 SWAP2 POP POP JUMP JUMPDEST PUSH2 0x5EA DUP2 PUSH2 0x594 JUMP JUMPDEST DUP3 MSTORE POP POP JUMP JUMPDEST PUSH1 0x0 DUP1 REVERT JUMPDEST PUSH1 0x0 DUP3 CALLDATALOAD PUSH1 0x1 PUSH1 0xA0 SUB DUP4 CALLDATASIZE SUB SUB DUP2 SLT PUSH2 0x611 JUMPI PUSH2 0x610 PUSH2 0x5F0 JUMP JUMPDEST JUMPDEST DUP3 DUP2 ADD SWAP2 POP POP SWAP3 SWAP2 POP POP JUMP JUMPDEST PUSH1 0x0 DUP1 REVERT JUMPDEST PUSH1 0x0 DUP1 REVERT JUMPDEST PUSH1 0x0 DUP1 DUP4 CALLDATALOAD PUSH1 0x1 PUSH1 0x20 SUB DUP5 CALLDATASIZE SUB SUB DUP2 SLT PUSH2 0x644 JUMPI PUSH2 0x643 PUSH2 0x5F0 JUMP JUMPDEST JUMPDEST DUP4 DUP2 ADD SWAP3 POP DUP3 CALLDATALOAD SWAP2 POP PUSH1 0x20 DUP4 ADD SWAP3 POP PUSH8 0xFFFFFFFFFFFFFFFF DUP3 GT ISZERO PUSH2 0x66C JUMPI PUSH2 0x66B PUSH2 0x61D JUMP JUMPDEST JUMPDEST PUSH1 0x1 DUP3 MUL CALLDATASIZE SUB DUP4 SGT ISZERO PUSH2 0x682 JUMPI PUSH2 0x681 PUSH2 0x622 JUMP JUMPDEST JUMPDEST POP SWAP3 POP SWAP3 SWAP1 POP JUMP JUMPDEST PUSH1 0x0 DUP3 DUP3 MSTORE PUSH1 0x20 DUP3 ADD SWAP1 POP SWAP3 SWAP2 POP POP JUMP JUMPDEST DUP3 DUP2 DUP4 CALLDATACOPY PUSH1 0x0 DUP4 DUP4 ADD MSTORE POP POP POP JUMP JUMPDEST PUSH1 0x0 PUSH2 0x6B6 DUP4 DUP6 PUSH2 0x68A JUMP JUMPDEST SWAP4 POP PUSH2 0x6C3 DUP4 DUP6 DUP5 PUSH2 0x69B JUMP JUMPDEST PUSH2 0x6CC DUP4 PUSH2 0x45A JUMP JUMPDEST DUP5 ADD SWAP1 POP SWAP4 SWAP3 POP POP POP JUMP JUMPDEST PUSH2 0x6E0 DUP2 PUSH2 0x4C6 JUMP JUMPDEST DUP2 EQ PUSH2 0x6EB JUMPI PUSH1 0x0 DUP1 REVERT JUMPDEST POP JUMP JUMPDEST PUSH1 0x0 DUP2 CALLDATALOAD SWAP1 POP PUSH2 0x6FD DUP2 PUSH2 0x6D7 JUMP JUMPDEST SWAP3 SWAP2 POP POP JUMP JUMPDEST PUSH1 0x0 PUSH2 0x712 PUSH1 0x20 DUP5 ADD DUP5 PUSH2 0x6EE JUMP JUMPDEST SWAP1 POP SWAP3 SWAP2 POP POP JUMP JUMPDEST PUSH2 0x723 DUP2 PUSH2 0x4C6 JUMP JUMPDEST DUP3 MSTORE POP POP JUMP JUMPDEST PUSH1 0x0 PUSH1 0xA0 DUP4 ADD PUSH2 0x73C PUSH1 0x0 DUP5 ADD DUP5 PUSH2 0x627 JUMP JUMPDEST DUP6 DUP4 SUB PUSH1 0x0 DUP8 ADD MSTORE PUSH2 0x74F DUP4 DUP3 DUP5 PUSH2 0x6AA JUMP JUMPDEST SWAP3 POP POP POP PUSH2 0x760 PUSH1 0x20 DUP5 ADD DUP5 PUSH2 0x703 JUMP JUMPDEST PUSH2 0x76D PUSH1 0x20 DUP7 ADD DUP3 PUSH2 0x71A JUMP JUMPDEST POP PUSH2 0x77B PUSH1 0x40 DUP5 ADD DUP5 PUSH2 0x703 JUMP JUMPDEST PUSH2 0x788 PUSH1 0x40 DUP7 ADD DUP3 PUSH2 0x71A JUMP JUMPDEST POP PUSH2 0x796 PUSH1 0x60 DUP5 ADD DUP5 PUSH2 0x703 JUMP JUMPDEST PUSH2 0x7A3 PUSH1 0x60 DUP7 ADD DUP3 PUSH2 0x71A JUMP JUMPDEST POP PUSH2 0x7B1 PUSH1 0x80 DUP5 ADD DUP5 PUSH2 0x703 JUMP JUMPDEST PUSH2 0x7BE PUSH1 0x80 DUP7 ADD DUP3 PUSH2 0x71A JUMP JUMPDEST POP DUP1 SWAP2 POP POP SWAP3 SWAP2 POP POP JUMP JUMPDEST PUSH1 0x0 PUSH1 0x60 DUP4 ADD PUSH2 0x7DC PUSH1 0x0 DUP5 ADD DUP5 PUSH2 0x5CA JUMP JUMPDEST PUSH2 0x7E9 PUSH1 0x0 DUP7 ADD DUP3 PUSH2 0x5E1 JUMP JUMPDEST POP PUSH2 0x7F7 PUSH1 0x20 DUP5 ADD DUP5 PUSH2 0x5F5 JUMP JUMPDEST DUP5 DUP3 SUB PUSH1 0x20 DUP7 ADD MSTORE PUSH2 0x809 DUP3 DUP3 PUSH2 0x729 JUMP JUMPDEST SWAP2 POP POP PUSH2 0x819 PUSH1 0x40 DUP5 ADD DUP5 PUSH2 0x703 JUMP JUMPDEST PUSH2 0x826 PUSH1 0x40 DUP7 ADD DUP3 PUSH2 0x71A JUMP JUMPDEST POP DUP1 SWAP2 POP POP SWAP3 SWAP2 POP POP JUMP JUMPDEST PUSH1 0x0 DUP3 DUP3 MSTORE PUSH1 0x20 DUP3 ADD SWAP1 POP SWAP3 SWAP2 POP POP JUMP JUMPDEST PUSH1 0x0 DUP2 SWAP1 POP SWAP2 SWAP1 POP JUMP JUMPDEST PUSH1 0x0 PUSH2 0x857 DUP3 PUSH2 0x4FA JUMP JUMPDEST SWAP1 POP SWAP2 SWAP1 POP JUMP JUMPDEST PUSH2 0x867 DUP2 PUSH2 0x84C JUMP JUMPDEST DUP2 EQ PUSH2 0x872 JUMPI PUSH1 0x0 DUP1 REVERT JUMPDEST POP JUMP JUMPDEST PUSH1 0x0 DUP2 CALLDATALOAD SWAP1 POP PUSH2 0x884 DUP2 PUSH2 0x85E JUMP JUMPDEST SWAP3 SWAP2 POP POP JUMP JUMPDEST PUSH1 0x0 PUSH2 0x899 PUSH1 0x20 DUP5 ADD DUP5 PUSH2 0x875 JUMP JUMPDEST SWAP1 POP SWAP3 SWAP2 POP POP JUMP JUMPDEST PUSH2 0x8AA DUP2 PUSH2 0x84C JUMP JUMPDEST DUP3 MSTORE POP POP JUMP JUMPDEST PUSH1 0x40 DUP3 ADD PUSH2 0x8C1 PUSH1 0x0 DUP4 ADD DUP4 PUSH2 0x88A JUMP JUMPDEST PUSH2 0x8CE PUSH1 0x0 DUP6 ADD DUP3 PUSH2 0x8A1 JUMP JUMPDEST POP PUSH2 0x8DC PUSH1 0x20 DUP4 ADD DUP4 PUSH2 0x703 JUMP JUMPDEST PUSH2 0x8E9 PUSH1 0x20 DUP6 ADD DUP3 PUSH2 0x71A JUMP JUMPDEST POP POP POP POP JUMP JUMPDEST PUSH1 0x0 PUSH2 0x8FB DUP4 DUP4 PUSH2 0x8B0 JUMP JUMPDEST PUSH1 0x40 DUP4 ADD SWAP1 POP SWAP3 SWAP2 POP POP JUMP JUMPDEST PUSH1 0x0 DUP3 SWAP1 POP SWAP3 SWAP2 POP POP JUMP JUMPDEST PUSH1 0x0 PUSH1 0x40 DUP3 ADD SWAP1 POP SWAP2 SWAP1 POP JUMP JUMPDEST PUSH1 0x0 PUSH2 0x92B DUP4 DUP6 PUSH2 0x831 JUMP JUMPDEST SWAP4 POP PUSH2 0x936 DUP3 PUSH2 0x842 JUMP JUMPDEST DUP1 PUSH1 0x0 JUMPDEST DUP6 DUP2 LT ISZERO PUSH2 0x96F JUMPI PUSH2 0x94C DUP3 DUP5 PUSH2 0x907 JUMP JUMPDEST PUSH2 0x956 DUP9 DUP3 PUSH2 0x8EF JUMP JUMPDEST SWAP8 POP PUSH2 0x961 DUP4 PUSH2 0x912 JUMP JUMPDEST SWAP3 POP POP PUSH1 0x1 DUP2 ADD SWAP1 POP PUSH2 0x93A JUMP JUMPDEST POP DUP6 SWAP3 POP POP POP SWAP4 SWAP3 POP POP POP JUMP JUMPDEST PUSH1 0x0 DUP3 DUP3 MSTORE PUSH1 0x20 DUP3 ADD SWAP1 POP SWAP3 SWAP2 POP POP JUMP JUMPDEST PUSH1 0x0 DUP2 SWAP1 POP SWAP2 SWAP1 POP JUMP JUMPDEST PUSH1 0x0 PUSH1 0xFF DUP3 AND SWAP1 POP SWAP2 SWAP1 POP JUMP JUMPDEST PUSH2 0x9AD DUP2 PUSH2 0x997 JUMP JUMPDEST DUP2 EQ PUSH2 0x9B8 JUMPI PUSH1 0x0 DUP1 REVERT JUMPDEST POP JUMP JUMPDEST PUSH1 0x0 DUP2 CALLDATALOAD SWAP1 POP PUSH2 0x9CA DUP2 PUSH2 0x9A4 JUMP JUMPDEST SWAP3 SWAP2 POP POP JUMP JUMPDEST PUSH1 0x0 PUSH2 0x9DF PUSH1 0x20 DUP5 ADD DUP5 PUSH2 0x9BB JUMP JUMPDEST SWAP1 POP SWAP3 SWAP2 POP POP JUMP JUMPDEST PUSH2 0x9F0 DUP2 PUSH2 0x997 JUMP JUMPDEST DUP3 MSTORE POP POP JUMP JUMPDEST PUSH1 0x60 DUP3 ADD PUSH2 0xA07 PUSH1 0x0 DUP4 ADD DUP4 PUSH2 0x9D0 JUMP JUMPDEST PUSH2 0xA14 PUSH1 0x0 DUP6 ADD DUP3 PUSH2 0x9E7 JUMP JUMPDEST POP PUSH2 0xA22 PUSH1 0x20 DUP4 ADD DUP4 PUSH2 0x5CA JUMP JUMPDEST PUSH2 0xA2F PUSH1 0x20 DUP6 ADD DUP3 PUSH2 0x5E1 JUMP JUMPDEST POP PUSH2 0xA3D PUSH1 0x40 DUP4 ADD DUP4 PUSH2 0x5CA JUMP JUMPDEST PUSH2 0xA4A PUSH1 0x40 DUP6 ADD DUP3 PUSH2 0x5E1 JUMP JUMPDEST POP POP POP POP JUMP JUMPDEST PUSH1 0x0 PUSH2 0xA5C DUP4 DUP4 PUSH2 0x9F6 JUMP JUMPDEST PUSH1 0x60 DUP4 ADD SWAP1 POP SWAP3 SWAP2 POP POP JUMP JUMPDEST PUSH1 0x0 DUP3 SWAP1 POP SWAP3 SWAP2 POP POP JUMP JUMPDEST PUSH1 0x0 PUSH1 0x60 DUP3 ADD SWAP1 POP SWAP2 SWAP1 POP JUMP JUMPDEST PUSH1 0x0 PUSH2 0xA8C DUP4 DUP6 PUSH2 0x97C JUMP JUMPDEST SWAP4 POP PUSH2 0xA97 DUP3 PUSH2 0x98D JUMP JUMPDEST DUP1 PUSH1 0x0 JUMPDEST DUP6 DUP2 LT ISZERO PUSH2 0xAD0 JUMPI PUSH2 0xAAD DUP3 DUP5 PUSH2 0xA68 JUMP JUMPDEST PUSH2 0xAB7 DUP9 DUP3 PUSH2 0xA50 JUMP JUMPDEST SWAP8 POP PUSH2 0xAC2 DUP4 PUSH2 0xA73 JUMP JUMPDEST SWAP3 POP POP PUSH1 0x1 DUP2 ADD SWAP1 POP PUSH2 0xA9B JUMP JUMPDEST POP DUP6 SWAP3 POP POP POP SWAP4 SWAP3 POP POP POP JUMP JUMPDEST PUSH1 0x0 PUSH1 0x60 DUP3 ADD SWAP1 POP DUP2 DUP2 SUB PUSH1 0x0 DUP4 ADD MSTORE PUSH2 0xAF7 DUP2 DUP9 PUSH2 0x7C9 JUMP JUMPDEST SWAP1 POP DUP2 DUP2 SUB PUSH1 0x20 DUP4 ADD MSTORE PUSH2 0xB0C DUP2 DUP7 DUP9 PUSH2 0x91F JUMP JUMPDEST SWAP1 POP DUP2 DUP2 SUB PUSH1 0x40 DUP4 ADD MSTORE PUSH2 0xB21 DUP2 DUP5 DUP7 PUSH2 0xA80 JUMP JUMPDEST SWAP1 POP SWAP7 SWAP6 POP POP POP POP POP POP JUMP JUMPDEST PUSH1 0x0 DUP2 ISZERO ISZERO SWAP1 POP SWAP2 SWAP1 POP JUMP JUMPDEST PUSH2 0xB42 DUP2 PUSH2 0xB2D JUMP JUMPDEST DUP2 EQ PUSH2 0xB4D JUMPI PUSH1 0x0 DUP1 REVERT JUMPDEST POP JUMP JUMPDEST PUSH1 0x0 DUP2 MLOAD SWAP1 POP PUSH2 0xB5F DUP2 PUSH2 0xB39 JUMP JUMPDEST SWAP3 SWAP2 POP POP JUMP JUMPDEST PUSH1 0x0 PUSH1 0x20 DUP3 DUP5 SUB SLT ISZERO PUSH2 0xB7B JUMPI PUSH2 0xB7A PUSH2 0x27A JUMP JUMPDEST JUMPDEST PUSH1 0x0 PUSH2 0xB89 DUP5 DUP3 DUP6 ADD PUSH2 0xB50 JUMP JUMPDEST SWAP2 POP POP SWAP3 SWAP2 POP POP JUMP JUMPDEST PUSH1 0x0 DUP1 REVERT JUMPDEST PUSH1 0x0 DUP1 REVERT JUMPDEST PUSH1 0x0 DUP1 REVERT JUMPDEST PUSH1 0x0 DUP3 CALLDATALOAD PUSH1 0x1 PUSH1 0xA0 SUB DUP4 CALLDATASIZE SUB SUB DUP2 SLT PUSH2 0xBBD JUMPI PUSH2 0xBBC PUSH2 0xB92 JUMP JUMPDEST JUMPDEST DUP1 DUP4 ADD SWAP2 POP POP SWAP3 SWAP2 POP POP JUMP JUMPDEST PUSH1 0x0 DUP1 DUP4 CALLDATALOAD PUSH1 0x1 PUSH1 0x20 SUB DUP5 CALLDATASIZE SUB SUB DUP2 SLT PUSH2 0xBE6 JUMPI PUSH2 0xBE5 PUSH2 0xB92 JUMP JUMPDEST JUMPDEST DUP1 DUP5 ADD SWAP3 POP DUP3 CALLDATALOAD SWAP2 POP PUSH8 0xFFFFFFFFFFFFFFFF DUP3 GT ISZERO PUSH2 0xC08 JUMPI PUSH2 0xC07 PUSH2 0xB97 JUMP JUMPDEST JUMPDEST PUSH1 0x20 DUP4 ADD SWAP3 POP PUSH1 0x1 DUP3 MUL CALLDATASIZE SUB DUP4 SGT ISZERO PUSH2 0xC24 JUMPI PUSH2 0xC23 PUSH2 0xB9C JUMP JUMPDEST JUMPDEST POP SWAP3 POP SWAP3 SWAP1 POP JUMP JUMPDEST PUSH1 0x0 DUP3 SWAP1 POP SWAP3 SWAP2 POP POP JUMP JUMPDEST PUSH32 0x4E487B7100000000000000000000000000000000000000000000000000000000 PUSH1 0x0 MSTORE PUSH1 0x41 PUSH1 0x4 MSTORE PUSH1 0x24 PUSH1 0x0 REVERT JUMPDEST PUSH32 0x4E487B7100000000000000000000000000000000000000000000000000000000 PUSH1 0x0 MSTORE PUSH1 0x22 PUSH1 0x4 MSTORE PUSH1 0x24 PUSH1 0x0 REVERT JUMPDEST PUSH1 0x0 PUSH1 0x2 DUP3 DIV SWAP1 POP PUSH1 0x1 DUP3 AND DUP1 PUSH2 0xCAD JUMPI PUSH1 0x7F DUP3 AND SWAP2 POP JUMPDEST PUSH1 0x20 DUP3 LT DUP2 SUB PUSH2 0xCC0 JUMPI PUSH2 0xCBF PUSH2 0xC66 JUMP JUMPDEST JUMPDEST POP SWAP2 SWAP1 POP JUMP JUMPDEST PUSH1 0x0 DUP2 SWAP1 POP DUP2 PUSH1 0x0 MSTORE PUSH1 0x20 PUSH1 0x0 KECCAK256 SWAP1 POP SWAP2 SWAP1 POP JUMP JUMPDEST PUSH1 0x0 PUSH1 0x20 PUSH1 0x1F DUP4 ADD DIV SWAP1 POP SWAP2 SWAP1 POP JUMP JUMPDEST PUSH1 0x0 DUP3 DUP3 SHL SWAP1 POP SWAP3 SWAP2 POP POP JUMP JUMPDEST PUSH1 0x0 PUSH1 0x8 DUP4 MUL PUSH2 0xD28 PUSH32 0xFFFFFFFFFFFFFFFFFFFFFFFFFFFFFFFFFFFFFFFFFFFFFFFFFFFFFFFFFFFFFFFF DUP3 PUSH2 0xCEB JUMP JUMPDEST PUSH2 0xD32 DUP7 DUP4 PUSH2 0xCEB JUMP JUMPDEST SWAP6 POP DUP1 NOT DUP5 AND SWAP4 POP DUP1 DUP7 AND DUP5 OR SWAP3 POP POP POP SWAP4 SWAP3 POP POP POP JUMP JUMPDEST PUSH1 0x0 PUSH2 0xD65 PUSH2 0xD60 PUSH2 0xD5B DUP5 PUSH2 0x4C6 JUMP JUMPDEST PUSH2 0x51A JUMP JUMPDEST PUSH2 0x4C6 JUMP JUMPDEST SWAP1 POP SWAP2 SWAP1 POP JUMP JUMPDEST PUSH1 0x0 DUP2 SWAP1 POP SWAP2 SWAP1 POP JUMP JUMPDEST PUSH2 0xD7F DUP4 PUSH2 0xD4A JUMP JUMPDEST PUSH2 0xD93 PUSH2 0xD8B DUP3 PUSH2 0xD6C JUMP JUMPDEST DUP5 DUP5 SLOAD PUSH2 0xCF8 JUMP JUMPDEST DUP3 SSTORE POP POP POP POP JUMP JUMPDEST PUSH1 0x0 SWAP1 JUMP JUMPDEST PUSH2 0xDA8 PUSH2 0xD9B JUMP JUMPDEST PUSH2 0xDB3 DUP2 DUP5 DUP5 PUSH2 0xD76 JUMP JUMPDEST POP POP POP JUMP JUMPDEST JUMPDEST DUP2 DUP2 LT ISZERO PUSH2 0xDD7 JUMPI PUSH2 0xDCC PUSH1 0x0 DUP3 PUSH2 0xDA0 JUMP JUMPDEST PUSH1 0x1 DUP2 ADD SWAP1 POP PUSH2 0xDB9 JUMP JUMPDEST POP POP JUMP JUMPDEST PUSH1 0x1F DUP3 GT ISZERO PUSH2 0xE1C JUMPI PUSH2 0xDED DUP2 PUSH2 0xCC6 JUMP JUMPDEST PUSH2 0xDF6 DUP5 PUSH2 0xCDB JUMP JUMPDEST DUP2 ADD PUSH1 0x20 DUP6 LT ISZERO PUSH2 0xE05 JUMPI DUP2 SWAP1 POP JUMPDEST PUSH2 0xE19 PUSH2 0xE11 DUP6 PUSH2 0xCDB JUMP JUMPDEST DUP4 ADD DUP3 PUSH2 0xDB8 JUMP JUMPDEST POP POP JUMPDEST POP POP POP JUMP JUMPDEST PUSH1 0x0 DUP3 DUP3 SHR SWAP1 POP SWAP3 SWAP2 POP POP JUMP JUMPDEST PUSH1 0x0 PUSH2 0xE3F PUSH1 0x0 NOT DUP5 PUSH1 0x8 MUL PUSH2 0xE21 JUMP JUMPDEST NOT DUP1 DUP4 AND SWAP2 POP POP SWAP3 SWAP2 POP POP JUMP JUMPDEST PUSH1 0x0 PUSH2 0xE58 DUP4 DUP4 PUSH2 0xE2E JUMP JUMPDEST SWAP2 POP DUP3 PUSH1 0x2 MUL DUP3 OR SWAP1 POP SWAP3 SWAP2 POP POP JUMP JUMPDEST PUSH2 0xE72 DUP4 DUP4 PUSH2 0xC2C JUMP JUMPDEST PUSH8 0xFFFFFFFFFFFFFFFF DUP2 GT ISZERO PUSH2 0xE8B JUMPI PUSH2 0xE8A PUSH2 0xC37 JUMP JUMPDEST JUMPDEST PUSH2 0xE95 DUP3 SLOAD PUSH2 0xC95 JUMP JUMPDEST PUSH2 0xEA0 DUP3 DUP3 DUP6 PUSH2 0xDDB JUMP JUMPDEST PUSH1 0x0 PUSH1 0x1F DUP4 GT PUSH1 0x1 DUP2 EQ PUSH2 0xECF JUMPI PUSH1 0x0 DUP5 ISZERO PUSH2 0xEBD JUMPI DUP3 DUP8 ADD CALLDATALOAD SWAP1 POP JUMPDEST PUSH2 0xEC7 DUP6 DUP3 PUSH2 0xE4C JUMP JUMPDEST DUP7 SSTORE POP PUSH2 0xF2F JUMP JUMPDEST PUSH1 0x1F NOT DUP5 AND PUSH2 0xEDD DUP7 PUSH2 0xCC6 JUMP JUMPDEST PUSH1 0x0 JUMPDEST DUP3 DUP2 LT ISZERO PUSH2 0xF05 JUMPI DUP5 DUP10 ADD CALLDATALOAD DUP3 SSTORE PUSH1 0x1 DUP3 ADD SWAP2 POP PUSH1 0x20 DUP6 ADD SWAP5 POP PUSH1 0x20 DUP2 ADD SWAP1 POP PUSH2 0xEE0 JUMP JUMPDEST DUP7 DUP4 LT ISZERO PUSH2 0xF22 JUMPI DUP5 DUP10 ADD CALLDATALOAD PUSH2 0xF1E PUSH1 0x1F DUP10 AND DUP3 PUSH2 0xE2E JUMP JUMPDEST DUP4 SSTORE POP JUMPDEST PUSH1 0x1 PUSH1 0x2 DUP9 MUL ADD DUP9 SSTORE POP POP POP JUMPDEST POP POP POP POP POP POP POP JUMP INVALID LOG2 PUSH5 0x6970667358 0x22 SLT KECCAK256 SWAP15 SWAP6 0xD JUMP 0xE7 ORIGIN SWAP14 MUL GASPRICE NUMBER 0x23 EXTCODEHASH 0xCD 0xB5 0xAB SWAP15 0xB5 BALANCE 0x28 0x4C 0xDD DUP7 PUSH14 0x2EF98B15C8E1059C3E64736F6C63 NUMBER STOP ADDMOD AND STOP CALLER "},"methodIdentifiers":{"bridge()":"e78cea92","oracleData()":"74645ff3","oracleDataTimestamp()":"b5d1460b","verifyAndSaveOracleData((bytes32,(bytes,uint256,uint256,uint256,uint256),uint256),(address,uint256)[],(uint8,bytes32,bytes32)[])":"37e44003"}}}}}