{"contracts/usingtellor/UsingTellor.sol":{"UsingTellor":{"abi":[{"inputs":[{"internalType":"address","name":"_blobstreamO","type":"address"}],"stateMutability":"nonpayable","type":"constructor"},{"inputs":[],"name":"MAX_ATTESTATION_AGE","outputs":[{"internalType":"uint256","name":"","type":"uint256"}],"stateMutability":"view","type":"function"},{"inputs":[],"name":"bridge","outputs":[{"internalType":"contract BlobstreamO","name":"","type":"address"}],"stateMutability":"view","type":"function"},{"inputs":[{"components":[{"internalType":"bytes32","name":"queryId","type":"bytes32"},{"components":[{"internalType":"bytes","name":"value","type":"bytes"},{"internalType":"uint256","name":"timestamp","type":"uint256"},{"internalType":"uint256","name":"aggregatePower","type":"uint256"},{"internalType":"uint256","name":"previousTimestamp","type":"uint256"},{"internalType":"uint256","name":"nextTimestamp","type":"uint256"}],"internalType":"struct ReportData","name":"report","type":"tuple"},{"internalType":"uint256","name":"attestTimestamp","type":"uint256"}],"internalType":"struct OracleAttestationData","name":"_attest","type":"tuple"},{"components":[{"internalType":"address","name":"addr","type":"address"},{"internalType":"uint256","name":"power","type":"uint256"}],"internalType":"struct Validator[]","name":"_currentValidatorSet","type":"tuple[]"},{"components":[{"internalType":"uint8","name":"v","type":"uint8"},{"internalType":"bytes32","name":"r","type":"bytes32"},{"internalType":"bytes32","name":"s","type":"bytes32"}],"internalType":"struct Signature[]","name":"_sigs","type":"tuple[]"}],"name":"getCurrentConsensusValue","outputs":[{"internalType":"bool","name":"","type":"bool"}],"stateMutability":"view","type":"function"},{"inputs":[{"components":[{"internalType":"bytes32","name":"queryId","type":"bytes32"},{"components":[{"internalType":"bytes","name":"value","type":"bytes"},{"internalType":"uint256","name":"timestamp","type":"uint256"},{"internalType":"uint256","name":"aggregatePower","type":"uint256"},{"internalType":"uint256","name":"previousTimestamp","type":"uint256"},{"internalType":"uint256","name":"nextTimestamp","type":"uint256"}],"internalType":"struct ReportData","name":"report","type":"tuple"},{"internalType":"uint256","name":"attestTimestamp","type":"uint256"}],"internalType":"struct OracleAttestationData","name":"_attest","type":"tuple"},{"components":[{"internalType":"address","name":"addr","type":"address"},{"internalType":"uint256","name":"power","type":"uint256"}],"internalType":"struct Validator[]","name":"_currentValidatorSet","type":"tuple[]"},{"components":[{"internalType":"uint8","name":"v","type":"uint8"},{"internalType":"bytes32","name":"r","type":"bytes32"},{"internalType":"bytes32","name":"s","type":"bytes32"}],"internalType":"struct Signature[]","name":"_sigs","type":"tuple[]"},{"internalType":"uint256","name":"_timestamp","type":"uint256"},{"internalType":"uint256","name":"_minimumPower","type":"uint256"}],"name":"getDataAfter","outputs":[{"internalType":"bool","name":"","type":"bool"}],"stateMutability":"view","type":"function"},{"inputs":[{"components":[{"internalType":"bytes32","name":"queryId","type":"bytes32"},{"components":[{"internalType":"bytes","name":"value","type":"bytes"},{"internalType":"uint256","name":"timestamp","type":"uint256"},{"internalType":"uint256","name":"aggregatePower","type":"uint256"},{"internalType":"uint256","name":"previousTimestamp","type":"uint256"},{"internalType":"uint256","name":"nextTimestamp","type":"uint256"}],"internalType":"struct ReportData","name":"report","type":"tuple"},{"internalType":"uint256","name":"attestTimestamp","type":"uint256"}],"internalType":"struct OracleAttestationData","name":"_attest","type":"tuple"},{"components":[{"internalType":"address","name":"addr","type":"address"},{"internalType":"uint256","name":"power","type":"uint256"}],"internalType":"struct Validator[]","name":"_currentValidatorSet","type":"tuple[]"},{"components":[{"internalType":"uint8","name":"v","type":"uint8"},{"internalType":"bytes32","name":"r","type":"bytes32"},{"internalType":"bytes32","name":"s","type":"bytes32"}],"internalType":"struct Signature[]","name":"_sigs","type":"tuple[]"},{"internalType":"uint256","name":"_timestamp","type":"uint256"},{"internalType":"uint256","name":"_minimumPower","type":"uint256"}],"name":"getDataBefore","outputs":[{"internalType":"bool","name":"","type":"bool"}],"stateMutability":"view","type":"function"},{"inputs":[],"name":"lastViewedBlockTimestamp","outputs":[{"internalType":"uint256","name":"","type":"uint256"}],"stateMutability":"view","type":"function"}],"evm":{"bytecode":{"linkReferences":{},"object":"60806040523480156200001157600080fd5b506040516200177e3803806200177e8339818101604052810190620000379190620000e8565b806000806101000a81548173ffffffffffffffffffffffffffffffffffffffff021916908373ffffffffffffffffffffffffffffffffffffffff160217905550506200011a565b600080fd5b600073ffffffffffffffffffffffffffffffffffffffff82169050919050565b6000620000b08262000083565b9050919050565b620000c281620000a3565b8114620000ce57600080fd5b50565b600081519050620000e281620000b7565b92915050565b6000602082840312156200010157620001006200007e565b5b60006200011184828501620000d1565b91505092915050565b611654806200012a6000396000f3fe608060405234801561001057600080fd5b50600436106100625760003560e01c80631179804b146100675780634085ef6b146100855780634d4e26fa146100b557806378d05149146100e5578063b9f7bb8d14610115578063e78cea9214610133575b600080fd5b61006f610151565b60405161007c91906107ff565b60405180910390f35b61009f600480360381019061009a919061092f565b610157565b6040516100ac9190610a22565b60405180910390f35b6100cf60048036038101906100ca919061092f565b6103bc565b6040516100dc9190610a22565b60405180910390f35b6100ff60048036038101906100fa9190610a3d565b610621565b60405161010c9190610a22565b60405180910390f35b61011d6107bc565b60405161012a91906107ff565b60405180910390f35b61013b6107c2565b6040516101489190610b6d565b60405180910390f35b60015481565b60008060009054906101000a900473ffffffffffffffffffffffffffffffffffffffff1673ffffffffffffffffffffffffffffffffffffffff16635121b26e89898989896040518663ffffffff1660e01b81526004016101bb9594939291906110b6565b602060405180830381865afa1580156101d8573d6000803e3d6000fd5b505050506040513d601f19601f820116820180604052508101906101fc9190611132565b61023b576040517f08c379a0000000000000000000000000000000000000000000000000000000008152600401610232906111bc565b60405180910390fd5b61012c88604001354261024e919061120b565b111561028f576040517f08c379a00000000000000000000000000000000000000000000000000000000081526004016102869061128b565b60405180910390fd5b828880602001906102a091906112b0565b60200135106102e4576040517f08c379a00000000000000000000000000000000000000000000000000000000081526004016102db9061134a565b60405180910390fd5b60008880602001906102f691906112b0565b60800135148061031857508288806020019061031291906112b0565b60800135115b610357576040517f08c379a000000000000000000000000000000000000000000000000000000000815260040161034e906113dc565b60405180910390fd5b8188806020019061036891906112b0565b6040013510156103ad576040517f08c379a00000000000000000000000000000000000000000000000000000000081526004016103a490611494565b60405180910390fd5b60019050979650505050505050565b60008060009054906101000a900473ffffffffffffffffffffffffffffffffffffffff1673ffffffffffffffffffffffffffffffffffffffff16635121b26e89898989896040518663ffffffff1660e01b81526004016104209594939291906110b6565b602060405180830381865afa15801561043d573d6000803e3d6000fd5b505050506040513d601f19601f820116820180604052508101906104619190611132565b6104a0576040517f08c379a0000000000000000000000000000000000000000000000000000000008152600401610497906111bc565b60405180910390fd5b61012c8860400135426104b3919061120b565b11156104f4576040517f08c379a00000000000000000000000000000000000000000000000000000000081526004016104eb9061128b565b60405180910390fd5b8288806020019061050591906112b0565b6020013511610549576040517f08c379a000000000000000000000000000000000000000000000000000000000815260040161054090611526565b60405180910390fd5b600088806020019061055b91906112b0565b60800135148061057d57508288806020019061057791906112b0565b60800135115b6105bc576040517f08c379a00000000000000000000000000000000000000000000000000000000081526004016105b3906113dc565b60405180910390fd5b818880602001906105cd91906112b0565b604001351015610612576040517f08c379a000000000000000000000000000000000000000000000000000000000815260040161060990611494565b60405180910390fd5b60019050979650505050505050565b60008060009054906101000a900473ffffffffffffffffffffffffffffffffffffffff1673ffffffffffffffffffffffffffffffffffffffff1663c312b38087878787876040518663ffffffff1660e01b81526004016106859594939291906110b6565b602060405180830381865afa1580156106a2573d6000803e3d6000fd5b505050506040513d601f19601f820116820180604052508101906106c69190611132565b610705576040517f08c379a00000000000000000000000000000000000000000000000000000000081526004016106fc90611592565b60405180910390fd5b61012c866040013542610718919061120b565b1115610759576040517f08c379a00000000000000000000000000000000000000000000000000000000081526004016107509061128b565b60405180910390fd5b600086806020019061076b91906112b0565b60800135146107af576040517f08c379a00000000000000000000000000000000000000000000000000000000081526004016107a6906115fe565b60405180910390fd5b6001905095945050505050565b61012c81565b60008054906101000a900473ffffffffffffffffffffffffffffffffffffffff1681565b6000819050919050565b6107f9816107e6565b82525050565b600060208201905061081460008301846107f0565b92915050565b600080fd5b600080fd5b600080fd5b60006060828403121561083f5761083e610824565b5b81905092915050565b600080fd5b600080fd5b600080fd5b60008083601f84011261086d5761086c610848565b5b8235905067ffffffffffffffff81111561088a5761088961084d565b5b6020830191508360408202830111156108a6576108a5610852565b5b9250929050565b60008083601f8401126108c3576108c2610848565b5b8235905067ffffffffffffffff8111156108e0576108df61084d565b5b6020830191508360608202830111156108fc576108fb610852565b5b9250929050565b61090c816107e6565b811461091757600080fd5b50565b60008135905061092981610903565b92915050565b600080600080600080600060a0888a03121561094e5761094d61081a565b5b600088013567ffffffffffffffff81111561096c5761096b61081f565b5b6109788a828b01610829565b975050602088013567ffffffffffffffff8111156109995761099861081f565b5b6109a58a828b01610857565b9650965050604088013567ffffffffffffffff8111156109c8576109c761081f565b5b6109d48a828b016108ad565b945094505060606109e78a828b0161091a565b92505060806109f88a828b0161091a565b91505092959891949750929550565b60008115159050919050565b610a1c81610a07565b82525050565b6000602082019050610a376000830184610a13565b92915050565b600080600080600060608688031215610a5957610a5861081a565b5b600086013567ffffffffffffffff811115610a7757610a7661081f565b5b610a8388828901610829565b955050602086013567ffffffffffffffff811115610aa457610aa361081f565b5b610ab088828901610857565b9450945050604086013567ffffffffffffffff811115610ad357610ad261081f565b5b610adf888289016108ad565b92509250509295509295909350565b600073ffffffffffffffffffffffffffffffffffffffff82169050919050565b6000819050919050565b6000610b33610b2e610b2984610aee565b610b0e565b610aee565b9050919050565b6000610b4582610b18565b9050919050565b6000610b5782610b3a565b9050919050565b610b6781610b4c565b82525050565b6000602082019050610b826000830184610b5e565b92915050565b6000819050919050565b610b9b81610b88565b8114610ba657600080fd5b50565b600081359050610bb881610b92565b92915050565b6000610bcd6020840184610ba9565b905092915050565b610bde81610b88565b82525050565b600080fd5b60008235600160a003833603038112610c0557610c04610be4565b5b82810191505092915050565b600080fd5b600080fd5b60008083356001602003843603038112610c3857610c37610be4565b5b83810192508235915060208301925067ffffffffffffffff821115610c6057610c5f610c11565b5b600182023603831315610c7657610c75610c16565b5b509250929050565b600082825260208201905092915050565b82818337600083830152505050565b6000601f19601f8301169050919050565b6000610cbb8385610c7e565b9350610cc8838584610c8f565b610cd183610c9e565b840190509392505050565b6000610ceb602084018461091a565b905092915050565b610cfc816107e6565b82525050565b600060a08301610d156000840184610c1b565b8583036000870152610d28838284610caf565b92505050610d396020840184610cdc565b610d466020860182610cf3565b50610d546040840184610cdc565b610d616040860182610cf3565b50610d6f6060840184610cdc565b610d7c6060860182610cf3565b50610d8a6080840184610cdc565b610d976080860182610cf3565b508091505092915050565b600060608301610db56000840184610bbe565b610dc26000860182610bd5565b50610dd06020840184610be9565b8482036020860152610de28282610d02565b915050610df26040840184610cdc565b610dff6040860182610cf3565b508091505092915050565b600082825260208201905092915050565b6000819050919050565b6000610e3082610aee565b9050919050565b610e4081610e25565b8114610e4b57600080fd5b50565b600081359050610e5d81610e37565b92915050565b6000610e726020840184610e4e565b905092915050565b610e8381610e25565b82525050565b60408201610e9a6000830183610e63565b610ea76000850182610e7a565b50610eb56020830183610cdc565b610ec26020850182610cf3565b50505050565b6000610ed48383610e89565b60408301905092915050565b600082905092915050565b6000604082019050919050565b6000610f048385610e0a565b9350610f0f82610e1b565b8060005b85811015610f4857610f258284610ee0565b610f2f8882610ec8565b9750610f3a83610eeb565b925050600181019050610f13565b5085925050509392505050565b600082825260208201905092915050565b6000819050919050565b600060ff82169050919050565b610f8681610f70565b8114610f9157600080fd5b50565b600081359050610fa381610f7d565b92915050565b6000610fb86020840184610f94565b905092915050565b610fc981610f70565b82525050565b60608201610fe06000830183610fa9565b610fed6000850182610fc0565b50610ffb6020830183610bbe565b6110086020850182610bd5565b506110166040830183610bbe565b6110236040850182610bd5565b50505050565b60006110358383610fcf565b60608301905092915050565b600082905092915050565b6000606082019050919050565b60006110658385610f55565b935061107082610f66565b8060005b858110156110a9576110868284611041565b6110908882611029565b975061109b8361104c565b925050600181019050611074565b5085925050509392505050565b600060608201905081810360008301526110d08188610da2565b905081810360208301526110e5818688610ef8565b905081810360408301526110fa818486611059565b90509695505050505050565b61110f81610a07565b811461111a57600080fd5b50565b60008151905061112c81611106565b92915050565b6000602082840312156111485761114761081a565b5b60006111568482850161111d565b91505092915050565b600082825260208201905092915050565b7f496e76616c6964207369676e6174757265000000000000000000000000000000600082015250565b60006111a660118361115f565b91506111b182611170565b602082019050919050565b600060208201905081810360008301526111d581611199565b9050919050565b7f4e487b7100000000000000000000000000000000000000000000000000000000600052601160045260246000fd5b6000611216826107e6565b9150611221836107e6565b9250828203905081811115611239576112386111dc565b5b92915050565b7f4174746573746174696f6e20697320746f6f206f6c6400000000000000000000600082015250565b600061127560168361115f565b91506112808261123f565b602082019050919050565b600060208201905081810360008301526112a481611268565b9050919050565b600080fd5b60008235600160a0038336030381126112cc576112cb6112ab565b5b80830191505092915050565b7f5265706f72742074696d657374616d70206d757374206265206265666f72652060008201527f5f74696d657374616d7000000000000000000000000000000000000000000000602082015250565b6000611334602a8361115f565b915061133f826112d8565b604082019050919050565b6000602082019050818103600083015261136381611327565b9050919050565b7f5265706f7274206973206c6174657374206265666f72652074696d657374616d60008201527f7000000000000000000000000000000000000000000000000000000000000000602082015250565b60006113c660218361115f565b91506113d18261136a565b604082019050919050565b600060208201905081810360008301526113f5816113b9565b9050919050565b7f5265706f72742061676772656761746520706f776572206d757374206265206760008201527f726561746572207468616e206f7220657175616c20746f205f6d696e696d756d60208201527f506f776572000000000000000000000000000000000000000000000000000000604082015250565b600061147e60458361115f565b9150611489826113fc565b606082019050919050565b600060208201905081810360008301526114ad81611471565b9050919050565b7f5265706f72742074696d657374616d70206d757374206265206166746572205f60008201527f74696d657374616d700000000000000000000000000000000000000000000000602082015250565b600061151060298361115f565b915061151b826114b4565b604082019050919050565b6000602082019050818103600083015261153f81611503565b9050919050565b7f496e76616c6964206174746573746174696f6e00000000000000000000000000600082015250565b600061157c60138361115f565b915061158782611546565b602082019050919050565b600060208201905081810360008301526115ab8161156f565b9050919050565b7f5265706f7274206973206e6f74206c6174657374000000000000000000000000600082015250565b60006115e860148361115f565b91506115f3826115b2565b602082019050919050565b60006020820190508181036000830152611617816115db565b905091905056fea26469706673582212203852aec0903c37c78c3388db77c85021117e72ac9ffeb9220b53eb955e89c87764736f6c63430008160033","opcodes":"PUSH1 0x80 PUSH1 0x40 MSTORE CALLVALUE DUP1 ISZERO PUSH3 0x11 JUMPI PUSH1 0x0 DUP1 REVERT JUMPDEST POP PUSH1 0x40 MLOAD PUSH3 0x177E CODESIZE SUB DUP1 PUSH3 0x177E DUP4 CODECOPY DUP2 DUP2 ADD PUSH1 0x40 MSTORE DUP2 ADD SWAP1 PUSH3 0x37 SWAP2 SWAP1 PUSH3 0xE8 JUMP JUMPDEST DUP1 PUSH1 0x0 DUP1 PUSH2 0x100 EXP DUP2 SLOAD DUP2 PUSH20 0xFFFFFFFFFFFFFFFFFFFFFFFFFFFFFFFFFFFFFFFF MUL NOT AND SWAP1 DUP4 PUSH20 0xFFFFFFFFFFFFFFFFFFFFFFFFFFFFFFFFFFFFFFFF AND MUL OR SWAP1 SSTORE POP POP PUSH3 0x11A JUMP JUMPDEST PUSH1 0x0 DUP1 REVERT JUMPDEST PUSH1 0x0 PUSH20 0xFFFFFFFFFFFFFFFFFFFFFFFFFFFFFFFFFFFFFFFF DUP3 AND SWAP1 POP SWAP2 SWAP1 POP JUMP JUMPDEST PUSH1 0x0 PUSH3 0xB0 DUP3 PUSH3 0x83 JUMP JUMPDEST SWAP1 POP SWAP2 SWAP1 POP JUMP JUMPDEST PUSH3 0xC2 DUP2 PUSH3 0xA3 JUMP JUMPDEST DUP2 EQ PUSH3 0xCE JUMPI PUSH1 0x0 DUP1 REVERT JUMPDEST POP JUMP JUMPDEST PUSH1 0x0 DUP2 MLOAD SWAP1 POP PUSH3 0xE2 DUP2 PUSH3 0xB7 JUMP JUMPDEST SWAP3 SWAP2 POP POP JUMP JUMPDEST PUSH1 0x0 PUSH1 0x20 DUP3 DUP5 SUB SLT ISZERO PUSH3 0x101 JUMPI PUSH3 0x100 PUSH3 0x7E JUMP JUMPDEST JUMPDEST PUSH1 0x0 PUSH3 0x111 DUP5 DUP3 DUP6 ADD PUSH3 0xD1 JUMP JUMPDEST SWAP2 POP POP SWAP3 SWAP2 POP POP JUMP JUMPDEST PUSH2 0x1654 DUP1 PUSH3 0x12A PUSH1 0x0 CODECOPY PUSH1 0x0 RETURN INVALID PUSH1 0x80 PUSH1 0x40 MSTORE CALLVALUE DUP1 ISZERO PUSH2 0x10 JUMPI PUSH1 0x0 DUP1 REVERT JUMPDEST POP PUSH1 0x4 CALLDATASIZE LT PUSH2 0x62 JUMPI PUSH1 0x0 CALLDATALOAD PUSH1 0xE0 SHR DUP1 PUSH4 0x1179804B EQ PUSH2 0x67 JUMPI DUP1 PUSH4 0x4085EF6B EQ PUSH2 0x85 JUMPI DUP1 PUSH4 0x4D4E26FA EQ PUSH2 0xB5 JUMPI DUP1 PUSH4 0x78D05149 EQ PUSH2 0xE5 JUMPI DUP1 PUSH4 0xB9F7BB8D EQ PUSH2 0x115 JUMPI DUP1 PUSH4 0xE78CEA92 EQ PUSH2 0x133 JUMPI JUMPDEST PUSH1 0x0 DUP1 REVERT JUMPDEST PUSH2 0x6F PUSH2 0x151 JUMP JUMPDEST PUSH1 0x40 MLOAD PUSH2 0x7C SWAP2 SWAP1 PUSH2 0x7FF JUMP JUMPDEST PUSH1 0x40 MLOAD DUP1 SWAP2 SUB SWAP1 RETURN JUMPDEST PUSH2 0x9F PUSH1 0x4 DUP1 CALLDATASIZE SUB DUP2 ADD SWAP1 PUSH2 0x9A SWAP2 SWAP1 PUSH2 0x92F JUMP JUMPDEST PUSH2 0x157 JUMP JUMPDEST PUSH1 0x40 MLOAD PUSH2 0xAC SWAP2 SWAP1 PUSH2 0xA22 JUMP JUMPDEST PUSH1 0x40 MLOAD DUP1 SWAP2 SUB SWAP1 RETURN JUMPDEST PUSH2 0xCF PUSH1 0x4 DUP1 CALLDATASIZE SUB DUP2 ADD SWAP1 PUSH2 0xCA SWAP2 SWAP1 PUSH2 0x92F JUMP JUMPDEST PUSH2 0x3BC JUMP JUMPDEST PUSH1 0x40 MLOAD PUSH2 0xDC SWAP2 SWAP1 PUSH2 0xA22 JUMP JUMPDEST PUSH1 0x40 MLOAD DUP1 SWAP2 SUB SWAP1 RETURN JUMPDEST PUSH2 0xFF PUSH1 0x4 DUP1 CALLDATASIZE SUB DUP2 ADD SWAP1 PUSH2 0xFA SWAP2 SWAP1 PUSH2 0xA3D JUMP JUMPDEST PUSH2 0x621 JUMP JUMPDEST PUSH1 0x40 MLOAD PUSH2 0x10C SWAP2 SWAP1 PUSH2 0xA22 JUMP JUMPDEST PUSH1 0x40 MLOAD DUP1 SWAP2 SUB SWAP1 RETURN JUMPDEST PUSH2 0x11D PUSH2 0x7BC JUMP JUMPDEST PUSH1 0x40 MLOAD PUSH2 0x12A SWAP2 SWAP1 PUSH2 0x7FF JUMP JUMPDEST PUSH1 0x40 MLOAD DUP1 SWAP2 SUB SWAP1 RETURN JUMPDEST PUSH2 0x13B PUSH2 0x7C2 JUMP JUMPDEST PUSH1 0x40 MLOAD PUSH2 0x148 SWAP2 SWAP1 PUSH2 0xB6D JUMP JUMPDEST PUSH1 0x40 MLOAD DUP1 SWAP2 SUB SWAP1 RETURN JUMPDEST PUSH1 0x1 SLOAD DUP2 JUMP JUMPDEST PUSH1 0x0 DUP1 PUSH1 0x0 SWAP1 SLOAD SWAP1 PUSH2 0x100 EXP SWAP1 DIV PUSH20 0xFFFFFFFFFFFFFFFFFFFFFFFFFFFFFFFFFFFFFFFF AND PUSH20 0xFFFFFFFFFFFFFFFFFFFFFFFFFFFFFFFFFFFFFFFF AND PUSH4 0x5121B26E DUP10 DUP10 DUP10 DUP10 DUP10 PUSH1 0x40 MLOAD DUP7 PUSH4 0xFFFFFFFF AND PUSH1 0xE0 SHL DUP2 MSTORE PUSH1 0x4 ADD PUSH2 0x1BB SWAP6 SWAP5 SWAP4 SWAP3 SWAP2 SWAP1 PUSH2 0x10B6 JUMP JUMPDEST PUSH1 0x20 PUSH1 0x40 MLOAD DUP1 DUP4 SUB DUP2 DUP7 GAS STATICCALL ISZERO DUP1 ISZERO PUSH2 0x1D8 JUMPI RETURNDATASIZE PUSH1 0x0 DUP1 RETURNDATACOPY RETURNDATASIZE PUSH1 0x0 REVERT JUMPDEST POP POP POP POP PUSH1 0x40 MLOAD RETURNDATASIZE PUSH1 0x1F NOT PUSH1 0x1F DUP3 ADD AND DUP3 ADD DUP1 PUSH1 0x40 MSTORE POP DUP2 ADD SWAP1 PUSH2 0x1FC SWAP2 SWAP1 PUSH2 0x1132 JUMP JUMPDEST PUSH2 0x23B JUMPI PUSH1 0x40 MLOAD PUSH32 0x8C379A000000000000000000000000000000000000000000000000000000000 DUP2 MSTORE PUSH1 0x4 ADD PUSH2 0x232 SWAP1 PUSH2 0x11BC JUMP JUMPDEST PUSH1 0x40 MLOAD DUP1 SWAP2 SUB SWAP1 REVERT JUMPDEST PUSH2 0x12C DUP9 PUSH1 0x40 ADD CALLDATALOAD TIMESTAMP PUSH2 0x24E SWAP2 SWAP1 PUSH2 0x120B JUMP JUMPDEST GT ISZERO PUSH2 0x28F JUMPI PUSH1 0x40 MLOAD PUSH32 0x8C379A000000000000000000000000000000000000000000000000000000000 DUP2 MSTORE PUSH1 0x4 ADD PUSH2 0x286 SWAP1 PUSH2 0x128B JUMP JUMPDEST PUSH1 0x40 MLOAD DUP1 SWAP2 SUB SWAP1 REVERT JUMPDEST DUP3 DUP9 DUP1 PUSH1 0x20 ADD SWAP1 PUSH2 0x2A0 SWAP2 SWAP1 PUSH2 0x12B0 JUMP JUMPDEST PUSH1 0x20 ADD CALLDATALOAD LT PUSH2 0x2E4 JUMPI PUSH1 0x40 MLOAD PUSH32 0x8C379A000000000000000000000000000000000000000000000000000000000 DUP2 MSTORE PUSH1 0x4 ADD PUSH2 0x2DB SWAP1 PUSH2 0x134A JUMP JUMPDEST PUSH1 0x40 MLOAD DUP1 SWAP2 SUB SWAP1 REVERT JUMPDEST PUSH1 0x0 DUP9 DUP1 PUSH1 0x20 ADD SWAP1 PUSH2 0x2F6 SWAP2 SWAP1 PUSH2 0x12B0 JUMP JUMPDEST PUSH1 0x80 ADD CALLDATALOAD EQ DUP1 PUSH2 0x318 JUMPI POP DUP3 DUP9 DUP1 PUSH1 0x20 ADD SWAP1 PUSH2 0x312 SWAP2 SWAP1 PUSH2 0x12B0 JUMP JUMPDEST PUSH1 0x80 ADD CALLDATALOAD GT JUMPDEST PUSH2 0x357 JUMPI PUSH1 0x40 MLOAD PUSH32 0x8C379A000000000000000000000000000000000000000000000000000000000 DUP2 MSTORE PUSH1 0x4 ADD PUSH2 0x34E SWAP1 PUSH2 0x13DC JUMP JUMPDEST PUSH1 0x40 MLOAD DUP1 SWAP2 SUB SWAP1 REVERT JUMPDEST DUP2 DUP9 DUP1 PUSH1 0x20 ADD SWAP1 PUSH2 0x368 SWAP2 SWAP1 PUSH2 0x12B0 JUMP JUMPDEST PUSH1 0x40 ADD CALLDATALOAD LT ISZERO PUSH2 0x3AD JUMPI PUSH1 0x40 MLOAD PUSH32 0x8C379A000000000000000000000000000000000000000000000000000000000 DUP2 MSTORE PUSH1 0x4 ADD PUSH2 0x3A4 SWAP1 PUSH2 0x1494 JUMP JUMPDEST PUSH1 0x40 MLOAD DUP1 SWAP2 SUB SWAP1 REVERT JUMPDEST PUSH1 0x1 SWAP1 POP SWAP8 SWAP7 POP POP POP POP POP POP POP JUMP JUMPDEST PUSH1 0x0 DUP1 PUSH1 0x0 SWAP1 SLOAD SWAP1 PUSH2 0x100 EXP SWAP1 DIV PUSH20 0xFFFFFFFFFFFFFFFFFFFFFFFFFFFFFFFFFFFFFFFF AND PUSH20 0xFFFFFFFFFFFFFFFFFFFFFFFFFFFFFFFFFFFFFFFF AND PUSH4 0x5121B26E DUP10 DUP10 DUP10 DUP10 DUP10 PUSH1 0x40 MLOAD DUP7 PUSH4 0xFFFFFFFF AND PUSH1 0xE0 SHL DUP2 MSTORE PUSH1 0x4 ADD PUSH2 0x420 SWAP6 SWAP5 SWAP4 SWAP3 SWAP2 SWAP1 PUSH2 0x10B6 JUMP JUMPDEST PUSH1 0x20 PUSH1 0x40 MLOAD DUP1 DUP4 SUB DUP2 DUP7 GAS STATICCALL ISZERO DUP1 ISZERO PUSH2 0x43D JUMPI RETURNDATASIZE PUSH1 0x0 DUP1 RETURNDATACOPY RETURNDATASIZE PUSH1 0x0 REVERT JUMPDEST POP POP POP POP PUSH1 0x40 MLOAD RETURNDATASIZE PUSH1 0x1F NOT PUSH1 0x1F DUP3 ADD AND DUP3 ADD DUP1 PUSH1 0x40 MSTORE POP DUP2 ADD SWAP1 PUSH2 0x461 SWAP2 SWAP1 PUSH2 0x1132 JUMP JUMPDEST PUSH2 0x4A0 JUMPI PUSH1 0x40 MLOAD PUSH32 0x8C379A000000000000000000000000000000000000000000000000000000000 DUP2 MSTORE PUSH1 0x4 ADD PUSH2 0x497 SWAP1 PUSH2 0x11BC JUMP JUMPDEST PUSH1 0x40 MLOAD DUP1 SWAP2 SUB SWAP1 REVERT JUMPDEST PUSH2 0x12C DUP9 PUSH1 0x40 ADD CALLDATALOAD TIMESTAMP PUSH2 0x4B3 SWAP2 SWAP1 PUSH2 0x120B JUMP JUMPDEST GT ISZERO PUSH2 0x4F4 JUMPI PUSH1 0x40 MLOAD PUSH32 0x8C379A000000000000000000000000000000000000000000000000000000000 DUP2 MSTORE PUSH1 0x4 ADD PUSH2 0x4EB SWAP1 PUSH2 0x128B JUMP JUMPDEST PUSH1 0x40 MLOAD DUP1 SWAP2 SUB SWAP1 REVERT JUMPDEST DUP3 DUP9 DUP1 PUSH1 0x20 ADD SWAP1 PUSH2 0x505 SWAP2 SWAP1 PUSH2 0x12B0 JUMP JUMPDEST PUSH1 0x20 ADD CALLDATALOAD GT PUSH2 0x549 JUMPI PUSH1 0x40 MLOAD PUSH32 0x8C379A000000000000000000000000000000000000000000000000000000000 DUP2 MSTORE PUSH1 0x4 ADD PUSH2 0x540 SWAP1 PUSH2 0x1526 JUMP JUMPDEST PUSH1 0x40 MLOAD DUP1 SWAP2 SUB SWAP1 REVERT JUMPDEST PUSH1 0x0 DUP9 DUP1 PUSH1 0x20 ADD SWAP1 PUSH2 0x55B SWAP2 SWAP1 PUSH2 0x12B0 JUMP JUMPDEST PUSH1 0x80 ADD CALLDATALOAD EQ DUP1 PUSH2 0x57D JUMPI POP DUP3 DUP9 DUP1 PUSH1 0x20 ADD SWAP1 PUSH2 0x577 SWAP2 SWAP1 PUSH2 0x12B0 JUMP JUMPDEST PUSH1 0x80 ADD CALLDATALOAD GT JUMPDEST PUSH2 0x5BC JUMPI PUSH1 0x40 MLOAD PUSH32 0x8C379A000000000000000000000000000000000000000000000000000000000 DUP2 MSTORE PUSH1 0x4 ADD PUSH2 0x5B3 SWAP1 PUSH2 0x13DC JUMP JUMPDEST PUSH1 0x40 MLOAD DUP1 SWAP2 SUB SWAP1 REVERT JUMPDEST DUP2 DUP9 DUP1 PUSH1 0x20 ADD SWAP1 PUSH2 0x5CD SWAP2 SWAP1 PUSH2 0x12B0 JUMP JUMPDEST PUSH1 0x40 ADD CALLDATALOAD LT ISZERO PUSH2 0x612 JUMPI PUSH1 0x40 MLOAD PUSH32 0x8C379A000000000000000000000000000000000000000000000000000000000 DUP2 MSTORE PUSH1 0x4 ADD PUSH2 0x609 SWAP1 PUSH2 0x1494 JUMP JUMPDEST PUSH1 0x40 MLOAD DUP1 SWAP2 SUB SWAP1 REVERT JUMPDEST PUSH1 0x1 SWAP1 POP SWAP8 SWAP7 POP POP POP POP POP POP POP JUMP JUMPDEST PUSH1 0x0 DUP1 PUSH1 0x0 SWAP1 SLOAD SWAP1 PUSH2 0x100 EXP SWAP1 DIV PUSH20 0xFFFFFFFFFFFFFFFFFFFFFFFFFFFFFFFFFFFFFFFF AND PUSH20 0xFFFFFFFFFFFFFFFFFFFFFFFFFFFFFFFFFFFFFFFF AND PUSH4 0xC312B380 DUP8 DUP8 DUP8 DUP8 DUP8 PUSH1 0x40 MLOAD DUP7 PUSH4 0xFFFFFFFF AND PUSH1 0xE0 SHL DUP2 MSTORE PUSH1 0x4 ADD PUSH2 0x685 SWAP6 SWAP5 SWAP4 SWAP3 SWAP2 SWAP1 PUSH2 0x10B6 JUMP JUMPDEST PUSH1 0x20 PUSH1 0x40 MLOAD DUP1 DUP4 SUB DUP2 DUP7 GAS STATICCALL ISZERO DUP1 ISZERO PUSH2 0x6A2 JUMPI RETURNDATASIZE PUSH1 0x0 DUP1 RETURNDATACOPY RETURNDATASIZE PUSH1 0x0 REVERT JUMPDEST POP POP POP POP PUSH1 0x40 MLOAD RETURNDATASIZE PUSH1 0x1F NOT PUSH1 0x1F DUP3 ADD AND DUP3 ADD DUP1 PUSH1 0x40 MSTORE POP DUP2 ADD SWAP1 PUSH2 0x6C6 SWAP2 SWAP1 PUSH2 0x1132 JUMP JUMPDEST PUSH2 0x705 JUMPI PUSH1 0x40 MLOAD PUSH32 0x8C379A000000000000000000000000000000000000000000000000000000000 DUP2 MSTORE PUSH1 0x4 ADD PUSH2 0x6FC SWAP1 PUSH2 0x1592 JUMP JUMPDEST PUSH1 0x40 MLOAD DUP1 SWAP2 SUB SWAP1 REVERT JUMPDEST PUSH2 0x12C DUP7 PUSH1 0x40 ADD CALLDATALOAD TIMESTAMP PUSH2 0x718 SWAP2 SWAP1 PUSH2 0x120B JUMP JUMPDEST GT ISZERO PUSH2 0x759 JUMPI PUSH1 0x40 MLOAD PUSH32 0x8C379A000000000000000000000000000000000000000000000000000000000 DUP2 MSTORE PUSH1 0x4 ADD PUSH2 0x750 SWAP1 PUSH2 0x128B JUMP JUMPDEST PUSH1 0x40 MLOAD DUP1 SWAP2 SUB SWAP1 REVERT JUMPDEST PUSH1 0x0 DUP7 DUP1 PUSH1 0x20 ADD SWAP1 PUSH2 0x76B SWAP2 SWAP1 PUSH2 0x12B0 JUMP JUMPDEST PUSH1 0x80 ADD CALLDATALOAD EQ PUSH2 0x7AF JUMPI PUSH1 0x40 MLOAD PUSH32 0x8C379A000000000000000000000000000000000000000000000000000000000 DUP2 MSTORE PUSH1 0x4 ADD PUSH2 0x7A6 SWAP1 PUSH2 0x15FE JUMP JUMPDEST PUSH1 0x40 MLOAD DUP1 SWAP2 SUB SWAP1 REVERT JUMPDEST PUSH1 0x1 SWAP1 POP SWAP6 SWAP5 POP POP POP POP POP JUMP JUMPDEST PUSH2 0x12C DUP2 JUMP JUMPDEST PUSH1 0x0 DUP1 SLOAD SWAP1 PUSH2 0x100 EXP SWAP1 DIV PUSH20 0xFFFFFFFFFFFFFFFFFFFFFFFFFFFFFFFFFFFFFFFF AND DUP2 JUMP JUMPDEST PUSH1 0x0 DUP2 SWAP1 POP SWAP2 SWAP1 POP JUMP JUMPDEST PUSH2 0x7F9 DUP2 PUSH2 0x7E6 JUMP JUMPDEST DUP3 MSTORE POP POP JUMP JUMPDEST PUSH1 0x0 PUSH1 0x20 DUP3 ADD SWAP1 POP PUSH2 0x814 PUSH1 0x0 DUP4 ADD DUP5 PUSH2 0x7F0 JUMP JUMPDEST SWAP3 SWAP2 POP POP JUMP JUMPDEST PUSH1 0x0 DUP1 REVERT JUMPDEST PUSH1 0x0 DUP1 REVERT JUMPDEST PUSH1 0x0 DUP1 REVERT JUMPDEST PUSH1 0x0 PUSH1 0x60 DUP3 DUP5 SUB SLT ISZERO PUSH2 0x83F JUMPI PUSH2 0x83E PUSH2 0x824 JUMP JUMPDEST JUMPDEST DUP2 SWAP1 POP SWAP3 SWAP2 POP POP JUMP JUMPDEST PUSH1 0x0 DUP1 REVERT JUMPDEST PUSH1 0x0 DUP1 REVERT JUMPDEST PUSH1 0x0 DUP1 REVERT JUMPDEST PUSH1 0x0 DUP1 DUP4 PUSH1 0x1F DUP5 ADD SLT PUSH2 0x86D JUMPI PUSH2 0x86C PUSH2 0x848 JUMP JUMPDEST JUMPDEST DUP3 CALLDATALOAD SWAP1 POP PUSH8 0xFFFFFFFFFFFFFFFF DUP2 GT ISZERO PUSH2 0x88A JUMPI PUSH2 0x889 PUSH2 0x84D JUMP JUMPDEST JUMPDEST PUSH1 0x20 DUP4 ADD SWAP2 POP DUP4 PUSH1 0x40 DUP3 MUL DUP4 ADD GT ISZERO PUSH2 0x8A6 JUMPI PUSH2 0x8A5 PUSH2 0x852 JUMP JUMPDEST JUMPDEST SWAP3 POP SWAP3 SWAP1 POP JUMP JUMPDEST PUSH1 0x0 DUP1 DUP4 PUSH1 0x1F DUP5 ADD SLT PUSH2 0x8C3 JUMPI PUSH2 0x8C2 PUSH2 0x848 JUMP JUMPDEST JUMPDEST DUP3 CALLDATALOAD SWAP1 POP PUSH8 0xFFFFFFFFFFFFFFFF DUP2 GT ISZERO PUSH2 0x8E0 JUMPI PUSH2 0x8DF PUSH2 0x84D JUMP JUMPDEST JUMPDEST PUSH1 0x20 DUP4 ADD SWAP2 POP DUP4 PUSH1 0x60 DUP3 MUL DUP4 ADD GT ISZERO PUSH2 0x8FC JUMPI PUSH2 0x8FB PUSH2 0x852 JUMP JUMPDEST JUMPDEST SWAP3 POP SWAP3 SWAP1 POP JUMP JUMPDEST PUSH2 0x90C DUP2 PUSH2 0x7E6 JUMP JUMPDEST DUP2 EQ PUSH2 0x917 JUMPI PUSH1 0x0 DUP1 REVERT JUMPDEST POP JUMP JUMPDEST PUSH1 0x0 DUP2 CALLDATALOAD SWAP1 POP PUSH2 0x929 DUP2 PUSH2 0x903 JUMP JUMPDEST SWAP3 SWAP2 POP POP JUMP JUMPDEST PUSH1 0x0 DUP1 PUSH1 0x0 DUP1 PUSH1 0x0 DUP1 PUSH1 0x0 PUSH1 0xA0 DUP9 DUP11 SUB SLT ISZERO PUSH2 0x94E JUMPI PUSH2 0x94D PUSH2 0x81A JUMP JUMPDEST JUMPDEST PUSH1 0x0 DUP9 ADD CALLDATALOAD PUSH8 0xFFFFFFFFFFFFFFFF DUP2 GT ISZERO PUSH2 0x96C JUMPI PUSH2 0x96B PUSH2 0x81F JUMP JUMPDEST JUMPDEST PUSH2 0x978 DUP11 DUP3 DUP12 ADD PUSH2 0x829 JUMP JUMPDEST SWAP8 POP POP PUSH1 0x20 DUP9 ADD CALLDATALOAD PUSH8 0xFFFFFFFFFFFFFFFF DUP2 GT ISZERO PUSH2 0x999 JUMPI PUSH2 0x998 PUSH2 0x81F JUMP JUMPDEST JUMPDEST PUSH2 0x9A5 DUP11 DUP3 DUP12 ADD PUSH2 0x857 JUMP JUMPDEST SWAP7 POP SWAP7 POP POP PUSH1 0x40 DUP9 ADD CALLDATALOAD PUSH8 0xFFFFFFFFFFFFFFFF DUP2 GT ISZERO PUSH2 0x9C8 JUMPI PUSH2 0x9C7 PUSH2 0x81F JUMP JUMPDEST JUMPDEST PUSH2 0x9D4 DUP11 DUP3 DUP12 ADD PUSH2 0x8AD JUMP JUMPDEST SWAP5 POP SWAP5 POP POP PUSH1 0x60 PUSH2 0x9E7 DUP11 DUP3 DUP12 ADD PUSH2 0x91A JUMP JUMPDEST SWAP3 POP POP PUSH1 0x80 PUSH2 0x9F8 DUP11 DUP3 DUP12 ADD PUSH2 0x91A JUMP JUMPDEST SWAP2 POP POP SWAP3 SWAP6 SWAP9 SWAP2 SWAP5 SWAP8 POP SWAP3 SWAP6 POP JUMP JUMPDEST PUSH1 0x0 DUP2 ISZERO ISZERO SWAP1 POP SWAP2 SWAP1 POP JUMP JUMPDEST PUSH2 0xA1C DUP2 PUSH2 0xA07 JUMP JUMPDEST DUP3 MSTORE POP POP JUMP JUMPDEST PUSH1 0x0 PUSH1 0x20 DUP3 ADD SWAP1 POP PUSH2 0xA37 PUSH1 0x0 DUP4 ADD DUP5 PUSH2 0xA13 JUMP JUMPDEST SWAP3 SWAP2 POP POP JUMP JUMPDEST PUSH1 0x0 DUP1 PUSH1 0x0 DUP1 PUSH1 0x0 PUSH1 0x60 DUP7 DUP9 SUB SLT ISZERO PUSH2 0xA59 JUMPI PUSH2 0xA58 PUSH2 0x81A JUMP JUMPDEST JUMPDEST PUSH1 0x0 DUP7 ADD CALLDATALOAD PUSH8 0xFFFFFFFFFFFFFFFF DUP2 GT ISZERO PUSH2 0xA77 JUMPI PUSH2 0xA76 PUSH2 0x81F JUMP JUMPDEST JUMPDEST PUSH2 0xA83 DUP9 DUP3 DUP10 ADD PUSH2 0x829 JUMP JUMPDEST SWAP6 POP POP PUSH1 0x20 DUP7 ADD CALLDATALOAD PUSH8 0xFFFFFFFFFFFFFFFF DUP2 GT ISZERO PUSH2 0xAA4 JUMPI PUSH2 0xAA3 PUSH2 0x81F JUMP JUMPDEST JUMPDEST PUSH2 0xAB0 DUP9 DUP3 DUP10 ADD PUSH2 0x857 JUMP JUMPDEST SWAP5 POP SWAP5 POP POP PUSH1 0x40 DUP7 ADD CALLDATALOAD PUSH8 0xFFFFFFFFFFFFFFFF DUP2 GT ISZERO PUSH2 0xAD3 JUMPI PUSH2 0xAD2 PUSH2 0x81F JUMP JUMPDEST JUMPDEST PUSH2 0xADF DUP9 DUP3 DUP10 ADD PUSH2 0x8AD JUMP JUMPDEST SWAP3 POP SWAP3 POP POP SWAP3 SWAP6 POP SWAP3 SWAP6 SWAP1 SWAP4 POP JUMP JUMPDEST PUSH1 0x0 PUSH20 0xFFFFFFFFFFFFFFFFFFFFFFFFFFFFFFFFFFFFFFFF DUP3 AND SWAP1 POP SWAP2 SWAP1 POP JUMP JUMPDEST PUSH1 0x0 DUP2 SWAP1 POP SWAP2 SWAP1 POP JUMP JUMPDEST PUSH1 0x0 PUSH2 0xB33 PUSH2 0xB2E PUSH2 0xB29 DUP5 PUSH2 0xAEE JUMP JUMPDEST PUSH2 0xB0E JUMP JUMPDEST PUSH2 0xAEE JUMP JUMPDEST SWAP1 POP SWAP2 SWAP1 POP JUMP JUMPDEST PUSH1 0x0 PUSH2 0xB45 DUP3 PUSH2 0xB18 JUMP JUMPDEST SWAP1 POP SWAP2 SWAP1 POP JUMP JUMPDEST PUSH1 0x0 PUSH2 0xB57 DUP3 PUSH2 0xB3A JUMP JUMPDEST SWAP1 POP SWAP2 SWAP1 POP JUMP JUMPDEST PUSH2 0xB67 DUP2 PUSH2 0xB4C JUMP JUMPDEST DUP3 MSTORE POP POP JUMP JUMPDEST PUSH1 0x0 PUSH1 0x20 DUP3 ADD SWAP1 POP PUSH2 0xB82 PUSH1 0x0 DUP4 ADD DUP5 PUSH2 0xB5E JUMP JUMPDEST SWAP3 SWAP2 POP POP JUMP JUMPDEST PUSH1 0x0 DUP2 SWAP1 POP SWAP2 SWAP1 POP JUMP JUMPDEST PUSH2 0xB9B DUP2 PUSH2 0xB88 JUMP JUMPDEST DUP2 EQ PUSH2 0xBA6 JUMPI PUSH1 0x0 DUP1 REVERT JUMPDEST POP JUMP JUMPDEST PUSH1 0x0 DUP2 CALLDATALOAD SWAP1 POP PUSH2 0xBB8 DUP2 PUSH2 0xB92 JUMP JUMPDEST SWAP3 SWAP2 POP POP JUMP JUMPDEST PUSH1 0x0 PUSH2 0xBCD PUSH1 0x20 DUP5 ADD DUP5 PUSH2 0xBA9 JUMP JUMPDEST SWAP1 POP SWAP3 SWAP2 POP POP JUMP JUMPDEST PUSH2 0xBDE DUP2 PUSH2 0xB88 JUMP JUMPDEST DUP3 MSTORE POP POP JUMP JUMPDEST PUSH1 0x0 DUP1 REVERT JUMPDEST PUSH1 0x0 DUP3 CALLDATALOAD PUSH1 0x1 PUSH1 0xA0 SUB DUP4 CALLDATASIZE SUB SUB DUP2 SLT PUSH2 0xC05 JUMPI PUSH2 0xC04 PUSH2 0xBE4 JUMP JUMPDEST JUMPDEST DUP3 DUP2 ADD SWAP2 POP POP SWAP3 SWAP2 POP POP JUMP JUMPDEST PUSH1 0x0 DUP1 REVERT JUMPDEST PUSH1 0x0 DUP1 REVERT JUMPDEST PUSH1 0x0 DUP1 DUP4 CALLDATALOAD PUSH1 0x1 PUSH1 0x20 SUB DUP5 CALLDATASIZE SUB SUB DUP2 SLT PUSH2 0xC38 JUMPI PUSH2 0xC37 PUSH2 0xBE4 JUMP JUMPDEST JUMPDEST DUP4 DUP2 ADD SWAP3 POP DUP3 CALLDATALOAD SWAP2 POP PUSH1 0x20 DUP4 ADD SWAP3 POP PUSH8 0xFFFFFFFFFFFFFFFF DUP3 GT ISZERO PUSH2 0xC60 JUMPI PUSH2 0xC5F PUSH2 0xC11 JUMP JUMPDEST JUMPDEST PUSH1 0x1 DUP3 MUL CALLDATASIZE SUB DUP4 SGT ISZERO PUSH2 0xC76 JUMPI PUSH2 0xC75 PUSH2 0xC16 JUMP JUMPDEST JUMPDEST POP SWAP3 POP SWAP3 SWAP1 POP JUMP JUMPDEST PUSH1 0x0 DUP3 DUP3 MSTORE PUSH1 0x20 DUP3 ADD SWAP1 POP SWAP3 SWAP2 POP POP JUMP JUMPDEST DUP3 DUP2 DUP4 CALLDATACOPY PUSH1 0x0 DUP4 DUP4 ADD MSTORE POP POP POP JUMP JUMPDEST PUSH1 0x0 PUSH1 0x1F NOT PUSH1 0x1F DUP4 ADD AND SWAP1 POP SWAP2 SWAP1 POP JUMP JUMPDEST PUSH1 0x0 PUSH2 0xCBB DUP4 DUP6 PUSH2 0xC7E JUMP JUMPDEST SWAP4 POP PUSH2 0xCC8 DUP4 DUP6 DUP5 PUSH2 0xC8F JUMP JUMPDEST PUSH2 0xCD1 DUP4 PUSH2 0xC9E JUMP JUMPDEST DUP5 ADD SWAP1 POP SWAP4 SWAP3 POP POP POP JUMP JUMPDEST PUSH1 0x0 PUSH2 0xCEB PUSH1 0x20 DUP5 ADD DUP5 PUSH2 0x91A JUMP JUMPDEST SWAP1 POP SWAP3 SWAP2 POP POP JUMP JUMPDEST PUSH2 0xCFC DUP2 PUSH2 0x7E6 JUMP JUMPDEST DUP3 MSTORE POP POP JUMP JUMPDEST PUSH1 0x0 PUSH1 0xA0 DUP4 ADD PUSH2 0xD15 PUSH1 0x0 DUP5 ADD DUP5 PUSH2 0xC1B JUMP JUMPDEST DUP6 DUP4 SUB PUSH1 0x0 DUP8 ADD MSTORE PUSH2 0xD28 DUP4 DUP3 DUP5 PUSH2 0xCAF JUMP JUMPDEST SWAP3 POP POP POP PUSH2 0xD39 PUSH1 0x20 DUP5 ADD DUP5 PUSH2 0xCDC JUMP JUMPDEST PUSH2 0xD46 PUSH1 0x20 DUP7 ADD DUP3 PUSH2 0xCF3 JUMP JUMPDEST POP PUSH2 0xD54 PUSH1 0x40 DUP5 ADD DUP5 PUSH2 0xCDC JUMP JUMPDEST PUSH2 0xD61 PUSH1 0x40 DUP7 ADD DUP3 PUSH2 0xCF3 JUMP JUMPDEST POP PUSH2 0xD6F PUSH1 0x60 DUP5 ADD DUP5 PUSH2 0xCDC JUMP JUMPDEST PUSH2 0xD7C PUSH1 0x60 DUP7 ADD DUP3 PUSH2 0xCF3 JUMP JUMPDEST POP PUSH2 0xD8A PUSH1 0x80 DUP5 ADD DUP5 PUSH2 0xCDC JUMP JUMPDEST PUSH2 0xD97 PUSH1 0x80 DUP7 ADD DUP3 PUSH2 0xCF3 JUMP JUMPDEST POP DUP1 SWAP2 POP POP SWAP3 SWAP2 POP POP JUMP JUMPDEST PUSH1 0x0 PUSH1 0x60 DUP4 ADD PUSH2 0xDB5 PUSH1 0x0 DUP5 ADD DUP5 PUSH2 0xBBE JUMP JUMPDEST PUSH2 0xDC2 PUSH1 0x0 DUP7 ADD DUP3 PUSH2 0xBD5 JUMP JUMPDEST POP PUSH2 0xDD0 PUSH1 0x20 DUP5 ADD DUP5 PUSH2 0xBE9 JUMP JUMPDEST DUP5 DUP3 SUB PUSH1 0x20 DUP7 ADD MSTORE PUSH2 0xDE2 DUP3 DUP3 PUSH2 0xD02 JUMP JUMPDEST SWAP2 POP POP PUSH2 0xDF2 PUSH1 0x40 DUP5 ADD DUP5 PUSH2 0xCDC JUMP JUMPDEST PUSH2 0xDFF PUSH1 0x40 DUP7 ADD DUP3 PUSH2 0xCF3 JUMP JUMPDEST POP DUP1 SWAP2 POP POP SWAP3 SWAP2 POP POP JUMP JUMPDEST PUSH1 0x0 DUP3 DUP3 MSTORE PUSH1 0x20 DUP3 ADD SWAP1 POP SWAP3 SWAP2 POP POP JUMP JUMPDEST PUSH1 0x0 DUP2 SWAP1 POP SWAP2 SWAP1 POP JUMP JUMPDEST PUSH1 0x0 PUSH2 0xE30 DUP3 PUSH2 0xAEE JUMP JUMPDEST SWAP1 POP SWAP2 SWAP1 POP JUMP JUMPDEST PUSH2 0xE40 DUP2 PUSH2 0xE25 JUMP JUMPDEST DUP2 EQ PUSH2 0xE4B JUMPI PUSH1 0x0 DUP1 REVERT JUMPDEST POP JUMP JUMPDEST PUSH1 0x0 DUP2 CALLDATALOAD SWAP1 POP PUSH2 0xE5D DUP2 PUSH2 0xE37 JUMP JUMPDEST SWAP3 SWAP2 POP POP JUMP JUMPDEST PUSH1 0x0 PUSH2 0xE72 PUSH1 0x20 DUP5 ADD DUP5 PUSH2 0xE4E JUMP JUMPDEST SWAP1 POP SWAP3 SWAP2 POP POP JUMP JUMPDEST PUSH2 0xE83 DUP2 PUSH2 0xE25 JUMP JUMPDEST DUP3 MSTORE POP POP JUMP JUMPDEST PUSH1 0x40 DUP3 ADD PUSH2 0xE9A PUSH1 0x0 DUP4 ADD DUP4 PUSH2 0xE63 JUMP JUMPDEST PUSH2 0xEA7 PUSH1 0x0 DUP6 ADD DUP3 PUSH2 0xE7A JUMP JUMPDEST POP PUSH2 0xEB5 PUSH1 0x20 DUP4 ADD DUP4 PUSH2 0xCDC JUMP JUMPDEST PUSH2 0xEC2 PUSH1 0x20 DUP6 ADD DUP3 PUSH2 0xCF3 JUMP JUMPDEST POP POP POP POP JUMP JUMPDEST PUSH1 0x0 PUSH2 0xED4 DUP4 DUP4 PUSH2 0xE89 JUMP JUMPDEST PUSH1 0x40 DUP4 ADD SWAP1 POP SWAP3 SWAP2 POP POP JUMP JUMPDEST PUSH1 0x0 DUP3 SWAP1 POP SWAP3 SWAP2 POP POP JUMP JUMPDEST PUSH1 0x0 PUSH1 0x40 DUP3 ADD SWAP1 POP SWAP2 SWAP1 POP JUMP JUMPDEST PUSH1 0x0 PUSH2 0xF04 DUP4 DUP6 PUSH2 0xE0A JUMP JUMPDEST SWAP4 POP PUSH2 0xF0F DUP3 PUSH2 0xE1B JUMP JUMPDEST DUP1 PUSH1 0x0 JUMPDEST DUP6 DUP2 LT ISZERO PUSH2 0xF48 JUMPI PUSH2 0xF25 DUP3 DUP5 PUSH2 0xEE0 JUMP JUMPDEST PUSH2 0xF2F DUP9 DUP3 PUSH2 0xEC8 JUMP JUMPDEST SWAP8 POP PUSH2 0xF3A DUP4 PUSH2 0xEEB JUMP JUMPDEST SWAP3 POP POP PUSH1 0x1 DUP2 ADD SWAP1 POP PUSH2 0xF13 JUMP JUMPDEST POP DUP6 SWAP3 POP POP POP SWAP4 SWAP3 POP POP POP JUMP JUMPDEST PUSH1 0x0 DUP3 DUP3 MSTORE PUSH1 0x20 DUP3 ADD SWAP1 POP SWAP3 SWAP2 POP POP JUMP JUMPDEST PUSH1 0x0 DUP2 SWAP1 POP SWAP2 SWAP1 POP JUMP JUMPDEST PUSH1 0x0 PUSH1 0xFF DUP3 AND SWAP1 POP SWAP2 SWAP1 POP JUMP JUMPDEST PUSH2 0xF86 DUP2 PUSH2 0xF70 JUMP JUMPDEST DUP2 EQ PUSH2 0xF91 JUMPI PUSH1 0x0 DUP1 REVERT JUMPDEST POP JUMP JUMPDEST PUSH1 0x0 DUP2 CALLDATALOAD SWAP1 POP PUSH2 0xFA3 DUP2 PUSH2 0xF7D JUMP JUMPDEST SWAP3 SWAP2 POP POP JUMP JUMPDEST PUSH1 0x0 PUSH2 0xFB8 PUSH1 0x20 DUP5 ADD DUP5 PUSH2 0xF94 JUMP JUMPDEST SWAP1 POP SWAP3 SWAP2 POP POP JUMP JUMPDEST PUSH2 0xFC9 DUP2 PUSH2 0xF70 JUMP JUMPDEST DUP3 MSTORE POP POP JUMP JUMPDEST PUSH1 0x60 DUP3 ADD PUSH2 0xFE0 PUSH1 0x0 DUP4 ADD DUP4 PUSH2 0xFA9 JUMP JUMPDEST PUSH2 0xFED PUSH1 0x0 DUP6 ADD DUP3 PUSH2 0xFC0 JUMP JUMPDEST POP PUSH2 0xFFB PUSH1 0x20 DUP4 ADD DUP4 PUSH2 0xBBE JUMP JUMPDEST PUSH2 0x1008 PUSH1 0x20 DUP6 ADD DUP3 PUSH2 0xBD5 JUMP JUMPDEST POP PUSH2 0x1016 PUSH1 0x40 DUP4 ADD DUP4 PUSH2 0xBBE JUMP JUMPDEST PUSH2 0x1023 PUSH1 0x40 DUP6 ADD DUP3 PUSH2 0xBD5 JUMP JUMPDEST POP POP POP POP JUMP JUMPDEST PUSH1 0x0 PUSH2 0x1035 DUP4 DUP4 PUSH2 0xFCF JUMP JUMPDEST PUSH1 0x60 DUP4 ADD SWAP1 POP SWAP3 SWAP2 POP POP JUMP JUMPDEST PUSH1 0x0 DUP3 SWAP1 POP SWAP3 SWAP2 POP POP JUMP JUMPDEST PUSH1 0x0 PUSH1 0x60 DUP3 ADD SWAP1 POP SWAP2 SWAP1 POP JUMP JUMPDEST PUSH1 0x0 PUSH2 0x1065 DUP4 DUP6 PUSH2 0xF55 JUMP JUMPDEST SWAP4 POP PUSH2 0x1070 DUP3 PUSH2 0xF66 JUMP JUMPDEST DUP1 PUSH1 0x0 JUMPDEST DUP6 DUP2 LT ISZERO PUSH2 0x10A9 JUMPI PUSH2 0x1086 DUP3 DUP5 PUSH2 0x1041 JUMP JUMPDEST PUSH2 0x1090 DUP9 DUP3 PUSH2 0x1029 JUMP JUMPDEST SWAP8 POP PUSH2 0x109B DUP4 PUSH2 0x104C JUMP JUMPDEST SWAP3 POP POP PUSH1 0x1 DUP2 ADD SWAP1 POP PUSH2 0x1074 JUMP JUMPDEST POP DUP6 SWAP3 POP POP POP SWAP4 SWAP3 POP POP POP JUMP JUMPDEST PUSH1 0x0 PUSH1 0x60 DUP3 ADD SWAP1 POP DUP2 DUP2 SUB PUSH1 0x0 DUP4 ADD MSTORE PUSH2 0x10D0 DUP2 DUP9 PUSH2 0xDA2 JUMP JUMPDEST SWAP1 POP DUP2 DUP2 SUB PUSH1 0x20 DUP4 ADD MSTORE PUSH2 0x10E5 DUP2 DUP7 DUP9 PUSH2 0xEF8 JUMP JUMPDEST SWAP1 POP DUP2 DUP2 SUB PUSH1 0x40 DUP4 ADD MSTORE PUSH2 0x10FA DUP2 DUP5 DUP7 PUSH2 0x1059 JUMP JUMPDEST SWAP1 POP SWAP7 SWAP6 POP POP POP POP POP POP JUMP JUMPDEST PUSH2 0x110F DUP2 PUSH2 0xA07 JUMP JUMPDEST DUP2 EQ PUSH2 0x111A JUMPI PUSH1 0x0 DUP1 REVERT JUMPDEST POP JUMP JUMPDEST PUSH1 0x0 DUP2 MLOAD SWAP1 POP PUSH2 0x112C DUP2 PUSH2 0x1106 JUMP JUMPDEST SWAP3 SWAP2 POP POP JUMP JUMPDEST PUSH1 0x0 PUSH1 0x20 DUP3 DUP5 SUB SLT ISZERO PUSH2 0x1148 JUMPI PUSH2 0x1147 PUSH2 0x81A JUMP JUMPDEST JUMPDEST PUSH1 0x0 PUSH2 0x1156 DUP5 DUP3 DUP6 ADD PUSH2 0x111D JUMP JUMPDEST SWAP2 POP POP SWAP3 SWAP2 POP POP JUMP JUMPDEST PUSH1 0x0 DUP3 DUP3 MSTORE PUSH1 0x20 DUP3 ADD SWAP1 POP SWAP3 SWAP2 POP POP JUMP JUMPDEST PUSH32 0x496E76616C6964207369676E6174757265000000000000000000000000000000 PUSH1 0x0 DUP3 ADD MSTORE POP JUMP JUMPDEST PUSH1 0x0 PUSH2 0x11A6 PUSH1 0x11 DUP4 PUSH2 0x115F JUMP JUMPDEST SWAP2 POP PUSH2 0x11B1 DUP3 PUSH2 0x1170 JUMP JUMPDEST PUSH1 0x20 DUP3 ADD SWAP1 POP SWAP2 SWAP1 POP JUMP JUMPDEST PUSH1 0x0 PUSH1 0x20 DUP3 ADD SWAP1 POP DUP2 DUP2 SUB PUSH1 0x0 DUP4 ADD MSTORE PUSH2 0x11D5 DUP2 PUSH2 0x1199 JUMP JUMPDEST SWAP1 POP SWAP2 SWAP1 POP JUMP JUMPDEST PUSH32 0x4E487B7100000000000000000000000000000000000000000000000000000000 PUSH1 0x0 MSTORE PUSH1 0x11 PUSH1 0x4 MSTORE PUSH1 0x24 PUSH1 0x0 REVERT JUMPDEST PUSH1 0x0 PUSH2 0x1216 DUP3 PUSH2 0x7E6 JUMP JUMPDEST SWAP2 POP PUSH2 0x1221 DUP4 PUSH2 0x7E6 JUMP JUMPDEST SWAP3 POP DUP3 DUP3 SUB SWAP1 POP DUP2 DUP2 GT ISZERO PUSH2 0x1239 JUMPI PUSH2 0x1238 PUSH2 0x11DC JUMP JUMPDEST JUMPDEST SWAP3 SWAP2 POP POP JUMP JUMPDEST PUSH32 0x4174746573746174696F6E20697320746F6F206F6C6400000000000000000000 PUSH1 0x0 DUP3 ADD MSTORE POP JUMP JUMPDEST PUSH1 0x0 PUSH2 0x1275 PUSH1 0x16 DUP4 PUSH2 0x115F JUMP JUMPDEST SWAP2 POP PUSH2 0x1280 DUP3 PUSH2 0x123F JUMP JUMPDEST PUSH1 0x20 DUP3 ADD SWAP1 POP SWAP2 SWAP1 POP JUMP JUMPDEST PUSH1 0x0 PUSH1 0x20 DUP3 ADD SWAP1 POP DUP2 DUP2 SUB PUSH1 0x0 DUP4 ADD MSTORE PUSH2 0x12A4 DUP2 PUSH2 0x1268 JUMP JUMPDEST SWAP1 POP SWAP2 SWAP1 POP JUMP JUMPDEST PUSH1 0x0 DUP1 REVERT JUMPDEST PUSH1 0x0 DUP3 CALLDATALOAD PUSH1 0x1 PUSH1 0xA0 SUB DUP4 CALLDATASIZE SUB SUB DUP2 SLT PUSH2 0x12CC JUMPI PUSH2 0x12CB PUSH2 0x12AB JUMP JUMPDEST JUMPDEST DUP1 DUP4 ADD SWAP2 POP POP SWAP3 SWAP2 POP POP JUMP JUMPDEST PUSH32 0x5265706F72742074696D657374616D70206D757374206265206265666F726520 PUSH1 0x0 DUP3 ADD MSTORE PUSH32 0x5F74696D657374616D7000000000000000000000000000000000000000000000 PUSH1 0x20 DUP3 ADD MSTORE POP JUMP JUMPDEST PUSH1 0x0 PUSH2 0x1334 PUSH1 0x2A DUP4 PUSH2 0x115F JUMP JUMPDEST SWAP2 POP PUSH2 0x133F DUP3 PUSH2 0x12D8 JUMP JUMPDEST PUSH1 0x40 DUP3 ADD SWAP1 POP SWAP2 SWAP1 POP JUMP JUMPDEST PUSH1 0x0 PUSH1 0x20 DUP3 ADD SWAP1 POP DUP2 DUP2 SUB PUSH1 0x0 DUP4 ADD MSTORE PUSH2 0x1363 DUP2 PUSH2 0x1327 JUMP JUMPDEST SWAP1 POP SWAP2 SWAP1 POP JUMP JUMPDEST PUSH32 0x5265706F7274206973206C6174657374206265666F72652074696D657374616D PUSH1 0x0 DUP3 ADD MSTORE PUSH32 0x7000000000000000000000000000000000000000000000000000000000000000 PUSH1 0x20 DUP3 ADD MSTORE POP JUMP JUMPDEST PUSH1 0x0 PUSH2 0x13C6 PUSH1 0x21 DUP4 PUSH2 0x115F JUMP JUMPDEST SWAP2 POP PUSH2 0x13D1 DUP3 PUSH2 0x136A JUMP JUMPDEST PUSH1 0x40 DUP3 ADD SWAP1 POP SWAP2 SWAP1 POP JUMP JUMPDEST PUSH1 0x0 PUSH1 0x20 DUP3 ADD SWAP1 POP DUP2 DUP2 SUB PUSH1 0x0 DUP4 ADD MSTORE PUSH2 0x13F5 DUP2 PUSH2 0x13B9 JUMP JUMPDEST SWAP1 POP SWAP2 SWAP1 POP JUMP JUMPDEST PUSH32 0x5265706F72742061676772656761746520706F776572206D7573742062652067 PUSH1 0x0 DUP3 ADD MSTORE PUSH32 0x726561746572207468616E206F7220657175616C20746F205F6D696E696D756D PUSH1 0x20 DUP3 ADD MSTORE PUSH32 0x506F776572000000000000000000000000000000000000000000000000000000 PUSH1 0x40 DUP3 ADD MSTORE POP JUMP JUMPDEST PUSH1 0x0 PUSH2 0x147E PUSH1 0x45 DUP4 PUSH2 0x115F JUMP JUMPDEST SWAP2 POP PUSH2 0x1489 DUP3 PUSH2 0x13FC JUMP JUMPDEST PUSH1 0x60 DUP3 ADD SWAP1 POP SWAP2 SWAP1 POP JUMP JUMPDEST PUSH1 0x0 PUSH1 0x20 DUP3 ADD SWAP1 POP DUP2 DUP2 SUB PUSH1 0x0 DUP4 ADD MSTORE PUSH2 0x14AD DUP2 PUSH2 0x1471 JUMP JUMPDEST SWAP1 POP SWAP2 SWAP1 POP JUMP JUMPDEST PUSH32 0x5265706F72742074696D657374616D70206D757374206265206166746572205F PUSH1 0x0 DUP3 ADD MSTORE PUSH32 0x74696D657374616D700000000000000000000000000000000000000000000000 PUSH1 0x20 DUP3 ADD MSTORE POP JUMP JUMPDEST PUSH1 0x0 PUSH2 0x1510 PUSH1 0x29 DUP4 PUSH2 0x115F JUMP JUMPDEST SWAP2 POP PUSH2 0x151B DUP3 PUSH2 0x14B4 JUMP JUMPDEST PUSH1 0x40 DUP3 ADD SWAP1 POP SWAP2 SWAP1 POP JUMP JUMPDEST PUSH1 0x0 PUSH1 0x20 DUP3 ADD SWAP1 POP DUP2 DUP2 SUB PUSH1 0x0 DUP4 ADD MSTORE PUSH2 0x153F DUP2 PUSH2 0x1503 JUMP JUMPDEST SWAP1 POP SWAP2 SWAP1 POP JUMP JUMPDEST PUSH32 0x496E76616C6964206174746573746174696F6E00000000000000000000000000 PUSH1 0x0 DUP3 ADD MSTORE POP JUMP JUMPDEST PUSH1 0x0 PUSH2 0x157C PUSH1 0x13 DUP4 PUSH2 0x115F JUMP JUMPDEST SWAP2 POP PUSH2 0x1587 DUP3 PUSH2 0x1546 JUMP JUMPDEST PUSH1 0x20 DUP3 ADD SWAP1 POP SWAP2 SWAP1 POP JUMP JUMPDEST PUSH1 0x0 PUSH1 0x20 DUP3 ADD SWAP1 POP DUP2 DUP2 SUB PUSH1 0x0 DUP4 ADD MSTORE PUSH2 0x15AB DUP2 PUSH2 0x156F JUMP JUMPDEST SWAP1 POP SWAP2 SWAP1 POP JUMP JUMPDEST PUSH32 0x5265706F7274206973206E6F74206C6174657374000000000000000000000000 PUSH1 0x0 DUP3 ADD MSTORE POP JUMP JUMPDEST PUSH1 0x0 PUSH2 0x15E8 PUSH1 0x14 DUP4 PUSH2 0x115F JUMP JUMPDEST SWAP2 POP PUSH2 0x15F3 DUP3 PUSH2 0x15B2 JUMP JUMPDEST PUSH1 0x20 DUP3 ADD SWAP1 POP SWAP2 SWAP1 POP JUMP JUMPDEST PUSH1 0x0 PUSH1 0x20 DUP3 ADD SWAP1 POP DUP2 DUP2 SUB PUSH1 0x0 DUP4 ADD MSTORE PUSH2 0x1617 DUP2 PUSH2 0x15DB JUMP JUMPDEST SWAP1 POP SWAP2 SWAP1 POP JUMP INVALID LOG2 PUSH5 0x6970667358 0x22 SLT KECCAK256 CODESIZE MSTORE 0xAE 0xC0 SWAP1 EXTCODECOPY CALLDATACOPY 0xC7 DUP13 CALLER DUP9 0xDB PUSH24 0xC85021117E72AC9FFEB9220B53EB955E89C87764736F6C63 NUMBER STOP ADDMOD AND STOP CALLER "},"methodIdentifiers":{"MAX_ATTESTATION_AGE()":"b9f7bb8d","bridge()":"e78cea92","getCurrentConsensusValue((bytes32,(bytes,uint256,uint256,uint256,uint256),uint256),(address,uint256)[],(uint8,bytes32,bytes32)[])":"78d05149","getDataAfter((bytes32,(bytes,uint256,uint256,uint256,uint256),uint256),(address,uint256)[],(uint8,bytes32,bytes32)[],uint256,uint256)":"4d4e26fa","getDataBefore((bytes32,(bytes,uint256,uint256,uint256,uint256),uint256),(address,uint256)[],(uint8,bytes32,bytes32)[],uint256,uint256)":"4085ef6b","lastViewedBlockTimestamp()":"1179804b"}}}}}