{"contracts/tellor360/oldContracts/contracts/tellor3/Tellor.sol":{"Tellor":{"abi":[{"inputs":[{"internalType":"address","name":"_ext","type":"address"}],"stateMutability":"nonpayable","type":"constructor"},{"anonymous":false,"inputs":[{"indexed":true,"internalType":"address","name":"_owner","type":"address"},{"indexed":true,"internalType":"address","name":"_spender","type":"address"},{"indexed":false,"internalType":"uint256","name":"_value","type":"uint256"}],"name":"Approval","type":"event"},{"anonymous":false,"inputs":[{"indexed":true,"internalType":"bytes32","name":"_currentChallenge","type":"bytes32"},{"indexed":false,"internalType":"uint256[5]","name":"_currentRequestId","type":"uint256[5]"},{"indexed":false,"internalType":"uint256","name":"_difficulty","type":"uint256"},{"indexed":false,"internalType":"uint256","name":"_totalTips","type":"uint256"}],"name":"NewChallenge","type":"event"},{"anonymous":false,"inputs":[{"indexed":true,"internalType":"uint256","name":"_disputeId","type":"uint256"},{"indexed":true,"internalType":"uint256","name":"_requestId","type":"uint256"},{"indexed":false,"internalType":"uint256","name":"_timestamp","type":"uint256"},{"indexed":false,"internalType":"address","name":"_miner","type":"address"}],"name":"NewDispute","type":"event"},{"anonymous":false,"inputs":[{"indexed":false,"internalType":"uint256[5]","name":"_requestId","type":"uint256[5]"},{"indexed":false,"internalType":"uint256","name":"_time","type":"uint256"},{"indexed":false,"internalType":"uint256[5]","name":"_value","type":"uint256[5]"},{"indexed":false,"internalType":"uint256","name":"_totalTips","type":"uint256"},{"indexed":true,"internalType":"bytes32","name":"_currentChallenge","type":"bytes32"}],"name":"NewValue","type":"event"},{"anonymous":false,"inputs":[{"indexed":true,"internalType":"address","name":"_miner","type":"address"},{"indexed":false,"internalType":"string","name":"_nonce","type":"string"},{"indexed":false,"internalType":"uint256[5]","name":"_requestId","type":"uint256[5]"},{"indexed":false,"internalType":"uint256[5]","name":"_value","type":"uint256[5]"},{"indexed":true,"internalType":"bytes32","name":"_currentChallenge","type":"bytes32"},{"indexed":false,"internalType":"uint256","name":"_slot","type":"uint256"}],"name":"NonceSubmitted","type":"event"},{"anonymous":false,"inputs":[{"indexed":true,"internalType":"address","name":"_sender","type":"address"},{"indexed":true,"internalType":"uint256","name":"_requestId","type":"uint256"},{"indexed":false,"internalType":"uint256","name":"_tip","type":"uint256"},{"indexed":false,"internalType":"uint256","name":"_totalTips","type":"uint256"}],"name":"TipAdded","type":"event"},{"anonymous":false,"inputs":[{"indexed":true,"internalType":"address","name":"_from","type":"address"},{"indexed":true,"internalType":"address","name":"_to","type":"address"},{"indexed":false,"internalType":"uint256","name":"_value","type":"uint256"}],"name":"Transfer","type":"event"},{"anonymous":false,"inputs":[{"indexed":true,"internalType":"uint256","name":"_disputeID","type":"uint256"},{"indexed":false,"internalType":"bool","name":"_position","type":"bool"},{"indexed":true,"internalType":"address","name":"_voter","type":"address"},{"indexed":true,"internalType":"uint256","name":"_voteWeight","type":"uint256"}],"name":"Voted","type":"event"},{"stateMutability":"nonpayable","type":"fallback"},{"inputs":[{"internalType":"address","name":"","type":"address"},{"internalType":"address","name":"","type":"address"}],"name":"_allowances","outputs":[{"internalType":"uint256","name":"","type":"uint256"}],"stateMutability":"view","type":"function"},{"inputs":[{"internalType":"uint256","name":"_requestId","type":"uint256"},{"internalType":"uint256","name":"_tip","type":"uint256"}],"name":"addTip","outputs":[],"stateMutability":"nonpayable","type":"function"},{"inputs":[{"internalType":"bytes32","name":"","type":"bytes32"}],"name":"addresses","outputs":[{"internalType":"address","name":"","type":"address"}],"stateMutability":"view","type":"function"},{"inputs":[{"internalType":"address","name":"_user","type":"address"},{"internalType":"address","name":"_spender","type":"address"}],"name":"allowance","outputs":[{"internalType":"uint256","name":"","type":"uint256"}],"stateMutability":"view","type":"function"},{"inputs":[{"internalType":"address","name":"_user","type":"address"},{"internalType":"uint256","name":"_amount","type":"uint256"}],"name":"allowedToTrade","outputs":[{"internalType":"bool","name":"","type":"bool"}],"stateMutability":"view","type":"function"},{"inputs":[{"internalType":"address","name":"_spender","type":"address"},{"internalType":"uint256","name":"_amount","type":"uint256"}],"name":"approve","outputs":[{"internalType":"bool","name":"","type":"bool"}],"stateMutability":"nonpayable","type":"function"},{"inputs":[{"internalType":"address","name":"_user","type":"address"}],"name":"balanceOf","outputs":[{"internalType":"uint256","name":"","type":"uint256"}],"stateMutability":"view","type":"function"},{"inputs":[{"internalType":"address","name":"_user","type":"address"},{"internalType":"uint256","name":"_blockNumber","type":"uint256"}],"name":"balanceOfAt","outputs":[{"internalType":"uint256","name":"","type":"uint256"}],"stateMutability":"view","type":"function"},{"inputs":[{"internalType":"address","name":"","type":"address"},{"internalType":"uint256","name":"","type":"uint256"}],"name":"balances","outputs":[{"internalType":"uint128","name":"fromBlock","type":"uint128"},{"internalType":"uint128","name":"value","type":"uint128"}],"stateMutability":"view","type":"function"},{"inputs":[{"internalType":"uint256","name":"_requestId","type":"uint256"},{"internalType":"uint256","name":"_timestamp","type":"uint256"},{"internalType":"uint256","name":"_minerIndex","type":"uint256"}],"name":"beginDispute","outputs":[],"stateMutability":"nonpayable","type":"function"},{"inputs":[{"internalType":"bytes32","name":"","type":"bytes32"}],"name":"bytesVars","outputs":[{"internalType":"bytes32","name":"","type":"bytes32"}],"stateMutability":"view","type":"function"},{"inputs":[{"internalType":"uint256","name":"","type":"uint256"}],"name":"currentMiners","outputs":[{"internalType":"uint256","name":"value","type":"uint256"},{"internalType":"address","name":"miner","type":"address"}],"stateMutability":"view","type":"function"},{"inputs":[{"internalType":"bytes32","name":"","type":"bytes32"}],"name":"disputeIdByDisputeHash","outputs":[{"internalType":"uint256","name":"","type":"uint256"}],"stateMutability":"view","type":"function"},{"inputs":[{"internalType":"uint256","name":"","type":"uint256"}],"name":"disputesById","outputs":[{"internalType":"bytes32","name":"hash","type":"bytes32"},{"internalType":"int256","name":"tally","type":"int256"},{"internalType":"bool","name":"executed","type":"bool"},{"internalType":"bool","name":"disputeVotePassed","type":"bool"},{"internalType":"bool","name":"isPropFork","type":"bool"},{"internalType":"address","name":"reportedMiner","type":"address"},{"internalType":"address","name":"reportingParty","type":"address"},{"internalType":"address","name":"proposedForkAddress","type":"address"}],"stateMutability":"view","type":"function"},{"inputs":[],"name":"migrate","outputs":[],"stateMutability":"nonpayable","type":"function"},{"inputs":[{"internalType":"address","name":"_destination","type":"address"},{"internalType":"uint256","name":"_amount","type":"uint256"},{"internalType":"bool","name":"_bypass","type":"bool"}],"name":"migrateFor","outputs":[],"stateMutability":"nonpayable","type":"function"},{"inputs":[{"internalType":"address","name":"","type":"address"}],"name":"migrated","outputs":[{"internalType":"bool","name":"","type":"bool"}],"stateMutability":"view","type":"function"},{"inputs":[{"internalType":"bytes32","name":"","type":"bytes32"},{"internalType":"address","name":"","type":"address"}],"name":"minersByChallenge","outputs":[{"internalType":"bool","name":"","type":"bool"}],"stateMutability":"view","type":"function"},{"inputs":[{"internalType":"uint256","name":"","type":"uint256"}],"name":"newValueTimestamps","outputs":[{"internalType":"uint256","name":"","type":"uint256"}],"stateMutability":"view","type":"function"},{"inputs":[{"internalType":"address","name":"_propNewTellorAddress","type":"address"}],"name":"proposeFork","outputs":[],"stateMutability":"nonpayable","type":"function"},{"inputs":[{"internalType":"bytes32","name":"","type":"bytes32"}],"name":"requestIdByQueryHash","outputs":[{"internalType":"uint256","name":"","type":"uint256"}],"stateMutability":"view","type":"function"},{"inputs":[{"internalType":"string","name":"_nonce","type":"string"},{"internalType":"uint256[5]","name":"_requestIds","type":"uint256[5]"},{"internalType":"uint256[5]","name":"_values","type":"uint256[5]"}],"name":"submitMiningSolution","outputs":[],"stateMutability":"nonpayable","type":"function"},{"inputs":[{"internalType":"address","name":"_to","type":"address"},{"internalType":"uint256","name":"_amount","type":"uint256"}],"name":"transfer","outputs":[{"internalType":"bool","name":"success","type":"bool"}],"stateMutability":"nonpayable","type":"function"},{"inputs":[{"internalType":"address","name":"_from","type":"address"},{"internalType":"address","name":"_to","type":"address"},{"internalType":"uint256","name":"_amount","type":"uint256"}],"name":"transferFrom","outputs":[{"internalType":"bool","name":"success","type":"bool"}],"stateMutability":"nonpayable","type":"function"},{"inputs":[{"internalType":"bytes32","name":"","type":"bytes32"}],"name":"uints","outputs":[{"internalType":"uint256","name":"","type":"uint256"}],"stateMutability":"view","type":"function"},{"inputs":[{"internalType":"uint256","name":"_disputeId","type":"uint256"}],"name":"unlockDisputeFee","outputs":[],"stateMutability":"nonpayable","type":"function"},{"inputs":[],"name":"verify","outputs":[{"internalType":"uint256","name":"","type":"uint256"}],"stateMutability":"nonpayable","type":"function"},{"inputs":[{"internalType":"uint256","name":"_disputeId","type":"uint256"},{"internalType":"bool","name":"_supportsDispute","type":"bool"}],"name":"vote","outputs":[],"stateMutability":"nonpayable","type":"function"}],"evm":{"bytecode":{"linkReferences":{},"object":"60a060405234801561001057600080fd5b5060405162004fbf38038062004fbf8339818101604052602081101561003557600080fd5b5051606081901b6001600160601b0319166080526001600160a01b0316614f556200006a600039806101c85250614f556000f3fe608060405234801561001057600080fd5b50600436106101c45760003560e01c8063752d49a1116100f9578063b59e14d411610097578063d01f4d9e11610071578063d01f4d9e146106c4578063db085beb146106e1578063dd62ed3e1461074e578063fc735e991461077c576101c4565b8063b59e14d414610627578063c9d27afe14610644578063cbf1304d14610669576101c4565b8063999cf26c116100d3578063999cf26c1461057e5780639a01ca13146105aa578063a9059cbb146105c7578063a9fa7d34146105f3576101c4565b8063752d49a11461052a5780638581af191461054d5780638fd3ab8014610576576101c4565b806348b18e54116101665780635700242c116101405780635700242c1461049157806362dd1d2a146104ae578063699f200f146104cb57806370a0823114610504576101c4565b806348b18e54146104135780634ba0a5ee1461043f5780634ee2cd7e14610465576101c4565b806323b872dd116101a257806323b872dd1461032457806326b7d9f61461035a5780634350283e14610382578063438c0aa3146103f6576101c4565b8063024c2ddd14610266578063095ea7b3146102a65780631fd22364146102e6575b60007f000000000000000000000000000000000000000000000000000000000000000090506000816001600160a01b03166000366040518083838082843760405192019450600093509091505080830381855af49150503d8060008114610247576040519150601f19603f3d011682016040523d82523d6000602084013e61024c565b606091505b505090503d6000803e808015610261573d6000f35b3d6000fd5b6102946004803603604081101561027c57600080fd5b506001600160a01b0381358116916020013516610784565b60408051918252519081900360200190f35b6102d2600480360360408110156102bc57600080fd5b506001600160a01b0381351690602001356107a1565b604080519115158252519081900360200190f35b610303600480360360208110156102fc57600080fd5b5035610850565b604080519283526001600160a01b0390911660208301528051918290030190f35b6102d26004803603606081101561033a57600080fd5b506001600160a01b0381358116916020810135909116906040013561087b565b6103806004803603602081101561037057600080fd5b50356001600160a01b0316610927565b005b610380600480360361016081101561039957600080fd5b8101906020810181356401000000008111156103b457600080fd5b8201836020820111156103c657600080fd5b803590602001918460018302840111640100000000831117156103e857600080fd5b919350915060a08101610c4b565b6102946004803603602081101561040c57600080fd5b5035610e0a565b6102d26004803603604081101561042957600080fd5b50803590602001356001600160a01b0316610e2b565b6102d26004803603602081101561045557600080fd5b50356001600160a01b0316610e4b565b6102946004803603604081101561047b57600080fd5b506001600160a01b038135169060200135610e60565b610294600480360360208110156104a757600080fd5b503561100b565b610294600480360360208110156104c457600080fd5b503561101d565b6104e8600480360360208110156104e157600080fd5b503561102f565b604080516001600160a01b039092168252519081900360200190f35b6102946004803603602081101561051a57600080fd5b50356001600160a01b031661104a565b6103806004803603604081101561054057600080fd5b5080359060200135611056565b6103806004803603606081101561056357600080fd5b5080359060208101359060400135611266565b610380611827565b6102d26004803603604081101561059457600080fd5b506001600160a01b038135169060200135611832565b610380600480360360208110156105c057600080fd5b50356118fe565b6102d2600480360360408110156105dd57600080fd5b506001600160a01b03813516906020013561220a565b6103806004803603606081101561060957600080fd5b506001600160a01b0381351690602081013590604001351515612220565b6102946004803603602081101561063d57600080fd5b50356122c5565b6103806004803603604081101561065a57600080fd5b508035906020013515156122d7565b6106956004803603604081101561067f57600080fd5b506001600160a01b0381351690602001356125e4565b60405180836001600160801b03168152602001826001600160801b031681526020019250505060405180910390f35b610294600480360360208110156106da57600080fd5b5035612627565b6106fe600480360360208110156106f757600080fd5b5035612639565b60408051988952602089019790975294151587870152921515606087015290151560808601526001600160a01b0390811660a086015290811660c08501521660e083015251908190036101000190f35b6102946004803603604081101561076457600080fd5b506001600160a01b0381358116916020013516612695565b6102946126c0565b604a60209081526000928352604080842090915290825290205481565b60006001600160a01b0383166107e85760405162461bcd60e51b8152600401808060200182810382526022815260200180614d6d6022913960400191505060405180910390fd5b336000818152604a602090815260408083206001600160a01b03881680855290835292819020869055805186815290519293927f8c5be1e5ebec7d5bd14f71427d1e84f3dd0314c0f7b2291e5b200ac8c7c3b925929181900390910190a35060015b92915050565b603a816005811061086057600080fd5b6002020180546001909101549091506001600160a01b031682565b6001600160a01b0383166000908152604a602090815260408083203384529091528120548211156108e8576040805162461bcd60e51b8152602060048201526012602482015271416c6c6f77616e63652069732077726f6e6760701b604482015290519081900360640190fd5b6001600160a01b0384166000908152604a6020908152604080832033845290915290208054839003905561091d8484846126c6565b5060019392505050565b7fd051321aa26ce60d202f153d0c0e67687e975532ab88ce92d84f18e39895d90760005260466020527f7042aca2505aa9a8428c1710298edbac96e027637d6417651c8aa8f88ed1ca0a54156109b3576040805162461bcd60e51b815260206004820152600c60248201526b6e6f2072656e7472616e637960a01b604482015290519081900360640190fd5b7fd051321aa26ce60d202f153d0c0e67687e975532ab88ce92d84f18e39895d907600052604660205260017f7042aca2505aa9a8428c1710298edbac96e027637d6417651c8aa8f88ed1ca0a55610a098161287a565b7fd051321aa26ce60d202f153d0c0e67687e975532ab88ce92d84f18e39895d9076000908152604660209081527f7042aca2505aa9a8428c1710298edbac96e027637d6417651c8aa8f88ed1ca0a829055604080516001600160a01b0385168184015281518082038401815290820182528051908301207f1ce2382bc92689b00ba121fa5a411aa976168affdd8ac143a69035dd984b3b6a805460010190819055818552603890935292205415610b0857600082815260386020908152604080832054848452603683528184207fed92b4c1e0a9e559a31171d487ecbec963526662038ecfa3a71160bd62fb8733855260050190925290912055610b1a565b60008281526038602052604090208190555b600082815260386020526040812054610b349083906129d7565b6000838152603660205260408120858155600280820180546201000062ff0000199091161776ffffffffffffffffffffffffffffffffffffffff00000019163363010000008102919091179091556003830180546001600160a01b031990811683179091556004840180549091166001600160a01b038b16179055600190920192909255919250610bd9919030906000198501900a68056bc75e2d63100000026126c6565b5060009081526036602090815260408083207f4b4cefd5ced7569ef0d091282b4bca9c52a034c56471a6061afd1bf307a2de7c84526005019091528082204390557f46f7d53798d31923f6952572c6a19ad2d1a8238d26649c2f3493a6d69e425d28825290204262093a800190555050565b6040805133602080830191909152825180830382018152918301835281519181019190912060008181526046909252919020541580610c9e57506000818152604660205260409020546103844291909103115b610cd95760405162461bcd60e51b815260040180806020018281038252602a815260200180614d1a602a913960400191505060405180910390fd5b7fdfbec46864bc123768f0d134913175d9577a55bb71b9b2595fda21e21f36b08260005260466020527f7df1eb1754bc067736ff3d89af41d339bf906d31b0f5978e3c78f402d4ed249254600414610d6a57610d6a85858080601f016020809104026020016040519081016040528093929190818152602001838380828437600092019190915250612bc992505050565b6000818152604660209081526040918290204290558151601f8701829004820281018201909252858252610e0391908790879081908401838280828437600092019190915250506040805160a081810190925292508791506005908390839080828437600092019190915250506040805160a0818101909252915086906005908390839080828437600092019190915250612eb2915050565b5050505050565b60338181548110610e1a57600080fd5b600091825260209091200154905081565b603960209081526000928352604080842090915290825290205460ff1681565b604b6020526000908152604090205460ff1681565b6001600160a01b038216600090815260496020526040812080541580610ea657508281600081548110610e8f57fe5b6000918252602090912001546001600160801b0316115b15610eb557600091505061084a565b805481906000198101908110610ec757fe5b6000918252602090912001546001600160801b03168310610f1957805481906000198101908110610ef457fe5b600091825260209091200154600160801b90046001600160801b0316915061084a9050565b8054600090600119015b81811115610fd1576000600260018385010104905085848281548110610f4557fe5b6000918252602090912001546001600160801b03161415610f9457838181548110610f6c57fe5b600091825260209091200154600160801b90046001600160801b0316945061084a9350505050565b85848281548110610fa157fe5b6000918252602090912001546001600160801b03161015610fc457809250610fcb565b6001810391505b50610f23565b828281548110610fdd57fe5b600091825260209091200154600160801b90046001600160801b0316935061084a92505050565b5092915050565b60376020526000908152604090205481565b60486020526000908152604090205481565b6047602052600090815260409020546001600160a01b031681565b600061084a8243610e60565b81611099576040805162461bcd60e51b815260206004820152600e60248201526d052657175657374496420697320360941b604482015290519081900360640190fd5b806110eb576040805162461bcd60e51b815260206004820152601c60248201527f5469702073686f756c642062652067726561746572207468616e203000000000604482015290519081900360640190fd5b7f3f8b5616fa9e7f2ce4a868fde15c58b92e77bc1acd6769bf1567629a3dc4c86560005260466020527f7119b9afaa3bda0901ffe121c1535f50cd6d0d09df5d29eb1cb16c8ab47a55d65460010182811415611193577f3f8b5616fa9e7f2ce4a868fde15c58b92e77bc1acd6769bf1567629a3dc4c86560005260466020527f7119b9afaa3bda0901ffe121c1535f50cd6d0d09df5d29eb1cb16c8ab47a55d68190556111e7565b8083106111e7576040805162461bcd60e51b815260206004820181905260248201527f526571756573744964206973206e6f74206c657373207468616e20636f756e74604482015290519081900360640190fd5b6111f13383613583565b6111fb8383613733565b6000838152604560209081526040808320600080516020614f008339815191528452600101825291829020548251858152918201528151859233927fd32134405b68f6f7220f9c38ae310df1b648d16188006768d45be2f7c24e8820929081900390910190a3505050565b600083815260456020908152604080832085845260028101909252909120546112c9576040805162461bcd60e51b815260206004820152601060248201526f04d696e656420626c6f636b20697320360841b604482015290519081900360640190fd5b6005821061131e576040805162461bcd60e51b815260206004820152601460248201527f4d696e657220696e6465782069732077726f6e67000000000000000000000000604482015290519081900360640190fd5b6000838152600580830160205260408220908490811061133a57fe5b015460408051606083811b6bffffffffffffffffffffffff191660208084018290526b111a5cdc1d5d1950dbdd5b9d60a21b603485015284518085038201815284860186528051908201206000908152604682528581208054600190810190915593850192909252607484018b905260948085018b90528551808603909101815260b490940185528351938101939093207f1ce2382bc92689b00ba121fa5a411aa976168affdd8ac143a69035dd984b3b6a805490930192839055808252603890935292909220546001600160a01b03909316935091801561145a5760008281526036602090815260408083207fed92b4c1e0a9e559a31171d487ecbec963526662038ecfa3a71160bd62fb8733845260050190915290208190556114b1565b62093a808742031061149d5760405162461bcd60e51b8152600401808060200182810382526032815260200180614e636032913960400191505060405180910390fd5b506000828152603860205260409020819055805b60006114bd83836129d7565b905060008760021415611562575060008981526045602090815260408083207f310199159a20c50879ffb440b45802138b5b162ec9426720e9dd3ee8bbcdb9d78452600190810183529083208054909101908190557f5d9fadfc729fd027e395e5157ef1b53ef9fa4a8f053043c5f159307543e7cc97909252604690527f167af83a0768d27540775cfef6d996eb63f8a61fcdfb26e654c18fb50960e3be54026115b1565b507f675d2171f68d6f5545d54fb9b1fb61a0e6897e6188ca1cd664e7c9530d91ecfc60005260466020527f3e5522f19747f0f285b96ded572ac4128c3a764aea9f44058dc0afc9dda449865481025b6000848152603660209081526040808320888155600281018054600383018054336001600160a01b031991821617909155600484018054909116905576ffffffffffffffffffffffffffffffffffffffffff0000191663010000006001600160a01b038d16021761ffff19169055600181018490557f9f47a2659c3d32b749ae717d975e7962959890862423c4318cf86e4ec220291f8452600590810183528184208e90557f2f9328a9c75282bec25bb04befad06926366736e0030c985108445fa728335e584528184208d90558c845260068b01909252909120908990811061169757fe5b015460008581526036602090815260408083207f9147231ab14efb72c38117f68521ddef8de64f092c18c69dbfb602ffc4de7f478452600501909152808220929092557f46f7d53798d31923f6952572c6a19ad2d1a8238d26649c2f3493a6d69e425d2881528181206202a3008502420190557f4b4cefd5ced7569ef0d091282b4bca9c52a034c56471a6061afd1bf307a2de7c81528181204390557f6de96ee4d33a0617f40a846309c8759048857f51b9d59a12d3c3786d4778883d81528181208a90557f1da95f11543c9b03927178e07951795dfc95c7501a9d1cf00e13414ca33bc40981522081905561178e3330836126c6565b87600214156117c05760008981526004880160209081526040808320805460ff1916600117905560038a019091528120555b6001600160a01b0386166000818152604460209081526040918290206003905581518c81529081019290925280518c9287927feceec1aebf67772b2440120c4b4dc913a1fe1b865509219f9456785c23b9da6492918290030190a350505050505050505050565b61183033613977565b565b6001600160a01b0382166000908152604460205260408120541580159061187157506001600160a01b0383166000908152604460205260409020546005115b156118eb577f5d9fadfc729fd027e395e5157ef1b53ef9fa4a8f053043c5f159307543e7cc9760005260466020527f167af83a0768d27540775cfef6d996eb63f8a61fcdfb26e654c18fb50960e3be5482906118d6906118d08661104a565b90613ac6565b106118e35750600161084a565b50600061084a565b816118f58461104a565b10159392505050565b7f310199159a20c50879ffb440b45802138b5b162ec9426720e9dd3ee8bbcdb9d760005260466020527f1ce2382bc92689b00ba121fa5a411aa976168affdd8ac143a69035dd984b3b6a54811115611996576040805162461bcd60e51b8152602060048201526016602482015275191a5cdc1d5d1948191bd95cc81b9bdd08195e1a5cdd60521b604482015290519081900360640190fd5b600081815260366020818152604080842054845260388252808420548085529282528084207f6ab2b18aafe78fd59c6a4092015bddd9fcacb8170f72b299074f74d76a91a923855260050180835281852054825180850191909152825180820385018152908301835280519084012085529091529091205480611a165750805b60008281526036602090815260408083208484528184207f6ab2b18aafe78fd59c6a4092015bddd9fcacb8170f72b299074f74d76a91a92385526005820190935292205480611a63575060015b7f29169706298d2b6df50a532e958b56426de1465348b93650fca42d456eaec5fc600090815260058401602052604081205415611ada576040805162461bcd60e51b815260206004820152601060248201526f185b1c9958591e481c185a59081bdd5d60821b604482015290519081900360640190fd5b600284015462010000900460ff1615611b245760405162461bcd60e51b8152600401808060200182810382526029815260200180614d446029913960400191505060405180910390fd5b7ff9e1ae10923bfc79f52e309baf8c7699edb821f91ef5b5bd07be29545917b3a66000908152600585016020526040902054611ba7576040805162461bcd60e51b815260206004820152601860248201527f766f7465206e6565647320746f2062652074616c6c6965640000000000000000604482015290519081900360640190fd5b7ff9e1ae10923bfc79f52e309baf8c7699edb821f91ef5b5bd07be29545917b3a6600090815260058401602052604090205462015180429190910311611c1e5760405162461bcd60e51b815260040180806020018281038252602b815260200180614d8f602b913960400191505060405180910390fd5b600284810154630100000090046001600160a01b031660009081526044602090815260408083207f29169706298d2b6df50a532e958b56426de1465348b93650fca42d456eaec5fc84526005890190925290912060019081905591850154909161010090910460ff1615151415611e47576201518042064203600182015560466020527fa5ae3e2b97d73fb849ea855d27f073b72815b38452d976bd57e4a157827dadd380546000190190557f5d9fadfc729fd027e395e5157ef1b53ef9fa4a8f053043c5f159307543e7cc976000527f167af83a0768d27540775cfef6d996eb63f8a61fcdfb26e654c18fb50960e3be5460028601548190611d3090630100000090046001600160a01b031661104a565b1015611d57576002860154611d5490630100000090046001600160a01b031661104a565b90505b815460041415611d92576005825560028601546003870154611d8d916001600160a01b03630100000090910481169116836126c6565b600082555b60005b84811015611e4057604080518287036020808301919091528251808303820181529183018352815191810191909120600090815260058a019091522054935083611ddd578893505b600084815260366020908152604080832060038101547f1da95f11543c9b03927178e07951795dfc95c7501a9d1cf00e13414ca33bc409855260058201909352922054611e379130916001600160a01b03909116906126c6565b50600101611d95565b50506120ee565b600284015460408051630100000090920460601b6bffffffffffffffffffffffff19166020808401919091526b111a5cdc1d5d1950dbdd5b9d60a21b603484015281518084038201815292820182528251928101929092206000908152604690925290205460011415611eb957600181555b7f9f47a2659c3d32b749ae717d975e7962959890862423c4318cf86e4ec220291f60009081526005860160208181526040808420548452604582528084207f6de96ee4d33a0617f40a846309c8759048857f51b9d59a12d3c3786d4778883d8552929091529091205460021415611f94577f9147231ab14efb72c38117f68521ddef8de64f092c18c69dbfb602ffc4de7f4760009081526005870160209081526040808320547f2f9328a9c75282bec25bb04befad06926366736e0030c985108445fa728335e5845281842054845260038501909252909120555b7f2f9328a9c75282bec25bb04befad06926366736e0030c985108445fa728335e5600090815260058701602090815260408083205483526004840190915290205460ff1615156001141561202b577f2f9328a9c75282bec25bb04befad06926366736e0030c985108445fa728335e560009081526005870160209081526040808320548352600484019091529020805460ff191690555b60005b848110156120eb57604080518287036020808301919091528251808303820181529183018352815191810191909120600090815260058a0190915220549350831561208457600084815260366020526040902095505b600286015460008581526036602090815260408083207f1da95f11543c9b03927178e07951795dfc95c7501a9d1cf00e13414ca33bc40984526005019091529020546120e391309163010000009091046001600160a01b0316906126c6565b60010161202e565b50505b60028481015460408051630100000090920460601b6bffffffffffffffffffffffff19166020808401919091526b111a5cdc1d5d1950dbdd5b9d60a21b6034840152815180840382018152928201825282519281019290922060009081526046835281812080546000190190557f6de96ee4d33a0617f40a846309c8759048857f51b9d59a12d3c3786d4778883d8152600589019092529020541415612200577f9f47a2659c3d32b749ae717d975e7962959890862423c4318cf86e4ec220291f60009081526005860160209081526040808320548352604582528083207f310199159a20c50879ffb440b45802138b5b162ec9426720e9dd3ee8bbcdb9d78452600101909152902080546000190190555b5050505050505050565b60006122173384846126c6565b50600192915050565b7f5fc094d10c65bc33cc842217b2eccca0191ff24148319da094e540a55989896160005260476020527f437dd27c2043efdfef03344e9331c924985f7bd1752abef5ea93bdbfed685100546001600160a01b031633146122b5576040805162461bcd60e51b815260206004820152600b60248201526a1b9bdd08185b1b1bddd95960aa1b604482015290519081900360640190fd5b6122c0838383613ad8565b505050565b60466020526000908152604090205481565b7f310199159a20c50879ffb440b45802138b5b162ec9426720e9dd3ee8bbcdb9d760005260466020527f1ce2382bc92689b00ba121fa5a411aa976168affdd8ac143a69035dd984b3b6a5482111561236f576040805162461bcd60e51b8152602060048201526016602482015275191a5cdc1d5d1948191bd95cc81b9bdd08195e1a5cdd60521b604482015290519081900360640190fd5b6000828152603660205260409020600281015460ff16156123c15760405162461bcd60e51b8152600401808060200182810382526025815260200180614eb66025913960400191505060405180910390fd5b7f4b4cefd5ced7569ef0d091282b4bca9c52a034c56471a6061afd1bf307a2de7c60009081526005820160205260408120546123fe903390610e60565b33600090815260068401602052604090205490915060ff1615156001141561246d576040805162461bcd60e51b815260206004820152601860248201527f53656e6465722068617320616c726561647920766f7465640000000000000000604482015290519081900360640190fd5b806124b3576040805162461bcd60e51b81526020600482015260116024820152700557365722062616c616e6365206973203607c1b604482015290519081900360640190fd5b3360009081526044602052604090205460031415612518576040805162461bcd60e51b815260206004820152601660248201527f4d696e657220697320756e646572206469737075746500000000000000000000604482015290519081900360640190fd5b3360009081526006830160209081526040808320805460ff191660019081179091557f1da378694063870452ce03b189f48e04c1aa026348e74e6c86e10738514ad2c484526005860190925290912080549091019055821561258d5760018201546125839082613b6e565b60018301556125a2565b600182015461259c9082613b99565b60018301555b60408051841515815290518291339187917f911ef2e98570b1d96c0e8ef81107a33d5b8e844aeb8f9710f9bc76c3b3fef40e919081900360200190a450505050565b6049602052816000526040600020818154811061260057600080fd5b6000918252602090912001546001600160801b038082169350600160801b90910416905082565b60386020526000908152604090205481565b603660205260009081526040902080546001820154600283015460038401546004909401549293919260ff808316936101008404821693620100008104909216926001600160a01b036301000000909304831692918216911688565b6001600160a01b039182166000908152604a6020908152604080832093909416825291909152205490565b610bb790565b806127025760405162461bcd60e51b8152600401808060200182810382526021815260200180614e226021913960400191505060405180910390fd5b6001600160a01b038216612755576040805162461bcd60e51b815260206004820152601560248201527452656365697665722069732030206164647265737360581b604482015290519081900360640190fd5b61275f8382611832565b61279a5760405162461bcd60e51b8152600401808060200182810382526027815260200180614ddb6027913960400191505060405180910390fd5b60006127a58461104a565b9050816127b485828403613bbf565b6127bd8461104a565b9150816001600160801b03168183016001600160801b0316101561281c576040805162461bcd60e51b815260206004820152601160248201527013dd995c999b1bddc81a185c1c195b9959607a1b604482015290519081900360640190fd5b61282884828401613bbf565b836001600160a01b0316856001600160a01b03167fddf252ad1be2c89b69c2b068fc378daa952ba7f163c4a11628f55a4df523b3ef856040518082815260200191505060405180910390a35050505050565b60408051602060248201819052600060448301819052835180840360640181526084909301845290820180516001600160e01b031663fc735e9960e01b1781529251825191936060936001600160a01b0387169390929182918083835b602083106128f65780518252601f1990920191602091820191016128d7565b6001836020036101000a0380198251168184511680821785525050505050509050019150506000604051808303816000865af19150503d8060008114612958576040519150601f19603f3d011682016040523d82523d6000602084013e61295d565b606091505b50915091508180156129865750610bb781806020019051602081101561298257600080fd5b5051115b6122c0576040805162461bcd60e51b815260206004820152601560248201527f6e65772074656c6c6f7220697320696e76616c69640000000000000000000000604482015290519081900360640190fd5b60008181526036602081815260408084207f6ab2b18aafe78fd59c6a4092015bddd9fcacb8170f72b299074f74d76a91a923855260050180835281852080546001019081905586865293835281518084018590528251808203850181529083018352805190840120855290915290912083905582821461084a57600082815260366020818152604080842081516000198701818501528251808203850181529083018352805190840120855260059081018352818520548086529383528185207f46f7d53798d31923f6952572c6a19ad2d1a8238d26649c2f3493a6d69e425d2886520190915290912054421015612b16576040805162461bcd60e51b815260206004820152601760248201527f4469737075746520697320616c7265616479206f70656e000000000000000000604482015290519081900360640190fd5b60008181526036602052604090206002015460ff16156110045760008181526036602090815260408083207ff9e1ae10923bfc79f52e309baf8c7699edb821f91ef5b5bd07be29545917b3a684526005019091529020546201518042919091031115611004576040805162461bcd60e51b815260206004820152601f60248201527f54696d6520666f7220766f74696e6720686176656e277420656c617073656400604482015290519081900360640190fd5b7f5bccd7373734898281f858d7562320d2cdfc0b17bd72f779686937174d150025547fd54702836c9d21d0727ffacc3e39f57c92b5ae0f50177e593bfb5ec66e3de280600052604860209081527f52cb9007c7c6068f8ef37039d4f232cbf5a28ff8d93a5983c4c0c27cd2f9bc0d546040805180840183815233606081901b93830193909352865160029560039594938993926054909101918401908083835b60208310612c885780518252601f199092019160209182019101612c69565b6001836020036101000a038019825116818451168082178552505050505050905001935050505060405160208183030381529060405280519060200120604051602001808281526020019150506040516020818303038152906040526040518082805190602001908083835b60208310612d135780518252601f199092019160209182019101612cf4565b51815160209384036101000a60001901801990921691161790526040519190930194509192505080830381855afa158015612d52573d6000803e3d6000fd5b5050506040515160601b60405160200180826bffffffffffffffffffffffff191681526014019150506040516020818303038152906040526040518082805190602001908083835b60208310612db95780518252601f199092019160209182019101612d9a565b51815160209384036101000a60001901801990921691161790526040519190930194509192505080830381855afa158015612df8573d6000803e3d6000fd5b5050506040513d6020811015612e0d57600080fd5b505181612e1657fe5b061580612e7457507f2c8b528fbaf48aaf13162a5a0519a7ad5a612da8ff8783465c17e076660a59f160005260466020527f231bb0dc207f13dd4e565ebc32496c470e35391bd8d3b6649269ee2328e0311854610384429190910310155b612eaf5760405162461bcd60e51b8152600401808060200182810382526025815260200180614edb6025913960400191505060405180910390fd5b50565b604080513360208083018290528351808403820181529284018452825192810192909220600091825260449092529190912054600114612f39576040805162461bcd60e51b815260206004820152601a60248201527f4d696e657220737461747573206973206e6f74207374616b6572000000000000604482015290519081900360640190fd5b603a54835114612f86576040805162461bcd60e51b8152602060048201526013602482015272526571756573742049442069732077726f6e6760681b604482015290519081900360640190fd5b603c54602084015114612fd6576040805162461bcd60e51b8152602060048201526013602482015272526571756573742049442069732077726f6e6760681b604482015290519081900360640190fd5b603e54604084015114613026576040805162461bcd60e51b8152602060048201526013602482015272526571756573742049442069732077726f6e6760681b604482015290519081900360640190fd5b604054606084015114613076576040805162461bcd60e51b8152602060048201526013602482015272526571756573742049442069732077726f6e6760681b604482015290519081900360640190fd5b6042546080840151146130c6576040805162461bcd60e51b8152602060048201526013602482015272526571756573742049442069732077726f6e6760681b604482015290519081900360640190fd5b60008181526046602090815260408083204290557f52cb9007c7c6068f8ef37039d4f232cbf5a28ff8d93a5983c4c0c27cd2f9bc0d547f7df1eb1754bc067736ff3d89af41d339bf906d31b0f5978e3c78f402d4ed2492548185526039845282852033865290935292205460ff16156131705760405162461bcd60e51b8152600401808060200182810382526021815260200180614e956021913960400191505060405180910390fd5b60008281526039602090815260408083203384528252808320805460ff191660011790557fe97d205f7d20bf394e3813033d2203b4733acb28b351c8d2a771647ab0d41c3c54835260458252808320875184805260068201909352922083600581106131d857fe5b01556020808601516001600090815260068401909252604090912083600581106131fe57fe5b0155604080860151600260009081526006840160205291909120836005811061322357fe5b01556060850151600360009081526006830160205260409020836005811061324757fe5b01556080850151600460009081526006830160205260409020836005811061326b57fe5b015560008080526005808301602052604090912033918490811061328b57fe5b0180546001600160a01b0319166001600160a01b039290921691909117905560016000908152600582810160205260409091203391849081106132ca57fe5b0180546001600160a01b0319166001600160a01b0392909216919091179055600260009081526005828101602052604090912033918490811061330957fe5b0180546001600160a01b0319166001600160a01b0392909216919091179055600360009081526005828101602052604090912033918490811061334857fe5b0180546001600160a01b0319166001600160a01b0392909216919091179055600460009081526005828101602052604090912033918490811061338757fe5b0180546001600160a01b0319166001600160a01b039290921691909117905560018201600414156133ba576133ba613cbb565b82336001600160a01b03167f9d2e5f03fc65aff196e0f3a8dd924b24099de487e8cffc888921d420ab196e3989898987604051808060200185600560200280838360005b838110156134165781810151838201526020016133fe565b5050505090500184600560200280838360005b83811015613441578181015183820152602001613429565b50505050905001838152602001828103825286818151815260200191508051906020019080838360005b8381101561348357818101518382015260200161346b565b50505050905090810190601f1680156134b05780820380516001836020036101000a031916815260200191505b509550505050505060405180910390a38160010160051415613528576134d68787613df9565b7fdfbec46864bc123768f0d134913175d9577a55bb71b9b2595fda21e21f36b082600090815260466020527f7df1eb1754bc067736ff3d89af41d339bf906d31b0f5978e3c78f402d4ed24925561357a565b7fdfbec46864bc123768f0d134913175d9577a55bb71b9b2595fda21e21f36b08260005260466020527f7df1eb1754bc067736ff3d89af41d339bf906d31b0f5978e3c78f402d4ed2492805460010190555b50505050505050565b8061358d5761372f565b6135978282611832565b6135d25760405162461bcd60e51b8152600401808060200182810382526027815260200180614ddb6027913960400191505060405180910390fd5b60006135dd8361104a565b9050816001600160801b038083168284039091161115613638576040805162461bcd60e51b815260206004820152601160248201527013dd995c999b1bddc81a185c1c195b9959607a1b604482015290519081900360640190fd5b7fe6148e7230ca038d456350e69a91b66968b222bfac9ebfbea6ff0a1fb738016060005260466020527ffffeead1ec15181fd57b4590d95e0c076bccb59e311315e8b38f23c710aa7c3e548381038110156136ce576040805162461bcd60e51b815260206004820152601160248201527013dd995c999b1bddc81a185c1c195b9959607a1b604482015290519081900360640190fd5b6136da85838503613bbf565b50507fe6148e7230ca038d456350e69a91b66968b222bfac9ebfbea6ff0a1fb73801606000525060466020527ffffeead1ec15181fd57b4590d95e0c076bccb59e311315e8b38f23c710aa7c3e805482900390555b5050565b6000828152604560209081526040808320600080516020614f008339815191528452600181019092529091205461376a9083614664565b600080516020614f008339815191526000908152600183016020526040902055603a5483148061379b5750603c5483145b806137a75750603e5483145b806137b3575060405483145b806137bf575060425483145b156137f557600080516020614e438339815191526000526046602052600080516020614e028339815191528054830190556122c0565b7ff68d680ab3160f1aa5d9c3a1383c49e3e60bf3c0c031245cbb036f5ce99afaa1600090815260018201602052604090205461392b5760408051610660810191829052600091829161386691839060339082845b81548152602001906001019080831161384957505050505061467a565b600080516020614f0083398151915260009081526001860160205260409020549193509150821080613896575081155b1561392457600080516020614f0083398151915260009081526001840160205260408120549082603381106138c757fe5b0155600081815260356020908152604080832080548452604583528184207ff68d680ab3160f1aa5d9c3a1383c49e3e60bf3c0c031245cbb036f5ce99afaa185526001908101845282852085905590899055860190915290208190555b50506122c0565b7ff68d680ab3160f1aa5d9c3a1383c49e3e60bf3c0c031245cbb036f5ce99afaa160009081526001820160205260408120548391906033811061396a57fe5b0180549091019055505050565b6001600160a01b0381166000908152604b602052604090205460ff16156139d8576040805162461bcd60e51b815260206004820152601060248201526f105b1c9958591e481b5a59dc985d195960821b604482015290519081900360640190fd5b7f56e0987db9eaec01ed9e0af003a0fd5c062371f9d23722eb4a3ebc74f16ea371600052604760209081527fc930326aab6c1874fc004d856083a6ed34e057e064970b7effb48e8e6e8ca12754604080516370a0823160e01b81526001600160a01b0380861660048301529151613aa294869493909316926370a082319260248082019391829003018186803b158015613a7157600080fd5b505afa158015613a85573d6000803e3d6000fd5b505050506040513d6020811015613a9b57600080fd5b50516146c9565b6001600160a01b03166000908152604b60205260409020805460ff19166001179055565b600082821115613ad257fe5b50900390565b80613b3e576001600160a01b0383166000908152604b602052604090205460ff1615613b3e576040805162461bcd60e51b815260206004820152601060248201526f185b1c9958591e481b5a59dc985d195960821b604482015290519081900360640190fd5b613b4883836146c9565b50506001600160a01b03166000908152604b60205260409020805460ff19166001179055565b600080821315613b8b575081810182811215613b8657fe5b61084a565b508181018281131561084a57fe5b600080821315613bb1575080820382811315613b8657fe5b508082038281121561084a57fe5b6001600160a01b038216600090815260496020526040902080541580613c0c57508054439082906000198101908110613bf457fe5b6000918252602090912001546001600160801b031614155b15613c7d5760408051808201909152436001600160801b0390811682528381166020808401918252845460018101865560008681529190912093519301805491516fffffffffffffffffffffffffffffffff19909216938316939093178216600160801b91909216021790556122c0565b805460009082906000198101908110613c9257fe5b600091825260209091200180546001600160801b03808616600160801b02911617905550505050565b7f2c8b528fbaf48aaf13162a5a0519a7ad5a612da8ff8783465c17e076660a59f1600090815260466020527f231bb0dc207f13dd4e565ebc32496c470e35391bd8d3b6649269ee2328e0311854420390613d176104b0836148f8565b60466020527f5bccd7373734898281f858d7562320d2cdfc0b17bd72f779686937174d150025547fd4f87b8d0f3d3b7e665df74631f6100b2695daa0e30e40eeac02172e15a999e16000527f8156e704072c396780f8253d0562de28216b73a1503daa96e259b9cdd951d71c54610fa0929003810291909105915081613d9c57600191505b613da9828201600161490e565b7ff758978fc1647996a3d9992f611883adc442931dc49488312360acc90601759b60005260466020527f5bccd7373734898281f858d7562320d2cdfc0b17bd72f779686937174d15002555505050565b7fe97d205f7d20bf394e3813033d2203b4733acb28b351c8d2a771647ab0d41c3c54600090815260456020908152604082207f52cb9007c7c6068f8ef37039d4f232cbf5a28ff8d93a5983c4c0c27cd2f9bc0d547f2c8b528fbaf48aaf13162a5a0519a7ad5a612da8ff8783465c17e076660a59f190935260469091527f231bb0dc207f13dd4e565ebc32496c470e35391bd8d3b6649269ee2328e031188054429182905591929190613eaa614c88565b613eb2614c88565b60005b60058110156142035760015b600581101561407057600082815260068901602052604081208260058110613ee557fe5b0154905060008960050160008581526020019081526020016000208360058110613f0b57fe5b01546001600160a01b03169050825b600081118015613f495750600085815260068c0160205260409020600019820160058110613f4457fe5b015483105b1561400057600085815260068c0160205260409020600019820160058110613f6d57fe5b0154600086815260068d01602052604090208260058110613f8a57fe5b015560008581526005808d016020526040909120906000198301908110613fad57fe5b015460008681526005808e0160205260409091206001600160a01b03909216919083908110613fd857fe5b0180546001600160a01b0319166001600160a01b039290921691909117905560001901613f1a565b8381101561406557600085815260068c01602052604090208390826005811061402557fe5b015560008581526005808d01602052604090912083918390811061404557fe5b0180546001600160a01b0319166001600160a01b03929092169190911790555b505050600101613ec1565b506000604560008a846005811061408357fe5b6020020151815260200190815260200160002090508760060160008381526020019081526020016000206005806020026040519081016040528092919082600580156140e4576020028201915b8154815260200190600101908083116140d0575b50505050509350836002600581106140f857fe5b602090810291909101516000878152600384019092526040918290205584015183836005811061412457fe5b6020908102919091019190915260008381526005808b0183526040808320898452858301909452909120614159929091614ca6565b5060008281526006808a0160209081526040808420898552928501909152909120614185916005614ca6565b506000828152600589016020526040812061419f91614ce1565b600082815260068901602052604081206141b891614ce1565b805460018181018355600083815260208082209093018890558781526002840183526040808220439055600080516020614f0083398151915282529382019092529181205501613eb5565b50847fbeb3b9f46c8d7bb00c873fca10d307538df350866d25f891ffb395147ddbdc4588858460466000600080516020614e4383398151915260001b8152602001908152602001600020546040518085600560200280838360005b8381101561427657818101518382015260200161425e565b5050505090500184815260200183600560200280838360005b838110156142a757818101518382015260200161428f565b5050505090500182815260200194505050505060405180910390a2603380546001810182556000919091527f82a75bdeeae8604d839476ae9efd8b0e15aa447e21bfd7f41283bb54e22c9a82018390556142ff614c88565b87516000908152604560209081526040808320878452600590810190925291829020825160a08101938490529290919082845b81546001600160a01b031681526001909101906020018083116143325750505050509050614360818661491d565b7ff3b93531fa65b3a18680d9ea49df06d96fbd883c4889dc7db866f8b131602dfb60005260466020527fe97d205f7d20bf394e3813033d2203b4733acb28b351c8d2a771647ab0d41c3c805460010190556143b9614c88565b6143c1614a4f565b905060005b60058110156144d8578181600581106143db57fe5b6020020151603a82600581106143ed57fe5b600202015560008060458185856005811061440457fe5b6020020151815260200190815260200160002060010160007ff68d680ab3160f1aa5d9c3a1383c49e3e60bf3c0c031245cbb036f5ce99afaa160001b8152602001908152602001600020546033811061445957fe5b01556045600083836005811061446b57fe5b6020908102919091015182528181019290925260409081016000908120600080516020614f0083398151915282526001908101845291812054600080516020614e438339815191529091526046909252600080516020614e028339815191528054909201909155016143c6565b50898760014303406040516020018080602001848152602001838152602001828103825285818151815260200191508051906020019080838360005b8381101561452c578181015183820152602001614514565b50505050905090810190601f1680156145595780820380516001836020036101000a031916815260200191505b5060408051601f198184030181529082905280516020918201207f52cb9007c7c6068f8ef37039d4f232cbf5a28ff8d93a5983c4c0c27cd2f9bc0d81905560469091527f5bccd7373734898281f858d7562320d2cdfc0b17bd72f779686937174d15002554600080516020614e438339815191526000908152600080516020614e0283398151915254929f508f98507f1d85ce10456e29b67de37887496d3f1fcf1b64c79c4d07484038703a9f5c140897508996509094509092508190859060a0908190849084905b8381101561463a578181015183820152602001614622565b5050505091909101938452505060208201526040805191829003019150a250505050505050505050565b60008282018381101561467357fe5b9392505050565b610640810151603260315b80156146c3578284826033811061469857fe5b602002015110156146ba578381603381106146af57fe5b602002015192508091505b60001901614685565b50915091565b806147055760405162461bcd60e51b8152600401808060200182810382526021815260200180614dba6021913960400191505060405180910390fd5b6001600160a01b038216614758576040805162461bcd60e51b815260206004820152601560248201527452656365697665722069732030206164647265737360581b604482015290519081900360640190fd5b60006147638361104a565b9050816001600160801b0380831682840190911610156147be576040805162461bcd60e51b815260206004820152601160248201527013dd995c999b1bddc81a185c1c195b9959607a1b604482015290519081900360640190fd5b7fe6148e7230ca038d456350e69a91b66968b222bfac9ebfbea6ff0a1fb738016060005260466020527ffffeead1ec15181fd57b4590d95e0c076bccb59e311315e8b38f23c710aa7c3e54838101811115614854576040805162461bcd60e51b815260206004820152601160248201527013dd995c999b1bddc81a185c1c195b9959607a1b604482015290519081900360640190fd5b7fe6148e7230ca038d456350e69a91b66968b222bfac9ebfbea6ff0a1fb738016060005260466020527ffffeead1ec15181fd57b4590d95e0c076bccb59e311315e8b38f23c710aa7c3e8054850190556148b085848401613bbf565b6040805185815290516001600160a01b038716916000917fddf252ad1be2c89b69c2b068fc378daa952ba7f163c4a11628f55a4df523b3ef9181900360200190a35050505050565b60008183106149075781614673565b5090919050565b60008183136149075781614673565b60466020527fc2c579d641b643400780d5c7ce967b420034b9f66962a5ee405cf70e4cbed6bb54600080516020614e438339815191526000908152600080516020614e0283398151915254428490039261012c9084020491600a9091049060028304906149949087905b60200201518385016146c9565b61499f866001614987565b6149aa866002614987565b6149b5866003614987565b6149c0866004614987565b7f7a39905194de50bde334d18b76bbb36dddd11641d4d50b470cb837cf3bae5def60005260476020527fb5f7e7387e8e977cc9c4c9513388b0d7224264b9a0159cd8e8bdd84a9ed504c354614a1e906001600160a01b0316826146c9565b5050600080516020614e4383398151915260009081526046602052600080516020614e028339815191525550505050565b614a57614c88565b614a5f614c88565b614a67614c88565b60408051610660810191829052614a9e9160009060339082845b815481526020019060010190808311614a81575050505050614b34565b909250905060005b6005811015614b2e57828160058110614abb57fe5b602002015115614aff5760356000838360058110614ad557fe5b6020020151815260200190815260200160002054848260058110614af557fe5b6020020152614b26565b603a8160040360058110614b0f57fe5b6002020154848260058110614b2057fe5b60200201525b600101614aa6565b50505090565b614b3c614c88565b614b44614c88565b60208301516000805b6005811015614bc757858160010160338110614b6557fe5b6020020151858260058110614b7657fe5b602002015260018101848260058110614b8b57fe5b602002015282858260058110614b9d57fe5b60200201511015614bbf57848160058110614bb457fe5b602002015192508091505b600101614b4d565b5060065b6033811015614c805782868260338110614be157fe5b60200201511115614c7857858160338110614bf857fe5b6020020151858360058110614c0957fe5b602002015280848360058110614c1b57fe5b6020020152858160338110614c2c57fe5b6020020151925060005b6005811015614c765783868260058110614c4c57fe5b60200201511015614c6e57858160058110614c6357fe5b602002015193508092505b600101614c36565b505b600101614bcb565b505050915091565b6040518060a001604052806005906020820280368337509192915050565b8260058101928215614cd1579182015b82811115614cd1578254825591600101919060010190614cb6565b50614cdd929150614d04565b5090565b506000815560010160008155600101600081556001016000815560010160009055565b5b80821115614cdd5760008155600101614d0556fe4d696e65722063616e206f6e6c792077696e2072657761726473206f6e636520706572203135206d696e66756e6374696f6e206e6f742063616c6c61626c6520666f726b20666f726b2070726f706f73616c7345524332303a20617070726f766520746f20746865207a65726f206164647265737354696d6520666f72206120666f6c6c6f772075702064697370757465206861736e277420656c6170736564547269656420746f206d696e74206e6f6e2d706f73697469766520616d6f756e7453686f756c6420686176652073756666696369656e742062616c616e636520746f20747261646538b16d06a20ab673b01c748aff938df6a38f81640035f4ce8bd9abb03aae5b72547269656420746f2073656e64206e6f6e2d706f73697469766520616d6f756e7409659d32f99e50ac728058418d38174fe83a137c455ff1847e6fb8e15f78f77a44697370757465206d75737420626520737461727465642077697468696e2061207765656b206f66206261642076616c75654d696e657220616c7265616479207375626d6974746564207468652076616c756574686520646973707574652068617320616c7265616479206265656e206578656375746564496e636f7272656374206e6f6e636520666f722063757272656e74206368616c6c656e67651590276b7f31dd8e2a06f9a92867333eeb3eddbc91e73b9833e3e55d8e34f77da26469706673582212209a97901c34feb44bc3c43dabce0b38daa071621312044e010d322b97316ae76064736f6c63430007040033","opcodes":"PUSH1 0xA0 PUSH1 0x40 MSTORE CALLVALUE DUP1 ISZERO PUSH2 0x10 JUMPI PUSH1 0x0 DUP1 REVERT JUMPDEST POP PUSH1 0x40 MLOAD PUSH3 0x4FBF CODESIZE SUB DUP1 PUSH3 0x4FBF DUP4 CODECOPY DUP2 DUP2 ADD PUSH1 0x40 MSTORE PUSH1 0x20 DUP2 LT ISZERO PUSH2 0x35 JUMPI PUSH1 0x0 DUP1 REVERT JUMPDEST POP MLOAD PUSH1 0x60 DUP2 SWAP1 SHL PUSH1 0x1 PUSH1 0x1 PUSH1 0x60 SHL SUB NOT AND PUSH1 0x80 MSTORE PUSH1 0x1 PUSH1 0x1 PUSH1 0xA0 SHL SUB AND PUSH2 0x4F55 PUSH3 0x6A PUSH1 0x0 CODECOPY DUP1 PUSH2 0x1C8 MSTORE POP PUSH2 0x4F55 PUSH1 0x0 RETURN INVALID PUSH1 0x80 PUSH1 0x40 MSTORE CALLVALUE DUP1 ISZERO PUSH2 0x10 JUMPI PUSH1 0x0 DUP1 REVERT JUMPDEST POP PUSH1 0x4 CALLDATASIZE LT PUSH2 0x1C4 JUMPI PUSH1 0x0 CALLDATALOAD PUSH1 0xE0 SHR DUP1 PUSH4 0x752D49A1 GT PUSH2 0xF9 JUMPI DUP1 PUSH4 0xB59E14D4 GT PUSH2 0x97 JUMPI DUP1 PUSH4 0xD01F4D9E GT PUSH2 0x71 JUMPI DUP1 PUSH4 0xD01F4D9E EQ PUSH2 0x6C4 JUMPI DUP1 PUSH4 0xDB085BEB EQ PUSH2 0x6E1 JUMPI DUP1 PUSH4 0xDD62ED3E EQ PUSH2 0x74E JUMPI DUP1 PUSH4 0xFC735E99 EQ PUSH2 0x77C JUMPI PUSH2 0x1C4 JUMP JUMPDEST DUP1 PUSH4 0xB59E14D4 EQ PUSH2 0x627 JUMPI DUP1 PUSH4 0xC9D27AFE EQ PUSH2 0x644 JUMPI DUP1 PUSH4 0xCBF1304D EQ PUSH2 0x669 JUMPI PUSH2 0x1C4 JUMP JUMPDEST DUP1 PUSH4 0x999CF26C GT PUSH2 0xD3 JUMPI DUP1 PUSH4 0x999CF26C EQ PUSH2 0x57E JUMPI DUP1 PUSH4 0x9A01CA13 EQ PUSH2 0x5AA JUMPI DUP1 PUSH4 0xA9059CBB EQ PUSH2 0x5C7 JUMPI DUP1 PUSH4 0xA9FA7D34 EQ PUSH2 0x5F3 JUMPI PUSH2 0x1C4 JUMP JUMPDEST DUP1 PUSH4 0x752D49A1 EQ PUSH2 0x52A JUMPI DUP1 PUSH4 0x8581AF19 EQ PUSH2 0x54D JUMPI DUP1 PUSH4 0x8FD3AB80 EQ PUSH2 0x576 JUMPI PUSH2 0x1C4 JUMP JUMPDEST DUP1 PUSH4 0x48B18E54 GT PUSH2 0x166 JUMPI DUP1 PUSH4 0x5700242C GT PUSH2 0x140 JUMPI DUP1 PUSH4 0x5700242C EQ PUSH2 0x491 JUMPI DUP1 PUSH4 0x62DD1D2A EQ PUSH2 0x4AE JUMPI DUP1 PUSH4 0x699F200F EQ PUSH2 0x4CB JUMPI DUP1 PUSH4 0x70A08231 EQ PUSH2 0x504 JUMPI PUSH2 0x1C4 JUMP JUMPDEST DUP1 PUSH4 0x48B18E54 EQ PUSH2 0x413 JUMPI DUP1 PUSH4 0x4BA0A5EE EQ PUSH2 0x43F JUMPI DUP1 PUSH4 0x4EE2CD7E EQ PUSH2 0x465 JUMPI PUSH2 0x1C4 JUMP JUMPDEST DUP1 PUSH4 0x23B872DD GT PUSH2 0x1A2 JUMPI DUP1 PUSH4 0x23B872DD EQ PUSH2 0x324 JUMPI DUP1 PUSH4 0x26B7D9F6 EQ PUSH2 0x35A JUMPI DUP1 PUSH4 0x4350283E EQ PUSH2 0x382 JUMPI DUP1 PUSH4 0x438C0AA3 EQ PUSH2 0x3F6 JUMPI PUSH2 0x1C4 JUMP JUMPDEST DUP1 PUSH4 0x24C2DDD EQ PUSH2 0x266 JUMPI DUP1 PUSH4 0x95EA7B3 EQ PUSH2 0x2A6 JUMPI DUP1 PUSH4 0x1FD22364 EQ PUSH2 0x2E6 JUMPI JUMPDEST PUSH1 0x0 PUSH32 0x0 SWAP1 POP PUSH1 0x0 DUP2 PUSH1 0x1 PUSH1 0x1 PUSH1 0xA0 SHL SUB AND PUSH1 0x0 CALLDATASIZE PUSH1 0x40 MLOAD DUP1 DUP4 DUP4 DUP1 DUP3 DUP5 CALLDATACOPY PUSH1 0x40 MLOAD SWAP3 ADD SWAP5 POP PUSH1 0x0 SWAP4 POP SWAP1 SWAP2 POP POP DUP1 DUP4 SUB DUP2 DUP6 GAS DELEGATECALL SWAP2 POP POP RETURNDATASIZE DUP1 PUSH1 0x0 DUP2 EQ PUSH2 0x247 JUMPI PUSH1 0x40 MLOAD SWAP2 POP PUSH1 0x1F NOT PUSH1 0x3F RETURNDATASIZE ADD AND DUP3 ADD PUSH1 0x40 MSTORE RETURNDATASIZE DUP3 MSTORE RETURNDATASIZE PUSH1 0x0 PUSH1 0x20 DUP5 ADD RETURNDATACOPY PUSH2 0x24C JUMP JUMPDEST PUSH1 0x60 SWAP2 POP JUMPDEST POP POP SWAP1 POP RETURNDATASIZE PUSH1 0x0 DUP1 RETURNDATACOPY DUP1 DUP1 ISZERO PUSH2 0x261 JUMPI RETURNDATASIZE PUSH1 0x0 RETURN JUMPDEST RETURNDATASIZE PUSH1 0x0 REVERT JUMPDEST PUSH2 0x294 PUSH1 0x4 DUP1 CALLDATASIZE SUB PUSH1 0x40 DUP2 LT ISZERO PUSH2 0x27C JUMPI PUSH1 0x0 DUP1 REVERT JUMPDEST POP PUSH1 0x1 PUSH1 0x1 PUSH1 0xA0 SHL SUB DUP2 CALLDATALOAD DUP2 AND SWAP2 PUSH1 0x20 ADD CALLDATALOAD AND PUSH2 0x784 JUMP JUMPDEST PUSH1 0x40 DUP1 MLOAD SWAP2 DUP3 MSTORE MLOAD SWAP1 DUP2 SWAP1 SUB PUSH1 0x20 ADD SWAP1 RETURN JUMPDEST PUSH2 0x2D2 PUSH1 0x4 DUP1 CALLDATASIZE SUB PUSH1 0x40 DUP2 LT ISZERO PUSH2 0x2BC JUMPI PUSH1 0x0 DUP1 REVERT JUMPDEST POP PUSH1 0x1 PUSH1 0x1 PUSH1 0xA0 SHL SUB DUP2 CALLDATALOAD AND SWAP1 PUSH1 0x20 ADD CALLDATALOAD PUSH2 0x7A1 JUMP JUMPDEST PUSH1 0x40 DUP1 MLOAD SWAP2 ISZERO ISZERO DUP3 MSTORE MLOAD SWAP1 DUP2 SWAP1 SUB PUSH1 0x20 ADD SWAP1 RETURN JUMPDEST PUSH2 0x303 PUSH1 0x4 DUP1 CALLDATASIZE SUB PUSH1 0x20 DUP2 LT ISZERO PUSH2 0x2FC JUMPI PUSH1 0x0 DUP1 REVERT JUMPDEST POP CALLDATALOAD PUSH2 0x850 JUMP JUMPDEST PUSH1 0x40 DUP1 MLOAD SWAP3 DUP4 MSTORE PUSH1 0x1 PUSH1 0x1 PUSH1 0xA0 SHL SUB SWAP1 SWAP2 AND PUSH1 0x20 DUP4 ADD MSTORE DUP1 MLOAD SWAP2 DUP3 SWAP1 SUB ADD SWAP1 RETURN JUMPDEST PUSH2 0x2D2 PUSH1 0x4 DUP1 CALLDATASIZE SUB PUSH1 0x60 DUP2 LT ISZERO PUSH2 0x33A JUMPI PUSH1 0x0 DUP1 REVERT JUMPDEST POP PUSH1 0x1 PUSH1 0x1 PUSH1 0xA0 SHL SUB DUP2 CALLDATALOAD DUP2 AND SWAP2 PUSH1 0x20 DUP2 ADD CALLDATALOAD SWAP1 SWAP2 AND SWAP1 PUSH1 0x40 ADD CALLDATALOAD PUSH2 0x87B JUMP JUMPDEST PUSH2 0x380 PUSH1 0x4 DUP1 CALLDATASIZE SUB PUSH1 0x20 DUP2 LT ISZERO PUSH2 0x370 JUMPI PUSH1 0x0 DUP1 REVERT JUMPDEST POP CALLDATALOAD PUSH1 0x1 PUSH1 0x1 PUSH1 0xA0 SHL SUB AND PUSH2 0x927 JUMP JUMPDEST STOP JUMPDEST PUSH2 0x380 PUSH1 0x4 DUP1 CALLDATASIZE SUB PUSH2 0x160 DUP2 LT ISZERO PUSH2 0x399 JUMPI PUSH1 0x0 DUP1 REVERT JUMPDEST DUP2 ADD SWAP1 PUSH1 0x20 DUP2 ADD DUP2 CALLDATALOAD PUSH5 0x100000000 DUP2 GT ISZERO PUSH2 0x3B4 JUMPI PUSH1 0x0 DUP1 REVERT JUMPDEST DUP3 ADD DUP4 PUSH1 0x20 DUP3 ADD GT ISZERO PUSH2 0x3C6 JUMPI PUSH1 0x0 DUP1 REVERT JUMPDEST DUP1 CALLDATALOAD SWAP1 PUSH1 0x20 ADD SWAP2 DUP5 PUSH1 0x1 DUP4 MUL DUP5 ADD GT PUSH5 0x100000000 DUP4 GT OR ISZERO PUSH2 0x3E8 JUMPI PUSH1 0x0 DUP1 REVERT JUMPDEST SWAP2 SWAP4 POP SWAP2 POP PUSH1 0xA0 DUP2 ADD PUSH2 0xC4B JUMP JUMPDEST PUSH2 0x294 PUSH1 0x4 DUP1 CALLDATASIZE SUB PUSH1 0x20 DUP2 LT ISZERO PUSH2 0x40C JUMPI PUSH1 0x0 DUP1 REVERT JUMPDEST POP CALLDATALOAD PUSH2 0xE0A JUMP JUMPDEST PUSH2 0x2D2 PUSH1 0x4 DUP1 CALLDATASIZE SUB PUSH1 0x40 DUP2 LT ISZERO PUSH2 0x429 JUMPI PUSH1 0x0 DUP1 REVERT JUMPDEST POP DUP1 CALLDATALOAD SWAP1 PUSH1 0x20 ADD CALLDATALOAD PUSH1 0x1 PUSH1 0x1 PUSH1 0xA0 SHL SUB AND PUSH2 0xE2B JUMP JUMPDEST PUSH2 0x2D2 PUSH1 0x4 DUP1 CALLDATASIZE SUB PUSH1 0x20 DUP2 LT ISZERO PUSH2 0x455 JUMPI PUSH1 0x0 DUP1 REVERT JUMPDEST POP CALLDATALOAD PUSH1 0x1 PUSH1 0x1 PUSH1 0xA0 SHL SUB AND PUSH2 0xE4B JUMP JUMPDEST PUSH2 0x294 PUSH1 0x4 DUP1 CALLDATASIZE SUB PUSH1 0x40 DUP2 LT ISZERO PUSH2 0x47B JUMPI PUSH1 0x0 DUP1 REVERT JUMPDEST POP PUSH1 0x1 PUSH1 0x1 PUSH1 0xA0 SHL SUB DUP2 CALLDATALOAD AND SWAP1 PUSH1 0x20 ADD CALLDATALOAD PUSH2 0xE60 JUMP JUMPDEST PUSH2 0x294 PUSH1 0x4 DUP1 CALLDATASIZE SUB PUSH1 0x20 DUP2 LT ISZERO PUSH2 0x4A7 JUMPI PUSH1 0x0 DUP1 REVERT JUMPDEST POP CALLDATALOAD PUSH2 0x100B JUMP JUMPDEST PUSH2 0x294 PUSH1 0x4 DUP1 CALLDATASIZE SUB PUSH1 0x20 DUP2 LT ISZERO PUSH2 0x4C4 JUMPI PUSH1 0x0 DUP1 REVERT JUMPDEST POP CALLDATALOAD PUSH2 0x101D JUMP JUMPDEST PUSH2 0x4E8 PUSH1 0x4 DUP1 CALLDATASIZE SUB PUSH1 0x20 DUP2 LT ISZERO PUSH2 0x4E1 JUMPI PUSH1 0x0 DUP1 REVERT JUMPDEST POP CALLDATALOAD PUSH2 0x102F JUMP JUMPDEST PUSH1 0x40 DUP1 MLOAD PUSH1 0x1 PUSH1 0x1 PUSH1 0xA0 SHL SUB SWAP1 SWAP3 AND DUP3 MSTORE MLOAD SWAP1 DUP2 SWAP1 SUB PUSH1 0x20 ADD SWAP1 RETURN JUMPDEST PUSH2 0x294 PUSH1 0x4 DUP1 CALLDATASIZE SUB PUSH1 0x20 DUP2 LT ISZERO PUSH2 0x51A JUMPI PUSH1 0x0 DUP1 REVERT JUMPDEST POP CALLDATALOAD PUSH1 0x1 PUSH1 0x1 PUSH1 0xA0 SHL SUB AND PUSH2 0x104A JUMP JUMPDEST PUSH2 0x380 PUSH1 0x4 DUP1 CALLDATASIZE SUB PUSH1 0x40 DUP2 LT ISZERO PUSH2 0x540 JUMPI PUSH1 0x0 DUP1 REVERT JUMPDEST POP DUP1 CALLDATALOAD SWAP1 PUSH1 0x20 ADD CALLDATALOAD PUSH2 0x1056 JUMP JUMPDEST PUSH2 0x380 PUSH1 0x4 DUP1 CALLDATASIZE SUB PUSH1 0x60 DUP2 LT ISZERO PUSH2 0x563 JUMPI PUSH1 0x0 DUP1 REVERT JUMPDEST POP DUP1 CALLDATALOAD SWAP1 PUSH1 0x20 DUP2 ADD CALLDATALOAD SWAP1 PUSH1 0x40 ADD CALLDATALOAD PUSH2 0x1266 JUMP JUMPDEST PUSH2 0x380 PUSH2 0x1827 JUMP JUMPDEST PUSH2 0x2D2 PUSH1 0x4 DUP1 CALLDATASIZE SUB PUSH1 0x40 DUP2 LT ISZERO PUSH2 0x594 JUMPI PUSH1 0x0 DUP1 REVERT JUMPDEST POP PUSH1 0x1 PUSH1 0x1 PUSH1 0xA0 SHL SUB DUP2 CALLDATALOAD AND SWAP1 PUSH1 0x20 ADD CALLDATALOAD PUSH2 0x1832 JUMP JUMPDEST PUSH2 0x380 PUSH1 0x4 DUP1 CALLDATASIZE SUB PUSH1 0x20 DUP2 LT ISZERO PUSH2 0x5C0 JUMPI PUSH1 0x0 DUP1 REVERT JUMPDEST POP CALLDATALOAD PUSH2 0x18FE JUMP JUMPDEST PUSH2 0x2D2 PUSH1 0x4 DUP1 CALLDATASIZE SUB PUSH1 0x40 DUP2 LT ISZERO PUSH2 0x5DD JUMPI PUSH1 0x0 DUP1 REVERT JUMPDEST POP PUSH1 0x1 PUSH1 0x1 PUSH1 0xA0 SHL SUB DUP2 CALLDATALOAD AND SWAP1 PUSH1 0x20 ADD CALLDATALOAD PUSH2 0x220A JUMP JUMPDEST PUSH2 0x380 PUSH1 0x4 DUP1 CALLDATASIZE SUB PUSH1 0x60 DUP2 LT ISZERO PUSH2 0x609 JUMPI PUSH1 0x0 DUP1 REVERT JUMPDEST POP PUSH1 0x1 PUSH1 0x1 PUSH1 0xA0 SHL SUB DUP2 CALLDATALOAD AND SWAP1 PUSH1 0x20 DUP2 ADD CALLDATALOAD SWAP1 PUSH1 0x40 ADD CALLDATALOAD ISZERO ISZERO PUSH2 0x2220 JUMP JUMPDEST PUSH2 0x294 PUSH1 0x4 DUP1 CALLDATASIZE SUB PUSH1 0x20 DUP2 LT ISZERO PUSH2 0x63D JUMPI PUSH1 0x0 DUP1 REVERT JUMPDEST POP CALLDATALOAD PUSH2 0x22C5 JUMP JUMPDEST PUSH2 0x380 PUSH1 0x4 DUP1 CALLDATASIZE SUB PUSH1 0x40 DUP2 LT ISZERO PUSH2 0x65A JUMPI PUSH1 0x0 DUP1 REVERT JUMPDEST POP DUP1 CALLDATALOAD SWAP1 PUSH1 0x20 ADD CALLDATALOAD ISZERO ISZERO PUSH2 0x22D7 JUMP JUMPDEST PUSH2 0x695 PUSH1 0x4 DUP1 CALLDATASIZE SUB PUSH1 0x40 DUP2 LT ISZERO PUSH2 0x67F JUMPI PUSH1 0x0 DUP1 REVERT JUMPDEST POP PUSH1 0x1 PUSH1 0x1 PUSH1 0xA0 SHL SUB DUP2 CALLDATALOAD AND SWAP1 PUSH1 0x20 ADD CALLDATALOAD PUSH2 0x25E4 JUMP JUMPDEST PUSH1 0x40 MLOAD DUP1 DUP4 PUSH1 0x1 PUSH1 0x1 PUSH1 0x80 SHL SUB AND DUP2 MSTORE PUSH1 0x20 ADD DUP3 PUSH1 0x1 PUSH1 0x1 PUSH1 0x80 SHL SUB AND DUP2 MSTORE PUSH1 0x20 ADD SWAP3 POP POP POP PUSH1 0x40 MLOAD DUP1 SWAP2 SUB SWAP1 RETURN JUMPDEST PUSH2 0x294 PUSH1 0x4 DUP1 CALLDATASIZE SUB PUSH1 0x20 DUP2 LT ISZERO PUSH2 0x6DA JUMPI PUSH1 0x0 DUP1 REVERT JUMPDEST POP CALLDATALOAD PUSH2 0x2627 JUMP JUMPDEST PUSH2 0x6FE PUSH1 0x4 DUP1 CALLDATASIZE SUB PUSH1 0x20 DUP2 LT ISZERO PUSH2 0x6F7 JUMPI PUSH1 0x0 DUP1 REVERT JUMPDEST POP CALLDATALOAD PUSH2 0x2639 JUMP JUMPDEST PUSH1 0x40 DUP1 MLOAD SWAP9 DUP10 MSTORE PUSH1 0x20 DUP10 ADD SWAP8 SWAP1 SWAP8 MSTORE SWAP5 ISZERO ISZERO DUP8 DUP8 ADD MSTORE SWAP3 ISZERO ISZERO PUSH1 0x60 DUP8 ADD MSTORE SWAP1 ISZERO ISZERO PUSH1 0x80 DUP7 ADD MSTORE PUSH1 0x1 PUSH1 0x1 PUSH1 0xA0 SHL SUB SWAP1 DUP2 AND PUSH1 0xA0 DUP7 ADD MSTORE SWAP1 DUP2 AND PUSH1 0xC0 DUP6 ADD MSTORE AND PUSH1 0xE0 DUP4 ADD MSTORE MLOAD SWAP1 DUP2 SWAP1 SUB PUSH2 0x100 ADD SWAP1 RETURN JUMPDEST PUSH2 0x294 PUSH1 0x4 DUP1 CALLDATASIZE SUB PUSH1 0x40 DUP2 LT ISZERO PUSH2 0x764 JUMPI PUSH1 0x0 DUP1 REVERT JUMPDEST POP PUSH1 0x1 PUSH1 0x1 PUSH1 0xA0 SHL SUB DUP2 CALLDATALOAD DUP2 AND SWAP2 PUSH1 0x20 ADD CALLDATALOAD AND PUSH2 0x2695 JUMP JUMPDEST PUSH2 0x294 PUSH2 0x26C0 JUMP JUMPDEST PUSH1 0x4A PUSH1 0x20 SWAP1 DUP2 MSTORE PUSH1 0x0 SWAP3 DUP4 MSTORE PUSH1 0x40 DUP1 DUP5 KECCAK256 SWAP1 SWAP2 MSTORE SWAP1 DUP3 MSTORE SWAP1 KECCAK256 SLOAD DUP2 JUMP JUMPDEST PUSH1 0x0 PUSH1 0x1 PUSH1 0x1 PUSH1 0xA0 SHL SUB DUP4 AND PUSH2 0x7E8 JUMPI PUSH1 0x40 MLOAD PUSH3 0x461BCD PUSH1 0xE5 SHL DUP2 MSTORE PUSH1 0x4 ADD DUP1 DUP1 PUSH1 0x20 ADD DUP3 DUP2 SUB DUP3 MSTORE PUSH1 0x22 DUP2 MSTORE PUSH1 0x20 ADD DUP1 PUSH2 0x4D6D PUSH1 0x22 SWAP2 CODECOPY PUSH1 0x40 ADD SWAP2 POP POP PUSH1 0x40 MLOAD DUP1 SWAP2 SUB SWAP1 REVERT JUMPDEST CALLER PUSH1 0x0 DUP2 DUP2 MSTORE PUSH1 0x4A PUSH1 0x20 SWAP1 DUP2 MSTORE PUSH1 0x40 DUP1 DUP4 KECCAK256 PUSH1 0x1 PUSH1 0x1 PUSH1 0xA0 SHL SUB DUP9 AND DUP1 DUP6 MSTORE SWAP1 DUP4 MSTORE SWAP3 DUP2 SWAP1 KECCAK256 DUP7 SWAP1 SSTORE DUP1 MLOAD DUP7 DUP2 MSTORE SWAP1 MLOAD SWAP3 SWAP4 SWAP3 PUSH32 0x8C5BE1E5EBEC7D5BD14F71427D1E84F3DD0314C0F7B2291E5B200AC8C7C3B925 SWAP3 SWAP2 DUP2 SWAP1 SUB SWAP1 SWAP2 ADD SWAP1 LOG3 POP PUSH1 0x1 JUMPDEST SWAP3 SWAP2 POP POP JUMP JUMPDEST PUSH1 0x3A DUP2 PUSH1 0x5 DUP2 LT PUSH2 0x860 JUMPI PUSH1 0x0 DUP1 REVERT JUMPDEST PUSH1 0x2 MUL ADD DUP1 SLOAD PUSH1 0x1 SWAP1 SWAP2 ADD SLOAD SWAP1 SWAP2 POP PUSH1 0x1 PUSH1 0x1 PUSH1 0xA0 SHL SUB AND DUP3 JUMP JUMPDEST PUSH1 0x1 PUSH1 0x1 PUSH1 0xA0 SHL SUB DUP4 AND PUSH1 0x0 SWAP1 DUP2 MSTORE PUSH1 0x4A PUSH1 0x20 SWAP1 DUP2 MSTORE PUSH1 0x40 DUP1 DUP4 KECCAK256 CALLER DUP5 MSTORE SWAP1 SWAP2 MSTORE DUP2 KECCAK256 SLOAD DUP3 GT ISZERO PUSH2 0x8E8 JUMPI PUSH1 0x40 DUP1 MLOAD PUSH3 0x461BCD PUSH1 0xE5 SHL DUP2 MSTORE PUSH1 0x20 PUSH1 0x4 DUP3 ADD MSTORE PUSH1 0x12 PUSH1 0x24 DUP3 ADD MSTORE PUSH18 0x416C6C6F77616E63652069732077726F6E67 PUSH1 0x70 SHL PUSH1 0x44 DUP3 ADD MSTORE SWAP1 MLOAD SWAP1 DUP2 SWAP1 SUB PUSH1 0x64 ADD SWAP1 REVERT JUMPDEST PUSH1 0x1 PUSH1 0x1 PUSH1 0xA0 SHL SUB DUP5 AND PUSH1 0x0 SWAP1 DUP2 MSTORE PUSH1 0x4A PUSH1 0x20 SWAP1 DUP2 MSTORE PUSH1 0x40 DUP1 DUP4 KECCAK256 CALLER DUP5 MSTORE SWAP1 SWAP2 MSTORE SWAP1 KECCAK256 DUP1 SLOAD DUP4 SWAP1 SUB SWAP1 SSTORE PUSH2 0x91D DUP5 DUP5 DUP5 PUSH2 0x26C6 JUMP JUMPDEST POP PUSH1 0x1 SWAP4 SWAP3 POP POP POP JUMP JUMPDEST PUSH32 0xD051321AA26CE60D202F153D0C0E67687E975532AB88CE92D84F18E39895D907 PUSH1 0x0 MSTORE PUSH1 0x46 PUSH1 0x20 MSTORE PUSH32 0x7042ACA2505AA9A8428C1710298EDBAC96E027637D6417651C8AA8F88ED1CA0A SLOAD ISZERO PUSH2 0x9B3 JUMPI PUSH1 0x40 DUP1 MLOAD PUSH3 0x461BCD PUSH1 0xE5 SHL DUP2 MSTORE PUSH1 0x20 PUSH1 0x4 DUP3 ADD MSTORE PUSH1 0xC PUSH1 0x24 DUP3 ADD MSTORE PUSH12 0x6E6F2072656E7472616E6379 PUSH1 0xA0 SHL PUSH1 0x44 DUP3 ADD MSTORE SWAP1 MLOAD SWAP1 DUP2 SWAP1 SUB PUSH1 0x64 ADD SWAP1 REVERT JUMPDEST PUSH32 0xD051321AA26CE60D202F153D0C0E67687E975532AB88CE92D84F18E39895D907 PUSH1 0x0 MSTORE PUSH1 0x46 PUSH1 0x20 MSTORE PUSH1 0x1 PUSH32 0x7042ACA2505AA9A8428C1710298EDBAC96E027637D6417651C8AA8F88ED1CA0A SSTORE PUSH2 0xA09 DUP2 PUSH2 0x287A JUMP JUMPDEST PUSH32 0xD051321AA26CE60D202F153D0C0E67687E975532AB88CE92D84F18E39895D907 PUSH1 0x0 SWAP1 DUP2 MSTORE PUSH1 0x46 PUSH1 0x20 SWAP1 DUP2 MSTORE PUSH32 0x7042ACA2505AA9A8428C1710298EDBAC96E027637D6417651C8AA8F88ED1CA0A DUP3 SWAP1 SSTORE PUSH1 0x40 DUP1 MLOAD PUSH1 0x1 PUSH1 0x1 PUSH1 0xA0 SHL SUB DUP6 AND DUP2 DUP5 ADD MSTORE DUP2 MLOAD DUP1 DUP3 SUB DUP5 ADD DUP2 MSTORE SWAP1 DUP3 ADD DUP3 MSTORE DUP1 MLOAD SWAP1 DUP4 ADD KECCAK256 PUSH32 0x1CE2382BC92689B00BA121FA5A411AA976168AFFDD8AC143A69035DD984B3B6A DUP1 SLOAD PUSH1 0x1 ADD SWAP1 DUP2 SWAP1 SSTORE DUP2 DUP6 MSTORE PUSH1 0x38 SWAP1 SWAP4 MSTORE SWAP3 KECCAK256 SLOAD ISZERO PUSH2 0xB08 JUMPI PUSH1 0x0 DUP3 DUP2 MSTORE PUSH1 0x38 PUSH1 0x20 SWAP1 DUP2 MSTORE PUSH1 0x40 DUP1 DUP4 KECCAK256 SLOAD DUP5 DUP5 MSTORE PUSH1 0x36 DUP4 MSTORE DUP2 DUP5 KECCAK256 PUSH32 0xED92B4C1E0A9E559A31171D487ECBEC963526662038ECFA3A71160BD62FB8733 DUP6 MSTORE PUSH1 0x5 ADD SWAP1 SWAP3 MSTORE SWAP1 SWAP2 KECCAK256 SSTORE PUSH2 0xB1A JUMP JUMPDEST PUSH1 0x0 DUP3 DUP2 MSTORE PUSH1 0x38 PUSH1 0x20 MSTORE PUSH1 0x40 SWAP1 KECCAK256 DUP2 SWAP1 SSTORE JUMPDEST PUSH1 0x0 DUP3 DUP2 MSTORE PUSH1 0x38 PUSH1 0x20 MSTORE PUSH1 0x40 DUP2 KECCAK256 SLOAD PUSH2 0xB34 SWAP1 DUP4 SWAP1 PUSH2 0x29D7 JUMP JUMPDEST PUSH1 0x0 DUP4 DUP2 MSTORE PUSH1 0x36 PUSH1 0x20 MSTORE PUSH1 0x40 DUP2 KECCAK256 DUP6 DUP2 SSTORE PUSH1 0x2 DUP1 DUP3 ADD DUP1 SLOAD PUSH3 0x10000 PUSH3 0xFF0000 NOT SWAP1 SWAP2 AND OR PUSH23 0xFFFFFFFFFFFFFFFFFFFFFFFFFFFFFFFFFFFFFFFF000000 NOT AND CALLER PUSH4 0x1000000 DUP2 MUL SWAP2 SWAP1 SWAP2 OR SWAP1 SWAP2 SSTORE PUSH1 0x3 DUP4 ADD DUP1 SLOAD PUSH1 0x1 PUSH1 0x1 PUSH1 0xA0 SHL SUB NOT SWAP1 DUP2 AND DUP4 OR SWAP1 SWAP2 SSTORE PUSH1 0x4 DUP5 ADD DUP1 SLOAD SWAP1 SWAP2 AND PUSH1 0x1 PUSH1 0x1 PUSH1 0xA0 SHL SUB DUP12 AND OR SWAP1 SSTORE PUSH1 0x1 SWAP1 SWAP3 ADD SWAP3 SWAP1 SWAP3 SSTORE SWAP2 SWAP3 POP PUSH2 0xBD9 SWAP2 SWAP1 ADDRESS SWAP1 PUSH1 0x0 NOT DUP6 ADD SWAP1 EXP PUSH9 0x56BC75E2D63100000 MUL PUSH2 0x26C6 JUMP JUMPDEST POP PUSH1 0x0 SWAP1 DUP2 MSTORE PUSH1 0x36 PUSH1 0x20 SWAP1 DUP2 MSTORE PUSH1 0x40 DUP1 DUP4 KECCAK256 PUSH32 0x4B4CEFD5CED7569EF0D091282B4BCA9C52A034C56471A6061AFD1BF307A2DE7C DUP5 MSTORE PUSH1 0x5 ADD SWAP1 SWAP2 MSTORE DUP1 DUP3 KECCAK256 NUMBER SWAP1 SSTORE PUSH32 0x46F7D53798D31923F6952572C6A19AD2D1A8238D26649C2F3493A6D69E425D28 DUP3 MSTORE SWAP1 KECCAK256 TIMESTAMP PUSH3 0x93A80 ADD SWAP1 SSTORE POP POP JUMP JUMPDEST PUSH1 0x40 DUP1 MLOAD CALLER PUSH1 0x20 DUP1 DUP4 ADD SWAP2 SWAP1 SWAP2 MSTORE DUP3 MLOAD DUP1 DUP4 SUB DUP3 ADD DUP2 MSTORE SWAP2 DUP4 ADD DUP4 MSTORE DUP2 MLOAD SWAP2 DUP2 ADD SWAP2 SWAP1 SWAP2 KECCAK256 PUSH1 0x0 DUP2 DUP2 MSTORE PUSH1 0x46 SWAP1 SWAP3 MSTORE SWAP2 SWAP1 KECCAK256 SLOAD ISZERO DUP1 PUSH2 0xC9E JUMPI POP PUSH1 0x0 DUP2 DUP2 MSTORE PUSH1 0x46 PUSH1 0x20 MSTORE PUSH1 0x40 SWAP1 KECCAK256 SLOAD PUSH2 0x384 TIMESTAMP SWAP2 SWAP1 SWAP2 SUB GT JUMPDEST PUSH2 0xCD9 JUMPI PUSH1 0x40 MLOAD PUSH3 0x461BCD PUSH1 0xE5 SHL DUP2 MSTORE PUSH1 0x4 ADD DUP1 DUP1 PUSH1 0x20 ADD DUP3 DUP2 SUB DUP3 MSTORE PUSH1 0x2A DUP2 MSTORE PUSH1 0x20 ADD DUP1 PUSH2 0x4D1A PUSH1 0x2A SWAP2 CODECOPY PUSH1 0x40 ADD SWAP2 POP POP PUSH1 0x40 MLOAD DUP1 SWAP2 SUB SWAP1 REVERT JUMPDEST PUSH32 0xDFBEC46864BC123768F0D134913175D9577A55BB71B9B2595FDA21E21F36B082 PUSH1 0x0 MSTORE PUSH1 0x46 PUSH1 0x20 MSTORE PUSH32 0x7DF1EB1754BC067736FF3D89AF41D339BF906D31B0F5978E3C78F402D4ED2492 SLOAD PUSH1 0x4 EQ PUSH2 0xD6A JUMPI PUSH2 0xD6A DUP6 DUP6 DUP1 DUP1 PUSH1 0x1F ADD PUSH1 0x20 DUP1 SWAP2 DIV MUL PUSH1 0x20 ADD PUSH1 0x40 MLOAD SWAP1 DUP2 ADD PUSH1 0x40 MSTORE DUP1 SWAP4 SWAP3 SWAP2 SWAP1 DUP2 DUP2 MSTORE PUSH1 0x20 ADD DUP4 DUP4 DUP1 DUP3 DUP5 CALLDATACOPY PUSH1 0x0 SWAP3 ADD SWAP2 SWAP1 SWAP2 MSTORE POP PUSH2 0x2BC9 SWAP3 POP POP POP JUMP JUMPDEST PUSH1 0x0 DUP2 DUP2 MSTORE PUSH1 0x46 PUSH1 0x20 SWAP1 DUP2 MSTORE PUSH1 0x40 SWAP2 DUP3 SWAP1 KECCAK256 TIMESTAMP SWAP1 SSTORE DUP2 MLOAD PUSH1 0x1F DUP8 ADD DUP3 SWAP1 DIV DUP3 MUL DUP2 ADD DUP3 ADD SWAP1 SWAP3 MSTORE DUP6 DUP3 MSTORE PUSH2 0xE03 SWAP2 SWAP1 DUP8 SWAP1 DUP8 SWAP1 DUP2 SWAP1 DUP5 ADD DUP4 DUP3 DUP1 DUP3 DUP5 CALLDATACOPY PUSH1 0x0 SWAP3 ADD SWAP2 SWAP1 SWAP2 MSTORE POP POP PUSH1 0x40 DUP1 MLOAD PUSH1 0xA0 DUP2 DUP2 ADD SWAP1 SWAP3 MSTORE SWAP3 POP DUP8 SWAP2 POP PUSH1 0x5 SWAP1 DUP4 SWAP1 DUP4 SWAP1 DUP1 DUP3 DUP5 CALLDATACOPY PUSH1 0x0 SWAP3 ADD SWAP2 SWAP1 SWAP2 MSTORE POP POP PUSH1 0x40 DUP1 MLOAD PUSH1 0xA0 DUP2 DUP2 ADD SWAP1 SWAP3 MSTORE SWAP2 POP DUP7 SWAP1 PUSH1 0x5 SWAP1 DUP4 SWAP1 DUP4 SWAP1 DUP1 DUP3 DUP5 CALLDATACOPY PUSH1 0x0 SWAP3 ADD SWAP2 SWAP1 SWAP2 MSTORE POP PUSH2 0x2EB2 SWAP2 POP POP JUMP JUMPDEST POP POP POP POP POP JUMP JUMPDEST PUSH1 0x33 DUP2 DUP2 SLOAD DUP2 LT PUSH2 0xE1A JUMPI PUSH1 0x0 DUP1 REVERT JUMPDEST PUSH1 0x0 SWAP2 DUP3 MSTORE PUSH1 0x20 SWAP1 SWAP2 KECCAK256 ADD SLOAD SWAP1 POP DUP2 JUMP JUMPDEST PUSH1 0x39 PUSH1 0x20 SWAP1 DUP2 MSTORE PUSH1 0x0 SWAP3 DUP4 MSTORE PUSH1 0x40 DUP1 DUP5 KECCAK256 SWAP1 SWAP2 MSTORE SWAP1 DUP3 MSTORE SWAP1 KECCAK256 SLOAD PUSH1 0xFF AND DUP2 JUMP JUMPDEST PUSH1 0x4B PUSH1 0x20 MSTORE PUSH1 0x0 SWAP1 DUP2 MSTORE PUSH1 0x40 SWAP1 KECCAK256 SLOAD PUSH1 0xFF AND DUP2 JUMP JUMPDEST PUSH1 0x1 PUSH1 0x1 PUSH1 0xA0 SHL SUB DUP3 AND PUSH1 0x0 SWAP1 DUP2 MSTORE PUSH1 0x49 PUSH1 0x20 MSTORE PUSH1 0x40 DUP2 KECCAK256 DUP1 SLOAD ISZERO DUP1 PUSH2 0xEA6 JUMPI POP DUP3 DUP2 PUSH1 0x0 DUP2 SLOAD DUP2 LT PUSH2 0xE8F JUMPI INVALID JUMPDEST PUSH1 0x0 SWAP2 DUP3 MSTORE PUSH1 0x20 SWAP1 SWAP2 KECCAK256 ADD SLOAD PUSH1 0x1 PUSH1 0x1 PUSH1 0x80 SHL SUB AND GT JUMPDEST ISZERO PUSH2 0xEB5 JUMPI PUSH1 0x0 SWAP2 POP POP PUSH2 0x84A JUMP JUMPDEST DUP1 SLOAD DUP2 SWAP1 PUSH1 0x0 NOT DUP2 ADD SWAP1 DUP2 LT PUSH2 0xEC7 JUMPI INVALID JUMPDEST PUSH1 0x0 SWAP2 DUP3 MSTORE PUSH1 0x20 SWAP1 SWAP2 KECCAK256 ADD SLOAD PUSH1 0x1 PUSH1 0x1 PUSH1 0x80 SHL SUB AND DUP4 LT PUSH2 0xF19 JUMPI DUP1 SLOAD DUP2 SWAP1 PUSH1 0x0 NOT DUP2 ADD SWAP1 DUP2 LT PUSH2 0xEF4 JUMPI INVALID JUMPDEST PUSH1 0x0 SWAP2 DUP3 MSTORE PUSH1 0x20 SWAP1 SWAP2 KECCAK256 ADD SLOAD PUSH1 0x1 PUSH1 0x80 SHL SWAP1 DIV PUSH1 0x1 PUSH1 0x1 PUSH1 0x80 SHL SUB AND SWAP2 POP PUSH2 0x84A SWAP1 POP JUMP JUMPDEST DUP1 SLOAD PUSH1 0x0 SWAP1 PUSH1 0x1 NOT ADD JUMPDEST DUP2 DUP2 GT ISZERO PUSH2 0xFD1 JUMPI PUSH1 0x0 PUSH1 0x2 PUSH1 0x1 DUP4 DUP6 ADD ADD DIV SWAP1 POP DUP6 DUP5 DUP3 DUP2 SLOAD DUP2 LT PUSH2 0xF45 JUMPI INVALID JUMPDEST PUSH1 0x0 SWAP2 DUP3 MSTORE PUSH1 0x20 SWAP1 SWAP2 KECCAK256 ADD SLOAD PUSH1 0x1 PUSH1 0x1 PUSH1 0x80 SHL SUB AND EQ ISZERO PUSH2 0xF94 JUMPI DUP4 DUP2 DUP2 SLOAD DUP2 LT PUSH2 0xF6C JUMPI INVALID JUMPDEST PUSH1 0x0 SWAP2 DUP3 MSTORE PUSH1 0x20 SWAP1 SWAP2 KECCAK256 ADD SLOAD PUSH1 0x1 PUSH1 0x80 SHL SWAP1 DIV PUSH1 0x1 PUSH1 0x1 PUSH1 0x80 SHL SUB AND SWAP5 POP PUSH2 0x84A SWAP4 POP POP POP POP JUMP JUMPDEST DUP6 DUP5 DUP3 DUP2 SLOAD DUP2 LT PUSH2 0xFA1 JUMPI INVALID JUMPDEST PUSH1 0x0 SWAP2 DUP3 MSTORE PUSH1 0x20 SWAP1 SWAP2 KECCAK256 ADD SLOAD PUSH1 0x1 PUSH1 0x1 PUSH1 0x80 SHL SUB AND LT ISZERO PUSH2 0xFC4 JUMPI DUP1 SWAP3 POP PUSH2 0xFCB JUMP JUMPDEST PUSH1 0x1 DUP2 SUB SWAP2 POP JUMPDEST POP PUSH2 0xF23 JUMP JUMPDEST DUP3 DUP3 DUP2 SLOAD DUP2 LT PUSH2 0xFDD JUMPI INVALID JUMPDEST PUSH1 0x0 SWAP2 DUP3 MSTORE PUSH1 0x20 SWAP1 SWAP2 KECCAK256 ADD SLOAD PUSH1 0x1 PUSH1 0x80 SHL SWAP1 DIV PUSH1 0x1 PUSH1 0x1 PUSH1 0x80 SHL SUB AND SWAP4 POP PUSH2 0x84A SWAP3 POP POP POP JUMP JUMPDEST POP SWAP3 SWAP2 POP POP JUMP JUMPDEST PUSH1 0x37 PUSH1 0x20 MSTORE PUSH1 0x0 SWAP1 DUP2 MSTORE PUSH1 0x40 SWAP1 KECCAK256 SLOAD DUP2 JUMP JUMPDEST PUSH1 0x48 PUSH1 0x20 MSTORE PUSH1 0x0 SWAP1 DUP2 MSTORE PUSH1 0x40 SWAP1 KECCAK256 SLOAD DUP2 JUMP JUMPDEST PUSH1 0x47 PUSH1 0x20 MSTORE PUSH1 0x0 SWAP1 DUP2 MSTORE PUSH1 0x40 SWAP1 KECCAK256 SLOAD PUSH1 0x1 PUSH1 0x1 PUSH1 0xA0 SHL SUB AND DUP2 JUMP JUMPDEST PUSH1 0x0 PUSH2 0x84A DUP3 NUMBER PUSH2 0xE60 JUMP JUMPDEST DUP2 PUSH2 0x1099 JUMPI PUSH1 0x40 DUP1 MLOAD PUSH3 0x461BCD PUSH1 0xE5 SHL DUP2 MSTORE PUSH1 0x20 PUSH1 0x4 DUP3 ADD MSTORE PUSH1 0xE PUSH1 0x24 DUP3 ADD MSTORE PUSH14 0x526571756573744964206973203 PUSH1 0x94 SHL PUSH1 0x44 DUP3 ADD MSTORE SWAP1 MLOAD SWAP1 DUP2 SWAP1 SUB PUSH1 0x64 ADD SWAP1 REVERT JUMPDEST DUP1 PUSH2 0x10EB JUMPI PUSH1 0x40 DUP1 MLOAD PUSH3 0x461BCD PUSH1 0xE5 SHL DUP2 MSTORE PUSH1 0x20 PUSH1 0x4 DUP3 ADD MSTORE PUSH1 0x1C PUSH1 0x24 DUP3 ADD MSTORE PUSH32 0x5469702073686F756C642062652067726561746572207468616E203000000000 PUSH1 0x44 DUP3 ADD MSTORE SWAP1 MLOAD SWAP1 DUP2 SWAP1 SUB PUSH1 0x64 ADD SWAP1 REVERT JUMPDEST PUSH32 0x3F8B5616FA9E7F2CE4A868FDE15C58B92E77BC1ACD6769BF1567629A3DC4C865 PUSH1 0x0 MSTORE PUSH1 0x46 PUSH1 0x20 MSTORE PUSH32 0x7119B9AFAA3BDA0901FFE121C1535F50CD6D0D09DF5D29EB1CB16C8AB47A55D6 SLOAD PUSH1 0x1 ADD DUP3 DUP2 EQ ISZERO PUSH2 0x1193 JUMPI PUSH32 0x3F8B5616FA9E7F2CE4A868FDE15C58B92E77BC1ACD6769BF1567629A3DC4C865 PUSH1 0x0 MSTORE PUSH1 0x46 PUSH1 0x20 MSTORE PUSH32 0x7119B9AFAA3BDA0901FFE121C1535F50CD6D0D09DF5D29EB1CB16C8AB47A55D6 DUP2 SWAP1 SSTORE PUSH2 0x11E7 JUMP JUMPDEST DUP1 DUP4 LT PUSH2 0x11E7 JUMPI PUSH1 0x40 DUP1 MLOAD PUSH3 0x461BCD PUSH1 0xE5 SHL DUP2 MSTORE PUSH1 0x20 PUSH1 0x4 DUP3 ADD DUP2 SWAP1 MSTORE PUSH1 0x24 DUP3 ADD MSTORE PUSH32 0x526571756573744964206973206E6F74206C657373207468616E20636F756E74 PUSH1 0x44 DUP3 ADD MSTORE SWAP1 MLOAD SWAP1 DUP2 SWAP1 SUB PUSH1 0x64 ADD SWAP1 REVERT JUMPDEST PUSH2 0x11F1 CALLER DUP4 PUSH2 0x3583 JUMP JUMPDEST PUSH2 0x11FB DUP4 DUP4 PUSH2 0x3733 JUMP JUMPDEST PUSH1 0x0 DUP4 DUP2 MSTORE PUSH1 0x45 PUSH1 0x20 SWAP1 DUP2 MSTORE PUSH1 0x40 DUP1 DUP4 KECCAK256 PUSH1 0x0 DUP1 MLOAD PUSH1 0x20 PUSH2 0x4F00 DUP4 CODECOPY DUP2 MLOAD SWAP2 MSTORE DUP5 MSTORE PUSH1 0x1 ADD DUP3 MSTORE SWAP2 DUP3 SWAP1 KECCAK256 SLOAD DUP3 MLOAD DUP6 DUP2 MSTORE SWAP2 DUP3 ADD MSTORE DUP2 MLOAD DUP6 SWAP3 CALLER SWAP3 PUSH32 0xD32134405B68F6F7220F9C38AE310DF1B648D16188006768D45BE2F7C24E8820 SWAP3 SWAP1 DUP2 SWAP1 SUB SWAP1 SWAP2 ADD SWAP1 LOG3 POP POP POP JUMP JUMPDEST PUSH1 0x0 DUP4 DUP2 MSTORE PUSH1 0x45 PUSH1 0x20 SWAP1 DUP2 MSTORE PUSH1 0x40 DUP1 DUP4 KECCAK256 DUP6 DUP5 MSTORE PUSH1 0x2 DUP2 ADD SWAP1 SWAP3 MSTORE SWAP1 SWAP2 KECCAK256 SLOAD PUSH2 0x12C9 JUMPI PUSH1 0x40 DUP1 MLOAD PUSH3 0x461BCD PUSH1 0xE5 SHL DUP2 MSTORE PUSH1 0x20 PUSH1 0x4 DUP3 ADD MSTORE PUSH1 0x10 PUSH1 0x24 DUP3 ADD MSTORE PUSH16 0x4D696E656420626C6F636B206973203 PUSH1 0x84 SHL PUSH1 0x44 DUP3 ADD MSTORE SWAP1 MLOAD SWAP1 DUP2 SWAP1 SUB PUSH1 0x64 ADD SWAP1 REVERT JUMPDEST PUSH1 0x5 DUP3 LT PUSH2 0x131E JUMPI PUSH1 0x40 DUP1 MLOAD PUSH3 0x461BCD PUSH1 0xE5 SHL DUP2 MSTORE PUSH1 0x20 PUSH1 0x4 DUP3 ADD MSTORE PUSH1 0x14 PUSH1 0x24 DUP3 ADD MSTORE PUSH32 0x4D696E657220696E6465782069732077726F6E67000000000000000000000000 PUSH1 0x44 DUP3 ADD MSTORE SWAP1 MLOAD SWAP1 DUP2 SWAP1 SUB PUSH1 0x64 ADD SWAP1 REVERT JUMPDEST PUSH1 0x0 DUP4 DUP2 MSTORE PUSH1 0x5 DUP1 DUP4 ADD PUSH1 0x20 MSTORE PUSH1 0x40 DUP3 KECCAK256 SWAP1 DUP5 SWAP1 DUP2 LT PUSH2 0x133A JUMPI INVALID JUMPDEST ADD SLOAD PUSH1 0x40 DUP1 MLOAD PUSH1 0x60 DUP4 DUP2 SHL PUSH12 0xFFFFFFFFFFFFFFFFFFFFFFFF NOT AND PUSH1 0x20 DUP1 DUP5 ADD DUP3 SWAP1 MSTORE PUSH12 0x111A5CDC1D5D1950DBDD5B9D PUSH1 0xA2 SHL PUSH1 0x34 DUP6 ADD MSTORE DUP5 MLOAD DUP1 DUP6 SUB DUP3 ADD DUP2 MSTORE DUP5 DUP7 ADD DUP7 MSTORE DUP1 MLOAD SWAP1 DUP3 ADD KECCAK256 PUSH1 0x0 SWAP1 DUP2 MSTORE PUSH1 0x46 DUP3 MSTORE DUP6 DUP2 KECCAK256 DUP1 SLOAD PUSH1 0x1 SWAP1 DUP2 ADD SWAP1 SWAP2 SSTORE SWAP4 DUP6 ADD SWAP3 SWAP1 SWAP3 MSTORE PUSH1 0x74 DUP5 ADD DUP12 SWAP1 MSTORE PUSH1 0x94 DUP1 DUP6 ADD DUP12 SWAP1 MSTORE DUP6 MLOAD DUP1 DUP7 SUB SWAP1 SWAP2 ADD DUP2 MSTORE PUSH1 0xB4 SWAP1 SWAP5 ADD DUP6 MSTORE DUP4 MLOAD SWAP4 DUP2 ADD SWAP4 SWAP1 SWAP4 KECCAK256 PUSH32 0x1CE2382BC92689B00BA121FA5A411AA976168AFFDD8AC143A69035DD984B3B6A DUP1 SLOAD SWAP1 SWAP4 ADD SWAP3 DUP4 SWAP1 SSTORE DUP1 DUP3 MSTORE PUSH1 0x38 SWAP1 SWAP4 MSTORE SWAP3 SWAP1 SWAP3 KECCAK256 SLOAD PUSH1 0x1 PUSH1 0x1 PUSH1 0xA0 SHL SUB SWAP1 SWAP4 AND SWAP4 POP SWAP2 DUP1 ISZERO PUSH2 0x145A JUMPI PUSH1 0x0 DUP3 DUP2 MSTORE PUSH1 0x36 PUSH1 0x20 SWAP1 DUP2 MSTORE PUSH1 0x40 DUP1 DUP4 KECCAK256 PUSH32 0xED92B4C1E0A9E559A31171D487ECBEC963526662038ECFA3A71160BD62FB8733 DUP5 MSTORE PUSH1 0x5 ADD SWAP1 SWAP2 MSTORE SWAP1 KECCAK256 DUP2 SWAP1 SSTORE PUSH2 0x14B1 JUMP JUMPDEST PUSH3 0x93A80 DUP8 TIMESTAMP SUB LT PUSH2 0x149D JUMPI PUSH1 0x40 MLOAD PUSH3 0x461BCD PUSH1 0xE5 SHL DUP2 MSTORE PUSH1 0x4 ADD DUP1 DUP1 PUSH1 0x20 ADD DUP3 DUP2 SUB DUP3 MSTORE PUSH1 0x32 DUP2 MSTORE PUSH1 0x20 ADD DUP1 PUSH2 0x4E63 PUSH1 0x32 SWAP2 CODECOPY PUSH1 0x40 ADD SWAP2 POP POP PUSH1 0x40 MLOAD DUP1 SWAP2 SUB SWAP1 REVERT JUMPDEST POP PUSH1 0x0 DUP3 DUP2 MSTORE PUSH1 0x38 PUSH1 0x20 MSTORE PUSH1 0x40 SWAP1 KECCAK256 DUP2 SWAP1 SSTORE DUP1 JUMPDEST PUSH1 0x0 PUSH2 0x14BD DUP4 DUP4 PUSH2 0x29D7 JUMP JUMPDEST SWAP1 POP PUSH1 0x0 DUP8 PUSH1 0x2 EQ ISZERO PUSH2 0x1562 JUMPI POP PUSH1 0x0 DUP10 DUP2 MSTORE PUSH1 0x45 PUSH1 0x20 SWAP1 DUP2 MSTORE PUSH1 0x40 DUP1 DUP4 KECCAK256 PUSH32 0x310199159A20C50879FFB440B45802138B5B162EC9426720E9DD3EE8BBCDB9D7 DUP5 MSTORE PUSH1 0x1 SWAP1 DUP2 ADD DUP4 MSTORE SWAP1 DUP4 KECCAK256 DUP1 SLOAD SWAP1 SWAP2 ADD SWAP1 DUP2 SWAP1 SSTORE PUSH32 0x5D9FADFC729FD027E395E5157EF1B53EF9FA4A8F053043C5F159307543E7CC97 SWAP1 SWAP3 MSTORE PUSH1 0x46 SWAP1 MSTORE PUSH32 0x167AF83A0768D27540775CFEF6D996EB63F8A61FCDFB26E654C18FB50960E3BE SLOAD MUL PUSH2 0x15B1 JUMP JUMPDEST POP PUSH32 0x675D2171F68D6F5545D54FB9B1FB61A0E6897E6188CA1CD664E7C9530D91ECFC PUSH1 0x0 MSTORE PUSH1 0x46 PUSH1 0x20 MSTORE PUSH32 0x3E5522F19747F0F285B96DED572AC4128C3A764AEA9F44058DC0AFC9DDA44986 SLOAD DUP2 MUL JUMPDEST PUSH1 0x0 DUP5 DUP2 MSTORE PUSH1 0x36 PUSH1 0x20 SWAP1 DUP2 MSTORE PUSH1 0x40 DUP1 DUP4 KECCAK256 DUP9 DUP2 SSTORE PUSH1 0x2 DUP2 ADD DUP1 SLOAD PUSH1 0x3 DUP4 ADD DUP1 SLOAD CALLER PUSH1 0x1 PUSH1 0x1 PUSH1 0xA0 SHL SUB NOT SWAP2 DUP3 AND OR SWAP1 SWAP2 SSTORE PUSH1 0x4 DUP5 ADD DUP1 SLOAD SWAP1 SWAP2 AND SWAP1 SSTORE PUSH23 0xFFFFFFFFFFFFFFFFFFFFFFFFFFFFFFFFFFFFFFFFFF0000 NOT AND PUSH4 0x1000000 PUSH1 0x1 PUSH1 0x1 PUSH1 0xA0 SHL SUB DUP14 AND MUL OR PUSH2 0xFFFF NOT AND SWAP1 SSTORE PUSH1 0x1 DUP2 ADD DUP5 SWAP1 SSTORE PUSH32 0x9F47A2659C3D32B749AE717D975E7962959890862423C4318CF86E4EC220291F DUP5 MSTORE PUSH1 0x5 SWAP1 DUP2 ADD DUP4 MSTORE DUP2 DUP5 KECCAK256 DUP15 SWAP1 SSTORE PUSH32 0x2F9328A9C75282BEC25BB04BEFAD06926366736E0030C985108445FA728335E5 DUP5 MSTORE DUP2 DUP5 KECCAK256 DUP14 SWAP1 SSTORE DUP13 DUP5 MSTORE PUSH1 0x6 DUP12 ADD SWAP1 SWAP3 MSTORE SWAP1 SWAP2 KECCAK256 SWAP1 DUP10 SWAP1 DUP2 LT PUSH2 0x1697 JUMPI INVALID JUMPDEST ADD SLOAD PUSH1 0x0 DUP6 DUP2 MSTORE PUSH1 0x36 PUSH1 0x20 SWAP1 DUP2 MSTORE PUSH1 0x40 DUP1 DUP4 KECCAK256 PUSH32 0x9147231AB14EFB72C38117F68521DDEF8DE64F092C18C69DBFB602FFC4DE7F47 DUP5 MSTORE PUSH1 0x5 ADD SWAP1 SWAP2 MSTORE DUP1 DUP3 KECCAK256 SWAP3 SWAP1 SWAP3 SSTORE PUSH32 0x46F7D53798D31923F6952572C6A19AD2D1A8238D26649C2F3493A6D69E425D28 DUP2 MSTORE DUP2 DUP2 KECCAK256 PUSH3 0x2A300 DUP6 MUL TIMESTAMP ADD SWAP1 SSTORE PUSH32 0x4B4CEFD5CED7569EF0D091282B4BCA9C52A034C56471A6061AFD1BF307A2DE7C DUP2 MSTORE DUP2 DUP2 KECCAK256 NUMBER SWAP1 SSTORE PUSH32 0x6DE96EE4D33A0617F40A846309C8759048857F51B9D59A12D3C3786D4778883D DUP2 MSTORE DUP2 DUP2 KECCAK256 DUP11 SWAP1 SSTORE PUSH32 0x1DA95F11543C9B03927178E07951795DFC95C7501A9D1CF00E13414CA33BC409 DUP2 MSTORE KECCAK256 DUP2 SWAP1 SSTORE PUSH2 0x178E CALLER ADDRESS DUP4 PUSH2 0x26C6 JUMP JUMPDEST DUP8 PUSH1 0x2 EQ ISZERO PUSH2 0x17C0 JUMPI PUSH1 0x0 DUP10 DUP2 MSTORE PUSH1 0x4 DUP9 ADD PUSH1 0x20 SWAP1 DUP2 MSTORE PUSH1 0x40 DUP1 DUP4 KECCAK256 DUP1 SLOAD PUSH1 0xFF NOT AND PUSH1 0x1 OR SWAP1 SSTORE PUSH1 0x3 DUP11 ADD SWAP1 SWAP2 MSTORE DUP2 KECCAK256 SSTORE JUMPDEST PUSH1 0x1 PUSH1 0x1 PUSH1 0xA0 SHL SUB DUP7 AND PUSH1 0x0 DUP2 DUP2 MSTORE PUSH1 0x44 PUSH1 0x20 SWAP1 DUP2 MSTORE PUSH1 0x40 SWAP2 DUP3 SWAP1 KECCAK256 PUSH1 0x3 SWAP1 SSTORE DUP2 MLOAD DUP13 DUP2 MSTORE SWAP1 DUP2 ADD SWAP3 SWAP1 SWAP3 MSTORE DUP1 MLOAD DUP13 SWAP3 DUP8 SWAP3 PUSH32 0xECEEC1AEBF67772B2440120C4B4DC913A1FE1B865509219F9456785C23B9DA64 SWAP3 SWAP2 DUP3 SWAP1 SUB ADD SWAP1 LOG3 POP POP POP POP POP POP POP POP POP POP JUMP JUMPDEST PUSH2 0x1830 CALLER PUSH2 0x3977 JUMP JUMPDEST JUMP JUMPDEST PUSH1 0x1 PUSH1 0x1 PUSH1 0xA0 SHL SUB DUP3 AND PUSH1 0x0 SWAP1 DUP2 MSTORE PUSH1 0x44 PUSH1 0x20 MSTORE PUSH1 0x40 DUP2 KECCAK256 SLOAD ISZERO DUP1 ISZERO SWAP1 PUSH2 0x1871 JUMPI POP PUSH1 0x1 PUSH1 0x1 PUSH1 0xA0 SHL SUB DUP4 AND PUSH1 0x0 SWAP1 DUP2 MSTORE PUSH1 0x44 PUSH1 0x20 MSTORE PUSH1 0x40 SWAP1 KECCAK256 SLOAD PUSH1 0x5 GT JUMPDEST ISZERO PUSH2 0x18EB JUMPI PUSH32 0x5D9FADFC729FD027E395E5157EF1B53EF9FA4A8F053043C5F159307543E7CC97 PUSH1 0x0 MSTORE PUSH1 0x46 PUSH1 0x20 MSTORE PUSH32 0x167AF83A0768D27540775CFEF6D996EB63F8A61FCDFB26E654C18FB50960E3BE SLOAD DUP3 SWAP1 PUSH2 0x18D6 SWAP1 PUSH2 0x18D0 DUP7 PUSH2 0x104A JUMP JUMPDEST SWAP1 PUSH2 0x3AC6 JUMP JUMPDEST LT PUSH2 0x18E3 JUMPI POP PUSH1 0x1 PUSH2 0x84A JUMP JUMPDEST POP PUSH1 0x0 PUSH2 0x84A JUMP JUMPDEST DUP2 PUSH2 0x18F5 DUP5 PUSH2 0x104A JUMP JUMPDEST LT ISZERO SWAP4 SWAP3 POP POP POP JUMP JUMPDEST PUSH32 0x310199159A20C50879FFB440B45802138B5B162EC9426720E9DD3EE8BBCDB9D7 PUSH1 0x0 MSTORE PUSH1 0x46 PUSH1 0x20 MSTORE PUSH32 0x1CE2382BC92689B00BA121FA5A411AA976168AFFDD8AC143A69035DD984B3B6A SLOAD DUP2 GT ISZERO PUSH2 0x1996 JUMPI PUSH1 0x40 DUP1 MLOAD PUSH3 0x461BCD PUSH1 0xE5 SHL DUP2 MSTORE PUSH1 0x20 PUSH1 0x4 DUP3 ADD MSTORE PUSH1 0x16 PUSH1 0x24 DUP3 ADD MSTORE PUSH22 0x191A5CDC1D5D1948191BD95CC81B9BDD08195E1A5CDD PUSH1 0x52 SHL PUSH1 0x44 DUP3 ADD MSTORE SWAP1 MLOAD SWAP1 DUP2 SWAP1 SUB PUSH1 0x64 ADD SWAP1 REVERT JUMPDEST PUSH1 0x0 DUP2 DUP2 MSTORE PUSH1 0x36 PUSH1 0x20 DUP2 DUP2 MSTORE PUSH1 0x40 DUP1 DUP5 KECCAK256 SLOAD DUP5 MSTORE PUSH1 0x38 DUP3 MSTORE DUP1 DUP5 KECCAK256 SLOAD DUP1 DUP6 MSTORE SWAP3 DUP3 MSTORE DUP1 DUP5 KECCAK256 PUSH32 0x6AB2B18AAFE78FD59C6A4092015BDDD9FCACB8170F72B299074F74D76A91A923 DUP6 MSTORE PUSH1 0x5 ADD DUP1 DUP4 MSTORE DUP2 DUP6 KECCAK256 SLOAD DUP3 MLOAD DUP1 DUP6 ADD SWAP2 SWAP1 SWAP2 MSTORE DUP3 MLOAD DUP1 DUP3 SUB DUP6 ADD DUP2 MSTORE SWAP1 DUP4 ADD DUP4 MSTORE DUP1 MLOAD SWAP1 DUP5 ADD KECCAK256 DUP6 MSTORE SWAP1 SWAP2 MSTORE SWAP1 SWAP2 KECCAK256 SLOAD DUP1 PUSH2 0x1A16 JUMPI POP DUP1 JUMPDEST PUSH1 0x0 DUP3 DUP2 MSTORE PUSH1 0x36 PUSH1 0x20 SWAP1 DUP2 MSTORE PUSH1 0x40 DUP1 DUP4 KECCAK256 DUP5 DUP5 MSTORE DUP2 DUP5 KECCAK256 PUSH32 0x6AB2B18AAFE78FD59C6A4092015BDDD9FCACB8170F72B299074F74D76A91A923 DUP6 MSTORE PUSH1 0x5 DUP3 ADD SWAP1 SWAP4 MSTORE SWAP3 KECCAK256 SLOAD DUP1 PUSH2 0x1A63 JUMPI POP PUSH1 0x1 JUMPDEST PUSH32 0x29169706298D2B6DF50A532E958B56426DE1465348B93650FCA42D456EAEC5FC PUSH1 0x0 SWAP1 DUP2 MSTORE PUSH1 0x5 DUP5 ADD PUSH1 0x20 MSTORE PUSH1 0x40 DUP2 KECCAK256 SLOAD ISZERO PUSH2 0x1ADA JUMPI PUSH1 0x40 DUP1 MLOAD PUSH3 0x461BCD PUSH1 0xE5 SHL DUP2 MSTORE PUSH1 0x20 PUSH1 0x4 DUP3 ADD MSTORE PUSH1 0x10 PUSH1 0x24 DUP3 ADD MSTORE PUSH16 0x185B1C9958591E481C185A59081BDD5D PUSH1 0x82 SHL PUSH1 0x44 DUP3 ADD MSTORE SWAP1 MLOAD SWAP1 DUP2 SWAP1 SUB PUSH1 0x64 ADD SWAP1 REVERT JUMPDEST PUSH1 0x2 DUP5 ADD SLOAD PUSH3 0x10000 SWAP1 DIV PUSH1 0xFF AND ISZERO PUSH2 0x1B24 JUMPI PUSH1 0x40 MLOAD PUSH3 0x461BCD PUSH1 0xE5 SHL DUP2 MSTORE PUSH1 0x4 ADD DUP1 DUP1 PUSH1 0x20 ADD DUP3 DUP2 SUB DUP3 MSTORE PUSH1 0x29 DUP2 MSTORE PUSH1 0x20 ADD DUP1 PUSH2 0x4D44 PUSH1 0x29 SWAP2 CODECOPY PUSH1 0x40 ADD SWAP2 POP POP PUSH1 0x40 MLOAD DUP1 SWAP2 SUB SWAP1 REVERT JUMPDEST PUSH32 0xF9E1AE10923BFC79F52E309BAF8C7699EDB821F91EF5B5BD07BE29545917B3A6 PUSH1 0x0 SWAP1 DUP2 MSTORE PUSH1 0x5 DUP6 ADD PUSH1 0x20 MSTORE PUSH1 0x40 SWAP1 KECCAK256 SLOAD PUSH2 0x1BA7 JUMPI PUSH1 0x40 DUP1 MLOAD PUSH3 0x461BCD PUSH1 0xE5 SHL DUP2 MSTORE PUSH1 0x20 PUSH1 0x4 DUP3 ADD MSTORE PUSH1 0x18 PUSH1 0x24 DUP3 ADD MSTORE PUSH32 0x766F7465206E6565647320746F2062652074616C6C6965640000000000000000 PUSH1 0x44 DUP3 ADD MSTORE SWAP1 MLOAD SWAP1 DUP2 SWAP1 SUB PUSH1 0x64 ADD SWAP1 REVERT JUMPDEST PUSH32 0xF9E1AE10923BFC79F52E309BAF8C7699EDB821F91EF5B5BD07BE29545917B3A6 PUSH1 0x0 SWAP1 DUP2 MSTORE PUSH1 0x5 DUP5 ADD PUSH1 0x20 MSTORE PUSH1 0x40 SWAP1 KECCAK256 SLOAD PUSH3 0x15180 TIMESTAMP SWAP2 SWAP1 SWAP2 SUB GT PUSH2 0x1C1E JUMPI PUSH1 0x40 MLOAD PUSH3 0x461BCD PUSH1 0xE5 SHL DUP2 MSTORE PUSH1 0x4 ADD DUP1 DUP1 PUSH1 0x20 ADD DUP3 DUP2 SUB DUP3 MSTORE PUSH1 0x2B DUP2 MSTORE PUSH1 0x20 ADD DUP1 PUSH2 0x4D8F PUSH1 0x2B SWAP2 CODECOPY PUSH1 0x40 ADD SWAP2 POP POP PUSH1 0x40 MLOAD DUP1 SWAP2 SUB SWAP1 REVERT JUMPDEST PUSH1 0x2 DUP5 DUP2 ADD SLOAD PUSH4 0x1000000 SWAP1 DIV PUSH1 0x1 PUSH1 0x1 PUSH1 0xA0 SHL SUB AND PUSH1 0x0 SWAP1 DUP2 MSTORE PUSH1 0x44 PUSH1 0x20 SWAP1 DUP2 MSTORE PUSH1 0x40 DUP1 DUP4 KECCAK256 PUSH32 0x29169706298D2B6DF50A532E958B56426DE1465348B93650FCA42D456EAEC5FC DUP5 MSTORE PUSH1 0x5 DUP10 ADD SWAP1 SWAP3 MSTORE SWAP1 SWAP2 KECCAK256 PUSH1 0x1 SWAP1 DUP2 SWAP1 SSTORE SWAP2 DUP6 ADD SLOAD SWAP1 SWAP2 PUSH2 0x100 SWAP1 SWAP2 DIV PUSH1 0xFF AND ISZERO ISZERO EQ ISZERO PUSH2 0x1E47 JUMPI PUSH3 0x15180 TIMESTAMP MOD TIMESTAMP SUB PUSH1 0x1 DUP3 ADD SSTORE PUSH1 0x46 PUSH1 0x20 MSTORE PUSH32 0xA5AE3E2B97D73FB849EA855D27F073B72815B38452D976BD57E4A157827DADD3 DUP1 SLOAD PUSH1 0x0 NOT ADD SWAP1 SSTORE PUSH32 0x5D9FADFC729FD027E395E5157EF1B53EF9FA4A8F053043C5F159307543E7CC97 PUSH1 0x0 MSTORE PUSH32 0x167AF83A0768D27540775CFEF6D996EB63F8A61FCDFB26E654C18FB50960E3BE SLOAD PUSH1 0x2 DUP7 ADD SLOAD DUP2 SWAP1 PUSH2 0x1D30 SWAP1 PUSH4 0x1000000 SWAP1 DIV PUSH1 0x1 PUSH1 0x1 PUSH1 0xA0 SHL SUB AND PUSH2 0x104A JUMP JUMPDEST LT ISZERO PUSH2 0x1D57 JUMPI PUSH1 0x2 DUP7 ADD SLOAD PUSH2 0x1D54 SWAP1 PUSH4 0x1000000 SWAP1 DIV PUSH1 0x1 PUSH1 0x1 PUSH1 0xA0 SHL SUB AND PUSH2 0x104A JUMP JUMPDEST SWAP1 POP JUMPDEST DUP2 SLOAD PUSH1 0x4 EQ ISZERO PUSH2 0x1D92 JUMPI PUSH1 0x5 DUP3 SSTORE PUSH1 0x2 DUP7 ADD SLOAD PUSH1 0x3 DUP8 ADD SLOAD PUSH2 0x1D8D SWAP2 PUSH1 0x1 PUSH1 0x1 PUSH1 0xA0 SHL SUB PUSH4 0x1000000 SWAP1 SWAP2 DIV DUP2 AND SWAP2 AND DUP4 PUSH2 0x26C6 JUMP JUMPDEST PUSH1 0x0 DUP3 SSTORE JUMPDEST PUSH1 0x0 JUMPDEST DUP5 DUP2 LT ISZERO PUSH2 0x1E40 JUMPI PUSH1 0x40 DUP1 MLOAD DUP3 DUP8 SUB PUSH1 0x20 DUP1 DUP4 ADD SWAP2 SWAP1 SWAP2 MSTORE DUP3 MLOAD DUP1 DUP4 SUB DUP3 ADD DUP2 MSTORE SWAP2 DUP4 ADD DUP4 MSTORE DUP2 MLOAD SWAP2 DUP2 ADD SWAP2 SWAP1 SWAP2 KECCAK256 PUSH1 0x0 SWAP1 DUP2 MSTORE PUSH1 0x5 DUP11 ADD SWAP1 SWAP2 MSTORE KECCAK256 SLOAD SWAP4 POP DUP4 PUSH2 0x1DDD JUMPI DUP9 SWAP4 POP JUMPDEST PUSH1 0x0 DUP5 DUP2 MSTORE PUSH1 0x36 PUSH1 0x20 SWAP1 DUP2 MSTORE PUSH1 0x40 DUP1 DUP4 KECCAK256 PUSH1 0x3 DUP2 ADD SLOAD PUSH32 0x1DA95F11543C9B03927178E07951795DFC95C7501A9D1CF00E13414CA33BC409 DUP6 MSTORE PUSH1 0x5 DUP3 ADD SWAP1 SWAP4 MSTORE SWAP3 KECCAK256 SLOAD PUSH2 0x1E37 SWAP2 ADDRESS SWAP2 PUSH1 0x1 PUSH1 0x1 PUSH1 0xA0 SHL SUB SWAP1 SWAP2 AND SWAP1 PUSH2 0x26C6 JUMP JUMPDEST POP PUSH1 0x1 ADD PUSH2 0x1D95 JUMP JUMPDEST POP POP PUSH2 0x20EE JUMP JUMPDEST PUSH1 0x2 DUP5 ADD SLOAD PUSH1 0x40 DUP1 MLOAD PUSH4 0x1000000 SWAP1 SWAP3 DIV PUSH1 0x60 SHL PUSH12 0xFFFFFFFFFFFFFFFFFFFFFFFF NOT AND PUSH1 0x20 DUP1 DUP5 ADD SWAP2 SWAP1 SWAP2 MSTORE PUSH12 0x111A5CDC1D5D1950DBDD5B9D PUSH1 0xA2 SHL PUSH1 0x34 DUP5 ADD MSTORE DUP2 MLOAD DUP1 DUP5 SUB DUP3 ADD DUP2 MSTORE SWAP3 DUP3 ADD DUP3 MSTORE DUP3 MLOAD SWAP3 DUP2 ADD SWAP3 SWAP1 SWAP3 KECCAK256 PUSH1 0x0 SWAP1 DUP2 MSTORE PUSH1 0x46 SWAP1 SWAP3 MSTORE SWAP1 KECCAK256 SLOAD PUSH1 0x1 EQ ISZERO PUSH2 0x1EB9 JUMPI PUSH1 0x1 DUP2 SSTORE JUMPDEST PUSH32 0x9F47A2659C3D32B749AE717D975E7962959890862423C4318CF86E4EC220291F PUSH1 0x0 SWAP1 DUP2 MSTORE PUSH1 0x5 DUP7 ADD PUSH1 0x20 DUP2 DUP2 MSTORE PUSH1 0x40 DUP1 DUP5 KECCAK256 SLOAD DUP5 MSTORE PUSH1 0x45 DUP3 MSTORE DUP1 DUP5 KECCAK256 PUSH32 0x6DE96EE4D33A0617F40A846309C8759048857F51B9D59A12D3C3786D4778883D DUP6 MSTORE SWAP3 SWAP1 SWAP2 MSTORE SWAP1 SWAP2 KECCAK256 SLOAD PUSH1 0x2 EQ ISZERO PUSH2 0x1F94 JUMPI PUSH32 0x9147231AB14EFB72C38117F68521DDEF8DE64F092C18C69DBFB602FFC4DE7F47 PUSH1 0x0 SWAP1 DUP2 MSTORE PUSH1 0x5 DUP8 ADD PUSH1 0x20 SWAP1 DUP2 MSTORE PUSH1 0x40 DUP1 DUP4 KECCAK256 SLOAD PUSH32 0x2F9328A9C75282BEC25BB04BEFAD06926366736E0030C985108445FA728335E5 DUP5 MSTORE DUP2 DUP5 KECCAK256 SLOAD DUP5 MSTORE PUSH1 0x3 DUP6 ADD SWAP1 SWAP3 MSTORE SWAP1 SWAP2 KECCAK256 SSTORE JUMPDEST PUSH32 0x2F9328A9C75282BEC25BB04BEFAD06926366736E0030C985108445FA728335E5 PUSH1 0x0 SWAP1 DUP2 MSTORE PUSH1 0x5 DUP8 ADD PUSH1 0x20 SWAP1 DUP2 MSTORE PUSH1 0x40 DUP1 DUP4 KECCAK256 SLOAD DUP4 MSTORE PUSH1 0x4 DUP5 ADD SWAP1 SWAP2 MSTORE SWAP1 KECCAK256 SLOAD PUSH1 0xFF AND ISZERO ISZERO PUSH1 0x1 EQ ISZERO PUSH2 0x202B JUMPI PUSH32 0x2F9328A9C75282BEC25BB04BEFAD06926366736E0030C985108445FA728335E5 PUSH1 0x0 SWAP1 DUP2 MSTORE PUSH1 0x5 DUP8 ADD PUSH1 0x20 SWAP1 DUP2 MSTORE PUSH1 0x40 DUP1 DUP4 KECCAK256 SLOAD DUP4 MSTORE PUSH1 0x4 DUP5 ADD SWAP1 SWAP2 MSTORE SWAP1 KECCAK256 DUP1 SLOAD PUSH1 0xFF NOT AND SWAP1 SSTORE JUMPDEST PUSH1 0x0 JUMPDEST DUP5 DUP2 LT ISZERO PUSH2 0x20EB JUMPI PUSH1 0x40 DUP1 MLOAD DUP3 DUP8 SUB PUSH1 0x20 DUP1 DUP4 ADD SWAP2 SWAP1 SWAP2 MSTORE DUP3 MLOAD DUP1 DUP4 SUB DUP3 ADD DUP2 MSTORE SWAP2 DUP4 ADD DUP4 MSTORE DUP2 MLOAD SWAP2 DUP2 ADD SWAP2 SWAP1 SWAP2 KECCAK256 PUSH1 0x0 SWAP1 DUP2 MSTORE PUSH1 0x5 DUP11 ADD SWAP1 SWAP2 MSTORE KECCAK256 SLOAD SWAP4 POP DUP4 ISZERO PUSH2 0x2084 JUMPI PUSH1 0x0 DUP5 DUP2 MSTORE PUSH1 0x36 PUSH1 0x20 MSTORE PUSH1 0x40 SWAP1 KECCAK256 SWAP6 POP JUMPDEST PUSH1 0x2 DUP7 ADD SLOAD PUSH1 0x0 DUP6 DUP2 MSTORE PUSH1 0x36 PUSH1 0x20 SWAP1 DUP2 MSTORE PUSH1 0x40 DUP1 DUP4 KECCAK256 PUSH32 0x1DA95F11543C9B03927178E07951795DFC95C7501A9D1CF00E13414CA33BC409 DUP5 MSTORE PUSH1 0x5 ADD SWAP1 SWAP2 MSTORE SWAP1 KECCAK256 SLOAD PUSH2 0x20E3 SWAP2 ADDRESS SWAP2 PUSH4 0x1000000 SWAP1 SWAP2 DIV PUSH1 0x1 PUSH1 0x1 PUSH1 0xA0 SHL SUB AND SWAP1 PUSH2 0x26C6 JUMP JUMPDEST PUSH1 0x1 ADD PUSH2 0x202E JUMP JUMPDEST POP POP JUMPDEST PUSH1 0x2 DUP5 DUP2 ADD SLOAD PUSH1 0x40 DUP1 MLOAD PUSH4 0x1000000 SWAP1 SWAP3 DIV PUSH1 0x60 SHL PUSH12 0xFFFFFFFFFFFFFFFFFFFFFFFF NOT AND PUSH1 0x20 DUP1 DUP5 ADD SWAP2 SWAP1 SWAP2 MSTORE PUSH12 0x111A5CDC1D5D1950DBDD5B9D PUSH1 0xA2 SHL PUSH1 0x34 DUP5 ADD MSTORE DUP2 MLOAD DUP1 DUP5 SUB DUP3 ADD DUP2 MSTORE SWAP3 DUP3 ADD DUP3 MSTORE DUP3 MLOAD SWAP3 DUP2 ADD SWAP3 SWAP1 SWAP3 KECCAK256 PUSH1 0x0 SWAP1 DUP2 MSTORE PUSH1 0x46 DUP4 MSTORE DUP2 DUP2 KECCAK256 DUP1 SLOAD PUSH1 0x0 NOT ADD SWAP1 SSTORE PUSH32 0x6DE96EE4D33A0617F40A846309C8759048857F51B9D59A12D3C3786D4778883D DUP2 MSTORE PUSH1 0x5 DUP10 ADD SWAP1 SWAP3 MSTORE SWAP1 KECCAK256 SLOAD EQ ISZERO PUSH2 0x2200 JUMPI PUSH32 0x9F47A2659C3D32B749AE717D975E7962959890862423C4318CF86E4EC220291F PUSH1 0x0 SWAP1 DUP2 MSTORE PUSH1 0x5 DUP7 ADD PUSH1 0x20 SWAP1 DUP2 MSTORE PUSH1 0x40 DUP1 DUP4 KECCAK256 SLOAD DUP4 MSTORE PUSH1 0x45 DUP3 MSTORE DUP1 DUP4 KECCAK256 PUSH32 0x310199159A20C50879FFB440B45802138B5B162EC9426720E9DD3EE8BBCDB9D7 DUP5 MSTORE PUSH1 0x1 ADD SWAP1 SWAP2 MSTORE SWAP1 KECCAK256 DUP1 SLOAD PUSH1 0x0 NOT ADD SWAP1 SSTORE JUMPDEST POP POP POP POP POP POP POP POP JUMP JUMPDEST PUSH1 0x0 PUSH2 0x2217 CALLER DUP5 DUP5 PUSH2 0x26C6 JUMP JUMPDEST POP PUSH1 0x1 SWAP3 SWAP2 POP POP JUMP JUMPDEST PUSH32 0x5FC094D10C65BC33CC842217B2ECCCA0191FF24148319DA094E540A559898961 PUSH1 0x0 MSTORE PUSH1 0x47 PUSH1 0x20 MSTORE PUSH32 0x437DD27C2043EFDFEF03344E9331C924985F7BD1752ABEF5EA93BDBFED685100 SLOAD PUSH1 0x1 PUSH1 0x1 PUSH1 0xA0 SHL SUB AND CALLER EQ PUSH2 0x22B5 JUMPI PUSH1 0x40 DUP1 MLOAD PUSH3 0x461BCD PUSH1 0xE5 SHL DUP2 MSTORE PUSH1 0x20 PUSH1 0x4 DUP3 ADD MSTORE PUSH1 0xB PUSH1 0x24 DUP3 ADD MSTORE PUSH11 0x1B9BDD08185B1B1BDDD959 PUSH1 0xAA SHL PUSH1 0x44 DUP3 ADD MSTORE SWAP1 MLOAD SWAP1 DUP2 SWAP1 SUB PUSH1 0x64 ADD SWAP1 REVERT JUMPDEST PUSH2 0x22C0 DUP4 DUP4 DUP4 PUSH2 0x3AD8 JUMP JUMPDEST POP POP POP JUMP JUMPDEST PUSH1 0x46 PUSH1 0x20 MSTORE PUSH1 0x0 SWAP1 DUP2 MSTORE PUSH1 0x40 SWAP1 KECCAK256 SLOAD DUP2 JUMP JUMPDEST PUSH32 0x310199159A20C50879FFB440B45802138B5B162EC9426720E9DD3EE8BBCDB9D7 PUSH1 0x0 MSTORE PUSH1 0x46 PUSH1 0x20 MSTORE PUSH32 0x1CE2382BC92689B00BA121FA5A411AA976168AFFDD8AC143A69035DD984B3B6A SLOAD DUP3 GT ISZERO PUSH2 0x236F JUMPI PUSH1 0x40 DUP1 MLOAD PUSH3 0x461BCD PUSH1 0xE5 SHL DUP2 MSTORE PUSH1 0x20 PUSH1 0x4 DUP3 ADD MSTORE PUSH1 0x16 PUSH1 0x24 DUP3 ADD MSTORE PUSH22 0x191A5CDC1D5D1948191BD95CC81B9BDD08195E1A5CDD PUSH1 0x52 SHL PUSH1 0x44 DUP3 ADD MSTORE SWAP1 MLOAD SWAP1 DUP2 SWAP1 SUB PUSH1 0x64 ADD SWAP1 REVERT JUMPDEST PUSH1 0x0 DUP3 DUP2 MSTORE PUSH1 0x36 PUSH1 0x20 MSTORE PUSH1 0x40 SWAP1 KECCAK256 PUSH1 0x2 DUP2 ADD SLOAD PUSH1 0xFF AND ISZERO PUSH2 0x23C1 JUMPI PUSH1 0x40 MLOAD PUSH3 0x461BCD PUSH1 0xE5 SHL DUP2 MSTORE PUSH1 0x4 ADD DUP1 DUP1 PUSH1 0x20 ADD DUP3 DUP2 SUB DUP3 MSTORE PUSH1 0x25 DUP2 MSTORE PUSH1 0x20 ADD DUP1 PUSH2 0x4EB6 PUSH1 0x25 SWAP2 CODECOPY PUSH1 0x40 ADD SWAP2 POP POP PUSH1 0x40 MLOAD DUP1 SWAP2 SUB SWAP1 REVERT JUMPDEST PUSH32 0x4B4CEFD5CED7569EF0D091282B4BCA9C52A034C56471A6061AFD1BF307A2DE7C PUSH1 0x0 SWAP1 DUP2 MSTORE PUSH1 0x5 DUP3 ADD PUSH1 0x20 MSTORE PUSH1 0x40 DUP2 KECCAK256 SLOAD PUSH2 0x23FE SWAP1 CALLER SWAP1 PUSH2 0xE60 JUMP JUMPDEST CALLER PUSH1 0x0 SWAP1 DUP2 MSTORE PUSH1 0x6 DUP5 ADD PUSH1 0x20 MSTORE PUSH1 0x40 SWAP1 KECCAK256 SLOAD SWAP1 SWAP2 POP PUSH1 0xFF AND ISZERO ISZERO PUSH1 0x1 EQ ISZERO PUSH2 0x246D JUMPI PUSH1 0x40 DUP1 MLOAD PUSH3 0x461BCD PUSH1 0xE5 SHL DUP2 MSTORE PUSH1 0x20 PUSH1 0x4 DUP3 ADD MSTORE PUSH1 0x18 PUSH1 0x24 DUP3 ADD MSTORE PUSH32 0x53656E6465722068617320616C726561647920766F7465640000000000000000 PUSH1 0x44 DUP3 ADD MSTORE SWAP1 MLOAD SWAP1 DUP2 SWAP1 SUB PUSH1 0x64 ADD SWAP1 REVERT JUMPDEST DUP1 PUSH2 0x24B3 JUMPI PUSH1 0x40 DUP1 MLOAD PUSH3 0x461BCD PUSH1 0xE5 SHL DUP2 MSTORE PUSH1 0x20 PUSH1 0x4 DUP3 ADD MSTORE PUSH1 0x11 PUSH1 0x24 DUP3 ADD MSTORE PUSH17 0x557365722062616C616E6365206973203 PUSH1 0x7C SHL PUSH1 0x44 DUP3 ADD MSTORE SWAP1 MLOAD SWAP1 DUP2 SWAP1 SUB PUSH1 0x64 ADD SWAP1 REVERT JUMPDEST CALLER PUSH1 0x0 SWAP1 DUP2 MSTORE PUSH1 0x44 PUSH1 0x20 MSTORE PUSH1 0x40 SWAP1 KECCAK256 SLOAD PUSH1 0x3 EQ ISZERO PUSH2 0x2518 JUMPI PUSH1 0x40 DUP1 MLOAD PUSH3 0x461BCD PUSH1 0xE5 SHL DUP2 MSTORE PUSH1 0x20 PUSH1 0x4 DUP3 ADD MSTORE PUSH1 0x16 PUSH1 0x24 DUP3 ADD MSTORE PUSH32 0x4D696E657220697320756E646572206469737075746500000000000000000000 PUSH1 0x44 DUP3 ADD MSTORE SWAP1 MLOAD SWAP1 DUP2 SWAP1 SUB PUSH1 0x64 ADD SWAP1 REVERT JUMPDEST CALLER PUSH1 0x0 SWAP1 DUP2 MSTORE PUSH1 0x6 DUP4 ADD PUSH1 0x20 SWAP1 DUP2 MSTORE PUSH1 0x40 DUP1 DUP4 KECCAK256 DUP1 SLOAD PUSH1 0xFF NOT AND PUSH1 0x1 SWAP1 DUP2 OR SWAP1 SWAP2 SSTORE PUSH32 0x1DA378694063870452CE03B189F48E04C1AA026348E74E6C86E10738514AD2C4 DUP5 MSTORE PUSH1 0x5 DUP7 ADD SWAP1 SWAP3 MSTORE SWAP1 SWAP2 KECCAK256 DUP1 SLOAD SWAP1 SWAP2 ADD SWAP1 SSTORE DUP3 ISZERO PUSH2 0x258D JUMPI PUSH1 0x1 DUP3 ADD SLOAD PUSH2 0x2583 SWAP1 DUP3 PUSH2 0x3B6E JUMP JUMPDEST PUSH1 0x1 DUP4 ADD SSTORE PUSH2 0x25A2 JUMP JUMPDEST PUSH1 0x1 DUP3 ADD SLOAD PUSH2 0x259C SWAP1 DUP3 PUSH2 0x3B99 JUMP JUMPDEST PUSH1 0x1 DUP4 ADD SSTORE JUMPDEST PUSH1 0x40 DUP1 MLOAD DUP5 ISZERO ISZERO DUP2 MSTORE SWAP1 MLOAD DUP3 SWAP2 CALLER SWAP2 DUP8 SWAP2 PUSH32 0x911EF2E98570B1D96C0E8EF81107A33D5B8E844AEB8F9710F9BC76C3B3FEF40E SWAP2 SWAP1 DUP2 SWAP1 SUB PUSH1 0x20 ADD SWAP1 LOG4 POP POP POP POP JUMP JUMPDEST PUSH1 0x49 PUSH1 0x20 MSTORE DUP2 PUSH1 0x0 MSTORE PUSH1 0x40 PUSH1 0x0 KECCAK256 DUP2 DUP2 SLOAD DUP2 LT PUSH2 0x2600 JUMPI PUSH1 0x0 DUP1 REVERT JUMPDEST PUSH1 0x0 SWAP2 DUP3 MSTORE PUSH1 0x20 SWAP1 SWAP2 KECCAK256 ADD SLOAD PUSH1 0x1 PUSH1 0x1 PUSH1 0x80 SHL SUB DUP1 DUP3 AND SWAP4 POP PUSH1 0x1 PUSH1 0x80 SHL SWAP1 SWAP2 DIV AND SWAP1 POP DUP3 JUMP JUMPDEST PUSH1 0x38 PUSH1 0x20 MSTORE PUSH1 0x0 SWAP1 DUP2 MSTORE PUSH1 0x40 SWAP1 KECCAK256 SLOAD DUP2 JUMP JUMPDEST PUSH1 0x36 PUSH1 0x20 MSTORE PUSH1 0x0 SWAP1 DUP2 MSTORE PUSH1 0x40 SWAP1 KECCAK256 DUP1 SLOAD PUSH1 0x1 DUP3 ADD SLOAD PUSH1 0x2 DUP4 ADD SLOAD PUSH1 0x3 DUP5 ADD SLOAD PUSH1 0x4 SWAP1 SWAP5 ADD SLOAD SWAP3 SWAP4 SWAP2 SWAP3 PUSH1 0xFF DUP1 DUP4 AND SWAP4 PUSH2 0x100 DUP5 DIV DUP3 AND SWAP4 PUSH3 0x10000 DUP2 DIV SWAP1 SWAP3 AND SWAP3 PUSH1 0x1 PUSH1 0x1 PUSH1 0xA0 SHL SUB PUSH4 0x1000000 SWAP1 SWAP4 DIV DUP4 AND SWAP3 SWAP2 DUP3 AND SWAP2 AND DUP9 JUMP JUMPDEST PUSH1 0x1 PUSH1 0x1 PUSH1 0xA0 SHL SUB SWAP2 DUP3 AND PUSH1 0x0 SWAP1 DUP2 MSTORE PUSH1 0x4A PUSH1 0x20 SWAP1 DUP2 MSTORE PUSH1 0x40 DUP1 DUP4 KECCAK256 SWAP4 SWAP1 SWAP5 AND DUP3 MSTORE SWAP2 SWAP1 SWAP2 MSTORE KECCAK256 SLOAD SWAP1 JUMP JUMPDEST PUSH2 0xBB7 SWAP1 JUMP JUMPDEST DUP1 PUSH2 0x2702 JUMPI PUSH1 0x40 MLOAD PUSH3 0x461BCD PUSH1 0xE5 SHL DUP2 MSTORE PUSH1 0x4 ADD DUP1 DUP1 PUSH1 0x20 ADD DUP3 DUP2 SUB DUP3 MSTORE PUSH1 0x21 DUP2 MSTORE PUSH1 0x20 ADD DUP1 PUSH2 0x4E22 PUSH1 0x21 SWAP2 CODECOPY PUSH1 0x40 ADD SWAP2 POP POP PUSH1 0x40 MLOAD DUP1 SWAP2 SUB SWAP1 REVERT JUMPDEST PUSH1 0x1 PUSH1 0x1 PUSH1 0xA0 SHL SUB DUP3 AND PUSH2 0x2755 JUMPI PUSH1 0x40 DUP1 MLOAD PUSH3 0x461BCD PUSH1 0xE5 SHL DUP2 MSTORE PUSH1 0x20 PUSH1 0x4 DUP3 ADD MSTORE PUSH1 0x15 PUSH1 0x24 DUP3 ADD MSTORE PUSH21 0x526563656976657220697320302061646472657373 PUSH1 0x58 SHL PUSH1 0x44 DUP3 ADD MSTORE SWAP1 MLOAD SWAP1 DUP2 SWAP1 SUB PUSH1 0x64 ADD SWAP1 REVERT JUMPDEST PUSH2 0x275F DUP4 DUP3 PUSH2 0x1832 JUMP JUMPDEST PUSH2 0x279A JUMPI PUSH1 0x40 MLOAD PUSH3 0x461BCD PUSH1 0xE5 SHL DUP2 MSTORE PUSH1 0x4 ADD DUP1 DUP1 PUSH1 0x20 ADD DUP3 DUP2 SUB DUP3 MSTORE PUSH1 0x27 DUP2 MSTORE PUSH1 0x20 ADD DUP1 PUSH2 0x4DDB PUSH1 0x27 SWAP2 CODECOPY PUSH1 0x40 ADD SWAP2 POP POP PUSH1 0x40 MLOAD DUP1 SWAP2 SUB SWAP1 REVERT JUMPDEST PUSH1 0x0 PUSH2 0x27A5 DUP5 PUSH2 0x104A JUMP JUMPDEST SWAP1 POP DUP2 PUSH2 0x27B4 DUP6 DUP3 DUP5 SUB PUSH2 0x3BBF JUMP JUMPDEST PUSH2 0x27BD DUP5 PUSH2 0x104A JUMP JUMPDEST SWAP2 POP DUP2 PUSH1 0x1 PUSH1 0x1 PUSH1 0x80 SHL SUB AND DUP2 DUP4 ADD PUSH1 0x1 PUSH1 0x1 PUSH1 0x80 SHL SUB AND LT ISZERO PUSH2 0x281C JUMPI PUSH1 0x40 DUP1 MLOAD PUSH3 0x461BCD PUSH1 0xE5 SHL DUP2 MSTORE PUSH1 0x20 PUSH1 0x4 DUP3 ADD MSTORE PUSH1 0x11 PUSH1 0x24 DUP3 ADD MSTORE PUSH17 0x13DD995C999B1BDDC81A185C1C195B9959 PUSH1 0x7A SHL PUSH1 0x44 DUP3 ADD MSTORE SWAP1 MLOAD SWAP1 DUP2 SWAP1 SUB PUSH1 0x64 ADD SWAP1 REVERT JUMPDEST PUSH2 0x2828 DUP5 DUP3 DUP5 ADD PUSH2 0x3BBF JUMP JUMPDEST DUP4 PUSH1 0x1 PUSH1 0x1 PUSH1 0xA0 SHL SUB AND DUP6 PUSH1 0x1 PUSH1 0x1 PUSH1 0xA0 SHL SUB AND PUSH32 0xDDF252AD1BE2C89B69C2B068FC378DAA952BA7F163C4A11628F55A4DF523B3EF DUP6 PUSH1 0x40 MLOAD DUP1 DUP3 DUP2 MSTORE PUSH1 0x20 ADD SWAP2 POP POP PUSH1 0x40 MLOAD DUP1 SWAP2 SUB SWAP1 LOG3 POP POP POP POP POP JUMP JUMPDEST PUSH1 0x40 DUP1 MLOAD PUSH1 0x20 PUSH1 0x24 DUP3 ADD DUP2 SWAP1 MSTORE PUSH1 0x0 PUSH1 0x44 DUP4 ADD DUP2 SWAP1 MSTORE DUP4 MLOAD DUP1 DUP5 SUB PUSH1 0x64 ADD DUP2 MSTORE PUSH1 0x84 SWAP1 SWAP4 ADD DUP5 MSTORE SWAP1 DUP3 ADD DUP1 MLOAD PUSH1 0x1 PUSH1 0x1 PUSH1 0xE0 SHL SUB AND PUSH4 0xFC735E99 PUSH1 0xE0 SHL OR DUP2 MSTORE SWAP3 MLOAD DUP3 MLOAD SWAP2 SWAP4 PUSH1 0x60 SWAP4 PUSH1 0x1 PUSH1 0x1 PUSH1 0xA0 SHL SUB DUP8 AND SWAP4 SWAP1 SWAP3 SWAP2 DUP3 SWAP2 DUP1 DUP4 DUP4 JUMPDEST PUSH1 0x20 DUP4 LT PUSH2 0x28F6 JUMPI DUP1 MLOAD DUP3 MSTORE PUSH1 0x1F NOT SWAP1 SWAP3 ADD SWAP2 PUSH1 0x20 SWAP2 DUP3 ADD SWAP2 ADD PUSH2 0x28D7 JUMP JUMPDEST PUSH1 0x1 DUP4 PUSH1 0x20 SUB PUSH2 0x100 EXP SUB DUP1 NOT DUP3 MLOAD AND DUP2 DUP5 MLOAD AND DUP1 DUP3 OR DUP6 MSTORE POP POP POP POP POP POP SWAP1 POP ADD SWAP2 POP POP PUSH1 0x0 PUSH1 0x40 MLOAD DUP1 DUP4 SUB DUP2 PUSH1 0x0 DUP7 GAS CALL SWAP2 POP POP RETURNDATASIZE DUP1 PUSH1 0x0 DUP2 EQ PUSH2 0x2958 JUMPI PUSH1 0x40 MLOAD SWAP2 POP PUSH1 0x1F NOT PUSH1 0x3F RETURNDATASIZE ADD AND DUP3 ADD PUSH1 0x40 MSTORE RETURNDATASIZE DUP3 MSTORE RETURNDATASIZE PUSH1 0x0 PUSH1 0x20 DUP5 ADD RETURNDATACOPY PUSH2 0x295D JUMP JUMPDEST PUSH1 0x60 SWAP2 POP JUMPDEST POP SWAP2 POP SWAP2 POP DUP2 DUP1 ISZERO PUSH2 0x2986 JUMPI POP PUSH2 0xBB7 DUP2 DUP1 PUSH1 0x20 ADD SWAP1 MLOAD PUSH1 0x20 DUP2 LT ISZERO PUSH2 0x2982 JUMPI PUSH1 0x0 DUP1 REVERT JUMPDEST POP MLOAD GT JUMPDEST PUSH2 0x22C0 JUMPI PUSH1 0x40 DUP1 MLOAD PUSH3 0x461BCD PUSH1 0xE5 SHL DUP2 MSTORE PUSH1 0x20 PUSH1 0x4 DUP3 ADD MSTORE PUSH1 0x15 PUSH1 0x24 DUP3 ADD MSTORE PUSH32 0x6E65772074656C6C6F7220697320696E76616C69640000000000000000000000 PUSH1 0x44 DUP3 ADD MSTORE SWAP1 MLOAD SWAP1 DUP2 SWAP1 SUB PUSH1 0x64 ADD SWAP1 REVERT JUMPDEST PUSH1 0x0 DUP2 DUP2 MSTORE PUSH1 0x36 PUSH1 0x20 DUP2 DUP2 MSTORE PUSH1 0x40 DUP1 DUP5 KECCAK256 PUSH32 0x6AB2B18AAFE78FD59C6A4092015BDDD9FCACB8170F72B299074F74D76A91A923 DUP6 MSTORE PUSH1 0x5 ADD DUP1 DUP4 MSTORE DUP2 DUP6 KECCAK256 DUP1 SLOAD PUSH1 0x1 ADD SWAP1 DUP2 SWAP1 SSTORE DUP7 DUP7 MSTORE SWAP4 DUP4 MSTORE DUP2 MLOAD DUP1 DUP5 ADD DUP6 SWAP1 MSTORE DUP3 MLOAD DUP1 DUP3 SUB DUP6 ADD DUP2 MSTORE SWAP1 DUP4 ADD DUP4 MSTORE DUP1 MLOAD SWAP1 DUP5 ADD KECCAK256 DUP6 MSTORE SWAP1 SWAP2 MSTORE SWAP1 SWAP2 KECCAK256 DUP4 SWAP1 SSTORE DUP3 DUP3 EQ PUSH2 0x84A JUMPI PUSH1 0x0 DUP3 DUP2 MSTORE PUSH1 0x36 PUSH1 0x20 DUP2 DUP2 MSTORE PUSH1 0x40 DUP1 DUP5 KECCAK256 DUP2 MLOAD PUSH1 0x0 NOT DUP8 ADD DUP2 DUP6 ADD MSTORE DUP3 MLOAD DUP1 DUP3 SUB DUP6 ADD DUP2 MSTORE SWAP1 DUP4 ADD DUP4 MSTORE DUP1 MLOAD SWAP1 DUP5 ADD KECCAK256 DUP6 MSTORE PUSH1 0x5 SWAP1 DUP2 ADD DUP4 MSTORE DUP2 DUP6 KECCAK256 SLOAD DUP1 DUP7 MSTORE SWAP4 DUP4 MSTORE DUP2 DUP6 KECCAK256 PUSH32 0x46F7D53798D31923F6952572C6A19AD2D1A8238D26649C2F3493A6D69E425D28 DUP7 MSTORE ADD SWAP1 SWAP2 MSTORE SWAP1 SWAP2 KECCAK256 SLOAD TIMESTAMP LT ISZERO PUSH2 0x2B16 JUMPI PUSH1 0x40 DUP1 MLOAD PUSH3 0x461BCD PUSH1 0xE5 SHL DUP2 MSTORE PUSH1 0x20 PUSH1 0x4 DUP3 ADD MSTORE PUSH1 0x17 PUSH1 0x24 DUP3 ADD MSTORE PUSH32 0x4469737075746520697320616C7265616479206F70656E000000000000000000 PUSH1 0x44 DUP3 ADD MSTORE SWAP1 MLOAD SWAP1 DUP2 SWAP1 SUB PUSH1 0x64 ADD SWAP1 REVERT JUMPDEST PUSH1 0x0 DUP2 DUP2 MSTORE PUSH1 0x36 PUSH1 0x20 MSTORE PUSH1 0x40 SWAP1 KECCAK256 PUSH1 0x2 ADD SLOAD PUSH1 0xFF AND ISZERO PUSH2 0x1004 JUMPI PUSH1 0x0 DUP2 DUP2 MSTORE PUSH1 0x36 PUSH1 0x20 SWAP1 DUP2 MSTORE PUSH1 0x40 DUP1 DUP4 KECCAK256 PUSH32 0xF9E1AE10923BFC79F52E309BAF8C7699EDB821F91EF5B5BD07BE29545917B3A6 DUP5 MSTORE PUSH1 0x5 ADD SWAP1 SWAP2 MSTORE SWAP1 KECCAK256 SLOAD PUSH3 0x15180 TIMESTAMP SWAP2 SWAP1 SWAP2 SUB GT ISZERO PUSH2 0x1004 JUMPI PUSH1 0x40 DUP1 MLOAD PUSH3 0x461BCD PUSH1 0xE5 SHL DUP2 MSTORE PUSH1 0x20 PUSH1 0x4 DUP3 ADD MSTORE PUSH1 0x1F PUSH1 0x24 DUP3 ADD MSTORE PUSH32 0x54696D6520666F7220766F74696E6720686176656E277420656C617073656400 PUSH1 0x44 DUP3 ADD MSTORE SWAP1 MLOAD SWAP1 DUP2 SWAP1 SUB PUSH1 0x64 ADD SWAP1 REVERT JUMPDEST PUSH32 0x5BCCD7373734898281F858D7562320D2CDFC0B17BD72F779686937174D150025 SLOAD PUSH32 0xD54702836C9D21D0727FFACC3E39F57C92B5AE0F50177E593BFB5EC66E3DE280 PUSH1 0x0 MSTORE PUSH1 0x48 PUSH1 0x20 SWAP1 DUP2 MSTORE PUSH32 0x52CB9007C7C6068F8EF37039D4F232CBF5A28FF8D93A5983C4C0C27CD2F9BC0D SLOAD PUSH1 0x40 DUP1 MLOAD DUP1 DUP5 ADD DUP4 DUP2 MSTORE CALLER PUSH1 0x60 DUP2 SWAP1 SHL SWAP4 DUP4 ADD SWAP4 SWAP1 SWAP4 MSTORE DUP7 MLOAD PUSH1 0x2 SWAP6 PUSH1 0x3 SWAP6 SWAP5 SWAP4 DUP10 SWAP4 SWAP3 PUSH1 0x54 SWAP1 SWAP2 ADD SWAP2 DUP5 ADD SWAP1 DUP1 DUP4 DUP4 JUMPDEST PUSH1 0x20 DUP4 LT PUSH2 0x2C88 JUMPI DUP1 MLOAD DUP3 MSTORE PUSH1 0x1F NOT SWAP1 SWAP3 ADD SWAP2 PUSH1 0x20 SWAP2 DUP3 ADD SWAP2 ADD PUSH2 0x2C69 JUMP JUMPDEST PUSH1 0x1 DUP4 PUSH1 0x20 SUB PUSH2 0x100 EXP SUB DUP1 NOT DUP3 MLOAD AND DUP2 DUP5 MLOAD AND DUP1 DUP3 OR DUP6 MSTORE POP POP POP POP POP POP SWAP1 POP ADD SWAP4 POP POP POP POP PUSH1 0x40 MLOAD PUSH1 0x20 DUP2 DUP4 SUB SUB DUP2 MSTORE SWAP1 PUSH1 0x40 MSTORE DUP1 MLOAD SWAP1 PUSH1 0x20 ADD KECCAK256 PUSH1 0x40 MLOAD PUSH1 0x20 ADD DUP1 DUP3 DUP2 MSTORE PUSH1 0x20 ADD SWAP2 POP POP PUSH1 0x40 MLOAD PUSH1 0x20 DUP2 DUP4 SUB SUB DUP2 MSTORE SWAP1 PUSH1 0x40 MSTORE PUSH1 0x40 MLOAD DUP1 DUP3 DUP1 MLOAD SWAP1 PUSH1 0x20 ADD SWAP1 DUP1 DUP4 DUP4 JUMPDEST PUSH1 0x20 DUP4 LT PUSH2 0x2D13 JUMPI DUP1 MLOAD DUP3 MSTORE PUSH1 0x1F NOT SWAP1 SWAP3 ADD SWAP2 PUSH1 0x20 SWAP2 DUP3 ADD SWAP2 ADD PUSH2 0x2CF4 JUMP JUMPDEST MLOAD DUP2 MLOAD PUSH1 0x20 SWAP4 DUP5 SUB PUSH2 0x100 EXP PUSH1 0x0 NOT ADD DUP1 NOT SWAP1 SWAP3 AND SWAP2 AND OR SWAP1 MSTORE PUSH1 0x40 MLOAD SWAP2 SWAP1 SWAP4 ADD SWAP5 POP SWAP2 SWAP3 POP POP DUP1 DUP4 SUB DUP2 DUP6 GAS STATICCALL ISZERO DUP1 ISZERO PUSH2 0x2D52 JUMPI RETURNDATASIZE PUSH1 0x0 DUP1 RETURNDATACOPY RETURNDATASIZE PUSH1 0x0 REVERT JUMPDEST POP POP POP PUSH1 0x40 MLOAD MLOAD PUSH1 0x60 SHL PUSH1 0x40 MLOAD PUSH1 0x20 ADD DUP1 DUP3 PUSH12 0xFFFFFFFFFFFFFFFFFFFFFFFF NOT AND DUP2 MSTORE PUSH1 0x14 ADD SWAP2 POP POP PUSH1 0x40 MLOAD PUSH1 0x20 DUP2 DUP4 SUB SUB DUP2 MSTORE SWAP1 PUSH1 0x40 MSTORE PUSH1 0x40 MLOAD DUP1 DUP3 DUP1 MLOAD SWAP1 PUSH1 0x20 ADD SWAP1 DUP1 DUP4 DUP4 JUMPDEST PUSH1 0x20 DUP4 LT PUSH2 0x2DB9 JUMPI DUP1 MLOAD DUP3 MSTORE PUSH1 0x1F NOT SWAP1 SWAP3 ADD SWAP2 PUSH1 0x20 SWAP2 DUP3 ADD SWAP2 ADD PUSH2 0x2D9A JUMP JUMPDEST MLOAD DUP2 MLOAD PUSH1 0x20 SWAP4 DUP5 SUB PUSH2 0x100 EXP PUSH1 0x0 NOT ADD DUP1 NOT SWAP1 SWAP3 AND SWAP2 AND OR SWAP1 MSTORE PUSH1 0x40 MLOAD SWAP2 SWAP1 SWAP4 ADD SWAP5 POP SWAP2 SWAP3 POP POP DUP1 DUP4 SUB DUP2 DUP6 GAS STATICCALL ISZERO DUP1 ISZERO PUSH2 0x2DF8 JUMPI RETURNDATASIZE PUSH1 0x0 DUP1 RETURNDATACOPY RETURNDATASIZE PUSH1 0x0 REVERT JUMPDEST POP POP POP PUSH1 0x40 MLOAD RETURNDATASIZE PUSH1 0x20 DUP2 LT ISZERO PUSH2 0x2E0D JUMPI PUSH1 0x0 DUP1 REVERT JUMPDEST POP MLOAD DUP2 PUSH2 0x2E16 JUMPI INVALID JUMPDEST MOD ISZERO DUP1 PUSH2 0x2E74 JUMPI POP PUSH32 0x2C8B528FBAF48AAF13162A5A0519A7AD5A612DA8FF8783465C17E076660A59F1 PUSH1 0x0 MSTORE PUSH1 0x46 PUSH1 0x20 MSTORE PUSH32 0x231BB0DC207F13DD4E565EBC32496C470E35391BD8D3B6649269EE2328E03118 SLOAD PUSH2 0x384 TIMESTAMP SWAP2 SWAP1 SWAP2 SUB LT ISZERO JUMPDEST PUSH2 0x2EAF JUMPI PUSH1 0x40 MLOAD PUSH3 0x461BCD PUSH1 0xE5 SHL DUP2 MSTORE PUSH1 0x4 ADD DUP1 DUP1 PUSH1 0x20 ADD DUP3 DUP2 SUB DUP3 MSTORE PUSH1 0x25 DUP2 MSTORE PUSH1 0x20 ADD DUP1 PUSH2 0x4EDB PUSH1 0x25 SWAP2 CODECOPY PUSH1 0x40 ADD SWAP2 POP POP PUSH1 0x40 MLOAD DUP1 SWAP2 SUB SWAP1 REVERT JUMPDEST POP JUMP JUMPDEST PUSH1 0x40 DUP1 MLOAD CALLER PUSH1 0x20 DUP1 DUP4 ADD DUP3 SWAP1 MSTORE DUP4 MLOAD DUP1 DUP5 SUB DUP3 ADD DUP2 MSTORE SWAP3 DUP5 ADD DUP5 MSTORE DUP3 MLOAD SWAP3 DUP2 ADD SWAP3 SWAP1 SWAP3 KECCAK256 PUSH1 0x0 SWAP2 DUP3 MSTORE PUSH1 0x44 SWAP1 SWAP3 MSTORE SWAP2 SWAP1 SWAP2 KECCAK256 SLOAD PUSH1 0x1 EQ PUSH2 0x2F39 JUMPI PUSH1 0x40 DUP1 MLOAD PUSH3 0x461BCD PUSH1 0xE5 SHL DUP2 MSTORE PUSH1 0x20 PUSH1 0x4 DUP3 ADD MSTORE PUSH1 0x1A PUSH1 0x24 DUP3 ADD MSTORE PUSH32 0x4D696E657220737461747573206973206E6F74207374616B6572000000000000 PUSH1 0x44 DUP3 ADD MSTORE SWAP1 MLOAD SWAP1 DUP2 SWAP1 SUB PUSH1 0x64 ADD SWAP1 REVERT JUMPDEST PUSH1 0x3A SLOAD DUP4 MLOAD EQ PUSH2 0x2F86 JUMPI PUSH1 0x40 DUP1 MLOAD PUSH3 0x461BCD PUSH1 0xE5 SHL DUP2 MSTORE PUSH1 0x20 PUSH1 0x4 DUP3 ADD MSTORE PUSH1 0x13 PUSH1 0x24 DUP3 ADD MSTORE PUSH19 0x526571756573742049442069732077726F6E67 PUSH1 0x68 SHL PUSH1 0x44 DUP3 ADD MSTORE SWAP1 MLOAD SWAP1 DUP2 SWAP1 SUB PUSH1 0x64 ADD SWAP1 REVERT JUMPDEST PUSH1 0x3C SLOAD PUSH1 0x20 DUP5 ADD MLOAD EQ PUSH2 0x2FD6 JUMPI PUSH1 0x40 DUP1 MLOAD PUSH3 0x461BCD PUSH1 0xE5 SHL DUP2 MSTORE PUSH1 0x20 PUSH1 0x4 DUP3 ADD MSTORE PUSH1 0x13 PUSH1 0x24 DUP3 ADD MSTORE PUSH19 0x526571756573742049442069732077726F6E67 PUSH1 0x68 SHL PUSH1 0x44 DUP3 ADD MSTORE SWAP1 MLOAD SWAP1 DUP2 SWAP1 SUB PUSH1 0x64 ADD SWAP1 REVERT JUMPDEST PUSH1 0x3E SLOAD PUSH1 0x40 DUP5 ADD MLOAD EQ PUSH2 0x3026 JUMPI PUSH1 0x40 DUP1 MLOAD PUSH3 0x461BCD PUSH1 0xE5 SHL DUP2 MSTORE PUSH1 0x20 PUSH1 0x4 DUP3 ADD MSTORE PUSH1 0x13 PUSH1 0x24 DUP3 ADD MSTORE PUSH19 0x526571756573742049442069732077726F6E67 PUSH1 0x68 SHL PUSH1 0x44 DUP3 ADD MSTORE SWAP1 MLOAD SWAP1 DUP2 SWAP1 SUB PUSH1 0x64 ADD SWAP1 REVERT JUMPDEST PUSH1 0x40 SLOAD PUSH1 0x60 DUP5 ADD MLOAD EQ PUSH2 0x3076 JUMPI PUSH1 0x40 DUP1 MLOAD PUSH3 0x461BCD PUSH1 0xE5 SHL DUP2 MSTORE PUSH1 0x20 PUSH1 0x4 DUP3 ADD MSTORE PUSH1 0x13 PUSH1 0x24 DUP3 ADD MSTORE PUSH19 0x526571756573742049442069732077726F6E67 PUSH1 0x68 SHL PUSH1 0x44 DUP3 ADD MSTORE SWAP1 MLOAD SWAP1 DUP2 SWAP1 SUB PUSH1 0x64 ADD SWAP1 REVERT JUMPDEST PUSH1 0x42 SLOAD PUSH1 0x80 DUP5 ADD MLOAD EQ PUSH2 0x30C6 JUMPI PUSH1 0x40 DUP1 MLOAD PUSH3 0x461BCD PUSH1 0xE5 SHL DUP2 MSTORE PUSH1 0x20 PUSH1 0x4 DUP3 ADD MSTORE PUSH1 0x13 PUSH1 0x24 DUP3 ADD MSTORE PUSH19 0x526571756573742049442069732077726F6E67 PUSH1 0x68 SHL PUSH1 0x44 DUP3 ADD MSTORE SWAP1 MLOAD SWAP1 DUP2 SWAP1 SUB PUSH1 0x64 ADD SWAP1 REVERT JUMPDEST PUSH1 0x0 DUP2 DUP2 MSTORE PUSH1 0x46 PUSH1 0x20 SWAP1 DUP2 MSTORE PUSH1 0x40 DUP1 DUP4 KECCAK256 TIMESTAMP SWAP1 SSTORE PUSH32 0x52CB9007C7C6068F8EF37039D4F232CBF5A28FF8D93A5983C4C0C27CD2F9BC0D SLOAD PUSH32 0x7DF1EB1754BC067736FF3D89AF41D339BF906D31B0F5978E3C78F402D4ED2492 SLOAD DUP2 DUP6 MSTORE PUSH1 0x39 DUP5 MSTORE DUP3 DUP6 KECCAK256 CALLER DUP7 MSTORE SWAP1 SWAP4 MSTORE SWAP3 KECCAK256 SLOAD PUSH1 0xFF AND ISZERO PUSH2 0x3170 JUMPI PUSH1 0x40 MLOAD PUSH3 0x461BCD PUSH1 0xE5 SHL DUP2 MSTORE PUSH1 0x4 ADD DUP1 DUP1 PUSH1 0x20 ADD DUP3 DUP2 SUB DUP3 MSTORE PUSH1 0x21 DUP2 MSTORE PUSH1 0x20 ADD DUP1 PUSH2 0x4E95 PUSH1 0x21 SWAP2 CODECOPY PUSH1 0x40 ADD SWAP2 POP POP PUSH1 0x40 MLOAD DUP1 SWAP2 SUB SWAP1 REVERT JUMPDEST PUSH1 0x0 DUP3 DUP2 MSTORE PUSH1 0x39 PUSH1 0x20 SWAP1 DUP2 MSTORE PUSH1 0x40 DUP1 DUP4 KECCAK256 CALLER DUP5 MSTORE DUP3 MSTORE DUP1 DUP4 KECCAK256 DUP1 SLOAD PUSH1 0xFF NOT AND PUSH1 0x1 OR SWAP1 SSTORE PUSH32 0xE97D205F7D20BF394E3813033D2203B4733ACB28B351C8D2A771647AB0D41C3C SLOAD DUP4 MSTORE PUSH1 0x45 DUP3 MSTORE DUP1 DUP4 KECCAK256 DUP8 MLOAD DUP5 DUP1 MSTORE PUSH1 0x6 DUP3 ADD SWAP1 SWAP4 MSTORE SWAP3 KECCAK256 DUP4 PUSH1 0x5 DUP2 LT PUSH2 0x31D8 JUMPI INVALID JUMPDEST ADD SSTORE PUSH1 0x20 DUP1 DUP7 ADD MLOAD PUSH1 0x1 PUSH1 0x0 SWAP1 DUP2 MSTORE PUSH1 0x6 DUP5 ADD SWAP1 SWAP3 MSTORE PUSH1 0x40 SWAP1 SWAP2 KECCAK256 DUP4 PUSH1 0x5 DUP2 LT PUSH2 0x31FE JUMPI INVALID JUMPDEST ADD SSTORE PUSH1 0x40 DUP1 DUP7 ADD MLOAD PUSH1 0x2 PUSH1 0x0 SWAP1 DUP2 MSTORE PUSH1 0x6 DUP5 ADD PUSH1 0x20 MSTORE SWAP2 SWAP1 SWAP2 KECCAK256 DUP4 PUSH1 0x5 DUP2 LT PUSH2 0x3223 JUMPI INVALID JUMPDEST ADD SSTORE PUSH1 0x60 DUP6 ADD MLOAD PUSH1 0x3 PUSH1 0x0 SWAP1 DUP2 MSTORE PUSH1 0x6 DUP4 ADD PUSH1 0x20 MSTORE PUSH1 0x40 SWAP1 KECCAK256 DUP4 PUSH1 0x5 DUP2 LT PUSH2 0x3247 JUMPI INVALID JUMPDEST ADD SSTORE PUSH1 0x80 DUP6 ADD MLOAD PUSH1 0x4 PUSH1 0x0 SWAP1 DUP2 MSTORE PUSH1 0x6 DUP4 ADD PUSH1 0x20 MSTORE PUSH1 0x40 SWAP1 KECCAK256 DUP4 PUSH1 0x5 DUP2 LT PUSH2 0x326B JUMPI INVALID JUMPDEST ADD SSTORE PUSH1 0x0 DUP1 DUP1 MSTORE PUSH1 0x5 DUP1 DUP4 ADD PUSH1 0x20 MSTORE PUSH1 0x40 SWAP1 SWAP2 KECCAK256 CALLER SWAP2 DUP5 SWAP1 DUP2 LT PUSH2 0x328B JUMPI INVALID JUMPDEST ADD DUP1 SLOAD PUSH1 0x1 PUSH1 0x1 PUSH1 0xA0 SHL SUB NOT AND PUSH1 0x1 PUSH1 0x1 PUSH1 0xA0 SHL SUB SWAP3 SWAP1 SWAP3 AND SWAP2 SWAP1 SWAP2 OR SWAP1 SSTORE PUSH1 0x1 PUSH1 0x0 SWAP1 DUP2 MSTORE PUSH1 0x5 DUP3 DUP2 ADD PUSH1 0x20 MSTORE PUSH1 0x40 SWAP1 SWAP2 KECCAK256 CALLER SWAP2 DUP5 SWAP1 DUP2 LT PUSH2 0x32CA JUMPI INVALID JUMPDEST ADD DUP1 SLOAD PUSH1 0x1 PUSH1 0x1 PUSH1 0xA0 SHL SUB NOT AND PUSH1 0x1 PUSH1 0x1 PUSH1 0xA0 SHL SUB SWAP3 SWAP1 SWAP3 AND SWAP2 SWAP1 SWAP2 OR SWAP1 SSTORE PUSH1 0x2 PUSH1 0x0 SWAP1 DUP2 MSTORE PUSH1 0x5 DUP3 DUP2 ADD PUSH1 0x20 MSTORE PUSH1 0x40 SWAP1 SWAP2 KECCAK256 CALLER SWAP2 DUP5 SWAP1 DUP2 LT PUSH2 0x3309 JUMPI INVALID JUMPDEST ADD DUP1 SLOAD PUSH1 0x1 PUSH1 0x1 PUSH1 0xA0 SHL SUB NOT AND PUSH1 0x1 PUSH1 0x1 PUSH1 0xA0 SHL SUB SWAP3 SWAP1 SWAP3 AND SWAP2 SWAP1 SWAP2 OR SWAP1 SSTORE PUSH1 0x3 PUSH1 0x0 SWAP1 DUP2 MSTORE PUSH1 0x5 DUP3 DUP2 ADD PUSH1 0x20 MSTORE PUSH1 0x40 SWAP1 SWAP2 KECCAK256 CALLER SWAP2 DUP5 SWAP1 DUP2 LT PUSH2 0x3348 JUMPI INVALID JUMPDEST ADD DUP1 SLOAD PUSH1 0x1 PUSH1 0x1 PUSH1 0xA0 SHL SUB NOT AND PUSH1 0x1 PUSH1 0x1 PUSH1 0xA0 SHL SUB SWAP3 SWAP1 SWAP3 AND SWAP2 SWAP1 SWAP2 OR SWAP1 SSTORE PUSH1 0x4 PUSH1 0x0 SWAP1 DUP2 MSTORE PUSH1 0x5 DUP3 DUP2 ADD PUSH1 0x20 MSTORE PUSH1 0x40 SWAP1 SWAP2 KECCAK256 CALLER SWAP2 DUP5 SWAP1 DUP2 LT PUSH2 0x3387 JUMPI INVALID JUMPDEST ADD DUP1 SLOAD PUSH1 0x1 PUSH1 0x1 PUSH1 0xA0 SHL SUB NOT AND PUSH1 0x1 PUSH1 0x1 PUSH1 0xA0 SHL SUB SWAP3 SWAP1 SWAP3 AND SWAP2 SWAP1 SWAP2 OR SWAP1 SSTORE PUSH1 0x1 DUP3 ADD PUSH1 0x4 EQ ISZERO PUSH2 0x33BA JUMPI PUSH2 0x33BA PUSH2 0x3CBB JUMP JUMPDEST DUP3 CALLER PUSH1 0x1 PUSH1 0x1 PUSH1 0xA0 SHL SUB AND PUSH32 0x9D2E5F03FC65AFF196E0F3A8DD924B24099DE487E8CFFC888921D420AB196E39 DUP10 DUP10 DUP10 DUP8 PUSH1 0x40 MLOAD DUP1 DUP1 PUSH1 0x20 ADD DUP6 PUSH1 0x5 PUSH1 0x20 MUL DUP1 DUP4 DUP4 PUSH1 0x0 JUMPDEST DUP4 DUP2 LT ISZERO PUSH2 0x3416 JUMPI DUP2 DUP2 ADD MLOAD DUP4 DUP3 ADD MSTORE PUSH1 0x20 ADD PUSH2 0x33FE JUMP JUMPDEST POP POP POP POP SWAP1 POP ADD DUP5 PUSH1 0x5 PUSH1 0x20 MUL DUP1 DUP4 DUP4 PUSH1 0x0 JUMPDEST DUP4 DUP2 LT ISZERO PUSH2 0x3441 JUMPI DUP2 DUP2 ADD MLOAD DUP4 DUP3 ADD MSTORE PUSH1 0x20 ADD PUSH2 0x3429 JUMP JUMPDEST POP POP POP POP SWAP1 POP ADD DUP4 DUP2 MSTORE PUSH1 0x20 ADD DUP3 DUP2 SUB DUP3 MSTORE DUP7 DUP2 DUP2 MLOAD DUP2 MSTORE PUSH1 0x20 ADD SWAP2 POP DUP1 MLOAD SWAP1 PUSH1 0x20 ADD SWAP1 DUP1 DUP4 DUP4 PUSH1 0x0 JUMPDEST DUP4 DUP2 LT ISZERO PUSH2 0x3483 JUMPI DUP2 DUP2 ADD MLOAD DUP4 DUP3 ADD MSTORE PUSH1 0x20 ADD PUSH2 0x346B JUMP JUMPDEST POP POP POP POP SWAP1 POP SWAP1 DUP2 ADD SWAP1 PUSH1 0x1F AND DUP1 ISZERO PUSH2 0x34B0 JUMPI DUP1 DUP3 SUB DUP1 MLOAD PUSH1 0x1 DUP4 PUSH1 0x20 SUB PUSH2 0x100 EXP SUB NOT AND DUP2 MSTORE PUSH1 0x20 ADD SWAP2 POP JUMPDEST POP SWAP6 POP POP POP POP POP POP PUSH1 0x40 MLOAD DUP1 SWAP2 SUB SWAP1 LOG3 DUP2 PUSH1 0x1 ADD PUSH1 0x5 EQ ISZERO PUSH2 0x3528 JUMPI PUSH2 0x34D6 DUP8 DUP8 PUSH2 0x3DF9 JUMP JUMPDEST PUSH32 0xDFBEC46864BC123768F0D134913175D9577A55BB71B9B2595FDA21E21F36B082 PUSH1 0x0 SWAP1 DUP2 MSTORE PUSH1 0x46 PUSH1 0x20 MSTORE PUSH32 0x7DF1EB1754BC067736FF3D89AF41D339BF906D31B0F5978E3C78F402D4ED2492 SSTORE PUSH2 0x357A JUMP JUMPDEST PUSH32 0xDFBEC46864BC123768F0D134913175D9577A55BB71B9B2595FDA21E21F36B082 PUSH1 0x0 MSTORE PUSH1 0x46 PUSH1 0x20 MSTORE PUSH32 0x7DF1EB1754BC067736FF3D89AF41D339BF906D31B0F5978E3C78F402D4ED2492 DUP1 SLOAD PUSH1 0x1 ADD SWAP1 SSTORE JUMPDEST POP POP POP POP POP POP POP JUMP JUMPDEST DUP1 PUSH2 0x358D JUMPI PUSH2 0x372F JUMP JUMPDEST PUSH2 0x3597 DUP3 DUP3 PUSH2 0x1832 JUMP JUMPDEST PUSH2 0x35D2 JUMPI PUSH1 0x40 MLOAD PUSH3 0x461BCD PUSH1 0xE5 SHL DUP2 MSTORE PUSH1 0x4 ADD DUP1 DUP1 PUSH1 0x20 ADD DUP3 DUP2 SUB DUP3 MSTORE PUSH1 0x27 DUP2 MSTORE PUSH1 0x20 ADD DUP1 PUSH2 0x4DDB PUSH1 0x27 SWAP2 CODECOPY PUSH1 0x40 ADD SWAP2 POP POP PUSH1 0x40 MLOAD DUP1 SWAP2 SUB SWAP1 REVERT JUMPDEST PUSH1 0x0 PUSH2 0x35DD DUP4 PUSH2 0x104A JUMP JUMPDEST SWAP1 POP DUP2 PUSH1 0x1 PUSH1 0x1 PUSH1 0x80 SHL SUB DUP1 DUP4 AND DUP3 DUP5 SUB SWAP1 SWAP2 AND GT ISZERO PUSH2 0x3638 JUMPI PUSH1 0x40 DUP1 MLOAD PUSH3 0x461BCD PUSH1 0xE5 SHL DUP2 MSTORE PUSH1 0x20 PUSH1 0x4 DUP3 ADD MSTORE PUSH1 0x11 PUSH1 0x24 DUP3 ADD MSTORE PUSH17 0x13DD995C999B1BDDC81A185C1C195B9959 PUSH1 0x7A SHL PUSH1 0x44 DUP3 ADD MSTORE SWAP1 MLOAD SWAP1 DUP2 SWAP1 SUB PUSH1 0x64 ADD SWAP1 REVERT JUMPDEST PUSH32 0xE6148E7230CA038D456350E69A91B66968B222BFAC9EBFBEA6FF0A1FB7380160 PUSH1 0x0 MSTORE PUSH1 0x46 PUSH1 0x20 MSTORE PUSH32 0xFFFEEAD1EC15181FD57B4590D95E0C076BCCB59E311315E8B38F23C710AA7C3E SLOAD DUP4 DUP2 SUB DUP2 LT ISZERO PUSH2 0x36CE JUMPI PUSH1 0x40 DUP1 MLOAD PUSH3 0x461BCD PUSH1 0xE5 SHL DUP2 MSTORE PUSH1 0x20 PUSH1 0x4 DUP3 ADD MSTORE PUSH1 0x11 PUSH1 0x24 DUP3 ADD MSTORE PUSH17 0x13DD995C999B1BDDC81A185C1C195B9959 PUSH1 0x7A SHL PUSH1 0x44 DUP3 ADD MSTORE SWAP1 MLOAD SWAP1 DUP2 SWAP1 SUB PUSH1 0x64 ADD SWAP1 REVERT JUMPDEST PUSH2 0x36DA DUP6 DUP4 DUP6 SUB PUSH2 0x3BBF JUMP JUMPDEST POP POP PUSH32 0xE6148E7230CA038D456350E69A91B66968B222BFAC9EBFBEA6FF0A1FB7380160 PUSH1 0x0 MSTORE POP PUSH1 0x46 PUSH1 0x20 MSTORE PUSH32 0xFFFEEAD1EC15181FD57B4590D95E0C076BCCB59E311315E8B38F23C710AA7C3E DUP1 SLOAD DUP3 SWAP1 SUB SWAP1 SSTORE JUMPDEST POP POP JUMP JUMPDEST PUSH1 0x0 DUP3 DUP2 MSTORE PUSH1 0x45 PUSH1 0x20 SWAP1 DUP2 MSTORE PUSH1 0x40 DUP1 DUP4 KECCAK256 PUSH1 0x0 DUP1 MLOAD PUSH1 0x20 PUSH2 0x4F00 DUP4 CODECOPY DUP2 MLOAD SWAP2 MSTORE DUP5 MSTORE PUSH1 0x1 DUP2 ADD SWAP1 SWAP3 MSTORE SWAP1 SWAP2 KECCAK256 SLOAD PUSH2 0x376A SWAP1 DUP4 PUSH2 0x4664 JUMP JUMPDEST PUSH1 0x0 DUP1 MLOAD PUSH1 0x20 PUSH2 0x4F00 DUP4 CODECOPY DUP2 MLOAD SWAP2 MSTORE PUSH1 0x0 SWAP1 DUP2 MSTORE PUSH1 0x1 DUP4 ADD PUSH1 0x20 MSTORE PUSH1 0x40 SWAP1 KECCAK256 SSTORE PUSH1 0x3A SLOAD DUP4 EQ DUP1 PUSH2 0x379B JUMPI POP PUSH1 0x3C SLOAD DUP4 EQ JUMPDEST DUP1 PUSH2 0x37A7 JUMPI POP PUSH1 0x3E SLOAD DUP4 EQ JUMPDEST DUP1 PUSH2 0x37B3 JUMPI POP PUSH1 0x40 SLOAD DUP4 EQ JUMPDEST DUP1 PUSH2 0x37BF JUMPI POP PUSH1 0x42 SLOAD DUP4 EQ JUMPDEST ISZERO PUSH2 0x37F5 JUMPI PUSH1 0x0 DUP1 MLOAD PUSH1 0x20 PUSH2 0x4E43 DUP4 CODECOPY DUP2 MLOAD SWAP2 MSTORE PUSH1 0x0 MSTORE PUSH1 0x46 PUSH1 0x20 MSTORE PUSH1 0x0 DUP1 MLOAD PUSH1 0x20 PUSH2 0x4E02 DUP4 CODECOPY DUP2 MLOAD SWAP2 MSTORE DUP1 SLOAD DUP4 ADD SWAP1 SSTORE PUSH2 0x22C0 JUMP JUMPDEST PUSH32 0xF68D680AB3160F1AA5D9C3A1383C49E3E60BF3C0C031245CBB036F5CE99AFAA1 PUSH1 0x0 SWAP1 DUP2 MSTORE PUSH1 0x1 DUP3 ADD PUSH1 0x20 MSTORE PUSH1 0x40 SWAP1 KECCAK256 SLOAD PUSH2 0x392B JUMPI PUSH1 0x40 DUP1 MLOAD PUSH2 0x660 DUP2 ADD SWAP2 DUP3 SWAP1 MSTORE PUSH1 0x0 SWAP2 DUP3 SWAP2 PUSH2 0x3866 SWAP2 DUP4 SWAP1 PUSH1 0x33 SWAP1 DUP3 DUP5 JUMPDEST DUP2 SLOAD DUP2 MSTORE PUSH1 0x20 ADD SWAP1 PUSH1 0x1 ADD SWAP1 DUP1 DUP4 GT PUSH2 0x3849 JUMPI POP POP POP POP POP PUSH2 0x467A JUMP JUMPDEST PUSH1 0x0 DUP1 MLOAD PUSH1 0x20 PUSH2 0x4F00 DUP4 CODECOPY DUP2 MLOAD SWAP2 MSTORE PUSH1 0x0 SWAP1 DUP2 MSTORE PUSH1 0x1 DUP7 ADD PUSH1 0x20 MSTORE PUSH1 0x40 SWAP1 KECCAK256 SLOAD SWAP2 SWAP4 POP SWAP2 POP DUP3 LT DUP1 PUSH2 0x3896 JUMPI POP DUP2 ISZERO JUMPDEST ISZERO PUSH2 0x3924 JUMPI PUSH1 0x0 DUP1 MLOAD PUSH1 0x20 PUSH2 0x4F00 DUP4 CODECOPY DUP2 MLOAD SWAP2 MSTORE PUSH1 0x0 SWAP1 DUP2 MSTORE PUSH1 0x1 DUP5 ADD PUSH1 0x20 MSTORE PUSH1 0x40 DUP2 KECCAK256 SLOAD SWAP1 DUP3 PUSH1 0x33 DUP2 LT PUSH2 0x38C7 JUMPI INVALID JUMPDEST ADD SSTORE PUSH1 0x0 DUP2 DUP2 MSTORE PUSH1 0x35 PUSH1 0x20 SWAP1 DUP2 MSTORE PUSH1 0x40 DUP1 DUP4 KECCAK256 DUP1 SLOAD DUP5 MSTORE PUSH1 0x45 DUP4 MSTORE DUP2 DUP5 KECCAK256 PUSH32 0xF68D680AB3160F1AA5D9C3A1383C49E3E60BF3C0C031245CBB036F5CE99AFAA1 DUP6 MSTORE PUSH1 0x1 SWAP1 DUP2 ADD DUP5 MSTORE DUP3 DUP6 KECCAK256 DUP6 SWAP1 SSTORE SWAP1 DUP10 SWAP1 SSTORE DUP7 ADD SWAP1 SWAP2 MSTORE SWAP1 KECCAK256 DUP2 SWAP1 SSTORE JUMPDEST POP POP PUSH2 0x22C0 JUMP JUMPDEST PUSH32 0xF68D680AB3160F1AA5D9C3A1383C49E3E60BF3C0C031245CBB036F5CE99AFAA1 PUSH1 0x0 SWAP1 DUP2 MSTORE PUSH1 0x1 DUP3 ADD PUSH1 0x20 MSTORE PUSH1 0x40 DUP2 KECCAK256 SLOAD DUP4 SWAP2 SWAP1 PUSH1 0x33 DUP2 LT PUSH2 0x396A JUMPI INVALID JUMPDEST ADD DUP1 SLOAD SWAP1 SWAP2 ADD SWAP1 SSTORE POP POP POP JUMP JUMPDEST PUSH1 0x1 PUSH1 0x1 PUSH1 0xA0 SHL SUB DUP2 AND PUSH1 0x0 SWAP1 DUP2 MSTORE PUSH1 0x4B PUSH1 0x20 MSTORE PUSH1 0x40 SWAP1 KECCAK256 SLOAD PUSH1 0xFF AND ISZERO PUSH2 0x39D8 JUMPI PUSH1 0x40 DUP1 MLOAD PUSH3 0x461BCD PUSH1 0xE5 SHL DUP2 MSTORE PUSH1 0x20 PUSH1 0x4 DUP3 ADD MSTORE PUSH1 0x10 PUSH1 0x24 DUP3 ADD MSTORE PUSH16 0x105B1C9958591E481B5A59DC985D1959 PUSH1 0x82 SHL PUSH1 0x44 DUP3 ADD MSTORE SWAP1 MLOAD SWAP1 DUP2 SWAP1 SUB PUSH1 0x64 ADD SWAP1 REVERT JUMPDEST PUSH32 0x56E0987DB9EAEC01ED9E0AF003A0FD5C062371F9D23722EB4A3EBC74F16EA371 PUSH1 0x0 MSTORE PUSH1 0x47 PUSH1 0x20 SWAP1 DUP2 MSTORE PUSH32 0xC930326AAB6C1874FC004D856083A6ED34E057E064970B7EFFB48E8E6E8CA127 SLOAD PUSH1 0x40 DUP1 MLOAD PUSH4 0x70A08231 PUSH1 0xE0 SHL DUP2 MSTORE PUSH1 0x1 PUSH1 0x1 PUSH1 0xA0 SHL SUB DUP1 DUP7 AND PUSH1 0x4 DUP4 ADD MSTORE SWAP2 MLOAD PUSH2 0x3AA2 SWAP5 DUP7 SWAP5 SWAP4 SWAP1 SWAP4 AND SWAP3 PUSH4 0x70A08231 SWAP3 PUSH1 0x24 DUP1 DUP3 ADD SWAP4 SWAP2 DUP3 SWAP1 SUB ADD DUP2 DUP7 DUP1 EXTCODESIZE ISZERO DUP1 ISZERO PUSH2 0x3A71 JUMPI PUSH1 0x0 DUP1 REVERT JUMPDEST POP GAS STATICCALL ISZERO DUP1 ISZERO PUSH2 0x3A85 JUMPI RETURNDATASIZE PUSH1 0x0 DUP1 RETURNDATACOPY RETURNDATASIZE PUSH1 0x0 REVERT JUMPDEST POP POP POP POP PUSH1 0x40 MLOAD RETURNDATASIZE PUSH1 0x20 DUP2 LT ISZERO PUSH2 0x3A9B JUMPI PUSH1 0x0 DUP1 REVERT JUMPDEST POP MLOAD PUSH2 0x46C9 JUMP JUMPDEST PUSH1 0x1 PUSH1 0x1 PUSH1 0xA0 SHL SUB AND PUSH1 0x0 SWAP1 DUP2 MSTORE PUSH1 0x4B PUSH1 0x20 MSTORE PUSH1 0x40 SWAP1 KECCAK256 DUP1 SLOAD PUSH1 0xFF NOT AND PUSH1 0x1 OR SWAP1 SSTORE JUMP JUMPDEST PUSH1 0x0 DUP3 DUP3 GT ISZERO PUSH2 0x3AD2 JUMPI INVALID JUMPDEST POP SWAP1 SUB SWAP1 JUMP JUMPDEST DUP1 PUSH2 0x3B3E JUMPI PUSH1 0x1 PUSH1 0x1 PUSH1 0xA0 SHL SUB DUP4 AND PUSH1 0x0 SWAP1 DUP2 MSTORE PUSH1 0x4B PUSH1 0x20 MSTORE PUSH1 0x40 SWAP1 KECCAK256 SLOAD PUSH1 0xFF AND ISZERO PUSH2 0x3B3E JUMPI PUSH1 0x40 DUP1 MLOAD PUSH3 0x461BCD PUSH1 0xE5 SHL DUP2 MSTORE PUSH1 0x20 PUSH1 0x4 DUP3 ADD MSTORE PUSH1 0x10 PUSH1 0x24 DUP3 ADD MSTORE PUSH16 0x185B1C9958591E481B5A59DC985D1959 PUSH1 0x82 SHL PUSH1 0x44 DUP3 ADD MSTORE SWAP1 MLOAD SWAP1 DUP2 SWAP1 SUB PUSH1 0x64 ADD SWAP1 REVERT JUMPDEST PUSH2 0x3B48 DUP4 DUP4 PUSH2 0x46C9 JUMP JUMPDEST POP POP PUSH1 0x1 PUSH1 0x1 PUSH1 0xA0 SHL SUB AND PUSH1 0x0 SWAP1 DUP2 MSTORE PUSH1 0x4B PUSH1 0x20 MSTORE PUSH1 0x40 SWAP1 KECCAK256 DUP1 SLOAD PUSH1 0xFF NOT AND PUSH1 0x1 OR SWAP1 SSTORE JUMP JUMPDEST PUSH1 0x0 DUP1 DUP3 SGT ISZERO PUSH2 0x3B8B JUMPI POP DUP2 DUP2 ADD DUP3 DUP2 SLT ISZERO PUSH2 0x3B86 JUMPI INVALID JUMPDEST PUSH2 0x84A JUMP JUMPDEST POP DUP2 DUP2 ADD DUP3 DUP2 SGT ISZERO PUSH2 0x84A JUMPI INVALID JUMPDEST PUSH1 0x0 DUP1 DUP3 SGT ISZERO PUSH2 0x3BB1 JUMPI POP DUP1 DUP3 SUB DUP3 DUP2 SGT ISZERO PUSH2 0x3B86 JUMPI INVALID JUMPDEST POP DUP1 DUP3 SUB DUP3 DUP2 SLT ISZERO PUSH2 0x84A JUMPI INVALID JUMPDEST PUSH1 0x1 PUSH1 0x1 PUSH1 0xA0 SHL SUB DUP3 AND PUSH1 0x0 SWAP1 DUP2 MSTORE PUSH1 0x49 PUSH1 0x20 MSTORE PUSH1 0x40 SWAP1 KECCAK256 DUP1 SLOAD ISZERO DUP1 PUSH2 0x3C0C JUMPI POP DUP1 SLOAD NUMBER SWAP1 DUP3 SWAP1 PUSH1 0x0 NOT DUP2 ADD SWAP1 DUP2 LT PUSH2 0x3BF4 JUMPI INVALID JUMPDEST PUSH1 0x0 SWAP2 DUP3 MSTORE PUSH1 0x20 SWAP1 SWAP2 KECCAK256 ADD SLOAD PUSH1 0x1 PUSH1 0x1 PUSH1 0x80 SHL SUB AND EQ ISZERO JUMPDEST ISZERO PUSH2 0x3C7D JUMPI PUSH1 0x40 DUP1 MLOAD DUP1 DUP3 ADD SWAP1 SWAP2 MSTORE NUMBER PUSH1 0x1 PUSH1 0x1 PUSH1 0x80 SHL SUB SWAP1 DUP2 AND DUP3 MSTORE DUP4 DUP2 AND PUSH1 0x20 DUP1 DUP5 ADD SWAP2 DUP3 MSTORE DUP5 SLOAD PUSH1 0x1 DUP2 ADD DUP7 SSTORE PUSH1 0x0 DUP7 DUP2 MSTORE SWAP2 SWAP1 SWAP2 KECCAK256 SWAP4 MLOAD SWAP4 ADD DUP1 SLOAD SWAP2 MLOAD PUSH16 0xFFFFFFFFFFFFFFFFFFFFFFFFFFFFFFFF NOT SWAP1 SWAP3 AND SWAP4 DUP4 AND SWAP4 SWAP1 SWAP4 OR DUP3 AND PUSH1 0x1 PUSH1 0x80 SHL SWAP2 SWAP1 SWAP3 AND MUL OR SWAP1 SSTORE PUSH2 0x22C0 JUMP JUMPDEST DUP1 SLOAD PUSH1 0x0 SWAP1 DUP3 SWAP1 PUSH1 0x0 NOT DUP2 ADD SWAP1 DUP2 LT PUSH2 0x3C92 JUMPI INVALID JUMPDEST PUSH1 0x0 SWAP2 DUP3 MSTORE PUSH1 0x20 SWAP1 SWAP2 KECCAK256 ADD DUP1 SLOAD PUSH1 0x1 PUSH1 0x1 PUSH1 0x80 SHL SUB DUP1 DUP7 AND PUSH1 0x1 PUSH1 0x80 SHL MUL SWAP2 AND OR SWAP1 SSTORE POP POP POP POP JUMP JUMPDEST PUSH32 0x2C8B528FBAF48AAF13162A5A0519A7AD5A612DA8FF8783465C17E076660A59F1 PUSH1 0x0 SWAP1 DUP2 MSTORE PUSH1 0x46 PUSH1 0x20 MSTORE PUSH32 0x231BB0DC207F13DD4E565EBC32496C470E35391BD8D3B6649269EE2328E03118 SLOAD TIMESTAMP SUB SWAP1 PUSH2 0x3D17 PUSH2 0x4B0 DUP4 PUSH2 0x48F8 JUMP JUMPDEST PUSH1 0x46 PUSH1 0x20 MSTORE PUSH32 0x5BCCD7373734898281F858D7562320D2CDFC0B17BD72F779686937174D150025 SLOAD PUSH32 0xD4F87B8D0F3D3B7E665DF74631F6100B2695DAA0E30E40EEAC02172E15A999E1 PUSH1 0x0 MSTORE PUSH32 0x8156E704072C396780F8253D0562DE28216B73A1503DAA96E259B9CDD951D71C SLOAD PUSH2 0xFA0 SWAP3 SWAP1 SUB DUP2 MUL SWAP2 SWAP1 SWAP2 SDIV SWAP2 POP DUP2 PUSH2 0x3D9C JUMPI PUSH1 0x1 SWAP2 POP JUMPDEST PUSH2 0x3DA9 DUP3 DUP3 ADD PUSH1 0x1 PUSH2 0x490E JUMP JUMPDEST PUSH32 0xF758978FC1647996A3D9992F611883ADC442931DC49488312360ACC90601759B PUSH1 0x0 MSTORE PUSH1 0x46 PUSH1 0x20 MSTORE PUSH32 0x5BCCD7373734898281F858D7562320D2CDFC0B17BD72F779686937174D150025 SSTORE POP POP POP JUMP JUMPDEST PUSH32 0xE97D205F7D20BF394E3813033D2203B4733ACB28B351C8D2A771647AB0D41C3C SLOAD PUSH1 0x0 SWAP1 DUP2 MSTORE PUSH1 0x45 PUSH1 0x20 SWAP1 DUP2 MSTORE PUSH1 0x40 DUP3 KECCAK256 PUSH32 0x52CB9007C7C6068F8EF37039D4F232CBF5A28FF8D93A5983C4C0C27CD2F9BC0D SLOAD PUSH32 0x2C8B528FBAF48AAF13162A5A0519A7AD5A612DA8FF8783465C17E076660A59F1 SWAP1 SWAP4 MSTORE PUSH1 0x46 SWAP1 SWAP2 MSTORE PUSH32 0x231BB0DC207F13DD4E565EBC32496C470E35391BD8D3B6649269EE2328E03118 DUP1 SLOAD TIMESTAMP SWAP2 DUP3 SWAP1 SSTORE SWAP2 SWAP3 SWAP2 SWAP1 PUSH2 0x3EAA PUSH2 0x4C88 JUMP JUMPDEST PUSH2 0x3EB2 PUSH2 0x4C88 JUMP JUMPDEST PUSH1 0x0 JUMPDEST PUSH1 0x5 DUP2 LT ISZERO PUSH2 0x4203 JUMPI PUSH1 0x1 JUMPDEST PUSH1 0x5 DUP2 LT ISZERO PUSH2 0x4070 JUMPI PUSH1 0x0 DUP3 DUP2 MSTORE PUSH1 0x6 DUP10 ADD PUSH1 0x20 MSTORE PUSH1 0x40 DUP2 KECCAK256 DUP3 PUSH1 0x5 DUP2 LT PUSH2 0x3EE5 JUMPI INVALID JUMPDEST ADD SLOAD SWAP1 POP PUSH1 0x0 DUP10 PUSH1 0x5 ADD PUSH1 0x0 DUP6 DUP2 MSTORE PUSH1 0x20 ADD SWAP1 DUP2 MSTORE PUSH1 0x20 ADD PUSH1 0x0 KECCAK256 DUP4 PUSH1 0x5 DUP2 LT PUSH2 0x3F0B JUMPI INVALID JUMPDEST ADD SLOAD PUSH1 0x1 PUSH1 0x1 PUSH1 0xA0 SHL SUB AND SWAP1 POP DUP3 JUMPDEST PUSH1 0x0 DUP2 GT DUP1 ISZERO PUSH2 0x3F49 JUMPI POP PUSH1 0x0 DUP6 DUP2 MSTORE PUSH1 0x6 DUP13 ADD PUSH1 0x20 MSTORE PUSH1 0x40 SWAP1 KECCAK256 PUSH1 0x0 NOT DUP3 ADD PUSH1 0x5 DUP2 LT PUSH2 0x3F44 JUMPI INVALID JUMPDEST ADD SLOAD DUP4 LT JUMPDEST ISZERO PUSH2 0x4000 JUMPI PUSH1 0x0 DUP6 DUP2 MSTORE PUSH1 0x6 DUP13 ADD PUSH1 0x20 MSTORE PUSH1 0x40 SWAP1 KECCAK256 PUSH1 0x0 NOT DUP3 ADD PUSH1 0x5 DUP2 LT PUSH2 0x3F6D JUMPI INVALID JUMPDEST ADD SLOAD PUSH1 0x0 DUP7 DUP2 MSTORE PUSH1 0x6 DUP14 ADD PUSH1 0x20 MSTORE PUSH1 0x40 SWAP1 KECCAK256 DUP3 PUSH1 0x5 DUP2 LT PUSH2 0x3F8A JUMPI INVALID JUMPDEST ADD SSTORE PUSH1 0x0 DUP6 DUP2 MSTORE PUSH1 0x5 DUP1 DUP14 ADD PUSH1 0x20 MSTORE PUSH1 0x40 SWAP1 SWAP2 KECCAK256 SWAP1 PUSH1 0x0 NOT DUP4 ADD SWAP1 DUP2 LT PUSH2 0x3FAD JUMPI INVALID JUMPDEST ADD SLOAD PUSH1 0x0 DUP7 DUP2 MSTORE PUSH1 0x5 DUP1 DUP15 ADD PUSH1 0x20 MSTORE PUSH1 0x40 SWAP1 SWAP2 KECCAK256 PUSH1 0x1 PUSH1 0x1 PUSH1 0xA0 SHL SUB SWAP1 SWAP3 AND SWAP2 SWAP1 DUP4 SWAP1 DUP2 LT PUSH2 0x3FD8 JUMPI INVALID JUMPDEST ADD DUP1 SLOAD PUSH1 0x1 PUSH1 0x1 PUSH1 0xA0 SHL SUB NOT AND PUSH1 0x1 PUSH1 0x1 PUSH1 0xA0 SHL SUB SWAP3 SWAP1 SWAP3 AND SWAP2 SWAP1 SWAP2 OR SWAP1 SSTORE PUSH1 0x0 NOT ADD PUSH2 0x3F1A JUMP JUMPDEST DUP4 DUP2 LT ISZERO PUSH2 0x4065 JUMPI PUSH1 0x0 DUP6 DUP2 MSTORE PUSH1 0x6 DUP13 ADD PUSH1 0x20 MSTORE PUSH1 0x40 SWAP1 KECCAK256 DUP4 SWAP1 DUP3 PUSH1 0x5 DUP2 LT PUSH2 0x4025 JUMPI INVALID JUMPDEST ADD SSTORE PUSH1 0x0 DUP6 DUP2 MSTORE PUSH1 0x5 DUP1 DUP14 ADD PUSH1 0x20 MSTORE PUSH1 0x40 SWAP1 SWAP2 KECCAK256 DUP4 SWAP2 DUP4 SWAP1 DUP2 LT PUSH2 0x4045 JUMPI INVALID JUMPDEST ADD DUP1 SLOAD PUSH1 0x1 PUSH1 0x1 PUSH1 0xA0 SHL SUB NOT AND PUSH1 0x1 PUSH1 0x1 PUSH1 0xA0 SHL SUB SWAP3 SWAP1 SWAP3 AND SWAP2 SWAP1 SWAP2 OR SWAP1 SSTORE JUMPDEST POP POP POP PUSH1 0x1 ADD PUSH2 0x3EC1 JUMP JUMPDEST POP PUSH1 0x0 PUSH1 0x45 PUSH1 0x0 DUP11 DUP5 PUSH1 0x5 DUP2 LT PUSH2 0x4083 JUMPI INVALID JUMPDEST PUSH1 0x20 MUL ADD MLOAD DUP2 MSTORE PUSH1 0x20 ADD SWAP1 DUP2 MSTORE PUSH1 0x20 ADD PUSH1 0x0 KECCAK256 SWAP1 POP DUP8 PUSH1 0x6 ADD PUSH1 0x0 DUP4 DUP2 MSTORE PUSH1 0x20 ADD SWAP1 DUP2 MSTORE PUSH1 0x20 ADD PUSH1 0x0 KECCAK256 PUSH1 0x5 DUP1 PUSH1 0x20 MUL PUSH1 0x40 MLOAD SWAP1 DUP2 ADD PUSH1 0x40 MSTORE DUP1 SWAP3 SWAP2 SWAP1 DUP3 PUSH1 0x5 DUP1 ISZERO PUSH2 0x40E4 JUMPI PUSH1 0x20 MUL DUP3 ADD SWAP2 JUMPDEST DUP2 SLOAD DUP2 MSTORE PUSH1 0x20 ADD SWAP1 PUSH1 0x1 ADD SWAP1 DUP1 DUP4 GT PUSH2 0x40D0 JUMPI JUMPDEST POP POP POP POP POP SWAP4 POP DUP4 PUSH1 0x2 PUSH1 0x5 DUP2 LT PUSH2 0x40F8 JUMPI INVALID JUMPDEST PUSH1 0x20 SWAP1 DUP2 MUL SWAP2 SWAP1 SWAP2 ADD MLOAD PUSH1 0x0 DUP8 DUP2 MSTORE PUSH1 0x3 DUP5 ADD SWAP1 SWAP3 MSTORE PUSH1 0x40 SWAP2 DUP3 SWAP1 KECCAK256 SSTORE DUP5 ADD MLOAD DUP4 DUP4 PUSH1 0x5 DUP2 LT PUSH2 0x4124 JUMPI INVALID JUMPDEST PUSH1 0x20 SWAP1 DUP2 MUL SWAP2 SWAP1 SWAP2 ADD SWAP2 SWAP1 SWAP2 MSTORE PUSH1 0x0 DUP4 DUP2 MSTORE PUSH1 0x5 DUP1 DUP12 ADD DUP4 MSTORE PUSH1 0x40 DUP1 DUP4 KECCAK256 DUP10 DUP5 MSTORE DUP6 DUP4 ADD SWAP1 SWAP5 MSTORE SWAP1 SWAP2 KECCAK256 PUSH2 0x4159 SWAP3 SWAP1 SWAP2 PUSH2 0x4CA6 JUMP JUMPDEST POP PUSH1 0x0 DUP3 DUP2 MSTORE PUSH1 0x6 DUP1 DUP11 ADD PUSH1 0x20 SWAP1 DUP2 MSTORE PUSH1 0x40 DUP1 DUP5 KECCAK256 DUP10 DUP6 MSTORE SWAP3 DUP6 ADD SWAP1 SWAP2 MSTORE SWAP1 SWAP2 KECCAK256 PUSH2 0x4185 SWAP2 PUSH1 0x5 PUSH2 0x4CA6 JUMP JUMPDEST POP PUSH1 0x0 DUP3 DUP2 MSTORE PUSH1 0x5 DUP10 ADD PUSH1 0x20 MSTORE PUSH1 0x40 DUP2 KECCAK256 PUSH2 0x419F SWAP2 PUSH2 0x4CE1 JUMP JUMPDEST PUSH1 0x0 DUP3 DUP2 MSTORE PUSH1 0x6 DUP10 ADD PUSH1 0x20 MSTORE PUSH1 0x40 DUP2 KECCAK256 PUSH2 0x41B8 SWAP2 PUSH2 0x4CE1 JUMP JUMPDEST DUP1 SLOAD PUSH1 0x1 DUP2 DUP2 ADD DUP4 SSTORE PUSH1 0x0 DUP4 DUP2 MSTORE PUSH1 0x20 DUP1 DUP3 KECCAK256 SWAP1 SWAP4 ADD DUP9 SWAP1 SSTORE DUP8 DUP2 MSTORE PUSH1 0x2 DUP5 ADD DUP4 MSTORE PUSH1 0x40 DUP1 DUP3 KECCAK256 NUMBER SWAP1 SSTORE PUSH1 0x0 DUP1 MLOAD PUSH1 0x20 PUSH2 0x4F00 DUP4 CODECOPY DUP2 MLOAD SWAP2 MSTORE DUP3 MSTORE SWAP4 DUP3 ADD SWAP1 SWAP3 MSTORE SWAP2 DUP2 KECCAK256 SSTORE ADD PUSH2 0x3EB5 JUMP JUMPDEST POP DUP5 PUSH32 0xBEB3B9F46C8D7BB00C873FCA10D307538DF350866D25F891FFB395147DDBDC45 DUP9 DUP6 DUP5 PUSH1 0x46 PUSH1 0x0 PUSH1 0x0 DUP1 MLOAD PUSH1 0x20 PUSH2 0x4E43 DUP4 CODECOPY DUP2 MLOAD SWAP2 MSTORE PUSH1 0x0 SHL DUP2 MSTORE PUSH1 0x20 ADD SWAP1 DUP2 MSTORE PUSH1 0x20 ADD PUSH1 0x0 KECCAK256 SLOAD PUSH1 0x40 MLOAD DUP1 DUP6 PUSH1 0x5 PUSH1 0x20 MUL DUP1 DUP4 DUP4 PUSH1 0x0 JUMPDEST DUP4 DUP2 LT ISZERO PUSH2 0x4276 JUMPI DUP2 DUP2 ADD MLOAD DUP4 DUP3 ADD MSTORE PUSH1 0x20 ADD PUSH2 0x425E JUMP JUMPDEST POP POP POP POP SWAP1 POP ADD DUP5 DUP2 MSTORE PUSH1 0x20 ADD DUP4 PUSH1 0x5 PUSH1 0x20 MUL DUP1 DUP4 DUP4 PUSH1 0x0 JUMPDEST DUP4 DUP2 LT ISZERO PUSH2 0x42A7 JUMPI DUP2 DUP2 ADD MLOAD DUP4 DUP3 ADD MSTORE PUSH1 0x20 ADD PUSH2 0x428F JUMP JUMPDEST POP POP POP POP SWAP1 POP ADD DUP3 DUP2 MSTORE PUSH1 0x20 ADD SWAP5 POP POP POP POP POP PUSH1 0x40 MLOAD DUP1 SWAP2 SUB SWAP1 LOG2 PUSH1 0x33 DUP1 SLOAD PUSH1 0x1 DUP2 ADD DUP3 SSTORE PUSH1 0x0 SWAP2 SWAP1 SWAP2 MSTORE PUSH32 0x82A75BDEEAE8604D839476AE9EFD8B0E15AA447E21BFD7F41283BB54E22C9A82 ADD DUP4 SWAP1 SSTORE PUSH2 0x42FF PUSH2 0x4C88 JUMP JUMPDEST DUP8 MLOAD PUSH1 0x0 SWAP1 DUP2 MSTORE PUSH1 0x45 PUSH1 0x20 SWAP1 DUP2 MSTORE PUSH1 0x40 DUP1 DUP4 KECCAK256 DUP8 DUP5 MSTORE PUSH1 0x5 SWAP1 DUP2 ADD SWAP1 SWAP3 MSTORE SWAP2 DUP3 SWAP1 KECCAK256 DUP3 MLOAD PUSH1 0xA0 DUP2 ADD SWAP4 DUP5 SWAP1 MSTORE SWAP3 SWAP1 SWAP2 SWAP1 DUP3 DUP5 JUMPDEST DUP2 SLOAD PUSH1 0x1 PUSH1 0x1 PUSH1 0xA0 SHL SUB AND DUP2 MSTORE PUSH1 0x1 SWAP1 SWAP2 ADD SWAP1 PUSH1 0x20 ADD DUP1 DUP4 GT PUSH2 0x4332 JUMPI POP POP POP POP POP SWAP1 POP PUSH2 0x4360 DUP2 DUP7 PUSH2 0x491D JUMP JUMPDEST PUSH32 0xF3B93531FA65B3A18680D9EA49DF06D96FBD883C4889DC7DB866F8B131602DFB PUSH1 0x0 MSTORE PUSH1 0x46 PUSH1 0x20 MSTORE PUSH32 0xE97D205F7D20BF394E3813033D2203B4733ACB28B351C8D2A771647AB0D41C3C DUP1 SLOAD PUSH1 0x1 ADD SWAP1 SSTORE PUSH2 0x43B9 PUSH2 0x4C88 JUMP JUMPDEST PUSH2 0x43C1 PUSH2 0x4A4F JUMP JUMPDEST SWAP1 POP PUSH1 0x0 JUMPDEST PUSH1 0x5 DUP2 LT ISZERO PUSH2 0x44D8 JUMPI DUP2 DUP2 PUSH1 0x5 DUP2 LT PUSH2 0x43DB JUMPI INVALID JUMPDEST PUSH1 0x20 MUL ADD MLOAD PUSH1 0x3A DUP3 PUSH1 0x5 DUP2 LT PUSH2 0x43ED JUMPI INVALID JUMPDEST PUSH1 0x2 MUL ADD SSTORE PUSH1 0x0 DUP1 PUSH1 0x45 DUP2 DUP6 DUP6 PUSH1 0x5 DUP2 LT PUSH2 0x4404 JUMPI INVALID JUMPDEST PUSH1 0x20 MUL ADD MLOAD DUP2 MSTORE PUSH1 0x20 ADD SWAP1 DUP2 MSTORE PUSH1 0x20 ADD PUSH1 0x0 KECCAK256 PUSH1 0x1 ADD PUSH1 0x0 PUSH32 0xF68D680AB3160F1AA5D9C3A1383C49E3E60BF3C0C031245CBB036F5CE99AFAA1 PUSH1 0x0 SHL DUP2 MSTORE PUSH1 0x20 ADD SWAP1 DUP2 MSTORE PUSH1 0x20 ADD PUSH1 0x0 KECCAK256 SLOAD PUSH1 0x33 DUP2 LT PUSH2 0x4459 JUMPI INVALID JUMPDEST ADD SSTORE PUSH1 0x45 PUSH1 0x0 DUP4 DUP4 PUSH1 0x5 DUP2 LT PUSH2 0x446B JUMPI INVALID JUMPDEST PUSH1 0x20 SWAP1 DUP2 MUL SWAP2 SWAP1 SWAP2 ADD MLOAD DUP3 MSTORE DUP2 DUP2 ADD SWAP3 SWAP1 SWAP3 MSTORE PUSH1 0x40 SWAP1 DUP2 ADD PUSH1 0x0 SWAP1 DUP2 KECCAK256 PUSH1 0x0 DUP1 MLOAD PUSH1 0x20 PUSH2 0x4F00 DUP4 CODECOPY DUP2 MLOAD SWAP2 MSTORE DUP3 MSTORE PUSH1 0x1 SWAP1 DUP2 ADD DUP5 MSTORE SWAP2 DUP2 KECCAK256 SLOAD PUSH1 0x0 DUP1 MLOAD PUSH1 0x20 PUSH2 0x4E43 DUP4 CODECOPY DUP2 MLOAD SWAP2 MSTORE SWAP1 SWAP2 MSTORE PUSH1 0x46 SWAP1 SWAP3 MSTORE PUSH1 0x0 DUP1 MLOAD PUSH1 0x20 PUSH2 0x4E02 DUP4 CODECOPY DUP2 MLOAD SWAP2 MSTORE DUP1 SLOAD SWAP1 SWAP3 ADD SWAP1 SWAP2 SSTORE ADD PUSH2 0x43C6 JUMP JUMPDEST POP DUP10 DUP8 PUSH1 0x1 NUMBER SUB BLOCKHASH PUSH1 0x40 MLOAD PUSH1 0x20 ADD DUP1 DUP1 PUSH1 0x20 ADD DUP5 DUP2 MSTORE PUSH1 0x20 ADD DUP4 DUP2 MSTORE PUSH1 0x20 ADD DUP3 DUP2 SUB DUP3 MSTORE DUP6 DUP2 DUP2 MLOAD DUP2 MSTORE PUSH1 0x20 ADD SWAP2 POP DUP1 MLOAD SWAP1 PUSH1 0x20 ADD SWAP1 DUP1 DUP4 DUP4 PUSH1 0x0 JUMPDEST DUP4 DUP2 LT ISZERO PUSH2 0x452C JUMPI DUP2 DUP2 ADD MLOAD DUP4 DUP3 ADD MSTORE PUSH1 0x20 ADD PUSH2 0x4514 JUMP JUMPDEST POP POP POP POP SWAP1 POP SWAP1 DUP2 ADD SWAP1 PUSH1 0x1F AND DUP1 ISZERO PUSH2 0x4559 JUMPI DUP1 DUP3 SUB DUP1 MLOAD PUSH1 0x1 DUP4 PUSH1 0x20 SUB PUSH2 0x100 EXP SUB NOT AND DUP2 MSTORE PUSH1 0x20 ADD SWAP2 POP JUMPDEST POP PUSH1 0x40 DUP1 MLOAD PUSH1 0x1F NOT DUP2 DUP5 SUB ADD DUP2 MSTORE SWAP1 DUP3 SWAP1 MSTORE DUP1 MLOAD PUSH1 0x20 SWAP2 DUP3 ADD KECCAK256 PUSH32 0x52CB9007C7C6068F8EF37039D4F232CBF5A28FF8D93A5983C4C0C27CD2F9BC0D DUP2 SWAP1 SSTORE PUSH1 0x46 SWAP1 SWAP2 MSTORE PUSH32 0x5BCCD7373734898281F858D7562320D2CDFC0B17BD72F779686937174D150025 SLOAD PUSH1 0x0 DUP1 MLOAD PUSH1 0x20 PUSH2 0x4E43 DUP4 CODECOPY DUP2 MLOAD SWAP2 MSTORE PUSH1 0x0 SWAP1 DUP2 MSTORE PUSH1 0x0 DUP1 MLOAD PUSH1 0x20 PUSH2 0x4E02 DUP4 CODECOPY DUP2 MLOAD SWAP2 MSTORE SLOAD SWAP3 SWAP16 POP DUP16 SWAP9 POP PUSH32 0x1D85CE10456E29B67DE37887496D3F1FCF1B64C79C4D07484038703A9F5C1408 SWAP8 POP DUP10 SWAP7 POP SWAP1 SWAP5 POP SWAP1 SWAP3 POP DUP2 SWAP1 DUP6 SWAP1 PUSH1 0xA0 SWAP1 DUP2 SWAP1 DUP5 SWAP1 DUP5 SWAP1 JUMPDEST DUP4 DUP2 LT ISZERO PUSH2 0x463A JUMPI DUP2 DUP2 ADD MLOAD DUP4 DUP3 ADD MSTORE PUSH1 0x20 ADD PUSH2 0x4622 JUMP JUMPDEST POP POP POP POP SWAP2 SWAP1 SWAP2 ADD SWAP4 DUP5 MSTORE POP POP PUSH1 0x20 DUP3 ADD MSTORE PUSH1 0x40 DUP1 MLOAD SWAP2 DUP3 SWAP1 SUB ADD SWAP2 POP LOG2 POP POP POP POP POP POP POP POP POP POP JUMP JUMPDEST PUSH1 0x0 DUP3 DUP3 ADD DUP4 DUP2 LT ISZERO PUSH2 0x4673 JUMPI INVALID JUMPDEST SWAP4 SWAP3 POP POP POP JUMP JUMPDEST PUSH2 0x640 DUP2 ADD MLOAD PUSH1 0x32 PUSH1 0x31 JUMPDEST DUP1 ISZERO PUSH2 0x46C3 JUMPI DUP3 DUP5 DUP3 PUSH1 0x33 DUP2 LT PUSH2 0x4698 JUMPI INVALID JUMPDEST PUSH1 0x20 MUL ADD MLOAD LT ISZERO PUSH2 0x46BA JUMPI DUP4 DUP2 PUSH1 0x33 DUP2 LT PUSH2 0x46AF JUMPI INVALID JUMPDEST PUSH1 0x20 MUL ADD MLOAD SWAP3 POP DUP1 SWAP2 POP JUMPDEST PUSH1 0x0 NOT ADD PUSH2 0x4685 JUMP JUMPDEST POP SWAP2 POP SWAP2 JUMP JUMPDEST DUP1 PUSH2 0x4705 JUMPI PUSH1 0x40 MLOAD PUSH3 0x461BCD PUSH1 0xE5 SHL DUP2 MSTORE PUSH1 0x4 ADD DUP1 DUP1 PUSH1 0x20 ADD DUP3 DUP2 SUB DUP3 MSTORE PUSH1 0x21 DUP2 MSTORE PUSH1 0x20 ADD DUP1 PUSH2 0x4DBA PUSH1 0x21 SWAP2 CODECOPY PUSH1 0x40 ADD SWAP2 POP POP PUSH1 0x40 MLOAD DUP1 SWAP2 SUB SWAP1 REVERT JUMPDEST PUSH1 0x1 PUSH1 0x1 PUSH1 0xA0 SHL SUB DUP3 AND PUSH2 0x4758 JUMPI PUSH1 0x40 DUP1 MLOAD PUSH3 0x461BCD PUSH1 0xE5 SHL DUP2 MSTORE PUSH1 0x20 PUSH1 0x4 DUP3 ADD MSTORE PUSH1 0x15 PUSH1 0x24 DUP3 ADD MSTORE PUSH21 0x526563656976657220697320302061646472657373 PUSH1 0x58 SHL PUSH1 0x44 DUP3 ADD MSTORE SWAP1 MLOAD SWAP1 DUP2 SWAP1 SUB PUSH1 0x64 ADD SWAP1 REVERT JUMPDEST PUSH1 0x0 PUSH2 0x4763 DUP4 PUSH2 0x104A JUMP JUMPDEST SWAP1 POP DUP2 PUSH1 0x1 PUSH1 0x1 PUSH1 0x80 SHL SUB DUP1 DUP4 AND DUP3 DUP5 ADD SWAP1 SWAP2 AND LT ISZERO PUSH2 0x47BE JUMPI PUSH1 0x40 DUP1 MLOAD PUSH3 0x461BCD PUSH1 0xE5 SHL DUP2 MSTORE PUSH1 0x20 PUSH1 0x4 DUP3 ADD MSTORE PUSH1 0x11 PUSH1 0x24 DUP3 ADD MSTORE PUSH17 0x13DD995C999B1BDDC81A185C1C195B9959 PUSH1 0x7A SHL PUSH1 0x44 DUP3 ADD MSTORE SWAP1 MLOAD SWAP1 DUP2 SWAP1 SUB PUSH1 0x64 ADD SWAP1 REVERT JUMPDEST PUSH32 0xE6148E7230CA038D456350E69A91B66968B222BFAC9EBFBEA6FF0A1FB7380160 PUSH1 0x0 MSTORE PUSH1 0x46 PUSH1 0x20 MSTORE PUSH32 0xFFFEEAD1EC15181FD57B4590D95E0C076BCCB59E311315E8B38F23C710AA7C3E SLOAD DUP4 DUP2 ADD DUP2 GT ISZERO PUSH2 0x4854 JUMPI PUSH1 0x40 DUP1 MLOAD PUSH3 0x461BCD PUSH1 0xE5 SHL DUP2 MSTORE PUSH1 0x20 PUSH1 0x4 DUP3 ADD MSTORE PUSH1 0x11 PUSH1 0x24 DUP3 ADD MSTORE PUSH17 0x13DD995C999B1BDDC81A185C1C195B9959 PUSH1 0x7A SHL PUSH1 0x44 DUP3 ADD MSTORE SWAP1 MLOAD SWAP1 DUP2 SWAP1 SUB PUSH1 0x64 ADD SWAP1 REVERT JUMPDEST PUSH32 0xE6148E7230CA038D456350E69A91B66968B222BFAC9EBFBEA6FF0A1FB7380160 PUSH1 0x0 MSTORE PUSH1 0x46 PUSH1 0x20 MSTORE PUSH32 0xFFFEEAD1EC15181FD57B4590D95E0C076BCCB59E311315E8B38F23C710AA7C3E DUP1 SLOAD DUP6 ADD SWAP1 SSTORE PUSH2 0x48B0 DUP6 DUP5 DUP5 ADD PUSH2 0x3BBF JUMP JUMPDEST PUSH1 0x40 DUP1 MLOAD DUP6 DUP2 MSTORE SWAP1 MLOAD PUSH1 0x1 PUSH1 0x1 PUSH1 0xA0 SHL SUB DUP8 AND SWAP2 PUSH1 0x0 SWAP2 PUSH32 0xDDF252AD1BE2C89B69C2B068FC378DAA952BA7F163C4A11628F55A4DF523B3EF SWAP2 DUP2 SWAP1 SUB PUSH1 0x20 ADD SWAP1 LOG3 POP POP POP POP POP JUMP JUMPDEST PUSH1 0x0 DUP2 DUP4 LT PUSH2 0x4907 JUMPI DUP2 PUSH2 0x4673 JUMP JUMPDEST POP SWAP1 SWAP2 SWAP1 POP JUMP JUMPDEST PUSH1 0x0 DUP2 DUP4 SGT PUSH2 0x4907 JUMPI DUP2 PUSH2 0x4673 JUMP JUMPDEST PUSH1 0x46 PUSH1 0x20 MSTORE PUSH32 0xC2C579D641B643400780D5C7CE967B420034B9F66962A5EE405CF70E4CBED6BB SLOAD PUSH1 0x0 DUP1 MLOAD PUSH1 0x20 PUSH2 0x4E43 DUP4 CODECOPY DUP2 MLOAD SWAP2 MSTORE PUSH1 0x0 SWAP1 DUP2 MSTORE PUSH1 0x0 DUP1 MLOAD PUSH1 0x20 PUSH2 0x4E02 DUP4 CODECOPY DUP2 MLOAD SWAP2 MSTORE SLOAD TIMESTAMP DUP5 SWAP1 SUB SWAP3 PUSH2 0x12C SWAP1 DUP5 MUL DIV SWAP2 PUSH1 0xA SWAP1 SWAP2 DIV SWAP1 PUSH1 0x2 DUP4 DIV SWAP1 PUSH2 0x4994 SWAP1 DUP8 SWAP1 JUMPDEST PUSH1 0x20 MUL ADD MLOAD DUP4 DUP6 ADD PUSH2 0x46C9 JUMP JUMPDEST PUSH2 0x499F DUP7 PUSH1 0x1 PUSH2 0x4987 JUMP JUMPDEST PUSH2 0x49AA DUP7 PUSH1 0x2 PUSH2 0x4987 JUMP JUMPDEST PUSH2 0x49B5 DUP7 PUSH1 0x3 PUSH2 0x4987 JUMP JUMPDEST PUSH2 0x49C0 DUP7 PUSH1 0x4 PUSH2 0x4987 JUMP JUMPDEST PUSH32 0x7A39905194DE50BDE334D18B76BBB36DDDD11641D4D50B470CB837CF3BAE5DEF PUSH1 0x0 MSTORE PUSH1 0x47 PUSH1 0x20 MSTORE PUSH32 0xB5F7E7387E8E977CC9C4C9513388B0D7224264B9A0159CD8E8BDD84A9ED504C3 SLOAD PUSH2 0x4A1E SWAP1 PUSH1 0x1 PUSH1 0x1 PUSH1 0xA0 SHL SUB AND DUP3 PUSH2 0x46C9 JUMP JUMPDEST POP POP PUSH1 0x0 DUP1 MLOAD PUSH1 0x20 PUSH2 0x4E43 DUP4 CODECOPY DUP2 MLOAD SWAP2 MSTORE PUSH1 0x0 SWAP1 DUP2 MSTORE PUSH1 0x46 PUSH1 0x20 MSTORE PUSH1 0x0 DUP1 MLOAD PUSH1 0x20 PUSH2 0x4E02 DUP4 CODECOPY DUP2 MLOAD SWAP2 MSTORE SSTORE POP POP POP POP JUMP JUMPDEST PUSH2 0x4A57 PUSH2 0x4C88 JUMP JUMPDEST PUSH2 0x4A5F PUSH2 0x4C88 JUMP JUMPDEST PUSH2 0x4A67 PUSH2 0x4C88 JUMP JUMPDEST PUSH1 0x40 DUP1 MLOAD PUSH2 0x660 DUP2 ADD SWAP2 DUP3 SWAP1 MSTORE PUSH2 0x4A9E SWAP2 PUSH1 0x0 SWAP1 PUSH1 0x33 SWAP1 DUP3 DUP5 JUMPDEST DUP2 SLOAD DUP2 MSTORE PUSH1 0x20 ADD SWAP1 PUSH1 0x1 ADD SWAP1 DUP1 DUP4 GT PUSH2 0x4A81 JUMPI POP POP POP POP POP PUSH2 0x4B34 JUMP JUMPDEST SWAP1 SWAP3 POP SWAP1 POP PUSH1 0x0 JUMPDEST PUSH1 0x5 DUP2 LT ISZERO PUSH2 0x4B2E JUMPI DUP3 DUP2 PUSH1 0x5 DUP2 LT PUSH2 0x4ABB JUMPI INVALID JUMPDEST PUSH1 0x20 MUL ADD MLOAD ISZERO PUSH2 0x4AFF JUMPI PUSH1 0x35 PUSH1 0x0 DUP4 DUP4 PUSH1 0x5 DUP2 LT PUSH2 0x4AD5 JUMPI INVALID JUMPDEST PUSH1 0x20 MUL ADD MLOAD DUP2 MSTORE PUSH1 0x20 ADD SWAP1 DUP2 MSTORE PUSH1 0x20 ADD PUSH1 0x0 KECCAK256 SLOAD DUP5 DUP3 PUSH1 0x5 DUP2 LT PUSH2 0x4AF5 JUMPI INVALID JUMPDEST PUSH1 0x20 MUL ADD MSTORE PUSH2 0x4B26 JUMP JUMPDEST PUSH1 0x3A DUP2 PUSH1 0x4 SUB PUSH1 0x5 DUP2 LT PUSH2 0x4B0F JUMPI INVALID JUMPDEST PUSH1 0x2 MUL ADD SLOAD DUP5 DUP3 PUSH1 0x5 DUP2 LT PUSH2 0x4B20 JUMPI INVALID JUMPDEST PUSH1 0x20 MUL ADD MSTORE JUMPDEST PUSH1 0x1 ADD PUSH2 0x4AA6 JUMP JUMPDEST POP POP POP SWAP1 JUMP JUMPDEST PUSH2 0x4B3C PUSH2 0x4C88 JUMP JUMPDEST PUSH2 0x4B44 PUSH2 0x4C88 JUMP JUMPDEST PUSH1 0x20 DUP4 ADD MLOAD PUSH1 0x0 DUP1 JUMPDEST PUSH1 0x5 DUP2 LT ISZERO PUSH2 0x4BC7 JUMPI DUP6 DUP2 PUSH1 0x1 ADD PUSH1 0x33 DUP2 LT PUSH2 0x4B65 JUMPI INVALID JUMPDEST PUSH1 0x20 MUL ADD MLOAD DUP6 DUP3 PUSH1 0x5 DUP2 LT PUSH2 0x4B76 JUMPI INVALID JUMPDEST PUSH1 0x20 MUL ADD MSTORE PUSH1 0x1 DUP2 ADD DUP5 DUP3 PUSH1 0x5 DUP2 LT PUSH2 0x4B8B JUMPI INVALID JUMPDEST PUSH1 0x20 MUL ADD MSTORE DUP3 DUP6 DUP3 PUSH1 0x5 DUP2 LT PUSH2 0x4B9D JUMPI INVALID JUMPDEST PUSH1 0x20 MUL ADD MLOAD LT ISZERO PUSH2 0x4BBF JUMPI DUP5 DUP2 PUSH1 0x5 DUP2 LT PUSH2 0x4BB4 JUMPI INVALID JUMPDEST PUSH1 0x20 MUL ADD MLOAD SWAP3 POP DUP1 SWAP2 POP JUMPDEST PUSH1 0x1 ADD PUSH2 0x4B4D JUMP JUMPDEST POP PUSH1 0x6 JUMPDEST PUSH1 0x33 DUP2 LT ISZERO PUSH2 0x4C80 JUMPI DUP3 DUP7 DUP3 PUSH1 0x33 DUP2 LT PUSH2 0x4BE1 JUMPI INVALID JUMPDEST PUSH1 0x20 MUL ADD MLOAD GT ISZERO PUSH2 0x4C78 JUMPI DUP6 DUP2 PUSH1 0x33 DUP2 LT PUSH2 0x4BF8 JUMPI INVALID JUMPDEST PUSH1 0x20 MUL ADD MLOAD DUP6 DUP4 PUSH1 0x5 DUP2 LT PUSH2 0x4C09 JUMPI INVALID JUMPDEST PUSH1 0x20 MUL ADD MSTORE DUP1 DUP5 DUP4 PUSH1 0x5 DUP2 LT PUSH2 0x4C1B JUMPI INVALID JUMPDEST PUSH1 0x20 MUL ADD MSTORE DUP6 DUP2 PUSH1 0x33 DUP2 LT PUSH2 0x4C2C JUMPI INVALID JUMPDEST PUSH1 0x20 MUL ADD MLOAD SWAP3 POP PUSH1 0x0 JUMPDEST PUSH1 0x5 DUP2 LT ISZERO PUSH2 0x4C76 JUMPI DUP4 DUP7 DUP3 PUSH1 0x5 DUP2 LT PUSH2 0x4C4C JUMPI INVALID JUMPDEST PUSH1 0x20 MUL ADD MLOAD LT ISZERO PUSH2 0x4C6E JUMPI DUP6 DUP2 PUSH1 0x5 DUP2 LT PUSH2 0x4C63 JUMPI INVALID JUMPDEST PUSH1 0x20 MUL ADD MLOAD SWAP4 POP DUP1 SWAP3 POP JUMPDEST PUSH1 0x1 ADD PUSH2 0x4C36 JUMP JUMPDEST POP JUMPDEST PUSH1 0x1 ADD PUSH2 0x4BCB JUMP JUMPDEST POP POP POP SWAP2 POP SWAP2 JUMP JUMPDEST PUSH1 0x40 MLOAD DUP1 PUSH1 0xA0 ADD PUSH1 0x40 MSTORE DUP1 PUSH1 0x5 SWAP1 PUSH1 0x20 DUP3 MUL DUP1 CALLDATASIZE DUP4 CALLDATACOPY POP SWAP2 SWAP3 SWAP2 POP POP JUMP JUMPDEST DUP3 PUSH1 0x5 DUP2 ADD SWAP3 DUP3 ISZERO PUSH2 0x4CD1 JUMPI SWAP2 DUP3 ADD JUMPDEST DUP3 DUP2 GT ISZERO PUSH2 0x4CD1 JUMPI DUP3 SLOAD DUP3 SSTORE SWAP2 PUSH1 0x1 ADD SWAP2 SWAP1 PUSH1 0x1 ADD SWAP1 PUSH2 0x4CB6 JUMP JUMPDEST POP PUSH2 0x4CDD SWAP3 SWAP2 POP PUSH2 0x4D04 JUMP JUMPDEST POP SWAP1 JUMP JUMPDEST POP PUSH1 0x0 DUP2 SSTORE PUSH1 0x1 ADD PUSH1 0x0 DUP2 SSTORE PUSH1 0x1 ADD PUSH1 0x0 DUP2 SSTORE PUSH1 0x1 ADD PUSH1 0x0 DUP2 SSTORE PUSH1 0x1 ADD PUSH1 0x0 SWAP1 SSTORE JUMP JUMPDEST JUMPDEST DUP1 DUP3 GT ISZERO PUSH2 0x4CDD JUMPI PUSH1 0x0 DUP2 SSTORE PUSH1 0x1 ADD PUSH2 0x4D05 JUMP INVALID 0x4D PUSH10 0x6E65722063616E206F6E PUSH13 0x792077696E2072657761726473 KECCAK256 PUSH16 0x6E636520706572203135206D696E6675 PUSH15 0x6374696F6E206E6F742063616C6C61 PUSH3 0x6C6520 PUSH7 0x6F726B20666F72 PUSH12 0x2070726F706F73616C734552 NUMBER ORIGIN ADDRESS GASPRICE KECCAK256 PUSH2 0x7070 PUSH19 0x6F766520746F20746865207A65726F20616464 PUSH19 0x65737354696D6520666F72206120666F6C6C6F PUSH24 0x2075702064697370757465206861736E277420656C617073 PUSH6 0x645472696564 KECCAK256 PUSH21 0x6F206D696E74206E6F6E2D706F7369746976652061 PUSH14 0x6F756E7453686F756C6420686176 PUSH6 0x207375666669 PUSH4 0x69656E74 KECCAK256 PUSH3 0x616C61 PUSH15 0x636520746F20747261646538B16D06 LOG2 EXP 0xB6 PUSH20 0xB01C748AFF938DF6A38F81640035F4CE8BD9ABB0 GASPRICE 0xAE JUMPDEST PUSH19 0x547269656420746F2073656E64206E6F6E2D70 PUSH16 0x73697469766520616D6F756E7409659D ORIGIN 0xF9 SWAP15 POP 0xAC PUSH19 0x8058418D38174FE83A137C455FF1847E6FB8E1 0x5F PUSH25 0xF77A44697370757465206D7573742062652073746172746564 KECCAK256 PUSH24 0x697468696E2061207765656B206F66206261642076616C75 PUSH6 0x4D696E657220 PUSH2 0x6C72 PUSH6 0x616479207375 PUSH3 0x6D6974 PUSH21 0x6564207468652076616C7565746865206469737075 PUSH21 0x652068617320616C7265616479206265656E206578 PUSH6 0x637574656449 PUSH15 0x636F7272656374206E6F6E63652066 PUSH16 0x722063757272656E74206368616C6C65 PUSH15 0x67651590276B7F31DD8E2A06F9A928 PUSH8 0x333EEB3EDDBC91E7 EXTCODESIZE SWAP9 CALLER 0xE3 0xE5 0x5D DUP15 CALLVALUE 0xF7 PUSH30 0xA26469706673582212209A97901C34FEB44BC3C43DABCE0B38DAA0716213 SLT DIV 0x4E ADD 0xD ORIGIN 0x2B SWAP8 BALANCE PUSH11 0xE76064736F6C6343000704 STOP CALLER "},"methodIdentifiers":{"_allowances(address,address)":"024c2ddd","addTip(uint256,uint256)":"752d49a1","addresses(bytes32)":"699f200f","allowance(address,address)":"dd62ed3e","allowedToTrade(address,uint256)":"999cf26c","approve(address,uint256)":"095ea7b3","balanceOf(address)":"70a08231","balanceOfAt(address,uint256)":"4ee2cd7e","balances(address,uint256)":"cbf1304d","beginDispute(uint256,uint256,uint256)":"8581af19","bytesVars(bytes32)":"62dd1d2a","currentMiners(uint256)":"1fd22364","disputeIdByDisputeHash(bytes32)":"d01f4d9e","disputesById(uint256)":"db085beb","migrate()":"8fd3ab80","migrateFor(address,uint256,bool)":"a9fa7d34","migrated(address)":"4ba0a5ee","minersByChallenge(bytes32,address)":"48b18e54","newValueTimestamps(uint256)":"438c0aa3","proposeFork(address)":"26b7d9f6","requestIdByQueryHash(bytes32)":"5700242c","submitMiningSolution(string,uint256[5],uint256[5])":"4350283e","transfer(address,uint256)":"a9059cbb","transferFrom(address,address,uint256)":"23b872dd","uints(bytes32)":"b59e14d4","unlockDisputeFee(uint256)":"9a01ca13","verify()":"fc735e99","vote(uint256,bool)":"c9d27afe"}}}}}