{"contracts/tellor360/oldContracts/contracts/tellor3/Mocks/TellorTest.sol":{"TellorTest":{"abi":[{"inputs":[{"internalType":"address","name":"_ext","type":"address"}],"stateMutability":"nonpayable","type":"constructor"},{"anonymous":false,"inputs":[{"indexed":true,"internalType":"address","name":"_owner","type":"address"},{"indexed":true,"internalType":"address","name":"_spender","type":"address"},{"indexed":false,"internalType":"uint256","name":"_value","type":"uint256"}],"name":"Approval","type":"event"},{"anonymous":false,"inputs":[{"indexed":true,"internalType":"bytes32","name":"_currentChallenge","type":"bytes32"},{"indexed":false,"internalType":"uint256[5]","name":"_currentRequestId","type":"uint256[5]"},{"indexed":false,"internalType":"uint256","name":"_difficulty","type":"uint256"},{"indexed":false,"internalType":"uint256","name":"_totalTips","type":"uint256"}],"name":"NewChallenge","type":"event"},{"anonymous":false,"inputs":[{"indexed":true,"internalType":"uint256","name":"_disputeId","type":"uint256"},{"indexed":true,"internalType":"uint256","name":"_requestId","type":"uint256"},{"indexed":false,"internalType":"uint256","name":"_timestamp","type":"uint256"},{"indexed":false,"internalType":"address","name":"_miner","type":"address"}],"name":"NewDispute","type":"event"},{"anonymous":false,"inputs":[{"indexed":false,"internalType":"uint256[5]","name":"_requestId","type":"uint256[5]"},{"indexed":false,"internalType":"uint256","name":"_time","type":"uint256"},{"indexed":false,"internalType":"uint256[5]","name":"_value","type":"uint256[5]"},{"indexed":false,"internalType":"uint256","name":"_totalTips","type":"uint256"},{"indexed":true,"internalType":"bytes32","name":"_currentChallenge","type":"bytes32"}],"name":"NewValue","type":"event"},{"anonymous":false,"inputs":[{"indexed":true,"internalType":"address","name":"_miner","type":"address"},{"indexed":false,"internalType":"string","name":"_nonce","type":"string"},{"indexed":false,"internalType":"uint256[5]","name":"_requestId","type":"uint256[5]"},{"indexed":false,"internalType":"uint256[5]","name":"_value","type":"uint256[5]"},{"indexed":true,"internalType":"bytes32","name":"_currentChallenge","type":"bytes32"},{"indexed":false,"internalType":"uint256","name":"_slot","type":"uint256"}],"name":"NonceSubmitted","type":"event"},{"anonymous":false,"inputs":[{"indexed":true,"internalType":"address","name":"_sender","type":"address"},{"indexed":true,"internalType":"uint256","name":"_requestId","type":"uint256"},{"indexed":false,"internalType":"uint256","name":"_tip","type":"uint256"},{"indexed":false,"internalType":"uint256","name":"_totalTips","type":"uint256"}],"name":"TipAdded","type":"event"},{"anonymous":false,"inputs":[{"indexed":true,"internalType":"address","name":"_from","type":"address"},{"indexed":true,"internalType":"address","name":"_to","type":"address"},{"indexed":false,"internalType":"uint256","name":"_value","type":"uint256"}],"name":"Transfer","type":"event"},{"anonymous":false,"inputs":[{"indexed":true,"internalType":"uint256","name":"_disputeID","type":"uint256"},{"indexed":false,"internalType":"bool","name":"_position","type":"bool"},{"indexed":true,"internalType":"address","name":"_voter","type":"address"},{"indexed":true,"internalType":"uint256","name":"_voteWeight","type":"uint256"}],"name":"Voted","type":"event"},{"stateMutability":"nonpayable","type":"fallback"},{"inputs":[{"internalType":"address","name":"","type":"address"},{"internalType":"address","name":"","type":"address"}],"name":"_allowances","outputs":[{"internalType":"uint256","name":"","type":"uint256"}],"stateMutability":"view","type":"function"},{"inputs":[{"internalType":"uint256","name":"_requestId","type":"uint256"},{"internalType":"uint256","name":"_tip","type":"uint256"}],"name":"addTip","outputs":[],"stateMutability":"nonpayable","type":"function"},{"inputs":[{"internalType":"bytes32","name":"","type":"bytes32"}],"name":"addresses","outputs":[{"internalType":"address","name":"","type":"address"}],"stateMutability":"view","type":"function"},{"inputs":[{"internalType":"address","name":"_user","type":"address"},{"internalType":"address","name":"_spender","type":"address"}],"name":"allowance","outputs":[{"internalType":"uint256","name":"","type":"uint256"}],"stateMutability":"view","type":"function"},{"inputs":[{"internalType":"address","name":"_user","type":"address"},{"internalType":"uint256","name":"_amount","type":"uint256"}],"name":"allowedToTrade","outputs":[{"internalType":"bool","name":"","type":"bool"}],"stateMutability":"view","type":"function"},{"inputs":[{"internalType":"address","name":"_spender","type":"address"},{"internalType":"uint256","name":"_amount","type":"uint256"}],"name":"approve","outputs":[{"internalType":"bool","name":"","type":"bool"}],"stateMutability":"nonpayable","type":"function"},{"inputs":[{"internalType":"address","name":"_user","type":"address"}],"name":"balanceOf","outputs":[{"internalType":"uint256","name":"","type":"uint256"}],"stateMutability":"view","type":"function"},{"inputs":[{"internalType":"address","name":"_user","type":"address"},{"internalType":"uint256","name":"_blockNumber","type":"uint256"}],"name":"balanceOfAt","outputs":[{"internalType":"uint256","name":"","type":"uint256"}],"stateMutability":"view","type":"function"},{"inputs":[{"internalType":"address","name":"","type":"address"},{"internalType":"uint256","name":"","type":"uint256"}],"name":"balances","outputs":[{"internalType":"uint128","name":"fromBlock","type":"uint128"},{"internalType":"uint128","name":"value","type":"uint128"}],"stateMutability":"view","type":"function"},{"inputs":[{"internalType":"uint256","name":"_requestId","type":"uint256"},{"internalType":"uint256","name":"_timestamp","type":"uint256"},{"internalType":"uint256","name":"_minerIndex","type":"uint256"}],"name":"beginDispute","outputs":[],"stateMutability":"nonpayable","type":"function"},{"inputs":[],"name":"bumpVersion","outputs":[],"stateMutability":"nonpayable","type":"function"},{"inputs":[{"internalType":"bytes32","name":"","type":"bytes32"}],"name":"bytesVars","outputs":[{"internalType":"bytes32","name":"","type":"bytes32"}],"stateMutability":"view","type":"function"},{"inputs":[{"internalType":"uint256","name":"","type":"uint256"}],"name":"currentMiners","outputs":[{"internalType":"uint256","name":"value","type":"uint256"},{"internalType":"address","name":"miner","type":"address"}],"stateMutability":"view","type":"function"},{"inputs":[{"internalType":"bytes32","name":"","type":"bytes32"}],"name":"disputeIdByDisputeHash","outputs":[{"internalType":"uint256","name":"","type":"uint256"}],"stateMutability":"view","type":"function"},{"inputs":[{"internalType":"uint256","name":"","type":"uint256"}],"name":"disputesById","outputs":[{"internalType":"bytes32","name":"hash","type":"bytes32"},{"internalType":"int256","name":"tally","type":"int256"},{"internalType":"bool","name":"executed","type":"bool"},{"internalType":"bool","name":"disputeVotePassed","type":"bool"},{"internalType":"bool","name":"isPropFork","type":"bool"},{"internalType":"address","name":"reportedMiner","type":"address"},{"internalType":"address","name":"reportingParty","type":"address"},{"internalType":"address","name":"proposedForkAddress","type":"address"}],"stateMutability":"view","type":"function"},{"inputs":[{"internalType":"uint256","name":"_diff","type":"uint256"}],"name":"manuallySetDifficulty","outputs":[],"stateMutability":"nonpayable","type":"function"},{"inputs":[],"name":"migrate","outputs":[],"stateMutability":"nonpayable","type":"function"},{"inputs":[{"internalType":"address","name":"_destination","type":"address"},{"internalType":"uint256","name":"_amount","type":"uint256"},{"internalType":"bool","name":"_bypass","type":"bool"}],"name":"migrateFor","outputs":[],"stateMutability":"nonpayable","type":"function"},{"inputs":[{"internalType":"address","name":"","type":"address"}],"name":"migrated","outputs":[{"internalType":"bool","name":"","type":"bool"}],"stateMutability":"view","type":"function"},{"inputs":[{"internalType":"bytes32","name":"","type":"bytes32"},{"internalType":"address","name":"","type":"address"}],"name":"minersByChallenge","outputs":[{"internalType":"bool","name":"","type":"bool"}],"stateMutability":"view","type":"function"},{"inputs":[{"internalType":"uint256","name":"","type":"uint256"}],"name":"newValueTimestamps","outputs":[{"internalType":"uint256","name":"","type":"uint256"}],"stateMutability":"view","type":"function"},{"inputs":[{"internalType":"address","name":"_propNewTellorAddress","type":"address"}],"name":"proposeFork","outputs":[],"stateMutability":"nonpayable","type":"function"},{"inputs":[{"internalType":"bytes32","name":"","type":"bytes32"}],"name":"requestIdByQueryHash","outputs":[{"internalType":"uint256","name":"","type":"uint256"}],"stateMutability":"view","type":"function"},{"inputs":[{"internalType":"address","name":"_address","type":"address"},{"internalType":"uint256","name":"_amount","type":"uint256"}],"name":"setBalanceTest","outputs":[],"stateMutability":"nonpayable","type":"function"},{"inputs":[{"internalType":"string","name":"_nonce","type":"string"},{"internalType":"uint256[5]","name":"_requestIds","type":"uint256[5]"},{"internalType":"uint256[5]","name":"_values","type":"uint256[5]"}],"name":"submitMiningSolution","outputs":[],"stateMutability":"nonpayable","type":"function"},{"inputs":[{"internalType":"string","name":"_nonce","type":"string"},{"internalType":"uint256[5]","name":"_requestId","type":"uint256[5]"},{"internalType":"uint256[5]","name":"_value","type":"uint256[5]"}],"name":"testSubmitMiningSolution","outputs":[],"stateMutability":"nonpayable","type":"function"},{"inputs":[{"internalType":"address","name":"_to","type":"address"},{"internalType":"uint256","name":"_amount","type":"uint256"}],"name":"transfer","outputs":[{"internalType":"bool","name":"success","type":"bool"}],"stateMutability":"nonpayable","type":"function"},{"inputs":[{"internalType":"address","name":"_from","type":"address"},{"internalType":"address","name":"_to","type":"address"},{"internalType":"uint256","name":"_amount","type":"uint256"}],"name":"transferFrom","outputs":[{"internalType":"bool","name":"success","type":"bool"}],"stateMutability":"nonpayable","type":"function"},{"inputs":[{"internalType":"bytes32","name":"","type":"bytes32"}],"name":"uints","outputs":[{"internalType":"uint256","name":"","type":"uint256"}],"stateMutability":"view","type":"function"},{"inputs":[{"internalType":"uint256","name":"_disputeId","type":"uint256"}],"name":"unlockDisputeFee","outputs":[],"stateMutability":"nonpayable","type":"function"},{"inputs":[],"name":"verify","outputs":[{"internalType":"uint256","name":"","type":"uint256"}],"stateMutability":"view","type":"function"},{"inputs":[{"internalType":"uint256","name":"_disputeId","type":"uint256"},{"internalType":"bool","name":"_supportsDispute","type":"bool"}],"name":"vote","outputs":[],"stateMutability":"nonpayable","type":"function"}],"evm":{"bytecode":{"linkReferences":{},"object":"60a0604052610bb8604c5534801561001657600080fd5b50604051620051d4380380620051d48339818101604052602081101561003b57600080fd5b5051606081901b6001600160601b0319166080526001600160a01b031661516462000070600039806101f452506151646000f3fe608060405234801561001057600080fd5b50600436106101f05760003560e01c80638581af191161010f578063c9d27afe116100a2578063d47f0dd411610071578063d47f0dd41461075e578063db085beb146107d2578063dd62ed3e1461083f578063fc735e991461086d576101f0565b8063c9d27afe146106b9578063cbf1304d146106de578063d01f4d9e14610739578063d304d8bf14610756576101f0565b8063a9059cbb116100de578063a9059cbb1461061f578063a9fa7d341461064b578063b59e14d41461067f578063c52e95391461069c576101f0565b80638581af19146105a55780638fd3ab80146105ce578063999cf26c146105d65780639a01ca1314610602576101f0565b806348b18e541161018757806362dd1d2a1161015657806362dd1d2a14610506578063699f200f1461052357806370a082311461055c578063752d49a114610582576101f0565b806348b18e541461046b5780634ba0a5ee146104975780634ee2cd7e146104bd5780635700242c146104e9576101f0565b806323b872dd116101c357806323b872dd1461037e57806326b7d9f6146103b45780634350283e146103da578063438c0aa31461044e576101f0565b8063024c2ddd14610292578063095ea7b3146102d25780631fd223641461031257806321d513dc14610350575b60007f000000000000000000000000000000000000000000000000000000000000000090506000816001600160a01b03166000366040518083838082843760405192019450600093509091505080830381855af49150503d8060008114610273576040519150601f19603f3d011682016040523d82523d6000602084013e610278565b606091505b505090503d6000803e80801561028d573d6000f35b3d6000fd5b6102c0600480360360408110156102a857600080fd5b506001600160a01b0381358116916020013516610875565b60408051918252519081900360200190f35b6102fe600480360360408110156102e857600080fd5b506001600160a01b038135169060200135610892565b604080519115158252519081900360200190f35b61032f6004803603602081101561032857600080fd5b5035610941565b604080519283526001600160a01b0390911660208301528051918290030190f35b61037c6004803603604081101561036657600080fd5b506001600160a01b03813516906020013561096c565b005b6102fe6004803603606081101561039457600080fd5b506001600160a01b038135811691602081013590911690604001356109a6565b61037c600480360360208110156103ca57600080fd5b50356001600160a01b0316610a52565b61037c60048036036101608110156103f157600080fd5b81019060208101813564010000000081111561040c57600080fd5b82018360208201111561041e57600080fd5b8035906020019184600183028401116401000000008311171561044057600080fd5b919350915060a08101610d76565b6102c06004803603602081101561046457600080fd5b5035610f35565b6102fe6004803603604081101561048157600080fd5b50803590602001356001600160a01b0316610f56565b6102fe600480360360208110156104ad57600080fd5b50356001600160a01b0316610f76565b6102c0600480360360408110156104d357600080fd5b506001600160a01b038135169060200135610f8b565b6102c0600480360360208110156104ff57600080fd5b5035611136565b6102c06004803603602081101561051c57600080fd5b5035611148565b6105406004803603602081101561053957600080fd5b503561115a565b604080516001600160a01b039092168252519081900360200190f35b6102c06004803603602081101561057257600080fd5b50356001600160a01b0316611175565b61037c6004803603604081101561059857600080fd5b5080359060200135611181565b61037c600480360360608110156105bb57600080fd5b5080359060208101359060400135611391565b61037c611952565b6102fe600480360360408110156105ec57600080fd5b506001600160a01b03813516906020013561195d565b61037c6004803603602081101561061857600080fd5b5035611a29565b6102fe6004803603604081101561063557600080fd5b506001600160a01b038135169060200135612335565b61037c6004803603606081101561066157600080fd5b506001600160a01b038135169060208101359060400135151561234b565b6102c06004803603602081101561069557600080fd5b50356123f0565b61037c600480360360208110156106b257600080fd5b5035612402565b61037c600480360360408110156106cf57600080fd5b5080359060200135151561243d565b61070a600480360360408110156106f457600080fd5b506001600160a01b03813516906020013561274a565b60405180836001600160801b03168152602001826001600160801b031681526020019250505060405180910390f35b6102c06004803603602081101561074f57600080fd5b503561278d565b61037c61279f565b61037c600480360361016081101561077557600080fd5b81019060208101813564010000000081111561079057600080fd5b8201836020820111156107a257600080fd5b803590602001918460018302840111640100000000831117156107c457600080fd5b919350915060a081016127aa565b6107ef600480360360208110156107e857600080fd5b50356128c1565b60408051988952602089019790975294151587870152921515606087015290151560808601526001600160a01b0390811660a086015290811660c08501521660e083015251908190036101000190f35b6102c06004803603604081101561085557600080fd5b506001600160a01b038135811691602001351661291d565b6102c0612948565b604a60209081526000928352604080842090915290825290205481565b60006001600160a01b0383166108d95760405162461bcd60e51b8152600401808060200182810382526022815260200180614f3c6022913960400191505060405180910390fd5b336000818152604a602090815260408083206001600160a01b03881680855290835292819020869055805186815290519293927f8c5be1e5ebec7d5bd14f71427d1e84f3dd0314c0f7b2291e5b200ac8c7c3b925929181900390910190a35060015b92915050565b603a816005811061095157600080fd5b6002020180546001909101549091506001600160a01b031682565b6000805160206150128339815191526000526046602052600080516020614ef38339815191528054820190556109a2828261294e565b5050565b6001600160a01b0383166000908152604a60209081526040808320338452909152812054821115610a13576040805162461bcd60e51b8152602060048201526012602482015271416c6c6f77616e63652069732077726f6e6760701b604482015290519081900360640190fd5b6001600160a01b0384166000908152604a60209081526040808320338452909152902080548390039055610a48848484612a4a565b5060019392505050565b7fd051321aa26ce60d202f153d0c0e67687e975532ab88ce92d84f18e39895d90760005260466020527f7042aca2505aa9a8428c1710298edbac96e027637d6417651c8aa8f88ed1ca0a5415610ade576040805162461bcd60e51b815260206004820152600c60248201526b6e6f2072656e7472616e637960a01b604482015290519081900360640190fd5b7fd051321aa26ce60d202f153d0c0e67687e975532ab88ce92d84f18e39895d907600052604660205260017f7042aca2505aa9a8428c1710298edbac96e027637d6417651c8aa8f88ed1ca0a55610b3481612bfe565b7fd051321aa26ce60d202f153d0c0e67687e975532ab88ce92d84f18e39895d9076000908152604660209081527f7042aca2505aa9a8428c1710298edbac96e027637d6417651c8aa8f88ed1ca0a829055604080516001600160a01b0385168184015281518082038401815290820182528051908301207f1ce2382bc92689b00ba121fa5a411aa976168affdd8ac143a69035dd984b3b6a805460010190819055818552603890935292205415610c3357600082815260386020908152604080832054848452603683528184207fed92b4c1e0a9e559a31171d487ecbec963526662038ecfa3a71160bd62fb8733855260050190925290912055610c45565b60008281526038602052604090208190555b600082815260386020526040812054610c5f908390612d5b565b6000838152603660205260408120858155600280820180546201000062ff0000199091161776ffffffffffffffffffffffffffffffffffffffff00000019163363010000008102919091179091556003830180546001600160a01b031990811683179091556004840180549091166001600160a01b038b16179055600190920192909255919250610d04919030906000198501900a68056bc75e2d6310000002612a4a565b5060009081526036602090815260408083207f4b4cefd5ced7569ef0d091282b4bca9c52a034c56471a6061afd1bf307a2de7c84526005019091528082204390557f46f7d53798d31923f6952572c6a19ad2d1a8238d26649c2f3493a6d69e425d28825290204262093a800190555050565b6040805133602080830191909152825180830382018152918301835281519181019190912060008181526046909252919020541580610dc957506000818152604660205260409020546103844291909103115b610e045760405162461bcd60e51b815260040180806020018281038252602a815260200180614ec9602a913960400191505060405180910390fd5b7fdfbec46864bc123768f0d134913175d9577a55bb71b9b2595fda21e21f36b08260005260466020527f7df1eb1754bc067736ff3d89af41d339bf906d31b0f5978e3c78f402d4ed249254600414610e9557610e9585858080601f016020809104026020016040519081016040528093929190818152602001838380828437600092019190915250612f4d92505050565b6000818152604660209081526040918290204290558151601f8701829004820281018201909252858252610f2e91908790879081908401838280828437600092019190915250506040805160a081810190925292508791506005908390839080828437600092019190915250506040805160a0818101909252915086906005908390839080828437600092019190915250613224915050565b5050505050565b60338181548110610f4557600080fd5b600091825260209091200154905081565b603960209081526000928352604080842090915290825290205460ff1681565b604b6020526000908152604090205460ff1681565b6001600160a01b038216600090815260496020526040812080541580610fd157508281600081548110610fba57fe5b6000918252602090912001546001600160801b0316115b15610fe057600091505061093b565b805481906000198101908110610ff257fe5b6000918252602090912001546001600160801b031683106110445780548190600019810190811061101f57fe5b600091825260209091200154600160801b90046001600160801b0316915061093b9050565b8054600090600119015b818111156110fc57600060026001838501010490508584828154811061107057fe5b6000918252602090912001546001600160801b031614156110bf5783818154811061109757fe5b600091825260209091200154600160801b90046001600160801b0316945061093b9350505050565b858482815481106110cc57fe5b6000918252602090912001546001600160801b031610156110ef578092506110f6565b6001810391505b5061104e565b82828154811061110857fe5b600091825260209091200154600160801b90046001600160801b0316935061093b92505050565b5092915050565b60376020526000908152604090205481565b60486020526000908152604090205481565b6047602052600090815260409020546001600160a01b031681565b600061093b8243610f8b565b816111c4576040805162461bcd60e51b815260206004820152600e60248201526d052657175657374496420697320360941b604482015290519081900360640190fd5b80611216576040805162461bcd60e51b815260206004820152601c60248201527f5469702073686f756c642062652067726561746572207468616e203000000000604482015290519081900360640190fd5b7f3f8b5616fa9e7f2ce4a868fde15c58b92e77bc1acd6769bf1567629a3dc4c86560005260466020527f7119b9afaa3bda0901ffe121c1535f50cd6d0d09df5d29eb1cb16c8ab47a55d654600101828114156112be577f3f8b5616fa9e7f2ce4a868fde15c58b92e77bc1acd6769bf1567629a3dc4c86560005260466020527f7119b9afaa3bda0901ffe121c1535f50cd6d0d09df5d29eb1cb16c8ab47a55d6819055611312565b808310611312576040805162461bcd60e51b815260206004820181905260248201527f526571756573744964206973206e6f74206c657373207468616e20636f756e74604482015290519081900360640190fd5b61131c33836138f5565b6113268383613a5c565b600083815260456020908152604080832060008051602061510f8339815191528452600101825291829020548251858152918201528151859233927fd32134405b68f6f7220f9c38ae310df1b648d16188006768d45be2f7c24e8820929081900390910190a3505050565b600083815260456020908152604080832085845260028101909252909120546113f4576040805162461bcd60e51b815260206004820152601060248201526f04d696e656420626c6f636b20697320360841b604482015290519081900360640190fd5b60058210611449576040805162461bcd60e51b815260206004820152601460248201527f4d696e657220696e6465782069732077726f6e67000000000000000000000000604482015290519081900360640190fd5b6000838152600580830160205260408220908490811061146557fe5b015460408051606083811b6bffffffffffffffffffffffff191660208084018290526b111a5cdc1d5d1950dbdd5b9d60a21b603485015284518085038201815284860186528051908201206000908152604682528581208054600190810190915593850192909252607484018b905260948085018b90528551808603909101815260b490940185528351938101939093207f1ce2382bc92689b00ba121fa5a411aa976168affdd8ac143a69035dd984b3b6a805490930192839055808252603890935292909220546001600160a01b0390931693509180156115855760008281526036602090815260408083207fed92b4c1e0a9e559a31171d487ecbec963526662038ecfa3a71160bd62fb8733845260050190915290208190556115dc565b62093a80874203106115c85760405162461bcd60e51b81526004018080602001828103825260328152602001806150726032913960400191505060405180910390fd5b506000828152603860205260409020819055805b60006115e88383612d5b565b90506000876002141561168d575060008981526045602090815260408083207f310199159a20c50879ffb440b45802138b5b162ec9426720e9dd3ee8bbcdb9d78452600190810183529083208054909101908190557f5d9fadfc729fd027e395e5157ef1b53ef9fa4a8f053043c5f159307543e7cc97909252604690527f167af83a0768d27540775cfef6d996eb63f8a61fcdfb26e654c18fb50960e3be54026116dc565b507f675d2171f68d6f5545d54fb9b1fb61a0e6897e6188ca1cd664e7c9530d91ecfc60005260466020527f3e5522f19747f0f285b96ded572ac4128c3a764aea9f44058dc0afc9dda449865481025b6000848152603660209081526040808320888155600281018054600383018054336001600160a01b031991821617909155600484018054909116905576ffffffffffffffffffffffffffffffffffffffffff0000191663010000006001600160a01b038d16021761ffff19169055600181018490557f9f47a2659c3d32b749ae717d975e7962959890862423c4318cf86e4ec220291f8452600590810183528184208e90557f2f9328a9c75282bec25bb04befad06926366736e0030c985108445fa728335e584528184208d90558c845260068b0190925290912090899081106117c257fe5b015460008581526036602090815260408083207f9147231ab14efb72c38117f68521ddef8de64f092c18c69dbfb602ffc4de7f478452600501909152808220929092557f46f7d53798d31923f6952572c6a19ad2d1a8238d26649c2f3493a6d69e425d2881528181206202a3008502420190557f4b4cefd5ced7569ef0d091282b4bca9c52a034c56471a6061afd1bf307a2de7c81528181204390557f6de96ee4d33a0617f40a846309c8759048857f51b9d59a12d3c3786d4778883d81528181208a90557f1da95f11543c9b03927178e07951795dfc95c7501a9d1cf00e13414ca33bc4098152208190556118b9333083612a4a565b87600214156118eb5760008981526004880160209081526040808320805460ff1916600117905560038a019091528120555b6001600160a01b0386166000818152604460209081526040918290206003905581518c81529081019290925280518c9287927feceec1aebf67772b2440120c4b4dc913a1fe1b865509219f9456785c23b9da6492918290030190a350505050505050505050565b61195b33613ca0565b565b6001600160a01b0382166000908152604460205260408120541580159061199c57506001600160a01b0383166000908152604460205260409020546005115b15611a16577f5d9fadfc729fd027e395e5157ef1b53ef9fa4a8f053043c5f159307543e7cc9760005260466020527f167af83a0768d27540775cfef6d996eb63f8a61fcdfb26e654c18fb50960e3be548290611a01906119fb86611175565b90613def565b10611a0e5750600161093b565b50600061093b565b81611a2084611175565b10159392505050565b7f310199159a20c50879ffb440b45802138b5b162ec9426720e9dd3ee8bbcdb9d760005260466020527f1ce2382bc92689b00ba121fa5a411aa976168affdd8ac143a69035dd984b3b6a54811115611ac1576040805162461bcd60e51b8152602060048201526016602482015275191a5cdc1d5d1948191bd95cc81b9bdd08195e1a5cdd60521b604482015290519081900360640190fd5b600081815260366020818152604080842054845260388252808420548085529282528084207f6ab2b18aafe78fd59c6a4092015bddd9fcacb8170f72b299074f74d76a91a923855260050180835281852054825180850191909152825180820385018152908301835280519084012085529091529091205480611b415750805b60008281526036602090815260408083208484528184207f6ab2b18aafe78fd59c6a4092015bddd9fcacb8170f72b299074f74d76a91a92385526005820190935292205480611b8e575060015b7f29169706298d2b6df50a532e958b56426de1465348b93650fca42d456eaec5fc600090815260058401602052604081205415611c05576040805162461bcd60e51b815260206004820152601060248201526f185b1c9958591e481c185a59081bdd5d60821b604482015290519081900360640190fd5b600284015462010000900460ff1615611c4f5760405162461bcd60e51b8152600401808060200182810382526029815260200180614f136029913960400191505060405180910390fd5b7ff9e1ae10923bfc79f52e309baf8c7699edb821f91ef5b5bd07be29545917b3a66000908152600585016020526040902054611cd2576040805162461bcd60e51b815260206004820152601860248201527f766f7465206e6565647320746f2062652074616c6c6965640000000000000000604482015290519081900360640190fd5b7ff9e1ae10923bfc79f52e309baf8c7699edb821f91ef5b5bd07be29545917b3a6600090815260058401602052604090205462015180429190910311611d495760405162461bcd60e51b815260040180806020018281038252602b815260200180614f5e602b913960400191505060405180910390fd5b600284810154630100000090046001600160a01b031660009081526044602090815260408083207f29169706298d2b6df50a532e958b56426de1465348b93650fca42d456eaec5fc84526005890190925290912060019081905591850154909161010090910460ff1615151415611f72576201518042064203600182015560466020527fa5ae3e2b97d73fb849ea855d27f073b72815b38452d976bd57e4a157827dadd380546000190190557f5d9fadfc729fd027e395e5157ef1b53ef9fa4a8f053043c5f159307543e7cc976000527f167af83a0768d27540775cfef6d996eb63f8a61fcdfb26e654c18fb50960e3be5460028601548190611e5b90630100000090046001600160a01b0316611175565b1015611e82576002860154611e7f90630100000090046001600160a01b0316611175565b90505b815460041415611ebd576005825560028601546003870154611eb8916001600160a01b0363010000009091048116911683612a4a565b600082555b60005b84811015611f6b57604080518287036020808301919091528251808303820181529183018352815191810191909120600090815260058a019091522054935083611f08578893505b600084815260366020908152604080832060038101547f1da95f11543c9b03927178e07951795dfc95c7501a9d1cf00e13414ca33bc409855260058201909352922054611f629130916001600160a01b0390911690612a4a565b50600101611ec0565b5050612219565b600284015460408051630100000090920460601b6bffffffffffffffffffffffff19166020808401919091526b111a5cdc1d5d1950dbdd5b9d60a21b603484015281518084038201815292820182528251928101929092206000908152604690925290205460011415611fe457600181555b7f9f47a2659c3d32b749ae717d975e7962959890862423c4318cf86e4ec220291f60009081526005860160208181526040808420548452604582528084207f6de96ee4d33a0617f40a846309c8759048857f51b9d59a12d3c3786d4778883d85529290915290912054600214156120bf577f9147231ab14efb72c38117f68521ddef8de64f092c18c69dbfb602ffc4de7f4760009081526005870160209081526040808320547f2f9328a9c75282bec25bb04befad06926366736e0030c985108445fa728335e5845281842054845260038501909252909120555b7f2f9328a9c75282bec25bb04befad06926366736e0030c985108445fa728335e5600090815260058701602090815260408083205483526004840190915290205460ff16151560011415612156577f2f9328a9c75282bec25bb04befad06926366736e0030c985108445fa728335e560009081526005870160209081526040808320548352600484019091529020805460ff191690555b60005b8481101561221657604080518287036020808301919091528251808303820181529183018352815191810191909120600090815260058a019091522054935083156121af57600084815260366020526040902095505b600286015460008581526036602090815260408083207f1da95f11543c9b03927178e07951795dfc95c7501a9d1cf00e13414ca33bc409845260050190915290205461220e91309163010000009091046001600160a01b031690612a4a565b600101612159565b50505b60028481015460408051630100000090920460601b6bffffffffffffffffffffffff19166020808401919091526b111a5cdc1d5d1950dbdd5b9d60a21b6034840152815180840382018152928201825282519281019290922060009081526046835281812080546000190190557f6de96ee4d33a0617f40a846309c8759048857f51b9d59a12d3c3786d4778883d815260058901909252902054141561232b577f9f47a2659c3d32b749ae717d975e7962959890862423c4318cf86e4ec220291f60009081526005860160209081526040808320548352604582528083207f310199159a20c50879ffb440b45802138b5b162ec9426720e9dd3ee8bbcdb9d78452600101909152902080546000190190555b5050505050505050565b6000612342338484612a4a565b50600192915050565b7f5fc094d10c65bc33cc842217b2eccca0191ff24148319da094e540a55989896160005260476020527f437dd27c2043efdfef03344e9331c924985f7bd1752abef5ea93bdbfed685100546001600160a01b031633146123e0576040805162461bcd60e51b815260206004820152600b60248201526a1b9bdd08185b1b1bddd95960aa1b604482015290519081900360640190fd5b6123eb838383613e01565b505050565b60466020526000908152604090205481565b7ff758978fc1647996a3d9992f611883adc442931dc49488312360acc90601759b600052604660205260008051602061505283398151915255565b7f310199159a20c50879ffb440b45802138b5b162ec9426720e9dd3ee8bbcdb9d760005260466020527f1ce2382bc92689b00ba121fa5a411aa976168affdd8ac143a69035dd984b3b6a548211156124d5576040805162461bcd60e51b8152602060048201526016602482015275191a5cdc1d5d1948191bd95cc81b9bdd08195e1a5cdd60521b604482015290519081900360640190fd5b6000828152603660205260409020600281015460ff16156125275760405162461bcd60e51b81526004018080602001828103825260258152602001806150c56025913960400191505060405180910390fd5b7f4b4cefd5ced7569ef0d091282b4bca9c52a034c56471a6061afd1bf307a2de7c6000908152600582016020526040812054612564903390610f8b565b33600090815260068401602052604090205490915060ff161515600114156125d3576040805162461bcd60e51b815260206004820152601860248201527f53656e6465722068617320616c726561647920766f7465640000000000000000604482015290519081900360640190fd5b80612619576040805162461bcd60e51b81526020600482015260116024820152700557365722062616c616e6365206973203607c1b604482015290519081900360640190fd5b336000908152604460205260409020546003141561267e576040805162461bcd60e51b815260206004820152601660248201527f4d696e657220697320756e646572206469737075746500000000000000000000604482015290519081900360640190fd5b3360009081526006830160209081526040808320805460ff191660019081179091557f1da378694063870452ce03b189f48e04c1aa026348e74e6c86e10738514ad2c48452600586019092529091208054909101905582156126f35760018201546126e99082613e97565b6001830155612708565b60018201546127029082613ec2565b60018301555b60408051841515815290518291339187917f911ef2e98570b1d96c0e8ef81107a33d5b8e844aeb8f9710f9bc76c3b3fef40e919081900360200190a450505050565b6049602052816000526040600020818154811061276657600080fd5b6000918252602090912001546001600160801b038082169350600160801b90910416905082565b60386020526000908152604090205481565b604c80546001019055565b60408051336020808301919091528251808303820181529183018352815191810191909120600081815260469092529190205415806127fd57506000818152604660205260409020546103844291909103115b6128385760405162461bcd60e51b815260040180806020018281038252602a815260200180614ec9602a913960400191505060405180910390fd5b610f2e85858080601f016020809104026020016040519081016040528093929190818152602001838380828437600092019190915250506040805160a081810190925292508791506005908390839080828437600092019190915250506040805160a0818101909252915086906005908390839080828437600092019190915250613224915050565b603660205260009081526040902080546001820154600283015460038401546004909401549293919260ff808316936101008404821693620100008104909216926001600160a01b036301000000909304831692918216911688565b6001600160a01b039182166000908152604a6020908152604080832093909416825291909152205490565b604c5490565b6001600160a01b03821660009081526049602052604090208054158061299b5750805443908290600019810190811061298357fe5b6000918252602090912001546001600160801b031614155b15612a0c5760408051808201909152436001600160801b0390811682528381166020808401918252845460018101865560008681529190912093519301805491516fffffffffffffffffffffffffffffffff19909216938316939093178216600160801b91909216021790556123eb565b805460009082906000198101908110612a2157fe5b600091825260209091200180546001600160801b03808616600160801b02911617905550505050565b80612a865760405162461bcd60e51b8152600401808060200182810382526021815260200180614ff16021913960400191505060405180910390fd5b6001600160a01b038216612ad9576040805162461bcd60e51b815260206004820152601560248201527452656365697665722069732030206164647265737360581b604482015290519081900360640190fd5b612ae3838261195d565b612b1e5760405162461bcd60e51b8152600401808060200182810382526027815260200180614faa6027913960400191505060405180910390fd5b6000612b2984611175565b905081612b388582840361294e565b612b4184611175565b9150816001600160801b03168183016001600160801b03161015612ba0576040805162461bcd60e51b815260206004820152601160248201527013dd995c999b1bddc81a185c1c195b9959607a1b604482015290519081900360640190fd5b612bac8482840161294e565b836001600160a01b0316856001600160a01b03167fddf252ad1be2c89b69c2b068fc378daa952ba7f163c4a11628f55a4df523b3ef856040518082815260200191505060405180910390a35050505050565b60408051602060248201819052600060448301819052835180840360640181526084909301845290820180516001600160e01b031663fc735e9960e01b1781529251825191936060936001600160a01b0387169390929182918083835b60208310612c7a5780518252601f199092019160209182019101612c5b565b6001836020036101000a0380198251168184511680821785525050505050509050019150506000604051808303816000865af19150503d8060008114612cdc576040519150601f19603f3d011682016040523d82523d6000602084013e612ce1565b606091505b5091509150818015612d0a5750610bb7818060200190516020811015612d0657600080fd5b5051115b6123eb576040805162461bcd60e51b815260206004820152601560248201527f6e65772074656c6c6f7220697320696e76616c69640000000000000000000000604482015290519081900360640190fd5b60008181526036602081815260408084207f6ab2b18aafe78fd59c6a4092015bddd9fcacb8170f72b299074f74d76a91a923855260050180835281852080546001019081905586865293835281518084018590528251808203850181529083018352805190840120855290915290912083905582821461093b57600082815260366020818152604080842081516000198701818501528251808203850181529083018352805190840120855260059081018352818520548086529383528185207f46f7d53798d31923f6952572c6a19ad2d1a8238d26649c2f3493a6d69e425d2886520190915290912054421015612e9a576040805162461bcd60e51b815260206004820152601760248201527f4469737075746520697320616c7265616479206f70656e000000000000000000604482015290519081900360640190fd5b60008181526036602052604090206002015460ff161561112f5760008181526036602090815260408083207ff9e1ae10923bfc79f52e309baf8c7699edb821f91ef5b5bd07be29545917b3a68452600501909152902054620151804291909103111561112f576040805162461bcd60e51b815260206004820152601f60248201527f54696d6520666f7220766f74696e6720686176656e277420656c617073656400604482015290519081900360640190fd5b600080516020615052833981519152547fd54702836c9d21d0727ffacc3e39f57c92b5ae0f50177e593bfb5ec66e3de280600052604860209081527f52cb9007c7c6068f8ef37039d4f232cbf5a28ff8d93a5983c4c0c27cd2f9bc0d546040805180840183815233606081901b93830193909352865160029560039594938993926054909101918401908083835b60208310612ffa5780518252601f199092019160209182019101612fdb565b6001836020036101000a038019825116818451168082178552505050505050905001935050505060405160208183030381529060405280519060200120604051602001808281526020019150506040516020818303038152906040526040518082805190602001908083835b602083106130855780518252601f199092019160209182019101613066565b51815160209384036101000a60001901801990921691161790526040519190930194509192505080830381855afa1580156130c4573d6000803e3d6000fd5b5050506040515160601b60405160200180826bffffffffffffffffffffffff191681526014019150506040516020818303038152906040526040518082805190602001908083835b6020831061312b5780518252601f19909201916020918201910161310c565b51815160209384036101000a60001901801990921691161790526040519190930194509192505080830381855afa15801561316a573d6000803e3d6000fd5b5050506040513d602081101561317f57600080fd5b50518161318857fe5b0615806131e657507f2c8b528fbaf48aaf13162a5a0519a7ad5a612da8ff8783465c17e076660a59f160005260466020527f231bb0dc207f13dd4e565ebc32496c470e35391bd8d3b6649269ee2328e0311854610384429190910310155b6132215760405162461bcd60e51b81526004018080602001828103825260258152602001806150ea6025913960400191505060405180910390fd5b50565b6040805133602080830182905283518084038201815292840184528251928101929092206000918252604490925291909120546001146132ab576040805162461bcd60e51b815260206004820152601a60248201527f4d696e657220737461747573206973206e6f74207374616b6572000000000000604482015290519081900360640190fd5b603a548351146132f8576040805162461bcd60e51b8152602060048201526013602482015272526571756573742049442069732077726f6e6760681b604482015290519081900360640190fd5b603c54602084015114613348576040805162461bcd60e51b8152602060048201526013602482015272526571756573742049442069732077726f6e6760681b604482015290519081900360640190fd5b603e54604084015114613398576040805162461bcd60e51b8152602060048201526013602482015272526571756573742049442069732077726f6e6760681b604482015290519081900360640190fd5b6040546060840151146133e8576040805162461bcd60e51b8152602060048201526013602482015272526571756573742049442069732077726f6e6760681b604482015290519081900360640190fd5b604254608084015114613438576040805162461bcd60e51b8152602060048201526013602482015272526571756573742049442069732077726f6e6760681b604482015290519081900360640190fd5b60008181526046602090815260408083204290557f52cb9007c7c6068f8ef37039d4f232cbf5a28ff8d93a5983c4c0c27cd2f9bc0d547f7df1eb1754bc067736ff3d89af41d339bf906d31b0f5978e3c78f402d4ed2492548185526039845282852033865290935292205460ff16156134e25760405162461bcd60e51b81526004018080602001828103825260218152602001806150a46021913960400191505060405180910390fd5b60008281526039602090815260408083203384528252808320805460ff191660011790557fe97d205f7d20bf394e3813033d2203b4733acb28b351c8d2a771647ab0d41c3c548352604582528083208751848052600682019093529220836005811061354a57fe5b015560208086015160016000908152600684019092526040909120836005811061357057fe5b0155604080860151600260009081526006840160205291909120836005811061359557fe5b0155606085015160036000908152600683016020526040902083600581106135b957fe5b0155608085015160046000908152600683016020526040902083600581106135dd57fe5b01556000808052600580830160205260409091203391849081106135fd57fe5b0180546001600160a01b0319166001600160a01b0392909216919091179055600160009081526005828101602052604090912033918490811061363c57fe5b0180546001600160a01b0319166001600160a01b0392909216919091179055600260009081526005828101602052604090912033918490811061367b57fe5b0180546001600160a01b0319166001600160a01b039290921691909117905560036000908152600582810160205260409091203391849081106136ba57fe5b0180546001600160a01b0319166001600160a01b039290921691909117905560046000908152600582810160205260409091203391849081106136f957fe5b0180546001600160a01b0319166001600160a01b0392909216919091179055600182016004141561372c5761372c613ee8565b82336001600160a01b03167f9d2e5f03fc65aff196e0f3a8dd924b24099de487e8cffc888921d420ab196e3989898987604051808060200185600560200280838360005b83811015613788578181015183820152602001613770565b5050505090500184600560200280838360005b838110156137b357818101518382015260200161379b565b50505050905001838152602001828103825286818151815260200191508051906020019080838360005b838110156137f55781810151838201526020016137dd565b50505050905090810190601f1680156138225780820380516001836020036101000a031916815260200191505b509550505050505060405180910390a3816001016005141561389a576138488787614002565b7fdfbec46864bc123768f0d134913175d9577a55bb71b9b2595fda21e21f36b082600090815260466020527f7df1eb1754bc067736ff3d89af41d339bf906d31b0f5978e3c78f402d4ed2492556138ec565b7fdfbec46864bc123768f0d134913175d9577a55bb71b9b2595fda21e21f36b08260005260466020527f7df1eb1754bc067736ff3d89af41d339bf906d31b0f5978e3c78f402d4ed2492805460010190555b50505050505050565b806138ff576109a2565b613909828261195d565b6139445760405162461bcd60e51b8152600401808060200182810382526027815260200180614faa6027913960400191505060405180910390fd5b600061394f83611175565b9050816001600160801b0380831682840390911611156139aa576040805162461bcd60e51b815260206004820152601160248201527013dd995c999b1bddc81a185c1c195b9959607a1b604482015290519081900360640190fd5b6000805160206150128339815191526000526046602052600080516020614ef383398151915254838103811015613a1c576040805162461bcd60e51b815260206004820152601160248201527013dd995c999b1bddc81a185c1c195b9959607a1b604482015290519081900360640190fd5b613a288583850361294e565b5050600080516020615012833981519152600052506046602052600080516020614ef3833981519152805482900390555050565b600082815260456020908152604080832060008051602061510f83398151915284526001810190925290912054613a93908361485b565b60008051602061510f8339815191526000908152600183016020526040902055603a54831480613ac45750603c5483145b80613ad05750603e5483145b80613adc575060405483145b80613ae8575060425483145b15613b1e576000805160206150328339815191526000526046602052600080516020614fd18339815191528054830190556123eb565b7ff68d680ab3160f1aa5d9c3a1383c49e3e60bf3c0c031245cbb036f5ce99afaa16000908152600182016020526040902054613c5457604080516106608101918290526000918291613b8f91839060339082845b815481526020019060010190808311613b72575050505050614871565b60008051602061510f83398151915260009081526001860160205260409020549193509150821080613bbf575081155b15613c4d5760008051602061510f8339815191526000908152600184016020526040812054908260338110613bf057fe5b0155600081815260356020908152604080832080548452604583528184207ff68d680ab3160f1aa5d9c3a1383c49e3e60bf3c0c031245cbb036f5ce99afaa185526001908101845282852085905590899055860190915290208190555b50506123eb565b7ff68d680ab3160f1aa5d9c3a1383c49e3e60bf3c0c031245cbb036f5ce99afaa1600090815260018201602052604081205483919060338110613c9357fe5b0180549091019055505050565b6001600160a01b0381166000908152604b602052604090205460ff1615613d01576040805162461bcd60e51b815260206004820152601060248201526f105b1c9958591e481b5a59dc985d195960821b604482015290519081900360640190fd5b7f56e0987db9eaec01ed9e0af003a0fd5c062371f9d23722eb4a3ebc74f16ea371600052604760209081527fc930326aab6c1874fc004d856083a6ed34e057e064970b7effb48e8e6e8ca12754604080516370a0823160e01b81526001600160a01b0380861660048301529151613dcb94869493909316926370a082319260248082019391829003018186803b158015613d9a57600080fd5b505afa158015613dae573d6000803e3d6000fd5b505050506040513d6020811015613dc457600080fd5b50516148c0565b6001600160a01b03166000908152604b60205260409020805460ff19166001179055565b600082821115613dfb57fe5b50900390565b80613e67576001600160a01b0383166000908152604b602052604090205460ff1615613e67576040805162461bcd60e51b815260206004820152601060248201526f185b1c9958591e481b5a59dc985d195960821b604482015290519081900360640190fd5b613e7183836148c0565b50506001600160a01b03166000908152604b60205260409020805460ff19166001179055565b600080821315613eb4575081810182811215613eaf57fe5b61093b565b508181018281131561093b57fe5b600080821315613eda575080820382811315613eaf57fe5b508082038281121561093b57fe5b7f2c8b528fbaf48aaf13162a5a0519a7ad5a612da8ff8783465c17e076660a59f1600090815260466020527f231bb0dc207f13dd4e565ebc32496c470e35391bd8d3b6649269ee2328e0311854420390613f446104b083614aa7565b6046602052600080516020615052833981519152547fd4f87b8d0f3d3b7e665df74631f6100b2695daa0e30e40eeac02172e15a999e16000527f8156e704072c396780f8253d0562de28216b73a1503daa96e259b9cdd951d71c54610fa0929003810291909105915081613fb757600191505b613fc48282016001614abd565b7ff758978fc1647996a3d9992f611883adc442931dc49488312360acc90601759b600052604660205260008051602061505283398151915255505050565b7fe97d205f7d20bf394e3813033d2203b4733acb28b351c8d2a771647ab0d41c3c54600090815260456020908152604082207f52cb9007c7c6068f8ef37039d4f232cbf5a28ff8d93a5983c4c0c27cd2f9bc0d547f2c8b528fbaf48aaf13162a5a0519a7ad5a612da8ff8783465c17e076660a59f190935260469091527f231bb0dc207f13dd4e565ebc32496c470e35391bd8d3b6649269ee2328e0311880544291829055919291906140b3614e37565b6140bb614e37565b60005b600581101561440c5760015b6005811015614279576000828152600689016020526040812082600581106140ee57fe5b015490506000896005016000858152602001908152602001600020836005811061411457fe5b01546001600160a01b03169050825b6000811180156141525750600085815260068c016020526040902060001982016005811061414d57fe5b015483105b1561420957600085815260068c016020526040902060001982016005811061417657fe5b0154600086815260068d0160205260409020826005811061419357fe5b015560008581526005808d0160205260409091209060001983019081106141b657fe5b015460008681526005808e0160205260409091206001600160a01b039092169190839081106141e157fe5b0180546001600160a01b0319166001600160a01b039290921691909117905560001901614123565b8381101561426e57600085815260068c01602052604090208390826005811061422e57fe5b015560008581526005808d01602052604090912083918390811061424e57fe5b0180546001600160a01b0319166001600160a01b03929092169190911790555b5050506001016140ca565b506000604560008a846005811061428c57fe5b6020020151815260200190815260200160002090508760060160008381526020019081526020016000206005806020026040519081016040528092919082600580156142ed576020028201915b8154815260200190600101908083116142d9575b505050505093508360026005811061430157fe5b602090810291909101516000878152600384019092526040918290205584015183836005811061432d57fe5b6020908102919091019190915260008381526005808b0183526040808320898452858301909452909120614362929091614e55565b5060008281526006808a016020908152604080842089855292850190915290912061438e916005614e55565b50600082815260058901602052604081206143a891614e90565b600082815260068901602052604081206143c191614e90565b80546001818101835560008381526020808220909301889055878152600284018352604080822043905560008051602061510f833981519152825293820190925291812055016140be565b50847fbeb3b9f46c8d7bb00c873fca10d307538df350866d25f891ffb395147ddbdc458885846046600060008051602061503283398151915260001b8152602001908152602001600020546040518085600560200280838360005b8381101561447f578181015183820152602001614467565b5050505090500184815260200183600560200280838360005b838110156144b0578181015183820152602001614498565b5050505090500182815260200194505050505060405180910390a2603380546001810182556000919091527f82a75bdeeae8604d839476ae9efd8b0e15aa447e21bfd7f41283bb54e22c9a8201839055614508614e37565b87516000908152604560209081526040808320878452600590810190925291829020825160a08101938490529290919082845b81546001600160a01b0316815260019091019060200180831161453b57505050505090506145698186614acc565b7ff3b93531fa65b3a18680d9ea49df06d96fbd883c4889dc7db866f8b131602dfb60005260466020527fe97d205f7d20bf394e3813033d2203b4733acb28b351c8d2a771647ab0d41c3c805460010190556145c2614e37565b6145ca614bfe565b905060005b60058110156146e1578181600581106145e457fe5b6020020151603a82600581106145f657fe5b600202015560008060458185856005811061460d57fe5b6020020151815260200190815260200160002060010160007ff68d680ab3160f1aa5d9c3a1383c49e3e60bf3c0c031245cbb036f5ce99afaa160001b8152602001908152602001600020546033811061466257fe5b01556045600083836005811061467457fe5b602090810291909101518252818101929092526040908101600090812060008051602061510f833981519152825260019081018452918120546000805160206150328339815191529091526046909252600080516020614fd18339815191528054909201909155016145cf565b50898760014303406040516020018080602001848152602001838152602001828103825285818151815260200191508051906020019080838360005b8381101561473557818101518382015260200161471d565b50505050905090810190601f1680156147625780820380516001836020036101000a031916815260200191505b5060408051601f198184030181529082905280516020918201207f52cb9007c7c6068f8ef37039d4f232cbf5a28ff8d93a5983c4c0c27cd2f9bc0d8190556046909152600080516020615052833981519152546000805160206150328339815191526000908152600080516020614fd183398151915254929f508f98507f1d85ce10456e29b67de37887496d3f1fcf1b64c79c4d07484038703a9f5c140897508996509094509092508190859060a0908190849084905b83811015614831578181015183820152602001614819565b5050505091909101938452505060208201526040805191829003019150a250505050505050505050565b60008282018381101561486a57fe5b9392505050565b610640810151603260315b80156148ba578284826033811061488f57fe5b602002015110156148b1578381603381106148a657fe5b602002015192508091505b6000190161487c565b50915091565b806148fc5760405162461bcd60e51b8152600401808060200182810382526021815260200180614f896021913960400191505060405180910390fd5b6001600160a01b03821661494f576040805162461bcd60e51b815260206004820152601560248201527452656365697665722069732030206164647265737360581b604482015290519081900360640190fd5b600061495a83611175565b9050816001600160801b0380831682840190911610156149b5576040805162461bcd60e51b815260206004820152601160248201527013dd995c999b1bddc81a185c1c195b9959607a1b604482015290519081900360640190fd5b6000805160206150128339815191526000526046602052600080516020614ef383398151915254838101811115614a27576040805162461bcd60e51b815260206004820152601160248201527013dd995c999b1bddc81a185c1c195b9959607a1b604482015290519081900360640190fd5b6000805160206150128339815191526000526046602052600080516020614ef3833981519152805485019055614a5f8584840161294e565b6040805185815290516001600160a01b038716916000917fddf252ad1be2c89b69c2b068fc378daa952ba7f163c4a11628f55a4df523b3ef9181900360200190a35050505050565b6000818310614ab6578161486a565b5090919050565b6000818313614ab6578161486a565b60466020527fc2c579d641b643400780d5c7ce967b420034b9f66962a5ee405cf70e4cbed6bb546000805160206150328339815191526000908152600080516020614fd183398151915254428490039261012c9084020491600a909104906002830490614b439087905b60200201518385016148c0565b614b4e866001614b36565b614b59866002614b36565b614b64866003614b36565b614b6f866004614b36565b7f7a39905194de50bde334d18b76bbb36dddd11641d4d50b470cb837cf3bae5def60005260476020527fb5f7e7387e8e977cc9c4c9513388b0d7224264b9a0159cd8e8bdd84a9ed504c354614bcd906001600160a01b0316826148c0565b505060008051602061503283398151915260009081526046602052600080516020614fd18339815191525550505050565b614c06614e37565b614c0e614e37565b614c16614e37565b60408051610660810191829052614c4d9160009060339082845b815481526020019060010190808311614c30575050505050614ce3565b909250905060005b6005811015614cdd57828160058110614c6a57fe5b602002015115614cae5760356000838360058110614c8457fe5b6020020151815260200190815260200160002054848260058110614ca457fe5b6020020152614cd5565b603a8160040360058110614cbe57fe5b6002020154848260058110614ccf57fe5b60200201525b600101614c55565b50505090565b614ceb614e37565b614cf3614e37565b60208301516000805b6005811015614d7657858160010160338110614d1457fe5b6020020151858260058110614d2557fe5b602002015260018101848260058110614d3a57fe5b602002015282858260058110614d4c57fe5b60200201511015614d6e57848160058110614d6357fe5b602002015192508091505b600101614cfc565b5060065b6033811015614e2f5782868260338110614d9057fe5b60200201511115614e2757858160338110614da757fe5b6020020151858360058110614db857fe5b602002015280848360058110614dca57fe5b6020020152858160338110614ddb57fe5b6020020151925060005b6005811015614e255783868260058110614dfb57fe5b60200201511015614e1d57858160058110614e1257fe5b602002015193508092505b600101614de5565b505b600101614d7a565b505050915091565b6040518060a001604052806005906020820280368337509192915050565b8260058101928215614e80579182015b82811115614e80578254825591600101919060010190614e65565b50614e8c929150614eb3565b5090565b506000815560010160008155600101600081556001016000815560010160009055565b5b80821115614e8c5760008155600101614eb456fe4d696e65722063616e206f6e6c792077696e2072657761726473206f6e636520706572203135206d696efffeead1ec15181fd57b4590d95e0c076bccb59e311315e8b38f23c710aa7c3e66756e6374696f6e206e6f742063616c6c61626c6520666f726b20666f726b2070726f706f73616c7345524332303a20617070726f766520746f20746865207a65726f206164647265737354696d6520666f72206120666f6c6c6f772075702064697370757465206861736e277420656c6170736564547269656420746f206d696e74206e6f6e2d706f73697469766520616d6f756e7453686f756c6420686176652073756666696369656e742062616c616e636520746f20747261646538b16d06a20ab673b01c748aff938df6a38f81640035f4ce8bd9abb03aae5b72547269656420746f2073656e64206e6f6e2d706f73697469766520616d6f756e74e6148e7230ca038d456350e69a91b66968b222bfac9ebfbea6ff0a1fb738016009659d32f99e50ac728058418d38174fe83a137c455ff1847e6fb8e15f78f77a5bccd7373734898281f858d7562320d2cdfc0b17bd72f779686937174d15002544697370757465206d75737420626520737461727465642077697468696e2061207765656b206f66206261642076616c75654d696e657220616c7265616479207375626d6974746564207468652076616c756574686520646973707574652068617320616c7265616479206265656e206578656375746564496e636f7272656374206e6f6e636520666f722063757272656e74206368616c6c656e67651590276b7f31dd8e2a06f9a92867333eeb3eddbc91e73b9833e3e55d8e34f77da264697066735822122014dd21be0379ce7634b20f9676280b3842ed13d239578c325f7ee1d8b3c5dc2764736f6c63430007040033","opcodes":"PUSH1 0xA0 PUSH1 0x40 MSTORE PUSH2 0xBB8 PUSH1 0x4C SSTORE CALLVALUE DUP1 ISZERO PUSH2 0x16 JUMPI PUSH1 0x0 DUP1 REVERT JUMPDEST POP PUSH1 0x40 MLOAD PUSH3 0x51D4 CODESIZE SUB DUP1 PUSH3 0x51D4 DUP4 CODECOPY DUP2 DUP2 ADD PUSH1 0x40 MSTORE PUSH1 0x20 DUP2 LT ISZERO PUSH2 0x3B JUMPI PUSH1 0x0 DUP1 REVERT JUMPDEST POP MLOAD PUSH1 0x60 DUP2 SWAP1 SHL PUSH1 0x1 PUSH1 0x1 PUSH1 0x60 SHL SUB NOT AND PUSH1 0x80 MSTORE PUSH1 0x1 PUSH1 0x1 PUSH1 0xA0 SHL SUB AND PUSH2 0x5164 PUSH3 0x70 PUSH1 0x0 CODECOPY DUP1 PUSH2 0x1F4 MSTORE POP PUSH2 0x5164 PUSH1 0x0 RETURN INVALID PUSH1 0x80 PUSH1 0x40 MSTORE CALLVALUE DUP1 ISZERO PUSH2 0x10 JUMPI PUSH1 0x0 DUP1 REVERT JUMPDEST POP PUSH1 0x4 CALLDATASIZE LT PUSH2 0x1F0 JUMPI PUSH1 0x0 CALLDATALOAD PUSH1 0xE0 SHR DUP1 PUSH4 0x8581AF19 GT PUSH2 0x10F JUMPI DUP1 PUSH4 0xC9D27AFE GT PUSH2 0xA2 JUMPI DUP1 PUSH4 0xD47F0DD4 GT PUSH2 0x71 JUMPI DUP1 PUSH4 0xD47F0DD4 EQ PUSH2 0x75E JUMPI DUP1 PUSH4 0xDB085BEB EQ PUSH2 0x7D2 JUMPI DUP1 PUSH4 0xDD62ED3E EQ PUSH2 0x83F JUMPI DUP1 PUSH4 0xFC735E99 EQ PUSH2 0x86D JUMPI PUSH2 0x1F0 JUMP JUMPDEST DUP1 PUSH4 0xC9D27AFE EQ PUSH2 0x6B9 JUMPI DUP1 PUSH4 0xCBF1304D EQ PUSH2 0x6DE JUMPI DUP1 PUSH4 0xD01F4D9E EQ PUSH2 0x739 JUMPI DUP1 PUSH4 0xD304D8BF EQ PUSH2 0x756 JUMPI PUSH2 0x1F0 JUMP JUMPDEST DUP1 PUSH4 0xA9059CBB GT PUSH2 0xDE JUMPI DUP1 PUSH4 0xA9059CBB EQ PUSH2 0x61F JUMPI DUP1 PUSH4 0xA9FA7D34 EQ PUSH2 0x64B JUMPI DUP1 PUSH4 0xB59E14D4 EQ PUSH2 0x67F JUMPI DUP1 PUSH4 0xC52E9539 EQ PUSH2 0x69C JUMPI PUSH2 0x1F0 JUMP JUMPDEST DUP1 PUSH4 0x8581AF19 EQ PUSH2 0x5A5 JUMPI DUP1 PUSH4 0x8FD3AB80 EQ PUSH2 0x5CE JUMPI DUP1 PUSH4 0x999CF26C EQ PUSH2 0x5D6 JUMPI DUP1 PUSH4 0x9A01CA13 EQ PUSH2 0x602 JUMPI PUSH2 0x1F0 JUMP JUMPDEST DUP1 PUSH4 0x48B18E54 GT PUSH2 0x187 JUMPI DUP1 PUSH4 0x62DD1D2A GT PUSH2 0x156 JUMPI DUP1 PUSH4 0x62DD1D2A EQ PUSH2 0x506 JUMPI DUP1 PUSH4 0x699F200F EQ PUSH2 0x523 JUMPI DUP1 PUSH4 0x70A08231 EQ PUSH2 0x55C JUMPI DUP1 PUSH4 0x752D49A1 EQ PUSH2 0x582 JUMPI PUSH2 0x1F0 JUMP JUMPDEST DUP1 PUSH4 0x48B18E54 EQ PUSH2 0x46B JUMPI DUP1 PUSH4 0x4BA0A5EE EQ PUSH2 0x497 JUMPI DUP1 PUSH4 0x4EE2CD7E EQ PUSH2 0x4BD JUMPI DUP1 PUSH4 0x5700242C EQ PUSH2 0x4E9 JUMPI PUSH2 0x1F0 JUMP JUMPDEST DUP1 PUSH4 0x23B872DD GT PUSH2 0x1C3 JUMPI DUP1 PUSH4 0x23B872DD EQ PUSH2 0x37E JUMPI DUP1 PUSH4 0x26B7D9F6 EQ PUSH2 0x3B4 JUMPI DUP1 PUSH4 0x4350283E EQ PUSH2 0x3DA JUMPI DUP1 PUSH4 0x438C0AA3 EQ PUSH2 0x44E JUMPI PUSH2 0x1F0 JUMP JUMPDEST DUP1 PUSH4 0x24C2DDD EQ PUSH2 0x292 JUMPI DUP1 PUSH4 0x95EA7B3 EQ PUSH2 0x2D2 JUMPI DUP1 PUSH4 0x1FD22364 EQ PUSH2 0x312 JUMPI DUP1 PUSH4 0x21D513DC EQ PUSH2 0x350 JUMPI JUMPDEST PUSH1 0x0 PUSH32 0x0 SWAP1 POP PUSH1 0x0 DUP2 PUSH1 0x1 PUSH1 0x1 PUSH1 0xA0 SHL SUB AND PUSH1 0x0 CALLDATASIZE PUSH1 0x40 MLOAD DUP1 DUP4 DUP4 DUP1 DUP3 DUP5 CALLDATACOPY PUSH1 0x40 MLOAD SWAP3 ADD SWAP5 POP PUSH1 0x0 SWAP4 POP SWAP1 SWAP2 POP POP DUP1 DUP4 SUB DUP2 DUP6 GAS DELEGATECALL SWAP2 POP POP RETURNDATASIZE DUP1 PUSH1 0x0 DUP2 EQ PUSH2 0x273 JUMPI PUSH1 0x40 MLOAD SWAP2 POP PUSH1 0x1F NOT PUSH1 0x3F RETURNDATASIZE ADD AND DUP3 ADD PUSH1 0x40 MSTORE RETURNDATASIZE DUP3 MSTORE RETURNDATASIZE PUSH1 0x0 PUSH1 0x20 DUP5 ADD RETURNDATACOPY PUSH2 0x278 JUMP JUMPDEST PUSH1 0x60 SWAP2 POP JUMPDEST POP POP SWAP1 POP RETURNDATASIZE PUSH1 0x0 DUP1 RETURNDATACOPY DUP1 DUP1 ISZERO PUSH2 0x28D JUMPI RETURNDATASIZE PUSH1 0x0 RETURN JUMPDEST RETURNDATASIZE PUSH1 0x0 REVERT JUMPDEST PUSH2 0x2C0 PUSH1 0x4 DUP1 CALLDATASIZE SUB PUSH1 0x40 DUP2 LT ISZERO PUSH2 0x2A8 JUMPI PUSH1 0x0 DUP1 REVERT JUMPDEST POP PUSH1 0x1 PUSH1 0x1 PUSH1 0xA0 SHL SUB DUP2 CALLDATALOAD DUP2 AND SWAP2 PUSH1 0x20 ADD CALLDATALOAD AND PUSH2 0x875 JUMP JUMPDEST PUSH1 0x40 DUP1 MLOAD SWAP2 DUP3 MSTORE MLOAD SWAP1 DUP2 SWAP1 SUB PUSH1 0x20 ADD SWAP1 RETURN JUMPDEST PUSH2 0x2FE PUSH1 0x4 DUP1 CALLDATASIZE SUB PUSH1 0x40 DUP2 LT ISZERO PUSH2 0x2E8 JUMPI PUSH1 0x0 DUP1 REVERT JUMPDEST POP PUSH1 0x1 PUSH1 0x1 PUSH1 0xA0 SHL SUB DUP2 CALLDATALOAD AND SWAP1 PUSH1 0x20 ADD CALLDATALOAD PUSH2 0x892 JUMP JUMPDEST PUSH1 0x40 DUP1 MLOAD SWAP2 ISZERO ISZERO DUP3 MSTORE MLOAD SWAP1 DUP2 SWAP1 SUB PUSH1 0x20 ADD SWAP1 RETURN JUMPDEST PUSH2 0x32F PUSH1 0x4 DUP1 CALLDATASIZE SUB PUSH1 0x20 DUP2 LT ISZERO PUSH2 0x328 JUMPI PUSH1 0x0 DUP1 REVERT JUMPDEST POP CALLDATALOAD PUSH2 0x941 JUMP JUMPDEST PUSH1 0x40 DUP1 MLOAD SWAP3 DUP4 MSTORE PUSH1 0x1 PUSH1 0x1 PUSH1 0xA0 SHL SUB SWAP1 SWAP2 AND PUSH1 0x20 DUP4 ADD MSTORE DUP1 MLOAD SWAP2 DUP3 SWAP1 SUB ADD SWAP1 RETURN JUMPDEST PUSH2 0x37C PUSH1 0x4 DUP1 CALLDATASIZE SUB PUSH1 0x40 DUP2 LT ISZERO PUSH2 0x366 JUMPI PUSH1 0x0 DUP1 REVERT JUMPDEST POP PUSH1 0x1 PUSH1 0x1 PUSH1 0xA0 SHL SUB DUP2 CALLDATALOAD AND SWAP1 PUSH1 0x20 ADD CALLDATALOAD PUSH2 0x96C JUMP JUMPDEST STOP JUMPDEST PUSH2 0x2FE PUSH1 0x4 DUP1 CALLDATASIZE SUB PUSH1 0x60 DUP2 LT ISZERO PUSH2 0x394 JUMPI PUSH1 0x0 DUP1 REVERT JUMPDEST POP PUSH1 0x1 PUSH1 0x1 PUSH1 0xA0 SHL SUB DUP2 CALLDATALOAD DUP2 AND SWAP2 PUSH1 0x20 DUP2 ADD CALLDATALOAD SWAP1 SWAP2 AND SWAP1 PUSH1 0x40 ADD CALLDATALOAD PUSH2 0x9A6 JUMP JUMPDEST PUSH2 0x37C PUSH1 0x4 DUP1 CALLDATASIZE SUB PUSH1 0x20 DUP2 LT ISZERO PUSH2 0x3CA JUMPI PUSH1 0x0 DUP1 REVERT JUMPDEST POP CALLDATALOAD PUSH1 0x1 PUSH1 0x1 PUSH1 0xA0 SHL SUB AND PUSH2 0xA52 JUMP JUMPDEST PUSH2 0x37C PUSH1 0x4 DUP1 CALLDATASIZE SUB PUSH2 0x160 DUP2 LT ISZERO PUSH2 0x3F1 JUMPI PUSH1 0x0 DUP1 REVERT JUMPDEST DUP2 ADD SWAP1 PUSH1 0x20 DUP2 ADD DUP2 CALLDATALOAD PUSH5 0x100000000 DUP2 GT ISZERO PUSH2 0x40C JUMPI PUSH1 0x0 DUP1 REVERT JUMPDEST DUP3 ADD DUP4 PUSH1 0x20 DUP3 ADD GT ISZERO PUSH2 0x41E JUMPI PUSH1 0x0 DUP1 REVERT JUMPDEST DUP1 CALLDATALOAD SWAP1 PUSH1 0x20 ADD SWAP2 DUP5 PUSH1 0x1 DUP4 MUL DUP5 ADD GT PUSH5 0x100000000 DUP4 GT OR ISZERO PUSH2 0x440 JUMPI PUSH1 0x0 DUP1 REVERT JUMPDEST SWAP2 SWAP4 POP SWAP2 POP PUSH1 0xA0 DUP2 ADD PUSH2 0xD76 JUMP JUMPDEST PUSH2 0x2C0 PUSH1 0x4 DUP1 CALLDATASIZE SUB PUSH1 0x20 DUP2 LT ISZERO PUSH2 0x464 JUMPI PUSH1 0x0 DUP1 REVERT JUMPDEST POP CALLDATALOAD PUSH2 0xF35 JUMP JUMPDEST PUSH2 0x2FE PUSH1 0x4 DUP1 CALLDATASIZE SUB PUSH1 0x40 DUP2 LT ISZERO PUSH2 0x481 JUMPI PUSH1 0x0 DUP1 REVERT JUMPDEST POP DUP1 CALLDATALOAD SWAP1 PUSH1 0x20 ADD CALLDATALOAD PUSH1 0x1 PUSH1 0x1 PUSH1 0xA0 SHL SUB AND PUSH2 0xF56 JUMP JUMPDEST PUSH2 0x2FE PUSH1 0x4 DUP1 CALLDATASIZE SUB PUSH1 0x20 DUP2 LT ISZERO PUSH2 0x4AD JUMPI PUSH1 0x0 DUP1 REVERT JUMPDEST POP CALLDATALOAD PUSH1 0x1 PUSH1 0x1 PUSH1 0xA0 SHL SUB AND PUSH2 0xF76 JUMP JUMPDEST PUSH2 0x2C0 PUSH1 0x4 DUP1 CALLDATASIZE SUB PUSH1 0x40 DUP2 LT ISZERO PUSH2 0x4D3 JUMPI PUSH1 0x0 DUP1 REVERT JUMPDEST POP PUSH1 0x1 PUSH1 0x1 PUSH1 0xA0 SHL SUB DUP2 CALLDATALOAD AND SWAP1 PUSH1 0x20 ADD CALLDATALOAD PUSH2 0xF8B JUMP JUMPDEST PUSH2 0x2C0 PUSH1 0x4 DUP1 CALLDATASIZE SUB PUSH1 0x20 DUP2 LT ISZERO PUSH2 0x4FF JUMPI PUSH1 0x0 DUP1 REVERT JUMPDEST POP CALLDATALOAD PUSH2 0x1136 JUMP JUMPDEST PUSH2 0x2C0 PUSH1 0x4 DUP1 CALLDATASIZE SUB PUSH1 0x20 DUP2 LT ISZERO PUSH2 0x51C JUMPI PUSH1 0x0 DUP1 REVERT JUMPDEST POP CALLDATALOAD PUSH2 0x1148 JUMP JUMPDEST PUSH2 0x540 PUSH1 0x4 DUP1 CALLDATASIZE SUB PUSH1 0x20 DUP2 LT ISZERO PUSH2 0x539 JUMPI PUSH1 0x0 DUP1 REVERT JUMPDEST POP CALLDATALOAD PUSH2 0x115A JUMP JUMPDEST PUSH1 0x40 DUP1 MLOAD PUSH1 0x1 PUSH1 0x1 PUSH1 0xA0 SHL SUB SWAP1 SWAP3 AND DUP3 MSTORE MLOAD SWAP1 DUP2 SWAP1 SUB PUSH1 0x20 ADD SWAP1 RETURN JUMPDEST PUSH2 0x2C0 PUSH1 0x4 DUP1 CALLDATASIZE SUB PUSH1 0x20 DUP2 LT ISZERO PUSH2 0x572 JUMPI PUSH1 0x0 DUP1 REVERT JUMPDEST POP CALLDATALOAD PUSH1 0x1 PUSH1 0x1 PUSH1 0xA0 SHL SUB AND PUSH2 0x1175 JUMP JUMPDEST PUSH2 0x37C PUSH1 0x4 DUP1 CALLDATASIZE SUB PUSH1 0x40 DUP2 LT ISZERO PUSH2 0x598 JUMPI PUSH1 0x0 DUP1 REVERT JUMPDEST POP DUP1 CALLDATALOAD SWAP1 PUSH1 0x20 ADD CALLDATALOAD PUSH2 0x1181 JUMP JUMPDEST PUSH2 0x37C PUSH1 0x4 DUP1 CALLDATASIZE SUB PUSH1 0x60 DUP2 LT ISZERO PUSH2 0x5BB JUMPI PUSH1 0x0 DUP1 REVERT JUMPDEST POP DUP1 CALLDATALOAD SWAP1 PUSH1 0x20 DUP2 ADD CALLDATALOAD SWAP1 PUSH1 0x40 ADD CALLDATALOAD PUSH2 0x1391 JUMP JUMPDEST PUSH2 0x37C PUSH2 0x1952 JUMP JUMPDEST PUSH2 0x2FE PUSH1 0x4 DUP1 CALLDATASIZE SUB PUSH1 0x40 DUP2 LT ISZERO PUSH2 0x5EC JUMPI PUSH1 0x0 DUP1 REVERT JUMPDEST POP PUSH1 0x1 PUSH1 0x1 PUSH1 0xA0 SHL SUB DUP2 CALLDATALOAD AND SWAP1 PUSH1 0x20 ADD CALLDATALOAD PUSH2 0x195D JUMP JUMPDEST PUSH2 0x37C PUSH1 0x4 DUP1 CALLDATASIZE SUB PUSH1 0x20 DUP2 LT ISZERO PUSH2 0x618 JUMPI PUSH1 0x0 DUP1 REVERT JUMPDEST POP CALLDATALOAD PUSH2 0x1A29 JUMP JUMPDEST PUSH2 0x2FE PUSH1 0x4 DUP1 CALLDATASIZE SUB PUSH1 0x40 DUP2 LT ISZERO PUSH2 0x635 JUMPI PUSH1 0x0 DUP1 REVERT JUMPDEST POP PUSH1 0x1 PUSH1 0x1 PUSH1 0xA0 SHL SUB DUP2 CALLDATALOAD AND SWAP1 PUSH1 0x20 ADD CALLDATALOAD PUSH2 0x2335 JUMP JUMPDEST PUSH2 0x37C PUSH1 0x4 DUP1 CALLDATASIZE SUB PUSH1 0x60 DUP2 LT ISZERO PUSH2 0x661 JUMPI PUSH1 0x0 DUP1 REVERT JUMPDEST POP PUSH1 0x1 PUSH1 0x1 PUSH1 0xA0 SHL SUB DUP2 CALLDATALOAD AND SWAP1 PUSH1 0x20 DUP2 ADD CALLDATALOAD SWAP1 PUSH1 0x40 ADD CALLDATALOAD ISZERO ISZERO PUSH2 0x234B JUMP JUMPDEST PUSH2 0x2C0 PUSH1 0x4 DUP1 CALLDATASIZE SUB PUSH1 0x20 DUP2 LT ISZERO PUSH2 0x695 JUMPI PUSH1 0x0 DUP1 REVERT JUMPDEST POP CALLDATALOAD PUSH2 0x23F0 JUMP JUMPDEST PUSH2 0x37C PUSH1 0x4 DUP1 CALLDATASIZE SUB PUSH1 0x20 DUP2 LT ISZERO PUSH2 0x6B2 JUMPI PUSH1 0x0 DUP1 REVERT JUMPDEST POP CALLDATALOAD PUSH2 0x2402 JUMP JUMPDEST PUSH2 0x37C PUSH1 0x4 DUP1 CALLDATASIZE SUB PUSH1 0x40 DUP2 LT ISZERO PUSH2 0x6CF JUMPI PUSH1 0x0 DUP1 REVERT JUMPDEST POP DUP1 CALLDATALOAD SWAP1 PUSH1 0x20 ADD CALLDATALOAD ISZERO ISZERO PUSH2 0x243D JUMP JUMPDEST PUSH2 0x70A PUSH1 0x4 DUP1 CALLDATASIZE SUB PUSH1 0x40 DUP2 LT ISZERO PUSH2 0x6F4 JUMPI PUSH1 0x0 DUP1 REVERT JUMPDEST POP PUSH1 0x1 PUSH1 0x1 PUSH1 0xA0 SHL SUB DUP2 CALLDATALOAD AND SWAP1 PUSH1 0x20 ADD CALLDATALOAD PUSH2 0x274A JUMP JUMPDEST PUSH1 0x40 MLOAD DUP1 DUP4 PUSH1 0x1 PUSH1 0x1 PUSH1 0x80 SHL SUB AND DUP2 MSTORE PUSH1 0x20 ADD DUP3 PUSH1 0x1 PUSH1 0x1 PUSH1 0x80 SHL SUB AND DUP2 MSTORE PUSH1 0x20 ADD SWAP3 POP POP POP PUSH1 0x40 MLOAD DUP1 SWAP2 SUB SWAP1 RETURN JUMPDEST PUSH2 0x2C0 PUSH1 0x4 DUP1 CALLDATASIZE SUB PUSH1 0x20 DUP2 LT ISZERO PUSH2 0x74F JUMPI PUSH1 0x0 DUP1 REVERT JUMPDEST POP CALLDATALOAD PUSH2 0x278D JUMP JUMPDEST PUSH2 0x37C PUSH2 0x279F JUMP JUMPDEST PUSH2 0x37C PUSH1 0x4 DUP1 CALLDATASIZE SUB PUSH2 0x160 DUP2 LT ISZERO PUSH2 0x775 JUMPI PUSH1 0x0 DUP1 REVERT JUMPDEST DUP2 ADD SWAP1 PUSH1 0x20 DUP2 ADD DUP2 CALLDATALOAD PUSH5 0x100000000 DUP2 GT ISZERO PUSH2 0x790 JUMPI PUSH1 0x0 DUP1 REVERT JUMPDEST DUP3 ADD DUP4 PUSH1 0x20 DUP3 ADD GT ISZERO PUSH2 0x7A2 JUMPI PUSH1 0x0 DUP1 REVERT JUMPDEST DUP1 CALLDATALOAD SWAP1 PUSH1 0x20 ADD SWAP2 DUP5 PUSH1 0x1 DUP4 MUL DUP5 ADD GT PUSH5 0x100000000 DUP4 GT OR ISZERO PUSH2 0x7C4 JUMPI PUSH1 0x0 DUP1 REVERT JUMPDEST SWAP2 SWAP4 POP SWAP2 POP PUSH1 0xA0 DUP2 ADD PUSH2 0x27AA JUMP JUMPDEST PUSH2 0x7EF PUSH1 0x4 DUP1 CALLDATASIZE SUB PUSH1 0x20 DUP2 LT ISZERO PUSH2 0x7E8 JUMPI PUSH1 0x0 DUP1 REVERT JUMPDEST POP CALLDATALOAD PUSH2 0x28C1 JUMP JUMPDEST PUSH1 0x40 DUP1 MLOAD SWAP9 DUP10 MSTORE PUSH1 0x20 DUP10 ADD SWAP8 SWAP1 SWAP8 MSTORE SWAP5 ISZERO ISZERO DUP8 DUP8 ADD MSTORE SWAP3 ISZERO ISZERO PUSH1 0x60 DUP8 ADD MSTORE SWAP1 ISZERO ISZERO PUSH1 0x80 DUP7 ADD MSTORE PUSH1 0x1 PUSH1 0x1 PUSH1 0xA0 SHL SUB SWAP1 DUP2 AND PUSH1 0xA0 DUP7 ADD MSTORE SWAP1 DUP2 AND PUSH1 0xC0 DUP6 ADD MSTORE AND PUSH1 0xE0 DUP4 ADD MSTORE MLOAD SWAP1 DUP2 SWAP1 SUB PUSH2 0x100 ADD SWAP1 RETURN JUMPDEST PUSH2 0x2C0 PUSH1 0x4 DUP1 CALLDATASIZE SUB PUSH1 0x40 DUP2 LT ISZERO PUSH2 0x855 JUMPI PUSH1 0x0 DUP1 REVERT JUMPDEST POP PUSH1 0x1 PUSH1 0x1 PUSH1 0xA0 SHL SUB DUP2 CALLDATALOAD DUP2 AND SWAP2 PUSH1 0x20 ADD CALLDATALOAD AND PUSH2 0x291D JUMP JUMPDEST PUSH2 0x2C0 PUSH2 0x2948 JUMP JUMPDEST PUSH1 0x4A PUSH1 0x20 SWAP1 DUP2 MSTORE PUSH1 0x0 SWAP3 DUP4 MSTORE PUSH1 0x40 DUP1 DUP5 KECCAK256 SWAP1 SWAP2 MSTORE SWAP1 DUP3 MSTORE SWAP1 KECCAK256 SLOAD DUP2 JUMP JUMPDEST PUSH1 0x0 PUSH1 0x1 PUSH1 0x1 PUSH1 0xA0 SHL SUB DUP4 AND PUSH2 0x8D9 JUMPI PUSH1 0x40 MLOAD PUSH3 0x461BCD PUSH1 0xE5 SHL DUP2 MSTORE PUSH1 0x4 ADD DUP1 DUP1 PUSH1 0x20 ADD DUP3 DUP2 SUB DUP3 MSTORE PUSH1 0x22 DUP2 MSTORE PUSH1 0x20 ADD DUP1 PUSH2 0x4F3C PUSH1 0x22 SWAP2 CODECOPY PUSH1 0x40 ADD SWAP2 POP POP PUSH1 0x40 MLOAD DUP1 SWAP2 SUB SWAP1 REVERT JUMPDEST CALLER PUSH1 0x0 DUP2 DUP2 MSTORE PUSH1 0x4A PUSH1 0x20 SWAP1 DUP2 MSTORE PUSH1 0x40 DUP1 DUP4 KECCAK256 PUSH1 0x1 PUSH1 0x1 PUSH1 0xA0 SHL SUB DUP9 AND DUP1 DUP6 MSTORE SWAP1 DUP4 MSTORE SWAP3 DUP2 SWAP1 KECCAK256 DUP7 SWAP1 SSTORE DUP1 MLOAD DUP7 DUP2 MSTORE SWAP1 MLOAD SWAP3 SWAP4 SWAP3 PUSH32 0x8C5BE1E5EBEC7D5BD14F71427D1E84F3DD0314C0F7B2291E5B200AC8C7C3B925 SWAP3 SWAP2 DUP2 SWAP1 SUB SWAP1 SWAP2 ADD SWAP1 LOG3 POP PUSH1 0x1 JUMPDEST SWAP3 SWAP2 POP POP JUMP JUMPDEST PUSH1 0x3A DUP2 PUSH1 0x5 DUP2 LT PUSH2 0x951 JUMPI PUSH1 0x0 DUP1 REVERT JUMPDEST PUSH1 0x2 MUL ADD DUP1 SLOAD PUSH1 0x1 SWAP1 SWAP2 ADD SLOAD SWAP1 SWAP2 POP PUSH1 0x1 PUSH1 0x1 PUSH1 0xA0 SHL SUB AND DUP3 JUMP JUMPDEST PUSH1 0x0 DUP1 MLOAD PUSH1 0x20 PUSH2 0x5012 DUP4 CODECOPY DUP2 MLOAD SWAP2 MSTORE PUSH1 0x0 MSTORE PUSH1 0x46 PUSH1 0x20 MSTORE PUSH1 0x0 DUP1 MLOAD PUSH1 0x20 PUSH2 0x4EF3 DUP4 CODECOPY DUP2 MLOAD SWAP2 MSTORE DUP1 SLOAD DUP3 ADD SWAP1 SSTORE PUSH2 0x9A2 DUP3 DUP3 PUSH2 0x294E JUMP JUMPDEST POP POP JUMP JUMPDEST PUSH1 0x1 PUSH1 0x1 PUSH1 0xA0 SHL SUB DUP4 AND PUSH1 0x0 SWAP1 DUP2 MSTORE PUSH1 0x4A PUSH1 0x20 SWAP1 DUP2 MSTORE PUSH1 0x40 DUP1 DUP4 KECCAK256 CALLER DUP5 MSTORE SWAP1 SWAP2 MSTORE DUP2 KECCAK256 SLOAD DUP3 GT ISZERO PUSH2 0xA13 JUMPI PUSH1 0x40 DUP1 MLOAD PUSH3 0x461BCD PUSH1 0xE5 SHL DUP2 MSTORE PUSH1 0x20 PUSH1 0x4 DUP3 ADD MSTORE PUSH1 0x12 PUSH1 0x24 DUP3 ADD MSTORE PUSH18 0x416C6C6F77616E63652069732077726F6E67 PUSH1 0x70 SHL PUSH1 0x44 DUP3 ADD MSTORE SWAP1 MLOAD SWAP1 DUP2 SWAP1 SUB PUSH1 0x64 ADD SWAP1 REVERT JUMPDEST PUSH1 0x1 PUSH1 0x1 PUSH1 0xA0 SHL SUB DUP5 AND PUSH1 0x0 SWAP1 DUP2 MSTORE PUSH1 0x4A PUSH1 0x20 SWAP1 DUP2 MSTORE PUSH1 0x40 DUP1 DUP4 KECCAK256 CALLER DUP5 MSTORE SWAP1 SWAP2 MSTORE SWAP1 KECCAK256 DUP1 SLOAD DUP4 SWAP1 SUB SWAP1 SSTORE PUSH2 0xA48 DUP5 DUP5 DUP5 PUSH2 0x2A4A JUMP JUMPDEST POP PUSH1 0x1 SWAP4 SWAP3 POP POP POP JUMP JUMPDEST PUSH32 0xD051321AA26CE60D202F153D0C0E67687E975532AB88CE92D84F18E39895D907 PUSH1 0x0 MSTORE PUSH1 0x46 PUSH1 0x20 MSTORE PUSH32 0x7042ACA2505AA9A8428C1710298EDBAC96E027637D6417651C8AA8F88ED1CA0A SLOAD ISZERO PUSH2 0xADE JUMPI PUSH1 0x40 DUP1 MLOAD PUSH3 0x461BCD PUSH1 0xE5 SHL DUP2 MSTORE PUSH1 0x20 PUSH1 0x4 DUP3 ADD MSTORE PUSH1 0xC PUSH1 0x24 DUP3 ADD MSTORE PUSH12 0x6E6F2072656E7472616E6379 PUSH1 0xA0 SHL PUSH1 0x44 DUP3 ADD MSTORE SWAP1 MLOAD SWAP1 DUP2 SWAP1 SUB PUSH1 0x64 ADD SWAP1 REVERT JUMPDEST PUSH32 0xD051321AA26CE60D202F153D0C0E67687E975532AB88CE92D84F18E39895D907 PUSH1 0x0 MSTORE PUSH1 0x46 PUSH1 0x20 MSTORE PUSH1 0x1 PUSH32 0x7042ACA2505AA9A8428C1710298EDBAC96E027637D6417651C8AA8F88ED1CA0A SSTORE PUSH2 0xB34 DUP2 PUSH2 0x2BFE JUMP JUMPDEST PUSH32 0xD051321AA26CE60D202F153D0C0E67687E975532AB88CE92D84F18E39895D907 PUSH1 0x0 SWAP1 DUP2 MSTORE PUSH1 0x46 PUSH1 0x20 SWAP1 DUP2 MSTORE PUSH32 0x7042ACA2505AA9A8428C1710298EDBAC96E027637D6417651C8AA8F88ED1CA0A DUP3 SWAP1 SSTORE PUSH1 0x40 DUP1 MLOAD PUSH1 0x1 PUSH1 0x1 PUSH1 0xA0 SHL SUB DUP6 AND DUP2 DUP5 ADD MSTORE DUP2 MLOAD DUP1 DUP3 SUB DUP5 ADD DUP2 MSTORE SWAP1 DUP3 ADD DUP3 MSTORE DUP1 MLOAD SWAP1 DUP4 ADD KECCAK256 PUSH32 0x1CE2382BC92689B00BA121FA5A411AA976168AFFDD8AC143A69035DD984B3B6A DUP1 SLOAD PUSH1 0x1 ADD SWAP1 DUP2 SWAP1 SSTORE DUP2 DUP6 MSTORE PUSH1 0x38 SWAP1 SWAP4 MSTORE SWAP3 KECCAK256 SLOAD ISZERO PUSH2 0xC33 JUMPI PUSH1 0x0 DUP3 DUP2 MSTORE PUSH1 0x38 PUSH1 0x20 SWAP1 DUP2 MSTORE PUSH1 0x40 DUP1 DUP4 KECCAK256 SLOAD DUP5 DUP5 MSTORE PUSH1 0x36 DUP4 MSTORE DUP2 DUP5 KECCAK256 PUSH32 0xED92B4C1E0A9E559A31171D487ECBEC963526662038ECFA3A71160BD62FB8733 DUP6 MSTORE PUSH1 0x5 ADD SWAP1 SWAP3 MSTORE SWAP1 SWAP2 KECCAK256 SSTORE PUSH2 0xC45 JUMP JUMPDEST PUSH1 0x0 DUP3 DUP2 MSTORE PUSH1 0x38 PUSH1 0x20 MSTORE PUSH1 0x40 SWAP1 KECCAK256 DUP2 SWAP1 SSTORE JUMPDEST PUSH1 0x0 DUP3 DUP2 MSTORE PUSH1 0x38 PUSH1 0x20 MSTORE PUSH1 0x40 DUP2 KECCAK256 SLOAD PUSH2 0xC5F SWAP1 DUP4 SWAP1 PUSH2 0x2D5B JUMP JUMPDEST PUSH1 0x0 DUP4 DUP2 MSTORE PUSH1 0x36 PUSH1 0x20 MSTORE PUSH1 0x40 DUP2 KECCAK256 DUP6 DUP2 SSTORE PUSH1 0x2 DUP1 DUP3 ADD DUP1 SLOAD PUSH3 0x10000 PUSH3 0xFF0000 NOT SWAP1 SWAP2 AND OR PUSH23 0xFFFFFFFFFFFFFFFFFFFFFFFFFFFFFFFFFFFFFFFF000000 NOT AND CALLER PUSH4 0x1000000 DUP2 MUL SWAP2 SWAP1 SWAP2 OR SWAP1 SWAP2 SSTORE PUSH1 0x3 DUP4 ADD DUP1 SLOAD PUSH1 0x1 PUSH1 0x1 PUSH1 0xA0 SHL SUB NOT SWAP1 DUP2 AND DUP4 OR SWAP1 SWAP2 SSTORE PUSH1 0x4 DUP5 ADD DUP1 SLOAD SWAP1 SWAP2 AND PUSH1 0x1 PUSH1 0x1 PUSH1 0xA0 SHL SUB DUP12 AND OR SWAP1 SSTORE PUSH1 0x1 SWAP1 SWAP3 ADD SWAP3 SWAP1 SWAP3 SSTORE SWAP2 SWAP3 POP PUSH2 0xD04 SWAP2 SWAP1 ADDRESS SWAP1 PUSH1 0x0 NOT DUP6 ADD SWAP1 EXP PUSH9 0x56BC75E2D63100000 MUL PUSH2 0x2A4A JUMP JUMPDEST POP PUSH1 0x0 SWAP1 DUP2 MSTORE PUSH1 0x36 PUSH1 0x20 SWAP1 DUP2 MSTORE PUSH1 0x40 DUP1 DUP4 KECCAK256 PUSH32 0x4B4CEFD5CED7569EF0D091282B4BCA9C52A034C56471A6061AFD1BF307A2DE7C DUP5 MSTORE PUSH1 0x5 ADD SWAP1 SWAP2 MSTORE DUP1 DUP3 KECCAK256 NUMBER SWAP1 SSTORE PUSH32 0x46F7D53798D31923F6952572C6A19AD2D1A8238D26649C2F3493A6D69E425D28 DUP3 MSTORE SWAP1 KECCAK256 TIMESTAMP PUSH3 0x93A80 ADD SWAP1 SSTORE POP POP JUMP JUMPDEST PUSH1 0x40 DUP1 MLOAD CALLER PUSH1 0x20 DUP1 DUP4 ADD SWAP2 SWAP1 SWAP2 MSTORE DUP3 MLOAD DUP1 DUP4 SUB DUP3 ADD DUP2 MSTORE SWAP2 DUP4 ADD DUP4 MSTORE DUP2 MLOAD SWAP2 DUP2 ADD SWAP2 SWAP1 SWAP2 KECCAK256 PUSH1 0x0 DUP2 DUP2 MSTORE PUSH1 0x46 SWAP1 SWAP3 MSTORE SWAP2 SWAP1 KECCAK256 SLOAD ISZERO DUP1 PUSH2 0xDC9 JUMPI POP PUSH1 0x0 DUP2 DUP2 MSTORE PUSH1 0x46 PUSH1 0x20 MSTORE PUSH1 0x40 SWAP1 KECCAK256 SLOAD PUSH2 0x384 TIMESTAMP SWAP2 SWAP1 SWAP2 SUB GT JUMPDEST PUSH2 0xE04 JUMPI PUSH1 0x40 MLOAD PUSH3 0x461BCD PUSH1 0xE5 SHL DUP2 MSTORE PUSH1 0x4 ADD DUP1 DUP1 PUSH1 0x20 ADD DUP3 DUP2 SUB DUP3 MSTORE PUSH1 0x2A DUP2 MSTORE PUSH1 0x20 ADD DUP1 PUSH2 0x4EC9 PUSH1 0x2A SWAP2 CODECOPY PUSH1 0x40 ADD SWAP2 POP POP PUSH1 0x40 MLOAD DUP1 SWAP2 SUB SWAP1 REVERT JUMPDEST PUSH32 0xDFBEC46864BC123768F0D134913175D9577A55BB71B9B2595FDA21E21F36B082 PUSH1 0x0 MSTORE PUSH1 0x46 PUSH1 0x20 MSTORE PUSH32 0x7DF1EB1754BC067736FF3D89AF41D339BF906D31B0F5978E3C78F402D4ED2492 SLOAD PUSH1 0x4 EQ PUSH2 0xE95 JUMPI PUSH2 0xE95 DUP6 DUP6 DUP1 DUP1 PUSH1 0x1F ADD PUSH1 0x20 DUP1 SWAP2 DIV MUL PUSH1 0x20 ADD PUSH1 0x40 MLOAD SWAP1 DUP2 ADD PUSH1 0x40 MSTORE DUP1 SWAP4 SWAP3 SWAP2 SWAP1 DUP2 DUP2 MSTORE PUSH1 0x20 ADD DUP4 DUP4 DUP1 DUP3 DUP5 CALLDATACOPY PUSH1 0x0 SWAP3 ADD SWAP2 SWAP1 SWAP2 MSTORE POP PUSH2 0x2F4D SWAP3 POP POP POP JUMP JUMPDEST PUSH1 0x0 DUP2 DUP2 MSTORE PUSH1 0x46 PUSH1 0x20 SWAP1 DUP2 MSTORE PUSH1 0x40 SWAP2 DUP3 SWAP1 KECCAK256 TIMESTAMP SWAP1 SSTORE DUP2 MLOAD PUSH1 0x1F DUP8 ADD DUP3 SWAP1 DIV DUP3 MUL DUP2 ADD DUP3 ADD SWAP1 SWAP3 MSTORE DUP6 DUP3 MSTORE PUSH2 0xF2E SWAP2 SWAP1 DUP8 SWAP1 DUP8 SWAP1 DUP2 SWAP1 DUP5 ADD DUP4 DUP3 DUP1 DUP3 DUP5 CALLDATACOPY PUSH1 0x0 SWAP3 ADD SWAP2 SWAP1 SWAP2 MSTORE POP POP PUSH1 0x40 DUP1 MLOAD PUSH1 0xA0 DUP2 DUP2 ADD SWAP1 SWAP3 MSTORE SWAP3 POP DUP8 SWAP2 POP PUSH1 0x5 SWAP1 DUP4 SWAP1 DUP4 SWAP1 DUP1 DUP3 DUP5 CALLDATACOPY PUSH1 0x0 SWAP3 ADD SWAP2 SWAP1 SWAP2 MSTORE POP POP PUSH1 0x40 DUP1 MLOAD PUSH1 0xA0 DUP2 DUP2 ADD SWAP1 SWAP3 MSTORE SWAP2 POP DUP7 SWAP1 PUSH1 0x5 SWAP1 DUP4 SWAP1 DUP4 SWAP1 DUP1 DUP3 DUP5 CALLDATACOPY PUSH1 0x0 SWAP3 ADD SWAP2 SWAP1 SWAP2 MSTORE POP PUSH2 0x3224 SWAP2 POP POP JUMP JUMPDEST POP POP POP POP POP JUMP JUMPDEST PUSH1 0x33 DUP2 DUP2 SLOAD DUP2 LT PUSH2 0xF45 JUMPI PUSH1 0x0 DUP1 REVERT JUMPDEST PUSH1 0x0 SWAP2 DUP3 MSTORE PUSH1 0x20 SWAP1 SWAP2 KECCAK256 ADD SLOAD SWAP1 POP DUP2 JUMP JUMPDEST PUSH1 0x39 PUSH1 0x20 SWAP1 DUP2 MSTORE PUSH1 0x0 SWAP3 DUP4 MSTORE PUSH1 0x40 DUP1 DUP5 KECCAK256 SWAP1 SWAP2 MSTORE SWAP1 DUP3 MSTORE SWAP1 KECCAK256 SLOAD PUSH1 0xFF AND DUP2 JUMP JUMPDEST PUSH1 0x4B PUSH1 0x20 MSTORE PUSH1 0x0 SWAP1 DUP2 MSTORE PUSH1 0x40 SWAP1 KECCAK256 SLOAD PUSH1 0xFF AND DUP2 JUMP JUMPDEST PUSH1 0x1 PUSH1 0x1 PUSH1 0xA0 SHL SUB DUP3 AND PUSH1 0x0 SWAP1 DUP2 MSTORE PUSH1 0x49 PUSH1 0x20 MSTORE PUSH1 0x40 DUP2 KECCAK256 DUP1 SLOAD ISZERO DUP1 PUSH2 0xFD1 JUMPI POP DUP3 DUP2 PUSH1 0x0 DUP2 SLOAD DUP2 LT PUSH2 0xFBA JUMPI INVALID JUMPDEST PUSH1 0x0 SWAP2 DUP3 MSTORE PUSH1 0x20 SWAP1 SWAP2 KECCAK256 ADD SLOAD PUSH1 0x1 PUSH1 0x1 PUSH1 0x80 SHL SUB AND GT JUMPDEST ISZERO PUSH2 0xFE0 JUMPI PUSH1 0x0 SWAP2 POP POP PUSH2 0x93B JUMP JUMPDEST DUP1 SLOAD DUP2 SWAP1 PUSH1 0x0 NOT DUP2 ADD SWAP1 DUP2 LT PUSH2 0xFF2 JUMPI INVALID JUMPDEST PUSH1 0x0 SWAP2 DUP3 MSTORE PUSH1 0x20 SWAP1 SWAP2 KECCAK256 ADD SLOAD PUSH1 0x1 PUSH1 0x1 PUSH1 0x80 SHL SUB AND DUP4 LT PUSH2 0x1044 JUMPI DUP1 SLOAD DUP2 SWAP1 PUSH1 0x0 NOT DUP2 ADD SWAP1 DUP2 LT PUSH2 0x101F JUMPI INVALID JUMPDEST PUSH1 0x0 SWAP2 DUP3 MSTORE PUSH1 0x20 SWAP1 SWAP2 KECCAK256 ADD SLOAD PUSH1 0x1 PUSH1 0x80 SHL SWAP1 DIV PUSH1 0x1 PUSH1 0x1 PUSH1 0x80 SHL SUB AND SWAP2 POP PUSH2 0x93B SWAP1 POP JUMP JUMPDEST DUP1 SLOAD PUSH1 0x0 SWAP1 PUSH1 0x1 NOT ADD JUMPDEST DUP2 DUP2 GT ISZERO PUSH2 0x10FC JUMPI PUSH1 0x0 PUSH1 0x2 PUSH1 0x1 DUP4 DUP6 ADD ADD DIV SWAP1 POP DUP6 DUP5 DUP3 DUP2 SLOAD DUP2 LT PUSH2 0x1070 JUMPI INVALID JUMPDEST PUSH1 0x0 SWAP2 DUP3 MSTORE PUSH1 0x20 SWAP1 SWAP2 KECCAK256 ADD SLOAD PUSH1 0x1 PUSH1 0x1 PUSH1 0x80 SHL SUB AND EQ ISZERO PUSH2 0x10BF JUMPI DUP4 DUP2 DUP2 SLOAD DUP2 LT PUSH2 0x1097 JUMPI INVALID JUMPDEST PUSH1 0x0 SWAP2 DUP3 MSTORE PUSH1 0x20 SWAP1 SWAP2 KECCAK256 ADD SLOAD PUSH1 0x1 PUSH1 0x80 SHL SWAP1 DIV PUSH1 0x1 PUSH1 0x1 PUSH1 0x80 SHL SUB AND SWAP5 POP PUSH2 0x93B SWAP4 POP POP POP POP JUMP JUMPDEST DUP6 DUP5 DUP3 DUP2 SLOAD DUP2 LT PUSH2 0x10CC JUMPI INVALID JUMPDEST PUSH1 0x0 SWAP2 DUP3 MSTORE PUSH1 0x20 SWAP1 SWAP2 KECCAK256 ADD SLOAD PUSH1 0x1 PUSH1 0x1 PUSH1 0x80 SHL SUB AND LT ISZERO PUSH2 0x10EF JUMPI DUP1 SWAP3 POP PUSH2 0x10F6 JUMP JUMPDEST PUSH1 0x1 DUP2 SUB SWAP2 POP JUMPDEST POP PUSH2 0x104E JUMP JUMPDEST DUP3 DUP3 DUP2 SLOAD DUP2 LT PUSH2 0x1108 JUMPI INVALID JUMPDEST PUSH1 0x0 SWAP2 DUP3 MSTORE PUSH1 0x20 SWAP1 SWAP2 KECCAK256 ADD SLOAD PUSH1 0x1 PUSH1 0x80 SHL SWAP1 DIV PUSH1 0x1 PUSH1 0x1 PUSH1 0x80 SHL SUB AND SWAP4 POP PUSH2 0x93B SWAP3 POP POP POP JUMP JUMPDEST POP SWAP3 SWAP2 POP POP JUMP JUMPDEST PUSH1 0x37 PUSH1 0x20 MSTORE PUSH1 0x0 SWAP1 DUP2 MSTORE PUSH1 0x40 SWAP1 KECCAK256 SLOAD DUP2 JUMP JUMPDEST PUSH1 0x48 PUSH1 0x20 MSTORE PUSH1 0x0 SWAP1 DUP2 MSTORE PUSH1 0x40 SWAP1 KECCAK256 SLOAD DUP2 JUMP JUMPDEST PUSH1 0x47 PUSH1 0x20 MSTORE PUSH1 0x0 SWAP1 DUP2 MSTORE PUSH1 0x40 SWAP1 KECCAK256 SLOAD PUSH1 0x1 PUSH1 0x1 PUSH1 0xA0 SHL SUB AND DUP2 JUMP JUMPDEST PUSH1 0x0 PUSH2 0x93B DUP3 NUMBER PUSH2 0xF8B JUMP JUMPDEST DUP2 PUSH2 0x11C4 JUMPI PUSH1 0x40 DUP1 MLOAD PUSH3 0x461BCD PUSH1 0xE5 SHL DUP2 MSTORE PUSH1 0x20 PUSH1 0x4 DUP3 ADD MSTORE PUSH1 0xE PUSH1 0x24 DUP3 ADD MSTORE PUSH14 0x526571756573744964206973203 PUSH1 0x94 SHL PUSH1 0x44 DUP3 ADD MSTORE SWAP1 MLOAD SWAP1 DUP2 SWAP1 SUB PUSH1 0x64 ADD SWAP1 REVERT JUMPDEST DUP1 PUSH2 0x1216 JUMPI PUSH1 0x40 DUP1 MLOAD PUSH3 0x461BCD PUSH1 0xE5 SHL DUP2 MSTORE PUSH1 0x20 PUSH1 0x4 DUP3 ADD MSTORE PUSH1 0x1C PUSH1 0x24 DUP3 ADD MSTORE PUSH32 0x5469702073686F756C642062652067726561746572207468616E203000000000 PUSH1 0x44 DUP3 ADD MSTORE SWAP1 MLOAD SWAP1 DUP2 SWAP1 SUB PUSH1 0x64 ADD SWAP1 REVERT JUMPDEST PUSH32 0x3F8B5616FA9E7F2CE4A868FDE15C58B92E77BC1ACD6769BF1567629A3DC4C865 PUSH1 0x0 MSTORE PUSH1 0x46 PUSH1 0x20 MSTORE PUSH32 0x7119B9AFAA3BDA0901FFE121C1535F50CD6D0D09DF5D29EB1CB16C8AB47A55D6 SLOAD PUSH1 0x1 ADD DUP3 DUP2 EQ ISZERO PUSH2 0x12BE JUMPI PUSH32 0x3F8B5616FA9E7F2CE4A868FDE15C58B92E77BC1ACD6769BF1567629A3DC4C865 PUSH1 0x0 MSTORE PUSH1 0x46 PUSH1 0x20 MSTORE PUSH32 0x7119B9AFAA3BDA0901FFE121C1535F50CD6D0D09DF5D29EB1CB16C8AB47A55D6 DUP2 SWAP1 SSTORE PUSH2 0x1312 JUMP JUMPDEST DUP1 DUP4 LT PUSH2 0x1312 JUMPI PUSH1 0x40 DUP1 MLOAD PUSH3 0x461BCD PUSH1 0xE5 SHL DUP2 MSTORE PUSH1 0x20 PUSH1 0x4 DUP3 ADD DUP2 SWAP1 MSTORE PUSH1 0x24 DUP3 ADD MSTORE PUSH32 0x526571756573744964206973206E6F74206C657373207468616E20636F756E74 PUSH1 0x44 DUP3 ADD MSTORE SWAP1 MLOAD SWAP1 DUP2 SWAP1 SUB PUSH1 0x64 ADD SWAP1 REVERT JUMPDEST PUSH2 0x131C CALLER DUP4 PUSH2 0x38F5 JUMP JUMPDEST PUSH2 0x1326 DUP4 DUP4 PUSH2 0x3A5C JUMP JUMPDEST PUSH1 0x0 DUP4 DUP2 MSTORE PUSH1 0x45 PUSH1 0x20 SWAP1 DUP2 MSTORE PUSH1 0x40 DUP1 DUP4 KECCAK256 PUSH1 0x0 DUP1 MLOAD PUSH1 0x20 PUSH2 0x510F DUP4 CODECOPY DUP2 MLOAD SWAP2 MSTORE DUP5 MSTORE PUSH1 0x1 ADD DUP3 MSTORE SWAP2 DUP3 SWAP1 KECCAK256 SLOAD DUP3 MLOAD DUP6 DUP2 MSTORE SWAP2 DUP3 ADD MSTORE DUP2 MLOAD DUP6 SWAP3 CALLER SWAP3 PUSH32 0xD32134405B68F6F7220F9C38AE310DF1B648D16188006768D45BE2F7C24E8820 SWAP3 SWAP1 DUP2 SWAP1 SUB SWAP1 SWAP2 ADD SWAP1 LOG3 POP POP POP JUMP JUMPDEST PUSH1 0x0 DUP4 DUP2 MSTORE PUSH1 0x45 PUSH1 0x20 SWAP1 DUP2 MSTORE PUSH1 0x40 DUP1 DUP4 KECCAK256 DUP6 DUP5 MSTORE PUSH1 0x2 DUP2 ADD SWAP1 SWAP3 MSTORE SWAP1 SWAP2 KECCAK256 SLOAD PUSH2 0x13F4 JUMPI PUSH1 0x40 DUP1 MLOAD PUSH3 0x461BCD PUSH1 0xE5 SHL DUP2 MSTORE PUSH1 0x20 PUSH1 0x4 DUP3 ADD MSTORE PUSH1 0x10 PUSH1 0x24 DUP3 ADD MSTORE PUSH16 0x4D696E656420626C6F636B206973203 PUSH1 0x84 SHL PUSH1 0x44 DUP3 ADD MSTORE SWAP1 MLOAD SWAP1 DUP2 SWAP1 SUB PUSH1 0x64 ADD SWAP1 REVERT JUMPDEST PUSH1 0x5 DUP3 LT PUSH2 0x1449 JUMPI PUSH1 0x40 DUP1 MLOAD PUSH3 0x461BCD PUSH1 0xE5 SHL DUP2 MSTORE PUSH1 0x20 PUSH1 0x4 DUP3 ADD MSTORE PUSH1 0x14 PUSH1 0x24 DUP3 ADD MSTORE PUSH32 0x4D696E657220696E6465782069732077726F6E67000000000000000000000000 PUSH1 0x44 DUP3 ADD MSTORE SWAP1 MLOAD SWAP1 DUP2 SWAP1 SUB PUSH1 0x64 ADD SWAP1 REVERT JUMPDEST PUSH1 0x0 DUP4 DUP2 MSTORE PUSH1 0x5 DUP1 DUP4 ADD PUSH1 0x20 MSTORE PUSH1 0x40 DUP3 KECCAK256 SWAP1 DUP5 SWAP1 DUP2 LT PUSH2 0x1465 JUMPI INVALID JUMPDEST ADD SLOAD PUSH1 0x40 DUP1 MLOAD PUSH1 0x60 DUP4 DUP2 SHL PUSH12 0xFFFFFFFFFFFFFFFFFFFFFFFF NOT AND PUSH1 0x20 DUP1 DUP5 ADD DUP3 SWAP1 MSTORE PUSH12 0x111A5CDC1D5D1950DBDD5B9D PUSH1 0xA2 SHL PUSH1 0x34 DUP6 ADD MSTORE DUP5 MLOAD DUP1 DUP6 SUB DUP3 ADD DUP2 MSTORE DUP5 DUP7 ADD DUP7 MSTORE DUP1 MLOAD SWAP1 DUP3 ADD KECCAK256 PUSH1 0x0 SWAP1 DUP2 MSTORE PUSH1 0x46 DUP3 MSTORE DUP6 DUP2 KECCAK256 DUP1 SLOAD PUSH1 0x1 SWAP1 DUP2 ADD SWAP1 SWAP2 SSTORE SWAP4 DUP6 ADD SWAP3 SWAP1 SWAP3 MSTORE PUSH1 0x74 DUP5 ADD DUP12 SWAP1 MSTORE PUSH1 0x94 DUP1 DUP6 ADD DUP12 SWAP1 MSTORE DUP6 MLOAD DUP1 DUP7 SUB SWAP1 SWAP2 ADD DUP2 MSTORE PUSH1 0xB4 SWAP1 SWAP5 ADD DUP6 MSTORE DUP4 MLOAD SWAP4 DUP2 ADD SWAP4 SWAP1 SWAP4 KECCAK256 PUSH32 0x1CE2382BC92689B00BA121FA5A411AA976168AFFDD8AC143A69035DD984B3B6A DUP1 SLOAD SWAP1 SWAP4 ADD SWAP3 DUP4 SWAP1 SSTORE DUP1 DUP3 MSTORE PUSH1 0x38 SWAP1 SWAP4 MSTORE SWAP3 SWAP1 SWAP3 KECCAK256 SLOAD PUSH1 0x1 PUSH1 0x1 PUSH1 0xA0 SHL SUB SWAP1 SWAP4 AND SWAP4 POP SWAP2 DUP1 ISZERO PUSH2 0x1585 JUMPI PUSH1 0x0 DUP3 DUP2 MSTORE PUSH1 0x36 PUSH1 0x20 SWAP1 DUP2 MSTORE PUSH1 0x40 DUP1 DUP4 KECCAK256 PUSH32 0xED92B4C1E0A9E559A31171D487ECBEC963526662038ECFA3A71160BD62FB8733 DUP5 MSTORE PUSH1 0x5 ADD SWAP1 SWAP2 MSTORE SWAP1 KECCAK256 DUP2 SWAP1 SSTORE PUSH2 0x15DC JUMP JUMPDEST PUSH3 0x93A80 DUP8 TIMESTAMP SUB LT PUSH2 0x15C8 JUMPI PUSH1 0x40 MLOAD PUSH3 0x461BCD PUSH1 0xE5 SHL DUP2 MSTORE PUSH1 0x4 ADD DUP1 DUP1 PUSH1 0x20 ADD DUP3 DUP2 SUB DUP3 MSTORE PUSH1 0x32 DUP2 MSTORE PUSH1 0x20 ADD DUP1 PUSH2 0x5072 PUSH1 0x32 SWAP2 CODECOPY PUSH1 0x40 ADD SWAP2 POP POP PUSH1 0x40 MLOAD DUP1 SWAP2 SUB SWAP1 REVERT JUMPDEST POP PUSH1 0x0 DUP3 DUP2 MSTORE PUSH1 0x38 PUSH1 0x20 MSTORE PUSH1 0x40 SWAP1 KECCAK256 DUP2 SWAP1 SSTORE DUP1 JUMPDEST PUSH1 0x0 PUSH2 0x15E8 DUP4 DUP4 PUSH2 0x2D5B JUMP JUMPDEST SWAP1 POP PUSH1 0x0 DUP8 PUSH1 0x2 EQ ISZERO PUSH2 0x168D JUMPI POP PUSH1 0x0 DUP10 DUP2 MSTORE PUSH1 0x45 PUSH1 0x20 SWAP1 DUP2 MSTORE PUSH1 0x40 DUP1 DUP4 KECCAK256 PUSH32 0x310199159A20C50879FFB440B45802138B5B162EC9426720E9DD3EE8BBCDB9D7 DUP5 MSTORE PUSH1 0x1 SWAP1 DUP2 ADD DUP4 MSTORE SWAP1 DUP4 KECCAK256 DUP1 SLOAD SWAP1 SWAP2 ADD SWAP1 DUP2 SWAP1 SSTORE PUSH32 0x5D9FADFC729FD027E395E5157EF1B53EF9FA4A8F053043C5F159307543E7CC97 SWAP1 SWAP3 MSTORE PUSH1 0x46 SWAP1 MSTORE PUSH32 0x167AF83A0768D27540775CFEF6D996EB63F8A61FCDFB26E654C18FB50960E3BE SLOAD MUL PUSH2 0x16DC JUMP JUMPDEST POP PUSH32 0x675D2171F68D6F5545D54FB9B1FB61A0E6897E6188CA1CD664E7C9530D91ECFC PUSH1 0x0 MSTORE PUSH1 0x46 PUSH1 0x20 MSTORE PUSH32 0x3E5522F19747F0F285B96DED572AC4128C3A764AEA9F44058DC0AFC9DDA44986 SLOAD DUP2 MUL JUMPDEST PUSH1 0x0 DUP5 DUP2 MSTORE PUSH1 0x36 PUSH1 0x20 SWAP1 DUP2 MSTORE PUSH1 0x40 DUP1 DUP4 KECCAK256 DUP9 DUP2 SSTORE PUSH1 0x2 DUP2 ADD DUP1 SLOAD PUSH1 0x3 DUP4 ADD DUP1 SLOAD CALLER PUSH1 0x1 PUSH1 0x1 PUSH1 0xA0 SHL SUB NOT SWAP2 DUP3 AND OR SWAP1 SWAP2 SSTORE PUSH1 0x4 DUP5 ADD DUP1 SLOAD SWAP1 SWAP2 AND SWAP1 SSTORE PUSH23 0xFFFFFFFFFFFFFFFFFFFFFFFFFFFFFFFFFFFFFFFFFF0000 NOT AND PUSH4 0x1000000 PUSH1 0x1 PUSH1 0x1 PUSH1 0xA0 SHL SUB DUP14 AND MUL OR PUSH2 0xFFFF NOT AND SWAP1 SSTORE PUSH1 0x1 DUP2 ADD DUP5 SWAP1 SSTORE PUSH32 0x9F47A2659C3D32B749AE717D975E7962959890862423C4318CF86E4EC220291F DUP5 MSTORE PUSH1 0x5 SWAP1 DUP2 ADD DUP4 MSTORE DUP2 DUP5 KECCAK256 DUP15 SWAP1 SSTORE PUSH32 0x2F9328A9C75282BEC25BB04BEFAD06926366736E0030C985108445FA728335E5 DUP5 MSTORE DUP2 DUP5 KECCAK256 DUP14 SWAP1 SSTORE DUP13 DUP5 MSTORE PUSH1 0x6 DUP12 ADD SWAP1 SWAP3 MSTORE SWAP1 SWAP2 KECCAK256 SWAP1 DUP10 SWAP1 DUP2 LT PUSH2 0x17C2 JUMPI INVALID JUMPDEST ADD SLOAD PUSH1 0x0 DUP6 DUP2 MSTORE PUSH1 0x36 PUSH1 0x20 SWAP1 DUP2 MSTORE PUSH1 0x40 DUP1 DUP4 KECCAK256 PUSH32 0x9147231AB14EFB72C38117F68521DDEF8DE64F092C18C69DBFB602FFC4DE7F47 DUP5 MSTORE PUSH1 0x5 ADD SWAP1 SWAP2 MSTORE DUP1 DUP3 KECCAK256 SWAP3 SWAP1 SWAP3 SSTORE PUSH32 0x46F7D53798D31923F6952572C6A19AD2D1A8238D26649C2F3493A6D69E425D28 DUP2 MSTORE DUP2 DUP2 KECCAK256 PUSH3 0x2A300 DUP6 MUL TIMESTAMP ADD SWAP1 SSTORE PUSH32 0x4B4CEFD5CED7569EF0D091282B4BCA9C52A034C56471A6061AFD1BF307A2DE7C DUP2 MSTORE DUP2 DUP2 KECCAK256 NUMBER SWAP1 SSTORE PUSH32 0x6DE96EE4D33A0617F40A846309C8759048857F51B9D59A12D3C3786D4778883D DUP2 MSTORE DUP2 DUP2 KECCAK256 DUP11 SWAP1 SSTORE PUSH32 0x1DA95F11543C9B03927178E07951795DFC95C7501A9D1CF00E13414CA33BC409 DUP2 MSTORE KECCAK256 DUP2 SWAP1 SSTORE PUSH2 0x18B9 CALLER ADDRESS DUP4 PUSH2 0x2A4A JUMP JUMPDEST DUP8 PUSH1 0x2 EQ ISZERO PUSH2 0x18EB JUMPI PUSH1 0x0 DUP10 DUP2 MSTORE PUSH1 0x4 DUP9 ADD PUSH1 0x20 SWAP1 DUP2 MSTORE PUSH1 0x40 DUP1 DUP4 KECCAK256 DUP1 SLOAD PUSH1 0xFF NOT AND PUSH1 0x1 OR SWAP1 SSTORE PUSH1 0x3 DUP11 ADD SWAP1 SWAP2 MSTORE DUP2 KECCAK256 SSTORE JUMPDEST PUSH1 0x1 PUSH1 0x1 PUSH1 0xA0 SHL SUB DUP7 AND PUSH1 0x0 DUP2 DUP2 MSTORE PUSH1 0x44 PUSH1 0x20 SWAP1 DUP2 MSTORE PUSH1 0x40 SWAP2 DUP3 SWAP1 KECCAK256 PUSH1 0x3 SWAP1 SSTORE DUP2 MLOAD DUP13 DUP2 MSTORE SWAP1 DUP2 ADD SWAP3 SWAP1 SWAP3 MSTORE DUP1 MLOAD DUP13 SWAP3 DUP8 SWAP3 PUSH32 0xECEEC1AEBF67772B2440120C4B4DC913A1FE1B865509219F9456785C23B9DA64 SWAP3 SWAP2 DUP3 SWAP1 SUB ADD SWAP1 LOG3 POP POP POP POP POP POP POP POP POP POP JUMP JUMPDEST PUSH2 0x195B CALLER PUSH2 0x3CA0 JUMP JUMPDEST JUMP JUMPDEST PUSH1 0x1 PUSH1 0x1 PUSH1 0xA0 SHL SUB DUP3 AND PUSH1 0x0 SWAP1 DUP2 MSTORE PUSH1 0x44 PUSH1 0x20 MSTORE PUSH1 0x40 DUP2 KECCAK256 SLOAD ISZERO DUP1 ISZERO SWAP1 PUSH2 0x199C JUMPI POP PUSH1 0x1 PUSH1 0x1 PUSH1 0xA0 SHL SUB DUP4 AND PUSH1 0x0 SWAP1 DUP2 MSTORE PUSH1 0x44 PUSH1 0x20 MSTORE PUSH1 0x40 SWAP1 KECCAK256 SLOAD PUSH1 0x5 GT JUMPDEST ISZERO PUSH2 0x1A16 JUMPI PUSH32 0x5D9FADFC729FD027E395E5157EF1B53EF9FA4A8F053043C5F159307543E7CC97 PUSH1 0x0 MSTORE PUSH1 0x46 PUSH1 0x20 MSTORE PUSH32 0x167AF83A0768D27540775CFEF6D996EB63F8A61FCDFB26E654C18FB50960E3BE SLOAD DUP3 SWAP1 PUSH2 0x1A01 SWAP1 PUSH2 0x19FB DUP7 PUSH2 0x1175 JUMP JUMPDEST SWAP1 PUSH2 0x3DEF JUMP JUMPDEST LT PUSH2 0x1A0E JUMPI POP PUSH1 0x1 PUSH2 0x93B JUMP JUMPDEST POP PUSH1 0x0 PUSH2 0x93B JUMP JUMPDEST DUP2 PUSH2 0x1A20 DUP5 PUSH2 0x1175 JUMP JUMPDEST LT ISZERO SWAP4 SWAP3 POP POP POP JUMP JUMPDEST PUSH32 0x310199159A20C50879FFB440B45802138B5B162EC9426720E9DD3EE8BBCDB9D7 PUSH1 0x0 MSTORE PUSH1 0x46 PUSH1 0x20 MSTORE PUSH32 0x1CE2382BC92689B00BA121FA5A411AA976168AFFDD8AC143A69035DD984B3B6A SLOAD DUP2 GT ISZERO PUSH2 0x1AC1 JUMPI PUSH1 0x40 DUP1 MLOAD PUSH3 0x461BCD PUSH1 0xE5 SHL DUP2 MSTORE PUSH1 0x20 PUSH1 0x4 DUP3 ADD MSTORE PUSH1 0x16 PUSH1 0x24 DUP3 ADD MSTORE PUSH22 0x191A5CDC1D5D1948191BD95CC81B9BDD08195E1A5CDD PUSH1 0x52 SHL PUSH1 0x44 DUP3 ADD MSTORE SWAP1 MLOAD SWAP1 DUP2 SWAP1 SUB PUSH1 0x64 ADD SWAP1 REVERT JUMPDEST PUSH1 0x0 DUP2 DUP2 MSTORE PUSH1 0x36 PUSH1 0x20 DUP2 DUP2 MSTORE PUSH1 0x40 DUP1 DUP5 KECCAK256 SLOAD DUP5 MSTORE PUSH1 0x38 DUP3 MSTORE DUP1 DUP5 KECCAK256 SLOAD DUP1 DUP6 MSTORE SWAP3 DUP3 MSTORE DUP1 DUP5 KECCAK256 PUSH32 0x6AB2B18AAFE78FD59C6A4092015BDDD9FCACB8170F72B299074F74D76A91A923 DUP6 MSTORE PUSH1 0x5 ADD DUP1 DUP4 MSTORE DUP2 DUP6 KECCAK256 SLOAD DUP3 MLOAD DUP1 DUP6 ADD SWAP2 SWAP1 SWAP2 MSTORE DUP3 MLOAD DUP1 DUP3 SUB DUP6 ADD DUP2 MSTORE SWAP1 DUP4 ADD DUP4 MSTORE DUP1 MLOAD SWAP1 DUP5 ADD KECCAK256 DUP6 MSTORE SWAP1 SWAP2 MSTORE SWAP1 SWAP2 KECCAK256 SLOAD DUP1 PUSH2 0x1B41 JUMPI POP DUP1 JUMPDEST PUSH1 0x0 DUP3 DUP2 MSTORE PUSH1 0x36 PUSH1 0x20 SWAP1 DUP2 MSTORE PUSH1 0x40 DUP1 DUP4 KECCAK256 DUP5 DUP5 MSTORE DUP2 DUP5 KECCAK256 PUSH32 0x6AB2B18AAFE78FD59C6A4092015BDDD9FCACB8170F72B299074F74D76A91A923 DUP6 MSTORE PUSH1 0x5 DUP3 ADD SWAP1 SWAP4 MSTORE SWAP3 KECCAK256 SLOAD DUP1 PUSH2 0x1B8E JUMPI POP PUSH1 0x1 JUMPDEST PUSH32 0x29169706298D2B6DF50A532E958B56426DE1465348B93650FCA42D456EAEC5FC PUSH1 0x0 SWAP1 DUP2 MSTORE PUSH1 0x5 DUP5 ADD PUSH1 0x20 MSTORE PUSH1 0x40 DUP2 KECCAK256 SLOAD ISZERO PUSH2 0x1C05 JUMPI PUSH1 0x40 DUP1 MLOAD PUSH3 0x461BCD PUSH1 0xE5 SHL DUP2 MSTORE PUSH1 0x20 PUSH1 0x4 DUP3 ADD MSTORE PUSH1 0x10 PUSH1 0x24 DUP3 ADD MSTORE PUSH16 0x185B1C9958591E481C185A59081BDD5D PUSH1 0x82 SHL PUSH1 0x44 DUP3 ADD MSTORE SWAP1 MLOAD SWAP1 DUP2 SWAP1 SUB PUSH1 0x64 ADD SWAP1 REVERT JUMPDEST PUSH1 0x2 DUP5 ADD SLOAD PUSH3 0x10000 SWAP1 DIV PUSH1 0xFF AND ISZERO PUSH2 0x1C4F JUMPI PUSH1 0x40 MLOAD PUSH3 0x461BCD PUSH1 0xE5 SHL DUP2 MSTORE PUSH1 0x4 ADD DUP1 DUP1 PUSH1 0x20 ADD DUP3 DUP2 SUB DUP3 MSTORE PUSH1 0x29 DUP2 MSTORE PUSH1 0x20 ADD DUP1 PUSH2 0x4F13 PUSH1 0x29 SWAP2 CODECOPY PUSH1 0x40 ADD SWAP2 POP POP PUSH1 0x40 MLOAD DUP1 SWAP2 SUB SWAP1 REVERT JUMPDEST PUSH32 0xF9E1AE10923BFC79F52E309BAF8C7699EDB821F91EF5B5BD07BE29545917B3A6 PUSH1 0x0 SWAP1 DUP2 MSTORE PUSH1 0x5 DUP6 ADD PUSH1 0x20 MSTORE PUSH1 0x40 SWAP1 KECCAK256 SLOAD PUSH2 0x1CD2 JUMPI PUSH1 0x40 DUP1 MLOAD PUSH3 0x461BCD PUSH1 0xE5 SHL DUP2 MSTORE PUSH1 0x20 PUSH1 0x4 DUP3 ADD MSTORE PUSH1 0x18 PUSH1 0x24 DUP3 ADD MSTORE PUSH32 0x766F7465206E6565647320746F2062652074616C6C6965640000000000000000 PUSH1 0x44 DUP3 ADD MSTORE SWAP1 MLOAD SWAP1 DUP2 SWAP1 SUB PUSH1 0x64 ADD SWAP1 REVERT JUMPDEST PUSH32 0xF9E1AE10923BFC79F52E309BAF8C7699EDB821F91EF5B5BD07BE29545917B3A6 PUSH1 0x0 SWAP1 DUP2 MSTORE PUSH1 0x5 DUP5 ADD PUSH1 0x20 MSTORE PUSH1 0x40 SWAP1 KECCAK256 SLOAD PUSH3 0x15180 TIMESTAMP SWAP2 SWAP1 SWAP2 SUB GT PUSH2 0x1D49 JUMPI PUSH1 0x40 MLOAD PUSH3 0x461BCD PUSH1 0xE5 SHL DUP2 MSTORE PUSH1 0x4 ADD DUP1 DUP1 PUSH1 0x20 ADD DUP3 DUP2 SUB DUP3 MSTORE PUSH1 0x2B DUP2 MSTORE PUSH1 0x20 ADD DUP1 PUSH2 0x4F5E PUSH1 0x2B SWAP2 CODECOPY PUSH1 0x40 ADD SWAP2 POP POP PUSH1 0x40 MLOAD DUP1 SWAP2 SUB SWAP1 REVERT JUMPDEST PUSH1 0x2 DUP5 DUP2 ADD SLOAD PUSH4 0x1000000 SWAP1 DIV PUSH1 0x1 PUSH1 0x1 PUSH1 0xA0 SHL SUB AND PUSH1 0x0 SWAP1 DUP2 MSTORE PUSH1 0x44 PUSH1 0x20 SWAP1 DUP2 MSTORE PUSH1 0x40 DUP1 DUP4 KECCAK256 PUSH32 0x29169706298D2B6DF50A532E958B56426DE1465348B93650FCA42D456EAEC5FC DUP5 MSTORE PUSH1 0x5 DUP10 ADD SWAP1 SWAP3 MSTORE SWAP1 SWAP2 KECCAK256 PUSH1 0x1 SWAP1 DUP2 SWAP1 SSTORE SWAP2 DUP6 ADD SLOAD SWAP1 SWAP2 PUSH2 0x100 SWAP1 SWAP2 DIV PUSH1 0xFF AND ISZERO ISZERO EQ ISZERO PUSH2 0x1F72 JUMPI PUSH3 0x15180 TIMESTAMP MOD TIMESTAMP SUB PUSH1 0x1 DUP3 ADD SSTORE PUSH1 0x46 PUSH1 0x20 MSTORE PUSH32 0xA5AE3E2B97D73FB849EA855D27F073B72815B38452D976BD57E4A157827DADD3 DUP1 SLOAD PUSH1 0x0 NOT ADD SWAP1 SSTORE PUSH32 0x5D9FADFC729FD027E395E5157EF1B53EF9FA4A8F053043C5F159307543E7CC97 PUSH1 0x0 MSTORE PUSH32 0x167AF83A0768D27540775CFEF6D996EB63F8A61FCDFB26E654C18FB50960E3BE SLOAD PUSH1 0x2 DUP7 ADD SLOAD DUP2 SWAP1 PUSH2 0x1E5B SWAP1 PUSH4 0x1000000 SWAP1 DIV PUSH1 0x1 PUSH1 0x1 PUSH1 0xA0 SHL SUB AND PUSH2 0x1175 JUMP JUMPDEST LT ISZERO PUSH2 0x1E82 JUMPI PUSH1 0x2 DUP7 ADD SLOAD PUSH2 0x1E7F SWAP1 PUSH4 0x1000000 SWAP1 DIV PUSH1 0x1 PUSH1 0x1 PUSH1 0xA0 SHL SUB AND PUSH2 0x1175 JUMP JUMPDEST SWAP1 POP JUMPDEST DUP2 SLOAD PUSH1 0x4 EQ ISZERO PUSH2 0x1EBD JUMPI PUSH1 0x5 DUP3 SSTORE PUSH1 0x2 DUP7 ADD SLOAD PUSH1 0x3 DUP8 ADD SLOAD PUSH2 0x1EB8 SWAP2 PUSH1 0x1 PUSH1 0x1 PUSH1 0xA0 SHL SUB PUSH4 0x1000000 SWAP1 SWAP2 DIV DUP2 AND SWAP2 AND DUP4 PUSH2 0x2A4A JUMP JUMPDEST PUSH1 0x0 DUP3 SSTORE JUMPDEST PUSH1 0x0 JUMPDEST DUP5 DUP2 LT ISZERO PUSH2 0x1F6B JUMPI PUSH1 0x40 DUP1 MLOAD DUP3 DUP8 SUB PUSH1 0x20 DUP1 DUP4 ADD SWAP2 SWAP1 SWAP2 MSTORE DUP3 MLOAD DUP1 DUP4 SUB DUP3 ADD DUP2 MSTORE SWAP2 DUP4 ADD DUP4 MSTORE DUP2 MLOAD SWAP2 DUP2 ADD SWAP2 SWAP1 SWAP2 KECCAK256 PUSH1 0x0 SWAP1 DUP2 MSTORE PUSH1 0x5 DUP11 ADD SWAP1 SWAP2 MSTORE KECCAK256 SLOAD SWAP4 POP DUP4 PUSH2 0x1F08 JUMPI DUP9 SWAP4 POP JUMPDEST PUSH1 0x0 DUP5 DUP2 MSTORE PUSH1 0x36 PUSH1 0x20 SWAP1 DUP2 MSTORE PUSH1 0x40 DUP1 DUP4 KECCAK256 PUSH1 0x3 DUP2 ADD SLOAD PUSH32 0x1DA95F11543C9B03927178E07951795DFC95C7501A9D1CF00E13414CA33BC409 DUP6 MSTORE PUSH1 0x5 DUP3 ADD SWAP1 SWAP4 MSTORE SWAP3 KECCAK256 SLOAD PUSH2 0x1F62 SWAP2 ADDRESS SWAP2 PUSH1 0x1 PUSH1 0x1 PUSH1 0xA0 SHL SUB SWAP1 SWAP2 AND SWAP1 PUSH2 0x2A4A JUMP JUMPDEST POP PUSH1 0x1 ADD PUSH2 0x1EC0 JUMP JUMPDEST POP POP PUSH2 0x2219 JUMP JUMPDEST PUSH1 0x2 DUP5 ADD SLOAD PUSH1 0x40 DUP1 MLOAD PUSH4 0x1000000 SWAP1 SWAP3 DIV PUSH1 0x60 SHL PUSH12 0xFFFFFFFFFFFFFFFFFFFFFFFF NOT AND PUSH1 0x20 DUP1 DUP5 ADD SWAP2 SWAP1 SWAP2 MSTORE PUSH12 0x111A5CDC1D5D1950DBDD5B9D PUSH1 0xA2 SHL PUSH1 0x34 DUP5 ADD MSTORE DUP2 MLOAD DUP1 DUP5 SUB DUP3 ADD DUP2 MSTORE SWAP3 DUP3 ADD DUP3 MSTORE DUP3 MLOAD SWAP3 DUP2 ADD SWAP3 SWAP1 SWAP3 KECCAK256 PUSH1 0x0 SWAP1 DUP2 MSTORE PUSH1 0x46 SWAP1 SWAP3 MSTORE SWAP1 KECCAK256 SLOAD PUSH1 0x1 EQ ISZERO PUSH2 0x1FE4 JUMPI PUSH1 0x1 DUP2 SSTORE JUMPDEST PUSH32 0x9F47A2659C3D32B749AE717D975E7962959890862423C4318CF86E4EC220291F PUSH1 0x0 SWAP1 DUP2 MSTORE PUSH1 0x5 DUP7 ADD PUSH1 0x20 DUP2 DUP2 MSTORE PUSH1 0x40 DUP1 DUP5 KECCAK256 SLOAD DUP5 MSTORE PUSH1 0x45 DUP3 MSTORE DUP1 DUP5 KECCAK256 PUSH32 0x6DE96EE4D33A0617F40A846309C8759048857F51B9D59A12D3C3786D4778883D DUP6 MSTORE SWAP3 SWAP1 SWAP2 MSTORE SWAP1 SWAP2 KECCAK256 SLOAD PUSH1 0x2 EQ ISZERO PUSH2 0x20BF JUMPI PUSH32 0x9147231AB14EFB72C38117F68521DDEF8DE64F092C18C69DBFB602FFC4DE7F47 PUSH1 0x0 SWAP1 DUP2 MSTORE PUSH1 0x5 DUP8 ADD PUSH1 0x20 SWAP1 DUP2 MSTORE PUSH1 0x40 DUP1 DUP4 KECCAK256 SLOAD PUSH32 0x2F9328A9C75282BEC25BB04BEFAD06926366736E0030C985108445FA728335E5 DUP5 MSTORE DUP2 DUP5 KECCAK256 SLOAD DUP5 MSTORE PUSH1 0x3 DUP6 ADD SWAP1 SWAP3 MSTORE SWAP1 SWAP2 KECCAK256 SSTORE JUMPDEST PUSH32 0x2F9328A9C75282BEC25BB04BEFAD06926366736E0030C985108445FA728335E5 PUSH1 0x0 SWAP1 DUP2 MSTORE PUSH1 0x5 DUP8 ADD PUSH1 0x20 SWAP1 DUP2 MSTORE PUSH1 0x40 DUP1 DUP4 KECCAK256 SLOAD DUP4 MSTORE PUSH1 0x4 DUP5 ADD SWAP1 SWAP2 MSTORE SWAP1 KECCAK256 SLOAD PUSH1 0xFF AND ISZERO ISZERO PUSH1 0x1 EQ ISZERO PUSH2 0x2156 JUMPI PUSH32 0x2F9328A9C75282BEC25BB04BEFAD06926366736E0030C985108445FA728335E5 PUSH1 0x0 SWAP1 DUP2 MSTORE PUSH1 0x5 DUP8 ADD PUSH1 0x20 SWAP1 DUP2 MSTORE PUSH1 0x40 DUP1 DUP4 KECCAK256 SLOAD DUP4 MSTORE PUSH1 0x4 DUP5 ADD SWAP1 SWAP2 MSTORE SWAP1 KECCAK256 DUP1 SLOAD PUSH1 0xFF NOT AND SWAP1 SSTORE JUMPDEST PUSH1 0x0 JUMPDEST DUP5 DUP2 LT ISZERO PUSH2 0x2216 JUMPI PUSH1 0x40 DUP1 MLOAD DUP3 DUP8 SUB PUSH1 0x20 DUP1 DUP4 ADD SWAP2 SWAP1 SWAP2 MSTORE DUP3 MLOAD DUP1 DUP4 SUB DUP3 ADD DUP2 MSTORE SWAP2 DUP4 ADD DUP4 MSTORE DUP2 MLOAD SWAP2 DUP2 ADD SWAP2 SWAP1 SWAP2 KECCAK256 PUSH1 0x0 SWAP1 DUP2 MSTORE PUSH1 0x5 DUP11 ADD SWAP1 SWAP2 MSTORE KECCAK256 SLOAD SWAP4 POP DUP4 ISZERO PUSH2 0x21AF JUMPI PUSH1 0x0 DUP5 DUP2 MSTORE PUSH1 0x36 PUSH1 0x20 MSTORE PUSH1 0x40 SWAP1 KECCAK256 SWAP6 POP JUMPDEST PUSH1 0x2 DUP7 ADD SLOAD PUSH1 0x0 DUP6 DUP2 MSTORE PUSH1 0x36 PUSH1 0x20 SWAP1 DUP2 MSTORE PUSH1 0x40 DUP1 DUP4 KECCAK256 PUSH32 0x1DA95F11543C9B03927178E07951795DFC95C7501A9D1CF00E13414CA33BC409 DUP5 MSTORE PUSH1 0x5 ADD SWAP1 SWAP2 MSTORE SWAP1 KECCAK256 SLOAD PUSH2 0x220E SWAP2 ADDRESS SWAP2 PUSH4 0x1000000 SWAP1 SWAP2 DIV PUSH1 0x1 PUSH1 0x1 PUSH1 0xA0 SHL SUB AND SWAP1 PUSH2 0x2A4A JUMP JUMPDEST PUSH1 0x1 ADD PUSH2 0x2159 JUMP JUMPDEST POP POP JUMPDEST PUSH1 0x2 DUP5 DUP2 ADD SLOAD PUSH1 0x40 DUP1 MLOAD PUSH4 0x1000000 SWAP1 SWAP3 DIV PUSH1 0x60 SHL PUSH12 0xFFFFFFFFFFFFFFFFFFFFFFFF NOT AND PUSH1 0x20 DUP1 DUP5 ADD SWAP2 SWAP1 SWAP2 MSTORE PUSH12 0x111A5CDC1D5D1950DBDD5B9D PUSH1 0xA2 SHL PUSH1 0x34 DUP5 ADD MSTORE DUP2 MLOAD DUP1 DUP5 SUB DUP3 ADD DUP2 MSTORE SWAP3 DUP3 ADD DUP3 MSTORE DUP3 MLOAD SWAP3 DUP2 ADD SWAP3 SWAP1 SWAP3 KECCAK256 PUSH1 0x0 SWAP1 DUP2 MSTORE PUSH1 0x46 DUP4 MSTORE DUP2 DUP2 KECCAK256 DUP1 SLOAD PUSH1 0x0 NOT ADD SWAP1 SSTORE PUSH32 0x6DE96EE4D33A0617F40A846309C8759048857F51B9D59A12D3C3786D4778883D DUP2 MSTORE PUSH1 0x5 DUP10 ADD SWAP1 SWAP3 MSTORE SWAP1 KECCAK256 SLOAD EQ ISZERO PUSH2 0x232B JUMPI PUSH32 0x9F47A2659C3D32B749AE717D975E7962959890862423C4318CF86E4EC220291F PUSH1 0x0 SWAP1 DUP2 MSTORE PUSH1 0x5 DUP7 ADD PUSH1 0x20 SWAP1 DUP2 MSTORE PUSH1 0x40 DUP1 DUP4 KECCAK256 SLOAD DUP4 MSTORE PUSH1 0x45 DUP3 MSTORE DUP1 DUP4 KECCAK256 PUSH32 0x310199159A20C50879FFB440B45802138B5B162EC9426720E9DD3EE8BBCDB9D7 DUP5 MSTORE PUSH1 0x1 ADD SWAP1 SWAP2 MSTORE SWAP1 KECCAK256 DUP1 SLOAD PUSH1 0x0 NOT ADD SWAP1 SSTORE JUMPDEST POP POP POP POP POP POP POP POP JUMP JUMPDEST PUSH1 0x0 PUSH2 0x2342 CALLER DUP5 DUP5 PUSH2 0x2A4A JUMP JUMPDEST POP PUSH1 0x1 SWAP3 SWAP2 POP POP JUMP JUMPDEST PUSH32 0x5FC094D10C65BC33CC842217B2ECCCA0191FF24148319DA094E540A559898961 PUSH1 0x0 MSTORE PUSH1 0x47 PUSH1 0x20 MSTORE PUSH32 0x437DD27C2043EFDFEF03344E9331C924985F7BD1752ABEF5EA93BDBFED685100 SLOAD PUSH1 0x1 PUSH1 0x1 PUSH1 0xA0 SHL SUB AND CALLER EQ PUSH2 0x23E0 JUMPI PUSH1 0x40 DUP1 MLOAD PUSH3 0x461BCD PUSH1 0xE5 SHL DUP2 MSTORE PUSH1 0x20 PUSH1 0x4 DUP3 ADD MSTORE PUSH1 0xB PUSH1 0x24 DUP3 ADD MSTORE PUSH11 0x1B9BDD08185B1B1BDDD959 PUSH1 0xAA SHL PUSH1 0x44 DUP3 ADD MSTORE SWAP1 MLOAD SWAP1 DUP2 SWAP1 SUB PUSH1 0x64 ADD SWAP1 REVERT JUMPDEST PUSH2 0x23EB DUP4 DUP4 DUP4 PUSH2 0x3E01 JUMP JUMPDEST POP POP POP JUMP JUMPDEST PUSH1 0x46 PUSH1 0x20 MSTORE PUSH1 0x0 SWAP1 DUP2 MSTORE PUSH1 0x40 SWAP1 KECCAK256 SLOAD DUP2 JUMP JUMPDEST PUSH32 0xF758978FC1647996A3D9992F611883ADC442931DC49488312360ACC90601759B PUSH1 0x0 MSTORE PUSH1 0x46 PUSH1 0x20 MSTORE PUSH1 0x0 DUP1 MLOAD PUSH1 0x20 PUSH2 0x5052 DUP4 CODECOPY DUP2 MLOAD SWAP2 MSTORE SSTORE JUMP JUMPDEST PUSH32 0x310199159A20C50879FFB440B45802138B5B162EC9426720E9DD3EE8BBCDB9D7 PUSH1 0x0 MSTORE PUSH1 0x46 PUSH1 0x20 MSTORE PUSH32 0x1CE2382BC92689B00BA121FA5A411AA976168AFFDD8AC143A69035DD984B3B6A SLOAD DUP3 GT ISZERO PUSH2 0x24D5 JUMPI PUSH1 0x40 DUP1 MLOAD PUSH3 0x461BCD PUSH1 0xE5 SHL DUP2 MSTORE PUSH1 0x20 PUSH1 0x4 DUP3 ADD MSTORE PUSH1 0x16 PUSH1 0x24 DUP3 ADD MSTORE PUSH22 0x191A5CDC1D5D1948191BD95CC81B9BDD08195E1A5CDD PUSH1 0x52 SHL PUSH1 0x44 DUP3 ADD MSTORE SWAP1 MLOAD SWAP1 DUP2 SWAP1 SUB PUSH1 0x64 ADD SWAP1 REVERT JUMPDEST PUSH1 0x0 DUP3 DUP2 MSTORE PUSH1 0x36 PUSH1 0x20 MSTORE PUSH1 0x40 SWAP1 KECCAK256 PUSH1 0x2 DUP2 ADD SLOAD PUSH1 0xFF AND ISZERO PUSH2 0x2527 JUMPI PUSH1 0x40 MLOAD PUSH3 0x461BCD PUSH1 0xE5 SHL DUP2 MSTORE PUSH1 0x4 ADD DUP1 DUP1 PUSH1 0x20 ADD DUP3 DUP2 SUB DUP3 MSTORE PUSH1 0x25 DUP2 MSTORE PUSH1 0x20 ADD DUP1 PUSH2 0x50C5 PUSH1 0x25 SWAP2 CODECOPY PUSH1 0x40 ADD SWAP2 POP POP PUSH1 0x40 MLOAD DUP1 SWAP2 SUB SWAP1 REVERT JUMPDEST PUSH32 0x4B4CEFD5CED7569EF0D091282B4BCA9C52A034C56471A6061AFD1BF307A2DE7C PUSH1 0x0 SWAP1 DUP2 MSTORE PUSH1 0x5 DUP3 ADD PUSH1 0x20 MSTORE PUSH1 0x40 DUP2 KECCAK256 SLOAD PUSH2 0x2564 SWAP1 CALLER SWAP1 PUSH2 0xF8B JUMP JUMPDEST CALLER PUSH1 0x0 SWAP1 DUP2 MSTORE PUSH1 0x6 DUP5 ADD PUSH1 0x20 MSTORE PUSH1 0x40 SWAP1 KECCAK256 SLOAD SWAP1 SWAP2 POP PUSH1 0xFF AND ISZERO ISZERO PUSH1 0x1 EQ ISZERO PUSH2 0x25D3 JUMPI PUSH1 0x40 DUP1 MLOAD PUSH3 0x461BCD PUSH1 0xE5 SHL DUP2 MSTORE PUSH1 0x20 PUSH1 0x4 DUP3 ADD MSTORE PUSH1 0x18 PUSH1 0x24 DUP3 ADD MSTORE PUSH32 0x53656E6465722068617320616C726561647920766F7465640000000000000000 PUSH1 0x44 DUP3 ADD MSTORE SWAP1 MLOAD SWAP1 DUP2 SWAP1 SUB PUSH1 0x64 ADD SWAP1 REVERT JUMPDEST DUP1 PUSH2 0x2619 JUMPI PUSH1 0x40 DUP1 MLOAD PUSH3 0x461BCD PUSH1 0xE5 SHL DUP2 MSTORE PUSH1 0x20 PUSH1 0x4 DUP3 ADD MSTORE PUSH1 0x11 PUSH1 0x24 DUP3 ADD MSTORE PUSH17 0x557365722062616C616E6365206973203 PUSH1 0x7C SHL PUSH1 0x44 DUP3 ADD MSTORE SWAP1 MLOAD SWAP1 DUP2 SWAP1 SUB PUSH1 0x64 ADD SWAP1 REVERT JUMPDEST CALLER PUSH1 0x0 SWAP1 DUP2 MSTORE PUSH1 0x44 PUSH1 0x20 MSTORE PUSH1 0x40 SWAP1 KECCAK256 SLOAD PUSH1 0x3 EQ ISZERO PUSH2 0x267E JUMPI PUSH1 0x40 DUP1 MLOAD PUSH3 0x461BCD PUSH1 0xE5 SHL DUP2 MSTORE PUSH1 0x20 PUSH1 0x4 DUP3 ADD MSTORE PUSH1 0x16 PUSH1 0x24 DUP3 ADD MSTORE PUSH32 0x4D696E657220697320756E646572206469737075746500000000000000000000 PUSH1 0x44 DUP3 ADD MSTORE SWAP1 MLOAD SWAP1 DUP2 SWAP1 SUB PUSH1 0x64 ADD SWAP1 REVERT JUMPDEST CALLER PUSH1 0x0 SWAP1 DUP2 MSTORE PUSH1 0x6 DUP4 ADD PUSH1 0x20 SWAP1 DUP2 MSTORE PUSH1 0x40 DUP1 DUP4 KECCAK256 DUP1 SLOAD PUSH1 0xFF NOT AND PUSH1 0x1 SWAP1 DUP2 OR SWAP1 SWAP2 SSTORE PUSH32 0x1DA378694063870452CE03B189F48E04C1AA026348E74E6C86E10738514AD2C4 DUP5 MSTORE PUSH1 0x5 DUP7 ADD SWAP1 SWAP3 MSTORE SWAP1 SWAP2 KECCAK256 DUP1 SLOAD SWAP1 SWAP2 ADD SWAP1 SSTORE DUP3 ISZERO PUSH2 0x26F3 JUMPI PUSH1 0x1 DUP3 ADD SLOAD PUSH2 0x26E9 SWAP1 DUP3 PUSH2 0x3E97 JUMP JUMPDEST PUSH1 0x1 DUP4 ADD SSTORE PUSH2 0x2708 JUMP JUMPDEST PUSH1 0x1 DUP3 ADD SLOAD PUSH2 0x2702 SWAP1 DUP3 PUSH2 0x3EC2 JUMP JUMPDEST PUSH1 0x1 DUP4 ADD SSTORE JUMPDEST PUSH1 0x40 DUP1 MLOAD DUP5 ISZERO ISZERO DUP2 MSTORE SWAP1 MLOAD DUP3 SWAP2 CALLER SWAP2 DUP8 SWAP2 PUSH32 0x911EF2E98570B1D96C0E8EF81107A33D5B8E844AEB8F9710F9BC76C3B3FEF40E SWAP2 SWAP1 DUP2 SWAP1 SUB PUSH1 0x20 ADD SWAP1 LOG4 POP POP POP POP JUMP JUMPDEST PUSH1 0x49 PUSH1 0x20 MSTORE DUP2 PUSH1 0x0 MSTORE PUSH1 0x40 PUSH1 0x0 KECCAK256 DUP2 DUP2 SLOAD DUP2 LT PUSH2 0x2766 JUMPI PUSH1 0x0 DUP1 REVERT JUMPDEST PUSH1 0x0 SWAP2 DUP3 MSTORE PUSH1 0x20 SWAP1 SWAP2 KECCAK256 ADD SLOAD PUSH1 0x1 PUSH1 0x1 PUSH1 0x80 SHL SUB DUP1 DUP3 AND SWAP4 POP PUSH1 0x1 PUSH1 0x80 SHL SWAP1 SWAP2 DIV AND SWAP1 POP DUP3 JUMP JUMPDEST PUSH1 0x38 PUSH1 0x20 MSTORE PUSH1 0x0 SWAP1 DUP2 MSTORE PUSH1 0x40 SWAP1 KECCAK256 SLOAD DUP2 JUMP JUMPDEST PUSH1 0x4C DUP1 SLOAD PUSH1 0x1 ADD SWAP1 SSTORE JUMP JUMPDEST PUSH1 0x40 DUP1 MLOAD CALLER PUSH1 0x20 DUP1 DUP4 ADD SWAP2 SWAP1 SWAP2 MSTORE DUP3 MLOAD DUP1 DUP4 SUB DUP3 ADD DUP2 MSTORE SWAP2 DUP4 ADD DUP4 MSTORE DUP2 MLOAD SWAP2 DUP2 ADD SWAP2 SWAP1 SWAP2 KECCAK256 PUSH1 0x0 DUP2 DUP2 MSTORE PUSH1 0x46 SWAP1 SWAP3 MSTORE SWAP2 SWAP1 KECCAK256 SLOAD ISZERO DUP1 PUSH2 0x27FD JUMPI POP PUSH1 0x0 DUP2 DUP2 MSTORE PUSH1 0x46 PUSH1 0x20 MSTORE PUSH1 0x40 SWAP1 KECCAK256 SLOAD PUSH2 0x384 TIMESTAMP SWAP2 SWAP1 SWAP2 SUB GT JUMPDEST PUSH2 0x2838 JUMPI PUSH1 0x40 MLOAD PUSH3 0x461BCD PUSH1 0xE5 SHL DUP2 MSTORE PUSH1 0x4 ADD DUP1 DUP1 PUSH1 0x20 ADD DUP3 DUP2 SUB DUP3 MSTORE PUSH1 0x2A DUP2 MSTORE PUSH1 0x20 ADD DUP1 PUSH2 0x4EC9 PUSH1 0x2A SWAP2 CODECOPY PUSH1 0x40 ADD SWAP2 POP POP PUSH1 0x40 MLOAD DUP1 SWAP2 SUB SWAP1 REVERT JUMPDEST PUSH2 0xF2E DUP6 DUP6 DUP1 DUP1 PUSH1 0x1F ADD PUSH1 0x20 DUP1 SWAP2 DIV MUL PUSH1 0x20 ADD PUSH1 0x40 MLOAD SWAP1 DUP2 ADD PUSH1 0x40 MSTORE DUP1 SWAP4 SWAP3 SWAP2 SWAP1 DUP2 DUP2 MSTORE PUSH1 0x20 ADD DUP4 DUP4 DUP1 DUP3 DUP5 CALLDATACOPY PUSH1 0x0 SWAP3 ADD SWAP2 SWAP1 SWAP2 MSTORE POP POP PUSH1 0x40 DUP1 MLOAD PUSH1 0xA0 DUP2 DUP2 ADD SWAP1 SWAP3 MSTORE SWAP3 POP DUP8 SWAP2 POP PUSH1 0x5 SWAP1 DUP4 SWAP1 DUP4 SWAP1 DUP1 DUP3 DUP5 CALLDATACOPY PUSH1 0x0 SWAP3 ADD SWAP2 SWAP1 SWAP2 MSTORE POP POP PUSH1 0x40 DUP1 MLOAD PUSH1 0xA0 DUP2 DUP2 ADD SWAP1 SWAP3 MSTORE SWAP2 POP DUP7 SWAP1 PUSH1 0x5 SWAP1 DUP4 SWAP1 DUP4 SWAP1 DUP1 DUP3 DUP5 CALLDATACOPY PUSH1 0x0 SWAP3 ADD SWAP2 SWAP1 SWAP2 MSTORE POP PUSH2 0x3224 SWAP2 POP POP JUMP JUMPDEST PUSH1 0x36 PUSH1 0x20 MSTORE PUSH1 0x0 SWAP1 DUP2 MSTORE PUSH1 0x40 SWAP1 KECCAK256 DUP1 SLOAD PUSH1 0x1 DUP3 ADD SLOAD PUSH1 0x2 DUP4 ADD SLOAD PUSH1 0x3 DUP5 ADD SLOAD PUSH1 0x4 SWAP1 SWAP5 ADD SLOAD SWAP3 SWAP4 SWAP2 SWAP3 PUSH1 0xFF DUP1 DUP4 AND SWAP4 PUSH2 0x100 DUP5 DIV DUP3 AND SWAP4 PUSH3 0x10000 DUP2 DIV SWAP1 SWAP3 AND SWAP3 PUSH1 0x1 PUSH1 0x1 PUSH1 0xA0 SHL SUB PUSH4 0x1000000 SWAP1 SWAP4 DIV DUP4 AND SWAP3 SWAP2 DUP3 AND SWAP2 AND DUP9 JUMP JUMPDEST PUSH1 0x1 PUSH1 0x1 PUSH1 0xA0 SHL SUB SWAP2 DUP3 AND PUSH1 0x0 SWAP1 DUP2 MSTORE PUSH1 0x4A PUSH1 0x20 SWAP1 DUP2 MSTORE PUSH1 0x40 DUP1 DUP4 KECCAK256 SWAP4 SWAP1 SWAP5 AND DUP3 MSTORE SWAP2 SWAP1 SWAP2 MSTORE KECCAK256 SLOAD SWAP1 JUMP JUMPDEST PUSH1 0x4C SLOAD SWAP1 JUMP JUMPDEST PUSH1 0x1 PUSH1 0x1 PUSH1 0xA0 SHL SUB DUP3 AND PUSH1 0x0 SWAP1 DUP2 MSTORE PUSH1 0x49 PUSH1 0x20 MSTORE PUSH1 0x40 SWAP1 KECCAK256 DUP1 SLOAD ISZERO DUP1 PUSH2 0x299B JUMPI POP DUP1 SLOAD NUMBER SWAP1 DUP3 SWAP1 PUSH1 0x0 NOT DUP2 ADD SWAP1 DUP2 LT PUSH2 0x2983 JUMPI INVALID JUMPDEST PUSH1 0x0 SWAP2 DUP3 MSTORE PUSH1 0x20 SWAP1 SWAP2 KECCAK256 ADD SLOAD PUSH1 0x1 PUSH1 0x1 PUSH1 0x80 SHL SUB AND EQ ISZERO JUMPDEST ISZERO PUSH2 0x2A0C JUMPI PUSH1 0x40 DUP1 MLOAD DUP1 DUP3 ADD SWAP1 SWAP2 MSTORE NUMBER PUSH1 0x1 PUSH1 0x1 PUSH1 0x80 SHL SUB SWAP1 DUP2 AND DUP3 MSTORE DUP4 DUP2 AND PUSH1 0x20 DUP1 DUP5 ADD SWAP2 DUP3 MSTORE DUP5 SLOAD PUSH1 0x1 DUP2 ADD DUP7 SSTORE PUSH1 0x0 DUP7 DUP2 MSTORE SWAP2 SWAP1 SWAP2 KECCAK256 SWAP4 MLOAD SWAP4 ADD DUP1 SLOAD SWAP2 MLOAD PUSH16 0xFFFFFFFFFFFFFFFFFFFFFFFFFFFFFFFF NOT SWAP1 SWAP3 AND SWAP4 DUP4 AND SWAP4 SWAP1 SWAP4 OR DUP3 AND PUSH1 0x1 PUSH1 0x80 SHL SWAP2 SWAP1 SWAP3 AND MUL OR SWAP1 SSTORE PUSH2 0x23EB JUMP JUMPDEST DUP1 SLOAD PUSH1 0x0 SWAP1 DUP3 SWAP1 PUSH1 0x0 NOT DUP2 ADD SWAP1 DUP2 LT PUSH2 0x2A21 JUMPI INVALID JUMPDEST PUSH1 0x0 SWAP2 DUP3 MSTORE PUSH1 0x20 SWAP1 SWAP2 KECCAK256 ADD DUP1 SLOAD PUSH1 0x1 PUSH1 0x1 PUSH1 0x80 SHL SUB DUP1 DUP7 AND PUSH1 0x1 PUSH1 0x80 SHL MUL SWAP2 AND OR SWAP1 SSTORE POP POP POP POP JUMP JUMPDEST DUP1 PUSH2 0x2A86 JUMPI PUSH1 0x40 MLOAD PUSH3 0x461BCD PUSH1 0xE5 SHL DUP2 MSTORE PUSH1 0x4 ADD DUP1 DUP1 PUSH1 0x20 ADD DUP3 DUP2 SUB DUP3 MSTORE PUSH1 0x21 DUP2 MSTORE PUSH1 0x20 ADD DUP1 PUSH2 0x4FF1 PUSH1 0x21 SWAP2 CODECOPY PUSH1 0x40 ADD SWAP2 POP POP PUSH1 0x40 MLOAD DUP1 SWAP2 SUB SWAP1 REVERT JUMPDEST PUSH1 0x1 PUSH1 0x1 PUSH1 0xA0 SHL SUB DUP3 AND PUSH2 0x2AD9 JUMPI PUSH1 0x40 DUP1 MLOAD PUSH3 0x461BCD PUSH1 0xE5 SHL DUP2 MSTORE PUSH1 0x20 PUSH1 0x4 DUP3 ADD MSTORE PUSH1 0x15 PUSH1 0x24 DUP3 ADD MSTORE PUSH21 0x526563656976657220697320302061646472657373 PUSH1 0x58 SHL PUSH1 0x44 DUP3 ADD MSTORE SWAP1 MLOAD SWAP1 DUP2 SWAP1 SUB PUSH1 0x64 ADD SWAP1 REVERT JUMPDEST PUSH2 0x2AE3 DUP4 DUP3 PUSH2 0x195D JUMP JUMPDEST PUSH2 0x2B1E JUMPI PUSH1 0x40 MLOAD PUSH3 0x461BCD PUSH1 0xE5 SHL DUP2 MSTORE PUSH1 0x4 ADD DUP1 DUP1 PUSH1 0x20 ADD DUP3 DUP2 SUB DUP3 MSTORE PUSH1 0x27 DUP2 MSTORE PUSH1 0x20 ADD DUP1 PUSH2 0x4FAA PUSH1 0x27 SWAP2 CODECOPY PUSH1 0x40 ADD SWAP2 POP POP PUSH1 0x40 MLOAD DUP1 SWAP2 SUB SWAP1 REVERT JUMPDEST PUSH1 0x0 PUSH2 0x2B29 DUP5 PUSH2 0x1175 JUMP JUMPDEST SWAP1 POP DUP2 PUSH2 0x2B38 DUP6 DUP3 DUP5 SUB PUSH2 0x294E JUMP JUMPDEST PUSH2 0x2B41 DUP5 PUSH2 0x1175 JUMP JUMPDEST SWAP2 POP DUP2 PUSH1 0x1 PUSH1 0x1 PUSH1 0x80 SHL SUB AND DUP2 DUP4 ADD PUSH1 0x1 PUSH1 0x1 PUSH1 0x80 SHL SUB AND LT ISZERO PUSH2 0x2BA0 JUMPI PUSH1 0x40 DUP1 MLOAD PUSH3 0x461BCD PUSH1 0xE5 SHL DUP2 MSTORE PUSH1 0x20 PUSH1 0x4 DUP3 ADD MSTORE PUSH1 0x11 PUSH1 0x24 DUP3 ADD MSTORE PUSH17 0x13DD995C999B1BDDC81A185C1C195B9959 PUSH1 0x7A SHL PUSH1 0x44 DUP3 ADD MSTORE SWAP1 MLOAD SWAP1 DUP2 SWAP1 SUB PUSH1 0x64 ADD SWAP1 REVERT JUMPDEST PUSH2 0x2BAC DUP5 DUP3 DUP5 ADD PUSH2 0x294E JUMP JUMPDEST DUP4 PUSH1 0x1 PUSH1 0x1 PUSH1 0xA0 SHL SUB AND DUP6 PUSH1 0x1 PUSH1 0x1 PUSH1 0xA0 SHL SUB AND PUSH32 0xDDF252AD1BE2C89B69C2B068FC378DAA952BA7F163C4A11628F55A4DF523B3EF DUP6 PUSH1 0x40 MLOAD DUP1 DUP3 DUP2 MSTORE PUSH1 0x20 ADD SWAP2 POP POP PUSH1 0x40 MLOAD DUP1 SWAP2 SUB SWAP1 LOG3 POP POP POP POP POP JUMP JUMPDEST PUSH1 0x40 DUP1 MLOAD PUSH1 0x20 PUSH1 0x24 DUP3 ADD DUP2 SWAP1 MSTORE PUSH1 0x0 PUSH1 0x44 DUP4 ADD DUP2 SWAP1 MSTORE DUP4 MLOAD DUP1 DUP5 SUB PUSH1 0x64 ADD DUP2 MSTORE PUSH1 0x84 SWAP1 SWAP4 ADD DUP5 MSTORE SWAP1 DUP3 ADD DUP1 MLOAD PUSH1 0x1 PUSH1 0x1 PUSH1 0xE0 SHL SUB AND PUSH4 0xFC735E99 PUSH1 0xE0 SHL OR DUP2 MSTORE SWAP3 MLOAD DUP3 MLOAD SWAP2 SWAP4 PUSH1 0x60 SWAP4 PUSH1 0x1 PUSH1 0x1 PUSH1 0xA0 SHL SUB DUP8 AND SWAP4 SWAP1 SWAP3 SWAP2 DUP3 SWAP2 DUP1 DUP4 DUP4 JUMPDEST PUSH1 0x20 DUP4 LT PUSH2 0x2C7A JUMPI DUP1 MLOAD DUP3 MSTORE PUSH1 0x1F NOT SWAP1 SWAP3 ADD SWAP2 PUSH1 0x20 SWAP2 DUP3 ADD SWAP2 ADD PUSH2 0x2C5B JUMP JUMPDEST PUSH1 0x1 DUP4 PUSH1 0x20 SUB PUSH2 0x100 EXP SUB DUP1 NOT DUP3 MLOAD AND DUP2 DUP5 MLOAD AND DUP1 DUP3 OR DUP6 MSTORE POP POP POP POP POP POP SWAP1 POP ADD SWAP2 POP POP PUSH1 0x0 PUSH1 0x40 MLOAD DUP1 DUP4 SUB DUP2 PUSH1 0x0 DUP7 GAS CALL SWAP2 POP POP RETURNDATASIZE DUP1 PUSH1 0x0 DUP2 EQ PUSH2 0x2CDC JUMPI PUSH1 0x40 MLOAD SWAP2 POP PUSH1 0x1F NOT PUSH1 0x3F RETURNDATASIZE ADD AND DUP3 ADD PUSH1 0x40 MSTORE RETURNDATASIZE DUP3 MSTORE RETURNDATASIZE PUSH1 0x0 PUSH1 0x20 DUP5 ADD RETURNDATACOPY PUSH2 0x2CE1 JUMP JUMPDEST PUSH1 0x60 SWAP2 POP JUMPDEST POP SWAP2 POP SWAP2 POP DUP2 DUP1 ISZERO PUSH2 0x2D0A JUMPI POP PUSH2 0xBB7 DUP2 DUP1 PUSH1 0x20 ADD SWAP1 MLOAD PUSH1 0x20 DUP2 LT ISZERO PUSH2 0x2D06 JUMPI PUSH1 0x0 DUP1 REVERT JUMPDEST POP MLOAD GT JUMPDEST PUSH2 0x23EB JUMPI PUSH1 0x40 DUP1 MLOAD PUSH3 0x461BCD PUSH1 0xE5 SHL DUP2 MSTORE PUSH1 0x20 PUSH1 0x4 DUP3 ADD MSTORE PUSH1 0x15 PUSH1 0x24 DUP3 ADD MSTORE PUSH32 0x6E65772074656C6C6F7220697320696E76616C69640000000000000000000000 PUSH1 0x44 DUP3 ADD MSTORE SWAP1 MLOAD SWAP1 DUP2 SWAP1 SUB PUSH1 0x64 ADD SWAP1 REVERT JUMPDEST PUSH1 0x0 DUP2 DUP2 MSTORE PUSH1 0x36 PUSH1 0x20 DUP2 DUP2 MSTORE PUSH1 0x40 DUP1 DUP5 KECCAK256 PUSH32 0x6AB2B18AAFE78FD59C6A4092015BDDD9FCACB8170F72B299074F74D76A91A923 DUP6 MSTORE PUSH1 0x5 ADD DUP1 DUP4 MSTORE DUP2 DUP6 KECCAK256 DUP1 SLOAD PUSH1 0x1 ADD SWAP1 DUP2 SWAP1 SSTORE DUP7 DUP7 MSTORE SWAP4 DUP4 MSTORE DUP2 MLOAD DUP1 DUP5 ADD DUP6 SWAP1 MSTORE DUP3 MLOAD DUP1 DUP3 SUB DUP6 ADD DUP2 MSTORE SWAP1 DUP4 ADD DUP4 MSTORE DUP1 MLOAD SWAP1 DUP5 ADD KECCAK256 DUP6 MSTORE SWAP1 SWAP2 MSTORE SWAP1 SWAP2 KECCAK256 DUP4 SWAP1 SSTORE DUP3 DUP3 EQ PUSH2 0x93B JUMPI PUSH1 0x0 DUP3 DUP2 MSTORE PUSH1 0x36 PUSH1 0x20 DUP2 DUP2 MSTORE PUSH1 0x40 DUP1 DUP5 KECCAK256 DUP2 MLOAD PUSH1 0x0 NOT DUP8 ADD DUP2 DUP6 ADD MSTORE DUP3 MLOAD DUP1 DUP3 SUB DUP6 ADD DUP2 MSTORE SWAP1 DUP4 ADD DUP4 MSTORE DUP1 MLOAD SWAP1 DUP5 ADD KECCAK256 DUP6 MSTORE PUSH1 0x5 SWAP1 DUP2 ADD DUP4 MSTORE DUP2 DUP6 KECCAK256 SLOAD DUP1 DUP7 MSTORE SWAP4 DUP4 MSTORE DUP2 DUP6 KECCAK256 PUSH32 0x46F7D53798D31923F6952572C6A19AD2D1A8238D26649C2F3493A6D69E425D28 DUP7 MSTORE ADD SWAP1 SWAP2 MSTORE SWAP1 SWAP2 KECCAK256 SLOAD TIMESTAMP LT ISZERO PUSH2 0x2E9A JUMPI PUSH1 0x40 DUP1 MLOAD PUSH3 0x461BCD PUSH1 0xE5 SHL DUP2 MSTORE PUSH1 0x20 PUSH1 0x4 DUP3 ADD MSTORE PUSH1 0x17 PUSH1 0x24 DUP3 ADD MSTORE PUSH32 0x4469737075746520697320616C7265616479206F70656E000000000000000000 PUSH1 0x44 DUP3 ADD MSTORE SWAP1 MLOAD SWAP1 DUP2 SWAP1 SUB PUSH1 0x64 ADD SWAP1 REVERT JUMPDEST PUSH1 0x0 DUP2 DUP2 MSTORE PUSH1 0x36 PUSH1 0x20 MSTORE PUSH1 0x40 SWAP1 KECCAK256 PUSH1 0x2 ADD SLOAD PUSH1 0xFF AND ISZERO PUSH2 0x112F JUMPI PUSH1 0x0 DUP2 DUP2 MSTORE PUSH1 0x36 PUSH1 0x20 SWAP1 DUP2 MSTORE PUSH1 0x40 DUP1 DUP4 KECCAK256 PUSH32 0xF9E1AE10923BFC79F52E309BAF8C7699EDB821F91EF5B5BD07BE29545917B3A6 DUP5 MSTORE PUSH1 0x5 ADD SWAP1 SWAP2 MSTORE SWAP1 KECCAK256 SLOAD PUSH3 0x15180 TIMESTAMP SWAP2 SWAP1 SWAP2 SUB GT ISZERO PUSH2 0x112F JUMPI PUSH1 0x40 DUP1 MLOAD PUSH3 0x461BCD PUSH1 0xE5 SHL DUP2 MSTORE PUSH1 0x20 PUSH1 0x4 DUP3 ADD MSTORE PUSH1 0x1F PUSH1 0x24 DUP3 ADD MSTORE PUSH32 0x54696D6520666F7220766F74696E6720686176656E277420656C617073656400 PUSH1 0x44 DUP3 ADD MSTORE SWAP1 MLOAD SWAP1 DUP2 SWAP1 SUB PUSH1 0x64 ADD SWAP1 REVERT JUMPDEST PUSH1 0x0 DUP1 MLOAD PUSH1 0x20 PUSH2 0x5052 DUP4 CODECOPY DUP2 MLOAD SWAP2 MSTORE SLOAD PUSH32 0xD54702836C9D21D0727FFACC3E39F57C92B5AE0F50177E593BFB5EC66E3DE280 PUSH1 0x0 MSTORE PUSH1 0x48 PUSH1 0x20 SWAP1 DUP2 MSTORE PUSH32 0x52CB9007C7C6068F8EF37039D4F232CBF5A28FF8D93A5983C4C0C27CD2F9BC0D SLOAD PUSH1 0x40 DUP1 MLOAD DUP1 DUP5 ADD DUP4 DUP2 MSTORE CALLER PUSH1 0x60 DUP2 SWAP1 SHL SWAP4 DUP4 ADD SWAP4 SWAP1 SWAP4 MSTORE DUP7 MLOAD PUSH1 0x2 SWAP6 PUSH1 0x3 SWAP6 SWAP5 SWAP4 DUP10 SWAP4 SWAP3 PUSH1 0x54 SWAP1 SWAP2 ADD SWAP2 DUP5 ADD SWAP1 DUP1 DUP4 DUP4 JUMPDEST PUSH1 0x20 DUP4 LT PUSH2 0x2FFA JUMPI DUP1 MLOAD DUP3 MSTORE PUSH1 0x1F NOT SWAP1 SWAP3 ADD SWAP2 PUSH1 0x20 SWAP2 DUP3 ADD SWAP2 ADD PUSH2 0x2FDB JUMP JUMPDEST PUSH1 0x1 DUP4 PUSH1 0x20 SUB PUSH2 0x100 EXP SUB DUP1 NOT DUP3 MLOAD AND DUP2 DUP5 MLOAD AND DUP1 DUP3 OR DUP6 MSTORE POP POP POP POP POP POP SWAP1 POP ADD SWAP4 POP POP POP POP PUSH1 0x40 MLOAD PUSH1 0x20 DUP2 DUP4 SUB SUB DUP2 MSTORE SWAP1 PUSH1 0x40 MSTORE DUP1 MLOAD SWAP1 PUSH1 0x20 ADD KECCAK256 PUSH1 0x40 MLOAD PUSH1 0x20 ADD DUP1 DUP3 DUP2 MSTORE PUSH1 0x20 ADD SWAP2 POP POP PUSH1 0x40 MLOAD PUSH1 0x20 DUP2 DUP4 SUB SUB DUP2 MSTORE SWAP1 PUSH1 0x40 MSTORE PUSH1 0x40 MLOAD DUP1 DUP3 DUP1 MLOAD SWAP1 PUSH1 0x20 ADD SWAP1 DUP1 DUP4 DUP4 JUMPDEST PUSH1 0x20 DUP4 LT PUSH2 0x3085 JUMPI DUP1 MLOAD DUP3 MSTORE PUSH1 0x1F NOT SWAP1 SWAP3 ADD SWAP2 PUSH1 0x20 SWAP2 DUP3 ADD SWAP2 ADD PUSH2 0x3066 JUMP JUMPDEST MLOAD DUP2 MLOAD PUSH1 0x20 SWAP4 DUP5 SUB PUSH2 0x100 EXP PUSH1 0x0 NOT ADD DUP1 NOT SWAP1 SWAP3 AND SWAP2 AND OR SWAP1 MSTORE PUSH1 0x40 MLOAD SWAP2 SWAP1 SWAP4 ADD SWAP5 POP SWAP2 SWAP3 POP POP DUP1 DUP4 SUB DUP2 DUP6 GAS STATICCALL ISZERO DUP1 ISZERO PUSH2 0x30C4 JUMPI RETURNDATASIZE PUSH1 0x0 DUP1 RETURNDATACOPY RETURNDATASIZE PUSH1 0x0 REVERT JUMPDEST POP POP POP PUSH1 0x40 MLOAD MLOAD PUSH1 0x60 SHL PUSH1 0x40 MLOAD PUSH1 0x20 ADD DUP1 DUP3 PUSH12 0xFFFFFFFFFFFFFFFFFFFFFFFF NOT AND DUP2 MSTORE PUSH1 0x14 ADD SWAP2 POP POP PUSH1 0x40 MLOAD PUSH1 0x20 DUP2 DUP4 SUB SUB DUP2 MSTORE SWAP1 PUSH1 0x40 MSTORE PUSH1 0x40 MLOAD DUP1 DUP3 DUP1 MLOAD SWAP1 PUSH1 0x20 ADD SWAP1 DUP1 DUP4 DUP4 JUMPDEST PUSH1 0x20 DUP4 LT PUSH2 0x312B JUMPI DUP1 MLOAD DUP3 MSTORE PUSH1 0x1F NOT SWAP1 SWAP3 ADD SWAP2 PUSH1 0x20 SWAP2 DUP3 ADD SWAP2 ADD PUSH2 0x310C JUMP JUMPDEST MLOAD DUP2 MLOAD PUSH1 0x20 SWAP4 DUP5 SUB PUSH2 0x100 EXP PUSH1 0x0 NOT ADD DUP1 NOT SWAP1 SWAP3 AND SWAP2 AND OR SWAP1 MSTORE PUSH1 0x40 MLOAD SWAP2 SWAP1 SWAP4 ADD SWAP5 POP SWAP2 SWAP3 POP POP DUP1 DUP4 SUB DUP2 DUP6 GAS STATICCALL ISZERO DUP1 ISZERO PUSH2 0x316A JUMPI RETURNDATASIZE PUSH1 0x0 DUP1 RETURNDATACOPY RETURNDATASIZE PUSH1 0x0 REVERT JUMPDEST POP POP POP PUSH1 0x40 MLOAD RETURNDATASIZE PUSH1 0x20 DUP2 LT ISZERO PUSH2 0x317F JUMPI PUSH1 0x0 DUP1 REVERT JUMPDEST POP MLOAD DUP2 PUSH2 0x3188 JUMPI INVALID JUMPDEST MOD ISZERO DUP1 PUSH2 0x31E6 JUMPI POP PUSH32 0x2C8B528FBAF48AAF13162A5A0519A7AD5A612DA8FF8783465C17E076660A59F1 PUSH1 0x0 MSTORE PUSH1 0x46 PUSH1 0x20 MSTORE PUSH32 0x231BB0DC207F13DD4E565EBC32496C470E35391BD8D3B6649269EE2328E03118 SLOAD PUSH2 0x384 TIMESTAMP SWAP2 SWAP1 SWAP2 SUB LT ISZERO JUMPDEST PUSH2 0x3221 JUMPI PUSH1 0x40 MLOAD PUSH3 0x461BCD PUSH1 0xE5 SHL DUP2 MSTORE PUSH1 0x4 ADD DUP1 DUP1 PUSH1 0x20 ADD DUP3 DUP2 SUB DUP3 MSTORE PUSH1 0x25 DUP2 MSTORE PUSH1 0x20 ADD DUP1 PUSH2 0x50EA PUSH1 0x25 SWAP2 CODECOPY PUSH1 0x40 ADD SWAP2 POP POP PUSH1 0x40 MLOAD DUP1 SWAP2 SUB SWAP1 REVERT JUMPDEST POP JUMP JUMPDEST PUSH1 0x40 DUP1 MLOAD CALLER PUSH1 0x20 DUP1 DUP4 ADD DUP3 SWAP1 MSTORE DUP4 MLOAD DUP1 DUP5 SUB DUP3 ADD DUP2 MSTORE SWAP3 DUP5 ADD DUP5 MSTORE DUP3 MLOAD SWAP3 DUP2 ADD SWAP3 SWAP1 SWAP3 KECCAK256 PUSH1 0x0 SWAP2 DUP3 MSTORE PUSH1 0x44 SWAP1 SWAP3 MSTORE SWAP2 SWAP1 SWAP2 KECCAK256 SLOAD PUSH1 0x1 EQ PUSH2 0x32AB JUMPI PUSH1 0x40 DUP1 MLOAD PUSH3 0x461BCD PUSH1 0xE5 SHL DUP2 MSTORE PUSH1 0x20 PUSH1 0x4 DUP3 ADD MSTORE PUSH1 0x1A PUSH1 0x24 DUP3 ADD MSTORE PUSH32 0x4D696E657220737461747573206973206E6F74207374616B6572000000000000 PUSH1 0x44 DUP3 ADD MSTORE SWAP1 MLOAD SWAP1 DUP2 SWAP1 SUB PUSH1 0x64 ADD SWAP1 REVERT JUMPDEST PUSH1 0x3A SLOAD DUP4 MLOAD EQ PUSH2 0x32F8 JUMPI PUSH1 0x40 DUP1 MLOAD PUSH3 0x461BCD PUSH1 0xE5 SHL DUP2 MSTORE PUSH1 0x20 PUSH1 0x4 DUP3 ADD MSTORE PUSH1 0x13 PUSH1 0x24 DUP3 ADD MSTORE PUSH19 0x526571756573742049442069732077726F6E67 PUSH1 0x68 SHL PUSH1 0x44 DUP3 ADD MSTORE SWAP1 MLOAD SWAP1 DUP2 SWAP1 SUB PUSH1 0x64 ADD SWAP1 REVERT JUMPDEST PUSH1 0x3C SLOAD PUSH1 0x20 DUP5 ADD MLOAD EQ PUSH2 0x3348 JUMPI PUSH1 0x40 DUP1 MLOAD PUSH3 0x461BCD PUSH1 0xE5 SHL DUP2 MSTORE PUSH1 0x20 PUSH1 0x4 DUP3 ADD MSTORE PUSH1 0x13 PUSH1 0x24 DUP3 ADD MSTORE PUSH19 0x526571756573742049442069732077726F6E67 PUSH1 0x68 SHL PUSH1 0x44 DUP3 ADD MSTORE SWAP1 MLOAD SWAP1 DUP2 SWAP1 SUB PUSH1 0x64 ADD SWAP1 REVERT JUMPDEST PUSH1 0x3E SLOAD PUSH1 0x40 DUP5 ADD MLOAD EQ PUSH2 0x3398 JUMPI PUSH1 0x40 DUP1 MLOAD PUSH3 0x461BCD PUSH1 0xE5 SHL DUP2 MSTORE PUSH1 0x20 PUSH1 0x4 DUP3 ADD MSTORE PUSH1 0x13 PUSH1 0x24 DUP3 ADD MSTORE PUSH19 0x526571756573742049442069732077726F6E67 PUSH1 0x68 SHL PUSH1 0x44 DUP3 ADD MSTORE SWAP1 MLOAD SWAP1 DUP2 SWAP1 SUB PUSH1 0x64 ADD SWAP1 REVERT JUMPDEST PUSH1 0x40 SLOAD PUSH1 0x60 DUP5 ADD MLOAD EQ PUSH2 0x33E8 JUMPI PUSH1 0x40 DUP1 MLOAD PUSH3 0x461BCD PUSH1 0xE5 SHL DUP2 MSTORE PUSH1 0x20 PUSH1 0x4 DUP3 ADD MSTORE PUSH1 0x13 PUSH1 0x24 DUP3 ADD MSTORE PUSH19 0x526571756573742049442069732077726F6E67 PUSH1 0x68 SHL PUSH1 0x44 DUP3 ADD MSTORE SWAP1 MLOAD SWAP1 DUP2 SWAP1 SUB PUSH1 0x64 ADD SWAP1 REVERT JUMPDEST PUSH1 0x42 SLOAD PUSH1 0x80 DUP5 ADD MLOAD EQ PUSH2 0x3438 JUMPI PUSH1 0x40 DUP1 MLOAD PUSH3 0x461BCD PUSH1 0xE5 SHL DUP2 MSTORE PUSH1 0x20 PUSH1 0x4 DUP3 ADD MSTORE PUSH1 0x13 PUSH1 0x24 DUP3 ADD MSTORE PUSH19 0x526571756573742049442069732077726F6E67 PUSH1 0x68 SHL PUSH1 0x44 DUP3 ADD MSTORE SWAP1 MLOAD SWAP1 DUP2 SWAP1 SUB PUSH1 0x64 ADD SWAP1 REVERT JUMPDEST PUSH1 0x0 DUP2 DUP2 MSTORE PUSH1 0x46 PUSH1 0x20 SWAP1 DUP2 MSTORE PUSH1 0x40 DUP1 DUP4 KECCAK256 TIMESTAMP SWAP1 SSTORE PUSH32 0x52CB9007C7C6068F8EF37039D4F232CBF5A28FF8D93A5983C4C0C27CD2F9BC0D SLOAD PUSH32 0x7DF1EB1754BC067736FF3D89AF41D339BF906D31B0F5978E3C78F402D4ED2492 SLOAD DUP2 DUP6 MSTORE PUSH1 0x39 DUP5 MSTORE DUP3 DUP6 KECCAK256 CALLER DUP7 MSTORE SWAP1 SWAP4 MSTORE SWAP3 KECCAK256 SLOAD PUSH1 0xFF AND ISZERO PUSH2 0x34E2 JUMPI PUSH1 0x40 MLOAD PUSH3 0x461BCD PUSH1 0xE5 SHL DUP2 MSTORE PUSH1 0x4 ADD DUP1 DUP1 PUSH1 0x20 ADD DUP3 DUP2 SUB DUP3 MSTORE PUSH1 0x21 DUP2 MSTORE PUSH1 0x20 ADD DUP1 PUSH2 0x50A4 PUSH1 0x21 SWAP2 CODECOPY PUSH1 0x40 ADD SWAP2 POP POP PUSH1 0x40 MLOAD DUP1 SWAP2 SUB SWAP1 REVERT JUMPDEST PUSH1 0x0 DUP3 DUP2 MSTORE PUSH1 0x39 PUSH1 0x20 SWAP1 DUP2 MSTORE PUSH1 0x40 DUP1 DUP4 KECCAK256 CALLER DUP5 MSTORE DUP3 MSTORE DUP1 DUP4 KECCAK256 DUP1 SLOAD PUSH1 0xFF NOT AND PUSH1 0x1 OR SWAP1 SSTORE PUSH32 0xE97D205F7D20BF394E3813033D2203B4733ACB28B351C8D2A771647AB0D41C3C SLOAD DUP4 MSTORE PUSH1 0x45 DUP3 MSTORE DUP1 DUP4 KECCAK256 DUP8 MLOAD DUP5 DUP1 MSTORE PUSH1 0x6 DUP3 ADD SWAP1 SWAP4 MSTORE SWAP3 KECCAK256 DUP4 PUSH1 0x5 DUP2 LT PUSH2 0x354A JUMPI INVALID JUMPDEST ADD SSTORE PUSH1 0x20 DUP1 DUP7 ADD MLOAD PUSH1 0x1 PUSH1 0x0 SWAP1 DUP2 MSTORE PUSH1 0x6 DUP5 ADD SWAP1 SWAP3 MSTORE PUSH1 0x40 SWAP1 SWAP2 KECCAK256 DUP4 PUSH1 0x5 DUP2 LT PUSH2 0x3570 JUMPI INVALID JUMPDEST ADD SSTORE PUSH1 0x40 DUP1 DUP7 ADD MLOAD PUSH1 0x2 PUSH1 0x0 SWAP1 DUP2 MSTORE PUSH1 0x6 DUP5 ADD PUSH1 0x20 MSTORE SWAP2 SWAP1 SWAP2 KECCAK256 DUP4 PUSH1 0x5 DUP2 LT PUSH2 0x3595 JUMPI INVALID JUMPDEST ADD SSTORE PUSH1 0x60 DUP6 ADD MLOAD PUSH1 0x3 PUSH1 0x0 SWAP1 DUP2 MSTORE PUSH1 0x6 DUP4 ADD PUSH1 0x20 MSTORE PUSH1 0x40 SWAP1 KECCAK256 DUP4 PUSH1 0x5 DUP2 LT PUSH2 0x35B9 JUMPI INVALID JUMPDEST ADD SSTORE PUSH1 0x80 DUP6 ADD MLOAD PUSH1 0x4 PUSH1 0x0 SWAP1 DUP2 MSTORE PUSH1 0x6 DUP4 ADD PUSH1 0x20 MSTORE PUSH1 0x40 SWAP1 KECCAK256 DUP4 PUSH1 0x5 DUP2 LT PUSH2 0x35DD JUMPI INVALID JUMPDEST ADD SSTORE PUSH1 0x0 DUP1 DUP1 MSTORE PUSH1 0x5 DUP1 DUP4 ADD PUSH1 0x20 MSTORE PUSH1 0x40 SWAP1 SWAP2 KECCAK256 CALLER SWAP2 DUP5 SWAP1 DUP2 LT PUSH2 0x35FD JUMPI INVALID JUMPDEST ADD DUP1 SLOAD PUSH1 0x1 PUSH1 0x1 PUSH1 0xA0 SHL SUB NOT AND PUSH1 0x1 PUSH1 0x1 PUSH1 0xA0 SHL SUB SWAP3 SWAP1 SWAP3 AND SWAP2 SWAP1 SWAP2 OR SWAP1 SSTORE PUSH1 0x1 PUSH1 0x0 SWAP1 DUP2 MSTORE PUSH1 0x5 DUP3 DUP2 ADD PUSH1 0x20 MSTORE PUSH1 0x40 SWAP1 SWAP2 KECCAK256 CALLER SWAP2 DUP5 SWAP1 DUP2 LT PUSH2 0x363C JUMPI INVALID JUMPDEST ADD DUP1 SLOAD PUSH1 0x1 PUSH1 0x1 PUSH1 0xA0 SHL SUB NOT AND PUSH1 0x1 PUSH1 0x1 PUSH1 0xA0 SHL SUB SWAP3 SWAP1 SWAP3 AND SWAP2 SWAP1 SWAP2 OR SWAP1 SSTORE PUSH1 0x2 PUSH1 0x0 SWAP1 DUP2 MSTORE PUSH1 0x5 DUP3 DUP2 ADD PUSH1 0x20 MSTORE PUSH1 0x40 SWAP1 SWAP2 KECCAK256 CALLER SWAP2 DUP5 SWAP1 DUP2 LT PUSH2 0x367B JUMPI INVALID JUMPDEST ADD DUP1 SLOAD PUSH1 0x1 PUSH1 0x1 PUSH1 0xA0 SHL SUB NOT AND PUSH1 0x1 PUSH1 0x1 PUSH1 0xA0 SHL SUB SWAP3 SWAP1 SWAP3 AND SWAP2 SWAP1 SWAP2 OR SWAP1 SSTORE PUSH1 0x3 PUSH1 0x0 SWAP1 DUP2 MSTORE PUSH1 0x5 DUP3 DUP2 ADD PUSH1 0x20 MSTORE PUSH1 0x40 SWAP1 SWAP2 KECCAK256 CALLER SWAP2 DUP5 SWAP1 DUP2 LT PUSH2 0x36BA JUMPI INVALID JUMPDEST ADD DUP1 SLOAD PUSH1 0x1 PUSH1 0x1 PUSH1 0xA0 SHL SUB NOT AND PUSH1 0x1 PUSH1 0x1 PUSH1 0xA0 SHL SUB SWAP3 SWAP1 SWAP3 AND SWAP2 SWAP1 SWAP2 OR SWAP1 SSTORE PUSH1 0x4 PUSH1 0x0 SWAP1 DUP2 MSTORE PUSH1 0x5 DUP3 DUP2 ADD PUSH1 0x20 MSTORE PUSH1 0x40 SWAP1 SWAP2 KECCAK256 CALLER SWAP2 DUP5 SWAP1 DUP2 LT PUSH2 0x36F9 JUMPI INVALID JUMPDEST ADD DUP1 SLOAD PUSH1 0x1 PUSH1 0x1 PUSH1 0xA0 SHL SUB NOT AND PUSH1 0x1 PUSH1 0x1 PUSH1 0xA0 SHL SUB SWAP3 SWAP1 SWAP3 AND SWAP2 SWAP1 SWAP2 OR SWAP1 SSTORE PUSH1 0x1 DUP3 ADD PUSH1 0x4 EQ ISZERO PUSH2 0x372C JUMPI PUSH2 0x372C PUSH2 0x3EE8 JUMP JUMPDEST DUP3 CALLER PUSH1 0x1 PUSH1 0x1 PUSH1 0xA0 SHL SUB AND PUSH32 0x9D2E5F03FC65AFF196E0F3A8DD924B24099DE487E8CFFC888921D420AB196E39 DUP10 DUP10 DUP10 DUP8 PUSH1 0x40 MLOAD DUP1 DUP1 PUSH1 0x20 ADD DUP6 PUSH1 0x5 PUSH1 0x20 MUL DUP1 DUP4 DUP4 PUSH1 0x0 JUMPDEST DUP4 DUP2 LT ISZERO PUSH2 0x3788 JUMPI DUP2 DUP2 ADD MLOAD DUP4 DUP3 ADD MSTORE PUSH1 0x20 ADD PUSH2 0x3770 JUMP JUMPDEST POP POP POP POP SWAP1 POP ADD DUP5 PUSH1 0x5 PUSH1 0x20 MUL DUP1 DUP4 DUP4 PUSH1 0x0 JUMPDEST DUP4 DUP2 LT ISZERO PUSH2 0x37B3 JUMPI DUP2 DUP2 ADD MLOAD DUP4 DUP3 ADD MSTORE PUSH1 0x20 ADD PUSH2 0x379B JUMP JUMPDEST POP POP POP POP SWAP1 POP ADD DUP4 DUP2 MSTORE PUSH1 0x20 ADD DUP3 DUP2 SUB DUP3 MSTORE DUP7 DUP2 DUP2 MLOAD DUP2 MSTORE PUSH1 0x20 ADD SWAP2 POP DUP1 MLOAD SWAP1 PUSH1 0x20 ADD SWAP1 DUP1 DUP4 DUP4 PUSH1 0x0 JUMPDEST DUP4 DUP2 LT ISZERO PUSH2 0x37F5 JUMPI DUP2 DUP2 ADD MLOAD DUP4 DUP3 ADD MSTORE PUSH1 0x20 ADD PUSH2 0x37DD JUMP JUMPDEST POP POP POP POP SWAP1 POP SWAP1 DUP2 ADD SWAP1 PUSH1 0x1F AND DUP1 ISZERO PUSH2 0x3822 JUMPI DUP1 DUP3 SUB DUP1 MLOAD PUSH1 0x1 DUP4 PUSH1 0x20 SUB PUSH2 0x100 EXP SUB NOT AND DUP2 MSTORE PUSH1 0x20 ADD SWAP2 POP JUMPDEST POP SWAP6 POP POP POP POP POP POP PUSH1 0x40 MLOAD DUP1 SWAP2 SUB SWAP1 LOG3 DUP2 PUSH1 0x1 ADD PUSH1 0x5 EQ ISZERO PUSH2 0x389A JUMPI PUSH2 0x3848 DUP8 DUP8 PUSH2 0x4002 JUMP JUMPDEST PUSH32 0xDFBEC46864BC123768F0D134913175D9577A55BB71B9B2595FDA21E21F36B082 PUSH1 0x0 SWAP1 DUP2 MSTORE PUSH1 0x46 PUSH1 0x20 MSTORE PUSH32 0x7DF1EB1754BC067736FF3D89AF41D339BF906D31B0F5978E3C78F402D4ED2492 SSTORE PUSH2 0x38EC JUMP JUMPDEST PUSH32 0xDFBEC46864BC123768F0D134913175D9577A55BB71B9B2595FDA21E21F36B082 PUSH1 0x0 MSTORE PUSH1 0x46 PUSH1 0x20 MSTORE PUSH32 0x7DF1EB1754BC067736FF3D89AF41D339BF906D31B0F5978E3C78F402D4ED2492 DUP1 SLOAD PUSH1 0x1 ADD SWAP1 SSTORE JUMPDEST POP POP POP POP POP POP POP JUMP JUMPDEST DUP1 PUSH2 0x38FF JUMPI PUSH2 0x9A2 JUMP JUMPDEST PUSH2 0x3909 DUP3 DUP3 PUSH2 0x195D JUMP JUMPDEST PUSH2 0x3944 JUMPI PUSH1 0x40 MLOAD PUSH3 0x461BCD PUSH1 0xE5 SHL DUP2 MSTORE PUSH1 0x4 ADD DUP1 DUP1 PUSH1 0x20 ADD DUP3 DUP2 SUB DUP3 MSTORE PUSH1 0x27 DUP2 MSTORE PUSH1 0x20 ADD DUP1 PUSH2 0x4FAA PUSH1 0x27 SWAP2 CODECOPY PUSH1 0x40 ADD SWAP2 POP POP PUSH1 0x40 MLOAD DUP1 SWAP2 SUB SWAP1 REVERT JUMPDEST PUSH1 0x0 PUSH2 0x394F DUP4 PUSH2 0x1175 JUMP JUMPDEST SWAP1 POP DUP2 PUSH1 0x1 PUSH1 0x1 PUSH1 0x80 SHL SUB DUP1 DUP4 AND DUP3 DUP5 SUB SWAP1 SWAP2 AND GT ISZERO PUSH2 0x39AA JUMPI PUSH1 0x40 DUP1 MLOAD PUSH3 0x461BCD PUSH1 0xE5 SHL DUP2 MSTORE PUSH1 0x20 PUSH1 0x4 DUP3 ADD MSTORE PUSH1 0x11 PUSH1 0x24 DUP3 ADD MSTORE PUSH17 0x13DD995C999B1BDDC81A185C1C195B9959 PUSH1 0x7A SHL PUSH1 0x44 DUP3 ADD MSTORE SWAP1 MLOAD SWAP1 DUP2 SWAP1 SUB PUSH1 0x64 ADD SWAP1 REVERT JUMPDEST PUSH1 0x0 DUP1 MLOAD PUSH1 0x20 PUSH2 0x5012 DUP4 CODECOPY DUP2 MLOAD SWAP2 MSTORE PUSH1 0x0 MSTORE PUSH1 0x46 PUSH1 0x20 MSTORE PUSH1 0x0 DUP1 MLOAD PUSH1 0x20 PUSH2 0x4EF3 DUP4 CODECOPY DUP2 MLOAD SWAP2 MSTORE SLOAD DUP4 DUP2 SUB DUP2 LT ISZERO PUSH2 0x3A1C JUMPI PUSH1 0x40 DUP1 MLOAD PUSH3 0x461BCD PUSH1 0xE5 SHL DUP2 MSTORE PUSH1 0x20 PUSH1 0x4 DUP3 ADD MSTORE PUSH1 0x11 PUSH1 0x24 DUP3 ADD MSTORE PUSH17 0x13DD995C999B1BDDC81A185C1C195B9959 PUSH1 0x7A SHL PUSH1 0x44 DUP3 ADD MSTORE SWAP1 MLOAD SWAP1 DUP2 SWAP1 SUB PUSH1 0x64 ADD SWAP1 REVERT JUMPDEST PUSH2 0x3A28 DUP6 DUP4 DUP6 SUB PUSH2 0x294E JUMP JUMPDEST POP POP PUSH1 0x0 DUP1 MLOAD PUSH1 0x20 PUSH2 0x5012 DUP4 CODECOPY DUP2 MLOAD SWAP2 MSTORE PUSH1 0x0 MSTORE POP PUSH1 0x46 PUSH1 0x20 MSTORE PUSH1 0x0 DUP1 MLOAD PUSH1 0x20 PUSH2 0x4EF3 DUP4 CODECOPY DUP2 MLOAD SWAP2 MSTORE DUP1 SLOAD DUP3 SWAP1 SUB SWAP1 SSTORE POP POP JUMP JUMPDEST PUSH1 0x0 DUP3 DUP2 MSTORE PUSH1 0x45 PUSH1 0x20 SWAP1 DUP2 MSTORE PUSH1 0x40 DUP1 DUP4 KECCAK256 PUSH1 0x0 DUP1 MLOAD PUSH1 0x20 PUSH2 0x510F DUP4 CODECOPY DUP2 MLOAD SWAP2 MSTORE DUP5 MSTORE PUSH1 0x1 DUP2 ADD SWAP1 SWAP3 MSTORE SWAP1 SWAP2 KECCAK256 SLOAD PUSH2 0x3A93 SWAP1 DUP4 PUSH2 0x485B JUMP JUMPDEST PUSH1 0x0 DUP1 MLOAD PUSH1 0x20 PUSH2 0x510F DUP4 CODECOPY DUP2 MLOAD SWAP2 MSTORE PUSH1 0x0 SWAP1 DUP2 MSTORE PUSH1 0x1 DUP4 ADD PUSH1 0x20 MSTORE PUSH1 0x40 SWAP1 KECCAK256 SSTORE PUSH1 0x3A SLOAD DUP4 EQ DUP1 PUSH2 0x3AC4 JUMPI POP PUSH1 0x3C SLOAD DUP4 EQ JUMPDEST DUP1 PUSH2 0x3AD0 JUMPI POP PUSH1 0x3E SLOAD DUP4 EQ JUMPDEST DUP1 PUSH2 0x3ADC JUMPI POP PUSH1 0x40 SLOAD DUP4 EQ JUMPDEST DUP1 PUSH2 0x3AE8 JUMPI POP PUSH1 0x42 SLOAD DUP4 EQ JUMPDEST ISZERO PUSH2 0x3B1E JUMPI PUSH1 0x0 DUP1 MLOAD PUSH1 0x20 PUSH2 0x5032 DUP4 CODECOPY DUP2 MLOAD SWAP2 MSTORE PUSH1 0x0 MSTORE PUSH1 0x46 PUSH1 0x20 MSTORE PUSH1 0x0 DUP1 MLOAD PUSH1 0x20 PUSH2 0x4FD1 DUP4 CODECOPY DUP2 MLOAD SWAP2 MSTORE DUP1 SLOAD DUP4 ADD SWAP1 SSTORE PUSH2 0x23EB JUMP JUMPDEST PUSH32 0xF68D680AB3160F1AA5D9C3A1383C49E3E60BF3C0C031245CBB036F5CE99AFAA1 PUSH1 0x0 SWAP1 DUP2 MSTORE PUSH1 0x1 DUP3 ADD PUSH1 0x20 MSTORE PUSH1 0x40 SWAP1 KECCAK256 SLOAD PUSH2 0x3C54 JUMPI PUSH1 0x40 DUP1 MLOAD PUSH2 0x660 DUP2 ADD SWAP2 DUP3 SWAP1 MSTORE PUSH1 0x0 SWAP2 DUP3 SWAP2 PUSH2 0x3B8F SWAP2 DUP4 SWAP1 PUSH1 0x33 SWAP1 DUP3 DUP5 JUMPDEST DUP2 SLOAD DUP2 MSTORE PUSH1 0x20 ADD SWAP1 PUSH1 0x1 ADD SWAP1 DUP1 DUP4 GT PUSH2 0x3B72 JUMPI POP POP POP POP POP PUSH2 0x4871 JUMP JUMPDEST PUSH1 0x0 DUP1 MLOAD PUSH1 0x20 PUSH2 0x510F DUP4 CODECOPY DUP2 MLOAD SWAP2 MSTORE PUSH1 0x0 SWAP1 DUP2 MSTORE PUSH1 0x1 DUP7 ADD PUSH1 0x20 MSTORE PUSH1 0x40 SWAP1 KECCAK256 SLOAD SWAP2 SWAP4 POP SWAP2 POP DUP3 LT DUP1 PUSH2 0x3BBF JUMPI POP DUP2 ISZERO JUMPDEST ISZERO PUSH2 0x3C4D JUMPI PUSH1 0x0 DUP1 MLOAD PUSH1 0x20 PUSH2 0x510F DUP4 CODECOPY DUP2 MLOAD SWAP2 MSTORE PUSH1 0x0 SWAP1 DUP2 MSTORE PUSH1 0x1 DUP5 ADD PUSH1 0x20 MSTORE PUSH1 0x40 DUP2 KECCAK256 SLOAD SWAP1 DUP3 PUSH1 0x33 DUP2 LT PUSH2 0x3BF0 JUMPI INVALID JUMPDEST ADD SSTORE PUSH1 0x0 DUP2 DUP2 MSTORE PUSH1 0x35 PUSH1 0x20 SWAP1 DUP2 MSTORE PUSH1 0x40 DUP1 DUP4 KECCAK256 DUP1 SLOAD DUP5 MSTORE PUSH1 0x45 DUP4 MSTORE DUP2 DUP5 KECCAK256 PUSH32 0xF68D680AB3160F1AA5D9C3A1383C49E3E60BF3C0C031245CBB036F5CE99AFAA1 DUP6 MSTORE PUSH1 0x1 SWAP1 DUP2 ADD DUP5 MSTORE DUP3 DUP6 KECCAK256 DUP6 SWAP1 SSTORE SWAP1 DUP10 SWAP1 SSTORE DUP7 ADD SWAP1 SWAP2 MSTORE SWAP1 KECCAK256 DUP2 SWAP1 SSTORE JUMPDEST POP POP PUSH2 0x23EB JUMP JUMPDEST PUSH32 0xF68D680AB3160F1AA5D9C3A1383C49E3E60BF3C0C031245CBB036F5CE99AFAA1 PUSH1 0x0 SWAP1 DUP2 MSTORE PUSH1 0x1 DUP3 ADD PUSH1 0x20 MSTORE PUSH1 0x40 DUP2 KECCAK256 SLOAD DUP4 SWAP2 SWAP1 PUSH1 0x33 DUP2 LT PUSH2 0x3C93 JUMPI INVALID JUMPDEST ADD DUP1 SLOAD SWAP1 SWAP2 ADD SWAP1 SSTORE POP POP POP JUMP JUMPDEST PUSH1 0x1 PUSH1 0x1 PUSH1 0xA0 SHL SUB DUP2 AND PUSH1 0x0 SWAP1 DUP2 MSTORE PUSH1 0x4B PUSH1 0x20 MSTORE PUSH1 0x40 SWAP1 KECCAK256 SLOAD PUSH1 0xFF AND ISZERO PUSH2 0x3D01 JUMPI PUSH1 0x40 DUP1 MLOAD PUSH3 0x461BCD PUSH1 0xE5 SHL DUP2 MSTORE PUSH1 0x20 PUSH1 0x4 DUP3 ADD MSTORE PUSH1 0x10 PUSH1 0x24 DUP3 ADD MSTORE PUSH16 0x105B1C9958591E481B5A59DC985D1959 PUSH1 0x82 SHL PUSH1 0x44 DUP3 ADD MSTORE SWAP1 MLOAD SWAP1 DUP2 SWAP1 SUB PUSH1 0x64 ADD SWAP1 REVERT JUMPDEST PUSH32 0x56E0987DB9EAEC01ED9E0AF003A0FD5C062371F9D23722EB4A3EBC74F16EA371 PUSH1 0x0 MSTORE PUSH1 0x47 PUSH1 0x20 SWAP1 DUP2 MSTORE PUSH32 0xC930326AAB6C1874FC004D856083A6ED34E057E064970B7EFFB48E8E6E8CA127 SLOAD PUSH1 0x40 DUP1 MLOAD PUSH4 0x70A08231 PUSH1 0xE0 SHL DUP2 MSTORE PUSH1 0x1 PUSH1 0x1 PUSH1 0xA0 SHL SUB DUP1 DUP7 AND PUSH1 0x4 DUP4 ADD MSTORE SWAP2 MLOAD PUSH2 0x3DCB SWAP5 DUP7 SWAP5 SWAP4 SWAP1 SWAP4 AND SWAP3 PUSH4 0x70A08231 SWAP3 PUSH1 0x24 DUP1 DUP3 ADD SWAP4 SWAP2 DUP3 SWAP1 SUB ADD DUP2 DUP7 DUP1 EXTCODESIZE ISZERO DUP1 ISZERO PUSH2 0x3D9A JUMPI PUSH1 0x0 DUP1 REVERT JUMPDEST POP GAS STATICCALL ISZERO DUP1 ISZERO PUSH2 0x3DAE JUMPI RETURNDATASIZE PUSH1 0x0 DUP1 RETURNDATACOPY RETURNDATASIZE PUSH1 0x0 REVERT JUMPDEST POP POP POP POP PUSH1 0x40 MLOAD RETURNDATASIZE PUSH1 0x20 DUP2 LT ISZERO PUSH2 0x3DC4 JUMPI PUSH1 0x0 DUP1 REVERT JUMPDEST POP MLOAD PUSH2 0x48C0 JUMP JUMPDEST PUSH1 0x1 PUSH1 0x1 PUSH1 0xA0 SHL SUB AND PUSH1 0x0 SWAP1 DUP2 MSTORE PUSH1 0x4B PUSH1 0x20 MSTORE PUSH1 0x40 SWAP1 KECCAK256 DUP1 SLOAD PUSH1 0xFF NOT AND PUSH1 0x1 OR SWAP1 SSTORE JUMP JUMPDEST PUSH1 0x0 DUP3 DUP3 GT ISZERO PUSH2 0x3DFB JUMPI INVALID JUMPDEST POP SWAP1 SUB SWAP1 JUMP JUMPDEST DUP1 PUSH2 0x3E67 JUMPI PUSH1 0x1 PUSH1 0x1 PUSH1 0xA0 SHL SUB DUP4 AND PUSH1 0x0 SWAP1 DUP2 MSTORE PUSH1 0x4B PUSH1 0x20 MSTORE PUSH1 0x40 SWAP1 KECCAK256 SLOAD PUSH1 0xFF AND ISZERO PUSH2 0x3E67 JUMPI PUSH1 0x40 DUP1 MLOAD PUSH3 0x461BCD PUSH1 0xE5 SHL DUP2 MSTORE PUSH1 0x20 PUSH1 0x4 DUP3 ADD MSTORE PUSH1 0x10 PUSH1 0x24 DUP3 ADD MSTORE PUSH16 0x185B1C9958591E481B5A59DC985D1959 PUSH1 0x82 SHL PUSH1 0x44 DUP3 ADD MSTORE SWAP1 MLOAD SWAP1 DUP2 SWAP1 SUB PUSH1 0x64 ADD SWAP1 REVERT JUMPDEST PUSH2 0x3E71 DUP4 DUP4 PUSH2 0x48C0 JUMP JUMPDEST POP POP PUSH1 0x1 PUSH1 0x1 PUSH1 0xA0 SHL SUB AND PUSH1 0x0 SWAP1 DUP2 MSTORE PUSH1 0x4B PUSH1 0x20 MSTORE PUSH1 0x40 SWAP1 KECCAK256 DUP1 SLOAD PUSH1 0xFF NOT AND PUSH1 0x1 OR SWAP1 SSTORE JUMP JUMPDEST PUSH1 0x0 DUP1 DUP3 SGT ISZERO PUSH2 0x3EB4 JUMPI POP DUP2 DUP2 ADD DUP3 DUP2 SLT ISZERO PUSH2 0x3EAF JUMPI INVALID JUMPDEST PUSH2 0x93B JUMP JUMPDEST POP DUP2 DUP2 ADD DUP3 DUP2 SGT ISZERO PUSH2 0x93B JUMPI INVALID JUMPDEST PUSH1 0x0 DUP1 DUP3 SGT ISZERO PUSH2 0x3EDA JUMPI POP DUP1 DUP3 SUB DUP3 DUP2 SGT ISZERO PUSH2 0x3EAF JUMPI INVALID JUMPDEST POP DUP1 DUP3 SUB DUP3 DUP2 SLT ISZERO PUSH2 0x93B JUMPI INVALID JUMPDEST PUSH32 0x2C8B528FBAF48AAF13162A5A0519A7AD5A612DA8FF8783465C17E076660A59F1 PUSH1 0x0 SWAP1 DUP2 MSTORE PUSH1 0x46 PUSH1 0x20 MSTORE PUSH32 0x231BB0DC207F13DD4E565EBC32496C470E35391BD8D3B6649269EE2328E03118 SLOAD TIMESTAMP SUB SWAP1 PUSH2 0x3F44 PUSH2 0x4B0 DUP4 PUSH2 0x4AA7 JUMP JUMPDEST PUSH1 0x46 PUSH1 0x20 MSTORE PUSH1 0x0 DUP1 MLOAD PUSH1 0x20 PUSH2 0x5052 DUP4 CODECOPY DUP2 MLOAD SWAP2 MSTORE SLOAD PUSH32 0xD4F87B8D0F3D3B7E665DF74631F6100B2695DAA0E30E40EEAC02172E15A999E1 PUSH1 0x0 MSTORE PUSH32 0x8156E704072C396780F8253D0562DE28216B73A1503DAA96E259B9CDD951D71C SLOAD PUSH2 0xFA0 SWAP3 SWAP1 SUB DUP2 MUL SWAP2 SWAP1 SWAP2 SDIV SWAP2 POP DUP2 PUSH2 0x3FB7 JUMPI PUSH1 0x1 SWAP2 POP JUMPDEST PUSH2 0x3FC4 DUP3 DUP3 ADD PUSH1 0x1 PUSH2 0x4ABD JUMP JUMPDEST PUSH32 0xF758978FC1647996A3D9992F611883ADC442931DC49488312360ACC90601759B PUSH1 0x0 MSTORE PUSH1 0x46 PUSH1 0x20 MSTORE PUSH1 0x0 DUP1 MLOAD PUSH1 0x20 PUSH2 0x5052 DUP4 CODECOPY DUP2 MLOAD SWAP2 MSTORE SSTORE POP POP POP JUMP JUMPDEST PUSH32 0xE97D205F7D20BF394E3813033D2203B4733ACB28B351C8D2A771647AB0D41C3C SLOAD PUSH1 0x0 SWAP1 DUP2 MSTORE PUSH1 0x45 PUSH1 0x20 SWAP1 DUP2 MSTORE PUSH1 0x40 DUP3 KECCAK256 PUSH32 0x52CB9007C7C6068F8EF37039D4F232CBF5A28FF8D93A5983C4C0C27CD2F9BC0D SLOAD PUSH32 0x2C8B528FBAF48AAF13162A5A0519A7AD5A612DA8FF8783465C17E076660A59F1 SWAP1 SWAP4 MSTORE PUSH1 0x46 SWAP1 SWAP2 MSTORE PUSH32 0x231BB0DC207F13DD4E565EBC32496C470E35391BD8D3B6649269EE2328E03118 DUP1 SLOAD TIMESTAMP SWAP2 DUP3 SWAP1 SSTORE SWAP2 SWAP3 SWAP2 SWAP1 PUSH2 0x40B3 PUSH2 0x4E37 JUMP JUMPDEST PUSH2 0x40BB PUSH2 0x4E37 JUMP JUMPDEST PUSH1 0x0 JUMPDEST PUSH1 0x5 DUP2 LT ISZERO PUSH2 0x440C JUMPI PUSH1 0x1 JUMPDEST PUSH1 0x5 DUP2 LT ISZERO PUSH2 0x4279 JUMPI PUSH1 0x0 DUP3 DUP2 MSTORE PUSH1 0x6 DUP10 ADD PUSH1 0x20 MSTORE PUSH1 0x40 DUP2 KECCAK256 DUP3 PUSH1 0x5 DUP2 LT PUSH2 0x40EE JUMPI INVALID JUMPDEST ADD SLOAD SWAP1 POP PUSH1 0x0 DUP10 PUSH1 0x5 ADD PUSH1 0x0 DUP6 DUP2 MSTORE PUSH1 0x20 ADD SWAP1 DUP2 MSTORE PUSH1 0x20 ADD PUSH1 0x0 KECCAK256 DUP4 PUSH1 0x5 DUP2 LT PUSH2 0x4114 JUMPI INVALID JUMPDEST ADD SLOAD PUSH1 0x1 PUSH1 0x1 PUSH1 0xA0 SHL SUB AND SWAP1 POP DUP3 JUMPDEST PUSH1 0x0 DUP2 GT DUP1 ISZERO PUSH2 0x4152 JUMPI POP PUSH1 0x0 DUP6 DUP2 MSTORE PUSH1 0x6 DUP13 ADD PUSH1 0x20 MSTORE PUSH1 0x40 SWAP1 KECCAK256 PUSH1 0x0 NOT DUP3 ADD PUSH1 0x5 DUP2 LT PUSH2 0x414D JUMPI INVALID JUMPDEST ADD SLOAD DUP4 LT JUMPDEST ISZERO PUSH2 0x4209 JUMPI PUSH1 0x0 DUP6 DUP2 MSTORE PUSH1 0x6 DUP13 ADD PUSH1 0x20 MSTORE PUSH1 0x40 SWAP1 KECCAK256 PUSH1 0x0 NOT DUP3 ADD PUSH1 0x5 DUP2 LT PUSH2 0x4176 JUMPI INVALID JUMPDEST ADD SLOAD PUSH1 0x0 DUP7 DUP2 MSTORE PUSH1 0x6 DUP14 ADD PUSH1 0x20 MSTORE PUSH1 0x40 SWAP1 KECCAK256 DUP3 PUSH1 0x5 DUP2 LT PUSH2 0x4193 JUMPI INVALID JUMPDEST ADD SSTORE PUSH1 0x0 DUP6 DUP2 MSTORE PUSH1 0x5 DUP1 DUP14 ADD PUSH1 0x20 MSTORE PUSH1 0x40 SWAP1 SWAP2 KECCAK256 SWAP1 PUSH1 0x0 NOT DUP4 ADD SWAP1 DUP2 LT PUSH2 0x41B6 JUMPI INVALID JUMPDEST ADD SLOAD PUSH1 0x0 DUP7 DUP2 MSTORE PUSH1 0x5 DUP1 DUP15 ADD PUSH1 0x20 MSTORE PUSH1 0x40 SWAP1 SWAP2 KECCAK256 PUSH1 0x1 PUSH1 0x1 PUSH1 0xA0 SHL SUB SWAP1 SWAP3 AND SWAP2 SWAP1 DUP4 SWAP1 DUP2 LT PUSH2 0x41E1 JUMPI INVALID JUMPDEST ADD DUP1 SLOAD PUSH1 0x1 PUSH1 0x1 PUSH1 0xA0 SHL SUB NOT AND PUSH1 0x1 PUSH1 0x1 PUSH1 0xA0 SHL SUB SWAP3 SWAP1 SWAP3 AND SWAP2 SWAP1 SWAP2 OR SWAP1 SSTORE PUSH1 0x0 NOT ADD PUSH2 0x4123 JUMP JUMPDEST DUP4 DUP2 LT ISZERO PUSH2 0x426E JUMPI PUSH1 0x0 DUP6 DUP2 MSTORE PUSH1 0x6 DUP13 ADD PUSH1 0x20 MSTORE PUSH1 0x40 SWAP1 KECCAK256 DUP4 SWAP1 DUP3 PUSH1 0x5 DUP2 LT PUSH2 0x422E JUMPI INVALID JUMPDEST ADD SSTORE PUSH1 0x0 DUP6 DUP2 MSTORE PUSH1 0x5 DUP1 DUP14 ADD PUSH1 0x20 MSTORE PUSH1 0x40 SWAP1 SWAP2 KECCAK256 DUP4 SWAP2 DUP4 SWAP1 DUP2 LT PUSH2 0x424E JUMPI INVALID JUMPDEST ADD DUP1 SLOAD PUSH1 0x1 PUSH1 0x1 PUSH1 0xA0 SHL SUB NOT AND PUSH1 0x1 PUSH1 0x1 PUSH1 0xA0 SHL SUB SWAP3 SWAP1 SWAP3 AND SWAP2 SWAP1 SWAP2 OR SWAP1 SSTORE JUMPDEST POP POP POP PUSH1 0x1 ADD PUSH2 0x40CA JUMP JUMPDEST POP PUSH1 0x0 PUSH1 0x45 PUSH1 0x0 DUP11 DUP5 PUSH1 0x5 DUP2 LT PUSH2 0x428C JUMPI INVALID JUMPDEST PUSH1 0x20 MUL ADD MLOAD DUP2 MSTORE PUSH1 0x20 ADD SWAP1 DUP2 MSTORE PUSH1 0x20 ADD PUSH1 0x0 KECCAK256 SWAP1 POP DUP8 PUSH1 0x6 ADD PUSH1 0x0 DUP4 DUP2 MSTORE PUSH1 0x20 ADD SWAP1 DUP2 MSTORE PUSH1 0x20 ADD PUSH1 0x0 KECCAK256 PUSH1 0x5 DUP1 PUSH1 0x20 MUL PUSH1 0x40 MLOAD SWAP1 DUP2 ADD PUSH1 0x40 MSTORE DUP1 SWAP3 SWAP2 SWAP1 DUP3 PUSH1 0x5 DUP1 ISZERO PUSH2 0x42ED JUMPI PUSH1 0x20 MUL DUP3 ADD SWAP2 JUMPDEST DUP2 SLOAD DUP2 MSTORE PUSH1 0x20 ADD SWAP1 PUSH1 0x1 ADD SWAP1 DUP1 DUP4 GT PUSH2 0x42D9 JUMPI JUMPDEST POP POP POP POP POP SWAP4 POP DUP4 PUSH1 0x2 PUSH1 0x5 DUP2 LT PUSH2 0x4301 JUMPI INVALID JUMPDEST PUSH1 0x20 SWAP1 DUP2 MUL SWAP2 SWAP1 SWAP2 ADD MLOAD PUSH1 0x0 DUP8 DUP2 MSTORE PUSH1 0x3 DUP5 ADD SWAP1 SWAP3 MSTORE PUSH1 0x40 SWAP2 DUP3 SWAP1 KECCAK256 SSTORE DUP5 ADD MLOAD DUP4 DUP4 PUSH1 0x5 DUP2 LT PUSH2 0x432D JUMPI INVALID JUMPDEST PUSH1 0x20 SWAP1 DUP2 MUL SWAP2 SWAP1 SWAP2 ADD SWAP2 SWAP1 SWAP2 MSTORE PUSH1 0x0 DUP4 DUP2 MSTORE PUSH1 0x5 DUP1 DUP12 ADD DUP4 MSTORE PUSH1 0x40 DUP1 DUP4 KECCAK256 DUP10 DUP5 MSTORE DUP6 DUP4 ADD SWAP1 SWAP5 MSTORE SWAP1 SWAP2 KECCAK256 PUSH2 0x4362 SWAP3 SWAP1 SWAP2 PUSH2 0x4E55 JUMP JUMPDEST POP PUSH1 0x0 DUP3 DUP2 MSTORE PUSH1 0x6 DUP1 DUP11 ADD PUSH1 0x20 SWAP1 DUP2 MSTORE PUSH1 0x40 DUP1 DUP5 KECCAK256 DUP10 DUP6 MSTORE SWAP3 DUP6 ADD SWAP1 SWAP2 MSTORE SWAP1 SWAP2 KECCAK256 PUSH2 0x438E SWAP2 PUSH1 0x5 PUSH2 0x4E55 JUMP JUMPDEST POP PUSH1 0x0 DUP3 DUP2 MSTORE PUSH1 0x5 DUP10 ADD PUSH1 0x20 MSTORE PUSH1 0x40 DUP2 KECCAK256 PUSH2 0x43A8 SWAP2 PUSH2 0x4E90 JUMP JUMPDEST PUSH1 0x0 DUP3 DUP2 MSTORE PUSH1 0x6 DUP10 ADD PUSH1 0x20 MSTORE PUSH1 0x40 DUP2 KECCAK256 PUSH2 0x43C1 SWAP2 PUSH2 0x4E90 JUMP JUMPDEST DUP1 SLOAD PUSH1 0x1 DUP2 DUP2 ADD DUP4 SSTORE PUSH1 0x0 DUP4 DUP2 MSTORE PUSH1 0x20 DUP1 DUP3 KECCAK256 SWAP1 SWAP4 ADD DUP9 SWAP1 SSTORE DUP8 DUP2 MSTORE PUSH1 0x2 DUP5 ADD DUP4 MSTORE PUSH1 0x40 DUP1 DUP3 KECCAK256 NUMBER SWAP1 SSTORE PUSH1 0x0 DUP1 MLOAD PUSH1 0x20 PUSH2 0x510F DUP4 CODECOPY DUP2 MLOAD SWAP2 MSTORE DUP3 MSTORE SWAP4 DUP3 ADD SWAP1 SWAP3 MSTORE SWAP2 DUP2 KECCAK256 SSTORE ADD PUSH2 0x40BE JUMP JUMPDEST POP DUP5 PUSH32 0xBEB3B9F46C8D7BB00C873FCA10D307538DF350866D25F891FFB395147DDBDC45 DUP9 DUP6 DUP5 PUSH1 0x46 PUSH1 0x0 PUSH1 0x0 DUP1 MLOAD PUSH1 0x20 PUSH2 0x5032 DUP4 CODECOPY DUP2 MLOAD SWAP2 MSTORE PUSH1 0x0 SHL DUP2 MSTORE PUSH1 0x20 ADD SWAP1 DUP2 MSTORE PUSH1 0x20 ADD PUSH1 0x0 KECCAK256 SLOAD PUSH1 0x40 MLOAD DUP1 DUP6 PUSH1 0x5 PUSH1 0x20 MUL DUP1 DUP4 DUP4 PUSH1 0x0 JUMPDEST DUP4 DUP2 LT ISZERO PUSH2 0x447F JUMPI DUP2 DUP2 ADD MLOAD DUP4 DUP3 ADD MSTORE PUSH1 0x20 ADD PUSH2 0x4467 JUMP JUMPDEST POP POP POP POP SWAP1 POP ADD DUP5 DUP2 MSTORE PUSH1 0x20 ADD DUP4 PUSH1 0x5 PUSH1 0x20 MUL DUP1 DUP4 DUP4 PUSH1 0x0 JUMPDEST DUP4 DUP2 LT ISZERO PUSH2 0x44B0 JUMPI DUP2 DUP2 ADD MLOAD DUP4 DUP3 ADD MSTORE PUSH1 0x20 ADD PUSH2 0x4498 JUMP JUMPDEST POP POP POP POP SWAP1 POP ADD DUP3 DUP2 MSTORE PUSH1 0x20 ADD SWAP5 POP POP POP POP POP PUSH1 0x40 MLOAD DUP1 SWAP2 SUB SWAP1 LOG2 PUSH1 0x33 DUP1 SLOAD PUSH1 0x1 DUP2 ADD DUP3 SSTORE PUSH1 0x0 SWAP2 SWAP1 SWAP2 MSTORE PUSH32 0x82A75BDEEAE8604D839476AE9EFD8B0E15AA447E21BFD7F41283BB54E22C9A82 ADD DUP4 SWAP1 SSTORE PUSH2 0x4508 PUSH2 0x4E37 JUMP JUMPDEST DUP8 MLOAD PUSH1 0x0 SWAP1 DUP2 MSTORE PUSH1 0x45 PUSH1 0x20 SWAP1 DUP2 MSTORE PUSH1 0x40 DUP1 DUP4 KECCAK256 DUP8 DUP5 MSTORE PUSH1 0x5 SWAP1 DUP2 ADD SWAP1 SWAP3 MSTORE SWAP2 DUP3 SWAP1 KECCAK256 DUP3 MLOAD PUSH1 0xA0 DUP2 ADD SWAP4 DUP5 SWAP1 MSTORE SWAP3 SWAP1 SWAP2 SWAP1 DUP3 DUP5 JUMPDEST DUP2 SLOAD PUSH1 0x1 PUSH1 0x1 PUSH1 0xA0 SHL SUB AND DUP2 MSTORE PUSH1 0x1 SWAP1 SWAP2 ADD SWAP1 PUSH1 0x20 ADD DUP1 DUP4 GT PUSH2 0x453B JUMPI POP POP POP POP POP SWAP1 POP PUSH2 0x4569 DUP2 DUP7 PUSH2 0x4ACC JUMP JUMPDEST PUSH32 0xF3B93531FA65B3A18680D9EA49DF06D96FBD883C4889DC7DB866F8B131602DFB PUSH1 0x0 MSTORE PUSH1 0x46 PUSH1 0x20 MSTORE PUSH32 0xE97D205F7D20BF394E3813033D2203B4733ACB28B351C8D2A771647AB0D41C3C DUP1 SLOAD PUSH1 0x1 ADD SWAP1 SSTORE PUSH2 0x45C2 PUSH2 0x4E37 JUMP JUMPDEST PUSH2 0x45CA PUSH2 0x4BFE JUMP JUMPDEST SWAP1 POP PUSH1 0x0 JUMPDEST PUSH1 0x5 DUP2 LT ISZERO PUSH2 0x46E1 JUMPI DUP2 DUP2 PUSH1 0x5 DUP2 LT PUSH2 0x45E4 JUMPI INVALID JUMPDEST PUSH1 0x20 MUL ADD MLOAD PUSH1 0x3A DUP3 PUSH1 0x5 DUP2 LT PUSH2 0x45F6 JUMPI INVALID JUMPDEST PUSH1 0x2 MUL ADD SSTORE PUSH1 0x0 DUP1 PUSH1 0x45 DUP2 DUP6 DUP6 PUSH1 0x5 DUP2 LT PUSH2 0x460D JUMPI INVALID JUMPDEST PUSH1 0x20 MUL ADD MLOAD DUP2 MSTORE PUSH1 0x20 ADD SWAP1 DUP2 MSTORE PUSH1 0x20 ADD PUSH1 0x0 KECCAK256 PUSH1 0x1 ADD PUSH1 0x0 PUSH32 0xF68D680AB3160F1AA5D9C3A1383C49E3E60BF3C0C031245CBB036F5CE99AFAA1 PUSH1 0x0 SHL DUP2 MSTORE PUSH1 0x20 ADD SWAP1 DUP2 MSTORE PUSH1 0x20 ADD PUSH1 0x0 KECCAK256 SLOAD PUSH1 0x33 DUP2 LT PUSH2 0x4662 JUMPI INVALID JUMPDEST ADD SSTORE PUSH1 0x45 PUSH1 0x0 DUP4 DUP4 PUSH1 0x5 DUP2 LT PUSH2 0x4674 JUMPI INVALID JUMPDEST PUSH1 0x20 SWAP1 DUP2 MUL SWAP2 SWAP1 SWAP2 ADD MLOAD DUP3 MSTORE DUP2 DUP2 ADD SWAP3 SWAP1 SWAP3 MSTORE PUSH1 0x40 SWAP1 DUP2 ADD PUSH1 0x0 SWAP1 DUP2 KECCAK256 PUSH1 0x0 DUP1 MLOAD PUSH1 0x20 PUSH2 0x510F DUP4 CODECOPY DUP2 MLOAD SWAP2 MSTORE DUP3 MSTORE PUSH1 0x1 SWAP1 DUP2 ADD DUP5 MSTORE SWAP2 DUP2 KECCAK256 SLOAD PUSH1 0x0 DUP1 MLOAD PUSH1 0x20 PUSH2 0x5032 DUP4 CODECOPY DUP2 MLOAD SWAP2 MSTORE SWAP1 SWAP2 MSTORE PUSH1 0x46 SWAP1 SWAP3 MSTORE PUSH1 0x0 DUP1 MLOAD PUSH1 0x20 PUSH2 0x4FD1 DUP4 CODECOPY DUP2 MLOAD SWAP2 MSTORE DUP1 SLOAD SWAP1 SWAP3 ADD SWAP1 SWAP2 SSTORE ADD PUSH2 0x45CF JUMP JUMPDEST POP DUP10 DUP8 PUSH1 0x1 NUMBER SUB BLOCKHASH PUSH1 0x40 MLOAD PUSH1 0x20 ADD DUP1 DUP1 PUSH1 0x20 ADD DUP5 DUP2 MSTORE PUSH1 0x20 ADD DUP4 DUP2 MSTORE PUSH1 0x20 ADD DUP3 DUP2 SUB DUP3 MSTORE DUP6 DUP2 DUP2 MLOAD DUP2 MSTORE PUSH1 0x20 ADD SWAP2 POP DUP1 MLOAD SWAP1 PUSH1 0x20 ADD SWAP1 DUP1 DUP4 DUP4 PUSH1 0x0 JUMPDEST DUP4 DUP2 LT ISZERO PUSH2 0x4735 JUMPI DUP2 DUP2 ADD MLOAD DUP4 DUP3 ADD MSTORE PUSH1 0x20 ADD PUSH2 0x471D JUMP JUMPDEST POP POP POP POP SWAP1 POP SWAP1 DUP2 ADD SWAP1 PUSH1 0x1F AND DUP1 ISZERO PUSH2 0x4762 JUMPI DUP1 DUP3 SUB DUP1 MLOAD PUSH1 0x1 DUP4 PUSH1 0x20 SUB PUSH2 0x100 EXP SUB NOT AND DUP2 MSTORE PUSH1 0x20 ADD SWAP2 POP JUMPDEST POP PUSH1 0x40 DUP1 MLOAD PUSH1 0x1F NOT DUP2 DUP5 SUB ADD DUP2 MSTORE SWAP1 DUP3 SWAP1 MSTORE DUP1 MLOAD PUSH1 0x20 SWAP2 DUP3 ADD KECCAK256 PUSH32 0x52CB9007C7C6068F8EF37039D4F232CBF5A28FF8D93A5983C4C0C27CD2F9BC0D DUP2 SWAP1 SSTORE PUSH1 0x46 SWAP1 SWAP2 MSTORE PUSH1 0x0 DUP1 MLOAD PUSH1 0x20 PUSH2 0x5052 DUP4 CODECOPY DUP2 MLOAD SWAP2 MSTORE SLOAD PUSH1 0x0 DUP1 MLOAD PUSH1 0x20 PUSH2 0x5032 DUP4 CODECOPY DUP2 MLOAD SWAP2 MSTORE PUSH1 0x0 SWAP1 DUP2 MSTORE PUSH1 0x0 DUP1 MLOAD PUSH1 0x20 PUSH2 0x4FD1 DUP4 CODECOPY DUP2 MLOAD SWAP2 MSTORE SLOAD SWAP3 SWAP16 POP DUP16 SWAP9 POP PUSH32 0x1D85CE10456E29B67DE37887496D3F1FCF1B64C79C4D07484038703A9F5C1408 SWAP8 POP DUP10 SWAP7 POP SWAP1 SWAP5 POP SWAP1 SWAP3 POP DUP2 SWAP1 DUP6 SWAP1 PUSH1 0xA0 SWAP1 DUP2 SWAP1 DUP5 SWAP1 DUP5 SWAP1 JUMPDEST DUP4 DUP2 LT ISZERO PUSH2 0x4831 JUMPI DUP2 DUP2 ADD MLOAD DUP4 DUP3 ADD MSTORE PUSH1 0x20 ADD PUSH2 0x4819 JUMP JUMPDEST POP POP POP POP SWAP2 SWAP1 SWAP2 ADD SWAP4 DUP5 MSTORE POP POP PUSH1 0x20 DUP3 ADD MSTORE PUSH1 0x40 DUP1 MLOAD SWAP2 DUP3 SWAP1 SUB ADD SWAP2 POP LOG2 POP POP POP POP POP POP POP POP POP POP JUMP JUMPDEST PUSH1 0x0 DUP3 DUP3 ADD DUP4 DUP2 LT ISZERO PUSH2 0x486A JUMPI INVALID JUMPDEST SWAP4 SWAP3 POP POP POP JUMP JUMPDEST PUSH2 0x640 DUP2 ADD MLOAD PUSH1 0x32 PUSH1 0x31 JUMPDEST DUP1 ISZERO PUSH2 0x48BA JUMPI DUP3 DUP5 DUP3 PUSH1 0x33 DUP2 LT PUSH2 0x488F JUMPI INVALID JUMPDEST PUSH1 0x20 MUL ADD MLOAD LT ISZERO PUSH2 0x48B1 JUMPI DUP4 DUP2 PUSH1 0x33 DUP2 LT PUSH2 0x48A6 JUMPI INVALID JUMPDEST PUSH1 0x20 MUL ADD MLOAD SWAP3 POP DUP1 SWAP2 POP JUMPDEST PUSH1 0x0 NOT ADD PUSH2 0x487C JUMP JUMPDEST POP SWAP2 POP SWAP2 JUMP JUMPDEST DUP1 PUSH2 0x48FC JUMPI PUSH1 0x40 MLOAD PUSH3 0x461BCD PUSH1 0xE5 SHL DUP2 MSTORE PUSH1 0x4 ADD DUP1 DUP1 PUSH1 0x20 ADD DUP3 DUP2 SUB DUP3 MSTORE PUSH1 0x21 DUP2 MSTORE PUSH1 0x20 ADD DUP1 PUSH2 0x4F89 PUSH1 0x21 SWAP2 CODECOPY PUSH1 0x40 ADD SWAP2 POP POP PUSH1 0x40 MLOAD DUP1 SWAP2 SUB SWAP1 REVERT JUMPDEST PUSH1 0x1 PUSH1 0x1 PUSH1 0xA0 SHL SUB DUP3 AND PUSH2 0x494F JUMPI PUSH1 0x40 DUP1 MLOAD PUSH3 0x461BCD PUSH1 0xE5 SHL DUP2 MSTORE PUSH1 0x20 PUSH1 0x4 DUP3 ADD MSTORE PUSH1 0x15 PUSH1 0x24 DUP3 ADD MSTORE PUSH21 0x526563656976657220697320302061646472657373 PUSH1 0x58 SHL PUSH1 0x44 DUP3 ADD MSTORE SWAP1 MLOAD SWAP1 DUP2 SWAP1 SUB PUSH1 0x64 ADD SWAP1 REVERT JUMPDEST PUSH1 0x0 PUSH2 0x495A DUP4 PUSH2 0x1175 JUMP JUMPDEST SWAP1 POP DUP2 PUSH1 0x1 PUSH1 0x1 PUSH1 0x80 SHL SUB DUP1 DUP4 AND DUP3 DUP5 ADD SWAP1 SWAP2 AND LT ISZERO PUSH2 0x49B5 JUMPI PUSH1 0x40 DUP1 MLOAD PUSH3 0x461BCD PUSH1 0xE5 SHL DUP2 MSTORE PUSH1 0x20 PUSH1 0x4 DUP3 ADD MSTORE PUSH1 0x11 PUSH1 0x24 DUP3 ADD MSTORE PUSH17 0x13DD995C999B1BDDC81A185C1C195B9959 PUSH1 0x7A SHL PUSH1 0x44 DUP3 ADD MSTORE SWAP1 MLOAD SWAP1 DUP2 SWAP1 SUB PUSH1 0x64 ADD SWAP1 REVERT JUMPDEST PUSH1 0x0 DUP1 MLOAD PUSH1 0x20 PUSH2 0x5012 DUP4 CODECOPY DUP2 MLOAD SWAP2 MSTORE PUSH1 0x0 MSTORE PUSH1 0x46 PUSH1 0x20 MSTORE PUSH1 0x0 DUP1 MLOAD PUSH1 0x20 PUSH2 0x4EF3 DUP4 CODECOPY DUP2 MLOAD SWAP2 MSTORE SLOAD DUP4 DUP2 ADD DUP2 GT ISZERO PUSH2 0x4A27 JUMPI PUSH1 0x40 DUP1 MLOAD PUSH3 0x461BCD PUSH1 0xE5 SHL DUP2 MSTORE PUSH1 0x20 PUSH1 0x4 DUP3 ADD MSTORE PUSH1 0x11 PUSH1 0x24 DUP3 ADD MSTORE PUSH17 0x13DD995C999B1BDDC81A185C1C195B9959 PUSH1 0x7A SHL PUSH1 0x44 DUP3 ADD MSTORE SWAP1 MLOAD SWAP1 DUP2 SWAP1 SUB PUSH1 0x64 ADD SWAP1 REVERT JUMPDEST PUSH1 0x0 DUP1 MLOAD PUSH1 0x20 PUSH2 0x5012 DUP4 CODECOPY DUP2 MLOAD SWAP2 MSTORE PUSH1 0x0 MSTORE PUSH1 0x46 PUSH1 0x20 MSTORE PUSH1 0x0 DUP1 MLOAD PUSH1 0x20 PUSH2 0x4EF3 DUP4 CODECOPY DUP2 MLOAD SWAP2 MSTORE DUP1 SLOAD DUP6 ADD SWAP1 SSTORE PUSH2 0x4A5F DUP6 DUP5 DUP5 ADD PUSH2 0x294E JUMP JUMPDEST PUSH1 0x40 DUP1 MLOAD DUP6 DUP2 MSTORE SWAP1 MLOAD PUSH1 0x1 PUSH1 0x1 PUSH1 0xA0 SHL SUB DUP8 AND SWAP2 PUSH1 0x0 SWAP2 PUSH32 0xDDF252AD1BE2C89B69C2B068FC378DAA952BA7F163C4A11628F55A4DF523B3EF SWAP2 DUP2 SWAP1 SUB PUSH1 0x20 ADD SWAP1 LOG3 POP POP POP POP POP JUMP JUMPDEST PUSH1 0x0 DUP2 DUP4 LT PUSH2 0x4AB6 JUMPI DUP2 PUSH2 0x486A JUMP JUMPDEST POP SWAP1 SWAP2 SWAP1 POP JUMP JUMPDEST PUSH1 0x0 DUP2 DUP4 SGT PUSH2 0x4AB6 JUMPI DUP2 PUSH2 0x486A JUMP JUMPDEST PUSH1 0x46 PUSH1 0x20 MSTORE PUSH32 0xC2C579D641B643400780D5C7CE967B420034B9F66962A5EE405CF70E4CBED6BB SLOAD PUSH1 0x0 DUP1 MLOAD PUSH1 0x20 PUSH2 0x5032 DUP4 CODECOPY DUP2 MLOAD SWAP2 MSTORE PUSH1 0x0 SWAP1 DUP2 MSTORE PUSH1 0x0 DUP1 MLOAD PUSH1 0x20 PUSH2 0x4FD1 DUP4 CODECOPY DUP2 MLOAD SWAP2 MSTORE SLOAD TIMESTAMP DUP5 SWAP1 SUB SWAP3 PUSH2 0x12C SWAP1 DUP5 MUL DIV SWAP2 PUSH1 0xA SWAP1 SWAP2 DIV SWAP1 PUSH1 0x2 DUP4 DIV SWAP1 PUSH2 0x4B43 SWAP1 DUP8 SWAP1 JUMPDEST PUSH1 0x20 MUL ADD MLOAD DUP4 DUP6 ADD PUSH2 0x48C0 JUMP JUMPDEST PUSH2 0x4B4E DUP7 PUSH1 0x1 PUSH2 0x4B36 JUMP JUMPDEST PUSH2 0x4B59 DUP7 PUSH1 0x2 PUSH2 0x4B36 JUMP JUMPDEST PUSH2 0x4B64 DUP7 PUSH1 0x3 PUSH2 0x4B36 JUMP JUMPDEST PUSH2 0x4B6F DUP7 PUSH1 0x4 PUSH2 0x4B36 JUMP JUMPDEST PUSH32 0x7A39905194DE50BDE334D18B76BBB36DDDD11641D4D50B470CB837CF3BAE5DEF PUSH1 0x0 MSTORE PUSH1 0x47 PUSH1 0x20 MSTORE PUSH32 0xB5F7E7387E8E977CC9C4C9513388B0D7224264B9A0159CD8E8BDD84A9ED504C3 SLOAD PUSH2 0x4BCD SWAP1 PUSH1 0x1 PUSH1 0x1 PUSH1 0xA0 SHL SUB AND DUP3 PUSH2 0x48C0 JUMP JUMPDEST POP POP PUSH1 0x0 DUP1 MLOAD PUSH1 0x20 PUSH2 0x5032 DUP4 CODECOPY DUP2 MLOAD SWAP2 MSTORE PUSH1 0x0 SWAP1 DUP2 MSTORE PUSH1 0x46 PUSH1 0x20 MSTORE PUSH1 0x0 DUP1 MLOAD PUSH1 0x20 PUSH2 0x4FD1 DUP4 CODECOPY DUP2 MLOAD SWAP2 MSTORE SSTORE POP POP POP POP JUMP JUMPDEST PUSH2 0x4C06 PUSH2 0x4E37 JUMP JUMPDEST PUSH2 0x4C0E PUSH2 0x4E37 JUMP JUMPDEST PUSH2 0x4C16 PUSH2 0x4E37 JUMP JUMPDEST PUSH1 0x40 DUP1 MLOAD PUSH2 0x660 DUP2 ADD SWAP2 DUP3 SWAP1 MSTORE PUSH2 0x4C4D SWAP2 PUSH1 0x0 SWAP1 PUSH1 0x33 SWAP1 DUP3 DUP5 JUMPDEST DUP2 SLOAD DUP2 MSTORE PUSH1 0x20 ADD SWAP1 PUSH1 0x1 ADD SWAP1 DUP1 DUP4 GT PUSH2 0x4C30 JUMPI POP POP POP POP POP PUSH2 0x4CE3 JUMP JUMPDEST SWAP1 SWAP3 POP SWAP1 POP PUSH1 0x0 JUMPDEST PUSH1 0x5 DUP2 LT ISZERO PUSH2 0x4CDD JUMPI DUP3 DUP2 PUSH1 0x5 DUP2 LT PUSH2 0x4C6A JUMPI INVALID JUMPDEST PUSH1 0x20 MUL ADD MLOAD ISZERO PUSH2 0x4CAE JUMPI PUSH1 0x35 PUSH1 0x0 DUP4 DUP4 PUSH1 0x5 DUP2 LT PUSH2 0x4C84 JUMPI INVALID JUMPDEST PUSH1 0x20 MUL ADD MLOAD DUP2 MSTORE PUSH1 0x20 ADD SWAP1 DUP2 MSTORE PUSH1 0x20 ADD PUSH1 0x0 KECCAK256 SLOAD DUP5 DUP3 PUSH1 0x5 DUP2 LT PUSH2 0x4CA4 JUMPI INVALID JUMPDEST PUSH1 0x20 MUL ADD MSTORE PUSH2 0x4CD5 JUMP JUMPDEST PUSH1 0x3A DUP2 PUSH1 0x4 SUB PUSH1 0x5 DUP2 LT PUSH2 0x4CBE JUMPI INVALID JUMPDEST PUSH1 0x2 MUL ADD SLOAD DUP5 DUP3 PUSH1 0x5 DUP2 LT PUSH2 0x4CCF JUMPI INVALID JUMPDEST PUSH1 0x20 MUL ADD MSTORE JUMPDEST PUSH1 0x1 ADD PUSH2 0x4C55 JUMP JUMPDEST POP POP POP SWAP1 JUMP JUMPDEST PUSH2 0x4CEB PUSH2 0x4E37 JUMP JUMPDEST PUSH2 0x4CF3 PUSH2 0x4E37 JUMP JUMPDEST PUSH1 0x20 DUP4 ADD MLOAD PUSH1 0x0 DUP1 JUMPDEST PUSH1 0x5 DUP2 LT ISZERO PUSH2 0x4D76 JUMPI DUP6 DUP2 PUSH1 0x1 ADD PUSH1 0x33 DUP2 LT PUSH2 0x4D14 JUMPI INVALID JUMPDEST PUSH1 0x20 MUL ADD MLOAD DUP6 DUP3 PUSH1 0x5 DUP2 LT PUSH2 0x4D25 JUMPI INVALID JUMPDEST PUSH1 0x20 MUL ADD MSTORE PUSH1 0x1 DUP2 ADD DUP5 DUP3 PUSH1 0x5 DUP2 LT PUSH2 0x4D3A JUMPI INVALID JUMPDEST PUSH1 0x20 MUL ADD MSTORE DUP3 DUP6 DUP3 PUSH1 0x5 DUP2 LT PUSH2 0x4D4C JUMPI INVALID JUMPDEST PUSH1 0x20 MUL ADD MLOAD LT ISZERO PUSH2 0x4D6E JUMPI DUP5 DUP2 PUSH1 0x5 DUP2 LT PUSH2 0x4D63 JUMPI INVALID JUMPDEST PUSH1 0x20 MUL ADD MLOAD SWAP3 POP DUP1 SWAP2 POP JUMPDEST PUSH1 0x1 ADD PUSH2 0x4CFC JUMP JUMPDEST POP PUSH1 0x6 JUMPDEST PUSH1 0x33 DUP2 LT ISZERO PUSH2 0x4E2F JUMPI DUP3 DUP7 DUP3 PUSH1 0x33 DUP2 LT PUSH2 0x4D90 JUMPI INVALID JUMPDEST PUSH1 0x20 MUL ADD MLOAD GT ISZERO PUSH2 0x4E27 JUMPI DUP6 DUP2 PUSH1 0x33 DUP2 LT PUSH2 0x4DA7 JUMPI INVALID JUMPDEST PUSH1 0x20 MUL ADD MLOAD DUP6 DUP4 PUSH1 0x5 DUP2 LT PUSH2 0x4DB8 JUMPI INVALID JUMPDEST PUSH1 0x20 MUL ADD MSTORE DUP1 DUP5 DUP4 PUSH1 0x5 DUP2 LT PUSH2 0x4DCA JUMPI INVALID JUMPDEST PUSH1 0x20 MUL ADD MSTORE DUP6 DUP2 PUSH1 0x33 DUP2 LT PUSH2 0x4DDB JUMPI INVALID JUMPDEST PUSH1 0x20 MUL ADD MLOAD SWAP3 POP PUSH1 0x0 JUMPDEST PUSH1 0x5 DUP2 LT ISZERO PUSH2 0x4E25 JUMPI DUP4 DUP7 DUP3 PUSH1 0x5 DUP2 LT PUSH2 0x4DFB JUMPI INVALID JUMPDEST PUSH1 0x20 MUL ADD MLOAD LT ISZERO PUSH2 0x4E1D JUMPI DUP6 DUP2 PUSH1 0x5 DUP2 LT PUSH2 0x4E12 JUMPI INVALID JUMPDEST PUSH1 0x20 MUL ADD MLOAD SWAP4 POP DUP1 SWAP3 POP JUMPDEST PUSH1 0x1 ADD PUSH2 0x4DE5 JUMP JUMPDEST POP JUMPDEST PUSH1 0x1 ADD PUSH2 0x4D7A JUMP JUMPDEST POP POP POP SWAP2 POP SWAP2 JUMP JUMPDEST PUSH1 0x40 MLOAD DUP1 PUSH1 0xA0 ADD PUSH1 0x40 MSTORE DUP1 PUSH1 0x5 SWAP1 PUSH1 0x20 DUP3 MUL DUP1 CALLDATASIZE DUP4 CALLDATACOPY POP SWAP2 SWAP3 SWAP2 POP POP JUMP JUMPDEST DUP3 PUSH1 0x5 DUP2 ADD SWAP3 DUP3 ISZERO PUSH2 0x4E80 JUMPI SWAP2 DUP3 ADD JUMPDEST DUP3 DUP2 GT ISZERO PUSH2 0x4E80 JUMPI DUP3 SLOAD DUP3 SSTORE SWAP2 PUSH1 0x1 ADD SWAP2 SWAP1 PUSH1 0x1 ADD SWAP1 PUSH2 0x4E65 JUMP JUMPDEST POP PUSH2 0x4E8C SWAP3 SWAP2 POP PUSH2 0x4EB3 JUMP JUMPDEST POP SWAP1 JUMP JUMPDEST POP PUSH1 0x0 DUP2 SSTORE PUSH1 0x1 ADD PUSH1 0x0 DUP2 SSTORE PUSH1 0x1 ADD PUSH1 0x0 DUP2 SSTORE PUSH1 0x1 ADD PUSH1 0x0 DUP2 SSTORE PUSH1 0x1 ADD PUSH1 0x0 SWAP1 SSTORE JUMP JUMPDEST JUMPDEST DUP1 DUP3 GT ISZERO PUSH2 0x4E8C JUMPI PUSH1 0x0 DUP2 SSTORE PUSH1 0x1 ADD PUSH2 0x4EB4 JUMP INVALID 0x4D PUSH10 0x6E65722063616E206F6E PUSH13 0x792077696E2072657761726473 KECCAK256 PUSH16 0x6E636520706572203135206D696EFFFE 0xEA 0xD1 0xEC ISZERO XOR 0x1F 0xD5 PUSH28 0x4590D95E0C076BCCB59E311315E8B38F23C710AA7C3E66756E637469 PUSH16 0x6E206E6F742063616C6C61626C652066 PUSH16 0x726B20666F726B2070726F706F73616C PUSH20 0x45524332303A20617070726F766520746F207468 PUSH6 0x207A65726F20 PUSH2 0x6464 PUSH19 0x65737354696D6520666F72206120666F6C6C6F PUSH24 0x2075702064697370757465206861736E277420656C617073 PUSH6 0x645472696564 KECCAK256 PUSH21 0x6F206D696E74206E6F6E2D706F7369746976652061 PUSH14 0x6F756E7453686F756C6420686176 PUSH6 0x207375666669 PUSH4 0x69656E74 KECCAK256 PUSH3 0x616C61 PUSH15 0x636520746F20747261646538B16D06 LOG2 EXP 0xB6 PUSH20 0xB01C748AFF938DF6A38F81640035F4CE8BD9ABB0 GASPRICE 0xAE JUMPDEST PUSH19 0x547269656420746F2073656E64206E6F6E2D70 PUSH16 0x73697469766520616D6F756E74E6148E PUSH19 0x30CA038D456350E69A91B66968B222BFAC9EBF 0xBE 0xA6 SELFDESTRUCT EXP 0x1F 0xB7 CODESIZE ADD PUSH1 0x9 PUSH6 0x9D32F99E50AC PUSH19 0x8058418D38174FE83A137C455FF1847E6FB8E1 0x5F PUSH25 0xF77A5BCCD7373734898281F858D7562320D2CDFC0B17BD72F7 PUSH26 0x686937174D15002544697370757465206D757374206265207374 PUSH2 0x7274 PUSH6 0x642077697468 PUSH10 0x6E2061207765656B206F PUSH7 0x20626164207661 PUSH13 0x75654D696E657220616C726561 PUSH5 0x7920737562 PUSH14 0x6974746564207468652076616C75 PUSH6 0x746865206469 PUSH20 0x707574652068617320616C726561647920626565 PUSH15 0x206578656375746564496E636F7272 PUSH6 0x6374206E6F6E PUSH4 0x6520666F PUSH19 0x2063757272656E74206368616C6C656E676515 SWAP1 0x27 PUSH12 0x7F31DD8E2A06F9A92867333E 0xEB RETURNDATACOPY 0xDD 0xBC SWAP2 0xE7 EXTCODESIZE SWAP9 CALLER 0xE3 0xE5 0x5D DUP15 CALLVALUE 0xF7 PUSH30 0xA264697066735822122014DD21BE0379CE7634B20F9676280B3842ED13D2 CODECOPY JUMPI DUP13 ORIGIN 0x5F PUSH31 0xE1D8B3C5DC2764736F6C634300070400330000000000000000000000000000 "},"methodIdentifiers":{"_allowances(address,address)":"024c2ddd","addTip(uint256,uint256)":"752d49a1","addresses(bytes32)":"699f200f","allowance(address,address)":"dd62ed3e","allowedToTrade(address,uint256)":"999cf26c","approve(address,uint256)":"095ea7b3","balanceOf(address)":"70a08231","balanceOfAt(address,uint256)":"4ee2cd7e","balances(address,uint256)":"cbf1304d","beginDispute(uint256,uint256,uint256)":"8581af19","bumpVersion()":"d304d8bf","bytesVars(bytes32)":"62dd1d2a","currentMiners(uint256)":"1fd22364","disputeIdByDisputeHash(bytes32)":"d01f4d9e","disputesById(uint256)":"db085beb","manuallySetDifficulty(uint256)":"c52e9539","migrate()":"8fd3ab80","migrateFor(address,uint256,bool)":"a9fa7d34","migrated(address)":"4ba0a5ee","minersByChallenge(bytes32,address)":"48b18e54","newValueTimestamps(uint256)":"438c0aa3","proposeFork(address)":"26b7d9f6","requestIdByQueryHash(bytes32)":"5700242c","setBalanceTest(address,uint256)":"21d513dc","submitMiningSolution(string,uint256[5],uint256[5])":"4350283e","testSubmitMiningSolution(string,uint256[5],uint256[5])":"d47f0dd4","transfer(address,uint256)":"a9059cbb","transferFrom(address,address,uint256)":"23b872dd","uints(bytes32)":"b59e14d4","unlockDisputeFee(uint256)":"9a01ca13","verify()":"fc735e99","vote(uint256,bool)":"c9d27afe"}}}}}