{"contracts/tellor360/oldContracts/contracts/tellor3/TellorStake.sol":{"TellorStake":{"abi":[{"anonymous":false,"inputs":[{"indexed":true,"internalType":"address","name":"_owner","type":"address"},{"indexed":true,"internalType":"address","name":"_spender","type":"address"},{"indexed":false,"internalType":"uint256","name":"_value","type":"uint256"}],"name":"Approval","type":"event"},{"anonymous":false,"inputs":[{"indexed":true,"internalType":"uint256","name":"_disputeId","type":"uint256"},{"indexed":true,"internalType":"uint256","name":"_requestId","type":"uint256"},{"indexed":false,"internalType":"uint256","name":"_timestamp","type":"uint256"},{"indexed":false,"internalType":"address","name":"_miner","type":"address"}],"name":"NewDispute","type":"event"},{"anonymous":false,"inputs":[{"indexed":true,"internalType":"address","name":"_from","type":"address"},{"indexed":true,"internalType":"address","name":"_to","type":"address"},{"indexed":false,"internalType":"uint256","name":"_value","type":"uint256"}],"name":"Transfer","type":"event"},{"anonymous":false,"inputs":[{"indexed":true,"internalType":"uint256","name":"_disputeID","type":"uint256"},{"indexed":false,"internalType":"bool","name":"_position","type":"bool"},{"indexed":true,"internalType":"address","name":"_voter","type":"address"},{"indexed":true,"internalType":"uint256","name":"_voteWeight","type":"uint256"}],"name":"Voted","type":"event"},{"inputs":[{"internalType":"address","name":"","type":"address"},{"internalType":"address","name":"","type":"address"}],"name":"_allowances","outputs":[{"internalType":"uint256","name":"","type":"uint256"}],"stateMutability":"view","type":"function"},{"inputs":[{"internalType":"bytes32","name":"","type":"bytes32"}],"name":"addresses","outputs":[{"internalType":"address","name":"","type":"address"}],"stateMutability":"view","type":"function"},{"inputs":[{"internalType":"address","name":"_user","type":"address"},{"internalType":"address","name":"_spender","type":"address"}],"name":"allowance","outputs":[{"internalType":"uint256","name":"","type":"uint256"}],"stateMutability":"view","type":"function"},{"inputs":[{"internalType":"address","name":"_user","type":"address"},{"internalType":"uint256","name":"_amount","type":"uint256"}],"name":"allowedToTrade","outputs":[{"internalType":"bool","name":"","type":"bool"}],"stateMutability":"view","type":"function"},{"inputs":[{"internalType":"address","name":"_spender","type":"address"},{"internalType":"uint256","name":"_amount","type":"uint256"}],"name":"approve","outputs":[{"internalType":"bool","name":"","type":"bool"}],"stateMutability":"nonpayable","type":"function"},{"inputs":[{"internalType":"address","name":"_user","type":"address"}],"name":"balanceOf","outputs":[{"internalType":"uint256","name":"","type":"uint256"}],"stateMutability":"view","type":"function"},{"inputs":[{"internalType":"address","name":"_user","type":"address"},{"internalType":"uint256","name":"_blockNumber","type":"uint256"}],"name":"balanceOfAt","outputs":[{"internalType":"uint256","name":"","type":"uint256"}],"stateMutability":"view","type":"function"},{"inputs":[{"internalType":"address","name":"","type":"address"},{"internalType":"uint256","name":"","type":"uint256"}],"name":"balances","outputs":[{"internalType":"uint128","name":"fromBlock","type":"uint128"},{"internalType":"uint128","name":"value","type":"uint128"}],"stateMutability":"view","type":"function"},{"inputs":[{"internalType":"uint256","name":"_requestId","type":"uint256"},{"internalType":"uint256","name":"_timestamp","type":"uint256"},{"internalType":"uint256","name":"_minerIndex","type":"uint256"}],"name":"beginDispute","outputs":[],"stateMutability":"nonpayable","type":"function"},{"inputs":[{"internalType":"bytes32","name":"","type":"bytes32"}],"name":"bytesVars","outputs":[{"internalType":"bytes32","name":"","type":"bytes32"}],"stateMutability":"view","type":"function"},{"inputs":[{"internalType":"uint256","name":"","type":"uint256"}],"name":"currentMiners","outputs":[{"internalType":"uint256","name":"value","type":"uint256"},{"internalType":"address","name":"miner","type":"address"}],"stateMutability":"view","type":"function"},{"inputs":[{"internalType":"bytes32","name":"","type":"bytes32"}],"name":"disputeIdByDisputeHash","outputs":[{"internalType":"uint256","name":"","type":"uint256"}],"stateMutability":"view","type":"function"},{"inputs":[{"internalType":"uint256","name":"","type":"uint256"}],"name":"disputesById","outputs":[{"internalType":"bytes32","name":"hash","type":"bytes32"},{"internalType":"int256","name":"tally","type":"int256"},{"internalType":"bool","name":"executed","type":"bool"},{"internalType":"bool","name":"disputeVotePassed","type":"bool"},{"internalType":"bool","name":"isPropFork","type":"bool"},{"internalType":"address","name":"reportedMiner","type":"address"},{"internalType":"address","name":"reportingParty","type":"address"},{"internalType":"address","name":"proposedForkAddress","type":"address"}],"stateMutability":"view","type":"function"},{"inputs":[{"internalType":"address","name":"","type":"address"}],"name":"migrated","outputs":[{"internalType":"bool","name":"","type":"bool"}],"stateMutability":"view","type":"function"},{"inputs":[{"internalType":"bytes32","name":"","type":"bytes32"},{"internalType":"address","name":"","type":"address"}],"name":"minersByChallenge","outputs":[{"internalType":"bool","name":"","type":"bool"}],"stateMutability":"view","type":"function"},{"inputs":[{"internalType":"uint256","name":"","type":"uint256"}],"name":"newValueTimestamps","outputs":[{"internalType":"uint256","name":"","type":"uint256"}],"stateMutability":"view","type":"function"},{"inputs":[{"internalType":"address","name":"_propNewTellorAddress","type":"address"}],"name":"proposeFork","outputs":[],"stateMutability":"nonpayable","type":"function"},{"inputs":[{"internalType":"bytes32","name":"","type":"bytes32"}],"name":"requestIdByQueryHash","outputs":[{"internalType":"uint256","name":"","type":"uint256"}],"stateMutability":"view","type":"function"},{"inputs":[{"internalType":"address","name":"_to","type":"address"},{"internalType":"uint256","name":"_amount","type":"uint256"}],"name":"transfer","outputs":[{"internalType":"bool","name":"success","type":"bool"}],"stateMutability":"nonpayable","type":"function"},{"inputs":[{"internalType":"address","name":"_from","type":"address"},{"internalType":"address","name":"_to","type":"address"},{"internalType":"uint256","name":"_amount","type":"uint256"}],"name":"transferFrom","outputs":[{"internalType":"bool","name":"success","type":"bool"}],"stateMutability":"nonpayable","type":"function"},{"inputs":[{"internalType":"bytes32","name":"","type":"bytes32"}],"name":"uints","outputs":[{"internalType":"uint256","name":"","type":"uint256"}],"stateMutability":"view","type":"function"},{"inputs":[{"internalType":"uint256","name":"_disputeId","type":"uint256"}],"name":"unlockDisputeFee","outputs":[],"stateMutability":"nonpayable","type":"function"},{"inputs":[],"name":"verify","outputs":[{"internalType":"uint256","name":"","type":"uint256"}],"stateMutability":"nonpayable","type":"function"},{"inputs":[{"internalType":"uint256","name":"_disputeId","type":"uint256"},{"internalType":"bool","name":"_supportsDispute","type":"bool"}],"name":"vote","outputs":[],"stateMutability":"nonpayable","type":"function"}],"evm":{"bytecode":{"linkReferences":{},"object":"608060405234801561001057600080fd5b50612865806100206000396000f3fe608060405234801561001057600080fd5b50600436106101985760003560e01c806370a08231116100e3578063c9d27afe1161008c578063db085beb11610066578063db085beb14610545578063dd62ed3e146105b2578063fc735e99146105e057610198565b8063c9d27afe146104a8578063cbf1304d146104cd578063d01f4d9e1461052857610198565b80639a01ca13116100bd5780639a01ca1314610442578063a9059cbb1461045f578063b59e14d41461048b57610198565b806370a08231146103c75780638581af19146103ed578063999cf26c1461041657610198565b806348b18e54116101455780635700242c1161011f5780635700242c1461035457806362dd1d2a14610371578063699f200f1461038e57610198565b806348b18e54146102d65780634ba0a5ee146103025780634ee2cd7e1461032857610198565b806323b872dd1161017657806323b872dd1461025b57806326b7d9f614610291578063438c0aa3146102b957610198565b8063024c2ddd1461019d578063095ea7b3146101dd5780631fd223641461021d575b600080fd5b6101cb600480360360408110156101b357600080fd5b506001600160a01b03813581169160200135166105e8565b60408051918252519081900360200190f35b610209600480360360408110156101f357600080fd5b506001600160a01b038135169060200135610605565b604080519115158252519081900360200190f35b61023a6004803603602081101561023357600080fd5b50356106b4565b604080519283526001600160a01b0390911660208301528051918290030190f35b6102096004803603606081101561027157600080fd5b506001600160a01b038135811691602081013590911690604001356106df565b6102b7600480360360208110156102a757600080fd5b50356001600160a01b031661078b565b005b6101cb600480360360208110156102cf57600080fd5b5035610aaf565b610209600480360360408110156102ec57600080fd5b50803590602001356001600160a01b0316610ad0565b6102096004803603602081101561031857600080fd5b50356001600160a01b0316610af0565b6101cb6004803603604081101561033e57600080fd5b506001600160a01b038135169060200135610b05565b6101cb6004803603602081101561036a57600080fd5b5035610cb0565b6101cb6004803603602081101561038757600080fd5b5035610cc2565b6103ab600480360360208110156103a457600080fd5b5035610cd4565b604080516001600160a01b039092168252519081900360200190f35b6101cb600480360360208110156103dd57600080fd5b50356001600160a01b0316610cef565b6102b76004803603606081101561040357600080fd5b5080359060208101359060400135610cfb565b6102096004803603604081101561042c57600080fd5b506001600160a01b0381351690602001356112bc565b6102b76004803603602081101561045857600080fd5b5035611388565b6102096004803603604081101561047557600080fd5b506001600160a01b038135169060200135611c94565b6101cb600480360360208110156104a157600080fd5b5035611caa565b6102b7600480360360408110156104be57600080fd5b50803590602001351515611cbc565b6104f9600480360360408110156104e357600080fd5b506001600160a01b038135169060200135611fc9565b60405180836001600160801b03168152602001826001600160801b031681526020019250505060405180910390f35b6101cb6004803603602081101561053e57600080fd5b503561200c565b6105626004803603602081101561055b57600080fd5b503561201e565b60408051988952602089019790975294151587870152921515606087015290151560808601526001600160a01b0390811660a086015290811660c08501521660e083015251908190036101000190f35b6101cb600480360360408110156105c857600080fd5b506001600160a01b038135811691602001351661207a565b6101cb6120a5565b604a60209081526000928352604080842090915290825290205481565b60006001600160a01b03831661064c5760405162461bcd60e51b81526004018080602001828103825260228152602001806127446022913960400191505060405180910390fd5b336000818152604a602090815260408083206001600160a01b03881680855290835292819020869055805186815290519293927f8c5be1e5ebec7d5bd14f71427d1e84f3dd0314c0f7b2291e5b200ac8c7c3b925929181900390910190a35060015b92915050565b603a81600581106106c457600080fd5b6002020180546001909101549091506001600160a01b031682565b6001600160a01b0383166000908152604a6020908152604080832033845290915281205482111561074c576040805162461bcd60e51b8152602060048201526012602482015271416c6c6f77616e63652069732077726f6e6760701b604482015290519081900360640190fd5b6001600160a01b0384166000908152604a602090815260408083203384529091529020805483900390556107818484846120ab565b5060019392505050565b7fd051321aa26ce60d202f153d0c0e67687e975532ab88ce92d84f18e39895d90760005260466020527f7042aca2505aa9a8428c1710298edbac96e027637d6417651c8aa8f88ed1ca0a5415610817576040805162461bcd60e51b815260206004820152600c60248201526b6e6f2072656e7472616e637960a01b604482015290519081900360640190fd5b7fd051321aa26ce60d202f153d0c0e67687e975532ab88ce92d84f18e39895d907600052604660205260017f7042aca2505aa9a8428c1710298edbac96e027637d6417651c8aa8f88ed1ca0a5561086d81612267565b7fd051321aa26ce60d202f153d0c0e67687e975532ab88ce92d84f18e39895d9076000908152604660209081527f7042aca2505aa9a8428c1710298edbac96e027637d6417651c8aa8f88ed1ca0a829055604080516001600160a01b0385168184015281518082038401815290820182528051908301207f1ce2382bc92689b00ba121fa5a411aa976168affdd8ac143a69035dd984b3b6a80546001019081905581855260389093529220541561096c57600082815260386020908152604080832054848452603683528184207fed92b4c1e0a9e559a31171d487ecbec963526662038ecfa3a71160bd62fb873385526005019092529091205561097e565b60008281526038602052604090208190555b6000828152603860205260408120546109989083906123c9565b6000838152603660205260408120858155600280820180546201000062ff0000199091161776ffffffffffffffffffffffffffffffffffffffff00000019163363010000008102919091179091556003830180546001600160a01b031990811683179091556004840180549091166001600160a01b038b16179055600190920192909255919250610a3d919030906000198501900a68056bc75e2d63100000026120ab565b5060009081526036602090815260408083207f4b4cefd5ced7569ef0d091282b4bca9c52a034c56471a6061afd1bf307a2de7c84526005019091528082204390557f46f7d53798d31923f6952572c6a19ad2d1a8238d26649c2f3493a6d69e425d28825290204262093a800190555050565b60338181548110610abf57600080fd5b600091825260209091200154905081565b603960209081526000928352604080842090915290825290205460ff1681565b604b6020526000908152604090205460ff1681565b6001600160a01b038216600090815260496020526040812080541580610b4b57508281600081548110610b3457fe5b6000918252602090912001546001600160801b0316115b15610b5a5760009150506106ae565b805481906000198101908110610b6c57fe5b6000918252602090912001546001600160801b03168310610bbe57805481906000198101908110610b9957fe5b600091825260209091200154600160801b90046001600160801b031691506106ae9050565b8054600090600119015b81811115610c76576000600260018385010104905085848281548110610bea57fe5b6000918252602090912001546001600160801b03161415610c3957838181548110610c1157fe5b600091825260209091200154600160801b90046001600160801b031694506106ae9350505050565b85848281548110610c4657fe5b6000918252602090912001546001600160801b03161015610c6957809250610c70565b6001810391505b50610bc8565b828281548110610c8257fe5b600091825260209091200154600160801b90046001600160801b031693506106ae92505050565b5092915050565b60376020526000908152604090205481565b60486020526000908152604090205481565b6047602052600090815260409020546001600160a01b031681565b60006106ae8243610b05565b60008381526045602090815260408083208584526002810190925290912054610d5e576040805162461bcd60e51b815260206004820152601060248201526f04d696e656420626c6f636b20697320360841b604482015290519081900360640190fd5b60058210610db3576040805162461bcd60e51b815260206004820152601460248201527f4d696e657220696e6465782069732077726f6e67000000000000000000000000604482015290519081900360640190fd5b60008381526005808301602052604082209084908110610dcf57fe5b015460408051606083811b6bffffffffffffffffffffffff191660208084018290526b111a5cdc1d5d1950dbdd5b9d60a21b603485015284518085038201815284860186528051908201206000908152604682528581208054600190810190915593850192909252607484018b905260948085018b90528551808603909101815260b490940185528351938101939093207f1ce2382bc92689b00ba121fa5a411aa976168affdd8ac143a69035dd984b3b6a805490930192839055808252603890935292909220546001600160a01b039093169350918015610eef5760008281526036602090815260408083207fed92b4c1e0a9e559a31171d487ecbec963526662038ecfa3a71160bd62fb873384526005019091529020819055610f46565b62093a8087420310610f325760405162461bcd60e51b81526004018080602001828103825260328152602001806127d96032913960400191505060405180910390fd5b506000828152603860205260409020819055805b6000610f5283836123c9565b905060008760021415610ff7575060008981526045602090815260408083207f310199159a20c50879ffb440b45802138b5b162ec9426720e9dd3ee8bbcdb9d78452600190810183529083208054909101908190557f5d9fadfc729fd027e395e5157ef1b53ef9fa4a8f053043c5f159307543e7cc97909252604690527f167af83a0768d27540775cfef6d996eb63f8a61fcdfb26e654c18fb50960e3be5402611046565b507f675d2171f68d6f5545d54fb9b1fb61a0e6897e6188ca1cd664e7c9530d91ecfc60005260466020527f3e5522f19747f0f285b96ded572ac4128c3a764aea9f44058dc0afc9dda449865481025b6000848152603660209081526040808320888155600281018054600383018054336001600160a01b031991821617909155600484018054909116905576ffffffffffffffffffffffffffffffffffffffffff0000191663010000006001600160a01b038d16021761ffff19169055600181018490557f9f47a2659c3d32b749ae717d975e7962959890862423c4318cf86e4ec220291f8452600590810183528184208e90557f2f9328a9c75282bec25bb04befad06926366736e0030c985108445fa728335e584528184208d90558c845260068b01909252909120908990811061112c57fe5b015460008581526036602090815260408083207f9147231ab14efb72c38117f68521ddef8de64f092c18c69dbfb602ffc4de7f478452600501909152808220929092557f46f7d53798d31923f6952572c6a19ad2d1a8238d26649c2f3493a6d69e425d2881528181206202a3008502420190557f4b4cefd5ced7569ef0d091282b4bca9c52a034c56471a6061afd1bf307a2de7c81528181204390557f6de96ee4d33a0617f40a846309c8759048857f51b9d59a12d3c3786d4778883d81528181208a90557f1da95f11543c9b03927178e07951795dfc95c7501a9d1cf00e13414ca33bc4098152208190556112233330836120ab565b87600214156112555760008981526004880160209081526040808320805460ff1916600117905560038a019091528120555b6001600160a01b0386166000818152604460209081526040918290206003905581518c81529081019290925280518c9287927feceec1aebf67772b2440120c4b4dc913a1fe1b865509219f9456785c23b9da6492918290030190a350505050505050505050565b6001600160a01b038216600090815260446020526040812054158015906112fb57506001600160a01b0383166000908152604460205260409020546005115b15611375577f5d9fadfc729fd027e395e5157ef1b53ef9fa4a8f053043c5f159307543e7cc9760005260466020527f167af83a0768d27540775cfef6d996eb63f8a61fcdfb26e654c18fb50960e3be5482906113609061135a86610cef565b906125bb565b1061136d575060016106ae565b5060006106ae565b8161137f84610cef565b10159392505050565b7f310199159a20c50879ffb440b45802138b5b162ec9426720e9dd3ee8bbcdb9d760005260466020527f1ce2382bc92689b00ba121fa5a411aa976168affdd8ac143a69035dd984b3b6a54811115611420576040805162461bcd60e51b8152602060048201526016602482015275191a5cdc1d5d1948191bd95cc81b9bdd08195e1a5cdd60521b604482015290519081900360640190fd5b600081815260366020818152604080842054845260388252808420548085529282528084207f6ab2b18aafe78fd59c6a4092015bddd9fcacb8170f72b299074f74d76a91a9238552600501808352818520548251808501919091528251808203850181529083018352805190840120855290915290912054806114a05750805b60008281526036602090815260408083208484528184207f6ab2b18aafe78fd59c6a4092015bddd9fcacb8170f72b299074f74d76a91a923855260058201909352922054806114ed575060015b7f29169706298d2b6df50a532e958b56426de1465348b93650fca42d456eaec5fc600090815260058401602052604081205415611564576040805162461bcd60e51b815260206004820152601060248201526f185b1c9958591e481c185a59081bdd5d60821b604482015290519081900360640190fd5b600284015462010000900460ff16156115ae5760405162461bcd60e51b815260040180806020018281038252602981526020018061271b6029913960400191505060405180910390fd5b7ff9e1ae10923bfc79f52e309baf8c7699edb821f91ef5b5bd07be29545917b3a66000908152600585016020526040902054611631576040805162461bcd60e51b815260206004820152601860248201527f766f7465206e6565647320746f2062652074616c6c6965640000000000000000604482015290519081900360640190fd5b7ff9e1ae10923bfc79f52e309baf8c7699edb821f91ef5b5bd07be29545917b3a66000908152600584016020526040902054620151804291909103116116a85760405162461bcd60e51b815260040180806020018281038252602b815260200180612766602b913960400191505060405180910390fd5b600284810154630100000090046001600160a01b031660009081526044602090815260408083207f29169706298d2b6df50a532e958b56426de1465348b93650fca42d456eaec5fc84526005890190925290912060019081905591850154909161010090910460ff16151514156118d1576201518042064203600182015560466020527fa5ae3e2b97d73fb849ea855d27f073b72815b38452d976bd57e4a157827dadd380546000190190557f5d9fadfc729fd027e395e5157ef1b53ef9fa4a8f053043c5f159307543e7cc976000527f167af83a0768d27540775cfef6d996eb63f8a61fcdfb26e654c18fb50960e3be54600286015481906117ba90630100000090046001600160a01b0316610cef565b10156117e15760028601546117de90630100000090046001600160a01b0316610cef565b90505b81546004141561181c576005825560028601546003870154611817916001600160a01b03630100000090910481169116836120ab565b600082555b60005b848110156118ca57604080518287036020808301919091528251808303820181529183018352815191810191909120600090815260058a019091522054935083611867578893505b600084815260366020908152604080832060038101547f1da95f11543c9b03927178e07951795dfc95c7501a9d1cf00e13414ca33bc4098552600582019093529220546118c19130916001600160a01b03909116906120ab565b5060010161181f565b5050611b78565b600284015460408051630100000090920460601b6bffffffffffffffffffffffff19166020808401919091526b111a5cdc1d5d1950dbdd5b9d60a21b60348401528151808403820181529282018252825192810192909220600090815260469092529020546001141561194357600181555b7f9f47a2659c3d32b749ae717d975e7962959890862423c4318cf86e4ec220291f60009081526005860160208181526040808420548452604582528084207f6de96ee4d33a0617f40a846309c8759048857f51b9d59a12d3c3786d4778883d8552929091529091205460021415611a1e577f9147231ab14efb72c38117f68521ddef8de64f092c18c69dbfb602ffc4de7f4760009081526005870160209081526040808320547f2f9328a9c75282bec25bb04befad06926366736e0030c985108445fa728335e5845281842054845260038501909252909120555b7f2f9328a9c75282bec25bb04befad06926366736e0030c985108445fa728335e5600090815260058701602090815260408083205483526004840190915290205460ff16151560011415611ab5577f2f9328a9c75282bec25bb04befad06926366736e0030c985108445fa728335e560009081526005870160209081526040808320548352600484019091529020805460ff191690555b60005b84811015611b7557604080518287036020808301919091528251808303820181529183018352815191810191909120600090815260058a01909152205493508315611b0e57600084815260366020526040902095505b600286015460008581526036602090815260408083207f1da95f11543c9b03927178e07951795dfc95c7501a9d1cf00e13414ca33bc4098452600501909152902054611b6d91309163010000009091046001600160a01b0316906120ab565b600101611ab8565b50505b60028481015460408051630100000090920460601b6bffffffffffffffffffffffff19166020808401919091526b111a5cdc1d5d1950dbdd5b9d60a21b6034840152815180840382018152928201825282519281019290922060009081526046835281812080546000190190557f6de96ee4d33a0617f40a846309c8759048857f51b9d59a12d3c3786d4778883d8152600589019092529020541415611c8a577f9f47a2659c3d32b749ae717d975e7962959890862423c4318cf86e4ec220291f60009081526005860160209081526040808320548352604582528083207f310199159a20c50879ffb440b45802138b5b162ec9426720e9dd3ee8bbcdb9d78452600101909152902080546000190190555b5050505050505050565b6000611ca13384846120ab565b50600192915050565b60466020526000908152604090205481565b7f310199159a20c50879ffb440b45802138b5b162ec9426720e9dd3ee8bbcdb9d760005260466020527f1ce2382bc92689b00ba121fa5a411aa976168affdd8ac143a69035dd984b3b6a54821115611d54576040805162461bcd60e51b8152602060048201526016602482015275191a5cdc1d5d1948191bd95cc81b9bdd08195e1a5cdd60521b604482015290519081900360640190fd5b6000828152603660205260409020600281015460ff1615611da65760405162461bcd60e51b815260040180806020018281038252602581526020018061280b6025913960400191505060405180910390fd5b7f4b4cefd5ced7569ef0d091282b4bca9c52a034c56471a6061afd1bf307a2de7c6000908152600582016020526040812054611de3903390610b05565b33600090815260068401602052604090205490915060ff16151560011415611e52576040805162461bcd60e51b815260206004820152601860248201527f53656e6465722068617320616c726561647920766f7465640000000000000000604482015290519081900360640190fd5b80611e98576040805162461bcd60e51b81526020600482015260116024820152700557365722062616c616e6365206973203607c1b604482015290519081900360640190fd5b3360009081526044602052604090205460031415611efd576040805162461bcd60e51b815260206004820152601660248201527f4d696e657220697320756e646572206469737075746500000000000000000000604482015290519081900360640190fd5b3360009081526006830160209081526040808320805460ff191660019081179091557f1da378694063870452ce03b189f48e04c1aa026348e74e6c86e10738514ad2c4845260058601909252909120805490910190558215611f72576001820154611f6890826125cd565b6001830155611f87565b6001820154611f8190826125f8565b60018301555b60408051841515815290518291339187917f911ef2e98570b1d96c0e8ef81107a33d5b8e844aeb8f9710f9bc76c3b3fef40e919081900360200190a450505050565b60496020528160005260406000208181548110611fe557600080fd5b6000918252602090912001546001600160801b038082169350600160801b90910416905082565b60386020526000908152604090205481565b603660205260009081526040902080546001820154600283015460038401546004909401549293919260ff808316936101008404821693620100008104909216926001600160a01b036301000000909304831692918216911688565b6001600160a01b039182166000908152604a6020908152604080832093909416825291909152205490565b610bb790565b806120e75760405162461bcd60e51b81526004018080602001828103825260218152602001806127b86021913960400191505060405180910390fd5b6001600160a01b038216612142576040805162461bcd60e51b815260206004820152601560248201527f5265636569766572206973203020616464726573730000000000000000000000604482015290519081900360640190fd5b61214c83826112bc565b6121875760405162461bcd60e51b81526004018080602001828103825260278152602001806127916027913960400191505060405180910390fd5b600061219284610cef565b9050816121a18582840361261e565b6121aa84610cef565b9150816001600160801b03168183016001600160801b03161015612209576040805162461bcd60e51b815260206004820152601160248201527013dd995c999b1bddc81a185c1c195b9959607a1b604482015290519081900360640190fd5b6122158482840161261e565b836001600160a01b0316856001600160a01b03167fddf252ad1be2c89b69c2b068fc378daa952ba7f163c4a11628f55a4df523b3ef856040518082815260200191505060405180910390a35050505050565b60408051602060248201819052600060448301819052835180840360640181526084909301845290820180516001600160e01b031663fc735e9960e01b1781529251825191936060936001600160a01b0387169390929182918083835b602083106122e35780518252601f1990920191602091820191016122c4565b6001836020036101000a0380198251168184511680821785525050505050509050019150506000604051808303816000865af19150503d8060008114612345576040519150601f19603f3d011682016040523d82523d6000602084013e61234a565b606091505b50915091508180156123735750610bb781806020019051602081101561236f57600080fd5b5051115b6123c4576040805162461bcd60e51b815260206004820152601560248201527f6e65772074656c6c6f7220697320696e76616c69640000000000000000000000604482015290519081900360640190fd5b505050565b60008181526036602081815260408084207f6ab2b18aafe78fd59c6a4092015bddd9fcacb8170f72b299074f74d76a91a92385526005018083528185208054600101908190558686529383528151808401859052825180820385018152908301835280519084012085529091529091208390558282146106ae57600082815260366020818152604080842081516000198701818501528251808203850181529083018352805190840120855260059081018352818520548086529383528185207f46f7d53798d31923f6952572c6a19ad2d1a8238d26649c2f3493a6d69e425d2886520190915290912054421015612508576040805162461bcd60e51b815260206004820152601760248201527f4469737075746520697320616c7265616479206f70656e000000000000000000604482015290519081900360640190fd5b60008181526036602052604090206002015460ff1615610ca95760008181526036602090815260408083207ff9e1ae10923bfc79f52e309baf8c7699edb821f91ef5b5bd07be29545917b3a684526005019091529020546201518042919091031115610ca9576040805162461bcd60e51b815260206004820152601f60248201527f54696d6520666f7220766f74696e6720686176656e277420656c617073656400604482015290519081900360640190fd5b6000828211156125c757fe5b50900390565b6000808213156125ea5750818101828112156125e557fe5b6106ae565b50818101828113156106ae57fe5b6000808213156126105750808203828113156125e557fe5b50808203828112156106ae57fe5b6001600160a01b03821660009081526049602052604090208054158061266b5750805443908290600019810190811061265357fe5b6000918252602090912001546001600160801b031614155b156126dc5760408051808201909152436001600160801b0390811682528381166020808401918252845460018101865560008681529190912093519301805491516fffffffffffffffffffffffffffffffff19909216938316939093178216600160801b91909216021790556123c4565b8054600090829060001981019081106126f157fe5b600091825260209091200180546001600160801b03808616600160801b0291161790555050505056fe66756e6374696f6e206e6f742063616c6c61626c6520666f726b20666f726b2070726f706f73616c7345524332303a20617070726f766520746f20746865207a65726f206164647265737354696d6520666f72206120666f6c6c6f772075702064697370757465206861736e277420656c617073656453686f756c6420686176652073756666696369656e742062616c616e636520746f207472616465547269656420746f2073656e64206e6f6e2d706f73697469766520616d6f756e7444697370757465206d75737420626520737461727465642077697468696e2061207765656b206f66206261642076616c756574686520646973707574652068617320616c7265616479206265656e206578656375746564a264697066735822122029867b6cd0466528d2d5014aced0c9fdaddef388beef09192c7d255971d1919a64736f6c63430007040033","opcodes":"PUSH1 0x80 PUSH1 0x40 MSTORE CALLVALUE DUP1 ISZERO PUSH2 0x10 JUMPI PUSH1 0x0 DUP1 REVERT JUMPDEST POP PUSH2 0x2865 DUP1 PUSH2 0x20 PUSH1 0x0 CODECOPY PUSH1 0x0 RETURN INVALID PUSH1 0x80 PUSH1 0x40 MSTORE CALLVALUE DUP1 ISZERO PUSH2 0x10 JUMPI PUSH1 0x0 DUP1 REVERT JUMPDEST POP PUSH1 0x4 CALLDATASIZE LT PUSH2 0x198 JUMPI PUSH1 0x0 CALLDATALOAD PUSH1 0xE0 SHR DUP1 PUSH4 0x70A08231 GT PUSH2 0xE3 JUMPI DUP1 PUSH4 0xC9D27AFE GT PUSH2 0x8C JUMPI DUP1 PUSH4 0xDB085BEB GT PUSH2 0x66 JUMPI DUP1 PUSH4 0xDB085BEB EQ PUSH2 0x545 JUMPI DUP1 PUSH4 0xDD62ED3E EQ PUSH2 0x5B2 JUMPI DUP1 PUSH4 0xFC735E99 EQ PUSH2 0x5E0 JUMPI PUSH2 0x198 JUMP JUMPDEST DUP1 PUSH4 0xC9D27AFE EQ PUSH2 0x4A8 JUMPI DUP1 PUSH4 0xCBF1304D EQ PUSH2 0x4CD JUMPI DUP1 PUSH4 0xD01F4D9E EQ PUSH2 0x528 JUMPI PUSH2 0x198 JUMP JUMPDEST DUP1 PUSH4 0x9A01CA13 GT PUSH2 0xBD JUMPI DUP1 PUSH4 0x9A01CA13 EQ PUSH2 0x442 JUMPI DUP1 PUSH4 0xA9059CBB EQ PUSH2 0x45F JUMPI DUP1 PUSH4 0xB59E14D4 EQ PUSH2 0x48B JUMPI PUSH2 0x198 JUMP JUMPDEST DUP1 PUSH4 0x70A08231 EQ PUSH2 0x3C7 JUMPI DUP1 PUSH4 0x8581AF19 EQ PUSH2 0x3ED JUMPI DUP1 PUSH4 0x999CF26C EQ PUSH2 0x416 JUMPI PUSH2 0x198 JUMP JUMPDEST DUP1 PUSH4 0x48B18E54 GT PUSH2 0x145 JUMPI DUP1 PUSH4 0x5700242C GT PUSH2 0x11F JUMPI DUP1 PUSH4 0x5700242C EQ PUSH2 0x354 JUMPI DUP1 PUSH4 0x62DD1D2A EQ PUSH2 0x371 JUMPI DUP1 PUSH4 0x699F200F EQ PUSH2 0x38E JUMPI PUSH2 0x198 JUMP JUMPDEST DUP1 PUSH4 0x48B18E54 EQ PUSH2 0x2D6 JUMPI DUP1 PUSH4 0x4BA0A5EE EQ PUSH2 0x302 JUMPI DUP1 PUSH4 0x4EE2CD7E EQ PUSH2 0x328 JUMPI PUSH2 0x198 JUMP JUMPDEST DUP1 PUSH4 0x23B872DD GT PUSH2 0x176 JUMPI DUP1 PUSH4 0x23B872DD EQ PUSH2 0x25B JUMPI DUP1 PUSH4 0x26B7D9F6 EQ PUSH2 0x291 JUMPI DUP1 PUSH4 0x438C0AA3 EQ PUSH2 0x2B9 JUMPI PUSH2 0x198 JUMP JUMPDEST DUP1 PUSH4 0x24C2DDD EQ PUSH2 0x19D JUMPI DUP1 PUSH4 0x95EA7B3 EQ PUSH2 0x1DD JUMPI DUP1 PUSH4 0x1FD22364 EQ PUSH2 0x21D JUMPI JUMPDEST PUSH1 0x0 DUP1 REVERT JUMPDEST PUSH2 0x1CB PUSH1 0x4 DUP1 CALLDATASIZE SUB PUSH1 0x40 DUP2 LT ISZERO PUSH2 0x1B3 JUMPI PUSH1 0x0 DUP1 REVERT JUMPDEST POP PUSH1 0x1 PUSH1 0x1 PUSH1 0xA0 SHL SUB DUP2 CALLDATALOAD DUP2 AND SWAP2 PUSH1 0x20 ADD CALLDATALOAD AND PUSH2 0x5E8 JUMP JUMPDEST PUSH1 0x40 DUP1 MLOAD SWAP2 DUP3 MSTORE MLOAD SWAP1 DUP2 SWAP1 SUB PUSH1 0x20 ADD SWAP1 RETURN JUMPDEST PUSH2 0x209 PUSH1 0x4 DUP1 CALLDATASIZE SUB PUSH1 0x40 DUP2 LT ISZERO PUSH2 0x1F3 JUMPI PUSH1 0x0 DUP1 REVERT JUMPDEST POP PUSH1 0x1 PUSH1 0x1 PUSH1 0xA0 SHL SUB DUP2 CALLDATALOAD AND SWAP1 PUSH1 0x20 ADD CALLDATALOAD PUSH2 0x605 JUMP JUMPDEST PUSH1 0x40 DUP1 MLOAD SWAP2 ISZERO ISZERO DUP3 MSTORE MLOAD SWAP1 DUP2 SWAP1 SUB PUSH1 0x20 ADD SWAP1 RETURN JUMPDEST PUSH2 0x23A PUSH1 0x4 DUP1 CALLDATASIZE SUB PUSH1 0x20 DUP2 LT ISZERO PUSH2 0x233 JUMPI PUSH1 0x0 DUP1 REVERT JUMPDEST POP CALLDATALOAD PUSH2 0x6B4 JUMP JUMPDEST PUSH1 0x40 DUP1 MLOAD SWAP3 DUP4 MSTORE PUSH1 0x1 PUSH1 0x1 PUSH1 0xA0 SHL SUB SWAP1 SWAP2 AND PUSH1 0x20 DUP4 ADD MSTORE DUP1 MLOAD SWAP2 DUP3 SWAP1 SUB ADD SWAP1 RETURN JUMPDEST PUSH2 0x209 PUSH1 0x4 DUP1 CALLDATASIZE SUB PUSH1 0x60 DUP2 LT ISZERO PUSH2 0x271 JUMPI PUSH1 0x0 DUP1 REVERT JUMPDEST POP PUSH1 0x1 PUSH1 0x1 PUSH1 0xA0 SHL SUB DUP2 CALLDATALOAD DUP2 AND SWAP2 PUSH1 0x20 DUP2 ADD CALLDATALOAD SWAP1 SWAP2 AND SWAP1 PUSH1 0x40 ADD CALLDATALOAD PUSH2 0x6DF JUMP JUMPDEST PUSH2 0x2B7 PUSH1 0x4 DUP1 CALLDATASIZE SUB PUSH1 0x20 DUP2 LT ISZERO PUSH2 0x2A7 JUMPI PUSH1 0x0 DUP1 REVERT JUMPDEST POP CALLDATALOAD PUSH1 0x1 PUSH1 0x1 PUSH1 0xA0 SHL SUB AND PUSH2 0x78B JUMP JUMPDEST STOP JUMPDEST PUSH2 0x1CB PUSH1 0x4 DUP1 CALLDATASIZE SUB PUSH1 0x20 DUP2 LT ISZERO PUSH2 0x2CF JUMPI PUSH1 0x0 DUP1 REVERT JUMPDEST POP CALLDATALOAD PUSH2 0xAAF JUMP JUMPDEST PUSH2 0x209 PUSH1 0x4 DUP1 CALLDATASIZE SUB PUSH1 0x40 DUP2 LT ISZERO PUSH2 0x2EC JUMPI PUSH1 0x0 DUP1 REVERT JUMPDEST POP DUP1 CALLDATALOAD SWAP1 PUSH1 0x20 ADD CALLDATALOAD PUSH1 0x1 PUSH1 0x1 PUSH1 0xA0 SHL SUB AND PUSH2 0xAD0 JUMP JUMPDEST PUSH2 0x209 PUSH1 0x4 DUP1 CALLDATASIZE SUB PUSH1 0x20 DUP2 LT ISZERO PUSH2 0x318 JUMPI PUSH1 0x0 DUP1 REVERT JUMPDEST POP CALLDATALOAD PUSH1 0x1 PUSH1 0x1 PUSH1 0xA0 SHL SUB AND PUSH2 0xAF0 JUMP JUMPDEST PUSH2 0x1CB PUSH1 0x4 DUP1 CALLDATASIZE SUB PUSH1 0x40 DUP2 LT ISZERO PUSH2 0x33E JUMPI PUSH1 0x0 DUP1 REVERT JUMPDEST POP PUSH1 0x1 PUSH1 0x1 PUSH1 0xA0 SHL SUB DUP2 CALLDATALOAD AND SWAP1 PUSH1 0x20 ADD CALLDATALOAD PUSH2 0xB05 JUMP JUMPDEST PUSH2 0x1CB PUSH1 0x4 DUP1 CALLDATASIZE SUB PUSH1 0x20 DUP2 LT ISZERO PUSH2 0x36A JUMPI PUSH1 0x0 DUP1 REVERT JUMPDEST POP CALLDATALOAD PUSH2 0xCB0 JUMP JUMPDEST PUSH2 0x1CB PUSH1 0x4 DUP1 CALLDATASIZE SUB PUSH1 0x20 DUP2 LT ISZERO PUSH2 0x387 JUMPI PUSH1 0x0 DUP1 REVERT JUMPDEST POP CALLDATALOAD PUSH2 0xCC2 JUMP JUMPDEST PUSH2 0x3AB PUSH1 0x4 DUP1 CALLDATASIZE SUB PUSH1 0x20 DUP2 LT ISZERO PUSH2 0x3A4 JUMPI PUSH1 0x0 DUP1 REVERT JUMPDEST POP CALLDATALOAD PUSH2 0xCD4 JUMP JUMPDEST PUSH1 0x40 DUP1 MLOAD PUSH1 0x1 PUSH1 0x1 PUSH1 0xA0 SHL SUB SWAP1 SWAP3 AND DUP3 MSTORE MLOAD SWAP1 DUP2 SWAP1 SUB PUSH1 0x20 ADD SWAP1 RETURN JUMPDEST PUSH2 0x1CB PUSH1 0x4 DUP1 CALLDATASIZE SUB PUSH1 0x20 DUP2 LT ISZERO PUSH2 0x3DD JUMPI PUSH1 0x0 DUP1 REVERT JUMPDEST POP CALLDATALOAD PUSH1 0x1 PUSH1 0x1 PUSH1 0xA0 SHL SUB AND PUSH2 0xCEF JUMP JUMPDEST PUSH2 0x2B7 PUSH1 0x4 DUP1 CALLDATASIZE SUB PUSH1 0x60 DUP2 LT ISZERO PUSH2 0x403 JUMPI PUSH1 0x0 DUP1 REVERT JUMPDEST POP DUP1 CALLDATALOAD SWAP1 PUSH1 0x20 DUP2 ADD CALLDATALOAD SWAP1 PUSH1 0x40 ADD CALLDATALOAD PUSH2 0xCFB JUMP JUMPDEST PUSH2 0x209 PUSH1 0x4 DUP1 CALLDATASIZE SUB PUSH1 0x40 DUP2 LT ISZERO PUSH2 0x42C JUMPI PUSH1 0x0 DUP1 REVERT JUMPDEST POP PUSH1 0x1 PUSH1 0x1 PUSH1 0xA0 SHL SUB DUP2 CALLDATALOAD AND SWAP1 PUSH1 0x20 ADD CALLDATALOAD PUSH2 0x12BC JUMP JUMPDEST PUSH2 0x2B7 PUSH1 0x4 DUP1 CALLDATASIZE SUB PUSH1 0x20 DUP2 LT ISZERO PUSH2 0x458 JUMPI PUSH1 0x0 DUP1 REVERT JUMPDEST POP CALLDATALOAD PUSH2 0x1388 JUMP JUMPDEST PUSH2 0x209 PUSH1 0x4 DUP1 CALLDATASIZE SUB PUSH1 0x40 DUP2 LT ISZERO PUSH2 0x475 JUMPI PUSH1 0x0 DUP1 REVERT JUMPDEST POP PUSH1 0x1 PUSH1 0x1 PUSH1 0xA0 SHL SUB DUP2 CALLDATALOAD AND SWAP1 PUSH1 0x20 ADD CALLDATALOAD PUSH2 0x1C94 JUMP JUMPDEST PUSH2 0x1CB PUSH1 0x4 DUP1 CALLDATASIZE SUB PUSH1 0x20 DUP2 LT ISZERO PUSH2 0x4A1 JUMPI PUSH1 0x0 DUP1 REVERT JUMPDEST POP CALLDATALOAD PUSH2 0x1CAA JUMP JUMPDEST PUSH2 0x2B7 PUSH1 0x4 DUP1 CALLDATASIZE SUB PUSH1 0x40 DUP2 LT ISZERO PUSH2 0x4BE JUMPI PUSH1 0x0 DUP1 REVERT JUMPDEST POP DUP1 CALLDATALOAD SWAP1 PUSH1 0x20 ADD CALLDATALOAD ISZERO ISZERO PUSH2 0x1CBC JUMP JUMPDEST PUSH2 0x4F9 PUSH1 0x4 DUP1 CALLDATASIZE SUB PUSH1 0x40 DUP2 LT ISZERO PUSH2 0x4E3 JUMPI PUSH1 0x0 DUP1 REVERT JUMPDEST POP PUSH1 0x1 PUSH1 0x1 PUSH1 0xA0 SHL SUB DUP2 CALLDATALOAD AND SWAP1 PUSH1 0x20 ADD CALLDATALOAD PUSH2 0x1FC9 JUMP JUMPDEST PUSH1 0x40 MLOAD DUP1 DUP4 PUSH1 0x1 PUSH1 0x1 PUSH1 0x80 SHL SUB AND DUP2 MSTORE PUSH1 0x20 ADD DUP3 PUSH1 0x1 PUSH1 0x1 PUSH1 0x80 SHL SUB AND DUP2 MSTORE PUSH1 0x20 ADD SWAP3 POP POP POP PUSH1 0x40 MLOAD DUP1 SWAP2 SUB SWAP1 RETURN JUMPDEST PUSH2 0x1CB PUSH1 0x4 DUP1 CALLDATASIZE SUB PUSH1 0x20 DUP2 LT ISZERO PUSH2 0x53E JUMPI PUSH1 0x0 DUP1 REVERT JUMPDEST POP CALLDATALOAD PUSH2 0x200C JUMP JUMPDEST PUSH2 0x562 PUSH1 0x4 DUP1 CALLDATASIZE SUB PUSH1 0x20 DUP2 LT ISZERO PUSH2 0x55B JUMPI PUSH1 0x0 DUP1 REVERT JUMPDEST POP CALLDATALOAD PUSH2 0x201E JUMP JUMPDEST PUSH1 0x40 DUP1 MLOAD SWAP9 DUP10 MSTORE PUSH1 0x20 DUP10 ADD SWAP8 SWAP1 SWAP8 MSTORE SWAP5 ISZERO ISZERO DUP8 DUP8 ADD MSTORE SWAP3 ISZERO ISZERO PUSH1 0x60 DUP8 ADD MSTORE SWAP1 ISZERO ISZERO PUSH1 0x80 DUP7 ADD MSTORE PUSH1 0x1 PUSH1 0x1 PUSH1 0xA0 SHL SUB SWAP1 DUP2 AND PUSH1 0xA0 DUP7 ADD MSTORE SWAP1 DUP2 AND PUSH1 0xC0 DUP6 ADD MSTORE AND PUSH1 0xE0 DUP4 ADD MSTORE MLOAD SWAP1 DUP2 SWAP1 SUB PUSH2 0x100 ADD SWAP1 RETURN JUMPDEST PUSH2 0x1CB PUSH1 0x4 DUP1 CALLDATASIZE SUB PUSH1 0x40 DUP2 LT ISZERO PUSH2 0x5C8 JUMPI PUSH1 0x0 DUP1 REVERT JUMPDEST POP PUSH1 0x1 PUSH1 0x1 PUSH1 0xA0 SHL SUB DUP2 CALLDATALOAD DUP2 AND SWAP2 PUSH1 0x20 ADD CALLDATALOAD AND PUSH2 0x207A JUMP JUMPDEST PUSH2 0x1CB PUSH2 0x20A5 JUMP JUMPDEST PUSH1 0x4A PUSH1 0x20 SWAP1 DUP2 MSTORE PUSH1 0x0 SWAP3 DUP4 MSTORE PUSH1 0x40 DUP1 DUP5 KECCAK256 SWAP1 SWAP2 MSTORE SWAP1 DUP3 MSTORE SWAP1 KECCAK256 SLOAD DUP2 JUMP JUMPDEST PUSH1 0x0 PUSH1 0x1 PUSH1 0x1 PUSH1 0xA0 SHL SUB DUP4 AND PUSH2 0x64C JUMPI PUSH1 0x40 MLOAD PUSH3 0x461BCD PUSH1 0xE5 SHL DUP2 MSTORE PUSH1 0x4 ADD DUP1 DUP1 PUSH1 0x20 ADD DUP3 DUP2 SUB DUP3 MSTORE PUSH1 0x22 DUP2 MSTORE PUSH1 0x20 ADD DUP1 PUSH2 0x2744 PUSH1 0x22 SWAP2 CODECOPY PUSH1 0x40 ADD SWAP2 POP POP PUSH1 0x40 MLOAD DUP1 SWAP2 SUB SWAP1 REVERT JUMPDEST CALLER PUSH1 0x0 DUP2 DUP2 MSTORE PUSH1 0x4A PUSH1 0x20 SWAP1 DUP2 MSTORE PUSH1 0x40 DUP1 DUP4 KECCAK256 PUSH1 0x1 PUSH1 0x1 PUSH1 0xA0 SHL SUB DUP9 AND DUP1 DUP6 MSTORE SWAP1 DUP4 MSTORE SWAP3 DUP2 SWAP1 KECCAK256 DUP7 SWAP1 SSTORE DUP1 MLOAD DUP7 DUP2 MSTORE SWAP1 MLOAD SWAP3 SWAP4 SWAP3 PUSH32 0x8C5BE1E5EBEC7D5BD14F71427D1E84F3DD0314C0F7B2291E5B200AC8C7C3B925 SWAP3 SWAP2 DUP2 SWAP1 SUB SWAP1 SWAP2 ADD SWAP1 LOG3 POP PUSH1 0x1 JUMPDEST SWAP3 SWAP2 POP POP JUMP JUMPDEST PUSH1 0x3A DUP2 PUSH1 0x5 DUP2 LT PUSH2 0x6C4 JUMPI PUSH1 0x0 DUP1 REVERT JUMPDEST PUSH1 0x2 MUL ADD DUP1 SLOAD PUSH1 0x1 SWAP1 SWAP2 ADD SLOAD SWAP1 SWAP2 POP PUSH1 0x1 PUSH1 0x1 PUSH1 0xA0 SHL SUB AND DUP3 JUMP JUMPDEST PUSH1 0x1 PUSH1 0x1 PUSH1 0xA0 SHL SUB DUP4 AND PUSH1 0x0 SWAP1 DUP2 MSTORE PUSH1 0x4A PUSH1 0x20 SWAP1 DUP2 MSTORE PUSH1 0x40 DUP1 DUP4 KECCAK256 CALLER DUP5 MSTORE SWAP1 SWAP2 MSTORE DUP2 KECCAK256 SLOAD DUP3 GT ISZERO PUSH2 0x74C JUMPI PUSH1 0x40 DUP1 MLOAD PUSH3 0x461BCD PUSH1 0xE5 SHL DUP2 MSTORE PUSH1 0x20 PUSH1 0x4 DUP3 ADD MSTORE PUSH1 0x12 PUSH1 0x24 DUP3 ADD MSTORE PUSH18 0x416C6C6F77616E63652069732077726F6E67 PUSH1 0x70 SHL PUSH1 0x44 DUP3 ADD MSTORE SWAP1 MLOAD SWAP1 DUP2 SWAP1 SUB PUSH1 0x64 ADD SWAP1 REVERT JUMPDEST PUSH1 0x1 PUSH1 0x1 PUSH1 0xA0 SHL SUB DUP5 AND PUSH1 0x0 SWAP1 DUP2 MSTORE PUSH1 0x4A PUSH1 0x20 SWAP1 DUP2 MSTORE PUSH1 0x40 DUP1 DUP4 KECCAK256 CALLER DUP5 MSTORE SWAP1 SWAP2 MSTORE SWAP1 KECCAK256 DUP1 SLOAD DUP4 SWAP1 SUB SWAP1 SSTORE PUSH2 0x781 DUP5 DUP5 DUP5 PUSH2 0x20AB JUMP JUMPDEST POP PUSH1 0x1 SWAP4 SWAP3 POP POP POP JUMP JUMPDEST PUSH32 0xD051321AA26CE60D202F153D0C0E67687E975532AB88CE92D84F18E39895D907 PUSH1 0x0 MSTORE PUSH1 0x46 PUSH1 0x20 MSTORE PUSH32 0x7042ACA2505AA9A8428C1710298EDBAC96E027637D6417651C8AA8F88ED1CA0A SLOAD ISZERO PUSH2 0x817 JUMPI PUSH1 0x40 DUP1 MLOAD PUSH3 0x461BCD PUSH1 0xE5 SHL DUP2 MSTORE PUSH1 0x20 PUSH1 0x4 DUP3 ADD MSTORE PUSH1 0xC PUSH1 0x24 DUP3 ADD MSTORE PUSH12 0x6E6F2072656E7472616E6379 PUSH1 0xA0 SHL PUSH1 0x44 DUP3 ADD MSTORE SWAP1 MLOAD SWAP1 DUP2 SWAP1 SUB PUSH1 0x64 ADD SWAP1 REVERT JUMPDEST PUSH32 0xD051321AA26CE60D202F153D0C0E67687E975532AB88CE92D84F18E39895D907 PUSH1 0x0 MSTORE PUSH1 0x46 PUSH1 0x20 MSTORE PUSH1 0x1 PUSH32 0x7042ACA2505AA9A8428C1710298EDBAC96E027637D6417651C8AA8F88ED1CA0A SSTORE PUSH2 0x86D DUP2 PUSH2 0x2267 JUMP JUMPDEST PUSH32 0xD051321AA26CE60D202F153D0C0E67687E975532AB88CE92D84F18E39895D907 PUSH1 0x0 SWAP1 DUP2 MSTORE PUSH1 0x46 PUSH1 0x20 SWAP1 DUP2 MSTORE PUSH32 0x7042ACA2505AA9A8428C1710298EDBAC96E027637D6417651C8AA8F88ED1CA0A DUP3 SWAP1 SSTORE PUSH1 0x40 DUP1 MLOAD PUSH1 0x1 PUSH1 0x1 PUSH1 0xA0 SHL SUB DUP6 AND DUP2 DUP5 ADD MSTORE DUP2 MLOAD DUP1 DUP3 SUB DUP5 ADD DUP2 MSTORE SWAP1 DUP3 ADD DUP3 MSTORE DUP1 MLOAD SWAP1 DUP4 ADD KECCAK256 PUSH32 0x1CE2382BC92689B00BA121FA5A411AA976168AFFDD8AC143A69035DD984B3B6A DUP1 SLOAD PUSH1 0x1 ADD SWAP1 DUP2 SWAP1 SSTORE DUP2 DUP6 MSTORE PUSH1 0x38 SWAP1 SWAP4 MSTORE SWAP3 KECCAK256 SLOAD ISZERO PUSH2 0x96C JUMPI PUSH1 0x0 DUP3 DUP2 MSTORE PUSH1 0x38 PUSH1 0x20 SWAP1 DUP2 MSTORE PUSH1 0x40 DUP1 DUP4 KECCAK256 SLOAD DUP5 DUP5 MSTORE PUSH1 0x36 DUP4 MSTORE DUP2 DUP5 KECCAK256 PUSH32 0xED92B4C1E0A9E559A31171D487ECBEC963526662038ECFA3A71160BD62FB8733 DUP6 MSTORE PUSH1 0x5 ADD SWAP1 SWAP3 MSTORE SWAP1 SWAP2 KECCAK256 SSTORE PUSH2 0x97E JUMP JUMPDEST PUSH1 0x0 DUP3 DUP2 MSTORE PUSH1 0x38 PUSH1 0x20 MSTORE PUSH1 0x40 SWAP1 KECCAK256 DUP2 SWAP1 SSTORE JUMPDEST PUSH1 0x0 DUP3 DUP2 MSTORE PUSH1 0x38 PUSH1 0x20 MSTORE PUSH1 0x40 DUP2 KECCAK256 SLOAD PUSH2 0x998 SWAP1 DUP4 SWAP1 PUSH2 0x23C9 JUMP JUMPDEST PUSH1 0x0 DUP4 DUP2 MSTORE PUSH1 0x36 PUSH1 0x20 MSTORE PUSH1 0x40 DUP2 KECCAK256 DUP6 DUP2 SSTORE PUSH1 0x2 DUP1 DUP3 ADD DUP1 SLOAD PUSH3 0x10000 PUSH3 0xFF0000 NOT SWAP1 SWAP2 AND OR PUSH23 0xFFFFFFFFFFFFFFFFFFFFFFFFFFFFFFFFFFFFFFFF000000 NOT AND CALLER PUSH4 0x1000000 DUP2 MUL SWAP2 SWAP1 SWAP2 OR SWAP1 SWAP2 SSTORE PUSH1 0x3 DUP4 ADD DUP1 SLOAD PUSH1 0x1 PUSH1 0x1 PUSH1 0xA0 SHL SUB NOT SWAP1 DUP2 AND DUP4 OR SWAP1 SWAP2 SSTORE PUSH1 0x4 DUP5 ADD DUP1 SLOAD SWAP1 SWAP2 AND PUSH1 0x1 PUSH1 0x1 PUSH1 0xA0 SHL SUB DUP12 AND OR SWAP1 SSTORE PUSH1 0x1 SWAP1 SWAP3 ADD SWAP3 SWAP1 SWAP3 SSTORE SWAP2 SWAP3 POP PUSH2 0xA3D SWAP2 SWAP1 ADDRESS SWAP1 PUSH1 0x0 NOT DUP6 ADD SWAP1 EXP PUSH9 0x56BC75E2D63100000 MUL PUSH2 0x20AB JUMP JUMPDEST POP PUSH1 0x0 SWAP1 DUP2 MSTORE PUSH1 0x36 PUSH1 0x20 SWAP1 DUP2 MSTORE PUSH1 0x40 DUP1 DUP4 KECCAK256 PUSH32 0x4B4CEFD5CED7569EF0D091282B4BCA9C52A034C56471A6061AFD1BF307A2DE7C DUP5 MSTORE PUSH1 0x5 ADD SWAP1 SWAP2 MSTORE DUP1 DUP3 KECCAK256 NUMBER SWAP1 SSTORE PUSH32 0x46F7D53798D31923F6952572C6A19AD2D1A8238D26649C2F3493A6D69E425D28 DUP3 MSTORE SWAP1 KECCAK256 TIMESTAMP PUSH3 0x93A80 ADD SWAP1 SSTORE POP POP JUMP JUMPDEST PUSH1 0x33 DUP2 DUP2 SLOAD DUP2 LT PUSH2 0xABF JUMPI PUSH1 0x0 DUP1 REVERT JUMPDEST PUSH1 0x0 SWAP2 DUP3 MSTORE PUSH1 0x20 SWAP1 SWAP2 KECCAK256 ADD SLOAD SWAP1 POP DUP2 JUMP JUMPDEST PUSH1 0x39 PUSH1 0x20 SWAP1 DUP2 MSTORE PUSH1 0x0 SWAP3 DUP4 MSTORE PUSH1 0x40 DUP1 DUP5 KECCAK256 SWAP1 SWAP2 MSTORE SWAP1 DUP3 MSTORE SWAP1 KECCAK256 SLOAD PUSH1 0xFF AND DUP2 JUMP JUMPDEST PUSH1 0x4B PUSH1 0x20 MSTORE PUSH1 0x0 SWAP1 DUP2 MSTORE PUSH1 0x40 SWAP1 KECCAK256 SLOAD PUSH1 0xFF AND DUP2 JUMP JUMPDEST PUSH1 0x1 PUSH1 0x1 PUSH1 0xA0 SHL SUB DUP3 AND PUSH1 0x0 SWAP1 DUP2 MSTORE PUSH1 0x49 PUSH1 0x20 MSTORE PUSH1 0x40 DUP2 KECCAK256 DUP1 SLOAD ISZERO DUP1 PUSH2 0xB4B JUMPI POP DUP3 DUP2 PUSH1 0x0 DUP2 SLOAD DUP2 LT PUSH2 0xB34 JUMPI INVALID JUMPDEST PUSH1 0x0 SWAP2 DUP3 MSTORE PUSH1 0x20 SWAP1 SWAP2 KECCAK256 ADD SLOAD PUSH1 0x1 PUSH1 0x1 PUSH1 0x80 SHL SUB AND GT JUMPDEST ISZERO PUSH2 0xB5A JUMPI PUSH1 0x0 SWAP2 POP POP PUSH2 0x6AE JUMP JUMPDEST DUP1 SLOAD DUP2 SWAP1 PUSH1 0x0 NOT DUP2 ADD SWAP1 DUP2 LT PUSH2 0xB6C JUMPI INVALID JUMPDEST PUSH1 0x0 SWAP2 DUP3 MSTORE PUSH1 0x20 SWAP1 SWAP2 KECCAK256 ADD SLOAD PUSH1 0x1 PUSH1 0x1 PUSH1 0x80 SHL SUB AND DUP4 LT PUSH2 0xBBE JUMPI DUP1 SLOAD DUP2 SWAP1 PUSH1 0x0 NOT DUP2 ADD SWAP1 DUP2 LT PUSH2 0xB99 JUMPI INVALID JUMPDEST PUSH1 0x0 SWAP2 DUP3 MSTORE PUSH1 0x20 SWAP1 SWAP2 KECCAK256 ADD SLOAD PUSH1 0x1 PUSH1 0x80 SHL SWAP1 DIV PUSH1 0x1 PUSH1 0x1 PUSH1 0x80 SHL SUB AND SWAP2 POP PUSH2 0x6AE SWAP1 POP JUMP JUMPDEST DUP1 SLOAD PUSH1 0x0 SWAP1 PUSH1 0x1 NOT ADD JUMPDEST DUP2 DUP2 GT ISZERO PUSH2 0xC76 JUMPI PUSH1 0x0 PUSH1 0x2 PUSH1 0x1 DUP4 DUP6 ADD ADD DIV SWAP1 POP DUP6 DUP5 DUP3 DUP2 SLOAD DUP2 LT PUSH2 0xBEA JUMPI INVALID JUMPDEST PUSH1 0x0 SWAP2 DUP3 MSTORE PUSH1 0x20 SWAP1 SWAP2 KECCAK256 ADD SLOAD PUSH1 0x1 PUSH1 0x1 PUSH1 0x80 SHL SUB AND EQ ISZERO PUSH2 0xC39 JUMPI DUP4 DUP2 DUP2 SLOAD DUP2 LT PUSH2 0xC11 JUMPI INVALID JUMPDEST PUSH1 0x0 SWAP2 DUP3 MSTORE PUSH1 0x20 SWAP1 SWAP2 KECCAK256 ADD SLOAD PUSH1 0x1 PUSH1 0x80 SHL SWAP1 DIV PUSH1 0x1 PUSH1 0x1 PUSH1 0x80 SHL SUB AND SWAP5 POP PUSH2 0x6AE SWAP4 POP POP POP POP JUMP JUMPDEST DUP6 DUP5 DUP3 DUP2 SLOAD DUP2 LT PUSH2 0xC46 JUMPI INVALID JUMPDEST PUSH1 0x0 SWAP2 DUP3 MSTORE PUSH1 0x20 SWAP1 SWAP2 KECCAK256 ADD SLOAD PUSH1 0x1 PUSH1 0x1 PUSH1 0x80 SHL SUB AND LT ISZERO PUSH2 0xC69 JUMPI DUP1 SWAP3 POP PUSH2 0xC70 JUMP JUMPDEST PUSH1 0x1 DUP2 SUB SWAP2 POP JUMPDEST POP PUSH2 0xBC8 JUMP JUMPDEST DUP3 DUP3 DUP2 SLOAD DUP2 LT PUSH2 0xC82 JUMPI INVALID JUMPDEST PUSH1 0x0 SWAP2 DUP3 MSTORE PUSH1 0x20 SWAP1 SWAP2 KECCAK256 ADD SLOAD PUSH1 0x1 PUSH1 0x80 SHL SWAP1 DIV PUSH1 0x1 PUSH1 0x1 PUSH1 0x80 SHL SUB AND SWAP4 POP PUSH2 0x6AE SWAP3 POP POP POP JUMP JUMPDEST POP SWAP3 SWAP2 POP POP JUMP JUMPDEST PUSH1 0x37 PUSH1 0x20 MSTORE PUSH1 0x0 SWAP1 DUP2 MSTORE PUSH1 0x40 SWAP1 KECCAK256 SLOAD DUP2 JUMP JUMPDEST PUSH1 0x48 PUSH1 0x20 MSTORE PUSH1 0x0 SWAP1 DUP2 MSTORE PUSH1 0x40 SWAP1 KECCAK256 SLOAD DUP2 JUMP JUMPDEST PUSH1 0x47 PUSH1 0x20 MSTORE PUSH1 0x0 SWAP1 DUP2 MSTORE PUSH1 0x40 SWAP1 KECCAK256 SLOAD PUSH1 0x1 PUSH1 0x1 PUSH1 0xA0 SHL SUB AND DUP2 JUMP JUMPDEST PUSH1 0x0 PUSH2 0x6AE DUP3 NUMBER PUSH2 0xB05 JUMP JUMPDEST PUSH1 0x0 DUP4 DUP2 MSTORE PUSH1 0x45 PUSH1 0x20 SWAP1 DUP2 MSTORE PUSH1 0x40 DUP1 DUP4 KECCAK256 DUP6 DUP5 MSTORE PUSH1 0x2 DUP2 ADD SWAP1 SWAP3 MSTORE SWAP1 SWAP2 KECCAK256 SLOAD PUSH2 0xD5E JUMPI PUSH1 0x40 DUP1 MLOAD PUSH3 0x461BCD PUSH1 0xE5 SHL DUP2 MSTORE PUSH1 0x20 PUSH1 0x4 DUP3 ADD MSTORE PUSH1 0x10 PUSH1 0x24 DUP3 ADD MSTORE PUSH16 0x4D696E656420626C6F636B206973203 PUSH1 0x84 SHL PUSH1 0x44 DUP3 ADD MSTORE SWAP1 MLOAD SWAP1 DUP2 SWAP1 SUB PUSH1 0x64 ADD SWAP1 REVERT JUMPDEST PUSH1 0x5 DUP3 LT PUSH2 0xDB3 JUMPI PUSH1 0x40 DUP1 MLOAD PUSH3 0x461BCD PUSH1 0xE5 SHL DUP2 MSTORE PUSH1 0x20 PUSH1 0x4 DUP3 ADD MSTORE PUSH1 0x14 PUSH1 0x24 DUP3 ADD MSTORE PUSH32 0x4D696E657220696E6465782069732077726F6E67000000000000000000000000 PUSH1 0x44 DUP3 ADD MSTORE SWAP1 MLOAD SWAP1 DUP2 SWAP1 SUB PUSH1 0x64 ADD SWAP1 REVERT JUMPDEST PUSH1 0x0 DUP4 DUP2 MSTORE PUSH1 0x5 DUP1 DUP4 ADD PUSH1 0x20 MSTORE PUSH1 0x40 DUP3 KECCAK256 SWAP1 DUP5 SWAP1 DUP2 LT PUSH2 0xDCF JUMPI INVALID JUMPDEST ADD SLOAD PUSH1 0x40 DUP1 MLOAD PUSH1 0x60 DUP4 DUP2 SHL PUSH12 0xFFFFFFFFFFFFFFFFFFFFFFFF NOT AND PUSH1 0x20 DUP1 DUP5 ADD DUP3 SWAP1 MSTORE PUSH12 0x111A5CDC1D5D1950DBDD5B9D PUSH1 0xA2 SHL PUSH1 0x34 DUP6 ADD MSTORE DUP5 MLOAD DUP1 DUP6 SUB DUP3 ADD DUP2 MSTORE DUP5 DUP7 ADD DUP7 MSTORE DUP1 MLOAD SWAP1 DUP3 ADD KECCAK256 PUSH1 0x0 SWAP1 DUP2 MSTORE PUSH1 0x46 DUP3 MSTORE DUP6 DUP2 KECCAK256 DUP1 SLOAD PUSH1 0x1 SWAP1 DUP2 ADD SWAP1 SWAP2 SSTORE SWAP4 DUP6 ADD SWAP3 SWAP1 SWAP3 MSTORE PUSH1 0x74 DUP5 ADD DUP12 SWAP1 MSTORE PUSH1 0x94 DUP1 DUP6 ADD DUP12 SWAP1 MSTORE DUP6 MLOAD DUP1 DUP7 SUB SWAP1 SWAP2 ADD DUP2 MSTORE PUSH1 0xB4 SWAP1 SWAP5 ADD DUP6 MSTORE DUP4 MLOAD SWAP4 DUP2 ADD SWAP4 SWAP1 SWAP4 KECCAK256 PUSH32 0x1CE2382BC92689B00BA121FA5A411AA976168AFFDD8AC143A69035DD984B3B6A DUP1 SLOAD SWAP1 SWAP4 ADD SWAP3 DUP4 SWAP1 SSTORE DUP1 DUP3 MSTORE PUSH1 0x38 SWAP1 SWAP4 MSTORE SWAP3 SWAP1 SWAP3 KECCAK256 SLOAD PUSH1 0x1 PUSH1 0x1 PUSH1 0xA0 SHL SUB SWAP1 SWAP4 AND SWAP4 POP SWAP2 DUP1 ISZERO PUSH2 0xEEF JUMPI PUSH1 0x0 DUP3 DUP2 MSTORE PUSH1 0x36 PUSH1 0x20 SWAP1 DUP2 MSTORE PUSH1 0x40 DUP1 DUP4 KECCAK256 PUSH32 0xED92B4C1E0A9E559A31171D487ECBEC963526662038ECFA3A71160BD62FB8733 DUP5 MSTORE PUSH1 0x5 ADD SWAP1 SWAP2 MSTORE SWAP1 KECCAK256 DUP2 SWAP1 SSTORE PUSH2 0xF46 JUMP JUMPDEST PUSH3 0x93A80 DUP8 TIMESTAMP SUB LT PUSH2 0xF32 JUMPI PUSH1 0x40 MLOAD PUSH3 0x461BCD PUSH1 0xE5 SHL DUP2 MSTORE PUSH1 0x4 ADD DUP1 DUP1 PUSH1 0x20 ADD DUP3 DUP2 SUB DUP3 MSTORE PUSH1 0x32 DUP2 MSTORE PUSH1 0x20 ADD DUP1 PUSH2 0x27D9 PUSH1 0x32 SWAP2 CODECOPY PUSH1 0x40 ADD SWAP2 POP POP PUSH1 0x40 MLOAD DUP1 SWAP2 SUB SWAP1 REVERT JUMPDEST POP PUSH1 0x0 DUP3 DUP2 MSTORE PUSH1 0x38 PUSH1 0x20 MSTORE PUSH1 0x40 SWAP1 KECCAK256 DUP2 SWAP1 SSTORE DUP1 JUMPDEST PUSH1 0x0 PUSH2 0xF52 DUP4 DUP4 PUSH2 0x23C9 JUMP JUMPDEST SWAP1 POP PUSH1 0x0 DUP8 PUSH1 0x2 EQ ISZERO PUSH2 0xFF7 JUMPI POP PUSH1 0x0 DUP10 DUP2 MSTORE PUSH1 0x45 PUSH1 0x20 SWAP1 DUP2 MSTORE PUSH1 0x40 DUP1 DUP4 KECCAK256 PUSH32 0x310199159A20C50879FFB440B45802138B5B162EC9426720E9DD3EE8BBCDB9D7 DUP5 MSTORE PUSH1 0x1 SWAP1 DUP2 ADD DUP4 MSTORE SWAP1 DUP4 KECCAK256 DUP1 SLOAD SWAP1 SWAP2 ADD SWAP1 DUP2 SWAP1 SSTORE PUSH32 0x5D9FADFC729FD027E395E5157EF1B53EF9FA4A8F053043C5F159307543E7CC97 SWAP1 SWAP3 MSTORE PUSH1 0x46 SWAP1 MSTORE PUSH32 0x167AF83A0768D27540775CFEF6D996EB63F8A61FCDFB26E654C18FB50960E3BE SLOAD MUL PUSH2 0x1046 JUMP JUMPDEST POP PUSH32 0x675D2171F68D6F5545D54FB9B1FB61A0E6897E6188CA1CD664E7C9530D91ECFC PUSH1 0x0 MSTORE PUSH1 0x46 PUSH1 0x20 MSTORE PUSH32 0x3E5522F19747F0F285B96DED572AC4128C3A764AEA9F44058DC0AFC9DDA44986 SLOAD DUP2 MUL JUMPDEST PUSH1 0x0 DUP5 DUP2 MSTORE PUSH1 0x36 PUSH1 0x20 SWAP1 DUP2 MSTORE PUSH1 0x40 DUP1 DUP4 KECCAK256 DUP9 DUP2 SSTORE PUSH1 0x2 DUP2 ADD DUP1 SLOAD PUSH1 0x3 DUP4 ADD DUP1 SLOAD CALLER PUSH1 0x1 PUSH1 0x1 PUSH1 0xA0 SHL SUB NOT SWAP2 DUP3 AND OR SWAP1 SWAP2 SSTORE PUSH1 0x4 DUP5 ADD DUP1 SLOAD SWAP1 SWAP2 AND SWAP1 SSTORE PUSH23 0xFFFFFFFFFFFFFFFFFFFFFFFFFFFFFFFFFFFFFFFFFF0000 NOT AND PUSH4 0x1000000 PUSH1 0x1 PUSH1 0x1 PUSH1 0xA0 SHL SUB DUP14 AND MUL OR PUSH2 0xFFFF NOT AND SWAP1 SSTORE PUSH1 0x1 DUP2 ADD DUP5 SWAP1 SSTORE PUSH32 0x9F47A2659C3D32B749AE717D975E7962959890862423C4318CF86E4EC220291F DUP5 MSTORE PUSH1 0x5 SWAP1 DUP2 ADD DUP4 MSTORE DUP2 DUP5 KECCAK256 DUP15 SWAP1 SSTORE PUSH32 0x2F9328A9C75282BEC25BB04BEFAD06926366736E0030C985108445FA728335E5 DUP5 MSTORE DUP2 DUP5 KECCAK256 DUP14 SWAP1 SSTORE DUP13 DUP5 MSTORE PUSH1 0x6 DUP12 ADD SWAP1 SWAP3 MSTORE SWAP1 SWAP2 KECCAK256 SWAP1 DUP10 SWAP1 DUP2 LT PUSH2 0x112C JUMPI INVALID JUMPDEST ADD SLOAD PUSH1 0x0 DUP6 DUP2 MSTORE PUSH1 0x36 PUSH1 0x20 SWAP1 DUP2 MSTORE PUSH1 0x40 DUP1 DUP4 KECCAK256 PUSH32 0x9147231AB14EFB72C38117F68521DDEF8DE64F092C18C69DBFB602FFC4DE7F47 DUP5 MSTORE PUSH1 0x5 ADD SWAP1 SWAP2 MSTORE DUP1 DUP3 KECCAK256 SWAP3 SWAP1 SWAP3 SSTORE PUSH32 0x46F7D53798D31923F6952572C6A19AD2D1A8238D26649C2F3493A6D69E425D28 DUP2 MSTORE DUP2 DUP2 KECCAK256 PUSH3 0x2A300 DUP6 MUL TIMESTAMP ADD SWAP1 SSTORE PUSH32 0x4B4CEFD5CED7569EF0D091282B4BCA9C52A034C56471A6061AFD1BF307A2DE7C DUP2 MSTORE DUP2 DUP2 KECCAK256 NUMBER SWAP1 SSTORE PUSH32 0x6DE96EE4D33A0617F40A846309C8759048857F51B9D59A12D3C3786D4778883D DUP2 MSTORE DUP2 DUP2 KECCAK256 DUP11 SWAP1 SSTORE PUSH32 0x1DA95F11543C9B03927178E07951795DFC95C7501A9D1CF00E13414CA33BC409 DUP2 MSTORE KECCAK256 DUP2 SWAP1 SSTORE PUSH2 0x1223 CALLER ADDRESS DUP4 PUSH2 0x20AB JUMP JUMPDEST DUP8 PUSH1 0x2 EQ ISZERO PUSH2 0x1255 JUMPI PUSH1 0x0 DUP10 DUP2 MSTORE PUSH1 0x4 DUP9 ADD PUSH1 0x20 SWAP1 DUP2 MSTORE PUSH1 0x40 DUP1 DUP4 KECCAK256 DUP1 SLOAD PUSH1 0xFF NOT AND PUSH1 0x1 OR SWAP1 SSTORE PUSH1 0x3 DUP11 ADD SWAP1 SWAP2 MSTORE DUP2 KECCAK256 SSTORE JUMPDEST PUSH1 0x1 PUSH1 0x1 PUSH1 0xA0 SHL SUB DUP7 AND PUSH1 0x0 DUP2 DUP2 MSTORE PUSH1 0x44 PUSH1 0x20 SWAP1 DUP2 MSTORE PUSH1 0x40 SWAP2 DUP3 SWAP1 KECCAK256 PUSH1 0x3 SWAP1 SSTORE DUP2 MLOAD DUP13 DUP2 MSTORE SWAP1 DUP2 ADD SWAP3 SWAP1 SWAP3 MSTORE DUP1 MLOAD DUP13 SWAP3 DUP8 SWAP3 PUSH32 0xECEEC1AEBF67772B2440120C4B4DC913A1FE1B865509219F9456785C23B9DA64 SWAP3 SWAP2 DUP3 SWAP1 SUB ADD SWAP1 LOG3 POP POP POP POP POP POP POP POP POP POP JUMP JUMPDEST PUSH1 0x1 PUSH1 0x1 PUSH1 0xA0 SHL SUB DUP3 AND PUSH1 0x0 SWAP1 DUP2 MSTORE PUSH1 0x44 PUSH1 0x20 MSTORE PUSH1 0x40 DUP2 KECCAK256 SLOAD ISZERO DUP1 ISZERO SWAP1 PUSH2 0x12FB JUMPI POP PUSH1 0x1 PUSH1 0x1 PUSH1 0xA0 SHL SUB DUP4 AND PUSH1 0x0 SWAP1 DUP2 MSTORE PUSH1 0x44 PUSH1 0x20 MSTORE PUSH1 0x40 SWAP1 KECCAK256 SLOAD PUSH1 0x5 GT JUMPDEST ISZERO PUSH2 0x1375 JUMPI PUSH32 0x5D9FADFC729FD027E395E5157EF1B53EF9FA4A8F053043C5F159307543E7CC97 PUSH1 0x0 MSTORE PUSH1 0x46 PUSH1 0x20 MSTORE PUSH32 0x167AF83A0768D27540775CFEF6D996EB63F8A61FCDFB26E654C18FB50960E3BE SLOAD DUP3 SWAP1 PUSH2 0x1360 SWAP1 PUSH2 0x135A DUP7 PUSH2 0xCEF JUMP JUMPDEST SWAP1 PUSH2 0x25BB JUMP JUMPDEST LT PUSH2 0x136D JUMPI POP PUSH1 0x1 PUSH2 0x6AE JUMP JUMPDEST POP PUSH1 0x0 PUSH2 0x6AE JUMP JUMPDEST DUP2 PUSH2 0x137F DUP5 PUSH2 0xCEF JUMP JUMPDEST LT ISZERO SWAP4 SWAP3 POP POP POP JUMP JUMPDEST PUSH32 0x310199159A20C50879FFB440B45802138B5B162EC9426720E9DD3EE8BBCDB9D7 PUSH1 0x0 MSTORE PUSH1 0x46 PUSH1 0x20 MSTORE PUSH32 0x1CE2382BC92689B00BA121FA5A411AA976168AFFDD8AC143A69035DD984B3B6A SLOAD DUP2 GT ISZERO PUSH2 0x1420 JUMPI PUSH1 0x40 DUP1 MLOAD PUSH3 0x461BCD PUSH1 0xE5 SHL DUP2 MSTORE PUSH1 0x20 PUSH1 0x4 DUP3 ADD MSTORE PUSH1 0x16 PUSH1 0x24 DUP3 ADD MSTORE PUSH22 0x191A5CDC1D5D1948191BD95CC81B9BDD08195E1A5CDD PUSH1 0x52 SHL PUSH1 0x44 DUP3 ADD MSTORE SWAP1 MLOAD SWAP1 DUP2 SWAP1 SUB PUSH1 0x64 ADD SWAP1 REVERT JUMPDEST PUSH1 0x0 DUP2 DUP2 MSTORE PUSH1 0x36 PUSH1 0x20 DUP2 DUP2 MSTORE PUSH1 0x40 DUP1 DUP5 KECCAK256 SLOAD DUP5 MSTORE PUSH1 0x38 DUP3 MSTORE DUP1 DUP5 KECCAK256 SLOAD DUP1 DUP6 MSTORE SWAP3 DUP3 MSTORE DUP1 DUP5 KECCAK256 PUSH32 0x6AB2B18AAFE78FD59C6A4092015BDDD9FCACB8170F72B299074F74D76A91A923 DUP6 MSTORE PUSH1 0x5 ADD DUP1 DUP4 MSTORE DUP2 DUP6 KECCAK256 SLOAD DUP3 MLOAD DUP1 DUP6 ADD SWAP2 SWAP1 SWAP2 MSTORE DUP3 MLOAD DUP1 DUP3 SUB DUP6 ADD DUP2 MSTORE SWAP1 DUP4 ADD DUP4 MSTORE DUP1 MLOAD SWAP1 DUP5 ADD KECCAK256 DUP6 MSTORE SWAP1 SWAP2 MSTORE SWAP1 SWAP2 KECCAK256 SLOAD DUP1 PUSH2 0x14A0 JUMPI POP DUP1 JUMPDEST PUSH1 0x0 DUP3 DUP2 MSTORE PUSH1 0x36 PUSH1 0x20 SWAP1 DUP2 MSTORE PUSH1 0x40 DUP1 DUP4 KECCAK256 DUP5 DUP5 MSTORE DUP2 DUP5 KECCAK256 PUSH32 0x6AB2B18AAFE78FD59C6A4092015BDDD9FCACB8170F72B299074F74D76A91A923 DUP6 MSTORE PUSH1 0x5 DUP3 ADD SWAP1 SWAP4 MSTORE SWAP3 KECCAK256 SLOAD DUP1 PUSH2 0x14ED JUMPI POP PUSH1 0x1 JUMPDEST PUSH32 0x29169706298D2B6DF50A532E958B56426DE1465348B93650FCA42D456EAEC5FC PUSH1 0x0 SWAP1 DUP2 MSTORE PUSH1 0x5 DUP5 ADD PUSH1 0x20 MSTORE PUSH1 0x40 DUP2 KECCAK256 SLOAD ISZERO PUSH2 0x1564 JUMPI PUSH1 0x40 DUP1 MLOAD PUSH3 0x461BCD PUSH1 0xE5 SHL DUP2 MSTORE PUSH1 0x20 PUSH1 0x4 DUP3 ADD MSTORE PUSH1 0x10 PUSH1 0x24 DUP3 ADD MSTORE PUSH16 0x185B1C9958591E481C185A59081BDD5D PUSH1 0x82 SHL PUSH1 0x44 DUP3 ADD MSTORE SWAP1 MLOAD SWAP1 DUP2 SWAP1 SUB PUSH1 0x64 ADD SWAP1 REVERT JUMPDEST PUSH1 0x2 DUP5 ADD SLOAD PUSH3 0x10000 SWAP1 DIV PUSH1 0xFF AND ISZERO PUSH2 0x15AE JUMPI PUSH1 0x40 MLOAD PUSH3 0x461BCD PUSH1 0xE5 SHL DUP2 MSTORE PUSH1 0x4 ADD DUP1 DUP1 PUSH1 0x20 ADD DUP3 DUP2 SUB DUP3 MSTORE PUSH1 0x29 DUP2 MSTORE PUSH1 0x20 ADD DUP1 PUSH2 0x271B PUSH1 0x29 SWAP2 CODECOPY PUSH1 0x40 ADD SWAP2 POP POP PUSH1 0x40 MLOAD DUP1 SWAP2 SUB SWAP1 REVERT JUMPDEST PUSH32 0xF9E1AE10923BFC79F52E309BAF8C7699EDB821F91EF5B5BD07BE29545917B3A6 PUSH1 0x0 SWAP1 DUP2 MSTORE PUSH1 0x5 DUP6 ADD PUSH1 0x20 MSTORE PUSH1 0x40 SWAP1 KECCAK256 SLOAD PUSH2 0x1631 JUMPI PUSH1 0x40 DUP1 MLOAD PUSH3 0x461BCD PUSH1 0xE5 SHL DUP2 MSTORE PUSH1 0x20 PUSH1 0x4 DUP3 ADD MSTORE PUSH1 0x18 PUSH1 0x24 DUP3 ADD MSTORE PUSH32 0x766F7465206E6565647320746F2062652074616C6C6965640000000000000000 PUSH1 0x44 DUP3 ADD MSTORE SWAP1 MLOAD SWAP1 DUP2 SWAP1 SUB PUSH1 0x64 ADD SWAP1 REVERT JUMPDEST PUSH32 0xF9E1AE10923BFC79F52E309BAF8C7699EDB821F91EF5B5BD07BE29545917B3A6 PUSH1 0x0 SWAP1 DUP2 MSTORE PUSH1 0x5 DUP5 ADD PUSH1 0x20 MSTORE PUSH1 0x40 SWAP1 KECCAK256 SLOAD PUSH3 0x15180 TIMESTAMP SWAP2 SWAP1 SWAP2 SUB GT PUSH2 0x16A8 JUMPI PUSH1 0x40 MLOAD PUSH3 0x461BCD PUSH1 0xE5 SHL DUP2 MSTORE PUSH1 0x4 ADD DUP1 DUP1 PUSH1 0x20 ADD DUP3 DUP2 SUB DUP3 MSTORE PUSH1 0x2B DUP2 MSTORE PUSH1 0x20 ADD DUP1 PUSH2 0x2766 PUSH1 0x2B SWAP2 CODECOPY PUSH1 0x40 ADD SWAP2 POP POP PUSH1 0x40 MLOAD DUP1 SWAP2 SUB SWAP1 REVERT JUMPDEST PUSH1 0x2 DUP5 DUP2 ADD SLOAD PUSH4 0x1000000 SWAP1 DIV PUSH1 0x1 PUSH1 0x1 PUSH1 0xA0 SHL SUB AND PUSH1 0x0 SWAP1 DUP2 MSTORE PUSH1 0x44 PUSH1 0x20 SWAP1 DUP2 MSTORE PUSH1 0x40 DUP1 DUP4 KECCAK256 PUSH32 0x29169706298D2B6DF50A532E958B56426DE1465348B93650FCA42D456EAEC5FC DUP5 MSTORE PUSH1 0x5 DUP10 ADD SWAP1 SWAP3 MSTORE SWAP1 SWAP2 KECCAK256 PUSH1 0x1 SWAP1 DUP2 SWAP1 SSTORE SWAP2 DUP6 ADD SLOAD SWAP1 SWAP2 PUSH2 0x100 SWAP1 SWAP2 DIV PUSH1 0xFF AND ISZERO ISZERO EQ ISZERO PUSH2 0x18D1 JUMPI PUSH3 0x15180 TIMESTAMP MOD TIMESTAMP SUB PUSH1 0x1 DUP3 ADD SSTORE PUSH1 0x46 PUSH1 0x20 MSTORE PUSH32 0xA5AE3E2B97D73FB849EA855D27F073B72815B38452D976BD57E4A157827DADD3 DUP1 SLOAD PUSH1 0x0 NOT ADD SWAP1 SSTORE PUSH32 0x5D9FADFC729FD027E395E5157EF1B53EF9FA4A8F053043C5F159307543E7CC97 PUSH1 0x0 MSTORE PUSH32 0x167AF83A0768D27540775CFEF6D996EB63F8A61FCDFB26E654C18FB50960E3BE SLOAD PUSH1 0x2 DUP7 ADD SLOAD DUP2 SWAP1 PUSH2 0x17BA SWAP1 PUSH4 0x1000000 SWAP1 DIV PUSH1 0x1 PUSH1 0x1 PUSH1 0xA0 SHL SUB AND PUSH2 0xCEF JUMP JUMPDEST LT ISZERO PUSH2 0x17E1 JUMPI PUSH1 0x2 DUP7 ADD SLOAD PUSH2 0x17DE SWAP1 PUSH4 0x1000000 SWAP1 DIV PUSH1 0x1 PUSH1 0x1 PUSH1 0xA0 SHL SUB AND PUSH2 0xCEF JUMP JUMPDEST SWAP1 POP JUMPDEST DUP2 SLOAD PUSH1 0x4 EQ ISZERO PUSH2 0x181C JUMPI PUSH1 0x5 DUP3 SSTORE PUSH1 0x2 DUP7 ADD SLOAD PUSH1 0x3 DUP8 ADD SLOAD PUSH2 0x1817 SWAP2 PUSH1 0x1 PUSH1 0x1 PUSH1 0xA0 SHL SUB PUSH4 0x1000000 SWAP1 SWAP2 DIV DUP2 AND SWAP2 AND DUP4 PUSH2 0x20AB JUMP JUMPDEST PUSH1 0x0 DUP3 SSTORE JUMPDEST PUSH1 0x0 JUMPDEST DUP5 DUP2 LT ISZERO PUSH2 0x18CA JUMPI PUSH1 0x40 DUP1 MLOAD DUP3 DUP8 SUB PUSH1 0x20 DUP1 DUP4 ADD SWAP2 SWAP1 SWAP2 MSTORE DUP3 MLOAD DUP1 DUP4 SUB DUP3 ADD DUP2 MSTORE SWAP2 DUP4 ADD DUP4 MSTORE DUP2 MLOAD SWAP2 DUP2 ADD SWAP2 SWAP1 SWAP2 KECCAK256 PUSH1 0x0 SWAP1 DUP2 MSTORE PUSH1 0x5 DUP11 ADD SWAP1 SWAP2 MSTORE KECCAK256 SLOAD SWAP4 POP DUP4 PUSH2 0x1867 JUMPI DUP9 SWAP4 POP JUMPDEST PUSH1 0x0 DUP5 DUP2 MSTORE PUSH1 0x36 PUSH1 0x20 SWAP1 DUP2 MSTORE PUSH1 0x40 DUP1 DUP4 KECCAK256 PUSH1 0x3 DUP2 ADD SLOAD PUSH32 0x1DA95F11543C9B03927178E07951795DFC95C7501A9D1CF00E13414CA33BC409 DUP6 MSTORE PUSH1 0x5 DUP3 ADD SWAP1 SWAP4 MSTORE SWAP3 KECCAK256 SLOAD PUSH2 0x18C1 SWAP2 ADDRESS SWAP2 PUSH1 0x1 PUSH1 0x1 PUSH1 0xA0 SHL SUB SWAP1 SWAP2 AND SWAP1 PUSH2 0x20AB JUMP JUMPDEST POP PUSH1 0x1 ADD PUSH2 0x181F JUMP JUMPDEST POP POP PUSH2 0x1B78 JUMP JUMPDEST PUSH1 0x2 DUP5 ADD SLOAD PUSH1 0x40 DUP1 MLOAD PUSH4 0x1000000 SWAP1 SWAP3 DIV PUSH1 0x60 SHL PUSH12 0xFFFFFFFFFFFFFFFFFFFFFFFF NOT AND PUSH1 0x20 DUP1 DUP5 ADD SWAP2 SWAP1 SWAP2 MSTORE PUSH12 0x111A5CDC1D5D1950DBDD5B9D PUSH1 0xA2 SHL PUSH1 0x34 DUP5 ADD MSTORE DUP2 MLOAD DUP1 DUP5 SUB DUP3 ADD DUP2 MSTORE SWAP3 DUP3 ADD DUP3 MSTORE DUP3 MLOAD SWAP3 DUP2 ADD SWAP3 SWAP1 SWAP3 KECCAK256 PUSH1 0x0 SWAP1 DUP2 MSTORE PUSH1 0x46 SWAP1 SWAP3 MSTORE SWAP1 KECCAK256 SLOAD PUSH1 0x1 EQ ISZERO PUSH2 0x1943 JUMPI PUSH1 0x1 DUP2 SSTORE JUMPDEST PUSH32 0x9F47A2659C3D32B749AE717D975E7962959890862423C4318CF86E4EC220291F PUSH1 0x0 SWAP1 DUP2 MSTORE PUSH1 0x5 DUP7 ADD PUSH1 0x20 DUP2 DUP2 MSTORE PUSH1 0x40 DUP1 DUP5 KECCAK256 SLOAD DUP5 MSTORE PUSH1 0x45 DUP3 MSTORE DUP1 DUP5 KECCAK256 PUSH32 0x6DE96EE4D33A0617F40A846309C8759048857F51B9D59A12D3C3786D4778883D DUP6 MSTORE SWAP3 SWAP1 SWAP2 MSTORE SWAP1 SWAP2 KECCAK256 SLOAD PUSH1 0x2 EQ ISZERO PUSH2 0x1A1E JUMPI PUSH32 0x9147231AB14EFB72C38117F68521DDEF8DE64F092C18C69DBFB602FFC4DE7F47 PUSH1 0x0 SWAP1 DUP2 MSTORE PUSH1 0x5 DUP8 ADD PUSH1 0x20 SWAP1 DUP2 MSTORE PUSH1 0x40 DUP1 DUP4 KECCAK256 SLOAD PUSH32 0x2F9328A9C75282BEC25BB04BEFAD06926366736E0030C985108445FA728335E5 DUP5 MSTORE DUP2 DUP5 KECCAK256 SLOAD DUP5 MSTORE PUSH1 0x3 DUP6 ADD SWAP1 SWAP3 MSTORE SWAP1 SWAP2 KECCAK256 SSTORE JUMPDEST PUSH32 0x2F9328A9C75282BEC25BB04BEFAD06926366736E0030C985108445FA728335E5 PUSH1 0x0 SWAP1 DUP2 MSTORE PUSH1 0x5 DUP8 ADD PUSH1 0x20 SWAP1 DUP2 MSTORE PUSH1 0x40 DUP1 DUP4 KECCAK256 SLOAD DUP4 MSTORE PUSH1 0x4 DUP5 ADD SWAP1 SWAP2 MSTORE SWAP1 KECCAK256 SLOAD PUSH1 0xFF AND ISZERO ISZERO PUSH1 0x1 EQ ISZERO PUSH2 0x1AB5 JUMPI PUSH32 0x2F9328A9C75282BEC25BB04BEFAD06926366736E0030C985108445FA728335E5 PUSH1 0x0 SWAP1 DUP2 MSTORE PUSH1 0x5 DUP8 ADD PUSH1 0x20 SWAP1 DUP2 MSTORE PUSH1 0x40 DUP1 DUP4 KECCAK256 SLOAD DUP4 MSTORE PUSH1 0x4 DUP5 ADD SWAP1 SWAP2 MSTORE SWAP1 KECCAK256 DUP1 SLOAD PUSH1 0xFF NOT AND SWAP1 SSTORE JUMPDEST PUSH1 0x0 JUMPDEST DUP5 DUP2 LT ISZERO PUSH2 0x1B75 JUMPI PUSH1 0x40 DUP1 MLOAD DUP3 DUP8 SUB PUSH1 0x20 DUP1 DUP4 ADD SWAP2 SWAP1 SWAP2 MSTORE DUP3 MLOAD DUP1 DUP4 SUB DUP3 ADD DUP2 MSTORE SWAP2 DUP4 ADD DUP4 MSTORE DUP2 MLOAD SWAP2 DUP2 ADD SWAP2 SWAP1 SWAP2 KECCAK256 PUSH1 0x0 SWAP1 DUP2 MSTORE PUSH1 0x5 DUP11 ADD SWAP1 SWAP2 MSTORE KECCAK256 SLOAD SWAP4 POP DUP4 ISZERO PUSH2 0x1B0E JUMPI PUSH1 0x0 DUP5 DUP2 MSTORE PUSH1 0x36 PUSH1 0x20 MSTORE PUSH1 0x40 SWAP1 KECCAK256 SWAP6 POP JUMPDEST PUSH1 0x2 DUP7 ADD SLOAD PUSH1 0x0 DUP6 DUP2 MSTORE PUSH1 0x36 PUSH1 0x20 SWAP1 DUP2 MSTORE PUSH1 0x40 DUP1 DUP4 KECCAK256 PUSH32 0x1DA95F11543C9B03927178E07951795DFC95C7501A9D1CF00E13414CA33BC409 DUP5 MSTORE PUSH1 0x5 ADD SWAP1 SWAP2 MSTORE SWAP1 KECCAK256 SLOAD PUSH2 0x1B6D SWAP2 ADDRESS SWAP2 PUSH4 0x1000000 SWAP1 SWAP2 DIV PUSH1 0x1 PUSH1 0x1 PUSH1 0xA0 SHL SUB AND SWAP1 PUSH2 0x20AB JUMP JUMPDEST PUSH1 0x1 ADD PUSH2 0x1AB8 JUMP JUMPDEST POP POP JUMPDEST PUSH1 0x2 DUP5 DUP2 ADD SLOAD PUSH1 0x40 DUP1 MLOAD PUSH4 0x1000000 SWAP1 SWAP3 DIV PUSH1 0x60 SHL PUSH12 0xFFFFFFFFFFFFFFFFFFFFFFFF NOT AND PUSH1 0x20 DUP1 DUP5 ADD SWAP2 SWAP1 SWAP2 MSTORE PUSH12 0x111A5CDC1D5D1950DBDD5B9D PUSH1 0xA2 SHL PUSH1 0x34 DUP5 ADD MSTORE DUP2 MLOAD DUP1 DUP5 SUB DUP3 ADD DUP2 MSTORE SWAP3 DUP3 ADD DUP3 MSTORE DUP3 MLOAD SWAP3 DUP2 ADD SWAP3 SWAP1 SWAP3 KECCAK256 PUSH1 0x0 SWAP1 DUP2 MSTORE PUSH1 0x46 DUP4 MSTORE DUP2 DUP2 KECCAK256 DUP1 SLOAD PUSH1 0x0 NOT ADD SWAP1 SSTORE PUSH32 0x6DE96EE4D33A0617F40A846309C8759048857F51B9D59A12D3C3786D4778883D DUP2 MSTORE PUSH1 0x5 DUP10 ADD SWAP1 SWAP3 MSTORE SWAP1 KECCAK256 SLOAD EQ ISZERO PUSH2 0x1C8A JUMPI PUSH32 0x9F47A2659C3D32B749AE717D975E7962959890862423C4318CF86E4EC220291F PUSH1 0x0 SWAP1 DUP2 MSTORE PUSH1 0x5 DUP7 ADD PUSH1 0x20 SWAP1 DUP2 MSTORE PUSH1 0x40 DUP1 DUP4 KECCAK256 SLOAD DUP4 MSTORE PUSH1 0x45 DUP3 MSTORE DUP1 DUP4 KECCAK256 PUSH32 0x310199159A20C50879FFB440B45802138B5B162EC9426720E9DD3EE8BBCDB9D7 DUP5 MSTORE PUSH1 0x1 ADD SWAP1 SWAP2 MSTORE SWAP1 KECCAK256 DUP1 SLOAD PUSH1 0x0 NOT ADD SWAP1 SSTORE JUMPDEST POP POP POP POP POP POP POP POP JUMP JUMPDEST PUSH1 0x0 PUSH2 0x1CA1 CALLER DUP5 DUP5 PUSH2 0x20AB JUMP JUMPDEST POP PUSH1 0x1 SWAP3 SWAP2 POP POP JUMP JUMPDEST PUSH1 0x46 PUSH1 0x20 MSTORE PUSH1 0x0 SWAP1 DUP2 MSTORE PUSH1 0x40 SWAP1 KECCAK256 SLOAD DUP2 JUMP JUMPDEST PUSH32 0x310199159A20C50879FFB440B45802138B5B162EC9426720E9DD3EE8BBCDB9D7 PUSH1 0x0 MSTORE PUSH1 0x46 PUSH1 0x20 MSTORE PUSH32 0x1CE2382BC92689B00BA121FA5A411AA976168AFFDD8AC143A69035DD984B3B6A SLOAD DUP3 GT ISZERO PUSH2 0x1D54 JUMPI PUSH1 0x40 DUP1 MLOAD PUSH3 0x461BCD PUSH1 0xE5 SHL DUP2 MSTORE PUSH1 0x20 PUSH1 0x4 DUP3 ADD MSTORE PUSH1 0x16 PUSH1 0x24 DUP3 ADD MSTORE PUSH22 0x191A5CDC1D5D1948191BD95CC81B9BDD08195E1A5CDD PUSH1 0x52 SHL PUSH1 0x44 DUP3 ADD MSTORE SWAP1 MLOAD SWAP1 DUP2 SWAP1 SUB PUSH1 0x64 ADD SWAP1 REVERT JUMPDEST PUSH1 0x0 DUP3 DUP2 MSTORE PUSH1 0x36 PUSH1 0x20 MSTORE PUSH1 0x40 SWAP1 KECCAK256 PUSH1 0x2 DUP2 ADD SLOAD PUSH1 0xFF AND ISZERO PUSH2 0x1DA6 JUMPI PUSH1 0x40 MLOAD PUSH3 0x461BCD PUSH1 0xE5 SHL DUP2 MSTORE PUSH1 0x4 ADD DUP1 DUP1 PUSH1 0x20 ADD DUP3 DUP2 SUB DUP3 MSTORE PUSH1 0x25 DUP2 MSTORE PUSH1 0x20 ADD DUP1 PUSH2 0x280B PUSH1 0x25 SWAP2 CODECOPY PUSH1 0x40 ADD SWAP2 POP POP PUSH1 0x40 MLOAD DUP1 SWAP2 SUB SWAP1 REVERT JUMPDEST PUSH32 0x4B4CEFD5CED7569EF0D091282B4BCA9C52A034C56471A6061AFD1BF307A2DE7C PUSH1 0x0 SWAP1 DUP2 MSTORE PUSH1 0x5 DUP3 ADD PUSH1 0x20 MSTORE PUSH1 0x40 DUP2 KECCAK256 SLOAD PUSH2 0x1DE3 SWAP1 CALLER SWAP1 PUSH2 0xB05 JUMP JUMPDEST CALLER PUSH1 0x0 SWAP1 DUP2 MSTORE PUSH1 0x6 DUP5 ADD PUSH1 0x20 MSTORE PUSH1 0x40 SWAP1 KECCAK256 SLOAD SWAP1 SWAP2 POP PUSH1 0xFF AND ISZERO ISZERO PUSH1 0x1 EQ ISZERO PUSH2 0x1E52 JUMPI PUSH1 0x40 DUP1 MLOAD PUSH3 0x461BCD PUSH1 0xE5 SHL DUP2 MSTORE PUSH1 0x20 PUSH1 0x4 DUP3 ADD MSTORE PUSH1 0x18 PUSH1 0x24 DUP3 ADD MSTORE PUSH32 0x53656E6465722068617320616C726561647920766F7465640000000000000000 PUSH1 0x44 DUP3 ADD MSTORE SWAP1 MLOAD SWAP1 DUP2 SWAP1 SUB PUSH1 0x64 ADD SWAP1 REVERT JUMPDEST DUP1 PUSH2 0x1E98 JUMPI PUSH1 0x40 DUP1 MLOAD PUSH3 0x461BCD PUSH1 0xE5 SHL DUP2 MSTORE PUSH1 0x20 PUSH1 0x4 DUP3 ADD MSTORE PUSH1 0x11 PUSH1 0x24 DUP3 ADD MSTORE PUSH17 0x557365722062616C616E6365206973203 PUSH1 0x7C SHL PUSH1 0x44 DUP3 ADD MSTORE SWAP1 MLOAD SWAP1 DUP2 SWAP1 SUB PUSH1 0x64 ADD SWAP1 REVERT JUMPDEST CALLER PUSH1 0x0 SWAP1 DUP2 MSTORE PUSH1 0x44 PUSH1 0x20 MSTORE PUSH1 0x40 SWAP1 KECCAK256 SLOAD PUSH1 0x3 EQ ISZERO PUSH2 0x1EFD JUMPI PUSH1 0x40 DUP1 MLOAD PUSH3 0x461BCD PUSH1 0xE5 SHL DUP2 MSTORE PUSH1 0x20 PUSH1 0x4 DUP3 ADD MSTORE PUSH1 0x16 PUSH1 0x24 DUP3 ADD MSTORE PUSH32 0x4D696E657220697320756E646572206469737075746500000000000000000000 PUSH1 0x44 DUP3 ADD MSTORE SWAP1 MLOAD SWAP1 DUP2 SWAP1 SUB PUSH1 0x64 ADD SWAP1 REVERT JUMPDEST CALLER PUSH1 0x0 SWAP1 DUP2 MSTORE PUSH1 0x6 DUP4 ADD PUSH1 0x20 SWAP1 DUP2 MSTORE PUSH1 0x40 DUP1 DUP4 KECCAK256 DUP1 SLOAD PUSH1 0xFF NOT AND PUSH1 0x1 SWAP1 DUP2 OR SWAP1 SWAP2 SSTORE PUSH32 0x1DA378694063870452CE03B189F48E04C1AA026348E74E6C86E10738514AD2C4 DUP5 MSTORE PUSH1 0x5 DUP7 ADD SWAP1 SWAP3 MSTORE SWAP1 SWAP2 KECCAK256 DUP1 SLOAD SWAP1 SWAP2 ADD SWAP1 SSTORE DUP3 ISZERO PUSH2 0x1F72 JUMPI PUSH1 0x1 DUP3 ADD SLOAD PUSH2 0x1F68 SWAP1 DUP3 PUSH2 0x25CD JUMP JUMPDEST PUSH1 0x1 DUP4 ADD SSTORE PUSH2 0x1F87 JUMP JUMPDEST PUSH1 0x1 DUP3 ADD SLOAD PUSH2 0x1F81 SWAP1 DUP3 PUSH2 0x25F8 JUMP JUMPDEST PUSH1 0x1 DUP4 ADD SSTORE JUMPDEST PUSH1 0x40 DUP1 MLOAD DUP5 ISZERO ISZERO DUP2 MSTORE SWAP1 MLOAD DUP3 SWAP2 CALLER SWAP2 DUP8 SWAP2 PUSH32 0x911EF2E98570B1D96C0E8EF81107A33D5B8E844AEB8F9710F9BC76C3B3FEF40E SWAP2 SWAP1 DUP2 SWAP1 SUB PUSH1 0x20 ADD SWAP1 LOG4 POP POP POP POP JUMP JUMPDEST PUSH1 0x49 PUSH1 0x20 MSTORE DUP2 PUSH1 0x0 MSTORE PUSH1 0x40 PUSH1 0x0 KECCAK256 DUP2 DUP2 SLOAD DUP2 LT PUSH2 0x1FE5 JUMPI PUSH1 0x0 DUP1 REVERT JUMPDEST PUSH1 0x0 SWAP2 DUP3 MSTORE PUSH1 0x20 SWAP1 SWAP2 KECCAK256 ADD SLOAD PUSH1 0x1 PUSH1 0x1 PUSH1 0x80 SHL SUB DUP1 DUP3 AND SWAP4 POP PUSH1 0x1 PUSH1 0x80 SHL SWAP1 SWAP2 DIV AND SWAP1 POP DUP3 JUMP JUMPDEST PUSH1 0x38 PUSH1 0x20 MSTORE PUSH1 0x0 SWAP1 DUP2 MSTORE PUSH1 0x40 SWAP1 KECCAK256 SLOAD DUP2 JUMP JUMPDEST PUSH1 0x36 PUSH1 0x20 MSTORE PUSH1 0x0 SWAP1 DUP2 MSTORE PUSH1 0x40 SWAP1 KECCAK256 DUP1 SLOAD PUSH1 0x1 DUP3 ADD SLOAD PUSH1 0x2 DUP4 ADD SLOAD PUSH1 0x3 DUP5 ADD SLOAD PUSH1 0x4 SWAP1 SWAP5 ADD SLOAD SWAP3 SWAP4 SWAP2 SWAP3 PUSH1 0xFF DUP1 DUP4 AND SWAP4 PUSH2 0x100 DUP5 DIV DUP3 AND SWAP4 PUSH3 0x10000 DUP2 DIV SWAP1 SWAP3 AND SWAP3 PUSH1 0x1 PUSH1 0x1 PUSH1 0xA0 SHL SUB PUSH4 0x1000000 SWAP1 SWAP4 DIV DUP4 AND SWAP3 SWAP2 DUP3 AND SWAP2 AND DUP9 JUMP JUMPDEST PUSH1 0x1 PUSH1 0x1 PUSH1 0xA0 SHL SUB SWAP2 DUP3 AND PUSH1 0x0 SWAP1 DUP2 MSTORE PUSH1 0x4A PUSH1 0x20 SWAP1 DUP2 MSTORE PUSH1 0x40 DUP1 DUP4 KECCAK256 SWAP4 SWAP1 SWAP5 AND DUP3 MSTORE SWAP2 SWAP1 SWAP2 MSTORE KECCAK256 SLOAD SWAP1 JUMP JUMPDEST PUSH2 0xBB7 SWAP1 JUMP JUMPDEST DUP1 PUSH2 0x20E7 JUMPI PUSH1 0x40 MLOAD PUSH3 0x461BCD PUSH1 0xE5 SHL DUP2 MSTORE PUSH1 0x4 ADD DUP1 DUP1 PUSH1 0x20 ADD DUP3 DUP2 SUB DUP3 MSTORE PUSH1 0x21 DUP2 MSTORE PUSH1 0x20 ADD DUP1 PUSH2 0x27B8 PUSH1 0x21 SWAP2 CODECOPY PUSH1 0x40 ADD SWAP2 POP POP PUSH1 0x40 MLOAD DUP1 SWAP2 SUB SWAP1 REVERT JUMPDEST PUSH1 0x1 PUSH1 0x1 PUSH1 0xA0 SHL SUB DUP3 AND PUSH2 0x2142 JUMPI PUSH1 0x40 DUP1 MLOAD PUSH3 0x461BCD PUSH1 0xE5 SHL DUP2 MSTORE PUSH1 0x20 PUSH1 0x4 DUP3 ADD MSTORE PUSH1 0x15 PUSH1 0x24 DUP3 ADD MSTORE PUSH32 0x5265636569766572206973203020616464726573730000000000000000000000 PUSH1 0x44 DUP3 ADD MSTORE SWAP1 MLOAD SWAP1 DUP2 SWAP1 SUB PUSH1 0x64 ADD SWAP1 REVERT JUMPDEST PUSH2 0x214C DUP4 DUP3 PUSH2 0x12BC JUMP JUMPDEST PUSH2 0x2187 JUMPI PUSH1 0x40 MLOAD PUSH3 0x461BCD PUSH1 0xE5 SHL DUP2 MSTORE PUSH1 0x4 ADD DUP1 DUP1 PUSH1 0x20 ADD DUP3 DUP2 SUB DUP3 MSTORE PUSH1 0x27 DUP2 MSTORE PUSH1 0x20 ADD DUP1 PUSH2 0x2791 PUSH1 0x27 SWAP2 CODECOPY PUSH1 0x40 ADD SWAP2 POP POP PUSH1 0x40 MLOAD DUP1 SWAP2 SUB SWAP1 REVERT JUMPDEST PUSH1 0x0 PUSH2 0x2192 DUP5 PUSH2 0xCEF JUMP JUMPDEST SWAP1 POP DUP2 PUSH2 0x21A1 DUP6 DUP3 DUP5 SUB PUSH2 0x261E JUMP JUMPDEST PUSH2 0x21AA DUP5 PUSH2 0xCEF JUMP JUMPDEST SWAP2 POP DUP2 PUSH1 0x1 PUSH1 0x1 PUSH1 0x80 SHL SUB AND DUP2 DUP4 ADD PUSH1 0x1 PUSH1 0x1 PUSH1 0x80 SHL SUB AND LT ISZERO PUSH2 0x2209 JUMPI PUSH1 0x40 DUP1 MLOAD PUSH3 0x461BCD PUSH1 0xE5 SHL DUP2 MSTORE PUSH1 0x20 PUSH1 0x4 DUP3 ADD MSTORE PUSH1 0x11 PUSH1 0x24 DUP3 ADD MSTORE PUSH17 0x13DD995C999B1BDDC81A185C1C195B9959 PUSH1 0x7A SHL PUSH1 0x44 DUP3 ADD MSTORE SWAP1 MLOAD SWAP1 DUP2 SWAP1 SUB PUSH1 0x64 ADD SWAP1 REVERT JUMPDEST PUSH2 0x2215 DUP5 DUP3 DUP5 ADD PUSH2 0x261E JUMP JUMPDEST DUP4 PUSH1 0x1 PUSH1 0x1 PUSH1 0xA0 SHL SUB AND DUP6 PUSH1 0x1 PUSH1 0x1 PUSH1 0xA0 SHL SUB AND PUSH32 0xDDF252AD1BE2C89B69C2B068FC378DAA952BA7F163C4A11628F55A4DF523B3EF DUP6 PUSH1 0x40 MLOAD DUP1 DUP3 DUP2 MSTORE PUSH1 0x20 ADD SWAP2 POP POP PUSH1 0x40 MLOAD DUP1 SWAP2 SUB SWAP1 LOG3 POP POP POP POP POP JUMP JUMPDEST PUSH1 0x40 DUP1 MLOAD PUSH1 0x20 PUSH1 0x24 DUP3 ADD DUP2 SWAP1 MSTORE PUSH1 0x0 PUSH1 0x44 DUP4 ADD DUP2 SWAP1 MSTORE DUP4 MLOAD DUP1 DUP5 SUB PUSH1 0x64 ADD DUP2 MSTORE PUSH1 0x84 SWAP1 SWAP4 ADD DUP5 MSTORE SWAP1 DUP3 ADD DUP1 MLOAD PUSH1 0x1 PUSH1 0x1 PUSH1 0xE0 SHL SUB AND PUSH4 0xFC735E99 PUSH1 0xE0 SHL OR DUP2 MSTORE SWAP3 MLOAD DUP3 MLOAD SWAP2 SWAP4 PUSH1 0x60 SWAP4 PUSH1 0x1 PUSH1 0x1 PUSH1 0xA0 SHL SUB DUP8 AND SWAP4 SWAP1 SWAP3 SWAP2 DUP3 SWAP2 DUP1 DUP4 DUP4 JUMPDEST PUSH1 0x20 DUP4 LT PUSH2 0x22E3 JUMPI DUP1 MLOAD DUP3 MSTORE PUSH1 0x1F NOT SWAP1 SWAP3 ADD SWAP2 PUSH1 0x20 SWAP2 DUP3 ADD SWAP2 ADD PUSH2 0x22C4 JUMP JUMPDEST PUSH1 0x1 DUP4 PUSH1 0x20 SUB PUSH2 0x100 EXP SUB DUP1 NOT DUP3 MLOAD AND DUP2 DUP5 MLOAD AND DUP1 DUP3 OR DUP6 MSTORE POP POP POP POP POP POP SWAP1 POP ADD SWAP2 POP POP PUSH1 0x0 PUSH1 0x40 MLOAD DUP1 DUP4 SUB DUP2 PUSH1 0x0 DUP7 GAS CALL SWAP2 POP POP RETURNDATASIZE DUP1 PUSH1 0x0 DUP2 EQ PUSH2 0x2345 JUMPI PUSH1 0x40 MLOAD SWAP2 POP PUSH1 0x1F NOT PUSH1 0x3F RETURNDATASIZE ADD AND DUP3 ADD PUSH1 0x40 MSTORE RETURNDATASIZE DUP3 MSTORE RETURNDATASIZE PUSH1 0x0 PUSH1 0x20 DUP5 ADD RETURNDATACOPY PUSH2 0x234A JUMP JUMPDEST PUSH1 0x60 SWAP2 POP JUMPDEST POP SWAP2 POP SWAP2 POP DUP2 DUP1 ISZERO PUSH2 0x2373 JUMPI POP PUSH2 0xBB7 DUP2 DUP1 PUSH1 0x20 ADD SWAP1 MLOAD PUSH1 0x20 DUP2 LT ISZERO PUSH2 0x236F JUMPI PUSH1 0x0 DUP1 REVERT JUMPDEST POP MLOAD GT JUMPDEST PUSH2 0x23C4 JUMPI PUSH1 0x40 DUP1 MLOAD PUSH3 0x461BCD PUSH1 0xE5 SHL DUP2 MSTORE PUSH1 0x20 PUSH1 0x4 DUP3 ADD MSTORE PUSH1 0x15 PUSH1 0x24 DUP3 ADD MSTORE PUSH32 0x6E65772074656C6C6F7220697320696E76616C69640000000000000000000000 PUSH1 0x44 DUP3 ADD MSTORE SWAP1 MLOAD SWAP1 DUP2 SWAP1 SUB PUSH1 0x64 ADD SWAP1 REVERT JUMPDEST POP POP POP JUMP JUMPDEST PUSH1 0x0 DUP2 DUP2 MSTORE PUSH1 0x36 PUSH1 0x20 DUP2 DUP2 MSTORE PUSH1 0x40 DUP1 DUP5 KECCAK256 PUSH32 0x6AB2B18AAFE78FD59C6A4092015BDDD9FCACB8170F72B299074F74D76A91A923 DUP6 MSTORE PUSH1 0x5 ADD DUP1 DUP4 MSTORE DUP2 DUP6 KECCAK256 DUP1 SLOAD PUSH1 0x1 ADD SWAP1 DUP2 SWAP1 SSTORE DUP7 DUP7 MSTORE SWAP4 DUP4 MSTORE DUP2 MLOAD DUP1 DUP5 ADD DUP6 SWAP1 MSTORE DUP3 MLOAD DUP1 DUP3 SUB DUP6 ADD DUP2 MSTORE SWAP1 DUP4 ADD DUP4 MSTORE DUP1 MLOAD SWAP1 DUP5 ADD KECCAK256 DUP6 MSTORE SWAP1 SWAP2 MSTORE SWAP1 SWAP2 KECCAK256 DUP4 SWAP1 SSTORE DUP3 DUP3 EQ PUSH2 0x6AE JUMPI PUSH1 0x0 DUP3 DUP2 MSTORE PUSH1 0x36 PUSH1 0x20 DUP2 DUP2 MSTORE PUSH1 0x40 DUP1 DUP5 KECCAK256 DUP2 MLOAD PUSH1 0x0 NOT DUP8 ADD DUP2 DUP6 ADD MSTORE DUP3 MLOAD DUP1 DUP3 SUB DUP6 ADD DUP2 MSTORE SWAP1 DUP4 ADD DUP4 MSTORE DUP1 MLOAD SWAP1 DUP5 ADD KECCAK256 DUP6 MSTORE PUSH1 0x5 SWAP1 DUP2 ADD DUP4 MSTORE DUP2 DUP6 KECCAK256 SLOAD DUP1 DUP7 MSTORE SWAP4 DUP4 MSTORE DUP2 DUP6 KECCAK256 PUSH32 0x46F7D53798D31923F6952572C6A19AD2D1A8238D26649C2F3493A6D69E425D28 DUP7 MSTORE ADD SWAP1 SWAP2 MSTORE SWAP1 SWAP2 KECCAK256 SLOAD TIMESTAMP LT ISZERO PUSH2 0x2508 JUMPI PUSH1 0x40 DUP1 MLOAD PUSH3 0x461BCD PUSH1 0xE5 SHL DUP2 MSTORE PUSH1 0x20 PUSH1 0x4 DUP3 ADD MSTORE PUSH1 0x17 PUSH1 0x24 DUP3 ADD MSTORE PUSH32 0x4469737075746520697320616C7265616479206F70656E000000000000000000 PUSH1 0x44 DUP3 ADD MSTORE SWAP1 MLOAD SWAP1 DUP2 SWAP1 SUB PUSH1 0x64 ADD SWAP1 REVERT JUMPDEST PUSH1 0x0 DUP2 DUP2 MSTORE PUSH1 0x36 PUSH1 0x20 MSTORE PUSH1 0x40 SWAP1 KECCAK256 PUSH1 0x2 ADD SLOAD PUSH1 0xFF AND ISZERO PUSH2 0xCA9 JUMPI PUSH1 0x0 DUP2 DUP2 MSTORE PUSH1 0x36 PUSH1 0x20 SWAP1 DUP2 MSTORE PUSH1 0x40 DUP1 DUP4 KECCAK256 PUSH32 0xF9E1AE10923BFC79F52E309BAF8C7699EDB821F91EF5B5BD07BE29545917B3A6 DUP5 MSTORE PUSH1 0x5 ADD SWAP1 SWAP2 MSTORE SWAP1 KECCAK256 SLOAD PUSH3 0x15180 TIMESTAMP SWAP2 SWAP1 SWAP2 SUB GT ISZERO PUSH2 0xCA9 JUMPI PUSH1 0x40 DUP1 MLOAD PUSH3 0x461BCD PUSH1 0xE5 SHL DUP2 MSTORE PUSH1 0x20 PUSH1 0x4 DUP3 ADD MSTORE PUSH1 0x1F PUSH1 0x24 DUP3 ADD MSTORE PUSH32 0x54696D6520666F7220766F74696E6720686176656E277420656C617073656400 PUSH1 0x44 DUP3 ADD MSTORE SWAP1 MLOAD SWAP1 DUP2 SWAP1 SUB PUSH1 0x64 ADD SWAP1 REVERT JUMPDEST PUSH1 0x0 DUP3 DUP3 GT ISZERO PUSH2 0x25C7 JUMPI INVALID JUMPDEST POP SWAP1 SUB SWAP1 JUMP JUMPDEST PUSH1 0x0 DUP1 DUP3 SGT ISZERO PUSH2 0x25EA JUMPI POP DUP2 DUP2 ADD DUP3 DUP2 SLT ISZERO PUSH2 0x25E5 JUMPI INVALID JUMPDEST PUSH2 0x6AE JUMP JUMPDEST POP DUP2 DUP2 ADD DUP3 DUP2 SGT ISZERO PUSH2 0x6AE JUMPI INVALID JUMPDEST PUSH1 0x0 DUP1 DUP3 SGT ISZERO PUSH2 0x2610 JUMPI POP DUP1 DUP3 SUB DUP3 DUP2 SGT ISZERO PUSH2 0x25E5 JUMPI INVALID JUMPDEST POP DUP1 DUP3 SUB DUP3 DUP2 SLT ISZERO PUSH2 0x6AE JUMPI INVALID JUMPDEST PUSH1 0x1 PUSH1 0x1 PUSH1 0xA0 SHL SUB DUP3 AND PUSH1 0x0 SWAP1 DUP2 MSTORE PUSH1 0x49 PUSH1 0x20 MSTORE PUSH1 0x40 SWAP1 KECCAK256 DUP1 SLOAD ISZERO DUP1 PUSH2 0x266B JUMPI POP DUP1 SLOAD NUMBER SWAP1 DUP3 SWAP1 PUSH1 0x0 NOT DUP2 ADD SWAP1 DUP2 LT PUSH2 0x2653 JUMPI INVALID JUMPDEST PUSH1 0x0 SWAP2 DUP3 MSTORE PUSH1 0x20 SWAP1 SWAP2 KECCAK256 ADD SLOAD PUSH1 0x1 PUSH1 0x1 PUSH1 0x80 SHL SUB AND EQ ISZERO JUMPDEST ISZERO PUSH2 0x26DC JUMPI PUSH1 0x40 DUP1 MLOAD DUP1 DUP3 ADD SWAP1 SWAP2 MSTORE NUMBER PUSH1 0x1 PUSH1 0x1 PUSH1 0x80 SHL SUB SWAP1 DUP2 AND DUP3 MSTORE DUP4 DUP2 AND PUSH1 0x20 DUP1 DUP5 ADD SWAP2 DUP3 MSTORE DUP5 SLOAD PUSH1 0x1 DUP2 ADD DUP7 SSTORE PUSH1 0x0 DUP7 DUP2 MSTORE SWAP2 SWAP1 SWAP2 KECCAK256 SWAP4 MLOAD SWAP4 ADD DUP1 SLOAD SWAP2 MLOAD PUSH16 0xFFFFFFFFFFFFFFFFFFFFFFFFFFFFFFFF NOT SWAP1 SWAP3 AND SWAP4 DUP4 AND SWAP4 SWAP1 SWAP4 OR DUP3 AND PUSH1 0x1 PUSH1 0x80 SHL SWAP2 SWAP1 SWAP3 AND MUL OR SWAP1 SSTORE PUSH2 0x23C4 JUMP JUMPDEST DUP1 SLOAD PUSH1 0x0 SWAP1 DUP3 SWAP1 PUSH1 0x0 NOT DUP2 ADD SWAP1 DUP2 LT PUSH2 0x26F1 JUMPI INVALID JUMPDEST PUSH1 0x0 SWAP2 DUP3 MSTORE PUSH1 0x20 SWAP1 SWAP2 KECCAK256 ADD DUP1 SLOAD PUSH1 0x1 PUSH1 0x1 PUSH1 0x80 SHL SUB DUP1 DUP7 AND PUSH1 0x1 PUSH1 0x80 SHL MUL SWAP2 AND OR SWAP1 SSTORE POP POP POP POP JUMP INVALID PUSH7 0x756E6374696F6E KECCAK256 PUSH15 0x6F742063616C6C61626C6520666F72 PUSH12 0x20666F726B2070726F706F73 PUSH2 0x6C73 GASLIMIT MSTORE NUMBER ORIGIN ADDRESS GASPRICE KECCAK256 PUSH2 0x7070 PUSH19 0x6F766520746F20746865207A65726F20616464 PUSH19 0x65737354696D6520666F72206120666F6C6C6F PUSH24 0x2075702064697370757465206861736E277420656C617073 PUSH6 0x6453686F756C PUSH5 0x2068617665 KECCAK256 PUSH20 0x756666696369656E742062616C616E636520746F KECCAK256 PUSH21 0x72616465547269656420746F2073656E64206E6F6E 0x2D PUSH17 0x6F73697469766520616D6F756E74446973 PUSH17 0x757465206D757374206265207374617274 PUSH6 0x642077697468 PUSH10 0x6E2061207765656B206F PUSH7 0x20626164207661 PUSH13 0x75657468652064697370757465 KECCAK256 PUSH9 0x617320616C72656164 PUSH26 0x206265656E206578656375746564A26469706673582212202986 PUSH28 0x6CD0466528D2D5014ACED0C9FDADDEF388BEEF09192C7D255971D191 SWAP11 PUSH5 0x736F6C6343 STOP SMOD DIV STOP CALLER "},"methodIdentifiers":{"_allowances(address,address)":"024c2ddd","addresses(bytes32)":"699f200f","allowance(address,address)":"dd62ed3e","allowedToTrade(address,uint256)":"999cf26c","approve(address,uint256)":"095ea7b3","balanceOf(address)":"70a08231","balanceOfAt(address,uint256)":"4ee2cd7e","balances(address,uint256)":"cbf1304d","beginDispute(uint256,uint256,uint256)":"8581af19","bytesVars(bytes32)":"62dd1d2a","currentMiners(uint256)":"1fd22364","disputeIdByDisputeHash(bytes32)":"d01f4d9e","disputesById(uint256)":"db085beb","migrated(address)":"4ba0a5ee","minersByChallenge(bytes32,address)":"48b18e54","newValueTimestamps(uint256)":"438c0aa3","proposeFork(address)":"26b7d9f6","requestIdByQueryHash(bytes32)":"5700242c","transfer(address,uint256)":"a9059cbb","transferFrom(address,address,uint256)":"23b872dd","uints(bytes32)":"b59e14d4","unlockDisputeFee(uint256)":"9a01ca13","verify()":"fc735e99","vote(uint256,bool)":"c9d27afe"}}}}}