{"contracts/tellor360/oldContracts/contracts/tellor3/TellorStorage.sol":{"TellorStorage":{"abi":[{"inputs":[{"internalType":"address","name":"","type":"address"},{"internalType":"address","name":"","type":"address"}],"name":"_allowances","outputs":[{"internalType":"uint256","name":"","type":"uint256"}],"stateMutability":"view","type":"function"},{"inputs":[{"internalType":"bytes32","name":"","type":"bytes32"}],"name":"addresses","outputs":[{"internalType":"address","name":"","type":"address"}],"stateMutability":"view","type":"function"},{"inputs":[{"internalType":"address","name":"","type":"address"},{"internalType":"uint256","name":"","type":"uint256"}],"name":"balances","outputs":[{"internalType":"uint128","name":"fromBlock","type":"uint128"},{"internalType":"uint128","name":"value","type":"uint128"}],"stateMutability":"view","type":"function"},{"inputs":[{"internalType":"bytes32","name":"","type":"bytes32"}],"name":"bytesVars","outputs":[{"internalType":"bytes32","name":"","type":"bytes32"}],"stateMutability":"view","type":"function"},{"inputs":[{"internalType":"uint256","name":"","type":"uint256"}],"name":"currentMiners","outputs":[{"internalType":"uint256","name":"value","type":"uint256"},{"internalType":"address","name":"miner","type":"address"}],"stateMutability":"view","type":"function"},{"inputs":[{"internalType":"bytes32","name":"","type":"bytes32"}],"name":"disputeIdByDisputeHash","outputs":[{"internalType":"uint256","name":"","type":"uint256"}],"stateMutability":"view","type":"function"},{"inputs":[{"internalType":"uint256","name":"","type":"uint256"}],"name":"disputesById","outputs":[{"internalType":"bytes32","name":"hash","type":"bytes32"},{"internalType":"int256","name":"tally","type":"int256"},{"internalType":"bool","name":"executed","type":"bool"},{"internalType":"bool","name":"disputeVotePassed","type":"bool"},{"internalType":"bool","name":"isPropFork","type":"bool"},{"internalType":"address","name":"reportedMiner","type":"address"},{"internalType":"address","name":"reportingParty","type":"address"},{"internalType":"address","name":"proposedForkAddress","type":"address"}],"stateMutability":"view","type":"function"},{"inputs":[{"internalType":"address","name":"","type":"address"}],"name":"migrated","outputs":[{"internalType":"bool","name":"","type":"bool"}],"stateMutability":"view","type":"function"},{"inputs":[{"internalType":"bytes32","name":"","type":"bytes32"},{"internalType":"address","name":"","type":"address"}],"name":"minersByChallenge","outputs":[{"internalType":"bool","name":"","type":"bool"}],"stateMutability":"view","type":"function"},{"inputs":[{"internalType":"uint256","name":"","type":"uint256"}],"name":"newValueTimestamps","outputs":[{"internalType":"uint256","name":"","type":"uint256"}],"stateMutability":"view","type":"function"},{"inputs":[{"internalType":"bytes32","name":"","type":"bytes32"}],"name":"requestIdByQueryHash","outputs":[{"internalType":"uint256","name":"","type":"uint256"}],"stateMutability":"view","type":"function"},{"inputs":[{"internalType":"bytes32","name":"","type":"bytes32"}],"name":"uints","outputs":[{"internalType":"uint256","name":"","type":"uint256"}],"stateMutability":"view","type":"function"}],"evm":{"bytecode":{"linkReferences":{},"object":"608060405234801561001057600080fd5b50610525806100206000396000f3fe608060405234801561001057600080fd5b50600436106100d45760003560e01c806362dd1d2a11610081578063cbf1304d1161005b578063cbf1304d1461026a578063d01f4d9e146102c5578063db085beb146102e2576100d4565b806362dd1d2a146101f7578063699f200f14610214578063b59e14d41461024d576100d4565b806348b18e54116100b257806348b18e54146101745780634ba0a5ee146101b45780635700242c146101da576100d4565b8063024c2ddd146100d95780631fd2236414610119578063438c0aa314610157575b600080fd5b610107600480360360408110156100ef57600080fd5b506001600160a01b038135811691602001351661034f565b60408051918252519081900360200190f35b6101366004803603602081101561012f57600080fd5b503561036c565b604080519283526001600160a01b0390911660208301528051918290030190f35b6101076004803603602081101561016d57600080fd5b5035610397565b6101a06004803603604081101561018a57600080fd5b50803590602001356001600160a01b03166103b8565b604080519115158252519081900360200190f35b6101a0600480360360208110156101ca57600080fd5b50356001600160a01b03166103d8565b610107600480360360208110156101f057600080fd5b50356103ed565b6101076004803603602081101561020d57600080fd5b50356103ff565b6102316004803603602081101561022a57600080fd5b5035610411565b604080516001600160a01b039092168252519081900360200190f35b6101076004803603602081101561026357600080fd5b503561042c565b6102966004803603604081101561028057600080fd5b506001600160a01b03813516906020013561043e565b60405180836001600160801b03168152602001826001600160801b031681526020019250505060405180910390f35b610107600480360360208110156102db57600080fd5b5035610481565b6102ff600480360360208110156102f857600080fd5b5035610493565b60408051988952602089019790975294151587870152921515606087015290151560808601526001600160a01b0390811660a086015290811660c08501521660e083015251908190036101000190f35b604a60209081526000928352604080842090915290825290205481565b603a816005811061037c57600080fd5b6002020180546001909101549091506001600160a01b031682565b603381815481106103a757600080fd5b600091825260209091200154905081565b603960209081526000928352604080842090915290825290205460ff1681565b604b6020526000908152604090205460ff1681565b60376020526000908152604090205481565b60486020526000908152604090205481565b6047602052600090815260409020546001600160a01b031681565b60466020526000908152604090205481565b6049602052816000526040600020818154811061045a57600080fd5b6000918252602090912001546001600160801b038082169350600160801b90910416905082565b60386020526000908152604090205481565b603660205260009081526040902080546001820154600283015460038401546004909401549293919260ff808316936101008404821693620100008104909216926001600160a01b03630100000090930483169291821691168856fea26469706673582212200650c6937ff3f88f0724cc6f05d8b2d4d8f69dce51086b57dd18fcd3b81a5ee164736f6c63430007040033","opcodes":"PUSH1 0x80 PUSH1 0x40 MSTORE CALLVALUE DUP1 ISZERO PUSH2 0x10 JUMPI PUSH1 0x0 DUP1 REVERT JUMPDEST POP PUSH2 0x525 DUP1 PUSH2 0x20 PUSH1 0x0 CODECOPY PUSH1 0x0 RETURN INVALID PUSH1 0x80 PUSH1 0x40 MSTORE CALLVALUE DUP1 ISZERO PUSH2 0x10 JUMPI PUSH1 0x0 DUP1 REVERT JUMPDEST POP PUSH1 0x4 CALLDATASIZE LT PUSH2 0xD4 JUMPI PUSH1 0x0 CALLDATALOAD PUSH1 0xE0 SHR DUP1 PUSH4 0x62DD1D2A GT PUSH2 0x81 JUMPI DUP1 PUSH4 0xCBF1304D GT PUSH2 0x5B JUMPI DUP1 PUSH4 0xCBF1304D EQ PUSH2 0x26A JUMPI DUP1 PUSH4 0xD01F4D9E EQ PUSH2 0x2C5 JUMPI DUP1 PUSH4 0xDB085BEB EQ PUSH2 0x2E2 JUMPI PUSH2 0xD4 JUMP JUMPDEST DUP1 PUSH4 0x62DD1D2A EQ PUSH2 0x1F7 JUMPI DUP1 PUSH4 0x699F200F EQ PUSH2 0x214 JUMPI DUP1 PUSH4 0xB59E14D4 EQ PUSH2 0x24D JUMPI PUSH2 0xD4 JUMP JUMPDEST DUP1 PUSH4 0x48B18E54 GT PUSH2 0xB2 JUMPI DUP1 PUSH4 0x48B18E54 EQ PUSH2 0x174 JUMPI DUP1 PUSH4 0x4BA0A5EE EQ PUSH2 0x1B4 JUMPI DUP1 PUSH4 0x5700242C EQ PUSH2 0x1DA JUMPI PUSH2 0xD4 JUMP JUMPDEST DUP1 PUSH4 0x24C2DDD EQ PUSH2 0xD9 JUMPI DUP1 PUSH4 0x1FD22364 EQ PUSH2 0x119 JUMPI DUP1 PUSH4 0x438C0AA3 EQ PUSH2 0x157 JUMPI JUMPDEST PUSH1 0x0 DUP1 REVERT JUMPDEST PUSH2 0x107 PUSH1 0x4 DUP1 CALLDATASIZE SUB PUSH1 0x40 DUP2 LT ISZERO PUSH2 0xEF JUMPI PUSH1 0x0 DUP1 REVERT JUMPDEST POP PUSH1 0x1 PUSH1 0x1 PUSH1 0xA0 SHL SUB DUP2 CALLDATALOAD DUP2 AND SWAP2 PUSH1 0x20 ADD CALLDATALOAD AND PUSH2 0x34F JUMP JUMPDEST PUSH1 0x40 DUP1 MLOAD SWAP2 DUP3 MSTORE MLOAD SWAP1 DUP2 SWAP1 SUB PUSH1 0x20 ADD SWAP1 RETURN JUMPDEST PUSH2 0x136 PUSH1 0x4 DUP1 CALLDATASIZE SUB PUSH1 0x20 DUP2 LT ISZERO PUSH2 0x12F JUMPI PUSH1 0x0 DUP1 REVERT JUMPDEST POP CALLDATALOAD PUSH2 0x36C JUMP JUMPDEST PUSH1 0x40 DUP1 MLOAD SWAP3 DUP4 MSTORE PUSH1 0x1 PUSH1 0x1 PUSH1 0xA0 SHL SUB SWAP1 SWAP2 AND PUSH1 0x20 DUP4 ADD MSTORE DUP1 MLOAD SWAP2 DUP3 SWAP1 SUB ADD SWAP1 RETURN JUMPDEST PUSH2 0x107 PUSH1 0x4 DUP1 CALLDATASIZE SUB PUSH1 0x20 DUP2 LT ISZERO PUSH2 0x16D JUMPI PUSH1 0x0 DUP1 REVERT JUMPDEST POP CALLDATALOAD PUSH2 0x397 JUMP JUMPDEST PUSH2 0x1A0 PUSH1 0x4 DUP1 CALLDATASIZE SUB PUSH1 0x40 DUP2 LT ISZERO PUSH2 0x18A JUMPI PUSH1 0x0 DUP1 REVERT JUMPDEST POP DUP1 CALLDATALOAD SWAP1 PUSH1 0x20 ADD CALLDATALOAD PUSH1 0x1 PUSH1 0x1 PUSH1 0xA0 SHL SUB AND PUSH2 0x3B8 JUMP JUMPDEST PUSH1 0x40 DUP1 MLOAD SWAP2 ISZERO ISZERO DUP3 MSTORE MLOAD SWAP1 DUP2 SWAP1 SUB PUSH1 0x20 ADD SWAP1 RETURN JUMPDEST PUSH2 0x1A0 PUSH1 0x4 DUP1 CALLDATASIZE SUB PUSH1 0x20 DUP2 LT ISZERO PUSH2 0x1CA JUMPI PUSH1 0x0 DUP1 REVERT JUMPDEST POP CALLDATALOAD PUSH1 0x1 PUSH1 0x1 PUSH1 0xA0 SHL SUB AND PUSH2 0x3D8 JUMP JUMPDEST PUSH2 0x107 PUSH1 0x4 DUP1 CALLDATASIZE SUB PUSH1 0x20 DUP2 LT ISZERO PUSH2 0x1F0 JUMPI PUSH1 0x0 DUP1 REVERT JUMPDEST POP CALLDATALOAD PUSH2 0x3ED JUMP JUMPDEST PUSH2 0x107 PUSH1 0x4 DUP1 CALLDATASIZE SUB PUSH1 0x20 DUP2 LT ISZERO PUSH2 0x20D JUMPI PUSH1 0x0 DUP1 REVERT JUMPDEST POP CALLDATALOAD PUSH2 0x3FF JUMP JUMPDEST PUSH2 0x231 PUSH1 0x4 DUP1 CALLDATASIZE SUB PUSH1 0x20 DUP2 LT ISZERO PUSH2 0x22A JUMPI PUSH1 0x0 DUP1 REVERT JUMPDEST POP CALLDATALOAD PUSH2 0x411 JUMP JUMPDEST PUSH1 0x40 DUP1 MLOAD PUSH1 0x1 PUSH1 0x1 PUSH1 0xA0 SHL SUB SWAP1 SWAP3 AND DUP3 MSTORE MLOAD SWAP1 DUP2 SWAP1 SUB PUSH1 0x20 ADD SWAP1 RETURN JUMPDEST PUSH2 0x107 PUSH1 0x4 DUP1 CALLDATASIZE SUB PUSH1 0x20 DUP2 LT ISZERO PUSH2 0x263 JUMPI PUSH1 0x0 DUP1 REVERT JUMPDEST POP CALLDATALOAD PUSH2 0x42C JUMP JUMPDEST PUSH2 0x296 PUSH1 0x4 DUP1 CALLDATASIZE SUB PUSH1 0x40 DUP2 LT ISZERO PUSH2 0x280 JUMPI PUSH1 0x0 DUP1 REVERT JUMPDEST POP PUSH1 0x1 PUSH1 0x1 PUSH1 0xA0 SHL SUB DUP2 CALLDATALOAD AND SWAP1 PUSH1 0x20 ADD CALLDATALOAD PUSH2 0x43E JUMP JUMPDEST PUSH1 0x40 MLOAD DUP1 DUP4 PUSH1 0x1 PUSH1 0x1 PUSH1 0x80 SHL SUB AND DUP2 MSTORE PUSH1 0x20 ADD DUP3 PUSH1 0x1 PUSH1 0x1 PUSH1 0x80 SHL SUB AND DUP2 MSTORE PUSH1 0x20 ADD SWAP3 POP POP POP PUSH1 0x40 MLOAD DUP1 SWAP2 SUB SWAP1 RETURN JUMPDEST PUSH2 0x107 PUSH1 0x4 DUP1 CALLDATASIZE SUB PUSH1 0x20 DUP2 LT ISZERO PUSH2 0x2DB JUMPI PUSH1 0x0 DUP1 REVERT JUMPDEST POP CALLDATALOAD PUSH2 0x481 JUMP JUMPDEST PUSH2 0x2FF PUSH1 0x4 DUP1 CALLDATASIZE SUB PUSH1 0x20 DUP2 LT ISZERO PUSH2 0x2F8 JUMPI PUSH1 0x0 DUP1 REVERT JUMPDEST POP CALLDATALOAD PUSH2 0x493 JUMP JUMPDEST PUSH1 0x40 DUP1 MLOAD SWAP9 DUP10 MSTORE PUSH1 0x20 DUP10 ADD SWAP8 SWAP1 SWAP8 MSTORE SWAP5 ISZERO ISZERO DUP8 DUP8 ADD MSTORE SWAP3 ISZERO ISZERO PUSH1 0x60 DUP8 ADD MSTORE SWAP1 ISZERO ISZERO PUSH1 0x80 DUP7 ADD MSTORE PUSH1 0x1 PUSH1 0x1 PUSH1 0xA0 SHL SUB SWAP1 DUP2 AND PUSH1 0xA0 DUP7 ADD MSTORE SWAP1 DUP2 AND PUSH1 0xC0 DUP6 ADD MSTORE AND PUSH1 0xE0 DUP4 ADD MSTORE MLOAD SWAP1 DUP2 SWAP1 SUB PUSH2 0x100 ADD SWAP1 RETURN JUMPDEST PUSH1 0x4A PUSH1 0x20 SWAP1 DUP2 MSTORE PUSH1 0x0 SWAP3 DUP4 MSTORE PUSH1 0x40 DUP1 DUP5 KECCAK256 SWAP1 SWAP2 MSTORE SWAP1 DUP3 MSTORE SWAP1 KECCAK256 SLOAD DUP2 JUMP JUMPDEST PUSH1 0x3A DUP2 PUSH1 0x5 DUP2 LT PUSH2 0x37C JUMPI PUSH1 0x0 DUP1 REVERT JUMPDEST PUSH1 0x2 MUL ADD DUP1 SLOAD PUSH1 0x1 SWAP1 SWAP2 ADD SLOAD SWAP1 SWAP2 POP PUSH1 0x1 PUSH1 0x1 PUSH1 0xA0 SHL SUB AND DUP3 JUMP JUMPDEST PUSH1 0x33 DUP2 DUP2 SLOAD DUP2 LT PUSH2 0x3A7 JUMPI PUSH1 0x0 DUP1 REVERT JUMPDEST PUSH1 0x0 SWAP2 DUP3 MSTORE PUSH1 0x20 SWAP1 SWAP2 KECCAK256 ADD SLOAD SWAP1 POP DUP2 JUMP JUMPDEST PUSH1 0x39 PUSH1 0x20 SWAP1 DUP2 MSTORE PUSH1 0x0 SWAP3 DUP4 MSTORE PUSH1 0x40 DUP1 DUP5 KECCAK256 SWAP1 SWAP2 MSTORE SWAP1 DUP3 MSTORE SWAP1 KECCAK256 SLOAD PUSH1 0xFF AND DUP2 JUMP JUMPDEST PUSH1 0x4B PUSH1 0x20 MSTORE PUSH1 0x0 SWAP1 DUP2 MSTORE PUSH1 0x40 SWAP1 KECCAK256 SLOAD PUSH1 0xFF AND DUP2 JUMP JUMPDEST PUSH1 0x37 PUSH1 0x20 MSTORE PUSH1 0x0 SWAP1 DUP2 MSTORE PUSH1 0x40 SWAP1 KECCAK256 SLOAD DUP2 JUMP JUMPDEST PUSH1 0x48 PUSH1 0x20 MSTORE PUSH1 0x0 SWAP1 DUP2 MSTORE PUSH1 0x40 SWAP1 KECCAK256 SLOAD DUP2 JUMP JUMPDEST PUSH1 0x47 PUSH1 0x20 MSTORE PUSH1 0x0 SWAP1 DUP2 MSTORE PUSH1 0x40 SWAP1 KECCAK256 SLOAD PUSH1 0x1 PUSH1 0x1 PUSH1 0xA0 SHL SUB AND DUP2 JUMP JUMPDEST PUSH1 0x46 PUSH1 0x20 MSTORE PUSH1 0x0 SWAP1 DUP2 MSTORE PUSH1 0x40 SWAP1 KECCAK256 SLOAD DUP2 JUMP JUMPDEST PUSH1 0x49 PUSH1 0x20 MSTORE DUP2 PUSH1 0x0 MSTORE PUSH1 0x40 PUSH1 0x0 KECCAK256 DUP2 DUP2 SLOAD DUP2 LT PUSH2 0x45A JUMPI PUSH1 0x0 DUP1 REVERT JUMPDEST PUSH1 0x0 SWAP2 DUP3 MSTORE PUSH1 0x20 SWAP1 SWAP2 KECCAK256 ADD SLOAD PUSH1 0x1 PUSH1 0x1 PUSH1 0x80 SHL SUB DUP1 DUP3 AND SWAP4 POP PUSH1 0x1 PUSH1 0x80 SHL SWAP1 SWAP2 DIV AND SWAP1 POP DUP3 JUMP JUMPDEST PUSH1 0x38 PUSH1 0x20 MSTORE PUSH1 0x0 SWAP1 DUP2 MSTORE PUSH1 0x40 SWAP1 KECCAK256 SLOAD DUP2 JUMP JUMPDEST PUSH1 0x36 PUSH1 0x20 MSTORE PUSH1 0x0 SWAP1 DUP2 MSTORE PUSH1 0x40 SWAP1 KECCAK256 DUP1 SLOAD PUSH1 0x1 DUP3 ADD SLOAD PUSH1 0x2 DUP4 ADD SLOAD PUSH1 0x3 DUP5 ADD SLOAD PUSH1 0x4 SWAP1 SWAP5 ADD SLOAD SWAP3 SWAP4 SWAP2 SWAP3 PUSH1 0xFF DUP1 DUP4 AND SWAP4 PUSH2 0x100 DUP5 DIV DUP3 AND SWAP4 PUSH3 0x10000 DUP2 DIV SWAP1 SWAP3 AND SWAP3 PUSH1 0x1 PUSH1 0x1 PUSH1 0xA0 SHL SUB PUSH4 0x1000000 SWAP1 SWAP4 DIV DUP4 AND SWAP3 SWAP2 DUP3 AND SWAP2 AND DUP9 JUMP INVALID LOG2 PUSH5 0x6970667358 0x22 SLT KECCAK256 MOD POP 0xC6 SWAP4 PUSH32 0xF3F88F0724CC6F05D8B2D4D8F69DCE51086B57DD18FCD3B81A5EE164736F6C63 NUMBER STOP SMOD DIV STOP CALLER "},"methodIdentifiers":{"_allowances(address,address)":"024c2ddd","addresses(bytes32)":"699f200f","balances(address,uint256)":"cbf1304d","bytesVars(bytes32)":"62dd1d2a","currentMiners(uint256)":"1fd22364","disputeIdByDisputeHash(bytes32)":"d01f4d9e","disputesById(uint256)":"db085beb","migrated(address)":"4ba0a5ee","minersByChallenge(bytes32,address)":"48b18e54","newValueTimestamps(uint256)":"438c0aa3","requestIdByQueryHash(bytes32)":"5700242c","uints(bytes32)":"b59e14d4"}}}}}