{"contracts/tellor360/oldContracts/contracts/tellor3/TellorGetters.sol":{"TellorGetters":{"abi":[{"inputs":[{"internalType":"address","name":"","type":"address"},{"internalType":"address","name":"","type":"address"}],"name":"_allowances","outputs":[{"internalType":"uint256","name":"","type":"uint256"}],"stateMutability":"view","type":"function"},{"inputs":[{"internalType":"bytes32","name":"","type":"bytes32"}],"name":"addresses","outputs":[{"internalType":"address","name":"","type":"address"}],"stateMutability":"view","type":"function"},{"inputs":[{"internalType":"address","name":"","type":"address"},{"internalType":"uint256","name":"","type":"uint256"}],"name":"balances","outputs":[{"internalType":"uint128","name":"fromBlock","type":"uint128"},{"internalType":"uint128","name":"value","type":"uint128"}],"stateMutability":"view","type":"function"},{"inputs":[{"internalType":"bytes32","name":"","type":"bytes32"}],"name":"bytesVars","outputs":[{"internalType":"bytes32","name":"","type":"bytes32"}],"stateMutability":"view","type":"function"},{"inputs":[{"internalType":"uint256","name":"","type":"uint256"}],"name":"currentMiners","outputs":[{"internalType":"uint256","name":"value","type":"uint256"},{"internalType":"address","name":"miner","type":"address"}],"stateMutability":"view","type":"function"},{"inputs":[],"name":"decimals","outputs":[{"internalType":"uint8","name":"","type":"uint8"}],"stateMutability":"pure","type":"function"},{"inputs":[{"internalType":"bytes32","name":"_challenge","type":"bytes32"},{"internalType":"address","name":"_miner","type":"address"}],"name":"didMine","outputs":[{"internalType":"bool","name":"","type":"bool"}],"stateMutability":"view","type":"function"},{"inputs":[{"internalType":"uint256","name":"_disputeId","type":"uint256"},{"internalType":"address","name":"_address","type":"address"}],"name":"didVote","outputs":[{"internalType":"bool","name":"","type":"bool"}],"stateMutability":"view","type":"function"},{"inputs":[{"internalType":"bytes32","name":"","type":"bytes32"}],"name":"disputeIdByDisputeHash","outputs":[{"internalType":"uint256","name":"","type":"uint256"}],"stateMutability":"view","type":"function"},{"inputs":[{"internalType":"uint256","name":"","type":"uint256"}],"name":"disputesById","outputs":[{"internalType":"bytes32","name":"hash","type":"bytes32"},{"internalType":"int256","name":"tally","type":"int256"},{"internalType":"bool","name":"executed","type":"bool"},{"internalType":"bool","name":"disputeVotePassed","type":"bool"},{"internalType":"bool","name":"isPropFork","type":"bool"},{"internalType":"address","name":"reportedMiner","type":"address"},{"internalType":"address","name":"reportingParty","type":"address"},{"internalType":"address","name":"proposedForkAddress","type":"address"}],"stateMutability":"view","type":"function"},{"inputs":[{"internalType":"bytes32","name":"_data","type":"bytes32"}],"name":"getAddressVars","outputs":[{"internalType":"address","name":"","type":"address"}],"stateMutability":"view","type":"function"},{"inputs":[{"internalType":"uint256","name":"_disputeId","type":"uint256"}],"name":"getAllDisputeVars","outputs":[{"internalType":"bytes32","name":"","type":"bytes32"},{"internalType":"bool","name":"","type":"bool"},{"internalType":"bool","name":"","type":"bool"},{"internalType":"bool","name":"","type":"bool"},{"internalType":"address","name":"","type":"address"},{"internalType":"address","name":"","type":"address"},{"internalType":"address","name":"","type":"address"},{"internalType":"uint256[9]","name":"","type":"uint256[9]"},{"internalType":"int256","name":"","type":"int256"}],"stateMutability":"view","type":"function"},{"inputs":[{"internalType":"bytes32","name":"_hash","type":"bytes32"}],"name":"getDisputeIdByDisputeHash","outputs":[{"internalType":"uint256","name":"","type":"uint256"}],"stateMutability":"view","type":"function"},{"inputs":[{"internalType":"uint256","name":"_disputeId","type":"uint256"},{"internalType":"bytes32","name":"_data","type":"bytes32"}],"name":"getDisputeUintVars","outputs":[{"internalType":"uint256","name":"","type":"uint256"}],"stateMutability":"view","type":"function"},{"inputs":[{"internalType":"uint256","name":"_requestId","type":"uint256"}],"name":"getLastNewValueById","outputs":[{"internalType":"uint256","name":"","type":"uint256"},{"internalType":"bool","name":"","type":"bool"}],"stateMutability":"view","type":"function"},{"inputs":[{"internalType":"uint256","name":"_requestId","type":"uint256"},{"internalType":"uint256","name":"_timestamp","type":"uint256"}],"name":"getMinedBlockNum","outputs":[{"internalType":"uint256","name":"","type":"uint256"}],"stateMutability":"view","type":"function"},{"inputs":[{"internalType":"uint256","name":"_requestId","type":"uint256"},{"internalType":"uint256","name":"_timestamp","type":"uint256"}],"name":"getMinersByRequestIdAndTimestamp","outputs":[{"internalType":"address[5]","name":"","type":"address[5]"}],"stateMutability":"view","type":"function"},{"inputs":[],"name":"getNewCurrentVariables","outputs":[{"internalType":"bytes32","name":"_challenge","type":"bytes32"},{"internalType":"uint256[5]","name":"_requestIds","type":"uint256[5]"},{"internalType":"uint256","name":"_diff","type":"uint256"},{"internalType":"uint256","name":"_tip","type":"uint256"}],"stateMutability":"view","type":"function"},{"inputs":[{"internalType":"uint256","name":"_requestId","type":"uint256"}],"name":"getNewValueCountbyRequestId","outputs":[{"internalType":"uint256","name":"","type":"uint256"}],"stateMutability":"view","type":"function"},{"inputs":[],"name":"getNewVariablesOnDeck","outputs":[{"internalType":"uint256[5]","name":"idsOnDeck","type":"uint256[5]"},{"internalType":"uint256[5]","name":"tipsOnDeck","type":"uint256[5]"}],"stateMutability":"view","type":"function"},{"inputs":[{"internalType":"uint256","name":"_index","type":"uint256"}],"name":"getRequestIdByRequestQIndex","outputs":[{"internalType":"uint256","name":"","type":"uint256"}],"stateMutability":"view","type":"function"},{"inputs":[],"name":"getRequestQ","outputs":[{"internalType":"uint256[51]","name":"","type":"uint256[51]"}],"stateMutability":"view","type":"function"},{"inputs":[{"internalType":"uint256","name":"_requestId","type":"uint256"},{"internalType":"bytes32","name":"_data","type":"bytes32"}],"name":"getRequestUintVars","outputs":[{"internalType":"uint256","name":"","type":"uint256"}],"stateMutability":"view","type":"function"},{"inputs":[{"internalType":"uint256","name":"_requestId","type":"uint256"}],"name":"getRequestVars","outputs":[{"internalType":"uint256","name":"","type":"uint256"},{"internalType":"uint256","name":"","type":"uint256"}],"stateMutability":"view","type":"function"},{"inputs":[{"internalType":"address","name":"_staker","type":"address"}],"name":"getStakerInfo","outputs":[{"internalType":"uint256","name":"","type":"uint256"},{"internalType":"uint256","name":"","type":"uint256"}],"stateMutability":"view","type":"function"},{"inputs":[{"internalType":"uint256","name":"_requestId","type":"uint256"},{"internalType":"uint256","name":"_timestamp","type":"uint256"}],"name":"getSubmissionsByTimestamp","outputs":[{"internalType":"uint256[5]","name":"","type":"uint256[5]"}],"stateMutability":"view","type":"function"},{"inputs":[{"internalType":"uint256","name":"_requestID","type":"uint256"},{"internalType":"uint256","name":"_index","type":"uint256"}],"name":"getTimestampbyRequestIDandIndex","outputs":[{"internalType":"uint256","name":"","type":"uint256"}],"stateMutability":"view","type":"function"},{"inputs":[],"name":"getTopRequestIDs","outputs":[{"internalType":"uint256[5]","name":"_requestIds","type":"uint256[5]"}],"stateMutability":"view","type":"function"},{"inputs":[{"internalType":"bytes32","name":"_data","type":"bytes32"}],"name":"getUintVar","outputs":[{"internalType":"uint256","name":"","type":"uint256"}],"stateMutability":"view","type":"function"},{"inputs":[{"internalType":"uint256","name":"_requestId","type":"uint256"},{"internalType":"uint256","name":"_timestamp","type":"uint256"}],"name":"isInDispute","outputs":[{"internalType":"bool","name":"","type":"bool"}],"stateMutability":"view","type":"function"},{"inputs":[{"internalType":"address","name":"","type":"address"}],"name":"migrated","outputs":[{"internalType":"bool","name":"","type":"bool"}],"stateMutability":"view","type":"function"},{"inputs":[{"internalType":"bytes32","name":"","type":"bytes32"},{"internalType":"address","name":"","type":"address"}],"name":"minersByChallenge","outputs":[{"internalType":"bool","name":"","type":"bool"}],"stateMutability":"view","type":"function"},{"inputs":[],"name":"name","outputs":[{"internalType":"string","name":"","type":"string"}],"stateMutability":"pure","type":"function"},{"inputs":[{"internalType":"uint256","name":"","type":"uint256"}],"name":"newValueTimestamps","outputs":[{"internalType":"uint256","name":"","type":"uint256"}],"stateMutability":"view","type":"function"},{"inputs":[{"internalType":"bytes32","name":"","type":"bytes32"}],"name":"requestIdByQueryHash","outputs":[{"internalType":"uint256","name":"","type":"uint256"}],"stateMutability":"view","type":"function"},{"inputs":[{"internalType":"uint256","name":"_requestId","type":"uint256"},{"internalType":"uint256","name":"_timestamp","type":"uint256"}],"name":"retrieveData","outputs":[{"internalType":"uint256","name":"","type":"uint256"}],"stateMutability":"view","type":"function"},{"inputs":[],"name":"symbol","outputs":[{"internalType":"string","name":"","type":"string"}],"stateMutability":"pure","type":"function"},{"inputs":[],"name":"totalSupply","outputs":[{"internalType":"uint256","name":"","type":"uint256"}],"stateMutability":"view","type":"function"},{"inputs":[{"internalType":"bytes32","name":"","type":"bytes32"}],"name":"uints","outputs":[{"internalType":"uint256","name":"","type":"uint256"}],"stateMutability":"view","type":"function"}],"evm":{"bytecode":{"linkReferences":{},"object":"608060405234801561001057600080fd5b5061163a806100206000396000f3fe608060405234801561001057600080fd5b506004361061023d5760003560e01c806369026d631161013b578063b5413029116100b8578063da3799411161007c578063da379941146108f4578063db085beb14610911578063e0ae93c11461097e578063e1eee6d6146109a1578063fe1cd15d146109be5761023d565b8063b54130291461081e578063b59e14d41461083c578063c775b54214610859578063cbf1304d1461087c578063d01f4d9e146108d75761023d565b806393fa4915116100ff57806393fa4915146106aa57806395d89b41146106cd5780639a7077ab146106d5578063a7c438bc14610741578063af0b13271461076d5761023d565b806369026d63146105e5578063699f200f14610608578063733bdef01461062557806377fbb663146106645780637f6fd5d9146106875761023d565b80634049f198116101c95780635700242c1161018d5780635700242c14610545578063612c8f7f146105625780636173c0b81461057f57806362dd1d2a1461059c57806363bb82ad146105b95761023d565b80634049f19814610464578063438c0aa3146104b957806346eee1c4146104d657806348b18e54146104f35780634ba0a5ee1461051f5761023d565b806318160ddd1161021057806318160ddd146103935780631fd223641461039b578063313ce567146103d95780633180f8df146103f75780633df0777b1461042d5761023d565b8063024c2ddd1461024257806306fdde031461028257806311c98512146102ff578063133bee5e1461035a575b600080fd5b6102706004803603604081101561025857600080fd5b506001600160a01b03813581169160200135166109c6565b60408051918252519081900360200190f35b61028a6109e3565b6040805160208082528351818301528351919283929083019185019080838360005b838110156102c45781810151838201526020016102ac565b50505050905090810190601f1680156102f15780820380516001836020036101000a031916815260200191505b509250505060405180910390f35b6103226004803603604081101561031557600080fd5b5080359060200135610a0c565b604051808260a080838360005b8381101561034757818101518382015260200161032f565b5050505090500191505060405180910390f35b6103776004803603602081101561037057600080fd5b5035610a63565b604080516001600160a01b039092168252519081900360200190f35b610270610a7e565b6103b8600480360360208110156103b157600080fd5b5035610acc565b604080519283526001600160a01b0390911660208301528051918290030190f35b6103e1610af7565b6040805160ff9092168252519081900360200190f35b6104146004803603602081101561040d57600080fd5b5035610afc565b6040805192835290151560208301528051918290030190f35b6104506004803603604081101561044357600080fd5b5080359060200135610b56565b604080519115158252519081900360200190f35b61046c610b7a565b604051848152602081018460a080838360005b8381101561049757818101518382015260200161047f565b5050505090500183815260200182815260200194505050505060405180910390f35b610270600480360360208110156104cf57600080fd5b5035610c5a565b610270600480360360208110156104ec57600080fd5b5035610c7b565b6104506004803603604081101561050957600080fd5b50803590602001356001600160a01b0316610c8d565b6104506004803603602081101561053557600080fd5b50356001600160a01b0316610cad565b6102706004803603602081101561055b57600080fd5b5035610cc2565b6102706004803603602081101561057857600080fd5b5035610cd4565b6102706004803603602081101561059557600080fd5b5035610ce6565b610270600480360360208110156105b257600080fd5b5035610d51565b610450600480360360408110156105cf57600080fd5b50803590602001356001600160a01b0316610d63565b610322600480360360408110156105fb57600080fd5b5080359060200135610d8e565b6103776004803603602081101561061e57600080fd5b5035610df1565b61064b6004803603602081101561063b57600080fd5b50356001600160a01b0316610e0c565b6040805192835260208301919091528051918290030190f35b6102706004803603604081101561067a57600080fd5b5080359060200135610e2f565b6102706004803603604081101561069d57600080fd5b5080359060200135610e5c565b610270600480360360408110156106c057600080fd5b5080359060200135610e7d565b61028a610e9e565b6106dd610ebb565b604051808360a080838360005b838110156107025781810151838201526020016106ea565b5050505090500182600560200280838360005b8381101561072d578181015183820152602001610715565b505050509050019250505060405180910390f35b6104506004803603604081101561075757600080fd5b50803590602001356001600160a01b0316610f5a565b61078a6004803603602081101561078357600080fd5b5035610f89565b604051808a8152602001891515815260200188151581526020018715158152602001866001600160a01b03168152602001856001600160a01b03168152602001846001600160a01b0316815260200183600960200280838360005b838110156107fd5781810151838201526020016107e5565b50505050905001828152602001995050505050505050505060405180910390f35b6108266111b4565b604051815181528082610660808383602061032f565b6102706004803603602081101561085257600080fd5b50356111f0565b6102706004803603604081101561086f57600080fd5b5080359060200135611202565b6108a86004803603604081101561089257600080fd5b506001600160a01b038135169060200135611223565b60405180836001600160801b03168152602001826001600160801b031681526020019250505060405180910390f35b610270600480360360208110156108ed57600080fd5b5035611266565b6102706004803603602081101561090a57600080fd5b5035611278565b61092e6004803603602081101561092757600080fd5b503561128a565b60408051988952602089019790975294151587870152921515606087015290151560808601526001600160a01b0390811660a086015290811660c08501521660e083015251908190036101000190f35b6102706004803603604081101561099457600080fd5b50803590602001356112e6565b61064b600480360360208110156109b757600080fd5b5035611307565b61032261136f565b604a60209081526000928352604080842090915290825290205481565b60408051808201909152600f81526e54656c6c6f7220547269627574657360881b602082015290565b610a146115a8565b600083815260456020908152604080832085845260060190915290819020815160a08101928390529160059082845b815481526020019060010190808311610a43575050505050905092915050565b6000908152604760205260409020546001600160a01b031690565b7fe6148e7230ca038d456350e69a91b66968b222bfac9ebfbea6ff0a1fb738016060005260466020527ffffeead1ec15181fd57b4590d95e0c076bccb59e311315e8b38f23c710aa7c3e5490565b603a8160058110610adc57600080fd5b6002020180546001909101549091506001600160a01b031682565b601290565b6000818152604560205260408120805482919015610b48578054610b3c90859083906000198101908110610b2c57fe5b9060005260206000200154610e7d565b60019250925050610b51565b60008092509250505b915091565b60009182526045602090815260408084209284526004909201905290205460ff1690565b6000610b846115a8565b60008060005b6005811015610bbe57603a8160058110610ba057fe5b6002020154848260058110610bb157fe5b6020020152600101610b8a565b50507f52cb9007c7c6068f8ef37039d4f232cbf5a28ff8d93a5983c4c0c27cd2f9bc0d5460466020527f5bccd7373734898281f858d7562320d2cdfc0b17bd72f779686937174d150025547f09659d32f99e50ac728058418d38174fe83a137c455ff1847e6fb8e15f78f77a6000527f38b16d06a20ab673b01c748aff938df6a38f81640035f4ce8bd9abb03aae5b7254919450915090919293565b60338181548110610c6a57600080fd5b600091825260209091200154905081565b60009081526045602052604090205490565b603960209081526000928352604080842090915290825290205460ff1681565b604b6020526000908152604090205460ff1681565b60376020526000908152604090205481565b60009081526046602052604090205490565b60006032821115610d3e576040805162461bcd60e51b815260206004820152601a60248201527f526571756573745120696e6465782069732061626f7665203530000000000000604482015290519081900360640190fd5b5060009081526035602052604090205490565b60486020526000908152604090205481565b60009182526039602090815260408084206001600160a01b0393909316845291905290205460ff1690565b610d966115a8565b6000838152604560209081526040808320858452600590810190925291829020825160a08101938490529290919082845b81546001600160a01b03168152600190910190602001808311610dc7575050505050905092915050565b6047602052600090815260409020546001600160a01b031681565b6001600160a01b0316600090815260446020526040902080546001909101549091565b6000828152604560205260408120805483908110610e4957fe5b9060005260206000200154905092915050565b60009182526036602090815260408084209284526005909201905290205490565b60009182526045602090815260408084209284526003909201905290205490565b6040805180820190915260038152622a292160e91b602082015290565b610ec36115a8565b610ecb6115a8565b610ed361136f565b915060005b6005811015610f555760456000848360058110610ef157fe5b6020020151815260200190815260200160002060010160007f1590276b7f31dd8e2a06f9a92867333eeb3eddbc91e73b9833e3e55d8e34f77d60001b815260200190815260200160002054828260058110610f4857fe5b6020020152600101610ed8565b509091565b60008281526036602090815260408083206001600160a01b038516845260060190915290205460ff1692915050565b6000806000806000806000610f9c6115c6565b5050506000958652505060366020908152604080862080546002820154600383015460048401548551610120810187527f9f47a2659c3d32b749ae717d975e7962959890862423c4318cf86e4ec220291f8c5260058601808952878d205482527f2f9328a9c75282bec25bb04befad06926366736e0030c985108445fa728335e58d52808952878d2054828a01527f9147231ab14efb72c38117f68521ddef8de64f092c18c69dbfb602ffc4de7f478d52808952878d2054828901527f46f7d53798d31923f6952572c6a19ad2d1a8238d26649c2f3493a6d69e425d288d52808952878d205460608301527f1da378694063870452ce03b189f48e04c1aa026348e74e6c86e10738514ad2c48d52808952878d205460808301527f4b4cefd5ced7569ef0d091282b4bca9c52a034c56471a6061afd1bf307a2de7c8d52808952878d205460a08301527f6de96ee4d33a0617f40a846309c8759048857f51b9d59a12d3c3786d4778883d8d52808952878d205460c08301527f30e85ae205656781c1a951cba9f9f53f884833c049d377a2a7046eb5e6d14b268d52808952878d205460e08301527f1da95f11543c9b03927178e07951795dfc95c7501a9d1cf00e13414ca33bc4098d52909752949099205461010080870191909152600190930154919960ff8083169a948304811699506201000083041697506001600160a01b036301000000909204821696509281169493169291565b6111bc6115e5565b604080516106608101918290529060009060339082845b8154815260200190600101908083116111d3575050505050905090565b60466020526000908152604090205481565b60009182526045602090815260408084209284526002909201905290205490565b6049602052816000526040600020818154811061123f57600080fd5b6000918252602090912001546001600160801b038082169350600160801b90910416905082565b60386020526000908152604090205481565b60009081526038602052604090205490565b603660205260009081526040902080546001820154600283015460038401546004909401549293919260ff808316936101008404821693620100008104909216926001600160a01b036301000000909304831692918216911688565b60009182526045602090815260408084209284526001909201905290205490565b60009081526045602090815260408083207ff68d680ab3160f1aa5d9c3a1383c49e3e60bf3c0c031245cbb036f5ce99afaa18452600101909152808220547f1590276b7f31dd8e2a06f9a92867333eeb3eddbc91e73b9833e3e55d8e34f77d83529120549091565b6113776115a8565b61137f6115a8565b6113876115a8565b604080516106608101918290526113be9160009060339082845b8154815260200190600101908083116113a1575050505050611454565b909250905060005b600581101561144e578281600581106113db57fe5b60200201511561141f57603560008383600581106113f557fe5b602002015181526020019081526020016000205484826005811061141557fe5b6020020152611446565b603a816004036005811061142f57fe5b600202015484826005811061144057fe5b60200201525b6001016113c6565b50505090565b61145c6115a8565b6114646115a8565b60208301516000805b60058110156114e75785816001016033811061148557fe5b602002015185826005811061149657fe5b6020020152600181018482600581106114ab57fe5b6020020152828582600581106114bd57fe5b602002015110156114df578481600581106114d457fe5b602002015192508091505b60010161146d565b5060065b60338110156115a0578286826033811061150157fe5b602002015111156115985785816033811061151857fe5b602002015185836005811061152957fe5b60200201528084836005811061153b57fe5b602002015285816033811061154c57fe5b6020020151925060005b6005811015611596578386826005811061156c57fe5b6020020151101561158e5785816005811061158357fe5b602002015193508092505b600101611556565b505b6001016114eb565b505050915091565b6040518060a001604052806005906020820280368337509192915050565b6040518061012001604052806009906020820280368337509192915050565b604051806106600160405280603390602082028036833750919291505056fea26469706673582212204cce6ca923bc4b95bac900897d9bdf7eeb0405895b54aa95996ffed61ee82ab964736f6c63430007040033","opcodes":"PUSH1 0x80 PUSH1 0x40 MSTORE CALLVALUE DUP1 ISZERO PUSH2 0x10 JUMPI PUSH1 0x0 DUP1 REVERT JUMPDEST POP PUSH2 0x163A DUP1 PUSH2 0x20 PUSH1 0x0 CODECOPY PUSH1 0x0 RETURN INVALID PUSH1 0x80 PUSH1 0x40 MSTORE CALLVALUE DUP1 ISZERO PUSH2 0x10 JUMPI PUSH1 0x0 DUP1 REVERT JUMPDEST POP PUSH1 0x4 CALLDATASIZE LT PUSH2 0x23D JUMPI PUSH1 0x0 CALLDATALOAD PUSH1 0xE0 SHR DUP1 PUSH4 0x69026D63 GT PUSH2 0x13B JUMPI DUP1 PUSH4 0xB5413029 GT PUSH2 0xB8 JUMPI DUP1 PUSH4 0xDA379941 GT PUSH2 0x7C JUMPI DUP1 PUSH4 0xDA379941 EQ PUSH2 0x8F4 JUMPI DUP1 PUSH4 0xDB085BEB EQ PUSH2 0x911 JUMPI DUP1 PUSH4 0xE0AE93C1 EQ PUSH2 0x97E JUMPI DUP1 PUSH4 0xE1EEE6D6 EQ PUSH2 0x9A1 JUMPI DUP1 PUSH4 0xFE1CD15D EQ PUSH2 0x9BE JUMPI PUSH2 0x23D JUMP JUMPDEST DUP1 PUSH4 0xB5413029 EQ PUSH2 0x81E JUMPI DUP1 PUSH4 0xB59E14D4 EQ PUSH2 0x83C JUMPI DUP1 PUSH4 0xC775B542 EQ PUSH2 0x859 JUMPI DUP1 PUSH4 0xCBF1304D EQ PUSH2 0x87C JUMPI DUP1 PUSH4 0xD01F4D9E EQ PUSH2 0x8D7 JUMPI PUSH2 0x23D JUMP JUMPDEST DUP1 PUSH4 0x93FA4915 GT PUSH2 0xFF JUMPI DUP1 PUSH4 0x93FA4915 EQ PUSH2 0x6AA JUMPI DUP1 PUSH4 0x95D89B41 EQ PUSH2 0x6CD JUMPI DUP1 PUSH4 0x9A7077AB EQ PUSH2 0x6D5 JUMPI DUP1 PUSH4 0xA7C438BC EQ PUSH2 0x741 JUMPI DUP1 PUSH4 0xAF0B1327 EQ PUSH2 0x76D JUMPI PUSH2 0x23D JUMP JUMPDEST DUP1 PUSH4 0x69026D63 EQ PUSH2 0x5E5 JUMPI DUP1 PUSH4 0x699F200F EQ PUSH2 0x608 JUMPI DUP1 PUSH4 0x733BDEF0 EQ PUSH2 0x625 JUMPI DUP1 PUSH4 0x77FBB663 EQ PUSH2 0x664 JUMPI DUP1 PUSH4 0x7F6FD5D9 EQ PUSH2 0x687 JUMPI PUSH2 0x23D JUMP JUMPDEST DUP1 PUSH4 0x4049F198 GT PUSH2 0x1C9 JUMPI DUP1 PUSH4 0x5700242C GT PUSH2 0x18D JUMPI DUP1 PUSH4 0x5700242C EQ PUSH2 0x545 JUMPI DUP1 PUSH4 0x612C8F7F EQ PUSH2 0x562 JUMPI DUP1 PUSH4 0x6173C0B8 EQ PUSH2 0x57F JUMPI DUP1 PUSH4 0x62DD1D2A EQ PUSH2 0x59C JUMPI DUP1 PUSH4 0x63BB82AD EQ PUSH2 0x5B9 JUMPI PUSH2 0x23D JUMP JUMPDEST DUP1 PUSH4 0x4049F198 EQ PUSH2 0x464 JUMPI DUP1 PUSH4 0x438C0AA3 EQ PUSH2 0x4B9 JUMPI DUP1 PUSH4 0x46EEE1C4 EQ PUSH2 0x4D6 JUMPI DUP1 PUSH4 0x48B18E54 EQ PUSH2 0x4F3 JUMPI DUP1 PUSH4 0x4BA0A5EE EQ PUSH2 0x51F JUMPI PUSH2 0x23D JUMP JUMPDEST DUP1 PUSH4 0x18160DDD GT PUSH2 0x210 JUMPI DUP1 PUSH4 0x18160DDD EQ PUSH2 0x393 JUMPI DUP1 PUSH4 0x1FD22364 EQ PUSH2 0x39B JUMPI DUP1 PUSH4 0x313CE567 EQ PUSH2 0x3D9 JUMPI DUP1 PUSH4 0x3180F8DF EQ PUSH2 0x3F7 JUMPI DUP1 PUSH4 0x3DF0777B EQ PUSH2 0x42D JUMPI PUSH2 0x23D JUMP JUMPDEST DUP1 PUSH4 0x24C2DDD EQ PUSH2 0x242 JUMPI DUP1 PUSH4 0x6FDDE03 EQ PUSH2 0x282 JUMPI DUP1 PUSH4 0x11C98512 EQ PUSH2 0x2FF JUMPI DUP1 PUSH4 0x133BEE5E EQ PUSH2 0x35A JUMPI JUMPDEST PUSH1 0x0 DUP1 REVERT JUMPDEST PUSH2 0x270 PUSH1 0x4 DUP1 CALLDATASIZE SUB PUSH1 0x40 DUP2 LT ISZERO PUSH2 0x258 JUMPI PUSH1 0x0 DUP1 REVERT JUMPDEST POP PUSH1 0x1 PUSH1 0x1 PUSH1 0xA0 SHL SUB DUP2 CALLDATALOAD DUP2 AND SWAP2 PUSH1 0x20 ADD CALLDATALOAD AND PUSH2 0x9C6 JUMP JUMPDEST PUSH1 0x40 DUP1 MLOAD SWAP2 DUP3 MSTORE MLOAD SWAP1 DUP2 SWAP1 SUB PUSH1 0x20 ADD SWAP1 RETURN JUMPDEST PUSH2 0x28A PUSH2 0x9E3 JUMP JUMPDEST PUSH1 0x40 DUP1 MLOAD PUSH1 0x20 DUP1 DUP3 MSTORE DUP4 MLOAD DUP2 DUP4 ADD MSTORE DUP4 MLOAD SWAP2 SWAP3 DUP4 SWAP3 SWAP1 DUP4 ADD SWAP2 DUP6 ADD SWAP1 DUP1 DUP4 DUP4 PUSH1 0x0 JUMPDEST DUP4 DUP2 LT ISZERO PUSH2 0x2C4 JUMPI DUP2 DUP2 ADD MLOAD DUP4 DUP3 ADD MSTORE PUSH1 0x20 ADD PUSH2 0x2AC JUMP JUMPDEST POP POP POP POP SWAP1 POP SWAP1 DUP2 ADD SWAP1 PUSH1 0x1F AND DUP1 ISZERO PUSH2 0x2F1 JUMPI DUP1 DUP3 SUB DUP1 MLOAD PUSH1 0x1 DUP4 PUSH1 0x20 SUB PUSH2 0x100 EXP SUB NOT AND DUP2 MSTORE PUSH1 0x20 ADD SWAP2 POP JUMPDEST POP SWAP3 POP POP POP PUSH1 0x40 MLOAD DUP1 SWAP2 SUB SWAP1 RETURN JUMPDEST PUSH2 0x322 PUSH1 0x4 DUP1 CALLDATASIZE SUB PUSH1 0x40 DUP2 LT ISZERO PUSH2 0x315 JUMPI PUSH1 0x0 DUP1 REVERT JUMPDEST POP DUP1 CALLDATALOAD SWAP1 PUSH1 0x20 ADD CALLDATALOAD PUSH2 0xA0C JUMP JUMPDEST PUSH1 0x40 MLOAD DUP1 DUP3 PUSH1 0xA0 DUP1 DUP4 DUP4 PUSH1 0x0 JUMPDEST DUP4 DUP2 LT ISZERO PUSH2 0x347 JUMPI DUP2 DUP2 ADD MLOAD DUP4 DUP3 ADD MSTORE PUSH1 0x20 ADD PUSH2 0x32F JUMP JUMPDEST POP POP POP POP SWAP1 POP ADD SWAP2 POP POP PUSH1 0x40 MLOAD DUP1 SWAP2 SUB SWAP1 RETURN JUMPDEST PUSH2 0x377 PUSH1 0x4 DUP1 CALLDATASIZE SUB PUSH1 0x20 DUP2 LT ISZERO PUSH2 0x370 JUMPI PUSH1 0x0 DUP1 REVERT JUMPDEST POP CALLDATALOAD PUSH2 0xA63 JUMP JUMPDEST PUSH1 0x40 DUP1 MLOAD PUSH1 0x1 PUSH1 0x1 PUSH1 0xA0 SHL SUB SWAP1 SWAP3 AND DUP3 MSTORE MLOAD SWAP1 DUP2 SWAP1 SUB PUSH1 0x20 ADD SWAP1 RETURN JUMPDEST PUSH2 0x270 PUSH2 0xA7E JUMP JUMPDEST PUSH2 0x3B8 PUSH1 0x4 DUP1 CALLDATASIZE SUB PUSH1 0x20 DUP2 LT ISZERO PUSH2 0x3B1 JUMPI PUSH1 0x0 DUP1 REVERT JUMPDEST POP CALLDATALOAD PUSH2 0xACC JUMP JUMPDEST PUSH1 0x40 DUP1 MLOAD SWAP3 DUP4 MSTORE PUSH1 0x1 PUSH1 0x1 PUSH1 0xA0 SHL SUB SWAP1 SWAP2 AND PUSH1 0x20 DUP4 ADD MSTORE DUP1 MLOAD SWAP2 DUP3 SWAP1 SUB ADD SWAP1 RETURN JUMPDEST PUSH2 0x3E1 PUSH2 0xAF7 JUMP JUMPDEST PUSH1 0x40 DUP1 MLOAD PUSH1 0xFF SWAP1 SWAP3 AND DUP3 MSTORE MLOAD SWAP1 DUP2 SWAP1 SUB PUSH1 0x20 ADD SWAP1 RETURN JUMPDEST PUSH2 0x414 PUSH1 0x4 DUP1 CALLDATASIZE SUB PUSH1 0x20 DUP2 LT ISZERO PUSH2 0x40D JUMPI PUSH1 0x0 DUP1 REVERT JUMPDEST POP CALLDATALOAD PUSH2 0xAFC JUMP JUMPDEST PUSH1 0x40 DUP1 MLOAD SWAP3 DUP4 MSTORE SWAP1 ISZERO ISZERO PUSH1 0x20 DUP4 ADD MSTORE DUP1 MLOAD SWAP2 DUP3 SWAP1 SUB ADD SWAP1 RETURN JUMPDEST PUSH2 0x450 PUSH1 0x4 DUP1 CALLDATASIZE SUB PUSH1 0x40 DUP2 LT ISZERO PUSH2 0x443 JUMPI PUSH1 0x0 DUP1 REVERT JUMPDEST POP DUP1 CALLDATALOAD SWAP1 PUSH1 0x20 ADD CALLDATALOAD PUSH2 0xB56 JUMP JUMPDEST PUSH1 0x40 DUP1 MLOAD SWAP2 ISZERO ISZERO DUP3 MSTORE MLOAD SWAP1 DUP2 SWAP1 SUB PUSH1 0x20 ADD SWAP1 RETURN JUMPDEST PUSH2 0x46C PUSH2 0xB7A JUMP JUMPDEST PUSH1 0x40 MLOAD DUP5 DUP2 MSTORE PUSH1 0x20 DUP2 ADD DUP5 PUSH1 0xA0 DUP1 DUP4 DUP4 PUSH1 0x0 JUMPDEST DUP4 DUP2 LT ISZERO PUSH2 0x497 JUMPI DUP2 DUP2 ADD MLOAD DUP4 DUP3 ADD MSTORE PUSH1 0x20 ADD PUSH2 0x47F JUMP JUMPDEST POP POP POP POP SWAP1 POP ADD DUP4 DUP2 MSTORE PUSH1 0x20 ADD DUP3 DUP2 MSTORE PUSH1 0x20 ADD SWAP5 POP POP POP POP POP PUSH1 0x40 MLOAD DUP1 SWAP2 SUB SWAP1 RETURN JUMPDEST PUSH2 0x270 PUSH1 0x4 DUP1 CALLDATASIZE SUB PUSH1 0x20 DUP2 LT ISZERO PUSH2 0x4CF JUMPI PUSH1 0x0 DUP1 REVERT JUMPDEST POP CALLDATALOAD PUSH2 0xC5A JUMP JUMPDEST PUSH2 0x270 PUSH1 0x4 DUP1 CALLDATASIZE SUB PUSH1 0x20 DUP2 LT ISZERO PUSH2 0x4EC JUMPI PUSH1 0x0 DUP1 REVERT JUMPDEST POP CALLDATALOAD PUSH2 0xC7B JUMP JUMPDEST PUSH2 0x450 PUSH1 0x4 DUP1 CALLDATASIZE SUB PUSH1 0x40 DUP2 LT ISZERO PUSH2 0x509 JUMPI PUSH1 0x0 DUP1 REVERT JUMPDEST POP DUP1 CALLDATALOAD SWAP1 PUSH1 0x20 ADD CALLDATALOAD PUSH1 0x1 PUSH1 0x1 PUSH1 0xA0 SHL SUB AND PUSH2 0xC8D JUMP JUMPDEST PUSH2 0x450 PUSH1 0x4 DUP1 CALLDATASIZE SUB PUSH1 0x20 DUP2 LT ISZERO PUSH2 0x535 JUMPI PUSH1 0x0 DUP1 REVERT JUMPDEST POP CALLDATALOAD PUSH1 0x1 PUSH1 0x1 PUSH1 0xA0 SHL SUB AND PUSH2 0xCAD JUMP JUMPDEST PUSH2 0x270 PUSH1 0x4 DUP1 CALLDATASIZE SUB PUSH1 0x20 DUP2 LT ISZERO PUSH2 0x55B JUMPI PUSH1 0x0 DUP1 REVERT JUMPDEST POP CALLDATALOAD PUSH2 0xCC2 JUMP JUMPDEST PUSH2 0x270 PUSH1 0x4 DUP1 CALLDATASIZE SUB PUSH1 0x20 DUP2 LT ISZERO PUSH2 0x578 JUMPI PUSH1 0x0 DUP1 REVERT JUMPDEST POP CALLDATALOAD PUSH2 0xCD4 JUMP JUMPDEST PUSH2 0x270 PUSH1 0x4 DUP1 CALLDATASIZE SUB PUSH1 0x20 DUP2 LT ISZERO PUSH2 0x595 JUMPI PUSH1 0x0 DUP1 REVERT JUMPDEST POP CALLDATALOAD PUSH2 0xCE6 JUMP JUMPDEST PUSH2 0x270 PUSH1 0x4 DUP1 CALLDATASIZE SUB PUSH1 0x20 DUP2 LT ISZERO PUSH2 0x5B2 JUMPI PUSH1 0x0 DUP1 REVERT JUMPDEST POP CALLDATALOAD PUSH2 0xD51 JUMP JUMPDEST PUSH2 0x450 PUSH1 0x4 DUP1 CALLDATASIZE SUB PUSH1 0x40 DUP2 LT ISZERO PUSH2 0x5CF JUMPI PUSH1 0x0 DUP1 REVERT JUMPDEST POP DUP1 CALLDATALOAD SWAP1 PUSH1 0x20 ADD CALLDATALOAD PUSH1 0x1 PUSH1 0x1 PUSH1 0xA0 SHL SUB AND PUSH2 0xD63 JUMP JUMPDEST PUSH2 0x322 PUSH1 0x4 DUP1 CALLDATASIZE SUB PUSH1 0x40 DUP2 LT ISZERO PUSH2 0x5FB JUMPI PUSH1 0x0 DUP1 REVERT JUMPDEST POP DUP1 CALLDATALOAD SWAP1 PUSH1 0x20 ADD CALLDATALOAD PUSH2 0xD8E JUMP JUMPDEST PUSH2 0x377 PUSH1 0x4 DUP1 CALLDATASIZE SUB PUSH1 0x20 DUP2 LT ISZERO PUSH2 0x61E JUMPI PUSH1 0x0 DUP1 REVERT JUMPDEST POP CALLDATALOAD PUSH2 0xDF1 JUMP JUMPDEST PUSH2 0x64B PUSH1 0x4 DUP1 CALLDATASIZE SUB PUSH1 0x20 DUP2 LT ISZERO PUSH2 0x63B JUMPI PUSH1 0x0 DUP1 REVERT JUMPDEST POP CALLDATALOAD PUSH1 0x1 PUSH1 0x1 PUSH1 0xA0 SHL SUB AND PUSH2 0xE0C JUMP JUMPDEST PUSH1 0x40 DUP1 MLOAD SWAP3 DUP4 MSTORE PUSH1 0x20 DUP4 ADD SWAP2 SWAP1 SWAP2 MSTORE DUP1 MLOAD SWAP2 DUP3 SWAP1 SUB ADD SWAP1 RETURN JUMPDEST PUSH2 0x270 PUSH1 0x4 DUP1 CALLDATASIZE SUB PUSH1 0x40 DUP2 LT ISZERO PUSH2 0x67A JUMPI PUSH1 0x0 DUP1 REVERT JUMPDEST POP DUP1 CALLDATALOAD SWAP1 PUSH1 0x20 ADD CALLDATALOAD PUSH2 0xE2F JUMP JUMPDEST PUSH2 0x270 PUSH1 0x4 DUP1 CALLDATASIZE SUB PUSH1 0x40 DUP2 LT ISZERO PUSH2 0x69D JUMPI PUSH1 0x0 DUP1 REVERT JUMPDEST POP DUP1 CALLDATALOAD SWAP1 PUSH1 0x20 ADD CALLDATALOAD PUSH2 0xE5C JUMP JUMPDEST PUSH2 0x270 PUSH1 0x4 DUP1 CALLDATASIZE SUB PUSH1 0x40 DUP2 LT ISZERO PUSH2 0x6C0 JUMPI PUSH1 0x0 DUP1 REVERT JUMPDEST POP DUP1 CALLDATALOAD SWAP1 PUSH1 0x20 ADD CALLDATALOAD PUSH2 0xE7D JUMP JUMPDEST PUSH2 0x28A PUSH2 0xE9E JUMP JUMPDEST PUSH2 0x6DD PUSH2 0xEBB JUMP JUMPDEST PUSH1 0x40 MLOAD DUP1 DUP4 PUSH1 0xA0 DUP1 DUP4 DUP4 PUSH1 0x0 JUMPDEST DUP4 DUP2 LT ISZERO PUSH2 0x702 JUMPI DUP2 DUP2 ADD MLOAD DUP4 DUP3 ADD MSTORE PUSH1 0x20 ADD PUSH2 0x6EA JUMP JUMPDEST POP POP POP POP SWAP1 POP ADD DUP3 PUSH1 0x5 PUSH1 0x20 MUL DUP1 DUP4 DUP4 PUSH1 0x0 JUMPDEST DUP4 DUP2 LT ISZERO PUSH2 0x72D JUMPI DUP2 DUP2 ADD MLOAD DUP4 DUP3 ADD MSTORE PUSH1 0x20 ADD PUSH2 0x715 JUMP JUMPDEST POP POP POP POP SWAP1 POP ADD SWAP3 POP POP POP PUSH1 0x40 MLOAD DUP1 SWAP2 SUB SWAP1 RETURN JUMPDEST PUSH2 0x450 PUSH1 0x4 DUP1 CALLDATASIZE SUB PUSH1 0x40 DUP2 LT ISZERO PUSH2 0x757 JUMPI PUSH1 0x0 DUP1 REVERT JUMPDEST POP DUP1 CALLDATALOAD SWAP1 PUSH1 0x20 ADD CALLDATALOAD PUSH1 0x1 PUSH1 0x1 PUSH1 0xA0 SHL SUB AND PUSH2 0xF5A JUMP JUMPDEST PUSH2 0x78A PUSH1 0x4 DUP1 CALLDATASIZE SUB PUSH1 0x20 DUP2 LT ISZERO PUSH2 0x783 JUMPI PUSH1 0x0 DUP1 REVERT JUMPDEST POP CALLDATALOAD PUSH2 0xF89 JUMP JUMPDEST PUSH1 0x40 MLOAD DUP1 DUP11 DUP2 MSTORE PUSH1 0x20 ADD DUP10 ISZERO ISZERO DUP2 MSTORE PUSH1 0x20 ADD DUP9 ISZERO ISZERO DUP2 MSTORE PUSH1 0x20 ADD DUP8 ISZERO ISZERO DUP2 MSTORE PUSH1 0x20 ADD DUP7 PUSH1 0x1 PUSH1 0x1 PUSH1 0xA0 SHL SUB AND DUP2 MSTORE PUSH1 0x20 ADD DUP6 PUSH1 0x1 PUSH1 0x1 PUSH1 0xA0 SHL SUB AND DUP2 MSTORE PUSH1 0x20 ADD DUP5 PUSH1 0x1 PUSH1 0x1 PUSH1 0xA0 SHL SUB AND DUP2 MSTORE PUSH1 0x20 ADD DUP4 PUSH1 0x9 PUSH1 0x20 MUL DUP1 DUP4 DUP4 PUSH1 0x0 JUMPDEST DUP4 DUP2 LT ISZERO PUSH2 0x7FD JUMPI DUP2 DUP2 ADD MLOAD DUP4 DUP3 ADD MSTORE PUSH1 0x20 ADD PUSH2 0x7E5 JUMP JUMPDEST POP POP POP POP SWAP1 POP ADD DUP3 DUP2 MSTORE PUSH1 0x20 ADD SWAP10 POP POP POP POP POP POP POP POP POP POP PUSH1 0x40 MLOAD DUP1 SWAP2 SUB SWAP1 RETURN JUMPDEST PUSH2 0x826 PUSH2 0x11B4 JUMP JUMPDEST PUSH1 0x40 MLOAD DUP2 MLOAD DUP2 MSTORE DUP1 DUP3 PUSH2 0x660 DUP1 DUP4 DUP4 PUSH1 0x20 PUSH2 0x32F JUMP JUMPDEST PUSH2 0x270 PUSH1 0x4 DUP1 CALLDATASIZE SUB PUSH1 0x20 DUP2 LT ISZERO PUSH2 0x852 JUMPI PUSH1 0x0 DUP1 REVERT JUMPDEST POP CALLDATALOAD PUSH2 0x11F0 JUMP JUMPDEST PUSH2 0x270 PUSH1 0x4 DUP1 CALLDATASIZE SUB PUSH1 0x40 DUP2 LT ISZERO PUSH2 0x86F JUMPI PUSH1 0x0 DUP1 REVERT JUMPDEST POP DUP1 CALLDATALOAD SWAP1 PUSH1 0x20 ADD CALLDATALOAD PUSH2 0x1202 JUMP JUMPDEST PUSH2 0x8A8 PUSH1 0x4 DUP1 CALLDATASIZE SUB PUSH1 0x40 DUP2 LT ISZERO PUSH2 0x892 JUMPI PUSH1 0x0 DUP1 REVERT JUMPDEST POP PUSH1 0x1 PUSH1 0x1 PUSH1 0xA0 SHL SUB DUP2 CALLDATALOAD AND SWAP1 PUSH1 0x20 ADD CALLDATALOAD PUSH2 0x1223 JUMP JUMPDEST PUSH1 0x40 MLOAD DUP1 DUP4 PUSH1 0x1 PUSH1 0x1 PUSH1 0x80 SHL SUB AND DUP2 MSTORE PUSH1 0x20 ADD DUP3 PUSH1 0x1 PUSH1 0x1 PUSH1 0x80 SHL SUB AND DUP2 MSTORE PUSH1 0x20 ADD SWAP3 POP POP POP PUSH1 0x40 MLOAD DUP1 SWAP2 SUB SWAP1 RETURN JUMPDEST PUSH2 0x270 PUSH1 0x4 DUP1 CALLDATASIZE SUB PUSH1 0x20 DUP2 LT ISZERO PUSH2 0x8ED JUMPI PUSH1 0x0 DUP1 REVERT JUMPDEST POP CALLDATALOAD PUSH2 0x1266 JUMP JUMPDEST PUSH2 0x270 PUSH1 0x4 DUP1 CALLDATASIZE SUB PUSH1 0x20 DUP2 LT ISZERO PUSH2 0x90A JUMPI PUSH1 0x0 DUP1 REVERT JUMPDEST POP CALLDATALOAD PUSH2 0x1278 JUMP JUMPDEST PUSH2 0x92E PUSH1 0x4 DUP1 CALLDATASIZE SUB PUSH1 0x20 DUP2 LT ISZERO PUSH2 0x927 JUMPI PUSH1 0x0 DUP1 REVERT JUMPDEST POP CALLDATALOAD PUSH2 0x128A JUMP JUMPDEST PUSH1 0x40 DUP1 MLOAD SWAP9 DUP10 MSTORE PUSH1 0x20 DUP10 ADD SWAP8 SWAP1 SWAP8 MSTORE SWAP5 ISZERO ISZERO DUP8 DUP8 ADD MSTORE SWAP3 ISZERO ISZERO PUSH1 0x60 DUP8 ADD MSTORE SWAP1 ISZERO ISZERO PUSH1 0x80 DUP7 ADD MSTORE PUSH1 0x1 PUSH1 0x1 PUSH1 0xA0 SHL SUB SWAP1 DUP2 AND PUSH1 0xA0 DUP7 ADD MSTORE SWAP1 DUP2 AND PUSH1 0xC0 DUP6 ADD MSTORE AND PUSH1 0xE0 DUP4 ADD MSTORE MLOAD SWAP1 DUP2 SWAP1 SUB PUSH2 0x100 ADD SWAP1 RETURN JUMPDEST PUSH2 0x270 PUSH1 0x4 DUP1 CALLDATASIZE SUB PUSH1 0x40 DUP2 LT ISZERO PUSH2 0x994 JUMPI PUSH1 0x0 DUP1 REVERT JUMPDEST POP DUP1 CALLDATALOAD SWAP1 PUSH1 0x20 ADD CALLDATALOAD PUSH2 0x12E6 JUMP JUMPDEST PUSH2 0x64B PUSH1 0x4 DUP1 CALLDATASIZE SUB PUSH1 0x20 DUP2 LT ISZERO PUSH2 0x9B7 JUMPI PUSH1 0x0 DUP1 REVERT JUMPDEST POP CALLDATALOAD PUSH2 0x1307 JUMP JUMPDEST PUSH2 0x322 PUSH2 0x136F JUMP JUMPDEST PUSH1 0x4A PUSH1 0x20 SWAP1 DUP2 MSTORE PUSH1 0x0 SWAP3 DUP4 MSTORE PUSH1 0x40 DUP1 DUP5 KECCAK256 SWAP1 SWAP2 MSTORE SWAP1 DUP3 MSTORE SWAP1 KECCAK256 SLOAD DUP2 JUMP JUMPDEST PUSH1 0x40 DUP1 MLOAD DUP1 DUP3 ADD SWAP1 SWAP2 MSTORE PUSH1 0xF DUP2 MSTORE PUSH15 0x54656C6C6F72205472696275746573 PUSH1 0x88 SHL PUSH1 0x20 DUP3 ADD MSTORE SWAP1 JUMP JUMPDEST PUSH2 0xA14 PUSH2 0x15A8 JUMP JUMPDEST PUSH1 0x0 DUP4 DUP2 MSTORE PUSH1 0x45 PUSH1 0x20 SWAP1 DUP2 MSTORE PUSH1 0x40 DUP1 DUP4 KECCAK256 DUP6 DUP5 MSTORE PUSH1 0x6 ADD SWAP1 SWAP2 MSTORE SWAP1 DUP2 SWAP1 KECCAK256 DUP2 MLOAD PUSH1 0xA0 DUP2 ADD SWAP3 DUP4 SWAP1 MSTORE SWAP2 PUSH1 0x5 SWAP1 DUP3 DUP5 JUMPDEST DUP2 SLOAD DUP2 MSTORE PUSH1 0x20 ADD SWAP1 PUSH1 0x1 ADD SWAP1 DUP1 DUP4 GT PUSH2 0xA43 JUMPI POP POP POP POP POP SWAP1 POP SWAP3 SWAP2 POP POP JUMP JUMPDEST PUSH1 0x0 SWAP1 DUP2 MSTORE PUSH1 0x47 PUSH1 0x20 MSTORE PUSH1 0x40 SWAP1 KECCAK256 SLOAD PUSH1 0x1 PUSH1 0x1 PUSH1 0xA0 SHL SUB AND SWAP1 JUMP JUMPDEST PUSH32 0xE6148E7230CA038D456350E69A91B66968B222BFAC9EBFBEA6FF0A1FB7380160 PUSH1 0x0 MSTORE PUSH1 0x46 PUSH1 0x20 MSTORE PUSH32 0xFFFEEAD1EC15181FD57B4590D95E0C076BCCB59E311315E8B38F23C710AA7C3E SLOAD SWAP1 JUMP JUMPDEST PUSH1 0x3A DUP2 PUSH1 0x5 DUP2 LT PUSH2 0xADC JUMPI PUSH1 0x0 DUP1 REVERT JUMPDEST PUSH1 0x2 MUL ADD DUP1 SLOAD PUSH1 0x1 SWAP1 SWAP2 ADD SLOAD SWAP1 SWAP2 POP PUSH1 0x1 PUSH1 0x1 PUSH1 0xA0 SHL SUB AND DUP3 JUMP JUMPDEST PUSH1 0x12 SWAP1 JUMP JUMPDEST PUSH1 0x0 DUP2 DUP2 MSTORE PUSH1 0x45 PUSH1 0x20 MSTORE PUSH1 0x40 DUP2 KECCAK256 DUP1 SLOAD DUP3 SWAP2 SWAP1 ISZERO PUSH2 0xB48 JUMPI DUP1 SLOAD PUSH2 0xB3C SWAP1 DUP6 SWAP1 DUP4 SWAP1 PUSH1 0x0 NOT DUP2 ADD SWAP1 DUP2 LT PUSH2 0xB2C JUMPI INVALID JUMPDEST SWAP1 PUSH1 0x0 MSTORE PUSH1 0x20 PUSH1 0x0 KECCAK256 ADD SLOAD PUSH2 0xE7D JUMP JUMPDEST PUSH1 0x1 SWAP3 POP SWAP3 POP POP PUSH2 0xB51 JUMP JUMPDEST PUSH1 0x0 DUP1 SWAP3 POP SWAP3 POP POP JUMPDEST SWAP2 POP SWAP2 JUMP JUMPDEST PUSH1 0x0 SWAP2 DUP3 MSTORE PUSH1 0x45 PUSH1 0x20 SWAP1 DUP2 MSTORE PUSH1 0x40 DUP1 DUP5 KECCAK256 SWAP3 DUP5 MSTORE PUSH1 0x4 SWAP1 SWAP3 ADD SWAP1 MSTORE SWAP1 KECCAK256 SLOAD PUSH1 0xFF AND SWAP1 JUMP JUMPDEST PUSH1 0x0 PUSH2 0xB84 PUSH2 0x15A8 JUMP JUMPDEST PUSH1 0x0 DUP1 PUSH1 0x0 JUMPDEST PUSH1 0x5 DUP2 LT ISZERO PUSH2 0xBBE JUMPI PUSH1 0x3A DUP2 PUSH1 0x5 DUP2 LT PUSH2 0xBA0 JUMPI INVALID JUMPDEST PUSH1 0x2 MUL ADD SLOAD DUP5 DUP3 PUSH1 0x5 DUP2 LT PUSH2 0xBB1 JUMPI INVALID JUMPDEST PUSH1 0x20 MUL ADD MSTORE PUSH1 0x1 ADD PUSH2 0xB8A JUMP JUMPDEST POP POP PUSH32 0x52CB9007C7C6068F8EF37039D4F232CBF5A28FF8D93A5983C4C0C27CD2F9BC0D SLOAD PUSH1 0x46 PUSH1 0x20 MSTORE PUSH32 0x5BCCD7373734898281F858D7562320D2CDFC0B17BD72F779686937174D150025 SLOAD PUSH32 0x9659D32F99E50AC728058418D38174FE83A137C455FF1847E6FB8E15F78F77A PUSH1 0x0 MSTORE PUSH32 0x38B16D06A20AB673B01C748AFF938DF6A38F81640035F4CE8BD9ABB03AAE5B72 SLOAD SWAP2 SWAP5 POP SWAP2 POP SWAP1 SWAP2 SWAP3 SWAP4 JUMP JUMPDEST PUSH1 0x33 DUP2 DUP2 SLOAD DUP2 LT PUSH2 0xC6A JUMPI PUSH1 0x0 DUP1 REVERT JUMPDEST PUSH1 0x0 SWAP2 DUP3 MSTORE PUSH1 0x20 SWAP1 SWAP2 KECCAK256 ADD SLOAD SWAP1 POP DUP2 JUMP JUMPDEST PUSH1 0x0 SWAP1 DUP2 MSTORE PUSH1 0x45 PUSH1 0x20 MSTORE PUSH1 0x40 SWAP1 KECCAK256 SLOAD SWAP1 JUMP JUMPDEST PUSH1 0x39 PUSH1 0x20 SWAP1 DUP2 MSTORE PUSH1 0x0 SWAP3 DUP4 MSTORE PUSH1 0x40 DUP1 DUP5 KECCAK256 SWAP1 SWAP2 MSTORE SWAP1 DUP3 MSTORE SWAP1 KECCAK256 SLOAD PUSH1 0xFF AND DUP2 JUMP JUMPDEST PUSH1 0x4B PUSH1 0x20 MSTORE PUSH1 0x0 SWAP1 DUP2 MSTORE PUSH1 0x40 SWAP1 KECCAK256 SLOAD PUSH1 0xFF AND DUP2 JUMP JUMPDEST PUSH1 0x37 PUSH1 0x20 MSTORE PUSH1 0x0 SWAP1 DUP2 MSTORE PUSH1 0x40 SWAP1 KECCAK256 SLOAD DUP2 JUMP JUMPDEST PUSH1 0x0 SWAP1 DUP2 MSTORE PUSH1 0x46 PUSH1 0x20 MSTORE PUSH1 0x40 SWAP1 KECCAK256 SLOAD SWAP1 JUMP JUMPDEST PUSH1 0x0 PUSH1 0x32 DUP3 GT ISZERO PUSH2 0xD3E JUMPI PUSH1 0x40 DUP1 MLOAD PUSH3 0x461BCD PUSH1 0xE5 SHL DUP2 MSTORE PUSH1 0x20 PUSH1 0x4 DUP3 ADD MSTORE PUSH1 0x1A PUSH1 0x24 DUP3 ADD MSTORE PUSH32 0x526571756573745120696E6465782069732061626F7665203530000000000000 PUSH1 0x44 DUP3 ADD MSTORE SWAP1 MLOAD SWAP1 DUP2 SWAP1 SUB PUSH1 0x64 ADD SWAP1 REVERT JUMPDEST POP PUSH1 0x0 SWAP1 DUP2 MSTORE PUSH1 0x35 PUSH1 0x20 MSTORE PUSH1 0x40 SWAP1 KECCAK256 SLOAD SWAP1 JUMP JUMPDEST PUSH1 0x48 PUSH1 0x20 MSTORE PUSH1 0x0 SWAP1 DUP2 MSTORE PUSH1 0x40 SWAP1 KECCAK256 SLOAD DUP2 JUMP JUMPDEST PUSH1 0x0 SWAP2 DUP3 MSTORE PUSH1 0x39 PUSH1 0x20 SWAP1 DUP2 MSTORE PUSH1 0x40 DUP1 DUP5 KECCAK256 PUSH1 0x1 PUSH1 0x1 PUSH1 0xA0 SHL SUB SWAP4 SWAP1 SWAP4 AND DUP5 MSTORE SWAP2 SWAP1 MSTORE SWAP1 KECCAK256 SLOAD PUSH1 0xFF AND SWAP1 JUMP JUMPDEST PUSH2 0xD96 PUSH2 0x15A8 JUMP JUMPDEST PUSH1 0x0 DUP4 DUP2 MSTORE PUSH1 0x45 PUSH1 0x20 SWAP1 DUP2 MSTORE PUSH1 0x40 DUP1 DUP4 KECCAK256 DUP6 DUP5 MSTORE PUSH1 0x5 SWAP1 DUP2 ADD SWAP1 SWAP3 MSTORE SWAP2 DUP3 SWAP1 KECCAK256 DUP3 MLOAD PUSH1 0xA0 DUP2 ADD SWAP4 DUP5 SWAP1 MSTORE SWAP3 SWAP1 SWAP2 SWAP1 DUP3 DUP5 JUMPDEST DUP2 SLOAD PUSH1 0x1 PUSH1 0x1 PUSH1 0xA0 SHL SUB AND DUP2 MSTORE PUSH1 0x1 SWAP1 SWAP2 ADD SWAP1 PUSH1 0x20 ADD DUP1 DUP4 GT PUSH2 0xDC7 JUMPI POP POP POP POP POP SWAP1 POP SWAP3 SWAP2 POP POP JUMP JUMPDEST PUSH1 0x47 PUSH1 0x20 MSTORE PUSH1 0x0 SWAP1 DUP2 MSTORE PUSH1 0x40 SWAP1 KECCAK256 SLOAD PUSH1 0x1 PUSH1 0x1 PUSH1 0xA0 SHL SUB AND DUP2 JUMP JUMPDEST PUSH1 0x1 PUSH1 0x1 PUSH1 0xA0 SHL SUB AND PUSH1 0x0 SWAP1 DUP2 MSTORE PUSH1 0x44 PUSH1 0x20 MSTORE PUSH1 0x40 SWAP1 KECCAK256 DUP1 SLOAD PUSH1 0x1 SWAP1 SWAP2 ADD SLOAD SWAP1 SWAP2 JUMP JUMPDEST PUSH1 0x0 DUP3 DUP2 MSTORE PUSH1 0x45 PUSH1 0x20 MSTORE PUSH1 0x40 DUP2 KECCAK256 DUP1 SLOAD DUP4 SWAP1 DUP2 LT PUSH2 0xE49 JUMPI INVALID JUMPDEST SWAP1 PUSH1 0x0 MSTORE PUSH1 0x20 PUSH1 0x0 KECCAK256 ADD SLOAD SWAP1 POP SWAP3 SWAP2 POP POP JUMP JUMPDEST PUSH1 0x0 SWAP2 DUP3 MSTORE PUSH1 0x36 PUSH1 0x20 SWAP1 DUP2 MSTORE PUSH1 0x40 DUP1 DUP5 KECCAK256 SWAP3 DUP5 MSTORE PUSH1 0x5 SWAP1 SWAP3 ADD SWAP1 MSTORE SWAP1 KECCAK256 SLOAD SWAP1 JUMP JUMPDEST PUSH1 0x0 SWAP2 DUP3 MSTORE PUSH1 0x45 PUSH1 0x20 SWAP1 DUP2 MSTORE PUSH1 0x40 DUP1 DUP5 KECCAK256 SWAP3 DUP5 MSTORE PUSH1 0x3 SWAP1 SWAP3 ADD SWAP1 MSTORE SWAP1 KECCAK256 SLOAD SWAP1 JUMP JUMPDEST PUSH1 0x40 DUP1 MLOAD DUP1 DUP3 ADD SWAP1 SWAP2 MSTORE PUSH1 0x3 DUP2 MSTORE PUSH3 0x2A2921 PUSH1 0xE9 SHL PUSH1 0x20 DUP3 ADD MSTORE SWAP1 JUMP JUMPDEST PUSH2 0xEC3 PUSH2 0x15A8 JUMP JUMPDEST PUSH2 0xECB PUSH2 0x15A8 JUMP JUMPDEST PUSH2 0xED3 PUSH2 0x136F JUMP JUMPDEST SWAP2 POP PUSH1 0x0 JUMPDEST PUSH1 0x5 DUP2 LT ISZERO PUSH2 0xF55 JUMPI PUSH1 0x45 PUSH1 0x0 DUP5 DUP4 PUSH1 0x5 DUP2 LT PUSH2 0xEF1 JUMPI INVALID JUMPDEST PUSH1 0x20 MUL ADD MLOAD DUP2 MSTORE PUSH1 0x20 ADD SWAP1 DUP2 MSTORE PUSH1 0x20 ADD PUSH1 0x0 KECCAK256 PUSH1 0x1 ADD PUSH1 0x0 PUSH32 0x1590276B7F31DD8E2A06F9A92867333EEB3EDDBC91E73B9833E3E55D8E34F77D PUSH1 0x0 SHL DUP2 MSTORE PUSH1 0x20 ADD SWAP1 DUP2 MSTORE PUSH1 0x20 ADD PUSH1 0x0 KECCAK256 SLOAD DUP3 DUP3 PUSH1 0x5 DUP2 LT PUSH2 0xF48 JUMPI INVALID JUMPDEST PUSH1 0x20 MUL ADD MSTORE PUSH1 0x1 ADD PUSH2 0xED8 JUMP JUMPDEST POP SWAP1 SWAP2 JUMP JUMPDEST PUSH1 0x0 DUP3 DUP2 MSTORE PUSH1 0x36 PUSH1 0x20 SWAP1 DUP2 MSTORE PUSH1 0x40 DUP1 DUP4 KECCAK256 PUSH1 0x1 PUSH1 0x1 PUSH1 0xA0 SHL SUB DUP6 AND DUP5 MSTORE PUSH1 0x6 ADD SWAP1 SWAP2 MSTORE SWAP1 KECCAK256 SLOAD PUSH1 0xFF AND SWAP3 SWAP2 POP POP JUMP JUMPDEST PUSH1 0x0 DUP1 PUSH1 0x0 DUP1 PUSH1 0x0 DUP1 PUSH1 0x0 PUSH2 0xF9C PUSH2 0x15C6 JUMP JUMPDEST POP POP POP PUSH1 0x0 SWAP6 DUP7 MSTORE POP POP PUSH1 0x36 PUSH1 0x20 SWAP1 DUP2 MSTORE PUSH1 0x40 DUP1 DUP7 KECCAK256 DUP1 SLOAD PUSH1 0x2 DUP3 ADD SLOAD PUSH1 0x3 DUP4 ADD SLOAD PUSH1 0x4 DUP5 ADD SLOAD DUP6 MLOAD PUSH2 0x120 DUP2 ADD DUP8 MSTORE PUSH32 0x9F47A2659C3D32B749AE717D975E7962959890862423C4318CF86E4EC220291F DUP13 MSTORE PUSH1 0x5 DUP7 ADD DUP1 DUP10 MSTORE DUP8 DUP14 KECCAK256 SLOAD DUP3 MSTORE PUSH32 0x2F9328A9C75282BEC25BB04BEFAD06926366736E0030C985108445FA728335E5 DUP14 MSTORE DUP1 DUP10 MSTORE DUP8 DUP14 KECCAK256 SLOAD DUP3 DUP11 ADD MSTORE PUSH32 0x9147231AB14EFB72C38117F68521DDEF8DE64F092C18C69DBFB602FFC4DE7F47 DUP14 MSTORE DUP1 DUP10 MSTORE DUP8 DUP14 KECCAK256 SLOAD DUP3 DUP10 ADD MSTORE PUSH32 0x46F7D53798D31923F6952572C6A19AD2D1A8238D26649C2F3493A6D69E425D28 DUP14 MSTORE DUP1 DUP10 MSTORE DUP8 DUP14 KECCAK256 SLOAD PUSH1 0x60 DUP4 ADD MSTORE PUSH32 0x1DA378694063870452CE03B189F48E04C1AA026348E74E6C86E10738514AD2C4 DUP14 MSTORE DUP1 DUP10 MSTORE DUP8 DUP14 KECCAK256 SLOAD PUSH1 0x80 DUP4 ADD MSTORE PUSH32 0x4B4CEFD5CED7569EF0D091282B4BCA9C52A034C56471A6061AFD1BF307A2DE7C DUP14 MSTORE DUP1 DUP10 MSTORE DUP8 DUP14 KECCAK256 SLOAD PUSH1 0xA0 DUP4 ADD MSTORE PUSH32 0x6DE96EE4D33A0617F40A846309C8759048857F51B9D59A12D3C3786D4778883D DUP14 MSTORE DUP1 DUP10 MSTORE DUP8 DUP14 KECCAK256 SLOAD PUSH1 0xC0 DUP4 ADD MSTORE PUSH32 0x30E85AE205656781C1A951CBA9F9F53F884833C049D377A2A7046EB5E6D14B26 DUP14 MSTORE DUP1 DUP10 MSTORE DUP8 DUP14 KECCAK256 SLOAD PUSH1 0xE0 DUP4 ADD MSTORE PUSH32 0x1DA95F11543C9B03927178E07951795DFC95C7501A9D1CF00E13414CA33BC409 DUP14 MSTORE SWAP1 SWAP8 MSTORE SWAP5 SWAP1 SWAP10 KECCAK256 SLOAD PUSH2 0x100 DUP1 DUP8 ADD SWAP2 SWAP1 SWAP2 MSTORE PUSH1 0x1 SWAP1 SWAP4 ADD SLOAD SWAP2 SWAP10 PUSH1 0xFF DUP1 DUP4 AND SWAP11 SWAP5 DUP4 DIV DUP2 AND SWAP10 POP PUSH3 0x10000 DUP4 DIV AND SWAP8 POP PUSH1 0x1 PUSH1 0x1 PUSH1 0xA0 SHL SUB PUSH4 0x1000000 SWAP1 SWAP3 DIV DUP3 AND SWAP7 POP SWAP3 DUP2 AND SWAP5 SWAP4 AND SWAP3 SWAP2 JUMP JUMPDEST PUSH2 0x11BC PUSH2 0x15E5 JUMP JUMPDEST PUSH1 0x40 DUP1 MLOAD PUSH2 0x660 DUP2 ADD SWAP2 DUP3 SWAP1 MSTORE SWAP1 PUSH1 0x0 SWAP1 PUSH1 0x33 SWAP1 DUP3 DUP5 JUMPDEST DUP2 SLOAD DUP2 MSTORE PUSH1 0x20 ADD SWAP1 PUSH1 0x1 ADD SWAP1 DUP1 DUP4 GT PUSH2 0x11D3 JUMPI POP POP POP POP POP SWAP1 POP SWAP1 JUMP JUMPDEST PUSH1 0x46 PUSH1 0x20 MSTORE PUSH1 0x0 SWAP1 DUP2 MSTORE PUSH1 0x40 SWAP1 KECCAK256 SLOAD DUP2 JUMP JUMPDEST PUSH1 0x0 SWAP2 DUP3 MSTORE PUSH1 0x45 PUSH1 0x20 SWAP1 DUP2 MSTORE PUSH1 0x40 DUP1 DUP5 KECCAK256 SWAP3 DUP5 MSTORE PUSH1 0x2 SWAP1 SWAP3 ADD SWAP1 MSTORE SWAP1 KECCAK256 SLOAD SWAP1 JUMP JUMPDEST PUSH1 0x49 PUSH1 0x20 MSTORE DUP2 PUSH1 0x0 MSTORE PUSH1 0x40 PUSH1 0x0 KECCAK256 DUP2 DUP2 SLOAD DUP2 LT PUSH2 0x123F JUMPI PUSH1 0x0 DUP1 REVERT JUMPDEST PUSH1 0x0 SWAP2 DUP3 MSTORE PUSH1 0x20 SWAP1 SWAP2 KECCAK256 ADD SLOAD PUSH1 0x1 PUSH1 0x1 PUSH1 0x80 SHL SUB DUP1 DUP3 AND SWAP4 POP PUSH1 0x1 PUSH1 0x80 SHL SWAP1 SWAP2 DIV AND SWAP1 POP DUP3 JUMP JUMPDEST PUSH1 0x38 PUSH1 0x20 MSTORE PUSH1 0x0 SWAP1 DUP2 MSTORE PUSH1 0x40 SWAP1 KECCAK256 SLOAD DUP2 JUMP JUMPDEST PUSH1 0x0 SWAP1 DUP2 MSTORE PUSH1 0x38 PUSH1 0x20 MSTORE PUSH1 0x40 SWAP1 KECCAK256 SLOAD SWAP1 JUMP JUMPDEST PUSH1 0x36 PUSH1 0x20 MSTORE PUSH1 0x0 SWAP1 DUP2 MSTORE PUSH1 0x40 SWAP1 KECCAK256 DUP1 SLOAD PUSH1 0x1 DUP3 ADD SLOAD PUSH1 0x2 DUP4 ADD SLOAD PUSH1 0x3 DUP5 ADD SLOAD PUSH1 0x4 SWAP1 SWAP5 ADD SLOAD SWAP3 SWAP4 SWAP2 SWAP3 PUSH1 0xFF DUP1 DUP4 AND SWAP4 PUSH2 0x100 DUP5 DIV DUP3 AND SWAP4 PUSH3 0x10000 DUP2 DIV SWAP1 SWAP3 AND SWAP3 PUSH1 0x1 PUSH1 0x1 PUSH1 0xA0 SHL SUB PUSH4 0x1000000 SWAP1 SWAP4 DIV DUP4 AND SWAP3 SWAP2 DUP3 AND SWAP2 AND DUP9 JUMP JUMPDEST PUSH1 0x0 SWAP2 DUP3 MSTORE PUSH1 0x45 PUSH1 0x20 SWAP1 DUP2 MSTORE PUSH1 0x40 DUP1 DUP5 KECCAK256 SWAP3 DUP5 MSTORE PUSH1 0x1 SWAP1 SWAP3 ADD SWAP1 MSTORE SWAP1 KECCAK256 SLOAD SWAP1 JUMP JUMPDEST PUSH1 0x0 SWAP1 DUP2 MSTORE PUSH1 0x45 PUSH1 0x20 SWAP1 DUP2 MSTORE PUSH1 0x40 DUP1 DUP4 KECCAK256 PUSH32 0xF68D680AB3160F1AA5D9C3A1383C49E3E60BF3C0C031245CBB036F5CE99AFAA1 DUP5 MSTORE PUSH1 0x1 ADD SWAP1 SWAP2 MSTORE DUP1 DUP3 KECCAK256 SLOAD PUSH32 0x1590276B7F31DD8E2A06F9A92867333EEB3EDDBC91E73B9833E3E55D8E34F77D DUP4 MSTORE SWAP2 KECCAK256 SLOAD SWAP1 SWAP2 JUMP JUMPDEST PUSH2 0x1377 PUSH2 0x15A8 JUMP JUMPDEST PUSH2 0x137F PUSH2 0x15A8 JUMP JUMPDEST PUSH2 0x1387 PUSH2 0x15A8 JUMP JUMPDEST PUSH1 0x40 DUP1 MLOAD PUSH2 0x660 DUP2 ADD SWAP2 DUP3 SWAP1 MSTORE PUSH2 0x13BE SWAP2 PUSH1 0x0 SWAP1 PUSH1 0x33 SWAP1 DUP3 DUP5 JUMPDEST DUP2 SLOAD DUP2 MSTORE PUSH1 0x20 ADD SWAP1 PUSH1 0x1 ADD SWAP1 DUP1 DUP4 GT PUSH2 0x13A1 JUMPI POP POP POP POP POP PUSH2 0x1454 JUMP JUMPDEST SWAP1 SWAP3 POP SWAP1 POP PUSH1 0x0 JUMPDEST PUSH1 0x5 DUP2 LT ISZERO PUSH2 0x144E JUMPI DUP3 DUP2 PUSH1 0x5 DUP2 LT PUSH2 0x13DB JUMPI INVALID JUMPDEST PUSH1 0x20 MUL ADD MLOAD ISZERO PUSH2 0x141F JUMPI PUSH1 0x35 PUSH1 0x0 DUP4 DUP4 PUSH1 0x5 DUP2 LT PUSH2 0x13F5 JUMPI INVALID JUMPDEST PUSH1 0x20 MUL ADD MLOAD DUP2 MSTORE PUSH1 0x20 ADD SWAP1 DUP2 MSTORE PUSH1 0x20 ADD PUSH1 0x0 KECCAK256 SLOAD DUP5 DUP3 PUSH1 0x5 DUP2 LT PUSH2 0x1415 JUMPI INVALID JUMPDEST PUSH1 0x20 MUL ADD MSTORE PUSH2 0x1446 JUMP JUMPDEST PUSH1 0x3A DUP2 PUSH1 0x4 SUB PUSH1 0x5 DUP2 LT PUSH2 0x142F JUMPI INVALID JUMPDEST PUSH1 0x2 MUL ADD SLOAD DUP5 DUP3 PUSH1 0x5 DUP2 LT PUSH2 0x1440 JUMPI INVALID JUMPDEST PUSH1 0x20 MUL ADD MSTORE JUMPDEST PUSH1 0x1 ADD PUSH2 0x13C6 JUMP JUMPDEST POP POP POP SWAP1 JUMP JUMPDEST PUSH2 0x145C PUSH2 0x15A8 JUMP JUMPDEST PUSH2 0x1464 PUSH2 0x15A8 JUMP JUMPDEST PUSH1 0x20 DUP4 ADD MLOAD PUSH1 0x0 DUP1 JUMPDEST PUSH1 0x5 DUP2 LT ISZERO PUSH2 0x14E7 JUMPI DUP6 DUP2 PUSH1 0x1 ADD PUSH1 0x33 DUP2 LT PUSH2 0x1485 JUMPI INVALID JUMPDEST PUSH1 0x20 MUL ADD MLOAD DUP6 DUP3 PUSH1 0x5 DUP2 LT PUSH2 0x1496 JUMPI INVALID JUMPDEST PUSH1 0x20 MUL ADD MSTORE PUSH1 0x1 DUP2 ADD DUP5 DUP3 PUSH1 0x5 DUP2 LT PUSH2 0x14AB JUMPI INVALID JUMPDEST PUSH1 0x20 MUL ADD MSTORE DUP3 DUP6 DUP3 PUSH1 0x5 DUP2 LT PUSH2 0x14BD JUMPI INVALID JUMPDEST PUSH1 0x20 MUL ADD MLOAD LT ISZERO PUSH2 0x14DF JUMPI DUP5 DUP2 PUSH1 0x5 DUP2 LT PUSH2 0x14D4 JUMPI INVALID JUMPDEST PUSH1 0x20 MUL ADD MLOAD SWAP3 POP DUP1 SWAP2 POP JUMPDEST PUSH1 0x1 ADD PUSH2 0x146D JUMP JUMPDEST POP PUSH1 0x6 JUMPDEST PUSH1 0x33 DUP2 LT ISZERO PUSH2 0x15A0 JUMPI DUP3 DUP7 DUP3 PUSH1 0x33 DUP2 LT PUSH2 0x1501 JUMPI INVALID JUMPDEST PUSH1 0x20 MUL ADD MLOAD GT ISZERO PUSH2 0x1598 JUMPI DUP6 DUP2 PUSH1 0x33 DUP2 LT PUSH2 0x1518 JUMPI INVALID JUMPDEST PUSH1 0x20 MUL ADD MLOAD DUP6 DUP4 PUSH1 0x5 DUP2 LT PUSH2 0x1529 JUMPI INVALID JUMPDEST PUSH1 0x20 MUL ADD MSTORE DUP1 DUP5 DUP4 PUSH1 0x5 DUP2 LT PUSH2 0x153B JUMPI INVALID JUMPDEST PUSH1 0x20 MUL ADD MSTORE DUP6 DUP2 PUSH1 0x33 DUP2 LT PUSH2 0x154C JUMPI INVALID JUMPDEST PUSH1 0x20 MUL ADD MLOAD SWAP3 POP PUSH1 0x0 JUMPDEST PUSH1 0x5 DUP2 LT ISZERO PUSH2 0x1596 JUMPI DUP4 DUP7 DUP3 PUSH1 0x5 DUP2 LT PUSH2 0x156C JUMPI INVALID JUMPDEST PUSH1 0x20 MUL ADD MLOAD LT ISZERO PUSH2 0x158E JUMPI DUP6 DUP2 PUSH1 0x5 DUP2 LT PUSH2 0x1583 JUMPI INVALID JUMPDEST PUSH1 0x20 MUL ADD MLOAD SWAP4 POP DUP1 SWAP3 POP JUMPDEST PUSH1 0x1 ADD PUSH2 0x1556 JUMP JUMPDEST POP JUMPDEST PUSH1 0x1 ADD PUSH2 0x14EB JUMP JUMPDEST POP POP POP SWAP2 POP SWAP2 JUMP JUMPDEST PUSH1 0x40 MLOAD DUP1 PUSH1 0xA0 ADD PUSH1 0x40 MSTORE DUP1 PUSH1 0x5 SWAP1 PUSH1 0x20 DUP3 MUL DUP1 CALLDATASIZE DUP4 CALLDATACOPY POP SWAP2 SWAP3 SWAP2 POP POP JUMP JUMPDEST PUSH1 0x40 MLOAD DUP1 PUSH2 0x120 ADD PUSH1 0x40 MSTORE DUP1 PUSH1 0x9 SWAP1 PUSH1 0x20 DUP3 MUL DUP1 CALLDATASIZE DUP4 CALLDATACOPY POP SWAP2 SWAP3 SWAP2 POP POP JUMP JUMPDEST PUSH1 0x40 MLOAD DUP1 PUSH2 0x660 ADD PUSH1 0x40 MSTORE DUP1 PUSH1 0x33 SWAP1 PUSH1 0x20 DUP3 MUL DUP1 CALLDATASIZE DUP4 CALLDATACOPY POP SWAP2 SWAP3 SWAP2 POP POP JUMP INVALID LOG2 PUSH5 0x6970667358 0x22 SLT KECCAK256 0x4C 0xCE PUSH13 0xA923BC4B95BAC900897D9BDF7E 0xEB DIV SDIV DUP10 JUMPDEST SLOAD 0xAA SWAP6 SWAP10 PUSH16 0xFED61EE82AB964736F6C634300070400 CALLER "},"methodIdentifiers":{"_allowances(address,address)":"024c2ddd","addresses(bytes32)":"699f200f","balances(address,uint256)":"cbf1304d","bytesVars(bytes32)":"62dd1d2a","currentMiners(uint256)":"1fd22364","decimals()":"313ce567","didMine(bytes32,address)":"63bb82ad","didVote(uint256,address)":"a7c438bc","disputeIdByDisputeHash(bytes32)":"d01f4d9e","disputesById(uint256)":"db085beb","getAddressVars(bytes32)":"133bee5e","getAllDisputeVars(uint256)":"af0b1327","getDisputeIdByDisputeHash(bytes32)":"da379941","getDisputeUintVars(uint256,bytes32)":"7f6fd5d9","getLastNewValueById(uint256)":"3180f8df","getMinedBlockNum(uint256,uint256)":"c775b542","getMinersByRequestIdAndTimestamp(uint256,uint256)":"69026d63","getNewCurrentVariables()":"4049f198","getNewValueCountbyRequestId(uint256)":"46eee1c4","getNewVariablesOnDeck()":"9a7077ab","getRequestIdByRequestQIndex(uint256)":"6173c0b8","getRequestQ()":"b5413029","getRequestUintVars(uint256,bytes32)":"e0ae93c1","getRequestVars(uint256)":"e1eee6d6","getStakerInfo(address)":"733bdef0","getSubmissionsByTimestamp(uint256,uint256)":"11c98512","getTimestampbyRequestIDandIndex(uint256,uint256)":"77fbb663","getTopRequestIDs()":"fe1cd15d","getUintVar(bytes32)":"612c8f7f","isInDispute(uint256,uint256)":"3df0777b","migrated(address)":"4ba0a5ee","minersByChallenge(bytes32,address)":"48b18e54","name()":"06fdde03","newValueTimestamps(uint256)":"438c0aa3","requestIdByQueryHash(bytes32)":"5700242c","retrieveData(uint256,uint256)":"93fa4915","symbol()":"95d89b41","totalSupply()":"18160ddd","uints(bytes32)":"b59e14d4"}}}}}