{"contracts/tellor360/oldContracts/contracts/tellor3/TellorMaster.sol":{"TellorMaster":{"abi":[{"inputs":[{"internalType":"address","name":"_tContract","type":"address"},{"internalType":"address","name":"_oTellor","type":"address"}],"stateMutability":"nonpayable","type":"constructor"},{"anonymous":false,"inputs":[{"indexed":false,"internalType":"address","name":"_newTellor","type":"address"}],"name":"NewTellorAddress","type":"event"},{"stateMutability":"payable","type":"fallback"},{"inputs":[{"internalType":"address","name":"","type":"address"},{"internalType":"address","name":"","type":"address"}],"name":"_allowances","outputs":[{"internalType":"uint256","name":"","type":"uint256"}],"stateMutability":"view","type":"function"},{"inputs":[{"internalType":"bytes32","name":"","type":"bytes32"}],"name":"addresses","outputs":[{"internalType":"address","name":"","type":"address"}],"stateMutability":"view","type":"function"},{"inputs":[{"internalType":"address","name":"","type":"address"},{"internalType":"uint256","name":"","type":"uint256"}],"name":"balances","outputs":[{"internalType":"uint128","name":"fromBlock","type":"uint128"},{"internalType":"uint128","name":"value","type":"uint128"}],"stateMutability":"view","type":"function"},{"inputs":[{"internalType":"bytes32","name":"","type":"bytes32"}],"name":"bytesVars","outputs":[{"internalType":"bytes32","name":"","type":"bytes32"}],"stateMutability":"view","type":"function"},{"inputs":[{"internalType":"address","name":"_newDeity","type":"address"}],"name":"changeDeity","outputs":[],"stateMutability":"nonpayable","type":"function"},{"inputs":[{"internalType":"address","name":"_newOwner","type":"address"}],"name":"changeOwner","outputs":[],"stateMutability":"nonpayable","type":"function"},{"inputs":[{"internalType":"address","name":"_tContract","type":"address"}],"name":"changeTellorContract","outputs":[],"stateMutability":"nonpayable","type":"function"},{"inputs":[{"internalType":"uint256","name":"","type":"uint256"}],"name":"currentMiners","outputs":[{"internalType":"uint256","name":"value","type":"uint256"},{"internalType":"address","name":"miner","type":"address"}],"stateMutability":"view","type":"function"},{"inputs":[{"internalType":"bytes32","name":"","type":"bytes32"}],"name":"disputeIdByDisputeHash","outputs":[{"internalType":"uint256","name":"","type":"uint256"}],"stateMutability":"view","type":"function"},{"inputs":[{"internalType":"uint256","name":"","type":"uint256"}],"name":"disputesById","outputs":[{"internalType":"bytes32","name":"hash","type":"bytes32"},{"internalType":"int256","name":"tally","type":"int256"},{"internalType":"bool","name":"executed","type":"bool"},{"internalType":"bool","name":"disputeVotePassed","type":"bool"},{"internalType":"bool","name":"isPropFork","type":"bool"},{"internalType":"address","name":"reportedMiner","type":"address"},{"internalType":"address","name":"reportingParty","type":"address"},{"internalType":"address","name":"proposedForkAddress","type":"address"}],"stateMutability":"view","type":"function"},{"inputs":[{"internalType":"address","name":"","type":"address"}],"name":"migrated","outputs":[{"internalType":"bool","name":"","type":"bool"}],"stateMutability":"view","type":"function"},{"inputs":[{"internalType":"bytes32","name":"","type":"bytes32"},{"internalType":"address","name":"","type":"address"}],"name":"minersByChallenge","outputs":[{"internalType":"bool","name":"","type":"bool"}],"stateMutability":"view","type":"function"},{"inputs":[{"internalType":"uint256","name":"","type":"uint256"}],"name":"newValueTimestamps","outputs":[{"internalType":"uint256","name":"","type":"uint256"}],"stateMutability":"view","type":"function"},{"inputs":[{"internalType":"bytes32","name":"","type":"bytes32"}],"name":"requestIdByQueryHash","outputs":[{"internalType":"uint256","name":"","type":"uint256"}],"stateMutability":"view","type":"function"},{"inputs":[{"internalType":"bytes32","name":"","type":"bytes32"}],"name":"uints","outputs":[{"internalType":"uint256","name":"","type":"uint256"}],"stateMutability":"view","type":"function"}],"evm":{"bytecode":{"linkReferences":{},"object":"608060405234801561001057600080fd5b50604051610cb3380380610cb38339818101604052604081101561003357600080fd5b5080516020918201517fb5f7e7387e8e977cc9c4c9513388b0d7224264b9a0159cd8e8bdd84a9ed504c38054336001600160a01b031991821681179092557f437dd27c2043efdfef03344e9331c924985f7bd1752abef5ea93bdbfed685100805482169092179091557ffe10c9a395cce5a324df121072934b83aa2f3aa5f594428b2a75cf926b73fae8805482166001600160a01b03808616919091179091557fc930326aab6c1874fc004d856083a6ed34e057e064970b7effb48e8e6e8ca1278054909216908316179055603160f81b7f52cb9007c7c6068f8ef37039d4f232cbf5a28ff8d93a5983c4c0c27cd2f9bc0d55604690925260647f5bccd7373734898281f858d7562320d2cdfc0b17bd72f779686937174d1500255560f07f8156e704072c396780f8253d0562de28216b73a1503daa96e259b9cdd951d71c5560c87f2e2f0a18eb55ef91e37921b3810d7feeef7a855ddc7f4f4249ef03d7b887ae3155670de0b6b3a76400007fc2c579d641b643400780d5c7ce967b420034b9f66962a5ee405cf70e4cbed6bb55681b1ae4d6e2ef5000007f3e5522f19747f0f285b96ded572ac4128c3a764aea9f44058dc0afc9dda449868190557f167af83a0768d27540775cfef6d996eb63f8a61fcdfb26e654c18fb50960e3be557f2c8b528fbaf48aaf13162a5a0519a7ad5a612da8ff8783465c17e076660a59f16000524260ef19017f231bb0dc207f13dd4e565ebc32496c470e35391bd8d3b6649269ee2328e03118556001603a8190556002603c556003603e55600460405560056042559091905b60338110156102da5760008181526045602090815260408083207ff68d680ab3160f1aa5d9c3a1383c49e3e60bf3c0c031245cbb036f5ce99afaa184526001908101835281842085905584845260359092529091208290550161027c565b507f7050c9e0f4ca769c69bd3a8ef740bc37934f8e2c036e5a723fd8ee048ed3f8c3829055604080516001600160a01b038416815290517fc2d1449eb0b6547aa426e09d9942a77fa4fc8cd3296305b3163e22452e0bcb8d9181900360200190a150506109678061034c6000396000f3fe6080604052600436106100e85760003560e01c806362dd1d2a1161008a578063b59e14d411610059578063b59e14d4146103bf578063cbf1304d146103e9578063d01f4d9e14610451578063db085beb1461047b576100e8565b806362dd1d2a146102e9578063699f200f14610313578063a6f9dae114610359578063ae0a82791461038c576100e8565b806347abd7f1116100c657806347abd7f11461020a57806348b18e541461023f5780634ba0a5ee1461028c5780635700242c146102bf576100e8565b8063024c2ddd146101485780631fd2236414610195578063438c0aa3146101e0575b7f0f1293c916694ac6af4daa2f866f0448d0c2ce8847074a7896d397c961914a0860005260476020527ffe10c9a395cce5a324df121072934b83aa2f3aa5f594428b2a75cf926b73fae8546001600160a01b0316610145816104f5565b50005b34801561015457600080fd5b506101836004803603604081101561016b57600080fd5b506001600160a01b0381358116916020013516610519565b60408051918252519081900360200190f35b3480156101a157600080fd5b506101bf600480360360208110156101b857600080fd5b5035610536565b604080519283526001600160a01b0390911660208301528051918290030190f35b3480156101ec57600080fd5b506101836004803603602081101561020357600080fd5b5035610561565b34801561021657600080fd5b5061023d6004803603602081101561022d57600080fd5b50356001600160a01b0316610582565b005b34801561024b57600080fd5b506102786004803603604081101561026257600080fd5b50803590602001356001600160a01b031661064b565b604080519115158252519081900360200190f35b34801561029857600080fd5b50610278600480360360208110156102af57600080fd5b50356001600160a01b031661066b565b3480156102cb57600080fd5b50610183600480360360208110156102e257600080fd5b5035610680565b3480156102f557600080fd5b506101836004803603602081101561030c57600080fd5b5035610692565b34801561031f57600080fd5b5061033d6004803603602081101561033657600080fd5b50356106a4565b604080516001600160a01b039092168252519081900360200190f35b34801561036557600080fd5b5061023d6004803603602081101561037c57600080fd5b50356001600160a01b03166106bf565b34801561039857600080fd5b5061023d600480360360208110156103af57600080fd5b50356001600160a01b0316610788565b3480156103cb57600080fd5b50610183600480360360208110156103e257600080fd5b503561086e565b3480156103f557600080fd5b506104226004803603604081101561040c57600080fd5b506001600160a01b038135169060200135610880565b60405180836001600160801b03168152602001826001600160801b031681526020019250505060405180910390f35b34801561045d57600080fd5b506101836004803603602081101561047457600080fd5b50356108c3565b34801561048757600080fd5b506104a56004803603602081101561049e57600080fd5b50356108d5565b60408051988952602089019790975294151587870152921515606087015290151560808601526001600160a01b0390811660a086015290811660c08501521660e083015251908190036101000190f35b3660008037600080366000845af43d6000803e808015610514573d6000f35b3d6000fd5b604a60209081526000928352604080842090915290825290205481565b603a816005811061054657600080fd5b6002020180546001909101549091506001600160a01b031682565b6033818154811061057157600080fd5b600091825260209091200154905081565b7f5fc094d10c65bc33cc842217b2eccca0191ff24148319da094e540a55989896160005260476020527f437dd27c2043efdfef03344e9331c924985f7bd1752abef5ea93bdbfed685100546001600160a01b031633146105e157600080fd5b7f5fc094d10c65bc33cc842217b2eccca0191ff24148319da094e540a55989896160005260476020527f437dd27c2043efdfef03344e9331c924985f7bd1752abef5ea93bdbfed68510080546001600160a01b0319166001600160a01b0392909216919091179055565b603960209081526000928352604080842090915290825290205460ff1681565b604b6020526000908152604090205460ff1681565b60376020526000908152604090205481565b60486020526000908152604090205481565b6047602052600090815260409020546001600160a01b031681565b7f7a39905194de50bde334d18b76bbb36dddd11641d4d50b470cb837cf3bae5def60005260476020527fb5f7e7387e8e977cc9c4c9513388b0d7224264b9a0159cd8e8bdd84a9ed504c3546001600160a01b0316331461071e57600080fd5b7f7a39905194de50bde334d18b76bbb36dddd11641d4d50b470cb837cf3bae5def60005260476020527fb5f7e7387e8e977cc9c4c9513388b0d7224264b9a0159cd8e8bdd84a9ed504c380546001600160a01b0319166001600160a01b0392909216919091179055565b7f5fc094d10c65bc33cc842217b2eccca0191ff24148319da094e540a55989896160005260476020527f437dd27c2043efdfef03344e9331c924985f7bd1752abef5ea93bdbfed685100546001600160a01b031633146107e757600080fd5b7f0f1293c916694ac6af4daa2f866f0448d0c2ce8847074a7896d397c961914a0860005260476020527ffe10c9a395cce5a324df121072934b83aa2f3aa5f594428b2a75cf926b73fae880546001600160a01b0319166001600160a01b0383161790557f7050c9e0f4ca769c69bd3a8ef740bc37934f8e2c036e5a723fd8ee048ed3f8c355565b60466020526000908152604090205481565b6049602052816000526040600020818154811061089c57600080fd5b6000918252602090912001546001600160801b038082169350600160801b90910416905082565b60386020526000908152604090205481565b603660205260009081526040902080546001820154600283015460038401546004909401549293919260ff808316936101008404821693620100008104909216926001600160a01b03630100000090930483169291821691168856fea2646970667358221220d48e1d15b1e44a560364b9731c09b2f37d4ed447eacee36e375440b6e3477ab164736f6c63430007040033","opcodes":"PUSH1 0x80 PUSH1 0x40 MSTORE CALLVALUE DUP1 ISZERO PUSH2 0x10 JUMPI PUSH1 0x0 DUP1 REVERT JUMPDEST POP PUSH1 0x40 MLOAD PUSH2 0xCB3 CODESIZE SUB DUP1 PUSH2 0xCB3 DUP4 CODECOPY DUP2 DUP2 ADD PUSH1 0x40 MSTORE PUSH1 0x40 DUP2 LT ISZERO PUSH2 0x33 JUMPI PUSH1 0x0 DUP1 REVERT JUMPDEST POP DUP1 MLOAD PUSH1 0x20 SWAP2 DUP3 ADD MLOAD PUSH32 0xB5F7E7387E8E977CC9C4C9513388B0D7224264B9A0159CD8E8BDD84A9ED504C3 DUP1 SLOAD CALLER PUSH1 0x1 PUSH1 0x1 PUSH1 0xA0 SHL SUB NOT SWAP2 DUP3 AND DUP2 OR SWAP1 SWAP3 SSTORE PUSH32 0x437DD27C2043EFDFEF03344E9331C924985F7BD1752ABEF5EA93BDBFED685100 DUP1 SLOAD DUP3 AND SWAP1 SWAP3 OR SWAP1 SWAP2 SSTORE PUSH32 0xFE10C9A395CCE5A324DF121072934B83AA2F3AA5F594428B2A75CF926B73FAE8 DUP1 SLOAD DUP3 AND PUSH1 0x1 PUSH1 0x1 PUSH1 0xA0 SHL SUB DUP1 DUP7 AND SWAP2 SWAP1 SWAP2 OR SWAP1 SWAP2 SSTORE PUSH32 0xC930326AAB6C1874FC004D856083A6ED34E057E064970B7EFFB48E8E6E8CA127 DUP1 SLOAD SWAP1 SWAP3 AND SWAP1 DUP4 AND OR SWAP1 SSTORE PUSH1 0x31 PUSH1 0xF8 SHL PUSH32 0x52CB9007C7C6068F8EF37039D4F232CBF5A28FF8D93A5983C4C0C27CD2F9BC0D SSTORE PUSH1 0x46 SWAP1 SWAP3 MSTORE PUSH1 0x64 PUSH32 0x5BCCD7373734898281F858D7562320D2CDFC0B17BD72F779686937174D150025 SSTORE PUSH1 0xF0 PUSH32 0x8156E704072C396780F8253D0562DE28216B73A1503DAA96E259B9CDD951D71C SSTORE PUSH1 0xC8 PUSH32 0x2E2F0A18EB55EF91E37921B3810D7FEEEF7A855DDC7F4F4249EF03D7B887AE31 SSTORE PUSH8 0xDE0B6B3A7640000 PUSH32 0xC2C579D641B643400780D5C7CE967B420034B9F66962A5EE405CF70E4CBED6BB SSTORE PUSH9 0x1B1AE4D6E2EF500000 PUSH32 0x3E5522F19747F0F285B96DED572AC4128C3A764AEA9F44058DC0AFC9DDA44986 DUP2 SWAP1 SSTORE PUSH32 0x167AF83A0768D27540775CFEF6D996EB63F8A61FCDFB26E654C18FB50960E3BE SSTORE PUSH32 0x2C8B528FBAF48AAF13162A5A0519A7AD5A612DA8FF8783465C17E076660A59F1 PUSH1 0x0 MSTORE TIMESTAMP PUSH1 0xEF NOT ADD PUSH32 0x231BB0DC207F13DD4E565EBC32496C470E35391BD8D3B6649269EE2328E03118 SSTORE PUSH1 0x1 PUSH1 0x3A DUP2 SWAP1 SSTORE PUSH1 0x2 PUSH1 0x3C SSTORE PUSH1 0x3 PUSH1 0x3E SSTORE PUSH1 0x4 PUSH1 0x40 SSTORE PUSH1 0x5 PUSH1 0x42 SSTORE SWAP1 SWAP2 SWAP1 JUMPDEST PUSH1 0x33 DUP2 LT ISZERO PUSH2 0x2DA JUMPI PUSH1 0x0 DUP2 DUP2 MSTORE PUSH1 0x45 PUSH1 0x20 SWAP1 DUP2 MSTORE PUSH1 0x40 DUP1 DUP4 KECCAK256 PUSH32 0xF68D680AB3160F1AA5D9C3A1383C49E3E60BF3C0C031245CBB036F5CE99AFAA1 DUP5 MSTORE PUSH1 0x1 SWAP1 DUP2 ADD DUP4 MSTORE DUP2 DUP5 KECCAK256 DUP6 SWAP1 SSTORE DUP5 DUP5 MSTORE PUSH1 0x35 SWAP1 SWAP3 MSTORE SWAP1 SWAP2 KECCAK256 DUP3 SWAP1 SSTORE ADD PUSH2 0x27C JUMP JUMPDEST POP PUSH32 0x7050C9E0F4CA769C69BD3A8EF740BC37934F8E2C036E5A723FD8EE048ED3F8C3 DUP3 SWAP1 SSTORE PUSH1 0x40 DUP1 MLOAD PUSH1 0x1 PUSH1 0x1 PUSH1 0xA0 SHL SUB DUP5 AND DUP2 MSTORE SWAP1 MLOAD PUSH32 0xC2D1449EB0B6547AA426E09D9942A77FA4FC8CD3296305B3163E22452E0BCB8D SWAP2 DUP2 SWAP1 SUB PUSH1 0x20 ADD SWAP1 LOG1 POP POP PUSH2 0x967 DUP1 PUSH2 0x34C PUSH1 0x0 CODECOPY PUSH1 0x0 RETURN INVALID PUSH1 0x80 PUSH1 0x40 MSTORE PUSH1 0x4 CALLDATASIZE LT PUSH2 0xE8 JUMPI PUSH1 0x0 CALLDATALOAD PUSH1 0xE0 SHR DUP1 PUSH4 0x62DD1D2A GT PUSH2 0x8A JUMPI DUP1 PUSH4 0xB59E14D4 GT PUSH2 0x59 JUMPI DUP1 PUSH4 0xB59E14D4 EQ PUSH2 0x3BF JUMPI DUP1 PUSH4 0xCBF1304D EQ PUSH2 0x3E9 JUMPI DUP1 PUSH4 0xD01F4D9E EQ PUSH2 0x451 JUMPI DUP1 PUSH4 0xDB085BEB EQ PUSH2 0x47B JUMPI PUSH2 0xE8 JUMP JUMPDEST DUP1 PUSH4 0x62DD1D2A EQ PUSH2 0x2E9 JUMPI DUP1 PUSH4 0x699F200F EQ PUSH2 0x313 JUMPI DUP1 PUSH4 0xA6F9DAE1 EQ PUSH2 0x359 JUMPI DUP1 PUSH4 0xAE0A8279 EQ PUSH2 0x38C JUMPI PUSH2 0xE8 JUMP JUMPDEST DUP1 PUSH4 0x47ABD7F1 GT PUSH2 0xC6 JUMPI DUP1 PUSH4 0x47ABD7F1 EQ PUSH2 0x20A JUMPI DUP1 PUSH4 0x48B18E54 EQ PUSH2 0x23F JUMPI DUP1 PUSH4 0x4BA0A5EE EQ PUSH2 0x28C JUMPI DUP1 PUSH4 0x5700242C EQ PUSH2 0x2BF JUMPI PUSH2 0xE8 JUMP JUMPDEST DUP1 PUSH4 0x24C2DDD EQ PUSH2 0x148 JUMPI DUP1 PUSH4 0x1FD22364 EQ PUSH2 0x195 JUMPI DUP1 PUSH4 0x438C0AA3 EQ PUSH2 0x1E0 JUMPI JUMPDEST PUSH32 0xF1293C916694AC6AF4DAA2F866F0448D0C2CE8847074A7896D397C961914A08 PUSH1 0x0 MSTORE PUSH1 0x47 PUSH1 0x20 MSTORE PUSH32 0xFE10C9A395CCE5A324DF121072934B83AA2F3AA5F594428B2A75CF926B73FAE8 SLOAD PUSH1 0x1 PUSH1 0x1 PUSH1 0xA0 SHL SUB AND PUSH2 0x145 DUP2 PUSH2 0x4F5 JUMP JUMPDEST POP STOP JUMPDEST CALLVALUE DUP1 ISZERO PUSH2 0x154 JUMPI PUSH1 0x0 DUP1 REVERT JUMPDEST POP PUSH2 0x183 PUSH1 0x4 DUP1 CALLDATASIZE SUB PUSH1 0x40 DUP2 LT ISZERO PUSH2 0x16B JUMPI PUSH1 0x0 DUP1 REVERT JUMPDEST POP PUSH1 0x1 PUSH1 0x1 PUSH1 0xA0 SHL SUB DUP2 CALLDATALOAD DUP2 AND SWAP2 PUSH1 0x20 ADD CALLDATALOAD AND PUSH2 0x519 JUMP JUMPDEST PUSH1 0x40 DUP1 MLOAD SWAP2 DUP3 MSTORE MLOAD SWAP1 DUP2 SWAP1 SUB PUSH1 0x20 ADD SWAP1 RETURN JUMPDEST CALLVALUE DUP1 ISZERO PUSH2 0x1A1 JUMPI PUSH1 0x0 DUP1 REVERT JUMPDEST POP PUSH2 0x1BF PUSH1 0x4 DUP1 CALLDATASIZE SUB PUSH1 0x20 DUP2 LT ISZERO PUSH2 0x1B8 JUMPI PUSH1 0x0 DUP1 REVERT JUMPDEST POP CALLDATALOAD PUSH2 0x536 JUMP JUMPDEST PUSH1 0x40 DUP1 MLOAD SWAP3 DUP4 MSTORE PUSH1 0x1 PUSH1 0x1 PUSH1 0xA0 SHL SUB SWAP1 SWAP2 AND PUSH1 0x20 DUP4 ADD MSTORE DUP1 MLOAD SWAP2 DUP3 SWAP1 SUB ADD SWAP1 RETURN JUMPDEST CALLVALUE DUP1 ISZERO PUSH2 0x1EC JUMPI PUSH1 0x0 DUP1 REVERT JUMPDEST POP PUSH2 0x183 PUSH1 0x4 DUP1 CALLDATASIZE SUB PUSH1 0x20 DUP2 LT ISZERO PUSH2 0x203 JUMPI PUSH1 0x0 DUP1 REVERT JUMPDEST POP CALLDATALOAD PUSH2 0x561 JUMP JUMPDEST CALLVALUE DUP1 ISZERO PUSH2 0x216 JUMPI PUSH1 0x0 DUP1 REVERT JUMPDEST POP PUSH2 0x23D PUSH1 0x4 DUP1 CALLDATASIZE SUB PUSH1 0x20 DUP2 LT ISZERO PUSH2 0x22D JUMPI PUSH1 0x0 DUP1 REVERT JUMPDEST POP CALLDATALOAD PUSH1 0x1 PUSH1 0x1 PUSH1 0xA0 SHL SUB AND PUSH2 0x582 JUMP JUMPDEST STOP JUMPDEST CALLVALUE DUP1 ISZERO PUSH2 0x24B JUMPI PUSH1 0x0 DUP1 REVERT JUMPDEST POP PUSH2 0x278 PUSH1 0x4 DUP1 CALLDATASIZE SUB PUSH1 0x40 DUP2 LT ISZERO PUSH2 0x262 JUMPI PUSH1 0x0 DUP1 REVERT JUMPDEST POP DUP1 CALLDATALOAD SWAP1 PUSH1 0x20 ADD CALLDATALOAD PUSH1 0x1 PUSH1 0x1 PUSH1 0xA0 SHL SUB AND PUSH2 0x64B JUMP JUMPDEST PUSH1 0x40 DUP1 MLOAD SWAP2 ISZERO ISZERO DUP3 MSTORE MLOAD SWAP1 DUP2 SWAP1 SUB PUSH1 0x20 ADD SWAP1 RETURN JUMPDEST CALLVALUE DUP1 ISZERO PUSH2 0x298 JUMPI PUSH1 0x0 DUP1 REVERT JUMPDEST POP PUSH2 0x278 PUSH1 0x4 DUP1 CALLDATASIZE SUB PUSH1 0x20 DUP2 LT ISZERO PUSH2 0x2AF JUMPI PUSH1 0x0 DUP1 REVERT JUMPDEST POP CALLDATALOAD PUSH1 0x1 PUSH1 0x1 PUSH1 0xA0 SHL SUB AND PUSH2 0x66B JUMP JUMPDEST CALLVALUE DUP1 ISZERO PUSH2 0x2CB JUMPI PUSH1 0x0 DUP1 REVERT JUMPDEST POP PUSH2 0x183 PUSH1 0x4 DUP1 CALLDATASIZE SUB PUSH1 0x20 DUP2 LT ISZERO PUSH2 0x2E2 JUMPI PUSH1 0x0 DUP1 REVERT JUMPDEST POP CALLDATALOAD PUSH2 0x680 JUMP JUMPDEST CALLVALUE DUP1 ISZERO PUSH2 0x2F5 JUMPI PUSH1 0x0 DUP1 REVERT JUMPDEST POP PUSH2 0x183 PUSH1 0x4 DUP1 CALLDATASIZE SUB PUSH1 0x20 DUP2 LT ISZERO PUSH2 0x30C JUMPI PUSH1 0x0 DUP1 REVERT JUMPDEST POP CALLDATALOAD PUSH2 0x692 JUMP JUMPDEST CALLVALUE DUP1 ISZERO PUSH2 0x31F JUMPI PUSH1 0x0 DUP1 REVERT JUMPDEST POP PUSH2 0x33D PUSH1 0x4 DUP1 CALLDATASIZE SUB PUSH1 0x20 DUP2 LT ISZERO PUSH2 0x336 JUMPI PUSH1 0x0 DUP1 REVERT JUMPDEST POP CALLDATALOAD PUSH2 0x6A4 JUMP JUMPDEST PUSH1 0x40 DUP1 MLOAD PUSH1 0x1 PUSH1 0x1 PUSH1 0xA0 SHL SUB SWAP1 SWAP3 AND DUP3 MSTORE MLOAD SWAP1 DUP2 SWAP1 SUB PUSH1 0x20 ADD SWAP1 RETURN JUMPDEST CALLVALUE DUP1 ISZERO PUSH2 0x365 JUMPI PUSH1 0x0 DUP1 REVERT JUMPDEST POP PUSH2 0x23D PUSH1 0x4 DUP1 CALLDATASIZE SUB PUSH1 0x20 DUP2 LT ISZERO PUSH2 0x37C JUMPI PUSH1 0x0 DUP1 REVERT JUMPDEST POP CALLDATALOAD PUSH1 0x1 PUSH1 0x1 PUSH1 0xA0 SHL SUB AND PUSH2 0x6BF JUMP JUMPDEST CALLVALUE DUP1 ISZERO PUSH2 0x398 JUMPI PUSH1 0x0 DUP1 REVERT JUMPDEST POP PUSH2 0x23D PUSH1 0x4 DUP1 CALLDATASIZE SUB PUSH1 0x20 DUP2 LT ISZERO PUSH2 0x3AF JUMPI PUSH1 0x0 DUP1 REVERT JUMPDEST POP CALLDATALOAD PUSH1 0x1 PUSH1 0x1 PUSH1 0xA0 SHL SUB AND PUSH2 0x788 JUMP JUMPDEST CALLVALUE DUP1 ISZERO PUSH2 0x3CB JUMPI PUSH1 0x0 DUP1 REVERT JUMPDEST POP PUSH2 0x183 PUSH1 0x4 DUP1 CALLDATASIZE SUB PUSH1 0x20 DUP2 LT ISZERO PUSH2 0x3E2 JUMPI PUSH1 0x0 DUP1 REVERT JUMPDEST POP CALLDATALOAD PUSH2 0x86E JUMP JUMPDEST CALLVALUE DUP1 ISZERO PUSH2 0x3F5 JUMPI PUSH1 0x0 DUP1 REVERT JUMPDEST POP PUSH2 0x422 PUSH1 0x4 DUP1 CALLDATASIZE SUB PUSH1 0x40 DUP2 LT ISZERO PUSH2 0x40C JUMPI PUSH1 0x0 DUP1 REVERT JUMPDEST POP PUSH1 0x1 PUSH1 0x1 PUSH1 0xA0 SHL SUB DUP2 CALLDATALOAD AND SWAP1 PUSH1 0x20 ADD CALLDATALOAD PUSH2 0x880 JUMP JUMPDEST PUSH1 0x40 MLOAD DUP1 DUP4 PUSH1 0x1 PUSH1 0x1 PUSH1 0x80 SHL SUB AND DUP2 MSTORE PUSH1 0x20 ADD DUP3 PUSH1 0x1 PUSH1 0x1 PUSH1 0x80 SHL SUB AND DUP2 MSTORE PUSH1 0x20 ADD SWAP3 POP POP POP PUSH1 0x40 MLOAD DUP1 SWAP2 SUB SWAP1 RETURN JUMPDEST CALLVALUE DUP1 ISZERO PUSH2 0x45D JUMPI PUSH1 0x0 DUP1 REVERT JUMPDEST POP PUSH2 0x183 PUSH1 0x4 DUP1 CALLDATASIZE SUB PUSH1 0x20 DUP2 LT ISZERO PUSH2 0x474 JUMPI PUSH1 0x0 DUP1 REVERT JUMPDEST POP CALLDATALOAD PUSH2 0x8C3 JUMP JUMPDEST CALLVALUE DUP1 ISZERO PUSH2 0x487 JUMPI PUSH1 0x0 DUP1 REVERT JUMPDEST POP PUSH2 0x4A5 PUSH1 0x4 DUP1 CALLDATASIZE SUB PUSH1 0x20 DUP2 LT ISZERO PUSH2 0x49E JUMPI PUSH1 0x0 DUP1 REVERT JUMPDEST POP CALLDATALOAD PUSH2 0x8D5 JUMP JUMPDEST PUSH1 0x40 DUP1 MLOAD SWAP9 DUP10 MSTORE PUSH1 0x20 DUP10 ADD SWAP8 SWAP1 SWAP8 MSTORE SWAP5 ISZERO ISZERO DUP8 DUP8 ADD MSTORE SWAP3 ISZERO ISZERO PUSH1 0x60 DUP8 ADD MSTORE SWAP1 ISZERO ISZERO PUSH1 0x80 DUP7 ADD MSTORE PUSH1 0x1 PUSH1 0x1 PUSH1 0xA0 SHL SUB SWAP1 DUP2 AND PUSH1 0xA0 DUP7 ADD MSTORE SWAP1 DUP2 AND PUSH1 0xC0 DUP6 ADD MSTORE AND PUSH1 0xE0 DUP4 ADD MSTORE MLOAD SWAP1 DUP2 SWAP1 SUB PUSH2 0x100 ADD SWAP1 RETURN JUMPDEST CALLDATASIZE PUSH1 0x0 DUP1 CALLDATACOPY PUSH1 0x0 DUP1 CALLDATASIZE PUSH1 0x0 DUP5 GAS DELEGATECALL RETURNDATASIZE PUSH1 0x0 DUP1 RETURNDATACOPY DUP1 DUP1 ISZERO PUSH2 0x514 JUMPI RETURNDATASIZE PUSH1 0x0 RETURN JUMPDEST RETURNDATASIZE PUSH1 0x0 REVERT JUMPDEST PUSH1 0x4A PUSH1 0x20 SWAP1 DUP2 MSTORE PUSH1 0x0 SWAP3 DUP4 MSTORE PUSH1 0x40 DUP1 DUP5 KECCAK256 SWAP1 SWAP2 MSTORE SWAP1 DUP3 MSTORE SWAP1 KECCAK256 SLOAD DUP2 JUMP JUMPDEST PUSH1 0x3A DUP2 PUSH1 0x5 DUP2 LT PUSH2 0x546 JUMPI PUSH1 0x0 DUP1 REVERT JUMPDEST PUSH1 0x2 MUL ADD DUP1 SLOAD PUSH1 0x1 SWAP1 SWAP2 ADD SLOAD SWAP1 SWAP2 POP PUSH1 0x1 PUSH1 0x1 PUSH1 0xA0 SHL SUB AND DUP3 JUMP JUMPDEST PUSH1 0x33 DUP2 DUP2 SLOAD DUP2 LT PUSH2 0x571 JUMPI PUSH1 0x0 DUP1 REVERT JUMPDEST PUSH1 0x0 SWAP2 DUP3 MSTORE PUSH1 0x20 SWAP1 SWAP2 KECCAK256 ADD SLOAD SWAP1 POP DUP2 JUMP JUMPDEST PUSH32 0x5FC094D10C65BC33CC842217B2ECCCA0191FF24148319DA094E540A559898961 PUSH1 0x0 MSTORE PUSH1 0x47 PUSH1 0x20 MSTORE PUSH32 0x437DD27C2043EFDFEF03344E9331C924985F7BD1752ABEF5EA93BDBFED685100 SLOAD PUSH1 0x1 PUSH1 0x1 PUSH1 0xA0 SHL SUB AND CALLER EQ PUSH2 0x5E1 JUMPI PUSH1 0x0 DUP1 REVERT JUMPDEST PUSH32 0x5FC094D10C65BC33CC842217B2ECCCA0191FF24148319DA094E540A559898961 PUSH1 0x0 MSTORE PUSH1 0x47 PUSH1 0x20 MSTORE PUSH32 0x437DD27C2043EFDFEF03344E9331C924985F7BD1752ABEF5EA93BDBFED685100 DUP1 SLOAD PUSH1 0x1 PUSH1 0x1 PUSH1 0xA0 SHL SUB NOT AND PUSH1 0x1 PUSH1 0x1 PUSH1 0xA0 SHL SUB SWAP3 SWAP1 SWAP3 AND SWAP2 SWAP1 SWAP2 OR SWAP1 SSTORE JUMP JUMPDEST PUSH1 0x39 PUSH1 0x20 SWAP1 DUP2 MSTORE PUSH1 0x0 SWAP3 DUP4 MSTORE PUSH1 0x40 DUP1 DUP5 KECCAK256 SWAP1 SWAP2 MSTORE SWAP1 DUP3 MSTORE SWAP1 KECCAK256 SLOAD PUSH1 0xFF AND DUP2 JUMP JUMPDEST PUSH1 0x4B PUSH1 0x20 MSTORE PUSH1 0x0 SWAP1 DUP2 MSTORE PUSH1 0x40 SWAP1 KECCAK256 SLOAD PUSH1 0xFF AND DUP2 JUMP JUMPDEST PUSH1 0x37 PUSH1 0x20 MSTORE PUSH1 0x0 SWAP1 DUP2 MSTORE PUSH1 0x40 SWAP1 KECCAK256 SLOAD DUP2 JUMP JUMPDEST PUSH1 0x48 PUSH1 0x20 MSTORE PUSH1 0x0 SWAP1 DUP2 MSTORE PUSH1 0x40 SWAP1 KECCAK256 SLOAD DUP2 JUMP JUMPDEST PUSH1 0x47 PUSH1 0x20 MSTORE PUSH1 0x0 SWAP1 DUP2 MSTORE PUSH1 0x40 SWAP1 KECCAK256 SLOAD PUSH1 0x1 PUSH1 0x1 PUSH1 0xA0 SHL SUB AND DUP2 JUMP JUMPDEST PUSH32 0x7A39905194DE50BDE334D18B76BBB36DDDD11641D4D50B470CB837CF3BAE5DEF PUSH1 0x0 MSTORE PUSH1 0x47 PUSH1 0x20 MSTORE PUSH32 0xB5F7E7387E8E977CC9C4C9513388B0D7224264B9A0159CD8E8BDD84A9ED504C3 SLOAD PUSH1 0x1 PUSH1 0x1 PUSH1 0xA0 SHL SUB AND CALLER EQ PUSH2 0x71E JUMPI PUSH1 0x0 DUP1 REVERT JUMPDEST PUSH32 0x7A39905194DE50BDE334D18B76BBB36DDDD11641D4D50B470CB837CF3BAE5DEF PUSH1 0x0 MSTORE PUSH1 0x47 PUSH1 0x20 MSTORE PUSH32 0xB5F7E7387E8E977CC9C4C9513388B0D7224264B9A0159CD8E8BDD84A9ED504C3 DUP1 SLOAD PUSH1 0x1 PUSH1 0x1 PUSH1 0xA0 SHL SUB NOT AND PUSH1 0x1 PUSH1 0x1 PUSH1 0xA0 SHL SUB SWAP3 SWAP1 SWAP3 AND SWAP2 SWAP1 SWAP2 OR SWAP1 SSTORE JUMP JUMPDEST PUSH32 0x5FC094D10C65BC33CC842217B2ECCCA0191FF24148319DA094E540A559898961 PUSH1 0x0 MSTORE PUSH1 0x47 PUSH1 0x20 MSTORE PUSH32 0x437DD27C2043EFDFEF03344E9331C924985F7BD1752ABEF5EA93BDBFED685100 SLOAD PUSH1 0x1 PUSH1 0x1 PUSH1 0xA0 SHL SUB AND CALLER EQ PUSH2 0x7E7 JUMPI PUSH1 0x0 DUP1 REVERT JUMPDEST PUSH32 0xF1293C916694AC6AF4DAA2F866F0448D0C2CE8847074A7896D397C961914A08 PUSH1 0x0 MSTORE PUSH1 0x47 PUSH1 0x20 MSTORE PUSH32 0xFE10C9A395CCE5A324DF121072934B83AA2F3AA5F594428B2A75CF926B73FAE8 DUP1 SLOAD PUSH1 0x1 PUSH1 0x1 PUSH1 0xA0 SHL SUB NOT AND PUSH1 0x1 PUSH1 0x1 PUSH1 0xA0 SHL SUB DUP4 AND OR SWAP1 SSTORE PUSH32 0x7050C9E0F4CA769C69BD3A8EF740BC37934F8E2C036E5A723FD8EE048ED3F8C3 SSTORE JUMP JUMPDEST PUSH1 0x46 PUSH1 0x20 MSTORE PUSH1 0x0 SWAP1 DUP2 MSTORE PUSH1 0x40 SWAP1 KECCAK256 SLOAD DUP2 JUMP JUMPDEST PUSH1 0x49 PUSH1 0x20 MSTORE DUP2 PUSH1 0x0 MSTORE PUSH1 0x40 PUSH1 0x0 KECCAK256 DUP2 DUP2 SLOAD DUP2 LT PUSH2 0x89C JUMPI PUSH1 0x0 DUP1 REVERT JUMPDEST PUSH1 0x0 SWAP2 DUP3 MSTORE PUSH1 0x20 SWAP1 SWAP2 KECCAK256 ADD SLOAD PUSH1 0x1 PUSH1 0x1 PUSH1 0x80 SHL SUB DUP1 DUP3 AND SWAP4 POP PUSH1 0x1 PUSH1 0x80 SHL SWAP1 SWAP2 DIV AND SWAP1 POP DUP3 JUMP JUMPDEST PUSH1 0x38 PUSH1 0x20 MSTORE PUSH1 0x0 SWAP1 DUP2 MSTORE PUSH1 0x40 SWAP1 KECCAK256 SLOAD DUP2 JUMP JUMPDEST PUSH1 0x36 PUSH1 0x20 MSTORE PUSH1 0x0 SWAP1 DUP2 MSTORE PUSH1 0x40 SWAP1 KECCAK256 DUP1 SLOAD PUSH1 0x1 DUP3 ADD SLOAD PUSH1 0x2 DUP4 ADD SLOAD PUSH1 0x3 DUP5 ADD SLOAD PUSH1 0x4 SWAP1 SWAP5 ADD SLOAD SWAP3 SWAP4 SWAP2 SWAP3 PUSH1 0xFF DUP1 DUP4 AND SWAP4 PUSH2 0x100 DUP5 DIV DUP3 AND SWAP4 PUSH3 0x10000 DUP2 DIV SWAP1 SWAP3 AND SWAP3 PUSH1 0x1 PUSH1 0x1 PUSH1 0xA0 SHL SUB PUSH4 0x1000000 SWAP1 SWAP4 DIV DUP4 AND SWAP3 SWAP2 DUP3 AND SWAP2 AND DUP9 JUMP INVALID LOG2 PUSH5 0x6970667358 0x22 SLT KECCAK256 0xD4 DUP15 SAR ISZERO 0xB1 0xE4 0x4A JUMP SUB PUSH5 0xB9731C09B2 RETURN PUSH30 0x4ED447EACEE36E375440B6E3477AB164736F6C6343000704003300000000 "},"methodIdentifiers":{"_allowances(address,address)":"024c2ddd","addresses(bytes32)":"699f200f","balances(address,uint256)":"cbf1304d","bytesVars(bytes32)":"62dd1d2a","changeDeity(address)":"47abd7f1","changeOwner(address)":"a6f9dae1","changeTellorContract(address)":"ae0a8279","currentMiners(uint256)":"1fd22364","disputeIdByDisputeHash(bytes32)":"d01f4d9e","disputesById(uint256)":"db085beb","migrated(address)":"4ba0a5ee","minersByChallenge(bytes32,address)":"48b18e54","newValueTimestamps(uint256)":"438c0aa3","requestIdByQueryHash(bytes32)":"5700242c","uints(bytes32)":"b59e14d4"}}}}}