{"contracts/tellor360/oldContracts/contracts/tellor3/Extension.sol":{"Extension":{"abi":[{"anonymous":false,"inputs":[{"indexed":true,"internalType":"uint256","name":"_disputeID","type":"uint256"},{"indexed":false,"internalType":"int256","name":"_result","type":"int256"},{"indexed":true,"internalType":"address","name":"_reportedMiner","type":"address"},{"indexed":false,"internalType":"address","name":"_reportingParty","type":"address"},{"indexed":false,"internalType":"bool","name":"_passed","type":"bool"}],"name":"DisputeVoteTallied","type":"event"},{"anonymous":false,"inputs":[{"indexed":true,"internalType":"address","name":"_sender","type":"address"}],"name":"NewStake","type":"event"},{"anonymous":false,"inputs":[{"indexed":false,"internalType":"address","name":"_newTellor","type":"address"}],"name":"NewTellorAddress","type":"event"},{"anonymous":false,"inputs":[{"indexed":true,"internalType":"address","name":"_sender","type":"address"}],"name":"StakeWithdrawRequested","type":"event"},{"anonymous":false,"inputs":[{"indexed":true,"internalType":"address","name":"_sender","type":"address"}],"name":"StakeWithdrawn","type":"event"},{"inputs":[{"internalType":"address","name":"","type":"address"},{"internalType":"address","name":"","type":"address"}],"name":"_allowances","outputs":[{"internalType":"uint256","name":"","type":"uint256"}],"stateMutability":"view","type":"function"},{"inputs":[{"internalType":"bytes32","name":"","type":"bytes32"}],"name":"addresses","outputs":[{"internalType":"address","name":"","type":"address"}],"stateMutability":"view","type":"function"},{"inputs":[{"internalType":"address","name":"","type":"address"},{"internalType":"uint256","name":"","type":"uint256"}],"name":"balances","outputs":[{"internalType":"uint128","name":"fromBlock","type":"uint128"},{"internalType":"uint128","name":"value","type":"uint128"}],"stateMutability":"view","type":"function"},{"inputs":[{"internalType":"bytes32","name":"","type":"bytes32"}],"name":"bytesVars","outputs":[{"internalType":"bytes32","name":"","type":"bytes32"}],"stateMutability":"view","type":"function"},{"inputs":[{"internalType":"uint256","name":"","type":"uint256"}],"name":"currentMiners","outputs":[{"internalType":"uint256","name":"value","type":"uint256"},{"internalType":"address","name":"miner","type":"address"}],"stateMutability":"view","type":"function"},{"inputs":[],"name":"decimals","outputs":[{"internalType":"uint8","name":"","type":"uint8"}],"stateMutability":"pure","type":"function"},{"inputs":[],"name":"depositStake","outputs":[],"stateMutability":"nonpayable","type":"function"},{"inputs":[{"internalType":"bytes32","name":"_challenge","type":"bytes32"},{"internalType":"address","name":"_miner","type":"address"}],"name":"didMine","outputs":[{"internalType":"bool","name":"","type":"bool"}],"stateMutability":"view","type":"function"},{"inputs":[{"internalType":"uint256","name":"_disputeId","type":"uint256"},{"internalType":"address","name":"_address","type":"address"}],"name":"didVote","outputs":[{"internalType":"bool","name":"","type":"bool"}],"stateMutability":"view","type":"function"},{"inputs":[{"internalType":"bytes32","name":"","type":"bytes32"}],"name":"disputeIdByDisputeHash","outputs":[{"internalType":"uint256","name":"","type":"uint256"}],"stateMutability":"view","type":"function"},{"inputs":[{"internalType":"uint256","name":"","type":"uint256"}],"name":"disputesById","outputs":[{"internalType":"bytes32","name":"hash","type":"bytes32"},{"internalType":"int256","name":"tally","type":"int256"},{"internalType":"bool","name":"executed","type":"bool"},{"internalType":"bool","name":"disputeVotePassed","type":"bool"},{"internalType":"bool","name":"isPropFork","type":"bool"},{"internalType":"address","name":"reportedMiner","type":"address"},{"internalType":"address","name":"reportingParty","type":"address"},{"internalType":"address","name":"proposedForkAddress","type":"address"}],"stateMutability":"view","type":"function"},{"inputs":[{"internalType":"bytes32","name":"_data","type":"bytes32"}],"name":"getAddressVars","outputs":[{"internalType":"address","name":"","type":"address"}],"stateMutability":"view","type":"function"},{"inputs":[{"internalType":"uint256","name":"_disputeId","type":"uint256"}],"name":"getAllDisputeVars","outputs":[{"internalType":"bytes32","name":"","type":"bytes32"},{"internalType":"bool","name":"","type":"bool"},{"internalType":"bool","name":"","type":"bool"},{"internalType":"bool","name":"","type":"bool"},{"internalType":"address","name":"","type":"address"},{"internalType":"address","name":"","type":"address"},{"internalType":"address","name":"","type":"address"},{"internalType":"uint256[9]","name":"","type":"uint256[9]"},{"internalType":"int256","name":"","type":"int256"}],"stateMutability":"view","type":"function"},{"inputs":[{"internalType":"bytes32","name":"_hash","type":"bytes32"}],"name":"getDisputeIdByDisputeHash","outputs":[{"internalType":"uint256","name":"","type":"uint256"}],"stateMutability":"view","type":"function"},{"inputs":[{"internalType":"uint256","name":"_disputeId","type":"uint256"},{"internalType":"bytes32","name":"_data","type":"bytes32"}],"name":"getDisputeUintVars","outputs":[{"internalType":"uint256","name":"","type":"uint256"}],"stateMutability":"view","type":"function"},{"inputs":[{"internalType":"uint256","name":"_requestId","type":"uint256"}],"name":"getLastNewValueById","outputs":[{"internalType":"uint256","name":"","type":"uint256"},{"internalType":"bool","name":"","type":"bool"}],"stateMutability":"view","type":"function"},{"inputs":[{"internalType":"uint256","name":"_requestId","type":"uint256"},{"internalType":"uint256","name":"_timestamp","type":"uint256"}],"name":"getMinedBlockNum","outputs":[{"internalType":"uint256","name":"","type":"uint256"}],"stateMutability":"view","type":"function"},{"inputs":[{"internalType":"uint256","name":"_requestId","type":"uint256"},{"internalType":"uint256","name":"_timestamp","type":"uint256"}],"name":"getMinersByRequestIdAndTimestamp","outputs":[{"internalType":"address[5]","name":"","type":"address[5]"}],"stateMutability":"view","type":"function"},{"inputs":[],"name":"getNewCurrentVariables","outputs":[{"internalType":"bytes32","name":"_challenge","type":"bytes32"},{"internalType":"uint256[5]","name":"_requestIds","type":"uint256[5]"},{"internalType":"uint256","name":"_diff","type":"uint256"},{"internalType":"uint256","name":"_tip","type":"uint256"}],"stateMutability":"view","type":"function"},{"inputs":[{"internalType":"uint256","name":"_requestId","type":"uint256"}],"name":"getNewValueCountbyRequestId","outputs":[{"internalType":"uint256","name":"","type":"uint256"}],"stateMutability":"view","type":"function"},{"inputs":[],"name":"getNewVariablesOnDeck","outputs":[{"internalType":"uint256[5]","name":"idsOnDeck","type":"uint256[5]"},{"internalType":"uint256[5]","name":"tipsOnDeck","type":"uint256[5]"}],"stateMutability":"view","type":"function"},{"inputs":[{"internalType":"uint256","name":"_index","type":"uint256"}],"name":"getRequestIdByRequestQIndex","outputs":[{"internalType":"uint256","name":"","type":"uint256"}],"stateMutability":"view","type":"function"},{"inputs":[],"name":"getRequestQ","outputs":[{"internalType":"uint256[51]","name":"","type":"uint256[51]"}],"stateMutability":"view","type":"function"},{"inputs":[{"internalType":"uint256","name":"_requestId","type":"uint256"},{"internalType":"bytes32","name":"_data","type":"bytes32"}],"name":"getRequestUintVars","outputs":[{"internalType":"uint256","name":"","type":"uint256"}],"stateMutability":"view","type":"function"},{"inputs":[{"internalType":"uint256","name":"_requestId","type":"uint256"}],"name":"getRequestVars","outputs":[{"internalType":"uint256","name":"","type":"uint256"},{"internalType":"uint256","name":"","type":"uint256"}],"stateMutability":"view","type":"function"},{"inputs":[{"internalType":"address","name":"_staker","type":"address"}],"name":"getStakerInfo","outputs":[{"internalType":"uint256","name":"","type":"uint256"},{"internalType":"uint256","name":"","type":"uint256"}],"stateMutability":"view","type":"function"},{"inputs":[{"internalType":"uint256","name":"_requestId","type":"uint256"},{"internalType":"uint256","name":"_timestamp","type":"uint256"}],"name":"getSubmissionsByTimestamp","outputs":[{"internalType":"uint256[5]","name":"","type":"uint256[5]"}],"stateMutability":"view","type":"function"},{"inputs":[{"internalType":"uint256","name":"_requestID","type":"uint256"},{"internalType":"uint256","name":"_index","type":"uint256"}],"name":"getTimestampbyRequestIDandIndex","outputs":[{"internalType":"uint256","name":"","type":"uint256"}],"stateMutability":"view","type":"function"},{"inputs":[],"name":"getTopRequestIDs","outputs":[{"internalType":"uint256[5]","name":"_requestIds","type":"uint256[5]"}],"stateMutability":"view","type":"function"},{"inputs":[{"internalType":"bytes32","name":"_data","type":"bytes32"}],"name":"getUintVar","outputs":[{"internalType":"uint256","name":"","type":"uint256"}],"stateMutability":"view","type":"function"},{"inputs":[{"internalType":"uint256","name":"_requestId","type":"uint256"},{"internalType":"uint256","name":"_timestamp","type":"uint256"}],"name":"isInDispute","outputs":[{"internalType":"bool","name":"","type":"bool"}],"stateMutability":"view","type":"function"},{"inputs":[{"internalType":"address","name":"","type":"address"}],"name":"migrated","outputs":[{"internalType":"bool","name":"","type":"bool"}],"stateMutability":"view","type":"function"},{"inputs":[{"internalType":"bytes32","name":"","type":"bytes32"},{"internalType":"address","name":"","type":"address"}],"name":"minersByChallenge","outputs":[{"internalType":"bool","name":"","type":"bool"}],"stateMutability":"view","type":"function"},{"inputs":[],"name":"name","outputs":[{"internalType":"string","name":"","type":"string"}],"stateMutability":"pure","type":"function"},{"inputs":[{"internalType":"uint256","name":"","type":"uint256"}],"name":"newValueTimestamps","outputs":[{"internalType":"uint256","name":"","type":"uint256"}],"stateMutability":"view","type":"function"},{"inputs":[{"internalType":"bytes32","name":"","type":"bytes32"}],"name":"requestIdByQueryHash","outputs":[{"internalType":"uint256","name":"","type":"uint256"}],"stateMutability":"view","type":"function"},{"inputs":[],"name":"requestStakingWithdraw","outputs":[],"stateMutability":"nonpayable","type":"function"},{"inputs":[{"internalType":"uint256","name":"_requestId","type":"uint256"},{"internalType":"uint256","name":"_timestamp","type":"uint256"}],"name":"retrieveData","outputs":[{"internalType":"uint256","name":"","type":"uint256"}],"stateMutability":"view","type":"function"},{"inputs":[],"name":"symbol","outputs":[{"internalType":"string","name":"","type":"string"}],"stateMutability":"pure","type":"function"},{"inputs":[{"internalType":"uint256","name":"_disputeId","type":"uint256"}],"name":"tallyVotes","outputs":[],"stateMutability":"nonpayable","type":"function"},{"inputs":[],"name":"totalSupply","outputs":[{"internalType":"uint256","name":"","type":"uint256"}],"stateMutability":"view","type":"function"},{"inputs":[{"internalType":"bytes32","name":"","type":"bytes32"}],"name":"uints","outputs":[{"internalType":"uint256","name":"","type":"uint256"}],"stateMutability":"view","type":"function"},{"inputs":[],"name":"updateMinDisputeFee","outputs":[],"stateMutability":"nonpayable","type":"function"},{"inputs":[{"internalType":"uint256","name":"_disputeId","type":"uint256"}],"name":"updateTellor","outputs":[],"stateMutability":"nonpayable","type":"function"},{"inputs":[],"name":"withdrawStake","outputs":[],"stateMutability":"nonpayable","type":"function"}],"evm":{"bytecode":{"linkReferences":{},"object":"608060405234801561001057600080fd5b50612332806100206000396000f3fe608060405234801561001057600080fd5b50600436106102cf5760003560e01c806369026d631161018c578063b5413029116100ee578063da37994111610097578063e1eee6d611610071578063e1eee6d614610a72578063f458ab9814610a8f578063fe1cd15d14610aac576102cf565b8063da379941146109c5578063db085beb146109e2578063e0ae93c114610a4f576102cf565b8063c775b542116100c8578063c775b5421461092a578063cbf1304d1461094d578063d01f4d9e146109a8576102cf565b8063b5413029146108e7578063b59e14d414610905578063bed9d86114610922576102cf565b806390e5b235116101505780639a7077ab1161012a5780639a7077ab1461079e578063a7c438bc1461080a578063af0b132714610836576102cf565b806390e5b2351461076b57806393fa49151461077357806395d89b4114610796576102cf565b806369026d63146106a6578063699f200f146106c9578063733bdef0146106e657806377fbb663146107255780637f6fd5d914610748576102cf565b80634049f198116102355780634d318b0e116101f95780636173c0b8116101d35780636173c0b81461064057806362dd1d2a1461065d57806363bb82ad1461067a576102cf565b80634d318b0e146105e95780635700242c14610606578063612c8f7f14610623576102cf565b80634049f19814610508578063438c0aa31461055d57806346eee1c41461057a57806348b18e54146105975780634ba0a5ee146105c3576102cf565b806318160ddd11610297578063313ce56711610271578063313ce5671461047d5780633180f8df1461049b5780633df0777b146104d1576102cf565b806318160ddd1461042f5780631fd223641461043757806328449c3a14610475576102cf565b8063024c2ddd146102d457806306fdde03146103145780630d2d76a21461039157806311c985121461039b578063133bee5e146103f6575b600080fd5b610302600480360360408110156102ea57600080fd5b506001600160a01b0381358116916020013516610ab4565b60408051918252519081900360200190f35b61031c610ad1565b6040805160208082528351818301528351919283929083019185019080838360005b8381101561035657818101518382015260200161033e565b50505050905090810190601f1680156103835780820380516001836020036101000a031916815260200191505b509250505060405180910390f35b610399610afa565b005b6103be600480360360408110156103b157600080fd5b5080359060200135610b0d565b604051808260a080838360005b838110156103e35781810151838201526020016103cb565b5050505090500191505060405180910390f35b6104136004803603602081101561040c57600080fd5b5035610b64565b604080516001600160a01b039092168252519081900360200190f35b610302610b7f565b6104546004803603602081101561044d57600080fd5b5035610bcd565b604080519283526001600160a01b0390911660208301528051918290030190f35b610399610bf8565b610485610cec565b6040805160ff9092168252519081900360200190f35b6104b8600480360360208110156104b157600080fd5b5035610cf1565b6040805192835290151560208301528051918290030190f35b6104f4600480360360408110156104e757600080fd5b5080359060200135610d4b565b604080519115158252519081900360200190f35b610510610d6f565b604051848152602081018460a080838360005b8381101561053b578181015183820152602001610523565b5050505090500183815260200182815260200194505050505060405180910390f35b6103026004803603602081101561057357600080fd5b5035610e4f565b6103026004803603602081101561059057600080fd5b5035610e70565b6104f4600480360360408110156105ad57600080fd5b50803590602001356001600160a01b0316610e82565b6104f4600480360360208110156105d957600080fd5b50356001600160a01b0316610ea2565b610399600480360360208110156105ff57600080fd5b5035610eb7565b6103026004803603602081101561061c57600080fd5b5035611173565b6103026004803603602081101561063957600080fd5b5035611185565b6103026004803603602081101561065657600080fd5b5035611197565b6103026004803603602081101561067357600080fd5b5035611202565b6104f46004803603604081101561069057600080fd5b50803590602001356001600160a01b0316611214565b6103be600480360360408110156106bc57600080fd5b508035906020013561123f565b610413600480360360208110156106df57600080fd5b50356112a2565b61070c600480360360208110156106fc57600080fd5b50356001600160a01b03166112bd565b6040805192835260208301919091528051918290030190f35b6103026004803603604081101561073b57600080fd5b50803590602001356112e0565b6103026004803603604081101561075e57600080fd5b508035906020013561130d565b61039961132e565b6103026004803603604081101561078957600080fd5b5080359060200135611448565b61031c611469565b6107a6611486565b604051808360a080838360005b838110156107cb5781810151838201526020016107b3565b5050505090500182600560200280838360005b838110156107f65781810151838201526020016107de565b505050509050019250505060405180910390f35b6104f46004803603604081101561082057600080fd5b50803590602001356001600160a01b0316611525565b6108536004803603602081101561084c57600080fd5b5035611554565b604051808a8152602001891515815260200188151581526020018715158152602001866001600160a01b03168152602001856001600160a01b03168152602001846001600160a01b0316815260200183600960200280838360005b838110156108c65781810151838201526020016108ae565b50505050905001828152602001995050505050505050505060405180910390f35b6108ef61177f565b60405181518152808261066080838360206103cb565b6103026004803603602081101561091b57600080fd5b50356117bb565b6103996117cd565b6103026004803603604081101561094057600080fd5b50803590602001356118a7565b6109796004803603604081101561096357600080fd5b506001600160a01b0381351690602001356118c8565b60405180836001600160801b03168152602001826001600160801b031681526020019250505060405180910390f35b610302600480360360208110156109be57600080fd5b503561190b565b610302600480360360208110156109db57600080fd5b503561191d565b6109ff600480360360208110156109f857600080fd5b503561192f565b60408051988952602089019790975294151587870152921515606087015290151560808601526001600160a01b0390811660a086015290811660c08501521660e083015251908190036101000190f35b61030260048036036040811015610a6557600080fd5b508035906020013561198b565b61070c60048036036020811015610a8857600080fd5b50356119ac565b61039960048036036020811015610aa557600080fd5b5035611a14565b6103be611dc5565b604a60209081526000928352604080842090915290825290205481565b60408051808201909152600f81526e54656c6c6f7220547269627574657360881b602082015290565b610b0333611eaa565b610b0b61132e565b565b610b156121e5565b600083815260456020908152604080832085845260060190915290819020815160a08101928390529160059082845b815481526020019060010190808311610b44575050505050905092915050565b6000908152604760205260409020546001600160a01b031690565b7fe6148e7230ca038d456350e69a91b66968b222bfac9ebfbea6ff0a1fb738016060005260466020527ffffeead1ec15181fd57b4590d95e0c076bccb59e311315e8b38f23c710aa7c3e5490565b603a8160058110610bdd57600080fd5b6002020180546001909101549091506001600160a01b031682565b3360009081526044602052604090208054600114610c53576040805162461bcd60e51b8152602060048201526013602482015272135a5b995c881a5cc81b9bdd081cdd185ad959606a1b604482015290519081900360640190fd5b60028155620151804206420360018201557f10c168823622203e4057b65015ff4d95b4c650b308918e8c92dc32ab5a0a034b60005260466020527fa5ae3e2b97d73fb849ea855d27f073b72815b38452d976bd57e4a157827dadd38054600019019055610cbe61132e565b60405133907f453865710d0cb4b14ad25de371c860da196368895daa9662e5087711d14daecf90600090a250565b601290565b6000818152604560205260408120805482919015610d3d578054610d3190859083906000198101908110610d2157fe5b9060005260206000200154611448565b60019250925050610d46565b60008092509250505b915091565b60009182526045602090815260408084209284526004909201905290205460ff1690565b6000610d796121e5565b60008060005b6005811015610db357603a8160058110610d9557fe5b6002020154848260058110610da657fe5b6020020152600101610d7f565b50507f52cb9007c7c6068f8ef37039d4f232cbf5a28ff8d93a5983c4c0c27cd2f9bc0d5460466020527f5bccd7373734898281f858d7562320d2cdfc0b17bd72f779686937174d150025547f09659d32f99e50ac728058418d38174fe83a137c455ff1847e6fb8e15f78f77a6000527f38b16d06a20ab673b01c748aff938df6a38f81640035f4ce8bd9abb03aae5b7254919450915090919293565b60338181548110610e5f57600080fd5b600091825260209091200154905081565b60009081526045602052604090205490565b603960209081526000928352604080842090915290825290205460ff1681565b604b6020526000908152604090205460ff1681565b6000818152603660205260409020600281015460ff1615610f095760405162461bcd60e51b81526004018080602001828103825260218152602001806122a96021913960400191505060405180910390fd5b7f46f7d53798d31923f6952572c6a19ad2d1a8238d26649c2f3493a6d69e425d286000908152600582016020526040902054421015610f8f576040805162461bcd60e51b815260206004820152601f60248201527f54696d6520666f7220766f74696e6720686176656e277420656c617073656400604482015290519081900360640190fd5b60038101546001600160a01b0316610fee576040805162461bcd60e51b815260206004820152601c60248201527f7265706f7274696e672050617274792069732061646472657373203000000000604482015290519081900360640190fd5b600181015460008113156110bf57600282015462010000900460ff166110555760028201805461ff00191661010017908190556001600160a01b03630100000090910416600090815260446020526040902080546003141561104f57600481555b506110bf565b7fe6148e7230ca038d456350e69a91b66968b222bfac9ebfbea6ff0a1fb738016060005260466020527ffffeead1ec15181fd57b4590d95e0c076bccb59e311315e8b38f23c710aa7c3e546064906005020481106110bf5760028201805461ff0019166101001790555b7ff9e1ae10923bfc79f52e309baf8c7699edb821f91ef5b5bd07be29545917b3a6600090815260058301602090815260409182902042905560028401805460ff191660011790819055600385015483518581526001600160a01b0391821693810193909352610100820460ff1615158385015292516301000000909104929092169185917f21459c2f5447ebcf83a7f0a238c32c71076faef0d12295e771c0cb1e10434739919081900360600190a3505050565b60376020526000908152604090205481565b60009081526046602052604090205490565b600060328211156111ef576040805162461bcd60e51b815260206004820152601a60248201527f526571756573745120696e6465782069732061626f7665203530000000000000604482015290519081900360640190fd5b5060009081526035602052604090205490565b60486020526000908152604090205481565b60009182526039602090815260408084206001600160a01b0393909316845291905290205460ff1690565b6112476121e5565b6000838152604560209081526040808320858452600590810190925291829020825160a08101938490529290919082845b81546001600160a01b03168152600190910190602001808311611278575050505050905092915050565b6047602052600090815260409020546001600160a01b031681565b6001600160a01b0316600090815260446020526040902080546001909101549091565b60008281526045602052604081208054839081106112fa57fe5b9060005260206000200154905092915050565b60009182526036602090815260408084209284526005909201905290205490565b60466020527f167af83a0768d27540775cfef6d996eb63f8a61fcdfb26e654c18fb50960e3be547f2e2f0a18eb55ef91e37921b3810d7feeef7a855ddc7f4f4249ef03d7b887ae31547f10c168823622203e4057b65015ff4d95b4c650b308918e8c92dc32ab5a0a034b6000527fa5ae3e2b97d73fb849ea855d27f073b72815b38452d976bd57e4a157827dadd3546113f99067d02ab486cedc0000906103e89084906113dc90829061206a565b6103e8028602816113e957fe5b04816113f157fe5b048403612082565b7f675d2171f68d6f5545d54fb9b1fb61a0e6897e6188ca1cd664e7c9530d91ecfc60005260466020527f3e5522f19747f0f285b96ded572ac4128c3a764aea9f44058dc0afc9dda44986555050565b60009182526045602090815260408084209284526003909201905290205490565b6040805180820190915260038152622a292160e91b602082015290565b61148e6121e5565b6114966121e5565b61149e611dc5565b915060005b600581101561152057604560008483600581106114bc57fe5b6020020151815260200190815260200160002060010160007f1590276b7f31dd8e2a06f9a92867333eeb3eddbc91e73b9833e3e55d8e34f77d60001b81526020019081526020016000205482826005811061151357fe5b60200201526001016114a3565b509091565b60008281526036602090815260408083206001600160a01b038516845260060190915290205460ff1692915050565b6000806000806000806000611567612203565b5050506000958652505060366020908152604080862080546002820154600383015460048401548551610120810187527f9f47a2659c3d32b749ae717d975e7962959890862423c4318cf86e4ec220291f8c5260058601808952878d205482527f2f9328a9c75282bec25bb04befad06926366736e0030c985108445fa728335e58d52808952878d2054828a01527f9147231ab14efb72c38117f68521ddef8de64f092c18c69dbfb602ffc4de7f478d52808952878d2054828901527f46f7d53798d31923f6952572c6a19ad2d1a8238d26649c2f3493a6d69e425d288d52808952878d205460608301527f1da378694063870452ce03b189f48e04c1aa026348e74e6c86e10738514ad2c48d52808952878d205460808301527f4b4cefd5ced7569ef0d091282b4bca9c52a034c56471a6061afd1bf307a2de7c8d52808952878d205460a08301527f6de96ee4d33a0617f40a846309c8759048857f51b9d59a12d3c3786d4778883d8d52808952878d205460c08301527f30e85ae205656781c1a951cba9f9f53f884833c049d377a2a7046eb5e6d14b268d52808952878d205460e08301527f1da95f11543c9b03927178e07951795dfc95c7501a9d1cf00e13414ca33bc4098d52909752949099205461010080870191909152600190930154919960ff8083169a948304811699506201000083041697506001600160a01b036301000000909204821696509281169493169291565b611787612222565b604080516106608101918290529060009060339082845b81548152602001906001019080831161179e575050505050905090565b60466020526000908152604090205481565b336000908152604460205260409020600181015462093a80906201518042064203031015611837576040805162461bcd60e51b8152602060048201526012602482015271372064617973206469646e2774207061737360701b604482015290519081900360640190fd5b80546002146118775760405162461bcd60e51b81526004018080602001828103825260238152602001806122426023913960400191505060405180910390fd5b600080825560405133917f4a7934670bd8304e7da22378be1368f7c4fef17c5aee81804beda8638fe428ec91a250565b60009182526045602090815260408084209284526002909201905290205490565b604960205281600052604060002081815481106118e457600080fd5b6000918252602090912001546001600160801b038082169350600160801b90910416905082565b60386020526000908152604090205481565b60009081526038602052604090205490565b603660205260009081526040902080546001820154600283015460038401546004909401549293919260ff808316936101008404821693620100008104909216926001600160a01b036301000000909304831692918216911688565b60009182526045602090815260408084209284526001909201905290205490565b60009081526045602090815260408083207ff68d680ab3160f1aa5d9c3a1383c49e3e60bf3c0c031245cbb036f5ce99afaa18452600101909152808220547f1590276b7f31dd8e2a06f9a92867333eeb3eddbc91e73b9833e3e55d8e34f77d83529120549091565b60008181526036602081815260408084205480855260388352818520548086528484528286207f6ab2b18aafe78fd59c6a4092015bddd9fcacb8170f72b299074f74d76a91a92387526005018085528387205484518087019190915284518082038701815290850185528051908601208752845282862054808752949093529320600281015491929162010000900460ff16611af7576040805162461bcd60e51b815260206004820152601760248201527f6d757374206265206120666f726b2070726f706f73616c000000000000000000604482015290519081900360640190fd5b7fda571dfc0b95cdc4a3835f5982cfdf36f73258bee7cb8eb797b4af8b17329875600090815260058201602052604090205415611b655760405162461bcd60e51b81526004018080602001828103825260228152602001806122876022913960400191505060405180910390fd5b600281015460ff610100909104161515600114611bbe576040805162461bcd60e51b8152602060048201526012602482015271766f7465206e6565647320746f207061737360701b604482015290519081900360640190fd5b7ff9e1ae10923bfc79f52e309baf8c7699edb821f91ef5b5bd07be29545917b3a66000908152600582016020526040902054611c41576040805162461bcd60e51b815260206004820152601860248201527f766f7465206e6565647320746f2062652074616c6c6965640000000000000000604482015290519081900360640190fd5b7ff9e1ae10923bfc79f52e309baf8c7699edb821f91ef5b5bd07be29545917b3a6600090815260058201602052604090205462015180429190910311611cb85760405162461bcd60e51b81526004018080602001828103825260338152602001806122ca6033913960400191505060405180910390fd5b7fda571dfc0b95cdc4a3835f5982cfdf36f73258bee7cb8eb797b4af8b17329875600090815260058201602090815260408083206001905560048401547f0f1293c916694ac6af4daa2f866f0448d0c2ce8847074a7896d397c961914a08909352604782527ffe10c9a395cce5a324df121072934b83aa2f3aa5f594428b2a75cf926b73fae8805473ffffffffffffffffffffffffffffffffffffffff19166001600160a01b0390941693841790557f7050c9e0f4ca769c69bd3a8ef740bc37934f8e2c036e5a723fd8ee048ed3f8c3839055805183815290517fc2d1449eb0b6547aa426e09d9942a77fa4fc8cd3296305b3163e22452e0bcb8d929181900390910190a1505050505050565b611dcd6121e5565b611dd56121e5565b611ddd6121e5565b60408051610660810191829052611e149160009060339082845b815481526020019060010190808311611df7575050505050612091565b909250905060005b6005811015611ea457828160058110611e3157fe5b602002015115611e755760356000838360058110611e4b57fe5b6020020151815260200190815260200160002054848260058110611e6b57fe5b6020020152611e9c565b603a8160040360058110611e8557fe5b6002020154848260058110611e9657fe5b60200201525b600101611e1c565b50505090565b7f167af83a0768d27540775cfef6d996eb63f8a61fcdfb26e654c18fb50960e3be546001600160a01b038216600090815260496020526040902080546000198101908110611ef457fe5b600091825260209091200154600160801b90046001600160801b03161015611f4d5760405162461bcd60e51b81526004018080602001828103825260228152602001806122656022913960400191505060405180910390fd5b6001600160a01b0381166000908152604460205260409020541580611f8a57506001600160a01b0381166000908152604460205260409020546002145b611fdb576040805162461bcd60e51b815260206004820152601b60248201527f4d696e657220697320696e207468652077726f6e672073746174650000000000604482015290519081900360640190fd5b7fa5ae3e2b97d73fb849ea855d27f073b72815b38452d976bd57e4a157827dadd3805460019081019091556040805180820182528281524260208281019182526001600160a01b038616600081815260449092528482209351845591519290940191909155905190917f46d8ab1385f70e5a3673e97c23c764f7600f7ed7a09b6687deae7131d51752e291a250565b6000818310612079578161207b565b825b9392505050565b6000818311612079578161207b565b6120996121e5565b6120a16121e5565b60208301516000805b6005811015612124578581600101603381106120c257fe5b60200201518582600581106120d357fe5b6020020152600181018482600581106120e857fe5b6020020152828582600581106120fa57fe5b6020020151101561211c5784816005811061211157fe5b602002015192508091505b6001016120aa565b5060065b60338110156121dd578286826033811061213e57fe5b602002015111156121d55785816033811061215557fe5b602002015185836005811061216657fe5b60200201528084836005811061217857fe5b602002015285816033811061218957fe5b6020020151925060005b60058110156121d357838682600581106121a957fe5b602002015110156121cb578581600581106121c057fe5b602002015193508092505b600101612193565b505b600101612128565b505050915091565b6040518060a001604052806005906020820280368337509192915050565b6040518061012001604052806009906020820280368337509192915050565b604051806106600160405280603390602082028036833750919291505056fe4d696e657220776173206e6f74206c6f636b656420666f72207769746864726177616c42616c616e6365206973206c6f776572207468616e207374616b6520616d6f756e747570646174652054656c6c6f722068617320616c7265616479206265656e2072756e4469737075746520686173206265656e20616c726561647920657865637574656454696d6520666f7220766f74696e6720666f72206675727468657220646973707574657320686173206e6f7420706173736564a2646970667358221220168444586f73bb65c547d309d51446212b9281a95c2cfcf7fe32472f57c9a98c64736f6c63430007040033","opcodes":"PUSH1 0x80 PUSH1 0x40 MSTORE CALLVALUE DUP1 ISZERO PUSH2 0x10 JUMPI PUSH1 0x0 DUP1 REVERT JUMPDEST POP PUSH2 0x2332 DUP1 PUSH2 0x20 PUSH1 0x0 CODECOPY PUSH1 0x0 RETURN INVALID PUSH1 0x80 PUSH1 0x40 MSTORE CALLVALUE DUP1 ISZERO PUSH2 0x10 JUMPI PUSH1 0x0 DUP1 REVERT JUMPDEST POP PUSH1 0x4 CALLDATASIZE LT PUSH2 0x2CF JUMPI PUSH1 0x0 CALLDATALOAD PUSH1 0xE0 SHR DUP1 PUSH4 0x69026D63 GT PUSH2 0x18C JUMPI DUP1 PUSH4 0xB5413029 GT PUSH2 0xEE JUMPI DUP1 PUSH4 0xDA379941 GT PUSH2 0x97 JUMPI DUP1 PUSH4 0xE1EEE6D6 GT PUSH2 0x71 JUMPI DUP1 PUSH4 0xE1EEE6D6 EQ PUSH2 0xA72 JUMPI DUP1 PUSH4 0xF458AB98 EQ PUSH2 0xA8F JUMPI DUP1 PUSH4 0xFE1CD15D EQ PUSH2 0xAAC JUMPI PUSH2 0x2CF JUMP JUMPDEST DUP1 PUSH4 0xDA379941 EQ PUSH2 0x9C5 JUMPI DUP1 PUSH4 0xDB085BEB EQ PUSH2 0x9E2 JUMPI DUP1 PUSH4 0xE0AE93C1 EQ PUSH2 0xA4F JUMPI PUSH2 0x2CF JUMP JUMPDEST DUP1 PUSH4 0xC775B542 GT PUSH2 0xC8 JUMPI DUP1 PUSH4 0xC775B542 EQ PUSH2 0x92A JUMPI DUP1 PUSH4 0xCBF1304D EQ PUSH2 0x94D JUMPI DUP1 PUSH4 0xD01F4D9E EQ PUSH2 0x9A8 JUMPI PUSH2 0x2CF JUMP JUMPDEST DUP1 PUSH4 0xB5413029 EQ PUSH2 0x8E7 JUMPI DUP1 PUSH4 0xB59E14D4 EQ PUSH2 0x905 JUMPI DUP1 PUSH4 0xBED9D861 EQ PUSH2 0x922 JUMPI PUSH2 0x2CF JUMP JUMPDEST DUP1 PUSH4 0x90E5B235 GT PUSH2 0x150 JUMPI DUP1 PUSH4 0x9A7077AB GT PUSH2 0x12A JUMPI DUP1 PUSH4 0x9A7077AB EQ PUSH2 0x79E JUMPI DUP1 PUSH4 0xA7C438BC EQ PUSH2 0x80A JUMPI DUP1 PUSH4 0xAF0B1327 EQ PUSH2 0x836 JUMPI PUSH2 0x2CF JUMP JUMPDEST DUP1 PUSH4 0x90E5B235 EQ PUSH2 0x76B JUMPI DUP1 PUSH4 0x93FA4915 EQ PUSH2 0x773 JUMPI DUP1 PUSH4 0x95D89B41 EQ PUSH2 0x796 JUMPI PUSH2 0x2CF JUMP JUMPDEST DUP1 PUSH4 0x69026D63 EQ PUSH2 0x6A6 JUMPI DUP1 PUSH4 0x699F200F EQ PUSH2 0x6C9 JUMPI DUP1 PUSH4 0x733BDEF0 EQ PUSH2 0x6E6 JUMPI DUP1 PUSH4 0x77FBB663 EQ PUSH2 0x725 JUMPI DUP1 PUSH4 0x7F6FD5D9 EQ PUSH2 0x748 JUMPI PUSH2 0x2CF JUMP JUMPDEST DUP1 PUSH4 0x4049F198 GT PUSH2 0x235 JUMPI DUP1 PUSH4 0x4D318B0E GT PUSH2 0x1F9 JUMPI DUP1 PUSH4 0x6173C0B8 GT PUSH2 0x1D3 JUMPI DUP1 PUSH4 0x6173C0B8 EQ PUSH2 0x640 JUMPI DUP1 PUSH4 0x62DD1D2A EQ PUSH2 0x65D JUMPI DUP1 PUSH4 0x63BB82AD EQ PUSH2 0x67A JUMPI PUSH2 0x2CF JUMP JUMPDEST DUP1 PUSH4 0x4D318B0E EQ PUSH2 0x5E9 JUMPI DUP1 PUSH4 0x5700242C EQ PUSH2 0x606 JUMPI DUP1 PUSH4 0x612C8F7F EQ PUSH2 0x623 JUMPI PUSH2 0x2CF JUMP JUMPDEST DUP1 PUSH4 0x4049F198 EQ PUSH2 0x508 JUMPI DUP1 PUSH4 0x438C0AA3 EQ PUSH2 0x55D JUMPI DUP1 PUSH4 0x46EEE1C4 EQ PUSH2 0x57A JUMPI DUP1 PUSH4 0x48B18E54 EQ PUSH2 0x597 JUMPI DUP1 PUSH4 0x4BA0A5EE EQ PUSH2 0x5C3 JUMPI PUSH2 0x2CF JUMP JUMPDEST DUP1 PUSH4 0x18160DDD GT PUSH2 0x297 JUMPI DUP1 PUSH4 0x313CE567 GT PUSH2 0x271 JUMPI DUP1 PUSH4 0x313CE567 EQ PUSH2 0x47D JUMPI DUP1 PUSH4 0x3180F8DF EQ PUSH2 0x49B JUMPI DUP1 PUSH4 0x3DF0777B EQ PUSH2 0x4D1 JUMPI PUSH2 0x2CF JUMP JUMPDEST DUP1 PUSH4 0x18160DDD EQ PUSH2 0x42F JUMPI DUP1 PUSH4 0x1FD22364 EQ PUSH2 0x437 JUMPI DUP1 PUSH4 0x28449C3A EQ PUSH2 0x475 JUMPI PUSH2 0x2CF JUMP JUMPDEST DUP1 PUSH4 0x24C2DDD EQ PUSH2 0x2D4 JUMPI DUP1 PUSH4 0x6FDDE03 EQ PUSH2 0x314 JUMPI DUP1 PUSH4 0xD2D76A2 EQ PUSH2 0x391 JUMPI DUP1 PUSH4 0x11C98512 EQ PUSH2 0x39B JUMPI DUP1 PUSH4 0x133BEE5E EQ PUSH2 0x3F6 JUMPI JUMPDEST PUSH1 0x0 DUP1 REVERT JUMPDEST PUSH2 0x302 PUSH1 0x4 DUP1 CALLDATASIZE SUB PUSH1 0x40 DUP2 LT ISZERO PUSH2 0x2EA JUMPI PUSH1 0x0 DUP1 REVERT JUMPDEST POP PUSH1 0x1 PUSH1 0x1 PUSH1 0xA0 SHL SUB DUP2 CALLDATALOAD DUP2 AND SWAP2 PUSH1 0x20 ADD CALLDATALOAD AND PUSH2 0xAB4 JUMP JUMPDEST PUSH1 0x40 DUP1 MLOAD SWAP2 DUP3 MSTORE MLOAD SWAP1 DUP2 SWAP1 SUB PUSH1 0x20 ADD SWAP1 RETURN JUMPDEST PUSH2 0x31C PUSH2 0xAD1 JUMP JUMPDEST PUSH1 0x40 DUP1 MLOAD PUSH1 0x20 DUP1 DUP3 MSTORE DUP4 MLOAD DUP2 DUP4 ADD MSTORE DUP4 MLOAD SWAP2 SWAP3 DUP4 SWAP3 SWAP1 DUP4 ADD SWAP2 DUP6 ADD SWAP1 DUP1 DUP4 DUP4 PUSH1 0x0 JUMPDEST DUP4 DUP2 LT ISZERO PUSH2 0x356 JUMPI DUP2 DUP2 ADD MLOAD DUP4 DUP3 ADD MSTORE PUSH1 0x20 ADD PUSH2 0x33E JUMP JUMPDEST POP POP POP POP SWAP1 POP SWAP1 DUP2 ADD SWAP1 PUSH1 0x1F AND DUP1 ISZERO PUSH2 0x383 JUMPI DUP1 DUP3 SUB DUP1 MLOAD PUSH1 0x1 DUP4 PUSH1 0x20 SUB PUSH2 0x100 EXP SUB NOT AND DUP2 MSTORE PUSH1 0x20 ADD SWAP2 POP JUMPDEST POP SWAP3 POP POP POP PUSH1 0x40 MLOAD DUP1 SWAP2 SUB SWAP1 RETURN JUMPDEST PUSH2 0x399 PUSH2 0xAFA JUMP JUMPDEST STOP JUMPDEST PUSH2 0x3BE PUSH1 0x4 DUP1 CALLDATASIZE SUB PUSH1 0x40 DUP2 LT ISZERO PUSH2 0x3B1 JUMPI PUSH1 0x0 DUP1 REVERT JUMPDEST POP DUP1 CALLDATALOAD SWAP1 PUSH1 0x20 ADD CALLDATALOAD PUSH2 0xB0D JUMP JUMPDEST PUSH1 0x40 MLOAD DUP1 DUP3 PUSH1 0xA0 DUP1 DUP4 DUP4 PUSH1 0x0 JUMPDEST DUP4 DUP2 LT ISZERO PUSH2 0x3E3 JUMPI DUP2 DUP2 ADD MLOAD DUP4 DUP3 ADD MSTORE PUSH1 0x20 ADD PUSH2 0x3CB JUMP JUMPDEST POP POP POP POP SWAP1 POP ADD SWAP2 POP POP PUSH1 0x40 MLOAD DUP1 SWAP2 SUB SWAP1 RETURN JUMPDEST PUSH2 0x413 PUSH1 0x4 DUP1 CALLDATASIZE SUB PUSH1 0x20 DUP2 LT ISZERO PUSH2 0x40C JUMPI PUSH1 0x0 DUP1 REVERT JUMPDEST POP CALLDATALOAD PUSH2 0xB64 JUMP JUMPDEST PUSH1 0x40 DUP1 MLOAD PUSH1 0x1 PUSH1 0x1 PUSH1 0xA0 SHL SUB SWAP1 SWAP3 AND DUP3 MSTORE MLOAD SWAP1 DUP2 SWAP1 SUB PUSH1 0x20 ADD SWAP1 RETURN JUMPDEST PUSH2 0x302 PUSH2 0xB7F JUMP JUMPDEST PUSH2 0x454 PUSH1 0x4 DUP1 CALLDATASIZE SUB PUSH1 0x20 DUP2 LT ISZERO PUSH2 0x44D JUMPI PUSH1 0x0 DUP1 REVERT JUMPDEST POP CALLDATALOAD PUSH2 0xBCD JUMP JUMPDEST PUSH1 0x40 DUP1 MLOAD SWAP3 DUP4 MSTORE PUSH1 0x1 PUSH1 0x1 PUSH1 0xA0 SHL SUB SWAP1 SWAP2 AND PUSH1 0x20 DUP4 ADD MSTORE DUP1 MLOAD SWAP2 DUP3 SWAP1 SUB ADD SWAP1 RETURN JUMPDEST PUSH2 0x399 PUSH2 0xBF8 JUMP JUMPDEST PUSH2 0x485 PUSH2 0xCEC JUMP JUMPDEST PUSH1 0x40 DUP1 MLOAD PUSH1 0xFF SWAP1 SWAP3 AND DUP3 MSTORE MLOAD SWAP1 DUP2 SWAP1 SUB PUSH1 0x20 ADD SWAP1 RETURN JUMPDEST PUSH2 0x4B8 PUSH1 0x4 DUP1 CALLDATASIZE SUB PUSH1 0x20 DUP2 LT ISZERO PUSH2 0x4B1 JUMPI PUSH1 0x0 DUP1 REVERT JUMPDEST POP CALLDATALOAD PUSH2 0xCF1 JUMP JUMPDEST PUSH1 0x40 DUP1 MLOAD SWAP3 DUP4 MSTORE SWAP1 ISZERO ISZERO PUSH1 0x20 DUP4 ADD MSTORE DUP1 MLOAD SWAP2 DUP3 SWAP1 SUB ADD SWAP1 RETURN JUMPDEST PUSH2 0x4F4 PUSH1 0x4 DUP1 CALLDATASIZE SUB PUSH1 0x40 DUP2 LT ISZERO PUSH2 0x4E7 JUMPI PUSH1 0x0 DUP1 REVERT JUMPDEST POP DUP1 CALLDATALOAD SWAP1 PUSH1 0x20 ADD CALLDATALOAD PUSH2 0xD4B JUMP JUMPDEST PUSH1 0x40 DUP1 MLOAD SWAP2 ISZERO ISZERO DUP3 MSTORE MLOAD SWAP1 DUP2 SWAP1 SUB PUSH1 0x20 ADD SWAP1 RETURN JUMPDEST PUSH2 0x510 PUSH2 0xD6F JUMP JUMPDEST PUSH1 0x40 MLOAD DUP5 DUP2 MSTORE PUSH1 0x20 DUP2 ADD DUP5 PUSH1 0xA0 DUP1 DUP4 DUP4 PUSH1 0x0 JUMPDEST DUP4 DUP2 LT ISZERO PUSH2 0x53B JUMPI DUP2 DUP2 ADD MLOAD DUP4 DUP3 ADD MSTORE PUSH1 0x20 ADD PUSH2 0x523 JUMP JUMPDEST POP POP POP POP SWAP1 POP ADD DUP4 DUP2 MSTORE PUSH1 0x20 ADD DUP3 DUP2 MSTORE PUSH1 0x20 ADD SWAP5 POP POP POP POP POP PUSH1 0x40 MLOAD DUP1 SWAP2 SUB SWAP1 RETURN JUMPDEST PUSH2 0x302 PUSH1 0x4 DUP1 CALLDATASIZE SUB PUSH1 0x20 DUP2 LT ISZERO PUSH2 0x573 JUMPI PUSH1 0x0 DUP1 REVERT JUMPDEST POP CALLDATALOAD PUSH2 0xE4F JUMP JUMPDEST PUSH2 0x302 PUSH1 0x4 DUP1 CALLDATASIZE SUB PUSH1 0x20 DUP2 LT ISZERO PUSH2 0x590 JUMPI PUSH1 0x0 DUP1 REVERT JUMPDEST POP CALLDATALOAD PUSH2 0xE70 JUMP JUMPDEST PUSH2 0x4F4 PUSH1 0x4 DUP1 CALLDATASIZE SUB PUSH1 0x40 DUP2 LT ISZERO PUSH2 0x5AD JUMPI PUSH1 0x0 DUP1 REVERT JUMPDEST POP DUP1 CALLDATALOAD SWAP1 PUSH1 0x20 ADD CALLDATALOAD PUSH1 0x1 PUSH1 0x1 PUSH1 0xA0 SHL SUB AND PUSH2 0xE82 JUMP JUMPDEST PUSH2 0x4F4 PUSH1 0x4 DUP1 CALLDATASIZE SUB PUSH1 0x20 DUP2 LT ISZERO PUSH2 0x5D9 JUMPI PUSH1 0x0 DUP1 REVERT JUMPDEST POP CALLDATALOAD PUSH1 0x1 PUSH1 0x1 PUSH1 0xA0 SHL SUB AND PUSH2 0xEA2 JUMP JUMPDEST PUSH2 0x399 PUSH1 0x4 DUP1 CALLDATASIZE SUB PUSH1 0x20 DUP2 LT ISZERO PUSH2 0x5FF JUMPI PUSH1 0x0 DUP1 REVERT JUMPDEST POP CALLDATALOAD PUSH2 0xEB7 JUMP JUMPDEST PUSH2 0x302 PUSH1 0x4 DUP1 CALLDATASIZE SUB PUSH1 0x20 DUP2 LT ISZERO PUSH2 0x61C JUMPI PUSH1 0x0 DUP1 REVERT JUMPDEST POP CALLDATALOAD PUSH2 0x1173 JUMP JUMPDEST PUSH2 0x302 PUSH1 0x4 DUP1 CALLDATASIZE SUB PUSH1 0x20 DUP2 LT ISZERO PUSH2 0x639 JUMPI PUSH1 0x0 DUP1 REVERT JUMPDEST POP CALLDATALOAD PUSH2 0x1185 JUMP JUMPDEST PUSH2 0x302 PUSH1 0x4 DUP1 CALLDATASIZE SUB PUSH1 0x20 DUP2 LT ISZERO PUSH2 0x656 JUMPI PUSH1 0x0 DUP1 REVERT JUMPDEST POP CALLDATALOAD PUSH2 0x1197 JUMP JUMPDEST PUSH2 0x302 PUSH1 0x4 DUP1 CALLDATASIZE SUB PUSH1 0x20 DUP2 LT ISZERO PUSH2 0x673 JUMPI PUSH1 0x0 DUP1 REVERT JUMPDEST POP CALLDATALOAD PUSH2 0x1202 JUMP JUMPDEST PUSH2 0x4F4 PUSH1 0x4 DUP1 CALLDATASIZE SUB PUSH1 0x40 DUP2 LT ISZERO PUSH2 0x690 JUMPI PUSH1 0x0 DUP1 REVERT JUMPDEST POP DUP1 CALLDATALOAD SWAP1 PUSH1 0x20 ADD CALLDATALOAD PUSH1 0x1 PUSH1 0x1 PUSH1 0xA0 SHL SUB AND PUSH2 0x1214 JUMP JUMPDEST PUSH2 0x3BE PUSH1 0x4 DUP1 CALLDATASIZE SUB PUSH1 0x40 DUP2 LT ISZERO PUSH2 0x6BC JUMPI PUSH1 0x0 DUP1 REVERT JUMPDEST POP DUP1 CALLDATALOAD SWAP1 PUSH1 0x20 ADD CALLDATALOAD PUSH2 0x123F JUMP JUMPDEST PUSH2 0x413 PUSH1 0x4 DUP1 CALLDATASIZE SUB PUSH1 0x20 DUP2 LT ISZERO PUSH2 0x6DF JUMPI PUSH1 0x0 DUP1 REVERT JUMPDEST POP CALLDATALOAD PUSH2 0x12A2 JUMP JUMPDEST PUSH2 0x70C PUSH1 0x4 DUP1 CALLDATASIZE SUB PUSH1 0x20 DUP2 LT ISZERO PUSH2 0x6FC JUMPI PUSH1 0x0 DUP1 REVERT JUMPDEST POP CALLDATALOAD PUSH1 0x1 PUSH1 0x1 PUSH1 0xA0 SHL SUB AND PUSH2 0x12BD JUMP JUMPDEST PUSH1 0x40 DUP1 MLOAD SWAP3 DUP4 MSTORE PUSH1 0x20 DUP4 ADD SWAP2 SWAP1 SWAP2 MSTORE DUP1 MLOAD SWAP2 DUP3 SWAP1 SUB ADD SWAP1 RETURN JUMPDEST PUSH2 0x302 PUSH1 0x4 DUP1 CALLDATASIZE SUB PUSH1 0x40 DUP2 LT ISZERO PUSH2 0x73B JUMPI PUSH1 0x0 DUP1 REVERT JUMPDEST POP DUP1 CALLDATALOAD SWAP1 PUSH1 0x20 ADD CALLDATALOAD PUSH2 0x12E0 JUMP JUMPDEST PUSH2 0x302 PUSH1 0x4 DUP1 CALLDATASIZE SUB PUSH1 0x40 DUP2 LT ISZERO PUSH2 0x75E JUMPI PUSH1 0x0 DUP1 REVERT JUMPDEST POP DUP1 CALLDATALOAD SWAP1 PUSH1 0x20 ADD CALLDATALOAD PUSH2 0x130D JUMP JUMPDEST PUSH2 0x399 PUSH2 0x132E JUMP JUMPDEST PUSH2 0x302 PUSH1 0x4 DUP1 CALLDATASIZE SUB PUSH1 0x40 DUP2 LT ISZERO PUSH2 0x789 JUMPI PUSH1 0x0 DUP1 REVERT JUMPDEST POP DUP1 CALLDATALOAD SWAP1 PUSH1 0x20 ADD CALLDATALOAD PUSH2 0x1448 JUMP JUMPDEST PUSH2 0x31C PUSH2 0x1469 JUMP JUMPDEST PUSH2 0x7A6 PUSH2 0x1486 JUMP JUMPDEST PUSH1 0x40 MLOAD DUP1 DUP4 PUSH1 0xA0 DUP1 DUP4 DUP4 PUSH1 0x0 JUMPDEST DUP4 DUP2 LT ISZERO PUSH2 0x7CB JUMPI DUP2 DUP2 ADD MLOAD DUP4 DUP3 ADD MSTORE PUSH1 0x20 ADD PUSH2 0x7B3 JUMP JUMPDEST POP POP POP POP SWAP1 POP ADD DUP3 PUSH1 0x5 PUSH1 0x20 MUL DUP1 DUP4 DUP4 PUSH1 0x0 JUMPDEST DUP4 DUP2 LT ISZERO PUSH2 0x7F6 JUMPI DUP2 DUP2 ADD MLOAD DUP4 DUP3 ADD MSTORE PUSH1 0x20 ADD PUSH2 0x7DE JUMP JUMPDEST POP POP POP POP SWAP1 POP ADD SWAP3 POP POP POP PUSH1 0x40 MLOAD DUP1 SWAP2 SUB SWAP1 RETURN JUMPDEST PUSH2 0x4F4 PUSH1 0x4 DUP1 CALLDATASIZE SUB PUSH1 0x40 DUP2 LT ISZERO PUSH2 0x820 JUMPI PUSH1 0x0 DUP1 REVERT JUMPDEST POP DUP1 CALLDATALOAD SWAP1 PUSH1 0x20 ADD CALLDATALOAD PUSH1 0x1 PUSH1 0x1 PUSH1 0xA0 SHL SUB AND PUSH2 0x1525 JUMP JUMPDEST PUSH2 0x853 PUSH1 0x4 DUP1 CALLDATASIZE SUB PUSH1 0x20 DUP2 LT ISZERO PUSH2 0x84C JUMPI PUSH1 0x0 DUP1 REVERT JUMPDEST POP CALLDATALOAD PUSH2 0x1554 JUMP JUMPDEST PUSH1 0x40 MLOAD DUP1 DUP11 DUP2 MSTORE PUSH1 0x20 ADD DUP10 ISZERO ISZERO DUP2 MSTORE PUSH1 0x20 ADD DUP9 ISZERO ISZERO DUP2 MSTORE PUSH1 0x20 ADD DUP8 ISZERO ISZERO DUP2 MSTORE PUSH1 0x20 ADD DUP7 PUSH1 0x1 PUSH1 0x1 PUSH1 0xA0 SHL SUB AND DUP2 MSTORE PUSH1 0x20 ADD DUP6 PUSH1 0x1 PUSH1 0x1 PUSH1 0xA0 SHL SUB AND DUP2 MSTORE PUSH1 0x20 ADD DUP5 PUSH1 0x1 PUSH1 0x1 PUSH1 0xA0 SHL SUB AND DUP2 MSTORE PUSH1 0x20 ADD DUP4 PUSH1 0x9 PUSH1 0x20 MUL DUP1 DUP4 DUP4 PUSH1 0x0 JUMPDEST DUP4 DUP2 LT ISZERO PUSH2 0x8C6 JUMPI DUP2 DUP2 ADD MLOAD DUP4 DUP3 ADD MSTORE PUSH1 0x20 ADD PUSH2 0x8AE JUMP JUMPDEST POP POP POP POP SWAP1 POP ADD DUP3 DUP2 MSTORE PUSH1 0x20 ADD SWAP10 POP POP POP POP POP POP POP POP POP POP PUSH1 0x40 MLOAD DUP1 SWAP2 SUB SWAP1 RETURN JUMPDEST PUSH2 0x8EF PUSH2 0x177F JUMP JUMPDEST PUSH1 0x40 MLOAD DUP2 MLOAD DUP2 MSTORE DUP1 DUP3 PUSH2 0x660 DUP1 DUP4 DUP4 PUSH1 0x20 PUSH2 0x3CB JUMP JUMPDEST PUSH2 0x302 PUSH1 0x4 DUP1 CALLDATASIZE SUB PUSH1 0x20 DUP2 LT ISZERO PUSH2 0x91B JUMPI PUSH1 0x0 DUP1 REVERT JUMPDEST POP CALLDATALOAD PUSH2 0x17BB JUMP JUMPDEST PUSH2 0x399 PUSH2 0x17CD JUMP JUMPDEST PUSH2 0x302 PUSH1 0x4 DUP1 CALLDATASIZE SUB PUSH1 0x40 DUP2 LT ISZERO PUSH2 0x940 JUMPI PUSH1 0x0 DUP1 REVERT JUMPDEST POP DUP1 CALLDATALOAD SWAP1 PUSH1 0x20 ADD CALLDATALOAD PUSH2 0x18A7 JUMP JUMPDEST PUSH2 0x979 PUSH1 0x4 DUP1 CALLDATASIZE SUB PUSH1 0x40 DUP2 LT ISZERO PUSH2 0x963 JUMPI PUSH1 0x0 DUP1 REVERT JUMPDEST POP PUSH1 0x1 PUSH1 0x1 PUSH1 0xA0 SHL SUB DUP2 CALLDATALOAD AND SWAP1 PUSH1 0x20 ADD CALLDATALOAD PUSH2 0x18C8 JUMP JUMPDEST PUSH1 0x40 MLOAD DUP1 DUP4 PUSH1 0x1 PUSH1 0x1 PUSH1 0x80 SHL SUB AND DUP2 MSTORE PUSH1 0x20 ADD DUP3 PUSH1 0x1 PUSH1 0x1 PUSH1 0x80 SHL SUB AND DUP2 MSTORE PUSH1 0x20 ADD SWAP3 POP POP POP PUSH1 0x40 MLOAD DUP1 SWAP2 SUB SWAP1 RETURN JUMPDEST PUSH2 0x302 PUSH1 0x4 DUP1 CALLDATASIZE SUB PUSH1 0x20 DUP2 LT ISZERO PUSH2 0x9BE JUMPI PUSH1 0x0 DUP1 REVERT JUMPDEST POP CALLDATALOAD PUSH2 0x190B JUMP JUMPDEST PUSH2 0x302 PUSH1 0x4 DUP1 CALLDATASIZE SUB PUSH1 0x20 DUP2 LT ISZERO PUSH2 0x9DB JUMPI PUSH1 0x0 DUP1 REVERT JUMPDEST POP CALLDATALOAD PUSH2 0x191D JUMP JUMPDEST PUSH2 0x9FF PUSH1 0x4 DUP1 CALLDATASIZE SUB PUSH1 0x20 DUP2 LT ISZERO PUSH2 0x9F8 JUMPI PUSH1 0x0 DUP1 REVERT JUMPDEST POP CALLDATALOAD PUSH2 0x192F JUMP JUMPDEST PUSH1 0x40 DUP1 MLOAD SWAP9 DUP10 MSTORE PUSH1 0x20 DUP10 ADD SWAP8 SWAP1 SWAP8 MSTORE SWAP5 ISZERO ISZERO DUP8 DUP8 ADD MSTORE SWAP3 ISZERO ISZERO PUSH1 0x60 DUP8 ADD MSTORE SWAP1 ISZERO ISZERO PUSH1 0x80 DUP7 ADD MSTORE PUSH1 0x1 PUSH1 0x1 PUSH1 0xA0 SHL SUB SWAP1 DUP2 AND PUSH1 0xA0 DUP7 ADD MSTORE SWAP1 DUP2 AND PUSH1 0xC0 DUP6 ADD MSTORE AND PUSH1 0xE0 DUP4 ADD MSTORE MLOAD SWAP1 DUP2 SWAP1 SUB PUSH2 0x100 ADD SWAP1 RETURN JUMPDEST PUSH2 0x302 PUSH1 0x4 DUP1 CALLDATASIZE SUB PUSH1 0x40 DUP2 LT ISZERO PUSH2 0xA65 JUMPI PUSH1 0x0 DUP1 REVERT JUMPDEST POP DUP1 CALLDATALOAD SWAP1 PUSH1 0x20 ADD CALLDATALOAD PUSH2 0x198B JUMP JUMPDEST PUSH2 0x70C PUSH1 0x4 DUP1 CALLDATASIZE SUB PUSH1 0x20 DUP2 LT ISZERO PUSH2 0xA88 JUMPI PUSH1 0x0 DUP1 REVERT JUMPDEST POP CALLDATALOAD PUSH2 0x19AC JUMP JUMPDEST PUSH2 0x399 PUSH1 0x4 DUP1 CALLDATASIZE SUB PUSH1 0x20 DUP2 LT ISZERO PUSH2 0xAA5 JUMPI PUSH1 0x0 DUP1 REVERT JUMPDEST POP CALLDATALOAD PUSH2 0x1A14 JUMP JUMPDEST PUSH2 0x3BE PUSH2 0x1DC5 JUMP JUMPDEST PUSH1 0x4A PUSH1 0x20 SWAP1 DUP2 MSTORE PUSH1 0x0 SWAP3 DUP4 MSTORE PUSH1 0x40 DUP1 DUP5 KECCAK256 SWAP1 SWAP2 MSTORE SWAP1 DUP3 MSTORE SWAP1 KECCAK256 SLOAD DUP2 JUMP JUMPDEST PUSH1 0x40 DUP1 MLOAD DUP1 DUP3 ADD SWAP1 SWAP2 MSTORE PUSH1 0xF DUP2 MSTORE PUSH15 0x54656C6C6F72205472696275746573 PUSH1 0x88 SHL PUSH1 0x20 DUP3 ADD MSTORE SWAP1 JUMP JUMPDEST PUSH2 0xB03 CALLER PUSH2 0x1EAA JUMP JUMPDEST PUSH2 0xB0B PUSH2 0x132E JUMP JUMPDEST JUMP JUMPDEST PUSH2 0xB15 PUSH2 0x21E5 JUMP JUMPDEST PUSH1 0x0 DUP4 DUP2 MSTORE PUSH1 0x45 PUSH1 0x20 SWAP1 DUP2 MSTORE PUSH1 0x40 DUP1 DUP4 KECCAK256 DUP6 DUP5 MSTORE PUSH1 0x6 ADD SWAP1 SWAP2 MSTORE SWAP1 DUP2 SWAP1 KECCAK256 DUP2 MLOAD PUSH1 0xA0 DUP2 ADD SWAP3 DUP4 SWAP1 MSTORE SWAP2 PUSH1 0x5 SWAP1 DUP3 DUP5 JUMPDEST DUP2 SLOAD DUP2 MSTORE PUSH1 0x20 ADD SWAP1 PUSH1 0x1 ADD SWAP1 DUP1 DUP4 GT PUSH2 0xB44 JUMPI POP POP POP POP POP SWAP1 POP SWAP3 SWAP2 POP POP JUMP JUMPDEST PUSH1 0x0 SWAP1 DUP2 MSTORE PUSH1 0x47 PUSH1 0x20 MSTORE PUSH1 0x40 SWAP1 KECCAK256 SLOAD PUSH1 0x1 PUSH1 0x1 PUSH1 0xA0 SHL SUB AND SWAP1 JUMP JUMPDEST PUSH32 0xE6148E7230CA038D456350E69A91B66968B222BFAC9EBFBEA6FF0A1FB7380160 PUSH1 0x0 MSTORE PUSH1 0x46 PUSH1 0x20 MSTORE PUSH32 0xFFFEEAD1EC15181FD57B4590D95E0C076BCCB59E311315E8B38F23C710AA7C3E SLOAD SWAP1 JUMP JUMPDEST PUSH1 0x3A DUP2 PUSH1 0x5 DUP2 LT PUSH2 0xBDD JUMPI PUSH1 0x0 DUP1 REVERT JUMPDEST PUSH1 0x2 MUL ADD DUP1 SLOAD PUSH1 0x1 SWAP1 SWAP2 ADD SLOAD SWAP1 SWAP2 POP PUSH1 0x1 PUSH1 0x1 PUSH1 0xA0 SHL SUB AND DUP3 JUMP JUMPDEST CALLER PUSH1 0x0 SWAP1 DUP2 MSTORE PUSH1 0x44 PUSH1 0x20 MSTORE PUSH1 0x40 SWAP1 KECCAK256 DUP1 SLOAD PUSH1 0x1 EQ PUSH2 0xC53 JUMPI PUSH1 0x40 DUP1 MLOAD PUSH3 0x461BCD PUSH1 0xE5 SHL DUP2 MSTORE PUSH1 0x20 PUSH1 0x4 DUP3 ADD MSTORE PUSH1 0x13 PUSH1 0x24 DUP3 ADD MSTORE PUSH19 0x135A5B995C881A5CC81B9BDD081CDD185AD959 PUSH1 0x6A SHL PUSH1 0x44 DUP3 ADD MSTORE SWAP1 MLOAD SWAP1 DUP2 SWAP1 SUB PUSH1 0x64 ADD SWAP1 REVERT JUMPDEST PUSH1 0x2 DUP2 SSTORE PUSH3 0x15180 TIMESTAMP MOD TIMESTAMP SUB PUSH1 0x1 DUP3 ADD SSTORE PUSH32 0x10C168823622203E4057B65015FF4D95B4C650B308918E8C92DC32AB5A0A034B PUSH1 0x0 MSTORE PUSH1 0x46 PUSH1 0x20 MSTORE PUSH32 0xA5AE3E2B97D73FB849EA855D27F073B72815B38452D976BD57E4A157827DADD3 DUP1 SLOAD PUSH1 0x0 NOT ADD SWAP1 SSTORE PUSH2 0xCBE PUSH2 0x132E JUMP JUMPDEST PUSH1 0x40 MLOAD CALLER SWAP1 PUSH32 0x453865710D0CB4B14AD25DE371C860DA196368895DAA9662E5087711D14DAECF SWAP1 PUSH1 0x0 SWAP1 LOG2 POP JUMP JUMPDEST PUSH1 0x12 SWAP1 JUMP JUMPDEST PUSH1 0x0 DUP2 DUP2 MSTORE PUSH1 0x45 PUSH1 0x20 MSTORE PUSH1 0x40 DUP2 KECCAK256 DUP1 SLOAD DUP3 SWAP2 SWAP1 ISZERO PUSH2 0xD3D JUMPI DUP1 SLOAD PUSH2 0xD31 SWAP1 DUP6 SWAP1 DUP4 SWAP1 PUSH1 0x0 NOT DUP2 ADD SWAP1 DUP2 LT PUSH2 0xD21 JUMPI INVALID JUMPDEST SWAP1 PUSH1 0x0 MSTORE PUSH1 0x20 PUSH1 0x0 KECCAK256 ADD SLOAD PUSH2 0x1448 JUMP JUMPDEST PUSH1 0x1 SWAP3 POP SWAP3 POP POP PUSH2 0xD46 JUMP JUMPDEST PUSH1 0x0 DUP1 SWAP3 POP SWAP3 POP POP JUMPDEST SWAP2 POP SWAP2 JUMP JUMPDEST PUSH1 0x0 SWAP2 DUP3 MSTORE PUSH1 0x45 PUSH1 0x20 SWAP1 DUP2 MSTORE PUSH1 0x40 DUP1 DUP5 KECCAK256 SWAP3 DUP5 MSTORE PUSH1 0x4 SWAP1 SWAP3 ADD SWAP1 MSTORE SWAP1 KECCAK256 SLOAD PUSH1 0xFF AND SWAP1 JUMP JUMPDEST PUSH1 0x0 PUSH2 0xD79 PUSH2 0x21E5 JUMP JUMPDEST PUSH1 0x0 DUP1 PUSH1 0x0 JUMPDEST PUSH1 0x5 DUP2 LT ISZERO PUSH2 0xDB3 JUMPI PUSH1 0x3A DUP2 PUSH1 0x5 DUP2 LT PUSH2 0xD95 JUMPI INVALID JUMPDEST PUSH1 0x2 MUL ADD SLOAD DUP5 DUP3 PUSH1 0x5 DUP2 LT PUSH2 0xDA6 JUMPI INVALID JUMPDEST PUSH1 0x20 MUL ADD MSTORE PUSH1 0x1 ADD PUSH2 0xD7F JUMP JUMPDEST POP POP PUSH32 0x52CB9007C7C6068F8EF37039D4F232CBF5A28FF8D93A5983C4C0C27CD2F9BC0D SLOAD PUSH1 0x46 PUSH1 0x20 MSTORE PUSH32 0x5BCCD7373734898281F858D7562320D2CDFC0B17BD72F779686937174D150025 SLOAD PUSH32 0x9659D32F99E50AC728058418D38174FE83A137C455FF1847E6FB8E15F78F77A PUSH1 0x0 MSTORE PUSH32 0x38B16D06A20AB673B01C748AFF938DF6A38F81640035F4CE8BD9ABB03AAE5B72 SLOAD SWAP2 SWAP5 POP SWAP2 POP SWAP1 SWAP2 SWAP3 SWAP4 JUMP JUMPDEST PUSH1 0x33 DUP2 DUP2 SLOAD DUP2 LT PUSH2 0xE5F JUMPI PUSH1 0x0 DUP1 REVERT JUMPDEST PUSH1 0x0 SWAP2 DUP3 MSTORE PUSH1 0x20 SWAP1 SWAP2 KECCAK256 ADD SLOAD SWAP1 POP DUP2 JUMP JUMPDEST PUSH1 0x0 SWAP1 DUP2 MSTORE PUSH1 0x45 PUSH1 0x20 MSTORE PUSH1 0x40 SWAP1 KECCAK256 SLOAD SWAP1 JUMP JUMPDEST PUSH1 0x39 PUSH1 0x20 SWAP1 DUP2 MSTORE PUSH1 0x0 SWAP3 DUP4 MSTORE PUSH1 0x40 DUP1 DUP5 KECCAK256 SWAP1 SWAP2 MSTORE SWAP1 DUP3 MSTORE SWAP1 KECCAK256 SLOAD PUSH1 0xFF AND DUP2 JUMP JUMPDEST PUSH1 0x4B PUSH1 0x20 MSTORE PUSH1 0x0 SWAP1 DUP2 MSTORE PUSH1 0x40 SWAP1 KECCAK256 SLOAD PUSH1 0xFF AND DUP2 JUMP JUMPDEST PUSH1 0x0 DUP2 DUP2 MSTORE PUSH1 0x36 PUSH1 0x20 MSTORE PUSH1 0x40 SWAP1 KECCAK256 PUSH1 0x2 DUP2 ADD SLOAD PUSH1 0xFF AND ISZERO PUSH2 0xF09 JUMPI PUSH1 0x40 MLOAD PUSH3 0x461BCD PUSH1 0xE5 SHL DUP2 MSTORE PUSH1 0x4 ADD DUP1 DUP1 PUSH1 0x20 ADD DUP3 DUP2 SUB DUP3 MSTORE PUSH1 0x21 DUP2 MSTORE PUSH1 0x20 ADD DUP1 PUSH2 0x22A9 PUSH1 0x21 SWAP2 CODECOPY PUSH1 0x40 ADD SWAP2 POP POP PUSH1 0x40 MLOAD DUP1 SWAP2 SUB SWAP1 REVERT JUMPDEST PUSH32 0x46F7D53798D31923F6952572C6A19AD2D1A8238D26649C2F3493A6D69E425D28 PUSH1 0x0 SWAP1 DUP2 MSTORE PUSH1 0x5 DUP3 ADD PUSH1 0x20 MSTORE PUSH1 0x40 SWAP1 KECCAK256 SLOAD TIMESTAMP LT ISZERO PUSH2 0xF8F JUMPI PUSH1 0x40 DUP1 MLOAD PUSH3 0x461BCD PUSH1 0xE5 SHL DUP2 MSTORE PUSH1 0x20 PUSH1 0x4 DUP3 ADD MSTORE PUSH1 0x1F PUSH1 0x24 DUP3 ADD MSTORE PUSH32 0x54696D6520666F7220766F74696E6720686176656E277420656C617073656400 PUSH1 0x44 DUP3 ADD MSTORE SWAP1 MLOAD SWAP1 DUP2 SWAP1 SUB PUSH1 0x64 ADD SWAP1 REVERT JUMPDEST PUSH1 0x3 DUP2 ADD SLOAD PUSH1 0x1 PUSH1 0x1 PUSH1 0xA0 SHL SUB AND PUSH2 0xFEE JUMPI PUSH1 0x40 DUP1 MLOAD PUSH3 0x461BCD PUSH1 0xE5 SHL DUP2 MSTORE PUSH1 0x20 PUSH1 0x4 DUP3 ADD MSTORE PUSH1 0x1C PUSH1 0x24 DUP3 ADD MSTORE PUSH32 0x7265706F7274696E672050617274792069732061646472657373203000000000 PUSH1 0x44 DUP3 ADD MSTORE SWAP1 MLOAD SWAP1 DUP2 SWAP1 SUB PUSH1 0x64 ADD SWAP1 REVERT JUMPDEST PUSH1 0x1 DUP2 ADD SLOAD PUSH1 0x0 DUP2 SGT ISZERO PUSH2 0x10BF JUMPI PUSH1 0x2 DUP3 ADD SLOAD PUSH3 0x10000 SWAP1 DIV PUSH1 0xFF AND PUSH2 0x1055 JUMPI PUSH1 0x2 DUP3 ADD DUP1 SLOAD PUSH2 0xFF00 NOT AND PUSH2 0x100 OR SWAP1 DUP2 SWAP1 SSTORE PUSH1 0x1 PUSH1 0x1 PUSH1 0xA0 SHL SUB PUSH4 0x1000000 SWAP1 SWAP2 DIV AND PUSH1 0x0 SWAP1 DUP2 MSTORE PUSH1 0x44 PUSH1 0x20 MSTORE PUSH1 0x40 SWAP1 KECCAK256 DUP1 SLOAD PUSH1 0x3 EQ ISZERO PUSH2 0x104F JUMPI PUSH1 0x4 DUP2 SSTORE JUMPDEST POP PUSH2 0x10BF JUMP JUMPDEST PUSH32 0xE6148E7230CA038D456350E69A91B66968B222BFAC9EBFBEA6FF0A1FB7380160 PUSH1 0x0 MSTORE PUSH1 0x46 PUSH1 0x20 MSTORE PUSH32 0xFFFEEAD1EC15181FD57B4590D95E0C076BCCB59E311315E8B38F23C710AA7C3E SLOAD PUSH1 0x64 SWAP1 PUSH1 0x5 MUL DIV DUP2 LT PUSH2 0x10BF JUMPI PUSH1 0x2 DUP3 ADD DUP1 SLOAD PUSH2 0xFF00 NOT AND PUSH2 0x100 OR SWAP1 SSTORE JUMPDEST PUSH32 0xF9E1AE10923BFC79F52E309BAF8C7699EDB821F91EF5B5BD07BE29545917B3A6 PUSH1 0x0 SWAP1 DUP2 MSTORE PUSH1 0x5 DUP4 ADD PUSH1 0x20 SWAP1 DUP2 MSTORE PUSH1 0x40 SWAP2 DUP3 SWAP1 KECCAK256 TIMESTAMP SWAP1 SSTORE PUSH1 0x2 DUP5 ADD DUP1 SLOAD PUSH1 0xFF NOT AND PUSH1 0x1 OR SWAP1 DUP2 SWAP1 SSTORE PUSH1 0x3 DUP6 ADD SLOAD DUP4 MLOAD DUP6 DUP2 MSTORE PUSH1 0x1 PUSH1 0x1 PUSH1 0xA0 SHL SUB SWAP2 DUP3 AND SWAP4 DUP2 ADD SWAP4 SWAP1 SWAP4 MSTORE PUSH2 0x100 DUP3 DIV PUSH1 0xFF AND ISZERO ISZERO DUP4 DUP6 ADD MSTORE SWAP3 MLOAD PUSH4 0x1000000 SWAP1 SWAP2 DIV SWAP3 SWAP1 SWAP3 AND SWAP2 DUP6 SWAP2 PUSH32 0x21459C2F5447EBCF83A7F0A238C32C71076FAEF0D12295E771C0CB1E10434739 SWAP2 SWAP1 DUP2 SWAP1 SUB PUSH1 0x60 ADD SWAP1 LOG3 POP POP POP JUMP JUMPDEST PUSH1 0x37 PUSH1 0x20 MSTORE PUSH1 0x0 SWAP1 DUP2 MSTORE PUSH1 0x40 SWAP1 KECCAK256 SLOAD DUP2 JUMP JUMPDEST PUSH1 0x0 SWAP1 DUP2 MSTORE PUSH1 0x46 PUSH1 0x20 MSTORE PUSH1 0x40 SWAP1 KECCAK256 SLOAD SWAP1 JUMP JUMPDEST PUSH1 0x0 PUSH1 0x32 DUP3 GT ISZERO PUSH2 0x11EF JUMPI PUSH1 0x40 DUP1 MLOAD PUSH3 0x461BCD PUSH1 0xE5 SHL DUP2 MSTORE PUSH1 0x20 PUSH1 0x4 DUP3 ADD MSTORE PUSH1 0x1A PUSH1 0x24 DUP3 ADD MSTORE PUSH32 0x526571756573745120696E6465782069732061626F7665203530000000000000 PUSH1 0x44 DUP3 ADD MSTORE SWAP1 MLOAD SWAP1 DUP2 SWAP1 SUB PUSH1 0x64 ADD SWAP1 REVERT JUMPDEST POP PUSH1 0x0 SWAP1 DUP2 MSTORE PUSH1 0x35 PUSH1 0x20 MSTORE PUSH1 0x40 SWAP1 KECCAK256 SLOAD SWAP1 JUMP JUMPDEST PUSH1 0x48 PUSH1 0x20 MSTORE PUSH1 0x0 SWAP1 DUP2 MSTORE PUSH1 0x40 SWAP1 KECCAK256 SLOAD DUP2 JUMP JUMPDEST PUSH1 0x0 SWAP2 DUP3 MSTORE PUSH1 0x39 PUSH1 0x20 SWAP1 DUP2 MSTORE PUSH1 0x40 DUP1 DUP5 KECCAK256 PUSH1 0x1 PUSH1 0x1 PUSH1 0xA0 SHL SUB SWAP4 SWAP1 SWAP4 AND DUP5 MSTORE SWAP2 SWAP1 MSTORE SWAP1 KECCAK256 SLOAD PUSH1 0xFF AND SWAP1 JUMP JUMPDEST PUSH2 0x1247 PUSH2 0x21E5 JUMP JUMPDEST PUSH1 0x0 DUP4 DUP2 MSTORE PUSH1 0x45 PUSH1 0x20 SWAP1 DUP2 MSTORE PUSH1 0x40 DUP1 DUP4 KECCAK256 DUP6 DUP5 MSTORE PUSH1 0x5 SWAP1 DUP2 ADD SWAP1 SWAP3 MSTORE SWAP2 DUP3 SWAP1 KECCAK256 DUP3 MLOAD PUSH1 0xA0 DUP2 ADD SWAP4 DUP5 SWAP1 MSTORE SWAP3 SWAP1 SWAP2 SWAP1 DUP3 DUP5 JUMPDEST DUP2 SLOAD PUSH1 0x1 PUSH1 0x1 PUSH1 0xA0 SHL SUB AND DUP2 MSTORE PUSH1 0x1 SWAP1 SWAP2 ADD SWAP1 PUSH1 0x20 ADD DUP1 DUP4 GT PUSH2 0x1278 JUMPI POP POP POP POP POP SWAP1 POP SWAP3 SWAP2 POP POP JUMP JUMPDEST PUSH1 0x47 PUSH1 0x20 MSTORE PUSH1 0x0 SWAP1 DUP2 MSTORE PUSH1 0x40 SWAP1 KECCAK256 SLOAD PUSH1 0x1 PUSH1 0x1 PUSH1 0xA0 SHL SUB AND DUP2 JUMP JUMPDEST PUSH1 0x1 PUSH1 0x1 PUSH1 0xA0 SHL SUB AND PUSH1 0x0 SWAP1 DUP2 MSTORE PUSH1 0x44 PUSH1 0x20 MSTORE PUSH1 0x40 SWAP1 KECCAK256 DUP1 SLOAD PUSH1 0x1 SWAP1 SWAP2 ADD SLOAD SWAP1 SWAP2 JUMP JUMPDEST PUSH1 0x0 DUP3 DUP2 MSTORE PUSH1 0x45 PUSH1 0x20 MSTORE PUSH1 0x40 DUP2 KECCAK256 DUP1 SLOAD DUP4 SWAP1 DUP2 LT PUSH2 0x12FA JUMPI INVALID JUMPDEST SWAP1 PUSH1 0x0 MSTORE PUSH1 0x20 PUSH1 0x0 KECCAK256 ADD SLOAD SWAP1 POP SWAP3 SWAP2 POP POP JUMP JUMPDEST PUSH1 0x0 SWAP2 DUP3 MSTORE PUSH1 0x36 PUSH1 0x20 SWAP1 DUP2 MSTORE PUSH1 0x40 DUP1 DUP5 KECCAK256 SWAP3 DUP5 MSTORE PUSH1 0x5 SWAP1 SWAP3 ADD SWAP1 MSTORE SWAP1 KECCAK256 SLOAD SWAP1 JUMP JUMPDEST PUSH1 0x46 PUSH1 0x20 MSTORE PUSH32 0x167AF83A0768D27540775CFEF6D996EB63F8A61FCDFB26E654C18FB50960E3BE SLOAD PUSH32 0x2E2F0A18EB55EF91E37921B3810D7FEEEF7A855DDC7F4F4249EF03D7B887AE31 SLOAD PUSH32 0x10C168823622203E4057B65015FF4D95B4C650B308918E8C92DC32AB5A0A034B PUSH1 0x0 MSTORE PUSH32 0xA5AE3E2B97D73FB849EA855D27F073B72815B38452D976BD57E4A157827DADD3 SLOAD PUSH2 0x13F9 SWAP1 PUSH8 0xD02AB486CEDC0000 SWAP1 PUSH2 0x3E8 SWAP1 DUP5 SWAP1 PUSH2 0x13DC SWAP1 DUP3 SWAP1 PUSH2 0x206A JUMP JUMPDEST PUSH2 0x3E8 MUL DUP7 MUL DUP2 PUSH2 0x13E9 JUMPI INVALID JUMPDEST DIV DUP2 PUSH2 0x13F1 JUMPI INVALID JUMPDEST DIV DUP5 SUB PUSH2 0x2082 JUMP JUMPDEST PUSH32 0x675D2171F68D6F5545D54FB9B1FB61A0E6897E6188CA1CD664E7C9530D91ECFC PUSH1 0x0 MSTORE PUSH1 0x46 PUSH1 0x20 MSTORE PUSH32 0x3E5522F19747F0F285B96DED572AC4128C3A764AEA9F44058DC0AFC9DDA44986 SSTORE POP POP JUMP JUMPDEST PUSH1 0x0 SWAP2 DUP3 MSTORE PUSH1 0x45 PUSH1 0x20 SWAP1 DUP2 MSTORE PUSH1 0x40 DUP1 DUP5 KECCAK256 SWAP3 DUP5 MSTORE PUSH1 0x3 SWAP1 SWAP3 ADD SWAP1 MSTORE SWAP1 KECCAK256 SLOAD SWAP1 JUMP JUMPDEST PUSH1 0x40 DUP1 MLOAD DUP1 DUP3 ADD SWAP1 SWAP2 MSTORE PUSH1 0x3 DUP2 MSTORE PUSH3 0x2A2921 PUSH1 0xE9 SHL PUSH1 0x20 DUP3 ADD MSTORE SWAP1 JUMP JUMPDEST PUSH2 0x148E PUSH2 0x21E5 JUMP JUMPDEST PUSH2 0x1496 PUSH2 0x21E5 JUMP JUMPDEST PUSH2 0x149E PUSH2 0x1DC5 JUMP JUMPDEST SWAP2 POP PUSH1 0x0 JUMPDEST PUSH1 0x5 DUP2 LT ISZERO PUSH2 0x1520 JUMPI PUSH1 0x45 PUSH1 0x0 DUP5 DUP4 PUSH1 0x5 DUP2 LT PUSH2 0x14BC JUMPI INVALID JUMPDEST PUSH1 0x20 MUL ADD MLOAD DUP2 MSTORE PUSH1 0x20 ADD SWAP1 DUP2 MSTORE PUSH1 0x20 ADD PUSH1 0x0 KECCAK256 PUSH1 0x1 ADD PUSH1 0x0 PUSH32 0x1590276B7F31DD8E2A06F9A92867333EEB3EDDBC91E73B9833E3E55D8E34F77D PUSH1 0x0 SHL DUP2 MSTORE PUSH1 0x20 ADD SWAP1 DUP2 MSTORE PUSH1 0x20 ADD PUSH1 0x0 KECCAK256 SLOAD DUP3 DUP3 PUSH1 0x5 DUP2 LT PUSH2 0x1513 JUMPI INVALID JUMPDEST PUSH1 0x20 MUL ADD MSTORE PUSH1 0x1 ADD PUSH2 0x14A3 JUMP JUMPDEST POP SWAP1 SWAP2 JUMP JUMPDEST PUSH1 0x0 DUP3 DUP2 MSTORE PUSH1 0x36 PUSH1 0x20 SWAP1 DUP2 MSTORE PUSH1 0x40 DUP1 DUP4 KECCAK256 PUSH1 0x1 PUSH1 0x1 PUSH1 0xA0 SHL SUB DUP6 AND DUP5 MSTORE PUSH1 0x6 ADD SWAP1 SWAP2 MSTORE SWAP1 KECCAK256 SLOAD PUSH1 0xFF AND SWAP3 SWAP2 POP POP JUMP JUMPDEST PUSH1 0x0 DUP1 PUSH1 0x0 DUP1 PUSH1 0x0 DUP1 PUSH1 0x0 PUSH2 0x1567 PUSH2 0x2203 JUMP JUMPDEST POP POP POP PUSH1 0x0 SWAP6 DUP7 MSTORE POP POP PUSH1 0x36 PUSH1 0x20 SWAP1 DUP2 MSTORE PUSH1 0x40 DUP1 DUP7 KECCAK256 DUP1 SLOAD PUSH1 0x2 DUP3 ADD SLOAD PUSH1 0x3 DUP4 ADD SLOAD PUSH1 0x4 DUP5 ADD SLOAD DUP6 MLOAD PUSH2 0x120 DUP2 ADD DUP8 MSTORE PUSH32 0x9F47A2659C3D32B749AE717D975E7962959890862423C4318CF86E4EC220291F DUP13 MSTORE PUSH1 0x5 DUP7 ADD DUP1 DUP10 MSTORE DUP8 DUP14 KECCAK256 SLOAD DUP3 MSTORE PUSH32 0x2F9328A9C75282BEC25BB04BEFAD06926366736E0030C985108445FA728335E5 DUP14 MSTORE DUP1 DUP10 MSTORE DUP8 DUP14 KECCAK256 SLOAD DUP3 DUP11 ADD MSTORE PUSH32 0x9147231AB14EFB72C38117F68521DDEF8DE64F092C18C69DBFB602FFC4DE7F47 DUP14 MSTORE DUP1 DUP10 MSTORE DUP8 DUP14 KECCAK256 SLOAD DUP3 DUP10 ADD MSTORE PUSH32 0x46F7D53798D31923F6952572C6A19AD2D1A8238D26649C2F3493A6D69E425D28 DUP14 MSTORE DUP1 DUP10 MSTORE DUP8 DUP14 KECCAK256 SLOAD PUSH1 0x60 DUP4 ADD MSTORE PUSH32 0x1DA378694063870452CE03B189F48E04C1AA026348E74E6C86E10738514AD2C4 DUP14 MSTORE DUP1 DUP10 MSTORE DUP8 DUP14 KECCAK256 SLOAD PUSH1 0x80 DUP4 ADD MSTORE PUSH32 0x4B4CEFD5CED7569EF0D091282B4BCA9C52A034C56471A6061AFD1BF307A2DE7C DUP14 MSTORE DUP1 DUP10 MSTORE DUP8 DUP14 KECCAK256 SLOAD PUSH1 0xA0 DUP4 ADD MSTORE PUSH32 0x6DE96EE4D33A0617F40A846309C8759048857F51B9D59A12D3C3786D4778883D DUP14 MSTORE DUP1 DUP10 MSTORE DUP8 DUP14 KECCAK256 SLOAD PUSH1 0xC0 DUP4 ADD MSTORE PUSH32 0x30E85AE205656781C1A951CBA9F9F53F884833C049D377A2A7046EB5E6D14B26 DUP14 MSTORE DUP1 DUP10 MSTORE DUP8 DUP14 KECCAK256 SLOAD PUSH1 0xE0 DUP4 ADD MSTORE PUSH32 0x1DA95F11543C9B03927178E07951795DFC95C7501A9D1CF00E13414CA33BC409 DUP14 MSTORE SWAP1 SWAP8 MSTORE SWAP5 SWAP1 SWAP10 KECCAK256 SLOAD PUSH2 0x100 DUP1 DUP8 ADD SWAP2 SWAP1 SWAP2 MSTORE PUSH1 0x1 SWAP1 SWAP4 ADD SLOAD SWAP2 SWAP10 PUSH1 0xFF DUP1 DUP4 AND SWAP11 SWAP5 DUP4 DIV DUP2 AND SWAP10 POP PUSH3 0x10000 DUP4 DIV AND SWAP8 POP PUSH1 0x1 PUSH1 0x1 PUSH1 0xA0 SHL SUB PUSH4 0x1000000 SWAP1 SWAP3 DIV DUP3 AND SWAP7 POP SWAP3 DUP2 AND SWAP5 SWAP4 AND SWAP3 SWAP2 JUMP JUMPDEST PUSH2 0x1787 PUSH2 0x2222 JUMP JUMPDEST PUSH1 0x40 DUP1 MLOAD PUSH2 0x660 DUP2 ADD SWAP2 DUP3 SWAP1 MSTORE SWAP1 PUSH1 0x0 SWAP1 PUSH1 0x33 SWAP1 DUP3 DUP5 JUMPDEST DUP2 SLOAD DUP2 MSTORE PUSH1 0x20 ADD SWAP1 PUSH1 0x1 ADD SWAP1 DUP1 DUP4 GT PUSH2 0x179E JUMPI POP POP POP POP POP SWAP1 POP SWAP1 JUMP JUMPDEST PUSH1 0x46 PUSH1 0x20 MSTORE PUSH1 0x0 SWAP1 DUP2 MSTORE PUSH1 0x40 SWAP1 KECCAK256 SLOAD DUP2 JUMP JUMPDEST CALLER PUSH1 0x0 SWAP1 DUP2 MSTORE PUSH1 0x44 PUSH1 0x20 MSTORE PUSH1 0x40 SWAP1 KECCAK256 PUSH1 0x1 DUP2 ADD SLOAD PUSH3 0x93A80 SWAP1 PUSH3 0x15180 TIMESTAMP MOD TIMESTAMP SUB SUB LT ISZERO PUSH2 0x1837 JUMPI PUSH1 0x40 DUP1 MLOAD PUSH3 0x461BCD PUSH1 0xE5 SHL DUP2 MSTORE PUSH1 0x20 PUSH1 0x4 DUP3 ADD MSTORE PUSH1 0x12 PUSH1 0x24 DUP3 ADD MSTORE PUSH18 0x372064617973206469646E27742070617373 PUSH1 0x70 SHL PUSH1 0x44 DUP3 ADD MSTORE SWAP1 MLOAD SWAP1 DUP2 SWAP1 SUB PUSH1 0x64 ADD SWAP1 REVERT JUMPDEST DUP1 SLOAD PUSH1 0x2 EQ PUSH2 0x1877 JUMPI PUSH1 0x40 MLOAD PUSH3 0x461BCD PUSH1 0xE5 SHL DUP2 MSTORE PUSH1 0x4 ADD DUP1 DUP1 PUSH1 0x20 ADD DUP3 DUP2 SUB DUP3 MSTORE PUSH1 0x23 DUP2 MSTORE PUSH1 0x20 ADD DUP1 PUSH2 0x2242 PUSH1 0x23 SWAP2 CODECOPY PUSH1 0x40 ADD SWAP2 POP POP PUSH1 0x40 MLOAD DUP1 SWAP2 SUB SWAP1 REVERT JUMPDEST PUSH1 0x0 DUP1 DUP3 SSTORE PUSH1 0x40 MLOAD CALLER SWAP2 PUSH32 0x4A7934670BD8304E7DA22378BE1368F7C4FEF17C5AEE81804BEDA8638FE428EC SWAP2 LOG2 POP JUMP JUMPDEST PUSH1 0x0 SWAP2 DUP3 MSTORE PUSH1 0x45 PUSH1 0x20 SWAP1 DUP2 MSTORE PUSH1 0x40 DUP1 DUP5 KECCAK256 SWAP3 DUP5 MSTORE PUSH1 0x2 SWAP1 SWAP3 ADD SWAP1 MSTORE SWAP1 KECCAK256 SLOAD SWAP1 JUMP JUMPDEST PUSH1 0x49 PUSH1 0x20 MSTORE DUP2 PUSH1 0x0 MSTORE PUSH1 0x40 PUSH1 0x0 KECCAK256 DUP2 DUP2 SLOAD DUP2 LT PUSH2 0x18E4 JUMPI PUSH1 0x0 DUP1 REVERT JUMPDEST PUSH1 0x0 SWAP2 DUP3 MSTORE PUSH1 0x20 SWAP1 SWAP2 KECCAK256 ADD SLOAD PUSH1 0x1 PUSH1 0x1 PUSH1 0x80 SHL SUB DUP1 DUP3 AND SWAP4 POP PUSH1 0x1 PUSH1 0x80 SHL SWAP1 SWAP2 DIV AND SWAP1 POP DUP3 JUMP JUMPDEST PUSH1 0x38 PUSH1 0x20 MSTORE PUSH1 0x0 SWAP1 DUP2 MSTORE PUSH1 0x40 SWAP1 KECCAK256 SLOAD DUP2 JUMP JUMPDEST PUSH1 0x0 SWAP1 DUP2 MSTORE PUSH1 0x38 PUSH1 0x20 MSTORE PUSH1 0x40 SWAP1 KECCAK256 SLOAD SWAP1 JUMP JUMPDEST PUSH1 0x36 PUSH1 0x20 MSTORE PUSH1 0x0 SWAP1 DUP2 MSTORE PUSH1 0x40 SWAP1 KECCAK256 DUP1 SLOAD PUSH1 0x1 DUP3 ADD SLOAD PUSH1 0x2 DUP4 ADD SLOAD PUSH1 0x3 DUP5 ADD SLOAD PUSH1 0x4 SWAP1 SWAP5 ADD SLOAD SWAP3 SWAP4 SWAP2 SWAP3 PUSH1 0xFF DUP1 DUP4 AND SWAP4 PUSH2 0x100 DUP5 DIV DUP3 AND SWAP4 PUSH3 0x10000 DUP2 DIV SWAP1 SWAP3 AND SWAP3 PUSH1 0x1 PUSH1 0x1 PUSH1 0xA0 SHL SUB PUSH4 0x1000000 SWAP1 SWAP4 DIV DUP4 AND SWAP3 SWAP2 DUP3 AND SWAP2 AND DUP9 JUMP JUMPDEST PUSH1 0x0 SWAP2 DUP3 MSTORE PUSH1 0x45 PUSH1 0x20 SWAP1 DUP2 MSTORE PUSH1 0x40 DUP1 DUP5 KECCAK256 SWAP3 DUP5 MSTORE PUSH1 0x1 SWAP1 SWAP3 ADD SWAP1 MSTORE SWAP1 KECCAK256 SLOAD SWAP1 JUMP JUMPDEST PUSH1 0x0 SWAP1 DUP2 MSTORE PUSH1 0x45 PUSH1 0x20 SWAP1 DUP2 MSTORE PUSH1 0x40 DUP1 DUP4 KECCAK256 PUSH32 0xF68D680AB3160F1AA5D9C3A1383C49E3E60BF3C0C031245CBB036F5CE99AFAA1 DUP5 MSTORE PUSH1 0x1 ADD SWAP1 SWAP2 MSTORE DUP1 DUP3 KECCAK256 SLOAD PUSH32 0x1590276B7F31DD8E2A06F9A92867333EEB3EDDBC91E73B9833E3E55D8E34F77D DUP4 MSTORE SWAP2 KECCAK256 SLOAD SWAP1 SWAP2 JUMP JUMPDEST PUSH1 0x0 DUP2 DUP2 MSTORE PUSH1 0x36 PUSH1 0x20 DUP2 DUP2 MSTORE PUSH1 0x40 DUP1 DUP5 KECCAK256 SLOAD DUP1 DUP6 MSTORE PUSH1 0x38 DUP4 MSTORE DUP2 DUP6 KECCAK256 SLOAD DUP1 DUP7 MSTORE DUP5 DUP5 MSTORE DUP3 DUP7 KECCAK256 PUSH32 0x6AB2B18AAFE78FD59C6A4092015BDDD9FCACB8170F72B299074F74D76A91A923 DUP8 MSTORE PUSH1 0x5 ADD DUP1 DUP6 MSTORE DUP4 DUP8 KECCAK256 SLOAD DUP5 MLOAD DUP1 DUP8 ADD SWAP2 SWAP1 SWAP2 MSTORE DUP5 MLOAD DUP1 DUP3 SUB DUP8 ADD DUP2 MSTORE SWAP1 DUP6 ADD DUP6 MSTORE DUP1 MLOAD SWAP1 DUP7 ADD KECCAK256 DUP8 MSTORE DUP5 MSTORE DUP3 DUP7 KECCAK256 SLOAD DUP1 DUP8 MSTORE SWAP5 SWAP1 SWAP4 MSTORE SWAP4 KECCAK256 PUSH1 0x2 DUP2 ADD SLOAD SWAP2 SWAP3 SWAP2 PUSH3 0x10000 SWAP1 DIV PUSH1 0xFF AND PUSH2 0x1AF7 JUMPI PUSH1 0x40 DUP1 MLOAD PUSH3 0x461BCD PUSH1 0xE5 SHL DUP2 MSTORE PUSH1 0x20 PUSH1 0x4 DUP3 ADD MSTORE PUSH1 0x17 PUSH1 0x24 DUP3 ADD MSTORE PUSH32 0x6D757374206265206120666F726B2070726F706F73616C000000000000000000 PUSH1 0x44 DUP3 ADD MSTORE SWAP1 MLOAD SWAP1 DUP2 SWAP1 SUB PUSH1 0x64 ADD SWAP1 REVERT JUMPDEST PUSH32 0xDA571DFC0B95CDC4A3835F5982CFDF36F73258BEE7CB8EB797B4AF8B17329875 PUSH1 0x0 SWAP1 DUP2 MSTORE PUSH1 0x5 DUP3 ADD PUSH1 0x20 MSTORE PUSH1 0x40 SWAP1 KECCAK256 SLOAD ISZERO PUSH2 0x1B65 JUMPI PUSH1 0x40 MLOAD PUSH3 0x461BCD PUSH1 0xE5 SHL DUP2 MSTORE PUSH1 0x4 ADD DUP1 DUP1 PUSH1 0x20 ADD DUP3 DUP2 SUB DUP3 MSTORE PUSH1 0x22 DUP2 MSTORE PUSH1 0x20 ADD DUP1 PUSH2 0x2287 PUSH1 0x22 SWAP2 CODECOPY PUSH1 0x40 ADD SWAP2 POP POP PUSH1 0x40 MLOAD DUP1 SWAP2 SUB SWAP1 REVERT JUMPDEST PUSH1 0x2 DUP2 ADD SLOAD PUSH1 0xFF PUSH2 0x100 SWAP1 SWAP2 DIV AND ISZERO ISZERO PUSH1 0x1 EQ PUSH2 0x1BBE JUMPI PUSH1 0x40 DUP1 MLOAD PUSH3 0x461BCD PUSH1 0xE5 SHL DUP2 MSTORE PUSH1 0x20 PUSH1 0x4 DUP3 ADD MSTORE PUSH1 0x12 PUSH1 0x24 DUP3 ADD MSTORE PUSH18 0x766F7465206E6565647320746F2070617373 PUSH1 0x70 SHL PUSH1 0x44 DUP3 ADD MSTORE SWAP1 MLOAD SWAP1 DUP2 SWAP1 SUB PUSH1 0x64 ADD SWAP1 REVERT JUMPDEST PUSH32 0xF9E1AE10923BFC79F52E309BAF8C7699EDB821F91EF5B5BD07BE29545917B3A6 PUSH1 0x0 SWAP1 DUP2 MSTORE PUSH1 0x5 DUP3 ADD PUSH1 0x20 MSTORE PUSH1 0x40 SWAP1 KECCAK256 SLOAD PUSH2 0x1C41 JUMPI PUSH1 0x40 DUP1 MLOAD PUSH3 0x461BCD PUSH1 0xE5 SHL DUP2 MSTORE PUSH1 0x20 PUSH1 0x4 DUP3 ADD MSTORE PUSH1 0x18 PUSH1 0x24 DUP3 ADD MSTORE PUSH32 0x766F7465206E6565647320746F2062652074616C6C6965640000000000000000 PUSH1 0x44 DUP3 ADD MSTORE SWAP1 MLOAD SWAP1 DUP2 SWAP1 SUB PUSH1 0x64 ADD SWAP1 REVERT JUMPDEST PUSH32 0xF9E1AE10923BFC79F52E309BAF8C7699EDB821F91EF5B5BD07BE29545917B3A6 PUSH1 0x0 SWAP1 DUP2 MSTORE PUSH1 0x5 DUP3 ADD PUSH1 0x20 MSTORE PUSH1 0x40 SWAP1 KECCAK256 SLOAD PUSH3 0x15180 TIMESTAMP SWAP2 SWAP1 SWAP2 SUB GT PUSH2 0x1CB8 JUMPI PUSH1 0x40 MLOAD PUSH3 0x461BCD PUSH1 0xE5 SHL DUP2 MSTORE PUSH1 0x4 ADD DUP1 DUP1 PUSH1 0x20 ADD DUP3 DUP2 SUB DUP3 MSTORE PUSH1 0x33 DUP2 MSTORE PUSH1 0x20 ADD DUP1 PUSH2 0x22CA PUSH1 0x33 SWAP2 CODECOPY PUSH1 0x40 ADD SWAP2 POP POP PUSH1 0x40 MLOAD DUP1 SWAP2 SUB SWAP1 REVERT JUMPDEST PUSH32 0xDA571DFC0B95CDC4A3835F5982CFDF36F73258BEE7CB8EB797B4AF8B17329875 PUSH1 0x0 SWAP1 DUP2 MSTORE PUSH1 0x5 DUP3 ADD PUSH1 0x20 SWAP1 DUP2 MSTORE PUSH1 0x40 DUP1 DUP4 KECCAK256 PUSH1 0x1 SWAP1 SSTORE PUSH1 0x4 DUP5 ADD SLOAD PUSH32 0xF1293C916694AC6AF4DAA2F866F0448D0C2CE8847074A7896D397C961914A08 SWAP1 SWAP4 MSTORE PUSH1 0x47 DUP3 MSTORE PUSH32 0xFE10C9A395CCE5A324DF121072934B83AA2F3AA5F594428B2A75CF926B73FAE8 DUP1 SLOAD PUSH20 0xFFFFFFFFFFFFFFFFFFFFFFFFFFFFFFFFFFFFFFFF NOT AND PUSH1 0x1 PUSH1 0x1 PUSH1 0xA0 SHL SUB SWAP1 SWAP5 AND SWAP4 DUP5 OR SWAP1 SSTORE PUSH32 0x7050C9E0F4CA769C69BD3A8EF740BC37934F8E2C036E5A723FD8EE048ED3F8C3 DUP4 SWAP1 SSTORE DUP1 MLOAD DUP4 DUP2 MSTORE SWAP1 MLOAD PUSH32 0xC2D1449EB0B6547AA426E09D9942A77FA4FC8CD3296305B3163E22452E0BCB8D SWAP3 SWAP2 DUP2 SWAP1 SUB SWAP1 SWAP2 ADD SWAP1 LOG1 POP POP POP POP POP POP JUMP JUMPDEST PUSH2 0x1DCD PUSH2 0x21E5 JUMP JUMPDEST PUSH2 0x1DD5 PUSH2 0x21E5 JUMP JUMPDEST PUSH2 0x1DDD PUSH2 0x21E5 JUMP JUMPDEST PUSH1 0x40 DUP1 MLOAD PUSH2 0x660 DUP2 ADD SWAP2 DUP3 SWAP1 MSTORE PUSH2 0x1E14 SWAP2 PUSH1 0x0 SWAP1 PUSH1 0x33 SWAP1 DUP3 DUP5 JUMPDEST DUP2 SLOAD DUP2 MSTORE PUSH1 0x20 ADD SWAP1 PUSH1 0x1 ADD SWAP1 DUP1 DUP4 GT PUSH2 0x1DF7 JUMPI POP POP POP POP POP PUSH2 0x2091 JUMP JUMPDEST SWAP1 SWAP3 POP SWAP1 POP PUSH1 0x0 JUMPDEST PUSH1 0x5 DUP2 LT ISZERO PUSH2 0x1EA4 JUMPI DUP3 DUP2 PUSH1 0x5 DUP2 LT PUSH2 0x1E31 JUMPI INVALID JUMPDEST PUSH1 0x20 MUL ADD MLOAD ISZERO PUSH2 0x1E75 JUMPI PUSH1 0x35 PUSH1 0x0 DUP4 DUP4 PUSH1 0x5 DUP2 LT PUSH2 0x1E4B JUMPI INVALID JUMPDEST PUSH1 0x20 MUL ADD MLOAD DUP2 MSTORE PUSH1 0x20 ADD SWAP1 DUP2 MSTORE PUSH1 0x20 ADD PUSH1 0x0 KECCAK256 SLOAD DUP5 DUP3 PUSH1 0x5 DUP2 LT PUSH2 0x1E6B JUMPI INVALID JUMPDEST PUSH1 0x20 MUL ADD MSTORE PUSH2 0x1E9C JUMP JUMPDEST PUSH1 0x3A DUP2 PUSH1 0x4 SUB PUSH1 0x5 DUP2 LT PUSH2 0x1E85 JUMPI INVALID JUMPDEST PUSH1 0x2 MUL ADD SLOAD DUP5 DUP3 PUSH1 0x5 DUP2 LT PUSH2 0x1E96 JUMPI INVALID JUMPDEST PUSH1 0x20 MUL ADD MSTORE JUMPDEST PUSH1 0x1 ADD PUSH2 0x1E1C JUMP JUMPDEST POP POP POP SWAP1 JUMP JUMPDEST PUSH32 0x167AF83A0768D27540775CFEF6D996EB63F8A61FCDFB26E654C18FB50960E3BE SLOAD PUSH1 0x1 PUSH1 0x1 PUSH1 0xA0 SHL SUB DUP3 AND PUSH1 0x0 SWAP1 DUP2 MSTORE PUSH1 0x49 PUSH1 0x20 MSTORE PUSH1 0x40 SWAP1 KECCAK256 DUP1 SLOAD PUSH1 0x0 NOT DUP2 ADD SWAP1 DUP2 LT PUSH2 0x1EF4 JUMPI INVALID JUMPDEST PUSH1 0x0 SWAP2 DUP3 MSTORE PUSH1 0x20 SWAP1 SWAP2 KECCAK256 ADD SLOAD PUSH1 0x1 PUSH1 0x80 SHL SWAP1 DIV PUSH1 0x1 PUSH1 0x1 PUSH1 0x80 SHL SUB AND LT ISZERO PUSH2 0x1F4D JUMPI PUSH1 0x40 MLOAD PUSH3 0x461BCD PUSH1 0xE5 SHL DUP2 MSTORE PUSH1 0x4 ADD DUP1 DUP1 PUSH1 0x20 ADD DUP3 DUP2 SUB DUP3 MSTORE PUSH1 0x22 DUP2 MSTORE PUSH1 0x20 ADD DUP1 PUSH2 0x2265 PUSH1 0x22 SWAP2 CODECOPY PUSH1 0x40 ADD SWAP2 POP POP PUSH1 0x40 MLOAD DUP1 SWAP2 SUB SWAP1 REVERT JUMPDEST PUSH1 0x1 PUSH1 0x1 PUSH1 0xA0 SHL SUB DUP2 AND PUSH1 0x0 SWAP1 DUP2 MSTORE PUSH1 0x44 PUSH1 0x20 MSTORE PUSH1 0x40 SWAP1 KECCAK256 SLOAD ISZERO DUP1 PUSH2 0x1F8A JUMPI POP PUSH1 0x1 PUSH1 0x1 PUSH1 0xA0 SHL SUB DUP2 AND PUSH1 0x0 SWAP1 DUP2 MSTORE PUSH1 0x44 PUSH1 0x20 MSTORE PUSH1 0x40 SWAP1 KECCAK256 SLOAD PUSH1 0x2 EQ JUMPDEST PUSH2 0x1FDB JUMPI PUSH1 0x40 DUP1 MLOAD PUSH3 0x461BCD PUSH1 0xE5 SHL DUP2 MSTORE PUSH1 0x20 PUSH1 0x4 DUP3 ADD MSTORE PUSH1 0x1B PUSH1 0x24 DUP3 ADD MSTORE PUSH32 0x4D696E657220697320696E207468652077726F6E672073746174650000000000 PUSH1 0x44 DUP3 ADD MSTORE SWAP1 MLOAD SWAP1 DUP2 SWAP1 SUB PUSH1 0x64 ADD SWAP1 REVERT JUMPDEST PUSH32 0xA5AE3E2B97D73FB849EA855D27F073B72815B38452D976BD57E4A157827DADD3 DUP1 SLOAD PUSH1 0x1 SWAP1 DUP2 ADD SWAP1 SWAP2 SSTORE PUSH1 0x40 DUP1 MLOAD DUP1 DUP3 ADD DUP3 MSTORE DUP3 DUP2 MSTORE TIMESTAMP PUSH1 0x20 DUP3 DUP2 ADD SWAP2 DUP3 MSTORE PUSH1 0x1 PUSH1 0x1 PUSH1 0xA0 SHL SUB DUP7 AND PUSH1 0x0 DUP2 DUP2 MSTORE PUSH1 0x44 SWAP1 SWAP3 MSTORE DUP5 DUP3 KECCAK256 SWAP4 MLOAD DUP5 SSTORE SWAP2 MLOAD SWAP3 SWAP1 SWAP5 ADD SWAP2 SWAP1 SWAP2 SSTORE SWAP1 MLOAD SWAP1 SWAP2 PUSH32 0x46D8AB1385F70E5A3673E97C23C764F7600F7ED7A09B6687DEAE7131D51752E2 SWAP2 LOG2 POP JUMP JUMPDEST PUSH1 0x0 DUP2 DUP4 LT PUSH2 0x2079 JUMPI DUP2 PUSH2 0x207B JUMP JUMPDEST DUP3 JUMPDEST SWAP4 SWAP3 POP POP POP JUMP JUMPDEST PUSH1 0x0 DUP2 DUP4 GT PUSH2 0x2079 JUMPI DUP2 PUSH2 0x207B JUMP JUMPDEST PUSH2 0x2099 PUSH2 0x21E5 JUMP JUMPDEST PUSH2 0x20A1 PUSH2 0x21E5 JUMP JUMPDEST PUSH1 0x20 DUP4 ADD MLOAD PUSH1 0x0 DUP1 JUMPDEST PUSH1 0x5 DUP2 LT ISZERO PUSH2 0x2124 JUMPI DUP6 DUP2 PUSH1 0x1 ADD PUSH1 0x33 DUP2 LT PUSH2 0x20C2 JUMPI INVALID JUMPDEST PUSH1 0x20 MUL ADD MLOAD DUP6 DUP3 PUSH1 0x5 DUP2 LT PUSH2 0x20D3 JUMPI INVALID JUMPDEST PUSH1 0x20 MUL ADD MSTORE PUSH1 0x1 DUP2 ADD DUP5 DUP3 PUSH1 0x5 DUP2 LT PUSH2 0x20E8 JUMPI INVALID JUMPDEST PUSH1 0x20 MUL ADD MSTORE DUP3 DUP6 DUP3 PUSH1 0x5 DUP2 LT PUSH2 0x20FA JUMPI INVALID JUMPDEST PUSH1 0x20 MUL ADD MLOAD LT ISZERO PUSH2 0x211C JUMPI DUP5 DUP2 PUSH1 0x5 DUP2 LT PUSH2 0x2111 JUMPI INVALID JUMPDEST PUSH1 0x20 MUL ADD MLOAD SWAP3 POP DUP1 SWAP2 POP JUMPDEST PUSH1 0x1 ADD PUSH2 0x20AA JUMP JUMPDEST POP PUSH1 0x6 JUMPDEST PUSH1 0x33 DUP2 LT ISZERO PUSH2 0x21DD JUMPI DUP3 DUP7 DUP3 PUSH1 0x33 DUP2 LT PUSH2 0x213E JUMPI INVALID JUMPDEST PUSH1 0x20 MUL ADD MLOAD GT ISZERO PUSH2 0x21D5 JUMPI DUP6 DUP2 PUSH1 0x33 DUP2 LT PUSH2 0x2155 JUMPI INVALID JUMPDEST PUSH1 0x20 MUL ADD MLOAD DUP6 DUP4 PUSH1 0x5 DUP2 LT PUSH2 0x2166 JUMPI INVALID JUMPDEST PUSH1 0x20 MUL ADD MSTORE DUP1 DUP5 DUP4 PUSH1 0x5 DUP2 LT PUSH2 0x2178 JUMPI INVALID JUMPDEST PUSH1 0x20 MUL ADD MSTORE DUP6 DUP2 PUSH1 0x33 DUP2 LT PUSH2 0x2189 JUMPI INVALID JUMPDEST PUSH1 0x20 MUL ADD MLOAD SWAP3 POP PUSH1 0x0 JUMPDEST PUSH1 0x5 DUP2 LT ISZERO PUSH2 0x21D3 JUMPI DUP4 DUP7 DUP3 PUSH1 0x5 DUP2 LT PUSH2 0x21A9 JUMPI INVALID JUMPDEST PUSH1 0x20 MUL ADD MLOAD LT ISZERO PUSH2 0x21CB JUMPI DUP6 DUP2 PUSH1 0x5 DUP2 LT PUSH2 0x21C0 JUMPI INVALID JUMPDEST PUSH1 0x20 MUL ADD MLOAD SWAP4 POP DUP1 SWAP3 POP JUMPDEST PUSH1 0x1 ADD PUSH2 0x2193 JUMP JUMPDEST POP JUMPDEST PUSH1 0x1 ADD PUSH2 0x2128 JUMP JUMPDEST POP POP POP SWAP2 POP SWAP2 JUMP JUMPDEST PUSH1 0x40 MLOAD DUP1 PUSH1 0xA0 ADD PUSH1 0x40 MSTORE DUP1 PUSH1 0x5 SWAP1 PUSH1 0x20 DUP3 MUL DUP1 CALLDATASIZE DUP4 CALLDATACOPY POP SWAP2 SWAP3 SWAP2 POP POP JUMP JUMPDEST PUSH1 0x40 MLOAD DUP1 PUSH2 0x120 ADD PUSH1 0x40 MSTORE DUP1 PUSH1 0x9 SWAP1 PUSH1 0x20 DUP3 MUL DUP1 CALLDATASIZE DUP4 CALLDATACOPY POP SWAP2 SWAP3 SWAP2 POP POP JUMP JUMPDEST PUSH1 0x40 MLOAD DUP1 PUSH2 0x660 ADD PUSH1 0x40 MSTORE DUP1 PUSH1 0x33 SWAP1 PUSH1 0x20 DUP3 MUL DUP1 CALLDATASIZE DUP4 CALLDATACOPY POP SWAP2 SWAP3 SWAP2 POP POP JUMP INVALID 0x4D PUSH10 0x6E657220776173206E6F PUSH21 0x206C6F636B656420666F7220776974686472617761 PUSH13 0x42616C616E6365206973206C6F PUSH24 0x6572207468616E207374616B6520616D6F756E7475706461 PUSH21 0x652054656C6C6F722068617320616C726561647920 PUSH3 0x65656E KECCAK256 PUSH19 0x756E4469737075746520686173206265656E20 PUSH2 0x6C72 PUSH6 0x616479206578 PUSH6 0x637574656454 PUSH10 0x6D6520666F7220766F74 PUSH10 0x6E6720666F7220667572 PUSH21 0x68657220646973707574657320686173206E6F7420 PUSH17 0x6173736564A26469706673582212201684 DIFFICULTY PC PUSH16 0x73BB65C547D309D51446212B9281A95C 0x2C 0xFC 0xF7 INVALID ORIGIN SELFBALANCE 0x2F JUMPI 0xC9 0xA9 DUP13 PUSH5 0x736F6C6343 STOP SMOD DIV STOP CALLER "},"methodIdentifiers":{"_allowances(address,address)":"024c2ddd","addresses(bytes32)":"699f200f","balances(address,uint256)":"cbf1304d","bytesVars(bytes32)":"62dd1d2a","currentMiners(uint256)":"1fd22364","decimals()":"313ce567","depositStake()":"0d2d76a2","didMine(bytes32,address)":"63bb82ad","didVote(uint256,address)":"a7c438bc","disputeIdByDisputeHash(bytes32)":"d01f4d9e","disputesById(uint256)":"db085beb","getAddressVars(bytes32)":"133bee5e","getAllDisputeVars(uint256)":"af0b1327","getDisputeIdByDisputeHash(bytes32)":"da379941","getDisputeUintVars(uint256,bytes32)":"7f6fd5d9","getLastNewValueById(uint256)":"3180f8df","getMinedBlockNum(uint256,uint256)":"c775b542","getMinersByRequestIdAndTimestamp(uint256,uint256)":"69026d63","getNewCurrentVariables()":"4049f198","getNewValueCountbyRequestId(uint256)":"46eee1c4","getNewVariablesOnDeck()":"9a7077ab","getRequestIdByRequestQIndex(uint256)":"6173c0b8","getRequestQ()":"b5413029","getRequestUintVars(uint256,bytes32)":"e0ae93c1","getRequestVars(uint256)":"e1eee6d6","getStakerInfo(address)":"733bdef0","getSubmissionsByTimestamp(uint256,uint256)":"11c98512","getTimestampbyRequestIDandIndex(uint256,uint256)":"77fbb663","getTopRequestIDs()":"fe1cd15d","getUintVar(bytes32)":"612c8f7f","isInDispute(uint256,uint256)":"3df0777b","migrated(address)":"4ba0a5ee","minersByChallenge(bytes32,address)":"48b18e54","name()":"06fdde03","newValueTimestamps(uint256)":"438c0aa3","requestIdByQueryHash(bytes32)":"5700242c","requestStakingWithdraw()":"28449c3a","retrieveData(uint256,uint256)":"93fa4915","symbol()":"95d89b41","tallyVotes(uint256)":"4d318b0e","totalSupply()":"18160ddd","uints(bytes32)":"b59e14d4","updateMinDisputeFee()":"90e5b235","updateTellor(uint256)":"f458ab98","withdrawStake()":"bed9d861"}}}}}