{"contracts/bridge/BlobstreamO.sol":{"BlobstreamO":{"abi":[{"inputs":[{"internalType":"uint256","name":"_nonce","type":"uint256"},{"internalType":"uint256","name":"_powerThreshold","type":"uint256"},{"internalType":"bytes32","name":"_validatorSetCheckpoint","type":"bytes32"}],"stateMutability":"nonpayable","type":"constructor"},{"inputs":[],"name":"ECDSAInvalidSignature","type":"error"},{"inputs":[{"internalType":"uint256","name":"length","type":"uint256"}],"name":"ECDSAInvalidSignatureLength","type":"error"},{"inputs":[{"internalType":"bytes32","name":"s","type":"bytes32"}],"name":"ECDSAInvalidSignatureS","type":"error"},{"inputs":[],"name":"InsufficientVotingPower","type":"error"},{"inputs":[],"name":"InvalidSignature","type":"error"},{"inputs":[],"name":"MalformedCurrentValidatorSet","type":"error"},{"inputs":[],"name":"SuppliedValidatorSetInvalid","type":"error"},{"anonymous":false,"inputs":[{"indexed":false,"internalType":"bytes32","name":"_oracleRoot","type":"bytes32"}],"name":"NewOracleRoot","type":"event"},{"anonymous":false,"inputs":[{"indexed":true,"internalType":"uint256","name":"_nonce","type":"uint256"},{"indexed":false,"internalType":"uint256","name":"_powerThreshold","type":"uint256"},{"indexed":false,"internalType":"bytes32","name":"_validatorSetHash","type":"bytes32"}],"name":"ValidatorSetUpdated","type":"event"},{"inputs":[],"name":"currentRelayedBlockHeight","outputs":[{"internalType":"uint256","name":"","type":"uint256"}],"stateMutability":"view","type":"function"},{"inputs":[{"internalType":"bytes32","name":"","type":"bytes32"}],"name":"isOracleRoot","outputs":[{"internalType":"bool","name":"","type":"bool"}],"stateMutability":"view","type":"function"},{"inputs":[],"name":"lastValidatorSetCheckpoint","outputs":[{"internalType":"bytes32","name":"","type":"bytes32"}],"stateMutability":"view","type":"function"},{"inputs":[{"internalType":"uint256","name":"","type":"uint256"}],"name":"oracleRoots","outputs":[{"internalType":"bytes32","name":"","type":"bytes32"}],"stateMutability":"view","type":"function"},{"inputs":[],"name":"powerThreshold","outputs":[{"internalType":"uint256","name":"","type":"uint256"}],"stateMutability":"view","type":"function"},{"inputs":[{"internalType":"bytes32","name":"_oracleRoot","type":"bytes32"},{"internalType":"uint256","name":"_blockHeight","type":"uint256"},{"components":[{"internalType":"address","name":"addr","type":"address"},{"internalType":"uint256","name":"power","type":"uint256"}],"internalType":"struct Validator[]","name":"_currentValidatorSet","type":"tuple[]"},{"components":[{"internalType":"uint8","name":"v","type":"uint8"},{"internalType":"bytes32","name":"r","type":"bytes32"},{"internalType":"bytes32","name":"s","type":"bytes32"}],"internalType":"struct Signature[]","name":"_sigs","type":"tuple[]"}],"name":"submitOracleRoot","outputs":[],"stateMutability":"nonpayable","type":"function"},{"inputs":[{"internalType":"bytes32","name":"_newValidatorSetHash","type":"bytes32"},{"internalType":"uint64","name":"_newPowerThreshold","type":"uint64"},{"components":[{"internalType":"address","name":"addr","type":"address"},{"internalType":"uint256","name":"power","type":"uint256"}],"internalType":"struct Validator[]","name":"_currentValidatorSet","type":"tuple[]"},{"components":[{"internalType":"uint8","name":"v","type":"uint8"},{"internalType":"bytes32","name":"r","type":"bytes32"},{"internalType":"bytes32","name":"s","type":"bytes32"}],"internalType":"struct Signature[]","name":"_sigs","type":"tuple[]"}],"name":"updateValidatorSet","outputs":[],"stateMutability":"nonpayable","type":"function"},{"inputs":[],"name":"validatorNonce","outputs":[{"internalType":"uint256","name":"","type":"uint256"}],"stateMutability":"view","type":"function"},{"inputs":[{"internalType":"bytes32","name":"_oracleRoot","type":"bytes32"},{"components":[{"internalType":"uint256","name":"height","type":"uint256"},{"internalType":"bytes32","name":"dataRoot","type":"bytes32"}],"internalType":"struct DataRootTuple","name":"_tuple","type":"tuple"},{"components":[{"internalType":"bytes32[]","name":"sideNodes","type":"bytes32[]"},{"internalType":"uint256","name":"key","type":"uint256"},{"internalType":"uint256","name":"numLeaves","type":"uint256"}],"internalType":"struct BinaryMerkleProof","name":"_proof","type":"tuple"}],"name":"verifyAttestation","outputs":[{"internalType":"bool","name":"","type":"bool"}],"stateMutability":"view","type":"function"}],"evm":{"bytecode":{"linkReferences":{},"object":"60806040523480156200001157600080fd5b50604051620021b8380380620021b88339818101604052810190620000379190620000d0565b8260028190555080600081905550816001819055505050506200012c565b600080fd5b6000819050919050565b6200006f816200005a565b81146200007b57600080fd5b50565b6000815190506200008f8162000064565b92915050565b6000819050919050565b620000aa8162000095565b8114620000b657600080fd5b50565b600081519050620000ca816200009f565b92915050565b600080600060608486031215620000ec57620000eb62000055565b5b6000620000fc868287016200007e565b93505060206200010f868287016200007e565b92505060406200012286828701620000b9565b9150509250925092565b61207c806200013c6000396000f3fe608060405234801561001057600080fd5b50600436106100935760003560e01c8063af082a7d11610066578063af082a7d14610130578063ba95ec271461014e578063d8256ec71461016c578063e17a684f1461018a578063e5e57eb5146101a857610093565b806331b53e521461009857806391f6b44b146100c857806393319d6e146100f8578063ae00249514610114575b600080fd5b6100b260048036038101906100ad9190611134565b6101d8565b6040516100bf919061117c565b60405180910390f35b6100e260048036038101906100dd91906111cd565b6101f8565b6040516100ef9190611209565b60405180910390f35b610112600480360381019061010d919061131f565b610210565b005b61012e600480360381019061012991906113c6565b610347565b005b610138610498565b6040516101459190611209565b60405180910390f35b61015661049e565b604051610163919061147c565b60405180910390f35b6101746104a4565b604051610181919061147c565b60405180910390f35b6101926104aa565b60405161019f919061147c565b60405180910390f35b6101c260048036038101906101bd91906116c0565b6104b0565b6040516101cf919061117c565b60405180910390f35b60056020528060005260406000206000915054906101000a900460ff1681565b60046020528060005260406000206000915090505481565b81819050848490501461024f576040517fc6617b7b00000000000000000000000000000000000000000000000000000000815260040160405180910390fd5b600061025b858561050f565b905060005461026f60025460015484610542565b146102a6576040517f177b5d9200000000000000000000000000000000000000000000000000000000815260040160405180910390fd5b60006102bf6002548867ffffffffffffffff168a610542565b90506102d1868686868560015461059d565b806000819055508667ffffffffffffffff16600181905550600260008154809291906102fc9061175e565b91905055506002547fe304b71f81a1aaf6d714401de28ba1ebdbb5ff9c5fee59ef2a6eb984f9e8da7e888a6040516103359291906117e1565b60405180910390a25050505050505050565b818190508484905014610386576040517fc6617b7b00000000000000000000000000000000000000000000000000000000815260040160405180910390fd5b600354851161039457600080fd5b8460038190555060006103a7858561050f565b90506000546103bb60025460015484610542565b146103f2576040517f177b5d9200000000000000000000000000000000000000000000000000000000815260040160405180910390fd5b6000610401600254888a61073c565b9050610413868686868560015461059d565b6001600560008a815260200190815260200160002060006101000a81548160ff0219169083151502179055508760046000898152602001908152602001600020819055507ffc8ea9eff66c3609bd97a4e7f00008b2fd44294c5e1996f6954fedec62c68afa886040516104869190611209565b60405180910390a15050505050505050565b60005481565b60015481565b60035481565b60025481565b60006005600085815260200190815260200160002060009054906101000a900460ff166104dc57600080fd5b6105068483856040516020016104f29190611857565b604051602081830303815290604052610797565b90509392505050565b600082826040516020016105249291906119f4565b60405160208183030381529060405280519060200120905092915050565b60007f636865636b706f696e740000000000000000000000000000000000000000000060001b84848460405160200161057e9493929190611a18565b6040516020818303038152906040528051906020012090509392505050565b6000805b878790508110156106f8576000801b8686838181106105c3576105c2611a5d565b5b905060600201602001351480156105f857506000801b8686838181106105ec576105eb611a5d565b5b90506060020160400135145b80156106315750600086868381811061061457610613611a5d565b5b905060600201600001602081019061062c9190611ac5565b60ff16145b6106eb5761068288888381811061064b5761064a611a5d565b5b90506040020160000160208101906106639190611af2565b8588888581811061067757610676611a5d565b5b905060600201610865565b6106b8576040517f8baa579f00000000000000000000000000000000000000000000000000000000815260040160405180910390fd5b8787828181106106cb576106ca611a5d565b5b90506040020160200135826106e09190611b1f565b9150828210156106f8575b80806001019150506105a1565b5081811015610733576040517fcabeb65500000000000000000000000000000000000000000000000000000000815260040160405180910390fd5b50505050505050565b60007f7472616e73616374696f6e42617463680000000000000000000000000000000060001b8484846040516020016107789493929190611a18565b6040516020818303038152906040528051906020012090509392505050565b600060018360400151116107c0576000836000015151146107bb576000905061085e565b6107e7565b6107d2836020015184604001516108d1565b836000015151146107e6576000905061085e565b5b82604001518360200151106107ff576000905061085e565b600061080a83610961565b905060008460000151510361083a5760018460400151036108305780851491505061085e565b600091505061085e565b6000610854856020015186604001518488600001516109df565b9050858114925050505b9392505050565b60008061087184610b9d565b90506108998184600001602081019061088a9190611ac5565b85602001358660400135610bd3565b73ffffffffffffffffffffffffffffffffffffffff168573ffffffffffffffffffffffffffffffffffffffff16149150509392505050565b60006108dc82610c03565b6101006108e99190611b53565b905060006001826108fa9190611b53565b6001901b905060018161090d9190611b53565b8411610919575061095b565b6001810361092b57600191505061095b565b61094b818561093a9190611b53565b82856109469190611b53565b6108d1565b60016109579190611b1f565b9150505b92915050565b60006002600060f81b8360405160200161097c929190611c45565b6040516020818303038152906040526040516109989190611c6d565b602060405180830381855afa1580156109b5573d6000803e3d6000fd5b5050506040513d601f19601f820116820180604052508101906109d89190611c99565b9050919050565b6000808403610a23576040517f08c379a0000000000000000000000000000000000000000000000000000000008152600401610a1a90611d49565b60405180910390fd5b60018403610a77576000825114610a6f576040517f08c379a0000000000000000000000000000000000000000000000000000000008152600401610a6690611db5565b60405180910390fd5b829050610b95565b6000825103610abb576040517f08c379a0000000000000000000000000000000000000000000000000000000008152600401610ab290611e21565b60405180910390fd5b6000610ac685610c3b565b90506000610ae384600060018751610ade9190611b53565b610c86565b905081871015610b38576000610afb888488856109df565b9050610b2e818660018851610b109190611b53565b81518110610b2157610b20611a5d565b5b6020026020010151610dde565b9350505050610b95565b6000610b5c8389610b499190611b53565b8489610b559190611b53565b88856109df565b9050610b8f8560018751610b709190611b53565b81518110610b8157610b80611a5d565b5b602002602001015182610dde565b93505050505b949350505050565b60007f19457468657265756d205369676e6564204d6573736167653a0a33320000000060005281601c52603c6000209050919050565b600080600080610be588888888610e5f565b925092509250610bf58282610f53565b829350505050949350505050565b60005b81816001901b1015610c2657600181610c1f9190611b1f565b9050610c06565b80610100610c349190611b53565b9050919050565b60006001821015610c4b57600080fd5b6000610c56836110b7565b90506000600182610c679190611b53565b6001901b9050838103610c7c57600181901c90505b8092505050919050565b606081831115610ccb576040517f08c379a0000000000000000000000000000000000000000000000000000000008152600401610cc290611eb3565b60405180910390fd5b8351831180610cda5750835182115b15610d1a576040517f08c379a0000000000000000000000000000000000000000000000000000000008152600401610d1190611f45565b60405180910390fd5b60008383610d289190611b53565b67ffffffffffffffff811115610d4157610d406114ad565b5b604051908082528060200260200182016040528015610d6f5781602001602082028036833780820191505090505b50905060008490505b83811015610dd257858181518110610d9357610d92611a5d565b5b6020026020010151828683610da89190611b53565b81518110610db957610db8611a5d565b5b6020026020010181815250508080600101915050610d78565b50809150509392505050565b60006002600160f81b8484604051602001610dfb93929190611f86565b604051602081830303815290604052604051610e179190611c6d565b602060405180830381855afa158015610e34573d6000803e3d6000fd5b5050506040513d601f19601f82011682018060405250810190610e579190611c99565b905092915050565b60008060007f7fffffffffffffffffffffffffffffff5d576e7357a4501ddfe92f46681b20a08460001c1115610e9f576000600385925092509250610f49565b600060018888888860405160008152602001604052604051610ec49493929190611fd2565b6020604051602081039080840390855afa158015610ee6573d6000803e3d6000fd5b505050602060405103519050600073ffffffffffffffffffffffffffffffffffffffff168173ffffffffffffffffffffffffffffffffffffffff1603610f3a57600060016000801b93509350935050610f49565b8060008060001b935093509350505b9450945094915050565b60006003811115610f6757610f66612017565b5b826003811115610f7a57610f79612017565b5b03156110b35760016003811115610f9457610f93612017565b5b826003811115610fa757610fa6612017565b5b03610fde576040517ff645eedf00000000000000000000000000000000000000000000000000000000815260040160405180910390fd5b60026003811115610ff257610ff1612017565b5b82600381111561100557611004612017565b5b0361104a578060001c6040517ffce698f7000000000000000000000000000000000000000000000000000000008152600401611041919061147c565b60405180910390fd5b60038081111561105d5761105c612017565b5b8260038111156110705761106f612017565b5b036110b257806040517fd78bce0c0000000000000000000000000000000000000000000000000000000081526004016110a99190611209565b60405180910390fd5b5b5050565b600080600090505b600083146110e15780806110d29061175e565b915050600183901c92506110bf565b80915050919050565b6000604051905090565b600080fd5b600080fd5b6000819050919050565b611111816110fe565b811461111c57600080fd5b50565b60008135905061112e81611108565b92915050565b60006020828403121561114a576111496110f4565b5b60006111588482850161111f565b91505092915050565b60008115159050919050565b61117681611161565b82525050565b6000602082019050611191600083018461116d565b92915050565b6000819050919050565b6111aa81611197565b81146111b557600080fd5b50565b6000813590506111c7816111a1565b92915050565b6000602082840312156111e3576111e26110f4565b5b60006111f1848285016111b8565b91505092915050565b611203816110fe565b82525050565b600060208201905061121e60008301846111fa565b92915050565b600067ffffffffffffffff82169050919050565b61124181611224565b811461124c57600080fd5b50565b60008135905061125e81611238565b92915050565b600080fd5b600080fd5b600080fd5b60008083601f84011261128957611288611264565b5b8235905067ffffffffffffffff8111156112a6576112a5611269565b5b6020830191508360408202830111156112c2576112c161126e565b5b9250929050565b60008083601f8401126112df576112de611264565b5b8235905067ffffffffffffffff8111156112fc576112fb611269565b5b6020830191508360608202830111156113185761131761126e565b5b9250929050565b6000806000806000806080878903121561133c5761133b6110f4565b5b600061134a89828a0161111f565b965050602061135b89828a0161124f565b955050604087013567ffffffffffffffff81111561137c5761137b6110f9565b5b61138889828a01611273565b9450945050606087013567ffffffffffffffff8111156113ab576113aa6110f9565b5b6113b789828a016112c9565b92509250509295509295509295565b600080600080600080608087890312156113e3576113e26110f4565b5b60006113f189828a0161111f565b965050602061140289828a016111b8565b955050604087013567ffffffffffffffff811115611423576114226110f9565b5b61142f89828a01611273565b9450945050606087013567ffffffffffffffff811115611452576114516110f9565b5b61145e89828a016112c9565b92509250509295509295509295565b61147681611197565b82525050565b6000602082019050611491600083018461146d565b92915050565b600080fd5b6000601f19601f8301169050919050565b7f4e487b7100000000000000000000000000000000000000000000000000000000600052604160045260246000fd5b6114e58261149c565b810181811067ffffffffffffffff82111715611504576115036114ad565b5b80604052505050565b60006115176110ea565b905061152382826114dc565b919050565b600080fd5b60006040828403121561154357611542611497565b5b61154d604061150d565b9050600061155d848285016111b8565b60008301525060206115718482850161111f565b60208301525092915050565b600067ffffffffffffffff821115611598576115976114ad565b5b602082029050602081019050919050565b60006115bc6115b78461157d565b61150d565b905080838252602082019050602084028301858111156115df576115de61126e565b5b835b8181101561160857806115f4888261111f565b8452602084019350506020810190506115e1565b5050509392505050565b600082601f83011261162757611626611264565b5b81356116378482602086016115a9565b91505092915050565b60006060828403121561165657611655611497565b5b611660606061150d565b9050600082013567ffffffffffffffff8111156116805761167f611528565b5b61168c84828501611612565b60008301525060206116a0848285016111b8565b60208301525060406116b4848285016111b8565b60408301525092915050565b6000806000608084860312156116d9576116d86110f4565b5b60006116e78682870161111f565b93505060206116f88682870161152d565b925050606084013567ffffffffffffffff811115611719576117186110f9565b5b61172586828701611640565b9150509250925092565b7f4e487b7100000000000000000000000000000000000000000000000000000000600052601160045260246000fd5b600061176982611197565b91507fffffffffffffffffffffffffffffffffffffffffffffffffffffffffffffffff820361179b5761179a61172f565b5b600182019050919050565b6000819050919050565b60006117cb6117c66117c184611224565b6117a6565b611197565b9050919050565b6117db816117b0565b82525050565b60006040820190506117f660008301856117d2565b61180360208301846111fa565b9392505050565b61181381611197565b82525050565b611822816110fe565b82525050565b60408201600082015161183e600085018261180a565b5060208201516118516020850182611819565b50505050565b600060408201905061186c6000830184611828565b92915050565b600082825260208201905092915050565b6000819050919050565b600073ffffffffffffffffffffffffffffffffffffffff82169050919050565b60006118b88261188d565b9050919050565b6118c8816118ad565b81146118d357600080fd5b50565b6000813590506118e5816118bf565b92915050565b60006118fa60208401846118d6565b905092915050565b61190b816118ad565b82525050565b600061192060208401846111b8565b905092915050565b6040820161193960008301836118eb565b6119466000850182611902565b506119546020830183611911565b611961602085018261180a565b50505050565b60006119738383611928565b60408301905092915050565b600082905092915050565b6000604082019050919050565b60006119a38385611872565b93506119ae82611883565b8060005b858110156119e7576119c4828461197f565b6119ce8882611967565b97506119d98361198a565b9250506001810190506119b2565b5085925050509392505050565b60006020820190508181036000830152611a0f818486611997565b90509392505050565b6000608082019050611a2d60008301876111fa565b611a3a602083018661146d565b611a47604083018561146d565b611a5460608301846111fa565b95945050505050565b7f4e487b7100000000000000000000000000000000000000000000000000000000600052603260045260246000fd5b600060ff82169050919050565b611aa281611a8c565b8114611aad57600080fd5b50565b600081359050611abf81611a99565b92915050565b600060208284031215611adb57611ada6110f4565b5b6000611ae984828501611ab0565b91505092915050565b600060208284031215611b0857611b076110f4565b5b6000611b16848285016118d6565b91505092915050565b6000611b2a82611197565b9150611b3583611197565b9250828201905080821115611b4d57611b4c61172f565b5b92915050565b6000611b5e82611197565b9150611b6983611197565b9250828203905081811115611b8157611b8061172f565b5b92915050565b60007fff0000000000000000000000000000000000000000000000000000000000000082169050919050565b6000819050919050565b611bce611bc982611b87565b611bb3565b82525050565b600081519050919050565b600081905092915050565b60005b83811015611c08578082015181840152602081019050611bed565b60008484015250505050565b6000611c1f82611bd4565b611c298185611bdf565b9350611c39818560208601611bea565b80840191505092915050565b6000611c518285611bbd565b600182019150611c618284611c14565b91508190509392505050565b6000611c798284611c14565b915081905092915050565b600081519050611c9381611108565b92915050565b600060208284031215611caf57611cae6110f4565b5b6000611cbd84828501611c84565b91505092915050565b600082825260208201905092915050565b7f63616e6e6f742063616c6c20636f6d70757465526f6f7448617368207769746860008201527f2030206e756d626572206f66206c656176657300000000000000000000000000602082015250565b6000611d33603383611cc6565b9150611d3e82611cd7565b604082019050919050565b60006020820190508181036000830152611d6281611d26565b9050919050565b7f756e657870656374656420696e6e657220686173686573000000000000000000600082015250565b6000611d9f601783611cc6565b9150611daa82611d69565b602082019050919050565b60006020820190508181036000830152611dce81611d92565b9050919050565b7f6578706563746564206174206c65617374206f6e6520696e6e65722068617368600082015250565b6000611e0b602083611cc6565b9150611e1682611dd5565b602082019050919050565b60006020820190508181036000830152611e3a81611dfe565b9050919050565b7f496e76616c69642072616e67653a205f626567696e206973206772656174657260008201527f207468616e205f656e6400000000000000000000000000000000000000000000602082015250565b6000611e9d602a83611cc6565b9150611ea882611e41565b604082019050919050565b60006020820190508181036000830152611ecc81611e90565b9050919050565b7f496e76616c69642072616e67653a205f626567696e206f72205f656e6420617260008201527f65206f7574206f6620626f756e64730000000000000000000000000000000000602082015250565b6000611f2f602f83611cc6565b9150611f3a82611ed3565b604082019050919050565b60006020820190508181036000830152611f5e81611f22565b9050919050565b6000819050919050565b611f80611f7b826110fe565b611f65565b82525050565b6000611f928286611bbd565b600182019150611fa28285611f6f565b602082019150611fb28284611f6f565b602082019150819050949350505050565b611fcc81611a8c565b82525050565b6000608082019050611fe760008301876111fa565b611ff46020830186611fc3565b61200160408301856111fa565b61200e60608301846111fa565b95945050505050565b7f4e487b7100000000000000000000000000000000000000000000000000000000600052602160045260246000fdfea2646970667358221220c101783ffc112cae411109a5c08ed52acc3829be18e687b86cebc6662c8fbac264736f6c63430008160033","opcodes":"PUSH1 0x80 PUSH1 0x40 MSTORE CALLVALUE DUP1 ISZERO PUSH3 0x11 JUMPI PUSH1 0x0 DUP1 REVERT JUMPDEST POP PUSH1 0x40 MLOAD PUSH3 0x21B8 CODESIZE SUB DUP1 PUSH3 0x21B8 DUP4 CODECOPY DUP2 DUP2 ADD PUSH1 0x40 MSTORE DUP2 ADD SWAP1 PUSH3 0x37 SWAP2 SWAP1 PUSH3 0xD0 JUMP JUMPDEST DUP3 PUSH1 0x2 DUP2 SWAP1 SSTORE POP DUP1 PUSH1 0x0 DUP2 SWAP1 SSTORE POP DUP2 PUSH1 0x1 DUP2 SWAP1 SSTORE POP POP POP POP PUSH3 0x12C JUMP JUMPDEST PUSH1 0x0 DUP1 REVERT JUMPDEST PUSH1 0x0 DUP2 SWAP1 POP SWAP2 SWAP1 POP JUMP JUMPDEST PUSH3 0x6F DUP2 PUSH3 0x5A JUMP JUMPDEST DUP2 EQ PUSH3 0x7B JUMPI PUSH1 0x0 DUP1 REVERT JUMPDEST POP JUMP JUMPDEST PUSH1 0x0 DUP2 MLOAD SWAP1 POP PUSH3 0x8F DUP2 PUSH3 0x64 JUMP JUMPDEST SWAP3 SWAP2 POP POP JUMP JUMPDEST PUSH1 0x0 DUP2 SWAP1 POP SWAP2 SWAP1 POP JUMP JUMPDEST PUSH3 0xAA DUP2 PUSH3 0x95 JUMP JUMPDEST DUP2 EQ PUSH3 0xB6 JUMPI PUSH1 0x0 DUP1 REVERT JUMPDEST POP JUMP JUMPDEST PUSH1 0x0 DUP2 MLOAD SWAP1 POP PUSH3 0xCA DUP2 PUSH3 0x9F JUMP JUMPDEST SWAP3 SWAP2 POP POP JUMP JUMPDEST PUSH1 0x0 DUP1 PUSH1 0x0 PUSH1 0x60 DUP5 DUP7 SUB SLT ISZERO PUSH3 0xEC JUMPI PUSH3 0xEB PUSH3 0x55 JUMP JUMPDEST JUMPDEST PUSH1 0x0 PUSH3 0xFC DUP7 DUP3 DUP8 ADD PUSH3 0x7E JUMP JUMPDEST SWAP4 POP POP PUSH1 0x20 PUSH3 0x10F DUP7 DUP3 DUP8 ADD PUSH3 0x7E JUMP JUMPDEST SWAP3 POP POP PUSH1 0x40 PUSH3 0x122 DUP7 DUP3 DUP8 ADD PUSH3 0xB9 JUMP JUMPDEST SWAP2 POP POP SWAP3 POP SWAP3 POP SWAP3 JUMP JUMPDEST PUSH2 0x207C DUP1 PUSH3 0x13C PUSH1 0x0 CODECOPY PUSH1 0x0 RETURN INVALID PUSH1 0x80 PUSH1 0x40 MSTORE CALLVALUE DUP1 ISZERO PUSH2 0x10 JUMPI PUSH1 0x0 DUP1 REVERT JUMPDEST POP PUSH1 0x4 CALLDATASIZE LT PUSH2 0x93 JUMPI PUSH1 0x0 CALLDATALOAD PUSH1 0xE0 SHR DUP1 PUSH4 0xAF082A7D GT PUSH2 0x66 JUMPI DUP1 PUSH4 0xAF082A7D EQ PUSH2 0x130 JUMPI DUP1 PUSH4 0xBA95EC27 EQ PUSH2 0x14E JUMPI DUP1 PUSH4 0xD8256EC7 EQ PUSH2 0x16C JUMPI DUP1 PUSH4 0xE17A684F EQ PUSH2 0x18A JUMPI DUP1 PUSH4 0xE5E57EB5 EQ PUSH2 0x1A8 JUMPI PUSH2 0x93 JUMP JUMPDEST DUP1 PUSH4 0x31B53E52 EQ PUSH2 0x98 JUMPI DUP1 PUSH4 0x91F6B44B EQ PUSH2 0xC8 JUMPI DUP1 PUSH4 0x93319D6E EQ PUSH2 0xF8 JUMPI DUP1 PUSH4 0xAE002495 EQ PUSH2 0x114 JUMPI JUMPDEST PUSH1 0x0 DUP1 REVERT JUMPDEST PUSH2 0xB2 PUSH1 0x4 DUP1 CALLDATASIZE SUB DUP2 ADD SWAP1 PUSH2 0xAD SWAP2 SWAP1 PUSH2 0x1134 JUMP JUMPDEST PUSH2 0x1D8 JUMP JUMPDEST PUSH1 0x40 MLOAD PUSH2 0xBF SWAP2 SWAP1 PUSH2 0x117C JUMP JUMPDEST PUSH1 0x40 MLOAD DUP1 SWAP2 SUB SWAP1 RETURN JUMPDEST PUSH2 0xE2 PUSH1 0x4 DUP1 CALLDATASIZE SUB DUP2 ADD SWAP1 PUSH2 0xDD SWAP2 SWAP1 PUSH2 0x11CD JUMP JUMPDEST PUSH2 0x1F8 JUMP JUMPDEST PUSH1 0x40 MLOAD PUSH2 0xEF SWAP2 SWAP1 PUSH2 0x1209 JUMP JUMPDEST PUSH1 0x40 MLOAD DUP1 SWAP2 SUB SWAP1 RETURN JUMPDEST PUSH2 0x112 PUSH1 0x4 DUP1 CALLDATASIZE SUB DUP2 ADD SWAP1 PUSH2 0x10D SWAP2 SWAP1 PUSH2 0x131F JUMP JUMPDEST PUSH2 0x210 JUMP JUMPDEST STOP JUMPDEST PUSH2 0x12E PUSH1 0x4 DUP1 CALLDATASIZE SUB DUP2 ADD SWAP1 PUSH2 0x129 SWAP2 SWAP1 PUSH2 0x13C6 JUMP JUMPDEST PUSH2 0x347 JUMP JUMPDEST STOP JUMPDEST PUSH2 0x138 PUSH2 0x498 JUMP JUMPDEST PUSH1 0x40 MLOAD PUSH2 0x145 SWAP2 SWAP1 PUSH2 0x1209 JUMP JUMPDEST PUSH1 0x40 MLOAD DUP1 SWAP2 SUB SWAP1 RETURN JUMPDEST PUSH2 0x156 PUSH2 0x49E JUMP JUMPDEST PUSH1 0x40 MLOAD PUSH2 0x163 SWAP2 SWAP1 PUSH2 0x147C JUMP JUMPDEST PUSH1 0x40 MLOAD DUP1 SWAP2 SUB SWAP1 RETURN JUMPDEST PUSH2 0x174 PUSH2 0x4A4 JUMP JUMPDEST PUSH1 0x40 MLOAD PUSH2 0x181 SWAP2 SWAP1 PUSH2 0x147C JUMP JUMPDEST PUSH1 0x40 MLOAD DUP1 SWAP2 SUB SWAP1 RETURN JUMPDEST PUSH2 0x192 PUSH2 0x4AA JUMP JUMPDEST PUSH1 0x40 MLOAD PUSH2 0x19F SWAP2 SWAP1 PUSH2 0x147C JUMP JUMPDEST PUSH1 0x40 MLOAD DUP1 SWAP2 SUB SWAP1 RETURN JUMPDEST PUSH2 0x1C2 PUSH1 0x4 DUP1 CALLDATASIZE SUB DUP2 ADD SWAP1 PUSH2 0x1BD SWAP2 SWAP1 PUSH2 0x16C0 JUMP JUMPDEST PUSH2 0x4B0 JUMP JUMPDEST PUSH1 0x40 MLOAD PUSH2 0x1CF SWAP2 SWAP1 PUSH2 0x117C JUMP JUMPDEST PUSH1 0x40 MLOAD DUP1 SWAP2 SUB SWAP1 RETURN JUMPDEST PUSH1 0x5 PUSH1 0x20 MSTORE DUP1 PUSH1 0x0 MSTORE PUSH1 0x40 PUSH1 0x0 KECCAK256 PUSH1 0x0 SWAP2 POP SLOAD SWAP1 PUSH2 0x100 EXP SWAP1 DIV PUSH1 0xFF AND DUP2 JUMP JUMPDEST PUSH1 0x4 PUSH1 0x20 MSTORE DUP1 PUSH1 0x0 MSTORE PUSH1 0x40 PUSH1 0x0 KECCAK256 PUSH1 0x0 SWAP2 POP SWAP1 POP SLOAD DUP2 JUMP JUMPDEST DUP2 DUP2 SWAP1 POP DUP5 DUP5 SWAP1 POP EQ PUSH2 0x24F JUMPI PUSH1 0x40 MLOAD PUSH32 0xC6617B7B00000000000000000000000000000000000000000000000000000000 DUP2 MSTORE PUSH1 0x4 ADD PUSH1 0x40 MLOAD DUP1 SWAP2 SUB SWAP1 REVERT JUMPDEST PUSH1 0x0 PUSH2 0x25B DUP6 DUP6 PUSH2 0x50F JUMP JUMPDEST SWAP1 POP PUSH1 0x0 SLOAD PUSH2 0x26F PUSH1 0x2 SLOAD PUSH1 0x1 SLOAD DUP5 PUSH2 0x542 JUMP JUMPDEST EQ PUSH2 0x2A6 JUMPI PUSH1 0x40 MLOAD PUSH32 0x177B5D9200000000000000000000000000000000000000000000000000000000 DUP2 MSTORE PUSH1 0x4 ADD PUSH1 0x40 MLOAD DUP1 SWAP2 SUB SWAP1 REVERT JUMPDEST PUSH1 0x0 PUSH2 0x2BF PUSH1 0x2 SLOAD DUP9 PUSH8 0xFFFFFFFFFFFFFFFF AND DUP11 PUSH2 0x542 JUMP JUMPDEST SWAP1 POP PUSH2 0x2D1 DUP7 DUP7 DUP7 DUP7 DUP6 PUSH1 0x1 SLOAD PUSH2 0x59D JUMP JUMPDEST DUP1 PUSH1 0x0 DUP2 SWAP1 SSTORE POP DUP7 PUSH8 0xFFFFFFFFFFFFFFFF AND PUSH1 0x1 DUP2 SWAP1 SSTORE POP PUSH1 0x2 PUSH1 0x0 DUP2 SLOAD DUP1 SWAP3 SWAP2 SWAP1 PUSH2 0x2FC SWAP1 PUSH2 0x175E JUMP JUMPDEST SWAP2 SWAP1 POP SSTORE POP PUSH1 0x2 SLOAD PUSH32 0xE304B71F81A1AAF6D714401DE28BA1EBDBB5FF9C5FEE59EF2A6EB984F9E8DA7E DUP9 DUP11 PUSH1 0x40 MLOAD PUSH2 0x335 SWAP3 SWAP2 SWAP1 PUSH2 0x17E1 JUMP JUMPDEST PUSH1 0x40 MLOAD DUP1 SWAP2 SUB SWAP1 LOG2 POP POP POP POP POP POP POP POP JUMP JUMPDEST DUP2 DUP2 SWAP1 POP DUP5 DUP5 SWAP1 POP EQ PUSH2 0x386 JUMPI PUSH1 0x40 MLOAD PUSH32 0xC6617B7B00000000000000000000000000000000000000000000000000000000 DUP2 MSTORE PUSH1 0x4 ADD PUSH1 0x40 MLOAD DUP1 SWAP2 SUB SWAP1 REVERT JUMPDEST PUSH1 0x3 SLOAD DUP6 GT PUSH2 0x394 JUMPI PUSH1 0x0 DUP1 REVERT JUMPDEST DUP5 PUSH1 0x3 DUP2 SWAP1 SSTORE POP PUSH1 0x0 PUSH2 0x3A7 DUP6 DUP6 PUSH2 0x50F JUMP JUMPDEST SWAP1 POP PUSH1 0x0 SLOAD PUSH2 0x3BB PUSH1 0x2 SLOAD PUSH1 0x1 SLOAD DUP5 PUSH2 0x542 JUMP JUMPDEST EQ PUSH2 0x3F2 JUMPI PUSH1 0x40 MLOAD PUSH32 0x177B5D9200000000000000000000000000000000000000000000000000000000 DUP2 MSTORE PUSH1 0x4 ADD PUSH1 0x40 MLOAD DUP1 SWAP2 SUB SWAP1 REVERT JUMPDEST PUSH1 0x0 PUSH2 0x401 PUSH1 0x2 SLOAD DUP9 DUP11 PUSH2 0x73C JUMP JUMPDEST SWAP1 POP PUSH2 0x413 DUP7 DUP7 DUP7 DUP7 DUP6 PUSH1 0x1 SLOAD PUSH2 0x59D JUMP JUMPDEST PUSH1 0x1 PUSH1 0x5 PUSH1 0x0 DUP11 DUP2 MSTORE PUSH1 0x20 ADD SWAP1 DUP2 MSTORE PUSH1 0x20 ADD PUSH1 0x0 KECCAK256 PUSH1 0x0 PUSH2 0x100 EXP DUP2 SLOAD DUP2 PUSH1 0xFF MUL NOT AND SWAP1 DUP4 ISZERO ISZERO MUL OR SWAP1 SSTORE POP DUP8 PUSH1 0x4 PUSH1 0x0 DUP10 DUP2 MSTORE PUSH1 0x20 ADD SWAP1 DUP2 MSTORE PUSH1 0x20 ADD PUSH1 0x0 KECCAK256 DUP2 SWAP1 SSTORE POP PUSH32 0xFC8EA9EFF66C3609BD97A4E7F00008B2FD44294C5E1996F6954FEDEC62C68AFA DUP9 PUSH1 0x40 MLOAD PUSH2 0x486 SWAP2 SWAP1 PUSH2 0x1209 JUMP JUMPDEST PUSH1 0x40 MLOAD DUP1 SWAP2 SUB SWAP1 LOG1 POP POP POP POP POP POP POP POP JUMP JUMPDEST PUSH1 0x0 SLOAD DUP2 JUMP JUMPDEST PUSH1 0x1 SLOAD DUP2 JUMP JUMPDEST PUSH1 0x3 SLOAD DUP2 JUMP JUMPDEST PUSH1 0x2 SLOAD DUP2 JUMP JUMPDEST PUSH1 0x0 PUSH1 0x5 PUSH1 0x0 DUP6 DUP2 MSTORE PUSH1 0x20 ADD SWAP1 DUP2 MSTORE PUSH1 0x20 ADD PUSH1 0x0 KECCAK256 PUSH1 0x0 SWAP1 SLOAD SWAP1 PUSH2 0x100 EXP SWAP1 DIV PUSH1 0xFF AND PUSH2 0x4DC JUMPI PUSH1 0x0 DUP1 REVERT JUMPDEST PUSH2 0x506 DUP5 DUP4 DUP6 PUSH1 0x40 MLOAD PUSH1 0x20 ADD PUSH2 0x4F2 SWAP2 SWAP1 PUSH2 0x1857 JUMP JUMPDEST PUSH1 0x40 MLOAD PUSH1 0x20 DUP2 DUP4 SUB SUB DUP2 MSTORE SWAP1 PUSH1 0x40 MSTORE PUSH2 0x797 JUMP JUMPDEST SWAP1 POP SWAP4 SWAP3 POP POP POP JUMP JUMPDEST PUSH1 0x0 DUP3 DUP3 PUSH1 0x40 MLOAD PUSH1 0x20 ADD PUSH2 0x524 SWAP3 SWAP2 SWAP1 PUSH2 0x19F4 JUMP JUMPDEST PUSH1 0x40 MLOAD PUSH1 0x20 DUP2 DUP4 SUB SUB DUP2 MSTORE SWAP1 PUSH1 0x40 MSTORE DUP1 MLOAD SWAP1 PUSH1 0x20 ADD KECCAK256 SWAP1 POP SWAP3 SWAP2 POP POP JUMP JUMPDEST PUSH1 0x0 PUSH32 0x636865636B706F696E7400000000000000000000000000000000000000000000 PUSH1 0x0 SHL DUP5 DUP5 DUP5 PUSH1 0x40 MLOAD PUSH1 0x20 ADD PUSH2 0x57E SWAP5 SWAP4 SWAP3 SWAP2 SWAP1 PUSH2 0x1A18 JUMP JUMPDEST PUSH1 0x40 MLOAD PUSH1 0x20 DUP2 DUP4 SUB SUB DUP2 MSTORE SWAP1 PUSH1 0x40 MSTORE DUP1 MLOAD SWAP1 PUSH1 0x20 ADD KECCAK256 SWAP1 POP SWAP4 SWAP3 POP POP POP JUMP JUMPDEST PUSH1 0x0 DUP1 JUMPDEST DUP8 DUP8 SWAP1 POP DUP2 LT ISZERO PUSH2 0x6F8 JUMPI PUSH1 0x0 DUP1 SHL DUP7 DUP7 DUP4 DUP2 DUP2 LT PUSH2 0x5C3 JUMPI PUSH2 0x5C2 PUSH2 0x1A5D JUMP JUMPDEST JUMPDEST SWAP1 POP PUSH1 0x60 MUL ADD PUSH1 0x20 ADD CALLDATALOAD EQ DUP1 ISZERO PUSH2 0x5F8 JUMPI POP PUSH1 0x0 DUP1 SHL DUP7 DUP7 DUP4 DUP2 DUP2 LT PUSH2 0x5EC JUMPI PUSH2 0x5EB PUSH2 0x1A5D JUMP JUMPDEST JUMPDEST SWAP1 POP PUSH1 0x60 MUL ADD PUSH1 0x40 ADD CALLDATALOAD EQ JUMPDEST DUP1 ISZERO PUSH2 0x631 JUMPI POP PUSH1 0x0 DUP7 DUP7 DUP4 DUP2 DUP2 LT PUSH2 0x614 JUMPI PUSH2 0x613 PUSH2 0x1A5D JUMP JUMPDEST JUMPDEST SWAP1 POP PUSH1 0x60 MUL ADD PUSH1 0x0 ADD PUSH1 0x20 DUP2 ADD SWAP1 PUSH2 0x62C SWAP2 SWAP1 PUSH2 0x1AC5 JUMP JUMPDEST PUSH1 0xFF AND EQ JUMPDEST PUSH2 0x6EB JUMPI PUSH2 0x682 DUP9 DUP9 DUP4 DUP2 DUP2 LT PUSH2 0x64B JUMPI PUSH2 0x64A PUSH2 0x1A5D JUMP JUMPDEST JUMPDEST SWAP1 POP PUSH1 0x40 MUL ADD PUSH1 0x0 ADD PUSH1 0x20 DUP2 ADD SWAP1 PUSH2 0x663 SWAP2 SWAP1 PUSH2 0x1AF2 JUMP JUMPDEST DUP6 DUP9 DUP9 DUP6 DUP2 DUP2 LT PUSH2 0x677 JUMPI PUSH2 0x676 PUSH2 0x1A5D JUMP JUMPDEST JUMPDEST SWAP1 POP PUSH1 0x60 MUL ADD PUSH2 0x865 JUMP JUMPDEST PUSH2 0x6B8 JUMPI PUSH1 0x40 MLOAD PUSH32 0x8BAA579F00000000000000000000000000000000000000000000000000000000 DUP2 MSTORE PUSH1 0x4 ADD PUSH1 0x40 MLOAD DUP1 SWAP2 SUB SWAP1 REVERT JUMPDEST DUP8 DUP8 DUP3 DUP2 DUP2 LT PUSH2 0x6CB JUMPI PUSH2 0x6CA PUSH2 0x1A5D JUMP JUMPDEST JUMPDEST SWAP1 POP PUSH1 0x40 MUL ADD PUSH1 0x20 ADD CALLDATALOAD DUP3 PUSH2 0x6E0 SWAP2 SWAP1 PUSH2 0x1B1F JUMP JUMPDEST SWAP2 POP DUP3 DUP3 LT ISZERO PUSH2 0x6F8 JUMPI JUMPDEST DUP1 DUP1 PUSH1 0x1 ADD SWAP2 POP POP PUSH2 0x5A1 JUMP JUMPDEST POP DUP2 DUP2 LT ISZERO PUSH2 0x733 JUMPI PUSH1 0x40 MLOAD PUSH32 0xCABEB65500000000000000000000000000000000000000000000000000000000 DUP2 MSTORE PUSH1 0x4 ADD PUSH1 0x40 MLOAD DUP1 SWAP2 SUB SWAP1 REVERT JUMPDEST POP POP POP POP POP POP POP JUMP JUMPDEST PUSH1 0x0 PUSH32 0x7472616E73616374696F6E426174636800000000000000000000000000000000 PUSH1 0x0 SHL DUP5 DUP5 DUP5 PUSH1 0x40 MLOAD PUSH1 0x20 ADD PUSH2 0x778 SWAP5 SWAP4 SWAP3 SWAP2 SWAP1 PUSH2 0x1A18 JUMP JUMPDEST PUSH1 0x40 MLOAD PUSH1 0x20 DUP2 DUP4 SUB SUB DUP2 MSTORE SWAP1 PUSH1 0x40 MSTORE DUP1 MLOAD SWAP1 PUSH1 0x20 ADD KECCAK256 SWAP1 POP SWAP4 SWAP3 POP POP POP JUMP JUMPDEST PUSH1 0x0 PUSH1 0x1 DUP4 PUSH1 0x40 ADD MLOAD GT PUSH2 0x7C0 JUMPI PUSH1 0x0 DUP4 PUSH1 0x0 ADD MLOAD MLOAD EQ PUSH2 0x7BB JUMPI PUSH1 0x0 SWAP1 POP PUSH2 0x85E JUMP JUMPDEST PUSH2 0x7E7 JUMP JUMPDEST PUSH2 0x7D2 DUP4 PUSH1 0x20 ADD MLOAD DUP5 PUSH1 0x40 ADD MLOAD PUSH2 0x8D1 JUMP JUMPDEST DUP4 PUSH1 0x0 ADD MLOAD MLOAD EQ PUSH2 0x7E6 JUMPI PUSH1 0x0 SWAP1 POP PUSH2 0x85E JUMP JUMPDEST JUMPDEST DUP3 PUSH1 0x40 ADD MLOAD DUP4 PUSH1 0x20 ADD MLOAD LT PUSH2 0x7FF JUMPI PUSH1 0x0 SWAP1 POP PUSH2 0x85E JUMP JUMPDEST PUSH1 0x0 PUSH2 0x80A DUP4 PUSH2 0x961 JUMP JUMPDEST SWAP1 POP PUSH1 0x0 DUP5 PUSH1 0x0 ADD MLOAD MLOAD SUB PUSH2 0x83A JUMPI PUSH1 0x1 DUP5 PUSH1 0x40 ADD MLOAD SUB PUSH2 0x830 JUMPI DUP1 DUP6 EQ SWAP2 POP POP PUSH2 0x85E JUMP JUMPDEST PUSH1 0x0 SWAP2 POP POP PUSH2 0x85E JUMP JUMPDEST PUSH1 0x0 PUSH2 0x854 DUP6 PUSH1 0x20 ADD MLOAD DUP7 PUSH1 0x40 ADD MLOAD DUP5 DUP9 PUSH1 0x0 ADD MLOAD PUSH2 0x9DF JUMP JUMPDEST SWAP1 POP DUP6 DUP2 EQ SWAP3 POP POP POP JUMPDEST SWAP4 SWAP3 POP POP POP JUMP JUMPDEST PUSH1 0x0 DUP1 PUSH2 0x871 DUP5 PUSH2 0xB9D JUMP JUMPDEST SWAP1 POP PUSH2 0x899 DUP2 DUP5 PUSH1 0x0 ADD PUSH1 0x20 DUP2 ADD SWAP1 PUSH2 0x88A SWAP2 SWAP1 PUSH2 0x1AC5 JUMP JUMPDEST DUP6 PUSH1 0x20 ADD CALLDATALOAD DUP7 PUSH1 0x40 ADD CALLDATALOAD PUSH2 0xBD3 JUMP JUMPDEST PUSH20 0xFFFFFFFFFFFFFFFFFFFFFFFFFFFFFFFFFFFFFFFF AND DUP6 PUSH20 0xFFFFFFFFFFFFFFFFFFFFFFFFFFFFFFFFFFFFFFFF AND EQ SWAP2 POP POP SWAP4 SWAP3 POP POP POP JUMP JUMPDEST PUSH1 0x0 PUSH2 0x8DC DUP3 PUSH2 0xC03 JUMP JUMPDEST PUSH2 0x100 PUSH2 0x8E9 SWAP2 SWAP1 PUSH2 0x1B53 JUMP JUMPDEST SWAP1 POP PUSH1 0x0 PUSH1 0x1 DUP3 PUSH2 0x8FA SWAP2 SWAP1 PUSH2 0x1B53 JUMP JUMPDEST PUSH1 0x1 SWAP1 SHL SWAP1 POP PUSH1 0x1 DUP2 PUSH2 0x90D SWAP2 SWAP1 PUSH2 0x1B53 JUMP JUMPDEST DUP5 GT PUSH2 0x919 JUMPI POP PUSH2 0x95B JUMP JUMPDEST PUSH1 0x1 DUP2 SUB PUSH2 0x92B JUMPI PUSH1 0x1 SWAP2 POP POP PUSH2 0x95B JUMP JUMPDEST PUSH2 0x94B DUP2 DUP6 PUSH2 0x93A SWAP2 SWAP1 PUSH2 0x1B53 JUMP JUMPDEST DUP3 DUP6 PUSH2 0x946 SWAP2 SWAP1 PUSH2 0x1B53 JUMP JUMPDEST PUSH2 0x8D1 JUMP JUMPDEST PUSH1 0x1 PUSH2 0x957 SWAP2 SWAP1 PUSH2 0x1B1F JUMP JUMPDEST SWAP2 POP POP JUMPDEST SWAP3 SWAP2 POP POP JUMP JUMPDEST PUSH1 0x0 PUSH1 0x2 PUSH1 0x0 PUSH1 0xF8 SHL DUP4 PUSH1 0x40 MLOAD PUSH1 0x20 ADD PUSH2 0x97C SWAP3 SWAP2 SWAP1 PUSH2 0x1C45 JUMP JUMPDEST PUSH1 0x40 MLOAD PUSH1 0x20 DUP2 DUP4 SUB SUB DUP2 MSTORE SWAP1 PUSH1 0x40 MSTORE PUSH1 0x40 MLOAD PUSH2 0x998 SWAP2 SWAP1 PUSH2 0x1C6D JUMP JUMPDEST PUSH1 0x20 PUSH1 0x40 MLOAD DUP1 DUP4 SUB DUP2 DUP6 GAS STATICCALL ISZERO DUP1 ISZERO PUSH2 0x9B5 JUMPI RETURNDATASIZE PUSH1 0x0 DUP1 RETURNDATACOPY RETURNDATASIZE PUSH1 0x0 REVERT JUMPDEST POP POP POP PUSH1 0x40 MLOAD RETURNDATASIZE PUSH1 0x1F NOT PUSH1 0x1F DUP3 ADD AND DUP3 ADD DUP1 PUSH1 0x40 MSTORE POP DUP2 ADD SWAP1 PUSH2 0x9D8 SWAP2 SWAP1 PUSH2 0x1C99 JUMP JUMPDEST SWAP1 POP SWAP2 SWAP1 POP JUMP JUMPDEST PUSH1 0x0 DUP1 DUP5 SUB PUSH2 0xA23 JUMPI PUSH1 0x40 MLOAD PUSH32 0x8C379A000000000000000000000000000000000000000000000000000000000 DUP2 MSTORE PUSH1 0x4 ADD PUSH2 0xA1A SWAP1 PUSH2 0x1D49 JUMP JUMPDEST PUSH1 0x40 MLOAD DUP1 SWAP2 SUB SWAP1 REVERT JUMPDEST PUSH1 0x1 DUP5 SUB PUSH2 0xA77 JUMPI PUSH1 0x0 DUP3 MLOAD EQ PUSH2 0xA6F JUMPI PUSH1 0x40 MLOAD PUSH32 0x8C379A000000000000000000000000000000000000000000000000000000000 DUP2 MSTORE PUSH1 0x4 ADD PUSH2 0xA66 SWAP1 PUSH2 0x1DB5 JUMP JUMPDEST PUSH1 0x40 MLOAD DUP1 SWAP2 SUB SWAP1 REVERT JUMPDEST DUP3 SWAP1 POP PUSH2 0xB95 JUMP JUMPDEST PUSH1 0x0 DUP3 MLOAD SUB PUSH2 0xABB JUMPI PUSH1 0x40 MLOAD PUSH32 0x8C379A000000000000000000000000000000000000000000000000000000000 DUP2 MSTORE PUSH1 0x4 ADD PUSH2 0xAB2 SWAP1 PUSH2 0x1E21 JUMP JUMPDEST PUSH1 0x40 MLOAD DUP1 SWAP2 SUB SWAP1 REVERT JUMPDEST PUSH1 0x0 PUSH2 0xAC6 DUP6 PUSH2 0xC3B JUMP JUMPDEST SWAP1 POP PUSH1 0x0 PUSH2 0xAE3 DUP5 PUSH1 0x0 PUSH1 0x1 DUP8 MLOAD PUSH2 0xADE SWAP2 SWAP1 PUSH2 0x1B53 JUMP JUMPDEST PUSH2 0xC86 JUMP JUMPDEST SWAP1 POP DUP2 DUP8 LT ISZERO PUSH2 0xB38 JUMPI PUSH1 0x0 PUSH2 0xAFB DUP9 DUP5 DUP9 DUP6 PUSH2 0x9DF JUMP JUMPDEST SWAP1 POP PUSH2 0xB2E DUP2 DUP7 PUSH1 0x1 DUP9 MLOAD PUSH2 0xB10 SWAP2 SWAP1 PUSH2 0x1B53 JUMP JUMPDEST DUP2 MLOAD DUP2 LT PUSH2 0xB21 JUMPI PUSH2 0xB20 PUSH2 0x1A5D JUMP JUMPDEST JUMPDEST PUSH1 0x20 MUL PUSH1 0x20 ADD ADD MLOAD PUSH2 0xDDE JUMP JUMPDEST SWAP4 POP POP POP POP PUSH2 0xB95 JUMP JUMPDEST PUSH1 0x0 PUSH2 0xB5C DUP4 DUP10 PUSH2 0xB49 SWAP2 SWAP1 PUSH2 0x1B53 JUMP JUMPDEST DUP5 DUP10 PUSH2 0xB55 SWAP2 SWAP1 PUSH2 0x1B53 JUMP JUMPDEST DUP9 DUP6 PUSH2 0x9DF JUMP JUMPDEST SWAP1 POP PUSH2 0xB8F DUP6 PUSH1 0x1 DUP8 MLOAD PUSH2 0xB70 SWAP2 SWAP1 PUSH2 0x1B53 JUMP JUMPDEST DUP2 MLOAD DUP2 LT PUSH2 0xB81 JUMPI PUSH2 0xB80 PUSH2 0x1A5D JUMP JUMPDEST JUMPDEST PUSH1 0x20 MUL PUSH1 0x20 ADD ADD MLOAD DUP3 PUSH2 0xDDE JUMP JUMPDEST SWAP4 POP POP POP POP JUMPDEST SWAP5 SWAP4 POP POP POP POP JUMP JUMPDEST PUSH1 0x0 PUSH32 0x19457468657265756D205369676E6564204D6573736167653A0A333200000000 PUSH1 0x0 MSTORE DUP2 PUSH1 0x1C MSTORE PUSH1 0x3C PUSH1 0x0 KECCAK256 SWAP1 POP SWAP2 SWAP1 POP JUMP JUMPDEST PUSH1 0x0 DUP1 PUSH1 0x0 DUP1 PUSH2 0xBE5 DUP9 DUP9 DUP9 DUP9 PUSH2 0xE5F JUMP JUMPDEST SWAP3 POP SWAP3 POP SWAP3 POP PUSH2 0xBF5 DUP3 DUP3 PUSH2 0xF53 JUMP JUMPDEST DUP3 SWAP4 POP POP POP POP SWAP5 SWAP4 POP POP POP POP JUMP JUMPDEST PUSH1 0x0 JUMPDEST DUP2 DUP2 PUSH1 0x1 SWAP1 SHL LT ISZERO PUSH2 0xC26 JUMPI PUSH1 0x1 DUP2 PUSH2 0xC1F SWAP2 SWAP1 PUSH2 0x1B1F JUMP JUMPDEST SWAP1 POP PUSH2 0xC06 JUMP JUMPDEST DUP1 PUSH2 0x100 PUSH2 0xC34 SWAP2 SWAP1 PUSH2 0x1B53 JUMP JUMPDEST SWAP1 POP SWAP2 SWAP1 POP JUMP JUMPDEST PUSH1 0x0 PUSH1 0x1 DUP3 LT ISZERO PUSH2 0xC4B JUMPI PUSH1 0x0 DUP1 REVERT JUMPDEST PUSH1 0x0 PUSH2 0xC56 DUP4 PUSH2 0x10B7 JUMP JUMPDEST SWAP1 POP PUSH1 0x0 PUSH1 0x1 DUP3 PUSH2 0xC67 SWAP2 SWAP1 PUSH2 0x1B53 JUMP JUMPDEST PUSH1 0x1 SWAP1 SHL SWAP1 POP DUP4 DUP2 SUB PUSH2 0xC7C JUMPI PUSH1 0x1 DUP2 SWAP1 SHR SWAP1 POP JUMPDEST DUP1 SWAP3 POP POP POP SWAP2 SWAP1 POP JUMP JUMPDEST PUSH1 0x60 DUP2 DUP4 GT ISZERO PUSH2 0xCCB JUMPI PUSH1 0x40 MLOAD PUSH32 0x8C379A000000000000000000000000000000000000000000000000000000000 DUP2 MSTORE PUSH1 0x4 ADD PUSH2 0xCC2 SWAP1 PUSH2 0x1EB3 JUMP JUMPDEST PUSH1 0x40 MLOAD DUP1 SWAP2 SUB SWAP1 REVERT JUMPDEST DUP4 MLOAD DUP4 GT DUP1 PUSH2 0xCDA JUMPI POP DUP4 MLOAD DUP3 GT JUMPDEST ISZERO PUSH2 0xD1A JUMPI PUSH1 0x40 MLOAD PUSH32 0x8C379A000000000000000000000000000000000000000000000000000000000 DUP2 MSTORE PUSH1 0x4 ADD PUSH2 0xD11 SWAP1 PUSH2 0x1F45 JUMP JUMPDEST PUSH1 0x40 MLOAD DUP1 SWAP2 SUB SWAP1 REVERT JUMPDEST PUSH1 0x0 DUP4 DUP4 PUSH2 0xD28 SWAP2 SWAP1 PUSH2 0x1B53 JUMP JUMPDEST PUSH8 0xFFFFFFFFFFFFFFFF DUP2 GT ISZERO PUSH2 0xD41 JUMPI PUSH2 0xD40 PUSH2 0x14AD JUMP JUMPDEST JUMPDEST PUSH1 0x40 MLOAD SWAP1 DUP1 DUP3 MSTORE DUP1 PUSH1 0x20 MUL PUSH1 0x20 ADD DUP3 ADD PUSH1 0x40 MSTORE DUP1 ISZERO PUSH2 0xD6F JUMPI DUP2 PUSH1 0x20 ADD PUSH1 0x20 DUP3 MUL DUP1 CALLDATASIZE DUP4 CALLDATACOPY DUP1 DUP3 ADD SWAP2 POP POP SWAP1 POP JUMPDEST POP SWAP1 POP PUSH1 0x0 DUP5 SWAP1 POP JUMPDEST DUP4 DUP2 LT ISZERO PUSH2 0xDD2 JUMPI DUP6 DUP2 DUP2 MLOAD DUP2 LT PUSH2 0xD93 JUMPI PUSH2 0xD92 PUSH2 0x1A5D JUMP JUMPDEST JUMPDEST PUSH1 0x20 MUL PUSH1 0x20 ADD ADD MLOAD DUP3 DUP7 DUP4 PUSH2 0xDA8 SWAP2 SWAP1 PUSH2 0x1B53 JUMP JUMPDEST DUP2 MLOAD DUP2 LT PUSH2 0xDB9 JUMPI PUSH2 0xDB8 PUSH2 0x1A5D JUMP JUMPDEST JUMPDEST PUSH1 0x20 MUL PUSH1 0x20 ADD ADD DUP2 DUP2 MSTORE POP POP DUP1 DUP1 PUSH1 0x1 ADD SWAP2 POP POP PUSH2 0xD78 JUMP JUMPDEST POP DUP1 SWAP2 POP POP SWAP4 SWAP3 POP POP POP JUMP JUMPDEST PUSH1 0x0 PUSH1 0x2 PUSH1 0x1 PUSH1 0xF8 SHL DUP5 DUP5 PUSH1 0x40 MLOAD PUSH1 0x20 ADD PUSH2 0xDFB SWAP4 SWAP3 SWAP2 SWAP1 PUSH2 0x1F86 JUMP JUMPDEST PUSH1 0x40 MLOAD PUSH1 0x20 DUP2 DUP4 SUB SUB DUP2 MSTORE SWAP1 PUSH1 0x40 MSTORE PUSH1 0x40 MLOAD PUSH2 0xE17 SWAP2 SWAP1 PUSH2 0x1C6D JUMP JUMPDEST PUSH1 0x20 PUSH1 0x40 MLOAD DUP1 DUP4 SUB DUP2 DUP6 GAS STATICCALL ISZERO DUP1 ISZERO PUSH2 0xE34 JUMPI RETURNDATASIZE PUSH1 0x0 DUP1 RETURNDATACOPY RETURNDATASIZE PUSH1 0x0 REVERT JUMPDEST POP POP POP PUSH1 0x40 MLOAD RETURNDATASIZE PUSH1 0x1F NOT PUSH1 0x1F DUP3 ADD AND DUP3 ADD DUP1 PUSH1 0x40 MSTORE POP DUP2 ADD SWAP1 PUSH2 0xE57 SWAP2 SWAP1 PUSH2 0x1C99 JUMP JUMPDEST SWAP1 POP SWAP3 SWAP2 POP POP JUMP JUMPDEST PUSH1 0x0 DUP1 PUSH1 0x0 PUSH32 0x7FFFFFFFFFFFFFFFFFFFFFFFFFFFFFFF5D576E7357A4501DDFE92F46681B20A0 DUP5 PUSH1 0x0 SHR GT ISZERO PUSH2 0xE9F JUMPI PUSH1 0x0 PUSH1 0x3 DUP6 SWAP3 POP SWAP3 POP SWAP3 POP PUSH2 0xF49 JUMP JUMPDEST PUSH1 0x0 PUSH1 0x1 DUP9 DUP9 DUP9 DUP9 PUSH1 0x40 MLOAD PUSH1 0x0 DUP2 MSTORE PUSH1 0x20 ADD PUSH1 0x40 MSTORE PUSH1 0x40 MLOAD PUSH2 0xEC4 SWAP5 SWAP4 SWAP3 SWAP2 SWAP1 PUSH2 0x1FD2 JUMP JUMPDEST PUSH1 0x20 PUSH1 0x40 MLOAD PUSH1 0x20 DUP2 SUB SWAP1 DUP1 DUP5 SUB SWAP1 DUP6 GAS STATICCALL ISZERO DUP1 ISZERO PUSH2 0xEE6 JUMPI RETURNDATASIZE PUSH1 0x0 DUP1 RETURNDATACOPY RETURNDATASIZE PUSH1 0x0 REVERT JUMPDEST POP POP POP PUSH1 0x20 PUSH1 0x40 MLOAD SUB MLOAD SWAP1 POP PUSH1 0x0 PUSH20 0xFFFFFFFFFFFFFFFFFFFFFFFFFFFFFFFFFFFFFFFF AND DUP2 PUSH20 0xFFFFFFFFFFFFFFFFFFFFFFFFFFFFFFFFFFFFFFFF AND SUB PUSH2 0xF3A JUMPI PUSH1 0x0 PUSH1 0x1 PUSH1 0x0 DUP1 SHL SWAP4 POP SWAP4 POP SWAP4 POP POP PUSH2 0xF49 JUMP JUMPDEST DUP1 PUSH1 0x0 DUP1 PUSH1 0x0 SHL SWAP4 POP SWAP4 POP SWAP4 POP POP JUMPDEST SWAP5 POP SWAP5 POP SWAP5 SWAP2 POP POP JUMP JUMPDEST PUSH1 0x0 PUSH1 0x3 DUP2 GT ISZERO PUSH2 0xF67 JUMPI PUSH2 0xF66 PUSH2 0x2017 JUMP JUMPDEST JUMPDEST DUP3 PUSH1 0x3 DUP2 GT ISZERO PUSH2 0xF7A JUMPI PUSH2 0xF79 PUSH2 0x2017 JUMP JUMPDEST JUMPDEST SUB ISZERO PUSH2 0x10B3 JUMPI PUSH1 0x1 PUSH1 0x3 DUP2 GT ISZERO PUSH2 0xF94 JUMPI PUSH2 0xF93 PUSH2 0x2017 JUMP JUMPDEST JUMPDEST DUP3 PUSH1 0x3 DUP2 GT ISZERO PUSH2 0xFA7 JUMPI PUSH2 0xFA6 PUSH2 0x2017 JUMP JUMPDEST JUMPDEST SUB PUSH2 0xFDE JUMPI PUSH1 0x40 MLOAD PUSH32 0xF645EEDF00000000000000000000000000000000000000000000000000000000 DUP2 MSTORE PUSH1 0x4 ADD PUSH1 0x40 MLOAD DUP1 SWAP2 SUB SWAP1 REVERT JUMPDEST PUSH1 0x2 PUSH1 0x3 DUP2 GT ISZERO PUSH2 0xFF2 JUMPI PUSH2 0xFF1 PUSH2 0x2017 JUMP JUMPDEST JUMPDEST DUP3 PUSH1 0x3 DUP2 GT ISZERO PUSH2 0x1005 JUMPI PUSH2 0x1004 PUSH2 0x2017 JUMP JUMPDEST JUMPDEST SUB PUSH2 0x104A JUMPI DUP1 PUSH1 0x0 SHR PUSH1 0x40 MLOAD PUSH32 0xFCE698F700000000000000000000000000000000000000000000000000000000 DUP2 MSTORE PUSH1 0x4 ADD PUSH2 0x1041 SWAP2 SWAP1 PUSH2 0x147C JUMP JUMPDEST PUSH1 0x40 MLOAD DUP1 SWAP2 SUB SWAP1 REVERT JUMPDEST PUSH1 0x3 DUP1 DUP2 GT ISZERO PUSH2 0x105D JUMPI PUSH2 0x105C PUSH2 0x2017 JUMP JUMPDEST JUMPDEST DUP3 PUSH1 0x3 DUP2 GT ISZERO PUSH2 0x1070 JUMPI PUSH2 0x106F PUSH2 0x2017 JUMP JUMPDEST JUMPDEST SUB PUSH2 0x10B2 JUMPI DUP1 PUSH1 0x40 MLOAD PUSH32 0xD78BCE0C00000000000000000000000000000000000000000000000000000000 DUP2 MSTORE PUSH1 0x4 ADD PUSH2 0x10A9 SWAP2 SWAP1 PUSH2 0x1209 JUMP JUMPDEST PUSH1 0x40 MLOAD DUP1 SWAP2 SUB SWAP1 REVERT JUMPDEST JUMPDEST POP POP JUMP JUMPDEST PUSH1 0x0 DUP1 PUSH1 0x0 SWAP1 POP JUMPDEST PUSH1 0x0 DUP4 EQ PUSH2 0x10E1 JUMPI DUP1 DUP1 PUSH2 0x10D2 SWAP1 PUSH2 0x175E JUMP JUMPDEST SWAP2 POP POP PUSH1 0x1 DUP4 SWAP1 SHR SWAP3 POP PUSH2 0x10BF JUMP JUMPDEST DUP1 SWAP2 POP POP SWAP2 SWAP1 POP JUMP JUMPDEST PUSH1 0x0 PUSH1 0x40 MLOAD SWAP1 POP SWAP1 JUMP JUMPDEST PUSH1 0x0 DUP1 REVERT JUMPDEST PUSH1 0x0 DUP1 REVERT JUMPDEST PUSH1 0x0 DUP2 SWAP1 POP SWAP2 SWAP1 POP JUMP JUMPDEST PUSH2 0x1111 DUP2 PUSH2 0x10FE JUMP JUMPDEST DUP2 EQ PUSH2 0x111C JUMPI PUSH1 0x0 DUP1 REVERT JUMPDEST POP JUMP JUMPDEST PUSH1 0x0 DUP2 CALLDATALOAD SWAP1 POP PUSH2 0x112E DUP2 PUSH2 0x1108 JUMP JUMPDEST SWAP3 SWAP2 POP POP JUMP JUMPDEST PUSH1 0x0 PUSH1 0x20 DUP3 DUP5 SUB SLT ISZERO PUSH2 0x114A JUMPI PUSH2 0x1149 PUSH2 0x10F4 JUMP JUMPDEST JUMPDEST PUSH1 0x0 PUSH2 0x1158 DUP5 DUP3 DUP6 ADD PUSH2 0x111F JUMP JUMPDEST SWAP2 POP POP SWAP3 SWAP2 POP POP JUMP JUMPDEST PUSH1 0x0 DUP2 ISZERO ISZERO SWAP1 POP SWAP2 SWAP1 POP JUMP JUMPDEST PUSH2 0x1176 DUP2 PUSH2 0x1161 JUMP JUMPDEST DUP3 MSTORE POP POP JUMP JUMPDEST PUSH1 0x0 PUSH1 0x20 DUP3 ADD SWAP1 POP PUSH2 0x1191 PUSH1 0x0 DUP4 ADD DUP5 PUSH2 0x116D JUMP JUMPDEST SWAP3 SWAP2 POP POP JUMP JUMPDEST PUSH1 0x0 DUP2 SWAP1 POP SWAP2 SWAP1 POP JUMP JUMPDEST PUSH2 0x11AA DUP2 PUSH2 0x1197 JUMP JUMPDEST DUP2 EQ PUSH2 0x11B5 JUMPI PUSH1 0x0 DUP1 REVERT JUMPDEST POP JUMP JUMPDEST PUSH1 0x0 DUP2 CALLDATALOAD SWAP1 POP PUSH2 0x11C7 DUP2 PUSH2 0x11A1 JUMP JUMPDEST SWAP3 SWAP2 POP POP JUMP JUMPDEST PUSH1 0x0 PUSH1 0x20 DUP3 DUP5 SUB SLT ISZERO PUSH2 0x11E3 JUMPI PUSH2 0x11E2 PUSH2 0x10F4 JUMP JUMPDEST JUMPDEST PUSH1 0x0 PUSH2 0x11F1 DUP5 DUP3 DUP6 ADD PUSH2 0x11B8 JUMP JUMPDEST SWAP2 POP POP SWAP3 SWAP2 POP POP JUMP JUMPDEST PUSH2 0x1203 DUP2 PUSH2 0x10FE JUMP JUMPDEST DUP3 MSTORE POP POP JUMP JUMPDEST PUSH1 0x0 PUSH1 0x20 DUP3 ADD SWAP1 POP PUSH2 0x121E PUSH1 0x0 DUP4 ADD DUP5 PUSH2 0x11FA JUMP JUMPDEST SWAP3 SWAP2 POP POP JUMP JUMPDEST PUSH1 0x0 PUSH8 0xFFFFFFFFFFFFFFFF DUP3 AND SWAP1 POP SWAP2 SWAP1 POP JUMP JUMPDEST PUSH2 0x1241 DUP2 PUSH2 0x1224 JUMP JUMPDEST DUP2 EQ PUSH2 0x124C JUMPI PUSH1 0x0 DUP1 REVERT JUMPDEST POP JUMP JUMPDEST PUSH1 0x0 DUP2 CALLDATALOAD SWAP1 POP PUSH2 0x125E DUP2 PUSH2 0x1238 JUMP JUMPDEST SWAP3 SWAP2 POP POP JUMP JUMPDEST PUSH1 0x0 DUP1 REVERT JUMPDEST PUSH1 0x0 DUP1 REVERT JUMPDEST PUSH1 0x0 DUP1 REVERT JUMPDEST PUSH1 0x0 DUP1 DUP4 PUSH1 0x1F DUP5 ADD SLT PUSH2 0x1289 JUMPI PUSH2 0x1288 PUSH2 0x1264 JUMP JUMPDEST JUMPDEST DUP3 CALLDATALOAD SWAP1 POP PUSH8 0xFFFFFFFFFFFFFFFF DUP2 GT ISZERO PUSH2 0x12A6 JUMPI PUSH2 0x12A5 PUSH2 0x1269 JUMP JUMPDEST JUMPDEST PUSH1 0x20 DUP4 ADD SWAP2 POP DUP4 PUSH1 0x40 DUP3 MUL DUP4 ADD GT ISZERO PUSH2 0x12C2 JUMPI PUSH2 0x12C1 PUSH2 0x126E JUMP JUMPDEST JUMPDEST SWAP3 POP SWAP3 SWAP1 POP JUMP JUMPDEST PUSH1 0x0 DUP1 DUP4 PUSH1 0x1F DUP5 ADD SLT PUSH2 0x12DF JUMPI PUSH2 0x12DE PUSH2 0x1264 JUMP JUMPDEST JUMPDEST DUP3 CALLDATALOAD SWAP1 POP PUSH8 0xFFFFFFFFFFFFFFFF DUP2 GT ISZERO PUSH2 0x12FC JUMPI PUSH2 0x12FB PUSH2 0x1269 JUMP JUMPDEST JUMPDEST PUSH1 0x20 DUP4 ADD SWAP2 POP DUP4 PUSH1 0x60 DUP3 MUL DUP4 ADD GT ISZERO PUSH2 0x1318 JUMPI PUSH2 0x1317 PUSH2 0x126E JUMP JUMPDEST JUMPDEST SWAP3 POP SWAP3 SWAP1 POP JUMP JUMPDEST PUSH1 0x0 DUP1 PUSH1 0x0 DUP1 PUSH1 0x0 DUP1 PUSH1 0x80 DUP8 DUP10 SUB SLT ISZERO PUSH2 0x133C JUMPI PUSH2 0x133B PUSH2 0x10F4 JUMP JUMPDEST JUMPDEST PUSH1 0x0 PUSH2 0x134A DUP10 DUP3 DUP11 ADD PUSH2 0x111F JUMP JUMPDEST SWAP7 POP POP PUSH1 0x20 PUSH2 0x135B DUP10 DUP3 DUP11 ADD PUSH2 0x124F JUMP JUMPDEST SWAP6 POP POP PUSH1 0x40 DUP8 ADD CALLDATALOAD PUSH8 0xFFFFFFFFFFFFFFFF DUP2 GT ISZERO PUSH2 0x137C JUMPI PUSH2 0x137B PUSH2 0x10F9 JUMP JUMPDEST JUMPDEST PUSH2 0x1388 DUP10 DUP3 DUP11 ADD PUSH2 0x1273 JUMP JUMPDEST SWAP5 POP SWAP5 POP POP PUSH1 0x60 DUP8 ADD CALLDATALOAD PUSH8 0xFFFFFFFFFFFFFFFF DUP2 GT ISZERO PUSH2 0x13AB JUMPI PUSH2 0x13AA PUSH2 0x10F9 JUMP JUMPDEST JUMPDEST PUSH2 0x13B7 DUP10 DUP3 DUP11 ADD PUSH2 0x12C9 JUMP JUMPDEST SWAP3 POP SWAP3 POP POP SWAP3 SWAP6 POP SWAP3 SWAP6 POP SWAP3 SWAP6 JUMP JUMPDEST PUSH1 0x0 DUP1 PUSH1 0x0 DUP1 PUSH1 0x0 DUP1 PUSH1 0x80 DUP8 DUP10 SUB SLT ISZERO PUSH2 0x13E3 JUMPI PUSH2 0x13E2 PUSH2 0x10F4 JUMP JUMPDEST JUMPDEST PUSH1 0x0 PUSH2 0x13F1 DUP10 DUP3 DUP11 ADD PUSH2 0x111F JUMP JUMPDEST SWAP7 POP POP PUSH1 0x20 PUSH2 0x1402 DUP10 DUP3 DUP11 ADD PUSH2 0x11B8 JUMP JUMPDEST SWAP6 POP POP PUSH1 0x40 DUP8 ADD CALLDATALOAD PUSH8 0xFFFFFFFFFFFFFFFF DUP2 GT ISZERO PUSH2 0x1423 JUMPI PUSH2 0x1422 PUSH2 0x10F9 JUMP JUMPDEST JUMPDEST PUSH2 0x142F DUP10 DUP3 DUP11 ADD PUSH2 0x1273 JUMP JUMPDEST SWAP5 POP SWAP5 POP POP PUSH1 0x60 DUP8 ADD CALLDATALOAD PUSH8 0xFFFFFFFFFFFFFFFF DUP2 GT ISZERO PUSH2 0x1452 JUMPI PUSH2 0x1451 PUSH2 0x10F9 JUMP JUMPDEST JUMPDEST PUSH2 0x145E DUP10 DUP3 DUP11 ADD PUSH2 0x12C9 JUMP JUMPDEST SWAP3 POP SWAP3 POP POP SWAP3 SWAP6 POP SWAP3 SWAP6 POP SWAP3 SWAP6 JUMP JUMPDEST PUSH2 0x1476 DUP2 PUSH2 0x1197 JUMP JUMPDEST DUP3 MSTORE POP POP JUMP JUMPDEST PUSH1 0x0 PUSH1 0x20 DUP3 ADD SWAP1 POP PUSH2 0x1491 PUSH1 0x0 DUP4 ADD DUP5 PUSH2 0x146D JUMP JUMPDEST SWAP3 SWAP2 POP POP JUMP JUMPDEST PUSH1 0x0 DUP1 REVERT JUMPDEST PUSH1 0x0 PUSH1 0x1F NOT PUSH1 0x1F DUP4 ADD AND SWAP1 POP SWAP2 SWAP1 POP JUMP JUMPDEST PUSH32 0x4E487B7100000000000000000000000000000000000000000000000000000000 PUSH1 0x0 MSTORE PUSH1 0x41 PUSH1 0x4 MSTORE PUSH1 0x24 PUSH1 0x0 REVERT JUMPDEST PUSH2 0x14E5 DUP3 PUSH2 0x149C JUMP JUMPDEST DUP2 ADD DUP2 DUP2 LT PUSH8 0xFFFFFFFFFFFFFFFF DUP3 GT OR ISZERO PUSH2 0x1504 JUMPI PUSH2 0x1503 PUSH2 0x14AD JUMP JUMPDEST JUMPDEST DUP1 PUSH1 0x40 MSTORE POP POP POP JUMP JUMPDEST PUSH1 0x0 PUSH2 0x1517 PUSH2 0x10EA JUMP JUMPDEST SWAP1 POP PUSH2 0x1523 DUP3 DUP3 PUSH2 0x14DC JUMP JUMPDEST SWAP2 SWAP1 POP JUMP JUMPDEST PUSH1 0x0 DUP1 REVERT JUMPDEST PUSH1 0x0 PUSH1 0x40 DUP3 DUP5 SUB SLT ISZERO PUSH2 0x1543 JUMPI PUSH2 0x1542 PUSH2 0x1497 JUMP JUMPDEST JUMPDEST PUSH2 0x154D PUSH1 0x40 PUSH2 0x150D JUMP JUMPDEST SWAP1 POP PUSH1 0x0 PUSH2 0x155D DUP5 DUP3 DUP6 ADD PUSH2 0x11B8 JUMP JUMPDEST PUSH1 0x0 DUP4 ADD MSTORE POP PUSH1 0x20 PUSH2 0x1571 DUP5 DUP3 DUP6 ADD PUSH2 0x111F JUMP JUMPDEST PUSH1 0x20 DUP4 ADD MSTORE POP SWAP3 SWAP2 POP POP JUMP JUMPDEST PUSH1 0x0 PUSH8 0xFFFFFFFFFFFFFFFF DUP3 GT ISZERO PUSH2 0x1598 JUMPI PUSH2 0x1597 PUSH2 0x14AD JUMP JUMPDEST JUMPDEST PUSH1 0x20 DUP3 MUL SWAP1 POP PUSH1 0x20 DUP2 ADD SWAP1 POP SWAP2 SWAP1 POP JUMP JUMPDEST PUSH1 0x0 PUSH2 0x15BC PUSH2 0x15B7 DUP5 PUSH2 0x157D JUMP JUMPDEST PUSH2 0x150D JUMP JUMPDEST SWAP1 POP DUP1 DUP4 DUP3 MSTORE PUSH1 0x20 DUP3 ADD SWAP1 POP PUSH1 0x20 DUP5 MUL DUP4 ADD DUP6 DUP2 GT ISZERO PUSH2 0x15DF JUMPI PUSH2 0x15DE PUSH2 0x126E JUMP JUMPDEST JUMPDEST DUP4 JUMPDEST DUP2 DUP2 LT ISZERO PUSH2 0x1608 JUMPI DUP1 PUSH2 0x15F4 DUP9 DUP3 PUSH2 0x111F JUMP JUMPDEST DUP5 MSTORE PUSH1 0x20 DUP5 ADD SWAP4 POP POP PUSH1 0x20 DUP2 ADD SWAP1 POP PUSH2 0x15E1 JUMP JUMPDEST POP POP POP SWAP4 SWAP3 POP POP POP JUMP JUMPDEST PUSH1 0x0 DUP3 PUSH1 0x1F DUP4 ADD SLT PUSH2 0x1627 JUMPI PUSH2 0x1626 PUSH2 0x1264 JUMP JUMPDEST JUMPDEST DUP2 CALLDATALOAD PUSH2 0x1637 DUP5 DUP3 PUSH1 0x20 DUP7 ADD PUSH2 0x15A9 JUMP JUMPDEST SWAP2 POP POP SWAP3 SWAP2 POP POP JUMP JUMPDEST PUSH1 0x0 PUSH1 0x60 DUP3 DUP5 SUB SLT ISZERO PUSH2 0x1656 JUMPI PUSH2 0x1655 PUSH2 0x1497 JUMP JUMPDEST JUMPDEST PUSH2 0x1660 PUSH1 0x60 PUSH2 0x150D JUMP JUMPDEST SWAP1 POP PUSH1 0x0 DUP3 ADD CALLDATALOAD PUSH8 0xFFFFFFFFFFFFFFFF DUP2 GT ISZERO PUSH2 0x1680 JUMPI PUSH2 0x167F PUSH2 0x1528 JUMP JUMPDEST JUMPDEST PUSH2 0x168C DUP5 DUP3 DUP6 ADD PUSH2 0x1612 JUMP JUMPDEST PUSH1 0x0 DUP4 ADD MSTORE POP PUSH1 0x20 PUSH2 0x16A0 DUP5 DUP3 DUP6 ADD PUSH2 0x11B8 JUMP JUMPDEST PUSH1 0x20 DUP4 ADD MSTORE POP PUSH1 0x40 PUSH2 0x16B4 DUP5 DUP3 DUP6 ADD PUSH2 0x11B8 JUMP JUMPDEST PUSH1 0x40 DUP4 ADD MSTORE POP SWAP3 SWAP2 POP POP JUMP JUMPDEST PUSH1 0x0 DUP1 PUSH1 0x0 PUSH1 0x80 DUP5 DUP7 SUB SLT ISZERO PUSH2 0x16D9 JUMPI PUSH2 0x16D8 PUSH2 0x10F4 JUMP JUMPDEST JUMPDEST PUSH1 0x0 PUSH2 0x16E7 DUP7 DUP3 DUP8 ADD PUSH2 0x111F JUMP JUMPDEST SWAP4 POP POP PUSH1 0x20 PUSH2 0x16F8 DUP7 DUP3 DUP8 ADD PUSH2 0x152D JUMP JUMPDEST SWAP3 POP POP PUSH1 0x60 DUP5 ADD CALLDATALOAD PUSH8 0xFFFFFFFFFFFFFFFF DUP2 GT ISZERO PUSH2 0x1719 JUMPI PUSH2 0x1718 PUSH2 0x10F9 JUMP JUMPDEST JUMPDEST PUSH2 0x1725 DUP7 DUP3 DUP8 ADD PUSH2 0x1640 JUMP JUMPDEST SWAP2 POP POP SWAP3 POP SWAP3 POP SWAP3 JUMP JUMPDEST PUSH32 0x4E487B7100000000000000000000000000000000000000000000000000000000 PUSH1 0x0 MSTORE PUSH1 0x11 PUSH1 0x4 MSTORE PUSH1 0x24 PUSH1 0x0 REVERT JUMPDEST PUSH1 0x0 PUSH2 0x1769 DUP3 PUSH2 0x1197 JUMP JUMPDEST SWAP2 POP PUSH32 0xFFFFFFFFFFFFFFFFFFFFFFFFFFFFFFFFFFFFFFFFFFFFFFFFFFFFFFFFFFFFFFFF DUP3 SUB PUSH2 0x179B JUMPI PUSH2 0x179A PUSH2 0x172F JUMP JUMPDEST JUMPDEST PUSH1 0x1 DUP3 ADD SWAP1 POP SWAP2 SWAP1 POP JUMP JUMPDEST PUSH1 0x0 DUP2 SWAP1 POP SWAP2 SWAP1 POP JUMP JUMPDEST PUSH1 0x0 PUSH2 0x17CB PUSH2 0x17C6 PUSH2 0x17C1 DUP5 PUSH2 0x1224 JUMP JUMPDEST PUSH2 0x17A6 JUMP JUMPDEST PUSH2 0x1197 JUMP JUMPDEST SWAP1 POP SWAP2 SWAP1 POP JUMP JUMPDEST PUSH2 0x17DB DUP2 PUSH2 0x17B0 JUMP JUMPDEST DUP3 MSTORE POP POP JUMP JUMPDEST PUSH1 0x0 PUSH1 0x40 DUP3 ADD SWAP1 POP PUSH2 0x17F6 PUSH1 0x0 DUP4 ADD DUP6 PUSH2 0x17D2 JUMP JUMPDEST PUSH2 0x1803 PUSH1 0x20 DUP4 ADD DUP5 PUSH2 0x11FA JUMP JUMPDEST SWAP4 SWAP3 POP POP POP JUMP JUMPDEST PUSH2 0x1813 DUP2 PUSH2 0x1197 JUMP JUMPDEST DUP3 MSTORE POP POP JUMP JUMPDEST PUSH2 0x1822 DUP2 PUSH2 0x10FE JUMP JUMPDEST DUP3 MSTORE POP POP JUMP JUMPDEST PUSH1 0x40 DUP3 ADD PUSH1 0x0 DUP3 ADD MLOAD PUSH2 0x183E PUSH1 0x0 DUP6 ADD DUP3 PUSH2 0x180A JUMP JUMPDEST POP PUSH1 0x20 DUP3 ADD MLOAD PUSH2 0x1851 PUSH1 0x20 DUP6 ADD DUP3 PUSH2 0x1819 JUMP JUMPDEST POP POP POP POP JUMP JUMPDEST PUSH1 0x0 PUSH1 0x40 DUP3 ADD SWAP1 POP PUSH2 0x186C PUSH1 0x0 DUP4 ADD DUP5 PUSH2 0x1828 JUMP JUMPDEST SWAP3 SWAP2 POP POP JUMP JUMPDEST PUSH1 0x0 DUP3 DUP3 MSTORE PUSH1 0x20 DUP3 ADD SWAP1 POP SWAP3 SWAP2 POP POP JUMP JUMPDEST PUSH1 0x0 DUP2 SWAP1 POP SWAP2 SWAP1 POP JUMP JUMPDEST PUSH1 0x0 PUSH20 0xFFFFFFFFFFFFFFFFFFFFFFFFFFFFFFFFFFFFFFFF DUP3 AND SWAP1 POP SWAP2 SWAP1 POP JUMP JUMPDEST PUSH1 0x0 PUSH2 0x18B8 DUP3 PUSH2 0x188D JUMP JUMPDEST SWAP1 POP SWAP2 SWAP1 POP JUMP JUMPDEST PUSH2 0x18C8 DUP2 PUSH2 0x18AD JUMP JUMPDEST DUP2 EQ PUSH2 0x18D3 JUMPI PUSH1 0x0 DUP1 REVERT JUMPDEST POP JUMP JUMPDEST PUSH1 0x0 DUP2 CALLDATALOAD SWAP1 POP PUSH2 0x18E5 DUP2 PUSH2 0x18BF JUMP JUMPDEST SWAP3 SWAP2 POP POP JUMP JUMPDEST PUSH1 0x0 PUSH2 0x18FA PUSH1 0x20 DUP5 ADD DUP5 PUSH2 0x18D6 JUMP JUMPDEST SWAP1 POP SWAP3 SWAP2 POP POP JUMP JUMPDEST PUSH2 0x190B DUP2 PUSH2 0x18AD JUMP JUMPDEST DUP3 MSTORE POP POP JUMP JUMPDEST PUSH1 0x0 PUSH2 0x1920 PUSH1 0x20 DUP5 ADD DUP5 PUSH2 0x11B8 JUMP JUMPDEST SWAP1 POP SWAP3 SWAP2 POP POP JUMP JUMPDEST PUSH1 0x40 DUP3 ADD PUSH2 0x1939 PUSH1 0x0 DUP4 ADD DUP4 PUSH2 0x18EB JUMP JUMPDEST PUSH2 0x1946 PUSH1 0x0 DUP6 ADD DUP3 PUSH2 0x1902 JUMP JUMPDEST POP PUSH2 0x1954 PUSH1 0x20 DUP4 ADD DUP4 PUSH2 0x1911 JUMP JUMPDEST PUSH2 0x1961 PUSH1 0x20 DUP6 ADD DUP3 PUSH2 0x180A JUMP JUMPDEST POP POP POP POP JUMP JUMPDEST PUSH1 0x0 PUSH2 0x1973 DUP4 DUP4 PUSH2 0x1928 JUMP JUMPDEST PUSH1 0x40 DUP4 ADD SWAP1 POP SWAP3 SWAP2 POP POP JUMP JUMPDEST PUSH1 0x0 DUP3 SWAP1 POP SWAP3 SWAP2 POP POP JUMP JUMPDEST PUSH1 0x0 PUSH1 0x40 DUP3 ADD SWAP1 POP SWAP2 SWAP1 POP JUMP JUMPDEST PUSH1 0x0 PUSH2 0x19A3 DUP4 DUP6 PUSH2 0x1872 JUMP JUMPDEST SWAP4 POP PUSH2 0x19AE DUP3 PUSH2 0x1883 JUMP JUMPDEST DUP1 PUSH1 0x0 JUMPDEST DUP6 DUP2 LT ISZERO PUSH2 0x19E7 JUMPI PUSH2 0x19C4 DUP3 DUP5 PUSH2 0x197F JUMP JUMPDEST PUSH2 0x19CE DUP9 DUP3 PUSH2 0x1967 JUMP JUMPDEST SWAP8 POP PUSH2 0x19D9 DUP4 PUSH2 0x198A JUMP JUMPDEST SWAP3 POP POP PUSH1 0x1 DUP2 ADD SWAP1 POP PUSH2 0x19B2 JUMP JUMPDEST POP DUP6 SWAP3 POP POP POP SWAP4 SWAP3 POP POP POP JUMP JUMPDEST PUSH1 0x0 PUSH1 0x20 DUP3 ADD SWAP1 POP DUP2 DUP2 SUB PUSH1 0x0 DUP4 ADD MSTORE PUSH2 0x1A0F DUP2 DUP5 DUP7 PUSH2 0x1997 JUMP JUMPDEST SWAP1 POP SWAP4 SWAP3 POP POP POP JUMP JUMPDEST PUSH1 0x0 PUSH1 0x80 DUP3 ADD SWAP1 POP PUSH2 0x1A2D PUSH1 0x0 DUP4 ADD DUP8 PUSH2 0x11FA JUMP JUMPDEST PUSH2 0x1A3A PUSH1 0x20 DUP4 ADD DUP7 PUSH2 0x146D JUMP JUMPDEST PUSH2 0x1A47 PUSH1 0x40 DUP4 ADD DUP6 PUSH2 0x146D JUMP JUMPDEST PUSH2 0x1A54 PUSH1 0x60 DUP4 ADD DUP5 PUSH2 0x11FA JUMP JUMPDEST SWAP6 SWAP5 POP POP POP POP POP JUMP JUMPDEST PUSH32 0x4E487B7100000000000000000000000000000000000000000000000000000000 PUSH1 0x0 MSTORE PUSH1 0x32 PUSH1 0x4 MSTORE PUSH1 0x24 PUSH1 0x0 REVERT JUMPDEST PUSH1 0x0 PUSH1 0xFF DUP3 AND SWAP1 POP SWAP2 SWAP1 POP JUMP JUMPDEST PUSH2 0x1AA2 DUP2 PUSH2 0x1A8C JUMP JUMPDEST DUP2 EQ PUSH2 0x1AAD JUMPI PUSH1 0x0 DUP1 REVERT JUMPDEST POP JUMP JUMPDEST PUSH1 0x0 DUP2 CALLDATALOAD SWAP1 POP PUSH2 0x1ABF DUP2 PUSH2 0x1A99 JUMP JUMPDEST SWAP3 SWAP2 POP POP JUMP JUMPDEST PUSH1 0x0 PUSH1 0x20 DUP3 DUP5 SUB SLT ISZERO PUSH2 0x1ADB JUMPI PUSH2 0x1ADA PUSH2 0x10F4 JUMP JUMPDEST JUMPDEST PUSH1 0x0 PUSH2 0x1AE9 DUP5 DUP3 DUP6 ADD PUSH2 0x1AB0 JUMP JUMPDEST SWAP2 POP POP SWAP3 SWAP2 POP POP JUMP JUMPDEST PUSH1 0x0 PUSH1 0x20 DUP3 DUP5 SUB SLT ISZERO PUSH2 0x1B08 JUMPI PUSH2 0x1B07 PUSH2 0x10F4 JUMP JUMPDEST JUMPDEST PUSH1 0x0 PUSH2 0x1B16 DUP5 DUP3 DUP6 ADD PUSH2 0x18D6 JUMP JUMPDEST SWAP2 POP POP SWAP3 SWAP2 POP POP JUMP JUMPDEST PUSH1 0x0 PUSH2 0x1B2A DUP3 PUSH2 0x1197 JUMP JUMPDEST SWAP2 POP PUSH2 0x1B35 DUP4 PUSH2 0x1197 JUMP JUMPDEST SWAP3 POP DUP3 DUP3 ADD SWAP1 POP DUP1 DUP3 GT ISZERO PUSH2 0x1B4D JUMPI PUSH2 0x1B4C PUSH2 0x172F JUMP JUMPDEST JUMPDEST SWAP3 SWAP2 POP POP JUMP JUMPDEST PUSH1 0x0 PUSH2 0x1B5E DUP3 PUSH2 0x1197 JUMP JUMPDEST SWAP2 POP PUSH2 0x1B69 DUP4 PUSH2 0x1197 JUMP JUMPDEST SWAP3 POP DUP3 DUP3 SUB SWAP1 POP DUP2 DUP2 GT ISZERO PUSH2 0x1B81 JUMPI PUSH2 0x1B80 PUSH2 0x172F JUMP JUMPDEST JUMPDEST SWAP3 SWAP2 POP POP JUMP JUMPDEST PUSH1 0x0 PUSH32 0xFF00000000000000000000000000000000000000000000000000000000000000 DUP3 AND SWAP1 POP SWAP2 SWAP1 POP JUMP JUMPDEST PUSH1 0x0 DUP2 SWAP1 POP SWAP2 SWAP1 POP JUMP JUMPDEST PUSH2 0x1BCE PUSH2 0x1BC9 DUP3 PUSH2 0x1B87 JUMP JUMPDEST PUSH2 0x1BB3 JUMP JUMPDEST DUP3 MSTORE POP POP JUMP JUMPDEST PUSH1 0x0 DUP2 MLOAD SWAP1 POP SWAP2 SWAP1 POP JUMP JUMPDEST PUSH1 0x0 DUP2 SWAP1 POP SWAP3 SWAP2 POP POP JUMP JUMPDEST PUSH1 0x0 JUMPDEST DUP4 DUP2 LT ISZERO PUSH2 0x1C08 JUMPI DUP1 DUP3 ADD MLOAD DUP2 DUP5 ADD MSTORE PUSH1 0x20 DUP2 ADD SWAP1 POP PUSH2 0x1BED JUMP JUMPDEST PUSH1 0x0 DUP5 DUP5 ADD MSTORE POP POP POP POP JUMP JUMPDEST PUSH1 0x0 PUSH2 0x1C1F DUP3 PUSH2 0x1BD4 JUMP JUMPDEST PUSH2 0x1C29 DUP2 DUP6 PUSH2 0x1BDF JUMP JUMPDEST SWAP4 POP PUSH2 0x1C39 DUP2 DUP6 PUSH1 0x20 DUP7 ADD PUSH2 0x1BEA JUMP JUMPDEST DUP1 DUP5 ADD SWAP2 POP POP SWAP3 SWAP2 POP POP JUMP JUMPDEST PUSH1 0x0 PUSH2 0x1C51 DUP3 DUP6 PUSH2 0x1BBD JUMP JUMPDEST PUSH1 0x1 DUP3 ADD SWAP2 POP PUSH2 0x1C61 DUP3 DUP5 PUSH2 0x1C14 JUMP JUMPDEST SWAP2 POP DUP2 SWAP1 POP SWAP4 SWAP3 POP POP POP JUMP JUMPDEST PUSH1 0x0 PUSH2 0x1C79 DUP3 DUP5 PUSH2 0x1C14 JUMP JUMPDEST SWAP2 POP DUP2 SWAP1 POP SWAP3 SWAP2 POP POP JUMP JUMPDEST PUSH1 0x0 DUP2 MLOAD SWAP1 POP PUSH2 0x1C93 DUP2 PUSH2 0x1108 JUMP JUMPDEST SWAP3 SWAP2 POP POP JUMP JUMPDEST PUSH1 0x0 PUSH1 0x20 DUP3 DUP5 SUB SLT ISZERO PUSH2 0x1CAF JUMPI PUSH2 0x1CAE PUSH2 0x10F4 JUMP JUMPDEST JUMPDEST PUSH1 0x0 PUSH2 0x1CBD DUP5 DUP3 DUP6 ADD PUSH2 0x1C84 JUMP JUMPDEST SWAP2 POP POP SWAP3 SWAP2 POP POP JUMP JUMPDEST PUSH1 0x0 DUP3 DUP3 MSTORE PUSH1 0x20 DUP3 ADD SWAP1 POP SWAP3 SWAP2 POP POP JUMP JUMPDEST PUSH32 0x63616E6E6F742063616C6C20636F6D70757465526F6F74486173682077697468 PUSH1 0x0 DUP3 ADD MSTORE PUSH32 0x2030206E756D626572206F66206C656176657300000000000000000000000000 PUSH1 0x20 DUP3 ADD MSTORE POP JUMP JUMPDEST PUSH1 0x0 PUSH2 0x1D33 PUSH1 0x33 DUP4 PUSH2 0x1CC6 JUMP JUMPDEST SWAP2 POP PUSH2 0x1D3E DUP3 PUSH2 0x1CD7 JUMP JUMPDEST PUSH1 0x40 DUP3 ADD SWAP1 POP SWAP2 SWAP1 POP JUMP JUMPDEST PUSH1 0x0 PUSH1 0x20 DUP3 ADD SWAP1 POP DUP2 DUP2 SUB PUSH1 0x0 DUP4 ADD MSTORE PUSH2 0x1D62 DUP2 PUSH2 0x1D26 JUMP JUMPDEST SWAP1 POP SWAP2 SWAP1 POP JUMP JUMPDEST PUSH32 0x756E657870656374656420696E6E657220686173686573000000000000000000 PUSH1 0x0 DUP3 ADD MSTORE POP JUMP JUMPDEST PUSH1 0x0 PUSH2 0x1D9F PUSH1 0x17 DUP4 PUSH2 0x1CC6 JUMP JUMPDEST SWAP2 POP PUSH2 0x1DAA DUP3 PUSH2 0x1D69 JUMP JUMPDEST PUSH1 0x20 DUP3 ADD SWAP1 POP SWAP2 SWAP1 POP JUMP JUMPDEST PUSH1 0x0 PUSH1 0x20 DUP3 ADD SWAP1 POP DUP2 DUP2 SUB PUSH1 0x0 DUP4 ADD MSTORE PUSH2 0x1DCE DUP2 PUSH2 0x1D92 JUMP JUMPDEST SWAP1 POP SWAP2 SWAP1 POP JUMP JUMPDEST PUSH32 0x6578706563746564206174206C65617374206F6E6520696E6E65722068617368 PUSH1 0x0 DUP3 ADD MSTORE POP JUMP JUMPDEST PUSH1 0x0 PUSH2 0x1E0B PUSH1 0x20 DUP4 PUSH2 0x1CC6 JUMP JUMPDEST SWAP2 POP PUSH2 0x1E16 DUP3 PUSH2 0x1DD5 JUMP JUMPDEST PUSH1 0x20 DUP3 ADD SWAP1 POP SWAP2 SWAP1 POP JUMP JUMPDEST PUSH1 0x0 PUSH1 0x20 DUP3 ADD SWAP1 POP DUP2 DUP2 SUB PUSH1 0x0 DUP4 ADD MSTORE PUSH2 0x1E3A DUP2 PUSH2 0x1DFE JUMP JUMPDEST SWAP1 POP SWAP2 SWAP1 POP JUMP JUMPDEST PUSH32 0x496E76616C69642072616E67653A205F626567696E2069732067726561746572 PUSH1 0x0 DUP3 ADD MSTORE PUSH32 0x207468616E205F656E6400000000000000000000000000000000000000000000 PUSH1 0x20 DUP3 ADD MSTORE POP JUMP JUMPDEST PUSH1 0x0 PUSH2 0x1E9D PUSH1 0x2A DUP4 PUSH2 0x1CC6 JUMP JUMPDEST SWAP2 POP PUSH2 0x1EA8 DUP3 PUSH2 0x1E41 JUMP JUMPDEST PUSH1 0x40 DUP3 ADD SWAP1 POP SWAP2 SWAP1 POP JUMP JUMPDEST PUSH1 0x0 PUSH1 0x20 DUP3 ADD SWAP1 POP DUP2 DUP2 SUB PUSH1 0x0 DUP4 ADD MSTORE PUSH2 0x1ECC DUP2 PUSH2 0x1E90 JUMP JUMPDEST SWAP1 POP SWAP2 SWAP1 POP JUMP JUMPDEST PUSH32 0x496E76616C69642072616E67653A205F626567696E206F72205F656E64206172 PUSH1 0x0 DUP3 ADD MSTORE PUSH32 0x65206F7574206F6620626F756E64730000000000000000000000000000000000 PUSH1 0x20 DUP3 ADD MSTORE POP JUMP JUMPDEST PUSH1 0x0 PUSH2 0x1F2F PUSH1 0x2F DUP4 PUSH2 0x1CC6 JUMP JUMPDEST SWAP2 POP PUSH2 0x1F3A DUP3 PUSH2 0x1ED3 JUMP JUMPDEST PUSH1 0x40 DUP3 ADD SWAP1 POP SWAP2 SWAP1 POP JUMP JUMPDEST PUSH1 0x0 PUSH1 0x20 DUP3 ADD SWAP1 POP DUP2 DUP2 SUB PUSH1 0x0 DUP4 ADD MSTORE PUSH2 0x1F5E DUP2 PUSH2 0x1F22 JUMP JUMPDEST SWAP1 POP SWAP2 SWAP1 POP JUMP JUMPDEST PUSH1 0x0 DUP2 SWAP1 POP SWAP2 SWAP1 POP JUMP JUMPDEST PUSH2 0x1F80 PUSH2 0x1F7B DUP3 PUSH2 0x10FE JUMP JUMPDEST PUSH2 0x1F65 JUMP JUMPDEST DUP3 MSTORE POP POP JUMP JUMPDEST PUSH1 0x0 PUSH2 0x1F92 DUP3 DUP7 PUSH2 0x1BBD JUMP JUMPDEST PUSH1 0x1 DUP3 ADD SWAP2 POP PUSH2 0x1FA2 DUP3 DUP6 PUSH2 0x1F6F JUMP JUMPDEST PUSH1 0x20 DUP3 ADD SWAP2 POP PUSH2 0x1FB2 DUP3 DUP5 PUSH2 0x1F6F JUMP JUMPDEST PUSH1 0x20 DUP3 ADD SWAP2 POP DUP2 SWAP1 POP SWAP5 SWAP4 POP POP POP POP JUMP JUMPDEST PUSH2 0x1FCC DUP2 PUSH2 0x1A8C JUMP JUMPDEST DUP3 MSTORE POP POP JUMP JUMPDEST PUSH1 0x0 PUSH1 0x80 DUP3 ADD SWAP1 POP PUSH2 0x1FE7 PUSH1 0x0 DUP4 ADD DUP8 PUSH2 0x11FA JUMP JUMPDEST PUSH2 0x1FF4 PUSH1 0x20 DUP4 ADD DUP7 PUSH2 0x1FC3 JUMP JUMPDEST PUSH2 0x2001 PUSH1 0x40 DUP4 ADD DUP6 PUSH2 0x11FA JUMP JUMPDEST PUSH2 0x200E PUSH1 0x60 DUP4 ADD DUP5 PUSH2 0x11FA JUMP JUMPDEST SWAP6 SWAP5 POP POP POP POP POP JUMP JUMPDEST PUSH32 0x4E487B7100000000000000000000000000000000000000000000000000000000 PUSH1 0x0 MSTORE PUSH1 0x21 PUSH1 0x4 MSTORE PUSH1 0x24 PUSH1 0x0 REVERT INVALID LOG2 PUSH5 0x6970667358 0x22 SLT KECCAK256 0xC1 ADD PUSH25 0x3FFC112CAE411109A5C08ED52ACC3829BE18E687B86CEBC666 0x2C DUP16 0xBA 0xC2 PUSH5 0x736F6C6343 STOP ADDMOD AND STOP CALLER "},"methodIdentifiers":{"currentRelayedBlockHeight()":"d8256ec7","isOracleRoot(bytes32)":"31b53e52","lastValidatorSetCheckpoint()":"af082a7d","oracleRoots(uint256)":"91f6b44b","powerThreshold()":"ba95ec27","submitOracleRoot(bytes32,uint256,(address,uint256)[],(uint8,bytes32,bytes32)[])":"ae002495","updateValidatorSet(bytes32,uint64,(address,uint256)[],(uint8,bytes32,bytes32)[])":"93319d6e","validatorNonce()":"e17a684f","verifyAttestation(bytes32,(uint256,bytes32),(bytes32[],uint256,uint256))":"e5e57eb5"}}}}}