{"contracts/bridge/LayerLightClientBridge.sol":{"LayerLightClientBridge":{"abi":[{"inputs":[{"internalType":"uint256","name":"_unbondingPeriod","type":"uint256"}],"stateMutability":"nonpayable","type":"constructor"},{"inputs":[{"internalType":"uint256","name":"","type":"uint256"}],"name":"blockDetails","outputs":[{"internalType":"bytes32","name":"oracleHash","type":"bytes32"},{"internalType":"uint64","name":"timeSecond","type":"uint64"},{"internalType":"uint32","name":"timeNanoSecondFraction","type":"uint32"}],"stateMutability":"view","type":"function"},{"inputs":[{"components":[{"internalType":"bytes","name":"signedDataPrefix","type":"bytes"},{"internalType":"bytes","name":"signedDataSuffix","type":"bytes"}],"internalType":"struct LayerLightClientBridge.CommonEncodedVotePartData","name":"_votePart","type":"tuple"},{"internalType":"bytes32","name":"_blockHash","type":"bytes32"}],"name":"checkPartsAndEncodedCommonParts","outputs":[{"internalType":"bytes","name":"","type":"bytes"}],"stateMutability":"pure","type":"function"},{"inputs":[{"components":[{"internalType":"bytes32","name":"r","type":"bytes32"},{"internalType":"bytes32","name":"s","type":"bytes32"},{"internalType":"uint8","name":"v","type":"uint8"},{"internalType":"bytes","name":"encodedTimestamp","type":"bytes"}],"internalType":"struct LayerLightClientBridge.TMSignatureData","name":"_sigData","type":"tuple"},{"internalType":"bytes","name":"_commonEncodedPart","type":"bytes"},{"internalType":"bytes","name":"_encodedChainID","type":"bytes"}],"name":"checkTimeAndRecoverSigner","outputs":[{"internalType":"address","name":"","type":"address"}],"stateMutability":"pure","type":"function"},{"inputs":[],"name":"encodedChainId","outputs":[{"internalType":"bytes","name":"","type":"bytes"}],"stateMutability":"view","type":"function"},{"inputs":[{"components":[{"internalType":"bytes32","name":"oracleIAVLStateHash","type":"bytes32"},{"internalType":"bytes32","name":"paramsStoreMerkleHash","type":"bytes32"},{"internalType":"bytes32","name":"slashingToStakingStoresMerkleHash","type":"bytes32"},{"internalType":"bytes32","name":"govToMintStoresMerkleHash","type":"bytes32"},{"internalType":"bytes32","name":"authToFeegrantStoresMerkleHash","type":"bytes32"},{"internalType":"bytes32","name":"transferToUpgradeStoresMerkleHash","type":"bytes32"}],"internalType":"struct LayerLightClientBridge.MultistoreData","name":"_store","type":"tuple"}],"name":"getAppHash","outputs":[{"internalType":"bytes32","name":"","type":"bytes32"}],"stateMutability":"pure","type":"function"},{"inputs":[{"components":[{"internalType":"bytes32","name":"oracleIAVLStateHash","type":"bytes32"},{"internalType":"bytes32","name":"paramsStoreMerkleHash","type":"bytes32"},{"internalType":"bytes32","name":"slashingToStakingStoresMerkleHash","type":"bytes32"},{"internalType":"bytes32","name":"govToMintStoresMerkleHash","type":"bytes32"},{"internalType":"bytes32","name":"authToFeegrantStoresMerkleHash","type":"bytes32"},{"internalType":"bytes32","name":"transferToUpgradeStoresMerkleHash","type":"bytes32"}],"internalType":"struct LayerLightClientBridge.MultistoreData","name":"_store","type":"tuple"}],"name":"getAppHash2","outputs":[{"internalType":"bytes32","name":"","type":"bytes32"}],"stateMutability":"pure","type":"function"},{"inputs":[{"components":[{"internalType":"bytes32","name":"versionAndChainIdHash","type":"bytes32"},{"internalType":"uint64","name":"height","type":"uint64"},{"internalType":"uint64","name":"timeSecond","type":"uint64"},{"internalType":"uint32","name":"timeNanoSecondFraction","type":"uint32"},{"internalType":"bytes32","name":"lastBlockIdAndOther","type":"bytes32"},{"internalType":"bytes32","name":"nextValidatorHashAndConsensusHash","type":"bytes32"},{"internalType":"bytes32","name":"lastResultsHash","type":"bytes32"},{"internalType":"bytes32","name":"evidenceAndProposerHash","type":"bytes32"}],"internalType":"struct LayerLightClientBridge.BlockHeaderMerkleParts","name":"_merkleParts","type":"tuple"},{"internalType":"bytes32","name":"_appHash","type":"bytes32"}],"name":"getBlockHeader","outputs":[{"internalType":"bytes32","name":"","type":"bytes32"}],"stateMutability":"pure","type":"function"},{"inputs":[{"internalType":"address[]","name":"_validators","type":"address[]"},{"internalType":"uint256[]","name":"_powers","type":"uint256[]"},{"internalType":"string","name":"_encodedChainID","type":"string"}],"name":"init","outputs":[],"stateMutability":"nonpayable","type":"function"},{"inputs":[],"name":"latestBlockHeight","outputs":[{"internalType":"uint256","name":"","type":"uint256"}],"stateMutability":"view","type":"function"},{"inputs":[{"components":[{"internalType":"bytes32","name":"oracleIAVLStateHash","type":"bytes32"},{"internalType":"bytes32","name":"paramsStoreMerkleHash","type":"bytes32"},{"internalType":"bytes32","name":"slashingToStakingStoresMerkleHash","type":"bytes32"},{"internalType":"bytes32","name":"govToMintStoresMerkleHash","type":"bytes32"},{"internalType":"bytes32","name":"authToFeegrantStoresMerkleHash","type":"bytes32"},{"internalType":"bytes32","name":"transferToUpgradeStoresMerkleHash","type":"bytes32"}],"internalType":"struct LayerLightClientBridge.MultistoreData","name":"_multiStore","type":"tuple"},{"components":[{"internalType":"bytes32","name":"versionAndChainIdHash","type":"bytes32"},{"internalType":"uint64","name":"height","type":"uint64"},{"internalType":"uint64","name":"timeSecond","type":"uint64"},{"internalType":"uint32","name":"timeNanoSecondFraction","type":"uint32"},{"internalType":"bytes32","name":"lastBlockIdAndOther","type":"bytes32"},{"internalType":"bytes32","name":"nextValidatorHashAndConsensusHash","type":"bytes32"},{"internalType":"bytes32","name":"lastResultsHash","type":"bytes32"},{"internalType":"bytes32","name":"evidenceAndProposerHash","type":"bytes32"}],"internalType":"struct LayerLightClientBridge.BlockHeaderMerkleParts","name":"_merkleParts","type":"tuple"},{"components":[{"internalType":"bytes","name":"signedDataPrefix","type":"bytes"},{"internalType":"bytes","name":"signedDataSuffix","type":"bytes"}],"internalType":"struct LayerLightClientBridge.CommonEncodedVotePartData","name":"_commonEncodedVotePart","type":"tuple"},{"components":[{"internalType":"bytes32","name":"r","type":"bytes32"},{"internalType":"bytes32","name":"s","type":"bytes32"},{"internalType":"uint8","name":"v","type":"uint8"},{"internalType":"bytes","name":"encodedTimestamp","type":"bytes"}],"internalType":"struct LayerLightClientBridge.TMSignatureData[]","name":"_signatures","type":"tuple[]"}],"name":"relayBlock","outputs":[],"stateMutability":"nonpayable","type":"function"},{"inputs":[],"name":"totalValidatorPower","outputs":[{"internalType":"uint256","name":"","type":"uint256"}],"stateMutability":"view","type":"function"},{"inputs":[],"name":"unbondingPeriod","outputs":[{"internalType":"uint256","name":"","type":"uint256"}],"stateMutability":"view","type":"function"},{"inputs":[{"internalType":"address","name":"","type":"address"}],"name":"validatorPowers","outputs":[{"internalType":"uint256","name":"","type":"uint256"}],"stateMutability":"view","type":"function"},{"inputs":[{"components":[{"internalType":"bytes32","name":"oracleIAVLStateHash","type":"bytes32"},{"internalType":"bytes32","name":"paramsStoreMerkleHash","type":"bytes32"},{"internalType":"bytes32","name":"slashingToStakingStoresMerkleHash","type":"bytes32"},{"internalType":"bytes32","name":"govToMintStoresMerkleHash","type":"bytes32"},{"internalType":"bytes32","name":"authToFeegrantStoresMerkleHash","type":"bytes32"},{"internalType":"bytes32","name":"transferToUpgradeStoresMerkleHash","type":"bytes32"}],"internalType":"struct LayerLightClientBridge.MultistoreData","name":"_multiStore","type":"tuple"},{"components":[{"internalType":"bytes32","name":"versionAndChainIdHash","type":"bytes32"},{"internalType":"uint64","name":"height","type":"uint64"},{"internalType":"uint64","name":"timeSecond","type":"uint64"},{"internalType":"uint32","name":"timeNanoSecondFraction","type":"uint32"},{"internalType":"bytes32","name":"lastBlockIdAndOther","type":"bytes32"},{"internalType":"bytes32","name":"nextValidatorHashAndConsensusHash","type":"bytes32"},{"internalType":"bytes32","name":"lastResultsHash","type":"bytes32"},{"internalType":"bytes32","name":"evidenceAndProposerHash","type":"bytes32"}],"internalType":"struct LayerLightClientBridge.BlockHeaderMerkleParts","name":"_merkleParts","type":"tuple"},{"components":[{"internalType":"bytes","name":"signedDataPrefix","type":"bytes"},{"internalType":"bytes","name":"signedDataSuffix","type":"bytes"}],"internalType":"struct LayerLightClientBridge.CommonEncodedVotePartData","name":"_commonEncodedVotePart","type":"tuple"},{"components":[{"internalType":"bytes32","name":"r","type":"bytes32"},{"internalType":"bytes32","name":"s","type":"bytes32"},{"internalType":"uint8","name":"v","type":"uint8"},{"internalType":"bytes","name":"encodedTimestamp","type":"bytes"}],"internalType":"struct LayerLightClientBridge.TMSignatureData[]","name":"_signatures","type":"tuple[]"}],"name":"verifyBlockHeader","outputs":[{"internalType":"bool","name":"","type":"bool"}],"stateMutability":"view","type":"function"},{"inputs":[{"internalType":"uint256","name":"_blockHeight","type":"uint256"},{"components":[{"internalType":"string","name":"clientID","type":"string"},{"internalType":"uint64","name":"oracleScriptID","type":"uint64"},{"internalType":"bytes","name":"params","type":"bytes"},{"internalType":"uint64","name":"askCount","type":"uint64"},{"internalType":"uint64","name":"minCount","type":"uint64"},{"internalType":"uint64","name":"requestID","type":"uint64"},{"internalType":"uint64","name":"ansCount","type":"uint64"},{"internalType":"uint64","name":"requestTime","type":"uint64"},{"internalType":"uint64","name":"resolveTime","type":"uint64"},{"internalType":"enum LayerLightClientBridge.ResolveStatus","name":"resolveStatus","type":"uint8"},{"internalType":"bytes","name":"result","type":"bytes"}],"internalType":"struct LayerLightClientBridge.Value","name":"_value","type":"tuple"},{"internalType":"uint256","name":"_oracleHeight","type":"uint256"},{"components":[{"internalType":"bool","name":"isDataOnRight","type":"bool"},{"internalType":"uint8","name":"subtreeHeight","type":"uint8"},{"internalType":"uint256","name":"subtreeSize","type":"uint256"},{"internalType":"uint256","name":"subtreeVersion","type":"uint256"},{"internalType":"bytes32","name":"siblingHash","type":"bytes32"}],"internalType":"struct LayerLightClientBridge.IAVLMerklePath[]","name":"_merklePaths","type":"tuple[]"}],"name":"verifyOracleData","outputs":[{"components":[{"internalType":"string","name":"clientID","type":"string"},{"internalType":"uint64","name":"oracleScriptID","type":"uint64"},{"internalType":"bytes","name":"params","type":"bytes"},{"internalType":"uint64","name":"askCount","type":"uint64"},{"internalType":"uint64","name":"minCount","type":"uint64"},{"internalType":"uint64","name":"requestID","type":"uint64"},{"internalType":"uint64","name":"ansCount","type":"uint64"},{"internalType":"uint64","name":"requestTime","type":"uint64"},{"internalType":"uint64","name":"resolveTime","type":"uint64"},{"internalType":"enum LayerLightClientBridge.ResolveStatus","name":"resolveStatus","type":"uint8"},{"internalType":"bytes","name":"result","type":"bytes"}],"internalType":"struct LayerLightClientBridge.Value","name":"","type":"tuple"}],"stateMutability":"view","type":"function"}],"evm":{"bytecode":{"linkReferences":{},"object":"60806040523480156200001157600080fd5b506040516200419e3803806200419e83398181016040528101906200003791906200005c565b8060028190555050620000ac565b600081519050620000568162000092565b92915050565b6000602082840312156200006f57600080fd5b60006200007f8482850162000045565b91505092915050565b6000819050919050565b6200009d8162000088565b8114620000a957600080fd5b50565b6140e280620000bc6000396000f3fe608060405234801561001057600080fd5b50600436106100f55760003560e01c8063af4b910711610097578063f3f39ee511610066578063f3f39ee5146102be578063f61aa09d146102dc578063f8156a6e1461030c578063f953205a1461032a576100f5565b8063af4b910714610212578063c573d9771461022e578063cc2532ba1461025e578063e71296e11461028e576100f5565b806364c47193116100d357806364c471931461018a5780636cf6d675146101a8578063847c1b23146101c657806393a4a134146101f6576100f5565b8063071ee1e1146100fa5780630ac804c51461012a5780635cd2458c1461015a575b600080fd5b610114600480360381019061010f9190612c03565b61035c565b60405161012191906135a9565b60405180910390f35b610144600480360381019061013f9190612b44565b6104c5565b60405161015191906135df565b60405180910390f35b610174600480360381019061016f9190612a2c565b6105ae565b6040516101819190613676565b60405180910390f35b610192610684565b60405161019f9190613676565b60405180910390f35b6101b0610712565b6040516101bd91906137de565b60405180910390f35b6101e060048036038101906101db91906129ee565b610718565b6040516101ed91906135df565b60405180910390f35b610210600480360381019061020b91906128f7565b610801565b005b61022c60048036038101906102279190612aa9565b6109db565b005b61024860048036038101906102439190612cc3565b610b47565b60405161025591906137bc565b60405180910390f35b61027860048036038101906102739190612b6d565b610d02565b60405161028591906135c4565b60405180910390f35b6102a860048036038101906102a39190612b44565b610f62565b6040516102b591906135df565b60405180910390f35b6102c6611069565b6040516102d391906137de565b60405180910390f35b6102f660048036038101906102f191906128ce565b61106f565b60405161030391906137de565b60405180910390f35b610314611087565b60405161032191906137de565b60405180910390f35b610344600480360381019061033f9190612c9a565b61108d565b604051610353939291906135fa565b60405180910390f35b600083606001515160061115801561037a5750600c84606001515111155b6103b9576040517f08c379a00000000000000000000000000000000000000000000000000000000081526004016103b09061377c565b60405180910390fd5b600083602a8660600151518760600151866040516020016103de959493929190613328565b604051602081830303815290604052905060016002825183604051602001610407929190613426565b604051602081830303815290604052604051610423919061323e565b602060405180830381855afa158015610440573d6000803e3d6000fd5b5050506040513d601f19601f82011682018060405250810190610463919061299b565b8660400151876000015188602001516040516000815260200160405260405161048f9493929190613631565b6020604051602081039080840390855afa1580156104b1573d6000803e3d6000fd5b505050602060405103519150509392505050565b6000806105a36105998460800151610594866060015161058f886040015161058a61058060028c600001516040516020016105009190613223565b60405160208183030381529060405260405161051c919061323e565b602060405180830381855afa158015610539573d6000803e3d6000fd5b5050506040513d601f19601f8201168201806040525081019061055c919061299b565b60405160200161056c91906133a1565b6040516020818303038152906040526110db565b8b60200151611156565b611156565b611156565b611156565b8460a00151611156565b905080915050919050565b6060600f83600001515114806105c957506018836000015151145b610608576040517f08c379a00000000000000000000000000000000000000000000000000000000081526004016105ff906136dc565b60405180910390fd5b602683602001515114610650576040517f08c379a0000000000000000000000000000000000000000000000000000000008152600401610647906136bc565b60405180910390fd5b826000015182846020015160405160200161066d93929190613255565b604051602081830303815290604052905092915050565b6000805461069190613b97565b80601f01602080910402602001604051908101604052809291908181526020018280546106bd90613b97565b801561070a5780601f106106df5761010080835404028352916020019161070a565b820191906000526020600020905b8154815290600101906020018083116106ed57829003601f168201915b505050505081565b60025481565b6000806107f561079b610791866000015161078c61076d60086107488b6020015167ffffffffffffffff166111d4565b604051602001610759929190613426565b6040516020818303038152906040526110db565b6107876107828b604001518c6060015161139f565b6110db565b611156565b611156565b8660800151611156565b6107f06107e68760a001516107e16107d7600a60208b6040516020016107c3939291906134f3565b6040516020818303038152906040526110db565b8a60c00151611156565b611156565b8760e00151611156565b611156565b90508091505092915050565b600080805461080f90613b97565b905014610851576040517f08c379a00000000000000000000000000000000000000000000000000000000081526004016108489061373c565b60405180910390fd5b60005b8686905081101561099a57848482818110610898577f4e487b7100000000000000000000000000000000000000000000000000000000600052603260045260246000fd5b90506020020135600460008989858181106108dc577f4e487b7100000000000000000000000000000000000000000000000000000000600052603260045260246000fd5b90506020020160208101906108f191906128ce565b73ffffffffffffffffffffffffffffffffffffffff1673ffffffffffffffffffffffffffffffffffffffff16815260200190815260200160002081905550848482818110610968577f4e487b7100000000000000000000000000000000000000000000000000000000600052603260045260246000fd5b9050602002013560016000828254610980919061391c565b92505081905550808061099290613bfa565b915050610854565b5081816040516020016109ae929190613698565b604051602081830303815290604052600090805190602001906109d2929190611f1d565b50505050505050565b610a1c858036038101906109ef9190612b44565b85803603810190610a0091906129c4565b85610a0a90613b2f565b858590610a179190613b08565b610d02565b610a5b576040517f08c379a0000000000000000000000000000000000000000000000000000000008152600401610a52906136fc565b60405180910390fd5b604051806060016040528086600001358152602001856040016020810190610a839190612d84565b67ffffffffffffffff168152602001856060016020810190610aa59190612d5b565b63ffffffff1681525060056000866020016020810190610ac59190612d84565b67ffffffffffffffff1681526020019081526020016000206000820151816000015560208201518160010160006101000a81548167ffffffffffffffff021916908367ffffffffffffffff16021790555060408201518160010160086101000a81548163ffffffff021916908363ffffffff1602179055509050505050505050565b610b4f611fa3565b6000600560008881526020019081526020016000206000015490506000801b811415610bb0576040517f08c379a0000000000000000000000000000000000000000000000000000000008152600401610ba79061371c565b60405180910390fd5b60006002610bc688610bc190613b42565b611423565b604051610bd3919061323e565b602060405180830381855afa158015610bf0573d6000803e3d6000fd5b5050506040513d601f19601f82011682018060405250810190610c13919061299b565b9050610cac828760ff8a60a0016020810190610c2f9190612d84565b604051602001610c409291906134c7565b604051602081830303815290604052848989808060200260200160405190810160405280939291908181526020016000905b82821015610ca257848483905060a00201803603810190610c939190612a80565b81526020019060010190610c72565b5050505050611aa7565b610ceb576040517f08c379a0000000000000000000000000000000000000000000000000000000008152600401610ce29061375c565b60405180910390fd5b86610cf590613b42565b9250505095945050505050565b600080610d0e86610f62565b90506000610d1c8683610718565b90506000610d2a86836105ae565b90506000808054610d3a90613b97565b80601f0160208091040260200160405190810160405280929190818152602001828054610d6690613b97565b8015610db35780601f10610d8857610100808354040283529160200191610db3565b820191906000526020600020905b815481529060010190602001808311610d9657829003601f168201915b5050505050905060008060005b8851811015610f33576000610e168a8381518110610e07577f4e487b7100000000000000000000000000000000000000000000000000000000600052603260045260246000fd5b6020026020010151878761035c565b90508373ffffffffffffffffffffffffffffffffffffffff168173ffffffffffffffffffffffffffffffffffffffff1611610e86576040517f08c379a0000000000000000000000000000000000000000000000000000000008152600401610e7d9061379c565b60405180910390fd5b6000600460008373ffffffffffffffffffffffffffffffffffffffff1673ffffffffffffffffffffffffffffffffffffffff168152602001908152602001600020541115610f1c57600460008273ffffffffffffffffffffffffffffffffffffffff1673ffffffffffffffffffffffffffffffffffffffff1681526020019081526020016000205483610f19919061391c565b92505b809350508080610f2b90613bfa565b915050610dc0565b506002600154610f4391906139b0565b600382610f5091906139b0565b10159650505050505050949350505050565b600080610fff60028460000151604051602001610f7f9190613223565b604051602081830303815290604052604051610f9b919061323e565b602060405180830381855afa158015610fb8573d6000803e3d6000fd5b5050506040513d601f19601f82011682018060405250810190610fdb919061299b565b604051602001610feb919061337b565b6040516020818303038152906040526110db565b90506000611011828560200151611156565b90506000611023856040015183611156565b90506000611035866060015183611156565b90506000611047876080015183611156565b90506000611059828960a00151611156565b9050809650505050505050919050565b60035481565b60046020528060005260406000206000915090505481565b60015481565b60056020528060005260406000206000915090508060000154908060010160009054906101000a900467ffffffffffffffff16908060010160089054906101000a900463ffffffff16905083565b600060026000836040516020016110f3929190613426565b60405160208183030381529060405260405161110f919061323e565b602060405180830381855afa15801561112c573d6000803e3d6000fd5b5050506040513d601f19601f8201168201806040525081019061114f919061299b565b9050919050565b6000600260018484604051602001611170939291906133e9565b60405160208183030381529060405260405161118c919061323e565b602060405180830381855afa1580156111a9573d6000803e3d6000fd5b5050506040513d601f19601f820116820180604052508101906111cc919061299b565b905092915050565b6060600082905060005b60008211156111ff57806111f190613bfa565b9050600782901c91506111de565b60008167ffffffffffffffff811115611241577f4e487b7100000000000000000000000000000000000000000000000000000000600052604160045260246000fd5b6040519080825280601f01601f1916602001820160405280156112735781602001600182028036833780820191505090505b50905084925060005b8281101561130e57607f841660801760f81b8282815181106112c7577f4e487b7100000000000000000000000000000000000000000000000000000000600052603260045260246000fd5b60200101907effffffffffffffffffffffffffffffffffffffffffffffffffffffffffffff1916908160001a905350600784901c93508061130790613bfa565b905061127c565b50607f60f81b816001846113229190613a0a565b81518110611359577f4e487b7100000000000000000000000000000000000000000000000000000000600052603260045260246000fd5b6020010181815160f81c60f81b169150907effffffffffffffffffffffffffffffffffffffffffffffffffffffffffffff1916908160001a905350809350505050919050565b606060006113b68467ffffffffffffffff166111d4565b6040516020016113c691906133c7565b604051602081830303815290604052905060008363ffffffff16111561141957806113f68463ffffffff166111d4565b6040516020016114079291906132f9565b60405160208183030381529060405290505b8091505092915050565b606080600083600001515111156114b15780611479600160026006811115611474577f4e487b7100000000000000000000000000000000000000000000000000000000600052602160045260246000fd5b611bb4565b611487856000015151611be3565b856000015160405160200161149f94939291906132bb565b60405160208183030381529060405290505b6000836020015167ffffffffffffffff161461153d578061150c600260006006811115611507577f4e487b7100000000000000000000000000000000000000000000000000000000600052602160045260246000fd5b611bb4565b6115198560200151611be3565b60405160200161152b9392919061328a565b60405160208183030381529060405290505b600083604001515111156115c8578061159060036002600681111561158b577f4e487b7100000000000000000000000000000000000000000000000000000000600052602160045260246000fd5b611bb4565b61159e856040015151611be3565b85604001516040516020016115b694939291906132bb565b60405160208183030381529060405290505b6000836060015167ffffffffffffffff1614611654578061162360046000600681111561161e577f4e487b7100000000000000000000000000000000000000000000000000000000600052602160045260246000fd5b611bb4565b6116308560600151611be3565b6040516020016116429392919061328a565b60405160208183030381529060405290505b6000836080015167ffffffffffffffff16146116e057806116af6005600060068111156116aa577f4e487b7100000000000000000000000000000000000000000000000000000000600052602160045260246000fd5b611bb4565b6116bc8560800151611be3565b6040516020016116ce9392919061328a565b60405160208183030381529060405290505b60008360a0015167ffffffffffffffff161461176c578061173b600660006006811115611736577f4e487b7100000000000000000000000000000000000000000000000000000000600052602160045260246000fd5b611bb4565b6117488560a00151611be3565b60405160200161175a9392919061328a565b60405160208183030381529060405290505b60008360c0015167ffffffffffffffff16146117f857806117c76007600060068111156117c2577f4e487b7100000000000000000000000000000000000000000000000000000000600052602160045260246000fd5b611bb4565b6117d48560c00151611be3565b6040516020016117e69392919061328a565b60405160208183030381529060405290505b60008360e0015167ffffffffffffffff1614611884578061185360086000600681111561184e577f4e487b7100000000000000000000000000000000000000000000000000000000600052602160045260246000fd5b611bb4565b6118608560e00151611be3565b6040516020016118729392919061328a565b60405160208183030381529060405290505b600083610100015167ffffffffffffffff161461191257806118e06009600060068111156118db577f4e487b7100000000000000000000000000000000000000000000000000000000600052602160045260246000fd5b611bb4565b6118ee856101000151611be3565b6040516020016119009392919061328a565b60405160208183030381529060405290505b60008361012001516003811115611952577f4e487b7100000000000000000000000000000000000000000000000000000000600052602160045260246000fd5b67ffffffffffffffff1614611a1057806119a6600a600060068111156119a1577f4e487b7100000000000000000000000000000000000000000000000000000000600052602160045260246000fd5b611bb4565b6119ec85610120015160038111156119e7577f4e487b7100000000000000000000000000000000000000000000000000000000600052602160045260246000fd5b611bf5565b6040516020016119fe9392919061328a565b60405160208183030381529060405290505b6000836101400151511115611a9e5780611a64600b60026006811115611a5f577f4e487b7100000000000000000000000000000000000000000000000000000000600052602160045260246000fd5b611bb4565b611a7385610140015151611be3565b856101400151604051602001611a8c94939291906132bb565b60405160208183030381529060405290505b80915050919050565b600080611ab3866111d4565b905060006002600060028489518a60208b604051602001611ada9796959493929190613530565b604051602081830303815290604052604051611af6919061323e565b602060405180830381855afa158015611b13573d6000803e3d6000fd5b5050506040513d601f19601f82011682018060405250810190611b36919061299b565b905060005b8451811015611ba357611b8e858281518110611b80577f4e487b7100000000000000000000000000000000000000000000000000000000600052603260045260246000fd5b602002602001015183611c0d565b91508080611b9b90613bfa565b915050611b3b565b508781149250505095945050505050565b606060008260038567ffffffffffffffff16901b1790506000611bd682611cdb565b9050809250505092915050565b6060611bee82611cdb565b9050919050565b6060611c068263ffffffff16611cdb565b9050919050565b60008060008460000151611c2657838560800151611c2d565b8460800151845b9150915060026001866020015160ff16901b611c4c8760400151611eff565b611c598860600151611eff565b602086602087604051602001611c75979695949392919061344e565b604051602081830303815290604052604051611c91919061323e565b602060405180830381855afa158015611cae573d6000803e3d6000fd5b5050506040513d601f19601f82011682018060405250810190611cd1919061299b565b9250505092915050565b606060008290506000600190505b607f8267ffffffffffffffff161115611d215760078267ffffffffffffffff16901c9150600181611d1a9190613972565b9050611ce9565b60008167ffffffffffffffff1667ffffffffffffffff811115611d6d577f4e487b7100000000000000000000000000000000000000000000000000000000600052604160045260246000fd5b6040519080825280601f01601f191660200182016040528015611d9f5781602001600182028036833780820191505090505b50905084925060005b8267ffffffffffffffff168167ffffffffffffffff161015611e6457607f841660801760f81b828267ffffffffffffffff1681518110611e11577f4e487b7100000000000000000000000000000000000000000000000000000000600052603260045260246000fd5b60200101907effffffffffffffffffffffffffffffffffffffffffffffffffffffffffffff1916908160001a90535060078467ffffffffffffffff16901c93508080611e5c90613c43565b915050611da8565b50607f60f81b81600184611e789190613a3e565b67ffffffffffffffff1681518110611eb9577f4e487b7100000000000000000000000000000000000000000000000000000000600052603260045260246000fd5b6020010181815160f81c60f81b169150907effffffffffffffffffffffffffffffffffffffffffffffffffffffffffffff1916908160001a905350809350505050919050565b6060611f16600283611f1191906139b0565b6111d4565b9050919050565b828054611f2990613b97565b90600052602060002090601f016020900481019282611f4b5760008555611f92565b82601f10611f6457805160ff1916838001178555611f92565b82800160010185558215611f92579182015b82811115611f91578251825591602001919060010190611f76565b5b509050611f9f919061207b565b5090565b60405180610160016040528060608152602001600067ffffffffffffffff16815260200160608152602001600067ffffffffffffffff168152602001600067ffffffffffffffff168152602001600067ffffffffffffffff168152602001600067ffffffffffffffff168152602001600067ffffffffffffffff168152602001600067ffffffffffffffff1681526020016000600381111561206e577f4e487b7100000000000000000000000000000000000000000000000000000000600052602160045260246000fd5b8152602001606081525090565b5b8082111561209457600081600090555060010161207c565b5090565b60006120ab6120a68461381e565b6137f9565b9050808382526020820190508260005b858110156120eb57813585016120d18882612682565b8452602084019350602083019250506001810190506120bb565b5050509392505050565b60006121086121038461384a565b6137f9565b90508281526020810184848401111561212057600080fd5b61212b848285613b55565b509392505050565b60006121466121418461387b565b6137f9565b90508281526020810184848401111561215e57600080fd5b612169848285613b55565b509392505050565b60008135905061218081613ffb565b92915050565b60008083601f84011261219857600080fd5b8235905067ffffffffffffffff8111156121b157600080fd5b6020830191508360208202830111156121c957600080fd5b9250929050565b60008083601f8401126121e257600080fd5b8235905067ffffffffffffffff8111156121fb57600080fd5b6020830191508360a082028301111561221357600080fd5b9250929050565b60008083601f84011261222c57600080fd5b8235905067ffffffffffffffff81111561224557600080fd5b60208301915083602082028301111561225d57600080fd5b9250929050565b600082601f83011261227557600080fd5b8135612285848260208601612098565b91505092915050565b60008083601f8401126122a057600080fd5b8235905067ffffffffffffffff8111156122b957600080fd5b6020830191508360208202830111156122d157600080fd5b9250929050565b6000813590506122e781614012565b92915050565b6000813590506122fc81614029565b92915050565b60008151905061231181614029565b92915050565b600082601f83011261232857600080fd5b81356123388482602086016120f5565b91505092915050565b60008135905061235081614040565b92915050565b60008083601f84011261236857600080fd5b8235905067ffffffffffffffff81111561238157600080fd5b60208301915083600182028301111561239957600080fd5b9250929050565b600082601f8301126123b157600080fd5b81356123c1848260208601612133565b91505092915050565b600061010082840312156123dd57600080fd5b81905092915050565b600061010082840312156123f957600080fd5b6124046101006137f9565b90506000612414848285016122ed565b6000830152506020612428848285016128a4565b602083015250604061243c848285016128a4565b60408301525060606124508482850161288f565b6060830152506080612464848285016122ed565b60808301525060a0612478848285016122ed565b60a08301525060c061248c848285016122ed565b60c08301525060e06124a0848285016122ed565b60e08301525092915050565b6000604082840312156124be57600080fd5b81905092915050565b6000604082840312156124d957600080fd5b6124e360406137f9565b9050600082013567ffffffffffffffff8111156124ff57600080fd5b61250b84828501612317565b600083015250602082013567ffffffffffffffff81111561252b57600080fd5b61253784828501612317565b60208301525092915050565b600060a0828403121561255557600080fd5b61255f60a06137f9565b9050600061256f848285016122d8565b6000830152506020612583848285016128b9565b60208301525060406125978482850161287a565b60408301525060606125ab8482850161287a565b60608301525060806125bf848285016122ed565b60808301525092915050565b600060c082840312156125dd57600080fd5b81905092915050565b600060c082840312156125f857600080fd5b61260260c06137f9565b90506000612612848285016122ed565b6000830152506020612626848285016122ed565b602083015250604061263a848285016122ed565b604083015250606061264e848285016122ed565b6060830152506080612662848285016122ed565b60808301525060a0612676848285016122ed565b60a08301525092915050565b60006080828403121561269457600080fd5b61269e60806137f9565b905060006126ae848285016122ed565b60008301525060206126c2848285016122ed565b60208301525060406126d6848285016128b9565b604083015250606082013567ffffffffffffffff8111156126f657600080fd5b61270284828501612317565b60608301525092915050565b6000610160828403121561272157600080fd5b81905092915050565b6000610160828403121561273d57600080fd5b6127486101606137f9565b9050600082013567ffffffffffffffff81111561276457600080fd5b612770848285016123a0565b6000830152506020612784848285016128a4565b602083015250604082013567ffffffffffffffff8111156127a457600080fd5b6127b084828501612317565b60408301525060606127c4848285016128a4565b60608301525060806127d8848285016128a4565b60808301525060a06127ec848285016128a4565b60a08301525060c0612800848285016128a4565b60c08301525060e0612814848285016128a4565b60e083015250610100612829848285016128a4565b6101008301525061012061283f84828501612341565b6101208301525061014082013567ffffffffffffffff81111561286157600080fd5b61286d84828501612317565b6101408301525092915050565b60008135905061288981614050565b92915050565b60008135905061289e81614067565b92915050565b6000813590506128b38161407e565b92915050565b6000813590506128c881614095565b92915050565b6000602082840312156128e057600080fd5b60006128ee84828501612171565b91505092915050565b6000806000806000806060878903121561291057600080fd5b600087013567ffffffffffffffff81111561292a57600080fd5b61293689828a01612186565b9650965050602087013567ffffffffffffffff81111561295557600080fd5b61296189828a0161228e565b9450945050604087013567ffffffffffffffff81111561298057600080fd5b61298c89828a01612356565b92509250509295509295509295565b6000602082840312156129ad57600080fd5b60006129bb84828501612302565b91505092915050565b600061010082840312156129d757600080fd5b60006129e5848285016123e6565b91505092915050565b6000806101208385031215612a0257600080fd5b6000612a10858286016123e6565b925050610100612a22858286016122ed565b9150509250929050565b60008060408385031215612a3f57600080fd5b600083013567ffffffffffffffff811115612a5957600080fd5b612a65858286016124c7565b9250506020612a76858286016122ed565b9150509250929050565b600060a08284031215612a9257600080fd5b6000612aa084828501612543565b91505092915050565b60008060008060006102008688031215612ac257600080fd5b6000612ad0888289016125cb565b95505060c0612ae1888289016123ca565b9450506101c086013567ffffffffffffffff811115612aff57600080fd5b612b0b888289016124ac565b9350506101e086013567ffffffffffffffff811115612b2957600080fd5b612b358882890161221a565b92509250509295509295909350565b600060c08284031215612b5657600080fd5b6000612b64848285016125e6565b91505092915050565b6000806000806102008587031215612b8457600080fd5b6000612b92878288016125e6565b94505060c0612ba3878288016123e6565b9350506101c085013567ffffffffffffffff811115612bc157600080fd5b612bcd878288016124c7565b9250506101e085013567ffffffffffffffff811115612beb57600080fd5b612bf787828801612264565b91505092959194509250565b600080600060608486031215612c1857600080fd5b600084013567ffffffffffffffff811115612c3257600080fd5b612c3e86828701612682565b935050602084013567ffffffffffffffff811115612c5b57600080fd5b612c6786828701612317565b925050604084013567ffffffffffffffff811115612c8457600080fd5b612c9086828701612317565b9150509250925092565b600060208284031215612cac57600080fd5b6000612cba8482850161287a565b91505092915050565b600080600080600060808688031215612cdb57600080fd5b6000612ce98882890161287a565b955050602086013567ffffffffffffffff811115612d0657600080fd5b612d128882890161270e565b9450506040612d238882890161287a565b935050606086013567ffffffffffffffff811115612d4057600080fd5b612d4c888289016121d0565b92509250509295509295909350565b600060208284031215612d6d57600080fd5b6000612d7b8482850161288f565b91505092915050565b600060208284031215612d9657600080fd5b6000612da4848285016128a4565b91505092915050565b612db681613a72565b82525050565b612dc581613a84565b82525050565b612dd481613a90565b82525050565b612deb612de682613a90565b613c74565b82525050565b6000612dfc826138ac565b612e0681856138c2565b9350612e16818560208601613b64565b612e1f81613d5e565b840191505092915050565b6000612e35826138ac565b612e3f81856138d3565b9350612e4f818560208601613b64565b612e5881613d5e565b840191505092915050565b6000612e6e826138ac565b612e7881856138e4565b9350612e88818560208601613b64565b80840191505092915050565b612e9d81613b1d565b82525050565b6000612eaf8385613900565b9350612ebc838584613b55565b612ec583613d5e565b840190509392505050565b6000612edb826138b7565b612ee581856138ef565b9350612ef5818560208601613b64565b612efe81613d5e565b840191505092915050565b6000612f16600a83613911565b9150612f2182613d89565b600a82019050919050565b6000612f39602c83613900565b9150612f4482613db2565b604082019050919050565b6000612f5c602c83613900565b9150612f6782613e01565b604082019050919050565b6000612f7f601483613900565b9150612f8a82613e50565b602082019050919050565b6000612fa2600a83613911565b9150612fad82613e79565b600a82019050919050565b6000612fc5601683613900565b9150612fd082613ea2565b602082019050919050565b6000612fe8600183613911565b9150612ff382613ecb565b600182019050919050565b600061300b600183613911565b915061301682613ef4565b600182019050919050565b600061302e601383613900565b915061303982613f1d565b602082019050919050565b6000613051600d83613900565b915061305c82613f46565b602082019050919050565b6000613074602583613900565b915061307f82613f6f565b604082019050919050565b6000613097601483613900565b91506130a282613fbe565b602082019050919050565b60006101608301600083015184820360008601526130cb8282612ed0565b91505060208301516130e060208601826131c8565b50604083015184820360408601526130f88282612df1565b915050606083015161310d60608601826131c8565b50608083015161312060808601826131c8565b5060a083015161313360a08601826131c8565b5060c083015161314660c08601826131c8565b5060e083015161315960e08601826131c8565b5061010083015161316e6101008601826131c8565b50610120830151613183610120860182612e94565b5061014083015184820361014086015261319d8282612df1565b9150508091505092915050565b6131b381613acd565b82525050565b6131c281613ad7565b82525050565b6131d181613ae7565b82525050565b6131e081613ae7565b82525050565b6131f76131f282613ae7565b613c7e565b82525050565b61320681613afb565b82525050565b61321d61321882613afb565b613c90565b82525050565b600061322f8284612dda565b60208201915081905092915050565b600061324a8284612e63565b915081905092915050565b60006132618286612e63565b915061326d8285612dda565b60208201915061327d8284612e63565b9150819050949350505050565b60006132968286612e63565b91506132a28285612e63565b91506132ae8284612e63565b9150819050949350505050565b60006132c78287612e63565b91506132d38286612e63565b91506132df8285612e63565b91506132eb8284612e63565b915081905095945050505050565b60006133058285612e63565b915061331082612fdb565b915061331c8284612e63565b91508190509392505050565b60006133348288612e63565b9150613340828761320c565b600182019150613350828661320c565b6001820191506133608285612e63565b915061336c8284612e63565b91508190509695505050505050565b600061338682612f09565b91506133928284612dda565b60208201915081905092915050565b60006133ac82612f95565b91506133b88284612dda565b60208201915081905092915050565b60006133d282612ffe565b91506133de8284612e63565b915081905092915050565b60006133f5828661320c565b6001820191506134058285612dda565b6020820191506134158284612dda565b602082019150819050949350505050565b6000613432828561320c565b6001820191506134428284612e63565b91508190509392505050565b600061345a828a61320c565b60018201915061346a8289612e63565b91506134768288612e63565b9150613482828761320c565b6001820191506134928286612dda565b6020820191506134a2828561320c565b6001820191506134b28284612dda565b60208201915081905098975050505050505050565b60006134d3828561320c565b6001820191506134e382846131e6565b6008820191508190509392505050565b60006134ff828661320c565b60018201915061350f828561320c565b60018201915061351f8284612dda565b602082019150819050949350505050565b600061353c828a61320c565b60018201915061354c828961320c565b60018201915061355c8288612e63565b9150613568828761320c565b6001820191506135788286612e63565b9150613584828561320c565b6001820191506135948284612dda565b60208201915081905098975050505050505050565b60006020820190506135be6000830184612dad565b92915050565b60006020820190506135d96000830184612dbc565b92915050565b60006020820190506135f46000830184612dcb565b92915050565b600060608201905061360f6000830186612dcb565b61361c60208301856131d7565b61362960408301846131b9565b949350505050565b60006080820190506136466000830187612dcb565b61365360208301866131fd565b6136606040830185612dcb565b61366d6060830184612dcb565b95945050505050565b600060208201905081810360008301526136908184612e2a565b905092915050565b600060208201905081810360008301526136b3818486612ea3565b90509392505050565b600060208201905081810360008301526136d581612f2c565b9050919050565b600060208201905081810360008301526136f581612f4f565b9050919050565b6000602082019050818103600083015261371581612f72565b9050919050565b6000602082019050818103600083015261373581612fb8565b9050919050565b6000602082019050818103600083015261375581613021565b9050919050565b6000602082019050818103600083015261377581613044565b9050919050565b6000602082019050818103600083015261379581613067565b9050919050565b600060208201905081810360008301526137b58161308a565b9050919050565b600060208201905081810360008301526137d681846130ad565b905092915050565b60006020820190506137f360008301846131aa565b92915050565b6000613803613814565b905061380f8282613bc9565b919050565b6000604051905090565b600067ffffffffffffffff82111561383957613838613d2f565b5b602082029050602081019050919050565b600067ffffffffffffffff82111561386557613864613d2f565b5b61386e82613d5e565b9050602081019050919050565b600067ffffffffffffffff82111561389657613895613d2f565b5b61389f82613d5e565b9050602081019050919050565b600081519050919050565b600081519050919050565b600082825260208201905092915050565b600082825260208201905092915050565b600081905092915050565b600082825260208201905092915050565b600082825260208201905092915050565b600081905092915050565b600061392782613acd565b915061393283613acd565b9250827fffffffffffffffffffffffffffffffffffffffffffffffffffffffffffffffff0382111561396757613966613ca2565b5b828201905092915050565b600061397d82613ae7565b915061398883613ae7565b92508267ffffffffffffffff038211156139a5576139a4613ca2565b5b828201905092915050565b60006139bb82613acd565b91506139c683613acd565b9250817fffffffffffffffffffffffffffffffffffffffffffffffffffffffffffffffff04831182151516156139ff576139fe613ca2565b5b828202905092915050565b6000613a1582613acd565b9150613a2083613acd565b925082821015613a3357613a32613ca2565b5b828203905092915050565b6000613a4982613ae7565b9150613a5483613ae7565b925082821015613a6757613a66613ca2565b5b828203905092915050565b6000613a7d82613aad565b9050919050565b60008115159050919050565b6000819050919050565b6000819050613aa882613fe7565b919050565b600073ffffffffffffffffffffffffffffffffffffffff82169050919050565b6000819050919050565b600063ffffffff82169050919050565b600067ffffffffffffffff82169050919050565b600060ff82169050919050565b6000613b15368484612098565b905092915050565b6000613b2882613a9a565b9050919050565b6000613b3b36836124c7565b9050919050565b6000613b4e368361272a565b9050919050565b82818337600083830152505050565b60005b83811015613b82578082015181840152602081019050613b67565b83811115613b91576000848401525b50505050565b60006002820490506001821680613baf57607f821691505b60208210811415613bc357613bc2613d00565b5b50919050565b613bd282613d5e565b810181811067ffffffffffffffff82111715613bf157613bf0613d2f565b5b80604052505050565b6000613c0582613acd565b91507fffffffffffffffffffffffffffffffffffffffffffffffffffffffffffffffff821415613c3857613c37613ca2565b5b600182019050919050565b6000613c4e82613ae7565b915067ffffffffffffffff821415613c6957613c68613ca2565b5b600182019050919050565b6000819050919050565b6000613c8982613d6f565b9050919050565b6000613c9b82613d7c565b9050919050565b7f4e487b7100000000000000000000000000000000000000000000000000000000600052601160045260246000fd5b7f4e487b7100000000000000000000000000000000000000000000000000000000600052602160045260246000fd5b7f4e487b7100000000000000000000000000000000000000000000000000000000600052602260045260246000fd5b7f4e487b7100000000000000000000000000000000000000000000000000000000600052604160045260246000fd5b6000601f19601f8301169050919050565b60008160c01b9050919050565b60008160f81b9050919050565b7f086c7571636861696e2000000000000000000000000000000000000000000000600082015250565b7f436f6d6d6f6e456e636f646564566f7465506172743a20496e76616c6964207360008201527f756666697827732073697a650000000000000000000000000000000000000000602082015250565b7f436f6d6d6f6e456e636f646564566f7465506172743a20496e76616c6964207060008201527f726566697827732073697a650000000000000000000000000000000000000000602082015250565b7f496e76616c696420626c6f636b20686561646572000000000000000000000000600082015250565b7f066c7571636861696e2000000000000000000000000000000000000000000000600082015250565b7f4e6f20726f6f7420617420746869732068656967687400000000000000000000600082015250565b7f1000000000000000000000000000000000000000000000000000000000000000600082015250565b7f0800000000000000000000000000000000000000000000000000000000000000600082015250565b7f416c726561647920696e697469616c697a656400000000000000000000000000600082015250565b7f496e76616c69642070726f6f6600000000000000000000000000000000000000600082015250565b7f544d5369676e61747572653a20496e76616c69642074696d657374616d70277360008201527f2073697a65000000000000000000000000000000000000000000000000000000602082015250565b7f496e76616c6964207369676e6572206f72646572000000000000000000000000600082015250565b60048110613ff857613ff7613cd1565b5b50565b61400481613a72565b811461400f57600080fd5b50565b61401b81613a84565b811461402657600080fd5b50565b61403281613a90565b811461403d57600080fd5b50565b6004811061404d57600080fd5b50565b61405981613acd565b811461406457600080fd5b50565b61407081613ad7565b811461407b57600080fd5b50565b61408781613ae7565b811461409257600080fd5b50565b61409e81613afb565b81146140a957600080fd5b5056fea264697066735822122037e0848e6745011d89bbdf755c5f670e018cf3de008f097c2af28956a900d9df64736f6c63430008030033","opcodes":"PUSH1 0x80 PUSH1 0x40 MSTORE CALLVALUE DUP1 ISZERO PUSH3 0x11 JUMPI PUSH1 0x0 DUP1 REVERT JUMPDEST POP PUSH1 0x40 MLOAD PUSH3 0x419E CODESIZE SUB DUP1 PUSH3 0x419E DUP4 CODECOPY DUP2 DUP2 ADD PUSH1 0x40 MSTORE DUP2 ADD SWAP1 PUSH3 0x37 SWAP2 SWAP1 PUSH3 0x5C JUMP JUMPDEST DUP1 PUSH1 0x2 DUP2 SWAP1 SSTORE POP POP PUSH3 0xAC JUMP JUMPDEST PUSH1 0x0 DUP2 MLOAD SWAP1 POP PUSH3 0x56 DUP2 PUSH3 0x92 JUMP JUMPDEST SWAP3 SWAP2 POP POP JUMP JUMPDEST PUSH1 0x0 PUSH1 0x20 DUP3 DUP5 SUB SLT ISZERO PUSH3 0x6F JUMPI PUSH1 0x0 DUP1 REVERT JUMPDEST PUSH1 0x0 PUSH3 0x7F DUP5 DUP3 DUP6 ADD PUSH3 0x45 JUMP JUMPDEST SWAP2 POP POP SWAP3 SWAP2 POP POP JUMP JUMPDEST PUSH1 0x0 DUP2 SWAP1 POP SWAP2 SWAP1 POP JUMP JUMPDEST PUSH3 0x9D DUP2 PUSH3 0x88 JUMP JUMPDEST DUP2 EQ PUSH3 0xA9 JUMPI PUSH1 0x0 DUP1 REVERT JUMPDEST POP JUMP JUMPDEST PUSH2 0x40E2 DUP1 PUSH3 0xBC PUSH1 0x0 CODECOPY PUSH1 0x0 RETURN INVALID PUSH1 0x80 PUSH1 0x40 MSTORE CALLVALUE DUP1 ISZERO PUSH2 0x10 JUMPI PUSH1 0x0 DUP1 REVERT JUMPDEST POP PUSH1 0x4 CALLDATASIZE LT PUSH2 0xF5 JUMPI PUSH1 0x0 CALLDATALOAD PUSH1 0xE0 SHR DUP1 PUSH4 0xAF4B9107 GT PUSH2 0x97 JUMPI DUP1 PUSH4 0xF3F39EE5 GT PUSH2 0x66 JUMPI DUP1 PUSH4 0xF3F39EE5 EQ PUSH2 0x2BE JUMPI DUP1 PUSH4 0xF61AA09D EQ PUSH2 0x2DC JUMPI DUP1 PUSH4 0xF8156A6E EQ PUSH2 0x30C JUMPI DUP1 PUSH4 0xF953205A EQ PUSH2 0x32A JUMPI PUSH2 0xF5 JUMP JUMPDEST DUP1 PUSH4 0xAF4B9107 EQ PUSH2 0x212 JUMPI DUP1 PUSH4 0xC573D977 EQ PUSH2 0x22E JUMPI DUP1 PUSH4 0xCC2532BA EQ PUSH2 0x25E JUMPI DUP1 PUSH4 0xE71296E1 EQ PUSH2 0x28E JUMPI PUSH2 0xF5 JUMP JUMPDEST DUP1 PUSH4 0x64C47193 GT PUSH2 0xD3 JUMPI DUP1 PUSH4 0x64C47193 EQ PUSH2 0x18A JUMPI DUP1 PUSH4 0x6CF6D675 EQ PUSH2 0x1A8 JUMPI DUP1 PUSH4 0x847C1B23 EQ PUSH2 0x1C6 JUMPI DUP1 PUSH4 0x93A4A134 EQ PUSH2 0x1F6 JUMPI PUSH2 0xF5 JUMP JUMPDEST DUP1 PUSH4 0x71EE1E1 EQ PUSH2 0xFA JUMPI DUP1 PUSH4 0xAC804C5 EQ PUSH2 0x12A JUMPI DUP1 PUSH4 0x5CD2458C EQ PUSH2 0x15A JUMPI JUMPDEST PUSH1 0x0 DUP1 REVERT JUMPDEST PUSH2 0x114 PUSH1 0x4 DUP1 CALLDATASIZE SUB DUP2 ADD SWAP1 PUSH2 0x10F SWAP2 SWAP1 PUSH2 0x2C03 JUMP JUMPDEST PUSH2 0x35C JUMP JUMPDEST PUSH1 0x40 MLOAD PUSH2 0x121 SWAP2 SWAP1 PUSH2 0x35A9 JUMP JUMPDEST PUSH1 0x40 MLOAD DUP1 SWAP2 SUB SWAP1 RETURN JUMPDEST PUSH2 0x144 PUSH1 0x4 DUP1 CALLDATASIZE SUB DUP2 ADD SWAP1 PUSH2 0x13F SWAP2 SWAP1 PUSH2 0x2B44 JUMP JUMPDEST PUSH2 0x4C5 JUMP JUMPDEST PUSH1 0x40 MLOAD PUSH2 0x151 SWAP2 SWAP1 PUSH2 0x35DF JUMP JUMPDEST PUSH1 0x40 MLOAD DUP1 SWAP2 SUB SWAP1 RETURN JUMPDEST PUSH2 0x174 PUSH1 0x4 DUP1 CALLDATASIZE SUB DUP2 ADD SWAP1 PUSH2 0x16F SWAP2 SWAP1 PUSH2 0x2A2C JUMP JUMPDEST PUSH2 0x5AE JUMP JUMPDEST PUSH1 0x40 MLOAD PUSH2 0x181 SWAP2 SWAP1 PUSH2 0x3676 JUMP JUMPDEST PUSH1 0x40 MLOAD DUP1 SWAP2 SUB SWAP1 RETURN JUMPDEST PUSH2 0x192 PUSH2 0x684 JUMP JUMPDEST PUSH1 0x40 MLOAD PUSH2 0x19F SWAP2 SWAP1 PUSH2 0x3676 JUMP JUMPDEST PUSH1 0x40 MLOAD DUP1 SWAP2 SUB SWAP1 RETURN JUMPDEST PUSH2 0x1B0 PUSH2 0x712 JUMP JUMPDEST PUSH1 0x40 MLOAD PUSH2 0x1BD SWAP2 SWAP1 PUSH2 0x37DE JUMP JUMPDEST PUSH1 0x40 MLOAD DUP1 SWAP2 SUB SWAP1 RETURN JUMPDEST PUSH2 0x1E0 PUSH1 0x4 DUP1 CALLDATASIZE SUB DUP2 ADD SWAP1 PUSH2 0x1DB SWAP2 SWAP1 PUSH2 0x29EE JUMP JUMPDEST PUSH2 0x718 JUMP JUMPDEST PUSH1 0x40 MLOAD PUSH2 0x1ED SWAP2 SWAP1 PUSH2 0x35DF JUMP JUMPDEST PUSH1 0x40 MLOAD DUP1 SWAP2 SUB SWAP1 RETURN JUMPDEST PUSH2 0x210 PUSH1 0x4 DUP1 CALLDATASIZE SUB DUP2 ADD SWAP1 PUSH2 0x20B SWAP2 SWAP1 PUSH2 0x28F7 JUMP JUMPDEST PUSH2 0x801 JUMP JUMPDEST STOP JUMPDEST PUSH2 0x22C PUSH1 0x4 DUP1 CALLDATASIZE SUB DUP2 ADD SWAP1 PUSH2 0x227 SWAP2 SWAP1 PUSH2 0x2AA9 JUMP JUMPDEST PUSH2 0x9DB JUMP JUMPDEST STOP JUMPDEST PUSH2 0x248 PUSH1 0x4 DUP1 CALLDATASIZE SUB DUP2 ADD SWAP1 PUSH2 0x243 SWAP2 SWAP1 PUSH2 0x2CC3 JUMP JUMPDEST PUSH2 0xB47 JUMP JUMPDEST PUSH1 0x40 MLOAD PUSH2 0x255 SWAP2 SWAP1 PUSH2 0x37BC JUMP JUMPDEST PUSH1 0x40 MLOAD DUP1 SWAP2 SUB SWAP1 RETURN JUMPDEST PUSH2 0x278 PUSH1 0x4 DUP1 CALLDATASIZE SUB DUP2 ADD SWAP1 PUSH2 0x273 SWAP2 SWAP1 PUSH2 0x2B6D JUMP JUMPDEST PUSH2 0xD02 JUMP JUMPDEST PUSH1 0x40 MLOAD PUSH2 0x285 SWAP2 SWAP1 PUSH2 0x35C4 JUMP JUMPDEST PUSH1 0x40 MLOAD DUP1 SWAP2 SUB SWAP1 RETURN JUMPDEST PUSH2 0x2A8 PUSH1 0x4 DUP1 CALLDATASIZE SUB DUP2 ADD SWAP1 PUSH2 0x2A3 SWAP2 SWAP1 PUSH2 0x2B44 JUMP JUMPDEST PUSH2 0xF62 JUMP JUMPDEST PUSH1 0x40 MLOAD PUSH2 0x2B5 SWAP2 SWAP1 PUSH2 0x35DF JUMP JUMPDEST PUSH1 0x40 MLOAD DUP1 SWAP2 SUB SWAP1 RETURN JUMPDEST PUSH2 0x2C6 PUSH2 0x1069 JUMP JUMPDEST PUSH1 0x40 MLOAD PUSH2 0x2D3 SWAP2 SWAP1 PUSH2 0x37DE JUMP JUMPDEST PUSH1 0x40 MLOAD DUP1 SWAP2 SUB SWAP1 RETURN JUMPDEST PUSH2 0x2F6 PUSH1 0x4 DUP1 CALLDATASIZE SUB DUP2 ADD SWAP1 PUSH2 0x2F1 SWAP2 SWAP1 PUSH2 0x28CE JUMP JUMPDEST PUSH2 0x106F JUMP JUMPDEST PUSH1 0x40 MLOAD PUSH2 0x303 SWAP2 SWAP1 PUSH2 0x37DE JUMP JUMPDEST PUSH1 0x40 MLOAD DUP1 SWAP2 SUB SWAP1 RETURN JUMPDEST PUSH2 0x314 PUSH2 0x1087 JUMP JUMPDEST PUSH1 0x40 MLOAD PUSH2 0x321 SWAP2 SWAP1 PUSH2 0x37DE JUMP JUMPDEST PUSH1 0x40 MLOAD DUP1 SWAP2 SUB SWAP1 RETURN JUMPDEST PUSH2 0x344 PUSH1 0x4 DUP1 CALLDATASIZE SUB DUP2 ADD SWAP1 PUSH2 0x33F SWAP2 SWAP1 PUSH2 0x2C9A JUMP JUMPDEST PUSH2 0x108D JUMP JUMPDEST PUSH1 0x40 MLOAD PUSH2 0x353 SWAP4 SWAP3 SWAP2 SWAP1 PUSH2 0x35FA JUMP JUMPDEST PUSH1 0x40 MLOAD DUP1 SWAP2 SUB SWAP1 RETURN JUMPDEST PUSH1 0x0 DUP4 PUSH1 0x60 ADD MLOAD MLOAD PUSH1 0x6 GT ISZERO DUP1 ISZERO PUSH2 0x37A JUMPI POP PUSH1 0xC DUP5 PUSH1 0x60 ADD MLOAD MLOAD GT ISZERO JUMPDEST PUSH2 0x3B9 JUMPI PUSH1 0x40 MLOAD PUSH32 0x8C379A000000000000000000000000000000000000000000000000000000000 DUP2 MSTORE PUSH1 0x4 ADD PUSH2 0x3B0 SWAP1 PUSH2 0x377C JUMP JUMPDEST PUSH1 0x40 MLOAD DUP1 SWAP2 SUB SWAP1 REVERT JUMPDEST PUSH1 0x0 DUP4 PUSH1 0x2A DUP7 PUSH1 0x60 ADD MLOAD MLOAD DUP8 PUSH1 0x60 ADD MLOAD DUP7 PUSH1 0x40 MLOAD PUSH1 0x20 ADD PUSH2 0x3DE SWAP6 SWAP5 SWAP4 SWAP3 SWAP2 SWAP1 PUSH2 0x3328 JUMP JUMPDEST PUSH1 0x40 MLOAD PUSH1 0x20 DUP2 DUP4 SUB SUB DUP2 MSTORE SWAP1 PUSH1 0x40 MSTORE SWAP1 POP PUSH1 0x1 PUSH1 0x2 DUP3 MLOAD DUP4 PUSH1 0x40 MLOAD PUSH1 0x20 ADD PUSH2 0x407 SWAP3 SWAP2 SWAP1 PUSH2 0x3426 JUMP JUMPDEST PUSH1 0x40 MLOAD PUSH1 0x20 DUP2 DUP4 SUB SUB DUP2 MSTORE SWAP1 PUSH1 0x40 MSTORE PUSH1 0x40 MLOAD PUSH2 0x423 SWAP2 SWAP1 PUSH2 0x323E JUMP JUMPDEST PUSH1 0x20 PUSH1 0x40 MLOAD DUP1 DUP4 SUB DUP2 DUP6 GAS STATICCALL ISZERO DUP1 ISZERO PUSH2 0x440 JUMPI RETURNDATASIZE PUSH1 0x0 DUP1 RETURNDATACOPY RETURNDATASIZE PUSH1 0x0 REVERT JUMPDEST POP POP POP PUSH1 0x40 MLOAD RETURNDATASIZE PUSH1 0x1F NOT PUSH1 0x1F DUP3 ADD AND DUP3 ADD DUP1 PUSH1 0x40 MSTORE POP DUP2 ADD SWAP1 PUSH2 0x463 SWAP2 SWAP1 PUSH2 0x299B JUMP JUMPDEST DUP7 PUSH1 0x40 ADD MLOAD DUP8 PUSH1 0x0 ADD MLOAD DUP9 PUSH1 0x20 ADD MLOAD PUSH1 0x40 MLOAD PUSH1 0x0 DUP2 MSTORE PUSH1 0x20 ADD PUSH1 0x40 MSTORE PUSH1 0x40 MLOAD PUSH2 0x48F SWAP5 SWAP4 SWAP3 SWAP2 SWAP1 PUSH2 0x3631 JUMP JUMPDEST PUSH1 0x20 PUSH1 0x40 MLOAD PUSH1 0x20 DUP2 SUB SWAP1 DUP1 DUP5 SUB SWAP1 DUP6 GAS STATICCALL ISZERO DUP1 ISZERO PUSH2 0x4B1 JUMPI RETURNDATASIZE PUSH1 0x0 DUP1 RETURNDATACOPY RETURNDATASIZE PUSH1 0x0 REVERT JUMPDEST POP POP POP PUSH1 0x20 PUSH1 0x40 MLOAD SUB MLOAD SWAP2 POP POP SWAP4 SWAP3 POP POP POP JUMP JUMPDEST PUSH1 0x0 DUP1 PUSH2 0x5A3 PUSH2 0x599 DUP5 PUSH1 0x80 ADD MLOAD PUSH2 0x594 DUP7 PUSH1 0x60 ADD MLOAD PUSH2 0x58F DUP9 PUSH1 0x40 ADD MLOAD PUSH2 0x58A PUSH2 0x580 PUSH1 0x2 DUP13 PUSH1 0x0 ADD MLOAD PUSH1 0x40 MLOAD PUSH1 0x20 ADD PUSH2 0x500 SWAP2 SWAP1 PUSH2 0x3223 JUMP JUMPDEST PUSH1 0x40 MLOAD PUSH1 0x20 DUP2 DUP4 SUB SUB DUP2 MSTORE SWAP1 PUSH1 0x40 MSTORE PUSH1 0x40 MLOAD PUSH2 0x51C SWAP2 SWAP1 PUSH2 0x323E JUMP JUMPDEST PUSH1 0x20 PUSH1 0x40 MLOAD DUP1 DUP4 SUB DUP2 DUP6 GAS STATICCALL ISZERO DUP1 ISZERO PUSH2 0x539 JUMPI RETURNDATASIZE PUSH1 0x0 DUP1 RETURNDATACOPY RETURNDATASIZE PUSH1 0x0 REVERT JUMPDEST POP POP POP PUSH1 0x40 MLOAD RETURNDATASIZE PUSH1 0x1F NOT PUSH1 0x1F DUP3 ADD AND DUP3 ADD DUP1 PUSH1 0x40 MSTORE POP DUP2 ADD SWAP1 PUSH2 0x55C SWAP2 SWAP1 PUSH2 0x299B JUMP JUMPDEST PUSH1 0x40 MLOAD PUSH1 0x20 ADD PUSH2 0x56C SWAP2 SWAP1 PUSH2 0x33A1 JUMP JUMPDEST PUSH1 0x40 MLOAD PUSH1 0x20 DUP2 DUP4 SUB SUB DUP2 MSTORE SWAP1 PUSH1 0x40 MSTORE PUSH2 0x10DB JUMP JUMPDEST DUP12 PUSH1 0x20 ADD MLOAD PUSH2 0x1156 JUMP JUMPDEST PUSH2 0x1156 JUMP JUMPDEST PUSH2 0x1156 JUMP JUMPDEST PUSH2 0x1156 JUMP JUMPDEST DUP5 PUSH1 0xA0 ADD MLOAD PUSH2 0x1156 JUMP JUMPDEST SWAP1 POP DUP1 SWAP2 POP POP SWAP2 SWAP1 POP JUMP JUMPDEST PUSH1 0x60 PUSH1 0xF DUP4 PUSH1 0x0 ADD MLOAD MLOAD EQ DUP1 PUSH2 0x5C9 JUMPI POP PUSH1 0x18 DUP4 PUSH1 0x0 ADD MLOAD MLOAD EQ JUMPDEST PUSH2 0x608 JUMPI PUSH1 0x40 MLOAD PUSH32 0x8C379A000000000000000000000000000000000000000000000000000000000 DUP2 MSTORE PUSH1 0x4 ADD PUSH2 0x5FF SWAP1 PUSH2 0x36DC JUMP JUMPDEST PUSH1 0x40 MLOAD DUP1 SWAP2 SUB SWAP1 REVERT JUMPDEST PUSH1 0x26 DUP4 PUSH1 0x20 ADD MLOAD MLOAD EQ PUSH2 0x650 JUMPI PUSH1 0x40 MLOAD PUSH32 0x8C379A000000000000000000000000000000000000000000000000000000000 DUP2 MSTORE PUSH1 0x4 ADD PUSH2 0x647 SWAP1 PUSH2 0x36BC JUMP JUMPDEST PUSH1 0x40 MLOAD DUP1 SWAP2 SUB SWAP1 REVERT JUMPDEST DUP3 PUSH1 0x0 ADD MLOAD DUP3 DUP5 PUSH1 0x20 ADD MLOAD PUSH1 0x40 MLOAD PUSH1 0x20 ADD PUSH2 0x66D SWAP4 SWAP3 SWAP2 SWAP1 PUSH2 0x3255 JUMP JUMPDEST PUSH1 0x40 MLOAD PUSH1 0x20 DUP2 DUP4 SUB SUB DUP2 MSTORE SWAP1 PUSH1 0x40 MSTORE SWAP1 POP SWAP3 SWAP2 POP POP JUMP JUMPDEST PUSH1 0x0 DUP1 SLOAD PUSH2 0x691 SWAP1 PUSH2 0x3B97 JUMP JUMPDEST DUP1 PUSH1 0x1F ADD PUSH1 0x20 DUP1 SWAP2 DIV MUL PUSH1 0x20 ADD PUSH1 0x40 MLOAD SWAP1 DUP2 ADD PUSH1 0x40 MSTORE DUP1 SWAP3 SWAP2 SWAP1 DUP2 DUP2 MSTORE PUSH1 0x20 ADD DUP3 DUP1 SLOAD PUSH2 0x6BD SWAP1 PUSH2 0x3B97 JUMP JUMPDEST DUP1 ISZERO PUSH2 0x70A JUMPI DUP1 PUSH1 0x1F LT PUSH2 0x6DF JUMPI PUSH2 0x100 DUP1 DUP4 SLOAD DIV MUL DUP4 MSTORE SWAP2 PUSH1 0x20 ADD SWAP2 PUSH2 0x70A JUMP JUMPDEST DUP3 ADD SWAP2 SWAP1 PUSH1 0x0 MSTORE PUSH1 0x20 PUSH1 0x0 KECCAK256 SWAP1 JUMPDEST DUP2 SLOAD DUP2 MSTORE SWAP1 PUSH1 0x1 ADD SWAP1 PUSH1 0x20 ADD DUP1 DUP4 GT PUSH2 0x6ED JUMPI DUP3 SWAP1 SUB PUSH1 0x1F AND DUP3 ADD SWAP2 JUMPDEST POP POP POP POP POP DUP2 JUMP JUMPDEST PUSH1 0x2 SLOAD DUP2 JUMP JUMPDEST PUSH1 0x0 DUP1 PUSH2 0x7F5 PUSH2 0x79B PUSH2 0x791 DUP7 PUSH1 0x0 ADD MLOAD PUSH2 0x78C PUSH2 0x76D PUSH1 0x8 PUSH2 0x748 DUP12 PUSH1 0x20 ADD MLOAD PUSH8 0xFFFFFFFFFFFFFFFF AND PUSH2 0x11D4 JUMP JUMPDEST PUSH1 0x40 MLOAD PUSH1 0x20 ADD PUSH2 0x759 SWAP3 SWAP2 SWAP1 PUSH2 0x3426 JUMP JUMPDEST PUSH1 0x40 MLOAD PUSH1 0x20 DUP2 DUP4 SUB SUB DUP2 MSTORE SWAP1 PUSH1 0x40 MSTORE PUSH2 0x10DB JUMP JUMPDEST PUSH2 0x787 PUSH2 0x782 DUP12 PUSH1 0x40 ADD MLOAD DUP13 PUSH1 0x60 ADD MLOAD PUSH2 0x139F JUMP JUMPDEST PUSH2 0x10DB JUMP JUMPDEST PUSH2 0x1156 JUMP JUMPDEST PUSH2 0x1156 JUMP JUMPDEST DUP7 PUSH1 0x80 ADD MLOAD PUSH2 0x1156 JUMP JUMPDEST PUSH2 0x7F0 PUSH2 0x7E6 DUP8 PUSH1 0xA0 ADD MLOAD PUSH2 0x7E1 PUSH2 0x7D7 PUSH1 0xA PUSH1 0x20 DUP12 PUSH1 0x40 MLOAD PUSH1 0x20 ADD PUSH2 0x7C3 SWAP4 SWAP3 SWAP2 SWAP1 PUSH2 0x34F3 JUMP JUMPDEST PUSH1 0x40 MLOAD PUSH1 0x20 DUP2 DUP4 SUB SUB DUP2 MSTORE SWAP1 PUSH1 0x40 MSTORE PUSH2 0x10DB JUMP JUMPDEST DUP11 PUSH1 0xC0 ADD MLOAD PUSH2 0x1156 JUMP JUMPDEST PUSH2 0x1156 JUMP JUMPDEST DUP8 PUSH1 0xE0 ADD MLOAD PUSH2 0x1156 JUMP JUMPDEST PUSH2 0x1156 JUMP JUMPDEST SWAP1 POP DUP1 SWAP2 POP POP SWAP3 SWAP2 POP POP JUMP JUMPDEST PUSH1 0x0 DUP1 DUP1 SLOAD PUSH2 0x80F SWAP1 PUSH2 0x3B97 JUMP JUMPDEST SWAP1 POP EQ PUSH2 0x851 JUMPI PUSH1 0x40 MLOAD PUSH32 0x8C379A000000000000000000000000000000000000000000000000000000000 DUP2 MSTORE PUSH1 0x4 ADD PUSH2 0x848 SWAP1 PUSH2 0x373C JUMP JUMPDEST PUSH1 0x40 MLOAD DUP1 SWAP2 SUB SWAP1 REVERT JUMPDEST PUSH1 0x0 JUMPDEST DUP7 DUP7 SWAP1 POP DUP2 LT ISZERO PUSH2 0x99A JUMPI DUP5 DUP5 DUP3 DUP2 DUP2 LT PUSH2 0x898 JUMPI PUSH32 0x4E487B7100000000000000000000000000000000000000000000000000000000 PUSH1 0x0 MSTORE PUSH1 0x32 PUSH1 0x4 MSTORE PUSH1 0x24 PUSH1 0x0 REVERT JUMPDEST SWAP1 POP PUSH1 0x20 MUL ADD CALLDATALOAD PUSH1 0x4 PUSH1 0x0 DUP10 DUP10 DUP6 DUP2 DUP2 LT PUSH2 0x8DC JUMPI PUSH32 0x4E487B7100000000000000000000000000000000000000000000000000000000 PUSH1 0x0 MSTORE PUSH1 0x32 PUSH1 0x4 MSTORE PUSH1 0x24 PUSH1 0x0 REVERT JUMPDEST SWAP1 POP PUSH1 0x20 MUL ADD PUSH1 0x20 DUP2 ADD SWAP1 PUSH2 0x8F1 SWAP2 SWAP1 PUSH2 0x28CE JUMP JUMPDEST PUSH20 0xFFFFFFFFFFFFFFFFFFFFFFFFFFFFFFFFFFFFFFFF AND PUSH20 0xFFFFFFFFFFFFFFFFFFFFFFFFFFFFFFFFFFFFFFFF AND DUP2 MSTORE PUSH1 0x20 ADD SWAP1 DUP2 MSTORE PUSH1 0x20 ADD PUSH1 0x0 KECCAK256 DUP2 SWAP1 SSTORE POP DUP5 DUP5 DUP3 DUP2 DUP2 LT PUSH2 0x968 JUMPI PUSH32 0x4E487B7100000000000000000000000000000000000000000000000000000000 PUSH1 0x0 MSTORE PUSH1 0x32 PUSH1 0x4 MSTORE PUSH1 0x24 PUSH1 0x0 REVERT JUMPDEST SWAP1 POP PUSH1 0x20 MUL ADD CALLDATALOAD PUSH1 0x1 PUSH1 0x0 DUP3 DUP3 SLOAD PUSH2 0x980 SWAP2 SWAP1 PUSH2 0x391C JUMP JUMPDEST SWAP3 POP POP DUP2 SWAP1 SSTORE POP DUP1 DUP1 PUSH2 0x992 SWAP1 PUSH2 0x3BFA JUMP JUMPDEST SWAP2 POP POP PUSH2 0x854 JUMP JUMPDEST POP DUP2 DUP2 PUSH1 0x40 MLOAD PUSH1 0x20 ADD PUSH2 0x9AE SWAP3 SWAP2 SWAP1 PUSH2 0x3698 JUMP JUMPDEST PUSH1 0x40 MLOAD PUSH1 0x20 DUP2 DUP4 SUB SUB DUP2 MSTORE SWAP1 PUSH1 0x40 MSTORE PUSH1 0x0 SWAP1 DUP1 MLOAD SWAP1 PUSH1 0x20 ADD SWAP1 PUSH2 0x9D2 SWAP3 SWAP2 SWAP1 PUSH2 0x1F1D JUMP JUMPDEST POP POP POP POP POP POP POP JUMP JUMPDEST PUSH2 0xA1C DUP6 DUP1 CALLDATASIZE SUB DUP2 ADD SWAP1 PUSH2 0x9EF SWAP2 SWAP1 PUSH2 0x2B44 JUMP JUMPDEST DUP6 DUP1 CALLDATASIZE SUB DUP2 ADD SWAP1 PUSH2 0xA00 SWAP2 SWAP1 PUSH2 0x29C4 JUMP JUMPDEST DUP6 PUSH2 0xA0A SWAP1 PUSH2 0x3B2F JUMP JUMPDEST DUP6 DUP6 SWAP1 PUSH2 0xA17 SWAP2 SWAP1 PUSH2 0x3B08 JUMP JUMPDEST PUSH2 0xD02 JUMP JUMPDEST PUSH2 0xA5B JUMPI PUSH1 0x40 MLOAD PUSH32 0x8C379A000000000000000000000000000000000000000000000000000000000 DUP2 MSTORE PUSH1 0x4 ADD PUSH2 0xA52 SWAP1 PUSH2 0x36FC JUMP JUMPDEST PUSH1 0x40 MLOAD DUP1 SWAP2 SUB SWAP1 REVERT JUMPDEST PUSH1 0x40 MLOAD DUP1 PUSH1 0x60 ADD PUSH1 0x40 MSTORE DUP1 DUP7 PUSH1 0x0 ADD CALLDATALOAD DUP2 MSTORE PUSH1 0x20 ADD DUP6 PUSH1 0x40 ADD PUSH1 0x20 DUP2 ADD SWAP1 PUSH2 0xA83 SWAP2 SWAP1 PUSH2 0x2D84 JUMP JUMPDEST PUSH8 0xFFFFFFFFFFFFFFFF AND DUP2 MSTORE PUSH1 0x20 ADD DUP6 PUSH1 0x60 ADD PUSH1 0x20 DUP2 ADD SWAP1 PUSH2 0xAA5 SWAP2 SWAP1 PUSH2 0x2D5B JUMP JUMPDEST PUSH4 0xFFFFFFFF AND DUP2 MSTORE POP PUSH1 0x5 PUSH1 0x0 DUP7 PUSH1 0x20 ADD PUSH1 0x20 DUP2 ADD SWAP1 PUSH2 0xAC5 SWAP2 SWAP1 PUSH2 0x2D84 JUMP JUMPDEST PUSH8 0xFFFFFFFFFFFFFFFF AND DUP2 MSTORE PUSH1 0x20 ADD SWAP1 DUP2 MSTORE PUSH1 0x20 ADD PUSH1 0x0 KECCAK256 PUSH1 0x0 DUP3 ADD MLOAD DUP2 PUSH1 0x0 ADD SSTORE PUSH1 0x20 DUP3 ADD MLOAD DUP2 PUSH1 0x1 ADD PUSH1 0x0 PUSH2 0x100 EXP DUP2 SLOAD DUP2 PUSH8 0xFFFFFFFFFFFFFFFF MUL NOT AND SWAP1 DUP4 PUSH8 0xFFFFFFFFFFFFFFFF AND MUL OR SWAP1 SSTORE POP PUSH1 0x40 DUP3 ADD MLOAD DUP2 PUSH1 0x1 ADD PUSH1 0x8 PUSH2 0x100 EXP DUP2 SLOAD DUP2 PUSH4 0xFFFFFFFF MUL NOT AND SWAP1 DUP4 PUSH4 0xFFFFFFFF AND MUL OR SWAP1 SSTORE POP SWAP1 POP POP POP POP POP POP POP JUMP JUMPDEST PUSH2 0xB4F PUSH2 0x1FA3 JUMP JUMPDEST PUSH1 0x0 PUSH1 0x5 PUSH1 0x0 DUP9 DUP2 MSTORE PUSH1 0x20 ADD SWAP1 DUP2 MSTORE PUSH1 0x20 ADD PUSH1 0x0 KECCAK256 PUSH1 0x0 ADD SLOAD SWAP1 POP PUSH1 0x0 DUP1 SHL DUP2 EQ ISZERO PUSH2 0xBB0 JUMPI PUSH1 0x40 MLOAD PUSH32 0x8C379A000000000000000000000000000000000000000000000000000000000 DUP2 MSTORE PUSH1 0x4 ADD PUSH2 0xBA7 SWAP1 PUSH2 0x371C JUMP JUMPDEST PUSH1 0x40 MLOAD DUP1 SWAP2 SUB SWAP1 REVERT JUMPDEST PUSH1 0x0 PUSH1 0x2 PUSH2 0xBC6 DUP9 PUSH2 0xBC1 SWAP1 PUSH2 0x3B42 JUMP JUMPDEST PUSH2 0x1423 JUMP JUMPDEST PUSH1 0x40 MLOAD PUSH2 0xBD3 SWAP2 SWAP1 PUSH2 0x323E JUMP JUMPDEST PUSH1 0x20 PUSH1 0x40 MLOAD DUP1 DUP4 SUB DUP2 DUP6 GAS STATICCALL ISZERO DUP1 ISZERO PUSH2 0xBF0 JUMPI RETURNDATASIZE PUSH1 0x0 DUP1 RETURNDATACOPY RETURNDATASIZE PUSH1 0x0 REVERT JUMPDEST POP POP POP PUSH1 0x40 MLOAD RETURNDATASIZE PUSH1 0x1F NOT PUSH1 0x1F DUP3 ADD AND DUP3 ADD DUP1 PUSH1 0x40 MSTORE POP DUP2 ADD SWAP1 PUSH2 0xC13 SWAP2 SWAP1 PUSH2 0x299B JUMP JUMPDEST SWAP1 POP PUSH2 0xCAC DUP3 DUP8 PUSH1 0xFF DUP11 PUSH1 0xA0 ADD PUSH1 0x20 DUP2 ADD SWAP1 PUSH2 0xC2F SWAP2 SWAP1 PUSH2 0x2D84 JUMP JUMPDEST PUSH1 0x40 MLOAD PUSH1 0x20 ADD PUSH2 0xC40 SWAP3 SWAP2 SWAP1 PUSH2 0x34C7 JUMP JUMPDEST PUSH1 0x40 MLOAD PUSH1 0x20 DUP2 DUP4 SUB SUB DUP2 MSTORE SWAP1 PUSH1 0x40 MSTORE DUP5 DUP10 DUP10 DUP1 DUP1 PUSH1 0x20 MUL PUSH1 0x20 ADD PUSH1 0x40 MLOAD SWAP1 DUP2 ADD PUSH1 0x40 MSTORE DUP1 SWAP4 SWAP3 SWAP2 SWAP1 DUP2 DUP2 MSTORE PUSH1 0x20 ADD PUSH1 0x0 SWAP1 JUMPDEST DUP3 DUP3 LT ISZERO PUSH2 0xCA2 JUMPI DUP5 DUP5 DUP4 SWAP1 POP PUSH1 0xA0 MUL ADD DUP1 CALLDATASIZE SUB DUP2 ADD SWAP1 PUSH2 0xC93 SWAP2 SWAP1 PUSH2 0x2A80 JUMP JUMPDEST DUP2 MSTORE PUSH1 0x20 ADD SWAP1 PUSH1 0x1 ADD SWAP1 PUSH2 0xC72 JUMP JUMPDEST POP POP POP POP POP PUSH2 0x1AA7 JUMP JUMPDEST PUSH2 0xCEB JUMPI PUSH1 0x40 MLOAD PUSH32 0x8C379A000000000000000000000000000000000000000000000000000000000 DUP2 MSTORE PUSH1 0x4 ADD PUSH2 0xCE2 SWAP1 PUSH2 0x375C JUMP JUMPDEST PUSH1 0x40 MLOAD DUP1 SWAP2 SUB SWAP1 REVERT JUMPDEST DUP7 PUSH2 0xCF5 SWAP1 PUSH2 0x3B42 JUMP JUMPDEST SWAP3 POP POP POP SWAP6 SWAP5 POP POP POP POP POP JUMP JUMPDEST PUSH1 0x0 DUP1 PUSH2 0xD0E DUP7 PUSH2 0xF62 JUMP JUMPDEST SWAP1 POP PUSH1 0x0 PUSH2 0xD1C DUP7 DUP4 PUSH2 0x718 JUMP JUMPDEST SWAP1 POP PUSH1 0x0 PUSH2 0xD2A DUP7 DUP4 PUSH2 0x5AE JUMP JUMPDEST SWAP1 POP PUSH1 0x0 DUP1 DUP1 SLOAD PUSH2 0xD3A SWAP1 PUSH2 0x3B97 JUMP JUMPDEST DUP1 PUSH1 0x1F ADD PUSH1 0x20 DUP1 SWAP2 DIV MUL PUSH1 0x20 ADD PUSH1 0x40 MLOAD SWAP1 DUP2 ADD PUSH1 0x40 MSTORE DUP1 SWAP3 SWAP2 SWAP1 DUP2 DUP2 MSTORE PUSH1 0x20 ADD DUP3 DUP1 SLOAD PUSH2 0xD66 SWAP1 PUSH2 0x3B97 JUMP JUMPDEST DUP1 ISZERO PUSH2 0xDB3 JUMPI DUP1 PUSH1 0x1F LT PUSH2 0xD88 JUMPI PUSH2 0x100 DUP1 DUP4 SLOAD DIV MUL DUP4 MSTORE SWAP2 PUSH1 0x20 ADD SWAP2 PUSH2 0xDB3 JUMP JUMPDEST DUP3 ADD SWAP2 SWAP1 PUSH1 0x0 MSTORE PUSH1 0x20 PUSH1 0x0 KECCAK256 SWAP1 JUMPDEST DUP2 SLOAD DUP2 MSTORE SWAP1 PUSH1 0x1 ADD SWAP1 PUSH1 0x20 ADD DUP1 DUP4 GT PUSH2 0xD96 JUMPI DUP3 SWAP1 SUB PUSH1 0x1F AND DUP3 ADD SWAP2 JUMPDEST POP POP POP POP POP SWAP1 POP PUSH1 0x0 DUP1 PUSH1 0x0 JUMPDEST DUP9 MLOAD DUP2 LT ISZERO PUSH2 0xF33 JUMPI PUSH1 0x0 PUSH2 0xE16 DUP11 DUP4 DUP2 MLOAD DUP2 LT PUSH2 0xE07 JUMPI PUSH32 0x4E487B7100000000000000000000000000000000000000000000000000000000 PUSH1 0x0 MSTORE PUSH1 0x32 PUSH1 0x4 MSTORE PUSH1 0x24 PUSH1 0x0 REVERT JUMPDEST PUSH1 0x20 MUL PUSH1 0x20 ADD ADD MLOAD DUP8 DUP8 PUSH2 0x35C JUMP JUMPDEST SWAP1 POP DUP4 PUSH20 0xFFFFFFFFFFFFFFFFFFFFFFFFFFFFFFFFFFFFFFFF AND DUP2 PUSH20 0xFFFFFFFFFFFFFFFFFFFFFFFFFFFFFFFFFFFFFFFF AND GT PUSH2 0xE86 JUMPI PUSH1 0x40 MLOAD PUSH32 0x8C379A000000000000000000000000000000000000000000000000000000000 DUP2 MSTORE PUSH1 0x4 ADD PUSH2 0xE7D SWAP1 PUSH2 0x379C JUMP JUMPDEST PUSH1 0x40 MLOAD DUP1 SWAP2 SUB SWAP1 REVERT JUMPDEST PUSH1 0x0 PUSH1 0x4 PUSH1 0x0 DUP4 PUSH20 0xFFFFFFFFFFFFFFFFFFFFFFFFFFFFFFFFFFFFFFFF AND PUSH20 0xFFFFFFFFFFFFFFFFFFFFFFFFFFFFFFFFFFFFFFFF AND DUP2 MSTORE PUSH1 0x20 ADD SWAP1 DUP2 MSTORE PUSH1 0x20 ADD PUSH1 0x0 KECCAK256 SLOAD GT ISZERO PUSH2 0xF1C JUMPI PUSH1 0x4 PUSH1 0x0 DUP3 PUSH20 0xFFFFFFFFFFFFFFFFFFFFFFFFFFFFFFFFFFFFFFFF AND PUSH20 0xFFFFFFFFFFFFFFFFFFFFFFFFFFFFFFFFFFFFFFFF AND DUP2 MSTORE PUSH1 0x20 ADD SWAP1 DUP2 MSTORE PUSH1 0x20 ADD PUSH1 0x0 KECCAK256 SLOAD DUP4 PUSH2 0xF19 SWAP2 SWAP1 PUSH2 0x391C JUMP JUMPDEST SWAP3 POP JUMPDEST DUP1 SWAP4 POP POP DUP1 DUP1 PUSH2 0xF2B SWAP1 PUSH2 0x3BFA JUMP JUMPDEST SWAP2 POP POP PUSH2 0xDC0 JUMP JUMPDEST POP PUSH1 0x2 PUSH1 0x1 SLOAD PUSH2 0xF43 SWAP2 SWAP1 PUSH2 0x39B0 JUMP JUMPDEST PUSH1 0x3 DUP3 PUSH2 0xF50 SWAP2 SWAP1 PUSH2 0x39B0 JUMP JUMPDEST LT ISZERO SWAP7 POP POP POP POP POP POP POP SWAP5 SWAP4 POP POP POP POP JUMP JUMPDEST PUSH1 0x0 DUP1 PUSH2 0xFFF PUSH1 0x2 DUP5 PUSH1 0x0 ADD MLOAD PUSH1 0x40 MLOAD PUSH1 0x20 ADD PUSH2 0xF7F SWAP2 SWAP1 PUSH2 0x3223 JUMP JUMPDEST PUSH1 0x40 MLOAD PUSH1 0x20 DUP2 DUP4 SUB SUB DUP2 MSTORE SWAP1 PUSH1 0x40 MSTORE PUSH1 0x40 MLOAD PUSH2 0xF9B SWAP2 SWAP1 PUSH2 0x323E JUMP JUMPDEST PUSH1 0x20 PUSH1 0x40 MLOAD DUP1 DUP4 SUB DUP2 DUP6 GAS STATICCALL ISZERO DUP1 ISZERO PUSH2 0xFB8 JUMPI RETURNDATASIZE PUSH1 0x0 DUP1 RETURNDATACOPY RETURNDATASIZE PUSH1 0x0 REVERT JUMPDEST POP POP POP PUSH1 0x40 MLOAD RETURNDATASIZE PUSH1 0x1F NOT PUSH1 0x1F DUP3 ADD AND DUP3 ADD DUP1 PUSH1 0x40 MSTORE POP DUP2 ADD SWAP1 PUSH2 0xFDB SWAP2 SWAP1 PUSH2 0x299B JUMP JUMPDEST PUSH1 0x40 MLOAD PUSH1 0x20 ADD PUSH2 0xFEB SWAP2 SWAP1 PUSH2 0x337B JUMP JUMPDEST PUSH1 0x40 MLOAD PUSH1 0x20 DUP2 DUP4 SUB SUB DUP2 MSTORE SWAP1 PUSH1 0x40 MSTORE PUSH2 0x10DB JUMP JUMPDEST SWAP1 POP PUSH1 0x0 PUSH2 0x1011 DUP3 DUP6 PUSH1 0x20 ADD MLOAD PUSH2 0x1156 JUMP JUMPDEST SWAP1 POP PUSH1 0x0 PUSH2 0x1023 DUP6 PUSH1 0x40 ADD MLOAD DUP4 PUSH2 0x1156 JUMP JUMPDEST SWAP1 POP PUSH1 0x0 PUSH2 0x1035 DUP7 PUSH1 0x60 ADD MLOAD DUP4 PUSH2 0x1156 JUMP JUMPDEST SWAP1 POP PUSH1 0x0 PUSH2 0x1047 DUP8 PUSH1 0x80 ADD MLOAD DUP4 PUSH2 0x1156 JUMP JUMPDEST SWAP1 POP PUSH1 0x0 PUSH2 0x1059 DUP3 DUP10 PUSH1 0xA0 ADD MLOAD PUSH2 0x1156 JUMP JUMPDEST SWAP1 POP DUP1 SWAP7 POP POP POP POP POP POP POP SWAP2 SWAP1 POP JUMP JUMPDEST PUSH1 0x3 SLOAD DUP2 JUMP JUMPDEST PUSH1 0x4 PUSH1 0x20 MSTORE DUP1 PUSH1 0x0 MSTORE PUSH1 0x40 PUSH1 0x0 KECCAK256 PUSH1 0x0 SWAP2 POP SWAP1 POP SLOAD DUP2 JUMP JUMPDEST PUSH1 0x1 SLOAD DUP2 JUMP JUMPDEST PUSH1 0x5 PUSH1 0x20 MSTORE DUP1 PUSH1 0x0 MSTORE PUSH1 0x40 PUSH1 0x0 KECCAK256 PUSH1 0x0 SWAP2 POP SWAP1 POP DUP1 PUSH1 0x0 ADD SLOAD SWAP1 DUP1 PUSH1 0x1 ADD PUSH1 0x0 SWAP1 SLOAD SWAP1 PUSH2 0x100 EXP SWAP1 DIV PUSH8 0xFFFFFFFFFFFFFFFF AND SWAP1 DUP1 PUSH1 0x1 ADD PUSH1 0x8 SWAP1 SLOAD SWAP1 PUSH2 0x100 EXP SWAP1 DIV PUSH4 0xFFFFFFFF AND SWAP1 POP DUP4 JUMP JUMPDEST PUSH1 0x0 PUSH1 0x2 PUSH1 0x0 DUP4 PUSH1 0x40 MLOAD PUSH1 0x20 ADD PUSH2 0x10F3 SWAP3 SWAP2 SWAP1 PUSH2 0x3426 JUMP JUMPDEST PUSH1 0x40 MLOAD PUSH1 0x20 DUP2 DUP4 SUB SUB DUP2 MSTORE SWAP1 PUSH1 0x40 MSTORE PUSH1 0x40 MLOAD PUSH2 0x110F SWAP2 SWAP1 PUSH2 0x323E JUMP JUMPDEST PUSH1 0x20 PUSH1 0x40 MLOAD DUP1 DUP4 SUB DUP2 DUP6 GAS STATICCALL ISZERO DUP1 ISZERO PUSH2 0x112C JUMPI RETURNDATASIZE PUSH1 0x0 DUP1 RETURNDATACOPY RETURNDATASIZE PUSH1 0x0 REVERT JUMPDEST POP POP POP PUSH1 0x40 MLOAD RETURNDATASIZE PUSH1 0x1F NOT PUSH1 0x1F DUP3 ADD AND DUP3 ADD DUP1 PUSH1 0x40 MSTORE POP DUP2 ADD SWAP1 PUSH2 0x114F SWAP2 SWAP1 PUSH2 0x299B JUMP JUMPDEST SWAP1 POP SWAP2 SWAP1 POP JUMP JUMPDEST PUSH1 0x0 PUSH1 0x2 PUSH1 0x1 DUP5 DUP5 PUSH1 0x40 MLOAD PUSH1 0x20 ADD PUSH2 0x1170 SWAP4 SWAP3 SWAP2 SWAP1 PUSH2 0x33E9 JUMP JUMPDEST PUSH1 0x40 MLOAD PUSH1 0x20 DUP2 DUP4 SUB SUB DUP2 MSTORE SWAP1 PUSH1 0x40 MSTORE PUSH1 0x40 MLOAD PUSH2 0x118C SWAP2 SWAP1 PUSH2 0x323E JUMP JUMPDEST PUSH1 0x20 PUSH1 0x40 MLOAD DUP1 DUP4 SUB DUP2 DUP6 GAS STATICCALL ISZERO DUP1 ISZERO PUSH2 0x11A9 JUMPI RETURNDATASIZE PUSH1 0x0 DUP1 RETURNDATACOPY RETURNDATASIZE PUSH1 0x0 REVERT JUMPDEST POP POP POP PUSH1 0x40 MLOAD RETURNDATASIZE PUSH1 0x1F NOT PUSH1 0x1F DUP3 ADD AND DUP3 ADD DUP1 PUSH1 0x40 MSTORE POP DUP2 ADD SWAP1 PUSH2 0x11CC SWAP2 SWAP1 PUSH2 0x299B JUMP JUMPDEST SWAP1 POP SWAP3 SWAP2 POP POP JUMP JUMPDEST PUSH1 0x60 PUSH1 0x0 DUP3 SWAP1 POP PUSH1 0x0 JUMPDEST PUSH1 0x0 DUP3 GT ISZERO PUSH2 0x11FF JUMPI DUP1 PUSH2 0x11F1 SWAP1 PUSH2 0x3BFA JUMP JUMPDEST SWAP1 POP PUSH1 0x7 DUP3 SWAP1 SHR SWAP2 POP PUSH2 0x11DE JUMP JUMPDEST PUSH1 0x0 DUP2 PUSH8 0xFFFFFFFFFFFFFFFF DUP2 GT ISZERO PUSH2 0x1241 JUMPI PUSH32 0x4E487B7100000000000000000000000000000000000000000000000000000000 PUSH1 0x0 MSTORE PUSH1 0x41 PUSH1 0x4 MSTORE PUSH1 0x24 PUSH1 0x0 REVERT JUMPDEST PUSH1 0x40 MLOAD SWAP1 DUP1 DUP3 MSTORE DUP1 PUSH1 0x1F ADD PUSH1 0x1F NOT AND PUSH1 0x20 ADD DUP3 ADD PUSH1 0x40 MSTORE DUP1 ISZERO PUSH2 0x1273 JUMPI DUP2 PUSH1 0x20 ADD PUSH1 0x1 DUP3 MUL DUP1 CALLDATASIZE DUP4 CALLDATACOPY DUP1 DUP3 ADD SWAP2 POP POP SWAP1 POP JUMPDEST POP SWAP1 POP DUP5 SWAP3 POP PUSH1 0x0 JUMPDEST DUP3 DUP2 LT ISZERO PUSH2 0x130E JUMPI PUSH1 0x7F DUP5 AND PUSH1 0x80 OR PUSH1 0xF8 SHL DUP3 DUP3 DUP2 MLOAD DUP2 LT PUSH2 0x12C7 JUMPI PUSH32 0x4E487B7100000000000000000000000000000000000000000000000000000000 PUSH1 0x0 MSTORE PUSH1 0x32 PUSH1 0x4 MSTORE PUSH1 0x24 PUSH1 0x0 REVERT JUMPDEST PUSH1 0x20 ADD ADD SWAP1 PUSH31 0xFFFFFFFFFFFFFFFFFFFFFFFFFFFFFFFFFFFFFFFFFFFFFFFFFFFFFFFFFFFFFF NOT AND SWAP1 DUP2 PUSH1 0x0 BYTE SWAP1 MSTORE8 POP PUSH1 0x7 DUP5 SWAP1 SHR SWAP4 POP DUP1 PUSH2 0x1307 SWAP1 PUSH2 0x3BFA JUMP JUMPDEST SWAP1 POP PUSH2 0x127C JUMP JUMPDEST POP PUSH1 0x7F PUSH1 0xF8 SHL DUP2 PUSH1 0x1 DUP5 PUSH2 0x1322 SWAP2 SWAP1 PUSH2 0x3A0A JUMP JUMPDEST DUP2 MLOAD DUP2 LT PUSH2 0x1359 JUMPI PUSH32 0x4E487B7100000000000000000000000000000000000000000000000000000000 PUSH1 0x0 MSTORE PUSH1 0x32 PUSH1 0x4 MSTORE PUSH1 0x24 PUSH1 0x0 REVERT JUMPDEST PUSH1 0x20 ADD ADD DUP2 DUP2 MLOAD PUSH1 0xF8 SHR PUSH1 0xF8 SHL AND SWAP2 POP SWAP1 PUSH31 0xFFFFFFFFFFFFFFFFFFFFFFFFFFFFFFFFFFFFFFFFFFFFFFFFFFFFFFFFFFFFFF NOT AND SWAP1 DUP2 PUSH1 0x0 BYTE SWAP1 MSTORE8 POP DUP1 SWAP4 POP POP POP POP SWAP2 SWAP1 POP JUMP JUMPDEST PUSH1 0x60 PUSH1 0x0 PUSH2 0x13B6 DUP5 PUSH8 0xFFFFFFFFFFFFFFFF AND PUSH2 0x11D4 JUMP JUMPDEST PUSH1 0x40 MLOAD PUSH1 0x20 ADD PUSH2 0x13C6 SWAP2 SWAP1 PUSH2 0x33C7 JUMP JUMPDEST PUSH1 0x40 MLOAD PUSH1 0x20 DUP2 DUP4 SUB SUB DUP2 MSTORE SWAP1 PUSH1 0x40 MSTORE SWAP1 POP PUSH1 0x0 DUP4 PUSH4 0xFFFFFFFF AND GT ISZERO PUSH2 0x1419 JUMPI DUP1 PUSH2 0x13F6 DUP5 PUSH4 0xFFFFFFFF AND PUSH2 0x11D4 JUMP JUMPDEST PUSH1 0x40 MLOAD PUSH1 0x20 ADD PUSH2 0x1407 SWAP3 SWAP2 SWAP1 PUSH2 0x32F9 JUMP JUMPDEST PUSH1 0x40 MLOAD PUSH1 0x20 DUP2 DUP4 SUB SUB DUP2 MSTORE SWAP1 PUSH1 0x40 MSTORE SWAP1 POP JUMPDEST DUP1 SWAP2 POP POP SWAP3 SWAP2 POP POP JUMP JUMPDEST PUSH1 0x60 DUP1 PUSH1 0x0 DUP4 PUSH1 0x0 ADD MLOAD MLOAD GT ISZERO PUSH2 0x14B1 JUMPI DUP1 PUSH2 0x1479 PUSH1 0x1 PUSH1 0x2 PUSH1 0x6 DUP2 GT ISZERO PUSH2 0x1474 JUMPI PUSH32 0x4E487B7100000000000000000000000000000000000000000000000000000000 PUSH1 0x0 MSTORE PUSH1 0x21 PUSH1 0x4 MSTORE PUSH1 0x24 PUSH1 0x0 REVERT JUMPDEST PUSH2 0x1BB4 JUMP JUMPDEST PUSH2 0x1487 DUP6 PUSH1 0x0 ADD MLOAD MLOAD PUSH2 0x1BE3 JUMP JUMPDEST DUP6 PUSH1 0x0 ADD MLOAD PUSH1 0x40 MLOAD PUSH1 0x20 ADD PUSH2 0x149F SWAP5 SWAP4 SWAP3 SWAP2 SWAP1 PUSH2 0x32BB JUMP JUMPDEST PUSH1 0x40 MLOAD PUSH1 0x20 DUP2 DUP4 SUB SUB DUP2 MSTORE SWAP1 PUSH1 0x40 MSTORE SWAP1 POP JUMPDEST PUSH1 0x0 DUP4 PUSH1 0x20 ADD MLOAD PUSH8 0xFFFFFFFFFFFFFFFF AND EQ PUSH2 0x153D JUMPI DUP1 PUSH2 0x150C PUSH1 0x2 PUSH1 0x0 PUSH1 0x6 DUP2 GT ISZERO PUSH2 0x1507 JUMPI PUSH32 0x4E487B7100000000000000000000000000000000000000000000000000000000 PUSH1 0x0 MSTORE PUSH1 0x21 PUSH1 0x4 MSTORE PUSH1 0x24 PUSH1 0x0 REVERT JUMPDEST PUSH2 0x1BB4 JUMP JUMPDEST PUSH2 0x1519 DUP6 PUSH1 0x20 ADD MLOAD PUSH2 0x1BE3 JUMP JUMPDEST PUSH1 0x40 MLOAD PUSH1 0x20 ADD PUSH2 0x152B SWAP4 SWAP3 SWAP2 SWAP1 PUSH2 0x328A JUMP JUMPDEST PUSH1 0x40 MLOAD PUSH1 0x20 DUP2 DUP4 SUB SUB DUP2 MSTORE SWAP1 PUSH1 0x40 MSTORE SWAP1 POP JUMPDEST PUSH1 0x0 DUP4 PUSH1 0x40 ADD MLOAD MLOAD GT ISZERO PUSH2 0x15C8 JUMPI DUP1 PUSH2 0x1590 PUSH1 0x3 PUSH1 0x2 PUSH1 0x6 DUP2 GT ISZERO PUSH2 0x158B JUMPI PUSH32 0x4E487B7100000000000000000000000000000000000000000000000000000000 PUSH1 0x0 MSTORE PUSH1 0x21 PUSH1 0x4 MSTORE PUSH1 0x24 PUSH1 0x0 REVERT JUMPDEST PUSH2 0x1BB4 JUMP JUMPDEST PUSH2 0x159E DUP6 PUSH1 0x40 ADD MLOAD MLOAD PUSH2 0x1BE3 JUMP JUMPDEST DUP6 PUSH1 0x40 ADD MLOAD PUSH1 0x40 MLOAD PUSH1 0x20 ADD PUSH2 0x15B6 SWAP5 SWAP4 SWAP3 SWAP2 SWAP1 PUSH2 0x32BB JUMP JUMPDEST PUSH1 0x40 MLOAD PUSH1 0x20 DUP2 DUP4 SUB SUB DUP2 MSTORE SWAP1 PUSH1 0x40 MSTORE SWAP1 POP JUMPDEST PUSH1 0x0 DUP4 PUSH1 0x60 ADD MLOAD PUSH8 0xFFFFFFFFFFFFFFFF AND EQ PUSH2 0x1654 JUMPI DUP1 PUSH2 0x1623 PUSH1 0x4 PUSH1 0x0 PUSH1 0x6 DUP2 GT ISZERO PUSH2 0x161E JUMPI PUSH32 0x4E487B7100000000000000000000000000000000000000000000000000000000 PUSH1 0x0 MSTORE PUSH1 0x21 PUSH1 0x4 MSTORE PUSH1 0x24 PUSH1 0x0 REVERT JUMPDEST PUSH2 0x1BB4 JUMP JUMPDEST PUSH2 0x1630 DUP6 PUSH1 0x60 ADD MLOAD PUSH2 0x1BE3 JUMP JUMPDEST PUSH1 0x40 MLOAD PUSH1 0x20 ADD PUSH2 0x1642 SWAP4 SWAP3 SWAP2 SWAP1 PUSH2 0x328A JUMP JUMPDEST PUSH1 0x40 MLOAD PUSH1 0x20 DUP2 DUP4 SUB SUB DUP2 MSTORE SWAP1 PUSH1 0x40 MSTORE SWAP1 POP JUMPDEST PUSH1 0x0 DUP4 PUSH1 0x80 ADD MLOAD PUSH8 0xFFFFFFFFFFFFFFFF AND EQ PUSH2 0x16E0 JUMPI DUP1 PUSH2 0x16AF PUSH1 0x5 PUSH1 0x0 PUSH1 0x6 DUP2 GT ISZERO PUSH2 0x16AA JUMPI PUSH32 0x4E487B7100000000000000000000000000000000000000000000000000000000 PUSH1 0x0 MSTORE PUSH1 0x21 PUSH1 0x4 MSTORE PUSH1 0x24 PUSH1 0x0 REVERT JUMPDEST PUSH2 0x1BB4 JUMP JUMPDEST PUSH2 0x16BC DUP6 PUSH1 0x80 ADD MLOAD PUSH2 0x1BE3 JUMP JUMPDEST PUSH1 0x40 MLOAD PUSH1 0x20 ADD PUSH2 0x16CE SWAP4 SWAP3 SWAP2 SWAP1 PUSH2 0x328A JUMP JUMPDEST PUSH1 0x40 MLOAD PUSH1 0x20 DUP2 DUP4 SUB SUB DUP2 MSTORE SWAP1 PUSH1 0x40 MSTORE SWAP1 POP JUMPDEST PUSH1 0x0 DUP4 PUSH1 0xA0 ADD MLOAD PUSH8 0xFFFFFFFFFFFFFFFF AND EQ PUSH2 0x176C JUMPI DUP1 PUSH2 0x173B PUSH1 0x6 PUSH1 0x0 PUSH1 0x6 DUP2 GT ISZERO PUSH2 0x1736 JUMPI PUSH32 0x4E487B7100000000000000000000000000000000000000000000000000000000 PUSH1 0x0 MSTORE PUSH1 0x21 PUSH1 0x4 MSTORE PUSH1 0x24 PUSH1 0x0 REVERT JUMPDEST PUSH2 0x1BB4 JUMP JUMPDEST PUSH2 0x1748 DUP6 PUSH1 0xA0 ADD MLOAD PUSH2 0x1BE3 JUMP JUMPDEST PUSH1 0x40 MLOAD PUSH1 0x20 ADD PUSH2 0x175A SWAP4 SWAP3 SWAP2 SWAP1 PUSH2 0x328A JUMP JUMPDEST PUSH1 0x40 MLOAD PUSH1 0x20 DUP2 DUP4 SUB SUB DUP2 MSTORE SWAP1 PUSH1 0x40 MSTORE SWAP1 POP JUMPDEST PUSH1 0x0 DUP4 PUSH1 0xC0 ADD MLOAD PUSH8 0xFFFFFFFFFFFFFFFF AND EQ PUSH2 0x17F8 JUMPI DUP1 PUSH2 0x17C7 PUSH1 0x7 PUSH1 0x0 PUSH1 0x6 DUP2 GT ISZERO PUSH2 0x17C2 JUMPI PUSH32 0x4E487B7100000000000000000000000000000000000000000000000000000000 PUSH1 0x0 MSTORE PUSH1 0x21 PUSH1 0x4 MSTORE PUSH1 0x24 PUSH1 0x0 REVERT JUMPDEST PUSH2 0x1BB4 JUMP JUMPDEST PUSH2 0x17D4 DUP6 PUSH1 0xC0 ADD MLOAD PUSH2 0x1BE3 JUMP JUMPDEST PUSH1 0x40 MLOAD PUSH1 0x20 ADD PUSH2 0x17E6 SWAP4 SWAP3 SWAP2 SWAP1 PUSH2 0x328A JUMP JUMPDEST PUSH1 0x40 MLOAD PUSH1 0x20 DUP2 DUP4 SUB SUB DUP2 MSTORE SWAP1 PUSH1 0x40 MSTORE SWAP1 POP JUMPDEST PUSH1 0x0 DUP4 PUSH1 0xE0 ADD MLOAD PUSH8 0xFFFFFFFFFFFFFFFF AND EQ PUSH2 0x1884 JUMPI DUP1 PUSH2 0x1853 PUSH1 0x8 PUSH1 0x0 PUSH1 0x6 DUP2 GT ISZERO PUSH2 0x184E JUMPI PUSH32 0x4E487B7100000000000000000000000000000000000000000000000000000000 PUSH1 0x0 MSTORE PUSH1 0x21 PUSH1 0x4 MSTORE PUSH1 0x24 PUSH1 0x0 REVERT JUMPDEST PUSH2 0x1BB4 JUMP JUMPDEST PUSH2 0x1860 DUP6 PUSH1 0xE0 ADD MLOAD PUSH2 0x1BE3 JUMP JUMPDEST PUSH1 0x40 MLOAD PUSH1 0x20 ADD PUSH2 0x1872 SWAP4 SWAP3 SWAP2 SWAP1 PUSH2 0x328A JUMP JUMPDEST PUSH1 0x40 MLOAD PUSH1 0x20 DUP2 DUP4 SUB SUB DUP2 MSTORE SWAP1 PUSH1 0x40 MSTORE SWAP1 POP JUMPDEST PUSH1 0x0 DUP4 PUSH2 0x100 ADD MLOAD PUSH8 0xFFFFFFFFFFFFFFFF AND EQ PUSH2 0x1912 JUMPI DUP1 PUSH2 0x18E0 PUSH1 0x9 PUSH1 0x0 PUSH1 0x6 DUP2 GT ISZERO PUSH2 0x18DB JUMPI PUSH32 0x4E487B7100000000000000000000000000000000000000000000000000000000 PUSH1 0x0 MSTORE PUSH1 0x21 PUSH1 0x4 MSTORE PUSH1 0x24 PUSH1 0x0 REVERT JUMPDEST PUSH2 0x1BB4 JUMP JUMPDEST PUSH2 0x18EE DUP6 PUSH2 0x100 ADD MLOAD PUSH2 0x1BE3 JUMP JUMPDEST PUSH1 0x40 MLOAD PUSH1 0x20 ADD PUSH2 0x1900 SWAP4 SWAP3 SWAP2 SWAP1 PUSH2 0x328A JUMP JUMPDEST PUSH1 0x40 MLOAD PUSH1 0x20 DUP2 DUP4 SUB SUB DUP2 MSTORE SWAP1 PUSH1 0x40 MSTORE SWAP1 POP JUMPDEST PUSH1 0x0 DUP4 PUSH2 0x120 ADD MLOAD PUSH1 0x3 DUP2 GT ISZERO PUSH2 0x1952 JUMPI PUSH32 0x4E487B7100000000000000000000000000000000000000000000000000000000 PUSH1 0x0 MSTORE PUSH1 0x21 PUSH1 0x4 MSTORE PUSH1 0x24 PUSH1 0x0 REVERT JUMPDEST PUSH8 0xFFFFFFFFFFFFFFFF AND EQ PUSH2 0x1A10 JUMPI DUP1 PUSH2 0x19A6 PUSH1 0xA PUSH1 0x0 PUSH1 0x6 DUP2 GT ISZERO PUSH2 0x19A1 JUMPI PUSH32 0x4E487B7100000000000000000000000000000000000000000000000000000000 PUSH1 0x0 MSTORE PUSH1 0x21 PUSH1 0x4 MSTORE PUSH1 0x24 PUSH1 0x0 REVERT JUMPDEST PUSH2 0x1BB4 JUMP JUMPDEST PUSH2 0x19EC DUP6 PUSH2 0x120 ADD MLOAD PUSH1 0x3 DUP2 GT ISZERO PUSH2 0x19E7 JUMPI PUSH32 0x4E487B7100000000000000000000000000000000000000000000000000000000 PUSH1 0x0 MSTORE PUSH1 0x21 PUSH1 0x4 MSTORE PUSH1 0x24 PUSH1 0x0 REVERT JUMPDEST PUSH2 0x1BF5 JUMP JUMPDEST PUSH1 0x40 MLOAD PUSH1 0x20 ADD PUSH2 0x19FE SWAP4 SWAP3 SWAP2 SWAP1 PUSH2 0x328A JUMP JUMPDEST PUSH1 0x40 MLOAD PUSH1 0x20 DUP2 DUP4 SUB SUB DUP2 MSTORE SWAP1 PUSH1 0x40 MSTORE SWAP1 POP JUMPDEST PUSH1 0x0 DUP4 PUSH2 0x140 ADD MLOAD MLOAD GT ISZERO PUSH2 0x1A9E JUMPI DUP1 PUSH2 0x1A64 PUSH1 0xB PUSH1 0x2 PUSH1 0x6 DUP2 GT ISZERO PUSH2 0x1A5F JUMPI PUSH32 0x4E487B7100000000000000000000000000000000000000000000000000000000 PUSH1 0x0 MSTORE PUSH1 0x21 PUSH1 0x4 MSTORE PUSH1 0x24 PUSH1 0x0 REVERT JUMPDEST PUSH2 0x1BB4 JUMP JUMPDEST PUSH2 0x1A73 DUP6 PUSH2 0x140 ADD MLOAD MLOAD PUSH2 0x1BE3 JUMP JUMPDEST DUP6 PUSH2 0x140 ADD MLOAD PUSH1 0x40 MLOAD PUSH1 0x20 ADD PUSH2 0x1A8C SWAP5 SWAP4 SWAP3 SWAP2 SWAP1 PUSH2 0x32BB JUMP JUMPDEST PUSH1 0x40 MLOAD PUSH1 0x20 DUP2 DUP4 SUB SUB DUP2 MSTORE SWAP1 PUSH1 0x40 MSTORE SWAP1 POP JUMPDEST DUP1 SWAP2 POP POP SWAP2 SWAP1 POP JUMP JUMPDEST PUSH1 0x0 DUP1 PUSH2 0x1AB3 DUP7 PUSH2 0x11D4 JUMP JUMPDEST SWAP1 POP PUSH1 0x0 PUSH1 0x2 PUSH1 0x0 PUSH1 0x2 DUP5 DUP10 MLOAD DUP11 PUSH1 0x20 DUP12 PUSH1 0x40 MLOAD PUSH1 0x20 ADD PUSH2 0x1ADA SWAP8 SWAP7 SWAP6 SWAP5 SWAP4 SWAP3 SWAP2 SWAP1 PUSH2 0x3530 JUMP JUMPDEST PUSH1 0x40 MLOAD PUSH1 0x20 DUP2 DUP4 SUB SUB DUP2 MSTORE SWAP1 PUSH1 0x40 MSTORE PUSH1 0x40 MLOAD PUSH2 0x1AF6 SWAP2 SWAP1 PUSH2 0x323E JUMP JUMPDEST PUSH1 0x20 PUSH1 0x40 MLOAD DUP1 DUP4 SUB DUP2 DUP6 GAS STATICCALL ISZERO DUP1 ISZERO PUSH2 0x1B13 JUMPI RETURNDATASIZE PUSH1 0x0 DUP1 RETURNDATACOPY RETURNDATASIZE PUSH1 0x0 REVERT JUMPDEST POP POP POP PUSH1 0x40 MLOAD RETURNDATASIZE PUSH1 0x1F NOT PUSH1 0x1F DUP3 ADD AND DUP3 ADD DUP1 PUSH1 0x40 MSTORE POP DUP2 ADD SWAP1 PUSH2 0x1B36 SWAP2 SWAP1 PUSH2 0x299B JUMP JUMPDEST SWAP1 POP PUSH1 0x0 JUMPDEST DUP5 MLOAD DUP2 LT ISZERO PUSH2 0x1BA3 JUMPI PUSH2 0x1B8E DUP6 DUP3 DUP2 MLOAD DUP2 LT PUSH2 0x1B80 JUMPI PUSH32 0x4E487B7100000000000000000000000000000000000000000000000000000000 PUSH1 0x0 MSTORE PUSH1 0x32 PUSH1 0x4 MSTORE PUSH1 0x24 PUSH1 0x0 REVERT JUMPDEST PUSH1 0x20 MUL PUSH1 0x20 ADD ADD MLOAD DUP4 PUSH2 0x1C0D JUMP JUMPDEST SWAP2 POP DUP1 DUP1 PUSH2 0x1B9B SWAP1 PUSH2 0x3BFA JUMP JUMPDEST SWAP2 POP POP PUSH2 0x1B3B JUMP JUMPDEST POP DUP8 DUP2 EQ SWAP3 POP POP POP SWAP6 SWAP5 POP POP POP POP POP JUMP JUMPDEST PUSH1 0x60 PUSH1 0x0 DUP3 PUSH1 0x3 DUP6 PUSH8 0xFFFFFFFFFFFFFFFF AND SWAP1 SHL OR SWAP1 POP PUSH1 0x0 PUSH2 0x1BD6 DUP3 PUSH2 0x1CDB JUMP JUMPDEST SWAP1 POP DUP1 SWAP3 POP POP POP SWAP3 SWAP2 POP POP JUMP JUMPDEST PUSH1 0x60 PUSH2 0x1BEE DUP3 PUSH2 0x1CDB JUMP JUMPDEST SWAP1 POP SWAP2 SWAP1 POP JUMP JUMPDEST PUSH1 0x60 PUSH2 0x1C06 DUP3 PUSH4 0xFFFFFFFF AND PUSH2 0x1CDB JUMP JUMPDEST SWAP1 POP SWAP2 SWAP1 POP JUMP JUMPDEST PUSH1 0x0 DUP1 PUSH1 0x0 DUP5 PUSH1 0x0 ADD MLOAD PUSH2 0x1C26 JUMPI DUP4 DUP6 PUSH1 0x80 ADD MLOAD PUSH2 0x1C2D JUMP JUMPDEST DUP5 PUSH1 0x80 ADD MLOAD DUP5 JUMPDEST SWAP2 POP SWAP2 POP PUSH1 0x2 PUSH1 0x1 DUP7 PUSH1 0x20 ADD MLOAD PUSH1 0xFF AND SWAP1 SHL PUSH2 0x1C4C DUP8 PUSH1 0x40 ADD MLOAD PUSH2 0x1EFF JUMP JUMPDEST PUSH2 0x1C59 DUP9 PUSH1 0x60 ADD MLOAD PUSH2 0x1EFF JUMP JUMPDEST PUSH1 0x20 DUP7 PUSH1 0x20 DUP8 PUSH1 0x40 MLOAD PUSH1 0x20 ADD PUSH2 0x1C75 SWAP8 SWAP7 SWAP6 SWAP5 SWAP4 SWAP3 SWAP2 SWAP1 PUSH2 0x344E JUMP JUMPDEST PUSH1 0x40 MLOAD PUSH1 0x20 DUP2 DUP4 SUB SUB DUP2 MSTORE SWAP1 PUSH1 0x40 MSTORE PUSH1 0x40 MLOAD PUSH2 0x1C91 SWAP2 SWAP1 PUSH2 0x323E JUMP JUMPDEST PUSH1 0x20 PUSH1 0x40 MLOAD DUP1 DUP4 SUB DUP2 DUP6 GAS STATICCALL ISZERO DUP1 ISZERO PUSH2 0x1CAE JUMPI RETURNDATASIZE PUSH1 0x0 DUP1 RETURNDATACOPY RETURNDATASIZE PUSH1 0x0 REVERT JUMPDEST POP POP POP PUSH1 0x40 MLOAD RETURNDATASIZE PUSH1 0x1F NOT PUSH1 0x1F DUP3 ADD AND DUP3 ADD DUP1 PUSH1 0x40 MSTORE POP DUP2 ADD SWAP1 PUSH2 0x1CD1 SWAP2 SWAP1 PUSH2 0x299B JUMP JUMPDEST SWAP3 POP POP POP SWAP3 SWAP2 POP POP JUMP JUMPDEST PUSH1 0x60 PUSH1 0x0 DUP3 SWAP1 POP PUSH1 0x0 PUSH1 0x1 SWAP1 POP JUMPDEST PUSH1 0x7F DUP3 PUSH8 0xFFFFFFFFFFFFFFFF AND GT ISZERO PUSH2 0x1D21 JUMPI PUSH1 0x7 DUP3 PUSH8 0xFFFFFFFFFFFFFFFF AND SWAP1 SHR SWAP2 POP PUSH1 0x1 DUP2 PUSH2 0x1D1A SWAP2 SWAP1 PUSH2 0x3972 JUMP JUMPDEST SWAP1 POP PUSH2 0x1CE9 JUMP JUMPDEST PUSH1 0x0 DUP2 PUSH8 0xFFFFFFFFFFFFFFFF AND PUSH8 0xFFFFFFFFFFFFFFFF DUP2 GT ISZERO PUSH2 0x1D6D JUMPI PUSH32 0x4E487B7100000000000000000000000000000000000000000000000000000000 PUSH1 0x0 MSTORE PUSH1 0x41 PUSH1 0x4 MSTORE PUSH1 0x24 PUSH1 0x0 REVERT JUMPDEST PUSH1 0x40 MLOAD SWAP1 DUP1 DUP3 MSTORE DUP1 PUSH1 0x1F ADD PUSH1 0x1F NOT AND PUSH1 0x20 ADD DUP3 ADD PUSH1 0x40 MSTORE DUP1 ISZERO PUSH2 0x1D9F JUMPI DUP2 PUSH1 0x20 ADD PUSH1 0x1 DUP3 MUL DUP1 CALLDATASIZE DUP4 CALLDATACOPY DUP1 DUP3 ADD SWAP2 POP POP SWAP1 POP JUMPDEST POP SWAP1 POP DUP5 SWAP3 POP PUSH1 0x0 JUMPDEST DUP3 PUSH8 0xFFFFFFFFFFFFFFFF AND DUP2 PUSH8 0xFFFFFFFFFFFFFFFF AND LT ISZERO PUSH2 0x1E64 JUMPI PUSH1 0x7F DUP5 AND PUSH1 0x80 OR PUSH1 0xF8 SHL DUP3 DUP3 PUSH8 0xFFFFFFFFFFFFFFFF AND DUP2 MLOAD DUP2 LT PUSH2 0x1E11 JUMPI PUSH32 0x4E487B7100000000000000000000000000000000000000000000000000000000 PUSH1 0x0 MSTORE PUSH1 0x32 PUSH1 0x4 MSTORE PUSH1 0x24 PUSH1 0x0 REVERT JUMPDEST PUSH1 0x20 ADD ADD SWAP1 PUSH31 0xFFFFFFFFFFFFFFFFFFFFFFFFFFFFFFFFFFFFFFFFFFFFFFFFFFFFFFFFFFFFFF NOT AND SWAP1 DUP2 PUSH1 0x0 BYTE SWAP1 MSTORE8 POP PUSH1 0x7 DUP5 PUSH8 0xFFFFFFFFFFFFFFFF AND SWAP1 SHR SWAP4 POP DUP1 DUP1 PUSH2 0x1E5C SWAP1 PUSH2 0x3C43 JUMP JUMPDEST SWAP2 POP POP PUSH2 0x1DA8 JUMP JUMPDEST POP PUSH1 0x7F PUSH1 0xF8 SHL DUP2 PUSH1 0x1 DUP5 PUSH2 0x1E78 SWAP2 SWAP1 PUSH2 0x3A3E JUMP JUMPDEST PUSH8 0xFFFFFFFFFFFFFFFF AND DUP2 MLOAD DUP2 LT PUSH2 0x1EB9 JUMPI PUSH32 0x4E487B7100000000000000000000000000000000000000000000000000000000 PUSH1 0x0 MSTORE PUSH1 0x32 PUSH1 0x4 MSTORE PUSH1 0x24 PUSH1 0x0 REVERT JUMPDEST PUSH1 0x20 ADD ADD DUP2 DUP2 MLOAD PUSH1 0xF8 SHR PUSH1 0xF8 SHL AND SWAP2 POP SWAP1 PUSH31 0xFFFFFFFFFFFFFFFFFFFFFFFFFFFFFFFFFFFFFFFFFFFFFFFFFFFFFFFFFFFFFF NOT AND SWAP1 DUP2 PUSH1 0x0 BYTE SWAP1 MSTORE8 POP DUP1 SWAP4 POP POP POP POP SWAP2 SWAP1 POP JUMP JUMPDEST PUSH1 0x60 PUSH2 0x1F16 PUSH1 0x2 DUP4 PUSH2 0x1F11 SWAP2 SWAP1 PUSH2 0x39B0 JUMP JUMPDEST PUSH2 0x11D4 JUMP JUMPDEST SWAP1 POP SWAP2 SWAP1 POP JUMP JUMPDEST DUP3 DUP1 SLOAD PUSH2 0x1F29 SWAP1 PUSH2 0x3B97 JUMP JUMPDEST SWAP1 PUSH1 0x0 MSTORE PUSH1 0x20 PUSH1 0x0 KECCAK256 SWAP1 PUSH1 0x1F ADD PUSH1 0x20 SWAP1 DIV DUP2 ADD SWAP3 DUP3 PUSH2 0x1F4B JUMPI PUSH1 0x0 DUP6 SSTORE PUSH2 0x1F92 JUMP JUMPDEST DUP3 PUSH1 0x1F LT PUSH2 0x1F64 JUMPI DUP1 MLOAD PUSH1 0xFF NOT AND DUP4 DUP1 ADD OR DUP6 SSTORE PUSH2 0x1F92 JUMP JUMPDEST DUP3 DUP1 ADD PUSH1 0x1 ADD DUP6 SSTORE DUP3 ISZERO PUSH2 0x1F92 JUMPI SWAP2 DUP3 ADD JUMPDEST DUP3 DUP2 GT ISZERO PUSH2 0x1F91 JUMPI DUP3 MLOAD DUP3 SSTORE SWAP2 PUSH1 0x20 ADD SWAP2 SWAP1 PUSH1 0x1 ADD SWAP1 PUSH2 0x1F76 JUMP JUMPDEST JUMPDEST POP SWAP1 POP PUSH2 0x1F9F SWAP2 SWAP1 PUSH2 0x207B JUMP JUMPDEST POP SWAP1 JUMP JUMPDEST PUSH1 0x40 MLOAD DUP1 PUSH2 0x160 ADD PUSH1 0x40 MSTORE DUP1 PUSH1 0x60 DUP2 MSTORE PUSH1 0x20 ADD PUSH1 0x0 PUSH8 0xFFFFFFFFFFFFFFFF AND DUP2 MSTORE PUSH1 0x20 ADD PUSH1 0x60 DUP2 MSTORE PUSH1 0x20 ADD PUSH1 0x0 PUSH8 0xFFFFFFFFFFFFFFFF AND DUP2 MSTORE PUSH1 0x20 ADD PUSH1 0x0 PUSH8 0xFFFFFFFFFFFFFFFF AND DUP2 MSTORE PUSH1 0x20 ADD PUSH1 0x0 PUSH8 0xFFFFFFFFFFFFFFFF AND DUP2 MSTORE PUSH1 0x20 ADD PUSH1 0x0 PUSH8 0xFFFFFFFFFFFFFFFF AND DUP2 MSTORE PUSH1 0x20 ADD PUSH1 0x0 PUSH8 0xFFFFFFFFFFFFFFFF AND DUP2 MSTORE PUSH1 0x20 ADD PUSH1 0x0 PUSH8 0xFFFFFFFFFFFFFFFF AND DUP2 MSTORE PUSH1 0x20 ADD PUSH1 0x0 PUSH1 0x3 DUP2 GT ISZERO PUSH2 0x206E JUMPI PUSH32 0x4E487B7100000000000000000000000000000000000000000000000000000000 PUSH1 0x0 MSTORE PUSH1 0x21 PUSH1 0x4 MSTORE PUSH1 0x24 PUSH1 0x0 REVERT JUMPDEST DUP2 MSTORE PUSH1 0x20 ADD PUSH1 0x60 DUP2 MSTORE POP SWAP1 JUMP JUMPDEST JUMPDEST DUP1 DUP3 GT ISZERO PUSH2 0x2094 JUMPI PUSH1 0x0 DUP2 PUSH1 0x0 SWAP1 SSTORE POP PUSH1 0x1 ADD PUSH2 0x207C JUMP JUMPDEST POP SWAP1 JUMP JUMPDEST PUSH1 0x0 PUSH2 0x20AB PUSH2 0x20A6 DUP5 PUSH2 0x381E JUMP JUMPDEST PUSH2 0x37F9 JUMP JUMPDEST SWAP1 POP DUP1 DUP4 DUP3 MSTORE PUSH1 0x20 DUP3 ADD SWAP1 POP DUP3 PUSH1 0x0 JUMPDEST DUP6 DUP2 LT ISZERO PUSH2 0x20EB JUMPI DUP2 CALLDATALOAD DUP6 ADD PUSH2 0x20D1 DUP9 DUP3 PUSH2 0x2682 JUMP JUMPDEST DUP5 MSTORE PUSH1 0x20 DUP5 ADD SWAP4 POP PUSH1 0x20 DUP4 ADD SWAP3 POP POP PUSH1 0x1 DUP2 ADD SWAP1 POP PUSH2 0x20BB JUMP JUMPDEST POP POP POP SWAP4 SWAP3 POP POP POP JUMP JUMPDEST PUSH1 0x0 PUSH2 0x2108 PUSH2 0x2103 DUP5 PUSH2 0x384A JUMP JUMPDEST PUSH2 0x37F9 JUMP JUMPDEST SWAP1 POP DUP3 DUP2 MSTORE PUSH1 0x20 DUP2 ADD DUP5 DUP5 DUP5 ADD GT ISZERO PUSH2 0x2120 JUMPI PUSH1 0x0 DUP1 REVERT JUMPDEST PUSH2 0x212B DUP5 DUP3 DUP6 PUSH2 0x3B55 JUMP JUMPDEST POP SWAP4 SWAP3 POP POP POP JUMP JUMPDEST PUSH1 0x0 PUSH2 0x2146 PUSH2 0x2141 DUP5 PUSH2 0x387B JUMP JUMPDEST PUSH2 0x37F9 JUMP JUMPDEST SWAP1 POP DUP3 DUP2 MSTORE PUSH1 0x20 DUP2 ADD DUP5 DUP5 DUP5 ADD GT ISZERO PUSH2 0x215E JUMPI PUSH1 0x0 DUP1 REVERT JUMPDEST PUSH2 0x2169 DUP5 DUP3 DUP6 PUSH2 0x3B55 JUMP JUMPDEST POP SWAP4 SWAP3 POP POP POP JUMP JUMPDEST PUSH1 0x0 DUP2 CALLDATALOAD SWAP1 POP PUSH2 0x2180 DUP2 PUSH2 0x3FFB JUMP JUMPDEST SWAP3 SWAP2 POP POP JUMP JUMPDEST PUSH1 0x0 DUP1 DUP4 PUSH1 0x1F DUP5 ADD SLT PUSH2 0x2198 JUMPI PUSH1 0x0 DUP1 REVERT JUMPDEST DUP3 CALLDATALOAD SWAP1 POP PUSH8 0xFFFFFFFFFFFFFFFF DUP2 GT ISZERO PUSH2 0x21B1 JUMPI PUSH1 0x0 DUP1 REVERT JUMPDEST PUSH1 0x20 DUP4 ADD SWAP2 POP DUP4 PUSH1 0x20 DUP3 MUL DUP4 ADD GT ISZERO PUSH2 0x21C9 JUMPI PUSH1 0x0 DUP1 REVERT JUMPDEST SWAP3 POP SWAP3 SWAP1 POP JUMP JUMPDEST PUSH1 0x0 DUP1 DUP4 PUSH1 0x1F DUP5 ADD SLT PUSH2 0x21E2 JUMPI PUSH1 0x0 DUP1 REVERT JUMPDEST DUP3 CALLDATALOAD SWAP1 POP PUSH8 0xFFFFFFFFFFFFFFFF DUP2 GT ISZERO PUSH2 0x21FB JUMPI PUSH1 0x0 DUP1 REVERT JUMPDEST PUSH1 0x20 DUP4 ADD SWAP2 POP DUP4 PUSH1 0xA0 DUP3 MUL DUP4 ADD GT ISZERO PUSH2 0x2213 JUMPI PUSH1 0x0 DUP1 REVERT JUMPDEST SWAP3 POP SWAP3 SWAP1 POP JUMP JUMPDEST PUSH1 0x0 DUP1 DUP4 PUSH1 0x1F DUP5 ADD SLT PUSH2 0x222C JUMPI PUSH1 0x0 DUP1 REVERT JUMPDEST DUP3 CALLDATALOAD SWAP1 POP PUSH8 0xFFFFFFFFFFFFFFFF DUP2 GT ISZERO PUSH2 0x2245 JUMPI PUSH1 0x0 DUP1 REVERT JUMPDEST PUSH1 0x20 DUP4 ADD SWAP2 POP DUP4 PUSH1 0x20 DUP3 MUL DUP4 ADD GT ISZERO PUSH2 0x225D JUMPI PUSH1 0x0 DUP1 REVERT JUMPDEST SWAP3 POP SWAP3 SWAP1 POP JUMP JUMPDEST PUSH1 0x0 DUP3 PUSH1 0x1F DUP4 ADD SLT PUSH2 0x2275 JUMPI PUSH1 0x0 DUP1 REVERT JUMPDEST DUP2 CALLDATALOAD PUSH2 0x2285 DUP5 DUP3 PUSH1 0x20 DUP7 ADD PUSH2 0x2098 JUMP JUMPDEST SWAP2 POP POP SWAP3 SWAP2 POP POP JUMP JUMPDEST PUSH1 0x0 DUP1 DUP4 PUSH1 0x1F DUP5 ADD SLT PUSH2 0x22A0 JUMPI PUSH1 0x0 DUP1 REVERT JUMPDEST DUP3 CALLDATALOAD SWAP1 POP PUSH8 0xFFFFFFFFFFFFFFFF DUP2 GT ISZERO PUSH2 0x22B9 JUMPI PUSH1 0x0 DUP1 REVERT JUMPDEST PUSH1 0x20 DUP4 ADD SWAP2 POP DUP4 PUSH1 0x20 DUP3 MUL DUP4 ADD GT ISZERO PUSH2 0x22D1 JUMPI PUSH1 0x0 DUP1 REVERT JUMPDEST SWAP3 POP SWAP3 SWAP1 POP JUMP JUMPDEST PUSH1 0x0 DUP2 CALLDATALOAD SWAP1 POP PUSH2 0x22E7 DUP2 PUSH2 0x4012 JUMP JUMPDEST SWAP3 SWAP2 POP POP JUMP JUMPDEST PUSH1 0x0 DUP2 CALLDATALOAD SWAP1 POP PUSH2 0x22FC DUP2 PUSH2 0x4029 JUMP JUMPDEST SWAP3 SWAP2 POP POP JUMP JUMPDEST PUSH1 0x0 DUP2 MLOAD SWAP1 POP PUSH2 0x2311 DUP2 PUSH2 0x4029 JUMP JUMPDEST SWAP3 SWAP2 POP POP JUMP JUMPDEST PUSH1 0x0 DUP3 PUSH1 0x1F DUP4 ADD SLT PUSH2 0x2328 JUMPI PUSH1 0x0 DUP1 REVERT JUMPDEST DUP2 CALLDATALOAD PUSH2 0x2338 DUP5 DUP3 PUSH1 0x20 DUP7 ADD PUSH2 0x20F5 JUMP JUMPDEST SWAP2 POP POP SWAP3 SWAP2 POP POP JUMP JUMPDEST PUSH1 0x0 DUP2 CALLDATALOAD SWAP1 POP PUSH2 0x2350 DUP2 PUSH2 0x4040 JUMP JUMPDEST SWAP3 SWAP2 POP POP JUMP JUMPDEST PUSH1 0x0 DUP1 DUP4 PUSH1 0x1F DUP5 ADD SLT PUSH2 0x2368 JUMPI PUSH1 0x0 DUP1 REVERT JUMPDEST DUP3 CALLDATALOAD SWAP1 POP PUSH8 0xFFFFFFFFFFFFFFFF DUP2 GT ISZERO PUSH2 0x2381 JUMPI PUSH1 0x0 DUP1 REVERT JUMPDEST PUSH1 0x20 DUP4 ADD SWAP2 POP DUP4 PUSH1 0x1 DUP3 MUL DUP4 ADD GT ISZERO PUSH2 0x2399 JUMPI PUSH1 0x0 DUP1 REVERT JUMPDEST SWAP3 POP SWAP3 SWAP1 POP JUMP JUMPDEST PUSH1 0x0 DUP3 PUSH1 0x1F DUP4 ADD SLT PUSH2 0x23B1 JUMPI PUSH1 0x0 DUP1 REVERT JUMPDEST DUP2 CALLDATALOAD PUSH2 0x23C1 DUP5 DUP3 PUSH1 0x20 DUP7 ADD PUSH2 0x2133 JUMP JUMPDEST SWAP2 POP POP SWAP3 SWAP2 POP POP JUMP JUMPDEST PUSH1 0x0 PUSH2 0x100 DUP3 DUP5 SUB SLT ISZERO PUSH2 0x23DD JUMPI PUSH1 0x0 DUP1 REVERT JUMPDEST DUP2 SWAP1 POP SWAP3 SWAP2 POP POP JUMP JUMPDEST PUSH1 0x0 PUSH2 0x100 DUP3 DUP5 SUB SLT ISZERO PUSH2 0x23F9 JUMPI PUSH1 0x0 DUP1 REVERT JUMPDEST PUSH2 0x2404 PUSH2 0x100 PUSH2 0x37F9 JUMP JUMPDEST SWAP1 POP PUSH1 0x0 PUSH2 0x2414 DUP5 DUP3 DUP6 ADD PUSH2 0x22ED JUMP JUMPDEST PUSH1 0x0 DUP4 ADD MSTORE POP PUSH1 0x20 PUSH2 0x2428 DUP5 DUP3 DUP6 ADD PUSH2 0x28A4 JUMP JUMPDEST PUSH1 0x20 DUP4 ADD MSTORE POP PUSH1 0x40 PUSH2 0x243C DUP5 DUP3 DUP6 ADD PUSH2 0x28A4 JUMP JUMPDEST PUSH1 0x40 DUP4 ADD MSTORE POP PUSH1 0x60 PUSH2 0x2450 DUP5 DUP3 DUP6 ADD PUSH2 0x288F JUMP JUMPDEST PUSH1 0x60 DUP4 ADD MSTORE POP PUSH1 0x80 PUSH2 0x2464 DUP5 DUP3 DUP6 ADD PUSH2 0x22ED JUMP JUMPDEST PUSH1 0x80 DUP4 ADD MSTORE POP PUSH1 0xA0 PUSH2 0x2478 DUP5 DUP3 DUP6 ADD PUSH2 0x22ED JUMP JUMPDEST PUSH1 0xA0 DUP4 ADD MSTORE POP PUSH1 0xC0 PUSH2 0x248C DUP5 DUP3 DUP6 ADD PUSH2 0x22ED JUMP JUMPDEST PUSH1 0xC0 DUP4 ADD MSTORE POP PUSH1 0xE0 PUSH2 0x24A0 DUP5 DUP3 DUP6 ADD PUSH2 0x22ED JUMP JUMPDEST PUSH1 0xE0 DUP4 ADD MSTORE POP SWAP3 SWAP2 POP POP JUMP JUMPDEST PUSH1 0x0 PUSH1 0x40 DUP3 DUP5 SUB SLT ISZERO PUSH2 0x24BE JUMPI PUSH1 0x0 DUP1 REVERT JUMPDEST DUP2 SWAP1 POP SWAP3 SWAP2 POP POP JUMP JUMPDEST PUSH1 0x0 PUSH1 0x40 DUP3 DUP5 SUB SLT ISZERO PUSH2 0x24D9 JUMPI PUSH1 0x0 DUP1 REVERT JUMPDEST PUSH2 0x24E3 PUSH1 0x40 PUSH2 0x37F9 JUMP JUMPDEST SWAP1 POP PUSH1 0x0 DUP3 ADD CALLDATALOAD PUSH8 0xFFFFFFFFFFFFFFFF DUP2 GT ISZERO PUSH2 0x24FF JUMPI PUSH1 0x0 DUP1 REVERT JUMPDEST PUSH2 0x250B DUP5 DUP3 DUP6 ADD PUSH2 0x2317 JUMP JUMPDEST PUSH1 0x0 DUP4 ADD MSTORE POP PUSH1 0x20 DUP3 ADD CALLDATALOAD PUSH8 0xFFFFFFFFFFFFFFFF DUP2 GT ISZERO PUSH2 0x252B JUMPI PUSH1 0x0 DUP1 REVERT JUMPDEST PUSH2 0x2537 DUP5 DUP3 DUP6 ADD PUSH2 0x2317 JUMP JUMPDEST PUSH1 0x20 DUP4 ADD MSTORE POP SWAP3 SWAP2 POP POP JUMP JUMPDEST PUSH1 0x0 PUSH1 0xA0 DUP3 DUP5 SUB SLT ISZERO PUSH2 0x2555 JUMPI PUSH1 0x0 DUP1 REVERT JUMPDEST PUSH2 0x255F PUSH1 0xA0 PUSH2 0x37F9 JUMP JUMPDEST SWAP1 POP PUSH1 0x0 PUSH2 0x256F DUP5 DUP3 DUP6 ADD PUSH2 0x22D8 JUMP JUMPDEST PUSH1 0x0 DUP4 ADD MSTORE POP PUSH1 0x20 PUSH2 0x2583 DUP5 DUP3 DUP6 ADD PUSH2 0x28B9 JUMP JUMPDEST PUSH1 0x20 DUP4 ADD MSTORE POP PUSH1 0x40 PUSH2 0x2597 DUP5 DUP3 DUP6 ADD PUSH2 0x287A JUMP JUMPDEST PUSH1 0x40 DUP4 ADD MSTORE POP PUSH1 0x60 PUSH2 0x25AB DUP5 DUP3 DUP6 ADD PUSH2 0x287A JUMP JUMPDEST PUSH1 0x60 DUP4 ADD MSTORE POP PUSH1 0x80 PUSH2 0x25BF DUP5 DUP3 DUP6 ADD PUSH2 0x22ED JUMP JUMPDEST PUSH1 0x80 DUP4 ADD MSTORE POP SWAP3 SWAP2 POP POP JUMP JUMPDEST PUSH1 0x0 PUSH1 0xC0 DUP3 DUP5 SUB SLT ISZERO PUSH2 0x25DD JUMPI PUSH1 0x0 DUP1 REVERT JUMPDEST DUP2 SWAP1 POP SWAP3 SWAP2 POP POP JUMP JUMPDEST PUSH1 0x0 PUSH1 0xC0 DUP3 DUP5 SUB SLT ISZERO PUSH2 0x25F8 JUMPI PUSH1 0x0 DUP1 REVERT JUMPDEST PUSH2 0x2602 PUSH1 0xC0 PUSH2 0x37F9 JUMP JUMPDEST SWAP1 POP PUSH1 0x0 PUSH2 0x2612 DUP5 DUP3 DUP6 ADD PUSH2 0x22ED JUMP JUMPDEST PUSH1 0x0 DUP4 ADD MSTORE POP PUSH1 0x20 PUSH2 0x2626 DUP5 DUP3 DUP6 ADD PUSH2 0x22ED JUMP JUMPDEST PUSH1 0x20 DUP4 ADD MSTORE POP PUSH1 0x40 PUSH2 0x263A DUP5 DUP3 DUP6 ADD PUSH2 0x22ED JUMP JUMPDEST PUSH1 0x40 DUP4 ADD MSTORE POP PUSH1 0x60 PUSH2 0x264E DUP5 DUP3 DUP6 ADD PUSH2 0x22ED JUMP JUMPDEST PUSH1 0x60 DUP4 ADD MSTORE POP PUSH1 0x80 PUSH2 0x2662 DUP5 DUP3 DUP6 ADD PUSH2 0x22ED JUMP JUMPDEST PUSH1 0x80 DUP4 ADD MSTORE POP PUSH1 0xA0 PUSH2 0x2676 DUP5 DUP3 DUP6 ADD PUSH2 0x22ED JUMP JUMPDEST PUSH1 0xA0 DUP4 ADD MSTORE POP SWAP3 SWAP2 POP POP JUMP JUMPDEST PUSH1 0x0 PUSH1 0x80 DUP3 DUP5 SUB SLT ISZERO PUSH2 0x2694 JUMPI PUSH1 0x0 DUP1 REVERT JUMPDEST PUSH2 0x269E PUSH1 0x80 PUSH2 0x37F9 JUMP JUMPDEST SWAP1 POP PUSH1 0x0 PUSH2 0x26AE DUP5 DUP3 DUP6 ADD PUSH2 0x22ED JUMP JUMPDEST PUSH1 0x0 DUP4 ADD MSTORE POP PUSH1 0x20 PUSH2 0x26C2 DUP5 DUP3 DUP6 ADD PUSH2 0x22ED JUMP JUMPDEST PUSH1 0x20 DUP4 ADD MSTORE POP PUSH1 0x40 PUSH2 0x26D6 DUP5 DUP3 DUP6 ADD PUSH2 0x28B9 JUMP JUMPDEST PUSH1 0x40 DUP4 ADD MSTORE POP PUSH1 0x60 DUP3 ADD CALLDATALOAD PUSH8 0xFFFFFFFFFFFFFFFF DUP2 GT ISZERO PUSH2 0x26F6 JUMPI PUSH1 0x0 DUP1 REVERT JUMPDEST PUSH2 0x2702 DUP5 DUP3 DUP6 ADD PUSH2 0x2317 JUMP JUMPDEST PUSH1 0x60 DUP4 ADD MSTORE POP SWAP3 SWAP2 POP POP JUMP JUMPDEST PUSH1 0x0 PUSH2 0x160 DUP3 DUP5 SUB SLT ISZERO PUSH2 0x2721 JUMPI PUSH1 0x0 DUP1 REVERT JUMPDEST DUP2 SWAP1 POP SWAP3 SWAP2 POP POP JUMP JUMPDEST PUSH1 0x0 PUSH2 0x160 DUP3 DUP5 SUB SLT ISZERO PUSH2 0x273D JUMPI PUSH1 0x0 DUP1 REVERT JUMPDEST PUSH2 0x2748 PUSH2 0x160 PUSH2 0x37F9 JUMP JUMPDEST SWAP1 POP PUSH1 0x0 DUP3 ADD CALLDATALOAD PUSH8 0xFFFFFFFFFFFFFFFF DUP2 GT ISZERO PUSH2 0x2764 JUMPI PUSH1 0x0 DUP1 REVERT JUMPDEST PUSH2 0x2770 DUP5 DUP3 DUP6 ADD PUSH2 0x23A0 JUMP JUMPDEST PUSH1 0x0 DUP4 ADD MSTORE POP PUSH1 0x20 PUSH2 0x2784 DUP5 DUP3 DUP6 ADD PUSH2 0x28A4 JUMP JUMPDEST PUSH1 0x20 DUP4 ADD MSTORE POP PUSH1 0x40 DUP3 ADD CALLDATALOAD PUSH8 0xFFFFFFFFFFFFFFFF DUP2 GT ISZERO PUSH2 0x27A4 JUMPI PUSH1 0x0 DUP1 REVERT JUMPDEST PUSH2 0x27B0 DUP5 DUP3 DUP6 ADD PUSH2 0x2317 JUMP JUMPDEST PUSH1 0x40 DUP4 ADD MSTORE POP PUSH1 0x60 PUSH2 0x27C4 DUP5 DUP3 DUP6 ADD PUSH2 0x28A4 JUMP JUMPDEST PUSH1 0x60 DUP4 ADD MSTORE POP PUSH1 0x80 PUSH2 0x27D8 DUP5 DUP3 DUP6 ADD PUSH2 0x28A4 JUMP JUMPDEST PUSH1 0x80 DUP4 ADD MSTORE POP PUSH1 0xA0 PUSH2 0x27EC DUP5 DUP3 DUP6 ADD PUSH2 0x28A4 JUMP JUMPDEST PUSH1 0xA0 DUP4 ADD MSTORE POP PUSH1 0xC0 PUSH2 0x2800 DUP5 DUP3 DUP6 ADD PUSH2 0x28A4 JUMP JUMPDEST PUSH1 0xC0 DUP4 ADD MSTORE POP PUSH1 0xE0 PUSH2 0x2814 DUP5 DUP3 DUP6 ADD PUSH2 0x28A4 JUMP JUMPDEST PUSH1 0xE0 DUP4 ADD MSTORE POP PUSH2 0x100 PUSH2 0x2829 DUP5 DUP3 DUP6 ADD PUSH2 0x28A4 JUMP JUMPDEST PUSH2 0x100 DUP4 ADD MSTORE POP PUSH2 0x120 PUSH2 0x283F DUP5 DUP3 DUP6 ADD PUSH2 0x2341 JUMP JUMPDEST PUSH2 0x120 DUP4 ADD MSTORE POP PUSH2 0x140 DUP3 ADD CALLDATALOAD PUSH8 0xFFFFFFFFFFFFFFFF DUP2 GT ISZERO PUSH2 0x2861 JUMPI PUSH1 0x0 DUP1 REVERT JUMPDEST PUSH2 0x286D DUP5 DUP3 DUP6 ADD PUSH2 0x2317 JUMP JUMPDEST PUSH2 0x140 DUP4 ADD MSTORE POP SWAP3 SWAP2 POP POP JUMP JUMPDEST PUSH1 0x0 DUP2 CALLDATALOAD SWAP1 POP PUSH2 0x2889 DUP2 PUSH2 0x4050 JUMP JUMPDEST SWAP3 SWAP2 POP POP JUMP JUMPDEST PUSH1 0x0 DUP2 CALLDATALOAD SWAP1 POP PUSH2 0x289E DUP2 PUSH2 0x4067 JUMP JUMPDEST SWAP3 SWAP2 POP POP JUMP JUMPDEST PUSH1 0x0 DUP2 CALLDATALOAD SWAP1 POP PUSH2 0x28B3 DUP2 PUSH2 0x407E JUMP JUMPDEST SWAP3 SWAP2 POP POP JUMP JUMPDEST PUSH1 0x0 DUP2 CALLDATALOAD SWAP1 POP PUSH2 0x28C8 DUP2 PUSH2 0x4095 JUMP JUMPDEST SWAP3 SWAP2 POP POP JUMP JUMPDEST PUSH1 0x0 PUSH1 0x20 DUP3 DUP5 SUB SLT ISZERO PUSH2 0x28E0 JUMPI PUSH1 0x0 DUP1 REVERT JUMPDEST PUSH1 0x0 PUSH2 0x28EE DUP5 DUP3 DUP6 ADD PUSH2 0x2171 JUMP JUMPDEST SWAP2 POP POP SWAP3 SWAP2 POP POP JUMP JUMPDEST PUSH1 0x0 DUP1 PUSH1 0x0 DUP1 PUSH1 0x0 DUP1 PUSH1 0x60 DUP8 DUP10 SUB SLT ISZERO PUSH2 0x2910 JUMPI PUSH1 0x0 DUP1 REVERT JUMPDEST PUSH1 0x0 DUP8 ADD CALLDATALOAD PUSH8 0xFFFFFFFFFFFFFFFF DUP2 GT ISZERO PUSH2 0x292A JUMPI PUSH1 0x0 DUP1 REVERT JUMPDEST PUSH2 0x2936 DUP10 DUP3 DUP11 ADD PUSH2 0x2186 JUMP JUMPDEST SWAP7 POP SWAP7 POP POP PUSH1 0x20 DUP8 ADD CALLDATALOAD PUSH8 0xFFFFFFFFFFFFFFFF DUP2 GT ISZERO PUSH2 0x2955 JUMPI PUSH1 0x0 DUP1 REVERT JUMPDEST PUSH2 0x2961 DUP10 DUP3 DUP11 ADD PUSH2 0x228E JUMP JUMPDEST SWAP5 POP SWAP5 POP POP PUSH1 0x40 DUP8 ADD CALLDATALOAD PUSH8 0xFFFFFFFFFFFFFFFF DUP2 GT ISZERO PUSH2 0x2980 JUMPI PUSH1 0x0 DUP1 REVERT JUMPDEST PUSH2 0x298C DUP10 DUP3 DUP11 ADD PUSH2 0x2356 JUMP JUMPDEST SWAP3 POP SWAP3 POP POP SWAP3 SWAP6 POP SWAP3 SWAP6 POP SWAP3 SWAP6 JUMP JUMPDEST PUSH1 0x0 PUSH1 0x20 DUP3 DUP5 SUB SLT ISZERO PUSH2 0x29AD JUMPI PUSH1 0x0 DUP1 REVERT JUMPDEST PUSH1 0x0 PUSH2 0x29BB DUP5 DUP3 DUP6 ADD PUSH2 0x2302 JUMP JUMPDEST SWAP2 POP POP SWAP3 SWAP2 POP POP JUMP JUMPDEST PUSH1 0x0 PUSH2 0x100 DUP3 DUP5 SUB SLT ISZERO PUSH2 0x29D7 JUMPI PUSH1 0x0 DUP1 REVERT JUMPDEST PUSH1 0x0 PUSH2 0x29E5 DUP5 DUP3 DUP6 ADD PUSH2 0x23E6 JUMP JUMPDEST SWAP2 POP POP SWAP3 SWAP2 POP POP JUMP JUMPDEST PUSH1 0x0 DUP1 PUSH2 0x120 DUP4 DUP6 SUB SLT ISZERO PUSH2 0x2A02 JUMPI PUSH1 0x0 DUP1 REVERT JUMPDEST PUSH1 0x0 PUSH2 0x2A10 DUP6 DUP3 DUP7 ADD PUSH2 0x23E6 JUMP JUMPDEST SWAP3 POP POP PUSH2 0x100 PUSH2 0x2A22 DUP6 DUP3 DUP7 ADD PUSH2 0x22ED JUMP JUMPDEST SWAP2 POP POP SWAP3 POP SWAP3 SWAP1 POP JUMP JUMPDEST PUSH1 0x0 DUP1 PUSH1 0x40 DUP4 DUP6 SUB SLT ISZERO PUSH2 0x2A3F JUMPI PUSH1 0x0 DUP1 REVERT JUMPDEST PUSH1 0x0 DUP4 ADD CALLDATALOAD PUSH8 0xFFFFFFFFFFFFFFFF DUP2 GT ISZERO PUSH2 0x2A59 JUMPI PUSH1 0x0 DUP1 REVERT JUMPDEST PUSH2 0x2A65 DUP6 DUP3 DUP7 ADD PUSH2 0x24C7 JUMP JUMPDEST SWAP3 POP POP PUSH1 0x20 PUSH2 0x2A76 DUP6 DUP3 DUP7 ADD PUSH2 0x22ED JUMP JUMPDEST SWAP2 POP POP SWAP3 POP SWAP3 SWAP1 POP JUMP JUMPDEST PUSH1 0x0 PUSH1 0xA0 DUP3 DUP5 SUB SLT ISZERO PUSH2 0x2A92 JUMPI PUSH1 0x0 DUP1 REVERT JUMPDEST PUSH1 0x0 PUSH2 0x2AA0 DUP5 DUP3 DUP6 ADD PUSH2 0x2543 JUMP JUMPDEST SWAP2 POP POP SWAP3 SWAP2 POP POP JUMP JUMPDEST PUSH1 0x0 DUP1 PUSH1 0x0 DUP1 PUSH1 0x0 PUSH2 0x200 DUP7 DUP9 SUB SLT ISZERO PUSH2 0x2AC2 JUMPI PUSH1 0x0 DUP1 REVERT JUMPDEST PUSH1 0x0 PUSH2 0x2AD0 DUP9 DUP3 DUP10 ADD PUSH2 0x25CB JUMP JUMPDEST SWAP6 POP POP PUSH1 0xC0 PUSH2 0x2AE1 DUP9 DUP3 DUP10 ADD PUSH2 0x23CA JUMP JUMPDEST SWAP5 POP POP PUSH2 0x1C0 DUP7 ADD CALLDATALOAD PUSH8 0xFFFFFFFFFFFFFFFF DUP2 GT ISZERO PUSH2 0x2AFF JUMPI PUSH1 0x0 DUP1 REVERT JUMPDEST PUSH2 0x2B0B DUP9 DUP3 DUP10 ADD PUSH2 0x24AC JUMP JUMPDEST SWAP4 POP POP PUSH2 0x1E0 DUP7 ADD CALLDATALOAD PUSH8 0xFFFFFFFFFFFFFFFF DUP2 GT ISZERO PUSH2 0x2B29 JUMPI PUSH1 0x0 DUP1 REVERT JUMPDEST PUSH2 0x2B35 DUP9 DUP3 DUP10 ADD PUSH2 0x221A JUMP JUMPDEST SWAP3 POP SWAP3 POP POP SWAP3 SWAP6 POP SWAP3 SWAP6 SWAP1 SWAP4 POP JUMP JUMPDEST PUSH1 0x0 PUSH1 0xC0 DUP3 DUP5 SUB SLT ISZERO PUSH2 0x2B56 JUMPI PUSH1 0x0 DUP1 REVERT JUMPDEST PUSH1 0x0 PUSH2 0x2B64 DUP5 DUP3 DUP6 ADD PUSH2 0x25E6 JUMP JUMPDEST SWAP2 POP POP SWAP3 SWAP2 POP POP JUMP JUMPDEST PUSH1 0x0 DUP1 PUSH1 0x0 DUP1 PUSH2 0x200 DUP6 DUP8 SUB SLT ISZERO PUSH2 0x2B84 JUMPI PUSH1 0x0 DUP1 REVERT JUMPDEST PUSH1 0x0 PUSH2 0x2B92 DUP8 DUP3 DUP9 ADD PUSH2 0x25E6 JUMP JUMPDEST SWAP5 POP POP PUSH1 0xC0 PUSH2 0x2BA3 DUP8 DUP3 DUP9 ADD PUSH2 0x23E6 JUMP JUMPDEST SWAP4 POP POP PUSH2 0x1C0 DUP6 ADD CALLDATALOAD PUSH8 0xFFFFFFFFFFFFFFFF DUP2 GT ISZERO PUSH2 0x2BC1 JUMPI PUSH1 0x0 DUP1 REVERT JUMPDEST PUSH2 0x2BCD DUP8 DUP3 DUP9 ADD PUSH2 0x24C7 JUMP JUMPDEST SWAP3 POP POP PUSH2 0x1E0 DUP6 ADD CALLDATALOAD PUSH8 0xFFFFFFFFFFFFFFFF DUP2 GT ISZERO PUSH2 0x2BEB JUMPI PUSH1 0x0 DUP1 REVERT JUMPDEST PUSH2 0x2BF7 DUP8 DUP3 DUP9 ADD PUSH2 0x2264 JUMP JUMPDEST SWAP2 POP POP SWAP3 SWAP6 SWAP2 SWAP5 POP SWAP3 POP JUMP JUMPDEST PUSH1 0x0 DUP1 PUSH1 0x0 PUSH1 0x60 DUP5 DUP7 SUB SLT ISZERO PUSH2 0x2C18 JUMPI PUSH1 0x0 DUP1 REVERT JUMPDEST PUSH1 0x0 DUP5 ADD CALLDATALOAD PUSH8 0xFFFFFFFFFFFFFFFF DUP2 GT ISZERO PUSH2 0x2C32 JUMPI PUSH1 0x0 DUP1 REVERT JUMPDEST PUSH2 0x2C3E DUP7 DUP3 DUP8 ADD PUSH2 0x2682 JUMP JUMPDEST SWAP4 POP POP PUSH1 0x20 DUP5 ADD CALLDATALOAD PUSH8 0xFFFFFFFFFFFFFFFF DUP2 GT ISZERO PUSH2 0x2C5B JUMPI PUSH1 0x0 DUP1 REVERT JUMPDEST PUSH2 0x2C67 DUP7 DUP3 DUP8 ADD PUSH2 0x2317 JUMP JUMPDEST SWAP3 POP POP PUSH1 0x40 DUP5 ADD CALLDATALOAD PUSH8 0xFFFFFFFFFFFFFFFF DUP2 GT ISZERO PUSH2 0x2C84 JUMPI PUSH1 0x0 DUP1 REVERT JUMPDEST PUSH2 0x2C90 DUP7 DUP3 DUP8 ADD PUSH2 0x2317 JUMP JUMPDEST SWAP2 POP POP SWAP3 POP SWAP3 POP SWAP3 JUMP JUMPDEST PUSH1 0x0 PUSH1 0x20 DUP3 DUP5 SUB SLT ISZERO PUSH2 0x2CAC JUMPI PUSH1 0x0 DUP1 REVERT JUMPDEST PUSH1 0x0 PUSH2 0x2CBA DUP5 DUP3 DUP6 ADD PUSH2 0x287A JUMP JUMPDEST SWAP2 POP POP SWAP3 SWAP2 POP POP JUMP JUMPDEST PUSH1 0x0 DUP1 PUSH1 0x0 DUP1 PUSH1 0x0 PUSH1 0x80 DUP7 DUP9 SUB SLT ISZERO PUSH2 0x2CDB JUMPI PUSH1 0x0 DUP1 REVERT JUMPDEST PUSH1 0x0 PUSH2 0x2CE9 DUP9 DUP3 DUP10 ADD PUSH2 0x287A JUMP JUMPDEST SWAP6 POP POP PUSH1 0x20 DUP7 ADD CALLDATALOAD PUSH8 0xFFFFFFFFFFFFFFFF DUP2 GT ISZERO PUSH2 0x2D06 JUMPI PUSH1 0x0 DUP1 REVERT JUMPDEST PUSH2 0x2D12 DUP9 DUP3 DUP10 ADD PUSH2 0x270E JUMP JUMPDEST SWAP5 POP POP PUSH1 0x40 PUSH2 0x2D23 DUP9 DUP3 DUP10 ADD PUSH2 0x287A JUMP JUMPDEST SWAP4 POP POP PUSH1 0x60 DUP7 ADD CALLDATALOAD PUSH8 0xFFFFFFFFFFFFFFFF DUP2 GT ISZERO PUSH2 0x2D40 JUMPI PUSH1 0x0 DUP1 REVERT JUMPDEST PUSH2 0x2D4C DUP9 DUP3 DUP10 ADD PUSH2 0x21D0 JUMP JUMPDEST SWAP3 POP SWAP3 POP POP SWAP3 SWAP6 POP SWAP3 SWAP6 SWAP1 SWAP4 POP JUMP JUMPDEST PUSH1 0x0 PUSH1 0x20 DUP3 DUP5 SUB SLT ISZERO PUSH2 0x2D6D JUMPI PUSH1 0x0 DUP1 REVERT JUMPDEST PUSH1 0x0 PUSH2 0x2D7B DUP5 DUP3 DUP6 ADD PUSH2 0x288F JUMP JUMPDEST SWAP2 POP POP SWAP3 SWAP2 POP POP JUMP JUMPDEST PUSH1 0x0 PUSH1 0x20 DUP3 DUP5 SUB SLT ISZERO PUSH2 0x2D96 JUMPI PUSH1 0x0 DUP1 REVERT JUMPDEST PUSH1 0x0 PUSH2 0x2DA4 DUP5 DUP3 DUP6 ADD PUSH2 0x28A4 JUMP JUMPDEST SWAP2 POP POP SWAP3 SWAP2 POP POP JUMP JUMPDEST PUSH2 0x2DB6 DUP2 PUSH2 0x3A72 JUMP JUMPDEST DUP3 MSTORE POP POP JUMP JUMPDEST PUSH2 0x2DC5 DUP2 PUSH2 0x3A84 JUMP JUMPDEST DUP3 MSTORE POP POP JUMP JUMPDEST PUSH2 0x2DD4 DUP2 PUSH2 0x3A90 JUMP JUMPDEST DUP3 MSTORE POP POP JUMP JUMPDEST PUSH2 0x2DEB PUSH2 0x2DE6 DUP3 PUSH2 0x3A90 JUMP JUMPDEST PUSH2 0x3C74 JUMP JUMPDEST DUP3 MSTORE POP POP JUMP JUMPDEST PUSH1 0x0 PUSH2 0x2DFC DUP3 PUSH2 0x38AC JUMP JUMPDEST PUSH2 0x2E06 DUP2 DUP6 PUSH2 0x38C2 JUMP JUMPDEST SWAP4 POP PUSH2 0x2E16 DUP2 DUP6 PUSH1 0x20 DUP7 ADD PUSH2 0x3B64 JUMP JUMPDEST PUSH2 0x2E1F DUP2 PUSH2 0x3D5E JUMP JUMPDEST DUP5 ADD SWAP2 POP POP SWAP3 SWAP2 POP POP JUMP JUMPDEST PUSH1 0x0 PUSH2 0x2E35 DUP3 PUSH2 0x38AC JUMP JUMPDEST PUSH2 0x2E3F DUP2 DUP6 PUSH2 0x38D3 JUMP JUMPDEST SWAP4 POP PUSH2 0x2E4F DUP2 DUP6 PUSH1 0x20 DUP7 ADD PUSH2 0x3B64 JUMP JUMPDEST PUSH2 0x2E58 DUP2 PUSH2 0x3D5E JUMP JUMPDEST DUP5 ADD SWAP2 POP POP SWAP3 SWAP2 POP POP JUMP JUMPDEST PUSH1 0x0 PUSH2 0x2E6E DUP3 PUSH2 0x38AC JUMP JUMPDEST PUSH2 0x2E78 DUP2 DUP6 PUSH2 0x38E4 JUMP JUMPDEST SWAP4 POP PUSH2 0x2E88 DUP2 DUP6 PUSH1 0x20 DUP7 ADD PUSH2 0x3B64 JUMP JUMPDEST DUP1 DUP5 ADD SWAP2 POP POP SWAP3 SWAP2 POP POP JUMP JUMPDEST PUSH2 0x2E9D DUP2 PUSH2 0x3B1D JUMP JUMPDEST DUP3 MSTORE POP POP JUMP JUMPDEST PUSH1 0x0 PUSH2 0x2EAF DUP4 DUP6 PUSH2 0x3900 JUMP JUMPDEST SWAP4 POP PUSH2 0x2EBC DUP4 DUP6 DUP5 PUSH2 0x3B55 JUMP JUMPDEST PUSH2 0x2EC5 DUP4 PUSH2 0x3D5E JUMP JUMPDEST DUP5 ADD SWAP1 POP SWAP4 SWAP3 POP POP POP JUMP JUMPDEST PUSH1 0x0 PUSH2 0x2EDB DUP3 PUSH2 0x38B7 JUMP JUMPDEST PUSH2 0x2EE5 DUP2 DUP6 PUSH2 0x38EF JUMP JUMPDEST SWAP4 POP PUSH2 0x2EF5 DUP2 DUP6 PUSH1 0x20 DUP7 ADD PUSH2 0x3B64 JUMP JUMPDEST PUSH2 0x2EFE DUP2 PUSH2 0x3D5E JUMP JUMPDEST DUP5 ADD SWAP2 POP POP SWAP3 SWAP2 POP POP JUMP JUMPDEST PUSH1 0x0 PUSH2 0x2F16 PUSH1 0xA DUP4 PUSH2 0x3911 JUMP JUMPDEST SWAP2 POP PUSH2 0x2F21 DUP3 PUSH2 0x3D89 JUMP JUMPDEST PUSH1 0xA DUP3 ADD SWAP1 POP SWAP2 SWAP1 POP JUMP JUMPDEST PUSH1 0x0 PUSH2 0x2F39 PUSH1 0x2C DUP4 PUSH2 0x3900 JUMP JUMPDEST SWAP2 POP PUSH2 0x2F44 DUP3 PUSH2 0x3DB2 JUMP JUMPDEST PUSH1 0x40 DUP3 ADD SWAP1 POP SWAP2 SWAP1 POP JUMP JUMPDEST PUSH1 0x0 PUSH2 0x2F5C PUSH1 0x2C DUP4 PUSH2 0x3900 JUMP JUMPDEST SWAP2 POP PUSH2 0x2F67 DUP3 PUSH2 0x3E01 JUMP JUMPDEST PUSH1 0x40 DUP3 ADD SWAP1 POP SWAP2 SWAP1 POP JUMP JUMPDEST PUSH1 0x0 PUSH2 0x2F7F PUSH1 0x14 DUP4 PUSH2 0x3900 JUMP JUMPDEST SWAP2 POP PUSH2 0x2F8A DUP3 PUSH2 0x3E50 JUMP JUMPDEST PUSH1 0x20 DUP3 ADD SWAP1 POP SWAP2 SWAP1 POP JUMP JUMPDEST PUSH1 0x0 PUSH2 0x2FA2 PUSH1 0xA DUP4 PUSH2 0x3911 JUMP JUMPDEST SWAP2 POP PUSH2 0x2FAD DUP3 PUSH2 0x3E79 JUMP JUMPDEST PUSH1 0xA DUP3 ADD SWAP1 POP SWAP2 SWAP1 POP JUMP JUMPDEST PUSH1 0x0 PUSH2 0x2FC5 PUSH1 0x16 DUP4 PUSH2 0x3900 JUMP JUMPDEST SWAP2 POP PUSH2 0x2FD0 DUP3 PUSH2 0x3EA2 JUMP JUMPDEST PUSH1 0x20 DUP3 ADD SWAP1 POP SWAP2 SWAP1 POP JUMP JUMPDEST PUSH1 0x0 PUSH2 0x2FE8 PUSH1 0x1 DUP4 PUSH2 0x3911 JUMP JUMPDEST SWAP2 POP PUSH2 0x2FF3 DUP3 PUSH2 0x3ECB JUMP JUMPDEST PUSH1 0x1 DUP3 ADD SWAP1 POP SWAP2 SWAP1 POP JUMP JUMPDEST PUSH1 0x0 PUSH2 0x300B PUSH1 0x1 DUP4 PUSH2 0x3911 JUMP JUMPDEST SWAP2 POP PUSH2 0x3016 DUP3 PUSH2 0x3EF4 JUMP JUMPDEST PUSH1 0x1 DUP3 ADD SWAP1 POP SWAP2 SWAP1 POP JUMP JUMPDEST PUSH1 0x0 PUSH2 0x302E PUSH1 0x13 DUP4 PUSH2 0x3900 JUMP JUMPDEST SWAP2 POP PUSH2 0x3039 DUP3 PUSH2 0x3F1D JUMP JUMPDEST PUSH1 0x20 DUP3 ADD SWAP1 POP SWAP2 SWAP1 POP JUMP JUMPDEST PUSH1 0x0 PUSH2 0x3051 PUSH1 0xD DUP4 PUSH2 0x3900 JUMP JUMPDEST SWAP2 POP PUSH2 0x305C DUP3 PUSH2 0x3F46 JUMP JUMPDEST PUSH1 0x20 DUP3 ADD SWAP1 POP SWAP2 SWAP1 POP JUMP JUMPDEST PUSH1 0x0 PUSH2 0x3074 PUSH1 0x25 DUP4 PUSH2 0x3900 JUMP JUMPDEST SWAP2 POP PUSH2 0x307F DUP3 PUSH2 0x3F6F JUMP JUMPDEST PUSH1 0x40 DUP3 ADD SWAP1 POP SWAP2 SWAP1 POP JUMP JUMPDEST PUSH1 0x0 PUSH2 0x3097 PUSH1 0x14 DUP4 PUSH2 0x3900 JUMP JUMPDEST SWAP2 POP PUSH2 0x30A2 DUP3 PUSH2 0x3FBE JUMP JUMPDEST PUSH1 0x20 DUP3 ADD SWAP1 POP SWAP2 SWAP1 POP JUMP JUMPDEST PUSH1 0x0 PUSH2 0x160 DUP4 ADD PUSH1 0x0 DUP4 ADD MLOAD DUP5 DUP3 SUB PUSH1 0x0 DUP7 ADD MSTORE PUSH2 0x30CB DUP3 DUP3 PUSH2 0x2ED0 JUMP JUMPDEST SWAP2 POP POP PUSH1 0x20 DUP4 ADD MLOAD PUSH2 0x30E0 PUSH1 0x20 DUP7 ADD DUP3 PUSH2 0x31C8 JUMP JUMPDEST POP PUSH1 0x40 DUP4 ADD MLOAD DUP5 DUP3 SUB PUSH1 0x40 DUP7 ADD MSTORE PUSH2 0x30F8 DUP3 DUP3 PUSH2 0x2DF1 JUMP JUMPDEST SWAP2 POP POP PUSH1 0x60 DUP4 ADD MLOAD PUSH2 0x310D PUSH1 0x60 DUP7 ADD DUP3 PUSH2 0x31C8 JUMP JUMPDEST POP PUSH1 0x80 DUP4 ADD MLOAD PUSH2 0x3120 PUSH1 0x80 DUP7 ADD DUP3 PUSH2 0x31C8 JUMP JUMPDEST POP PUSH1 0xA0 DUP4 ADD MLOAD PUSH2 0x3133 PUSH1 0xA0 DUP7 ADD DUP3 PUSH2 0x31C8 JUMP JUMPDEST POP PUSH1 0xC0 DUP4 ADD MLOAD PUSH2 0x3146 PUSH1 0xC0 DUP7 ADD DUP3 PUSH2 0x31C8 JUMP JUMPDEST POP PUSH1 0xE0 DUP4 ADD MLOAD PUSH2 0x3159 PUSH1 0xE0 DUP7 ADD DUP3 PUSH2 0x31C8 JUMP JUMPDEST POP PUSH2 0x100 DUP4 ADD MLOAD PUSH2 0x316E PUSH2 0x100 DUP7 ADD DUP3 PUSH2 0x31C8 JUMP JUMPDEST POP PUSH2 0x120 DUP4 ADD MLOAD PUSH2 0x3183 PUSH2 0x120 DUP7 ADD DUP3 PUSH2 0x2E94 JUMP JUMPDEST POP PUSH2 0x140 DUP4 ADD MLOAD DUP5 DUP3 SUB PUSH2 0x140 DUP7 ADD MSTORE PUSH2 0x319D DUP3 DUP3 PUSH2 0x2DF1 JUMP JUMPDEST SWAP2 POP POP DUP1 SWAP2 POP POP SWAP3 SWAP2 POP POP JUMP JUMPDEST PUSH2 0x31B3 DUP2 PUSH2 0x3ACD JUMP JUMPDEST DUP3 MSTORE POP POP JUMP JUMPDEST PUSH2 0x31C2 DUP2 PUSH2 0x3AD7 JUMP JUMPDEST DUP3 MSTORE POP POP JUMP JUMPDEST PUSH2 0x31D1 DUP2 PUSH2 0x3AE7 JUMP JUMPDEST DUP3 MSTORE POP POP JUMP JUMPDEST PUSH2 0x31E0 DUP2 PUSH2 0x3AE7 JUMP JUMPDEST DUP3 MSTORE POP POP JUMP JUMPDEST PUSH2 0x31F7 PUSH2 0x31F2 DUP3 PUSH2 0x3AE7 JUMP JUMPDEST PUSH2 0x3C7E JUMP JUMPDEST DUP3 MSTORE POP POP JUMP JUMPDEST PUSH2 0x3206 DUP2 PUSH2 0x3AFB JUMP JUMPDEST DUP3 MSTORE POP POP JUMP JUMPDEST PUSH2 0x321D PUSH2 0x3218 DUP3 PUSH2 0x3AFB JUMP JUMPDEST PUSH2 0x3C90 JUMP JUMPDEST DUP3 MSTORE POP POP JUMP JUMPDEST PUSH1 0x0 PUSH2 0x322F DUP3 DUP5 PUSH2 0x2DDA JUMP JUMPDEST PUSH1 0x20 DUP3 ADD SWAP2 POP DUP2 SWAP1 POP SWAP3 SWAP2 POP POP JUMP JUMPDEST PUSH1 0x0 PUSH2 0x324A DUP3 DUP5 PUSH2 0x2E63 JUMP JUMPDEST SWAP2 POP DUP2 SWAP1 POP SWAP3 SWAP2 POP POP JUMP JUMPDEST PUSH1 0x0 PUSH2 0x3261 DUP3 DUP7 PUSH2 0x2E63 JUMP JUMPDEST SWAP2 POP PUSH2 0x326D DUP3 DUP6 PUSH2 0x2DDA JUMP JUMPDEST PUSH1 0x20 DUP3 ADD SWAP2 POP PUSH2 0x327D DUP3 DUP5 PUSH2 0x2E63 JUMP JUMPDEST SWAP2 POP DUP2 SWAP1 POP SWAP5 SWAP4 POP POP POP POP JUMP JUMPDEST PUSH1 0x0 PUSH2 0x3296 DUP3 DUP7 PUSH2 0x2E63 JUMP JUMPDEST SWAP2 POP PUSH2 0x32A2 DUP3 DUP6 PUSH2 0x2E63 JUMP JUMPDEST SWAP2 POP PUSH2 0x32AE DUP3 DUP5 PUSH2 0x2E63 JUMP JUMPDEST SWAP2 POP DUP2 SWAP1 POP SWAP5 SWAP4 POP POP POP POP JUMP JUMPDEST PUSH1 0x0 PUSH2 0x32C7 DUP3 DUP8 PUSH2 0x2E63 JUMP JUMPDEST SWAP2 POP PUSH2 0x32D3 DUP3 DUP7 PUSH2 0x2E63 JUMP JUMPDEST SWAP2 POP PUSH2 0x32DF DUP3 DUP6 PUSH2 0x2E63 JUMP JUMPDEST SWAP2 POP PUSH2 0x32EB DUP3 DUP5 PUSH2 0x2E63 JUMP JUMPDEST SWAP2 POP DUP2 SWAP1 POP SWAP6 SWAP5 POP POP POP POP POP JUMP JUMPDEST PUSH1 0x0 PUSH2 0x3305 DUP3 DUP6 PUSH2 0x2E63 JUMP JUMPDEST SWAP2 POP PUSH2 0x3310 DUP3 PUSH2 0x2FDB JUMP JUMPDEST SWAP2 POP PUSH2 0x331C DUP3 DUP5 PUSH2 0x2E63 JUMP JUMPDEST SWAP2 POP DUP2 SWAP1 POP SWAP4 SWAP3 POP POP POP JUMP JUMPDEST PUSH1 0x0 PUSH2 0x3334 DUP3 DUP9 PUSH2 0x2E63 JUMP JUMPDEST SWAP2 POP PUSH2 0x3340 DUP3 DUP8 PUSH2 0x320C JUMP JUMPDEST PUSH1 0x1 DUP3 ADD SWAP2 POP PUSH2 0x3350 DUP3 DUP7 PUSH2 0x320C JUMP JUMPDEST PUSH1 0x1 DUP3 ADD SWAP2 POP PUSH2 0x3360 DUP3 DUP6 PUSH2 0x2E63 JUMP JUMPDEST SWAP2 POP PUSH2 0x336C DUP3 DUP5 PUSH2 0x2E63 JUMP JUMPDEST SWAP2 POP DUP2 SWAP1 POP SWAP7 SWAP6 POP POP POP POP POP POP JUMP JUMPDEST PUSH1 0x0 PUSH2 0x3386 DUP3 PUSH2 0x2F09 JUMP JUMPDEST SWAP2 POP PUSH2 0x3392 DUP3 DUP5 PUSH2 0x2DDA JUMP JUMPDEST PUSH1 0x20 DUP3 ADD SWAP2 POP DUP2 SWAP1 POP SWAP3 SWAP2 POP POP JUMP JUMPDEST PUSH1 0x0 PUSH2 0x33AC DUP3 PUSH2 0x2F95 JUMP JUMPDEST SWAP2 POP PUSH2 0x33B8 DUP3 DUP5 PUSH2 0x2DDA JUMP JUMPDEST PUSH1 0x20 DUP3 ADD SWAP2 POP DUP2 SWAP1 POP SWAP3 SWAP2 POP POP JUMP JUMPDEST PUSH1 0x0 PUSH2 0x33D2 DUP3 PUSH2 0x2FFE JUMP JUMPDEST SWAP2 POP PUSH2 0x33DE DUP3 DUP5 PUSH2 0x2E63 JUMP JUMPDEST SWAP2 POP DUP2 SWAP1 POP SWAP3 SWAP2 POP POP JUMP JUMPDEST PUSH1 0x0 PUSH2 0x33F5 DUP3 DUP7 PUSH2 0x320C JUMP JUMPDEST PUSH1 0x1 DUP3 ADD SWAP2 POP PUSH2 0x3405 DUP3 DUP6 PUSH2 0x2DDA JUMP JUMPDEST PUSH1 0x20 DUP3 ADD SWAP2 POP PUSH2 0x3415 DUP3 DUP5 PUSH2 0x2DDA JUMP JUMPDEST PUSH1 0x20 DUP3 ADD SWAP2 POP DUP2 SWAP1 POP SWAP5 SWAP4 POP POP POP POP JUMP JUMPDEST PUSH1 0x0 PUSH2 0x3432 DUP3 DUP6 PUSH2 0x320C JUMP JUMPDEST PUSH1 0x1 DUP3 ADD SWAP2 POP PUSH2 0x3442 DUP3 DUP5 PUSH2 0x2E63 JUMP JUMPDEST SWAP2 POP DUP2 SWAP1 POP SWAP4 SWAP3 POP POP POP JUMP JUMPDEST PUSH1 0x0 PUSH2 0x345A DUP3 DUP11 PUSH2 0x320C JUMP JUMPDEST PUSH1 0x1 DUP3 ADD SWAP2 POP PUSH2 0x346A DUP3 DUP10 PUSH2 0x2E63 JUMP JUMPDEST SWAP2 POP PUSH2 0x3476 DUP3 DUP9 PUSH2 0x2E63 JUMP JUMPDEST SWAP2 POP PUSH2 0x3482 DUP3 DUP8 PUSH2 0x320C JUMP JUMPDEST PUSH1 0x1 DUP3 ADD SWAP2 POP PUSH2 0x3492 DUP3 DUP7 PUSH2 0x2DDA JUMP JUMPDEST PUSH1 0x20 DUP3 ADD SWAP2 POP PUSH2 0x34A2 DUP3 DUP6 PUSH2 0x320C JUMP JUMPDEST PUSH1 0x1 DUP3 ADD SWAP2 POP PUSH2 0x34B2 DUP3 DUP5 PUSH2 0x2DDA JUMP JUMPDEST PUSH1 0x20 DUP3 ADD SWAP2 POP DUP2 SWAP1 POP SWAP9 SWAP8 POP POP POP POP POP POP POP POP JUMP JUMPDEST PUSH1 0x0 PUSH2 0x34D3 DUP3 DUP6 PUSH2 0x320C JUMP JUMPDEST PUSH1 0x1 DUP3 ADD SWAP2 POP PUSH2 0x34E3 DUP3 DUP5 PUSH2 0x31E6 JUMP JUMPDEST PUSH1 0x8 DUP3 ADD SWAP2 POP DUP2 SWAP1 POP SWAP4 SWAP3 POP POP POP JUMP JUMPDEST PUSH1 0x0 PUSH2 0x34FF DUP3 DUP7 PUSH2 0x320C JUMP JUMPDEST PUSH1 0x1 DUP3 ADD SWAP2 POP PUSH2 0x350F DUP3 DUP6 PUSH2 0x320C JUMP JUMPDEST PUSH1 0x1 DUP3 ADD SWAP2 POP PUSH2 0x351F DUP3 DUP5 PUSH2 0x2DDA JUMP JUMPDEST PUSH1 0x20 DUP3 ADD SWAP2 POP DUP2 SWAP1 POP SWAP5 SWAP4 POP POP POP POP JUMP JUMPDEST PUSH1 0x0 PUSH2 0x353C DUP3 DUP11 PUSH2 0x320C JUMP JUMPDEST PUSH1 0x1 DUP3 ADD SWAP2 POP PUSH2 0x354C DUP3 DUP10 PUSH2 0x320C JUMP JUMPDEST PUSH1 0x1 DUP3 ADD SWAP2 POP PUSH2 0x355C DUP3 DUP9 PUSH2 0x2E63 JUMP JUMPDEST SWAP2 POP PUSH2 0x3568 DUP3 DUP8 PUSH2 0x320C JUMP JUMPDEST PUSH1 0x1 DUP3 ADD SWAP2 POP PUSH2 0x3578 DUP3 DUP7 PUSH2 0x2E63 JUMP JUMPDEST SWAP2 POP PUSH2 0x3584 DUP3 DUP6 PUSH2 0x320C JUMP JUMPDEST PUSH1 0x1 DUP3 ADD SWAP2 POP PUSH2 0x3594 DUP3 DUP5 PUSH2 0x2DDA JUMP JUMPDEST PUSH1 0x20 DUP3 ADD SWAP2 POP DUP2 SWAP1 POP SWAP9 SWAP8 POP POP POP POP POP POP POP POP JUMP JUMPDEST PUSH1 0x0 PUSH1 0x20 DUP3 ADD SWAP1 POP PUSH2 0x35BE PUSH1 0x0 DUP4 ADD DUP5 PUSH2 0x2DAD JUMP JUMPDEST SWAP3 SWAP2 POP POP JUMP JUMPDEST PUSH1 0x0 PUSH1 0x20 DUP3 ADD SWAP1 POP PUSH2 0x35D9 PUSH1 0x0 DUP4 ADD DUP5 PUSH2 0x2DBC JUMP JUMPDEST SWAP3 SWAP2 POP POP JUMP JUMPDEST PUSH1 0x0 PUSH1 0x20 DUP3 ADD SWAP1 POP PUSH2 0x35F4 PUSH1 0x0 DUP4 ADD DUP5 PUSH2 0x2DCB JUMP JUMPDEST SWAP3 SWAP2 POP POP JUMP JUMPDEST PUSH1 0x0 PUSH1 0x60 DUP3 ADD SWAP1 POP PUSH2 0x360F PUSH1 0x0 DUP4 ADD DUP7 PUSH2 0x2DCB JUMP JUMPDEST PUSH2 0x361C PUSH1 0x20 DUP4 ADD DUP6 PUSH2 0x31D7 JUMP JUMPDEST PUSH2 0x3629 PUSH1 0x40 DUP4 ADD DUP5 PUSH2 0x31B9 JUMP JUMPDEST SWAP5 SWAP4 POP POP POP POP JUMP JUMPDEST PUSH1 0x0 PUSH1 0x80 DUP3 ADD SWAP1 POP PUSH2 0x3646 PUSH1 0x0 DUP4 ADD DUP8 PUSH2 0x2DCB JUMP JUMPDEST PUSH2 0x3653 PUSH1 0x20 DUP4 ADD DUP7 PUSH2 0x31FD JUMP JUMPDEST PUSH2 0x3660 PUSH1 0x40 DUP4 ADD DUP6 PUSH2 0x2DCB JUMP JUMPDEST PUSH2 0x366D PUSH1 0x60 DUP4 ADD DUP5 PUSH2 0x2DCB JUMP JUMPDEST SWAP6 SWAP5 POP POP POP POP POP JUMP JUMPDEST PUSH1 0x0 PUSH1 0x20 DUP3 ADD SWAP1 POP DUP2 DUP2 SUB PUSH1 0x0 DUP4 ADD MSTORE PUSH2 0x3690 DUP2 DUP5 PUSH2 0x2E2A JUMP JUMPDEST SWAP1 POP SWAP3 SWAP2 POP POP JUMP JUMPDEST PUSH1 0x0 PUSH1 0x20 DUP3 ADD SWAP1 POP DUP2 DUP2 SUB PUSH1 0x0 DUP4 ADD MSTORE PUSH2 0x36B3 DUP2 DUP5 DUP7 PUSH2 0x2EA3 JUMP JUMPDEST SWAP1 POP SWAP4 SWAP3 POP POP POP JUMP JUMPDEST PUSH1 0x0 PUSH1 0x20 DUP3 ADD SWAP1 POP DUP2 DUP2 SUB PUSH1 0x0 DUP4 ADD MSTORE PUSH2 0x36D5 DUP2 PUSH2 0x2F2C JUMP JUMPDEST SWAP1 POP SWAP2 SWAP1 POP JUMP JUMPDEST PUSH1 0x0 PUSH1 0x20 DUP3 ADD SWAP1 POP DUP2 DUP2 SUB PUSH1 0x0 DUP4 ADD MSTORE PUSH2 0x36F5 DUP2 PUSH2 0x2F4F JUMP JUMPDEST SWAP1 POP SWAP2 SWAP1 POP JUMP JUMPDEST PUSH1 0x0 PUSH1 0x20 DUP3 ADD SWAP1 POP DUP2 DUP2 SUB PUSH1 0x0 DUP4 ADD MSTORE PUSH2 0x3715 DUP2 PUSH2 0x2F72 JUMP JUMPDEST SWAP1 POP SWAP2 SWAP1 POP JUMP JUMPDEST PUSH1 0x0 PUSH1 0x20 DUP3 ADD SWAP1 POP DUP2 DUP2 SUB PUSH1 0x0 DUP4 ADD MSTORE PUSH2 0x3735 DUP2 PUSH2 0x2FB8 JUMP JUMPDEST SWAP1 POP SWAP2 SWAP1 POP JUMP JUMPDEST PUSH1 0x0 PUSH1 0x20 DUP3 ADD SWAP1 POP DUP2 DUP2 SUB PUSH1 0x0 DUP4 ADD MSTORE PUSH2 0x3755 DUP2 PUSH2 0x3021 JUMP JUMPDEST SWAP1 POP SWAP2 SWAP1 POP JUMP JUMPDEST PUSH1 0x0 PUSH1 0x20 DUP3 ADD SWAP1 POP DUP2 DUP2 SUB PUSH1 0x0 DUP4 ADD MSTORE PUSH2 0x3775 DUP2 PUSH2 0x3044 JUMP JUMPDEST SWAP1 POP SWAP2 SWAP1 POP JUMP JUMPDEST PUSH1 0x0 PUSH1 0x20 DUP3 ADD SWAP1 POP DUP2 DUP2 SUB PUSH1 0x0 DUP4 ADD MSTORE PUSH2 0x3795 DUP2 PUSH2 0x3067 JUMP JUMPDEST SWAP1 POP SWAP2 SWAP1 POP JUMP JUMPDEST PUSH1 0x0 PUSH1 0x20 DUP3 ADD SWAP1 POP DUP2 DUP2 SUB PUSH1 0x0 DUP4 ADD MSTORE PUSH2 0x37B5 DUP2 PUSH2 0x308A JUMP JUMPDEST SWAP1 POP SWAP2 SWAP1 POP JUMP JUMPDEST PUSH1 0x0 PUSH1 0x20 DUP3 ADD SWAP1 POP DUP2 DUP2 SUB PUSH1 0x0 DUP4 ADD MSTORE PUSH2 0x37D6 DUP2 DUP5 PUSH2 0x30AD JUMP JUMPDEST SWAP1 POP SWAP3 SWAP2 POP POP JUMP JUMPDEST PUSH1 0x0 PUSH1 0x20 DUP3 ADD SWAP1 POP PUSH2 0x37F3 PUSH1 0x0 DUP4 ADD DUP5 PUSH2 0x31AA JUMP JUMPDEST SWAP3 SWAP2 POP POP JUMP JUMPDEST PUSH1 0x0 PUSH2 0x3803 PUSH2 0x3814 JUMP JUMPDEST SWAP1 POP PUSH2 0x380F DUP3 DUP3 PUSH2 0x3BC9 JUMP JUMPDEST SWAP2 SWAP1 POP JUMP JUMPDEST PUSH1 0x0 PUSH1 0x40 MLOAD SWAP1 POP SWAP1 JUMP JUMPDEST PUSH1 0x0 PUSH8 0xFFFFFFFFFFFFFFFF DUP3 GT ISZERO PUSH2 0x3839 JUMPI PUSH2 0x3838 PUSH2 0x3D2F JUMP JUMPDEST JUMPDEST PUSH1 0x20 DUP3 MUL SWAP1 POP PUSH1 0x20 DUP2 ADD SWAP1 POP SWAP2 SWAP1 POP JUMP JUMPDEST PUSH1 0x0 PUSH8 0xFFFFFFFFFFFFFFFF DUP3 GT ISZERO PUSH2 0x3865 JUMPI PUSH2 0x3864 PUSH2 0x3D2F JUMP JUMPDEST JUMPDEST PUSH2 0x386E DUP3 PUSH2 0x3D5E JUMP JUMPDEST SWAP1 POP PUSH1 0x20 DUP2 ADD SWAP1 POP SWAP2 SWAP1 POP JUMP JUMPDEST PUSH1 0x0 PUSH8 0xFFFFFFFFFFFFFFFF DUP3 GT ISZERO PUSH2 0x3896 JUMPI PUSH2 0x3895 PUSH2 0x3D2F JUMP JUMPDEST JUMPDEST PUSH2 0x389F DUP3 PUSH2 0x3D5E JUMP JUMPDEST SWAP1 POP PUSH1 0x20 DUP2 ADD SWAP1 POP SWAP2 SWAP1 POP JUMP JUMPDEST PUSH1 0x0 DUP2 MLOAD SWAP1 POP SWAP2 SWAP1 POP JUMP JUMPDEST PUSH1 0x0 DUP2 MLOAD SWAP1 POP SWAP2 SWAP1 POP JUMP JUMPDEST PUSH1 0x0 DUP3 DUP3 MSTORE PUSH1 0x20 DUP3 ADD SWAP1 POP SWAP3 SWAP2 POP POP JUMP JUMPDEST PUSH1 0x0 DUP3 DUP3 MSTORE PUSH1 0x20 DUP3 ADD SWAP1 POP SWAP3 SWAP2 POP POP JUMP JUMPDEST PUSH1 0x0 DUP2 SWAP1 POP SWAP3 SWAP2 POP POP JUMP JUMPDEST PUSH1 0x0 DUP3 DUP3 MSTORE PUSH1 0x20 DUP3 ADD SWAP1 POP SWAP3 SWAP2 POP POP JUMP JUMPDEST PUSH1 0x0 DUP3 DUP3 MSTORE PUSH1 0x20 DUP3 ADD SWAP1 POP SWAP3 SWAP2 POP POP JUMP JUMPDEST PUSH1 0x0 DUP2 SWAP1 POP SWAP3 SWAP2 POP POP JUMP JUMPDEST PUSH1 0x0 PUSH2 0x3927 DUP3 PUSH2 0x3ACD JUMP JUMPDEST SWAP2 POP PUSH2 0x3932 DUP4 PUSH2 0x3ACD JUMP JUMPDEST SWAP3 POP DUP3 PUSH32 0xFFFFFFFFFFFFFFFFFFFFFFFFFFFFFFFFFFFFFFFFFFFFFFFFFFFFFFFFFFFFFFFF SUB DUP3 GT ISZERO PUSH2 0x3967 JUMPI PUSH2 0x3966 PUSH2 0x3CA2 JUMP JUMPDEST JUMPDEST DUP3 DUP3 ADD SWAP1 POP SWAP3 SWAP2 POP POP JUMP JUMPDEST PUSH1 0x0 PUSH2 0x397D DUP3 PUSH2 0x3AE7 JUMP JUMPDEST SWAP2 POP PUSH2 0x3988 DUP4 PUSH2 0x3AE7 JUMP JUMPDEST SWAP3 POP DUP3 PUSH8 0xFFFFFFFFFFFFFFFF SUB DUP3 GT ISZERO PUSH2 0x39A5 JUMPI PUSH2 0x39A4 PUSH2 0x3CA2 JUMP JUMPDEST JUMPDEST DUP3 DUP3 ADD SWAP1 POP SWAP3 SWAP2 POP POP JUMP JUMPDEST PUSH1 0x0 PUSH2 0x39BB DUP3 PUSH2 0x3ACD JUMP JUMPDEST SWAP2 POP PUSH2 0x39C6 DUP4 PUSH2 0x3ACD JUMP JUMPDEST SWAP3 POP DUP2 PUSH32 0xFFFFFFFFFFFFFFFFFFFFFFFFFFFFFFFFFFFFFFFFFFFFFFFFFFFFFFFFFFFFFFFF DIV DUP4 GT DUP3 ISZERO ISZERO AND ISZERO PUSH2 0x39FF JUMPI PUSH2 0x39FE PUSH2 0x3CA2 JUMP JUMPDEST JUMPDEST DUP3 DUP3 MUL SWAP1 POP SWAP3 SWAP2 POP POP JUMP JUMPDEST PUSH1 0x0 PUSH2 0x3A15 DUP3 PUSH2 0x3ACD JUMP JUMPDEST SWAP2 POP PUSH2 0x3A20 DUP4 PUSH2 0x3ACD JUMP JUMPDEST SWAP3 POP DUP3 DUP3 LT ISZERO PUSH2 0x3A33 JUMPI PUSH2 0x3A32 PUSH2 0x3CA2 JUMP JUMPDEST JUMPDEST DUP3 DUP3 SUB SWAP1 POP SWAP3 SWAP2 POP POP JUMP JUMPDEST PUSH1 0x0 PUSH2 0x3A49 DUP3 PUSH2 0x3AE7 JUMP JUMPDEST SWAP2 POP PUSH2 0x3A54 DUP4 PUSH2 0x3AE7 JUMP JUMPDEST SWAP3 POP DUP3 DUP3 LT ISZERO PUSH2 0x3A67 JUMPI PUSH2 0x3A66 PUSH2 0x3CA2 JUMP JUMPDEST JUMPDEST DUP3 DUP3 SUB SWAP1 POP SWAP3 SWAP2 POP POP JUMP JUMPDEST PUSH1 0x0 PUSH2 0x3A7D DUP3 PUSH2 0x3AAD JUMP JUMPDEST SWAP1 POP SWAP2 SWAP1 POP JUMP JUMPDEST PUSH1 0x0 DUP2 ISZERO ISZERO SWAP1 POP SWAP2 SWAP1 POP JUMP JUMPDEST PUSH1 0x0 DUP2 SWAP1 POP SWAP2 SWAP1 POP JUMP JUMPDEST PUSH1 0x0 DUP2 SWAP1 POP PUSH2 0x3AA8 DUP3 PUSH2 0x3FE7 JUMP JUMPDEST SWAP2 SWAP1 POP JUMP JUMPDEST PUSH1 0x0 PUSH20 0xFFFFFFFFFFFFFFFFFFFFFFFFFFFFFFFFFFFFFFFF DUP3 AND SWAP1 POP SWAP2 SWAP1 POP JUMP JUMPDEST PUSH1 0x0 DUP2 SWAP1 POP SWAP2 SWAP1 POP JUMP JUMPDEST PUSH1 0x0 PUSH4 0xFFFFFFFF DUP3 AND SWAP1 POP SWAP2 SWAP1 POP JUMP JUMPDEST PUSH1 0x0 PUSH8 0xFFFFFFFFFFFFFFFF DUP3 AND SWAP1 POP SWAP2 SWAP1 POP JUMP JUMPDEST PUSH1 0x0 PUSH1 0xFF DUP3 AND SWAP1 POP SWAP2 SWAP1 POP JUMP JUMPDEST PUSH1 0x0 PUSH2 0x3B15 CALLDATASIZE DUP5 DUP5 PUSH2 0x2098 JUMP JUMPDEST SWAP1 POP SWAP3 SWAP2 POP POP JUMP JUMPDEST PUSH1 0x0 PUSH2 0x3B28 DUP3 PUSH2 0x3A9A JUMP JUMPDEST SWAP1 POP SWAP2 SWAP1 POP JUMP JUMPDEST PUSH1 0x0 PUSH2 0x3B3B CALLDATASIZE DUP4 PUSH2 0x24C7 JUMP JUMPDEST SWAP1 POP SWAP2 SWAP1 POP JUMP JUMPDEST PUSH1 0x0 PUSH2 0x3B4E CALLDATASIZE DUP4 PUSH2 0x272A JUMP JUMPDEST SWAP1 POP SWAP2 SWAP1 POP JUMP JUMPDEST DUP3 DUP2 DUP4 CALLDATACOPY PUSH1 0x0 DUP4 DUP4 ADD MSTORE POP POP POP JUMP JUMPDEST PUSH1 0x0 JUMPDEST DUP4 DUP2 LT ISZERO PUSH2 0x3B82 JUMPI DUP1 DUP3 ADD MLOAD DUP2 DUP5 ADD MSTORE PUSH1 0x20 DUP2 ADD SWAP1 POP PUSH2 0x3B67 JUMP JUMPDEST DUP4 DUP2 GT ISZERO PUSH2 0x3B91 JUMPI PUSH1 0x0 DUP5 DUP5 ADD MSTORE JUMPDEST POP POP POP POP JUMP JUMPDEST PUSH1 0x0 PUSH1 0x2 DUP3 DIV SWAP1 POP PUSH1 0x1 DUP3 AND DUP1 PUSH2 0x3BAF JUMPI PUSH1 0x7F DUP3 AND SWAP2 POP JUMPDEST PUSH1 0x20 DUP3 LT DUP2 EQ ISZERO PUSH2 0x3BC3 JUMPI PUSH2 0x3BC2 PUSH2 0x3D00 JUMP JUMPDEST JUMPDEST POP SWAP2 SWAP1 POP JUMP JUMPDEST PUSH2 0x3BD2 DUP3 PUSH2 0x3D5E JUMP JUMPDEST DUP2 ADD DUP2 DUP2 LT PUSH8 0xFFFFFFFFFFFFFFFF DUP3 GT OR ISZERO PUSH2 0x3BF1 JUMPI PUSH2 0x3BF0 PUSH2 0x3D2F JUMP JUMPDEST JUMPDEST DUP1 PUSH1 0x40 MSTORE POP POP POP JUMP JUMPDEST PUSH1 0x0 PUSH2 0x3C05 DUP3 PUSH2 0x3ACD JUMP JUMPDEST SWAP2 POP PUSH32 0xFFFFFFFFFFFFFFFFFFFFFFFFFFFFFFFFFFFFFFFFFFFFFFFFFFFFFFFFFFFFFFFF DUP3 EQ ISZERO PUSH2 0x3C38 JUMPI PUSH2 0x3C37 PUSH2 0x3CA2 JUMP JUMPDEST JUMPDEST PUSH1 0x1 DUP3 ADD SWAP1 POP SWAP2 SWAP1 POP JUMP JUMPDEST PUSH1 0x0 PUSH2 0x3C4E DUP3 PUSH2 0x3AE7 JUMP JUMPDEST SWAP2 POP PUSH8 0xFFFFFFFFFFFFFFFF DUP3 EQ ISZERO PUSH2 0x3C69 JUMPI PUSH2 0x3C68 PUSH2 0x3CA2 JUMP JUMPDEST JUMPDEST PUSH1 0x1 DUP3 ADD SWAP1 POP SWAP2 SWAP1 POP JUMP JUMPDEST PUSH1 0x0 DUP2 SWAP1 POP SWAP2 SWAP1 POP JUMP JUMPDEST PUSH1 0x0 PUSH2 0x3C89 DUP3 PUSH2 0x3D6F JUMP JUMPDEST SWAP1 POP SWAP2 SWAP1 POP JUMP JUMPDEST PUSH1 0x0 PUSH2 0x3C9B DUP3 PUSH2 0x3D7C JUMP JUMPDEST SWAP1 POP SWAP2 SWAP1 POP JUMP JUMPDEST PUSH32 0x4E487B7100000000000000000000000000000000000000000000000000000000 PUSH1 0x0 MSTORE PUSH1 0x11 PUSH1 0x4 MSTORE PUSH1 0x24 PUSH1 0x0 REVERT JUMPDEST PUSH32 0x4E487B7100000000000000000000000000000000000000000000000000000000 PUSH1 0x0 MSTORE PUSH1 0x21 PUSH1 0x4 MSTORE PUSH1 0x24 PUSH1 0x0 REVERT JUMPDEST PUSH32 0x4E487B7100000000000000000000000000000000000000000000000000000000 PUSH1 0x0 MSTORE PUSH1 0x22 PUSH1 0x4 MSTORE PUSH1 0x24 PUSH1 0x0 REVERT JUMPDEST PUSH32 0x4E487B7100000000000000000000000000000000000000000000000000000000 PUSH1 0x0 MSTORE PUSH1 0x41 PUSH1 0x4 MSTORE PUSH1 0x24 PUSH1 0x0 REVERT JUMPDEST PUSH1 0x0 PUSH1 0x1F NOT PUSH1 0x1F DUP4 ADD AND SWAP1 POP SWAP2 SWAP1 POP JUMP JUMPDEST PUSH1 0x0 DUP2 PUSH1 0xC0 SHL SWAP1 POP SWAP2 SWAP1 POP JUMP JUMPDEST PUSH1 0x0 DUP2 PUSH1 0xF8 SHL SWAP1 POP SWAP2 SWAP1 POP JUMP JUMPDEST PUSH32 0x86C7571636861696E2000000000000000000000000000000000000000000000 PUSH1 0x0 DUP3 ADD MSTORE POP JUMP JUMPDEST PUSH32 0x436F6D6D6F6E456E636F646564566F7465506172743A20496E76616C69642073 PUSH1 0x0 DUP3 ADD MSTORE PUSH32 0x756666697827732073697A650000000000000000000000000000000000000000 PUSH1 0x20 DUP3 ADD MSTORE POP JUMP JUMPDEST PUSH32 0x436F6D6D6F6E456E636F646564566F7465506172743A20496E76616C69642070 PUSH1 0x0 DUP3 ADD MSTORE PUSH32 0x726566697827732073697A650000000000000000000000000000000000000000 PUSH1 0x20 DUP3 ADD MSTORE POP JUMP JUMPDEST PUSH32 0x496E76616C696420626C6F636B20686561646572000000000000000000000000 PUSH1 0x0 DUP3 ADD MSTORE POP JUMP JUMPDEST PUSH32 0x66C7571636861696E2000000000000000000000000000000000000000000000 PUSH1 0x0 DUP3 ADD MSTORE POP JUMP JUMPDEST PUSH32 0x4E6F20726F6F7420617420746869732068656967687400000000000000000000 PUSH1 0x0 DUP3 ADD MSTORE POP JUMP JUMPDEST PUSH32 0x1000000000000000000000000000000000000000000000000000000000000000 PUSH1 0x0 DUP3 ADD MSTORE POP JUMP JUMPDEST PUSH32 0x800000000000000000000000000000000000000000000000000000000000000 PUSH1 0x0 DUP3 ADD MSTORE POP JUMP JUMPDEST PUSH32 0x416C726561647920696E697469616C697A656400000000000000000000000000 PUSH1 0x0 DUP3 ADD MSTORE POP JUMP JUMPDEST PUSH32 0x496E76616C69642070726F6F6600000000000000000000000000000000000000 PUSH1 0x0 DUP3 ADD MSTORE POP JUMP JUMPDEST PUSH32 0x544D5369676E61747572653A20496E76616C69642074696D657374616D702773 PUSH1 0x0 DUP3 ADD MSTORE PUSH32 0x2073697A65000000000000000000000000000000000000000000000000000000 PUSH1 0x20 DUP3 ADD MSTORE POP JUMP JUMPDEST PUSH32 0x496E76616C6964207369676E6572206F72646572000000000000000000000000 PUSH1 0x0 DUP3 ADD MSTORE POP JUMP JUMPDEST PUSH1 0x4 DUP2 LT PUSH2 0x3FF8 JUMPI PUSH2 0x3FF7 PUSH2 0x3CD1 JUMP JUMPDEST JUMPDEST POP JUMP JUMPDEST PUSH2 0x4004 DUP2 PUSH2 0x3A72 JUMP JUMPDEST DUP2 EQ PUSH2 0x400F JUMPI PUSH1 0x0 DUP1 REVERT JUMPDEST POP JUMP JUMPDEST PUSH2 0x401B DUP2 PUSH2 0x3A84 JUMP JUMPDEST DUP2 EQ PUSH2 0x4026 JUMPI PUSH1 0x0 DUP1 REVERT JUMPDEST POP JUMP JUMPDEST PUSH2 0x4032 DUP2 PUSH2 0x3A90 JUMP JUMPDEST DUP2 EQ PUSH2 0x403D JUMPI PUSH1 0x0 DUP1 REVERT JUMPDEST POP JUMP JUMPDEST PUSH1 0x4 DUP2 LT PUSH2 0x404D JUMPI PUSH1 0x0 DUP1 REVERT JUMPDEST POP JUMP JUMPDEST PUSH2 0x4059 DUP2 PUSH2 0x3ACD JUMP JUMPDEST DUP2 EQ PUSH2 0x4064 JUMPI PUSH1 0x0 DUP1 REVERT JUMPDEST POP JUMP JUMPDEST PUSH2 0x4070 DUP2 PUSH2 0x3AD7 JUMP JUMPDEST DUP2 EQ PUSH2 0x407B JUMPI PUSH1 0x0 DUP1 REVERT JUMPDEST POP JUMP JUMPDEST PUSH2 0x4087 DUP2 PUSH2 0x3AE7 JUMP JUMPDEST DUP2 EQ PUSH2 0x4092 JUMPI PUSH1 0x0 DUP1 REVERT JUMPDEST POP JUMP JUMPDEST PUSH2 0x409E DUP2 PUSH2 0x3AFB JUMP JUMPDEST DUP2 EQ PUSH2 0x40A9 JUMPI PUSH1 0x0 DUP1 REVERT JUMPDEST POP JUMP INVALID LOG2 PUSH5 0x6970667358 0x22 SLT KECCAK256 CALLDATACOPY 0xE0 DUP5 DUP15 PUSH8 0x45011D89BBDF755C 0x5F PUSH8 0xE018CF3DE008F09 PUSH29 0x2AF28956A900D9DF64736F6C6343000803003300000000000000000000 "},"methodIdentifiers":{"blockDetails(uint256)":"f953205a","checkPartsAndEncodedCommonParts((bytes,bytes),bytes32)":"5cd2458c","checkTimeAndRecoverSigner((bytes32,bytes32,uint8,bytes),bytes,bytes)":"071ee1e1","encodedChainId()":"64c47193","getAppHash((bytes32,bytes32,bytes32,bytes32,bytes32,bytes32))":"e71296e1","getAppHash2((bytes32,bytes32,bytes32,bytes32,bytes32,bytes32))":"0ac804c5","getBlockHeader((bytes32,uint64,uint64,uint32,bytes32,bytes32,bytes32,bytes32),bytes32)":"847c1b23","init(address[],uint256[],string)":"93a4a134","latestBlockHeight()":"f3f39ee5","relayBlock((bytes32,bytes32,bytes32,bytes32,bytes32,bytes32),(bytes32,uint64,uint64,uint32,bytes32,bytes32,bytes32,bytes32),(bytes,bytes),(bytes32,bytes32,uint8,bytes)[])":"af4b9107","totalValidatorPower()":"f8156a6e","unbondingPeriod()":"6cf6d675","validatorPowers(address)":"f61aa09d","verifyBlockHeader((bytes32,bytes32,bytes32,bytes32,bytes32,bytes32),(bytes32,uint64,uint64,uint32,bytes32,bytes32,bytes32,bytes32),(bytes,bytes),(bytes32,bytes32,uint8,bytes)[])":"cc2532ba","verifyOracleData(uint256,(string,uint64,bytes,uint64,uint64,uint64,uint64,uint64,uint64,uint8,bytes),uint256,(bool,uint8,uint256,uint256,bytes32)[])":"c573d977"}}}}}