{"contracts/bridge/LayerLightClientBridge.sol":{"Blobstream":{"abi":[{"inputs":[{"internalType":"uint256","name":"_nonce","type":"uint256"},{"internalType":"uint256","name":"_powerThreshold","type":"uint256"},{"internalType":"bytes32","name":"_validatorSetCheckpoint","type":"bytes32"}],"stateMutability":"nonpayable","type":"constructor"},{"inputs":[],"name":"ECDSAInvalidSignature","type":"error"},{"inputs":[{"internalType":"uint256","name":"length","type":"uint256"}],"name":"ECDSAInvalidSignatureLength","type":"error"},{"inputs":[{"internalType":"bytes32","name":"s","type":"bytes32"}],"name":"ECDSAInvalidSignatureS","type":"error"},{"inputs":[],"name":"InsufficientVotingPower","type":"error"},{"inputs":[],"name":"InvalidDataRootTupleRootNonce","type":"error"},{"inputs":[],"name":"InvalidSignature","type":"error"},{"inputs":[],"name":"InvalidValidatorSetNonce","type":"error"},{"inputs":[],"name":"MalformedCurrentValidatorSet","type":"error"},{"inputs":[],"name":"SuppliedValidatorSetInvalid","type":"error"},{"anonymous":false,"inputs":[{"indexed":true,"internalType":"uint256","name":"nonce","type":"uint256"},{"indexed":false,"internalType":"bytes32","name":"dataRootTupleRoot","type":"bytes32"}],"name":"DataRootTupleRootEvent","type":"event"},{"anonymous":false,"inputs":[{"indexed":true,"internalType":"uint256","name":"nonce","type":"uint256"},{"indexed":false,"internalType":"uint256","name":"powerThreshold","type":"uint256"},{"indexed":false,"internalType":"bytes32","name":"validatorSetHash","type":"bytes32"}],"name":"ValidatorSetUpdatedEvent","type":"event"},{"inputs":[{"internalType":"uint256","name":"","type":"uint256"}],"name":"state_dataRootTupleRoots","outputs":[{"internalType":"bytes32","name":"","type":"bytes32"}],"stateMutability":"view","type":"function"},{"inputs":[],"name":"state_eventNonce","outputs":[{"internalType":"uint256","name":"","type":"uint256"}],"stateMutability":"view","type":"function"},{"inputs":[],"name":"state_lastValidatorSetCheckpoint","outputs":[{"internalType":"bytes32","name":"","type":"bytes32"}],"stateMutability":"view","type":"function"},{"inputs":[],"name":"state_powerThreshold","outputs":[{"internalType":"uint256","name":"","type":"uint256"}],"stateMutability":"view","type":"function"},{"inputs":[{"internalType":"uint256","name":"_newNonce","type":"uint256"},{"internalType":"uint256","name":"_validatorSetNonce","type":"uint256"},{"internalType":"bytes32","name":"_dataRootTupleRoot","type":"bytes32"},{"components":[{"internalType":"address","name":"addr","type":"address"},{"internalType":"uint256","name":"power","type":"uint256"}],"internalType":"struct Validator[]","name":"_currentValidatorSet","type":"tuple[]"},{"components":[{"internalType":"uint8","name":"v","type":"uint8"},{"internalType":"bytes32","name":"r","type":"bytes32"},{"internalType":"bytes32","name":"s","type":"bytes32"}],"internalType":"struct Signature[]","name":"_sigs","type":"tuple[]"}],"name":"submitDataRootTupleRoot","outputs":[],"stateMutability":"nonpayable","type":"function"},{"inputs":[{"internalType":"uint256","name":"_newNonce","type":"uint256"},{"internalType":"uint256","name":"_oldNonce","type":"uint256"},{"internalType":"uint256","name":"_newPowerThreshold","type":"uint256"},{"internalType":"bytes32","name":"_newValidatorSetHash","type":"bytes32"},{"components":[{"internalType":"address","name":"addr","type":"address"},{"internalType":"uint256","name":"power","type":"uint256"}],"internalType":"struct Validator[]","name":"_currentValidatorSet","type":"tuple[]"},{"components":[{"internalType":"uint8","name":"v","type":"uint8"},{"internalType":"bytes32","name":"r","type":"bytes32"},{"internalType":"bytes32","name":"s","type":"bytes32"}],"internalType":"struct Signature[]","name":"_sigs","type":"tuple[]"}],"name":"updateValidatorSet","outputs":[],"stateMutability":"nonpayable","type":"function"},{"inputs":[{"internalType":"uint256","name":"_tupleRootNonce","type":"uint256"},{"components":[{"internalType":"uint256","name":"height","type":"uint256"},{"internalType":"bytes32","name":"dataRoot","type":"bytes32"}],"internalType":"struct DataRootTuple","name":"_tuple","type":"tuple"},{"components":[{"internalType":"bytes32[]","name":"sideNodes","type":"bytes32[]"},{"internalType":"uint256","name":"key","type":"uint256"},{"internalType":"uint256","name":"numLeaves","type":"uint256"}],"internalType":"struct BinaryMerkleProof","name":"_proof","type":"tuple"}],"name":"verifyAttestation","outputs":[{"internalType":"bool","name":"","type":"bool"}],"stateMutability":"view","type":"function"}],"evm":{"bytecode":{"linkReferences":{},"object":"60806040523480156200001157600080fd5b5060405162002132380380620021328339818101604052810190620000379190620000d0565b8260028190555080600081905550816001819055505050506200012c565b600080fd5b6000819050919050565b6200006f816200005a565b81146200007b57600080fd5b50565b6000815190506200008f8162000064565b92915050565b6000819050919050565b620000aa8162000095565b8114620000b657600080fd5b50565b600081519050620000ca816200009f565b92915050565b600080600060608486031215620000ec57620000eb62000055565b5b6000620000fc868287016200007e565b93505060206200010f868287016200007e565b92505060406200012286828701620000b9565b9150509250925092565b611ff6806200013c6000396000f3fe608060405234801561001057600080fd5b506004361061007d5760003560e01c8063817f985b1161005b578063817f985b146100ec578063cdade8661461011c578063e23eb3261461013a578063e5a2b5d2146101565761007d565b806305d85c13146100825780631f3302a91461009e5780635433218c146100ce575b600080fd5b61009c600480360381019061009791906111d3565b610174565b005b6100b860048036038101906100b391906114cb565b6102d8565b6040516100c59190611555565b60405180910390f35b6100d6610340565b6040516100e3919061157f565b60405180910390f35b6101066004803603810190610101919061159a565b610346565b604051610113919061157f565b60405180910390f35b61012461035e565b60405161013191906115d6565b60405180910390f35b610154600480360381019061014f91906115f1565b610364565b005b61015e6104ce565b60405161016b91906115d6565b60405180910390f35b600060025490506000600154905060008054905060018361019591906116dc565b8b146101cd576040517fd146bffa00000000000000000000000000000000000000000000000000000000815260040160405180910390fd5b84849050878790501461020c576040517fc6617b7b00000000000000000000000000000000000000000000000000000000815260040160405180910390fd5b600061021888886104d4565b9050816102268c8584610507565b1461025d576040517f177b5d9200000000000000000000000000000000000000000000000000000000815260040160405180910390fd5b600061026a8d8c8c610507565b905061027a898989898589610567565b806000819055508a6001819055508c6002819055508c7fe55fb3cbbfe29b13c7f8a35ef23127e7df9ab88df16bac166ad254a20f02414c8c8c6040516102c1929190611710565b60405180910390a250505050505050505050505050565b60006002548411156102ed5760009050610339565b600060036000868152602001908152602001600020549050600061033182858760405160200161031d9190611786565b6040516020818303038152906040526106a2565b905080925050505b9392505050565b60005481565b60036020528060005260406000206000915090505481565b60025481565b600060025490506000600154905060008054905060018361038591906116dc565b8a146103bd576040517fe869766d00000000000000000000000000000000000000000000000000000000815260040160405180910390fd5b8484905087879050146103fc576040517fc6617b7b00000000000000000000000000000000000000000000000000000000815260040160405180910390fd5b600061040888886104d4565b9050816104168b8584610507565b1461044d576040517f177b5d9200000000000000000000000000000000000000000000000000000000815260040160405180910390fd5b60006104598c8b610770565b9050610469898989898589610567565b8b60028190555089600360008e8152602001908152602001600020819055508b7f6614d037bde4905e31ca5ff05de61964c267f28b0320ed49e59f7d99752e1c4f8b6040516104b8919061157f565b60405180910390a2505050505050505050505050565b60015481565b600082826040516020016104e9929190611923565b60405160208183030381529060405280519060200120905092915050565b6000807f636865636b706f696e740000000000000000000000000000000000000000000060001b8585856040516020016105449493929190611947565b604051602081830303815290604052805190602001209050809150509392505050565b6000805b8787905081101561065e5761059786868381811061058c5761058b61198c565b5b9050606002016107cd565b610651576105e88888838181106105b1576105b061198c565b5b90506040020160000160208101906105c991906119bb565b858888858181106105dd576105dc61198c565b5b905060600201610813565b61061e576040517f8baa579f00000000000000000000000000000000000000000000000000000000815260040160405180910390fd5b8787828181106106315761063061198c565b5b905060400201602001358261064691906116dc565b91508282101561065e575b808060010191505061056b565b5081811015610699576040517fcabeb65500000000000000000000000000000000000000000000000000000000815260040160405180910390fd5b50505050505050565b600060018360400151116106cb576000836000015151146106c65760009050610769565b6106f2565b6106dd8360200151846040015161087f565b836000015151146106f15760009050610769565b5b826040015183602001511061070a5760009050610769565b60006107158361090f565b905060008460000151510361074557600184604001510361073b57808514915050610769565b6000915050610769565b600061075f8560200151866040015184886000015161098d565b9050858114925050505b9392505050565b6000807f7472616e73616374696f6e42617463680000000000000000000000000000000060001b84846040516020016107ab939291906119e8565b6040516020818303038152906040528051906020012090508091505092915050565b60008060001b82602001351480156107eb57506000801b8260400135145b801561080c575060008260000160208101906108079190611a58565b60ff16145b9050919050565b60008061081f84610b4b565b9050610847818460000160208101906108389190611a58565b85602001358660400135610b81565b73ffffffffffffffffffffffffffffffffffffffff168573ffffffffffffffffffffffffffffffffffffffff16149150509392505050565b600061088a82610bb1565b6101006108979190611a85565b905060006001826108a89190611a85565b6001901b90506001816108bb9190611a85565b84116108c75750610909565b600181036108d9576001915050610909565b6108f981856108e89190611a85565b82856108f49190611a85565b61087f565b600161090591906116dc565b9150505b92915050565b60006002600060f81b8360405160200161092a929190611b77565b6040516020818303038152906040526040516109469190611b9f565b602060405180830381855afa158015610963573d6000803e3d6000fd5b5050506040513d601f19601f820116820180604052508101906109869190611bcb565b9050919050565b60008084036109d1576040517f08c379a00000000000000000000000000000000000000000000000000000000081526004016109c890611c7b565b60405180910390fd5b60018403610a25576000825114610a1d576040517f08c379a0000000000000000000000000000000000000000000000000000000008152600401610a1490611ce7565b60405180910390fd5b829050610b43565b6000825103610a69576040517f08c379a0000000000000000000000000000000000000000000000000000000008152600401610a6090611d53565b60405180910390fd5b6000610a7485610be9565b90506000610a9184600060018751610a8c9190611a85565b610c34565b905081871015610ae6576000610aa98884888561098d565b9050610adc818660018851610abe9190611a85565b81518110610acf57610ace61198c565b5b6020026020010151610d8c565b9350505050610b43565b6000610b0a8389610af79190611a85565b8489610b039190611a85565b888561098d565b9050610b3d8560018751610b1e9190611a85565b81518110610b2f57610b2e61198c565b5b602002602001015182610d8c565b93505050505b949350505050565b60007f19457468657265756d205369676e6564204d6573736167653a0a33320000000060005281601c52603c6000209050919050565b600080600080610b9388888888610e0d565b925092509250610ba38282610f01565b829350505050949350505050565b60005b81816001901b1015610bd457600181610bcd91906116dc565b9050610bb4565b80610100610be29190611a85565b9050919050565b60006001821015610bf957600080fd5b6000610c0483611065565b90506000600182610c159190611a85565b6001901b9050838103610c2a57600181901c90505b8092505050919050565b606081831115610c79576040517f08c379a0000000000000000000000000000000000000000000000000000000008152600401610c7090611de5565b60405180910390fd5b8351831180610c885750835182115b15610cc8576040517f08c379a0000000000000000000000000000000000000000000000000000000008152600401610cbf90611e77565b60405180910390fd5b60008383610cd69190611a85565b67ffffffffffffffff811115610cef57610cee6112b8565b5b604051908082528060200260200182016040528015610d1d5781602001602082028036833780820191505090505b50905060008490505b83811015610d8057858181518110610d4157610d4061198c565b5b6020026020010151828683610d569190611a85565b81518110610d6757610d6661198c565b5b6020026020010181815250508080600101915050610d26565b50809150509392505050565b60006002600160f81b8484604051602001610da993929190611eb8565b604051602081830303815290604052604051610dc59190611b9f565b602060405180830381855afa158015610de2573d6000803e3d6000fd5b5050506040513d601f19601f82011682018060405250810190610e059190611bcb565b905092915050565b60008060007f7fffffffffffffffffffffffffffffff5d576e7357a4501ddfe92f46681b20a08460001c1115610e4d576000600385925092509250610ef7565b600060018888888860405160008152602001604052604051610e729493929190611f04565b6020604051602081039080840390855afa158015610e94573d6000803e3d6000fd5b505050602060405103519050600073ffffffffffffffffffffffffffffffffffffffff168173ffffffffffffffffffffffffffffffffffffffff1603610ee857600060016000801b93509350935050610ef7565b8060008060001b935093509350505b9450945094915050565b60006003811115610f1557610f14611f49565b5b826003811115610f2857610f27611f49565b5b03156110615760016003811115610f4257610f41611f49565b5b826003811115610f5557610f54611f49565b5b03610f8c576040517ff645eedf00000000000000000000000000000000000000000000000000000000815260040160405180910390fd5b60026003811115610fa057610f9f611f49565b5b826003811115610fb357610fb2611f49565b5b03610ff8578060001c6040517ffce698f7000000000000000000000000000000000000000000000000000000008152600401610fef91906115d6565b60405180910390fd5b60038081111561100b5761100a611f49565b5b82600381111561101e5761101d611f49565b5b0361106057806040517fd78bce0c000000000000000000000000000000000000000000000000000000008152600401611057919061157f565b60405180910390fd5b5b5050565b600080600090505b6000831461108f57808061108090611f78565b915050600183901c925061106d565b80915050919050565b6000604051905090565b600080fd5b600080fd5b6000819050919050565b6110bf816110ac565b81146110ca57600080fd5b50565b6000813590506110dc816110b6565b92915050565b6000819050919050565b6110f5816110e2565b811461110057600080fd5b50565b600081359050611112816110ec565b92915050565b600080fd5b600080fd5b600080fd5b60008083601f84011261113d5761113c611118565b5b8235905067ffffffffffffffff81111561115a5761115961111d565b5b60208301915083604082028301111561117657611175611122565b5b9250929050565b60008083601f84011261119357611192611118565b5b8235905067ffffffffffffffff8111156111b0576111af61111d565b5b6020830191508360608202830111156111cc576111cb611122565b5b9250929050565b60008060008060008060008060c0898b0312156111f3576111f26110a2565b5b60006112018b828c016110cd565b98505060206112128b828c016110cd565b97505060406112238b828c016110cd565b96505060606112348b828c01611103565b955050608089013567ffffffffffffffff811115611255576112546110a7565b5b6112618b828c01611127565b945094505060a089013567ffffffffffffffff811115611284576112836110a7565b5b6112908b828c0161117d565b92509250509295985092959890939650565b600080fd5b6000601f19601f8301169050919050565b7f4e487b7100000000000000000000000000000000000000000000000000000000600052604160045260246000fd5b6112f0826112a7565b810181811067ffffffffffffffff8211171561130f5761130e6112b8565b5b80604052505050565b6000611322611098565b905061132e82826112e7565b919050565b600080fd5b60006040828403121561134e5761134d6112a2565b5b6113586040611318565b90506000611368848285016110cd565b600083015250602061137c84828501611103565b60208301525092915050565b600067ffffffffffffffff8211156113a3576113a26112b8565b5b602082029050602081019050919050565b60006113c76113c284611388565b611318565b905080838252602082019050602084028301858111156113ea576113e9611122565b5b835b8181101561141357806113ff8882611103565b8452602084019350506020810190506113ec565b5050509392505050565b600082601f83011261143257611431611118565b5b81356114428482602086016113b4565b91505092915050565b600060608284031215611461576114606112a2565b5b61146b6060611318565b9050600082013567ffffffffffffffff81111561148b5761148a611333565b5b6114978482850161141d565b60008301525060206114ab848285016110cd565b60208301525060406114bf848285016110cd565b60408301525092915050565b6000806000608084860312156114e4576114e36110a2565b5b60006114f2868287016110cd565b935050602061150386828701611338565b925050606084013567ffffffffffffffff811115611524576115236110a7565b5b6115308682870161144b565b9150509250925092565b60008115159050919050565b61154f8161153a565b82525050565b600060208201905061156a6000830184611546565b92915050565b611579816110e2565b82525050565b60006020820190506115946000830184611570565b92915050565b6000602082840312156115b0576115af6110a2565b5b60006115be848285016110cd565b91505092915050565b6115d0816110ac565b82525050565b60006020820190506115eb60008301846115c7565b92915050565b600080600080600080600060a0888a0312156116105761160f6110a2565b5b600061161e8a828b016110cd565b975050602061162f8a828b016110cd565b96505060406116408a828b01611103565b955050606088013567ffffffffffffffff811115611661576116606110a7565b5b61166d8a828b01611127565b9450945050608088013567ffffffffffffffff8111156116905761168f6110a7565b5b61169c8a828b0161117d565b925092505092959891949750929550565b7f4e487b7100000000000000000000000000000000000000000000000000000000600052601160045260246000fd5b60006116e7826110ac565b91506116f2836110ac565b925082820190508082111561170a576117096116ad565b5b92915050565b600060408201905061172560008301856115c7565b6117326020830184611570565b9392505050565b611742816110ac565b82525050565b611751816110e2565b82525050565b60408201600082015161176d6000850182611739565b5060208201516117806020850182611748565b50505050565b600060408201905061179b6000830184611757565b92915050565b600082825260208201905092915050565b6000819050919050565b600073ffffffffffffffffffffffffffffffffffffffff82169050919050565b60006117e7826117bc565b9050919050565b6117f7816117dc565b811461180257600080fd5b50565b600081359050611814816117ee565b92915050565b60006118296020840184611805565b905092915050565b61183a816117dc565b82525050565b600061184f60208401846110cd565b905092915050565b60408201611868600083018361181a565b6118756000850182611831565b506118836020830183611840565b6118906020850182611739565b50505050565b60006118a28383611857565b60408301905092915050565b600082905092915050565b6000604082019050919050565b60006118d283856117a1565b93506118dd826117b2565b8060005b85811015611916576118f382846118ae565b6118fd8882611896565b9750611908836118b9565b9250506001810190506118e1565b5085925050509392505050565b6000602082019050818103600083015261193e8184866118c6565b90509392505050565b600060808201905061195c6000830187611570565b61196960208301866115c7565b61197660408301856115c7565b6119836060830184611570565b95945050505050565b7f4e487b7100000000000000000000000000000000000000000000000000000000600052603260045260246000fd5b6000602082840312156119d1576119d06110a2565b5b60006119df84828501611805565b91505092915050565b60006060820190506119fd6000830186611570565b611a0a60208301856115c7565b611a176040830184611570565b949350505050565b600060ff82169050919050565b611a3581611a1f565b8114611a4057600080fd5b50565b600081359050611a5281611a2c565b92915050565b600060208284031215611a6e57611a6d6110a2565b5b6000611a7c84828501611a43565b91505092915050565b6000611a90826110ac565b9150611a9b836110ac565b9250828203905081811115611ab357611ab26116ad565b5b92915050565b60007fff0000000000000000000000000000000000000000000000000000000000000082169050919050565b6000819050919050565b611b00611afb82611ab9565b611ae5565b82525050565b600081519050919050565b600081905092915050565b60005b83811015611b3a578082015181840152602081019050611b1f565b60008484015250505050565b6000611b5182611b06565b611b5b8185611b11565b9350611b6b818560208601611b1c565b80840191505092915050565b6000611b838285611aef565b600182019150611b938284611b46565b91508190509392505050565b6000611bab8284611b46565b915081905092915050565b600081519050611bc5816110ec565b92915050565b600060208284031215611be157611be06110a2565b5b6000611bef84828501611bb6565b91505092915050565b600082825260208201905092915050565b7f63616e6e6f742063616c6c20636f6d70757465526f6f7448617368207769746860008201527f2030206e756d626572206f66206c656176657300000000000000000000000000602082015250565b6000611c65603383611bf8565b9150611c7082611c09565b604082019050919050565b60006020820190508181036000830152611c9481611c58565b9050919050565b7f756e657870656374656420696e6e657220686173686573000000000000000000600082015250565b6000611cd1601783611bf8565b9150611cdc82611c9b565b602082019050919050565b60006020820190508181036000830152611d0081611cc4565b9050919050565b7f6578706563746564206174206c65617374206f6e6520696e6e65722068617368600082015250565b6000611d3d602083611bf8565b9150611d4882611d07565b602082019050919050565b60006020820190508181036000830152611d6c81611d30565b9050919050565b7f496e76616c69642072616e67653a205f626567696e206973206772656174657260008201527f207468616e205f656e6400000000000000000000000000000000000000000000602082015250565b6000611dcf602a83611bf8565b9150611dda82611d73565b604082019050919050565b60006020820190508181036000830152611dfe81611dc2565b9050919050565b7f496e76616c69642072616e67653a205f626567696e206f72205f656e6420617260008201527f65206f7574206f6620626f756e64730000000000000000000000000000000000602082015250565b6000611e61602f83611bf8565b9150611e6c82611e05565b604082019050919050565b60006020820190508181036000830152611e9081611e54565b9050919050565b6000819050919050565b611eb2611ead826110e2565b611e97565b82525050565b6000611ec48286611aef565b600182019150611ed48285611ea1565b602082019150611ee48284611ea1565b602082019150819050949350505050565b611efe81611a1f565b82525050565b6000608082019050611f196000830187611570565b611f266020830186611ef5565b611f336040830185611570565b611f406060830184611570565b95945050505050565b7f4e487b7100000000000000000000000000000000000000000000000000000000600052602160045260246000fd5b6000611f83826110ac565b91507fffffffffffffffffffffffffffffffffffffffffffffffffffffffffffffffff8203611fb557611fb46116ad565b5b60018201905091905056fea2646970667358221220c7d868205c38866bfad105a812540dc8eec99d55731f8b4abbc7e3fc496eb5f564736f6c63430008160033","opcodes":"PUSH1 0x80 PUSH1 0x40 MSTORE CALLVALUE DUP1 ISZERO PUSH3 0x11 JUMPI PUSH1 0x0 DUP1 REVERT JUMPDEST POP PUSH1 0x40 MLOAD PUSH3 0x2132 CODESIZE SUB DUP1 PUSH3 0x2132 DUP4 CODECOPY DUP2 DUP2 ADD PUSH1 0x40 MSTORE DUP2 ADD SWAP1 PUSH3 0x37 SWAP2 SWAP1 PUSH3 0xD0 JUMP JUMPDEST DUP3 PUSH1 0x2 DUP2 SWAP1 SSTORE POP DUP1 PUSH1 0x0 DUP2 SWAP1 SSTORE POP DUP2 PUSH1 0x1 DUP2 SWAP1 SSTORE POP POP POP POP PUSH3 0x12C JUMP JUMPDEST PUSH1 0x0 DUP1 REVERT JUMPDEST PUSH1 0x0 DUP2 SWAP1 POP SWAP2 SWAP1 POP JUMP JUMPDEST PUSH3 0x6F DUP2 PUSH3 0x5A JUMP JUMPDEST DUP2 EQ PUSH3 0x7B JUMPI PUSH1 0x0 DUP1 REVERT JUMPDEST POP JUMP JUMPDEST PUSH1 0x0 DUP2 MLOAD SWAP1 POP PUSH3 0x8F DUP2 PUSH3 0x64 JUMP JUMPDEST SWAP3 SWAP2 POP POP JUMP JUMPDEST PUSH1 0x0 DUP2 SWAP1 POP SWAP2 SWAP1 POP JUMP JUMPDEST PUSH3 0xAA DUP2 PUSH3 0x95 JUMP JUMPDEST DUP2 EQ PUSH3 0xB6 JUMPI PUSH1 0x0 DUP1 REVERT JUMPDEST POP JUMP JUMPDEST PUSH1 0x0 DUP2 MLOAD SWAP1 POP PUSH3 0xCA DUP2 PUSH3 0x9F JUMP JUMPDEST SWAP3 SWAP2 POP POP JUMP JUMPDEST PUSH1 0x0 DUP1 PUSH1 0x0 PUSH1 0x60 DUP5 DUP7 SUB SLT ISZERO PUSH3 0xEC JUMPI PUSH3 0xEB PUSH3 0x55 JUMP JUMPDEST JUMPDEST PUSH1 0x0 PUSH3 0xFC DUP7 DUP3 DUP8 ADD PUSH3 0x7E JUMP JUMPDEST SWAP4 POP POP PUSH1 0x20 PUSH3 0x10F DUP7 DUP3 DUP8 ADD PUSH3 0x7E JUMP JUMPDEST SWAP3 POP POP PUSH1 0x40 PUSH3 0x122 DUP7 DUP3 DUP8 ADD PUSH3 0xB9 JUMP JUMPDEST SWAP2 POP POP SWAP3 POP SWAP3 POP SWAP3 JUMP JUMPDEST PUSH2 0x1FF6 DUP1 PUSH3 0x13C PUSH1 0x0 CODECOPY PUSH1 0x0 RETURN INVALID PUSH1 0x80 PUSH1 0x40 MSTORE CALLVALUE DUP1 ISZERO PUSH2 0x10 JUMPI PUSH1 0x0 DUP1 REVERT JUMPDEST POP PUSH1 0x4 CALLDATASIZE LT PUSH2 0x7D JUMPI PUSH1 0x0 CALLDATALOAD PUSH1 0xE0 SHR DUP1 PUSH4 0x817F985B GT PUSH2 0x5B JUMPI DUP1 PUSH4 0x817F985B EQ PUSH2 0xEC JUMPI DUP1 PUSH4 0xCDADE866 EQ PUSH2 0x11C JUMPI DUP1 PUSH4 0xE23EB326 EQ PUSH2 0x13A JUMPI DUP1 PUSH4 0xE5A2B5D2 EQ PUSH2 0x156 JUMPI PUSH2 0x7D JUMP JUMPDEST DUP1 PUSH4 0x5D85C13 EQ PUSH2 0x82 JUMPI DUP1 PUSH4 0x1F3302A9 EQ PUSH2 0x9E JUMPI DUP1 PUSH4 0x5433218C EQ PUSH2 0xCE JUMPI JUMPDEST PUSH1 0x0 DUP1 REVERT JUMPDEST PUSH2 0x9C PUSH1 0x4 DUP1 CALLDATASIZE SUB DUP2 ADD SWAP1 PUSH2 0x97 SWAP2 SWAP1 PUSH2 0x11D3 JUMP JUMPDEST PUSH2 0x174 JUMP JUMPDEST STOP JUMPDEST PUSH2 0xB8 PUSH1 0x4 DUP1 CALLDATASIZE SUB DUP2 ADD SWAP1 PUSH2 0xB3 SWAP2 SWAP1 PUSH2 0x14CB JUMP JUMPDEST PUSH2 0x2D8 JUMP JUMPDEST PUSH1 0x40 MLOAD PUSH2 0xC5 SWAP2 SWAP1 PUSH2 0x1555 JUMP JUMPDEST PUSH1 0x40 MLOAD DUP1 SWAP2 SUB SWAP1 RETURN JUMPDEST PUSH2 0xD6 PUSH2 0x340 JUMP JUMPDEST PUSH1 0x40 MLOAD PUSH2 0xE3 SWAP2 SWAP1 PUSH2 0x157F JUMP JUMPDEST PUSH1 0x40 MLOAD DUP1 SWAP2 SUB SWAP1 RETURN JUMPDEST PUSH2 0x106 PUSH1 0x4 DUP1 CALLDATASIZE SUB DUP2 ADD SWAP1 PUSH2 0x101 SWAP2 SWAP1 PUSH2 0x159A JUMP JUMPDEST PUSH2 0x346 JUMP JUMPDEST PUSH1 0x40 MLOAD PUSH2 0x113 SWAP2 SWAP1 PUSH2 0x157F JUMP JUMPDEST PUSH1 0x40 MLOAD DUP1 SWAP2 SUB SWAP1 RETURN JUMPDEST PUSH2 0x124 PUSH2 0x35E JUMP JUMPDEST PUSH1 0x40 MLOAD PUSH2 0x131 SWAP2 SWAP1 PUSH2 0x15D6 JUMP JUMPDEST PUSH1 0x40 MLOAD DUP1 SWAP2 SUB SWAP1 RETURN JUMPDEST PUSH2 0x154 PUSH1 0x4 DUP1 CALLDATASIZE SUB DUP2 ADD SWAP1 PUSH2 0x14F SWAP2 SWAP1 PUSH2 0x15F1 JUMP JUMPDEST PUSH2 0x364 JUMP JUMPDEST STOP JUMPDEST PUSH2 0x15E PUSH2 0x4CE JUMP JUMPDEST PUSH1 0x40 MLOAD PUSH2 0x16B SWAP2 SWAP1 PUSH2 0x15D6 JUMP JUMPDEST PUSH1 0x40 MLOAD DUP1 SWAP2 SUB SWAP1 RETURN JUMPDEST PUSH1 0x0 PUSH1 0x2 SLOAD SWAP1 POP PUSH1 0x0 PUSH1 0x1 SLOAD SWAP1 POP PUSH1 0x0 DUP1 SLOAD SWAP1 POP PUSH1 0x1 DUP4 PUSH2 0x195 SWAP2 SWAP1 PUSH2 0x16DC JUMP JUMPDEST DUP12 EQ PUSH2 0x1CD JUMPI PUSH1 0x40 MLOAD PUSH32 0xD146BFFA00000000000000000000000000000000000000000000000000000000 DUP2 MSTORE PUSH1 0x4 ADD PUSH1 0x40 MLOAD DUP1 SWAP2 SUB SWAP1 REVERT JUMPDEST DUP5 DUP5 SWAP1 POP DUP8 DUP8 SWAP1 POP EQ PUSH2 0x20C JUMPI PUSH1 0x40 MLOAD PUSH32 0xC6617B7B00000000000000000000000000000000000000000000000000000000 DUP2 MSTORE PUSH1 0x4 ADD PUSH1 0x40 MLOAD DUP1 SWAP2 SUB SWAP1 REVERT JUMPDEST PUSH1 0x0 PUSH2 0x218 DUP9 DUP9 PUSH2 0x4D4 JUMP JUMPDEST SWAP1 POP DUP2 PUSH2 0x226 DUP13 DUP6 DUP5 PUSH2 0x507 JUMP JUMPDEST EQ PUSH2 0x25D JUMPI PUSH1 0x40 MLOAD PUSH32 0x177B5D9200000000000000000000000000000000000000000000000000000000 DUP2 MSTORE PUSH1 0x4 ADD PUSH1 0x40 MLOAD DUP1 SWAP2 SUB SWAP1 REVERT JUMPDEST PUSH1 0x0 PUSH2 0x26A DUP14 DUP13 DUP13 PUSH2 0x507 JUMP JUMPDEST SWAP1 POP PUSH2 0x27A DUP10 DUP10 DUP10 DUP10 DUP6 DUP10 PUSH2 0x567 JUMP JUMPDEST DUP1 PUSH1 0x0 DUP2 SWAP1 SSTORE POP DUP11 PUSH1 0x1 DUP2 SWAP1 SSTORE POP DUP13 PUSH1 0x2 DUP2 SWAP1 SSTORE POP DUP13 PUSH32 0xE55FB3CBBFE29B13C7F8A35EF23127E7DF9AB88DF16BAC166AD254A20F02414C DUP13 DUP13 PUSH1 0x40 MLOAD PUSH2 0x2C1 SWAP3 SWAP2 SWAP1 PUSH2 0x1710 JUMP JUMPDEST PUSH1 0x40 MLOAD DUP1 SWAP2 SUB SWAP1 LOG2 POP POP POP POP POP POP POP POP POP POP POP POP POP JUMP JUMPDEST PUSH1 0x0 PUSH1 0x2 SLOAD DUP5 GT ISZERO PUSH2 0x2ED JUMPI PUSH1 0x0 SWAP1 POP PUSH2 0x339 JUMP JUMPDEST PUSH1 0x0 PUSH1 0x3 PUSH1 0x0 DUP7 DUP2 MSTORE PUSH1 0x20 ADD SWAP1 DUP2 MSTORE PUSH1 0x20 ADD PUSH1 0x0 KECCAK256 SLOAD SWAP1 POP PUSH1 0x0 PUSH2 0x331 DUP3 DUP6 DUP8 PUSH1 0x40 MLOAD PUSH1 0x20 ADD PUSH2 0x31D SWAP2 SWAP1 PUSH2 0x1786 JUMP JUMPDEST PUSH1 0x40 MLOAD PUSH1 0x20 DUP2 DUP4 SUB SUB DUP2 MSTORE SWAP1 PUSH1 0x40 MSTORE PUSH2 0x6A2 JUMP JUMPDEST SWAP1 POP DUP1 SWAP3 POP POP POP JUMPDEST SWAP4 SWAP3 POP POP POP JUMP JUMPDEST PUSH1 0x0 SLOAD DUP2 JUMP JUMPDEST PUSH1 0x3 PUSH1 0x20 MSTORE DUP1 PUSH1 0x0 MSTORE PUSH1 0x40 PUSH1 0x0 KECCAK256 PUSH1 0x0 SWAP2 POP SWAP1 POP SLOAD DUP2 JUMP JUMPDEST PUSH1 0x2 SLOAD DUP2 JUMP JUMPDEST PUSH1 0x0 PUSH1 0x2 SLOAD SWAP1 POP PUSH1 0x0 PUSH1 0x1 SLOAD SWAP1 POP PUSH1 0x0 DUP1 SLOAD SWAP1 POP PUSH1 0x1 DUP4 PUSH2 0x385 SWAP2 SWAP1 PUSH2 0x16DC JUMP JUMPDEST DUP11 EQ PUSH2 0x3BD JUMPI PUSH1 0x40 MLOAD PUSH32 0xE869766D00000000000000000000000000000000000000000000000000000000 DUP2 MSTORE PUSH1 0x4 ADD PUSH1 0x40 MLOAD DUP1 SWAP2 SUB SWAP1 REVERT JUMPDEST DUP5 DUP5 SWAP1 POP DUP8 DUP8 SWAP1 POP EQ PUSH2 0x3FC JUMPI PUSH1 0x40 MLOAD PUSH32 0xC6617B7B00000000000000000000000000000000000000000000000000000000 DUP2 MSTORE PUSH1 0x4 ADD PUSH1 0x40 MLOAD DUP1 SWAP2 SUB SWAP1 REVERT JUMPDEST PUSH1 0x0 PUSH2 0x408 DUP9 DUP9 PUSH2 0x4D4 JUMP JUMPDEST SWAP1 POP DUP2 PUSH2 0x416 DUP12 DUP6 DUP5 PUSH2 0x507 JUMP JUMPDEST EQ PUSH2 0x44D JUMPI PUSH1 0x40 MLOAD PUSH32 0x177B5D9200000000000000000000000000000000000000000000000000000000 DUP2 MSTORE PUSH1 0x4 ADD PUSH1 0x40 MLOAD DUP1 SWAP2 SUB SWAP1 REVERT JUMPDEST PUSH1 0x0 PUSH2 0x459 DUP13 DUP12 PUSH2 0x770 JUMP JUMPDEST SWAP1 POP PUSH2 0x469 DUP10 DUP10 DUP10 DUP10 DUP6 DUP10 PUSH2 0x567 JUMP JUMPDEST DUP12 PUSH1 0x2 DUP2 SWAP1 SSTORE POP DUP10 PUSH1 0x3 PUSH1 0x0 DUP15 DUP2 MSTORE PUSH1 0x20 ADD SWAP1 DUP2 MSTORE PUSH1 0x20 ADD PUSH1 0x0 KECCAK256 DUP2 SWAP1 SSTORE POP DUP12 PUSH32 0x6614D037BDE4905E31CA5FF05DE61964C267F28B0320ED49E59F7D99752E1C4F DUP12 PUSH1 0x40 MLOAD PUSH2 0x4B8 SWAP2 SWAP1 PUSH2 0x157F JUMP JUMPDEST PUSH1 0x40 MLOAD DUP1 SWAP2 SUB SWAP1 LOG2 POP POP POP POP POP POP POP POP POP POP POP POP JUMP JUMPDEST PUSH1 0x1 SLOAD DUP2 JUMP JUMPDEST PUSH1 0x0 DUP3 DUP3 PUSH1 0x40 MLOAD PUSH1 0x20 ADD PUSH2 0x4E9 SWAP3 SWAP2 SWAP1 PUSH2 0x1923 JUMP JUMPDEST PUSH1 0x40 MLOAD PUSH1 0x20 DUP2 DUP4 SUB SUB DUP2 MSTORE SWAP1 PUSH1 0x40 MSTORE DUP1 MLOAD SWAP1 PUSH1 0x20 ADD KECCAK256 SWAP1 POP SWAP3 SWAP2 POP POP JUMP JUMPDEST PUSH1 0x0 DUP1 PUSH32 0x636865636B706F696E7400000000000000000000000000000000000000000000 PUSH1 0x0 SHL DUP6 DUP6 DUP6 PUSH1 0x40 MLOAD PUSH1 0x20 ADD PUSH2 0x544 SWAP5 SWAP4 SWAP3 SWAP2 SWAP1 PUSH2 0x1947 JUMP JUMPDEST PUSH1 0x40 MLOAD PUSH1 0x20 DUP2 DUP4 SUB SUB DUP2 MSTORE SWAP1 PUSH1 0x40 MSTORE DUP1 MLOAD SWAP1 PUSH1 0x20 ADD KECCAK256 SWAP1 POP DUP1 SWAP2 POP POP SWAP4 SWAP3 POP POP POP JUMP JUMPDEST PUSH1 0x0 DUP1 JUMPDEST DUP8 DUP8 SWAP1 POP DUP2 LT ISZERO PUSH2 0x65E JUMPI PUSH2 0x597 DUP7 DUP7 DUP4 DUP2 DUP2 LT PUSH2 0x58C JUMPI PUSH2 0x58B PUSH2 0x198C JUMP JUMPDEST JUMPDEST SWAP1 POP PUSH1 0x60 MUL ADD PUSH2 0x7CD JUMP JUMPDEST PUSH2 0x651 JUMPI PUSH2 0x5E8 DUP9 DUP9 DUP4 DUP2 DUP2 LT PUSH2 0x5B1 JUMPI PUSH2 0x5B0 PUSH2 0x198C JUMP JUMPDEST JUMPDEST SWAP1 POP PUSH1 0x40 MUL ADD PUSH1 0x0 ADD PUSH1 0x20 DUP2 ADD SWAP1 PUSH2 0x5C9 SWAP2 SWAP1 PUSH2 0x19BB JUMP JUMPDEST DUP6 DUP9 DUP9 DUP6 DUP2 DUP2 LT PUSH2 0x5DD JUMPI PUSH2 0x5DC PUSH2 0x198C JUMP JUMPDEST JUMPDEST SWAP1 POP PUSH1 0x60 MUL ADD PUSH2 0x813 JUMP JUMPDEST PUSH2 0x61E JUMPI PUSH1 0x40 MLOAD PUSH32 0x8BAA579F00000000000000000000000000000000000000000000000000000000 DUP2 MSTORE PUSH1 0x4 ADD PUSH1 0x40 MLOAD DUP1 SWAP2 SUB SWAP1 REVERT JUMPDEST DUP8 DUP8 DUP3 DUP2 DUP2 LT PUSH2 0x631 JUMPI PUSH2 0x630 PUSH2 0x198C JUMP JUMPDEST JUMPDEST SWAP1 POP PUSH1 0x40 MUL ADD PUSH1 0x20 ADD CALLDATALOAD DUP3 PUSH2 0x646 SWAP2 SWAP1 PUSH2 0x16DC JUMP JUMPDEST SWAP2 POP DUP3 DUP3 LT ISZERO PUSH2 0x65E JUMPI JUMPDEST DUP1 DUP1 PUSH1 0x1 ADD SWAP2 POP POP PUSH2 0x56B JUMP JUMPDEST POP DUP2 DUP2 LT ISZERO PUSH2 0x699 JUMPI PUSH1 0x40 MLOAD PUSH32 0xCABEB65500000000000000000000000000000000000000000000000000000000 DUP2 MSTORE PUSH1 0x4 ADD PUSH1 0x40 MLOAD DUP1 SWAP2 SUB SWAP1 REVERT JUMPDEST POP POP POP POP POP POP POP JUMP JUMPDEST PUSH1 0x0 PUSH1 0x1 DUP4 PUSH1 0x40 ADD MLOAD GT PUSH2 0x6CB JUMPI PUSH1 0x0 DUP4 PUSH1 0x0 ADD MLOAD MLOAD EQ PUSH2 0x6C6 JUMPI PUSH1 0x0 SWAP1 POP PUSH2 0x769 JUMP JUMPDEST PUSH2 0x6F2 JUMP JUMPDEST PUSH2 0x6DD DUP4 PUSH1 0x20 ADD MLOAD DUP5 PUSH1 0x40 ADD MLOAD PUSH2 0x87F JUMP JUMPDEST DUP4 PUSH1 0x0 ADD MLOAD MLOAD EQ PUSH2 0x6F1 JUMPI PUSH1 0x0 SWAP1 POP PUSH2 0x769 JUMP JUMPDEST JUMPDEST DUP3 PUSH1 0x40 ADD MLOAD DUP4 PUSH1 0x20 ADD MLOAD LT PUSH2 0x70A JUMPI PUSH1 0x0 SWAP1 POP PUSH2 0x769 JUMP JUMPDEST PUSH1 0x0 PUSH2 0x715 DUP4 PUSH2 0x90F JUMP JUMPDEST SWAP1 POP PUSH1 0x0 DUP5 PUSH1 0x0 ADD MLOAD MLOAD SUB PUSH2 0x745 JUMPI PUSH1 0x1 DUP5 PUSH1 0x40 ADD MLOAD SUB PUSH2 0x73B JUMPI DUP1 DUP6 EQ SWAP2 POP POP PUSH2 0x769 JUMP JUMPDEST PUSH1 0x0 SWAP2 POP POP PUSH2 0x769 JUMP JUMPDEST PUSH1 0x0 PUSH2 0x75F DUP6 PUSH1 0x20 ADD MLOAD DUP7 PUSH1 0x40 ADD MLOAD DUP5 DUP9 PUSH1 0x0 ADD MLOAD PUSH2 0x98D JUMP JUMPDEST SWAP1 POP DUP6 DUP2 EQ SWAP3 POP POP POP JUMPDEST SWAP4 SWAP3 POP POP POP JUMP JUMPDEST PUSH1 0x0 DUP1 PUSH32 0x7472616E73616374696F6E426174636800000000000000000000000000000000 PUSH1 0x0 SHL DUP5 DUP5 PUSH1 0x40 MLOAD PUSH1 0x20 ADD PUSH2 0x7AB SWAP4 SWAP3 SWAP2 SWAP1 PUSH2 0x19E8 JUMP JUMPDEST PUSH1 0x40 MLOAD PUSH1 0x20 DUP2 DUP4 SUB SUB DUP2 MSTORE SWAP1 PUSH1 0x40 MSTORE DUP1 MLOAD SWAP1 PUSH1 0x20 ADD KECCAK256 SWAP1 POP DUP1 SWAP2 POP POP SWAP3 SWAP2 POP POP JUMP JUMPDEST PUSH1 0x0 DUP1 PUSH1 0x0 SHL DUP3 PUSH1 0x20 ADD CALLDATALOAD EQ DUP1 ISZERO PUSH2 0x7EB JUMPI POP PUSH1 0x0 DUP1 SHL DUP3 PUSH1 0x40 ADD CALLDATALOAD EQ JUMPDEST DUP1 ISZERO PUSH2 0x80C JUMPI POP PUSH1 0x0 DUP3 PUSH1 0x0 ADD PUSH1 0x20 DUP2 ADD SWAP1 PUSH2 0x807 SWAP2 SWAP1 PUSH2 0x1A58 JUMP JUMPDEST PUSH1 0xFF AND EQ JUMPDEST SWAP1 POP SWAP2 SWAP1 POP JUMP JUMPDEST PUSH1 0x0 DUP1 PUSH2 0x81F DUP5 PUSH2 0xB4B JUMP JUMPDEST SWAP1 POP PUSH2 0x847 DUP2 DUP5 PUSH1 0x0 ADD PUSH1 0x20 DUP2 ADD SWAP1 PUSH2 0x838 SWAP2 SWAP1 PUSH2 0x1A58 JUMP JUMPDEST DUP6 PUSH1 0x20 ADD CALLDATALOAD DUP7 PUSH1 0x40 ADD CALLDATALOAD PUSH2 0xB81 JUMP JUMPDEST PUSH20 0xFFFFFFFFFFFFFFFFFFFFFFFFFFFFFFFFFFFFFFFF AND DUP6 PUSH20 0xFFFFFFFFFFFFFFFFFFFFFFFFFFFFFFFFFFFFFFFF AND EQ SWAP2 POP POP SWAP4 SWAP3 POP POP POP JUMP JUMPDEST PUSH1 0x0 PUSH2 0x88A DUP3 PUSH2 0xBB1 JUMP JUMPDEST PUSH2 0x100 PUSH2 0x897 SWAP2 SWAP1 PUSH2 0x1A85 JUMP JUMPDEST SWAP1 POP PUSH1 0x0 PUSH1 0x1 DUP3 PUSH2 0x8A8 SWAP2 SWAP1 PUSH2 0x1A85 JUMP JUMPDEST PUSH1 0x1 SWAP1 SHL SWAP1 POP PUSH1 0x1 DUP2 PUSH2 0x8BB SWAP2 SWAP1 PUSH2 0x1A85 JUMP JUMPDEST DUP5 GT PUSH2 0x8C7 JUMPI POP PUSH2 0x909 JUMP JUMPDEST PUSH1 0x1 DUP2 SUB PUSH2 0x8D9 JUMPI PUSH1 0x1 SWAP2 POP POP PUSH2 0x909 JUMP JUMPDEST PUSH2 0x8F9 DUP2 DUP6 PUSH2 0x8E8 SWAP2 SWAP1 PUSH2 0x1A85 JUMP JUMPDEST DUP3 DUP6 PUSH2 0x8F4 SWAP2 SWAP1 PUSH2 0x1A85 JUMP JUMPDEST PUSH2 0x87F JUMP JUMPDEST PUSH1 0x1 PUSH2 0x905 SWAP2 SWAP1 PUSH2 0x16DC JUMP JUMPDEST SWAP2 POP POP JUMPDEST SWAP3 SWAP2 POP POP JUMP JUMPDEST PUSH1 0x0 PUSH1 0x2 PUSH1 0x0 PUSH1 0xF8 SHL DUP4 PUSH1 0x40 MLOAD PUSH1 0x20 ADD PUSH2 0x92A SWAP3 SWAP2 SWAP1 PUSH2 0x1B77 JUMP JUMPDEST PUSH1 0x40 MLOAD PUSH1 0x20 DUP2 DUP4 SUB SUB DUP2 MSTORE SWAP1 PUSH1 0x40 MSTORE PUSH1 0x40 MLOAD PUSH2 0x946 SWAP2 SWAP1 PUSH2 0x1B9F JUMP JUMPDEST PUSH1 0x20 PUSH1 0x40 MLOAD DUP1 DUP4 SUB DUP2 DUP6 GAS STATICCALL ISZERO DUP1 ISZERO PUSH2 0x963 JUMPI RETURNDATASIZE PUSH1 0x0 DUP1 RETURNDATACOPY RETURNDATASIZE PUSH1 0x0 REVERT JUMPDEST POP POP POP PUSH1 0x40 MLOAD RETURNDATASIZE PUSH1 0x1F NOT PUSH1 0x1F DUP3 ADD AND DUP3 ADD DUP1 PUSH1 0x40 MSTORE POP DUP2 ADD SWAP1 PUSH2 0x986 SWAP2 SWAP1 PUSH2 0x1BCB JUMP JUMPDEST SWAP1 POP SWAP2 SWAP1 POP JUMP JUMPDEST PUSH1 0x0 DUP1 DUP5 SUB PUSH2 0x9D1 JUMPI PUSH1 0x40 MLOAD PUSH32 0x8C379A000000000000000000000000000000000000000000000000000000000 DUP2 MSTORE PUSH1 0x4 ADD PUSH2 0x9C8 SWAP1 PUSH2 0x1C7B JUMP JUMPDEST PUSH1 0x40 MLOAD DUP1 SWAP2 SUB SWAP1 REVERT JUMPDEST PUSH1 0x1 DUP5 SUB PUSH2 0xA25 JUMPI PUSH1 0x0 DUP3 MLOAD EQ PUSH2 0xA1D JUMPI PUSH1 0x40 MLOAD PUSH32 0x8C379A000000000000000000000000000000000000000000000000000000000 DUP2 MSTORE PUSH1 0x4 ADD PUSH2 0xA14 SWAP1 PUSH2 0x1CE7 JUMP JUMPDEST PUSH1 0x40 MLOAD DUP1 SWAP2 SUB SWAP1 REVERT JUMPDEST DUP3 SWAP1 POP PUSH2 0xB43 JUMP JUMPDEST PUSH1 0x0 DUP3 MLOAD SUB PUSH2 0xA69 JUMPI PUSH1 0x40 MLOAD PUSH32 0x8C379A000000000000000000000000000000000000000000000000000000000 DUP2 MSTORE PUSH1 0x4 ADD PUSH2 0xA60 SWAP1 PUSH2 0x1D53 JUMP JUMPDEST PUSH1 0x40 MLOAD DUP1 SWAP2 SUB SWAP1 REVERT JUMPDEST PUSH1 0x0 PUSH2 0xA74 DUP6 PUSH2 0xBE9 JUMP JUMPDEST SWAP1 POP PUSH1 0x0 PUSH2 0xA91 DUP5 PUSH1 0x0 PUSH1 0x1 DUP8 MLOAD PUSH2 0xA8C SWAP2 SWAP1 PUSH2 0x1A85 JUMP JUMPDEST PUSH2 0xC34 JUMP JUMPDEST SWAP1 POP DUP2 DUP8 LT ISZERO PUSH2 0xAE6 JUMPI PUSH1 0x0 PUSH2 0xAA9 DUP9 DUP5 DUP9 DUP6 PUSH2 0x98D JUMP JUMPDEST SWAP1 POP PUSH2 0xADC DUP2 DUP7 PUSH1 0x1 DUP9 MLOAD PUSH2 0xABE SWAP2 SWAP1 PUSH2 0x1A85 JUMP JUMPDEST DUP2 MLOAD DUP2 LT PUSH2 0xACF JUMPI PUSH2 0xACE PUSH2 0x198C JUMP JUMPDEST JUMPDEST PUSH1 0x20 MUL PUSH1 0x20 ADD ADD MLOAD PUSH2 0xD8C JUMP JUMPDEST SWAP4 POP POP POP POP PUSH2 0xB43 JUMP JUMPDEST PUSH1 0x0 PUSH2 0xB0A DUP4 DUP10 PUSH2 0xAF7 SWAP2 SWAP1 PUSH2 0x1A85 JUMP JUMPDEST DUP5 DUP10 PUSH2 0xB03 SWAP2 SWAP1 PUSH2 0x1A85 JUMP JUMPDEST DUP9 DUP6 PUSH2 0x98D JUMP JUMPDEST SWAP1 POP PUSH2 0xB3D DUP6 PUSH1 0x1 DUP8 MLOAD PUSH2 0xB1E SWAP2 SWAP1 PUSH2 0x1A85 JUMP JUMPDEST DUP2 MLOAD DUP2 LT PUSH2 0xB2F JUMPI PUSH2 0xB2E PUSH2 0x198C JUMP JUMPDEST JUMPDEST PUSH1 0x20 MUL PUSH1 0x20 ADD ADD MLOAD DUP3 PUSH2 0xD8C JUMP JUMPDEST SWAP4 POP POP POP POP JUMPDEST SWAP5 SWAP4 POP POP POP POP JUMP JUMPDEST PUSH1 0x0 PUSH32 0x19457468657265756D205369676E6564204D6573736167653A0A333200000000 PUSH1 0x0 MSTORE DUP2 PUSH1 0x1C MSTORE PUSH1 0x3C PUSH1 0x0 KECCAK256 SWAP1 POP SWAP2 SWAP1 POP JUMP JUMPDEST PUSH1 0x0 DUP1 PUSH1 0x0 DUP1 PUSH2 0xB93 DUP9 DUP9 DUP9 DUP9 PUSH2 0xE0D JUMP JUMPDEST SWAP3 POP SWAP3 POP SWAP3 POP PUSH2 0xBA3 DUP3 DUP3 PUSH2 0xF01 JUMP JUMPDEST DUP3 SWAP4 POP POP POP POP SWAP5 SWAP4 POP POP POP POP JUMP JUMPDEST PUSH1 0x0 JUMPDEST DUP2 DUP2 PUSH1 0x1 SWAP1 SHL LT ISZERO PUSH2 0xBD4 JUMPI PUSH1 0x1 DUP2 PUSH2 0xBCD SWAP2 SWAP1 PUSH2 0x16DC JUMP JUMPDEST SWAP1 POP PUSH2 0xBB4 JUMP JUMPDEST DUP1 PUSH2 0x100 PUSH2 0xBE2 SWAP2 SWAP1 PUSH2 0x1A85 JUMP JUMPDEST SWAP1 POP SWAP2 SWAP1 POP JUMP JUMPDEST PUSH1 0x0 PUSH1 0x1 DUP3 LT ISZERO PUSH2 0xBF9 JUMPI PUSH1 0x0 DUP1 REVERT JUMPDEST PUSH1 0x0 PUSH2 0xC04 DUP4 PUSH2 0x1065 JUMP JUMPDEST SWAP1 POP PUSH1 0x0 PUSH1 0x1 DUP3 PUSH2 0xC15 SWAP2 SWAP1 PUSH2 0x1A85 JUMP JUMPDEST PUSH1 0x1 SWAP1 SHL SWAP1 POP DUP4 DUP2 SUB PUSH2 0xC2A JUMPI PUSH1 0x1 DUP2 SWAP1 SHR SWAP1 POP JUMPDEST DUP1 SWAP3 POP POP POP SWAP2 SWAP1 POP JUMP JUMPDEST PUSH1 0x60 DUP2 DUP4 GT ISZERO PUSH2 0xC79 JUMPI PUSH1 0x40 MLOAD PUSH32 0x8C379A000000000000000000000000000000000000000000000000000000000 DUP2 MSTORE PUSH1 0x4 ADD PUSH2 0xC70 SWAP1 PUSH2 0x1DE5 JUMP JUMPDEST PUSH1 0x40 MLOAD DUP1 SWAP2 SUB SWAP1 REVERT JUMPDEST DUP4 MLOAD DUP4 GT DUP1 PUSH2 0xC88 JUMPI POP DUP4 MLOAD DUP3 GT JUMPDEST ISZERO PUSH2 0xCC8 JUMPI PUSH1 0x40 MLOAD PUSH32 0x8C379A000000000000000000000000000000000000000000000000000000000 DUP2 MSTORE PUSH1 0x4 ADD PUSH2 0xCBF SWAP1 PUSH2 0x1E77 JUMP JUMPDEST PUSH1 0x40 MLOAD DUP1 SWAP2 SUB SWAP1 REVERT JUMPDEST PUSH1 0x0 DUP4 DUP4 PUSH2 0xCD6 SWAP2 SWAP1 PUSH2 0x1A85 JUMP JUMPDEST PUSH8 0xFFFFFFFFFFFFFFFF DUP2 GT ISZERO PUSH2 0xCEF JUMPI PUSH2 0xCEE PUSH2 0x12B8 JUMP JUMPDEST JUMPDEST PUSH1 0x40 MLOAD SWAP1 DUP1 DUP3 MSTORE DUP1 PUSH1 0x20 MUL PUSH1 0x20 ADD DUP3 ADD PUSH1 0x40 MSTORE DUP1 ISZERO PUSH2 0xD1D JUMPI DUP2 PUSH1 0x20 ADD PUSH1 0x20 DUP3 MUL DUP1 CALLDATASIZE DUP4 CALLDATACOPY DUP1 DUP3 ADD SWAP2 POP POP SWAP1 POP JUMPDEST POP SWAP1 POP PUSH1 0x0 DUP5 SWAP1 POP JUMPDEST DUP4 DUP2 LT ISZERO PUSH2 0xD80 JUMPI DUP6 DUP2 DUP2 MLOAD DUP2 LT PUSH2 0xD41 JUMPI PUSH2 0xD40 PUSH2 0x198C JUMP JUMPDEST JUMPDEST PUSH1 0x20 MUL PUSH1 0x20 ADD ADD MLOAD DUP3 DUP7 DUP4 PUSH2 0xD56 SWAP2 SWAP1 PUSH2 0x1A85 JUMP JUMPDEST DUP2 MLOAD DUP2 LT PUSH2 0xD67 JUMPI PUSH2 0xD66 PUSH2 0x198C JUMP JUMPDEST JUMPDEST PUSH1 0x20 MUL PUSH1 0x20 ADD ADD DUP2 DUP2 MSTORE POP POP DUP1 DUP1 PUSH1 0x1 ADD SWAP2 POP POP PUSH2 0xD26 JUMP JUMPDEST POP DUP1 SWAP2 POP POP SWAP4 SWAP3 POP POP POP JUMP JUMPDEST PUSH1 0x0 PUSH1 0x2 PUSH1 0x1 PUSH1 0xF8 SHL DUP5 DUP5 PUSH1 0x40 MLOAD PUSH1 0x20 ADD PUSH2 0xDA9 SWAP4 SWAP3 SWAP2 SWAP1 PUSH2 0x1EB8 JUMP JUMPDEST PUSH1 0x40 MLOAD PUSH1 0x20 DUP2 DUP4 SUB SUB DUP2 MSTORE SWAP1 PUSH1 0x40 MSTORE PUSH1 0x40 MLOAD PUSH2 0xDC5 SWAP2 SWAP1 PUSH2 0x1B9F JUMP JUMPDEST PUSH1 0x20 PUSH1 0x40 MLOAD DUP1 DUP4 SUB DUP2 DUP6 GAS STATICCALL ISZERO DUP1 ISZERO PUSH2 0xDE2 JUMPI RETURNDATASIZE PUSH1 0x0 DUP1 RETURNDATACOPY RETURNDATASIZE PUSH1 0x0 REVERT JUMPDEST POP POP POP PUSH1 0x40 MLOAD RETURNDATASIZE PUSH1 0x1F NOT PUSH1 0x1F DUP3 ADD AND DUP3 ADD DUP1 PUSH1 0x40 MSTORE POP DUP2 ADD SWAP1 PUSH2 0xE05 SWAP2 SWAP1 PUSH2 0x1BCB JUMP JUMPDEST SWAP1 POP SWAP3 SWAP2 POP POP JUMP JUMPDEST PUSH1 0x0 DUP1 PUSH1 0x0 PUSH32 0x7FFFFFFFFFFFFFFFFFFFFFFFFFFFFFFF5D576E7357A4501DDFE92F46681B20A0 DUP5 PUSH1 0x0 SHR GT ISZERO PUSH2 0xE4D JUMPI PUSH1 0x0 PUSH1 0x3 DUP6 SWAP3 POP SWAP3 POP SWAP3 POP PUSH2 0xEF7 JUMP JUMPDEST PUSH1 0x0 PUSH1 0x1 DUP9 DUP9 DUP9 DUP9 PUSH1 0x40 MLOAD PUSH1 0x0 DUP2 MSTORE PUSH1 0x20 ADD PUSH1 0x40 MSTORE PUSH1 0x40 MLOAD PUSH2 0xE72 SWAP5 SWAP4 SWAP3 SWAP2 SWAP1 PUSH2 0x1F04 JUMP JUMPDEST PUSH1 0x20 PUSH1 0x40 MLOAD PUSH1 0x20 DUP2 SUB SWAP1 DUP1 DUP5 SUB SWAP1 DUP6 GAS STATICCALL ISZERO DUP1 ISZERO PUSH2 0xE94 JUMPI RETURNDATASIZE PUSH1 0x0 DUP1 RETURNDATACOPY RETURNDATASIZE PUSH1 0x0 REVERT JUMPDEST POP POP POP PUSH1 0x20 PUSH1 0x40 MLOAD SUB MLOAD SWAP1 POP PUSH1 0x0 PUSH20 0xFFFFFFFFFFFFFFFFFFFFFFFFFFFFFFFFFFFFFFFF AND DUP2 PUSH20 0xFFFFFFFFFFFFFFFFFFFFFFFFFFFFFFFFFFFFFFFF AND SUB PUSH2 0xEE8 JUMPI PUSH1 0x0 PUSH1 0x1 PUSH1 0x0 DUP1 SHL SWAP4 POP SWAP4 POP SWAP4 POP POP PUSH2 0xEF7 JUMP JUMPDEST DUP1 PUSH1 0x0 DUP1 PUSH1 0x0 SHL SWAP4 POP SWAP4 POP SWAP4 POP POP JUMPDEST SWAP5 POP SWAP5 POP SWAP5 SWAP2 POP POP JUMP JUMPDEST PUSH1 0x0 PUSH1 0x3 DUP2 GT ISZERO PUSH2 0xF15 JUMPI PUSH2 0xF14 PUSH2 0x1F49 JUMP JUMPDEST JUMPDEST DUP3 PUSH1 0x3 DUP2 GT ISZERO PUSH2 0xF28 JUMPI PUSH2 0xF27 PUSH2 0x1F49 JUMP JUMPDEST JUMPDEST SUB ISZERO PUSH2 0x1061 JUMPI PUSH1 0x1 PUSH1 0x3 DUP2 GT ISZERO PUSH2 0xF42 JUMPI PUSH2 0xF41 PUSH2 0x1F49 JUMP JUMPDEST JUMPDEST DUP3 PUSH1 0x3 DUP2 GT ISZERO PUSH2 0xF55 JUMPI PUSH2 0xF54 PUSH2 0x1F49 JUMP JUMPDEST JUMPDEST SUB PUSH2 0xF8C JUMPI PUSH1 0x40 MLOAD PUSH32 0xF645EEDF00000000000000000000000000000000000000000000000000000000 DUP2 MSTORE PUSH1 0x4 ADD PUSH1 0x40 MLOAD DUP1 SWAP2 SUB SWAP1 REVERT JUMPDEST PUSH1 0x2 PUSH1 0x3 DUP2 GT ISZERO PUSH2 0xFA0 JUMPI PUSH2 0xF9F PUSH2 0x1F49 JUMP JUMPDEST JUMPDEST DUP3 PUSH1 0x3 DUP2 GT ISZERO PUSH2 0xFB3 JUMPI PUSH2 0xFB2 PUSH2 0x1F49 JUMP JUMPDEST JUMPDEST SUB PUSH2 0xFF8 JUMPI DUP1 PUSH1 0x0 SHR PUSH1 0x40 MLOAD PUSH32 0xFCE698F700000000000000000000000000000000000000000000000000000000 DUP2 MSTORE PUSH1 0x4 ADD PUSH2 0xFEF SWAP2 SWAP1 PUSH2 0x15D6 JUMP JUMPDEST PUSH1 0x40 MLOAD DUP1 SWAP2 SUB SWAP1 REVERT JUMPDEST PUSH1 0x3 DUP1 DUP2 GT ISZERO PUSH2 0x100B JUMPI PUSH2 0x100A PUSH2 0x1F49 JUMP JUMPDEST JUMPDEST DUP3 PUSH1 0x3 DUP2 GT ISZERO PUSH2 0x101E JUMPI PUSH2 0x101D PUSH2 0x1F49 JUMP JUMPDEST JUMPDEST SUB PUSH2 0x1060 JUMPI DUP1 PUSH1 0x40 MLOAD PUSH32 0xD78BCE0C00000000000000000000000000000000000000000000000000000000 DUP2 MSTORE PUSH1 0x4 ADD PUSH2 0x1057 SWAP2 SWAP1 PUSH2 0x157F JUMP JUMPDEST PUSH1 0x40 MLOAD DUP1 SWAP2 SUB SWAP1 REVERT JUMPDEST JUMPDEST POP POP JUMP JUMPDEST PUSH1 0x0 DUP1 PUSH1 0x0 SWAP1 POP JUMPDEST PUSH1 0x0 DUP4 EQ PUSH2 0x108F JUMPI DUP1 DUP1 PUSH2 0x1080 SWAP1 PUSH2 0x1F78 JUMP JUMPDEST SWAP2 POP POP PUSH1 0x1 DUP4 SWAP1 SHR SWAP3 POP PUSH2 0x106D JUMP JUMPDEST DUP1 SWAP2 POP POP SWAP2 SWAP1 POP JUMP JUMPDEST PUSH1 0x0 PUSH1 0x40 MLOAD SWAP1 POP SWAP1 JUMP JUMPDEST PUSH1 0x0 DUP1 REVERT JUMPDEST PUSH1 0x0 DUP1 REVERT JUMPDEST PUSH1 0x0 DUP2 SWAP1 POP SWAP2 SWAP1 POP JUMP JUMPDEST PUSH2 0x10BF DUP2 PUSH2 0x10AC JUMP JUMPDEST DUP2 EQ PUSH2 0x10CA JUMPI PUSH1 0x0 DUP1 REVERT JUMPDEST POP JUMP JUMPDEST PUSH1 0x0 DUP2 CALLDATALOAD SWAP1 POP PUSH2 0x10DC DUP2 PUSH2 0x10B6 JUMP JUMPDEST SWAP3 SWAP2 POP POP JUMP JUMPDEST PUSH1 0x0 DUP2 SWAP1 POP SWAP2 SWAP1 POP JUMP JUMPDEST PUSH2 0x10F5 DUP2 PUSH2 0x10E2 JUMP JUMPDEST DUP2 EQ PUSH2 0x1100 JUMPI PUSH1 0x0 DUP1 REVERT JUMPDEST POP JUMP JUMPDEST PUSH1 0x0 DUP2 CALLDATALOAD SWAP1 POP PUSH2 0x1112 DUP2 PUSH2 0x10EC JUMP JUMPDEST SWAP3 SWAP2 POP POP JUMP JUMPDEST PUSH1 0x0 DUP1 REVERT JUMPDEST PUSH1 0x0 DUP1 REVERT JUMPDEST PUSH1 0x0 DUP1 REVERT JUMPDEST PUSH1 0x0 DUP1 DUP4 PUSH1 0x1F DUP5 ADD SLT PUSH2 0x113D JUMPI PUSH2 0x113C PUSH2 0x1118 JUMP JUMPDEST JUMPDEST DUP3 CALLDATALOAD SWAP1 POP PUSH8 0xFFFFFFFFFFFFFFFF DUP2 GT ISZERO PUSH2 0x115A JUMPI PUSH2 0x1159 PUSH2 0x111D JUMP JUMPDEST JUMPDEST PUSH1 0x20 DUP4 ADD SWAP2 POP DUP4 PUSH1 0x40 DUP3 MUL DUP4 ADD GT ISZERO PUSH2 0x1176 JUMPI PUSH2 0x1175 PUSH2 0x1122 JUMP JUMPDEST JUMPDEST SWAP3 POP SWAP3 SWAP1 POP JUMP JUMPDEST PUSH1 0x0 DUP1 DUP4 PUSH1 0x1F DUP5 ADD SLT PUSH2 0x1193 JUMPI PUSH2 0x1192 PUSH2 0x1118 JUMP JUMPDEST JUMPDEST DUP3 CALLDATALOAD SWAP1 POP PUSH8 0xFFFFFFFFFFFFFFFF DUP2 GT ISZERO PUSH2 0x11B0 JUMPI PUSH2 0x11AF PUSH2 0x111D JUMP JUMPDEST JUMPDEST PUSH1 0x20 DUP4 ADD SWAP2 POP DUP4 PUSH1 0x60 DUP3 MUL DUP4 ADD GT ISZERO PUSH2 0x11CC JUMPI PUSH2 0x11CB PUSH2 0x1122 JUMP JUMPDEST JUMPDEST SWAP3 POP SWAP3 SWAP1 POP JUMP JUMPDEST PUSH1 0x0 DUP1 PUSH1 0x0 DUP1 PUSH1 0x0 DUP1 PUSH1 0x0 DUP1 PUSH1 0xC0 DUP10 DUP12 SUB SLT ISZERO PUSH2 0x11F3 JUMPI PUSH2 0x11F2 PUSH2 0x10A2 JUMP JUMPDEST JUMPDEST PUSH1 0x0 PUSH2 0x1201 DUP12 DUP3 DUP13 ADD PUSH2 0x10CD JUMP JUMPDEST SWAP9 POP POP PUSH1 0x20 PUSH2 0x1212 DUP12 DUP3 DUP13 ADD PUSH2 0x10CD JUMP JUMPDEST SWAP8 POP POP PUSH1 0x40 PUSH2 0x1223 DUP12 DUP3 DUP13 ADD PUSH2 0x10CD JUMP JUMPDEST SWAP7 POP POP PUSH1 0x60 PUSH2 0x1234 DUP12 DUP3 DUP13 ADD PUSH2 0x1103 JUMP JUMPDEST SWAP6 POP POP PUSH1 0x80 DUP10 ADD CALLDATALOAD PUSH8 0xFFFFFFFFFFFFFFFF DUP2 GT ISZERO PUSH2 0x1255 JUMPI PUSH2 0x1254 PUSH2 0x10A7 JUMP JUMPDEST JUMPDEST PUSH2 0x1261 DUP12 DUP3 DUP13 ADD PUSH2 0x1127 JUMP JUMPDEST SWAP5 POP SWAP5 POP POP PUSH1 0xA0 DUP10 ADD CALLDATALOAD PUSH8 0xFFFFFFFFFFFFFFFF DUP2 GT ISZERO PUSH2 0x1284 JUMPI PUSH2 0x1283 PUSH2 0x10A7 JUMP JUMPDEST JUMPDEST PUSH2 0x1290 DUP12 DUP3 DUP13 ADD PUSH2 0x117D JUMP JUMPDEST SWAP3 POP SWAP3 POP POP SWAP3 SWAP6 SWAP9 POP SWAP3 SWAP6 SWAP9 SWAP1 SWAP4 SWAP7 POP JUMP JUMPDEST PUSH1 0x0 DUP1 REVERT JUMPDEST PUSH1 0x0 PUSH1 0x1F NOT PUSH1 0x1F DUP4 ADD AND SWAP1 POP SWAP2 SWAP1 POP JUMP JUMPDEST PUSH32 0x4E487B7100000000000000000000000000000000000000000000000000000000 PUSH1 0x0 MSTORE PUSH1 0x41 PUSH1 0x4 MSTORE PUSH1 0x24 PUSH1 0x0 REVERT JUMPDEST PUSH2 0x12F0 DUP3 PUSH2 0x12A7 JUMP JUMPDEST DUP2 ADD DUP2 DUP2 LT PUSH8 0xFFFFFFFFFFFFFFFF DUP3 GT OR ISZERO PUSH2 0x130F JUMPI PUSH2 0x130E PUSH2 0x12B8 JUMP JUMPDEST JUMPDEST DUP1 PUSH1 0x40 MSTORE POP POP POP JUMP JUMPDEST PUSH1 0x0 PUSH2 0x1322 PUSH2 0x1098 JUMP JUMPDEST SWAP1 POP PUSH2 0x132E DUP3 DUP3 PUSH2 0x12E7 JUMP JUMPDEST SWAP2 SWAP1 POP JUMP JUMPDEST PUSH1 0x0 DUP1 REVERT JUMPDEST PUSH1 0x0 PUSH1 0x40 DUP3 DUP5 SUB SLT ISZERO PUSH2 0x134E JUMPI PUSH2 0x134D PUSH2 0x12A2 JUMP JUMPDEST JUMPDEST PUSH2 0x1358 PUSH1 0x40 PUSH2 0x1318 JUMP JUMPDEST SWAP1 POP PUSH1 0x0 PUSH2 0x1368 DUP5 DUP3 DUP6 ADD PUSH2 0x10CD JUMP JUMPDEST PUSH1 0x0 DUP4 ADD MSTORE POP PUSH1 0x20 PUSH2 0x137C DUP5 DUP3 DUP6 ADD PUSH2 0x1103 JUMP JUMPDEST PUSH1 0x20 DUP4 ADD MSTORE POP SWAP3 SWAP2 POP POP JUMP JUMPDEST PUSH1 0x0 PUSH8 0xFFFFFFFFFFFFFFFF DUP3 GT ISZERO PUSH2 0x13A3 JUMPI PUSH2 0x13A2 PUSH2 0x12B8 JUMP JUMPDEST JUMPDEST PUSH1 0x20 DUP3 MUL SWAP1 POP PUSH1 0x20 DUP2 ADD SWAP1 POP SWAP2 SWAP1 POP JUMP JUMPDEST PUSH1 0x0 PUSH2 0x13C7 PUSH2 0x13C2 DUP5 PUSH2 0x1388 JUMP JUMPDEST PUSH2 0x1318 JUMP JUMPDEST SWAP1 POP DUP1 DUP4 DUP3 MSTORE PUSH1 0x20 DUP3 ADD SWAP1 POP PUSH1 0x20 DUP5 MUL DUP4 ADD DUP6 DUP2 GT ISZERO PUSH2 0x13EA JUMPI PUSH2 0x13E9 PUSH2 0x1122 JUMP JUMPDEST JUMPDEST DUP4 JUMPDEST DUP2 DUP2 LT ISZERO PUSH2 0x1413 JUMPI DUP1 PUSH2 0x13FF DUP9 DUP3 PUSH2 0x1103 JUMP JUMPDEST DUP5 MSTORE PUSH1 0x20 DUP5 ADD SWAP4 POP POP PUSH1 0x20 DUP2 ADD SWAP1 POP PUSH2 0x13EC JUMP JUMPDEST POP POP POP SWAP4 SWAP3 POP POP POP JUMP JUMPDEST PUSH1 0x0 DUP3 PUSH1 0x1F DUP4 ADD SLT PUSH2 0x1432 JUMPI PUSH2 0x1431 PUSH2 0x1118 JUMP JUMPDEST JUMPDEST DUP2 CALLDATALOAD PUSH2 0x1442 DUP5 DUP3 PUSH1 0x20 DUP7 ADD PUSH2 0x13B4 JUMP JUMPDEST SWAP2 POP POP SWAP3 SWAP2 POP POP JUMP JUMPDEST PUSH1 0x0 PUSH1 0x60 DUP3 DUP5 SUB SLT ISZERO PUSH2 0x1461 JUMPI PUSH2 0x1460 PUSH2 0x12A2 JUMP JUMPDEST JUMPDEST PUSH2 0x146B PUSH1 0x60 PUSH2 0x1318 JUMP JUMPDEST SWAP1 POP PUSH1 0x0 DUP3 ADD CALLDATALOAD PUSH8 0xFFFFFFFFFFFFFFFF DUP2 GT ISZERO PUSH2 0x148B JUMPI PUSH2 0x148A PUSH2 0x1333 JUMP JUMPDEST JUMPDEST PUSH2 0x1497 DUP5 DUP3 DUP6 ADD PUSH2 0x141D JUMP JUMPDEST PUSH1 0x0 DUP4 ADD MSTORE POP PUSH1 0x20 PUSH2 0x14AB DUP5 DUP3 DUP6 ADD PUSH2 0x10CD JUMP JUMPDEST PUSH1 0x20 DUP4 ADD MSTORE POP PUSH1 0x40 PUSH2 0x14BF DUP5 DUP3 DUP6 ADD PUSH2 0x10CD JUMP JUMPDEST PUSH1 0x40 DUP4 ADD MSTORE POP SWAP3 SWAP2 POP POP JUMP JUMPDEST PUSH1 0x0 DUP1 PUSH1 0x0 PUSH1 0x80 DUP5 DUP7 SUB SLT ISZERO PUSH2 0x14E4 JUMPI PUSH2 0x14E3 PUSH2 0x10A2 JUMP JUMPDEST JUMPDEST PUSH1 0x0 PUSH2 0x14F2 DUP7 DUP3 DUP8 ADD PUSH2 0x10CD JUMP JUMPDEST SWAP4 POP POP PUSH1 0x20 PUSH2 0x1503 DUP7 DUP3 DUP8 ADD PUSH2 0x1338 JUMP JUMPDEST SWAP3 POP POP PUSH1 0x60 DUP5 ADD CALLDATALOAD PUSH8 0xFFFFFFFFFFFFFFFF DUP2 GT ISZERO PUSH2 0x1524 JUMPI PUSH2 0x1523 PUSH2 0x10A7 JUMP JUMPDEST JUMPDEST PUSH2 0x1530 DUP7 DUP3 DUP8 ADD PUSH2 0x144B JUMP JUMPDEST SWAP2 POP POP SWAP3 POP SWAP3 POP SWAP3 JUMP JUMPDEST PUSH1 0x0 DUP2 ISZERO ISZERO SWAP1 POP SWAP2 SWAP1 POP JUMP JUMPDEST PUSH2 0x154F DUP2 PUSH2 0x153A JUMP JUMPDEST DUP3 MSTORE POP POP JUMP JUMPDEST PUSH1 0x0 PUSH1 0x20 DUP3 ADD SWAP1 POP PUSH2 0x156A PUSH1 0x0 DUP4 ADD DUP5 PUSH2 0x1546 JUMP JUMPDEST SWAP3 SWAP2 POP POP JUMP JUMPDEST PUSH2 0x1579 DUP2 PUSH2 0x10E2 JUMP JUMPDEST DUP3 MSTORE POP POP JUMP JUMPDEST PUSH1 0x0 PUSH1 0x20 DUP3 ADD SWAP1 POP PUSH2 0x1594 PUSH1 0x0 DUP4 ADD DUP5 PUSH2 0x1570 JUMP JUMPDEST SWAP3 SWAP2 POP POP JUMP JUMPDEST PUSH1 0x0 PUSH1 0x20 DUP3 DUP5 SUB SLT ISZERO PUSH2 0x15B0 JUMPI PUSH2 0x15AF PUSH2 0x10A2 JUMP JUMPDEST JUMPDEST PUSH1 0x0 PUSH2 0x15BE DUP5 DUP3 DUP6 ADD PUSH2 0x10CD JUMP JUMPDEST SWAP2 POP POP SWAP3 SWAP2 POP POP JUMP JUMPDEST PUSH2 0x15D0 DUP2 PUSH2 0x10AC JUMP JUMPDEST DUP3 MSTORE POP POP JUMP JUMPDEST PUSH1 0x0 PUSH1 0x20 DUP3 ADD SWAP1 POP PUSH2 0x15EB PUSH1 0x0 DUP4 ADD DUP5 PUSH2 0x15C7 JUMP JUMPDEST SWAP3 SWAP2 POP POP JUMP JUMPDEST PUSH1 0x0 DUP1 PUSH1 0x0 DUP1 PUSH1 0x0 DUP1 PUSH1 0x0 PUSH1 0xA0 DUP9 DUP11 SUB SLT ISZERO PUSH2 0x1610 JUMPI PUSH2 0x160F PUSH2 0x10A2 JUMP JUMPDEST JUMPDEST PUSH1 0x0 PUSH2 0x161E DUP11 DUP3 DUP12 ADD PUSH2 0x10CD JUMP JUMPDEST SWAP8 POP POP PUSH1 0x20 PUSH2 0x162F DUP11 DUP3 DUP12 ADD PUSH2 0x10CD JUMP JUMPDEST SWAP7 POP POP PUSH1 0x40 PUSH2 0x1640 DUP11 DUP3 DUP12 ADD PUSH2 0x1103 JUMP JUMPDEST SWAP6 POP POP PUSH1 0x60 DUP9 ADD CALLDATALOAD PUSH8 0xFFFFFFFFFFFFFFFF DUP2 GT ISZERO PUSH2 0x1661 JUMPI PUSH2 0x1660 PUSH2 0x10A7 JUMP JUMPDEST JUMPDEST PUSH2 0x166D DUP11 DUP3 DUP12 ADD PUSH2 0x1127 JUMP JUMPDEST SWAP5 POP SWAP5 POP POP PUSH1 0x80 DUP9 ADD CALLDATALOAD PUSH8 0xFFFFFFFFFFFFFFFF DUP2 GT ISZERO PUSH2 0x1690 JUMPI PUSH2 0x168F PUSH2 0x10A7 JUMP JUMPDEST JUMPDEST PUSH2 0x169C DUP11 DUP3 DUP12 ADD PUSH2 0x117D JUMP JUMPDEST SWAP3 POP SWAP3 POP POP SWAP3 SWAP6 SWAP9 SWAP2 SWAP5 SWAP8 POP SWAP3 SWAP6 POP JUMP JUMPDEST PUSH32 0x4E487B7100000000000000000000000000000000000000000000000000000000 PUSH1 0x0 MSTORE PUSH1 0x11 PUSH1 0x4 MSTORE PUSH1 0x24 PUSH1 0x0 REVERT JUMPDEST PUSH1 0x0 PUSH2 0x16E7 DUP3 PUSH2 0x10AC JUMP JUMPDEST SWAP2 POP PUSH2 0x16F2 DUP4 PUSH2 0x10AC JUMP JUMPDEST SWAP3 POP DUP3 DUP3 ADD SWAP1 POP DUP1 DUP3 GT ISZERO PUSH2 0x170A JUMPI PUSH2 0x1709 PUSH2 0x16AD JUMP JUMPDEST JUMPDEST SWAP3 SWAP2 POP POP JUMP JUMPDEST PUSH1 0x0 PUSH1 0x40 DUP3 ADD SWAP1 POP PUSH2 0x1725 PUSH1 0x0 DUP4 ADD DUP6 PUSH2 0x15C7 JUMP JUMPDEST PUSH2 0x1732 PUSH1 0x20 DUP4 ADD DUP5 PUSH2 0x1570 JUMP JUMPDEST SWAP4 SWAP3 POP POP POP JUMP JUMPDEST PUSH2 0x1742 DUP2 PUSH2 0x10AC JUMP JUMPDEST DUP3 MSTORE POP POP JUMP JUMPDEST PUSH2 0x1751 DUP2 PUSH2 0x10E2 JUMP JUMPDEST DUP3 MSTORE POP POP JUMP JUMPDEST PUSH1 0x40 DUP3 ADD PUSH1 0x0 DUP3 ADD MLOAD PUSH2 0x176D PUSH1 0x0 DUP6 ADD DUP3 PUSH2 0x1739 JUMP JUMPDEST POP PUSH1 0x20 DUP3 ADD MLOAD PUSH2 0x1780 PUSH1 0x20 DUP6 ADD DUP3 PUSH2 0x1748 JUMP JUMPDEST POP POP POP POP JUMP JUMPDEST PUSH1 0x0 PUSH1 0x40 DUP3 ADD SWAP1 POP PUSH2 0x179B PUSH1 0x0 DUP4 ADD DUP5 PUSH2 0x1757 JUMP JUMPDEST SWAP3 SWAP2 POP POP JUMP JUMPDEST PUSH1 0x0 DUP3 DUP3 MSTORE PUSH1 0x20 DUP3 ADD SWAP1 POP SWAP3 SWAP2 POP POP JUMP JUMPDEST PUSH1 0x0 DUP2 SWAP1 POP SWAP2 SWAP1 POP JUMP JUMPDEST PUSH1 0x0 PUSH20 0xFFFFFFFFFFFFFFFFFFFFFFFFFFFFFFFFFFFFFFFF DUP3 AND SWAP1 POP SWAP2 SWAP1 POP JUMP JUMPDEST PUSH1 0x0 PUSH2 0x17E7 DUP3 PUSH2 0x17BC JUMP JUMPDEST SWAP1 POP SWAP2 SWAP1 POP JUMP JUMPDEST PUSH2 0x17F7 DUP2 PUSH2 0x17DC JUMP JUMPDEST DUP2 EQ PUSH2 0x1802 JUMPI PUSH1 0x0 DUP1 REVERT JUMPDEST POP JUMP JUMPDEST PUSH1 0x0 DUP2 CALLDATALOAD SWAP1 POP PUSH2 0x1814 DUP2 PUSH2 0x17EE JUMP JUMPDEST SWAP3 SWAP2 POP POP JUMP JUMPDEST PUSH1 0x0 PUSH2 0x1829 PUSH1 0x20 DUP5 ADD DUP5 PUSH2 0x1805 JUMP JUMPDEST SWAP1 POP SWAP3 SWAP2 POP POP JUMP JUMPDEST PUSH2 0x183A DUP2 PUSH2 0x17DC JUMP JUMPDEST DUP3 MSTORE POP POP JUMP JUMPDEST PUSH1 0x0 PUSH2 0x184F PUSH1 0x20 DUP5 ADD DUP5 PUSH2 0x10CD JUMP JUMPDEST SWAP1 POP SWAP3 SWAP2 POP POP JUMP JUMPDEST PUSH1 0x40 DUP3 ADD PUSH2 0x1868 PUSH1 0x0 DUP4 ADD DUP4 PUSH2 0x181A JUMP JUMPDEST PUSH2 0x1875 PUSH1 0x0 DUP6 ADD DUP3 PUSH2 0x1831 JUMP JUMPDEST POP PUSH2 0x1883 PUSH1 0x20 DUP4 ADD DUP4 PUSH2 0x1840 JUMP JUMPDEST PUSH2 0x1890 PUSH1 0x20 DUP6 ADD DUP3 PUSH2 0x1739 JUMP JUMPDEST POP POP POP POP JUMP JUMPDEST PUSH1 0x0 PUSH2 0x18A2 DUP4 DUP4 PUSH2 0x1857 JUMP JUMPDEST PUSH1 0x40 DUP4 ADD SWAP1 POP SWAP3 SWAP2 POP POP JUMP JUMPDEST PUSH1 0x0 DUP3 SWAP1 POP SWAP3 SWAP2 POP POP JUMP JUMPDEST PUSH1 0x0 PUSH1 0x40 DUP3 ADD SWAP1 POP SWAP2 SWAP1 POP JUMP JUMPDEST PUSH1 0x0 PUSH2 0x18D2 DUP4 DUP6 PUSH2 0x17A1 JUMP JUMPDEST SWAP4 POP PUSH2 0x18DD DUP3 PUSH2 0x17B2 JUMP JUMPDEST DUP1 PUSH1 0x0 JUMPDEST DUP6 DUP2 LT ISZERO PUSH2 0x1916 JUMPI PUSH2 0x18F3 DUP3 DUP5 PUSH2 0x18AE JUMP JUMPDEST PUSH2 0x18FD DUP9 DUP3 PUSH2 0x1896 JUMP JUMPDEST SWAP8 POP PUSH2 0x1908 DUP4 PUSH2 0x18B9 JUMP JUMPDEST SWAP3 POP POP PUSH1 0x1 DUP2 ADD SWAP1 POP PUSH2 0x18E1 JUMP JUMPDEST POP DUP6 SWAP3 POP POP POP SWAP4 SWAP3 POP POP POP JUMP JUMPDEST PUSH1 0x0 PUSH1 0x20 DUP3 ADD SWAP1 POP DUP2 DUP2 SUB PUSH1 0x0 DUP4 ADD MSTORE PUSH2 0x193E DUP2 DUP5 DUP7 PUSH2 0x18C6 JUMP JUMPDEST SWAP1 POP SWAP4 SWAP3 POP POP POP JUMP JUMPDEST PUSH1 0x0 PUSH1 0x80 DUP3 ADD SWAP1 POP PUSH2 0x195C PUSH1 0x0 DUP4 ADD DUP8 PUSH2 0x1570 JUMP JUMPDEST PUSH2 0x1969 PUSH1 0x20 DUP4 ADD DUP7 PUSH2 0x15C7 JUMP JUMPDEST PUSH2 0x1976 PUSH1 0x40 DUP4 ADD DUP6 PUSH2 0x15C7 JUMP JUMPDEST PUSH2 0x1983 PUSH1 0x60 DUP4 ADD DUP5 PUSH2 0x1570 JUMP JUMPDEST SWAP6 SWAP5 POP POP POP POP POP JUMP JUMPDEST PUSH32 0x4E487B7100000000000000000000000000000000000000000000000000000000 PUSH1 0x0 MSTORE PUSH1 0x32 PUSH1 0x4 MSTORE PUSH1 0x24 PUSH1 0x0 REVERT JUMPDEST PUSH1 0x0 PUSH1 0x20 DUP3 DUP5 SUB SLT ISZERO PUSH2 0x19D1 JUMPI PUSH2 0x19D0 PUSH2 0x10A2 JUMP JUMPDEST JUMPDEST PUSH1 0x0 PUSH2 0x19DF DUP5 DUP3 DUP6 ADD PUSH2 0x1805 JUMP JUMPDEST SWAP2 POP POP SWAP3 SWAP2 POP POP JUMP JUMPDEST PUSH1 0x0 PUSH1 0x60 DUP3 ADD SWAP1 POP PUSH2 0x19FD PUSH1 0x0 DUP4 ADD DUP7 PUSH2 0x1570 JUMP JUMPDEST PUSH2 0x1A0A PUSH1 0x20 DUP4 ADD DUP6 PUSH2 0x15C7 JUMP JUMPDEST PUSH2 0x1A17 PUSH1 0x40 DUP4 ADD DUP5 PUSH2 0x1570 JUMP JUMPDEST SWAP5 SWAP4 POP POP POP POP JUMP JUMPDEST PUSH1 0x0 PUSH1 0xFF DUP3 AND SWAP1 POP SWAP2 SWAP1 POP JUMP JUMPDEST PUSH2 0x1A35 DUP2 PUSH2 0x1A1F JUMP JUMPDEST DUP2 EQ PUSH2 0x1A40 JUMPI PUSH1 0x0 DUP1 REVERT JUMPDEST POP JUMP JUMPDEST PUSH1 0x0 DUP2 CALLDATALOAD SWAP1 POP PUSH2 0x1A52 DUP2 PUSH2 0x1A2C JUMP JUMPDEST SWAP3 SWAP2 POP POP JUMP JUMPDEST PUSH1 0x0 PUSH1 0x20 DUP3 DUP5 SUB SLT ISZERO PUSH2 0x1A6E JUMPI PUSH2 0x1A6D PUSH2 0x10A2 JUMP JUMPDEST JUMPDEST PUSH1 0x0 PUSH2 0x1A7C DUP5 DUP3 DUP6 ADD PUSH2 0x1A43 JUMP JUMPDEST SWAP2 POP POP SWAP3 SWAP2 POP POP JUMP JUMPDEST PUSH1 0x0 PUSH2 0x1A90 DUP3 PUSH2 0x10AC JUMP JUMPDEST SWAP2 POP PUSH2 0x1A9B DUP4 PUSH2 0x10AC JUMP JUMPDEST SWAP3 POP DUP3 DUP3 SUB SWAP1 POP DUP2 DUP2 GT ISZERO PUSH2 0x1AB3 JUMPI PUSH2 0x1AB2 PUSH2 0x16AD JUMP JUMPDEST JUMPDEST SWAP3 SWAP2 POP POP JUMP JUMPDEST PUSH1 0x0 PUSH32 0xFF00000000000000000000000000000000000000000000000000000000000000 DUP3 AND SWAP1 POP SWAP2 SWAP1 POP JUMP JUMPDEST PUSH1 0x0 DUP2 SWAP1 POP SWAP2 SWAP1 POP JUMP JUMPDEST PUSH2 0x1B00 PUSH2 0x1AFB DUP3 PUSH2 0x1AB9 JUMP JUMPDEST PUSH2 0x1AE5 JUMP JUMPDEST DUP3 MSTORE POP POP JUMP JUMPDEST PUSH1 0x0 DUP2 MLOAD SWAP1 POP SWAP2 SWAP1 POP JUMP JUMPDEST PUSH1 0x0 DUP2 SWAP1 POP SWAP3 SWAP2 POP POP JUMP JUMPDEST PUSH1 0x0 JUMPDEST DUP4 DUP2 LT ISZERO PUSH2 0x1B3A JUMPI DUP1 DUP3 ADD MLOAD DUP2 DUP5 ADD MSTORE PUSH1 0x20 DUP2 ADD SWAP1 POP PUSH2 0x1B1F JUMP JUMPDEST PUSH1 0x0 DUP5 DUP5 ADD MSTORE POP POP POP POP JUMP JUMPDEST PUSH1 0x0 PUSH2 0x1B51 DUP3 PUSH2 0x1B06 JUMP JUMPDEST PUSH2 0x1B5B DUP2 DUP6 PUSH2 0x1B11 JUMP JUMPDEST SWAP4 POP PUSH2 0x1B6B DUP2 DUP6 PUSH1 0x20 DUP7 ADD PUSH2 0x1B1C JUMP JUMPDEST DUP1 DUP5 ADD SWAP2 POP POP SWAP3 SWAP2 POP POP JUMP JUMPDEST PUSH1 0x0 PUSH2 0x1B83 DUP3 DUP6 PUSH2 0x1AEF JUMP JUMPDEST PUSH1 0x1 DUP3 ADD SWAP2 POP PUSH2 0x1B93 DUP3 DUP5 PUSH2 0x1B46 JUMP JUMPDEST SWAP2 POP DUP2 SWAP1 POP SWAP4 SWAP3 POP POP POP JUMP JUMPDEST PUSH1 0x0 PUSH2 0x1BAB DUP3 DUP5 PUSH2 0x1B46 JUMP JUMPDEST SWAP2 POP DUP2 SWAP1 POP SWAP3 SWAP2 POP POP JUMP JUMPDEST PUSH1 0x0 DUP2 MLOAD SWAP1 POP PUSH2 0x1BC5 DUP2 PUSH2 0x10EC JUMP JUMPDEST SWAP3 SWAP2 POP POP JUMP JUMPDEST PUSH1 0x0 PUSH1 0x20 DUP3 DUP5 SUB SLT ISZERO PUSH2 0x1BE1 JUMPI PUSH2 0x1BE0 PUSH2 0x10A2 JUMP JUMPDEST JUMPDEST PUSH1 0x0 PUSH2 0x1BEF DUP5 DUP3 DUP6 ADD PUSH2 0x1BB6 JUMP JUMPDEST SWAP2 POP POP SWAP3 SWAP2 POP POP JUMP JUMPDEST PUSH1 0x0 DUP3 DUP3 MSTORE PUSH1 0x20 DUP3 ADD SWAP1 POP SWAP3 SWAP2 POP POP JUMP JUMPDEST PUSH32 0x63616E6E6F742063616C6C20636F6D70757465526F6F74486173682077697468 PUSH1 0x0 DUP3 ADD MSTORE PUSH32 0x2030206E756D626572206F66206C656176657300000000000000000000000000 PUSH1 0x20 DUP3 ADD MSTORE POP JUMP JUMPDEST PUSH1 0x0 PUSH2 0x1C65 PUSH1 0x33 DUP4 PUSH2 0x1BF8 JUMP JUMPDEST SWAP2 POP PUSH2 0x1C70 DUP3 PUSH2 0x1C09 JUMP JUMPDEST PUSH1 0x40 DUP3 ADD SWAP1 POP SWAP2 SWAP1 POP JUMP JUMPDEST PUSH1 0x0 PUSH1 0x20 DUP3 ADD SWAP1 POP DUP2 DUP2 SUB PUSH1 0x0 DUP4 ADD MSTORE PUSH2 0x1C94 DUP2 PUSH2 0x1C58 JUMP JUMPDEST SWAP1 POP SWAP2 SWAP1 POP JUMP JUMPDEST PUSH32 0x756E657870656374656420696E6E657220686173686573000000000000000000 PUSH1 0x0 DUP3 ADD MSTORE POP JUMP JUMPDEST PUSH1 0x0 PUSH2 0x1CD1 PUSH1 0x17 DUP4 PUSH2 0x1BF8 JUMP JUMPDEST SWAP2 POP PUSH2 0x1CDC DUP3 PUSH2 0x1C9B JUMP JUMPDEST PUSH1 0x20 DUP3 ADD SWAP1 POP SWAP2 SWAP1 POP JUMP JUMPDEST PUSH1 0x0 PUSH1 0x20 DUP3 ADD SWAP1 POP DUP2 DUP2 SUB PUSH1 0x0 DUP4 ADD MSTORE PUSH2 0x1D00 DUP2 PUSH2 0x1CC4 JUMP JUMPDEST SWAP1 POP SWAP2 SWAP1 POP JUMP JUMPDEST PUSH32 0x6578706563746564206174206C65617374206F6E6520696E6E65722068617368 PUSH1 0x0 DUP3 ADD MSTORE POP JUMP JUMPDEST PUSH1 0x0 PUSH2 0x1D3D PUSH1 0x20 DUP4 PUSH2 0x1BF8 JUMP JUMPDEST SWAP2 POP PUSH2 0x1D48 DUP3 PUSH2 0x1D07 JUMP JUMPDEST PUSH1 0x20 DUP3 ADD SWAP1 POP SWAP2 SWAP1 POP JUMP JUMPDEST PUSH1 0x0 PUSH1 0x20 DUP3 ADD SWAP1 POP DUP2 DUP2 SUB PUSH1 0x0 DUP4 ADD MSTORE PUSH2 0x1D6C DUP2 PUSH2 0x1D30 JUMP JUMPDEST SWAP1 POP SWAP2 SWAP1 POP JUMP JUMPDEST PUSH32 0x496E76616C69642072616E67653A205F626567696E2069732067726561746572 PUSH1 0x0 DUP3 ADD MSTORE PUSH32 0x207468616E205F656E6400000000000000000000000000000000000000000000 PUSH1 0x20 DUP3 ADD MSTORE POP JUMP JUMPDEST PUSH1 0x0 PUSH2 0x1DCF PUSH1 0x2A DUP4 PUSH2 0x1BF8 JUMP JUMPDEST SWAP2 POP PUSH2 0x1DDA DUP3 PUSH2 0x1D73 JUMP JUMPDEST PUSH1 0x40 DUP3 ADD SWAP1 POP SWAP2 SWAP1 POP JUMP JUMPDEST PUSH1 0x0 PUSH1 0x20 DUP3 ADD SWAP1 POP DUP2 DUP2 SUB PUSH1 0x0 DUP4 ADD MSTORE PUSH2 0x1DFE DUP2 PUSH2 0x1DC2 JUMP JUMPDEST SWAP1 POP SWAP2 SWAP1 POP JUMP JUMPDEST PUSH32 0x496E76616C69642072616E67653A205F626567696E206F72205F656E64206172 PUSH1 0x0 DUP3 ADD MSTORE PUSH32 0x65206F7574206F6620626F756E64730000000000000000000000000000000000 PUSH1 0x20 DUP3 ADD MSTORE POP JUMP JUMPDEST PUSH1 0x0 PUSH2 0x1E61 PUSH1 0x2F DUP4 PUSH2 0x1BF8 JUMP JUMPDEST SWAP2 POP PUSH2 0x1E6C DUP3 PUSH2 0x1E05 JUMP JUMPDEST PUSH1 0x40 DUP3 ADD SWAP1 POP SWAP2 SWAP1 POP JUMP JUMPDEST PUSH1 0x0 PUSH1 0x20 DUP3 ADD SWAP1 POP DUP2 DUP2 SUB PUSH1 0x0 DUP4 ADD MSTORE PUSH2 0x1E90 DUP2 PUSH2 0x1E54 JUMP JUMPDEST SWAP1 POP SWAP2 SWAP1 POP JUMP JUMPDEST PUSH1 0x0 DUP2 SWAP1 POP SWAP2 SWAP1 POP JUMP JUMPDEST PUSH2 0x1EB2 PUSH2 0x1EAD DUP3 PUSH2 0x10E2 JUMP JUMPDEST PUSH2 0x1E97 JUMP JUMPDEST DUP3 MSTORE POP POP JUMP JUMPDEST PUSH1 0x0 PUSH2 0x1EC4 DUP3 DUP7 PUSH2 0x1AEF JUMP JUMPDEST PUSH1 0x1 DUP3 ADD SWAP2 POP PUSH2 0x1ED4 DUP3 DUP6 PUSH2 0x1EA1 JUMP JUMPDEST PUSH1 0x20 DUP3 ADD SWAP2 POP PUSH2 0x1EE4 DUP3 DUP5 PUSH2 0x1EA1 JUMP JUMPDEST PUSH1 0x20 DUP3 ADD SWAP2 POP DUP2 SWAP1 POP SWAP5 SWAP4 POP POP POP POP JUMP JUMPDEST PUSH2 0x1EFE DUP2 PUSH2 0x1A1F JUMP JUMPDEST DUP3 MSTORE POP POP JUMP JUMPDEST PUSH1 0x0 PUSH1 0x80 DUP3 ADD SWAP1 POP PUSH2 0x1F19 PUSH1 0x0 DUP4 ADD DUP8 PUSH2 0x1570 JUMP JUMPDEST PUSH2 0x1F26 PUSH1 0x20 DUP4 ADD DUP7 PUSH2 0x1EF5 JUMP JUMPDEST PUSH2 0x1F33 PUSH1 0x40 DUP4 ADD DUP6 PUSH2 0x1570 JUMP JUMPDEST PUSH2 0x1F40 PUSH1 0x60 DUP4 ADD DUP5 PUSH2 0x1570 JUMP JUMPDEST SWAP6 SWAP5 POP POP POP POP POP JUMP JUMPDEST PUSH32 0x4E487B7100000000000000000000000000000000000000000000000000000000 PUSH1 0x0 MSTORE PUSH1 0x21 PUSH1 0x4 MSTORE PUSH1 0x24 PUSH1 0x0 REVERT JUMPDEST PUSH1 0x0 PUSH2 0x1F83 DUP3 PUSH2 0x10AC JUMP JUMPDEST SWAP2 POP PUSH32 0xFFFFFFFFFFFFFFFFFFFFFFFFFFFFFFFFFFFFFFFFFFFFFFFFFFFFFFFFFFFFFFFF DUP3 SUB PUSH2 0x1FB5 JUMPI PUSH2 0x1FB4 PUSH2 0x16AD JUMP JUMPDEST JUMPDEST PUSH1 0x1 DUP3 ADD SWAP1 POP SWAP2 SWAP1 POP JUMP INVALID LOG2 PUSH5 0x6970667358 0x22 SLT KECCAK256 0xC7 0xD8 PUSH9 0x205C38866BFAD105A8 SLT SLOAD 0xD 0xC8 0xEE 0xC9 SWAP14 SSTORE PUSH20 0x1F8B4ABBC7E3FC496EB5F564736F6C6343000816 STOP CALLER "},"methodIdentifiers":{"state_dataRootTupleRoots(uint256)":"817f985b","state_eventNonce()":"cdade866","state_lastValidatorSetCheckpoint()":"5433218c","state_powerThreshold()":"e5a2b5d2","submitDataRootTupleRoot(uint256,uint256,bytes32,(address,uint256)[],(uint8,bytes32,bytes32)[])":"e23eb326","updateValidatorSet(uint256,uint256,uint256,bytes32,(address,uint256)[],(uint8,bytes32,bytes32)[])":"05d85c13","verifyAttestation(uint256,(uint256,bytes32),(bytes32[],uint256,uint256))":"1f3302a9"}}}}}