{"contracts/bridge/BlobstreamO.sol":{"BlobstreamO":{"abi":[{"inputs":[{"internalType":"uint256","name":"_nonce","type":"uint256"},{"internalType":"uint256","name":"_powerThreshold","type":"uint256"},{"internalType":"uint256","name":"_validatorTimestamp","type":"uint256"},{"internalType":"uint256","name":"_unbondingPeriod","type":"uint256"},{"internalType":"bytes32","name":"_validatorSetCheckpoint","type":"bytes32"}],"stateMutability":"nonpayable","type":"constructor"},{"inputs":[],"name":"ECDSAInvalidSignature","type":"error"},{"inputs":[{"internalType":"uint256","name":"length","type":"uint256"}],"name":"ECDSAInvalidSignatureLength","type":"error"},{"inputs":[{"internalType":"bytes32","name":"s","type":"bytes32"}],"name":"ECDSAInvalidSignatureS","type":"error"},{"inputs":[],"name":"InsufficientVotingPower","type":"error"},{"inputs":[],"name":"InvalidSignature","type":"error"},{"inputs":[],"name":"InvalidValidatorSetNonce","type":"error"},{"inputs":[],"name":"MalformedCurrentValidatorSet","type":"error"},{"inputs":[],"name":"NotGuardian","type":"error"},{"inputs":[],"name":"StaleValidatorSet","type":"error"},{"inputs":[],"name":"SuppliedValidatorSetInvalid","type":"error"},{"inputs":[],"name":"ValidatorSetNotStale","type":"error"},{"anonymous":false,"inputs":[{"indexed":true,"internalType":"uint256","name":"_nonce","type":"uint256"},{"indexed":false,"internalType":"uint256","name":"_powerThreshold","type":"uint256"},{"indexed":false,"internalType":"uint256","name":"_validatorTimestamp","type":"uint256"},{"indexed":false,"internalType":"bytes32","name":"_validatorSetHash","type":"bytes32"}],"name":"ValidatorSetUpdated","type":"event"},{"inputs":[],"name":"guardian","outputs":[{"internalType":"address","name":"","type":"address"}],"stateMutability":"view","type":"function"},{"inputs":[{"internalType":"uint256","name":"_nonce","type":"uint256"},{"internalType":"uint256","name":"_powerThreshold","type":"uint256"},{"internalType":"uint256","name":"_validatorTimestamp","type":"uint256"},{"internalType":"bytes32","name":"_validatorSetCheckpoint","type":"bytes32"}],"name":"guardianResetValidatorSet","outputs":[],"stateMutability":"nonpayable","type":"function"},{"inputs":[],"name":"lastValidatorSetCheckpoint","outputs":[{"internalType":"bytes32","name":"","type":"bytes32"}],"stateMutability":"view","type":"function"},{"inputs":[],"name":"powerThreshold","outputs":[{"internalType":"uint256","name":"","type":"uint256"}],"stateMutability":"view","type":"function"},{"inputs":[],"name":"unbondingPeriod","outputs":[{"internalType":"uint256","name":"","type":"uint256"}],"stateMutability":"view","type":"function"},{"inputs":[{"internalType":"bytes32","name":"_newValidatorSetHash","type":"bytes32"},{"internalType":"uint64","name":"_newPowerThreshold","type":"uint64"},{"internalType":"uint256","name":"_newValidatorTimestamp","type":"uint256"},{"components":[{"internalType":"address","name":"addr","type":"address"},{"internalType":"uint256","name":"power","type":"uint256"}],"internalType":"struct Validator[]","name":"_currentValidatorSet","type":"tuple[]"},{"components":[{"internalType":"uint8","name":"v","type":"uint8"},{"internalType":"bytes32","name":"r","type":"bytes32"},{"internalType":"bytes32","name":"s","type":"bytes32"}],"internalType":"struct Signature[]","name":"_sigs","type":"tuple[]"}],"name":"updateValidatorSet","outputs":[],"stateMutability":"nonpayable","type":"function"},{"inputs":[],"name":"validatorNonce","outputs":[{"internalType":"uint256","name":"","type":"uint256"}],"stateMutability":"view","type":"function"},{"inputs":[],"name":"validatorTimestamp","outputs":[{"internalType":"uint256","name":"","type":"uint256"}],"stateMutability":"view","type":"function"},{"inputs":[{"components":[{"internalType":"bytes32","name":"queryId","type":"bytes32"},{"components":[{"internalType":"bytes","name":"value","type":"bytes"},{"internalType":"uint256","name":"timestamp","type":"uint256"},{"internalType":"uint256","name":"consensusThreshold","type":"uint256"}],"internalType":"struct ReportData","name":"report","type":"tuple"},{"internalType":"uint256","name":"validatorNonce","type":"uint256"},{"internalType":"uint256","name":"powerThreshold","type":"uint256"},{"internalType":"bytes32","name":"validatorSetHash","type":"bytes32"},{"internalType":"uint256","name":"blockTimestamp","type":"uint256"}],"internalType":"struct OracleAttestationData","name":"_attest","type":"tuple"},{"components":[{"internalType":"address","name":"addr","type":"address"},{"internalType":"uint256","name":"power","type":"uint256"}],"internalType":"struct Validator[]","name":"_currentValidatorSet","type":"tuple[]"},{"components":[{"internalType":"uint8","name":"v","type":"uint8"},{"internalType":"bytes32","name":"r","type":"bytes32"},{"internalType":"bytes32","name":"s","type":"bytes32"}],"internalType":"struct Signature[]","name":"_sigs","type":"tuple[]"}],"name":"verifyOracleData","outputs":[{"internalType":"bool","name":"","type":"bool"}],"stateMutability":"view","type":"function"}],"evm":{"bytecode":{"linkReferences":{},"object":"60806040523480156200001157600080fd5b5060405162001797380380620017978339818101604052810190620000379190620000e0565b8460028190555083600181905550826003819055508160048190555080600081905550505050505062000168565b600080fd5b6000819050919050565b6200007f816200006a565b81146200008b57600080fd5b50565b6000815190506200009f8162000074565b92915050565b6000819050919050565b620000ba81620000a5565b8114620000c657600080fd5b50565b600081519050620000da81620000af565b92915050565b600080600080600060a08688031215620000ff57620000fe62000065565b5b60006200010f888289016200008e565b955050602062000122888289016200008e565b945050604062000135888289016200008e565b935050606062000148888289016200008e565b92505060806200015b88828901620000c9565b9150509295509295909350565b61161f80620001786000396000f3fe608060405234801561001057600080fd5b50600436106100935760003560e01c806384330d4c1161006657806384330d4c1461010e578063af082a7d1461012a578063ba95ec2714610148578063cb908d5214610166578063e17a684f1461019657610093565b80633acb764614610098578063452a9320146100b45780634f76f1ee146100d25780636cf6d675146100f0575b600080fd5b6100b260048036038101906100ad9190610c16565b6101b4565b005b6100bc6102a6565b6040516100c99190610cbe565b60405180910390f35b6100da6102cc565b6040516100e79190610ce8565b60405180910390f35b6100f86102d2565b6040516101059190610ce8565b60405180910390f35b61012860048036038101906101239190610dfe565b6102d8565b005b610132610429565b60405161013f9190610ec9565b60405180910390f35b61015061042f565b60405161015d9190610ce8565b60405180910390f35b610180600480360381019061017b9190610f08565b610435565b60405161018d9190610fd4565b60405180910390f35b61019e61053b565b6040516101ab9190610ce8565b60405180910390f35b600560009054906101000a900473ffffffffffffffffffffffffffffffffffffffff1673ffffffffffffffffffffffffffffffffffffffff163373ffffffffffffffffffffffffffffffffffffffff161461023b576040517fef6d0f0200000000000000000000000000000000000000000000000000000000815260040160405180910390fd5b6004546003544261024c919061101e565b1015610284576040517f1c36ced200000000000000000000000000000000000000000000000000000000815260040160405180910390fd5b8360028190555082600181905550816003819055508060008190555050505050565b600560009054906101000a900473ffffffffffffffffffffffffffffffffffffffff1681565b60035481565b60045481565b818190508484905014610317576040517fc6617b7b00000000000000000000000000000000000000000000000000000000815260040160405180910390fd5b60006103238585610541565b905060005461033a60025460015460035485610574565b14610371576040517f177b5d9200000000000000000000000000000000000000000000000000000000815260040160405180910390fd5b600061039760016002546103859190611052565b8967ffffffffffffffff16898c610574565b90506103a986868686856001546105d2565b806000819055508767ffffffffffffffff1660018190555086600381905550600260008154809291906103db90611086565b91905055506002547f9ef7d0f3898c73ccdcd76d7b44b7f79c9e925ab02685d482ec51111908fa7cf089898c60405161041693929190611109565b60405180910390a2505050505050505050565b60005481565b60015481565b6000828290508585905014610476576040517fc6617b7b00000000000000000000000000000000000000000000000000000000815260040160405180910390fd5b60006104828686610541565b905060005461049960025460015460035485610574565b146104d0576040517f177b5d9200000000000000000000000000000000000000000000000000000000815260040160405180910390fd5b60025487604001351461050f576040517fd146bffa00000000000000000000000000000000000000000000000000000000815260040160405180910390fd5b600061051a886107ba565b905061052c87878787856001546105d2565b60019250505095945050505050565b60025481565b6000828260405160200161055692919061129f565b60405160208183030381529060405280519060200120905092915050565b60007f636865636b706f696e740000000000000000000000000000000000000000000060001b858585856040516020016105b29594939291906112c3565b604051602081830303815290604052805190602001209050949350505050565b600454600354426105e3919061101e565b111561061b576040517fe5e5e46400000000000000000000000000000000000000000000000000000000815260040160405180910390fd5b6000805b87879050811015610776576000801b86868381811061064157610640611316565b5b9050606002016020013514801561067657506000801b86868381811061066a57610669611316565b5b90506060020160400135145b80156106af5750600086868381811061069257610691611316565b5b90506060020160000160208101906106aa919061137e565b60ff16145b610769576107008888838181106106c9576106c8611316565b5b90506040020160000160208101906106e191906113ab565b858888858181106106f5576106f4611316565b5b905060600201610876565b610736576040517f8baa579f00000000000000000000000000000000000000000000000000000000815260040160405180910390fd5b87878281811061074957610748611316565b5b905060400201602001358261075e9190611052565b915082821015610776575b808060010191505061061f565b50818110156107b1576040517fcabeb65500000000000000000000000000000000000000000000000000000000815260040160405180910390fd5b50505050505050565b60007f74656c6c6f7243757272656e744174746573746174696f6e000000000000000060001b82600001358380602001906107f591906113e7565b8060000190610804919061140f565b85806020019061081491906113e7565b6020013586806020019061082891906113e7565b604001358760400135886060013589608001358a60a001356040516020016108599a999897969594939291906114d0565b604051602081830303815290604052805190602001209050919050565b600080610882846108e2565b90506108aa8184600001602081019061089b919061137e565b85602001358660400135610918565b73ffffffffffffffffffffffffffffffffffffffff168573ffffffffffffffffffffffffffffffffffffffff16149150509392505050565b60007f19457468657265756d205369676e6564204d6573736167653a0a33320000000060005281601c52603c6000209050919050565b60008060008061092a88888888610948565b92509250925061093a8282610a3c565b829350505050949350505050565b60008060007f7fffffffffffffffffffffffffffffff5d576e7357a4501ddfe92f46681b20a08460001c1115610988576000600385925092509250610a32565b6000600188888888604051600081526020016040526040516109ad9493929190611575565b6020604051602081039080840390855afa1580156109cf573d6000803e3d6000fd5b505050602060405103519050600073ffffffffffffffffffffffffffffffffffffffff168173ffffffffffffffffffffffffffffffffffffffff1603610a2357600060016000801b93509350935050610a32565b8060008060001b935093509350505b9450945094915050565b60006003811115610a5057610a4f6115ba565b5b826003811115610a6357610a626115ba565b5b0315610b9c5760016003811115610a7d57610a7c6115ba565b5b826003811115610a9057610a8f6115ba565b5b03610ac7576040517ff645eedf00000000000000000000000000000000000000000000000000000000815260040160405180910390fd5b60026003811115610adb57610ada6115ba565b5b826003811115610aee57610aed6115ba565b5b03610b33578060001c6040517ffce698f7000000000000000000000000000000000000000000000000000000008152600401610b2a9190610ce8565b60405180910390fd5b600380811115610b4657610b456115ba565b5b826003811115610b5957610b586115ba565b5b03610b9b57806040517fd78bce0c000000000000000000000000000000000000000000000000000000008152600401610b929190610ec9565b60405180910390fd5b5b5050565b600080fd5b600080fd5b6000819050919050565b610bbd81610baa565b8114610bc857600080fd5b50565b600081359050610bda81610bb4565b92915050565b6000819050919050565b610bf381610be0565b8114610bfe57600080fd5b50565b600081359050610c1081610bea565b92915050565b60008060008060808587031215610c3057610c2f610ba0565b5b6000610c3e87828801610bcb565b9450506020610c4f87828801610bcb565b9350506040610c6087828801610bcb565b9250506060610c7187828801610c01565b91505092959194509250565b600073ffffffffffffffffffffffffffffffffffffffff82169050919050565b6000610ca882610c7d565b9050919050565b610cb881610c9d565b82525050565b6000602082019050610cd36000830184610caf565b92915050565b610ce281610baa565b82525050565b6000602082019050610cfd6000830184610cd9565b92915050565b600067ffffffffffffffff82169050919050565b610d2081610d03565b8114610d2b57600080fd5b50565b600081359050610d3d81610d17565b92915050565b600080fd5b600080fd5b600080fd5b60008083601f840112610d6857610d67610d43565b5b8235905067ffffffffffffffff811115610d8557610d84610d48565b5b602083019150836040820283011115610da157610da0610d4d565b5b9250929050565b60008083601f840112610dbe57610dbd610d43565b5b8235905067ffffffffffffffff811115610ddb57610dda610d48565b5b602083019150836060820283011115610df757610df6610d4d565b5b9250929050565b600080600080600080600060a0888a031215610e1d57610e1c610ba0565b5b6000610e2b8a828b01610c01565b9750506020610e3c8a828b01610d2e565b9650506040610e4d8a828b01610bcb565b955050606088013567ffffffffffffffff811115610e6e57610e6d610ba5565b5b610e7a8a828b01610d52565b9450945050608088013567ffffffffffffffff811115610e9d57610e9c610ba5565b5b610ea98a828b01610da8565b925092505092959891949750929550565b610ec381610be0565b82525050565b6000602082019050610ede6000830184610eba565b92915050565b600080fd5b600060c08284031215610eff57610efe610ee4565b5b81905092915050565b600080600080600060608688031215610f2457610f23610ba0565b5b600086013567ffffffffffffffff811115610f4257610f41610ba5565b5b610f4e88828901610ee9565b955050602086013567ffffffffffffffff811115610f6f57610f6e610ba5565b5b610f7b88828901610d52565b9450945050604086013567ffffffffffffffff811115610f9e57610f9d610ba5565b5b610faa88828901610da8565b92509250509295509295909350565b60008115159050919050565b610fce81610fb9565b82525050565b6000602082019050610fe96000830184610fc5565b92915050565b7f4e487b7100000000000000000000000000000000000000000000000000000000600052601160045260246000fd5b600061102982610baa565b915061103483610baa565b925082820390508181111561104c5761104b610fef565b5b92915050565b600061105d82610baa565b915061106883610baa565b92508282019050808211156110805761107f610fef565b5b92915050565b600061109182610baa565b91507fffffffffffffffffffffffffffffffffffffffffffffffffffffffffffffffff82036110c3576110c2610fef565b5b600182019050919050565b6000819050919050565b60006110f36110ee6110e984610d03565b6110ce565b610baa565b9050919050565b611103816110d8565b82525050565b600060608201905061111e60008301866110fa565b61112b6020830185610cd9565b6111386040830184610eba565b949350505050565b600082825260208201905092915050565b6000819050919050565b61116481610c9d565b811461116f57600080fd5b50565b6000813590506111818161115b565b92915050565b60006111966020840184611172565b905092915050565b6111a781610c9d565b82525050565b60006111bc6020840184610bcb565b905092915050565b6111cd81610baa565b82525050565b604082016111e46000830183611187565b6111f1600085018261119e565b506111ff60208301836111ad565b61120c60208501826111c4565b50505050565b600061121e83836111d3565b60408301905092915050565b600082905092915050565b6000604082019050919050565b600061124e8385611140565b935061125982611151565b8060005b858110156112925761126f828461122a565b6112798882611212565b975061128483611235565b92505060018101905061125d565b5085925050509392505050565b600060208201905081810360008301526112ba818486611242565b90509392505050565b600060a0820190506112d86000830188610eba565b6112e56020830187610cd9565b6112f26040830186610cd9565b6112ff6060830185610cd9565b61130c6080830184610eba565b9695505050505050565b7f4e487b7100000000000000000000000000000000000000000000000000000000600052603260045260246000fd5b600060ff82169050919050565b61135b81611345565b811461136657600080fd5b50565b60008135905061137881611352565b92915050565b60006020828403121561139457611393610ba0565b5b60006113a284828501611369565b91505092915050565b6000602082840312156113c1576113c0610ba0565b5b60006113cf84828501611172565b91505092915050565b600080fd5b600080fd5b600080fd5b600082356001606003833603038112611403576114026113d8565b5b80830191505092915050565b6000808335600160200384360303811261142c5761142b6113d8565b5b80840192508235915067ffffffffffffffff82111561144e5761144d6113dd565b5b60208301925060018202360383131561146a576114696113e2565b5b509250929050565b600082825260208201905092915050565b82818337600083830152505050565b6000601f19601f8301169050919050565b60006114af8385611472565b93506114bc838584611483565b6114c583611492565b840190509392505050565b6000610120820190506114e6600083018d610eba565b6114f3602083018c610eba565b8181036040830152611506818a8c6114a3565b90506115156060830189610cd9565b6115226080830188610cd9565b61152f60a0830187610cd9565b61153c60c0830186610cd9565b61154960e0830185610eba565b611557610100830184610cd9565b9b9a5050505050505050505050565b61156f81611345565b82525050565b600060808201905061158a6000830187610eba565b6115976020830186611566565b6115a46040830185610eba565b6115b16060830184610eba565b95945050505050565b7f4e487b7100000000000000000000000000000000000000000000000000000000600052602160045260246000fdfea2646970667358221220564d66d818e832a82f183f5cf5b9c2d8d2be5407b446d4dee72aaa0d45a0b9ee64736f6c63430008160033","opcodes":"PUSH1 0x80 PUSH1 0x40 MSTORE CALLVALUE DUP1 ISZERO PUSH3 0x11 JUMPI PUSH1 0x0 DUP1 REVERT JUMPDEST POP PUSH1 0x40 MLOAD PUSH3 0x1797 CODESIZE SUB DUP1 PUSH3 0x1797 DUP4 CODECOPY DUP2 DUP2 ADD PUSH1 0x40 MSTORE DUP2 ADD SWAP1 PUSH3 0x37 SWAP2 SWAP1 PUSH3 0xE0 JUMP JUMPDEST DUP5 PUSH1 0x2 DUP2 SWAP1 SSTORE POP DUP4 PUSH1 0x1 DUP2 SWAP1 SSTORE POP DUP3 PUSH1 0x3 DUP2 SWAP1 SSTORE POP DUP2 PUSH1 0x4 DUP2 SWAP1 SSTORE POP DUP1 PUSH1 0x0 DUP2 SWAP1 SSTORE POP POP POP POP POP POP PUSH3 0x168 JUMP JUMPDEST PUSH1 0x0 DUP1 REVERT JUMPDEST PUSH1 0x0 DUP2 SWAP1 POP SWAP2 SWAP1 POP JUMP JUMPDEST PUSH3 0x7F DUP2 PUSH3 0x6A JUMP JUMPDEST DUP2 EQ PUSH3 0x8B JUMPI PUSH1 0x0 DUP1 REVERT JUMPDEST POP JUMP JUMPDEST PUSH1 0x0 DUP2 MLOAD SWAP1 POP PUSH3 0x9F DUP2 PUSH3 0x74 JUMP JUMPDEST SWAP3 SWAP2 POP POP JUMP JUMPDEST PUSH1 0x0 DUP2 SWAP1 POP SWAP2 SWAP1 POP JUMP JUMPDEST PUSH3 0xBA DUP2 PUSH3 0xA5 JUMP JUMPDEST DUP2 EQ PUSH3 0xC6 JUMPI PUSH1 0x0 DUP1 REVERT JUMPDEST POP JUMP JUMPDEST PUSH1 0x0 DUP2 MLOAD SWAP1 POP PUSH3 0xDA DUP2 PUSH3 0xAF JUMP JUMPDEST SWAP3 SWAP2 POP POP JUMP JUMPDEST PUSH1 0x0 DUP1 PUSH1 0x0 DUP1 PUSH1 0x0 PUSH1 0xA0 DUP7 DUP9 SUB SLT ISZERO PUSH3 0xFF JUMPI PUSH3 0xFE PUSH3 0x65 JUMP JUMPDEST JUMPDEST PUSH1 0x0 PUSH3 0x10F DUP9 DUP3 DUP10 ADD PUSH3 0x8E JUMP JUMPDEST SWAP6 POP POP PUSH1 0x20 PUSH3 0x122 DUP9 DUP3 DUP10 ADD PUSH3 0x8E JUMP JUMPDEST SWAP5 POP POP PUSH1 0x40 PUSH3 0x135 DUP9 DUP3 DUP10 ADD PUSH3 0x8E JUMP JUMPDEST SWAP4 POP POP PUSH1 0x60 PUSH3 0x148 DUP9 DUP3 DUP10 ADD PUSH3 0x8E JUMP JUMPDEST SWAP3 POP POP PUSH1 0x80 PUSH3 0x15B DUP9 DUP3 DUP10 ADD PUSH3 0xC9 JUMP JUMPDEST SWAP2 POP POP SWAP3 SWAP6 POP SWAP3 SWAP6 SWAP1 SWAP4 POP JUMP JUMPDEST PUSH2 0x161F DUP1 PUSH3 0x178 PUSH1 0x0 CODECOPY PUSH1 0x0 RETURN INVALID PUSH1 0x80 PUSH1 0x40 MSTORE CALLVALUE DUP1 ISZERO PUSH2 0x10 JUMPI PUSH1 0x0 DUP1 REVERT JUMPDEST POP PUSH1 0x4 CALLDATASIZE LT PUSH2 0x93 JUMPI PUSH1 0x0 CALLDATALOAD PUSH1 0xE0 SHR DUP1 PUSH4 0x84330D4C GT PUSH2 0x66 JUMPI DUP1 PUSH4 0x84330D4C EQ PUSH2 0x10E JUMPI DUP1 PUSH4 0xAF082A7D EQ PUSH2 0x12A JUMPI DUP1 PUSH4 0xBA95EC27 EQ PUSH2 0x148 JUMPI DUP1 PUSH4 0xCB908D52 EQ PUSH2 0x166 JUMPI DUP1 PUSH4 0xE17A684F EQ PUSH2 0x196 JUMPI PUSH2 0x93 JUMP JUMPDEST DUP1 PUSH4 0x3ACB7646 EQ PUSH2 0x98 JUMPI DUP1 PUSH4 0x452A9320 EQ PUSH2 0xB4 JUMPI DUP1 PUSH4 0x4F76F1EE EQ PUSH2 0xD2 JUMPI DUP1 PUSH4 0x6CF6D675 EQ PUSH2 0xF0 JUMPI JUMPDEST PUSH1 0x0 DUP1 REVERT JUMPDEST PUSH2 0xB2 PUSH1 0x4 DUP1 CALLDATASIZE SUB DUP2 ADD SWAP1 PUSH2 0xAD SWAP2 SWAP1 PUSH2 0xC16 JUMP JUMPDEST PUSH2 0x1B4 JUMP JUMPDEST STOP JUMPDEST PUSH2 0xBC PUSH2 0x2A6 JUMP JUMPDEST PUSH1 0x40 MLOAD PUSH2 0xC9 SWAP2 SWAP1 PUSH2 0xCBE JUMP JUMPDEST PUSH1 0x40 MLOAD DUP1 SWAP2 SUB SWAP1 RETURN JUMPDEST PUSH2 0xDA PUSH2 0x2CC JUMP JUMPDEST PUSH1 0x40 MLOAD PUSH2 0xE7 SWAP2 SWAP1 PUSH2 0xCE8 JUMP JUMPDEST PUSH1 0x40 MLOAD DUP1 SWAP2 SUB SWAP1 RETURN JUMPDEST PUSH2 0xF8 PUSH2 0x2D2 JUMP JUMPDEST PUSH1 0x40 MLOAD PUSH2 0x105 SWAP2 SWAP1 PUSH2 0xCE8 JUMP JUMPDEST PUSH1 0x40 MLOAD DUP1 SWAP2 SUB SWAP1 RETURN JUMPDEST PUSH2 0x128 PUSH1 0x4 DUP1 CALLDATASIZE SUB DUP2 ADD SWAP1 PUSH2 0x123 SWAP2 SWAP1 PUSH2 0xDFE JUMP JUMPDEST PUSH2 0x2D8 JUMP JUMPDEST STOP JUMPDEST PUSH2 0x132 PUSH2 0x429 JUMP JUMPDEST PUSH1 0x40 MLOAD PUSH2 0x13F SWAP2 SWAP1 PUSH2 0xEC9 JUMP JUMPDEST PUSH1 0x40 MLOAD DUP1 SWAP2 SUB SWAP1 RETURN JUMPDEST PUSH2 0x150 PUSH2 0x42F JUMP JUMPDEST PUSH1 0x40 MLOAD PUSH2 0x15D SWAP2 SWAP1 PUSH2 0xCE8 JUMP JUMPDEST PUSH1 0x40 MLOAD DUP1 SWAP2 SUB SWAP1 RETURN JUMPDEST PUSH2 0x180 PUSH1 0x4 DUP1 CALLDATASIZE SUB DUP2 ADD SWAP1 PUSH2 0x17B SWAP2 SWAP1 PUSH2 0xF08 JUMP JUMPDEST PUSH2 0x435 JUMP JUMPDEST PUSH1 0x40 MLOAD PUSH2 0x18D SWAP2 SWAP1 PUSH2 0xFD4 JUMP JUMPDEST PUSH1 0x40 MLOAD DUP1 SWAP2 SUB SWAP1 RETURN JUMPDEST PUSH2 0x19E PUSH2 0x53B JUMP JUMPDEST PUSH1 0x40 MLOAD PUSH2 0x1AB SWAP2 SWAP1 PUSH2 0xCE8 JUMP JUMPDEST PUSH1 0x40 MLOAD DUP1 SWAP2 SUB SWAP1 RETURN JUMPDEST PUSH1 0x5 PUSH1 0x0 SWAP1 SLOAD SWAP1 PUSH2 0x100 EXP SWAP1 DIV PUSH20 0xFFFFFFFFFFFFFFFFFFFFFFFFFFFFFFFFFFFFFFFF AND PUSH20 0xFFFFFFFFFFFFFFFFFFFFFFFFFFFFFFFFFFFFFFFF AND CALLER PUSH20 0xFFFFFFFFFFFFFFFFFFFFFFFFFFFFFFFFFFFFFFFF AND EQ PUSH2 0x23B JUMPI PUSH1 0x40 MLOAD PUSH32 0xEF6D0F0200000000000000000000000000000000000000000000000000000000 DUP2 MSTORE PUSH1 0x4 ADD PUSH1 0x40 MLOAD DUP1 SWAP2 SUB SWAP1 REVERT JUMPDEST PUSH1 0x4 SLOAD PUSH1 0x3 SLOAD TIMESTAMP PUSH2 0x24C SWAP2 SWAP1 PUSH2 0x101E JUMP JUMPDEST LT ISZERO PUSH2 0x284 JUMPI PUSH1 0x40 MLOAD PUSH32 0x1C36CED200000000000000000000000000000000000000000000000000000000 DUP2 MSTORE PUSH1 0x4 ADD PUSH1 0x40 MLOAD DUP1 SWAP2 SUB SWAP1 REVERT JUMPDEST DUP4 PUSH1 0x2 DUP2 SWAP1 SSTORE POP DUP3 PUSH1 0x1 DUP2 SWAP1 SSTORE POP DUP2 PUSH1 0x3 DUP2 SWAP1 SSTORE POP DUP1 PUSH1 0x0 DUP2 SWAP1 SSTORE POP POP POP POP POP JUMP JUMPDEST PUSH1 0x5 PUSH1 0x0 SWAP1 SLOAD SWAP1 PUSH2 0x100 EXP SWAP1 DIV PUSH20 0xFFFFFFFFFFFFFFFFFFFFFFFFFFFFFFFFFFFFFFFF AND DUP2 JUMP JUMPDEST PUSH1 0x3 SLOAD DUP2 JUMP JUMPDEST PUSH1 0x4 SLOAD DUP2 JUMP JUMPDEST DUP2 DUP2 SWAP1 POP DUP5 DUP5 SWAP1 POP EQ PUSH2 0x317 JUMPI PUSH1 0x40 MLOAD PUSH32 0xC6617B7B00000000000000000000000000000000000000000000000000000000 DUP2 MSTORE PUSH1 0x4 ADD PUSH1 0x40 MLOAD DUP1 SWAP2 SUB SWAP1 REVERT JUMPDEST PUSH1 0x0 PUSH2 0x323 DUP6 DUP6 PUSH2 0x541 JUMP JUMPDEST SWAP1 POP PUSH1 0x0 SLOAD PUSH2 0x33A PUSH1 0x2 SLOAD PUSH1 0x1 SLOAD PUSH1 0x3 SLOAD DUP6 PUSH2 0x574 JUMP JUMPDEST EQ PUSH2 0x371 JUMPI PUSH1 0x40 MLOAD PUSH32 0x177B5D9200000000000000000000000000000000000000000000000000000000 DUP2 MSTORE PUSH1 0x4 ADD PUSH1 0x40 MLOAD DUP1 SWAP2 SUB SWAP1 REVERT JUMPDEST PUSH1 0x0 PUSH2 0x397 PUSH1 0x1 PUSH1 0x2 SLOAD PUSH2 0x385 SWAP2 SWAP1 PUSH2 0x1052 JUMP JUMPDEST DUP10 PUSH8 0xFFFFFFFFFFFFFFFF AND DUP10 DUP13 PUSH2 0x574 JUMP JUMPDEST SWAP1 POP PUSH2 0x3A9 DUP7 DUP7 DUP7 DUP7 DUP6 PUSH1 0x1 SLOAD PUSH2 0x5D2 JUMP JUMPDEST DUP1 PUSH1 0x0 DUP2 SWAP1 SSTORE POP DUP8 PUSH8 0xFFFFFFFFFFFFFFFF AND PUSH1 0x1 DUP2 SWAP1 SSTORE POP DUP7 PUSH1 0x3 DUP2 SWAP1 SSTORE POP PUSH1 0x2 PUSH1 0x0 DUP2 SLOAD DUP1 SWAP3 SWAP2 SWAP1 PUSH2 0x3DB SWAP1 PUSH2 0x1086 JUMP JUMPDEST SWAP2 SWAP1 POP SSTORE POP PUSH1 0x2 SLOAD PUSH32 0x9EF7D0F3898C73CCDCD76D7B44B7F79C9E925AB02685D482EC51111908FA7CF0 DUP10 DUP10 DUP13 PUSH1 0x40 MLOAD PUSH2 0x416 SWAP4 SWAP3 SWAP2 SWAP1 PUSH2 0x1109 JUMP JUMPDEST PUSH1 0x40 MLOAD DUP1 SWAP2 SUB SWAP1 LOG2 POP POP POP POP POP POP POP POP POP JUMP JUMPDEST PUSH1 0x0 SLOAD DUP2 JUMP JUMPDEST PUSH1 0x1 SLOAD DUP2 JUMP JUMPDEST PUSH1 0x0 DUP3 DUP3 SWAP1 POP DUP6 DUP6 SWAP1 POP EQ PUSH2 0x476 JUMPI PUSH1 0x40 MLOAD PUSH32 0xC6617B7B00000000000000000000000000000000000000000000000000000000 DUP2 MSTORE PUSH1 0x4 ADD PUSH1 0x40 MLOAD DUP1 SWAP2 SUB SWAP1 REVERT JUMPDEST PUSH1 0x0 PUSH2 0x482 DUP7 DUP7 PUSH2 0x541 JUMP JUMPDEST SWAP1 POP PUSH1 0x0 SLOAD PUSH2 0x499 PUSH1 0x2 SLOAD PUSH1 0x1 SLOAD PUSH1 0x3 SLOAD DUP6 PUSH2 0x574 JUMP JUMPDEST EQ PUSH2 0x4D0 JUMPI PUSH1 0x40 MLOAD PUSH32 0x177B5D9200000000000000000000000000000000000000000000000000000000 DUP2 MSTORE PUSH1 0x4 ADD PUSH1 0x40 MLOAD DUP1 SWAP2 SUB SWAP1 REVERT JUMPDEST PUSH1 0x2 SLOAD DUP8 PUSH1 0x40 ADD CALLDATALOAD EQ PUSH2 0x50F JUMPI PUSH1 0x40 MLOAD PUSH32 0xD146BFFA00000000000000000000000000000000000000000000000000000000 DUP2 MSTORE PUSH1 0x4 ADD PUSH1 0x40 MLOAD DUP1 SWAP2 SUB SWAP1 REVERT JUMPDEST PUSH1 0x0 PUSH2 0x51A DUP9 PUSH2 0x7BA JUMP JUMPDEST SWAP1 POP PUSH2 0x52C DUP8 DUP8 DUP8 DUP8 DUP6 PUSH1 0x1 SLOAD PUSH2 0x5D2 JUMP JUMPDEST PUSH1 0x1 SWAP3 POP POP POP SWAP6 SWAP5 POP POP POP POP POP JUMP JUMPDEST PUSH1 0x2 SLOAD DUP2 JUMP JUMPDEST PUSH1 0x0 DUP3 DUP3 PUSH1 0x40 MLOAD PUSH1 0x20 ADD PUSH2 0x556 SWAP3 SWAP2 SWAP1 PUSH2 0x129F JUMP JUMPDEST PUSH1 0x40 MLOAD PUSH1 0x20 DUP2 DUP4 SUB SUB DUP2 MSTORE SWAP1 PUSH1 0x40 MSTORE DUP1 MLOAD SWAP1 PUSH1 0x20 ADD KECCAK256 SWAP1 POP SWAP3 SWAP2 POP POP JUMP JUMPDEST PUSH1 0x0 PUSH32 0x636865636B706F696E7400000000000000000000000000000000000000000000 PUSH1 0x0 SHL DUP6 DUP6 DUP6 DUP6 PUSH1 0x40 MLOAD PUSH1 0x20 ADD PUSH2 0x5B2 SWAP6 SWAP5 SWAP4 SWAP3 SWAP2 SWAP1 PUSH2 0x12C3 JUMP JUMPDEST PUSH1 0x40 MLOAD PUSH1 0x20 DUP2 DUP4 SUB SUB DUP2 MSTORE SWAP1 PUSH1 0x40 MSTORE DUP1 MLOAD SWAP1 PUSH1 0x20 ADD KECCAK256 SWAP1 POP SWAP5 SWAP4 POP POP POP POP JUMP JUMPDEST PUSH1 0x4 SLOAD PUSH1 0x3 SLOAD TIMESTAMP PUSH2 0x5E3 SWAP2 SWAP1 PUSH2 0x101E JUMP JUMPDEST GT ISZERO PUSH2 0x61B JUMPI PUSH1 0x40 MLOAD PUSH32 0xE5E5E46400000000000000000000000000000000000000000000000000000000 DUP2 MSTORE PUSH1 0x4 ADD PUSH1 0x40 MLOAD DUP1 SWAP2 SUB SWAP1 REVERT JUMPDEST PUSH1 0x0 DUP1 JUMPDEST DUP8 DUP8 SWAP1 POP DUP2 LT ISZERO PUSH2 0x776 JUMPI PUSH1 0x0 DUP1 SHL DUP7 DUP7 DUP4 DUP2 DUP2 LT PUSH2 0x641 JUMPI PUSH2 0x640 PUSH2 0x1316 JUMP JUMPDEST JUMPDEST SWAP1 POP PUSH1 0x60 MUL ADD PUSH1 0x20 ADD CALLDATALOAD EQ DUP1 ISZERO PUSH2 0x676 JUMPI POP PUSH1 0x0 DUP1 SHL DUP7 DUP7 DUP4 DUP2 DUP2 LT PUSH2 0x66A JUMPI PUSH2 0x669 PUSH2 0x1316 JUMP JUMPDEST JUMPDEST SWAP1 POP PUSH1 0x60 MUL ADD PUSH1 0x40 ADD CALLDATALOAD EQ JUMPDEST DUP1 ISZERO PUSH2 0x6AF JUMPI POP PUSH1 0x0 DUP7 DUP7 DUP4 DUP2 DUP2 LT PUSH2 0x692 JUMPI PUSH2 0x691 PUSH2 0x1316 JUMP JUMPDEST JUMPDEST SWAP1 POP PUSH1 0x60 MUL ADD PUSH1 0x0 ADD PUSH1 0x20 DUP2 ADD SWAP1 PUSH2 0x6AA SWAP2 SWAP1 PUSH2 0x137E JUMP JUMPDEST PUSH1 0xFF AND EQ JUMPDEST PUSH2 0x769 JUMPI PUSH2 0x700 DUP9 DUP9 DUP4 DUP2 DUP2 LT PUSH2 0x6C9 JUMPI PUSH2 0x6C8 PUSH2 0x1316 JUMP JUMPDEST JUMPDEST SWAP1 POP PUSH1 0x40 MUL ADD PUSH1 0x0 ADD PUSH1 0x20 DUP2 ADD SWAP1 PUSH2 0x6E1 SWAP2 SWAP1 PUSH2 0x13AB JUMP JUMPDEST DUP6 DUP9 DUP9 DUP6 DUP2 DUP2 LT PUSH2 0x6F5 JUMPI PUSH2 0x6F4 PUSH2 0x1316 JUMP JUMPDEST JUMPDEST SWAP1 POP PUSH1 0x60 MUL ADD PUSH2 0x876 JUMP JUMPDEST PUSH2 0x736 JUMPI PUSH1 0x40 MLOAD PUSH32 0x8BAA579F00000000000000000000000000000000000000000000000000000000 DUP2 MSTORE PUSH1 0x4 ADD PUSH1 0x40 MLOAD DUP1 SWAP2 SUB SWAP1 REVERT JUMPDEST DUP8 DUP8 DUP3 DUP2 DUP2 LT PUSH2 0x749 JUMPI PUSH2 0x748 PUSH2 0x1316 JUMP JUMPDEST JUMPDEST SWAP1 POP PUSH1 0x40 MUL ADD PUSH1 0x20 ADD CALLDATALOAD DUP3 PUSH2 0x75E SWAP2 SWAP1 PUSH2 0x1052 JUMP JUMPDEST SWAP2 POP DUP3 DUP3 LT ISZERO PUSH2 0x776 JUMPI JUMPDEST DUP1 DUP1 PUSH1 0x1 ADD SWAP2 POP POP PUSH2 0x61F JUMP JUMPDEST POP DUP2 DUP2 LT ISZERO PUSH2 0x7B1 JUMPI PUSH1 0x40 MLOAD PUSH32 0xCABEB65500000000000000000000000000000000000000000000000000000000 DUP2 MSTORE PUSH1 0x4 ADD PUSH1 0x40 MLOAD DUP1 SWAP2 SUB SWAP1 REVERT JUMPDEST POP POP POP POP POP POP POP JUMP JUMPDEST PUSH1 0x0 PUSH32 0x74656C6C6F7243757272656E744174746573746174696F6E0000000000000000 PUSH1 0x0 SHL DUP3 PUSH1 0x0 ADD CALLDATALOAD DUP4 DUP1 PUSH1 0x20 ADD SWAP1 PUSH2 0x7F5 SWAP2 SWAP1 PUSH2 0x13E7 JUMP JUMPDEST DUP1 PUSH1 0x0 ADD SWAP1 PUSH2 0x804 SWAP2 SWAP1 PUSH2 0x140F JUMP JUMPDEST DUP6 DUP1 PUSH1 0x20 ADD SWAP1 PUSH2 0x814 SWAP2 SWAP1 PUSH2 0x13E7 JUMP JUMPDEST PUSH1 0x20 ADD CALLDATALOAD DUP7 DUP1 PUSH1 0x20 ADD SWAP1 PUSH2 0x828 SWAP2 SWAP1 PUSH2 0x13E7 JUMP JUMPDEST PUSH1 0x40 ADD CALLDATALOAD DUP8 PUSH1 0x40 ADD CALLDATALOAD DUP9 PUSH1 0x60 ADD CALLDATALOAD DUP10 PUSH1 0x80 ADD CALLDATALOAD DUP11 PUSH1 0xA0 ADD CALLDATALOAD PUSH1 0x40 MLOAD PUSH1 0x20 ADD PUSH2 0x859 SWAP11 SWAP10 SWAP9 SWAP8 SWAP7 SWAP6 SWAP5 SWAP4 SWAP3 SWAP2 SWAP1 PUSH2 0x14D0 JUMP JUMPDEST PUSH1 0x40 MLOAD PUSH1 0x20 DUP2 DUP4 SUB SUB DUP2 MSTORE SWAP1 PUSH1 0x40 MSTORE DUP1 MLOAD SWAP1 PUSH1 0x20 ADD KECCAK256 SWAP1 POP SWAP2 SWAP1 POP JUMP JUMPDEST PUSH1 0x0 DUP1 PUSH2 0x882 DUP5 PUSH2 0x8E2 JUMP JUMPDEST SWAP1 POP PUSH2 0x8AA DUP2 DUP5 PUSH1 0x0 ADD PUSH1 0x20 DUP2 ADD SWAP1 PUSH2 0x89B SWAP2 SWAP1 PUSH2 0x137E JUMP JUMPDEST DUP6 PUSH1 0x20 ADD CALLDATALOAD DUP7 PUSH1 0x40 ADD CALLDATALOAD PUSH2 0x918 JUMP JUMPDEST PUSH20 0xFFFFFFFFFFFFFFFFFFFFFFFFFFFFFFFFFFFFFFFF AND DUP6 PUSH20 0xFFFFFFFFFFFFFFFFFFFFFFFFFFFFFFFFFFFFFFFF AND EQ SWAP2 POP POP SWAP4 SWAP3 POP POP POP JUMP JUMPDEST PUSH1 0x0 PUSH32 0x19457468657265756D205369676E6564204D6573736167653A0A333200000000 PUSH1 0x0 MSTORE DUP2 PUSH1 0x1C MSTORE PUSH1 0x3C PUSH1 0x0 KECCAK256 SWAP1 POP SWAP2 SWAP1 POP JUMP JUMPDEST PUSH1 0x0 DUP1 PUSH1 0x0 DUP1 PUSH2 0x92A DUP9 DUP9 DUP9 DUP9 PUSH2 0x948 JUMP JUMPDEST SWAP3 POP SWAP3 POP SWAP3 POP PUSH2 0x93A DUP3 DUP3 PUSH2 0xA3C JUMP JUMPDEST DUP3 SWAP4 POP POP POP POP SWAP5 SWAP4 POP POP POP POP JUMP JUMPDEST PUSH1 0x0 DUP1 PUSH1 0x0 PUSH32 0x7FFFFFFFFFFFFFFFFFFFFFFFFFFFFFFF5D576E7357A4501DDFE92F46681B20A0 DUP5 PUSH1 0x0 SHR GT ISZERO PUSH2 0x988 JUMPI PUSH1 0x0 PUSH1 0x3 DUP6 SWAP3 POP SWAP3 POP SWAP3 POP PUSH2 0xA32 JUMP JUMPDEST PUSH1 0x0 PUSH1 0x1 DUP9 DUP9 DUP9 DUP9 PUSH1 0x40 MLOAD PUSH1 0x0 DUP2 MSTORE PUSH1 0x20 ADD PUSH1 0x40 MSTORE PUSH1 0x40 MLOAD PUSH2 0x9AD SWAP5 SWAP4 SWAP3 SWAP2 SWAP1 PUSH2 0x1575 JUMP JUMPDEST PUSH1 0x20 PUSH1 0x40 MLOAD PUSH1 0x20 DUP2 SUB SWAP1 DUP1 DUP5 SUB SWAP1 DUP6 GAS STATICCALL ISZERO DUP1 ISZERO PUSH2 0x9CF JUMPI RETURNDATASIZE PUSH1 0x0 DUP1 RETURNDATACOPY RETURNDATASIZE PUSH1 0x0 REVERT JUMPDEST POP POP POP PUSH1 0x20 PUSH1 0x40 MLOAD SUB MLOAD SWAP1 POP PUSH1 0x0 PUSH20 0xFFFFFFFFFFFFFFFFFFFFFFFFFFFFFFFFFFFFFFFF AND DUP2 PUSH20 0xFFFFFFFFFFFFFFFFFFFFFFFFFFFFFFFFFFFFFFFF AND SUB PUSH2 0xA23 JUMPI PUSH1 0x0 PUSH1 0x1 PUSH1 0x0 DUP1 SHL SWAP4 POP SWAP4 POP SWAP4 POP POP PUSH2 0xA32 JUMP JUMPDEST DUP1 PUSH1 0x0 DUP1 PUSH1 0x0 SHL SWAP4 POP SWAP4 POP SWAP4 POP POP JUMPDEST SWAP5 POP SWAP5 POP SWAP5 SWAP2 POP POP JUMP JUMPDEST PUSH1 0x0 PUSH1 0x3 DUP2 GT ISZERO PUSH2 0xA50 JUMPI PUSH2 0xA4F PUSH2 0x15BA JUMP JUMPDEST JUMPDEST DUP3 PUSH1 0x3 DUP2 GT ISZERO PUSH2 0xA63 JUMPI PUSH2 0xA62 PUSH2 0x15BA JUMP JUMPDEST JUMPDEST SUB ISZERO PUSH2 0xB9C JUMPI PUSH1 0x1 PUSH1 0x3 DUP2 GT ISZERO PUSH2 0xA7D JUMPI PUSH2 0xA7C PUSH2 0x15BA JUMP JUMPDEST JUMPDEST DUP3 PUSH1 0x3 DUP2 GT ISZERO PUSH2 0xA90 JUMPI PUSH2 0xA8F PUSH2 0x15BA JUMP JUMPDEST JUMPDEST SUB PUSH2 0xAC7 JUMPI PUSH1 0x40 MLOAD PUSH32 0xF645EEDF00000000000000000000000000000000000000000000000000000000 DUP2 MSTORE PUSH1 0x4 ADD PUSH1 0x40 MLOAD DUP1 SWAP2 SUB SWAP1 REVERT JUMPDEST PUSH1 0x2 PUSH1 0x3 DUP2 GT ISZERO PUSH2 0xADB JUMPI PUSH2 0xADA PUSH2 0x15BA JUMP JUMPDEST JUMPDEST DUP3 PUSH1 0x3 DUP2 GT ISZERO PUSH2 0xAEE JUMPI PUSH2 0xAED PUSH2 0x15BA JUMP JUMPDEST JUMPDEST SUB PUSH2 0xB33 JUMPI DUP1 PUSH1 0x0 SHR PUSH1 0x40 MLOAD PUSH32 0xFCE698F700000000000000000000000000000000000000000000000000000000 DUP2 MSTORE PUSH1 0x4 ADD PUSH2 0xB2A SWAP2 SWAP1 PUSH2 0xCE8 JUMP JUMPDEST PUSH1 0x40 MLOAD DUP1 SWAP2 SUB SWAP1 REVERT JUMPDEST PUSH1 0x3 DUP1 DUP2 GT ISZERO PUSH2 0xB46 JUMPI PUSH2 0xB45 PUSH2 0x15BA JUMP JUMPDEST JUMPDEST DUP3 PUSH1 0x3 DUP2 GT ISZERO PUSH2 0xB59 JUMPI PUSH2 0xB58 PUSH2 0x15BA JUMP JUMPDEST JUMPDEST SUB PUSH2 0xB9B JUMPI DUP1 PUSH1 0x40 MLOAD PUSH32 0xD78BCE0C00000000000000000000000000000000000000000000000000000000 DUP2 MSTORE PUSH1 0x4 ADD PUSH2 0xB92 SWAP2 SWAP1 PUSH2 0xEC9 JUMP JUMPDEST PUSH1 0x40 MLOAD DUP1 SWAP2 SUB SWAP1 REVERT JUMPDEST JUMPDEST POP POP JUMP JUMPDEST PUSH1 0x0 DUP1 REVERT JUMPDEST PUSH1 0x0 DUP1 REVERT JUMPDEST PUSH1 0x0 DUP2 SWAP1 POP SWAP2 SWAP1 POP JUMP JUMPDEST PUSH2 0xBBD DUP2 PUSH2 0xBAA JUMP JUMPDEST DUP2 EQ PUSH2 0xBC8 JUMPI PUSH1 0x0 DUP1 REVERT JUMPDEST POP JUMP JUMPDEST PUSH1 0x0 DUP2 CALLDATALOAD SWAP1 POP PUSH2 0xBDA DUP2 PUSH2 0xBB4 JUMP JUMPDEST SWAP3 SWAP2 POP POP JUMP JUMPDEST PUSH1 0x0 DUP2 SWAP1 POP SWAP2 SWAP1 POP JUMP JUMPDEST PUSH2 0xBF3 DUP2 PUSH2 0xBE0 JUMP JUMPDEST DUP2 EQ PUSH2 0xBFE JUMPI PUSH1 0x0 DUP1 REVERT JUMPDEST POP JUMP JUMPDEST PUSH1 0x0 DUP2 CALLDATALOAD SWAP1 POP PUSH2 0xC10 DUP2 PUSH2 0xBEA JUMP JUMPDEST SWAP3 SWAP2 POP POP JUMP JUMPDEST PUSH1 0x0 DUP1 PUSH1 0x0 DUP1 PUSH1 0x80 DUP6 DUP8 SUB SLT ISZERO PUSH2 0xC30 JUMPI PUSH2 0xC2F PUSH2 0xBA0 JUMP JUMPDEST JUMPDEST PUSH1 0x0 PUSH2 0xC3E DUP8 DUP3 DUP9 ADD PUSH2 0xBCB JUMP JUMPDEST SWAP5 POP POP PUSH1 0x20 PUSH2 0xC4F DUP8 DUP3 DUP9 ADD PUSH2 0xBCB JUMP JUMPDEST SWAP4 POP POP PUSH1 0x40 PUSH2 0xC60 DUP8 DUP3 DUP9 ADD PUSH2 0xBCB JUMP JUMPDEST SWAP3 POP POP PUSH1 0x60 PUSH2 0xC71 DUP8 DUP3 DUP9 ADD PUSH2 0xC01 JUMP JUMPDEST SWAP2 POP POP SWAP3 SWAP6 SWAP2 SWAP5 POP SWAP3 POP JUMP JUMPDEST PUSH1 0x0 PUSH20 0xFFFFFFFFFFFFFFFFFFFFFFFFFFFFFFFFFFFFFFFF DUP3 AND SWAP1 POP SWAP2 SWAP1 POP JUMP JUMPDEST PUSH1 0x0 PUSH2 0xCA8 DUP3 PUSH2 0xC7D JUMP JUMPDEST SWAP1 POP SWAP2 SWAP1 POP JUMP JUMPDEST PUSH2 0xCB8 DUP2 PUSH2 0xC9D JUMP JUMPDEST DUP3 MSTORE POP POP JUMP JUMPDEST PUSH1 0x0 PUSH1 0x20 DUP3 ADD SWAP1 POP PUSH2 0xCD3 PUSH1 0x0 DUP4 ADD DUP5 PUSH2 0xCAF JUMP JUMPDEST SWAP3 SWAP2 POP POP JUMP JUMPDEST PUSH2 0xCE2 DUP2 PUSH2 0xBAA JUMP JUMPDEST DUP3 MSTORE POP POP JUMP JUMPDEST PUSH1 0x0 PUSH1 0x20 DUP3 ADD SWAP1 POP PUSH2 0xCFD PUSH1 0x0 DUP4 ADD DUP5 PUSH2 0xCD9 JUMP JUMPDEST SWAP3 SWAP2 POP POP JUMP JUMPDEST PUSH1 0x0 PUSH8 0xFFFFFFFFFFFFFFFF DUP3 AND SWAP1 POP SWAP2 SWAP1 POP JUMP JUMPDEST PUSH2 0xD20 DUP2 PUSH2 0xD03 JUMP JUMPDEST DUP2 EQ PUSH2 0xD2B JUMPI PUSH1 0x0 DUP1 REVERT JUMPDEST POP JUMP JUMPDEST PUSH1 0x0 DUP2 CALLDATALOAD SWAP1 POP PUSH2 0xD3D DUP2 PUSH2 0xD17 JUMP JUMPDEST SWAP3 SWAP2 POP POP JUMP JUMPDEST PUSH1 0x0 DUP1 REVERT JUMPDEST PUSH1 0x0 DUP1 REVERT JUMPDEST PUSH1 0x0 DUP1 REVERT JUMPDEST PUSH1 0x0 DUP1 DUP4 PUSH1 0x1F DUP5 ADD SLT PUSH2 0xD68 JUMPI PUSH2 0xD67 PUSH2 0xD43 JUMP JUMPDEST JUMPDEST DUP3 CALLDATALOAD SWAP1 POP PUSH8 0xFFFFFFFFFFFFFFFF DUP2 GT ISZERO PUSH2 0xD85 JUMPI PUSH2 0xD84 PUSH2 0xD48 JUMP JUMPDEST JUMPDEST PUSH1 0x20 DUP4 ADD SWAP2 POP DUP4 PUSH1 0x40 DUP3 MUL DUP4 ADD GT ISZERO PUSH2 0xDA1 JUMPI PUSH2 0xDA0 PUSH2 0xD4D JUMP JUMPDEST JUMPDEST SWAP3 POP SWAP3 SWAP1 POP JUMP JUMPDEST PUSH1 0x0 DUP1 DUP4 PUSH1 0x1F DUP5 ADD SLT PUSH2 0xDBE JUMPI PUSH2 0xDBD PUSH2 0xD43 JUMP JUMPDEST JUMPDEST DUP3 CALLDATALOAD SWAP1 POP PUSH8 0xFFFFFFFFFFFFFFFF DUP2 GT ISZERO PUSH2 0xDDB JUMPI PUSH2 0xDDA PUSH2 0xD48 JUMP JUMPDEST JUMPDEST PUSH1 0x20 DUP4 ADD SWAP2 POP DUP4 PUSH1 0x60 DUP3 MUL DUP4 ADD GT ISZERO PUSH2 0xDF7 JUMPI PUSH2 0xDF6 PUSH2 0xD4D JUMP JUMPDEST JUMPDEST SWAP3 POP SWAP3 SWAP1 POP JUMP JUMPDEST PUSH1 0x0 DUP1 PUSH1 0x0 DUP1 PUSH1 0x0 DUP1 PUSH1 0x0 PUSH1 0xA0 DUP9 DUP11 SUB SLT ISZERO PUSH2 0xE1D JUMPI PUSH2 0xE1C PUSH2 0xBA0 JUMP JUMPDEST JUMPDEST PUSH1 0x0 PUSH2 0xE2B DUP11 DUP3 DUP12 ADD PUSH2 0xC01 JUMP JUMPDEST SWAP8 POP POP PUSH1 0x20 PUSH2 0xE3C DUP11 DUP3 DUP12 ADD PUSH2 0xD2E JUMP JUMPDEST SWAP7 POP POP PUSH1 0x40 PUSH2 0xE4D DUP11 DUP3 DUP12 ADD PUSH2 0xBCB JUMP JUMPDEST SWAP6 POP POP PUSH1 0x60 DUP9 ADD CALLDATALOAD PUSH8 0xFFFFFFFFFFFFFFFF DUP2 GT ISZERO PUSH2 0xE6E JUMPI PUSH2 0xE6D PUSH2 0xBA5 JUMP JUMPDEST JUMPDEST PUSH2 0xE7A DUP11 DUP3 DUP12 ADD PUSH2 0xD52 JUMP JUMPDEST SWAP5 POP SWAP5 POP POP PUSH1 0x80 DUP9 ADD CALLDATALOAD PUSH8 0xFFFFFFFFFFFFFFFF DUP2 GT ISZERO PUSH2 0xE9D JUMPI PUSH2 0xE9C PUSH2 0xBA5 JUMP JUMPDEST JUMPDEST PUSH2 0xEA9 DUP11 DUP3 DUP12 ADD PUSH2 0xDA8 JUMP JUMPDEST SWAP3 POP SWAP3 POP POP SWAP3 SWAP6 SWAP9 SWAP2 SWAP5 SWAP8 POP SWAP3 SWAP6 POP JUMP JUMPDEST PUSH2 0xEC3 DUP2 PUSH2 0xBE0 JUMP JUMPDEST DUP3 MSTORE POP POP JUMP JUMPDEST PUSH1 0x0 PUSH1 0x20 DUP3 ADD SWAP1 POP PUSH2 0xEDE PUSH1 0x0 DUP4 ADD DUP5 PUSH2 0xEBA JUMP JUMPDEST SWAP3 SWAP2 POP POP JUMP JUMPDEST PUSH1 0x0 DUP1 REVERT JUMPDEST PUSH1 0x0 PUSH1 0xC0 DUP3 DUP5 SUB SLT ISZERO PUSH2 0xEFF JUMPI PUSH2 0xEFE PUSH2 0xEE4 JUMP JUMPDEST JUMPDEST DUP2 SWAP1 POP SWAP3 SWAP2 POP POP JUMP JUMPDEST PUSH1 0x0 DUP1 PUSH1 0x0 DUP1 PUSH1 0x0 PUSH1 0x60 DUP7 DUP9 SUB SLT ISZERO PUSH2 0xF24 JUMPI PUSH2 0xF23 PUSH2 0xBA0 JUMP JUMPDEST JUMPDEST PUSH1 0x0 DUP7 ADD CALLDATALOAD PUSH8 0xFFFFFFFFFFFFFFFF DUP2 GT ISZERO PUSH2 0xF42 JUMPI PUSH2 0xF41 PUSH2 0xBA5 JUMP JUMPDEST JUMPDEST PUSH2 0xF4E DUP9 DUP3 DUP10 ADD PUSH2 0xEE9 JUMP JUMPDEST SWAP6 POP POP PUSH1 0x20 DUP7 ADD CALLDATALOAD PUSH8 0xFFFFFFFFFFFFFFFF DUP2 GT ISZERO PUSH2 0xF6F JUMPI PUSH2 0xF6E PUSH2 0xBA5 JUMP JUMPDEST JUMPDEST PUSH2 0xF7B DUP9 DUP3 DUP10 ADD PUSH2 0xD52 JUMP JUMPDEST SWAP5 POP SWAP5 POP POP PUSH1 0x40 DUP7 ADD CALLDATALOAD PUSH8 0xFFFFFFFFFFFFFFFF DUP2 GT ISZERO PUSH2 0xF9E JUMPI PUSH2 0xF9D PUSH2 0xBA5 JUMP JUMPDEST JUMPDEST PUSH2 0xFAA DUP9 DUP3 DUP10 ADD PUSH2 0xDA8 JUMP JUMPDEST SWAP3 POP SWAP3 POP POP SWAP3 SWAP6 POP SWAP3 SWAP6 SWAP1 SWAP4 POP JUMP JUMPDEST PUSH1 0x0 DUP2 ISZERO ISZERO SWAP1 POP SWAP2 SWAP1 POP JUMP JUMPDEST PUSH2 0xFCE DUP2 PUSH2 0xFB9 JUMP JUMPDEST DUP3 MSTORE POP POP JUMP JUMPDEST PUSH1 0x0 PUSH1 0x20 DUP3 ADD SWAP1 POP PUSH2 0xFE9 PUSH1 0x0 DUP4 ADD DUP5 PUSH2 0xFC5 JUMP JUMPDEST SWAP3 SWAP2 POP POP JUMP JUMPDEST PUSH32 0x4E487B7100000000000000000000000000000000000000000000000000000000 PUSH1 0x0 MSTORE PUSH1 0x11 PUSH1 0x4 MSTORE PUSH1 0x24 PUSH1 0x0 REVERT JUMPDEST PUSH1 0x0 PUSH2 0x1029 DUP3 PUSH2 0xBAA JUMP JUMPDEST SWAP2 POP PUSH2 0x1034 DUP4 PUSH2 0xBAA JUMP JUMPDEST SWAP3 POP DUP3 DUP3 SUB SWAP1 POP DUP2 DUP2 GT ISZERO PUSH2 0x104C JUMPI PUSH2 0x104B PUSH2 0xFEF JUMP JUMPDEST JUMPDEST SWAP3 SWAP2 POP POP JUMP JUMPDEST PUSH1 0x0 PUSH2 0x105D DUP3 PUSH2 0xBAA JUMP JUMPDEST SWAP2 POP PUSH2 0x1068 DUP4 PUSH2 0xBAA JUMP JUMPDEST SWAP3 POP DUP3 DUP3 ADD SWAP1 POP DUP1 DUP3 GT ISZERO PUSH2 0x1080 JUMPI PUSH2 0x107F PUSH2 0xFEF JUMP JUMPDEST JUMPDEST SWAP3 SWAP2 POP POP JUMP JUMPDEST PUSH1 0x0 PUSH2 0x1091 DUP3 PUSH2 0xBAA JUMP JUMPDEST SWAP2 POP PUSH32 0xFFFFFFFFFFFFFFFFFFFFFFFFFFFFFFFFFFFFFFFFFFFFFFFFFFFFFFFFFFFFFFFF DUP3 SUB PUSH2 0x10C3 JUMPI PUSH2 0x10C2 PUSH2 0xFEF JUMP JUMPDEST JUMPDEST PUSH1 0x1 DUP3 ADD SWAP1 POP SWAP2 SWAP1 POP JUMP JUMPDEST PUSH1 0x0 DUP2 SWAP1 POP SWAP2 SWAP1 POP JUMP JUMPDEST PUSH1 0x0 PUSH2 0x10F3 PUSH2 0x10EE PUSH2 0x10E9 DUP5 PUSH2 0xD03 JUMP JUMPDEST PUSH2 0x10CE JUMP JUMPDEST PUSH2 0xBAA JUMP JUMPDEST SWAP1 POP SWAP2 SWAP1 POP JUMP JUMPDEST PUSH2 0x1103 DUP2 PUSH2 0x10D8 JUMP JUMPDEST DUP3 MSTORE POP POP JUMP JUMPDEST PUSH1 0x0 PUSH1 0x60 DUP3 ADD SWAP1 POP PUSH2 0x111E PUSH1 0x0 DUP4 ADD DUP7 PUSH2 0x10FA JUMP JUMPDEST PUSH2 0x112B PUSH1 0x20 DUP4 ADD DUP6 PUSH2 0xCD9 JUMP JUMPDEST PUSH2 0x1138 PUSH1 0x40 DUP4 ADD DUP5 PUSH2 0xEBA JUMP JUMPDEST SWAP5 SWAP4 POP POP POP POP JUMP JUMPDEST PUSH1 0x0 DUP3 DUP3 MSTORE PUSH1 0x20 DUP3 ADD SWAP1 POP SWAP3 SWAP2 POP POP JUMP JUMPDEST PUSH1 0x0 DUP2 SWAP1 POP SWAP2 SWAP1 POP JUMP JUMPDEST PUSH2 0x1164 DUP2 PUSH2 0xC9D JUMP JUMPDEST DUP2 EQ PUSH2 0x116F JUMPI PUSH1 0x0 DUP1 REVERT JUMPDEST POP JUMP JUMPDEST PUSH1 0x0 DUP2 CALLDATALOAD SWAP1 POP PUSH2 0x1181 DUP2 PUSH2 0x115B JUMP JUMPDEST SWAP3 SWAP2 POP POP JUMP JUMPDEST PUSH1 0x0 PUSH2 0x1196 PUSH1 0x20 DUP5 ADD DUP5 PUSH2 0x1172 JUMP JUMPDEST SWAP1 POP SWAP3 SWAP2 POP POP JUMP JUMPDEST PUSH2 0x11A7 DUP2 PUSH2 0xC9D JUMP JUMPDEST DUP3 MSTORE POP POP JUMP JUMPDEST PUSH1 0x0 PUSH2 0x11BC PUSH1 0x20 DUP5 ADD DUP5 PUSH2 0xBCB JUMP JUMPDEST SWAP1 POP SWAP3 SWAP2 POP POP JUMP JUMPDEST PUSH2 0x11CD DUP2 PUSH2 0xBAA JUMP JUMPDEST DUP3 MSTORE POP POP JUMP JUMPDEST PUSH1 0x40 DUP3 ADD PUSH2 0x11E4 PUSH1 0x0 DUP4 ADD DUP4 PUSH2 0x1187 JUMP JUMPDEST PUSH2 0x11F1 PUSH1 0x0 DUP6 ADD DUP3 PUSH2 0x119E JUMP JUMPDEST POP PUSH2 0x11FF PUSH1 0x20 DUP4 ADD DUP4 PUSH2 0x11AD JUMP JUMPDEST PUSH2 0x120C PUSH1 0x20 DUP6 ADD DUP3 PUSH2 0x11C4 JUMP JUMPDEST POP POP POP POP JUMP JUMPDEST PUSH1 0x0 PUSH2 0x121E DUP4 DUP4 PUSH2 0x11D3 JUMP JUMPDEST PUSH1 0x40 DUP4 ADD SWAP1 POP SWAP3 SWAP2 POP POP JUMP JUMPDEST PUSH1 0x0 DUP3 SWAP1 POP SWAP3 SWAP2 POP POP JUMP JUMPDEST PUSH1 0x0 PUSH1 0x40 DUP3 ADD SWAP1 POP SWAP2 SWAP1 POP JUMP JUMPDEST PUSH1 0x0 PUSH2 0x124E DUP4 DUP6 PUSH2 0x1140 JUMP JUMPDEST SWAP4 POP PUSH2 0x1259 DUP3 PUSH2 0x1151 JUMP JUMPDEST DUP1 PUSH1 0x0 JUMPDEST DUP6 DUP2 LT ISZERO PUSH2 0x1292 JUMPI PUSH2 0x126F DUP3 DUP5 PUSH2 0x122A JUMP JUMPDEST PUSH2 0x1279 DUP9 DUP3 PUSH2 0x1212 JUMP JUMPDEST SWAP8 POP PUSH2 0x1284 DUP4 PUSH2 0x1235 JUMP JUMPDEST SWAP3 POP POP PUSH1 0x1 DUP2 ADD SWAP1 POP PUSH2 0x125D JUMP JUMPDEST POP DUP6 SWAP3 POP POP POP SWAP4 SWAP3 POP POP POP JUMP JUMPDEST PUSH1 0x0 PUSH1 0x20 DUP3 ADD SWAP1 POP DUP2 DUP2 SUB PUSH1 0x0 DUP4 ADD MSTORE PUSH2 0x12BA DUP2 DUP5 DUP7 PUSH2 0x1242 JUMP JUMPDEST SWAP1 POP SWAP4 SWAP3 POP POP POP JUMP JUMPDEST PUSH1 0x0 PUSH1 0xA0 DUP3 ADD SWAP1 POP PUSH2 0x12D8 PUSH1 0x0 DUP4 ADD DUP9 PUSH2 0xEBA JUMP JUMPDEST PUSH2 0x12E5 PUSH1 0x20 DUP4 ADD DUP8 PUSH2 0xCD9 JUMP JUMPDEST PUSH2 0x12F2 PUSH1 0x40 DUP4 ADD DUP7 PUSH2 0xCD9 JUMP JUMPDEST PUSH2 0x12FF PUSH1 0x60 DUP4 ADD DUP6 PUSH2 0xCD9 JUMP JUMPDEST PUSH2 0x130C PUSH1 0x80 DUP4 ADD DUP5 PUSH2 0xEBA JUMP JUMPDEST SWAP7 SWAP6 POP POP POP POP POP POP JUMP JUMPDEST PUSH32 0x4E487B7100000000000000000000000000000000000000000000000000000000 PUSH1 0x0 MSTORE PUSH1 0x32 PUSH1 0x4 MSTORE PUSH1 0x24 PUSH1 0x0 REVERT JUMPDEST PUSH1 0x0 PUSH1 0xFF DUP3 AND SWAP1 POP SWAP2 SWAP1 POP JUMP JUMPDEST PUSH2 0x135B DUP2 PUSH2 0x1345 JUMP JUMPDEST DUP2 EQ PUSH2 0x1366 JUMPI PUSH1 0x0 DUP1 REVERT JUMPDEST POP JUMP JUMPDEST PUSH1 0x0 DUP2 CALLDATALOAD SWAP1 POP PUSH2 0x1378 DUP2 PUSH2 0x1352 JUMP JUMPDEST SWAP3 SWAP2 POP POP JUMP JUMPDEST PUSH1 0x0 PUSH1 0x20 DUP3 DUP5 SUB SLT ISZERO PUSH2 0x1394 JUMPI PUSH2 0x1393 PUSH2 0xBA0 JUMP JUMPDEST JUMPDEST PUSH1 0x0 PUSH2 0x13A2 DUP5 DUP3 DUP6 ADD PUSH2 0x1369 JUMP JUMPDEST SWAP2 POP POP SWAP3 SWAP2 POP POP JUMP JUMPDEST PUSH1 0x0 PUSH1 0x20 DUP3 DUP5 SUB SLT ISZERO PUSH2 0x13C1 JUMPI PUSH2 0x13C0 PUSH2 0xBA0 JUMP JUMPDEST JUMPDEST PUSH1 0x0 PUSH2 0x13CF DUP5 DUP3 DUP6 ADD PUSH2 0x1172 JUMP JUMPDEST SWAP2 POP POP SWAP3 SWAP2 POP POP JUMP JUMPDEST PUSH1 0x0 DUP1 REVERT JUMPDEST PUSH1 0x0 DUP1 REVERT JUMPDEST PUSH1 0x0 DUP1 REVERT JUMPDEST PUSH1 0x0 DUP3 CALLDATALOAD PUSH1 0x1 PUSH1 0x60 SUB DUP4 CALLDATASIZE SUB SUB DUP2 SLT PUSH2 0x1403 JUMPI PUSH2 0x1402 PUSH2 0x13D8 JUMP JUMPDEST JUMPDEST DUP1 DUP4 ADD SWAP2 POP POP SWAP3 SWAP2 POP POP JUMP JUMPDEST PUSH1 0x0 DUP1 DUP4 CALLDATALOAD PUSH1 0x1 PUSH1 0x20 SUB DUP5 CALLDATASIZE SUB SUB DUP2 SLT PUSH2 0x142C JUMPI PUSH2 0x142B PUSH2 0x13D8 JUMP JUMPDEST JUMPDEST DUP1 DUP5 ADD SWAP3 POP DUP3 CALLDATALOAD SWAP2 POP PUSH8 0xFFFFFFFFFFFFFFFF DUP3 GT ISZERO PUSH2 0x144E JUMPI PUSH2 0x144D PUSH2 0x13DD JUMP JUMPDEST JUMPDEST PUSH1 0x20 DUP4 ADD SWAP3 POP PUSH1 0x1 DUP3 MUL CALLDATASIZE SUB DUP4 SGT ISZERO PUSH2 0x146A JUMPI PUSH2 0x1469 PUSH2 0x13E2 JUMP JUMPDEST JUMPDEST POP SWAP3 POP SWAP3 SWAP1 POP JUMP JUMPDEST PUSH1 0x0 DUP3 DUP3 MSTORE PUSH1 0x20 DUP3 ADD SWAP1 POP SWAP3 SWAP2 POP POP JUMP JUMPDEST DUP3 DUP2 DUP4 CALLDATACOPY PUSH1 0x0 DUP4 DUP4 ADD MSTORE POP POP POP JUMP JUMPDEST PUSH1 0x0 PUSH1 0x1F NOT PUSH1 0x1F DUP4 ADD AND SWAP1 POP SWAP2 SWAP1 POP JUMP JUMPDEST PUSH1 0x0 PUSH2 0x14AF DUP4 DUP6 PUSH2 0x1472 JUMP JUMPDEST SWAP4 POP PUSH2 0x14BC DUP4 DUP6 DUP5 PUSH2 0x1483 JUMP JUMPDEST PUSH2 0x14C5 DUP4 PUSH2 0x1492 JUMP JUMPDEST DUP5 ADD SWAP1 POP SWAP4 SWAP3 POP POP POP JUMP JUMPDEST PUSH1 0x0 PUSH2 0x120 DUP3 ADD SWAP1 POP PUSH2 0x14E6 PUSH1 0x0 DUP4 ADD DUP14 PUSH2 0xEBA JUMP JUMPDEST PUSH2 0x14F3 PUSH1 0x20 DUP4 ADD DUP13 PUSH2 0xEBA JUMP JUMPDEST DUP2 DUP2 SUB PUSH1 0x40 DUP4 ADD MSTORE PUSH2 0x1506 DUP2 DUP11 DUP13 PUSH2 0x14A3 JUMP JUMPDEST SWAP1 POP PUSH2 0x1515 PUSH1 0x60 DUP4 ADD DUP10 PUSH2 0xCD9 JUMP JUMPDEST PUSH2 0x1522 PUSH1 0x80 DUP4 ADD DUP9 PUSH2 0xCD9 JUMP JUMPDEST PUSH2 0x152F PUSH1 0xA0 DUP4 ADD DUP8 PUSH2 0xCD9 JUMP JUMPDEST PUSH2 0x153C PUSH1 0xC0 DUP4 ADD DUP7 PUSH2 0xCD9 JUMP JUMPDEST PUSH2 0x1549 PUSH1 0xE0 DUP4 ADD DUP6 PUSH2 0xEBA JUMP JUMPDEST PUSH2 0x1557 PUSH2 0x100 DUP4 ADD DUP5 PUSH2 0xCD9 JUMP JUMPDEST SWAP12 SWAP11 POP POP POP POP POP POP POP POP POP POP POP JUMP JUMPDEST PUSH2 0x156F DUP2 PUSH2 0x1345 JUMP JUMPDEST DUP3 MSTORE POP POP JUMP JUMPDEST PUSH1 0x0 PUSH1 0x80 DUP3 ADD SWAP1 POP PUSH2 0x158A PUSH1 0x0 DUP4 ADD DUP8 PUSH2 0xEBA JUMP JUMPDEST PUSH2 0x1597 PUSH1 0x20 DUP4 ADD DUP7 PUSH2 0x1566 JUMP JUMPDEST PUSH2 0x15A4 PUSH1 0x40 DUP4 ADD DUP6 PUSH2 0xEBA JUMP JUMPDEST PUSH2 0x15B1 PUSH1 0x60 DUP4 ADD DUP5 PUSH2 0xEBA JUMP JUMPDEST SWAP6 SWAP5 POP POP POP POP POP JUMP JUMPDEST PUSH32 0x4E487B7100000000000000000000000000000000000000000000000000000000 PUSH1 0x0 MSTORE PUSH1 0x21 PUSH1 0x4 MSTORE PUSH1 0x24 PUSH1 0x0 REVERT INVALID LOG2 PUSH5 0x6970667358 0x22 SLT KECCAK256 JUMP 0x4D PUSH7 0xD818E832A82F18 EXTCODEHASH 0x5C CREATE2 0xB9 0xC2 0xD8 0xD2 0xBE SLOAD SMOD 0xB4 CHAINID 0xD4 0xDE 0xE7 0x2A 0xAA 0xD GASLIMIT LOG0 0xB9 0xEE PUSH5 0x736F6C6343 STOP ADDMOD AND STOP CALLER "},"methodIdentifiers":{"guardian()":"452a9320","guardianResetValidatorSet(uint256,uint256,uint256,bytes32)":"3acb7646","lastValidatorSetCheckpoint()":"af082a7d","powerThreshold()":"ba95ec27","unbondingPeriod()":"6cf6d675","updateValidatorSet(bytes32,uint64,uint256,(address,uint256)[],(uint8,bytes32,bytes32)[])":"84330d4c","validatorNonce()":"e17a684f","validatorTimestamp()":"4f76f1ee","verifyOracleData((bytes32,(bytes,uint256,uint256),uint256,uint256,bytes32,uint256),(address,uint256)[],(uint8,bytes32,bytes32)[])":"cb908d52"}}}}}