{"contracts/bridge/LayerLightClientBridge.sol":{"Blobstream":{"abi":[{"inputs":[{"internalType":"uint256","name":"_nonce","type":"uint256"},{"internalType":"uint256","name":"_powerThreshold","type":"uint256"},{"internalType":"bytes32","name":"_validatorSetCheckpoint","type":"bytes32"}],"stateMutability":"nonpayable","type":"constructor"},{"inputs":[],"name":"ECDSAInvalidSignature","type":"error"},{"inputs":[{"internalType":"uint256","name":"length","type":"uint256"}],"name":"ECDSAInvalidSignatureLength","type":"error"},{"inputs":[{"internalType":"bytes32","name":"s","type":"bytes32"}],"name":"ECDSAInvalidSignatureS","type":"error"},{"inputs":[],"name":"InsufficientVotingPower","type":"error"},{"inputs":[],"name":"InvalidDataRootTupleRootNonce","type":"error"},{"inputs":[],"name":"InvalidSignature","type":"error"},{"inputs":[],"name":"InvalidValidatorSetNonce","type":"error"},{"inputs":[],"name":"MalformedCurrentValidatorSet","type":"error"},{"inputs":[],"name":"SuppliedValidatorSetInvalid","type":"error"},{"anonymous":false,"inputs":[{"indexed":true,"internalType":"uint256","name":"nonce","type":"uint256"},{"indexed":false,"internalType":"bytes32","name":"dataRootTupleRoot","type":"bytes32"}],"name":"DataRootTupleRootEvent","type":"event"},{"anonymous":false,"inputs":[{"indexed":true,"internalType":"uint256","name":"nonce","type":"uint256"},{"indexed":false,"internalType":"uint256","name":"powerThreshold","type":"uint256"},{"indexed":false,"internalType":"bytes32","name":"validatorSetHash","type":"bytes32"}],"name":"ValidatorSetUpdatedEvent","type":"event"},{"inputs":[{"internalType":"uint256","name":"","type":"uint256"}],"name":"state_dataRootTupleRoots","outputs":[{"internalType":"bytes32","name":"","type":"bytes32"}],"stateMutability":"view","type":"function"},{"inputs":[],"name":"state_eventNonce","outputs":[{"internalType":"uint256","name":"","type":"uint256"}],"stateMutability":"view","type":"function"},{"inputs":[],"name":"state_lastValidatorSetCheckpoint","outputs":[{"internalType":"bytes32","name":"","type":"bytes32"}],"stateMutability":"view","type":"function"},{"inputs":[],"name":"state_powerThreshold","outputs":[{"internalType":"uint256","name":"","type":"uint256"}],"stateMutability":"view","type":"function"},{"inputs":[{"internalType":"uint256","name":"_newNonce","type":"uint256"},{"internalType":"uint256","name":"_validatorSetNonce","type":"uint256"},{"internalType":"bytes32","name":"_dataRootTupleRoot","type":"bytes32"},{"components":[{"internalType":"address","name":"addr","type":"address"},{"internalType":"uint256","name":"power","type":"uint256"}],"internalType":"struct Validator[]","name":"_currentValidatorSet","type":"tuple[]"},{"components":[{"internalType":"uint8","name":"v","type":"uint8"},{"internalType":"bytes32","name":"r","type":"bytes32"},{"internalType":"bytes32","name":"s","type":"bytes32"}],"internalType":"struct Signature[]","name":"_sigs","type":"tuple[]"}],"name":"submitDataRootTupleRoot","outputs":[],"stateMutability":"nonpayable","type":"function"},{"inputs":[{"internalType":"uint256","name":"_newNonce","type":"uint256"},{"internalType":"uint256","name":"_oldNonce","type":"uint256"},{"internalType":"uint256","name":"_newPowerThreshold","type":"uint256"},{"internalType":"bytes32","name":"_newValidatorSetHash","type":"bytes32"},{"components":[{"internalType":"address","name":"addr","type":"address"},{"internalType":"uint256","name":"power","type":"uint256"}],"internalType":"struct Validator[]","name":"_currentValidatorSet","type":"tuple[]"},{"components":[{"internalType":"uint8","name":"v","type":"uint8"},{"internalType":"bytes32","name":"r","type":"bytes32"},{"internalType":"bytes32","name":"s","type":"bytes32"}],"internalType":"struct Signature[]","name":"_sigs","type":"tuple[]"}],"name":"updateValidatorSet","outputs":[],"stateMutability":"nonpayable","type":"function"},{"inputs":[{"internalType":"uint256","name":"_tupleRootNonce","type":"uint256"},{"components":[{"internalType":"uint256","name":"height","type":"uint256"},{"internalType":"bytes32","name":"dataRoot","type":"bytes32"}],"internalType":"struct DataRootTuple","name":"_tuple","type":"tuple"},{"components":[{"internalType":"bytes32[]","name":"sideNodes","type":"bytes32[]"},{"internalType":"uint256","name":"key","type":"uint256"},{"internalType":"uint256","name":"numLeaves","type":"uint256"}],"internalType":"struct BinaryMerkleProof","name":"_proof","type":"tuple"}],"name":"verifyAttestation","outputs":[{"internalType":"bool","name":"","type":"bool"}],"stateMutability":"view","type":"function"}],"evm":{"bytecode":{"linkReferences":{},"object":"60806040523480156200001157600080fd5b5060405162002140380380620021408339818101604052810190620000379190620000d0565b8260028190555080600081905550816001819055505050506200012c565b600080fd5b6000819050919050565b6200006f816200005a565b81146200007b57600080fd5b50565b6000815190506200008f8162000064565b92915050565b6000819050919050565b620000aa8162000095565b8114620000b657600080fd5b50565b600081519050620000ca816200009f565b92915050565b600080600060608486031215620000ec57620000eb62000055565b5b6000620000fc868287016200007e565b93505060206200010f868287016200007e565b92505060406200012286828701620000b9565b9150509250925092565b612004806200013c6000396000f3fe608060405234801561001057600080fd5b506004361061007d5760003560e01c8063817f985b1161005b578063817f985b146100ec578063cdade8661461011c578063e23eb3261461013a578063e5a2b5d2146101565761007d565b806305d85c13146100825780631f3302a91461009e5780635433218c146100ce575b600080fd5b61009c600480360381019061009791906111e1565b610174565b005b6100b860048036038101906100b391906114d9565b6102d8565b6040516100c59190611563565b60405180910390f35b6100d661033a565b6040516100e3919061158d565b60405180910390f35b610106600480360381019061010191906115a8565b610340565b604051610113919061158d565b60405180910390f35b610124610358565b60405161013191906115e4565b60405180910390f35b610154600480360381019061014f91906115ff565b61035e565b005b61015e6104c8565b60405161016b91906115e4565b60405180910390f35b600060025490506000600154905060008054905060018361019591906116ea565b8b146101cd576040517fd146bffa00000000000000000000000000000000000000000000000000000000815260040160405180910390fd5b84849050878790501461020c576040517fc6617b7b00000000000000000000000000000000000000000000000000000000815260040160405180910390fd5b600061021888886104ce565b9050816102268c8584610501565b1461025d576040517f177b5d9200000000000000000000000000000000000000000000000000000000815260040160405180910390fd5b600061026a8d8c8c610501565b905061027a89898989858961055c565b806000819055508a6001819055508c6002819055508c7fe55fb3cbbfe29b13c7f8a35ef23127e7df9ab88df16bac166ad254a20f02414c8c8c6040516102c192919061171e565b60405180910390a250505050505050505050505050565b60006002548411156102ed5760009050610333565b60006003600086815260200190815260200160002054905061032f81848660405160200161031b9190611794565b6040516020818303038152906040526106fb565b9150505b9392505050565b60005481565b60036020528060005260406000206000915090505481565b60025481565b600060025490506000600154905060008054905060018361037f91906116ea565b8a146103b7576040517fe869766d00000000000000000000000000000000000000000000000000000000815260040160405180910390fd5b8484905087879050146103f6576040517fc6617b7b00000000000000000000000000000000000000000000000000000000815260040160405180910390fd5b600061040288886104ce565b9050816104108b8584610501565b14610447576040517f177b5d9200000000000000000000000000000000000000000000000000000000815260040160405180910390fd5b60006104538c8b6107c9565b905061046389898989858961055c565b8b60028190555089600360008e8152602001908152602001600020819055508b7f6614d037bde4905e31ca5ff05de61964c267f28b0320ed49e59f7d99752e1c4f8b6040516104b2919061158d565b60405180910390a2505050505050505050505050565b60015481565b600082826040516020016104e3929190611931565b60405160208183030381529060405280519060200120905092915050565b60007f636865636b706f696e740000000000000000000000000000000000000000000060001b84848460405160200161053d9493929190611955565b6040516020818303038152906040528051906020012090509392505050565b6000805b878790508110156106b7576000801b8686838181106105825761058161199a565b5b905060600201602001351480156105b757506000801b8686838181106105ab576105aa61199a565b5b90506060020160400135145b80156105f0575060008686838181106105d3576105d261199a565b5b90506060020160000160208101906105eb9190611a02565b60ff16145b6106aa5761064188888381811061060a5761060961199a565b5b90506040020160000160208101906106229190611a2f565b858888858181106106365761063561199a565b5b905060600201610821565b610677576040517f8baa579f00000000000000000000000000000000000000000000000000000000815260040160405180910390fd5b87878281811061068a5761068961199a565b5b905060400201602001358261069f91906116ea565b9150828210156106b7575b8080600101915050610560565b50818110156106f2576040517fcabeb65500000000000000000000000000000000000000000000000000000000815260040160405180910390fd5b50505050505050565b600060018360400151116107245760008360000151511461071f57600090506107c2565b61074b565b6107368360200151846040015161088d565b8360000151511461074a57600090506107c2565b5b826040015183602001511061076357600090506107c2565b600061076e8361091d565b905060008460000151510361079e576001846040015103610794578085149150506107c2565b60009150506107c2565b60006107b88560200151866040015184886000015161099b565b9050858114925050505b9392505050565b60007f7472616e73616374696f6e42617463680000000000000000000000000000000060001b838360405160200161080393929190611a5c565b60405160208183030381529060405280519060200120905092915050565b60008061082d84610b59565b9050610855818460000160208101906108469190611a02565b85602001358660400135610b8f565b73ffffffffffffffffffffffffffffffffffffffff168573ffffffffffffffffffffffffffffffffffffffff16149150509392505050565b600061089882610bbf565b6101006108a59190611a93565b905060006001826108b69190611a93565b6001901b90506001816108c99190611a93565b84116108d55750610917565b600181036108e7576001915050610917565b61090781856108f69190611a93565b82856109029190611a93565b61088d565b600161091391906116ea565b9150505b92915050565b60006002600060f81b83604051602001610938929190611b85565b6040516020818303038152906040526040516109549190611bad565b602060405180830381855afa158015610971573d6000803e3d6000fd5b5050506040513d601f19601f820116820180604052508101906109949190611bd9565b9050919050565b60008084036109df576040517f08c379a00000000000000000000000000000000000000000000000000000000081526004016109d690611c89565b60405180910390fd5b60018403610a33576000825114610a2b576040517f08c379a0000000000000000000000000000000000000000000000000000000008152600401610a2290611cf5565b60405180910390fd5b829050610b51565b6000825103610a77576040517f08c379a0000000000000000000000000000000000000000000000000000000008152600401610a6e90611d61565b60405180910390fd5b6000610a8285610bf7565b90506000610a9f84600060018751610a9a9190611a93565b610c42565b905081871015610af4576000610ab78884888561099b565b9050610aea818660018851610acc9190611a93565b81518110610add57610adc61199a565b5b6020026020010151610d9a565b9350505050610b51565b6000610b188389610b059190611a93565b8489610b119190611a93565b888561099b565b9050610b4b8560018751610b2c9190611a93565b81518110610b3d57610b3c61199a565b5b602002602001015182610d9a565b93505050505b949350505050565b60007f19457468657265756d205369676e6564204d6573736167653a0a33320000000060005281601c52603c6000209050919050565b600080600080610ba188888888610e1b565b925092509250610bb18282610f0f565b829350505050949350505050565b60005b81816001901b1015610be257600181610bdb91906116ea565b9050610bc2565b80610100610bf09190611a93565b9050919050565b60006001821015610c0757600080fd5b6000610c1283611073565b90506000600182610c239190611a93565b6001901b9050838103610c3857600181901c90505b8092505050919050565b606081831115610c87576040517f08c379a0000000000000000000000000000000000000000000000000000000008152600401610c7e90611df3565b60405180910390fd5b8351831180610c965750835182115b15610cd6576040517f08c379a0000000000000000000000000000000000000000000000000000000008152600401610ccd90611e85565b60405180910390fd5b60008383610ce49190611a93565b67ffffffffffffffff811115610cfd57610cfc6112c6565b5b604051908082528060200260200182016040528015610d2b5781602001602082028036833780820191505090505b50905060008490505b83811015610d8e57858181518110610d4f57610d4e61199a565b5b6020026020010151828683610d649190611a93565b81518110610d7557610d7461199a565b5b6020026020010181815250508080600101915050610d34565b50809150509392505050565b60006002600160f81b8484604051602001610db793929190611ec6565b604051602081830303815290604052604051610dd39190611bad565b602060405180830381855afa158015610df0573d6000803e3d6000fd5b5050506040513d601f19601f82011682018060405250810190610e139190611bd9565b905092915050565b60008060007f7fffffffffffffffffffffffffffffff5d576e7357a4501ddfe92f46681b20a08460001c1115610e5b576000600385925092509250610f05565b600060018888888860405160008152602001604052604051610e809493929190611f12565b6020604051602081039080840390855afa158015610ea2573d6000803e3d6000fd5b505050602060405103519050600073ffffffffffffffffffffffffffffffffffffffff168173ffffffffffffffffffffffffffffffffffffffff1603610ef657600060016000801b93509350935050610f05565b8060008060001b935093509350505b9450945094915050565b60006003811115610f2357610f22611f57565b5b826003811115610f3657610f35611f57565b5b031561106f5760016003811115610f5057610f4f611f57565b5b826003811115610f6357610f62611f57565b5b03610f9a576040517ff645eedf00000000000000000000000000000000000000000000000000000000815260040160405180910390fd5b60026003811115610fae57610fad611f57565b5b826003811115610fc157610fc0611f57565b5b03611006578060001c6040517ffce698f7000000000000000000000000000000000000000000000000000000008152600401610ffd91906115e4565b60405180910390fd5b60038081111561101957611018611f57565b5b82600381111561102c5761102b611f57565b5b0361106e57806040517fd78bce0c000000000000000000000000000000000000000000000000000000008152600401611065919061158d565b60405180910390fd5b5b5050565b600080600090505b6000831461109d57808061108e90611f86565b915050600183901c925061107b565b80915050919050565b6000604051905090565b600080fd5b600080fd5b6000819050919050565b6110cd816110ba565b81146110d857600080fd5b50565b6000813590506110ea816110c4565b92915050565b6000819050919050565b611103816110f0565b811461110e57600080fd5b50565b600081359050611120816110fa565b92915050565b600080fd5b600080fd5b600080fd5b60008083601f84011261114b5761114a611126565b5b8235905067ffffffffffffffff8111156111685761116761112b565b5b60208301915083604082028301111561118457611183611130565b5b9250929050565b60008083601f8401126111a1576111a0611126565b5b8235905067ffffffffffffffff8111156111be576111bd61112b565b5b6020830191508360608202830111156111da576111d9611130565b5b9250929050565b60008060008060008060008060c0898b031215611201576112006110b0565b5b600061120f8b828c016110db565b98505060206112208b828c016110db565b97505060406112318b828c016110db565b96505060606112428b828c01611111565b955050608089013567ffffffffffffffff811115611263576112626110b5565b5b61126f8b828c01611135565b945094505060a089013567ffffffffffffffff811115611292576112916110b5565b5b61129e8b828c0161118b565b92509250509295985092959890939650565b600080fd5b6000601f19601f8301169050919050565b7f4e487b7100000000000000000000000000000000000000000000000000000000600052604160045260246000fd5b6112fe826112b5565b810181811067ffffffffffffffff8211171561131d5761131c6112c6565b5b80604052505050565b60006113306110a6565b905061133c82826112f5565b919050565b600080fd5b60006040828403121561135c5761135b6112b0565b5b6113666040611326565b90506000611376848285016110db565b600083015250602061138a84828501611111565b60208301525092915050565b600067ffffffffffffffff8211156113b1576113b06112c6565b5b602082029050602081019050919050565b60006113d56113d084611396565b611326565b905080838252602082019050602084028301858111156113f8576113f7611130565b5b835b81811015611421578061140d8882611111565b8452602084019350506020810190506113fa565b5050509392505050565b600082601f8301126114405761143f611126565b5b81356114508482602086016113c2565b91505092915050565b60006060828403121561146f5761146e6112b0565b5b6114796060611326565b9050600082013567ffffffffffffffff81111561149957611498611341565b5b6114a58482850161142b565b60008301525060206114b9848285016110db565b60208301525060406114cd848285016110db565b60408301525092915050565b6000806000608084860312156114f2576114f16110b0565b5b6000611500868287016110db565b935050602061151186828701611346565b925050606084013567ffffffffffffffff811115611532576115316110b5565b5b61153e86828701611459565b9150509250925092565b60008115159050919050565b61155d81611548565b82525050565b60006020820190506115786000830184611554565b92915050565b611587816110f0565b82525050565b60006020820190506115a2600083018461157e565b92915050565b6000602082840312156115be576115bd6110b0565b5b60006115cc848285016110db565b91505092915050565b6115de816110ba565b82525050565b60006020820190506115f960008301846115d5565b92915050565b600080600080600080600060a0888a03121561161e5761161d6110b0565b5b600061162c8a828b016110db565b975050602061163d8a828b016110db565b965050604061164e8a828b01611111565b955050606088013567ffffffffffffffff81111561166f5761166e6110b5565b5b61167b8a828b01611135565b9450945050608088013567ffffffffffffffff81111561169e5761169d6110b5565b5b6116aa8a828b0161118b565b925092505092959891949750929550565b7f4e487b7100000000000000000000000000000000000000000000000000000000600052601160045260246000fd5b60006116f5826110ba565b9150611700836110ba565b9250828201905080821115611718576117176116bb565b5b92915050565b600060408201905061173360008301856115d5565b611740602083018461157e565b9392505050565b611750816110ba565b82525050565b61175f816110f0565b82525050565b60408201600082015161177b6000850182611747565b50602082015161178e6020850182611756565b50505050565b60006040820190506117a96000830184611765565b92915050565b600082825260208201905092915050565b6000819050919050565b600073ffffffffffffffffffffffffffffffffffffffff82169050919050565b60006117f5826117ca565b9050919050565b611805816117ea565b811461181057600080fd5b50565b600081359050611822816117fc565b92915050565b60006118376020840184611813565b905092915050565b611848816117ea565b82525050565b600061185d60208401846110db565b905092915050565b604082016118766000830183611828565b611883600085018261183f565b50611891602083018361184e565b61189e6020850182611747565b50505050565b60006118b08383611865565b60408301905092915050565b600082905092915050565b6000604082019050919050565b60006118e083856117af565b93506118eb826117c0565b8060005b858110156119245761190182846118bc565b61190b88826118a4565b9750611916836118c7565b9250506001810190506118ef565b5085925050509392505050565b6000602082019050818103600083015261194c8184866118d4565b90509392505050565b600060808201905061196a600083018761157e565b61197760208301866115d5565b61198460408301856115d5565b611991606083018461157e565b95945050505050565b7f4e487b7100000000000000000000000000000000000000000000000000000000600052603260045260246000fd5b600060ff82169050919050565b6119df816119c9565b81146119ea57600080fd5b50565b6000813590506119fc816119d6565b92915050565b600060208284031215611a1857611a176110b0565b5b6000611a26848285016119ed565b91505092915050565b600060208284031215611a4557611a446110b0565b5b6000611a5384828501611813565b91505092915050565b6000606082019050611a71600083018661157e565b611a7e60208301856115d5565b611a8b604083018461157e565b949350505050565b6000611a9e826110ba565b9150611aa9836110ba565b9250828203905081811115611ac157611ac06116bb565b5b92915050565b60007fff0000000000000000000000000000000000000000000000000000000000000082169050919050565b6000819050919050565b611b0e611b0982611ac7565b611af3565b82525050565b600081519050919050565b600081905092915050565b60005b83811015611b48578082015181840152602081019050611b2d565b60008484015250505050565b6000611b5f82611b14565b611b698185611b1f565b9350611b79818560208601611b2a565b80840191505092915050565b6000611b918285611afd565b600182019150611ba18284611b54565b91508190509392505050565b6000611bb98284611b54565b915081905092915050565b600081519050611bd3816110fa565b92915050565b600060208284031215611bef57611bee6110b0565b5b6000611bfd84828501611bc4565b91505092915050565b600082825260208201905092915050565b7f63616e6e6f742063616c6c20636f6d70757465526f6f7448617368207769746860008201527f2030206e756d626572206f66206c656176657300000000000000000000000000602082015250565b6000611c73603383611c06565b9150611c7e82611c17565b604082019050919050565b60006020820190508181036000830152611ca281611c66565b9050919050565b7f756e657870656374656420696e6e657220686173686573000000000000000000600082015250565b6000611cdf601783611c06565b9150611cea82611ca9565b602082019050919050565b60006020820190508181036000830152611d0e81611cd2565b9050919050565b7f6578706563746564206174206c65617374206f6e6520696e6e65722068617368600082015250565b6000611d4b602083611c06565b9150611d5682611d15565b602082019050919050565b60006020820190508181036000830152611d7a81611d3e565b9050919050565b7f496e76616c69642072616e67653a205f626567696e206973206772656174657260008201527f207468616e205f656e6400000000000000000000000000000000000000000000602082015250565b6000611ddd602a83611c06565b9150611de882611d81565b604082019050919050565b60006020820190508181036000830152611e0c81611dd0565b9050919050565b7f496e76616c69642072616e67653a205f626567696e206f72205f656e6420617260008201527f65206f7574206f6620626f756e64730000000000000000000000000000000000602082015250565b6000611e6f602f83611c06565b9150611e7a82611e13565b604082019050919050565b60006020820190508181036000830152611e9e81611e62565b9050919050565b6000819050919050565b611ec0611ebb826110f0565b611ea5565b82525050565b6000611ed28286611afd565b600182019150611ee28285611eaf565b602082019150611ef28284611eaf565b602082019150819050949350505050565b611f0c816119c9565b82525050565b6000608082019050611f27600083018761157e565b611f346020830186611f03565b611f41604083018561157e565b611f4e606083018461157e565b95945050505050565b7f4e487b7100000000000000000000000000000000000000000000000000000000600052602160045260246000fd5b6000611f91826110ba565b91507fffffffffffffffffffffffffffffffffffffffffffffffffffffffffffffffff8203611fc357611fc26116bb565b5b60018201905091905056fea2646970667358221220485ae01dfa03c9d20695e5f518b361abf7e985a05c5cb04fe828b1bb2b98d5e164736f6c63430008160033","opcodes":"PUSH1 0x80 PUSH1 0x40 MSTORE CALLVALUE DUP1 ISZERO PUSH3 0x11 JUMPI PUSH1 0x0 DUP1 REVERT JUMPDEST POP PUSH1 0x40 MLOAD PUSH3 0x2140 CODESIZE SUB DUP1 PUSH3 0x2140 DUP4 CODECOPY DUP2 DUP2 ADD PUSH1 0x40 MSTORE DUP2 ADD SWAP1 PUSH3 0x37 SWAP2 SWAP1 PUSH3 0xD0 JUMP JUMPDEST DUP3 PUSH1 0x2 DUP2 SWAP1 SSTORE POP DUP1 PUSH1 0x0 DUP2 SWAP1 SSTORE POP DUP2 PUSH1 0x1 DUP2 SWAP1 SSTORE POP POP POP POP PUSH3 0x12C JUMP JUMPDEST PUSH1 0x0 DUP1 REVERT JUMPDEST PUSH1 0x0 DUP2 SWAP1 POP SWAP2 SWAP1 POP JUMP JUMPDEST PUSH3 0x6F DUP2 PUSH3 0x5A JUMP JUMPDEST DUP2 EQ PUSH3 0x7B JUMPI PUSH1 0x0 DUP1 REVERT JUMPDEST POP JUMP JUMPDEST PUSH1 0x0 DUP2 MLOAD SWAP1 POP PUSH3 0x8F DUP2 PUSH3 0x64 JUMP JUMPDEST SWAP3 SWAP2 POP POP JUMP JUMPDEST PUSH1 0x0 DUP2 SWAP1 POP SWAP2 SWAP1 POP JUMP JUMPDEST PUSH3 0xAA DUP2 PUSH3 0x95 JUMP JUMPDEST DUP2 EQ PUSH3 0xB6 JUMPI PUSH1 0x0 DUP1 REVERT JUMPDEST POP JUMP JUMPDEST PUSH1 0x0 DUP2 MLOAD SWAP1 POP PUSH3 0xCA DUP2 PUSH3 0x9F JUMP JUMPDEST SWAP3 SWAP2 POP POP JUMP JUMPDEST PUSH1 0x0 DUP1 PUSH1 0x0 PUSH1 0x60 DUP5 DUP7 SUB SLT ISZERO PUSH3 0xEC JUMPI PUSH3 0xEB PUSH3 0x55 JUMP JUMPDEST JUMPDEST PUSH1 0x0 PUSH3 0xFC DUP7 DUP3 DUP8 ADD PUSH3 0x7E JUMP JUMPDEST SWAP4 POP POP PUSH1 0x20 PUSH3 0x10F DUP7 DUP3 DUP8 ADD PUSH3 0x7E JUMP JUMPDEST SWAP3 POP POP PUSH1 0x40 PUSH3 0x122 DUP7 DUP3 DUP8 ADD PUSH3 0xB9 JUMP JUMPDEST SWAP2 POP POP SWAP3 POP SWAP3 POP SWAP3 JUMP JUMPDEST PUSH2 0x2004 DUP1 PUSH3 0x13C PUSH1 0x0 CODECOPY PUSH1 0x0 RETURN INVALID PUSH1 0x80 PUSH1 0x40 MSTORE CALLVALUE DUP1 ISZERO PUSH2 0x10 JUMPI PUSH1 0x0 DUP1 REVERT JUMPDEST POP PUSH1 0x4 CALLDATASIZE LT PUSH2 0x7D JUMPI PUSH1 0x0 CALLDATALOAD PUSH1 0xE0 SHR DUP1 PUSH4 0x817F985B GT PUSH2 0x5B JUMPI DUP1 PUSH4 0x817F985B EQ PUSH2 0xEC JUMPI DUP1 PUSH4 0xCDADE866 EQ PUSH2 0x11C JUMPI DUP1 PUSH4 0xE23EB326 EQ PUSH2 0x13A JUMPI DUP1 PUSH4 0xE5A2B5D2 EQ PUSH2 0x156 JUMPI PUSH2 0x7D JUMP JUMPDEST DUP1 PUSH4 0x5D85C13 EQ PUSH2 0x82 JUMPI DUP1 PUSH4 0x1F3302A9 EQ PUSH2 0x9E JUMPI DUP1 PUSH4 0x5433218C EQ PUSH2 0xCE JUMPI JUMPDEST PUSH1 0x0 DUP1 REVERT JUMPDEST PUSH2 0x9C PUSH1 0x4 DUP1 CALLDATASIZE SUB DUP2 ADD SWAP1 PUSH2 0x97 SWAP2 SWAP1 PUSH2 0x11E1 JUMP JUMPDEST PUSH2 0x174 JUMP JUMPDEST STOP JUMPDEST PUSH2 0xB8 PUSH1 0x4 DUP1 CALLDATASIZE SUB DUP2 ADD SWAP1 PUSH2 0xB3 SWAP2 SWAP1 PUSH2 0x14D9 JUMP JUMPDEST PUSH2 0x2D8 JUMP JUMPDEST PUSH1 0x40 MLOAD PUSH2 0xC5 SWAP2 SWAP1 PUSH2 0x1563 JUMP JUMPDEST PUSH1 0x40 MLOAD DUP1 SWAP2 SUB SWAP1 RETURN JUMPDEST PUSH2 0xD6 PUSH2 0x33A JUMP JUMPDEST PUSH1 0x40 MLOAD PUSH2 0xE3 SWAP2 SWAP1 PUSH2 0x158D JUMP JUMPDEST PUSH1 0x40 MLOAD DUP1 SWAP2 SUB SWAP1 RETURN JUMPDEST PUSH2 0x106 PUSH1 0x4 DUP1 CALLDATASIZE SUB DUP2 ADD SWAP1 PUSH2 0x101 SWAP2 SWAP1 PUSH2 0x15A8 JUMP JUMPDEST PUSH2 0x340 JUMP JUMPDEST PUSH1 0x40 MLOAD PUSH2 0x113 SWAP2 SWAP1 PUSH2 0x158D JUMP JUMPDEST PUSH1 0x40 MLOAD DUP1 SWAP2 SUB SWAP1 RETURN JUMPDEST PUSH2 0x124 PUSH2 0x358 JUMP JUMPDEST PUSH1 0x40 MLOAD PUSH2 0x131 SWAP2 SWAP1 PUSH2 0x15E4 JUMP JUMPDEST PUSH1 0x40 MLOAD DUP1 SWAP2 SUB SWAP1 RETURN JUMPDEST PUSH2 0x154 PUSH1 0x4 DUP1 CALLDATASIZE SUB DUP2 ADD SWAP1 PUSH2 0x14F SWAP2 SWAP1 PUSH2 0x15FF JUMP JUMPDEST PUSH2 0x35E JUMP JUMPDEST STOP JUMPDEST PUSH2 0x15E PUSH2 0x4C8 JUMP JUMPDEST PUSH1 0x40 MLOAD PUSH2 0x16B SWAP2 SWAP1 PUSH2 0x15E4 JUMP JUMPDEST PUSH1 0x40 MLOAD DUP1 SWAP2 SUB SWAP1 RETURN JUMPDEST PUSH1 0x0 PUSH1 0x2 SLOAD SWAP1 POP PUSH1 0x0 PUSH1 0x1 SLOAD SWAP1 POP PUSH1 0x0 DUP1 SLOAD SWAP1 POP PUSH1 0x1 DUP4 PUSH2 0x195 SWAP2 SWAP1 PUSH2 0x16EA JUMP JUMPDEST DUP12 EQ PUSH2 0x1CD JUMPI PUSH1 0x40 MLOAD PUSH32 0xD146BFFA00000000000000000000000000000000000000000000000000000000 DUP2 MSTORE PUSH1 0x4 ADD PUSH1 0x40 MLOAD DUP1 SWAP2 SUB SWAP1 REVERT JUMPDEST DUP5 DUP5 SWAP1 POP DUP8 DUP8 SWAP1 POP EQ PUSH2 0x20C JUMPI PUSH1 0x40 MLOAD PUSH32 0xC6617B7B00000000000000000000000000000000000000000000000000000000 DUP2 MSTORE PUSH1 0x4 ADD PUSH1 0x40 MLOAD DUP1 SWAP2 SUB SWAP1 REVERT JUMPDEST PUSH1 0x0 PUSH2 0x218 DUP9 DUP9 PUSH2 0x4CE JUMP JUMPDEST SWAP1 POP DUP2 PUSH2 0x226 DUP13 DUP6 DUP5 PUSH2 0x501 JUMP JUMPDEST EQ PUSH2 0x25D JUMPI PUSH1 0x40 MLOAD PUSH32 0x177B5D9200000000000000000000000000000000000000000000000000000000 DUP2 MSTORE PUSH1 0x4 ADD PUSH1 0x40 MLOAD DUP1 SWAP2 SUB SWAP1 REVERT JUMPDEST PUSH1 0x0 PUSH2 0x26A DUP14 DUP13 DUP13 PUSH2 0x501 JUMP JUMPDEST SWAP1 POP PUSH2 0x27A DUP10 DUP10 DUP10 DUP10 DUP6 DUP10 PUSH2 0x55C JUMP JUMPDEST DUP1 PUSH1 0x0 DUP2 SWAP1 SSTORE POP DUP11 PUSH1 0x1 DUP2 SWAP1 SSTORE POP DUP13 PUSH1 0x2 DUP2 SWAP1 SSTORE POP DUP13 PUSH32 0xE55FB3CBBFE29B13C7F8A35EF23127E7DF9AB88DF16BAC166AD254A20F02414C DUP13 DUP13 PUSH1 0x40 MLOAD PUSH2 0x2C1 SWAP3 SWAP2 SWAP1 PUSH2 0x171E JUMP JUMPDEST PUSH1 0x40 MLOAD DUP1 SWAP2 SUB SWAP1 LOG2 POP POP POP POP POP POP POP POP POP POP POP POP POP JUMP JUMPDEST PUSH1 0x0 PUSH1 0x2 SLOAD DUP5 GT ISZERO PUSH2 0x2ED JUMPI PUSH1 0x0 SWAP1 POP PUSH2 0x333 JUMP JUMPDEST PUSH1 0x0 PUSH1 0x3 PUSH1 0x0 DUP7 DUP2 MSTORE PUSH1 0x20 ADD SWAP1 DUP2 MSTORE PUSH1 0x20 ADD PUSH1 0x0 KECCAK256 SLOAD SWAP1 POP PUSH2 0x32F DUP2 DUP5 DUP7 PUSH1 0x40 MLOAD PUSH1 0x20 ADD PUSH2 0x31B SWAP2 SWAP1 PUSH2 0x1794 JUMP JUMPDEST PUSH1 0x40 MLOAD PUSH1 0x20 DUP2 DUP4 SUB SUB DUP2 MSTORE SWAP1 PUSH1 0x40 MSTORE PUSH2 0x6FB JUMP JUMPDEST SWAP2 POP POP JUMPDEST SWAP4 SWAP3 POP POP POP JUMP JUMPDEST PUSH1 0x0 SLOAD DUP2 JUMP JUMPDEST PUSH1 0x3 PUSH1 0x20 MSTORE DUP1 PUSH1 0x0 MSTORE PUSH1 0x40 PUSH1 0x0 KECCAK256 PUSH1 0x0 SWAP2 POP SWAP1 POP SLOAD DUP2 JUMP JUMPDEST PUSH1 0x2 SLOAD DUP2 JUMP JUMPDEST PUSH1 0x0 PUSH1 0x2 SLOAD SWAP1 POP PUSH1 0x0 PUSH1 0x1 SLOAD SWAP1 POP PUSH1 0x0 DUP1 SLOAD SWAP1 POP PUSH1 0x1 DUP4 PUSH2 0x37F SWAP2 SWAP1 PUSH2 0x16EA JUMP JUMPDEST DUP11 EQ PUSH2 0x3B7 JUMPI PUSH1 0x40 MLOAD PUSH32 0xE869766D00000000000000000000000000000000000000000000000000000000 DUP2 MSTORE PUSH1 0x4 ADD PUSH1 0x40 MLOAD DUP1 SWAP2 SUB SWAP1 REVERT JUMPDEST DUP5 DUP5 SWAP1 POP DUP8 DUP8 SWAP1 POP EQ PUSH2 0x3F6 JUMPI PUSH1 0x40 MLOAD PUSH32 0xC6617B7B00000000000000000000000000000000000000000000000000000000 DUP2 MSTORE PUSH1 0x4 ADD PUSH1 0x40 MLOAD DUP1 SWAP2 SUB SWAP1 REVERT JUMPDEST PUSH1 0x0 PUSH2 0x402 DUP9 DUP9 PUSH2 0x4CE JUMP JUMPDEST SWAP1 POP DUP2 PUSH2 0x410 DUP12 DUP6 DUP5 PUSH2 0x501 JUMP JUMPDEST EQ PUSH2 0x447 JUMPI PUSH1 0x40 MLOAD PUSH32 0x177B5D9200000000000000000000000000000000000000000000000000000000 DUP2 MSTORE PUSH1 0x4 ADD PUSH1 0x40 MLOAD DUP1 SWAP2 SUB SWAP1 REVERT JUMPDEST PUSH1 0x0 PUSH2 0x453 DUP13 DUP12 PUSH2 0x7C9 JUMP JUMPDEST SWAP1 POP PUSH2 0x463 DUP10 DUP10 DUP10 DUP10 DUP6 DUP10 PUSH2 0x55C JUMP JUMPDEST DUP12 PUSH1 0x2 DUP2 SWAP1 SSTORE POP DUP10 PUSH1 0x3 PUSH1 0x0 DUP15 DUP2 MSTORE PUSH1 0x20 ADD SWAP1 DUP2 MSTORE PUSH1 0x20 ADD PUSH1 0x0 KECCAK256 DUP2 SWAP1 SSTORE POP DUP12 PUSH32 0x6614D037BDE4905E31CA5FF05DE61964C267F28B0320ED49E59F7D99752E1C4F DUP12 PUSH1 0x40 MLOAD PUSH2 0x4B2 SWAP2 SWAP1 PUSH2 0x158D JUMP JUMPDEST PUSH1 0x40 MLOAD DUP1 SWAP2 SUB SWAP1 LOG2 POP POP POP POP POP POP POP POP POP POP POP POP JUMP JUMPDEST PUSH1 0x1 SLOAD DUP2 JUMP JUMPDEST PUSH1 0x0 DUP3 DUP3 PUSH1 0x40 MLOAD PUSH1 0x20 ADD PUSH2 0x4E3 SWAP3 SWAP2 SWAP1 PUSH2 0x1931 JUMP JUMPDEST PUSH1 0x40 MLOAD PUSH1 0x20 DUP2 DUP4 SUB SUB DUP2 MSTORE SWAP1 PUSH1 0x40 MSTORE DUP1 MLOAD SWAP1 PUSH1 0x20 ADD KECCAK256 SWAP1 POP SWAP3 SWAP2 POP POP JUMP JUMPDEST PUSH1 0x0 PUSH32 0x636865636B706F696E7400000000000000000000000000000000000000000000 PUSH1 0x0 SHL DUP5 DUP5 DUP5 PUSH1 0x40 MLOAD PUSH1 0x20 ADD PUSH2 0x53D SWAP5 SWAP4 SWAP3 SWAP2 SWAP1 PUSH2 0x1955 JUMP JUMPDEST PUSH1 0x40 MLOAD PUSH1 0x20 DUP2 DUP4 SUB SUB DUP2 MSTORE SWAP1 PUSH1 0x40 MSTORE DUP1 MLOAD SWAP1 PUSH1 0x20 ADD KECCAK256 SWAP1 POP SWAP4 SWAP3 POP POP POP JUMP JUMPDEST PUSH1 0x0 DUP1 JUMPDEST DUP8 DUP8 SWAP1 POP DUP2 LT ISZERO PUSH2 0x6B7 JUMPI PUSH1 0x0 DUP1 SHL DUP7 DUP7 DUP4 DUP2 DUP2 LT PUSH2 0x582 JUMPI PUSH2 0x581 PUSH2 0x199A JUMP JUMPDEST JUMPDEST SWAP1 POP PUSH1 0x60 MUL ADD PUSH1 0x20 ADD CALLDATALOAD EQ DUP1 ISZERO PUSH2 0x5B7 JUMPI POP PUSH1 0x0 DUP1 SHL DUP7 DUP7 DUP4 DUP2 DUP2 LT PUSH2 0x5AB JUMPI PUSH2 0x5AA PUSH2 0x199A JUMP JUMPDEST JUMPDEST SWAP1 POP PUSH1 0x60 MUL ADD PUSH1 0x40 ADD CALLDATALOAD EQ JUMPDEST DUP1 ISZERO PUSH2 0x5F0 JUMPI POP PUSH1 0x0 DUP7 DUP7 DUP4 DUP2 DUP2 LT PUSH2 0x5D3 JUMPI PUSH2 0x5D2 PUSH2 0x199A JUMP JUMPDEST JUMPDEST SWAP1 POP PUSH1 0x60 MUL ADD PUSH1 0x0 ADD PUSH1 0x20 DUP2 ADD SWAP1 PUSH2 0x5EB SWAP2 SWAP1 PUSH2 0x1A02 JUMP JUMPDEST PUSH1 0xFF AND EQ JUMPDEST PUSH2 0x6AA JUMPI PUSH2 0x641 DUP9 DUP9 DUP4 DUP2 DUP2 LT PUSH2 0x60A JUMPI PUSH2 0x609 PUSH2 0x199A JUMP JUMPDEST JUMPDEST SWAP1 POP PUSH1 0x40 MUL ADD PUSH1 0x0 ADD PUSH1 0x20 DUP2 ADD SWAP1 PUSH2 0x622 SWAP2 SWAP1 PUSH2 0x1A2F JUMP JUMPDEST DUP6 DUP9 DUP9 DUP6 DUP2 DUP2 LT PUSH2 0x636 JUMPI PUSH2 0x635 PUSH2 0x199A JUMP JUMPDEST JUMPDEST SWAP1 POP PUSH1 0x60 MUL ADD PUSH2 0x821 JUMP JUMPDEST PUSH2 0x677 JUMPI PUSH1 0x40 MLOAD PUSH32 0x8BAA579F00000000000000000000000000000000000000000000000000000000 DUP2 MSTORE PUSH1 0x4 ADD PUSH1 0x40 MLOAD DUP1 SWAP2 SUB SWAP1 REVERT JUMPDEST DUP8 DUP8 DUP3 DUP2 DUP2 LT PUSH2 0x68A JUMPI PUSH2 0x689 PUSH2 0x199A JUMP JUMPDEST JUMPDEST SWAP1 POP PUSH1 0x40 MUL ADD PUSH1 0x20 ADD CALLDATALOAD DUP3 PUSH2 0x69F SWAP2 SWAP1 PUSH2 0x16EA JUMP JUMPDEST SWAP2 POP DUP3 DUP3 LT ISZERO PUSH2 0x6B7 JUMPI JUMPDEST DUP1 DUP1 PUSH1 0x1 ADD SWAP2 POP POP PUSH2 0x560 JUMP JUMPDEST POP DUP2 DUP2 LT ISZERO PUSH2 0x6F2 JUMPI PUSH1 0x40 MLOAD PUSH32 0xCABEB65500000000000000000000000000000000000000000000000000000000 DUP2 MSTORE PUSH1 0x4 ADD PUSH1 0x40 MLOAD DUP1 SWAP2 SUB SWAP1 REVERT JUMPDEST POP POP POP POP POP POP POP JUMP JUMPDEST PUSH1 0x0 PUSH1 0x1 DUP4 PUSH1 0x40 ADD MLOAD GT PUSH2 0x724 JUMPI PUSH1 0x0 DUP4 PUSH1 0x0 ADD MLOAD MLOAD EQ PUSH2 0x71F JUMPI PUSH1 0x0 SWAP1 POP PUSH2 0x7C2 JUMP JUMPDEST PUSH2 0x74B JUMP JUMPDEST PUSH2 0x736 DUP4 PUSH1 0x20 ADD MLOAD DUP5 PUSH1 0x40 ADD MLOAD PUSH2 0x88D JUMP JUMPDEST DUP4 PUSH1 0x0 ADD MLOAD MLOAD EQ PUSH2 0x74A JUMPI PUSH1 0x0 SWAP1 POP PUSH2 0x7C2 JUMP JUMPDEST JUMPDEST DUP3 PUSH1 0x40 ADD MLOAD DUP4 PUSH1 0x20 ADD MLOAD LT PUSH2 0x763 JUMPI PUSH1 0x0 SWAP1 POP PUSH2 0x7C2 JUMP JUMPDEST PUSH1 0x0 PUSH2 0x76E DUP4 PUSH2 0x91D JUMP JUMPDEST SWAP1 POP PUSH1 0x0 DUP5 PUSH1 0x0 ADD MLOAD MLOAD SUB PUSH2 0x79E JUMPI PUSH1 0x1 DUP5 PUSH1 0x40 ADD MLOAD SUB PUSH2 0x794 JUMPI DUP1 DUP6 EQ SWAP2 POP POP PUSH2 0x7C2 JUMP JUMPDEST PUSH1 0x0 SWAP2 POP POP PUSH2 0x7C2 JUMP JUMPDEST PUSH1 0x0 PUSH2 0x7B8 DUP6 PUSH1 0x20 ADD MLOAD DUP7 PUSH1 0x40 ADD MLOAD DUP5 DUP9 PUSH1 0x0 ADD MLOAD PUSH2 0x99B JUMP JUMPDEST SWAP1 POP DUP6 DUP2 EQ SWAP3 POP POP POP JUMPDEST SWAP4 SWAP3 POP POP POP JUMP JUMPDEST PUSH1 0x0 PUSH32 0x7472616E73616374696F6E426174636800000000000000000000000000000000 PUSH1 0x0 SHL DUP4 DUP4 PUSH1 0x40 MLOAD PUSH1 0x20 ADD PUSH2 0x803 SWAP4 SWAP3 SWAP2 SWAP1 PUSH2 0x1A5C JUMP JUMPDEST PUSH1 0x40 MLOAD PUSH1 0x20 DUP2 DUP4 SUB SUB DUP2 MSTORE SWAP1 PUSH1 0x40 MSTORE DUP1 MLOAD SWAP1 PUSH1 0x20 ADD KECCAK256 SWAP1 POP SWAP3 SWAP2 POP POP JUMP JUMPDEST PUSH1 0x0 DUP1 PUSH2 0x82D DUP5 PUSH2 0xB59 JUMP JUMPDEST SWAP1 POP PUSH2 0x855 DUP2 DUP5 PUSH1 0x0 ADD PUSH1 0x20 DUP2 ADD SWAP1 PUSH2 0x846 SWAP2 SWAP1 PUSH2 0x1A02 JUMP JUMPDEST DUP6 PUSH1 0x20 ADD CALLDATALOAD DUP7 PUSH1 0x40 ADD CALLDATALOAD PUSH2 0xB8F JUMP JUMPDEST PUSH20 0xFFFFFFFFFFFFFFFFFFFFFFFFFFFFFFFFFFFFFFFF AND DUP6 PUSH20 0xFFFFFFFFFFFFFFFFFFFFFFFFFFFFFFFFFFFFFFFF AND EQ SWAP2 POP POP SWAP4 SWAP3 POP POP POP JUMP JUMPDEST PUSH1 0x0 PUSH2 0x898 DUP3 PUSH2 0xBBF JUMP JUMPDEST PUSH2 0x100 PUSH2 0x8A5 SWAP2 SWAP1 PUSH2 0x1A93 JUMP JUMPDEST SWAP1 POP PUSH1 0x0 PUSH1 0x1 DUP3 PUSH2 0x8B6 SWAP2 SWAP1 PUSH2 0x1A93 JUMP JUMPDEST PUSH1 0x1 SWAP1 SHL SWAP1 POP PUSH1 0x1 DUP2 PUSH2 0x8C9 SWAP2 SWAP1 PUSH2 0x1A93 JUMP JUMPDEST DUP5 GT PUSH2 0x8D5 JUMPI POP PUSH2 0x917 JUMP JUMPDEST PUSH1 0x1 DUP2 SUB PUSH2 0x8E7 JUMPI PUSH1 0x1 SWAP2 POP POP PUSH2 0x917 JUMP JUMPDEST PUSH2 0x907 DUP2 DUP6 PUSH2 0x8F6 SWAP2 SWAP1 PUSH2 0x1A93 JUMP JUMPDEST DUP3 DUP6 PUSH2 0x902 SWAP2 SWAP1 PUSH2 0x1A93 JUMP JUMPDEST PUSH2 0x88D JUMP JUMPDEST PUSH1 0x1 PUSH2 0x913 SWAP2 SWAP1 PUSH2 0x16EA JUMP JUMPDEST SWAP2 POP POP JUMPDEST SWAP3 SWAP2 POP POP JUMP JUMPDEST PUSH1 0x0 PUSH1 0x2 PUSH1 0x0 PUSH1 0xF8 SHL DUP4 PUSH1 0x40 MLOAD PUSH1 0x20 ADD PUSH2 0x938 SWAP3 SWAP2 SWAP1 PUSH2 0x1B85 JUMP JUMPDEST PUSH1 0x40 MLOAD PUSH1 0x20 DUP2 DUP4 SUB SUB DUP2 MSTORE SWAP1 PUSH1 0x40 MSTORE PUSH1 0x40 MLOAD PUSH2 0x954 SWAP2 SWAP1 PUSH2 0x1BAD JUMP JUMPDEST PUSH1 0x20 PUSH1 0x40 MLOAD DUP1 DUP4 SUB DUP2 DUP6 GAS STATICCALL ISZERO DUP1 ISZERO PUSH2 0x971 JUMPI RETURNDATASIZE PUSH1 0x0 DUP1 RETURNDATACOPY RETURNDATASIZE PUSH1 0x0 REVERT JUMPDEST POP POP POP PUSH1 0x40 MLOAD RETURNDATASIZE PUSH1 0x1F NOT PUSH1 0x1F DUP3 ADD AND DUP3 ADD DUP1 PUSH1 0x40 MSTORE POP DUP2 ADD SWAP1 PUSH2 0x994 SWAP2 SWAP1 PUSH2 0x1BD9 JUMP JUMPDEST SWAP1 POP SWAP2 SWAP1 POP JUMP JUMPDEST PUSH1 0x0 DUP1 DUP5 SUB PUSH2 0x9DF JUMPI PUSH1 0x40 MLOAD PUSH32 0x8C379A000000000000000000000000000000000000000000000000000000000 DUP2 MSTORE PUSH1 0x4 ADD PUSH2 0x9D6 SWAP1 PUSH2 0x1C89 JUMP JUMPDEST PUSH1 0x40 MLOAD DUP1 SWAP2 SUB SWAP1 REVERT JUMPDEST PUSH1 0x1 DUP5 SUB PUSH2 0xA33 JUMPI PUSH1 0x0 DUP3 MLOAD EQ PUSH2 0xA2B JUMPI PUSH1 0x40 MLOAD PUSH32 0x8C379A000000000000000000000000000000000000000000000000000000000 DUP2 MSTORE PUSH1 0x4 ADD PUSH2 0xA22 SWAP1 PUSH2 0x1CF5 JUMP JUMPDEST PUSH1 0x40 MLOAD DUP1 SWAP2 SUB SWAP1 REVERT JUMPDEST DUP3 SWAP1 POP PUSH2 0xB51 JUMP JUMPDEST PUSH1 0x0 DUP3 MLOAD SUB PUSH2 0xA77 JUMPI PUSH1 0x40 MLOAD PUSH32 0x8C379A000000000000000000000000000000000000000000000000000000000 DUP2 MSTORE PUSH1 0x4 ADD PUSH2 0xA6E SWAP1 PUSH2 0x1D61 JUMP JUMPDEST PUSH1 0x40 MLOAD DUP1 SWAP2 SUB SWAP1 REVERT JUMPDEST PUSH1 0x0 PUSH2 0xA82 DUP6 PUSH2 0xBF7 JUMP JUMPDEST SWAP1 POP PUSH1 0x0 PUSH2 0xA9F DUP5 PUSH1 0x0 PUSH1 0x1 DUP8 MLOAD PUSH2 0xA9A SWAP2 SWAP1 PUSH2 0x1A93 JUMP JUMPDEST PUSH2 0xC42 JUMP JUMPDEST SWAP1 POP DUP2 DUP8 LT ISZERO PUSH2 0xAF4 JUMPI PUSH1 0x0 PUSH2 0xAB7 DUP9 DUP5 DUP9 DUP6 PUSH2 0x99B JUMP JUMPDEST SWAP1 POP PUSH2 0xAEA DUP2 DUP7 PUSH1 0x1 DUP9 MLOAD PUSH2 0xACC SWAP2 SWAP1 PUSH2 0x1A93 JUMP JUMPDEST DUP2 MLOAD DUP2 LT PUSH2 0xADD JUMPI PUSH2 0xADC PUSH2 0x199A JUMP JUMPDEST JUMPDEST PUSH1 0x20 MUL PUSH1 0x20 ADD ADD MLOAD PUSH2 0xD9A JUMP JUMPDEST SWAP4 POP POP POP POP PUSH2 0xB51 JUMP JUMPDEST PUSH1 0x0 PUSH2 0xB18 DUP4 DUP10 PUSH2 0xB05 SWAP2 SWAP1 PUSH2 0x1A93 JUMP JUMPDEST DUP5 DUP10 PUSH2 0xB11 SWAP2 SWAP1 PUSH2 0x1A93 JUMP JUMPDEST DUP9 DUP6 PUSH2 0x99B JUMP JUMPDEST SWAP1 POP PUSH2 0xB4B DUP6 PUSH1 0x1 DUP8 MLOAD PUSH2 0xB2C SWAP2 SWAP1 PUSH2 0x1A93 JUMP JUMPDEST DUP2 MLOAD DUP2 LT PUSH2 0xB3D JUMPI PUSH2 0xB3C PUSH2 0x199A JUMP JUMPDEST JUMPDEST PUSH1 0x20 MUL PUSH1 0x20 ADD ADD MLOAD DUP3 PUSH2 0xD9A JUMP JUMPDEST SWAP4 POP POP POP POP JUMPDEST SWAP5 SWAP4 POP POP POP POP JUMP JUMPDEST PUSH1 0x0 PUSH32 0x19457468657265756D205369676E6564204D6573736167653A0A333200000000 PUSH1 0x0 MSTORE DUP2 PUSH1 0x1C MSTORE PUSH1 0x3C PUSH1 0x0 KECCAK256 SWAP1 POP SWAP2 SWAP1 POP JUMP JUMPDEST PUSH1 0x0 DUP1 PUSH1 0x0 DUP1 PUSH2 0xBA1 DUP9 DUP9 DUP9 DUP9 PUSH2 0xE1B JUMP JUMPDEST SWAP3 POP SWAP3 POP SWAP3 POP PUSH2 0xBB1 DUP3 DUP3 PUSH2 0xF0F JUMP JUMPDEST DUP3 SWAP4 POP POP POP POP SWAP5 SWAP4 POP POP POP POP JUMP JUMPDEST PUSH1 0x0 JUMPDEST DUP2 DUP2 PUSH1 0x1 SWAP1 SHL LT ISZERO PUSH2 0xBE2 JUMPI PUSH1 0x1 DUP2 PUSH2 0xBDB SWAP2 SWAP1 PUSH2 0x16EA JUMP JUMPDEST SWAP1 POP PUSH2 0xBC2 JUMP JUMPDEST DUP1 PUSH2 0x100 PUSH2 0xBF0 SWAP2 SWAP1 PUSH2 0x1A93 JUMP JUMPDEST SWAP1 POP SWAP2 SWAP1 POP JUMP JUMPDEST PUSH1 0x0 PUSH1 0x1 DUP3 LT ISZERO PUSH2 0xC07 JUMPI PUSH1 0x0 DUP1 REVERT JUMPDEST PUSH1 0x0 PUSH2 0xC12 DUP4 PUSH2 0x1073 JUMP JUMPDEST SWAP1 POP PUSH1 0x0 PUSH1 0x1 DUP3 PUSH2 0xC23 SWAP2 SWAP1 PUSH2 0x1A93 JUMP JUMPDEST PUSH1 0x1 SWAP1 SHL SWAP1 POP DUP4 DUP2 SUB PUSH2 0xC38 JUMPI PUSH1 0x1 DUP2 SWAP1 SHR SWAP1 POP JUMPDEST DUP1 SWAP3 POP POP POP SWAP2 SWAP1 POP JUMP JUMPDEST PUSH1 0x60 DUP2 DUP4 GT ISZERO PUSH2 0xC87 JUMPI PUSH1 0x40 MLOAD PUSH32 0x8C379A000000000000000000000000000000000000000000000000000000000 DUP2 MSTORE PUSH1 0x4 ADD PUSH2 0xC7E SWAP1 PUSH2 0x1DF3 JUMP JUMPDEST PUSH1 0x40 MLOAD DUP1 SWAP2 SUB SWAP1 REVERT JUMPDEST DUP4 MLOAD DUP4 GT DUP1 PUSH2 0xC96 JUMPI POP DUP4 MLOAD DUP3 GT JUMPDEST ISZERO PUSH2 0xCD6 JUMPI PUSH1 0x40 MLOAD PUSH32 0x8C379A000000000000000000000000000000000000000000000000000000000 DUP2 MSTORE PUSH1 0x4 ADD PUSH2 0xCCD SWAP1 PUSH2 0x1E85 JUMP JUMPDEST PUSH1 0x40 MLOAD DUP1 SWAP2 SUB SWAP1 REVERT JUMPDEST PUSH1 0x0 DUP4 DUP4 PUSH2 0xCE4 SWAP2 SWAP1 PUSH2 0x1A93 JUMP JUMPDEST PUSH8 0xFFFFFFFFFFFFFFFF DUP2 GT ISZERO PUSH2 0xCFD JUMPI PUSH2 0xCFC PUSH2 0x12C6 JUMP JUMPDEST JUMPDEST PUSH1 0x40 MLOAD SWAP1 DUP1 DUP3 MSTORE DUP1 PUSH1 0x20 MUL PUSH1 0x20 ADD DUP3 ADD PUSH1 0x40 MSTORE DUP1 ISZERO PUSH2 0xD2B JUMPI DUP2 PUSH1 0x20 ADD PUSH1 0x20 DUP3 MUL DUP1 CALLDATASIZE DUP4 CALLDATACOPY DUP1 DUP3 ADD SWAP2 POP POP SWAP1 POP JUMPDEST POP SWAP1 POP PUSH1 0x0 DUP5 SWAP1 POP JUMPDEST DUP4 DUP2 LT ISZERO PUSH2 0xD8E JUMPI DUP6 DUP2 DUP2 MLOAD DUP2 LT PUSH2 0xD4F JUMPI PUSH2 0xD4E PUSH2 0x199A JUMP JUMPDEST JUMPDEST PUSH1 0x20 MUL PUSH1 0x20 ADD ADD MLOAD DUP3 DUP7 DUP4 PUSH2 0xD64 SWAP2 SWAP1 PUSH2 0x1A93 JUMP JUMPDEST DUP2 MLOAD DUP2 LT PUSH2 0xD75 JUMPI PUSH2 0xD74 PUSH2 0x199A JUMP JUMPDEST JUMPDEST PUSH1 0x20 MUL PUSH1 0x20 ADD ADD DUP2 DUP2 MSTORE POP POP DUP1 DUP1 PUSH1 0x1 ADD SWAP2 POP POP PUSH2 0xD34 JUMP JUMPDEST POP DUP1 SWAP2 POP POP SWAP4 SWAP3 POP POP POP JUMP JUMPDEST PUSH1 0x0 PUSH1 0x2 PUSH1 0x1 PUSH1 0xF8 SHL DUP5 DUP5 PUSH1 0x40 MLOAD PUSH1 0x20 ADD PUSH2 0xDB7 SWAP4 SWAP3 SWAP2 SWAP1 PUSH2 0x1EC6 JUMP JUMPDEST PUSH1 0x40 MLOAD PUSH1 0x20 DUP2 DUP4 SUB SUB DUP2 MSTORE SWAP1 PUSH1 0x40 MSTORE PUSH1 0x40 MLOAD PUSH2 0xDD3 SWAP2 SWAP1 PUSH2 0x1BAD JUMP JUMPDEST PUSH1 0x20 PUSH1 0x40 MLOAD DUP1 DUP4 SUB DUP2 DUP6 GAS STATICCALL ISZERO DUP1 ISZERO PUSH2 0xDF0 JUMPI RETURNDATASIZE PUSH1 0x0 DUP1 RETURNDATACOPY RETURNDATASIZE PUSH1 0x0 REVERT JUMPDEST POP POP POP PUSH1 0x40 MLOAD RETURNDATASIZE PUSH1 0x1F NOT PUSH1 0x1F DUP3 ADD AND DUP3 ADD DUP1 PUSH1 0x40 MSTORE POP DUP2 ADD SWAP1 PUSH2 0xE13 SWAP2 SWAP1 PUSH2 0x1BD9 JUMP JUMPDEST SWAP1 POP SWAP3 SWAP2 POP POP JUMP JUMPDEST PUSH1 0x0 DUP1 PUSH1 0x0 PUSH32 0x7FFFFFFFFFFFFFFFFFFFFFFFFFFFFFFF5D576E7357A4501DDFE92F46681B20A0 DUP5 PUSH1 0x0 SHR GT ISZERO PUSH2 0xE5B JUMPI PUSH1 0x0 PUSH1 0x3 DUP6 SWAP3 POP SWAP3 POP SWAP3 POP PUSH2 0xF05 JUMP JUMPDEST PUSH1 0x0 PUSH1 0x1 DUP9 DUP9 DUP9 DUP9 PUSH1 0x40 MLOAD PUSH1 0x0 DUP2 MSTORE PUSH1 0x20 ADD PUSH1 0x40 MSTORE PUSH1 0x40 MLOAD PUSH2 0xE80 SWAP5 SWAP4 SWAP3 SWAP2 SWAP1 PUSH2 0x1F12 JUMP JUMPDEST PUSH1 0x20 PUSH1 0x40 MLOAD PUSH1 0x20 DUP2 SUB SWAP1 DUP1 DUP5 SUB SWAP1 DUP6 GAS STATICCALL ISZERO DUP1 ISZERO PUSH2 0xEA2 JUMPI RETURNDATASIZE PUSH1 0x0 DUP1 RETURNDATACOPY RETURNDATASIZE PUSH1 0x0 REVERT JUMPDEST POP POP POP PUSH1 0x20 PUSH1 0x40 MLOAD SUB MLOAD SWAP1 POP PUSH1 0x0 PUSH20 0xFFFFFFFFFFFFFFFFFFFFFFFFFFFFFFFFFFFFFFFF AND DUP2 PUSH20 0xFFFFFFFFFFFFFFFFFFFFFFFFFFFFFFFFFFFFFFFF AND SUB PUSH2 0xEF6 JUMPI PUSH1 0x0 PUSH1 0x1 PUSH1 0x0 DUP1 SHL SWAP4 POP SWAP4 POP SWAP4 POP POP PUSH2 0xF05 JUMP JUMPDEST DUP1 PUSH1 0x0 DUP1 PUSH1 0x0 SHL SWAP4 POP SWAP4 POP SWAP4 POP POP JUMPDEST SWAP5 POP SWAP5 POP SWAP5 SWAP2 POP POP JUMP JUMPDEST PUSH1 0x0 PUSH1 0x3 DUP2 GT ISZERO PUSH2 0xF23 JUMPI PUSH2 0xF22 PUSH2 0x1F57 JUMP JUMPDEST JUMPDEST DUP3 PUSH1 0x3 DUP2 GT ISZERO PUSH2 0xF36 JUMPI PUSH2 0xF35 PUSH2 0x1F57 JUMP JUMPDEST JUMPDEST SUB ISZERO PUSH2 0x106F JUMPI PUSH1 0x1 PUSH1 0x3 DUP2 GT ISZERO PUSH2 0xF50 JUMPI PUSH2 0xF4F PUSH2 0x1F57 JUMP JUMPDEST JUMPDEST DUP3 PUSH1 0x3 DUP2 GT ISZERO PUSH2 0xF63 JUMPI PUSH2 0xF62 PUSH2 0x1F57 JUMP JUMPDEST JUMPDEST SUB PUSH2 0xF9A JUMPI PUSH1 0x40 MLOAD PUSH32 0xF645EEDF00000000000000000000000000000000000000000000000000000000 DUP2 MSTORE PUSH1 0x4 ADD PUSH1 0x40 MLOAD DUP1 SWAP2 SUB SWAP1 REVERT JUMPDEST PUSH1 0x2 PUSH1 0x3 DUP2 GT ISZERO PUSH2 0xFAE JUMPI PUSH2 0xFAD PUSH2 0x1F57 JUMP JUMPDEST JUMPDEST DUP3 PUSH1 0x3 DUP2 GT ISZERO PUSH2 0xFC1 JUMPI PUSH2 0xFC0 PUSH2 0x1F57 JUMP JUMPDEST JUMPDEST SUB PUSH2 0x1006 JUMPI DUP1 PUSH1 0x0 SHR PUSH1 0x40 MLOAD PUSH32 0xFCE698F700000000000000000000000000000000000000000000000000000000 DUP2 MSTORE PUSH1 0x4 ADD PUSH2 0xFFD SWAP2 SWAP1 PUSH2 0x15E4 JUMP JUMPDEST PUSH1 0x40 MLOAD DUP1 SWAP2 SUB SWAP1 REVERT JUMPDEST PUSH1 0x3 DUP1 DUP2 GT ISZERO PUSH2 0x1019 JUMPI PUSH2 0x1018 PUSH2 0x1F57 JUMP JUMPDEST JUMPDEST DUP3 PUSH1 0x3 DUP2 GT ISZERO PUSH2 0x102C JUMPI PUSH2 0x102B PUSH2 0x1F57 JUMP JUMPDEST JUMPDEST SUB PUSH2 0x106E JUMPI DUP1 PUSH1 0x40 MLOAD PUSH32 0xD78BCE0C00000000000000000000000000000000000000000000000000000000 DUP2 MSTORE PUSH1 0x4 ADD PUSH2 0x1065 SWAP2 SWAP1 PUSH2 0x158D JUMP JUMPDEST PUSH1 0x40 MLOAD DUP1 SWAP2 SUB SWAP1 REVERT JUMPDEST JUMPDEST POP POP JUMP JUMPDEST PUSH1 0x0 DUP1 PUSH1 0x0 SWAP1 POP JUMPDEST PUSH1 0x0 DUP4 EQ PUSH2 0x109D JUMPI DUP1 DUP1 PUSH2 0x108E SWAP1 PUSH2 0x1F86 JUMP JUMPDEST SWAP2 POP POP PUSH1 0x1 DUP4 SWAP1 SHR SWAP3 POP PUSH2 0x107B JUMP JUMPDEST DUP1 SWAP2 POP POP SWAP2 SWAP1 POP JUMP JUMPDEST PUSH1 0x0 PUSH1 0x40 MLOAD SWAP1 POP SWAP1 JUMP JUMPDEST PUSH1 0x0 DUP1 REVERT JUMPDEST PUSH1 0x0 DUP1 REVERT JUMPDEST PUSH1 0x0 DUP2 SWAP1 POP SWAP2 SWAP1 POP JUMP JUMPDEST PUSH2 0x10CD DUP2 PUSH2 0x10BA JUMP JUMPDEST DUP2 EQ PUSH2 0x10D8 JUMPI PUSH1 0x0 DUP1 REVERT JUMPDEST POP JUMP JUMPDEST PUSH1 0x0 DUP2 CALLDATALOAD SWAP1 POP PUSH2 0x10EA DUP2 PUSH2 0x10C4 JUMP JUMPDEST SWAP3 SWAP2 POP POP JUMP JUMPDEST PUSH1 0x0 DUP2 SWAP1 POP SWAP2 SWAP1 POP JUMP JUMPDEST PUSH2 0x1103 DUP2 PUSH2 0x10F0 JUMP JUMPDEST DUP2 EQ PUSH2 0x110E JUMPI PUSH1 0x0 DUP1 REVERT JUMPDEST POP JUMP JUMPDEST PUSH1 0x0 DUP2 CALLDATALOAD SWAP1 POP PUSH2 0x1120 DUP2 PUSH2 0x10FA JUMP JUMPDEST SWAP3 SWAP2 POP POP JUMP JUMPDEST PUSH1 0x0 DUP1 REVERT JUMPDEST PUSH1 0x0 DUP1 REVERT JUMPDEST PUSH1 0x0 DUP1 REVERT JUMPDEST PUSH1 0x0 DUP1 DUP4 PUSH1 0x1F DUP5 ADD SLT PUSH2 0x114B JUMPI PUSH2 0x114A PUSH2 0x1126 JUMP JUMPDEST JUMPDEST DUP3 CALLDATALOAD SWAP1 POP PUSH8 0xFFFFFFFFFFFFFFFF DUP2 GT ISZERO PUSH2 0x1168 JUMPI PUSH2 0x1167 PUSH2 0x112B JUMP JUMPDEST JUMPDEST PUSH1 0x20 DUP4 ADD SWAP2 POP DUP4 PUSH1 0x40 DUP3 MUL DUP4 ADD GT ISZERO PUSH2 0x1184 JUMPI PUSH2 0x1183 PUSH2 0x1130 JUMP JUMPDEST JUMPDEST SWAP3 POP SWAP3 SWAP1 POP JUMP JUMPDEST PUSH1 0x0 DUP1 DUP4 PUSH1 0x1F DUP5 ADD SLT PUSH2 0x11A1 JUMPI PUSH2 0x11A0 PUSH2 0x1126 JUMP JUMPDEST JUMPDEST DUP3 CALLDATALOAD SWAP1 POP PUSH8 0xFFFFFFFFFFFFFFFF DUP2 GT ISZERO PUSH2 0x11BE JUMPI PUSH2 0x11BD PUSH2 0x112B JUMP JUMPDEST JUMPDEST PUSH1 0x20 DUP4 ADD SWAP2 POP DUP4 PUSH1 0x60 DUP3 MUL DUP4 ADD GT ISZERO PUSH2 0x11DA JUMPI PUSH2 0x11D9 PUSH2 0x1130 JUMP JUMPDEST JUMPDEST SWAP3 POP SWAP3 SWAP1 POP JUMP JUMPDEST PUSH1 0x0 DUP1 PUSH1 0x0 DUP1 PUSH1 0x0 DUP1 PUSH1 0x0 DUP1 PUSH1 0xC0 DUP10 DUP12 SUB SLT ISZERO PUSH2 0x1201 JUMPI PUSH2 0x1200 PUSH2 0x10B0 JUMP JUMPDEST JUMPDEST PUSH1 0x0 PUSH2 0x120F DUP12 DUP3 DUP13 ADD PUSH2 0x10DB JUMP JUMPDEST SWAP9 POP POP PUSH1 0x20 PUSH2 0x1220 DUP12 DUP3 DUP13 ADD PUSH2 0x10DB JUMP JUMPDEST SWAP8 POP POP PUSH1 0x40 PUSH2 0x1231 DUP12 DUP3 DUP13 ADD PUSH2 0x10DB JUMP JUMPDEST SWAP7 POP POP PUSH1 0x60 PUSH2 0x1242 DUP12 DUP3 DUP13 ADD PUSH2 0x1111 JUMP JUMPDEST SWAP6 POP POP PUSH1 0x80 DUP10 ADD CALLDATALOAD PUSH8 0xFFFFFFFFFFFFFFFF DUP2 GT ISZERO PUSH2 0x1263 JUMPI PUSH2 0x1262 PUSH2 0x10B5 JUMP JUMPDEST JUMPDEST PUSH2 0x126F DUP12 DUP3 DUP13 ADD PUSH2 0x1135 JUMP JUMPDEST SWAP5 POP SWAP5 POP POP PUSH1 0xA0 DUP10 ADD CALLDATALOAD PUSH8 0xFFFFFFFFFFFFFFFF DUP2 GT ISZERO PUSH2 0x1292 JUMPI PUSH2 0x1291 PUSH2 0x10B5 JUMP JUMPDEST JUMPDEST PUSH2 0x129E DUP12 DUP3 DUP13 ADD PUSH2 0x118B JUMP JUMPDEST SWAP3 POP SWAP3 POP POP SWAP3 SWAP6 SWAP9 POP SWAP3 SWAP6 SWAP9 SWAP1 SWAP4 SWAP7 POP JUMP JUMPDEST PUSH1 0x0 DUP1 REVERT JUMPDEST PUSH1 0x0 PUSH1 0x1F NOT PUSH1 0x1F DUP4 ADD AND SWAP1 POP SWAP2 SWAP1 POP JUMP JUMPDEST PUSH32 0x4E487B7100000000000000000000000000000000000000000000000000000000 PUSH1 0x0 MSTORE PUSH1 0x41 PUSH1 0x4 MSTORE PUSH1 0x24 PUSH1 0x0 REVERT JUMPDEST PUSH2 0x12FE DUP3 PUSH2 0x12B5 JUMP JUMPDEST DUP2 ADD DUP2 DUP2 LT PUSH8 0xFFFFFFFFFFFFFFFF DUP3 GT OR ISZERO PUSH2 0x131D JUMPI PUSH2 0x131C PUSH2 0x12C6 JUMP JUMPDEST JUMPDEST DUP1 PUSH1 0x40 MSTORE POP POP POP JUMP JUMPDEST PUSH1 0x0 PUSH2 0x1330 PUSH2 0x10A6 JUMP JUMPDEST SWAP1 POP PUSH2 0x133C DUP3 DUP3 PUSH2 0x12F5 JUMP JUMPDEST SWAP2 SWAP1 POP JUMP JUMPDEST PUSH1 0x0 DUP1 REVERT JUMPDEST PUSH1 0x0 PUSH1 0x40 DUP3 DUP5 SUB SLT ISZERO PUSH2 0x135C JUMPI PUSH2 0x135B PUSH2 0x12B0 JUMP JUMPDEST JUMPDEST PUSH2 0x1366 PUSH1 0x40 PUSH2 0x1326 JUMP JUMPDEST SWAP1 POP PUSH1 0x0 PUSH2 0x1376 DUP5 DUP3 DUP6 ADD PUSH2 0x10DB JUMP JUMPDEST PUSH1 0x0 DUP4 ADD MSTORE POP PUSH1 0x20 PUSH2 0x138A DUP5 DUP3 DUP6 ADD PUSH2 0x1111 JUMP JUMPDEST PUSH1 0x20 DUP4 ADD MSTORE POP SWAP3 SWAP2 POP POP JUMP JUMPDEST PUSH1 0x0 PUSH8 0xFFFFFFFFFFFFFFFF DUP3 GT ISZERO PUSH2 0x13B1 JUMPI PUSH2 0x13B0 PUSH2 0x12C6 JUMP JUMPDEST JUMPDEST PUSH1 0x20 DUP3 MUL SWAP1 POP PUSH1 0x20 DUP2 ADD SWAP1 POP SWAP2 SWAP1 POP JUMP JUMPDEST PUSH1 0x0 PUSH2 0x13D5 PUSH2 0x13D0 DUP5 PUSH2 0x1396 JUMP JUMPDEST PUSH2 0x1326 JUMP JUMPDEST SWAP1 POP DUP1 DUP4 DUP3 MSTORE PUSH1 0x20 DUP3 ADD SWAP1 POP PUSH1 0x20 DUP5 MUL DUP4 ADD DUP6 DUP2 GT ISZERO PUSH2 0x13F8 JUMPI PUSH2 0x13F7 PUSH2 0x1130 JUMP JUMPDEST JUMPDEST DUP4 JUMPDEST DUP2 DUP2 LT ISZERO PUSH2 0x1421 JUMPI DUP1 PUSH2 0x140D DUP9 DUP3 PUSH2 0x1111 JUMP JUMPDEST DUP5 MSTORE PUSH1 0x20 DUP5 ADD SWAP4 POP POP PUSH1 0x20 DUP2 ADD SWAP1 POP PUSH2 0x13FA JUMP JUMPDEST POP POP POP SWAP4 SWAP3 POP POP POP JUMP JUMPDEST PUSH1 0x0 DUP3 PUSH1 0x1F DUP4 ADD SLT PUSH2 0x1440 JUMPI PUSH2 0x143F PUSH2 0x1126 JUMP JUMPDEST JUMPDEST DUP2 CALLDATALOAD PUSH2 0x1450 DUP5 DUP3 PUSH1 0x20 DUP7 ADD PUSH2 0x13C2 JUMP JUMPDEST SWAP2 POP POP SWAP3 SWAP2 POP POP JUMP JUMPDEST PUSH1 0x0 PUSH1 0x60 DUP3 DUP5 SUB SLT ISZERO PUSH2 0x146F JUMPI PUSH2 0x146E PUSH2 0x12B0 JUMP JUMPDEST JUMPDEST PUSH2 0x1479 PUSH1 0x60 PUSH2 0x1326 JUMP JUMPDEST SWAP1 POP PUSH1 0x0 DUP3 ADD CALLDATALOAD PUSH8 0xFFFFFFFFFFFFFFFF DUP2 GT ISZERO PUSH2 0x1499 JUMPI PUSH2 0x1498 PUSH2 0x1341 JUMP JUMPDEST JUMPDEST PUSH2 0x14A5 DUP5 DUP3 DUP6 ADD PUSH2 0x142B JUMP JUMPDEST PUSH1 0x0 DUP4 ADD MSTORE POP PUSH1 0x20 PUSH2 0x14B9 DUP5 DUP3 DUP6 ADD PUSH2 0x10DB JUMP JUMPDEST PUSH1 0x20 DUP4 ADD MSTORE POP PUSH1 0x40 PUSH2 0x14CD DUP5 DUP3 DUP6 ADD PUSH2 0x10DB JUMP JUMPDEST PUSH1 0x40 DUP4 ADD MSTORE POP SWAP3 SWAP2 POP POP JUMP JUMPDEST PUSH1 0x0 DUP1 PUSH1 0x0 PUSH1 0x80 DUP5 DUP7 SUB SLT ISZERO PUSH2 0x14F2 JUMPI PUSH2 0x14F1 PUSH2 0x10B0 JUMP JUMPDEST JUMPDEST PUSH1 0x0 PUSH2 0x1500 DUP7 DUP3 DUP8 ADD PUSH2 0x10DB JUMP JUMPDEST SWAP4 POP POP PUSH1 0x20 PUSH2 0x1511 DUP7 DUP3 DUP8 ADD PUSH2 0x1346 JUMP JUMPDEST SWAP3 POP POP PUSH1 0x60 DUP5 ADD CALLDATALOAD PUSH8 0xFFFFFFFFFFFFFFFF DUP2 GT ISZERO PUSH2 0x1532 JUMPI PUSH2 0x1531 PUSH2 0x10B5 JUMP JUMPDEST JUMPDEST PUSH2 0x153E DUP7 DUP3 DUP8 ADD PUSH2 0x1459 JUMP JUMPDEST SWAP2 POP POP SWAP3 POP SWAP3 POP SWAP3 JUMP JUMPDEST PUSH1 0x0 DUP2 ISZERO ISZERO SWAP1 POP SWAP2 SWAP1 POP JUMP JUMPDEST PUSH2 0x155D DUP2 PUSH2 0x1548 JUMP JUMPDEST DUP3 MSTORE POP POP JUMP JUMPDEST PUSH1 0x0 PUSH1 0x20 DUP3 ADD SWAP1 POP PUSH2 0x1578 PUSH1 0x0 DUP4 ADD DUP5 PUSH2 0x1554 JUMP JUMPDEST SWAP3 SWAP2 POP POP JUMP JUMPDEST PUSH2 0x1587 DUP2 PUSH2 0x10F0 JUMP JUMPDEST DUP3 MSTORE POP POP JUMP JUMPDEST PUSH1 0x0 PUSH1 0x20 DUP3 ADD SWAP1 POP PUSH2 0x15A2 PUSH1 0x0 DUP4 ADD DUP5 PUSH2 0x157E JUMP JUMPDEST SWAP3 SWAP2 POP POP JUMP JUMPDEST PUSH1 0x0 PUSH1 0x20 DUP3 DUP5 SUB SLT ISZERO PUSH2 0x15BE JUMPI PUSH2 0x15BD PUSH2 0x10B0 JUMP JUMPDEST JUMPDEST PUSH1 0x0 PUSH2 0x15CC DUP5 DUP3 DUP6 ADD PUSH2 0x10DB JUMP JUMPDEST SWAP2 POP POP SWAP3 SWAP2 POP POP JUMP JUMPDEST PUSH2 0x15DE DUP2 PUSH2 0x10BA JUMP JUMPDEST DUP3 MSTORE POP POP JUMP JUMPDEST PUSH1 0x0 PUSH1 0x20 DUP3 ADD SWAP1 POP PUSH2 0x15F9 PUSH1 0x0 DUP4 ADD DUP5 PUSH2 0x15D5 JUMP JUMPDEST SWAP3 SWAP2 POP POP JUMP JUMPDEST PUSH1 0x0 DUP1 PUSH1 0x0 DUP1 PUSH1 0x0 DUP1 PUSH1 0x0 PUSH1 0xA0 DUP9 DUP11 SUB SLT ISZERO PUSH2 0x161E JUMPI PUSH2 0x161D PUSH2 0x10B0 JUMP JUMPDEST JUMPDEST PUSH1 0x0 PUSH2 0x162C DUP11 DUP3 DUP12 ADD PUSH2 0x10DB JUMP JUMPDEST SWAP8 POP POP PUSH1 0x20 PUSH2 0x163D DUP11 DUP3 DUP12 ADD PUSH2 0x10DB JUMP JUMPDEST SWAP7 POP POP PUSH1 0x40 PUSH2 0x164E DUP11 DUP3 DUP12 ADD PUSH2 0x1111 JUMP JUMPDEST SWAP6 POP POP PUSH1 0x60 DUP9 ADD CALLDATALOAD PUSH8 0xFFFFFFFFFFFFFFFF DUP2 GT ISZERO PUSH2 0x166F JUMPI PUSH2 0x166E PUSH2 0x10B5 JUMP JUMPDEST JUMPDEST PUSH2 0x167B DUP11 DUP3 DUP12 ADD PUSH2 0x1135 JUMP JUMPDEST SWAP5 POP SWAP5 POP POP PUSH1 0x80 DUP9 ADD CALLDATALOAD PUSH8 0xFFFFFFFFFFFFFFFF DUP2 GT ISZERO PUSH2 0x169E JUMPI PUSH2 0x169D PUSH2 0x10B5 JUMP JUMPDEST JUMPDEST PUSH2 0x16AA DUP11 DUP3 DUP12 ADD PUSH2 0x118B JUMP JUMPDEST SWAP3 POP SWAP3 POP POP SWAP3 SWAP6 SWAP9 SWAP2 SWAP5 SWAP8 POP SWAP3 SWAP6 POP JUMP JUMPDEST PUSH32 0x4E487B7100000000000000000000000000000000000000000000000000000000 PUSH1 0x0 MSTORE PUSH1 0x11 PUSH1 0x4 MSTORE PUSH1 0x24 PUSH1 0x0 REVERT JUMPDEST PUSH1 0x0 PUSH2 0x16F5 DUP3 PUSH2 0x10BA JUMP JUMPDEST SWAP2 POP PUSH2 0x1700 DUP4 PUSH2 0x10BA JUMP JUMPDEST SWAP3 POP DUP3 DUP3 ADD SWAP1 POP DUP1 DUP3 GT ISZERO PUSH2 0x1718 JUMPI PUSH2 0x1717 PUSH2 0x16BB JUMP JUMPDEST JUMPDEST SWAP3 SWAP2 POP POP JUMP JUMPDEST PUSH1 0x0 PUSH1 0x40 DUP3 ADD SWAP1 POP PUSH2 0x1733 PUSH1 0x0 DUP4 ADD DUP6 PUSH2 0x15D5 JUMP JUMPDEST PUSH2 0x1740 PUSH1 0x20 DUP4 ADD DUP5 PUSH2 0x157E JUMP JUMPDEST SWAP4 SWAP3 POP POP POP JUMP JUMPDEST PUSH2 0x1750 DUP2 PUSH2 0x10BA JUMP JUMPDEST DUP3 MSTORE POP POP JUMP JUMPDEST PUSH2 0x175F DUP2 PUSH2 0x10F0 JUMP JUMPDEST DUP3 MSTORE POP POP JUMP JUMPDEST PUSH1 0x40 DUP3 ADD PUSH1 0x0 DUP3 ADD MLOAD PUSH2 0x177B PUSH1 0x0 DUP6 ADD DUP3 PUSH2 0x1747 JUMP JUMPDEST POP PUSH1 0x20 DUP3 ADD MLOAD PUSH2 0x178E PUSH1 0x20 DUP6 ADD DUP3 PUSH2 0x1756 JUMP JUMPDEST POP POP POP POP JUMP JUMPDEST PUSH1 0x0 PUSH1 0x40 DUP3 ADD SWAP1 POP PUSH2 0x17A9 PUSH1 0x0 DUP4 ADD DUP5 PUSH2 0x1765 JUMP JUMPDEST SWAP3 SWAP2 POP POP JUMP JUMPDEST PUSH1 0x0 DUP3 DUP3 MSTORE PUSH1 0x20 DUP3 ADD SWAP1 POP SWAP3 SWAP2 POP POP JUMP JUMPDEST PUSH1 0x0 DUP2 SWAP1 POP SWAP2 SWAP1 POP JUMP JUMPDEST PUSH1 0x0 PUSH20 0xFFFFFFFFFFFFFFFFFFFFFFFFFFFFFFFFFFFFFFFF DUP3 AND SWAP1 POP SWAP2 SWAP1 POP JUMP JUMPDEST PUSH1 0x0 PUSH2 0x17F5 DUP3 PUSH2 0x17CA JUMP JUMPDEST SWAP1 POP SWAP2 SWAP1 POP JUMP JUMPDEST PUSH2 0x1805 DUP2 PUSH2 0x17EA JUMP JUMPDEST DUP2 EQ PUSH2 0x1810 JUMPI PUSH1 0x0 DUP1 REVERT JUMPDEST POP JUMP JUMPDEST PUSH1 0x0 DUP2 CALLDATALOAD SWAP1 POP PUSH2 0x1822 DUP2 PUSH2 0x17FC JUMP JUMPDEST SWAP3 SWAP2 POP POP JUMP JUMPDEST PUSH1 0x0 PUSH2 0x1837 PUSH1 0x20 DUP5 ADD DUP5 PUSH2 0x1813 JUMP JUMPDEST SWAP1 POP SWAP3 SWAP2 POP POP JUMP JUMPDEST PUSH2 0x1848 DUP2 PUSH2 0x17EA JUMP JUMPDEST DUP3 MSTORE POP POP JUMP JUMPDEST PUSH1 0x0 PUSH2 0x185D PUSH1 0x20 DUP5 ADD DUP5 PUSH2 0x10DB JUMP JUMPDEST SWAP1 POP SWAP3 SWAP2 POP POP JUMP JUMPDEST PUSH1 0x40 DUP3 ADD PUSH2 0x1876 PUSH1 0x0 DUP4 ADD DUP4 PUSH2 0x1828 JUMP JUMPDEST PUSH2 0x1883 PUSH1 0x0 DUP6 ADD DUP3 PUSH2 0x183F JUMP JUMPDEST POP PUSH2 0x1891 PUSH1 0x20 DUP4 ADD DUP4 PUSH2 0x184E JUMP JUMPDEST PUSH2 0x189E PUSH1 0x20 DUP6 ADD DUP3 PUSH2 0x1747 JUMP JUMPDEST POP POP POP POP JUMP JUMPDEST PUSH1 0x0 PUSH2 0x18B0 DUP4 DUP4 PUSH2 0x1865 JUMP JUMPDEST PUSH1 0x40 DUP4 ADD SWAP1 POP SWAP3 SWAP2 POP POP JUMP JUMPDEST PUSH1 0x0 DUP3 SWAP1 POP SWAP3 SWAP2 POP POP JUMP JUMPDEST PUSH1 0x0 PUSH1 0x40 DUP3 ADD SWAP1 POP SWAP2 SWAP1 POP JUMP JUMPDEST PUSH1 0x0 PUSH2 0x18E0 DUP4 DUP6 PUSH2 0x17AF JUMP JUMPDEST SWAP4 POP PUSH2 0x18EB DUP3 PUSH2 0x17C0 JUMP JUMPDEST DUP1 PUSH1 0x0 JUMPDEST DUP6 DUP2 LT ISZERO PUSH2 0x1924 JUMPI PUSH2 0x1901 DUP3 DUP5 PUSH2 0x18BC JUMP JUMPDEST PUSH2 0x190B DUP9 DUP3 PUSH2 0x18A4 JUMP JUMPDEST SWAP8 POP PUSH2 0x1916 DUP4 PUSH2 0x18C7 JUMP JUMPDEST SWAP3 POP POP PUSH1 0x1 DUP2 ADD SWAP1 POP PUSH2 0x18EF JUMP JUMPDEST POP DUP6 SWAP3 POP POP POP SWAP4 SWAP3 POP POP POP JUMP JUMPDEST PUSH1 0x0 PUSH1 0x20 DUP3 ADD SWAP1 POP DUP2 DUP2 SUB PUSH1 0x0 DUP4 ADD MSTORE PUSH2 0x194C DUP2 DUP5 DUP7 PUSH2 0x18D4 JUMP JUMPDEST SWAP1 POP SWAP4 SWAP3 POP POP POP JUMP JUMPDEST PUSH1 0x0 PUSH1 0x80 DUP3 ADD SWAP1 POP PUSH2 0x196A PUSH1 0x0 DUP4 ADD DUP8 PUSH2 0x157E JUMP JUMPDEST PUSH2 0x1977 PUSH1 0x20 DUP4 ADD DUP7 PUSH2 0x15D5 JUMP JUMPDEST PUSH2 0x1984 PUSH1 0x40 DUP4 ADD DUP6 PUSH2 0x15D5 JUMP JUMPDEST PUSH2 0x1991 PUSH1 0x60 DUP4 ADD DUP5 PUSH2 0x157E JUMP JUMPDEST SWAP6 SWAP5 POP POP POP POP POP JUMP JUMPDEST PUSH32 0x4E487B7100000000000000000000000000000000000000000000000000000000 PUSH1 0x0 MSTORE PUSH1 0x32 PUSH1 0x4 MSTORE PUSH1 0x24 PUSH1 0x0 REVERT JUMPDEST PUSH1 0x0 PUSH1 0xFF DUP3 AND SWAP1 POP SWAP2 SWAP1 POP JUMP JUMPDEST PUSH2 0x19DF DUP2 PUSH2 0x19C9 JUMP JUMPDEST DUP2 EQ PUSH2 0x19EA JUMPI PUSH1 0x0 DUP1 REVERT JUMPDEST POP JUMP JUMPDEST PUSH1 0x0 DUP2 CALLDATALOAD SWAP1 POP PUSH2 0x19FC DUP2 PUSH2 0x19D6 JUMP JUMPDEST SWAP3 SWAP2 POP POP JUMP JUMPDEST PUSH1 0x0 PUSH1 0x20 DUP3 DUP5 SUB SLT ISZERO PUSH2 0x1A18 JUMPI PUSH2 0x1A17 PUSH2 0x10B0 JUMP JUMPDEST JUMPDEST PUSH1 0x0 PUSH2 0x1A26 DUP5 DUP3 DUP6 ADD PUSH2 0x19ED JUMP JUMPDEST SWAP2 POP POP SWAP3 SWAP2 POP POP JUMP JUMPDEST PUSH1 0x0 PUSH1 0x20 DUP3 DUP5 SUB SLT ISZERO PUSH2 0x1A45 JUMPI PUSH2 0x1A44 PUSH2 0x10B0 JUMP JUMPDEST JUMPDEST PUSH1 0x0 PUSH2 0x1A53 DUP5 DUP3 DUP6 ADD PUSH2 0x1813 JUMP JUMPDEST SWAP2 POP POP SWAP3 SWAP2 POP POP JUMP JUMPDEST PUSH1 0x0 PUSH1 0x60 DUP3 ADD SWAP1 POP PUSH2 0x1A71 PUSH1 0x0 DUP4 ADD DUP7 PUSH2 0x157E JUMP JUMPDEST PUSH2 0x1A7E PUSH1 0x20 DUP4 ADD DUP6 PUSH2 0x15D5 JUMP JUMPDEST PUSH2 0x1A8B PUSH1 0x40 DUP4 ADD DUP5 PUSH2 0x157E JUMP JUMPDEST SWAP5 SWAP4 POP POP POP POP JUMP JUMPDEST PUSH1 0x0 PUSH2 0x1A9E DUP3 PUSH2 0x10BA JUMP JUMPDEST SWAP2 POP PUSH2 0x1AA9 DUP4 PUSH2 0x10BA JUMP JUMPDEST SWAP3 POP DUP3 DUP3 SUB SWAP1 POP DUP2 DUP2 GT ISZERO PUSH2 0x1AC1 JUMPI PUSH2 0x1AC0 PUSH2 0x16BB JUMP JUMPDEST JUMPDEST SWAP3 SWAP2 POP POP JUMP JUMPDEST PUSH1 0x0 PUSH32 0xFF00000000000000000000000000000000000000000000000000000000000000 DUP3 AND SWAP1 POP SWAP2 SWAP1 POP JUMP JUMPDEST PUSH1 0x0 DUP2 SWAP1 POP SWAP2 SWAP1 POP JUMP JUMPDEST PUSH2 0x1B0E PUSH2 0x1B09 DUP3 PUSH2 0x1AC7 JUMP JUMPDEST PUSH2 0x1AF3 JUMP JUMPDEST DUP3 MSTORE POP POP JUMP JUMPDEST PUSH1 0x0 DUP2 MLOAD SWAP1 POP SWAP2 SWAP1 POP JUMP JUMPDEST PUSH1 0x0 DUP2 SWAP1 POP SWAP3 SWAP2 POP POP JUMP JUMPDEST PUSH1 0x0 JUMPDEST DUP4 DUP2 LT ISZERO PUSH2 0x1B48 JUMPI DUP1 DUP3 ADD MLOAD DUP2 DUP5 ADD MSTORE PUSH1 0x20 DUP2 ADD SWAP1 POP PUSH2 0x1B2D JUMP JUMPDEST PUSH1 0x0 DUP5 DUP5 ADD MSTORE POP POP POP POP JUMP JUMPDEST PUSH1 0x0 PUSH2 0x1B5F DUP3 PUSH2 0x1B14 JUMP JUMPDEST PUSH2 0x1B69 DUP2 DUP6 PUSH2 0x1B1F JUMP JUMPDEST SWAP4 POP PUSH2 0x1B79 DUP2 DUP6 PUSH1 0x20 DUP7 ADD PUSH2 0x1B2A JUMP JUMPDEST DUP1 DUP5 ADD SWAP2 POP POP SWAP3 SWAP2 POP POP JUMP JUMPDEST PUSH1 0x0 PUSH2 0x1B91 DUP3 DUP6 PUSH2 0x1AFD JUMP JUMPDEST PUSH1 0x1 DUP3 ADD SWAP2 POP PUSH2 0x1BA1 DUP3 DUP5 PUSH2 0x1B54 JUMP JUMPDEST SWAP2 POP DUP2 SWAP1 POP SWAP4 SWAP3 POP POP POP JUMP JUMPDEST PUSH1 0x0 PUSH2 0x1BB9 DUP3 DUP5 PUSH2 0x1B54 JUMP JUMPDEST SWAP2 POP DUP2 SWAP1 POP SWAP3 SWAP2 POP POP JUMP JUMPDEST PUSH1 0x0 DUP2 MLOAD SWAP1 POP PUSH2 0x1BD3 DUP2 PUSH2 0x10FA JUMP JUMPDEST SWAP3 SWAP2 POP POP JUMP JUMPDEST PUSH1 0x0 PUSH1 0x20 DUP3 DUP5 SUB SLT ISZERO PUSH2 0x1BEF JUMPI PUSH2 0x1BEE PUSH2 0x10B0 JUMP JUMPDEST JUMPDEST PUSH1 0x0 PUSH2 0x1BFD DUP5 DUP3 DUP6 ADD PUSH2 0x1BC4 JUMP JUMPDEST SWAP2 POP POP SWAP3 SWAP2 POP POP JUMP JUMPDEST PUSH1 0x0 DUP3 DUP3 MSTORE PUSH1 0x20 DUP3 ADD SWAP1 POP SWAP3 SWAP2 POP POP JUMP JUMPDEST PUSH32 0x63616E6E6F742063616C6C20636F6D70757465526F6F74486173682077697468 PUSH1 0x0 DUP3 ADD MSTORE PUSH32 0x2030206E756D626572206F66206C656176657300000000000000000000000000 PUSH1 0x20 DUP3 ADD MSTORE POP JUMP JUMPDEST PUSH1 0x0 PUSH2 0x1C73 PUSH1 0x33 DUP4 PUSH2 0x1C06 JUMP JUMPDEST SWAP2 POP PUSH2 0x1C7E DUP3 PUSH2 0x1C17 JUMP JUMPDEST PUSH1 0x40 DUP3 ADD SWAP1 POP SWAP2 SWAP1 POP JUMP JUMPDEST PUSH1 0x0 PUSH1 0x20 DUP3 ADD SWAP1 POP DUP2 DUP2 SUB PUSH1 0x0 DUP4 ADD MSTORE PUSH2 0x1CA2 DUP2 PUSH2 0x1C66 JUMP JUMPDEST SWAP1 POP SWAP2 SWAP1 POP JUMP JUMPDEST PUSH32 0x756E657870656374656420696E6E657220686173686573000000000000000000 PUSH1 0x0 DUP3 ADD MSTORE POP JUMP JUMPDEST PUSH1 0x0 PUSH2 0x1CDF PUSH1 0x17 DUP4 PUSH2 0x1C06 JUMP JUMPDEST SWAP2 POP PUSH2 0x1CEA DUP3 PUSH2 0x1CA9 JUMP JUMPDEST PUSH1 0x20 DUP3 ADD SWAP1 POP SWAP2 SWAP1 POP JUMP JUMPDEST PUSH1 0x0 PUSH1 0x20 DUP3 ADD SWAP1 POP DUP2 DUP2 SUB PUSH1 0x0 DUP4 ADD MSTORE PUSH2 0x1D0E DUP2 PUSH2 0x1CD2 JUMP JUMPDEST SWAP1 POP SWAP2 SWAP1 POP JUMP JUMPDEST PUSH32 0x6578706563746564206174206C65617374206F6E6520696E6E65722068617368 PUSH1 0x0 DUP3 ADD MSTORE POP JUMP JUMPDEST PUSH1 0x0 PUSH2 0x1D4B PUSH1 0x20 DUP4 PUSH2 0x1C06 JUMP JUMPDEST SWAP2 POP PUSH2 0x1D56 DUP3 PUSH2 0x1D15 JUMP JUMPDEST PUSH1 0x20 DUP3 ADD SWAP1 POP SWAP2 SWAP1 POP JUMP JUMPDEST PUSH1 0x0 PUSH1 0x20 DUP3 ADD SWAP1 POP DUP2 DUP2 SUB PUSH1 0x0 DUP4 ADD MSTORE PUSH2 0x1D7A DUP2 PUSH2 0x1D3E JUMP JUMPDEST SWAP1 POP SWAP2 SWAP1 POP JUMP JUMPDEST PUSH32 0x496E76616C69642072616E67653A205F626567696E2069732067726561746572 PUSH1 0x0 DUP3 ADD MSTORE PUSH32 0x207468616E205F656E6400000000000000000000000000000000000000000000 PUSH1 0x20 DUP3 ADD MSTORE POP JUMP JUMPDEST PUSH1 0x0 PUSH2 0x1DDD PUSH1 0x2A DUP4 PUSH2 0x1C06 JUMP JUMPDEST SWAP2 POP PUSH2 0x1DE8 DUP3 PUSH2 0x1D81 JUMP JUMPDEST PUSH1 0x40 DUP3 ADD SWAP1 POP SWAP2 SWAP1 POP JUMP JUMPDEST PUSH1 0x0 PUSH1 0x20 DUP3 ADD SWAP1 POP DUP2 DUP2 SUB PUSH1 0x0 DUP4 ADD MSTORE PUSH2 0x1E0C DUP2 PUSH2 0x1DD0 JUMP JUMPDEST SWAP1 POP SWAP2 SWAP1 POP JUMP JUMPDEST PUSH32 0x496E76616C69642072616E67653A205F626567696E206F72205F656E64206172 PUSH1 0x0 DUP3 ADD MSTORE PUSH32 0x65206F7574206F6620626F756E64730000000000000000000000000000000000 PUSH1 0x20 DUP3 ADD MSTORE POP JUMP JUMPDEST PUSH1 0x0 PUSH2 0x1E6F PUSH1 0x2F DUP4 PUSH2 0x1C06 JUMP JUMPDEST SWAP2 POP PUSH2 0x1E7A DUP3 PUSH2 0x1E13 JUMP JUMPDEST PUSH1 0x40 DUP3 ADD SWAP1 POP SWAP2 SWAP1 POP JUMP JUMPDEST PUSH1 0x0 PUSH1 0x20 DUP3 ADD SWAP1 POP DUP2 DUP2 SUB PUSH1 0x0 DUP4 ADD MSTORE PUSH2 0x1E9E DUP2 PUSH2 0x1E62 JUMP JUMPDEST SWAP1 POP SWAP2 SWAP1 POP JUMP JUMPDEST PUSH1 0x0 DUP2 SWAP1 POP SWAP2 SWAP1 POP JUMP JUMPDEST PUSH2 0x1EC0 PUSH2 0x1EBB DUP3 PUSH2 0x10F0 JUMP JUMPDEST PUSH2 0x1EA5 JUMP JUMPDEST DUP3 MSTORE POP POP JUMP JUMPDEST PUSH1 0x0 PUSH2 0x1ED2 DUP3 DUP7 PUSH2 0x1AFD JUMP JUMPDEST PUSH1 0x1 DUP3 ADD SWAP2 POP PUSH2 0x1EE2 DUP3 DUP6 PUSH2 0x1EAF JUMP JUMPDEST PUSH1 0x20 DUP3 ADD SWAP2 POP PUSH2 0x1EF2 DUP3 DUP5 PUSH2 0x1EAF JUMP JUMPDEST PUSH1 0x20 DUP3 ADD SWAP2 POP DUP2 SWAP1 POP SWAP5 SWAP4 POP POP POP POP JUMP JUMPDEST PUSH2 0x1F0C DUP2 PUSH2 0x19C9 JUMP JUMPDEST DUP3 MSTORE POP POP JUMP JUMPDEST PUSH1 0x0 PUSH1 0x80 DUP3 ADD SWAP1 POP PUSH2 0x1F27 PUSH1 0x0 DUP4 ADD DUP8 PUSH2 0x157E JUMP JUMPDEST PUSH2 0x1F34 PUSH1 0x20 DUP4 ADD DUP7 PUSH2 0x1F03 JUMP JUMPDEST PUSH2 0x1F41 PUSH1 0x40 DUP4 ADD DUP6 PUSH2 0x157E JUMP JUMPDEST PUSH2 0x1F4E PUSH1 0x60 DUP4 ADD DUP5 PUSH2 0x157E JUMP JUMPDEST SWAP6 SWAP5 POP POP POP POP POP JUMP JUMPDEST PUSH32 0x4E487B7100000000000000000000000000000000000000000000000000000000 PUSH1 0x0 MSTORE PUSH1 0x21 PUSH1 0x4 MSTORE PUSH1 0x24 PUSH1 0x0 REVERT JUMPDEST PUSH1 0x0 PUSH2 0x1F91 DUP3 PUSH2 0x10BA JUMP JUMPDEST SWAP2 POP PUSH32 0xFFFFFFFFFFFFFFFFFFFFFFFFFFFFFFFFFFFFFFFFFFFFFFFFFFFFFFFFFFFFFFFF DUP3 SUB PUSH2 0x1FC3 JUMPI PUSH2 0x1FC2 PUSH2 0x16BB JUMP JUMPDEST JUMPDEST PUSH1 0x1 DUP3 ADD SWAP1 POP SWAP2 SWAP1 POP JUMP INVALID LOG2 PUSH5 0x6970667358 0x22 SLT KECCAK256 BASEFEE GAS 0xE0 SAR STATICCALL SUB 0xC9 0xD2 MOD SWAP6 0xE5 CREATE2 XOR 0xB3 PUSH2 0xABF7 0xE9 DUP6 LOG0 0x5C 0x5C 0xB0 0x4F 0xE8 0x28 0xB1 0xBB 0x2B SWAP9 0xD5 0xE1 PUSH5 0x736F6C6343 STOP ADDMOD AND STOP CALLER "},"methodIdentifiers":{"state_dataRootTupleRoots(uint256)":"817f985b","state_eventNonce()":"cdade866","state_lastValidatorSetCheckpoint()":"5433218c","state_powerThreshold()":"e5a2b5d2","submitDataRootTupleRoot(uint256,uint256,bytes32,(address,uint256)[],(uint8,bytes32,bytes32)[])":"e23eb326","updateValidatorSet(uint256,uint256,uint256,bytes32,(address,uint256)[],(uint8,bytes32,bytes32)[])":"05d85c13","verifyAttestation(uint256,(uint256,bytes32),(bytes32[],uint256,uint256))":"1f3302a9"}}}}}