{
  "_format": "hh-sol-artifact-1",
  "contractName": "TestGovernance",
  "sourceName": "contracts/tellor360/testing/TestGovernance.sol",
  "abi": [
    {
      "inputs": [
        {
          "internalType": "address payable",
          "name": "_tellor",
          "type": "address"
        },
        {
          "internalType": "address",
          "name": "_teamMultisig",
          "type": "address"
        }
      ],
      "stateMutability": "nonpayable",
      "type": "constructor"
    },
    {
      "anonymous": false,
      "inputs": [
        {
          "indexed": false,
          "internalType": "uint256",
          "name": "_disputeId",
          "type": "uint256"
        },
        {
          "indexed": false,
          "internalType": "bytes32",
          "name": "_queryId",
          "type": "bytes32"
        },
        {
          "indexed": false,
          "internalType": "uint256",
          "name": "_timestamp",
          "type": "uint256"
        },
        {
          "indexed": false,
          "internalType": "address",
          "name": "_reporter",
          "type": "address"
        }
      ],
      "name": "NewDispute",
      "type": "event"
    },
    {
      "anonymous": false,
      "inputs": [
        {
          "indexed": false,
          "internalType": "uint256",
          "name": "_disputeId",
          "type": "uint256"
        },
        {
          "indexed": false,
          "internalType": "enum Governance.VoteResult",
          "name": "_result",
          "type": "uint8"
        }
      ],
      "name": "VoteExecuted",
      "type": "event"
    },
    {
      "anonymous": false,
      "inputs": [
        {
          "indexed": false,
          "internalType": "uint256",
          "name": "_disputeId",
          "type": "uint256"
        },
        {
          "indexed": false,
          "internalType": "enum Governance.VoteResult",
          "name": "_result",
          "type": "uint8"
        },
        {
          "indexed": false,
          "internalType": "address",
          "name": "_initiator",
          "type": "address"
        },
        {
          "indexed": false,
          "internalType": "address",
          "name": "_reporter",
          "type": "address"
        }
      ],
      "name": "VoteTallied",
      "type": "event"
    },
    {
      "anonymous": false,
      "inputs": [
        {
          "indexed": false,
          "internalType": "uint256",
          "name": "_disputeId",
          "type": "uint256"
        },
        {
          "indexed": false,
          "internalType": "bool",
          "name": "_supports",
          "type": "bool"
        },
        {
          "indexed": false,
          "internalType": "address",
          "name": "_voter",
          "type": "address"
        },
        {
          "indexed": false,
          "internalType": "bool",
          "name": "_invalidQuery",
          "type": "bool"
        }
      ],
      "name": "Voted",
      "type": "event"
    },
    {
      "stateMutability": "payable",
      "type": "fallback"
    },
    {
      "inputs": [],
      "name": "autopayAddrsQueryId",
      "outputs": [
        {
          "internalType": "bytes32",
          "name": "",
          "type": "bytes32"
        }
      ],
      "stateMutability": "view",
      "type": "function"
    },
    {
      "inputs": [
        {
          "internalType": "bytes32",
          "name": "_queryId",
          "type": "bytes32"
        },
        {
          "internalType": "uint256",
          "name": "_timestamp",
          "type": "uint256"
        }
      ],
      "name": "beginDispute",
      "outputs": [],
      "stateMutability": "nonpayable",
      "type": "function"
    },
    {
      "inputs": [
        {
          "internalType": "uint256",
          "name": "_disputeId",
          "type": "uint256"
        },
        {
          "internalType": "address",
          "name": "_voter",
          "type": "address"
        }
      ],
      "name": "didVote",
      "outputs": [
        {
          "internalType": "bool",
          "name": "",
          "type": "bool"
        }
      ],
      "stateMutability": "view",
      "type": "function"
    },
    {
      "inputs": [
        {
          "internalType": "uint256",
          "name": "_disputeId",
          "type": "uint256"
        }
      ],
      "name": "executeVote",
      "outputs": [],
      "stateMutability": "nonpayable",
      "type": "function"
    },
    {
      "inputs": [
        {
          "internalType": "bytes32",
          "name": "_queryId",
          "type": "bytes32"
        },
        {
          "internalType": "uint256",
          "name": "_timestamp",
          "type": "uint256"
        }
      ],
      "name": "getDataAfter",
      "outputs": [
        {
          "internalType": "bytes",
          "name": "_value",
          "type": "bytes"
        },
        {
          "internalType": "uint256",
          "name": "_timestampRetrieved",
          "type": "uint256"
        }
      ],
      "stateMutability": "view",
      "type": "function"
    },
    {
      "inputs": [
        {
          "internalType": "bytes32",
          "name": "_queryId",
          "type": "bytes32"
        },
        {
          "internalType": "uint256",
          "name": "_timestamp",
          "type": "uint256"
        }
      ],
      "name": "getDataBefore",
      "outputs": [
        {
          "internalType": "bytes",
          "name": "_value",
          "type": "bytes"
        },
        {
          "internalType": "uint256",
          "name": "_timestampRetrieved",
          "type": "uint256"
        }
      ],
      "stateMutability": "view",
      "type": "function"
    },
    {
      "inputs": [],
      "name": "getDisputeFee",
      "outputs": [
        {
          "internalType": "uint256",
          "name": "",
          "type": "uint256"
        }
      ],
      "stateMutability": "view",
      "type": "function"
    },
    {
      "inputs": [
        {
          "internalType": "uint256",
          "name": "_disputeId",
          "type": "uint256"
        }
      ],
      "name": "getDisputeInfo",
      "outputs": [
        {
          "internalType": "bytes32",
          "name": "",
          "type": "bytes32"
        },
        {
          "internalType": "uint256",
          "name": "",
          "type": "uint256"
        },
        {
          "internalType": "bytes",
          "name": "",
          "type": "bytes"
        },
        {
          "internalType": "address",
          "name": "",
          "type": "address"
        }
      ],
      "stateMutability": "view",
      "type": "function"
    },
    {
      "inputs": [
        {
          "internalType": "address",
          "name": "_reporter",
          "type": "address"
        }
      ],
      "name": "getDisputesByReporter",
      "outputs": [
        {
          "internalType": "uint256[]",
          "name": "",
          "type": "uint256[]"
        }
      ],
      "stateMutability": "view",
      "type": "function"
    },
    {
      "inputs": [
        {
          "internalType": "bytes32",
          "name": "_queryId",
          "type": "bytes32"
        },
        {
          "internalType": "uint256",
          "name": "_timestamp",
          "type": "uint256"
        }
      ],
      "name": "getIndexForDataAfter",
      "outputs": [
        {
          "internalType": "bool",
          "name": "_found",
          "type": "bool"
        },
        {
          "internalType": "uint256",
          "name": "_index",
          "type": "uint256"
        }
      ],
      "stateMutability": "view",
      "type": "function"
    },
    {
      "inputs": [
        {
          "internalType": "bytes32",
          "name": "_queryId",
          "type": "bytes32"
        },
        {
          "internalType": "uint256",
          "name": "_timestamp",
          "type": "uint256"
        }
      ],
      "name": "getIndexForDataBefore",
      "outputs": [
        {
          "internalType": "bool",
          "name": "_found",
          "type": "bool"
        },
        {
          "internalType": "uint256",
          "name": "_index",
          "type": "uint256"
        }
      ],
      "stateMutability": "view",
      "type": "function"
    },
    {
      "inputs": [
        {
          "internalType": "bytes32",
          "name": "_queryId",
          "type": "bytes32"
        },
        {
          "internalType": "uint256",
          "name": "_timestamp",
          "type": "uint256"
        },
        {
          "internalType": "uint256",
          "name": "_maxAge",
          "type": "uint256"
        },
        {
          "internalType": "uint256",
          "name": "_maxCount",
          "type": "uint256"
        }
      ],
      "name": "getMultipleValuesBefore",
      "outputs": [
        {
          "internalType": "bytes[]",
          "name": "_values",
          "type": "bytes[]"
        },
        {
          "internalType": "uint256[]",
          "name": "_timestamps",
          "type": "uint256[]"
        }
      ],
      "stateMutability": "view",
      "type": "function"
    },
    {
      "inputs": [
        {
          "internalType": "bytes32",
          "name": "_queryId",
          "type": "bytes32"
        }
      ],
      "name": "getNewValueCountbyQueryId",
      "outputs": [
        {
          "internalType": "uint256",
          "name": "",
          "type": "uint256"
        }
      ],
      "stateMutability": "view",
      "type": "function"
    },
    {
      "inputs": [
        {
          "internalType": "bytes32",
          "name": "_queryId",
          "type": "bytes32"
        }
      ],
      "name": "getOpenDisputesOnId",
      "outputs": [
        {
          "internalType": "uint256",
          "name": "",
          "type": "uint256"
        }
      ],
      "stateMutability": "view",
      "type": "function"
    },
    {
      "inputs": [
        {
          "internalType": "bytes32",
          "name": "_queryId",
          "type": "bytes32"
        },
        {
          "internalType": "uint256",
          "name": "_timestamp",
          "type": "uint256"
        }
      ],
      "name": "getReporterByTimestamp",
      "outputs": [
        {
          "internalType": "address",
          "name": "",
          "type": "address"
        }
      ],
      "stateMutability": "view",
      "type": "function"
    },
    {
      "inputs": [
        {
          "internalType": "bytes32",
          "name": "_queryId",
          "type": "bytes32"
        },
        {
          "internalType": "uint256",
          "name": "_index",
          "type": "uint256"
        }
      ],
      "name": "getTimestampbyQueryIdandIndex",
      "outputs": [
        {
          "internalType": "uint256",
          "name": "",
          "type": "uint256"
        }
      ],
      "stateMutability": "view",
      "type": "function"
    },
    {
      "inputs": [],
      "name": "getVoteCount",
      "outputs": [
        {
          "internalType": "uint256",
          "name": "",
          "type": "uint256"
        }
      ],
      "stateMutability": "view",
      "type": "function"
    },
    {
      "inputs": [
        {
          "internalType": "uint256",
          "name": "_disputeId",
          "type": "uint256"
        }
      ],
      "name": "getVoteInfo",
      "outputs": [
        {
          "internalType": "bytes32",
          "name": "",
          "type": "bytes32"
        },
        {
          "internalType": "uint256[17]",
          "name": "",
          "type": "uint256[17]"
        },
        {
          "internalType": "bool",
          "name": "",
          "type": "bool"
        },
        {
          "internalType": "enum Governance.VoteResult",
          "name": "",
          "type": "uint8"
        },
        {
          "internalType": "address",
          "name": "",
          "type": "address"
        }
      ],
      "stateMutability": "view",
      "type": "function"
    },
    {
      "inputs": [
        {
          "internalType": "bytes32",
          "name": "_hash",
          "type": "bytes32"
        }
      ],
      "name": "getVoteRounds",
      "outputs": [
        {
          "internalType": "uint256[]",
          "name": "",
          "type": "uint256[]"
        }
      ],
      "stateMutability": "view",
      "type": "function"
    },
    {
      "inputs": [
        {
          "internalType": "address",
          "name": "_voter",
          "type": "address"
        }
      ],
      "name": "getVoteTallyByAddress",
      "outputs": [
        {
          "internalType": "uint256",
          "name": "",
          "type": "uint256"
        }
      ],
      "stateMutability": "view",
      "type": "function"
    },
    {
      "inputs": [],
      "name": "idMappingContract",
      "outputs": [
        {
          "internalType": "contract IMappingContract",
          "name": "",
          "type": "address"
        }
      ],
      "stateMutability": "view",
      "type": "function"
    },
    {
      "inputs": [
        {
          "internalType": "bytes32",
          "name": "_queryId",
          "type": "bytes32"
        },
        {
          "internalType": "uint256",
          "name": "_timestamp",
          "type": "uint256"
        }
      ],
      "name": "isInDispute",
      "outputs": [
        {
          "internalType": "bool",
          "name": "",
          "type": "bool"
        }
      ],
      "stateMutability": "view",
      "type": "function"
    },
    {
      "inputs": [],
      "name": "oracle",
      "outputs": [
        {
          "internalType": "contract IOracle",
          "name": "",
          "type": "address"
        }
      ],
      "stateMutability": "view",
      "type": "function"
    },
    {
      "inputs": [],
      "name": "oracleAddress",
      "outputs": [
        {
          "internalType": "address",
          "name": "",
          "type": "address"
        }
      ],
      "stateMutability": "view",
      "type": "function"
    },
    {
      "inputs": [
        {
          "internalType": "bytes32",
          "name": "_queryId",
          "type": "bytes32"
        },
        {
          "internalType": "uint256",
          "name": "_timestamp",
          "type": "uint256"
        }
      ],
      "name": "retrieveData",
      "outputs": [
        {
          "internalType": "bytes",
          "name": "",
          "type": "bytes"
        }
      ],
      "stateMutability": "view",
      "type": "function"
    },
    {
      "inputs": [
        {
          "internalType": "address",
          "name": "_addy",
          "type": "address"
        }
      ],
      "name": "setIdMappingContract",
      "outputs": [],
      "stateMutability": "nonpayable",
      "type": "function"
    },
    {
      "inputs": [
        {
          "internalType": "uint256",
          "name": "_disputeId",
          "type": "uint256"
        }
      ],
      "name": "tallyVotes",
      "outputs": [],
      "stateMutability": "nonpayable",
      "type": "function"
    },
    {
      "inputs": [],
      "name": "teamMultisig",
      "outputs": [
        {
          "internalType": "address",
          "name": "",
          "type": "address"
        }
      ],
      "stateMutability": "view",
      "type": "function"
    },
    {
      "inputs": [],
      "name": "tellor",
      "outputs": [
        {
          "internalType": "contract ITellor",
          "name": "",
          "type": "address"
        }
      ],
      "stateMutability": "view",
      "type": "function"
    },
    {
      "inputs": [],
      "name": "token",
      "outputs": [
        {
          "internalType": "contract IERC20",
          "name": "",
          "type": "address"
        }
      ],
      "stateMutability": "view",
      "type": "function"
    },
    {
      "inputs": [
        {
          "internalType": "bytes32",
          "name": "_id",
          "type": "bytes32"
        }
      ],
      "name": "valueFor",
      "outputs": [
        {
          "internalType": "int256",
          "name": "_value",
          "type": "int256"
        },
        {
          "internalType": "uint256",
          "name": "_timestamp",
          "type": "uint256"
        },
        {
          "internalType": "uint256",
          "name": "_statusCode",
          "type": "uint256"
        }
      ],
      "stateMutability": "view",
      "type": "function"
    },
    {
      "inputs": [
        {
          "internalType": "uint256",
          "name": "_disputeId",
          "type": "uint256"
        },
        {
          "internalType": "bool",
          "name": "_supports",
          "type": "bool"
        },
        {
          "internalType": "bool",
          "name": "_invalidQuery",
          "type": "bool"
        }
      ],
      "name": "vote",
      "outputs": [],
      "stateMutability": "nonpayable",
      "type": "function"
    },
    {
      "inputs": [],
      "name": "voteCount",
      "outputs": [
        {
          "internalType": "uint256",
          "name": "",
          "type": "uint256"
        }
      ],
      "stateMutability": "view",
      "type": "function"
    },
    {
      "inputs": [
        {
          "internalType": "uint256[]",
          "name": "_disputeIds",
          "type": "uint256[]"
        },
        {
          "internalType": "bool[]",
          "name": "_supports",
          "type": "bool[]"
        },
        {
          "internalType": "bool[]",
          "name": "_invalidQuery",
          "type": "bool[]"
        }
      ],
      "name": "voteOnMultipleDisputes",
      "outputs": [],
      "stateMutability": "nonpayable",
      "type": "function"
    },
    {
      "stateMutability": "payable",
      "type": "receive"
    }
  ],
  "bytecode": "0x60a060405260006080908152620000189060c062000218565b60408051601f198184030181529082905262000037916020016200022d565b604051602081830303815290604052805190602001206007553480156200005d57600080fd5b506040516200406b3803806200406b83398101604081905262000080916200018c565b600080546001600160a01b0384166001600160a01b0319918216811790925560028054909116821790556040805163021fd35d60e31b815290518492849290916310fe9ae891600480820192602092909190829003018186803b158015620000e757600080fd5b505afa158015620000fc573d6000803e3d6000fd5b505050506040513d601f19601f8201168201806040525081019062000122919062000166565b600380546001600160a01b03199081166001600160a01b03938416179091556004805482169483169490941790935560058054909316911617905550620002829050565b60006020828403121562000178578081fd5b8151620001858162000269565b9392505050565b600080604083850312156200019f578081fd5b8251620001ac8162000269565b6020840151909250620001bf8162000269565b809150509250929050565b60008151808452815b81811015620001f157602081850181015186830182015201620001d3565b81811115620002035782602083870101525b50601f01601f19169290920160200192915050565b600060208252620001856020830184620001ca565b600060408252601060408301526f4175746f70617941646472657373657360801b606083015260806020830152620001856080830184620001ca565b6001600160a01b03811681146200027f57600080fd5b50565b613dd980620002926000396000f3fe6080604052600436106101fc5760003560e01c8063a7c438bc1161010d578063dbc0c085116100a0578063f66f49c31161006f578063f66f49c314610663578063f78eea8314610683578063f98a4eca146106be578063fc0c546a146106de578063fcd4a546146106fe57610203565b8063dbc0c085146105ee578063df133bca1461060e578063e07c54861461062e578063e7b3387c1461064e57610203565b8063c5958af9116100dc578063c5958af914610575578063c6384071146105a2578063ce5e11bf146105b8578063d8add0f6146105d857610203565b8063a7c438bc146104c0578063a89ae4ba1461050a578063bbf3e10b1461052a578063bdc7d9d81461053f57610203565b806344e87f911161019057806364ee3c6d1161015f57806364ee3c6d1461040157806377b03e0d1461042f5780637dc0d1d01461044f5780638d8242731461046f578063a792765f146104a057610203565b806344e87f91146103615780634d318b0e146103915780634e9fe708146103b15780636169c308146103d157610203565b80631f379acc116101cc5780631f379acc146102bd578063248638e5146102dd578063294490851461030a5780632af8aae01461034157610203565b8062b12190146102055780630e1596ef14610225578063193b505b146102655780631959ad5b1461028557610203565b3661020357005b005b34801561021157600080fd5b506102036102203660046135aa565b61072c565b34801561023157600080fd5b50610252610240366004613728565b60009081526009602052604090205490565b6040519081526020015b60405180910390f35b34801561027157600080fd5b506102036102803660046134d6565b6107d0565b34801561029157600080fd5b506000546102a5906001600160a01b031681565b6040516001600160a01b03909116815260200161025c565b3480156102c957600080fd5b506102036102d8366004613758565b610808565b3480156102e957600080fd5b506102fd6102f8366004613728565b6110d5565b60405161025c91906139c2565b34801561031657600080fd5b5061032a610325366004613758565b611137565b60408051921515835260208301919091520161025c565b34801561034d57600080fd5b506001546102a5906001600160a01b031681565b34801561036d57600080fd5b5061038161037c366004613758565b6111c6565b604051901515815260200161025c565b34801561039d57600080fd5b506102036103ac366004613728565b611251565b3480156103bd57600080fd5b506102fd6103cc3660046134d6565b611779565b3480156103dd57600080fd5b506103f16103ec366004613728565b6117e3565b60405161025c9493929190613a38565b34801561040d57600080fd5b5061042161041c366004613758565b6118b7565b60405161025c929190613a84565b34801561043b57600080fd5b5061025261044a366004613728565b611910565b34801561045b57600080fd5b506002546102a5906001600160a01b031681565b34801561047b57600080fd5b5061048f61048a366004613728565b611993565b60405161025c9594939291906139d5565b3480156104ac57600080fd5b506104216104bb366004613758565b611a98565b3480156104cc57600080fd5b506103816104db3660046137dd565b6000828152600a602090815260408083206001600160a01b038516845260130190915290205460ff1692915050565b34801561051657600080fd5b506004546102a5906001600160a01b031681565b34801561053657600080fd5b50610252611b2e565b34801561054b57600080fd5b5061025261055a3660046134d6565b6001600160a01b03166000908152600c602052604090205490565b34801561058157600080fd5b50610595610590366004613758565b611bc7565b60405161025c9190613a71565b3480156105ae57600080fd5b5061025260065481565b3480156105c457600080fd5b506102526105d3366004613758565b611c4f565b3480156105e457600080fd5b5061025260075481565b3480156105fa57600080fd5b506005546102a5906001600160a01b031681565b34801561061a57600080fd5b5061020361062936600461380c565b611cd3565b34801561063a57600080fd5b506102a5610649366004613758565b6122b0565b34801561065a57600080fd5b50600654610252565b34801561066f57600080fd5b5061032a61067e366004613758565b612334565b34801561068f57600080fd5b506106a361069e366004613728565b6124f0565b6040805193845260208401929092529082015260600161025c565b3480156106ca57600080fd5b506102036106d9366004613728565b6125c0565b3480156106ea57600080fd5b506003546102a5906001600160a01b031681565b34801561070a57600080fd5b5061071e610719366004613779565b612d9f565b60405161025c92919061394d565b60005b83518110156107ca576107b884828151811061075b57634e487b7160e01b600052603260045260246000fd5b602002602001015184838151811061078357634e487b7160e01b600052603260045260246000fd5b60200260200101518484815181106107ab57634e487b7160e01b600052603260045260246000fd5b6020026020010151611cd3565b806107c281613d36565b91505061072f565b50505050565b6001546001600160a01b0316156107e657600080fd5b600180546001600160a01b0319166001600160a01b0392909216919091179055565b600254604051630935408d60e41b815260048101849052602481018390526001600160a01b039091169063935408d09060440160206040518083038186803b15801561085357600080fd5b505afa158015610867573d6000803e3d6000fd5b505050506040513d601f19601f8201168201806040525081019061088b9190613740565b6108e75760405162461bcd60e51b815260206004820152602260248201527f6e6f2076616c75652065786973747320617420676976656e2074696d6573746160448201526106d760f41b60648201526084015b60405180910390fd5b60408051602080820185905281830184905282518083038401815260609092019092528051910120600654600090610920906001613b45565b6000838152600b60209081526040808320805460018082018355828652848620909101869055858552600a8452828520600890945293829020898155938401889055600254915163703e2a4360e11b8152600481018a905260248101899052949550939192916001600160a01b039091169063e07c54869060440160206040518083038186803b1580156109b357600080fd5b505afa1580156109c7573d6000803e3d6000fd5b505050506040513d601f19601f820116820180604052508101906109eb91906134f2565b600382810180546001600160a01b0319166001600160a01b0393841617815587855560128501805475ffffffffffffffffffffffffffffffffffffffff000019163362010000021790554391850191909155426002850155845460018581019190915590549091166000908152600d6020908152604082208054938401815582528120909101859055610a7c611b2e565b845490915060011415610ce65761a8c0610a968842613ca7565b10610afe5760405162461bcd60e51b815260206004820152603260248201527f44697370757465206d75737420626520737461727465642077697468696e207260448201527165706f7274696e67206c6f636b2074696d6560701b60648201526084016108de565b6000888152600960205260408120805491610b1883613d36565b9091555050600088815260096020526040902054610b3890600190613ca7565b610b43906002613bba565b610b4d9082613c88565b600254600384015460405163137f0a8d60e21b81526001600160a01b0391821660048201523060248201529293501690634dfc2a3490604401602060405180830381600087803b158015610ba057600080fd5b505af1158015610bb4573d6000803e3d6000fd5b505050506040513d601f19601f82011682018060405250810190610bd89190613740565b60048381019190915560025460405163c5958af960e01b81529182018a9052602482018990526001600160a01b03169063c5958af99060440160006040518083038186803b158015610c2957600080fd5b505afa158015610c3d573d6000803e3d6000fd5b505050506040513d6000823e601f3d908101601f19168201604052610c6591908101906137aa565b8051610c7b9160028501916020909101906132c1565b506002546040516316d7b73f60e21b8152600481018a9052602481018990526001600160a01b0390911690635b5edcfc90604401600060405180830381600087803b158015610cc957600080fd5b505af1158015610cdd573d6000803e3d6000fd5b50505050610e7c565b83546000908590610cf990600290613ca7565b81548110610d1757634e487b7160e01b600052603260045260246000fd5b9060005260206000200154905062015180600a60008381526020019081526020016000206005015442610d4a9190613ca7565b10610dae5760405162461bcd60e51b815260206004820152602e60248201527f4e6577206469737075746520726f756e64206d7573742062652073746172746560448201526d642077697468696e20612064617960901b60648201526084016108de565b8454610dbc90600190613ca7565b610dc7906002613bba565b610dd19083613c88565b91506008600086600081548110610df857634e487b7160e01b600052603260045260246000fd5b906000526020600020015481526020019081526020016000206004015483600401819055506008600086600081548110610e4257634e487b7160e01b600052603260045260246000fd5b9060005260206000200154815260200190815260200160002060020183600201908054610e6e90613d01565b610e79929190613345565b50505b600260009054906101000a90046001600160a01b03166001600160a01b031663722580b66040518163ffffffff1660e01b815260040160206040518083038186803b158015610eca57600080fd5b505afa158015610ede573d6000803e3d6000fd5b505050506040513d601f19601f82011682018060405250810190610f029190613740565b811115610f9257600260009054906101000a90046001600160a01b03166001600160a01b031663722580b66040518163ffffffff1660e01b815260040160206040518083038186803b158015610f5757600080fd5b505afa158015610f6b573d6000803e3d6000fd5b505050506040513d601f19601f82011682018060405250810190610f8f9190613740565b90505b6004830181905560068054906000610fa983613d36565b90915550506003546040516323b872dd60e01b8152336004820152306024820152604481018390526001600160a01b03909116906323b872dd90606401602060405180830381600087803b15801561100057600080fd5b505af1158015611014573d6000803e3d6000fd5b505050506040513d601f19601f820116820180604052508101906110389190613687565b6110775760405162461bcd60e51b815260206004820152601060248201526f119959481b5d5cdd081899481c185a5960821b60448201526064016108de565b600382015460408051878152602081018b90528082018a90526001600160a01b039092166060830152517f12b7317353cd7caa8eae8057464e3de356c1429d814fb3421797eccb190430449181900360800190a15050505050505050565b6000818152600b602090815260409182902080548351818402810184019094528084526060939283018282801561112b57602002820191906000526020600020905b815481526020019060010190808311611117575b50505050509050919050565b60008054604051632944908560e01b8152600481018590526024810184905282916001600160a01b031690632944908590604401604080518083038186803b15801561118257600080fd5b505afa158015611196573d6000803e3d6000fd5b505050506040513d601f19601f820116820180604052508101906111ba91906136fb565b915091505b9250929050565b600080546040516344e87f9160e01b815260048101859052602481018490526001600160a01b03909116906344e87f919060440160206040518083038186803b15801561121257600080fd5b505afa158015611226573d6000803e3d6000fd5b505050506040513d601f19601f8201168201806040525081019061124a9190613687565b9392505050565b6000818152600a602052604090206005810154156112b15760405162461bcd60e51b815260206004820152601d60248201527f566f74652068617320616c7265616479206265656e2074616c6c69656400000060448201526064016108de565b60065482111580156112c35750600082115b6113055760405162461bcd60e51b8152602060048201526013602482015272159bdd1948191bd95cc81b9bdd08195e1a5cdd606a1b60448201526064016108de565b60018101546113179062015180613c88565b60028201546113269042613ca7565b10158061134557506207e9008160020154426113429190613ca7565b10155b6113915760405162461bcd60e51b815260206004820152601f60248201527f54696d6520666f7220766f74696e6720686173206e6f7420656c61707365640060448201526064016108de565b600881015460078201546006830154600092916113ad91613b45565b6113b79190613b45565b600e830154600d840154600c8501549293506000926113d69190613b45565b6113e09190613b45565b60118401546010850154600f8601549293506000926113ff9190613b45565b6114099190613b45565b600b850154600a86015460098701549293506000926114289190613b45565b6114329190613b45565b905083611447578361144381613d36565b9450505b8261145a578261145681613d36565b9350505b8161146d578161146981613d36565b9250505b80611480578061147c81613d36565b9150505b6009850154600090829061149c90670de0b6b3a7640000613c88565b6114a69190613b5d565b600f87015484906114bf90670de0b6b3a7640000613c88565b6114c99190613b5d565b600c88015486906114e290670de0b6b3a7640000613c88565b6114ec9190613b5d565b6006890154889061150590670de0b6b3a7640000613c88565b61150f9190613b5d565b6115199190613b45565b6115239190613b45565b61152d9190613b45565b90506000828760090160010154670de0b6b3a764000061154d9190613c88565b6115579190613b5d565b6010880154859061157090670de0b6b3a7640000613c88565b61157a9190613b5d565b600d890154879061159390670de0b6b3a7640000613c88565b61159d9190613b5d565b60078a015489906115b690670de0b6b3a7640000613c88565b6115c09190613b5d565b6115ca9190613b45565b6115d49190613b45565b6115de9190613b45565b90506000838860090160020154670de0b6b3a76400006115fe9190613c88565b6116089190613b5d565b6011890154869061162190670de0b6b3a7640000613c88565b61162b9190613b5d565b600e8a0154889061164490670de0b6b3a7640000613c88565b61164e9190613b5d565b60088b01548a9061166790670de0b6b3a7640000613c88565b6116719190613b5d565b61167b9190613b45565b6116859190613b45565b61168f9190613b45565b905061169b8183613b45565b8311156116c0576012880180546001919061ff001916610100835b02179055506116fb565b6116ca8184613b45565b8211156116e9576012880180546000919061ff001916610100836116b6565b60128801805461ff0019166102001790555b426005890155601288015460008a815260086020526040908190206003015490517fa2d4e500801849d40ad00f0f12ba92a5263f83ec68946e647be95cfbe581c7b692611766928d9260ff610100840416926001600160a01b03620100009091048116921690613aba565b60405180910390a1505050505050505050565b6001600160a01b0381166000908152600d602090815260409182902080548351818402810184019094528084526060939283018282801561112b57602002820191906000526020600020908154815260200190600101908083116111175750505050509050919050565b6000818152600860205260408120805460018201546003830154600284018054869560609587959194909391926001600160a01b0390911690829061182790613d01565b80601f016020809104026020016040519081016040528092919081815260200182805461185390613d01565b80156118a05780601f10611875576101008083540402835291602001916118a0565b820191906000526020600020905b81548152906001019060200180831161188357829003601f168201915b505050505091509450945094509450509193509193565b606060008060006118c88686612334565b91509150816118ef57600060405180602001604052806000815250909350935050506111bf565b6118f98682611c4f565b92506119058684611bc7565b935050509250929050565b600080546040516377b03e0d60e01b8152600481018490526001600160a01b03909116906377b03e0d9060240160206040518083038186803b15801561195557600080fd5b505afa158015611969573d6000803e3d6000fd5b505050506040513d601f19601f8201168201806040525081019061198d9190613740565b92915050565b600061199d6133c0565b50506000908152600a60208181526040928390208054845161022081018652600183015481526002830154938101939093526003820154948301949094526004810154606083015260058101546080830152600681015460a0830152600781015460c0830152600881015460e083015260098101546101008084019190915292810154610120830152600b810154610140830152600c810154610160830152600d810154610180830152600e8101546101a0830152600f8101546101c083015260108101546101e08301526011810154610200830152601201549293909260ff8082169382041691620100009091046001600160a01b031690565b6000805460405163a792765f60e01b81526004810185905260248101849052606092916001600160a01b03169063a792765f9060440160006040518083038186803b158015611ae657600080fd5b505afa158015611afa573d6000803e3d6000fd5b505050506040513d6000823e601f3d908101601f19168201604052611b2291908101906136a3565b90969095509350505050565b6000600a600260009054906101000a90046001600160a01b03166001600160a01b031663722580b66040518163ffffffff1660e01b815260040160206040518083038186803b158015611b8057600080fd5b505afa158015611b94573d6000803e3d6000fd5b505050506040513d601f19601f82011682018060405250810190611bb89190613740565b611bc29190613b5d565b905090565b60005460405163c5958af960e01b815260048101849052602481018390526060916001600160a01b03169063c5958af99060440160006040518083038186803b158015611c1357600080fd5b505afa158015611c27573d6000803e3d6000fd5b505050506040513d6000823e601f3d908101601f1916820160405261124a91908101906137aa565b6000805460405163ce5e11bf60e01b815260048101859052602481018490526001600160a01b039091169063ce5e11bf9060440160206040518083038186803b158015611c9b57600080fd5b505afa158015611caf573d6000803e3d6000fd5b505050506040513d601f19601f8201168201806040525081019061124a9190613740565b6006548311158015611ce55750600083115b611d275760405162461bcd60e51b8152602060048201526013602482015272159bdd1948191bd95cc81b9bdd08195e1a5cdd606a1b60448201526064016108de565b6000838152600a60205260409020600581015415611d875760405162461bcd60e51b815260206004820152601d60248201527f566f74652068617320616c7265616479206265656e2074616c6c69656400000060448201526064016108de565b33600090815260138201602052604090205460ff1615611de95760405162461bcd60e51b815260206004820152601860248201527f53656e6465722068617320616c726561647920766f746564000000000000000060448201526064016108de565b336000818152601383016020526040808220805460ff1916600117905560035490516370a0823160e01b8152600481019390935290916001600160a01b03909116906370a082319060240160206040518083038186803b158015611e4c57600080fd5b505afa158015611e60573d6000803e3d6000fd5b505050506040513d601f19601f82011682018060405250810190611e849190613740565b600254604051630733bdef60e41b815233600482015291925060009182916001600160a01b03169063733bdef0906024016101006040518083038186803b158015611ece57600080fd5b505afa158015611ee2573d6000803e3d6000fd5b505050506040513d601f19601f82011682018060405250810190611f06919061384d565b505050505092509250508082611f1c9190613b45565b611f269084613b45565b925084156120375782846006016002016000828254611f459190613b45565b9091555050600254604051631c3c149f60e11b81523360048201526001600160a01b0390911690633878293e9060240160206040518083038186803b158015611f8d57600080fd5b505afa158015611fa1573d6000803e3d6000fd5b505050506040513d601f19601f82011682018060405250810190611fc59190613740565b600e85018054600090611fd9908490613b45565b90915550611fe89050336130fe565b600b85018054600090611ffc908490613b45565b90915550506005546001600160a01b031633141561203257600184600f01600201600082825461202c9190613b45565b90915550505b61223f565b851561213b57828460060160000160008282546120549190613b45565b9091555050600254604051631c3c149f60e11b81523360048201526001600160a01b0390911690633878293e9060240160206040518083038186803b15801561209c57600080fd5b505afa1580156120b0573d6000803e3d6000fd5b505050506040513d601f19601f820116820180604052508101906120d49190613740565b600c850180546000906120e8908490613b45565b909155506120f79050336130fe565b60098501805460009061210b908490613b45565b90915550506005546001600160a01b031633141561203257600184600f01600001600082825461202c9190613b45565b828460060160010160008282546121529190613b45565b9091555050600254604051631c3c149f60e11b81523360048201526001600160a01b0390911690633878293e9060240160206040518083038186803b15801561219a57600080fd5b505afa1580156121ae573d6000803e3d6000fd5b505050506040513d601f19601f820116820180604052508101906121d29190613740565b600d850180546000906121e6908490613b45565b909155506121f59050336130fe565b600a85018054600090612209908490613b45565b90915550506005546001600160a01b031633141561223f57600184600f0160010160008282546122399190613b45565b90915550505b336000908152600c6020526040812080549161225a83613d36565b90915550506040805188815287151560208201523381830152861515606082015290517fbe6f1c58cc15c8e86d6f0ef23c5a30eb33319af3b57f6b7d9b56ccfa87696b849181900360800190a150505050505050565b6000805460405163703e2a4360e11b815260048101859052602481018490526001600160a01b039091169063e07c54869060440160206040518083038186803b1580156122fc57600080fd5b505afa158015612310573d6000803e3d6000fd5b505050506040513d601f19601f8201168201806040525081019061124a91906134f2565b600080600061234285611910565b9050806123565760008092509250506111bf565b8061236081613cea565b91506001905060008083816123758a83611c4f565b905088811161239057600080975097505050505050506111bf565b61239a8a84611c4f565b9050888111156123a957600094505b841561245b5760026123bb8484613b45565b6123c59190613b5d565b93506123d18a85611c4f565b9050888111156124125760006123ec8b6105d3600188613ca7565b90508981116123fe576000955061240c565b612409600186613ca7565b92505b50612456565b60006124238b6105d3876001613b45565b90508981111561244657600095508461243b81613d36565b955050809150612454565b612451856001613b45565b93505b505b6123a9565b6124658a826111c6565b61247b57600184975097505050505050506111bf565b6124858a826111c6565b801561249057508584105b156124b3578361249f81613d36565b9450506124ac8a85611c4f565b905061247b565b85841480156124c757506124c78a826111c6565b156124de57600080975097505050505050506111bf565b600184975097505050505050506111bf565b6001546040516387a475fd60e01b8152600481018390526000918291829182916001600160a01b03909116906387a475fd9060240160206040518083038186803b15801561253d57600080fd5b505afa158015612551573d6000803e3d6000fd5b505050506040513d601f19601f820116820180604052508101906125759190613740565b90506060612588826104bb426001613b45565b94509050836125a45760008061019494509450945050506125b9565b60006125af8261325c565b955060c893505050505b9193909250565b6000818152600a6020526040902060065482118015906125e05750600082115b61262c5760405162461bcd60e51b815260206004820152601860248201527f44697370757465204944206d7573742062652076616c6964000000000000000060448201526064016108de565b601281015460ff16156126815760405162461bcd60e51b815260206004820152601e60248201527f566f74652068617320616c7265616479206265656e206578656375746564000060448201526064016108de565b60008160050154116126d55760405162461bcd60e51b815260206004820152601460248201527f566f7465206d7573742062652074616c6c69656400000000000000000000000060448201526064016108de565b600181015481546000908152600b6020526040902054146127385760405162461bcd60e51b815260206004820152601660248201527f4d757374206265207468652066696e616c20766f74650000000000000000000060448201526064016108de565b6201518081600501544261274c9190613ca7565b10156127b65760405162461bcd60e51b815260206004820152603360248201527f31206461792068617320746f20706173732061667465722074616c6c7920746f60448201527220616c6c6f7720666f7220646973707574657360681b60648201526084016108de565b60128101805460ff1916600117905560008281526008602090815260408083208054845260099092528220805491926127ee83613cea565b90915550600090508060016012850154610100900460ff16600281111561282557634e487b7160e01b600052602160045260246000fd5b14156129ef5783546000908152600b602052604090205491505b81156129ea5783546000908152600b60205260409020612860600184613ca7565b8154811061287e57634e487b7160e01b600052603260045260246000fd5b90600052602060002001549050600a60008281526020019081526020016000209350816001141561294157600354601285015460048581015460405163a9059cbb60e01b81526001600160a01b0362010000909404841692810192909252602482015291169063a9059cbb90604401602060405180830381600087803b15801561290757600080fd5b505af115801561291b573d6000803e3d6000fd5b505050506040513d601f19601f8201168201806040525081019061293f9190613687565b505b600354601285015460048087015460405163a9059cbb60e01b81526001600160a01b0362010000909404841692810192909252602482015291169063a9059cbb90604401602060405180830381600087803b15801561299f57600080fd5b505af11580156129b3573d6000803e3d6000fd5b505050506040513d601f19601f820116820180604052508101906129d79190613687565b50816129e281613cea565b92505061283f565b612d44565b60026012850154610100900460ff166002811115612a1d57634e487b7160e01b600052602160045260246000fd5b1415612bd95783546000908152600b602052604090205491505b8115612b435783546000908152600b60205260409020612a58600184613ca7565b81548110612a7657634e487b7160e01b600052603260045260246000fd5b600091825260208083209190910154808352600a9091526040918290206003546012820154600480840154955163a9059cbb60e01b81526001600160a01b03620100009093048316918101919091526024810195909552919750919350169063a9059cbb90604401602060405180830381600087803b158015612af857600080fd5b505af1158015612b0c573d6000803e3d6000fd5b505050506040513d601f19601f82011682018060405250810190612b309190613687565b5081612b3b81613cea565b925050612a37565b600380549084015460048086015460405163a9059cbb60e01b81526001600160a01b0393841692810192909252602482015291169063a9059cbb90604401602060405180830381600087803b158015612b9b57600080fd5b505af1158015612baf573d6000803e3d6000fd5b505050506040513d601f19601f82011682018060405250810190612bd39190613687565b50612d44565b60006012850154610100900460ff166002811115612c0757634e487b7160e01b600052602160045260246000fd5b1415612d445783546000908152600b602052604081205492505b8215612ca65784546000908152600b60205260409020612c42600185613ca7565b81548110612c6057634e487b7160e01b600052603260045260246000fd5b90600052602060002001549150600a60008381526020019081526020016000209450846004015481612c929190613b45565b905082612c9e81613cea565b935050612c21565b6004840154612cb59082613b45565b600380549086015460405163a9059cbb60e01b81526001600160a01b03918216600482015260248101849052929350169063a9059cbb90604401602060405180830381600087803b158015612d0957600080fd5b505af1158015612d1d573d6000803e3d6000fd5b505050506040513d601f19601f82011682018060405250810190612d419190613687565b50505b6000858152600a6020526040908190206012015490517f40d231bf91823121de9e1c012d95f835ea5684dc1d93360d9510a30543345da491612d90918891610100900460ff1690613aa6565b60405180910390a15050505050565b606080600080612db38861067e888a613ca7565b9150915081612e04576040805160008082526020820190925290612de7565b6060815260200190600190039081612dd25790505b5060408051600081526020810190915290945092506130f5915050565b6000612e108989611137565b909350905082612e63576040805160008082526020820190925290612e45565b6060815260200190600190039081612e305790505b5060408051600081526020810190915290955093506130f592505050565b60008060008867ffffffffffffffff811115612e8f57634e487b7160e01b600052604160045260246000fd5b604051908082528060200260200182016040528015612eb8578160200160208202803683370190505b5090505b8883108015612edf57508482612ed3866001613b45565b612edd9190613ca7565b115b15612f51576000612ef48d6105d38588613ca7565b9050612f008d826111c6565b612f3e5780828581518110612f2557634e487b7160e01b600052603260045260246000fd5b602090810291909101015283612f3a81613d36565b9450505b82612f4881613d36565b93505050612ebc565b60008367ffffffffffffffff811115612f7a57634e487b7160e01b600052604160045260246000fd5b604051908082528060200260200182016040528015612fad57816020015b6060815260200190600190039081612f985790505b50905060008467ffffffffffffffff811115612fd957634e487b7160e01b600052604160045260246000fd5b604051908082528060200260200182016040528015613002578160200160208202803683370190505b50905060005b858110156130e857838161301d600189613ca7565b6130279190613ca7565b8151811061304557634e487b7160e01b600052603260045260246000fd5b602002602001015182828151811061306d57634e487b7160e01b600052603260045260246000fd5b6020026020010181815250506130aa8f83838151811061309d57634e487b7160e01b600052603260045260246000fd5b6020026020010151611bc7565b8382815181106130ca57634e487b7160e01b600052603260045260246000fd5b602002602001018190525080806130e090613d36565b915050613008565b5090985096505050505050505b94509492505050565b600080600061311760075461a8c0426104bb9190613ca7565b9092509050801561325557600082806020019051810190613138919061350e565b905060005b81518110156132525760008083838151811061316957634e487b7160e01b600052603260045260246000fd5b60200260200101516001600160a01b03168860405160240161319a91906001600160a01b0391909116815260200190565b60408051601f198184030181529181526020820180516001600160e01b03166345d6082360e01b179052516131cf9190613931565b6000604051808303816000865af19150503d806000811461320c576040519150601f19603f3d011682016040523d82523d6000602084013e613211565b606091505b5091509150811561323d57808060200190518101906132309190613740565b61323a9088613b45565b96505b5050808061324a90613d36565b91505061313d565b50505b5050919050565b6000805b82518110156132bb5782818151811061328957634e487b7160e01b600052603260045260246000fd5b016020015160f81c61329d83610100613c88565b6132a79190613b45565b9150806132b381613d36565b915050613260565b50919050565b8280546132cd90613d01565b90600052602060002090601f0160209004810192826132ef5760008555613335565b82601f1061330857805160ff1916838001178555613335565b82800160010185558215613335579182015b8281111561333557825182559160200191906001019061331a565b506133419291506133df565b5090565b82805461335190613d01565b90600052602060002090601f0160209004810192826133735760008555613335565b82601f106133845780548555613335565b8280016001018555821561333557600052602060002091601f016020900482015b828111156133355782548255916001019190600101906133a5565b6040518061022001604052806011906020820280368337509192915050565b5b8082111561334157600081556001016133e0565b600082601f830112613404578081fd5b8135602061341961341483613b21565b613af0565b80838252828201915082860187848660051b8901011115613438578586fd5b855b8581101561345f57813561344d81613d95565b8452928401929084019060010161343a565b5090979650505050505050565b600082601f83011261347c578081fd5b815167ffffffffffffffff81111561349657613496613d67565b6134a9601f8201601f1916602001613af0565b8181528460208386010111156134bd578283fd5b6134ce826020830160208701613cbe565b949350505050565b6000602082840312156134e7578081fd5b813561124a81613d7d565b600060208284031215613503578081fd5b815161124a81613d7d565b60006020808385031215613520578182fd5b825167ffffffffffffffff811115613536578283fd5b8301601f81018513613546578283fd5b805161355461341482613b21565b80828252848201915084840188868560051b8701011115613573578687fd5b8694505b8385101561359e57805161358a81613d7d565b835260019490940193918501918501613577565b50979650505050505050565b6000806000606084860312156135be578182fd5b833567ffffffffffffffff808211156135d5578384fd5b818601915086601f8301126135e8578384fd5b813560206135f861341483613b21565b8083825282820191508286018b848660051b8901011115613617578889fd5b8896505b8487101561363957803583526001969096019591830191830161361b565b509750508701359250508082111561364f578384fd5b61365b878388016133f4565b93506040860135915080821115613670578283fd5b5061367d868287016133f4565b9150509250925092565b600060208284031215613698578081fd5b815161124a81613d95565b6000806000606084860312156136b7578283fd5b83516136c281613d95565b602085015190935067ffffffffffffffff8111156136de578283fd5b6136ea8682870161346c565b925050604084015190509250925092565b6000806040838503121561370d578182fd5b825161371881613d95565b6020939093015192949293505050565b600060208284031215613739578081fd5b5035919050565b600060208284031215613751578081fd5b5051919050565b6000806040838503121561376a578182fd5b50508035926020909101359150565b6000806000806080858703121561378e578182fd5b5050823594602084013594506040840135936060013592509050565b6000602082840312156137bb578081fd5b815167ffffffffffffffff8111156137d1578182fd5b6134ce8482850161346c565b600080604083850312156137ef578182fd5b82359150602083013561380181613d7d565b809150509250929050565b600080600060608486031215613820578081fd5b83359250602084013561383281613d95565b9150604084013561384281613d95565b809150509250925092565b600080600080600080600080610100898b031215613869578586fd5b505086516020880151604089015160608a015160808b015160a08c015160c08d015160e0909d0151959e949d50929b919a50985090965094509092509050565b6000815180845260208085019450808401835b838110156138d8578151875295820195908201906001016138bc565b509495945050505050565b600081518084526138fb816020860160208601613cbe565b601f01601f19169290920160200192915050565b6003811061392d57634e487b7160e01b600052602160045260246000fd5b9052565b60008251613943818460208701613cbe565b9190910192915050565b6000604082016040835280855180835260608501915060608160051b86010192506020808801855b838110156139a357605f198887030185526139918683516138e3565b95509382019390820190600101613975565b5050858403818701525050506139b981856138a9565b95945050505050565b60006020825261124a60208301846138a9565b8581526102a0810160208083018760005b6011811015613a03578151835291830191908301906001016139e6565b50505050841515610240830152613a1e61026083018561390f565b6001600160a01b0383166102808301529695505050505050565b600085825284602083015260806040830152613a5760808301856138e3565b90506001600160a01b038316606083015295945050505050565b60006020825261124a60208301846138e3565b600060408252613a9760408301856138e3565b90508260208301529392505050565b8281526040810161124a602083018461390f565b84815260808101613ace602083018661390f565b6001600160a01b03808516604084015280841660608401525095945050505050565b604051601f8201601f1916810167ffffffffffffffff81118282101715613b1957613b19613d67565b604052919050565b600067ffffffffffffffff821115613b3b57613b3b613d67565b5060051b60200190565b60008219821115613b5857613b58613d51565b500190565b600082613b7857634e487b7160e01b81526012600452602481fd5b500490565b80825b6001808611613b8f57506130f5565b818704821115613ba157613ba1613d51565b80861615613bae57918102915b9490941c938002613b80565b600061124a6000198484600082613bd35750600161124a565b81613be05750600061124a565b8160018114613bf65760028114613c0057613c2d565b600191505061124a565b60ff841115613c1157613c11613d51565b6001841b915084821115613c2757613c27613d51565b5061124a565b5060208310610133831016604e8410600b8410161715613c60575081810a83811115613c5b57613c5b613d51565b61124a565b613c6d8484846001613b7d565b808604821115613c7f57613c7f613d51565b02949350505050565b6000816000190483118215151615613ca257613ca2613d51565b500290565b600082821015613cb957613cb9613d51565b500390565b60005b83811015613cd9578181015183820152602001613cc1565b838111156107ca5750506000910152565b600081613cf957613cf9613d51565b506000190190565b600181811c90821680613d1557607f821691505b602082108114156132bb57634e487b7160e01b600052602260045260246000fd5b6000600019821415613d4a57613d4a613d51565b5060010190565b634e487b7160e01b600052601160045260246000fd5b634e487b7160e01b600052604160045260246000fd5b6001600160a01b0381168114613d9257600080fd5b50565b8015158114613d9257600080fdfea2646970667358221220c3c97f9a9e04f7ad1ebd19aed40106ae51781755ae5ee0a61efae2cdd6ad821c64736f6c63430008030033",
  "linkReferences": {},
  "deployedLinkReferences": {}
}