{
  "_format": "hh-sol-artifact-1",
  "contractName": "MedianOracle",
  "sourceName": "contracts/tellor360/oldContracts/contracts/testing/MedianOracle.sol",
  "abi": [
    {
      "inputs": [],
      "name": "payload_",
      "outputs": [
        {
          "internalType": "uint256",
          "name": "",
          "type": "uint256"
        }
      ],
      "stateMutability": "view",
      "type": "function"
    },
    {
      "inputs": [
        {
          "internalType": "uint256",
          "name": "payload",
          "type": "uint256"
        }
      ],
      "name": "pushReport",
      "outputs": [],
      "stateMutability": "nonpayable",
      "type": "function"
    }
  ],
  "bytecode": "0x608060405234801561001057600080fd5b5060b08061001f6000396000f3fe6080604052348015600f57600080fd5b506004361060325760003560e01c80631e20d14b14603757806397dac77d146049575b600080fd5b604760423660046063565b600055565b005b605160005481565b60405190815260200160405180910390f35b6000602082840312156073578081fd5b503591905056fea264697066735822122097ffbad9ae38a2a05927bbe349fae443fe13ef5cb792cf00df7fdc92c86584d064736f6c63430008030033",
  "linkReferences": {},
  "deployedLinkReferences": {}
}