{
  "_format": "hh-sol-artifact-1",
  "contractName": "Blobstream",
  "sourceName": "contracts/bridge/LayerLightClientBridge.sol",
  "abi": [
    {
      "inputs": [
        {
          "internalType": "uint256",
          "name": "_nonce",
          "type": "uint256"
        },
        {
          "internalType": "uint256",
          "name": "_powerThreshold",
          "type": "uint256"
        },
        {
          "internalType": "bytes32",
          "name": "_validatorSetCheckpoint",
          "type": "bytes32"
        }
      ],
      "stateMutability": "nonpayable",
      "type": "constructor"
    },
    {
      "inputs": [],
      "name": "ECDSAInvalidSignature",
      "type": "error"
    },
    {
      "inputs": [
        {
          "internalType": "uint256",
          "name": "length",
          "type": "uint256"
        }
      ],
      "name": "ECDSAInvalidSignatureLength",
      "type": "error"
    },
    {
      "inputs": [
        {
          "internalType": "bytes32",
          "name": "s",
          "type": "bytes32"
        }
      ],
      "name": "ECDSAInvalidSignatureS",
      "type": "error"
    },
    {
      "inputs": [],
      "name": "InsufficientVotingPower",
      "type": "error"
    },
    {
      "inputs": [],
      "name": "InvalidDataRootTupleRootNonce",
      "type": "error"
    },
    {
      "inputs": [],
      "name": "InvalidSignature",
      "type": "error"
    },
    {
      "inputs": [],
      "name": "InvalidValidatorSetNonce",
      "type": "error"
    },
    {
      "inputs": [],
      "name": "MalformedCurrentValidatorSet",
      "type": "error"
    },
    {
      "inputs": [],
      "name": "SuppliedValidatorSetInvalid",
      "type": "error"
    },
    {
      "anonymous": false,
      "inputs": [
        {
          "indexed": true,
          "internalType": "uint256",
          "name": "nonce",
          "type": "uint256"
        },
        {
          "indexed": false,
          "internalType": "bytes32",
          "name": "dataRootTupleRoot",
          "type": "bytes32"
        }
      ],
      "name": "DataRootTupleRootEvent",
      "type": "event"
    },
    {
      "anonymous": false,
      "inputs": [
        {
          "indexed": true,
          "internalType": "uint256",
          "name": "nonce",
          "type": "uint256"
        },
        {
          "indexed": false,
          "internalType": "uint256",
          "name": "powerThreshold",
          "type": "uint256"
        },
        {
          "indexed": false,
          "internalType": "bytes32",
          "name": "validatorSetHash",
          "type": "bytes32"
        }
      ],
      "name": "ValidatorSetUpdatedEvent",
      "type": "event"
    },
    {
      "inputs": [
        {
          "internalType": "uint256",
          "name": "",
          "type": "uint256"
        }
      ],
      "name": "state_dataRootTupleRoots",
      "outputs": [
        {
          "internalType": "bytes32",
          "name": "",
          "type": "bytes32"
        }
      ],
      "stateMutability": "view",
      "type": "function"
    },
    {
      "inputs": [],
      "name": "state_eventNonce",
      "outputs": [
        {
          "internalType": "uint256",
          "name": "",
          "type": "uint256"
        }
      ],
      "stateMutability": "view",
      "type": "function"
    },
    {
      "inputs": [],
      "name": "state_lastValidatorSetCheckpoint",
      "outputs": [
        {
          "internalType": "bytes32",
          "name": "",
          "type": "bytes32"
        }
      ],
      "stateMutability": "view",
      "type": "function"
    },
    {
      "inputs": [],
      "name": "state_powerThreshold",
      "outputs": [
        {
          "internalType": "uint256",
          "name": "",
          "type": "uint256"
        }
      ],
      "stateMutability": "view",
      "type": "function"
    },
    {
      "inputs": [
        {
          "internalType": "uint256",
          "name": "_newNonce",
          "type": "uint256"
        },
        {
          "internalType": "uint256",
          "name": "_validatorSetNonce",
          "type": "uint256"
        },
        {
          "internalType": "bytes32",
          "name": "_dataRootTupleRoot",
          "type": "bytes32"
        },
        {
          "components": [
            {
              "internalType": "address",
              "name": "addr",
              "type": "address"
            },
            {
              "internalType": "uint256",
              "name": "power",
              "type": "uint256"
            }
          ],
          "internalType": "struct Validator[]",
          "name": "_currentValidatorSet",
          "type": "tuple[]"
        },
        {
          "components": [
            {
              "internalType": "uint8",
              "name": "v",
              "type": "uint8"
            },
            {
              "internalType": "bytes32",
              "name": "r",
              "type": "bytes32"
            },
            {
              "internalType": "bytes32",
              "name": "s",
              "type": "bytes32"
            }
          ],
          "internalType": "struct Signature[]",
          "name": "_sigs",
          "type": "tuple[]"
        }
      ],
      "name": "submitDataRootTupleRoot",
      "outputs": [],
      "stateMutability": "nonpayable",
      "type": "function"
    },
    {
      "inputs": [
        {
          "internalType": "uint256",
          "name": "_newNonce",
          "type": "uint256"
        },
        {
          "internalType": "uint256",
          "name": "_oldNonce",
          "type": "uint256"
        },
        {
          "internalType": "uint256",
          "name": "_newPowerThreshold",
          "type": "uint256"
        },
        {
          "internalType": "bytes32",
          "name": "_newValidatorSetHash",
          "type": "bytes32"
        },
        {
          "components": [
            {
              "internalType": "address",
              "name": "addr",
              "type": "address"
            },
            {
              "internalType": "uint256",
              "name": "power",
              "type": "uint256"
            }
          ],
          "internalType": "struct Validator[]",
          "name": "_currentValidatorSet",
          "type": "tuple[]"
        },
        {
          "components": [
            {
              "internalType": "uint8",
              "name": "v",
              "type": "uint8"
            },
            {
              "internalType": "bytes32",
              "name": "r",
              "type": "bytes32"
            },
            {
              "internalType": "bytes32",
              "name": "s",
              "type": "bytes32"
            }
          ],
          "internalType": "struct Signature[]",
          "name": "_sigs",
          "type": "tuple[]"
        }
      ],
      "name": "updateValidatorSet",
      "outputs": [],
      "stateMutability": "nonpayable",
      "type": "function"
    },
    {
      "inputs": [
        {
          "internalType": "uint256",
          "name": "_tupleRootNonce",
          "type": "uint256"
        },
        {
          "components": [
            {
              "internalType": "uint256",
              "name": "height",
              "type": "uint256"
            },
            {
              "internalType": "bytes32",
              "name": "dataRoot",
              "type": "bytes32"
            }
          ],
          "internalType": "struct DataRootTuple",
          "name": "_tuple",
          "type": "tuple"
        },
        {
          "components": [
            {
              "internalType": "bytes32[]",
              "name": "sideNodes",
              "type": "bytes32[]"
            },
            {
              "internalType": "uint256",
              "name": "key",
              "type": "uint256"
            },
            {
              "internalType": "uint256",
              "name": "numLeaves",
              "type": "uint256"
            }
          ],
          "internalType": "struct BinaryMerkleProof",
          "name": "_proof",
          "type": "tuple"
        }
      ],
      "name": "verifyAttestation",
      "outputs": [
        {
          "internalType": "bool",
          "name": "",
          "type": "bool"
        }
      ],
      "stateMutability": "view",
      "type": "function"
    }
  ],
  "bytecode": "0x60806040523480156200001157600080fd5b5060405162002132380380620021328339818101604052810190620000379190620000d0565b8260028190555080600081905550816001819055505050506200012c565b600080fd5b6000819050919050565b6200006f816200005a565b81146200007b57600080fd5b50565b6000815190506200008f8162000064565b92915050565b6000819050919050565b620000aa8162000095565b8114620000b657600080fd5b50565b600081519050620000ca816200009f565b92915050565b600080600060608486031215620000ec57620000eb62000055565b5b6000620000fc868287016200007e565b93505060206200010f868287016200007e565b92505060406200012286828701620000b9565b9150509250925092565b611ff6806200013c6000396000f3fe608060405234801561001057600080fd5b506004361061007d5760003560e01c8063817f985b1161005b578063817f985b146100ec578063cdade8661461011c578063e23eb3261461013a578063e5a2b5d2146101565761007d565b806305d85c13146100825780631f3302a91461009e5780635433218c146100ce575b600080fd5b61009c600480360381019061009791906111d3565b610174565b005b6100b860048036038101906100b391906114cb565b6102d8565b6040516100c59190611555565b60405180910390f35b6100d6610340565b6040516100e3919061157f565b60405180910390f35b6101066004803603810190610101919061159a565b610346565b604051610113919061157f565b60405180910390f35b61012461035e565b60405161013191906115d6565b60405180910390f35b610154600480360381019061014f91906115f1565b610364565b005b61015e6104ce565b60405161016b91906115d6565b60405180910390f35b600060025490506000600154905060008054905060018361019591906116dc565b8b146101cd576040517fd146bffa00000000000000000000000000000000000000000000000000000000815260040160405180910390fd5b84849050878790501461020c576040517fc6617b7b00000000000000000000000000000000000000000000000000000000815260040160405180910390fd5b600061021888886104d4565b9050816102268c8584610507565b1461025d576040517f177b5d9200000000000000000000000000000000000000000000000000000000815260040160405180910390fd5b600061026a8d8c8c610507565b905061027a898989898589610567565b806000819055508a6001819055508c6002819055508c7fe55fb3cbbfe29b13c7f8a35ef23127e7df9ab88df16bac166ad254a20f02414c8c8c6040516102c1929190611710565b60405180910390a250505050505050505050505050565b60006002548411156102ed5760009050610339565b600060036000868152602001908152602001600020549050600061033182858760405160200161031d9190611786565b6040516020818303038152906040526106a2565b905080925050505b9392505050565b60005481565b60036020528060005260406000206000915090505481565b60025481565b600060025490506000600154905060008054905060018361038591906116dc565b8a146103bd576040517fe869766d00000000000000000000000000000000000000000000000000000000815260040160405180910390fd5b8484905087879050146103fc576040517fc6617b7b00000000000000000000000000000000000000000000000000000000815260040160405180910390fd5b600061040888886104d4565b9050816104168b8584610507565b1461044d576040517f177b5d9200000000000000000000000000000000000000000000000000000000815260040160405180910390fd5b60006104598c8b610770565b9050610469898989898589610567565b8b60028190555089600360008e8152602001908152602001600020819055508b7f6614d037bde4905e31ca5ff05de61964c267f28b0320ed49e59f7d99752e1c4f8b6040516104b8919061157f565b60405180910390a2505050505050505050505050565b60015481565b600082826040516020016104e9929190611923565b60405160208183030381529060405280519060200120905092915050565b6000807f636865636b706f696e740000000000000000000000000000000000000000000060001b8585856040516020016105449493929190611947565b604051602081830303815290604052805190602001209050809150509392505050565b6000805b8787905081101561065e5761059786868381811061058c5761058b61198c565b5b9050606002016107cd565b610651576105e88888838181106105b1576105b061198c565b5b90506040020160000160208101906105c991906119bb565b858888858181106105dd576105dc61198c565b5b905060600201610813565b61061e576040517f8baa579f00000000000000000000000000000000000000000000000000000000815260040160405180910390fd5b8787828181106106315761063061198c565b5b905060400201602001358261064691906116dc565b91508282101561065e575b808060010191505061056b565b5081811015610699576040517fcabeb65500000000000000000000000000000000000000000000000000000000815260040160405180910390fd5b50505050505050565b600060018360400151116106cb576000836000015151146106c65760009050610769565b6106f2565b6106dd8360200151846040015161087f565b836000015151146106f15760009050610769565b5b826040015183602001511061070a5760009050610769565b60006107158361090f565b905060008460000151510361074557600184604001510361073b57808514915050610769565b6000915050610769565b600061075f8560200151866040015184886000015161098d565b9050858114925050505b9392505050565b6000807f7472616e73616374696f6e42617463680000000000000000000000000000000060001b84846040516020016107ab939291906119e8565b6040516020818303038152906040528051906020012090508091505092915050565b60008060001b82602001351480156107eb57506000801b8260400135145b801561080c575060008260000160208101906108079190611a58565b60ff16145b9050919050565b60008061081f84610b4b565b9050610847818460000160208101906108389190611a58565b85602001358660400135610b81565b73ffffffffffffffffffffffffffffffffffffffff168573ffffffffffffffffffffffffffffffffffffffff16149150509392505050565b600061088a82610bb1565b6101006108979190611a85565b905060006001826108a89190611a85565b6001901b90506001816108bb9190611a85565b84116108c75750610909565b600181036108d9576001915050610909565b6108f981856108e89190611a85565b82856108f49190611a85565b61087f565b600161090591906116dc565b9150505b92915050565b60006002600060f81b8360405160200161092a929190611b77565b6040516020818303038152906040526040516109469190611b9f565b602060405180830381855afa158015610963573d6000803e3d6000fd5b5050506040513d601f19601f820116820180604052508101906109869190611bcb565b9050919050565b60008084036109d1576040517f08c379a00000000000000000000000000000000000000000000000000000000081526004016109c890611c7b565b60405180910390fd5b60018403610a25576000825114610a1d576040517f08c379a0000000000000000000000000000000000000000000000000000000008152600401610a1490611ce7565b60405180910390fd5b829050610b43565b6000825103610a69576040517f08c379a0000000000000000000000000000000000000000000000000000000008152600401610a6090611d53565b60405180910390fd5b6000610a7485610be9565b90506000610a9184600060018751610a8c9190611a85565b610c34565b905081871015610ae6576000610aa98884888561098d565b9050610adc818660018851610abe9190611a85565b81518110610acf57610ace61198c565b5b6020026020010151610d8c565b9350505050610b43565b6000610b0a8389610af79190611a85565b8489610b039190611a85565b888561098d565b9050610b3d8560018751610b1e9190611a85565b81518110610b2f57610b2e61198c565b5b602002602001015182610d8c565b93505050505b949350505050565b60007f19457468657265756d205369676e6564204d6573736167653a0a33320000000060005281601c52603c6000209050919050565b600080600080610b9388888888610e0d565b925092509250610ba38282610f01565b829350505050949350505050565b60005b81816001901b1015610bd457600181610bcd91906116dc565b9050610bb4565b80610100610be29190611a85565b9050919050565b60006001821015610bf957600080fd5b6000610c0483611065565b90506000600182610c159190611a85565b6001901b9050838103610c2a57600181901c90505b8092505050919050565b606081831115610c79576040517f08c379a0000000000000000000000000000000000000000000000000000000008152600401610c7090611de5565b60405180910390fd5b8351831180610c885750835182115b15610cc8576040517f08c379a0000000000000000000000000000000000000000000000000000000008152600401610cbf90611e77565b60405180910390fd5b60008383610cd69190611a85565b67ffffffffffffffff811115610cef57610cee6112b8565b5b604051908082528060200260200182016040528015610d1d5781602001602082028036833780820191505090505b50905060008490505b83811015610d8057858181518110610d4157610d4061198c565b5b6020026020010151828683610d569190611a85565b81518110610d6757610d6661198c565b5b6020026020010181815250508080600101915050610d26565b50809150509392505050565b60006002600160f81b8484604051602001610da993929190611eb8565b604051602081830303815290604052604051610dc59190611b9f565b602060405180830381855afa158015610de2573d6000803e3d6000fd5b5050506040513d601f19601f82011682018060405250810190610e059190611bcb565b905092915050565b60008060007f7fffffffffffffffffffffffffffffff5d576e7357a4501ddfe92f46681b20a08460001c1115610e4d576000600385925092509250610ef7565b600060018888888860405160008152602001604052604051610e729493929190611f04565b6020604051602081039080840390855afa158015610e94573d6000803e3d6000fd5b505050602060405103519050600073ffffffffffffffffffffffffffffffffffffffff168173ffffffffffffffffffffffffffffffffffffffff1603610ee857600060016000801b93509350935050610ef7565b8060008060001b935093509350505b9450945094915050565b60006003811115610f1557610f14611f49565b5b826003811115610f2857610f27611f49565b5b03156110615760016003811115610f4257610f41611f49565b5b826003811115610f5557610f54611f49565b5b03610f8c576040517ff645eedf00000000000000000000000000000000000000000000000000000000815260040160405180910390fd5b60026003811115610fa057610f9f611f49565b5b826003811115610fb357610fb2611f49565b5b03610ff8578060001c6040517ffce698f7000000000000000000000000000000000000000000000000000000008152600401610fef91906115d6565b60405180910390fd5b60038081111561100b5761100a611f49565b5b82600381111561101e5761101d611f49565b5b0361106057806040517fd78bce0c000000000000000000000000000000000000000000000000000000008152600401611057919061157f565b60405180910390fd5b5b5050565b600080600090505b6000831461108f57808061108090611f78565b915050600183901c925061106d565b80915050919050565b6000604051905090565b600080fd5b600080fd5b6000819050919050565b6110bf816110ac565b81146110ca57600080fd5b50565b6000813590506110dc816110b6565b92915050565b6000819050919050565b6110f5816110e2565b811461110057600080fd5b50565b600081359050611112816110ec565b92915050565b600080fd5b600080fd5b600080fd5b60008083601f84011261113d5761113c611118565b5b8235905067ffffffffffffffff81111561115a5761115961111d565b5b60208301915083604082028301111561117657611175611122565b5b9250929050565b60008083601f84011261119357611192611118565b5b8235905067ffffffffffffffff8111156111b0576111af61111d565b5b6020830191508360608202830111156111cc576111cb611122565b5b9250929050565b60008060008060008060008060c0898b0312156111f3576111f26110a2565b5b60006112018b828c016110cd565b98505060206112128b828c016110cd565b97505060406112238b828c016110cd565b96505060606112348b828c01611103565b955050608089013567ffffffffffffffff811115611255576112546110a7565b5b6112618b828c01611127565b945094505060a089013567ffffffffffffffff811115611284576112836110a7565b5b6112908b828c0161117d565b92509250509295985092959890939650565b600080fd5b6000601f19601f8301169050919050565b7f4e487b7100000000000000000000000000000000000000000000000000000000600052604160045260246000fd5b6112f0826112a7565b810181811067ffffffffffffffff8211171561130f5761130e6112b8565b5b80604052505050565b6000611322611098565b905061132e82826112e7565b919050565b600080fd5b60006040828403121561134e5761134d6112a2565b5b6113586040611318565b90506000611368848285016110cd565b600083015250602061137c84828501611103565b60208301525092915050565b600067ffffffffffffffff8211156113a3576113a26112b8565b5b602082029050602081019050919050565b60006113c76113c284611388565b611318565b905080838252602082019050602084028301858111156113ea576113e9611122565b5b835b8181101561141357806113ff8882611103565b8452602084019350506020810190506113ec565b5050509392505050565b600082601f83011261143257611431611118565b5b81356114428482602086016113b4565b91505092915050565b600060608284031215611461576114606112a2565b5b61146b6060611318565b9050600082013567ffffffffffffffff81111561148b5761148a611333565b5b6114978482850161141d565b60008301525060206114ab848285016110cd565b60208301525060406114bf848285016110cd565b60408301525092915050565b6000806000608084860312156114e4576114e36110a2565b5b60006114f2868287016110cd565b935050602061150386828701611338565b925050606084013567ffffffffffffffff811115611524576115236110a7565b5b6115308682870161144b565b9150509250925092565b60008115159050919050565b61154f8161153a565b82525050565b600060208201905061156a6000830184611546565b92915050565b611579816110e2565b82525050565b60006020820190506115946000830184611570565b92915050565b6000602082840312156115b0576115af6110a2565b5b60006115be848285016110cd565b91505092915050565b6115d0816110ac565b82525050565b60006020820190506115eb60008301846115c7565b92915050565b600080600080600080600060a0888a0312156116105761160f6110a2565b5b600061161e8a828b016110cd565b975050602061162f8a828b016110cd565b96505060406116408a828b01611103565b955050606088013567ffffffffffffffff811115611661576116606110a7565b5b61166d8a828b01611127565b9450945050608088013567ffffffffffffffff8111156116905761168f6110a7565b5b61169c8a828b0161117d565b925092505092959891949750929550565b7f4e487b7100000000000000000000000000000000000000000000000000000000600052601160045260246000fd5b60006116e7826110ac565b91506116f2836110ac565b925082820190508082111561170a576117096116ad565b5b92915050565b600060408201905061172560008301856115c7565b6117326020830184611570565b9392505050565b611742816110ac565b82525050565b611751816110e2565b82525050565b60408201600082015161176d6000850182611739565b5060208201516117806020850182611748565b50505050565b600060408201905061179b6000830184611757565b92915050565b600082825260208201905092915050565b6000819050919050565b600073ffffffffffffffffffffffffffffffffffffffff82169050919050565b60006117e7826117bc565b9050919050565b6117f7816117dc565b811461180257600080fd5b50565b600081359050611814816117ee565b92915050565b60006118296020840184611805565b905092915050565b61183a816117dc565b82525050565b600061184f60208401846110cd565b905092915050565b60408201611868600083018361181a565b6118756000850182611831565b506118836020830183611840565b6118906020850182611739565b50505050565b60006118a28383611857565b60408301905092915050565b600082905092915050565b6000604082019050919050565b60006118d283856117a1565b93506118dd826117b2565b8060005b85811015611916576118f382846118ae565b6118fd8882611896565b9750611908836118b9565b9250506001810190506118e1565b5085925050509392505050565b6000602082019050818103600083015261193e8184866118c6565b90509392505050565b600060808201905061195c6000830187611570565b61196960208301866115c7565b61197660408301856115c7565b6119836060830184611570565b95945050505050565b7f4e487b7100000000000000000000000000000000000000000000000000000000600052603260045260246000fd5b6000602082840312156119d1576119d06110a2565b5b60006119df84828501611805565b91505092915050565b60006060820190506119fd6000830186611570565b611a0a60208301856115c7565b611a176040830184611570565b949350505050565b600060ff82169050919050565b611a3581611a1f565b8114611a4057600080fd5b50565b600081359050611a5281611a2c565b92915050565b600060208284031215611a6e57611a6d6110a2565b5b6000611a7c84828501611a43565b91505092915050565b6000611a90826110ac565b9150611a9b836110ac565b9250828203905081811115611ab357611ab26116ad565b5b92915050565b60007fff0000000000000000000000000000000000000000000000000000000000000082169050919050565b6000819050919050565b611b00611afb82611ab9565b611ae5565b82525050565b600081519050919050565b600081905092915050565b60005b83811015611b3a578082015181840152602081019050611b1f565b60008484015250505050565b6000611b5182611b06565b611b5b8185611b11565b9350611b6b818560208601611b1c565b80840191505092915050565b6000611b838285611aef565b600182019150611b938284611b46565b91508190509392505050565b6000611bab8284611b46565b915081905092915050565b600081519050611bc5816110ec565b92915050565b600060208284031215611be157611be06110a2565b5b6000611bef84828501611bb6565b91505092915050565b600082825260208201905092915050565b7f63616e6e6f742063616c6c20636f6d70757465526f6f7448617368207769746860008201527f2030206e756d626572206f66206c656176657300000000000000000000000000602082015250565b6000611c65603383611bf8565b9150611c7082611c09565b604082019050919050565b60006020820190508181036000830152611c9481611c58565b9050919050565b7f756e657870656374656420696e6e657220686173686573000000000000000000600082015250565b6000611cd1601783611bf8565b9150611cdc82611c9b565b602082019050919050565b60006020820190508181036000830152611d0081611cc4565b9050919050565b7f6578706563746564206174206c65617374206f6e6520696e6e65722068617368600082015250565b6000611d3d602083611bf8565b9150611d4882611d07565b602082019050919050565b60006020820190508181036000830152611d6c81611d30565b9050919050565b7f496e76616c69642072616e67653a205f626567696e206973206772656174657260008201527f207468616e205f656e6400000000000000000000000000000000000000000000602082015250565b6000611dcf602a83611bf8565b9150611dda82611d73565b604082019050919050565b60006020820190508181036000830152611dfe81611dc2565b9050919050565b7f496e76616c69642072616e67653a205f626567696e206f72205f656e6420617260008201527f65206f7574206f6620626f756e64730000000000000000000000000000000000602082015250565b6000611e61602f83611bf8565b9150611e6c82611e05565b604082019050919050565b60006020820190508181036000830152611e9081611e54565b9050919050565b6000819050919050565b611eb2611ead826110e2565b611e97565b82525050565b6000611ec48286611aef565b600182019150611ed48285611ea1565b602082019150611ee48284611ea1565b602082019150819050949350505050565b611efe81611a1f565b82525050565b6000608082019050611f196000830187611570565b611f266020830186611ef5565b611f336040830185611570565b611f406060830184611570565b95945050505050565b7f4e487b7100000000000000000000000000000000000000000000000000000000600052602160045260246000fd5b6000611f83826110ac565b91507fffffffffffffffffffffffffffffffffffffffffffffffffffffffffffffffff8203611fb557611fb46116ad565b5b60018201905091905056fea2646970667358221220c7d868205c38866bfad105a812540dc8eec99d55731f8b4abbc7e3fc496eb5f564736f6c63430008160033",
  "linkReferences": {},
  "deployedLinkReferences": {}
}