{
  "_format": "hh-sol-artifact-1",
  "contractName": "LayerLightClientBridge",
  "sourceName": "contracts/bridge/LayerLightClientBridge.sol",
  "abi": [
    {
      "inputs": [
        {
          "internalType": "uint256",
          "name": "_unbondingPeriod",
          "type": "uint256"
        }
      ],
      "stateMutability": "nonpayable",
      "type": "constructor"
    },
    {
      "inputs": [
        {
          "internalType": "uint256",
          "name": "",
          "type": "uint256"
        }
      ],
      "name": "blockDetails",
      "outputs": [
        {
          "internalType": "bytes32",
          "name": "oracleHash",
          "type": "bytes32"
        },
        {
          "internalType": "uint64",
          "name": "timeSecond",
          "type": "uint64"
        },
        {
          "internalType": "uint32",
          "name": "timeNanoSecondFraction",
          "type": "uint32"
        }
      ],
      "stateMutability": "view",
      "type": "function"
    },
    {
      "inputs": [
        {
          "components": [
            {
              "internalType": "bytes",
              "name": "signedDataPrefix",
              "type": "bytes"
            },
            {
              "internalType": "bytes",
              "name": "signedDataSuffix",
              "type": "bytes"
            }
          ],
          "internalType": "struct LayerLightClientBridge.CommonEncodedVotePartData",
          "name": "_votePart",
          "type": "tuple"
        },
        {
          "internalType": "bytes32",
          "name": "_blockHash",
          "type": "bytes32"
        }
      ],
      "name": "checkPartsAndEncodedCommonParts",
      "outputs": [
        {
          "internalType": "bytes",
          "name": "",
          "type": "bytes"
        }
      ],
      "stateMutability": "pure",
      "type": "function"
    },
    {
      "inputs": [
        {
          "components": [
            {
              "internalType": "bytes32",
              "name": "r",
              "type": "bytes32"
            },
            {
              "internalType": "bytes32",
              "name": "s",
              "type": "bytes32"
            },
            {
              "internalType": "uint8",
              "name": "v",
              "type": "uint8"
            },
            {
              "internalType": "bytes",
              "name": "encodedTimestamp",
              "type": "bytes"
            }
          ],
          "internalType": "struct LayerLightClientBridge.TMSignatureData",
          "name": "_sigData",
          "type": "tuple"
        },
        {
          "internalType": "bytes",
          "name": "_commonEncodedPart",
          "type": "bytes"
        },
        {
          "internalType": "bytes",
          "name": "_encodedChainID",
          "type": "bytes"
        }
      ],
      "name": "checkTimeAndRecoverSigner",
      "outputs": [
        {
          "internalType": "address",
          "name": "",
          "type": "address"
        }
      ],
      "stateMutability": "pure",
      "type": "function"
    },
    {
      "inputs": [],
      "name": "encodedChainId",
      "outputs": [
        {
          "internalType": "bytes",
          "name": "",
          "type": "bytes"
        }
      ],
      "stateMutability": "view",
      "type": "function"
    },
    {
      "inputs": [
        {
          "components": [
            {
              "internalType": "bytes32",
              "name": "oracleIAVLStateHash",
              "type": "bytes32"
            },
            {
              "internalType": "bytes32",
              "name": "paramsStoreMerkleHash",
              "type": "bytes32"
            },
            {
              "internalType": "bytes32",
              "name": "slashingToStakingStoresMerkleHash",
              "type": "bytes32"
            },
            {
              "internalType": "bytes32",
              "name": "govToMintStoresMerkleHash",
              "type": "bytes32"
            },
            {
              "internalType": "bytes32",
              "name": "authToFeegrantStoresMerkleHash",
              "type": "bytes32"
            },
            {
              "internalType": "bytes32",
              "name": "transferToUpgradeStoresMerkleHash",
              "type": "bytes32"
            }
          ],
          "internalType": "struct LayerLightClientBridge.MultistoreData",
          "name": "_store",
          "type": "tuple"
        }
      ],
      "name": "getAppHash",
      "outputs": [
        {
          "internalType": "bytes32",
          "name": "",
          "type": "bytes32"
        }
      ],
      "stateMutability": "pure",
      "type": "function"
    },
    {
      "inputs": [
        {
          "components": [
            {
              "internalType": "bytes32",
              "name": "oracleIAVLStateHash",
              "type": "bytes32"
            },
            {
              "internalType": "bytes32",
              "name": "paramsStoreMerkleHash",
              "type": "bytes32"
            },
            {
              "internalType": "bytes32",
              "name": "slashingToStakingStoresMerkleHash",
              "type": "bytes32"
            },
            {
              "internalType": "bytes32",
              "name": "govToMintStoresMerkleHash",
              "type": "bytes32"
            },
            {
              "internalType": "bytes32",
              "name": "authToFeegrantStoresMerkleHash",
              "type": "bytes32"
            },
            {
              "internalType": "bytes32",
              "name": "transferToUpgradeStoresMerkleHash",
              "type": "bytes32"
            }
          ],
          "internalType": "struct LayerLightClientBridge.MultistoreData",
          "name": "_store",
          "type": "tuple"
        }
      ],
      "name": "getAppHash2",
      "outputs": [
        {
          "internalType": "bytes32",
          "name": "",
          "type": "bytes32"
        }
      ],
      "stateMutability": "pure",
      "type": "function"
    },
    {
      "inputs": [
        {
          "components": [
            {
              "internalType": "bytes32",
              "name": "oracleIAVLStateHash",
              "type": "bytes32"
            },
            {
              "internalType": "bytes32",
              "name": "paramsStoreMerkleHash",
              "type": "bytes32"
            },
            {
              "internalType": "bytes32",
              "name": "slashingToStakingStoresMerkleHash",
              "type": "bytes32"
            },
            {
              "internalType": "bytes32",
              "name": "govToMintStoresMerkleHash",
              "type": "bytes32"
            },
            {
              "internalType": "bytes32",
              "name": "authToFeegrantStoresMerkleHash",
              "type": "bytes32"
            },
            {
              "internalType": "bytes32",
              "name": "transferToUpgradeStoresMerkleHash",
              "type": "bytes32"
            }
          ],
          "internalType": "struct LayerLightClientBridge.MultistoreData",
          "name": "_store",
          "type": "tuple"
        }
      ],
      "name": "getAppHash3",
      "outputs": [
        {
          "internalType": "bytes32",
          "name": "",
          "type": "bytes32"
        }
      ],
      "stateMutability": "pure",
      "type": "function"
    },
    {
      "inputs": [
        {
          "components": [
            {
              "internalType": "bytes32",
              "name": "versionAndChainIdHash",
              "type": "bytes32"
            },
            {
              "internalType": "uint64",
              "name": "height",
              "type": "uint64"
            },
            {
              "internalType": "uint64",
              "name": "timeSecond",
              "type": "uint64"
            },
            {
              "internalType": "uint32",
              "name": "timeNanoSecondFraction",
              "type": "uint32"
            },
            {
              "internalType": "bytes32",
              "name": "lastBlockIdAndOther",
              "type": "bytes32"
            },
            {
              "internalType": "bytes32",
              "name": "nextValidatorHashAndConsensusHash",
              "type": "bytes32"
            },
            {
              "internalType": "bytes32",
              "name": "lastResultsHash",
              "type": "bytes32"
            },
            {
              "internalType": "bytes32",
              "name": "evidenceAndProposerHash",
              "type": "bytes32"
            }
          ],
          "internalType": "struct LayerLightClientBridge.BlockHeaderMerkleParts",
          "name": "_merkleParts",
          "type": "tuple"
        },
        {
          "internalType": "bytes32",
          "name": "_appHash",
          "type": "bytes32"
        }
      ],
      "name": "getBlockHeader",
      "outputs": [
        {
          "internalType": "bytes32",
          "name": "",
          "type": "bytes32"
        }
      ],
      "stateMutability": "pure",
      "type": "function"
    },
    {
      "inputs": [
        {
          "internalType": "address[]",
          "name": "_validators",
          "type": "address[]"
        },
        {
          "internalType": "uint256[]",
          "name": "_powers",
          "type": "uint256[]"
        },
        {
          "internalType": "string",
          "name": "_encodedChainID",
          "type": "string"
        }
      ],
      "name": "init",
      "outputs": [],
      "stateMutability": "nonpayable",
      "type": "function"
    },
    {
      "inputs": [],
      "name": "latestBlockHeight",
      "outputs": [
        {
          "internalType": "uint256",
          "name": "",
          "type": "uint256"
        }
      ],
      "stateMutability": "view",
      "type": "function"
    },
    {
      "inputs": [
        {
          "components": [
            {
              "internalType": "bytes32",
              "name": "versionAndChainIdHash",
              "type": "bytes32"
            },
            {
              "internalType": "uint64",
              "name": "height",
              "type": "uint64"
            },
            {
              "internalType": "uint64",
              "name": "timeSecond",
              "type": "uint64"
            },
            {
              "internalType": "uint32",
              "name": "timeNanoSecondFraction",
              "type": "uint32"
            },
            {
              "internalType": "bytes32",
              "name": "lastBlockIdAndOther",
              "type": "bytes32"
            },
            {
              "internalType": "bytes32",
              "name": "nextValidatorHashAndConsensusHash",
              "type": "bytes32"
            },
            {
              "internalType": "bytes32",
              "name": "lastResultsHash",
              "type": "bytes32"
            },
            {
              "internalType": "bytes32",
              "name": "evidenceAndProposerHash",
              "type": "bytes32"
            }
          ],
          "internalType": "struct LayerLightClientBridge.BlockHeaderMerkleParts",
          "name": "_merkleParts",
          "type": "tuple"
        }
      ],
      "name": "readBlockHeaderMerkleParts",
      "outputs": [
        {
          "components": [
            {
              "internalType": "bytes32",
              "name": "versionAndChainIdHash",
              "type": "bytes32"
            },
            {
              "internalType": "uint64",
              "name": "height",
              "type": "uint64"
            },
            {
              "internalType": "uint64",
              "name": "timeSecond",
              "type": "uint64"
            },
            {
              "internalType": "uint32",
              "name": "timeNanoSecondFraction",
              "type": "uint32"
            },
            {
              "internalType": "bytes32",
              "name": "lastBlockIdAndOther",
              "type": "bytes32"
            },
            {
              "internalType": "bytes32",
              "name": "nextValidatorHashAndConsensusHash",
              "type": "bytes32"
            },
            {
              "internalType": "bytes32",
              "name": "lastResultsHash",
              "type": "bytes32"
            },
            {
              "internalType": "bytes32",
              "name": "evidenceAndProposerHash",
              "type": "bytes32"
            }
          ],
          "internalType": "struct LayerLightClientBridge.BlockHeaderMerkleParts",
          "name": "",
          "type": "tuple"
        }
      ],
      "stateMutability": "pure",
      "type": "function"
    },
    {
      "inputs": [
        {
          "components": [
            {
              "internalType": "bytes",
              "name": "signedDataPrefix",
              "type": "bytes"
            },
            {
              "internalType": "bytes",
              "name": "signedDataSuffix",
              "type": "bytes"
            }
          ],
          "internalType": "struct LayerLightClientBridge.CommonEncodedVotePartData",
          "name": "_commonEncodedVotePart",
          "type": "tuple"
        }
      ],
      "name": "readCommonEncodedVotePartData",
      "outputs": [
        {
          "components": [
            {
              "internalType": "bytes",
              "name": "signedDataPrefix",
              "type": "bytes"
            },
            {
              "internalType": "bytes",
              "name": "signedDataSuffix",
              "type": "bytes"
            }
          ],
          "internalType": "struct LayerLightClientBridge.CommonEncodedVotePartData",
          "name": "",
          "type": "tuple"
        }
      ],
      "stateMutability": "pure",
      "type": "function"
    },
    {
      "inputs": [
        {
          "components": [
            {
              "internalType": "bytes32",
              "name": "oracleIAVLStateHash",
              "type": "bytes32"
            },
            {
              "internalType": "bytes32",
              "name": "paramsStoreMerkleHash",
              "type": "bytes32"
            },
            {
              "internalType": "bytes32",
              "name": "slashingToStakingStoresMerkleHash",
              "type": "bytes32"
            },
            {
              "internalType": "bytes32",
              "name": "govToMintStoresMerkleHash",
              "type": "bytes32"
            },
            {
              "internalType": "bytes32",
              "name": "authToFeegrantStoresMerkleHash",
              "type": "bytes32"
            },
            {
              "internalType": "bytes32",
              "name": "transferToUpgradeStoresMerkleHash",
              "type": "bytes32"
            }
          ],
          "internalType": "struct LayerLightClientBridge.MultistoreData",
          "name": "_multiStore",
          "type": "tuple"
        }
      ],
      "name": "readMultistoreData",
      "outputs": [
        {
          "internalType": "bytes",
          "name": "",
          "type": "bytes"
        }
      ],
      "stateMutability": "pure",
      "type": "function"
    },
    {
      "inputs": [
        {
          "components": [
            {
              "internalType": "bytes32",
              "name": "r",
              "type": "bytes32"
            },
            {
              "internalType": "bytes32",
              "name": "s",
              "type": "bytes32"
            },
            {
              "internalType": "uint8",
              "name": "v",
              "type": "uint8"
            },
            {
              "internalType": "bytes",
              "name": "encodedTimestamp",
              "type": "bytes"
            }
          ],
          "internalType": "struct LayerLightClientBridge.TMSignatureData",
          "name": "_signatureData",
          "type": "tuple"
        }
      ],
      "name": "readTMSignatureData",
      "outputs": [
        {
          "components": [
            {
              "internalType": "bytes32",
              "name": "r",
              "type": "bytes32"
            },
            {
              "internalType": "bytes32",
              "name": "s",
              "type": "bytes32"
            },
            {
              "internalType": "uint8",
              "name": "v",
              "type": "uint8"
            },
            {
              "internalType": "bytes",
              "name": "encodedTimestamp",
              "type": "bytes"
            }
          ],
          "internalType": "struct LayerLightClientBridge.TMSignatureData",
          "name": "",
          "type": "tuple"
        }
      ],
      "stateMutability": "pure",
      "type": "function"
    },
    {
      "inputs": [
        {
          "components": [
            {
              "internalType": "bytes32",
              "name": "oracleIAVLStateHash",
              "type": "bytes32"
            },
            {
              "internalType": "bytes32",
              "name": "paramsStoreMerkleHash",
              "type": "bytes32"
            },
            {
              "internalType": "bytes32",
              "name": "slashingToStakingStoresMerkleHash",
              "type": "bytes32"
            },
            {
              "internalType": "bytes32",
              "name": "govToMintStoresMerkleHash",
              "type": "bytes32"
            },
            {
              "internalType": "bytes32",
              "name": "authToFeegrantStoresMerkleHash",
              "type": "bytes32"
            },
            {
              "internalType": "bytes32",
              "name": "transferToUpgradeStoresMerkleHash",
              "type": "bytes32"
            }
          ],
          "internalType": "struct LayerLightClientBridge.MultistoreData",
          "name": "_multiStore",
          "type": "tuple"
        },
        {
          "components": [
            {
              "internalType": "bytes32",
              "name": "versionAndChainIdHash",
              "type": "bytes32"
            },
            {
              "internalType": "uint64",
              "name": "height",
              "type": "uint64"
            },
            {
              "internalType": "uint64",
              "name": "timeSecond",
              "type": "uint64"
            },
            {
              "internalType": "uint32",
              "name": "timeNanoSecondFraction",
              "type": "uint32"
            },
            {
              "internalType": "bytes32",
              "name": "lastBlockIdAndOther",
              "type": "bytes32"
            },
            {
              "internalType": "bytes32",
              "name": "nextValidatorHashAndConsensusHash",
              "type": "bytes32"
            },
            {
              "internalType": "bytes32",
              "name": "lastResultsHash",
              "type": "bytes32"
            },
            {
              "internalType": "bytes32",
              "name": "evidenceAndProposerHash",
              "type": "bytes32"
            }
          ],
          "internalType": "struct LayerLightClientBridge.BlockHeaderMerkleParts",
          "name": "_merkleParts",
          "type": "tuple"
        },
        {
          "components": [
            {
              "internalType": "bytes",
              "name": "signedDataPrefix",
              "type": "bytes"
            },
            {
              "internalType": "bytes",
              "name": "signedDataSuffix",
              "type": "bytes"
            }
          ],
          "internalType": "struct LayerLightClientBridge.CommonEncodedVotePartData",
          "name": "_commonEncodedVotePart",
          "type": "tuple"
        },
        {
          "components": [
            {
              "internalType": "bytes32",
              "name": "r",
              "type": "bytes32"
            },
            {
              "internalType": "bytes32",
              "name": "s",
              "type": "bytes32"
            },
            {
              "internalType": "uint8",
              "name": "v",
              "type": "uint8"
            },
            {
              "internalType": "bytes",
              "name": "encodedTimestamp",
              "type": "bytes"
            }
          ],
          "internalType": "struct LayerLightClientBridge.TMSignatureData[]",
          "name": "_signatures",
          "type": "tuple[]"
        }
      ],
      "name": "relayBlock",
      "outputs": [],
      "stateMutability": "nonpayable",
      "type": "function"
    },
    {
      "inputs": [],
      "name": "totalValidatorPower",
      "outputs": [
        {
          "internalType": "uint256",
          "name": "",
          "type": "uint256"
        }
      ],
      "stateMutability": "view",
      "type": "function"
    },
    {
      "inputs": [],
      "name": "unbondingPeriod",
      "outputs": [
        {
          "internalType": "uint256",
          "name": "",
          "type": "uint256"
        }
      ],
      "stateMutability": "view",
      "type": "function"
    },
    {
      "inputs": [
        {
          "internalType": "address",
          "name": "",
          "type": "address"
        }
      ],
      "name": "validatorPowers",
      "outputs": [
        {
          "internalType": "uint256",
          "name": "",
          "type": "uint256"
        }
      ],
      "stateMutability": "view",
      "type": "function"
    },
    {
      "inputs": [
        {
          "components": [
            {
              "internalType": "bytes32",
              "name": "oracleIAVLStateHash",
              "type": "bytes32"
            },
            {
              "internalType": "bytes32",
              "name": "paramsStoreMerkleHash",
              "type": "bytes32"
            },
            {
              "internalType": "bytes32",
              "name": "slashingToStakingStoresMerkleHash",
              "type": "bytes32"
            },
            {
              "internalType": "bytes32",
              "name": "govToMintStoresMerkleHash",
              "type": "bytes32"
            },
            {
              "internalType": "bytes32",
              "name": "authToFeegrantStoresMerkleHash",
              "type": "bytes32"
            },
            {
              "internalType": "bytes32",
              "name": "transferToUpgradeStoresMerkleHash",
              "type": "bytes32"
            }
          ],
          "internalType": "struct LayerLightClientBridge.MultistoreData",
          "name": "_multiStore",
          "type": "tuple"
        },
        {
          "components": [
            {
              "internalType": "bytes32",
              "name": "versionAndChainIdHash",
              "type": "bytes32"
            },
            {
              "internalType": "uint64",
              "name": "height",
              "type": "uint64"
            },
            {
              "internalType": "uint64",
              "name": "timeSecond",
              "type": "uint64"
            },
            {
              "internalType": "uint32",
              "name": "timeNanoSecondFraction",
              "type": "uint32"
            },
            {
              "internalType": "bytes32",
              "name": "lastBlockIdAndOther",
              "type": "bytes32"
            },
            {
              "internalType": "bytes32",
              "name": "nextValidatorHashAndConsensusHash",
              "type": "bytes32"
            },
            {
              "internalType": "bytes32",
              "name": "lastResultsHash",
              "type": "bytes32"
            },
            {
              "internalType": "bytes32",
              "name": "evidenceAndProposerHash",
              "type": "bytes32"
            }
          ],
          "internalType": "struct LayerLightClientBridge.BlockHeaderMerkleParts",
          "name": "_merkleParts",
          "type": "tuple"
        },
        {
          "components": [
            {
              "internalType": "bytes",
              "name": "signedDataPrefix",
              "type": "bytes"
            },
            {
              "internalType": "bytes",
              "name": "signedDataSuffix",
              "type": "bytes"
            }
          ],
          "internalType": "struct LayerLightClientBridge.CommonEncodedVotePartData",
          "name": "_commonEncodedVotePart",
          "type": "tuple"
        },
        {
          "components": [
            {
              "internalType": "bytes32",
              "name": "r",
              "type": "bytes32"
            },
            {
              "internalType": "bytes32",
              "name": "s",
              "type": "bytes32"
            },
            {
              "internalType": "uint8",
              "name": "v",
              "type": "uint8"
            },
            {
              "internalType": "bytes",
              "name": "encodedTimestamp",
              "type": "bytes"
            }
          ],
          "internalType": "struct LayerLightClientBridge.TMSignatureData[]",
          "name": "_signatures",
          "type": "tuple[]"
        }
      ],
      "name": "verifyBlockHeader",
      "outputs": [
        {
          "internalType": "bool",
          "name": "",
          "type": "bool"
        }
      ],
      "stateMutability": "view",
      "type": "function"
    },
    {
      "inputs": [
        {
          "internalType": "uint256",
          "name": "_blockHeight",
          "type": "uint256"
        },
        {
          "components": [
            {
              "internalType": "string",
              "name": "clientID",
              "type": "string"
            },
            {
              "internalType": "uint64",
              "name": "oracleScriptID",
              "type": "uint64"
            },
            {
              "internalType": "bytes",
              "name": "params",
              "type": "bytes"
            },
            {
              "internalType": "uint64",
              "name": "askCount",
              "type": "uint64"
            },
            {
              "internalType": "uint64",
              "name": "minCount",
              "type": "uint64"
            },
            {
              "internalType": "uint64",
              "name": "requestID",
              "type": "uint64"
            },
            {
              "internalType": "uint64",
              "name": "ansCount",
              "type": "uint64"
            },
            {
              "internalType": "uint64",
              "name": "requestTime",
              "type": "uint64"
            },
            {
              "internalType": "uint64",
              "name": "resolveTime",
              "type": "uint64"
            },
            {
              "internalType": "enum LayerLightClientBridge.ResolveStatus",
              "name": "resolveStatus",
              "type": "uint8"
            },
            {
              "internalType": "bytes",
              "name": "result",
              "type": "bytes"
            }
          ],
          "internalType": "struct LayerLightClientBridge.Report",
          "name": "_report",
          "type": "tuple"
        },
        {
          "internalType": "uint256",
          "name": "_oracleHeight",
          "type": "uint256"
        },
        {
          "components": [
            {
              "internalType": "bool",
              "name": "isDataOnRight",
              "type": "bool"
            },
            {
              "internalType": "uint8",
              "name": "subtreeHeight",
              "type": "uint8"
            },
            {
              "internalType": "uint256",
              "name": "subtreeSize",
              "type": "uint256"
            },
            {
              "internalType": "uint256",
              "name": "subtreeVersion",
              "type": "uint256"
            },
            {
              "internalType": "bytes32",
              "name": "siblingHash",
              "type": "bytes32"
            }
          ],
          "internalType": "struct LayerLightClientBridge.IAVLMerklePath[]",
          "name": "_merklePaths",
          "type": "tuple[]"
        }
      ],
      "name": "verifyOracleData",
      "outputs": [
        {
          "components": [
            {
              "internalType": "string",
              "name": "clientID",
              "type": "string"
            },
            {
              "internalType": "uint64",
              "name": "oracleScriptID",
              "type": "uint64"
            },
            {
              "internalType": "bytes",
              "name": "params",
              "type": "bytes"
            },
            {
              "internalType": "uint64",
              "name": "askCount",
              "type": "uint64"
            },
            {
              "internalType": "uint64",
              "name": "minCount",
              "type": "uint64"
            },
            {
              "internalType": "uint64",
              "name": "requestID",
              "type": "uint64"
            },
            {
              "internalType": "uint64",
              "name": "ansCount",
              "type": "uint64"
            },
            {
              "internalType": "uint64",
              "name": "requestTime",
              "type": "uint64"
            },
            {
              "internalType": "uint64",
              "name": "resolveTime",
              "type": "uint64"
            },
            {
              "internalType": "enum LayerLightClientBridge.ResolveStatus",
              "name": "resolveStatus",
              "type": "uint8"
            },
            {
              "internalType": "bytes",
              "name": "result",
              "type": "bytes"
            }
          ],
          "internalType": "struct LayerLightClientBridge.Report",
          "name": "",
          "type": "tuple"
        }
      ],
      "stateMutability": "view",
      "type": "function"
    }
  ],
  "bytecode": "0x60806040523480156200001157600080fd5b5060405162002d1838038062002d1883398101604081905262000034916200003d565b60025562000056565b6000602082840312156200004f578081fd5b5051919050565b612cb280620000666000396000f3fe608060405234801561001057600080fd5b506004361061012c5760003560e01c8063847c1b23116100ad578063e71296e111610071578063e71296e114610320578063f3f39ee514610333578063f61aa09d1461033c578063f8156a6e1461035c578063f953205a146103655761012c565b8063847c1b23146102a257806393a4a134146102b5578063af4b9107146102ca578063c573d977146102dd578063cc2532ba146102fd5761012c565b80635cd2458c116100f45780635cd2458c1461024b57806364c471931461026b578063679b7b9a146102735780636cf6d67514610286578063760729c31461028f5761012c565b8063071ee1e1146101315780630a4723e6146101615780630ac804c5146101815780631b60f867146101a25780632ff08eb51461022b575b600080fd5b61014461013f36600461231a565b6103cd565b6040516001600160a01b0390911681526020015b60405180910390f35b61017461016f3660046120b8565b610560565b60405161015891906127f6565b61019461018f366004612234565b610594565b604051908152602001610158565b6101b56101b0366004612070565b61067e565b60405161015891906000610100820190508251825260208301516001600160401b038082166020850152806040860151166040850152505063ffffffff60608401511660608301526080830151608083015260a083015160a083015260c083015160c083015260e083015160e083015292915050565b61023e6102393660046122e8565b6106c4565b6040516101589190612958565b61025e6102593660046120ea565b6106ec565b60405161015891906127b4565b61025e6107fd565b61025e610281366004612234565b61088b565b61019460025481565b61019461029d366004612234565b6108f9565b6101946102b036600461208c565b6109fb565b6102c86102c3366004611f9a565b610ab4565b005b6102c86102d8366004612191565b610c1c565b6102f06102eb3660046123b5565b610d60565b604051610158919061282f565b61031061030b36600461224f565b610f83565b6040519015158152602001610158565b61019461032e366004612234565b611164565b61019460035481565b61019461034a366004611f73565b60046020526000908152604090205481565b61019460015481565b6103a461037336600461239d565b600560205260009081526040902080546001909101546001600160401b03811690600160401b900463ffffffff1683565b604080519384526001600160401b03909216602084015263ffffffff1690820152606001610158565b60008360600151516006111580156103eb5750600c84606001515111155b61044a5760405162461bcd60e51b815260206004820152602560248201527f544d5369676e61747572653a20496e76616c69642074696d657374616d7027736044820152642073697a6560d81b60648201526084015b60405180910390fd5b6060840151805160405160009261046b928792602a9290889060200161260c565b60405160208183030381529060405290506001600282518360405160200161049492919061269f565b60408051601f19818403018152908290526104ae916124e3565b602060405180830381855afa1580156104cb573d6000803e3d6000fd5b5050506040513d601f19601f820116820180604052508101906104ee9190612058565b60408088015188516020808b01518451600081529091019384905261052a94845260ff9290921660208401526040830152606082015260800190565b6020604051602081039080840390855afa15801561054c573d6000803e3d6000fd5b5050604051601f1901519695505050505050565b6040805180820190915260608082526020820152815161057f90611195565b61058c8260200151611195565b50805b919050565b60008061067761066d84608001516106688660600151610668886040015161066861065e60028c600001516040516020016105d191815260200190565b60408051601f19818403018152908290526105eb916124e3565b602060405180830381855afa158015610608573d6000803e3d6000fd5b5050506040513d601f19601f8201168201806040525081019061062b9190612058565b60405166437b930b1b632960c51b602082015260288101919091526048015b6040516020818303038152906040526111db565b8b60200151611253565b611253565b8460a00151611253565b9392505050565b6040805161010081018252600080825260208201819052918101829052606081018290526080810182905260a0810182905260c0810182905260e081019190915261058c565b604080516080810182526000808252602082018190529181019190915260608082015261058c565b815151606090600f148061070257508251516018145b6107635760405162461bcd60e51b815260206004820152602c60248201527f436f6d6d6f6e456e636f646564566f7465506172743a20496e76616c6964207060448201526b726566697827732073697a6560a01b6064820152608401610441565b8260200151516026146107cd5760405162461bcd60e51b815260206004820152602c60248201527f436f6d6d6f6e456e636f646564566f7465506172743a20496e76616c6964207360448201526b756666697827732073697a6560a01b6064820152608401610441565b82516020808501516040516107e69392869291016124ff565b604051602081830303815290604052905092915050565b6000805461080a90612bd3565b80601f016020809104026020016040519081016040528092919081815260200182805461083690612bd3565b80156108835780601f1061085857610100808354040283529160200191610883565b820191906000526020600020905b81548152906001019060200180831161086657829003601f168201915b505050505081565b6060816000015182602001518360400151846060015185608001518660a001516040516020016108e396959493929190958652602086019490945260408501929092526060840152608083015260a082015260c00190565b6040516020818303038152906040529050919050565b6000806109956002846000015160405160200161091891815260200190565b60408051601f1981840301815290829052610932916124e3565b602060405180830381855afa15801561094f573d6000803e3d6000fd5b5050506040513d601f19601f820116820180604052508101906109729190612058565b60405166337b930b1b632960c51b6020820152602881019190915260480161064a565b905060006109a7828560200151611253565b905060006109b9856040015183611253565b905060006109cb866060015183611253565b905060006109dd876080015183611253565b905060006109ef828960a00151611253565b98975050505050505050565b600080610aac610a5f610a558660000151610668610a3b6008610a2a8b602001516001600160401b03166112d1565b60405160200161064a92919061269f565b610668610a508b604001518c60600151611403565b6111db565b8660800151611253565b60a0860151604051600560f91b6020820152600160fd1b60218201526022810187905261066891610aa2918390610a989060420161064a565b8a60c00151611253565b8760e00151611253565b949350505050565b60008054610ac190612bd3565b159050610b065760405162461bcd60e51b8152602060048201526013602482015272105b1c9958591e481a5b9a5d1a585b1a5e9959606a1b6044820152606401610441565b60005b85811015610bdb57848482818110610b3157634e487b7160e01b600052603260045260246000fd5b9050602002013560046000898985818110610b5c57634e487b7160e01b600052603260045260246000fd5b9050602002016020810190610b719190611f73565b6001600160a01b03168152602081019190915260400160002055848482818110610bab57634e487b7160e01b600052603260045260246000fd5b9050602002013560016000828254610bc391906129c4565b90915550819050610bd381612c0e565b915050610b09565b508181604051602001610bef9291906127c7565b60405160208183030381529060405260009080519060200190610c13929190611bbc565b50505050505050565b610c50610c2e36879003870187612234565b610c3d36879003870187612070565b610c4686612a72565b61030b8587612a65565b610c9c5760405162461bcd60e51b815260206004820152601460248201527f496e76616c696420626c6f636b206865616465720000000000000000000000006044820152606401610441565b604051806060016040528086600001358152602001856040016020810190610cc4919061247b565b6001600160401b03168152602001610ce26080870160608801612461565b63ffffffff16905260056000610cfe604088016020890161247b565b6001600160401b0390811682526020808301939093526040918201600020845181559284015160019093018054949092015163ffffffff16600160401b026bffffffffffffffffffffffff199094169216919091179190911790555050505050565b610dbf6040805161016081018252606080825260006020830181905292820181905281018290526080810182905260a0810182905260c0810182905260e081018290526101008101829052906101208201908152602001606081525090565b60008681526005602052604090205480610e1b5760405162461bcd60e51b815260206004820152601660248201527f4e6f20726f6f74206174207468697320686569676874000000000000000000006044820152606401610441565b60006002610e30610e2b89612a7e565b611480565b604051610e3d91906124e3565b602060405180830381855afa158015610e5a573d6000803e3d6000fd5b5050506040513d601f19601f82011682018060405250810190610e7d9190612058565b9050610f3e828760ff610e9660c08c0160a08d0161247b565b604051602001610edd92919060f89290921b6001600160f81b031916825260c01b77ffffffffffffffffffffffffffffffffffffffffffffffff1916600182015260090190565b60408051601f1981840301815260208a8102840181019092528983529186918b908b90819060009085015b82821015610f3457610f2560a0830286013681900381019061212c565b81526020019060010190610f08565b5050505050611829565b610f7a5760405162461bcd60e51b815260206004820152600d60248201526c24b73b30b634b210383937b7b360991b6044820152606401610441565b6109ef87612a7e565b600080610f8f86611164565b90506000610f9d86836109fb565b90506000610fab86836106ec565b90506000808054610fbb90612bd3565b80601f0160208091040260200160405190810160405280929190818152602001828054610fe790612bd3565b80156110345780601f1061100957610100808354040283529160200191611034565b820191906000526020600020905b81548152906001019060200180831161101757829003601f168201915b5050505050905060008060005b885181101561113957600061107e8a838151811061106f57634e487b7160e01b600052603260045260246000fd5b602002602001015187876103cd565b9050836001600160a01b0316816001600160a01b0316116110e15760405162461bcd60e51b815260206004820152601460248201527f496e76616c6964207369676e6572206f726465720000000000000000000000006044820152606401610441565b6001600160a01b03811660009081526004602052604090205415611125576001600160a01b03811660009081526004602052604090205461112290846129c4565b92505b92508061113181612c0e565b915050611041565b50600154611148906002612a07565b611153826003612a07565b10159b9a5050505050505050505050565b6000806111836002846000015160405160200161091891815260200190565b905060006109a7846020015183611253565b6111d8816040516024016111a991906127b4565b60408051601f198184030181529190526020810180516001600160e01b03166305f3bfab60e11b179052611917565b50565b600060026000836040516020016111f392919061269f565b60408051601f198184030181529082905261120d916124e3565b602060405180830381855afa15801561122a573d6000803e3d6000fd5b5050506040513d601f19601f8201168201806040525081019061124d9190612058565b92915050565b604051600160f81b6020820152602181018390526041810182905260009060029060610160408051601f1981840301815290829052611291916124e3565b602060405180830381855afa1580156112ae573d6000803e3d6000fd5b5050506040513d601f19601f820116820180604052508101906106779190612058565b60608160005b81156112f4576112e681612c0e565b9050600782901c91506112d7565b6000816001600160401b0381111561131c57634e487b7160e01b600052604160045260246000fd5b6040519080825280601f01601f191660200182016040528015611346576020820181803683370190505b50905084925060005b828110156113af5783607f1660801760f81b82828151811061138157634e487b7160e01b600052603260045260246000fd5b60200101906001600160f81b031916908160001a90535060079390931c926113a881612c0e565b905061134f565b50607f60f81b816113c1600185612a26565b815181106113df57634e487b7160e01b600052603260045260246000fd5b0160200180519091166001600160f81b03191690600082901a905350949350505050565b60606000611419846001600160401b03166112d1565b6040516020016114299190612675565b60408051601f19818403018152919052905063ffffffff83161561067757806114578463ffffffff166112d1565b6040516020016114689291906125d0565b60405160208183030381529060405290509392505050565b8051516060908190156114ce578061149b600160025b611920565b8451516114a790611948565b85516040516114bc9493929190602001612579565b60405160208183030381529060405290505b60208301516001600160401b03161561151f57806114ee60026000611496565b6114fb8560200151611948565b60405160200161150d93929190612536565b60405160208183030381529060405290505b6040830151511561156f578061153760036002611496565b611545856040015151611948565b856040015160405160200161155d9493929190612579565b60405160208183030381529060405290505b60608301516001600160401b0316156115c0578061158f60046000611496565b61159c8560600151611948565b6040516020016115ae93929190612536565b60405160208183030381529060405290505b60808301516001600160401b03161561161157806115e060056000611496565b6115ed8560800151611948565b6040516020016115ff93929190612536565b60405160208183030381529060405290505b60a08301516001600160401b031615611662578061163160066000611496565b61163e8560a00151611948565b60405160200161165093929190612536565b60405160208183030381529060405290505b60c08301516001600160401b0316156116b3578061168260076000611496565b61168f8560c00151611948565b6040516020016116a193929190612536565b60405160208183030381529060405290505b60e08301516001600160401b03161561170457806116d360086000611496565b6116e08560e00151611948565b6040516020016116f293929190612536565b60405160208183030381529060405290505b6101008301516001600160401b031615611757578061172560096000611496565b611733856101000151611948565b60405160200161174593929190612536565b60405160208183030381529060405290505b826101200151600381111561177c57634e487b7160e01b600052602160045260246000fd5b6001600160401b0316156117e85780611797600a6000611496565b6117c485610120015160038111156117bf57634e487b7160e01b600052602160045260246000fd5b611953565b6040516020016117d693929190612536565b60405160208183030381529060405290505b610140830151511561124d5780611801600b6002611496565b61181085610140015151611948565b8561014001516040516020016107e69493929190612579565b600080611835866112d1565b905060006002600060028489518a60208b60405160200161185c979695949392919061273d565b60408051601f1981840301815290829052611876916124e3565b602060405180830381855afa158015611893573d6000803e3d6000fd5b5050506040513d601f19601f820116820180604052508101906118b69190612058565b905060005b8451811015611909576118f58582815181106118e757634e487b7160e01b600052603260045260246000fd5b602002602001015183611964565b91508061190181612c0e565b9150506118bb565b509096149695505050505050565b6111d881611a26565b60606807fffffffffffffff8600384901b168217600061193f82611a47565b95945050505050565b606061124d82611a47565b606061124d8263ffffffff16611a47565b6000806000846000015161197d57838560800151611984565b8460800151845b9150915060026001866020015160ff16901b6119a38760400151611ba7565b6119b08860600151611ba7565b6020866020876040516020016119cc97969594939291906126ce565b60408051601f19818403018152908290526119e6916124e3565b602060405180830381855afa158015611a03573d6000803e3d6000fd5b5050506040513d601f19601f8201168201806040525081019061193f9190612058565b60006a636f6e736f6c652e6c6f679050600080835160208501845afa505050565b60608160015b607f826001600160401b03161115611a83576007826001600160401b0316901c9150600181611a7c91906129dc565b9050611a4d565b6000816001600160401b03166001600160401b03811115611ab457634e487b7160e01b600052604160045260246000fd5b6040519080825280601f01601f191660200182016040528015611ade576020820181803683370190505b50905084925060005b826001600160401b0316816001600160401b03161015611b6e5783607f1660801760f81b82826001600160401b031681518110611b3457634e487b7160e01b600052603260045260246000fd5b60200101906001600160f81b031916908160001a9053506007846001600160401b0316901c93508080611b6690612c29565b915050611ae7565b50607f60f81b81611b80600185612a3d565b6001600160401b0316815181106113df57634e487b7160e01b600052603260045260246000fd5b606061124d611bb7836002612a07565b6112d1565b828054611bc890612bd3565b90600052602060002090601f016020900481019282611bea5760008555611c30565b82601f10611c0357805160ff1916838001178555611c30565b82800160010185558215611c30579182015b82811115611c30578251825591602001919060010190611c15565b50611c3c929150611c40565b5090565b5b80821115611c3c5760008155600101611c41565b60006001600160401b03831115611c6e57611c6e612c66565b6020611c7e818560051b01612994565b84815291508082018360005b86811015611cb157611c9f8883358801611eca565b83529183019190830190600101611c8a565b505050509392505050565b60008083601f840112611ccd578182fd5b5081356001600160401b03811115611ce3578182fd5b6020830191508360208260051b8501011115611cfe57600080fd5b9250929050565b600082601f830112611d15578081fd5b81356001600160401b03811115611d2e57611d2e612c66565b611d41601f8201601f1916602001612994565b818152846020838601011115611d55578283fd5b816020850160208301379081016020019190915292915050565b80356004811061058f57600080fd5b6000610100808385031215611d91578182fd5b611d9a81612994565b91505081358152611dad60208301611f4b565b6020820152611dbe60408301611f4b565b6040820152611dcf60608301611f37565b60608201526080820135608082015260a082013560a082015260c082013560c082015260e082013560e082015292915050565b600060408284031215611e13578081fd5b611e1d6040612994565b905081356001600160401b0380821115611e3657600080fd5b611e4285838601611d05565b83526020840135915080821115611e5857600080fd5b50611e6584828501611d05565b60208301525092915050565b600060c08284031215611e82578081fd5b611e8c60c0612994565b9050813581526020820135602082015260408201356040820152606082013560608201526080820135608082015260a082013560a082015292915050565b600060808284031215611edb578081fd5b611ee56080612994565b90508135815260208201356020820152611f0160408301611f62565b604082015260608201356001600160401b03811115611f1f57600080fd5b611f2b84828501611d05565b60608301525092915050565b803563ffffffff8116811461058f57600080fd5b80356001600160401b038116811461058f57600080fd5b803560ff8116811461058f57600080fd5b600060208284031215611f84578081fd5b81356001600160a01b0381168114610677578182fd5b60008060008060008060608789031215611fb2578182fd5b86356001600160401b0380821115611fc8578384fd5b611fd48a838b01611cbc565b90985096506020890135915080821115611fec578384fd5b611ff88a838b01611cbc565b90965094506040890135915080821115612010578384fd5b818901915089601f830112612023578384fd5b813581811115612031578485fd5b8a6020828501011115612042578485fd5b6020830194508093505050509295509295509295565b600060208284031215612069578081fd5b5051919050565b60006101008284031215612082578081fd5b6106778383611d7e565b600080610120838503121561209f578182fd5b6120a98484611d7e565b94610100939093013593505050565b6000602082840312156120c9578081fd5b81356001600160401b038111156120de578182fd5b610aac84828501611e02565b600080604083850312156120fc578182fd5b82356001600160401b03811115612111578283fd5b61211d85828601611e02565b95602094909401359450505050565b600060a0828403121561213d578081fd5b61214760a0612994565b82358015158114612156578283fd5b815261216460208401611f62565b60208201526040830135604082015260608301356060820152608083013560808201528091505092915050565b60008060008060008587036102008112156121aa578384fd5b60c08112156121b7578384fd5b86955061010060bf19820112156121cc578384fd5b5060c0860193506101c08601356001600160401b03808211156121ed578485fd5b908701906040828a031215612200578485fd5b9093506101e08701359080821115612216578283fd5b5061222388828901611cbc565b969995985093965092949392505050565b600060c08284031215612245578081fd5b6106778383611e71565b6000806000806102008587031215612265578182fd5b61226f8686611e71565b935061227e8660c08701611d7e565b92506101c08501356001600160401b038082111561229a578384fd5b6122a688838901611e02565b93506101e08701359150808211156122bc578283fd5b508501601f810187136122cd578182fd5b6122dc87823560208401611c55565b91505092959194509250565b6000602082840312156122f9578081fd5b81356001600160401b0381111561230e578182fd5b610aac84828501611eca565b60008060006060848603121561232e578081fd5b83356001600160401b0380821115612344578283fd5b61235087838801611eca565b94506020860135915080821115612365578283fd5b61237187838801611d05565b93506040860135915080821115612386578283fd5b5061239386828701611d05565b9150509250925092565b6000602082840312156123ae578081fd5b5035919050565b6000806000806000608086880312156123cc578283fd5b8535945060208601356001600160401b03808211156123e9578485fd5b90870190610160828a0312156123fd578485fd5b9094506040870135935060608701359080821115612419578283fd5b818801915088601f83011261242c578283fd5b81358181111561243a578384fd5b89602060a08302850101111561244e578384fd5b9699959850939650602001949392505050565b600060208284031215612472578081fd5b61067782611f37565b60006020828403121561248c578081fd5b61067782611f4b565b600081518084526124ad816020860160208601612ba3565b601f01601f19169290920160200192915050565b600481106124df57634e487b7160e01b600052602160045260246000fd5b9052565b600082516124f5818460208701612ba3565b9190910192915050565b60008451612511818460208901612ba3565b82018481528351612529816020808501908801612ba3565b0160200195945050505050565b60008451612548818460208901612ba3565b84519083019061255c818360208901612ba3565b845191019061256f818360208801612ba3565b0195945050505050565b6000855161258b818460208a01612ba3565b85519083019061259f818360208a01612ba3565b85519101906125b2818360208901612ba3565b84519101906125c5818360208801612ba3565b019695505050505050565b600083516125e2818460208801612ba3565b600160fc1b9083019081528351612600816001840160208801612ba3565b01600101949350505050565b6000865161261e818460208b01612ba3565b6001600160f81b031960f888811b821692850192835287901b1660018201528451612650816002840160208901612ba3565b8451910190612666816002840160208801612ba3565b01600201979650505050505050565b600160fb1b81528151600090612692816001850160208701612ba3565b9190910160010192915050565b600060ff60f81b8460f81b16825282516126c0816001850160208701612ba3565b919091016001019392505050565b600060ff60f81b808a60f81b16835288516126f0816001860160208d01612ba3565b885190840190612707816001840160208d01612ba3565b60f898891b83166001929091019182015260028101969096529390951b9092166022840152602383015250604301949350505050565b600060ff60f81b808a60f81b168352808960f81b166001840152875161276a816002860160208c01612ba3565b8084019050818860f81b166002820152865161278d816003840160208b01612ba3565b60f89690961b91909116940160038101949094525050600482015260240195945050505050565b6000602082526106776020830184612495565b60006020825282602083015282846040840137818301604090810191909152601f909201601f19160101919050565b6000602082528251604060208401526128126060840182612495565b90506020840151601f1984830301604085015261193f8282612495565b600060208252825161016080602085015261284e610180850183612495565b9150602085015161286a60408601826001600160401b03169052565b506040850151601f19808685030160608701526128878483612495565b9350606087015191506128a560808701836001600160401b03169052565b60808701516001600160401b03811660a0880152915060a08701516001600160401b03811660c0880152915060c08701516001600160401b03811660e0880152915060e08701519150610100612905818801846001600160401b03169052565b8701519150610120612921878201846001600160401b03169052565b8701519150610140612935878201846124c1565b87015186850390910183870152905061294e8382612495565b9695505050505050565b600060208252825160208301526020830151604083015260ff60408401511660608301526060830151608080840152610aac60a0840182612495565b604051601f8201601f191681016001600160401b03811182821017156129bc576129bc612c66565b604052919050565b600082198211156129d7576129d7612c50565b500190565b60006001600160401b038083168185168083038211156129fe576129fe612c50565b01949350505050565b6000816000190483118215151615612a2157612a21612c50565b500290565b600082821015612a3857612a38612c50565b500390565b60006001600160401b0383811690831681811015612a5d57612a5d612c50565b039392505050565b6000610677368484611c55565b600061124d3683611e02565b6000610160808336031215612a91578182fd5b612a9a81612994565b905082356001600160401b0380821115612ab2578384fd5b612abe36838701611d05565b8352612acc60208601611f4b565b60208401526040850135915080821115612ae4578384fd5b612af036838701611d05565b6040840152612b0160608601611f4b565b6060840152612b1260808601611f4b565b6080840152612b2360a08601611f4b565b60a0840152612b3460c08601611f4b565b60c0840152612b4560e08601611f4b565b60e08401526101009150612b5a828601611f4b565b828401526101209150612b6e828601611d6f565b8284015261014091508185013581811115612b87578485fd5b612b9336828801611d05565b8385015250505080915050919050565b60005b83811015612bbe578181015183820152602001612ba6565b83811115612bcd576000848401525b50505050565b600181811c90821680612be757607f821691505b60208210811415612c0857634e487b7160e01b600052602260045260246000fd5b50919050565b6000600019821415612c2257612c22612c50565b5060010190565b60006001600160401b0380831681811415612c4657612c46612c50565b6001019392505050565b634e487b7160e01b600052601160045260246000fd5b634e487b7160e01b600052604160045260246000fdfea2646970667358221220ecd09a4cb7a935cd7d05006056c623c9640579cd73919f8fbcc64f1ab0718dfe64736f6c63430008030033",
  "linkReferences": {},
  "deployedLinkReferences": {}
}