{
  "_format": "hh-sol-artifact-1",
  "contractName": "LayerLightClientBridge",
  "sourceName": "contracts/bridge/LayerLightClientBridge.sol",
  "abi": [
    {
      "inputs": [
        {
          "internalType": "uint256",
          "name": "_unbondingPeriod",
          "type": "uint256"
        }
      ],
      "stateMutability": "nonpayable",
      "type": "constructor"
    },
    {
      "inputs": [
        {
          "internalType": "uint256",
          "name": "",
          "type": "uint256"
        }
      ],
      "name": "blockDetails",
      "outputs": [
        {
          "internalType": "bytes32",
          "name": "oracleHash",
          "type": "bytes32"
        },
        {
          "internalType": "uint64",
          "name": "timeSecond",
          "type": "uint64"
        },
        {
          "internalType": "uint32",
          "name": "timeNanoSecondFraction",
          "type": "uint32"
        }
      ],
      "stateMutability": "view",
      "type": "function"
    },
    {
      "inputs": [
        {
          "components": [
            {
              "internalType": "bytes",
              "name": "signedDataPrefix",
              "type": "bytes"
            },
            {
              "internalType": "bytes",
              "name": "signedDataSuffix",
              "type": "bytes"
            }
          ],
          "internalType": "struct LayerLightClientBridge.CommonEncodedVotePartData",
          "name": "_votePart",
          "type": "tuple"
        },
        {
          "internalType": "bytes32",
          "name": "_blockHash",
          "type": "bytes32"
        }
      ],
      "name": "checkPartsAndEncodedCommonParts",
      "outputs": [
        {
          "internalType": "bytes",
          "name": "",
          "type": "bytes"
        }
      ],
      "stateMutability": "pure",
      "type": "function"
    },
    {
      "inputs": [
        {
          "components": [
            {
              "internalType": "bytes32",
              "name": "r",
              "type": "bytes32"
            },
            {
              "internalType": "bytes32",
              "name": "s",
              "type": "bytes32"
            },
            {
              "internalType": "uint8",
              "name": "v",
              "type": "uint8"
            },
            {
              "internalType": "bytes",
              "name": "encodedTimestamp",
              "type": "bytes"
            }
          ],
          "internalType": "struct LayerLightClientBridge.TMSignatureData",
          "name": "_sigData",
          "type": "tuple"
        },
        {
          "internalType": "bytes",
          "name": "_commonEncodedPart",
          "type": "bytes"
        },
        {
          "internalType": "bytes",
          "name": "_encodedChainID",
          "type": "bytes"
        }
      ],
      "name": "checkTimeAndRecoverSigner",
      "outputs": [
        {
          "internalType": "address",
          "name": "",
          "type": "address"
        }
      ],
      "stateMutability": "pure",
      "type": "function"
    },
    {
      "inputs": [],
      "name": "encodedChainId",
      "outputs": [
        {
          "internalType": "bytes",
          "name": "",
          "type": "bytes"
        }
      ],
      "stateMutability": "view",
      "type": "function"
    },
    {
      "inputs": [
        {
          "components": [
            {
              "internalType": "bytes32",
              "name": "oracleIAVLStateHash",
              "type": "bytes32"
            },
            {
              "internalType": "bytes32",
              "name": "paramsStoreMerkleHash",
              "type": "bytes32"
            },
            {
              "internalType": "bytes32",
              "name": "slashingToStakingStoresMerkleHash",
              "type": "bytes32"
            },
            {
              "internalType": "bytes32",
              "name": "govToMintStoresMerkleHash",
              "type": "bytes32"
            },
            {
              "internalType": "bytes32",
              "name": "authToFeegrantStoresMerkleHash",
              "type": "bytes32"
            },
            {
              "internalType": "bytes32",
              "name": "transferToUpgradeStoresMerkleHash",
              "type": "bytes32"
            }
          ],
          "internalType": "struct LayerLightClientBridge.MultistoreData",
          "name": "_store",
          "type": "tuple"
        }
      ],
      "name": "getAppHash",
      "outputs": [
        {
          "internalType": "bytes32",
          "name": "",
          "type": "bytes32"
        }
      ],
      "stateMutability": "pure",
      "type": "function"
    },
    {
      "inputs": [
        {
          "components": [
            {
              "internalType": "bytes32",
              "name": "oracleIAVLStateHash",
              "type": "bytes32"
            },
            {
              "internalType": "bytes32",
              "name": "paramsStoreMerkleHash",
              "type": "bytes32"
            },
            {
              "internalType": "bytes32",
              "name": "slashingToStakingStoresMerkleHash",
              "type": "bytes32"
            },
            {
              "internalType": "bytes32",
              "name": "govToMintStoresMerkleHash",
              "type": "bytes32"
            },
            {
              "internalType": "bytes32",
              "name": "authToFeegrantStoresMerkleHash",
              "type": "bytes32"
            },
            {
              "internalType": "bytes32",
              "name": "transferToUpgradeStoresMerkleHash",
              "type": "bytes32"
            }
          ],
          "internalType": "struct LayerLightClientBridge.MultistoreData",
          "name": "_store",
          "type": "tuple"
        }
      ],
      "name": "getAppHash2",
      "outputs": [
        {
          "internalType": "bytes32",
          "name": "",
          "type": "bytes32"
        }
      ],
      "stateMutability": "pure",
      "type": "function"
    },
    {
      "inputs": [
        {
          "components": [
            {
              "internalType": "bytes32",
              "name": "oracleIAVLStateHash",
              "type": "bytes32"
            },
            {
              "internalType": "bytes32",
              "name": "paramsStoreMerkleHash",
              "type": "bytes32"
            },
            {
              "internalType": "bytes32",
              "name": "slashingToStakingStoresMerkleHash",
              "type": "bytes32"
            },
            {
              "internalType": "bytes32",
              "name": "govToMintStoresMerkleHash",
              "type": "bytes32"
            },
            {
              "internalType": "bytes32",
              "name": "authToFeegrantStoresMerkleHash",
              "type": "bytes32"
            },
            {
              "internalType": "bytes32",
              "name": "transferToUpgradeStoresMerkleHash",
              "type": "bytes32"
            }
          ],
          "internalType": "struct LayerLightClientBridge.MultistoreData",
          "name": "_store",
          "type": "tuple"
        }
      ],
      "name": "getAppHash3",
      "outputs": [
        {
          "internalType": "bytes32",
          "name": "",
          "type": "bytes32"
        }
      ],
      "stateMutability": "pure",
      "type": "function"
    },
    {
      "inputs": [
        {
          "components": [
            {
              "internalType": "bytes32",
              "name": "versionAndChainIdHash",
              "type": "bytes32"
            },
            {
              "internalType": "uint64",
              "name": "height",
              "type": "uint64"
            },
            {
              "internalType": "uint64",
              "name": "timeSecond",
              "type": "uint64"
            },
            {
              "internalType": "uint32",
              "name": "timeNanoSecondFraction",
              "type": "uint32"
            },
            {
              "internalType": "bytes32",
              "name": "lastBlockIdAndOther",
              "type": "bytes32"
            },
            {
              "internalType": "bytes32",
              "name": "nextValidatorHashAndConsensusHash",
              "type": "bytes32"
            },
            {
              "internalType": "bytes32",
              "name": "lastResultsHash",
              "type": "bytes32"
            },
            {
              "internalType": "bytes32",
              "name": "evidenceAndProposerHash",
              "type": "bytes32"
            }
          ],
          "internalType": "struct LayerLightClientBridge.BlockHeaderMerkleParts",
          "name": "_merkleParts",
          "type": "tuple"
        },
        {
          "internalType": "bytes32",
          "name": "_appHash",
          "type": "bytes32"
        }
      ],
      "name": "getBlockHeader",
      "outputs": [
        {
          "internalType": "bytes32",
          "name": "",
          "type": "bytes32"
        }
      ],
      "stateMutability": "pure",
      "type": "function"
    },
    {
      "inputs": [
        {
          "internalType": "address[]",
          "name": "_validators",
          "type": "address[]"
        },
        {
          "internalType": "uint256[]",
          "name": "_powers",
          "type": "uint256[]"
        },
        {
          "internalType": "string",
          "name": "_encodedChainID",
          "type": "string"
        }
      ],
      "name": "init",
      "outputs": [],
      "stateMutability": "nonpayable",
      "type": "function"
    },
    {
      "inputs": [],
      "name": "latestBlockHeight",
      "outputs": [
        {
          "internalType": "uint256",
          "name": "",
          "type": "uint256"
        }
      ],
      "stateMutability": "view",
      "type": "function"
    },
    {
      "inputs": [
        {
          "components": [
            {
              "internalType": "bytes32",
              "name": "versionAndChainIdHash",
              "type": "bytes32"
            },
            {
              "internalType": "uint64",
              "name": "height",
              "type": "uint64"
            },
            {
              "internalType": "uint64",
              "name": "timeSecond",
              "type": "uint64"
            },
            {
              "internalType": "uint32",
              "name": "timeNanoSecondFraction",
              "type": "uint32"
            },
            {
              "internalType": "bytes32",
              "name": "lastBlockIdAndOther",
              "type": "bytes32"
            },
            {
              "internalType": "bytes32",
              "name": "nextValidatorHashAndConsensusHash",
              "type": "bytes32"
            },
            {
              "internalType": "bytes32",
              "name": "lastResultsHash",
              "type": "bytes32"
            },
            {
              "internalType": "bytes32",
              "name": "evidenceAndProposerHash",
              "type": "bytes32"
            }
          ],
          "internalType": "struct LayerLightClientBridge.BlockHeaderMerkleParts",
          "name": "_merkleParts",
          "type": "tuple"
        }
      ],
      "name": "readBlockHeaderMerkleParts",
      "outputs": [
        {
          "components": [
            {
              "internalType": "bytes32",
              "name": "versionAndChainIdHash",
              "type": "bytes32"
            },
            {
              "internalType": "uint64",
              "name": "height",
              "type": "uint64"
            },
            {
              "internalType": "uint64",
              "name": "timeSecond",
              "type": "uint64"
            },
            {
              "internalType": "uint32",
              "name": "timeNanoSecondFraction",
              "type": "uint32"
            },
            {
              "internalType": "bytes32",
              "name": "lastBlockIdAndOther",
              "type": "bytes32"
            },
            {
              "internalType": "bytes32",
              "name": "nextValidatorHashAndConsensusHash",
              "type": "bytes32"
            },
            {
              "internalType": "bytes32",
              "name": "lastResultsHash",
              "type": "bytes32"
            },
            {
              "internalType": "bytes32",
              "name": "evidenceAndProposerHash",
              "type": "bytes32"
            }
          ],
          "internalType": "struct LayerLightClientBridge.BlockHeaderMerkleParts",
          "name": "",
          "type": "tuple"
        }
      ],
      "stateMutability": "pure",
      "type": "function"
    },
    {
      "inputs": [
        {
          "components": [
            {
              "internalType": "bytes",
              "name": "signedDataPrefix",
              "type": "bytes"
            },
            {
              "internalType": "bytes",
              "name": "signedDataSuffix",
              "type": "bytes"
            }
          ],
          "internalType": "struct LayerLightClientBridge.CommonEncodedVotePartData",
          "name": "_commonEncodedVotePart",
          "type": "tuple"
        }
      ],
      "name": "readCommonEncodedVotePartData",
      "outputs": [
        {
          "components": [
            {
              "internalType": "bytes",
              "name": "signedDataPrefix",
              "type": "bytes"
            },
            {
              "internalType": "bytes",
              "name": "signedDataSuffix",
              "type": "bytes"
            }
          ],
          "internalType": "struct LayerLightClientBridge.CommonEncodedVotePartData",
          "name": "",
          "type": "tuple"
        }
      ],
      "stateMutability": "pure",
      "type": "function"
    },
    {
      "inputs": [
        {
          "components": [
            {
              "internalType": "bytes32",
              "name": "oracleIAVLStateHash",
              "type": "bytes32"
            },
            {
              "internalType": "bytes32",
              "name": "paramsStoreMerkleHash",
              "type": "bytes32"
            },
            {
              "internalType": "bytes32",
              "name": "slashingToStakingStoresMerkleHash",
              "type": "bytes32"
            },
            {
              "internalType": "bytes32",
              "name": "govToMintStoresMerkleHash",
              "type": "bytes32"
            },
            {
              "internalType": "bytes32",
              "name": "authToFeegrantStoresMerkleHash",
              "type": "bytes32"
            },
            {
              "internalType": "bytes32",
              "name": "transferToUpgradeStoresMerkleHash",
              "type": "bytes32"
            }
          ],
          "internalType": "struct LayerLightClientBridge.MultistoreData",
          "name": "_multiStore",
          "type": "tuple"
        }
      ],
      "name": "readMultistoreData",
      "outputs": [
        {
          "internalType": "bytes",
          "name": "",
          "type": "bytes"
        }
      ],
      "stateMutability": "pure",
      "type": "function"
    },
    {
      "inputs": [
        {
          "components": [
            {
              "internalType": "bytes32",
              "name": "r",
              "type": "bytes32"
            },
            {
              "internalType": "bytes32",
              "name": "s",
              "type": "bytes32"
            },
            {
              "internalType": "uint8",
              "name": "v",
              "type": "uint8"
            },
            {
              "internalType": "bytes",
              "name": "encodedTimestamp",
              "type": "bytes"
            }
          ],
          "internalType": "struct LayerLightClientBridge.TMSignatureData",
          "name": "_signatureData",
          "type": "tuple"
        }
      ],
      "name": "readTMSignatureData",
      "outputs": [
        {
          "components": [
            {
              "internalType": "bytes32",
              "name": "r",
              "type": "bytes32"
            },
            {
              "internalType": "bytes32",
              "name": "s",
              "type": "bytes32"
            },
            {
              "internalType": "uint8",
              "name": "v",
              "type": "uint8"
            },
            {
              "internalType": "bytes",
              "name": "encodedTimestamp",
              "type": "bytes"
            }
          ],
          "internalType": "struct LayerLightClientBridge.TMSignatureData",
          "name": "",
          "type": "tuple"
        }
      ],
      "stateMutability": "pure",
      "type": "function"
    },
    {
      "inputs": [
        {
          "components": [
            {
              "internalType": "bytes32",
              "name": "oracleIAVLStateHash",
              "type": "bytes32"
            },
            {
              "internalType": "bytes32",
              "name": "paramsStoreMerkleHash",
              "type": "bytes32"
            },
            {
              "internalType": "bytes32",
              "name": "slashingToStakingStoresMerkleHash",
              "type": "bytes32"
            },
            {
              "internalType": "bytes32",
              "name": "govToMintStoresMerkleHash",
              "type": "bytes32"
            },
            {
              "internalType": "bytes32",
              "name": "authToFeegrantStoresMerkleHash",
              "type": "bytes32"
            },
            {
              "internalType": "bytes32",
              "name": "transferToUpgradeStoresMerkleHash",
              "type": "bytes32"
            }
          ],
          "internalType": "struct LayerLightClientBridge.MultistoreData",
          "name": "_multiStore",
          "type": "tuple"
        },
        {
          "components": [
            {
              "internalType": "bytes32",
              "name": "versionAndChainIdHash",
              "type": "bytes32"
            },
            {
              "internalType": "uint64",
              "name": "height",
              "type": "uint64"
            },
            {
              "internalType": "uint64",
              "name": "timeSecond",
              "type": "uint64"
            },
            {
              "internalType": "uint32",
              "name": "timeNanoSecondFraction",
              "type": "uint32"
            },
            {
              "internalType": "bytes32",
              "name": "lastBlockIdAndOther",
              "type": "bytes32"
            },
            {
              "internalType": "bytes32",
              "name": "nextValidatorHashAndConsensusHash",
              "type": "bytes32"
            },
            {
              "internalType": "bytes32",
              "name": "lastResultsHash",
              "type": "bytes32"
            },
            {
              "internalType": "bytes32",
              "name": "evidenceAndProposerHash",
              "type": "bytes32"
            }
          ],
          "internalType": "struct LayerLightClientBridge.BlockHeaderMerkleParts",
          "name": "_merkleParts",
          "type": "tuple"
        },
        {
          "components": [
            {
              "internalType": "bytes",
              "name": "signedDataPrefix",
              "type": "bytes"
            },
            {
              "internalType": "bytes",
              "name": "signedDataSuffix",
              "type": "bytes"
            }
          ],
          "internalType": "struct LayerLightClientBridge.CommonEncodedVotePartData",
          "name": "_commonEncodedVotePart",
          "type": "tuple"
        },
        {
          "components": [
            {
              "internalType": "bytes32",
              "name": "r",
              "type": "bytes32"
            },
            {
              "internalType": "bytes32",
              "name": "s",
              "type": "bytes32"
            },
            {
              "internalType": "uint8",
              "name": "v",
              "type": "uint8"
            },
            {
              "internalType": "bytes",
              "name": "encodedTimestamp",
              "type": "bytes"
            }
          ],
          "internalType": "struct LayerLightClientBridge.TMSignatureData[]",
          "name": "_signatures",
          "type": "tuple[]"
        }
      ],
      "name": "relayBlock",
      "outputs": [],
      "stateMutability": "nonpayable",
      "type": "function"
    },
    {
      "inputs": [],
      "name": "totalValidatorPower",
      "outputs": [
        {
          "internalType": "uint256",
          "name": "",
          "type": "uint256"
        }
      ],
      "stateMutability": "view",
      "type": "function"
    },
    {
      "inputs": [],
      "name": "unbondingPeriod",
      "outputs": [
        {
          "internalType": "uint256",
          "name": "",
          "type": "uint256"
        }
      ],
      "stateMutability": "view",
      "type": "function"
    },
    {
      "inputs": [
        {
          "internalType": "address",
          "name": "",
          "type": "address"
        }
      ],
      "name": "validatorPowers",
      "outputs": [
        {
          "internalType": "uint256",
          "name": "",
          "type": "uint256"
        }
      ],
      "stateMutability": "view",
      "type": "function"
    },
    {
      "inputs": [
        {
          "components": [
            {
              "internalType": "bytes32",
              "name": "oracleIAVLStateHash",
              "type": "bytes32"
            },
            {
              "internalType": "bytes32",
              "name": "paramsStoreMerkleHash",
              "type": "bytes32"
            },
            {
              "internalType": "bytes32",
              "name": "slashingToStakingStoresMerkleHash",
              "type": "bytes32"
            },
            {
              "internalType": "bytes32",
              "name": "govToMintStoresMerkleHash",
              "type": "bytes32"
            },
            {
              "internalType": "bytes32",
              "name": "authToFeegrantStoresMerkleHash",
              "type": "bytes32"
            },
            {
              "internalType": "bytes32",
              "name": "transferToUpgradeStoresMerkleHash",
              "type": "bytes32"
            }
          ],
          "internalType": "struct LayerLightClientBridge.MultistoreData",
          "name": "_multiStore",
          "type": "tuple"
        },
        {
          "components": [
            {
              "internalType": "bytes32",
              "name": "versionAndChainIdHash",
              "type": "bytes32"
            },
            {
              "internalType": "uint64",
              "name": "height",
              "type": "uint64"
            },
            {
              "internalType": "uint64",
              "name": "timeSecond",
              "type": "uint64"
            },
            {
              "internalType": "uint32",
              "name": "timeNanoSecondFraction",
              "type": "uint32"
            },
            {
              "internalType": "bytes32",
              "name": "lastBlockIdAndOther",
              "type": "bytes32"
            },
            {
              "internalType": "bytes32",
              "name": "nextValidatorHashAndConsensusHash",
              "type": "bytes32"
            },
            {
              "internalType": "bytes32",
              "name": "lastResultsHash",
              "type": "bytes32"
            },
            {
              "internalType": "bytes32",
              "name": "evidenceAndProposerHash",
              "type": "bytes32"
            }
          ],
          "internalType": "struct LayerLightClientBridge.BlockHeaderMerkleParts",
          "name": "_merkleParts",
          "type": "tuple"
        },
        {
          "components": [
            {
              "internalType": "bytes",
              "name": "signedDataPrefix",
              "type": "bytes"
            },
            {
              "internalType": "bytes",
              "name": "signedDataSuffix",
              "type": "bytes"
            }
          ],
          "internalType": "struct LayerLightClientBridge.CommonEncodedVotePartData",
          "name": "_commonEncodedVotePart",
          "type": "tuple"
        },
        {
          "components": [
            {
              "internalType": "bytes32",
              "name": "r",
              "type": "bytes32"
            },
            {
              "internalType": "bytes32",
              "name": "s",
              "type": "bytes32"
            },
            {
              "internalType": "uint8",
              "name": "v",
              "type": "uint8"
            },
            {
              "internalType": "bytes",
              "name": "encodedTimestamp",
              "type": "bytes"
            }
          ],
          "internalType": "struct LayerLightClientBridge.TMSignatureData[]",
          "name": "_signatures",
          "type": "tuple[]"
        }
      ],
      "name": "verifyBlockHeader",
      "outputs": [
        {
          "internalType": "bool",
          "name": "",
          "type": "bool"
        }
      ],
      "stateMutability": "view",
      "type": "function"
    },
    {
      "inputs": [
        {
          "internalType": "uint256",
          "name": "_blockHeight",
          "type": "uint256"
        },
        {
          "components": [
            {
              "internalType": "string",
              "name": "clientID",
              "type": "string"
            },
            {
              "internalType": "uint64",
              "name": "oracleScriptID",
              "type": "uint64"
            },
            {
              "internalType": "bytes",
              "name": "params",
              "type": "bytes"
            },
            {
              "internalType": "uint64",
              "name": "askCount",
              "type": "uint64"
            },
            {
              "internalType": "uint64",
              "name": "minCount",
              "type": "uint64"
            },
            {
              "internalType": "uint64",
              "name": "requestID",
              "type": "uint64"
            },
            {
              "internalType": "uint64",
              "name": "ansCount",
              "type": "uint64"
            },
            {
              "internalType": "uint64",
              "name": "requestTime",
              "type": "uint64"
            },
            {
              "internalType": "uint64",
              "name": "resolveTime",
              "type": "uint64"
            },
            {
              "internalType": "enum LayerLightClientBridge.ResolveStatus",
              "name": "resolveStatus",
              "type": "uint8"
            },
            {
              "internalType": "bytes",
              "name": "result",
              "type": "bytes"
            }
          ],
          "internalType": "struct LayerLightClientBridge.Value",
          "name": "_value",
          "type": "tuple"
        },
        {
          "internalType": "uint256",
          "name": "_oracleHeight",
          "type": "uint256"
        },
        {
          "components": [
            {
              "internalType": "bool",
              "name": "isDataOnRight",
              "type": "bool"
            },
            {
              "internalType": "uint8",
              "name": "subtreeHeight",
              "type": "uint8"
            },
            {
              "internalType": "uint256",
              "name": "subtreeSize",
              "type": "uint256"
            },
            {
              "internalType": "uint256",
              "name": "subtreeVersion",
              "type": "uint256"
            },
            {
              "internalType": "bytes32",
              "name": "siblingHash",
              "type": "bytes32"
            }
          ],
          "internalType": "struct LayerLightClientBridge.IAVLMerklePath[]",
          "name": "_merklePaths",
          "type": "tuple[]"
        }
      ],
      "name": "verifyOracleData",
      "outputs": [
        {
          "components": [
            {
              "internalType": "string",
              "name": "clientID",
              "type": "string"
            },
            {
              "internalType": "uint64",
              "name": "oracleScriptID",
              "type": "uint64"
            },
            {
              "internalType": "bytes",
              "name": "params",
              "type": "bytes"
            },
            {
              "internalType": "uint64",
              "name": "askCount",
              "type": "uint64"
            },
            {
              "internalType": "uint64",
              "name": "minCount",
              "type": "uint64"
            },
            {
              "internalType": "uint64",
              "name": "requestID",
              "type": "uint64"
            },
            {
              "internalType": "uint64",
              "name": "ansCount",
              "type": "uint64"
            },
            {
              "internalType": "uint64",
              "name": "requestTime",
              "type": "uint64"
            },
            {
              "internalType": "uint64",
              "name": "resolveTime",
              "type": "uint64"
            },
            {
              "internalType": "enum LayerLightClientBridge.ResolveStatus",
              "name": "resolveStatus",
              "type": "uint8"
            },
            {
              "internalType": "bytes",
              "name": "result",
              "type": "bytes"
            }
          ],
          "internalType": "struct LayerLightClientBridge.Value",
          "name": "",
          "type": "tuple"
        }
      ],
      "stateMutability": "view",
      "type": "function"
    }
  ],
  "bytecode": "0x60806040523480156200001157600080fd5b50604051620048f0380380620048f083398181016040528101906200003791906200005c565b8060028190555050620000ac565b600081519050620000568162000092565b92915050565b6000602082840312156200006f57600080fd5b60006200007f8482850162000045565b91505092915050565b6000819050919050565b6200009d8162000088565b8114620000a957600080fd5b50565b61483480620000bc6000396000f3fe608060405234801561001057600080fd5b506004361061012c5760003560e01c8063847c1b23116100ad578063e71296e111610071578063e71296e1146103b5578063f3f39ee5146103e5578063f61aa09d14610403578063f8156a6e14610433578063f953205a146104515761012c565b8063847c1b23146102ed57806393a4a1341461031d578063af4b910714610339578063c573d97714610355578063cc2532ba146103855761012c565b80635cd2458c116100f45780635cd2458c1461022157806364c4719314610251578063679b7b9a1461026f5780636cf6d6751461029f578063760729c3146102bd5761012c565b8063071ee1e1146101315780630a4723e6146101615780630ac804c5146101915780631b60f867146101c15780632ff08eb5146101f1575b600080fd5b61014b6004803603810190610146919061310f565b610483565b6040516101589190613c9b565b60405180910390f35b61017b60048036038101906101769190612eb6565b6105ec565b6040516101889190613eca565b60405180910390f35b6101ab60048036038101906101a6919061300f565b610616565b6040516101b89190613cd1565b60405180910390f35b6101db60048036038101906101d69190612e4e565b6106ff565b6040516101e89190613eae565b60405180910390f35b61020b600480360381019061020691906130ce565b61070f565b6040516102189190613eec565b60405180910390f35b61023b60048036038101906102369190612ef7565b61071f565b6040516102489190613d68565b60405180910390f35b6102596107f5565b6040516102669190613d68565b60405180910390f35b6102896004803603810190610284919061300f565b610883565b6040516102969190613d68565b60405180910390f35b6102a76108ce565b6040516102b49190613f30565b60405180910390f35b6102d760048036038101906102d2919061300f565b6108d4565b6040516102e49190613cd1565b60405180910390f35b61030760048036038101906103029190612e78565b6109db565b6040516103149190613cd1565b60405180910390f35b61033760048036038101906103329190612d81565b610ac4565b005b610353600480360381019061034e9190612f74565b610c9e565b005b61036f600480360381019061036a91906131cf565b610e0a565b60405161037c9190613f0e565b60405180910390f35b61039f600480360381019061039a9190613038565b610fc5565b6040516103ac9190613cb6565b60405180910390f35b6103cf60048036038101906103ca919061300f565b611225565b6040516103dc9190613cd1565b60405180910390f35b6103ed61132c565b6040516103fa9190613f30565b60405180910390f35b61041d60048036038101906104189190612d58565b611332565b60405161042a9190613f30565b60405180910390f35b61043b61134a565b6040516104489190613f30565b60405180910390f35b61046b600480360381019061046691906131a6565b611350565b60405161047a93929190613cec565b60405180910390f35b60008360600151516006111580156104a15750600c84606001515111155b6104e0576040517f08c379a00000000000000000000000000000000000000000000000000000000081526004016104d790613e6e565b60405180910390fd5b600083602a866060015151876060015186604051602001610505959493929190613a1a565b60405160208183030381529060405290506001600282518360405160200161052e929190613b18565b60405160208183030381529060405260405161054a9190613930565b602060405180830381855afa158015610567573d6000803e3d6000fd5b5050506040513d601f19601f8201168201806040525081019061058a9190612e25565b866040015187600001518860200151604051600081526020016040526040516105b69493929190613d23565b6020604051602081039080840390855afa1580156105d8573d6000803e3d6000fd5b505050602060405103519150509392505050565b6105f46122bf565b610601826000015161139e565b61060e826020015161139e565b819050919050565b6000806106f46106ea84608001516106e586606001516106e088604001516106db6106d160028c6000015160405160200161065191906138a5565b60405160208183030381529060405260405161066d9190613930565b602060405180830381855afa15801561068a573d6000803e3d6000fd5b5050506040513d601f19601f820116820180604052508101906106ad9190612e25565b6040516020016106bd9190613a93565b604051602081830303815290604052611437565b8b602001516114b2565b6114b2565b6114b2565b6114b2565b8460a001516114b2565b905080915050919050565b6107076122d9565b819050919050565b610717612347565b819050919050565b6060600f836000015151148061073a57506018836000015151145b610779576040517f08c379a000000000000000000000000000000000000000000000000000000000815260040161077090613dce565b60405180910390fd5b6026836020015151146107c1576040517f08c379a00000000000000000000000000000000000000000000000000000000081526004016107b890613dae565b60405180910390fd5b82600001518284602001516040516020016107de93929190613947565b604051602081830303815290604052905092915050565b60008054610802906142e9565b80601f016020809104026020016040519081016040528092919081815260200182805461082e906142e9565b801561087b5780601f106108505761010080835404028352916020019161087b565b820191906000526020600020905b81548152906001019060200180831161085e57829003601f168201915b505050505081565b6060816000015182602001518360400151846060015185608001518660a001516040516020016108b8969594939291906138c0565b6040516020818303038152906040529050919050565b60025481565b600080610971600284600001516040516020016108f191906138a5565b60405160208183030381529060405260405161090d9190613930565b602060405180830381855afa15801561092a573d6000803e3d6000fd5b5050506040513d601f19601f8201168201806040525081019061094d9190612e25565b60405160200161095d9190613a6d565b604051602081830303815290604052611437565b905060006109838285602001516114b2565b905060006109958560400151836114b2565b905060006109a78660600151836114b2565b905060006109b98760800151836114b2565b905060006109cb828960a001516114b2565b9050809650505050505050919050565b600080610ab8610a5e610a548660000151610a4f610a306008610a0b8b6020015167ffffffffffffffff16611530565b604051602001610a1c929190613b18565b604051602081830303815290604052611437565b610a4a610a458b604001518c606001516116fb565b611437565b6114b2565b6114b2565b86608001516114b2565b610ab3610aa98760a00151610aa4610a9a600a60208b604051602001610a8693929190613be5565b604051602081830303815290604052611437565b8a60c001516114b2565b6114b2565b8760e001516114b2565b6114b2565b90508091505092915050565b6000808054610ad2906142e9565b905014610b14576040517f08c379a0000000000000000000000000000000000000000000000000000000008152600401610b0b90613e2e565b60405180910390fd5b60005b86869050811015610c5d57848482818110610b5b577f4e487b7100000000000000000000000000000000000000000000000000000000600052603260045260246000fd5b9050602002013560046000898985818110610b9f577f4e487b7100000000000000000000000000000000000000000000000000000000600052603260045260246000fd5b9050602002016020810190610bb49190612d58565b73ffffffffffffffffffffffffffffffffffffffff1673ffffffffffffffffffffffffffffffffffffffff16815260200190815260200160002081905550848482818110610c2b577f4e487b7100000000000000000000000000000000000000000000000000000000600052603260045260246000fd5b9050602002013560016000828254610c43919061406e565b925050819055508080610c559061434c565b915050610b17565b508181604051602001610c71929190613d8a565b60405160208183030381529060405260009080519060200190610c95929190612378565b50505050505050565b610cdf85803603810190610cb2919061300f565b85803603810190610cc39190612e4e565b85610ccd90614281565b858590610cda919061425a565b610fc5565b610d1e576040517f08c379a0000000000000000000000000000000000000000000000000000000008152600401610d1590613dee565b60405180910390fd5b604051806060016040528086600001358152602001856040016020810190610d469190613290565b67ffffffffffffffff168152602001856060016020810190610d689190613267565b63ffffffff1681525060056000866020016020810190610d889190613290565b67ffffffffffffffff1681526020019081526020016000206000820151816000015560208201518160010160006101000a81548167ffffffffffffffff021916908367ffffffffffffffff16021790555060408201518160010160086101000a81548163ffffffff021916908363ffffffff1602179055509050505050505050565b610e126123fe565b6000600560008881526020019081526020016000206000015490506000801b811415610e73576040517f08c379a0000000000000000000000000000000000000000000000000000000008152600401610e6a90613e0e565b60405180910390fd5b60006002610e8988610e8490614294565b61177f565b604051610e969190613930565b602060405180830381855afa158015610eb3573d6000803e3d6000fd5b5050506040513d601f19601f82011682018060405250810190610ed69190612e25565b9050610f6f828760ff8a60a0016020810190610ef29190613290565b604051602001610f03929190613bb9565b604051602081830303815290604052848989808060200260200160405190810160405280939291908181526020016000905b82821015610f6557848483905060a00201803603810190610f569190612f4b565b81526020019060010190610f35565b5050505050611e03565b610fae576040517f08c379a0000000000000000000000000000000000000000000000000000000008152600401610fa590613e4e565b60405180910390fd5b86610fb890614294565b9250505095945050505050565b600080610fd186611225565b90506000610fdf86836109db565b90506000610fed868361071f565b90506000808054610ffd906142e9565b80601f0160208091040260200160405190810160405280929190818152602001828054611029906142e9565b80156110765780601f1061104b57610100808354040283529160200191611076565b820191906000526020600020905b81548152906001019060200180831161105957829003601f168201915b5050505050905060008060005b88518110156111f65760006110d98a83815181106110ca577f4e487b7100000000000000000000000000000000000000000000000000000000600052603260045260246000fd5b60200260200101518787610483565b90508373ffffffffffffffffffffffffffffffffffffffff168173ffffffffffffffffffffffffffffffffffffffff1611611149576040517f08c379a000000000000000000000000000000000000000000000000000000000815260040161114090613e8e565b60405180910390fd5b6000600460008373ffffffffffffffffffffffffffffffffffffffff1673ffffffffffffffffffffffffffffffffffffffff1681526020019081526020016000205411156111df57600460008273ffffffffffffffffffffffffffffffffffffffff1673ffffffffffffffffffffffffffffffffffffffff16815260200190815260200160002054836111dc919061406e565b92505b8093505080806111ee9061434c565b915050611083565b5060026001546112069190614102565b6003826112139190614102565b10159650505050505050949350505050565b6000806112c26002846000015160405160200161124291906138a5565b60405160208183030381529060405260405161125e9190613930565b602060405180830381855afa15801561127b573d6000803e3d6000fd5b5050506040513d601f19601f8201168201806040525081019061129e9190612e25565b6040516020016112ae9190613a6d565b604051602081830303815290604052611437565b905060006112d48460200151836114b2565b905060006112e68560400151836114b2565b905060006112f88660600151836114b2565b9050600061130a8760800151836114b2565b9050600061131c828960a001516114b2565b9050809650505050505050919050565b60035481565b60046020528060005260406000206000915090505481565b60015481565b60056020528060005260406000206000915090508060000154908060010160009054906101000a900467ffffffffffffffff16908060010160089054906101000a900463ffffffff16905083565b611434816040516024016113b29190613d68565b6040516020818303038152906040527f0be77f56000000000000000000000000000000000000000000000000000000007bffffffffffffffffffffffffffffffffffffffffffffffffffffffff19166020820180517bffffffffffffffffffffffffffffffffffffffffffffffffffffffff8381831617835250505050611f10565b50565b6000600260008360405160200161144f929190613b18565b60405160208183030381529060405260405161146b9190613930565b602060405180830381855afa158015611488573d6000803e3d6000fd5b5050506040513d601f19601f820116820180604052508101906114ab9190612e25565b9050919050565b60006002600184846040516020016114cc93929190613adb565b6040516020818303038152906040526040516114e89190613930565b602060405180830381855afa158015611505573d6000803e3d6000fd5b5050506040513d601f19601f820116820180604052508101906115289190612e25565b905092915050565b6060600082905060005b600082111561155b578061154d9061434c565b9050600782901c915061153a565b60008167ffffffffffffffff81111561159d577f4e487b7100000000000000000000000000000000000000000000000000000000600052604160045260246000fd5b6040519080825280601f01601f1916602001820160405280156115cf5781602001600182028036833780820191505090505b50905084925060005b8281101561166a57607f841660801760f81b828281518110611623577f4e487b7100000000000000000000000000000000000000000000000000000000600052603260045260246000fd5b60200101907effffffffffffffffffffffffffffffffffffffffffffffffffffffffffffff1916908160001a905350600784901c9350806116639061434c565b90506115d8565b50607f60f81b8160018461167e919061415c565b815181106116b5577f4e487b7100000000000000000000000000000000000000000000000000000000600052603260045260246000fd5b6020010181815160f81c60f81b169150907effffffffffffffffffffffffffffffffffffffffffffffffffffffffffffff1916908160001a905350809350505050919050565b606060006117128467ffffffffffffffff16611530565b6040516020016117229190613ab9565b604051602081830303815290604052905060008363ffffffff16111561177557806117528463ffffffff16611530565b6040516020016117639291906139eb565b60405160208183030381529060405290505b8091505092915050565b6060806000836000015151111561180d57806117d56001600260068111156117d0577f4e487b7100000000000000000000000000000000000000000000000000000000600052602160045260246000fd5b611f2a565b6117e3856000015151611f59565b85600001516040516020016117fb94939291906139ad565b60405160208183030381529060405290505b6000836020015167ffffffffffffffff16146118995780611868600260006006811115611863577f4e487b7100000000000000000000000000000000000000000000000000000000600052602160045260246000fd5b611f2a565b6118758560200151611f59565b6040516020016118879392919061397c565b60405160208183030381529060405290505b6000836040015151111561192457806118ec6003600260068111156118e7577f4e487b7100000000000000000000000000000000000000000000000000000000600052602160045260246000fd5b611f2a565b6118fa856040015151611f59565b856040015160405160200161191294939291906139ad565b60405160208183030381529060405290505b6000836060015167ffffffffffffffff16146119b0578061197f60046000600681111561197a577f4e487b7100000000000000000000000000000000000000000000000000000000600052602160045260246000fd5b611f2a565b61198c8560600151611f59565b60405160200161199e9392919061397c565b60405160208183030381529060405290505b6000836080015167ffffffffffffffff1614611a3c5780611a0b600560006006811115611a06577f4e487b7100000000000000000000000000000000000000000000000000000000600052602160045260246000fd5b611f2a565b611a188560800151611f59565b604051602001611a2a9392919061397c565b60405160208183030381529060405290505b60008360a0015167ffffffffffffffff1614611ac85780611a97600660006006811115611a92577f4e487b7100000000000000000000000000000000000000000000000000000000600052602160045260246000fd5b611f2a565b611aa48560a00151611f59565b604051602001611ab69392919061397c565b60405160208183030381529060405290505b60008360c0015167ffffffffffffffff1614611b545780611b23600760006006811115611b1e577f4e487b7100000000000000000000000000000000000000000000000000000000600052602160045260246000fd5b611f2a565b611b308560c00151611f59565b604051602001611b429392919061397c565b60405160208183030381529060405290505b60008360e0015167ffffffffffffffff1614611be05780611baf600860006006811115611baa577f4e487b7100000000000000000000000000000000000000000000000000000000600052602160045260246000fd5b611f2a565b611bbc8560e00151611f59565b604051602001611bce9392919061397c565b60405160208183030381529060405290505b600083610100015167ffffffffffffffff1614611c6e5780611c3c600960006006811115611c37577f4e487b7100000000000000000000000000000000000000000000000000000000600052602160045260246000fd5b611f2a565b611c4a856101000151611f59565b604051602001611c5c9392919061397c565b60405160208183030381529060405290505b60008361012001516003811115611cae577f4e487b7100000000000000000000000000000000000000000000000000000000600052602160045260246000fd5b67ffffffffffffffff1614611d6c5780611d02600a60006006811115611cfd577f4e487b7100000000000000000000000000000000000000000000000000000000600052602160045260246000fd5b611f2a565b611d488561012001516003811115611d43577f4e487b7100000000000000000000000000000000000000000000000000000000600052602160045260246000fd5b611f6b565b604051602001611d5a9392919061397c565b60405160208183030381529060405290505b6000836101400151511115611dfa5780611dc0600b60026006811115611dbb577f4e487b7100000000000000000000000000000000000000000000000000000000600052602160045260246000fd5b611f2a565b611dcf85610140015151611f59565b856101400151604051602001611de894939291906139ad565b60405160208183030381529060405290505b80915050919050565b600080611e0f86611530565b905060006002600060028489518a60208b604051602001611e369796959493929190613c22565b604051602081830303815290604052604051611e529190613930565b602060405180830381855afa158015611e6f573d6000803e3d6000fd5b5050506040513d601f19601f82011682018060405250810190611e929190612e25565b905060005b8451811015611eff57611eea858281518110611edc577f4e487b7100000000000000000000000000000000000000000000000000000000600052603260045260246000fd5b602002602001015183611f83565b91508080611ef79061434c565b915050611e97565b508781149250505095945050505050565b611f2781611f1f612051612072565b63ffffffff16565b50565b606060008260038567ffffffffffffffff16901b1790506000611f4c8261207d565b9050809250505092915050565b6060611f648261207d565b9050919050565b6060611f7c8263ffffffff1661207d565b9050919050565b60008060008460000151611f9c57838560800151611fa3565b8460800151845b9150915060026001866020015160ff16901b611fc287604001516122a1565b611fcf88606001516122a1565b602086602087604051602001611feb9796959493929190613b40565b6040516020818303038152906040526040516120079190613930565b602060405180830381855afa158015612024573d6000803e3d6000fd5b5050506040513d601f19601f820116820180604052508101906120479190612e25565b9250505092915050565b60006a636f6e736f6c652e6c6f679050600080835160208501845afa505050565b6124d6819050919050565b606060008290506000600190505b607f8267ffffffffffffffff1611156120c35760078267ffffffffffffffff16901c91506001816120bc91906140c4565b905061208b565b60008167ffffffffffffffff1667ffffffffffffffff81111561210f577f4e487b7100000000000000000000000000000000000000000000000000000000600052604160045260246000fd5b6040519080825280601f01601f1916602001820160405280156121415781602001600182028036833780820191505090505b50905084925060005b8267ffffffffffffffff168167ffffffffffffffff16101561220657607f841660801760f81b828267ffffffffffffffff16815181106121b3577f4e487b7100000000000000000000000000000000000000000000000000000000600052603260045260246000fd5b60200101907effffffffffffffffffffffffffffffffffffffffffffffffffffffffffffff1916908160001a90535060078467ffffffffffffffff16901c935080806121fe90614395565b91505061214a565b50607f60f81b8160018461221a9190614190565b67ffffffffffffffff168151811061225b577f4e487b7100000000000000000000000000000000000000000000000000000000600052603260045260246000fd5b6020010181815160f81c60f81b169150907effffffffffffffffffffffffffffffffffffffffffffffffffffffffffffff1916908160001a905350809350505050919050565b60606122b86002836122b39190614102565b611530565b9050919050565b604051806040016040528060608152602001606081525090565b60405180610100016040528060008019168152602001600067ffffffffffffffff168152602001600067ffffffffffffffff168152602001600063ffffffff168152602001600080191681526020016000801916815260200160008019168152602001600080191681525090565b60405180608001604052806000801916815260200160008019168152602001600060ff168152602001606081525090565b828054612384906142e9565b90600052602060002090601f0160209004810192826123a657600085556123ed565b82601f106123bf57805160ff19168380011785556123ed565b828001600101855582156123ed579182015b828111156123ec5782518255916020019190600101906123d1565b5b5090506123fa9190612505565b5090565b60405180610160016040528060608152602001600067ffffffffffffffff16815260200160608152602001600067ffffffffffffffff168152602001600067ffffffffffffffff168152602001600067ffffffffffffffff168152602001600067ffffffffffffffff168152602001600067ffffffffffffffff168152602001600067ffffffffffffffff168152602001600060038111156124c9577f4e487b7100000000000000000000000000000000000000000000000000000000600052602160045260246000fd5b8152602001606081525090565b7f4e487b7100000000000000000000000000000000000000000000000000000000600052605160045260246000fd5b5b8082111561251e576000816000905550600101612506565b5090565b600061253561253084613f70565b613f4b565b9050808382526020820190508260005b85811015612575578135850161255b8882612b0c565b845260208401935060208301925050600181019050612545565b5050509392505050565b600061259261258d84613f9c565b613f4b565b9050828152602081018484840111156125aa57600080fd5b6125b58482856142a7565b509392505050565b60006125d06125cb84613fcd565b613f4b565b9050828152602081018484840111156125e857600080fd5b6125f38482856142a7565b509392505050565b60008135905061260a8161474d565b92915050565b60008083601f84011261262257600080fd5b8235905067ffffffffffffffff81111561263b57600080fd5b60208301915083602082028301111561265357600080fd5b9250929050565b60008083601f84011261266c57600080fd5b8235905067ffffffffffffffff81111561268557600080fd5b6020830191508360a082028301111561269d57600080fd5b9250929050565b60008083601f8401126126b657600080fd5b8235905067ffffffffffffffff8111156126cf57600080fd5b6020830191508360208202830111156126e757600080fd5b9250929050565b600082601f8301126126ff57600080fd5b813561270f848260208601612522565b91505092915050565b60008083601f84011261272a57600080fd5b8235905067ffffffffffffffff81111561274357600080fd5b60208301915083602082028301111561275b57600080fd5b9250929050565b60008135905061277181614764565b92915050565b6000813590506127868161477b565b92915050565b60008151905061279b8161477b565b92915050565b600082601f8301126127b257600080fd5b81356127c284826020860161257f565b91505092915050565b6000813590506127da81614792565b92915050565b60008083601f8401126127f257600080fd5b8235905067ffffffffffffffff81111561280b57600080fd5b60208301915083600182028301111561282357600080fd5b9250929050565b600082601f83011261283b57600080fd5b813561284b8482602086016125bd565b91505092915050565b6000610100828403121561286757600080fd5b81905092915050565b6000610100828403121561288357600080fd5b61288e610100613f4b565b9050600061289e84828501612777565b60008301525060206128b284828501612d2e565b60208301525060406128c684828501612d2e565b60408301525060606128da84828501612d19565b60608301525060806128ee84828501612777565b60808301525060a061290284828501612777565b60a08301525060c061291684828501612777565b60c08301525060e061292a84828501612777565b60e08301525092915050565b60006040828403121561294857600080fd5b81905092915050565b60006040828403121561296357600080fd5b61296d6040613f4b565b9050600082013567ffffffffffffffff81111561298957600080fd5b612995848285016127a1565b600083015250602082013567ffffffffffffffff8111156129b557600080fd5b6129c1848285016127a1565b60208301525092915050565b600060a082840312156129df57600080fd5b6129e960a0613f4b565b905060006129f984828501612762565b6000830152506020612a0d84828501612d43565b6020830152506040612a2184828501612d04565b6040830152506060612a3584828501612d04565b6060830152506080612a4984828501612777565b60808301525092915050565b600060c08284031215612a6757600080fd5b81905092915050565b600060c08284031215612a8257600080fd5b612a8c60c0613f4b565b90506000612a9c84828501612777565b6000830152506020612ab084828501612777565b6020830152506040612ac484828501612777565b6040830152506060612ad884828501612777565b6060830152506080612aec84828501612777565b60808301525060a0612b0084828501612777565b60a08301525092915050565b600060808284031215612b1e57600080fd5b612b286080613f4b565b90506000612b3884828501612777565b6000830152506020612b4c84828501612777565b6020830152506040612b6084828501612d43565b604083015250606082013567ffffffffffffffff811115612b8057600080fd5b612b8c848285016127a1565b60608301525092915050565b60006101608284031215612bab57600080fd5b81905092915050565b60006101608284031215612bc757600080fd5b612bd2610160613f4b565b9050600082013567ffffffffffffffff811115612bee57600080fd5b612bfa8482850161282a565b6000830152506020612c0e84828501612d2e565b602083015250604082013567ffffffffffffffff811115612c2e57600080fd5b612c3a848285016127a1565b6040830152506060612c4e84828501612d2e565b6060830152506080612c6284828501612d2e565b60808301525060a0612c7684828501612d2e565b60a08301525060c0612c8a84828501612d2e565b60c08301525060e0612c9e84828501612d2e565b60e083015250610100612cb384828501612d2e565b61010083015250610120612cc9848285016127cb565b6101208301525061014082013567ffffffffffffffff811115612ceb57600080fd5b612cf7848285016127a1565b6101408301525092915050565b600081359050612d13816147a2565b92915050565b600081359050612d28816147b9565b92915050565b600081359050612d3d816147d0565b92915050565b600081359050612d52816147e7565b92915050565b600060208284031215612d6a57600080fd5b6000612d78848285016125fb565b91505092915050565b60008060008060008060608789031215612d9a57600080fd5b600087013567ffffffffffffffff811115612db457600080fd5b612dc089828a01612610565b9650965050602087013567ffffffffffffffff811115612ddf57600080fd5b612deb89828a01612718565b9450945050604087013567ffffffffffffffff811115612e0a57600080fd5b612e1689828a016127e0565b92509250509295509295509295565b600060208284031215612e3757600080fd5b6000612e458482850161278c565b91505092915050565b60006101008284031215612e6157600080fd5b6000612e6f84828501612870565b91505092915050565b6000806101208385031215612e8c57600080fd5b6000612e9a85828601612870565b925050610100612eac85828601612777565b9150509250929050565b600060208284031215612ec857600080fd5b600082013567ffffffffffffffff811115612ee257600080fd5b612eee84828501612951565b91505092915050565b60008060408385031215612f0a57600080fd5b600083013567ffffffffffffffff811115612f2457600080fd5b612f3085828601612951565b9250506020612f4185828601612777565b9150509250929050565b600060a08284031215612f5d57600080fd5b6000612f6b848285016129cd565b91505092915050565b60008060008060006102008688031215612f8d57600080fd5b6000612f9b88828901612a55565b95505060c0612fac88828901612854565b9450506101c086013567ffffffffffffffff811115612fca57600080fd5b612fd688828901612936565b9350506101e086013567ffffffffffffffff811115612ff457600080fd5b613000888289016126a4565b92509250509295509295909350565b600060c0828403121561302157600080fd5b600061302f84828501612a70565b91505092915050565b600080600080610200858703121561304f57600080fd5b600061305d87828801612a70565b94505060c061306e87828801612870565b9350506101c085013567ffffffffffffffff81111561308c57600080fd5b61309887828801612951565b9250506101e085013567ffffffffffffffff8111156130b657600080fd5b6130c2878288016126ee565b91505092959194509250565b6000602082840312156130e057600080fd5b600082013567ffffffffffffffff8111156130fa57600080fd5b61310684828501612b0c565b91505092915050565b60008060006060848603121561312457600080fd5b600084013567ffffffffffffffff81111561313e57600080fd5b61314a86828701612b0c565b935050602084013567ffffffffffffffff81111561316757600080fd5b613173868287016127a1565b925050604084013567ffffffffffffffff81111561319057600080fd5b61319c868287016127a1565b9150509250925092565b6000602082840312156131b857600080fd5b60006131c684828501612d04565b91505092915050565b6000806000806000608086880312156131e757600080fd5b60006131f588828901612d04565b955050602086013567ffffffffffffffff81111561321257600080fd5b61321e88828901612b98565b945050604061322f88828901612d04565b935050606086013567ffffffffffffffff81111561324c57600080fd5b6132588882890161265a565b92509250509295509295909350565b60006020828403121561327957600080fd5b600061328784828501612d19565b91505092915050565b6000602082840312156132a257600080fd5b60006132b084828501612d2e565b91505092915050565b6132c2816141c4565b82525050565b6132d1816141d6565b82525050565b6132e0816141e2565b82525050565b6132ef816141e2565b82525050565b613306613301826141e2565b6143c6565b82525050565b600061331782613ffe565b6133218185614014565b93506133318185602086016142b6565b61333a816144b0565b840191505092915050565b600061335082613ffe565b61335a8185614025565b935061336a8185602086016142b6565b613373816144b0565b840191505092915050565b600061338982613ffe565b6133938185614036565b93506133a38185602086016142b6565b80840191505092915050565b6133b88161426f565b82525050565b60006133ca8385614052565b93506133d78385846142a7565b6133e0836144b0565b840190509392505050565b60006133f682614009565b6134008185614041565b93506134108185602086016142b6565b613419816144b0565b840191505092915050565b6000613431600883614063565b915061343c826144db565b600882019050919050565b6000613454602c83614052565b915061345f82614504565b604082019050919050565b6000613477602c83614052565b915061348282614553565b604082019050919050565b600061349a601483614052565b91506134a5826145a2565b602082019050919050565b60006134bd601683614052565b91506134c8826145cb565b602082019050919050565b60006134e0600183614063565b91506134eb826145f4565b600182019050919050565b6000613503600883614063565b915061350e8261461d565b600882019050919050565b6000613526600183614063565b915061353182614646565b600182019050919050565b6000613549601383614052565b91506135548261466f565b602082019050919050565b600061356c600d83614052565b915061357782614698565b602082019050919050565b600061358f602583614052565b915061359a826146c1565b604082019050919050565b60006135b2601483614052565b91506135bd82614710565b602082019050919050565b610100820160008201516135df60008501826132d7565b5060208201516135f2602085018261383b565b506040820151613605604085018261383b565b506060820151613618606085018261381d565b50608082015161362b60808501826132d7565b5060a082015161363e60a08501826132d7565b5060c082015161365160c08501826132d7565b5060e082015161366460e08501826132d7565b50505050565b60006040830160008301518482036000860152613687828261330c565b915050602083015184820360208601526136a1828261330c565b9150508091505092915050565b60006080830160008301516136c660008601826132d7565b5060208301516136d960208601826132d7565b5060408301516136ec6040860182613870565b5060608301518482036060860152613704828261330c565b9150508091505092915050565b600061016083016000830151848203600086015261372f82826133eb565b9150506020830151613744602086018261383b565b506040830151848203604086015261375c828261330c565b9150506060830151613771606086018261383b565b506080830151613784608086018261383b565b5060a083015161379760a086018261383b565b5060c08301516137aa60c086018261383b565b5060e08301516137bd60e086018261383b565b506101008301516137d261010086018261383b565b506101208301516137e76101208601826133af565b50610140830151848203610140860152613801828261330c565b9150508091505092915050565b6138178161421f565b82525050565b61382681614229565b82525050565b61383581614229565b82525050565b61384481614239565b82525050565b61385381614239565b82525050565b61386a61386582614239565b6143d0565b82525050565b6138798161424d565b82525050565b6138888161424d565b82525050565b61389f61389a8261424d565b6143e2565b82525050565b60006138b182846132f5565b60208201915081905092915050565b60006138cc82896132f5565b6020820191506138dc82886132f5565b6020820191506138ec82876132f5565b6020820191506138fc82866132f5565b60208201915061390c82856132f5565b60208201915061391c82846132f5565b602082019150819050979650505050505050565b600061393c828461337e565b915081905092915050565b6000613953828661337e565b915061395f82856132f5565b60208201915061396f828461337e565b9150819050949350505050565b6000613988828661337e565b9150613994828561337e565b91506139a0828461337e565b9150819050949350505050565b60006139b9828761337e565b91506139c5828661337e565b91506139d1828561337e565b91506139dd828461337e565b915081905095945050505050565b60006139f7828561337e565b9150613a02826134d3565b9150613a0e828461337e565b91508190509392505050565b6000613a26828861337e565b9150613a32828761388e565b600182019150613a42828661388e565b600182019150613a52828561337e565b9150613a5e828461337e565b91508190509695505050505050565b6000613a7882613424565b9150613a8482846132f5565b60208201915081905092915050565b6000613a9e826134f6565b9150613aaa82846132f5565b60208201915081905092915050565b6000613ac482613519565b9150613ad0828461337e565b915081905092915050565b6000613ae7828661388e565b600182019150613af782856132f5565b602082019150613b0782846132f5565b602082019150819050949350505050565b6000613b24828561388e565b600182019150613b34828461337e565b91508190509392505050565b6000613b4c828a61388e565b600182019150613b5c828961337e565b9150613b68828861337e565b9150613b74828761388e565b600182019150613b8482866132f5565b602082019150613b94828561388e565b600182019150613ba482846132f5565b60208201915081905098975050505050505050565b6000613bc5828561388e565b600182019150613bd58284613859565b6008820191508190509392505050565b6000613bf1828661388e565b600182019150613c01828561388e565b600182019150613c1182846132f5565b602082019150819050949350505050565b6000613c2e828a61388e565b600182019150613c3e828961388e565b600182019150613c4e828861337e565b9150613c5a828761388e565b600182019150613c6a828661337e565b9150613c76828561388e565b600182019150613c8682846132f5565b60208201915081905098975050505050505050565b6000602082019050613cb060008301846132b9565b92915050565b6000602082019050613ccb60008301846132c8565b92915050565b6000602082019050613ce660008301846132e6565b92915050565b6000606082019050613d0160008301866132e6565b613d0e602083018561384a565b613d1b604083018461382c565b949350505050565b6000608082019050613d3860008301876132e6565b613d45602083018661387f565b613d5260408301856132e6565b613d5f60608301846132e6565b95945050505050565b60006020820190508181036000830152613d828184613345565b905092915050565b60006020820190508181036000830152613da58184866133be565b90509392505050565b60006020820190508181036000830152613dc781613447565b9050919050565b60006020820190508181036000830152613de78161346a565b9050919050565b60006020820190508181036000830152613e078161348d565b9050919050565b60006020820190508181036000830152613e27816134b0565b9050919050565b60006020820190508181036000830152613e478161353c565b9050919050565b60006020820190508181036000830152613e678161355f565b9050919050565b60006020820190508181036000830152613e8781613582565b9050919050565b60006020820190508181036000830152613ea7816135a5565b9050919050565b600061010082019050613ec460008301846135c8565b92915050565b60006020820190508181036000830152613ee4818461366a565b905092915050565b60006020820190508181036000830152613f0681846136ae565b905092915050565b60006020820190508181036000830152613f288184613711565b905092915050565b6000602082019050613f45600083018461380e565b92915050565b6000613f55613f66565b9050613f61828261431b565b919050565b6000604051905090565b600067ffffffffffffffff821115613f8b57613f8a614481565b5b602082029050602081019050919050565b600067ffffffffffffffff821115613fb757613fb6614481565b5b613fc0826144b0565b9050602081019050919050565b600067ffffffffffffffff821115613fe857613fe7614481565b5b613ff1826144b0565b9050602081019050919050565b600081519050919050565b600081519050919050565b600082825260208201905092915050565b600082825260208201905092915050565b600081905092915050565b600082825260208201905092915050565b600082825260208201905092915050565b600081905092915050565b60006140798261421f565b91506140848361421f565b9250827fffffffffffffffffffffffffffffffffffffffffffffffffffffffffffffffff038211156140b9576140b86143f4565b5b828201905092915050565b60006140cf82614239565b91506140da83614239565b92508267ffffffffffffffff038211156140f7576140f66143f4565b5b828201905092915050565b600061410d8261421f565b91506141188361421f565b9250817fffffffffffffffffffffffffffffffffffffffffffffffffffffffffffffffff0483118215151615614151576141506143f4565b5b828202905092915050565b60006141678261421f565b91506141728361421f565b925082821015614185576141846143f4565b5b828203905092915050565b600061419b82614239565b91506141a683614239565b9250828210156141b9576141b86143f4565b5b828203905092915050565b60006141cf826141ff565b9050919050565b60008115159050919050565b6000819050919050565b60008190506141fa82614739565b919050565b600073ffffffffffffffffffffffffffffffffffffffff82169050919050565b6000819050919050565b600063ffffffff82169050919050565b600067ffffffffffffffff82169050919050565b600060ff82169050919050565b6000614267368484612522565b905092915050565b600061427a826141ec565b9050919050565b600061428d3683612951565b9050919050565b60006142a03683612bb4565b9050919050565b82818337600083830152505050565b60005b838110156142d45780820151818401526020810190506142b9565b838111156142e3576000848401525b50505050565b6000600282049050600182168061430157607f821691505b6020821081141561431557614314614452565b5b50919050565b614324826144b0565b810181811067ffffffffffffffff8211171561434357614342614481565b5b80604052505050565b60006143578261421f565b91507fffffffffffffffffffffffffffffffffffffffffffffffffffffffffffffffff82141561438a576143896143f4565b5b600182019050919050565b60006143a082614239565b915067ffffffffffffffff8214156143bb576143ba6143f4565b5b600182019050919050565b6000819050919050565b60006143db826144c1565b9050919050565b60006143ed826144ce565b9050919050565b7f4e487b7100000000000000000000000000000000000000000000000000000000600052601160045260246000fd5b7f4e487b7100000000000000000000000000000000000000000000000000000000600052602160045260246000fd5b7f4e487b7100000000000000000000000000000000000000000000000000000000600052602260045260246000fd5b7f4e487b7100000000000000000000000000000000000000000000000000000000600052604160045260246000fd5b6000601f19601f8301169050919050565b60008160c01b9050919050565b60008160f81b9050919050565b7f066f7261636c6520000000000000000000000000000000000000000000000000600082015250565b7f436f6d6d6f6e456e636f646564566f7465506172743a20496e76616c6964207360008201527f756666697827732073697a650000000000000000000000000000000000000000602082015250565b7f436f6d6d6f6e456e636f646564566f7465506172743a20496e76616c6964207060008201527f726566697827732073697a650000000000000000000000000000000000000000602082015250565b7f496e76616c696420626c6f636b20686561646572000000000000000000000000600082015250565b7f4e6f20726f6f7420617420746869732068656967687400000000000000000000600082015250565b7f1000000000000000000000000000000000000000000000000000000000000000600082015250565b7f086f7261636c6520000000000000000000000000000000000000000000000000600082015250565b7f0800000000000000000000000000000000000000000000000000000000000000600082015250565b7f416c726561647920696e697469616c697a656400000000000000000000000000600082015250565b7f496e76616c69642070726f6f6600000000000000000000000000000000000000600082015250565b7f544d5369676e61747572653a20496e76616c69642074696d657374616d70277360008201527f2073697a65000000000000000000000000000000000000000000000000000000602082015250565b7f496e76616c6964207369676e6572206f72646572000000000000000000000000600082015250565b6004811061474a57614749614423565b5b50565b614756816141c4565b811461476157600080fd5b50565b61476d816141d6565b811461477857600080fd5b50565b614784816141e2565b811461478f57600080fd5b50565b6004811061479f57600080fd5b50565b6147ab8161421f565b81146147b657600080fd5b50565b6147c281614229565b81146147cd57600080fd5b50565b6147d981614239565b81146147e457600080fd5b50565b6147f08161424d565b81146147fb57600080fd5b5056fea2646970667358221220d132dd755952f01da7770fb62006379a2a0fc91f279005c09a9a269c7eec839264736f6c63430008030033",
  "linkReferences": {},
  "deployedLinkReferences": {}
}