{
  "_format": "hh-sol-artifact-1",
  "contractName": "LayerLightClientBridge",
  "sourceName": "contracts/bridge/LayerLightClientBridge.sol",
  "abi": [
    {
      "inputs": [
        {
          "internalType": "uint256",
          "name": "_unbondingPeriod",
          "type": "uint256"
        }
      ],
      "stateMutability": "nonpayable",
      "type": "constructor"
    },
    {
      "inputs": [
        {
          "internalType": "uint256",
          "name": "",
          "type": "uint256"
        }
      ],
      "name": "blockDetails",
      "outputs": [
        {
          "internalType": "bytes32",
          "name": "oracleHash",
          "type": "bytes32"
        },
        {
          "internalType": "uint64",
          "name": "timeSecond",
          "type": "uint64"
        },
        {
          "internalType": "uint32",
          "name": "timeNanoSecondFraction",
          "type": "uint32"
        }
      ],
      "stateMutability": "view",
      "type": "function"
    },
    {
      "inputs": [
        {
          "components": [
            {
              "internalType": "bytes",
              "name": "signedDataPrefix",
              "type": "bytes"
            },
            {
              "internalType": "bytes",
              "name": "signedDataSuffix",
              "type": "bytes"
            }
          ],
          "internalType": "struct LayerLightClientBridge.CommonEncodedVotePartData",
          "name": "_votePart",
          "type": "tuple"
        },
        {
          "internalType": "bytes32",
          "name": "_blockHash",
          "type": "bytes32"
        }
      ],
      "name": "checkPartsAndEncodedCommonParts",
      "outputs": [
        {
          "internalType": "bytes",
          "name": "",
          "type": "bytes"
        }
      ],
      "stateMutability": "pure",
      "type": "function"
    },
    {
      "inputs": [
        {
          "components": [
            {
              "internalType": "bytes32",
              "name": "r",
              "type": "bytes32"
            },
            {
              "internalType": "bytes32",
              "name": "s",
              "type": "bytes32"
            },
            {
              "internalType": "uint8",
              "name": "v",
              "type": "uint8"
            },
            {
              "internalType": "bytes",
              "name": "encodedTimestamp",
              "type": "bytes"
            }
          ],
          "internalType": "struct LayerLightClientBridge.TMSignatureData",
          "name": "_sigData",
          "type": "tuple"
        },
        {
          "internalType": "bytes",
          "name": "_commonEncodedPart",
          "type": "bytes"
        },
        {
          "internalType": "bytes",
          "name": "_encodedChainID",
          "type": "bytes"
        }
      ],
      "name": "checkTimeAndRecoverSigner",
      "outputs": [
        {
          "internalType": "address",
          "name": "",
          "type": "address"
        }
      ],
      "stateMutability": "pure",
      "type": "function"
    },
    {
      "inputs": [],
      "name": "encodedChainId",
      "outputs": [
        {
          "internalType": "bytes",
          "name": "",
          "type": "bytes"
        }
      ],
      "stateMutability": "view",
      "type": "function"
    },
    {
      "inputs": [
        {
          "components": [
            {
              "internalType": "bytes32",
              "name": "oracleIAVLStateHash",
              "type": "bytes32"
            },
            {
              "internalType": "bytes32",
              "name": "paramsStoreMerkleHash",
              "type": "bytes32"
            },
            {
              "internalType": "bytes32",
              "name": "slashingToStakingStoresMerkleHash",
              "type": "bytes32"
            },
            {
              "internalType": "bytes32",
              "name": "govToMintStoresMerkleHash",
              "type": "bytes32"
            },
            {
              "internalType": "bytes32",
              "name": "authToFeegrantStoresMerkleHash",
              "type": "bytes32"
            },
            {
              "internalType": "bytes32",
              "name": "transferToUpgradeStoresMerkleHash",
              "type": "bytes32"
            }
          ],
          "internalType": "struct LayerLightClientBridge.MultistoreData",
          "name": "_store",
          "type": "tuple"
        }
      ],
      "name": "getAppHash",
      "outputs": [
        {
          "internalType": "bytes32",
          "name": "",
          "type": "bytes32"
        }
      ],
      "stateMutability": "pure",
      "type": "function"
    },
    {
      "inputs": [
        {
          "components": [
            {
              "internalType": "bytes32",
              "name": "oracleIAVLStateHash",
              "type": "bytes32"
            },
            {
              "internalType": "bytes32",
              "name": "paramsStoreMerkleHash",
              "type": "bytes32"
            },
            {
              "internalType": "bytes32",
              "name": "slashingToStakingStoresMerkleHash",
              "type": "bytes32"
            },
            {
              "internalType": "bytes32",
              "name": "govToMintStoresMerkleHash",
              "type": "bytes32"
            },
            {
              "internalType": "bytes32",
              "name": "authToFeegrantStoresMerkleHash",
              "type": "bytes32"
            },
            {
              "internalType": "bytes32",
              "name": "transferToUpgradeStoresMerkleHash",
              "type": "bytes32"
            }
          ],
          "internalType": "struct LayerLightClientBridge.MultistoreData",
          "name": "_store",
          "type": "tuple"
        }
      ],
      "name": "getAppHash2",
      "outputs": [
        {
          "internalType": "bytes32",
          "name": "",
          "type": "bytes32"
        }
      ],
      "stateMutability": "pure",
      "type": "function"
    },
    {
      "inputs": [
        {
          "components": [
            {
              "internalType": "bytes32",
              "name": "versionAndChainIdHash",
              "type": "bytes32"
            },
            {
              "internalType": "uint64",
              "name": "height",
              "type": "uint64"
            },
            {
              "internalType": "uint64",
              "name": "timeSecond",
              "type": "uint64"
            },
            {
              "internalType": "uint32",
              "name": "timeNanoSecondFraction",
              "type": "uint32"
            },
            {
              "internalType": "bytes32",
              "name": "lastBlockIdAndOther",
              "type": "bytes32"
            },
            {
              "internalType": "bytes32",
              "name": "nextValidatorHashAndConsensusHash",
              "type": "bytes32"
            },
            {
              "internalType": "bytes32",
              "name": "lastResultsHash",
              "type": "bytes32"
            },
            {
              "internalType": "bytes32",
              "name": "evidenceAndProposerHash",
              "type": "bytes32"
            }
          ],
          "internalType": "struct LayerLightClientBridge.BlockHeaderMerkleParts",
          "name": "_merkleParts",
          "type": "tuple"
        },
        {
          "internalType": "bytes32",
          "name": "_appHash",
          "type": "bytes32"
        }
      ],
      "name": "getBlockHeader",
      "outputs": [
        {
          "internalType": "bytes32",
          "name": "",
          "type": "bytes32"
        }
      ],
      "stateMutability": "pure",
      "type": "function"
    },
    {
      "inputs": [
        {
          "internalType": "address[]",
          "name": "_validators",
          "type": "address[]"
        },
        {
          "internalType": "uint256[]",
          "name": "_powers",
          "type": "uint256[]"
        },
        {
          "internalType": "string",
          "name": "_encodedChainID",
          "type": "string"
        }
      ],
      "name": "init",
      "outputs": [],
      "stateMutability": "nonpayable",
      "type": "function"
    },
    {
      "inputs": [],
      "name": "latestBlockHeight",
      "outputs": [
        {
          "internalType": "uint256",
          "name": "",
          "type": "uint256"
        }
      ],
      "stateMutability": "view",
      "type": "function"
    },
    {
      "inputs": [
        {
          "components": [
            {
              "internalType": "bytes32",
              "name": "versionAndChainIdHash",
              "type": "bytes32"
            },
            {
              "internalType": "uint64",
              "name": "height",
              "type": "uint64"
            },
            {
              "internalType": "uint64",
              "name": "timeSecond",
              "type": "uint64"
            },
            {
              "internalType": "uint32",
              "name": "timeNanoSecondFraction",
              "type": "uint32"
            },
            {
              "internalType": "bytes32",
              "name": "lastBlockIdAndOther",
              "type": "bytes32"
            },
            {
              "internalType": "bytes32",
              "name": "nextValidatorHashAndConsensusHash",
              "type": "bytes32"
            },
            {
              "internalType": "bytes32",
              "name": "lastResultsHash",
              "type": "bytes32"
            },
            {
              "internalType": "bytes32",
              "name": "evidenceAndProposerHash",
              "type": "bytes32"
            }
          ],
          "internalType": "struct LayerLightClientBridge.BlockHeaderMerkleParts",
          "name": "_merkleParts",
          "type": "tuple"
        }
      ],
      "name": "readBlockHeaderMerkleParts",
      "outputs": [
        {
          "components": [
            {
              "internalType": "bytes32",
              "name": "versionAndChainIdHash",
              "type": "bytes32"
            },
            {
              "internalType": "uint64",
              "name": "height",
              "type": "uint64"
            },
            {
              "internalType": "uint64",
              "name": "timeSecond",
              "type": "uint64"
            },
            {
              "internalType": "uint32",
              "name": "timeNanoSecondFraction",
              "type": "uint32"
            },
            {
              "internalType": "bytes32",
              "name": "lastBlockIdAndOther",
              "type": "bytes32"
            },
            {
              "internalType": "bytes32",
              "name": "nextValidatorHashAndConsensusHash",
              "type": "bytes32"
            },
            {
              "internalType": "bytes32",
              "name": "lastResultsHash",
              "type": "bytes32"
            },
            {
              "internalType": "bytes32",
              "name": "evidenceAndProposerHash",
              "type": "bytes32"
            }
          ],
          "internalType": "struct LayerLightClientBridge.BlockHeaderMerkleParts",
          "name": "",
          "type": "tuple"
        }
      ],
      "stateMutability": "pure",
      "type": "function"
    },
    {
      "inputs": [
        {
          "components": [
            {
              "internalType": "bytes",
              "name": "signedDataPrefix",
              "type": "bytes"
            },
            {
              "internalType": "bytes",
              "name": "signedDataSuffix",
              "type": "bytes"
            }
          ],
          "internalType": "struct LayerLightClientBridge.CommonEncodedVotePartData",
          "name": "_commonEncodedVotePart",
          "type": "tuple"
        }
      ],
      "name": "readCommonEncodedVotePartData",
      "outputs": [
        {
          "components": [
            {
              "internalType": "bytes",
              "name": "signedDataPrefix",
              "type": "bytes"
            },
            {
              "internalType": "bytes",
              "name": "signedDataSuffix",
              "type": "bytes"
            }
          ],
          "internalType": "struct LayerLightClientBridge.CommonEncodedVotePartData",
          "name": "",
          "type": "tuple"
        }
      ],
      "stateMutability": "pure",
      "type": "function"
    },
    {
      "inputs": [
        {
          "components": [
            {
              "internalType": "bytes32",
              "name": "oracleIAVLStateHash",
              "type": "bytes32"
            },
            {
              "internalType": "bytes32",
              "name": "paramsStoreMerkleHash",
              "type": "bytes32"
            },
            {
              "internalType": "bytes32",
              "name": "slashingToStakingStoresMerkleHash",
              "type": "bytes32"
            },
            {
              "internalType": "bytes32",
              "name": "govToMintStoresMerkleHash",
              "type": "bytes32"
            },
            {
              "internalType": "bytes32",
              "name": "authToFeegrantStoresMerkleHash",
              "type": "bytes32"
            },
            {
              "internalType": "bytes32",
              "name": "transferToUpgradeStoresMerkleHash",
              "type": "bytes32"
            }
          ],
          "internalType": "struct LayerLightClientBridge.MultistoreData",
          "name": "_multiStore",
          "type": "tuple"
        }
      ],
      "name": "readMultistoreData",
      "outputs": [
        {
          "internalType": "bytes",
          "name": "",
          "type": "bytes"
        }
      ],
      "stateMutability": "pure",
      "type": "function"
    },
    {
      "inputs": [
        {
          "components": [
            {
              "internalType": "bytes32",
              "name": "r",
              "type": "bytes32"
            },
            {
              "internalType": "bytes32",
              "name": "s",
              "type": "bytes32"
            },
            {
              "internalType": "uint8",
              "name": "v",
              "type": "uint8"
            },
            {
              "internalType": "bytes",
              "name": "encodedTimestamp",
              "type": "bytes"
            }
          ],
          "internalType": "struct LayerLightClientBridge.TMSignatureData",
          "name": "_signatureData",
          "type": "tuple"
        }
      ],
      "name": "readTMSignatureData",
      "outputs": [
        {
          "components": [
            {
              "internalType": "bytes32",
              "name": "r",
              "type": "bytes32"
            },
            {
              "internalType": "bytes32",
              "name": "s",
              "type": "bytes32"
            },
            {
              "internalType": "uint8",
              "name": "v",
              "type": "uint8"
            },
            {
              "internalType": "bytes",
              "name": "encodedTimestamp",
              "type": "bytes"
            }
          ],
          "internalType": "struct LayerLightClientBridge.TMSignatureData",
          "name": "",
          "type": "tuple"
        }
      ],
      "stateMutability": "pure",
      "type": "function"
    },
    {
      "inputs": [
        {
          "components": [
            {
              "internalType": "bytes32",
              "name": "oracleIAVLStateHash",
              "type": "bytes32"
            },
            {
              "internalType": "bytes32",
              "name": "paramsStoreMerkleHash",
              "type": "bytes32"
            },
            {
              "internalType": "bytes32",
              "name": "slashingToStakingStoresMerkleHash",
              "type": "bytes32"
            },
            {
              "internalType": "bytes32",
              "name": "govToMintStoresMerkleHash",
              "type": "bytes32"
            },
            {
              "internalType": "bytes32",
              "name": "authToFeegrantStoresMerkleHash",
              "type": "bytes32"
            },
            {
              "internalType": "bytes32",
              "name": "transferToUpgradeStoresMerkleHash",
              "type": "bytes32"
            }
          ],
          "internalType": "struct LayerLightClientBridge.MultistoreData",
          "name": "_multiStore",
          "type": "tuple"
        },
        {
          "components": [
            {
              "internalType": "bytes32",
              "name": "versionAndChainIdHash",
              "type": "bytes32"
            },
            {
              "internalType": "uint64",
              "name": "height",
              "type": "uint64"
            },
            {
              "internalType": "uint64",
              "name": "timeSecond",
              "type": "uint64"
            },
            {
              "internalType": "uint32",
              "name": "timeNanoSecondFraction",
              "type": "uint32"
            },
            {
              "internalType": "bytes32",
              "name": "lastBlockIdAndOther",
              "type": "bytes32"
            },
            {
              "internalType": "bytes32",
              "name": "nextValidatorHashAndConsensusHash",
              "type": "bytes32"
            },
            {
              "internalType": "bytes32",
              "name": "lastResultsHash",
              "type": "bytes32"
            },
            {
              "internalType": "bytes32",
              "name": "evidenceAndProposerHash",
              "type": "bytes32"
            }
          ],
          "internalType": "struct LayerLightClientBridge.BlockHeaderMerkleParts",
          "name": "_merkleParts",
          "type": "tuple"
        },
        {
          "components": [
            {
              "internalType": "bytes",
              "name": "signedDataPrefix",
              "type": "bytes"
            },
            {
              "internalType": "bytes",
              "name": "signedDataSuffix",
              "type": "bytes"
            }
          ],
          "internalType": "struct LayerLightClientBridge.CommonEncodedVotePartData",
          "name": "_commonEncodedVotePart",
          "type": "tuple"
        },
        {
          "components": [
            {
              "internalType": "bytes32",
              "name": "r",
              "type": "bytes32"
            },
            {
              "internalType": "bytes32",
              "name": "s",
              "type": "bytes32"
            },
            {
              "internalType": "uint8",
              "name": "v",
              "type": "uint8"
            },
            {
              "internalType": "bytes",
              "name": "encodedTimestamp",
              "type": "bytes"
            }
          ],
          "internalType": "struct LayerLightClientBridge.TMSignatureData[]",
          "name": "_signatures",
          "type": "tuple[]"
        }
      ],
      "name": "relayBlock",
      "outputs": [],
      "stateMutability": "nonpayable",
      "type": "function"
    },
    {
      "inputs": [],
      "name": "totalValidatorPower",
      "outputs": [
        {
          "internalType": "uint256",
          "name": "",
          "type": "uint256"
        }
      ],
      "stateMutability": "view",
      "type": "function"
    },
    {
      "inputs": [],
      "name": "unbondingPeriod",
      "outputs": [
        {
          "internalType": "uint256",
          "name": "",
          "type": "uint256"
        }
      ],
      "stateMutability": "view",
      "type": "function"
    },
    {
      "inputs": [
        {
          "internalType": "address",
          "name": "",
          "type": "address"
        }
      ],
      "name": "validatorPowers",
      "outputs": [
        {
          "internalType": "uint256",
          "name": "",
          "type": "uint256"
        }
      ],
      "stateMutability": "view",
      "type": "function"
    },
    {
      "inputs": [
        {
          "components": [
            {
              "internalType": "bytes32",
              "name": "oracleIAVLStateHash",
              "type": "bytes32"
            },
            {
              "internalType": "bytes32",
              "name": "paramsStoreMerkleHash",
              "type": "bytes32"
            },
            {
              "internalType": "bytes32",
              "name": "slashingToStakingStoresMerkleHash",
              "type": "bytes32"
            },
            {
              "internalType": "bytes32",
              "name": "govToMintStoresMerkleHash",
              "type": "bytes32"
            },
            {
              "internalType": "bytes32",
              "name": "authToFeegrantStoresMerkleHash",
              "type": "bytes32"
            },
            {
              "internalType": "bytes32",
              "name": "transferToUpgradeStoresMerkleHash",
              "type": "bytes32"
            }
          ],
          "internalType": "struct LayerLightClientBridge.MultistoreData",
          "name": "_multiStore",
          "type": "tuple"
        },
        {
          "components": [
            {
              "internalType": "bytes32",
              "name": "versionAndChainIdHash",
              "type": "bytes32"
            },
            {
              "internalType": "uint64",
              "name": "height",
              "type": "uint64"
            },
            {
              "internalType": "uint64",
              "name": "timeSecond",
              "type": "uint64"
            },
            {
              "internalType": "uint32",
              "name": "timeNanoSecondFraction",
              "type": "uint32"
            },
            {
              "internalType": "bytes32",
              "name": "lastBlockIdAndOther",
              "type": "bytes32"
            },
            {
              "internalType": "bytes32",
              "name": "nextValidatorHashAndConsensusHash",
              "type": "bytes32"
            },
            {
              "internalType": "bytes32",
              "name": "lastResultsHash",
              "type": "bytes32"
            },
            {
              "internalType": "bytes32",
              "name": "evidenceAndProposerHash",
              "type": "bytes32"
            }
          ],
          "internalType": "struct LayerLightClientBridge.BlockHeaderMerkleParts",
          "name": "_merkleParts",
          "type": "tuple"
        },
        {
          "components": [
            {
              "internalType": "bytes",
              "name": "signedDataPrefix",
              "type": "bytes"
            },
            {
              "internalType": "bytes",
              "name": "signedDataSuffix",
              "type": "bytes"
            }
          ],
          "internalType": "struct LayerLightClientBridge.CommonEncodedVotePartData",
          "name": "_commonEncodedVotePart",
          "type": "tuple"
        },
        {
          "components": [
            {
              "internalType": "bytes32",
              "name": "r",
              "type": "bytes32"
            },
            {
              "internalType": "bytes32",
              "name": "s",
              "type": "bytes32"
            },
            {
              "internalType": "uint8",
              "name": "v",
              "type": "uint8"
            },
            {
              "internalType": "bytes",
              "name": "encodedTimestamp",
              "type": "bytes"
            }
          ],
          "internalType": "struct LayerLightClientBridge.TMSignatureData[]",
          "name": "_signatures",
          "type": "tuple[]"
        }
      ],
      "name": "verifyBlockHeader",
      "outputs": [
        {
          "internalType": "bool",
          "name": "",
          "type": "bool"
        }
      ],
      "stateMutability": "view",
      "type": "function"
    },
    {
      "inputs": [
        {
          "internalType": "uint256",
          "name": "_blockHeight",
          "type": "uint256"
        },
        {
          "components": [
            {
              "internalType": "string",
              "name": "clientID",
              "type": "string"
            },
            {
              "internalType": "uint64",
              "name": "oracleScriptID",
              "type": "uint64"
            },
            {
              "internalType": "bytes",
              "name": "params",
              "type": "bytes"
            },
            {
              "internalType": "uint64",
              "name": "askCount",
              "type": "uint64"
            },
            {
              "internalType": "uint64",
              "name": "minCount",
              "type": "uint64"
            },
            {
              "internalType": "uint64",
              "name": "requestID",
              "type": "uint64"
            },
            {
              "internalType": "uint64",
              "name": "ansCount",
              "type": "uint64"
            },
            {
              "internalType": "uint64",
              "name": "requestTime",
              "type": "uint64"
            },
            {
              "internalType": "uint64",
              "name": "resolveTime",
              "type": "uint64"
            },
            {
              "internalType": "enum LayerLightClientBridge.ResolveStatus",
              "name": "resolveStatus",
              "type": "uint8"
            },
            {
              "internalType": "bytes",
              "name": "result",
              "type": "bytes"
            }
          ],
          "internalType": "struct LayerLightClientBridge.Value",
          "name": "_value",
          "type": "tuple"
        },
        {
          "internalType": "uint256",
          "name": "_oracleHeight",
          "type": "uint256"
        },
        {
          "components": [
            {
              "internalType": "bool",
              "name": "isDataOnRight",
              "type": "bool"
            },
            {
              "internalType": "uint8",
              "name": "subtreeHeight",
              "type": "uint8"
            },
            {
              "internalType": "uint256",
              "name": "subtreeSize",
              "type": "uint256"
            },
            {
              "internalType": "uint256",
              "name": "subtreeVersion",
              "type": "uint256"
            },
            {
              "internalType": "bytes32",
              "name": "siblingHash",
              "type": "bytes32"
            }
          ],
          "internalType": "struct LayerLightClientBridge.IAVLMerklePath[]",
          "name": "_merklePaths",
          "type": "tuple[]"
        }
      ],
      "name": "verifyOracleData",
      "outputs": [
        {
          "components": [
            {
              "internalType": "string",
              "name": "clientID",
              "type": "string"
            },
            {
              "internalType": "uint64",
              "name": "oracleScriptID",
              "type": "uint64"
            },
            {
              "internalType": "bytes",
              "name": "params",
              "type": "bytes"
            },
            {
              "internalType": "uint64",
              "name": "askCount",
              "type": "uint64"
            },
            {
              "internalType": "uint64",
              "name": "minCount",
              "type": "uint64"
            },
            {
              "internalType": "uint64",
              "name": "requestID",
              "type": "uint64"
            },
            {
              "internalType": "uint64",
              "name": "ansCount",
              "type": "uint64"
            },
            {
              "internalType": "uint64",
              "name": "requestTime",
              "type": "uint64"
            },
            {
              "internalType": "uint64",
              "name": "resolveTime",
              "type": "uint64"
            },
            {
              "internalType": "enum LayerLightClientBridge.ResolveStatus",
              "name": "resolveStatus",
              "type": "uint8"
            },
            {
              "internalType": "bytes",
              "name": "result",
              "type": "bytes"
            }
          ],
          "internalType": "struct LayerLightClientBridge.Value",
          "name": "",
          "type": "tuple"
        }
      ],
      "stateMutability": "view",
      "type": "function"
    }
  ],
  "bytecode": "0x60806040523480156200001157600080fd5b50604051620047ae380380620047ae83398181016040528101906200003791906200005c565b8060028190555050620000ac565b600081519050620000568162000092565b92915050565b6000602082840312156200006f57600080fd5b60006200007f8482850162000045565b91505092915050565b6000819050919050565b6200009d8162000088565b8114620000a957600080fd5b50565b6146f280620000bc6000396000f3fe608060405234801561001057600080fd5b50600436106101215760003560e01c8063847c1b23116100ad578063e71296e111610071578063e71296e11461037a578063f3f39ee5146103aa578063f61aa09d146103c8578063f8156a6e146103f8578063f953205a1461041657610121565b8063847c1b23146102b257806393a4a134146102e2578063af4b9107146102fe578063c573d9771461031a578063cc2532ba1461034a57610121565b80632ff08eb5116100f45780632ff08eb5146101e65780635cd2458c1461021657806364c4719314610246578063679b7b9a146102645780636cf6d6751461029457610121565b8063071ee1e1146101265780630a4723e6146101565780630ac804c5146101865780631b60f867146101b6575b600080fd5b610140600480360381019061013b9190612fcd565b610448565b60405161014d9190613b59565b60405180910390f35b610170600480360381019061016b9190612d74565b6105b1565b60405161017d9190613d88565b60405180910390f35b6101a0600480360381019061019b9190612ecd565b6105db565b6040516101ad9190613b8f565b60405180910390f35b6101d060048036038101906101cb9190612d0c565b6106c4565b6040516101dd9190613d6c565b60405180910390f35b61020060048036038101906101fb9190612f8c565b6106d4565b60405161020d9190613daa565b60405180910390f35b610230600480360381019061022b9190612db5565b6106e4565b60405161023d9190613c26565b60405180910390f35b61024e6107ba565b60405161025b9190613c26565b60405180910390f35b61027e60048036038101906102799190612ecd565b610848565b60405161028b9190613c26565b60405180910390f35b61029c610893565b6040516102a99190613dee565b60405180910390f35b6102cc60048036038101906102c79190612d36565b610899565b6040516102d99190613b8f565b60405180910390f35b6102fc60048036038101906102f79190612c3f565b610982565b005b61031860048036038101906103139190612e32565b610b5c565b005b610334600480360381019061032f919061308d565b610cc8565b6040516103419190613dcc565b60405180910390f35b610364600480360381019061035f9190612ef6565b610e83565b6040516103719190613b74565b60405180910390f35b610394600480360381019061038f9190612ecd565b6110e3565b6040516103a19190613b8f565b60405180910390f35b6103b26111ea565b6040516103bf9190613dee565b60405180910390f35b6103e260048036038101906103dd9190612c16565b6111f0565b6040516103ef9190613dee565b60405180910390f35b610400611208565b60405161040d9190613dee565b60405180910390f35b610430600480360381019061042b9190613064565b61120e565b60405161043f93929190613baa565b60405180910390f35b60008360600151516006111580156104665750600c84606001515111155b6104a5576040517f08c379a000000000000000000000000000000000000000000000000000000000815260040161049c90613d2c565b60405180910390fd5b600083602a8660600151518760600151866040516020016104ca9594939291906138d8565b6040516020818303038152906040529050600160028251836040516020016104f39291906139d6565b60405160208183030381529060405260405161050f91906137ee565b602060405180830381855afa15801561052c573d6000803e3d6000fd5b5050506040513d601f19601f8201168201806040525081019061054f9190612ce3565b8660400151876000015188602001516040516000815260200160405260405161057b9493929190613be1565b6020604051602081039080840390855afa15801561059d573d6000803e3d6000fd5b505050602060405103519150509392505050565b6105b961217d565b6105c6826000015161125c565b6105d3826020015161125c565b819050919050565b6000806106b96106af84608001516106aa86606001516106a588604001516106a061069660028c600001516040516020016106169190613763565b60405160208183030381529060405260405161063291906137ee565b602060405180830381855afa15801561064f573d6000803e3d6000fd5b5050506040513d601f19601f820116820180604052508101906106729190612ce3565b604051602001610682919061392b565b6040516020818303038152906040526112f5565b8b60200151611370565b611370565b611370565b611370565b8460a00151611370565b905080915050919050565b6106cc612197565b819050919050565b6106dc612205565b819050919050565b6060600f83600001515114806106ff57506018836000015151145b61073e576040517f08c379a000000000000000000000000000000000000000000000000000000000815260040161073590613c8c565b60405180910390fd5b602683602001515114610786576040517f08c379a000000000000000000000000000000000000000000000000000000000815260040161077d90613c6c565b60405180910390fd5b82600001518284602001516040516020016107a393929190613805565b604051602081830303815290604052905092915050565b600080546107c7906141a7565b80601f01602080910402602001604051908101604052809291908181526020018280546107f3906141a7565b80156108405780601f1061081557610100808354040283529160200191610840565b820191906000526020600020905b81548152906001019060200180831161082357829003601f168201915b505050505081565b6060816000015182602001518360400151846060015185608001518660a0015160405160200161087d9695949392919061377e565b6040516020818303038152906040529050919050565b60025481565b60008061097661091c610912866000015161090d6108ee60086108c98b6020015167ffffffffffffffff166113ee565b6040516020016108da9291906139d6565b6040516020818303038152906040526112f5565b6109086109038b604001518c606001516115b9565b6112f5565b611370565b611370565b8660800151611370565b6109716109678760a00151610962610958600a60208b60405160200161094493929190613aa3565b6040516020818303038152906040526112f5565b8a60c00151611370565b611370565b8760e00151611370565b611370565b90508091505092915050565b6000808054610990906141a7565b9050146109d2576040517f08c379a00000000000000000000000000000000000000000000000000000000081526004016109c990613cec565b60405180910390fd5b60005b86869050811015610b1b57848482818110610a19577f4e487b7100000000000000000000000000000000000000000000000000000000600052603260045260246000fd5b9050602002013560046000898985818110610a5d577f4e487b7100000000000000000000000000000000000000000000000000000000600052603260045260246000fd5b9050602002016020810190610a729190612c16565b73ffffffffffffffffffffffffffffffffffffffff1673ffffffffffffffffffffffffffffffffffffffff16815260200190815260200160002081905550848482818110610ae9577f4e487b7100000000000000000000000000000000000000000000000000000000600052603260045260246000fd5b9050602002013560016000828254610b019190613f2c565b925050819055508080610b139061420a565b9150506109d5565b508181604051602001610b2f929190613c48565b60405160208183030381529060405260009080519060200190610b53929190612236565b50505050505050565b610b9d85803603810190610b709190612ecd565b85803603810190610b819190612d0c565b85610b8b9061413f565b858590610b989190614118565b610e83565b610bdc576040517f08c379a0000000000000000000000000000000000000000000000000000000008152600401610bd390613cac565b60405180910390fd5b604051806060016040528086600001358152602001856040016020810190610c04919061314e565b67ffffffffffffffff168152602001856060016020810190610c269190613125565b63ffffffff1681525060056000866020016020810190610c46919061314e565b67ffffffffffffffff1681526020019081526020016000206000820151816000015560208201518160010160006101000a81548167ffffffffffffffff021916908367ffffffffffffffff16021790555060408201518160010160086101000a81548163ffffffff021916908363ffffffff1602179055509050505050505050565b610cd06122bc565b6000600560008881526020019081526020016000206000015490506000801b811415610d31576040517f08c379a0000000000000000000000000000000000000000000000000000000008152600401610d2890613ccc565b60405180910390fd5b60006002610d4788610d4290614152565b61163d565b604051610d5491906137ee565b602060405180830381855afa158015610d71573d6000803e3d6000fd5b5050506040513d601f19601f82011682018060405250810190610d949190612ce3565b9050610e2d828760ff8a60a0016020810190610db0919061314e565b604051602001610dc1929190613a77565b604051602081830303815290604052848989808060200260200160405190810160405280939291908181526020016000905b82821015610e2357848483905060a00201803603810190610e149190612e09565b81526020019060010190610df3565b5050505050611cc1565b610e6c576040517f08c379a0000000000000000000000000000000000000000000000000000000008152600401610e6390613d0c565b60405180910390fd5b86610e7690614152565b9250505095945050505050565b600080610e8f866110e3565b90506000610e9d8683610899565b90506000610eab86836106e4565b90506000808054610ebb906141a7565b80601f0160208091040260200160405190810160405280929190818152602001828054610ee7906141a7565b8015610f345780601f10610f0957610100808354040283529160200191610f34565b820191906000526020600020905b815481529060010190602001808311610f1757829003601f168201915b5050505050905060008060005b88518110156110b4576000610f978a8381518110610f88577f4e487b7100000000000000000000000000000000000000000000000000000000600052603260045260246000fd5b60200260200101518787610448565b90508373ffffffffffffffffffffffffffffffffffffffff168173ffffffffffffffffffffffffffffffffffffffff1611611007576040517f08c379a0000000000000000000000000000000000000000000000000000000008152600401610ffe90613d4c565b60405180910390fd5b6000600460008373ffffffffffffffffffffffffffffffffffffffff1673ffffffffffffffffffffffffffffffffffffffff16815260200190815260200160002054111561109d57600460008273ffffffffffffffffffffffffffffffffffffffff1673ffffffffffffffffffffffffffffffffffffffff168152602001908152602001600020548361109a9190613f2c565b92505b8093505080806110ac9061420a565b915050610f41565b5060026001546110c49190613fc0565b6003826110d19190613fc0565b10159650505050505050949350505050565b600080611180600284600001516040516020016111009190613763565b60405160208183030381529060405260405161111c91906137ee565b602060405180830381855afa158015611139573d6000803e3d6000fd5b5050506040513d601f19601f8201168201806040525081019061115c9190612ce3565b60405160200161116c9190613951565b6040516020818303038152906040526112f5565b90506000611192828560200151611370565b905060006111a4856040015183611370565b905060006111b6866060015183611370565b905060006111c8876080015183611370565b905060006111da828960a00151611370565b9050809650505050505050919050565b60035481565b60046020528060005260406000206000915090505481565b60015481565b60056020528060005260406000206000915090508060000154908060010160009054906101000a900467ffffffffffffffff16908060010160089054906101000a900463ffffffff16905083565b6112f2816040516024016112709190613c26565b6040516020818303038152906040527f0be77f56000000000000000000000000000000000000000000000000000000007bffffffffffffffffffffffffffffffffffffffffffffffffffffffff19166020820180517bffffffffffffffffffffffffffffffffffffffffffffffffffffffff8381831617835250505050611dce565b50565b6000600260008360405160200161130d9291906139d6565b60405160208183030381529060405260405161132991906137ee565b602060405180830381855afa158015611346573d6000803e3d6000fd5b5050506040513d601f19601f820116820180604052508101906113699190612ce3565b9050919050565b600060026001848460405160200161138a93929190613999565b6040516020818303038152906040526040516113a691906137ee565b602060405180830381855afa1580156113c3573d6000803e3d6000fd5b5050506040513d601f19601f820116820180604052508101906113e69190612ce3565b905092915050565b6060600082905060005b6000821115611419578061140b9061420a565b9050600782901c91506113f8565b60008167ffffffffffffffff81111561145b577f4e487b7100000000000000000000000000000000000000000000000000000000600052604160045260246000fd5b6040519080825280601f01601f19166020018201604052801561148d5781602001600182028036833780820191505090505b50905084925060005b8281101561152857607f841660801760f81b8282815181106114e1577f4e487b7100000000000000000000000000000000000000000000000000000000600052603260045260246000fd5b60200101907effffffffffffffffffffffffffffffffffffffffffffffffffffffffffffff1916908160001a905350600784901c9350806115219061420a565b9050611496565b50607f60f81b8160018461153c919061401a565b81518110611573577f4e487b7100000000000000000000000000000000000000000000000000000000600052603260045260246000fd5b6020010181815160f81c60f81b169150907effffffffffffffffffffffffffffffffffffffffffffffffffffffffffffff1916908160001a905350809350505050919050565b606060006115d08467ffffffffffffffff166113ee565b6040516020016115e09190613977565b604051602081830303815290604052905060008363ffffffff16111561163357806116108463ffffffff166113ee565b6040516020016116219291906138a9565b60405160208183030381529060405290505b8091505092915050565b606080600083600001515111156116cb578061169360016002600681111561168e577f4e487b7100000000000000000000000000000000000000000000000000000000600052602160045260246000fd5b611de8565b6116a1856000015151611e17565b85600001516040516020016116b9949392919061386b565b60405160208183030381529060405290505b6000836020015167ffffffffffffffff16146117575780611726600260006006811115611721577f4e487b7100000000000000000000000000000000000000000000000000000000600052602160045260246000fd5b611de8565b6117338560200151611e17565b6040516020016117459392919061383a565b60405160208183030381529060405290505b600083604001515111156117e257806117aa6003600260068111156117a5577f4e487b7100000000000000000000000000000000000000000000000000000000600052602160045260246000fd5b611de8565b6117b8856040015151611e17565b85604001516040516020016117d0949392919061386b565b60405160208183030381529060405290505b6000836060015167ffffffffffffffff161461186e578061183d600460006006811115611838577f4e487b7100000000000000000000000000000000000000000000000000000000600052602160045260246000fd5b611de8565b61184a8560600151611e17565b60405160200161185c9392919061383a565b60405160208183030381529060405290505b6000836080015167ffffffffffffffff16146118fa57806118c96005600060068111156118c4577f4e487b7100000000000000000000000000000000000000000000000000000000600052602160045260246000fd5b611de8565b6118d68560800151611e17565b6040516020016118e89392919061383a565b60405160208183030381529060405290505b60008360a0015167ffffffffffffffff16146119865780611955600660006006811115611950577f4e487b7100000000000000000000000000000000000000000000000000000000600052602160045260246000fd5b611de8565b6119628560a00151611e17565b6040516020016119749392919061383a565b60405160208183030381529060405290505b60008360c0015167ffffffffffffffff1614611a1257806119e16007600060068111156119dc577f4e487b7100000000000000000000000000000000000000000000000000000000600052602160045260246000fd5b611de8565b6119ee8560c00151611e17565b604051602001611a009392919061383a565b60405160208183030381529060405290505b60008360e0015167ffffffffffffffff1614611a9e5780611a6d600860006006811115611a68577f4e487b7100000000000000000000000000000000000000000000000000000000600052602160045260246000fd5b611de8565b611a7a8560e00151611e17565b604051602001611a8c9392919061383a565b60405160208183030381529060405290505b600083610100015167ffffffffffffffff1614611b2c5780611afa600960006006811115611af5577f4e487b7100000000000000000000000000000000000000000000000000000000600052602160045260246000fd5b611de8565b611b08856101000151611e17565b604051602001611b1a9392919061383a565b60405160208183030381529060405290505b60008361012001516003811115611b6c577f4e487b7100000000000000000000000000000000000000000000000000000000600052602160045260246000fd5b67ffffffffffffffff1614611c2a5780611bc0600a60006006811115611bbb577f4e487b7100000000000000000000000000000000000000000000000000000000600052602160045260246000fd5b611de8565b611c068561012001516003811115611c01577f4e487b7100000000000000000000000000000000000000000000000000000000600052602160045260246000fd5b611e29565b604051602001611c189392919061383a565b60405160208183030381529060405290505b6000836101400151511115611cb85780611c7e600b60026006811115611c79577f4e487b7100000000000000000000000000000000000000000000000000000000600052602160045260246000fd5b611de8565b611c8d85610140015151611e17565b856101400151604051602001611ca6949392919061386b565b60405160208183030381529060405290505b80915050919050565b600080611ccd866113ee565b905060006002600060028489518a60208b604051602001611cf49796959493929190613ae0565b604051602081830303815290604052604051611d1091906137ee565b602060405180830381855afa158015611d2d573d6000803e3d6000fd5b5050506040513d601f19601f82011682018060405250810190611d509190612ce3565b905060005b8451811015611dbd57611da8858281518110611d9a577f4e487b7100000000000000000000000000000000000000000000000000000000600052603260045260246000fd5b602002602001015183611e41565b91508080611db59061420a565b915050611d55565b508781149250505095945050505050565b611de581611ddd611f0f611f30565b63ffffffff16565b50565b606060008260038567ffffffffffffffff16901b1790506000611e0a82611f3b565b9050809250505092915050565b6060611e2282611f3b565b9050919050565b6060611e3a8263ffffffff16611f3b565b9050919050565b60008060008460000151611e5a57838560800151611e61565b8460800151845b9150915060026001866020015160ff16901b611e80876040015161215f565b611e8d886060015161215f565b602086602087604051602001611ea997969594939291906139fe565b604051602081830303815290604052604051611ec591906137ee565b602060405180830381855afa158015611ee2573d6000803e3d6000fd5b5050506040513d601f19601f82011682018060405250810190611f059190612ce3565b9250505092915050565b60006a636f6e736f6c652e6c6f679050600080835160208501845afa505050565b612394819050919050565b606060008290506000600190505b607f8267ffffffffffffffff161115611f815760078267ffffffffffffffff16901c9150600181611f7a9190613f82565b9050611f49565b60008167ffffffffffffffff1667ffffffffffffffff811115611fcd577f4e487b7100000000000000000000000000000000000000000000000000000000600052604160045260246000fd5b6040519080825280601f01601f191660200182016040528015611fff5781602001600182028036833780820191505090505b50905084925060005b8267ffffffffffffffff168167ffffffffffffffff1610156120c457607f841660801760f81b828267ffffffffffffffff1681518110612071577f4e487b7100000000000000000000000000000000000000000000000000000000600052603260045260246000fd5b60200101907effffffffffffffffffffffffffffffffffffffffffffffffffffffffffffff1916908160001a90535060078467ffffffffffffffff16901c935080806120bc90614253565b915050612008565b50607f60f81b816001846120d8919061404e565b67ffffffffffffffff1681518110612119577f4e487b7100000000000000000000000000000000000000000000000000000000600052603260045260246000fd5b6020010181815160f81c60f81b169150907effffffffffffffffffffffffffffffffffffffffffffffffffffffffffffff1916908160001a905350809350505050919050565b60606121766002836121719190613fc0565b6113ee565b9050919050565b604051806040016040528060608152602001606081525090565b60405180610100016040528060008019168152602001600067ffffffffffffffff168152602001600067ffffffffffffffff168152602001600063ffffffff168152602001600080191681526020016000801916815260200160008019168152602001600080191681525090565b60405180608001604052806000801916815260200160008019168152602001600060ff168152602001606081525090565b828054612242906141a7565b90600052602060002090601f01602090048101928261226457600085556122ab565b82601f1061227d57805160ff19168380011785556122ab565b828001600101855582156122ab579182015b828111156122aa57825182559160200191906001019061228f565b5b5090506122b891906123c3565b5090565b60405180610160016040528060608152602001600067ffffffffffffffff16815260200160608152602001600067ffffffffffffffff168152602001600067ffffffffffffffff168152602001600067ffffffffffffffff168152602001600067ffffffffffffffff168152602001600067ffffffffffffffff168152602001600067ffffffffffffffff16815260200160006003811115612387577f4e487b7100000000000000000000000000000000000000000000000000000000600052602160045260246000fd5b8152602001606081525090565b7f4e487b7100000000000000000000000000000000000000000000000000000000600052605160045260246000fd5b5b808211156123dc5760008160009055506001016123c4565b5090565b60006123f36123ee84613e2e565b613e09565b9050808382526020820190508260005b85811015612433578135850161241988826129ca565b845260208401935060208301925050600181019050612403565b5050509392505050565b600061245061244b84613e5a565b613e09565b90508281526020810184848401111561246857600080fd5b612473848285614165565b509392505050565b600061248e61248984613e8b565b613e09565b9050828152602081018484840111156124a657600080fd5b6124b1848285614165565b509392505050565b6000813590506124c88161460b565b92915050565b60008083601f8401126124e057600080fd5b8235905067ffffffffffffffff8111156124f957600080fd5b60208301915083602082028301111561251157600080fd5b9250929050565b60008083601f84011261252a57600080fd5b8235905067ffffffffffffffff81111561254357600080fd5b6020830191508360a082028301111561255b57600080fd5b9250929050565b60008083601f84011261257457600080fd5b8235905067ffffffffffffffff81111561258d57600080fd5b6020830191508360208202830111156125a557600080fd5b9250929050565b600082601f8301126125bd57600080fd5b81356125cd8482602086016123e0565b91505092915050565b60008083601f8401126125e857600080fd5b8235905067ffffffffffffffff81111561260157600080fd5b60208301915083602082028301111561261957600080fd5b9250929050565b60008135905061262f81614622565b92915050565b60008135905061264481614639565b92915050565b60008151905061265981614639565b92915050565b600082601f83011261267057600080fd5b813561268084826020860161243d565b91505092915050565b60008135905061269881614650565b92915050565b60008083601f8401126126b057600080fd5b8235905067ffffffffffffffff8111156126c957600080fd5b6020830191508360018202830111156126e157600080fd5b9250929050565b600082601f8301126126f957600080fd5b813561270984826020860161247b565b91505092915050565b6000610100828403121561272557600080fd5b81905092915050565b6000610100828403121561274157600080fd5b61274c610100613e09565b9050600061275c84828501612635565b600083015250602061277084828501612bec565b602083015250604061278484828501612bec565b604083015250606061279884828501612bd7565b60608301525060806127ac84828501612635565b60808301525060a06127c084828501612635565b60a08301525060c06127d484828501612635565b60c08301525060e06127e884828501612635565b60e08301525092915050565b60006040828403121561280657600080fd5b81905092915050565b60006040828403121561282157600080fd5b61282b6040613e09565b9050600082013567ffffffffffffffff81111561284757600080fd5b6128538482850161265f565b600083015250602082013567ffffffffffffffff81111561287357600080fd5b61287f8482850161265f565b60208301525092915050565b600060a0828403121561289d57600080fd5b6128a760a0613e09565b905060006128b784828501612620565b60008301525060206128cb84828501612c01565b60208301525060406128df84828501612bc2565b60408301525060606128f384828501612bc2565b606083015250608061290784828501612635565b60808301525092915050565b600060c0828403121561292557600080fd5b81905092915050565b600060c0828403121561294057600080fd5b61294a60c0613e09565b9050600061295a84828501612635565b600083015250602061296e84828501612635565b602083015250604061298284828501612635565b604083015250606061299684828501612635565b60608301525060806129aa84828501612635565b60808301525060a06129be84828501612635565b60a08301525092915050565b6000608082840312156129dc57600080fd5b6129e66080613e09565b905060006129f684828501612635565b6000830152506020612a0a84828501612635565b6020830152506040612a1e84828501612c01565b604083015250606082013567ffffffffffffffff811115612a3e57600080fd5b612a4a8482850161265f565b60608301525092915050565b60006101608284031215612a6957600080fd5b81905092915050565b60006101608284031215612a8557600080fd5b612a90610160613e09565b9050600082013567ffffffffffffffff811115612aac57600080fd5b612ab8848285016126e8565b6000830152506020612acc84828501612bec565b602083015250604082013567ffffffffffffffff811115612aec57600080fd5b612af88482850161265f565b6040830152506060612b0c84828501612bec565b6060830152506080612b2084828501612bec565b60808301525060a0612b3484828501612bec565b60a08301525060c0612b4884828501612bec565b60c08301525060e0612b5c84828501612bec565b60e083015250610100612b7184828501612bec565b61010083015250610120612b8784828501612689565b6101208301525061014082013567ffffffffffffffff811115612ba957600080fd5b612bb58482850161265f565b6101408301525092915050565b600081359050612bd181614660565b92915050565b600081359050612be681614677565b92915050565b600081359050612bfb8161468e565b92915050565b600081359050612c10816146a5565b92915050565b600060208284031215612c2857600080fd5b6000612c36848285016124b9565b91505092915050565b60008060008060008060608789031215612c5857600080fd5b600087013567ffffffffffffffff811115612c7257600080fd5b612c7e89828a016124ce565b9650965050602087013567ffffffffffffffff811115612c9d57600080fd5b612ca989828a016125d6565b9450945050604087013567ffffffffffffffff811115612cc857600080fd5b612cd489828a0161269e565b92509250509295509295509295565b600060208284031215612cf557600080fd5b6000612d038482850161264a565b91505092915050565b60006101008284031215612d1f57600080fd5b6000612d2d8482850161272e565b91505092915050565b6000806101208385031215612d4a57600080fd5b6000612d588582860161272e565b925050610100612d6a85828601612635565b9150509250929050565b600060208284031215612d8657600080fd5b600082013567ffffffffffffffff811115612da057600080fd5b612dac8482850161280f565b91505092915050565b60008060408385031215612dc857600080fd5b600083013567ffffffffffffffff811115612de257600080fd5b612dee8582860161280f565b9250506020612dff85828601612635565b9150509250929050565b600060a08284031215612e1b57600080fd5b6000612e298482850161288b565b91505092915050565b60008060008060006102008688031215612e4b57600080fd5b6000612e5988828901612913565b95505060c0612e6a88828901612712565b9450506101c086013567ffffffffffffffff811115612e8857600080fd5b612e94888289016127f4565b9350506101e086013567ffffffffffffffff811115612eb257600080fd5b612ebe88828901612562565b92509250509295509295909350565b600060c08284031215612edf57600080fd5b6000612eed8482850161292e565b91505092915050565b6000806000806102008587031215612f0d57600080fd5b6000612f1b8782880161292e565b94505060c0612f2c8782880161272e565b9350506101c085013567ffffffffffffffff811115612f4a57600080fd5b612f568782880161280f565b9250506101e085013567ffffffffffffffff811115612f7457600080fd5b612f80878288016125ac565b91505092959194509250565b600060208284031215612f9e57600080fd5b600082013567ffffffffffffffff811115612fb857600080fd5b612fc4848285016129ca565b91505092915050565b600080600060608486031215612fe257600080fd5b600084013567ffffffffffffffff811115612ffc57600080fd5b613008868287016129ca565b935050602084013567ffffffffffffffff81111561302557600080fd5b6130318682870161265f565b925050604084013567ffffffffffffffff81111561304e57600080fd5b61305a8682870161265f565b9150509250925092565b60006020828403121561307657600080fd5b600061308484828501612bc2565b91505092915050565b6000806000806000608086880312156130a557600080fd5b60006130b388828901612bc2565b955050602086013567ffffffffffffffff8111156130d057600080fd5b6130dc88828901612a56565b94505060406130ed88828901612bc2565b935050606086013567ffffffffffffffff81111561310a57600080fd5b61311688828901612518565b92509250509295509295909350565b60006020828403121561313757600080fd5b600061314584828501612bd7565b91505092915050565b60006020828403121561316057600080fd5b600061316e84828501612bec565b91505092915050565b61318081614082565b82525050565b61318f81614094565b82525050565b61319e816140a0565b82525050565b6131ad816140a0565b82525050565b6131c46131bf826140a0565b614284565b82525050565b60006131d582613ebc565b6131df8185613ed2565b93506131ef818560208601614174565b6131f88161436e565b840191505092915050565b600061320e82613ebc565b6132188185613ee3565b9350613228818560208601614174565b6132318161436e565b840191505092915050565b600061324782613ebc565b6132518185613ef4565b9350613261818560208601614174565b80840191505092915050565b6132768161412d565b82525050565b60006132888385613f10565b9350613295838584614165565b61329e8361436e565b840190509392505050565b60006132b482613ec7565b6132be8185613eff565b93506132ce818560208601614174565b6132d78161436e565b840191505092915050565b60006132ef602c83613f10565b91506132fa82614399565b604082019050919050565b6000613312602c83613f10565b915061331d826143e8565b604082019050919050565b6000613335601483613f10565b915061334082614437565b602082019050919050565b6000613358600a83613f21565b915061336382614460565b600a82019050919050565b600061337b601683613f10565b915061338682614489565b602082019050919050565b600061339e600183613f21565b91506133a9826144b2565b600182019050919050565b60006133c1600883613f21565b91506133cc826144db565b600882019050919050565b60006133e4600183613f21565b91506133ef82614504565b600182019050919050565b6000613407601383613f10565b91506134128261452d565b602082019050919050565b600061342a600d83613f10565b915061343582614556565b602082019050919050565b600061344d602583613f10565b91506134588261457f565b604082019050919050565b6000613470601483613f10565b915061347b826145ce565b602082019050919050565b6101008201600082015161349d6000850182613195565b5060208201516134b060208501826136f9565b5060408201516134c360408501826136f9565b5060608201516134d660608501826136db565b5060808201516134e96080850182613195565b5060a08201516134fc60a0850182613195565b5060c082015161350f60c0850182613195565b5060e082015161352260e0850182613195565b50505050565b6000604083016000830151848203600086015261354582826131ca565b9150506020830151848203602086015261355f82826131ca565b9150508091505092915050565b60006080830160008301516135846000860182613195565b5060208301516135976020860182613195565b5060408301516135aa604086018261372e565b50606083015184820360608601526135c282826131ca565b9150508091505092915050565b60006101608301600083015184820360008601526135ed82826132a9565b915050602083015161360260208601826136f9565b506040830151848203604086015261361a82826131ca565b915050606083015161362f60608601826136f9565b50608083015161364260808601826136f9565b5060a083015161365560a08601826136f9565b5060c083015161366860c08601826136f9565b5060e083015161367b60e08601826136f9565b506101008301516136906101008601826136f9565b506101208301516136a561012086018261326d565b506101408301518482036101408601526136bf82826131ca565b9150508091505092915050565b6136d5816140dd565b82525050565b6136e4816140e7565b82525050565b6136f3816140e7565b82525050565b613702816140f7565b82525050565b613711816140f7565b82525050565b613728613723826140f7565b61428e565b82525050565b6137378161410b565b82525050565b6137468161410b565b82525050565b61375d6137588261410b565b6142a0565b82525050565b600061376f82846131b3565b60208201915081905092915050565b600061378a82896131b3565b60208201915061379a82886131b3565b6020820191506137aa82876131b3565b6020820191506137ba82866131b3565b6020820191506137ca82856131b3565b6020820191506137da82846131b3565b602082019150819050979650505050505050565b60006137fa828461323c565b915081905092915050565b6000613811828661323c565b915061381d82856131b3565b60208201915061382d828461323c565b9150819050949350505050565b6000613846828661323c565b9150613852828561323c565b915061385e828461323c565b9150819050949350505050565b6000613877828761323c565b9150613883828661323c565b915061388f828561323c565b915061389b828461323c565b915081905095945050505050565b60006138b5828561323c565b91506138c082613391565b91506138cc828461323c565b91508190509392505050565b60006138e4828861323c565b91506138f0828761374c565b600182019150613900828661374c565b600182019150613910828561323c565b915061391c828461323c565b91508190509695505050505050565b60006139368261334b565b915061394282846131b3565b60208201915081905092915050565b600061395c826133b4565b915061396882846131b3565b60208201915081905092915050565b6000613982826133d7565b915061398e828461323c565b915081905092915050565b60006139a5828661374c565b6001820191506139b582856131b3565b6020820191506139c582846131b3565b602082019150819050949350505050565b60006139e2828561374c565b6001820191506139f2828461323c565b91508190509392505050565b6000613a0a828a61374c565b600182019150613a1a828961323c565b9150613a26828861323c565b9150613a32828761374c565b600182019150613a4282866131b3565b602082019150613a52828561374c565b600182019150613a6282846131b3565b60208201915081905098975050505050505050565b6000613a83828561374c565b600182019150613a938284613717565b6008820191508190509392505050565b6000613aaf828661374c565b600182019150613abf828561374c565b600182019150613acf82846131b3565b602082019150819050949350505050565b6000613aec828a61374c565b600182019150613afc828961374c565b600182019150613b0c828861323c565b9150613b18828761374c565b600182019150613b28828661323c565b9150613b34828561374c565b600182019150613b4482846131b3565b60208201915081905098975050505050505050565b6000602082019050613b6e6000830184613177565b92915050565b6000602082019050613b896000830184613186565b92915050565b6000602082019050613ba460008301846131a4565b92915050565b6000606082019050613bbf60008301866131a4565b613bcc6020830185613708565b613bd960408301846136ea565b949350505050565b6000608082019050613bf660008301876131a4565b613c03602083018661373d565b613c1060408301856131a4565b613c1d60608301846131a4565b95945050505050565b60006020820190508181036000830152613c408184613203565b905092915050565b60006020820190508181036000830152613c6381848661327c565b90509392505050565b60006020820190508181036000830152613c85816132e2565b9050919050565b60006020820190508181036000830152613ca581613305565b9050919050565b60006020820190508181036000830152613cc581613328565b9050919050565b60006020820190508181036000830152613ce58161336e565b9050919050565b60006020820190508181036000830152613d05816133fa565b9050919050565b60006020820190508181036000830152613d258161341d565b9050919050565b60006020820190508181036000830152613d4581613440565b9050919050565b60006020820190508181036000830152613d6581613463565b9050919050565b600061010082019050613d826000830184613486565b92915050565b60006020820190508181036000830152613da28184613528565b905092915050565b60006020820190508181036000830152613dc4818461356c565b905092915050565b60006020820190508181036000830152613de681846135cf565b905092915050565b6000602082019050613e0360008301846136cc565b92915050565b6000613e13613e24565b9050613e1f82826141d9565b919050565b6000604051905090565b600067ffffffffffffffff821115613e4957613e4861433f565b5b602082029050602081019050919050565b600067ffffffffffffffff821115613e7557613e7461433f565b5b613e7e8261436e565b9050602081019050919050565b600067ffffffffffffffff821115613ea657613ea561433f565b5b613eaf8261436e565b9050602081019050919050565b600081519050919050565b600081519050919050565b600082825260208201905092915050565b600082825260208201905092915050565b600081905092915050565b600082825260208201905092915050565b600082825260208201905092915050565b600081905092915050565b6000613f37826140dd565b9150613f42836140dd565b9250827fffffffffffffffffffffffffffffffffffffffffffffffffffffffffffffffff03821115613f7757613f766142b2565b5b828201905092915050565b6000613f8d826140f7565b9150613f98836140f7565b92508267ffffffffffffffff03821115613fb557613fb46142b2565b5b828201905092915050565b6000613fcb826140dd565b9150613fd6836140dd565b9250817fffffffffffffffffffffffffffffffffffffffffffffffffffffffffffffffff048311821515161561400f5761400e6142b2565b5b828202905092915050565b6000614025826140dd565b9150614030836140dd565b925082821015614043576140426142b2565b5b828203905092915050565b6000614059826140f7565b9150614064836140f7565b925082821015614077576140766142b2565b5b828203905092915050565b600061408d826140bd565b9050919050565b60008115159050919050565b6000819050919050565b60008190506140b8826145f7565b919050565b600073ffffffffffffffffffffffffffffffffffffffff82169050919050565b6000819050919050565b600063ffffffff82169050919050565b600067ffffffffffffffff82169050919050565b600060ff82169050919050565b60006141253684846123e0565b905092915050565b6000614138826140aa565b9050919050565b600061414b368361280f565b9050919050565b600061415e3683612a72565b9050919050565b82818337600083830152505050565b60005b83811015614192578082015181840152602081019050614177565b838111156141a1576000848401525b50505050565b600060028204905060018216806141bf57607f821691505b602082108114156141d3576141d2614310565b5b50919050565b6141e28261436e565b810181811067ffffffffffffffff821117156142015761420061433f565b5b80604052505050565b6000614215826140dd565b91507fffffffffffffffffffffffffffffffffffffffffffffffffffffffffffffffff821415614248576142476142b2565b5b600182019050919050565b600061425e826140f7565b915067ffffffffffffffff821415614279576142786142b2565b5b600182019050919050565b6000819050919050565b60006142998261437f565b9050919050565b60006142ab8261438c565b9050919050565b7f4e487b7100000000000000000000000000000000000000000000000000000000600052601160045260246000fd5b7f4e487b7100000000000000000000000000000000000000000000000000000000600052602160045260246000fd5b7f4e487b7100000000000000000000000000000000000000000000000000000000600052602260045260246000fd5b7f4e487b7100000000000000000000000000000000000000000000000000000000600052604160045260246000fd5b6000601f19601f8301169050919050565b60008160c01b9050919050565b60008160f81b9050919050565b7f436f6d6d6f6e456e636f646564566f7465506172743a20496e76616c6964207360008201527f756666697827732073697a650000000000000000000000000000000000000000602082015250565b7f436f6d6d6f6e456e636f646564566f7465506172743a20496e76616c6964207060008201527f726566697827732073697a650000000000000000000000000000000000000000602082015250565b7f496e76616c696420626c6f636b20686561646572000000000000000000000000600082015250565b7f066c7571636861696e2000000000000000000000000000000000000000000000600082015250565b7f4e6f20726f6f7420617420746869732068656967687400000000000000000000600082015250565b7f1000000000000000000000000000000000000000000000000000000000000000600082015250565b7f086f7261636c6520000000000000000000000000000000000000000000000000600082015250565b7f0800000000000000000000000000000000000000000000000000000000000000600082015250565b7f416c726561647920696e697469616c697a656400000000000000000000000000600082015250565b7f496e76616c69642070726f6f6600000000000000000000000000000000000000600082015250565b7f544d5369676e61747572653a20496e76616c69642074696d657374616d70277360008201527f2073697a65000000000000000000000000000000000000000000000000000000602082015250565b7f496e76616c6964207369676e6572206f72646572000000000000000000000000600082015250565b60048110614608576146076142e1565b5b50565b61461481614082565b811461461f57600080fd5b50565b61462b81614094565b811461463657600080fd5b50565b614642816140a0565b811461464d57600080fd5b50565b6004811061465d57600080fd5b50565b614669816140dd565b811461467457600080fd5b50565b614680816140e7565b811461468b57600080fd5b50565b614697816140f7565b81146146a257600080fd5b50565b6146ae8161410b565b81146146b957600080fd5b5056fea26469706673582212207c0b01cd0d760249524d611d7a0da71a0f20f3a2ff2aa87fbd9b49abe98558f464736f6c63430008030033",
  "linkReferences": {},
  "deployedLinkReferences": {}
}