{
  "_format": "hh-sol-artifact-1",
  "contractName": "TokenBridge",
  "sourceName": "contracts/tokenBridge/TokenBridge.sol",
  "abi": [
    {
      "inputs": [
        {
          "internalType": "address",
          "name": "_token",
          "type": "address"
        },
        {
          "internalType": "address",
          "name": "_dataBridge",
          "type": "address"
        }
      ],
      "stateMutability": "nonpayable",
      "type": "constructor"
    },
    {
      "anonymous": false,
      "inputs": [
        {
          "indexed": false,
          "internalType": "uint256",
          "name": "amount",
          "type": "uint256"
        },
        {
          "indexed": false,
          "internalType": "uint256",
          "name": "fee",
          "type": "uint256"
        },
        {
          "indexed": false,
          "internalType": "address",
          "name": "recipient",
          "type": "address"
        }
      ],
      "name": "CrossChainSend",
      "type": "event"
    },
    {
      "inputs": [
        {
          "internalType": "bytes",
          "name": "_proof",
          "type": "bytes"
        }
      ],
      "name": "crossChainReceive",
      "outputs": [],
      "stateMutability": "nonpayable",
      "type": "function"
    },
    {
      "inputs": [
        {
          "internalType": "uint256",
          "name": "_amount",
          "type": "uint256"
        },
        {
          "internalType": "uint256",
          "name": "_fee",
          "type": "uint256"
        },
        {
          "internalType": "address",
          "name": "_recipient",
          "type": "address"
        }
      ],
      "name": "crossChainSend",
      "outputs": [],
      "stateMutability": "nonpayable",
      "type": "function"
    },
    {
      "inputs": [],
      "name": "dataBridge",
      "outputs": [
        {
          "internalType": "address",
          "name": "",
          "type": "address"
        }
      ],
      "stateMutability": "view",
      "type": "function"
    },
    {
      "inputs": [
        {
          "internalType": "bytes32",
          "name": "",
          "type": "bytes32"
        }
      ],
      "name": "receivePaid",
      "outputs": [
        {
          "internalType": "bool",
          "name": "",
          "type": "bool"
        }
      ],
      "stateMutability": "view",
      "type": "function"
    },
    {
      "inputs": [],
      "name": "token",
      "outputs": [
        {
          "internalType": "contract IERC20",
          "name": "",
          "type": "address"
        }
      ],
      "stateMutability": "view",
      "type": "function"
    }
  ],
  "bytecode": "0x608060405234801561001057600080fd5b5060405161046938038061046983398101604081905261002f9161007c565b600080546001600160a01b039384166001600160a01b031991821617909155600180549290931691161790556100ae565b80516001600160a01b038116811461007757600080fd5b919050565b6000806040838503121561008e578182fd5b61009783610060565b91506100a560208401610060565b90509250929050565b6103ac806100bd6000396000f3fe608060405234801561001057600080fd5b50600436106100575760003560e01c806349e2390d1461005c578063578855b21461009457806376d03670146100bf578063c5324546146100d2578063fc0c546a146100e5575b600080fd5b61007f61006a36600461025b565b60026020526000908152604090205460ff1681565b60405190151581526020015b60405180910390f35b6001546100a7906001600160a01b031681565b6040516001600160a01b03909116815260200161008b565b6100d06100cd366004610273565b50565b005b6100d06100e036600461031d565b6100f8565b6000546100a7906001600160a01b031681565b82821061014b5760405162461bcd60e51b815260206004820152601c60248201527f666565206d757374206265206c657373207468616e20616d6f756e7400000000604482015260640160405180910390fd5b6000546040516323b872dd60e01b8152336004820152306024820152604481018590526001600160a01b03909116906323b872dd90606401602060405180830381600087803b15801561019d57600080fd5b505af11580156101b1573d6000803e3d6000fd5b505050506040513d601f19601f820116820180604052508101906101d59190610234565b506001600160a01b0381166101e75750335b60408051848152602081018490526001600160a01b0383168183015290517fba8a60ddcaa9c9692c6ced73661a7427a3f073d5c5fef3778e83d2a1f64e85cf9181900360600190a1505050565b600060208284031215610245578081fd5b81518015158114610254578182fd5b9392505050565b60006020828403121561026c578081fd5b5035919050565b600060208284031215610284578081fd5b813567ffffffffffffffff8082111561029b578283fd5b818401915084601f8301126102ae578283fd5b8135818111156102c0576102c0610360565b604051601f8201601f19908116603f011681019083821181831017156102e8576102e8610360565b81604052828152876020848701011115610300578586fd5b826020860160208301379182016020019490945295945050505050565b600080600060608486031215610331578182fd5b833592506020840135915060408401356001600160a01b0381168114610355578182fd5b809150509250925092565b634e487b7160e01b600052604160045260246000fdfea2646970667358221220f32cf32705ce1eeacb1fd92003667f1c37b23aba5a8e4e503211faa7a8919a4664736f6c63430008030033",
  "linkReferences": {},
  "deployedLinkReferences": {}
}