{
  "_format": "hh-sol-artifact-1",
  "contractName": "TokenBridge",
  "sourceName": "contracts/tokenBridge/TokenBridge.sol",
  "abi": [
    {
      "inputs": [
        {
          "internalType": "address",
          "name": "_token",
          "type": "address"
        }
      ],
      "stateMutability": "nonpayable",
      "type": "constructor"
    },
    {
      "anonymous": false,
      "inputs": [
        {
          "indexed": false,
          "internalType": "uint256",
          "name": "amount",
          "type": "uint256"
        },
        {
          "indexed": false,
          "internalType": "uint256",
          "name": "fee",
          "type": "uint256"
        },
        {
          "indexed": false,
          "internalType": "address",
          "name": "recipient",
          "type": "address"
        }
      ],
      "name": "CrossChainSend",
      "type": "event"
    },
    {
      "inputs": [
        {
          "internalType": "bytes",
          "name": "_proof",
          "type": "bytes"
        }
      ],
      "name": "crossChainReceive",
      "outputs": [],
      "stateMutability": "nonpayable",
      "type": "function"
    },
    {
      "inputs": [
        {
          "internalType": "uint256",
          "name": "_amount",
          "type": "uint256"
        },
        {
          "internalType": "uint256",
          "name": "_fee",
          "type": "uint256"
        },
        {
          "internalType": "address",
          "name": "_recipient",
          "type": "address"
        }
      ],
      "name": "crossChainSend",
      "outputs": [],
      "stateMutability": "nonpayable",
      "type": "function"
    },
    {
      "inputs": [
        {
          "internalType": "bytes32",
          "name": "",
          "type": "bytes32"
        }
      ],
      "name": "receivePaid",
      "outputs": [
        {
          "internalType": "bool",
          "name": "",
          "type": "bool"
        }
      ],
      "stateMutability": "view",
      "type": "function"
    },
    {
      "inputs": [],
      "name": "token",
      "outputs": [
        {
          "internalType": "contract IERC20",
          "name": "",
          "type": "address"
        }
      ],
      "stateMutability": "view",
      "type": "function"
    }
  ],
  "bytecode": "0x608060405234801561001057600080fd5b506040516108703803806108708339818101604052810190610032919061008d565b806000806101000a81548173ffffffffffffffffffffffffffffffffffffffff021916908373ffffffffffffffffffffffffffffffffffffffff160217905550506100ff565b600081519050610087816100e8565b92915050565b60006020828403121561009f57600080fd5b60006100ad84828501610078565b91505092915050565b60006100c1826100c8565b9050919050565b600073ffffffffffffffffffffffffffffffffffffffff82169050919050565b6100f1816100b6565b81146100fc57600080fd5b50565b6107628061010e6000396000f3fe608060405234801561001057600080fd5b506004361061004c5760003560e01c806349e2390d1461005157806376d0367014610081578063c53245461461009d578063fc0c546a146100b9575b600080fd5b61006b6004803603810190610066919061036e565b6100d7565b60405161007891906104bd565b60405180910390f35b61009b60048036038101906100969190610397565b6100f7565b005b6100b760048036038101906100b291906103d8565b6100fa565b005b6100c1610265565b6040516100ce91906104d8565b60405180910390f35b60016020528060005260406000206000915054906101000a900460ff1681565b50565b82821061013c576040517f08c379a0000000000000000000000000000000000000000000000000000000008152600401610133906104f3565b60405180910390fd5b60008054906101000a900473ffffffffffffffffffffffffffffffffffffffff1673ffffffffffffffffffffffffffffffffffffffff166323b872dd3330866040518463ffffffff1660e01b815260040161019993929190610486565b602060405180830381600087803b1580156101b357600080fd5b505af11580156101c7573d6000803e3d6000fd5b505050506040513d601f19601f820116820180604052508101906101eb9190610345565b50600073ffffffffffffffffffffffffffffffffffffffff168173ffffffffffffffffffffffffffffffffffffffff161415610225573390505b7fba8a60ddcaa9c9692c6ced73661a7427a3f073d5c5fef3778e83d2a1f64e85cf83838360405161025893929190610513565b60405180910390a1505050565b60008054906101000a900473ffffffffffffffffffffffffffffffffffffffff1681565b600061029c6102978461056f565b61054a565b9050828152602081018484840111156102b457600080fd5b6102bf848285610627565b509392505050565b6000813590506102d6816106d0565b92915050565b6000815190506102eb816106e7565b92915050565b600081359050610300816106fe565b92915050565b600082601f83011261031757600080fd5b8135610327848260208601610289565b91505092915050565b60008135905061033f81610715565b92915050565b60006020828403121561035757600080fd5b6000610365848285016102dc565b91505092915050565b60006020828403121561038057600080fd5b600061038e848285016102f1565b91505092915050565b6000602082840312156103a957600080fd5b600082013567ffffffffffffffff8111156103c357600080fd5b6103cf84828501610306565b91505092915050565b6000806000606084860312156103ed57600080fd5b60006103fb86828701610330565b935050602061040c86828701610330565b925050604061041d868287016102c7565b9150509250925092565b610430816105b1565b82525050565b61043f816105c3565b82525050565b61044e81610603565b82525050565b6000610461601c836105a0565b915061046c826106a7565b602082019050919050565b610480816105f9565b82525050565b600060608201905061049b6000830186610427565b6104a86020830185610427565b6104b56040830184610477565b949350505050565b60006020820190506104d26000830184610436565b92915050565b60006020820190506104ed6000830184610445565b92915050565b6000602082019050818103600083015261050c81610454565b9050919050565b60006060820190506105286000830186610477565b6105356020830185610477565b6105426040830184610427565b949350505050565b6000610554610565565b90506105608282610636565b919050565b6000604051905090565b600067ffffffffffffffff82111561058a57610589610667565b5b61059382610696565b9050602081019050919050565b600082825260208201905092915050565b60006105bc826105d9565b9050919050565b60008115159050919050565b6000819050919050565b600073ffffffffffffffffffffffffffffffffffffffff82169050919050565b6000819050919050565b600061060e82610615565b9050919050565b6000610620826105d9565b9050919050565b82818337600083830152505050565b61063f82610696565b810181811067ffffffffffffffff8211171561065e5761065d610667565b5b80604052505050565b7f4e487b7100000000000000000000000000000000000000000000000000000000600052604160045260246000fd5b6000601f19601f8301169050919050565b7f666565206d757374206265206c657373207468616e20616d6f756e7400000000600082015250565b6106d9816105b1565b81146106e457600080fd5b50565b6106f0816105c3565b81146106fb57600080fd5b50565b610707816105cf565b811461071257600080fd5b50565b61071e816105f9565b811461072957600080fd5b5056fea2646970667358221220d47e9130e9aa674076930e7cbe4c211935c7e22c0030b235bb8552a2117d7cfd64736f6c63430008030033",
  "linkReferences": {},
  "deployedLinkReferences": {}
}