{
  "_format": "hh-sol-artifact-1",
  "contractName": "Oracle",
  "sourceName": "contracts/tellor360/oldContracts/contracts/Oracle.sol",
  "abi": [
    {
      "anonymous": false,
      "inputs": [
        {
          "indexed": false,
          "internalType": "bytes32",
          "name": "_queryId",
          "type": "bytes32"
        },
        {
          "indexed": false,
          "internalType": "uint256",
          "name": "_time",
          "type": "uint256"
        },
        {
          "indexed": false,
          "internalType": "bytes",
          "name": "_value",
          "type": "bytes"
        },
        {
          "indexed": false,
          "internalType": "uint256",
          "name": "_reward",
          "type": "uint256"
        },
        {
          "indexed": false,
          "internalType": "uint256",
          "name": "_nonce",
          "type": "uint256"
        },
        {
          "indexed": false,
          "internalType": "bytes",
          "name": "_queryData",
          "type": "bytes"
        },
        {
          "indexed": false,
          "internalType": "address",
          "name": "_reporter",
          "type": "address"
        }
      ],
      "name": "NewReport",
      "type": "event"
    },
    {
      "anonymous": false,
      "inputs": [
        {
          "indexed": false,
          "internalType": "uint256",
          "name": "_newReportingLock",
          "type": "uint256"
        }
      ],
      "name": "ReportingLockChanged",
      "type": "event"
    },
    {
      "anonymous": false,
      "inputs": [
        {
          "indexed": false,
          "internalType": "uint256",
          "name": "_newTimeBasedReward",
          "type": "uint256"
        }
      ],
      "name": "TimeBasedRewardsChanged",
      "type": "event"
    },
    {
      "anonymous": false,
      "inputs": [
        {
          "indexed": true,
          "internalType": "address",
          "name": "_user",
          "type": "address"
        },
        {
          "indexed": true,
          "internalType": "bytes32",
          "name": "_queryId",
          "type": "bytes32"
        },
        {
          "indexed": false,
          "internalType": "uint256",
          "name": "_tip",
          "type": "uint256"
        },
        {
          "indexed": false,
          "internalType": "uint256",
          "name": "_totalTip",
          "type": "uint256"
        },
        {
          "indexed": false,
          "internalType": "bytes",
          "name": "_queryData",
          "type": "bytes"
        }
      ],
      "name": "TipAdded",
      "type": "event"
    },
    {
      "inputs": [
        {
          "internalType": "uint256",
          "name": "_newReportingLock",
          "type": "uint256"
        }
      ],
      "name": "changeReportingLock",
      "outputs": [],
      "stateMutability": "nonpayable",
      "type": "function"
    },
    {
      "inputs": [
        {
          "internalType": "uint256",
          "name": "_newTimeBasedReward",
          "type": "uint256"
        }
      ],
      "name": "changeTimeBasedReward",
      "outputs": [],
      "stateMutability": "nonpayable",
      "type": "function"
    },
    {
      "inputs": [
        {
          "internalType": "bytes32",
          "name": "_queryId",
          "type": "bytes32"
        },
        {
          "internalType": "uint256",
          "name": "_timestamp",
          "type": "uint256"
        }
      ],
      "name": "getBlockNumberByTimestamp",
      "outputs": [
        {
          "internalType": "uint256",
          "name": "",
          "type": "uint256"
        }
      ],
      "stateMutability": "view",
      "type": "function"
    },
    {
      "inputs": [
        {
          "internalType": "bytes32",
          "name": "_queryId",
          "type": "bytes32"
        }
      ],
      "name": "getCurrentReward",
      "outputs": [
        {
          "internalType": "uint256",
          "name": "",
          "type": "uint256"
        },
        {
          "internalType": "uint256",
          "name": "",
          "type": "uint256"
        }
      ],
      "stateMutability": "view",
      "type": "function"
    },
    {
      "inputs": [
        {
          "internalType": "bytes32",
          "name": "_queryId",
          "type": "bytes32"
        }
      ],
      "name": "getCurrentValue",
      "outputs": [
        {
          "internalType": "bytes",
          "name": "",
          "type": "bytes"
        }
      ],
      "stateMutability": "view",
      "type": "function"
    },
    {
      "inputs": [
        {
          "internalType": "bytes32",
          "name": "_queryId",
          "type": "bytes32"
        },
        {
          "internalType": "uint256",
          "name": "_index",
          "type": "uint256"
        }
      ],
      "name": "getReportTimestampByIndex",
      "outputs": [
        {
          "internalType": "uint256",
          "name": "",
          "type": "uint256"
        }
      ],
      "stateMutability": "view",
      "type": "function"
    },
    {
      "inputs": [
        {
          "internalType": "bytes32",
          "name": "_queryId",
          "type": "bytes32"
        },
        {
          "internalType": "uint256",
          "name": "_timestamp",
          "type": "uint256"
        }
      ],
      "name": "getReporterByTimestamp",
      "outputs": [
        {
          "internalType": "address",
          "name": "",
          "type": "address"
        }
      ],
      "stateMutability": "view",
      "type": "function"
    },
    {
      "inputs": [
        {
          "internalType": "address",
          "name": "_reporter",
          "type": "address"
        }
      ],
      "name": "getReporterLastTimestamp",
      "outputs": [
        {
          "internalType": "uint256",
          "name": "",
          "type": "uint256"
        }
      ],
      "stateMutability": "view",
      "type": "function"
    },
    {
      "inputs": [],
      "name": "getReportingLock",
      "outputs": [
        {
          "internalType": "uint256",
          "name": "",
          "type": "uint256"
        }
      ],
      "stateMutability": "view",
      "type": "function"
    },
    {
      "inputs": [
        {
          "internalType": "address",
          "name": "_reporter",
          "type": "address"
        }
      ],
      "name": "getReportsSubmittedByAddress",
      "outputs": [
        {
          "internalType": "uint256",
          "name": "",
          "type": "uint256"
        }
      ],
      "stateMutability": "view",
      "type": "function"
    },
    {
      "inputs": [],
      "name": "getTimeBasedReward",
      "outputs": [
        {
          "internalType": "uint256",
          "name": "",
          "type": "uint256"
        }
      ],
      "stateMutability": "view",
      "type": "function"
    },
    {
      "inputs": [],
      "name": "getTimeOfLastNewValue",
      "outputs": [
        {
          "internalType": "uint256",
          "name": "",
          "type": "uint256"
        }
      ],
      "stateMutability": "view",
      "type": "function"
    },
    {
      "inputs": [
        {
          "internalType": "bytes32",
          "name": "_queryId",
          "type": "bytes32"
        }
      ],
      "name": "getTimestampCountById",
      "outputs": [
        {
          "internalType": "uint256",
          "name": "",
          "type": "uint256"
        }
      ],
      "stateMutability": "view",
      "type": "function"
    },
    {
      "inputs": [
        {
          "internalType": "bytes32",
          "name": "_queryId",
          "type": "bytes32"
        },
        {
          "internalType": "uint256",
          "name": "_timestamp",
          "type": "uint256"
        }
      ],
      "name": "getTimestampIndexByTimestamp",
      "outputs": [
        {
          "internalType": "uint256",
          "name": "",
          "type": "uint256"
        }
      ],
      "stateMutability": "view",
      "type": "function"
    },
    {
      "inputs": [
        {
          "internalType": "bytes32",
          "name": "_queryId",
          "type": "bytes32"
        }
      ],
      "name": "getTipsById",
      "outputs": [
        {
          "internalType": "uint256",
          "name": "",
          "type": "uint256"
        }
      ],
      "stateMutability": "view",
      "type": "function"
    },
    {
      "inputs": [
        {
          "internalType": "address",
          "name": "_user",
          "type": "address"
        }
      ],
      "name": "getTipsByUser",
      "outputs": [
        {
          "internalType": "uint256",
          "name": "",
          "type": "uint256"
        }
      ],
      "stateMutability": "view",
      "type": "function"
    },
    {
      "inputs": [
        {
          "internalType": "bytes32",
          "name": "_queryId",
          "type": "bytes32"
        },
        {
          "internalType": "uint256",
          "name": "_timestamp",
          "type": "uint256"
        }
      ],
      "name": "getValueByTimestamp",
      "outputs": [
        {
          "internalType": "bytes",
          "name": "",
          "type": "bytes"
        }
      ],
      "stateMutability": "view",
      "type": "function"
    },
    {
      "inputs": [
        {
          "internalType": "bytes32",
          "name": "_queryId",
          "type": "bytes32"
        },
        {
          "internalType": "uint256",
          "name": "_timestamp",
          "type": "uint256"
        }
      ],
      "name": "removeValue",
      "outputs": [],
      "stateMutability": "nonpayable",
      "type": "function"
    },
    {
      "inputs": [],
      "name": "reportingLock",
      "outputs": [
        {
          "internalType": "uint256",
          "name": "",
          "type": "uint256"
        }
      ],
      "stateMutability": "view",
      "type": "function"
    },
    {
      "inputs": [
        {
          "internalType": "bytes32",
          "name": "_queryId",
          "type": "bytes32"
        },
        {
          "internalType": "bytes",
          "name": "_value",
          "type": "bytes"
        },
        {
          "internalType": "uint256",
          "name": "_nonce",
          "type": "uint256"
        },
        {
          "internalType": "bytes",
          "name": "_queryData",
          "type": "bytes"
        }
      ],
      "name": "submitValue",
      "outputs": [],
      "stateMutability": "nonpayable",
      "type": "function"
    },
    {
      "inputs": [],
      "name": "timeBasedReward",
      "outputs": [
        {
          "internalType": "uint256",
          "name": "",
          "type": "uint256"
        }
      ],
      "stateMutability": "view",
      "type": "function"
    },
    {
      "inputs": [],
      "name": "timeOfLastNewValue",
      "outputs": [
        {
          "internalType": "uint256",
          "name": "",
          "type": "uint256"
        }
      ],
      "stateMutability": "view",
      "type": "function"
    },
    {
      "inputs": [
        {
          "internalType": "bytes32",
          "name": "_queryId",
          "type": "bytes32"
        },
        {
          "internalType": "uint256",
          "name": "_tip",
          "type": "uint256"
        },
        {
          "internalType": "bytes",
          "name": "_queryData",
          "type": "bytes"
        }
      ],
      "name": "tipQuery",
      "outputs": [],
      "stateMutability": "nonpayable",
      "type": "function"
    },
    {
      "inputs": [
        {
          "internalType": "bytes32",
          "name": "",
          "type": "bytes32"
        }
      ],
      "name": "tips",
      "outputs": [
        {
          "internalType": "uint256",
          "name": "",
          "type": "uint256"
        }
      ],
      "stateMutability": "view",
      "type": "function"
    },
    {
      "inputs": [],
      "name": "tipsInContract",
      "outputs": [
        {
          "internalType": "uint256",
          "name": "",
          "type": "uint256"
        }
      ],
      "stateMutability": "view",
      "type": "function"
    },
    {
      "inputs": [],
      "name": "verify",
      "outputs": [
        {
          "internalType": "uint256",
          "name": "",
          "type": "uint256"
        }
      ],
      "stateMutability": "pure",
      "type": "function"
    }
  ],
  "bytecode": "0x608060405261a8c06000556706f05b59d3b200006001554260025534801561002657600080fd5b50611e52806100366000396000f3fe608060405234801561001057600080fd5b50600436106101ae5760003560e01c80636fd4f229116100ee578063adf1639d11610097578063e07c548611610071578063e07c5486146103d7578063ef0234ad14610426578063ef4c262d14610439578063fc735e9914610459576101ae565b8063adf1639d14610393578063b736ec36146103a6578063c0f95d52146103cf576101ae565b806396426d97116100c857806396426d97146103335780639d9b16ed1461033c578063a1e588a51461036b576101ae565b80636fd4f229146102e85780637c37b8b4146102f1578063935408d014610304576101ae565b806350005b831161015b5780635eaa9ced116101355780635eaa9ced14610299578063602bf227146102ac57806369d43bd3146102cc5780636d53585f146102d5576101ae565b806350005b83146102485780635b5edcfc146102715780635d183cfa14610286576101ae565b806335e724321161018c57806335e72432146101f75780633878293e14610217578063460c33a214610240576101ae565b80630b2d2b0d146101b357806314d66b9a146101dc5780633321fc41146101ee575b600080fd5b6101c66101c1366004611b70565b610461565b6040516101d39190611cd9565b60405180910390f35b6001545b6040519081526020016101d3565b6101e060005481565b6101e0610205366004611ab3565b60009081526004602052604090205490565b6101e0610225366004611a54565b6001600160a01b031660009081526007602052604090205490565b6000546101e0565b6101e0610256366004611a54565b6001600160a01b031660009081526006602052604090205490565b61028461027f366004611b70565b610512565b005b610284610294366004611ab3565b6108b6565b6102846102a7366004611acb565b610a64565b6101e06102ba366004611ab3565b60056020526000908152604090205481565b6101e060035481565b6102846102e3366004611ab3565b611153565b6101e060025481565b6101e06102ff366004611b70565b6112b2565b6101e0610312366004611b70565b60009182526004602090815260408084209284526002909201905290205490565b6101e060015481565b6101e061034a366004611b70565b60009182526004602090815260408084209284526001909201905290205490565b61037e610379366004611ab3565b6112f3565b604080519283526020830191909152016101d3565b6101c66103a1366004611ab3565b61146a565b6101e06103b4366004611a54565b6001600160a01b031660009081526008602052604090205490565b6002546101e0565b61040e6103e5366004611b70565b60009182526004602081815260408085209385529290910190529020546001600160a01b031690565b6040516001600160a01b0390911681526020016101d3565b610284610434366004611b91565b611557565b6101e0610447366004611ab3565b60009081526005602052604090205490565b61270f6101e0565b6000828152600460209081526040808320848452600301909152902080546060919061048c90611d82565b80601f01602080910402602001604051908101604052809291908181526020018280546104b890611d82565b80156105055780601f106104da57610100808354040283529160200191610505565b820191906000526020600020905b8154815290600101906020018083116104e857829003601f168201915b5050505050905092915050565b60405163699f200f60e01b81527fefa19baa864049f50491093580c5433e97e8d5e41f8db1a61108b4fa44cacd9360048201527388df592f8eb5d7bd38bfef7deb0fbc02cf3778a09063699f200f90602401602060405180830381600087803b15801561057e57600080fd5b505af1158015610592573d6000803e3d6000fd5b505050506040513d601f19601f820116820180604052508101906105b69190611a77565b6001600160a01b0316336001600160a01b03161480610689575060405163699f200f60e01b81527ffa522e460446113e8fd353d7fa015625a68bc0369712213a42e006346440891e60048201527388df592f8eb5d7bd38bfef7deb0fbc02cf3778a09063699f200f90602401602060405180830381600087803b15801561063c57600080fd5b505af1158015610650573d6000803e3d6000fd5b505050506040513d601f19601f820116820180604052508101906106749190611a77565b6001600160a01b0316336001600160a01b0316145b6107005760405162461bcd60e51b815260206004820152603d60248201527f63616c6c6572206d7573742062652074686520676f7665726e616e636520636f60448201527f6e7472616374206f7220746865206f7261636c6520636f6e747261637400000060648201526084015b60405180910390fd5b60008281526004602090815260408083208484526001810190925290912054805b825461072f90600190611d6b565b8110156108075782610742826001611d14565b8154811061076057634e487b7160e01b600052603260045260246000fd5b906000526020600020015483600001828154811061078e57634e487b7160e01b600052603260045260246000fd5b906000526020600020018190555060018360010160008560000184815481106107c757634e487b7160e01b600052603260045260246000fd5b9060005260206000200154815260200190815260200160002060008282546107ef9190611d6b565b909155508190506107ff81611dbd565b915050610721565b508154829061081890600190611d6b565b8154811061083657634e487b7160e01b600052603260045260246000fd5b6000918252602082200155815482908061086057634e487b7160e01b600052603160045260246000fd5b6000828152602080822083016000199081018390559092019092556040805180830180835284825287855260038701909352922091516108a19291906118c0565b50506000918252600101602052604081205550565b60405163699f200f60e01b81527fefa19baa864049f50491093580c5433e97e8d5e41f8db1a61108b4fa44cacd9360048201527388df592f8eb5d7bd38bfef7deb0fbc02cf3778a09063699f200f90602401602060405180830381600087803b15801561092257600080fd5b505af1158015610936573d6000803e3d6000fd5b505050506040513d601f19601f8201168201806040525081019061095a9190611a77565b6001600160a01b0316336001600160a01b0316146109d65760405162461bcd60e51b815260206004820152603360248201527f4f6e6c7920676f7665726e616e636520636f6e74726163742063616e206368616044820152723733b2903932b837b93a34b733903637b1b59760691b60648201526084016106f7565b6283d6008110610a285760405162461bcd60e51b815260206004820152601f60248201527f496e76616c6964205f6e65775265706f7274696e674c6f636b2076616c75650060448201526064016106f7565b60008190556040518181527f8867dac9fd763aeaa408825321cc53f6fd67a46ea326adadfd2a378d17fedf22906020015b60405180910390a150565b600085815260046020526040902080548314610ac25760405162461bcd60e51b815260206004820181905260248201527f6e6f6e6365206d757374206d617463682074696d657374616d7020696e64657860448201526064016106f7565b600080543382526006602052604090912054610ade9042611d6b565b11610b3d5760405162461bcd60e51b815260206004820152602960248201527f7374696c6c20696e207265706f727465722074696d65206c6f636b2c20706c6560448201526861736520776169742160b81b60648201526084016106f7565b60405163699f200f60e01b81527ffa522e460446113e8fd353d7fa015625a68bc0369712213a42e006346440891e60048201527388df592f8eb5d7bd38bfef7deb0fbc02cf3778a09063699f200f90602401602060405180830381600087803b158015610ba957600080fd5b505af1158015610bbd573d6000803e3d6000fd5b505050506040513d601f19601f82011682018060405250810190610be19190611a77565b6001600160a01b0316306001600160a01b031614610c545760405162461bcd60e51b815260206004820152602a60248201527f63616e206f6e6c79207375626d697420746f2063757272656e74206f7261636c604482015269194818dbdb9d1c9858dd60b21b60648201526084016106f7565b81516020830120861480610c69575060648611155b610cb55760405162461bcd60e51b815260206004820152601d60248201527f6964206d7573742062652068617368206f66206279746573206461746100000060448201526064016106f7565b3360008181526006602052604080822042905551630733bdef60e41b815260048101929092527388df592f8eb5d7bd38bfef7deb0fbc02cf3778a091829063733bdef090602401604080518083038186803b158015610d1357600080fd5b505afa158015610d27573d6000803e3d6000fd5b505050506040513d601f19601f82011682018060405250810190610d4b9190611bf7565b50905080600114610d9e5760405162461bcd60e51b815260206004820152601d60248201527f5265706f7274657220737461747573206973206e6f74207374616b657200000060448201526064016106f7565b604051632d67853560e21b81527f5d9fadfc729fd027e395e5157ef1b53ef9fa4a8f053043c5f159307543e7cc9760048201526001600160a01b0383169063b59e14d490602401602060405180830381600087803b158015610dff57600080fd5b505af1158015610e13573d6000803e3d6000fd5b505050506040513d601f19601f82011682018060405250810190610e379190611bdf565b6040516370a0823160e01b81523360048201526001600160a01b038416906370a082319060240160206040518083038186803b158015610e7657600080fd5b505afa158015610e8a573d6000803e3d6000fd5b505050506040513d601f19601f82011682018060405250810190610eae9190611bdf565b1015610f0e5760405162461bcd60e51b815260206004820152602960248201527f62616c616e6365206d7573742062652067726561746572207468616e207374616044820152681ad948185b5bdd5b9d60ba1b60648201526084016106f7565b4260009081526004840160205260409020546001600160a01b031615610f765760405162461bcd60e51b815260206004820152601e60248201527f74696d657374616d7020616c7265616479207265706f7274656420666f72000060448201526064016106f7565b82544260008181526001808701602090815260408084208690559185018855878352808320909401839055918152600286018352818120439055600386019092529020610fc4908888611944565b504260009081526004840160205260408120805473ffffffffffffffffffffffffffffffffffffffff19163317905580610ffd8a6112f3565b9150915081600360008282546110139190611d6b565b90915550600090506110258383611d14565b11156110c5576001600160a01b03841663a9059cbb336110458585611d14565b6040516001600160e01b031960e085901b1681526001600160a01b0390921660048301526024820152604401602060405180830381600087803b15801561108b57600080fd5b505af115801561109f573d6000803e3d6000fd5b505050506040513d601f19601f820116820180604052508101906110c39190611a93565b505b60008a815260056020908152604080832083905542600255338352600790915281208054916110f383611dbd565b909155507fab1d593f8e2ecb165106e30a39db6769078d35c3fdbb110f24932f0d7af68c2990508a428b8b6111288688611d14565b8c8c3360405161113f989796959493929190611c65565b60405180910390a150505050505050505050565b60405163699f200f60e01b81527fefa19baa864049f50491093580c5433e97e8d5e41f8db1a61108b4fa44cacd9360048201527388df592f8eb5d7bd38bfef7deb0fbc02cf3778a09063699f200f90602401602060405180830381600087803b1580156111bf57600080fd5b505af11580156111d3573d6000803e3d6000fd5b505050506040513d601f19601f820116820180604052508101906111f79190611a77565b6001600160a01b0316336001600160a01b03161461127d5760405162461bcd60e51b815260206004820152603660248201527f4f6e6c7920676f7665726e616e636520636f6e74726163742063616e2063686160448201527f6e67652074696d65206261736564207265776172642e0000000000000000000060648201526084016106f7565b60018190556040518181527f01432c5d54689da3dbfec924c89d1e453ecaec349928ceabd50207e909e8f7de90602001610a59565b60008281526004602052604081208054839081106112e057634e487b7160e01b600052603260045260246000fd5b9060005260206000200154905092915050565b60008060007388df592f8eb5d7bd38bfef7deb0fbc02cf3778a0905060006002544261131f9190611d6b565b9050600061012c600154836113349190611d4c565b61133e9190611d2c565b90506003548161134e9190611d14565b6040516370a0823160e01b81523060048201526001600160a01b038516906370a082319060240160206040518083038186803b15801561138d57600080fd5b505afa1580156113a1573d6000803e3d6000fd5b505050506040513d601f19601f820116820180604052508101906113c59190611bdf565b1015611452576003546040516370a0823160e01b81523060048201526001600160a01b038516906370a082319060240160206040518083038186803b15801561140d57600080fd5b505afa158015611421573d6000803e3d6000fd5b505050506040513d601f19601f820116820180604052508101906114459190611bdf565b61144f9190611d6b565b90505b60009586526005602052604090952054959350505050565b600081815260046020526040812080546060926003830192909161149090600190611d6b565b815481106114ae57634e487b7160e01b600052603260045260246000fd5b9060005260206000200154815260200190815260200160002080546114d290611d82565b80601f01602080910402602001604051908101604052809291908181526020018280546114fe90611d82565b801561154b5780601f106115205761010080835404028352916020019161154b565b820191906000526020600020905b81548152906001019060200180831161152e57829003601f168201915b50505050509050919050565b600182116115a75760405162461bcd60e51b815260206004820152601c60248201527f5469702073686f756c642062652067726561746572207468616e20310000000060448201526064016106f7565b60405163288c9c9d60e01b8152336004820152306024820152604481018390527388df592f8eb5d7bd38bfef7deb0fbc02cf3778a09063288c9c9d90606401602060405180830381600087803b15801561160057600080fd5b505af1158015611614573d6000803e3d6000fd5b505050506040513d601f19601f820116820180604052508101906116389190611a93565b6116775760405162461bcd60e51b815260206004820152601060248201526f1d1a5c081b5d5cdd081899481c185a5960821b60448201526064016106f7565b8051602082012083148061168c575060648311155b8061174b575060405163699f200f60e01b81527fefa19baa864049f50491093580c5433e97e8d5e41f8db1a61108b4fa44cacd9360048201527388df592f8eb5d7bd38bfef7deb0fbc02cf3778a09063699f200f90602401602060405180830381600087803b1580156116fe57600080fd5b505af1158015611712573d6000803e3d6000fd5b505050506040513d601f19601f820116820180604052508101906117369190611a77565b6001600160a01b0316336001600160a01b0316145b6117975760405162461bcd60e51b815260206004820152601d60248201527f6964206d7573742062652068617368206f66206279746573206461746100000060448201526064016106f7565b6117a2600283611d2c565b604051630852cd8d60e31b8152600481018290529092507388df592f8eb5d7bd38bfef7deb0fbc02cf3778a0906342966c6890602401600060405180830381600087803b1580156117f257600080fd5b505af1158015611806573d6000803e3d6000fd5b5050506000848152600560205260408120805485935090919061182a908490611d14565b9091555050336000908152600860205260408120805484929061184e908490611d14565b9250508190555081600360008282546118679190611d14565b909155505060008381526005602052604090819020549051849133917fd951d408a0f5057da5c25b826fb5ce403d56542962b6ac6994dbc6d5432fbff5916118b3918791908790611cec565b60405180910390a3505050565b8280546118cc90611d82565b90600052602060002090601f0160209004810192826118ee5760008555611934565b82601f1061190757805160ff1916838001178555611934565b82800160010185558215611934579182015b82811115611934578251825591602001919060010190611919565b506119409291506119b8565b5090565b82805461195090611d82565b90600052602060002090601f0160209004810192826119725760008555611934565b82601f1061198b5782800160ff19823516178555611934565b82800160010185558215611934579182015b8281111561193457823582559160200191906001019061199d565b5b8082111561194057600081556001016119b9565b600082601f8301126119dd578081fd5b813567ffffffffffffffff808211156119f8576119f8611dee565b604051601f8301601f19908116603f01168101908282118183101715611a2057611a20611dee565b81604052838152866020858801011115611a38578485fd5b8360208701602083013792830160200193909352509392505050565b600060208284031215611a65578081fd5b8135611a7081611e04565b9392505050565b600060208284031215611a88578081fd5b8151611a7081611e04565b600060208284031215611aa4578081fd5b81518015158114611a70578182fd5b600060208284031215611ac4578081fd5b5035919050565b600080600080600060808688031215611ae2578081fd5b85359450602086013567ffffffffffffffff80821115611b00578283fd5b818801915088601f830112611b13578283fd5b813581811115611b21578384fd5b896020828501011115611b32578384fd5b60208301965080955050604088013593506060880135915080821115611b56578283fd5b50611b63888289016119cd565b9150509295509295909350565b60008060408385031215611b82578182fd5b50508035926020909101359150565b600080600060608486031215611ba5578283fd5b8335925060208401359150604084013567ffffffffffffffff811115611bc9578182fd5b611bd5868287016119cd565b9150509250925092565b600060208284031215611bf0578081fd5b5051919050565b60008060408385031215611c09578182fd5b505080516020909101519092909150565b60008151808452815b81811015611c3f57602081850181015186830182015201611c23565b81811115611c505782602083870101525b50601f01601f19169290920160200192915050565b600089825288602083015260e060408301528660e083015261010087898285013781818985010152601f19601f8901168301876060850152866080850152818482030160a0850152611cb982820187611c1a565b925050506001600160a01b03831660c08301529998505050505050505050565b600060208252611a706020830184611c1a565b600084825283602083015260606040830152611d0b6060830184611c1a565b95945050505050565b60008219821115611d2757611d27611dd8565b500190565b600082611d4757634e487b7160e01b81526012600452602481fd5b500490565b6000816000190483118215151615611d6657611d66611dd8565b500290565b600082821015611d7d57611d7d611dd8565b500390565b600181811c90821680611d9657607f821691505b60208210811415611db757634e487b7160e01b600052602260045260246000fd5b50919050565b6000600019821415611dd157611dd1611dd8565b5060010190565b634e487b7160e01b600052601160045260246000fd5b634e487b7160e01b600052604160045260246000fd5b6001600160a01b0381168114611e1957600080fd5b5056fea264697066735822122033f3e19fb0a3ab9d0cd85bfc65ae28c5d6bad02b27fa00ea3debd398c139887764736f6c63430008030033",
  "linkReferences": {},
  "deployedLinkReferences": {}
}