{
  "_format": "hh-sol-artifact-1",
  "contractName": "Treasury",
  "sourceName": "contracts/tellor360/oldContracts/contracts/Treasury.sol",
  "abi": [
    {
      "anonymous": false,
      "inputs": [
        {
          "indexed": false,
          "internalType": "uint256",
          "name": "_id",
          "type": "uint256"
        },
        {
          "indexed": false,
          "internalType": "uint256",
          "name": "_amount",
          "type": "uint256"
        },
        {
          "indexed": false,
          "internalType": "uint256",
          "name": "_rate",
          "type": "uint256"
        }
      ],
      "name": "TreasuryIssued",
      "type": "event"
    },
    {
      "anonymous": false,
      "inputs": [
        {
          "indexed": false,
          "internalType": "address",
          "name": "_investor",
          "type": "address"
        },
        {
          "indexed": false,
          "internalType": "uint256",
          "name": "_amount",
          "type": "uint256"
        }
      ],
      "name": "TreasuryPaid",
      "type": "event"
    },
    {
      "anonymous": false,
      "inputs": [
        {
          "indexed": false,
          "internalType": "address",
          "name": "_investor",
          "type": "address"
        },
        {
          "indexed": false,
          "internalType": "uint256",
          "name": "_amount",
          "type": "uint256"
        }
      ],
      "name": "TreasuryPurchased",
      "type": "event"
    },
    {
      "inputs": [
        {
          "internalType": "uint256",
          "name": "_id",
          "type": "uint256"
        },
        {
          "internalType": "uint256",
          "name": "_amount",
          "type": "uint256"
        }
      ],
      "name": "buyTreasury",
      "outputs": [],
      "stateMutability": "nonpayable",
      "type": "function"
    },
    {
      "inputs": [
        {
          "internalType": "uint256",
          "name": "_id",
          "type": "uint256"
        },
        {
          "internalType": "address",
          "name": "_investor",
          "type": "address"
        }
      ],
      "name": "getTreasuryAccount",
      "outputs": [
        {
          "internalType": "uint256",
          "name": "",
          "type": "uint256"
        },
        {
          "internalType": "uint256",
          "name": "",
          "type": "uint256"
        },
        {
          "internalType": "bool",
          "name": "",
          "type": "bool"
        }
      ],
      "stateMutability": "view",
      "type": "function"
    },
    {
      "inputs": [],
      "name": "getTreasuryCount",
      "outputs": [
        {
          "internalType": "uint256",
          "name": "",
          "type": "uint256"
        }
      ],
      "stateMutability": "view",
      "type": "function"
    },
    {
      "inputs": [
        {
          "internalType": "uint256",
          "name": "_id",
          "type": "uint256"
        }
      ],
      "name": "getTreasuryDetails",
      "outputs": [
        {
          "internalType": "uint256",
          "name": "",
          "type": "uint256"
        },
        {
          "internalType": "uint256",
          "name": "",
          "type": "uint256"
        },
        {
          "internalType": "uint256",
          "name": "",
          "type": "uint256"
        },
        {
          "internalType": "uint256",
          "name": "",
          "type": "uint256"
        }
      ],
      "stateMutability": "view",
      "type": "function"
    },
    {
      "inputs": [
        {
          "internalType": "address",
          "name": "_user",
          "type": "address"
        }
      ],
      "name": "getTreasuryFundsByUser",
      "outputs": [
        {
          "internalType": "uint256",
          "name": "",
          "type": "uint256"
        }
      ],
      "stateMutability": "view",
      "type": "function"
    },
    {
      "inputs": [
        {
          "internalType": "uint256",
          "name": "_id",
          "type": "uint256"
        }
      ],
      "name": "getTreasuryOwners",
      "outputs": [
        {
          "internalType": "address[]",
          "name": "",
          "type": "address[]"
        }
      ],
      "stateMutability": "view",
      "type": "function"
    },
    {
      "inputs": [
        {
          "internalType": "uint256",
          "name": "_maxAmount",
          "type": "uint256"
        },
        {
          "internalType": "uint256",
          "name": "_rate",
          "type": "uint256"
        },
        {
          "internalType": "uint256",
          "name": "_duration",
          "type": "uint256"
        }
      ],
      "name": "issueTreasury",
      "outputs": [],
      "stateMutability": "nonpayable",
      "type": "function"
    },
    {
      "inputs": [
        {
          "internalType": "address",
          "name": "_investor",
          "type": "address"
        },
        {
          "internalType": "uint256",
          "name": "_id",
          "type": "uint256"
        }
      ],
      "name": "payTreasury",
      "outputs": [],
      "stateMutability": "nonpayable",
      "type": "function"
    },
    {
      "inputs": [],
      "name": "totalLocked",
      "outputs": [
        {
          "internalType": "uint256",
          "name": "",
          "type": "uint256"
        }
      ],
      "stateMutability": "view",
      "type": "function"
    },
    {
      "inputs": [
        {
          "internalType": "uint256",
          "name": "",
          "type": "uint256"
        }
      ],
      "name": "treasury",
      "outputs": [
        {
          "internalType": "uint256",
          "name": "dateStarted",
          "type": "uint256"
        },
        {
          "internalType": "uint256",
          "name": "maxAmount",
          "type": "uint256"
        },
        {
          "internalType": "uint256",
          "name": "rate",
          "type": "uint256"
        },
        {
          "internalType": "uint256",
          "name": "purchasedAmount",
          "type": "uint256"
        },
        {
          "internalType": "uint256",
          "name": "duration",
          "type": "uint256"
        },
        {
          "internalType": "uint256",
          "name": "endVoteCount",
          "type": "uint256"
        },
        {
          "internalType": "bool",
          "name": "endVoteCountRecorded",
          "type": "bool"
        }
      ],
      "stateMutability": "view",
      "type": "function"
    },
    {
      "inputs": [],
      "name": "treasuryCount",
      "outputs": [
        {
          "internalType": "uint256",
          "name": "",
          "type": "uint256"
        }
      ],
      "stateMutability": "view",
      "type": "function"
    },
    {
      "inputs": [],
      "name": "verify",
      "outputs": [
        {
          "internalType": "uint256",
          "name": "",
          "type": "uint256"
        }
      ],
      "stateMutability": "pure",
      "type": "function"
    },
    {
      "inputs": [
        {
          "internalType": "uint256",
          "name": "_id",
          "type": "uint256"
        },
        {
          "internalType": "address",
          "name": "_investor",
          "type": "address"
        }
      ],
      "name": "wasPaid",
      "outputs": [
        {
          "internalType": "bool",
          "name": "",
          "type": "bool"
        }
      ],
      "stateMutability": "view",
      "type": "function"
    }
  ],
  "bytecode": "0x608060405234801561001057600080fd5b506118a4806100206000396000f3fe608060405234801561001057600080fd5b50600436106100df5760003560e01c806373342a471161008c578063ae23fae111610066578063ae23fae1146102a4578063c0d10bd31461030d578063ef36298014610316578063fc735e9914610329576100df565b806373342a471461021f578063770d458f146102735780638e0918b51461029c576100df565b806356891412116100bd57806356891412146101e05780636274885f146101f75780636a64b8151461020c576100df565b80631683ca53146100e45780634c5430a01461010d5780634d90d70514610192575b600080fd5b6100f76100f2366004611640565b610331565b60405161010491906116eb565b60405180910390f35b61015b61011b366004611640565b6002602081905260009182526040909120805460018201549282015460038301546004840154600585015460069095015493959492939192909160ff1687565b604080519788526020880196909652948601939093526060850191909152608084015260a0830152151560c082015260e001610104565b6101d06101a0366004611670565b60009182526002602081815260408085206001600160a01b03949094168552600890930190529120015460ff1690565b6040519015158152602001610104565b6101e960005481565b604051908152602001610104565b61020a6102053660046116c0565b6103a1565b005b61020a61021a36600461169f565b6106ec565b61025361022d366004611640565b600090815260026020819052604090912080546001820154928201546003909201549093565b604080519485526020850193909352918301526060820152608001610104565b6101e96102813660046114ce565b6001600160a01b031660009081526003602052604090205490565b6001546101e9565b6102f06102b2366004611670565b60009182526002602081815260408085206001600160a01b039490941685526008909301905291208054600182015491909201549192909160ff1690565b604080519384526020840192909252151590820152606001610104565b6101e960015481565b61020a61032436600461150d565b610b4b565b61270f6101e9565b60008181526002602090815260409182902060070180548351818402810184019094528084526060939283018282801561039457602002820191906000526020600020905b81546001600160a01b03168152600190910190602001808311610376575b505050505090505b919050565b60405163699f200f60e01b81527fefa19baa864049f50491093580c5433e97e8d5e41f8db1a61108b4fa44cacd9360048201527388df592f8eb5d7bd38bfef7deb0fbc02cf3778a09063699f200f90602401602060405180830381600087803b15801561040d57600080fd5b505af1158015610421573d6000803e3d6000fd5b505050506040513d601f19601f8201168201806040525081019061044591906114f1565b6001600160a01b0316336001600160a01b0316146104d05760405162461bcd60e51b815260206004820152603860248201527f4f6e6c7920676f7665726e616e636520636f6e747261637420697320616c6c6f60448201527f77656420746f20697373756520612074726561737572792e000000000000000060648201526084015b60405180910390fd5b60008311801561056457507388df592f8eb5d7bd38bfef7deb0fbc02cf3778a06001600160a01b03166318160ddd6040518163ffffffff1660e01b815260040160206040518083038186803b15801561052857600080fd5b505afa15801561053c573d6000803e3d6000fd5b505050506040513d601f19601f820116820180604052508101906105609190611658565b8311155b6105b05760405162461bcd60e51b815260206004820152601760248201527f496e76616c6964206d6178416d6f756e742076616c756500000000000000000060448201526064016104c7565b6000811180156105c457506312cc03008111155b6106105760405162461bcd60e51b815260206004820152601660248201527f496e76616c6964206475726174696f6e2076616c75650000000000000000000060448201526064016104c7565b60008211801561062257506127108211155b6106635760405162461bcd60e51b8152602060048201526012602482015271496e76616c696420726174652076616c756560701b60448201526064016104c7565b600180549060006106738361180f565b9091555050600180546000908152600260208181526040928390204281558085018890559182018690556004820185905592548251908152928301869052908201849052907f8367280ac4cb31fa57a2eafd8ea57b9f89ad982a81eb4d2ceb976f48d973bb01906060015b60405180910390a150505050565b600081116107465760405162461bcd60e51b815260206004820152602160248201527f416d6f756e74206d7573742062652067726561746572207468616e207a65726f6044820152601760f91b60648201526084016104c7565b60405163288c9c9d60e01b8152336004820152306024820152604481018290527388df592f8eb5d7bd38bfef7deb0fbc02cf3778a09063288c9c9d90606401602060405180830381600087803b15801561079f57600080fd5b505af11580156107b3573d6000803e3d6000fd5b505050506040513d601f19601f820116820180604052508101906107d79190611538565b6108355760405162461bcd60e51b815260206004820152602960248201527f496e73756666696369656e742062616c616e63652e205472792061206c6f7765604482015268391030b6b7bab73a1760b91b60648201526084016104c7565b336000908152600360205260408120805483929061085490849061178a565b909155505060008281526002602052604090206004810154815442916108799161178a565b116108c65760405162461bcd60e51b815260206004820152601e60248201527f5472656173757279206475726174696f6e2068617320657870697265642e000060448201526064016104c7565b806003015481600101546108da91906117e1565b8211156109405760405162461bcd60e51b815260206004820152602e60248201527f4e6f7420656e6f756768206d6f6e657920696e207472656173757279206c656660448201526d3a103a3790383ab931b430b9b29760911b60648201526084016104c7565b60405163699f200f60e01b81527fefa19baa864049f50491093580c5433e97e8d5e41f8db1a61108b4fa44cacd9360048201526000907388df592f8eb5d7bd38bfef7deb0fbc02cf3778a09063699f200f90602401602060405180830381600087803b1580156109af57600080fd5b505af11580156109c3573d6000803e3d6000fd5b505050506040513d601f19601f820116820180604052508101906109e791906114f1565b336000908152600884016020526040902054909150610abe57806001600160a01b031663e7b3387c6040518163ffffffff1660e01b815260040160206040518083038186803b158015610a3957600080fd5b505afa158015610a4d573d6000803e3d6000fd5b505050506040513d601f19601f82011682018060405250810190610a719190611658565b33600081815260088501602090815260408220600190810194909455600786018054948501815582529020909101805473ffffffffffffffffffffffffffffffffffffffff191690911790555b82826003016000828254610ad2919061178a565b909155505033600090815260088301602052604081208054859290610af890849061178a565b9250508190555082600080828254610b10919061178a565b909155505060408051338152602081018590527f448c83bb324b75916cb56930a3210f5ad589af4634f337ea8679f2cb1a5ac9c691016106de565b6000818152600260205260409020600154821115610bbf5760405162461bcd60e51b815260206004820152602b60248201527f494420646f6573206e6f7420636f72726573706f6e6420746f20612076616c6960448201526a32103a3932b0b9bab93c9760a91b60648201526084016104c7565b600481015481544291610bd19161178a565b1115610c2a5760405162461bcd60e51b815260206004820152602260248201527f5472656173757279206475726174696f6e20686173206e6f7420657870697265604482015261321760f11b60648201526084016104c7565b6001600160a01b038316600090815260088201602052604090206002015460ff1615610ca95760405162461bcd60e51b815260206004820152602860248201527f547265617375727920696e766573746f722068617320616c726561647920626560448201526732b7103830b4b21760c11b60648201526084016104c7565b6001600160a01b0383166000908152600882016020526040902054610d1b5760405162461bcd60e51b815260206004820152602260248201527f41646472657373206973206e6f74206120747265617375727920696e7665737460448201526137b960f11b60648201526084016104c7565b60405163699f200f60e01b81527fefa19baa864049f50491093580c5433e97e8d5e41f8db1a61108b4fa44cacd936004820152600090819081907388df592f8eb5d7bd38bfef7deb0fbc02cf3778a09063699f200f90602401602060405180830381600087803b158015610d8e57600080fd5b505af1158015610da2573d6000803e3d6000fd5b505050506040513d601f19601f82011682018060405250810190610dc691906114f1565b600685015490915060ff16610fb5576000816001600160a01b031663e7b3387c6040518163ffffffff1660e01b815260040160206040518083038186803b158015610e1057600080fd5b505afa158015610e24573d6000803e3d6000fd5b505050506040513d601f19601f82011682018060405250810190610e489190611658565b90508015610fa057604051638d82427360e01b8152600481018290526000906001600160a01b03841690638d8242739060240160006040518083038186803b158015610e9357600080fd5b505afa158015610ea7573d6000803e3d6000fd5b505050506040513d6000823e601f3d908101601f19168201604052610ecf9190810190611552565b50505050509150505b600082118015610efb575060048601548654610ef4919061178a565b6020820151115b15610f9e5781610f0a816117f8565b9250508115610f9957604051638d82427360e01b8152600481018390526001600160a01b03841690638d8242739060240160006040518083038186803b158015610f5357600080fd5b505afa158015610f67573d6000803e3d6000fd5b505050506040513d6000823e601f3d908101601f19168201604052610f8f9190810190611552565b5093955050505050505b610ed8565b505b600585015560068401805460ff191660011790555b6001600160a01b0386166000908152600885016020526040902060010154600585015411156110dc576001600160a01b03861660009081526008850160205260409020600101545b84600501548110156110da5760006001600160a01b03831663a7c438bc61102584600161178a565b6040516001600160e01b031960e084901b16815260048101919091526001600160a01b038b16602482015260440160206040518083038186803b15801561106b57600080fd5b505afa15801561107f573d6000803e3d6000fd5b505050506040513d601f19601f820116820180604052508101906110a39190611538565b905080156110b957846110b58161180f565b9550505b836110c38161180f565b9450505080806110d29061180f565b915050610ffd565b505b60028401546001600160a01b038716600090815260088601602052604081205490916127109161110c91906117c2565b61111691906117a2565b90508215611136578261112985836117c2565b61113391906117a2565b90505b80156111a8576040516340c10f1960e01b8152306004820152602481018290527388df592f8eb5d7bd38bfef7deb0fbc02cf3778a0906340c10f1990604401600060405180830381600087803b15801561118f57600080fd5b505af11580156111a3573d6000803e3d6000fd5b505050505b6001600160a01b0387166000908152600886016020526040812054815490919081906111d59084906117e1565b90915550506001600160a01b03871660009081526008860160205260409020547388df592f8eb5d7bd38bfef7deb0fbc02cf3778a09063a9059cbb90899061121d908561178a565b6040516001600160e01b031960e085901b1681526001600160a01b0390921660048301526024820152604401602060405180830381600087803b15801561126357600080fd5b505af1158015611277573d6000803e3d6000fd5b505050506040513d601f19601f8201168201806040525081019061129b9190611538565b506001600160a01b0387166000908152600886016020908152604080832054600390925282208054919290916112d29084906117e1565b90915550506001600160a01b0387166000908152600886016020526040902060028101805460ff19166001179055547fb5668d929317b36d7b61952ab446b7e4dd82c4d9f90788b407c35e90440f567890889061132f908461178a565b604080516001600160a01b03909316835260208301919091520160405180910390a150505050505050565b600082601f83011261136a578081fd5b6113746040611738565b808385604086011115611385578384fd5b835b60028110156113b057815161139b81611856565b84526020938401939190910190600101611387565b509095945050505050565b600082601f8301126113cb578081fd5b6113d56040611738565b8083856040860111156113e6578384fd5b835b60028110156113b0576113fa8261140f565b845260209384019391909101906001016113e8565b8051801515811461039c57600080fd5b80516001600160e01b03198116811461039c57600080fd5b600082601f830112611447578081fd5b815167ffffffffffffffff81111561146157611461611840565b6020611475601f8301601f19168201611738565b8281528582848701011115611488578384fd5b835b838110156114a557858101830151828201840152820161148a565b838111156114b557848385840101525b5095945050505050565b80516003811061039c57600080fd5b6000602082840312156114df578081fd5b81356114ea81611856565b9392505050565b600060208284031215611502578081fd5b81516114ea81611856565b6000806040838503121561151f578081fd5b823561152a81611856565b946020939093013593505050565b600060208284031215611549578081fd5b6114ea8261140f565b6000806000806000806000610200888a03121561156d578283fd5b87519650602089603f8a0112611581578384fd5b600861159461158f82611769565b611738565b80838c016101208d018e8111156115a9578889fd5b885b858110156115c7578251855293860193918601916001016115ab565b50829b506115d58f826113bb565b9a505050505050506115ea61016089016114bf565b935061018088015167ffffffffffffffff811115611606578384fd5b6116128a828b01611437565b9350506116226101a0890161141f565b9150611632896101c08a0161135a565b905092959891949750929550565b600060208284031215611651578081fd5b5035919050565b600060208284031215611669578081fd5b5051919050565b60008060408385031215611682578182fd5b82359150602083013561169481611856565b809150509250929050565b600080604083850312156116b1578182fd5b50508035926020909101359150565b6000806000606084860312156116d4578081fd5b505081359360208301359350604090920135919050565b6020808252825182820181905260009190848201906040850190845b8181101561172c5783516001600160a01b031683529284019291840191600101611707565b50909695505050505050565b604051601f8201601f1916810167ffffffffffffffff8111828210171561176157611761611840565b604052919050565b600067ffffffffffffffff82111561178357611783611840565b5060051b90565b6000821982111561179d5761179d61182a565b500190565b6000826117bd57634e487b7160e01b81526012600452602481fd5b500490565b60008160001904831182151516156117dc576117dc61182a565b500290565b6000828210156117f3576117f361182a565b500390565b6000816118075761180761182a565b506000190190565b60006000198214156118235761182361182a565b5060010190565b634e487b7160e01b600052601160045260246000fd5b634e487b7160e01b600052604160045260246000fd5b6001600160a01b038116811461186b57600080fd5b5056fea26469706673582212200996c566bdca52891b8c2844698fd13af98aa26cc5b5ac67fd0c2c42b2a3247864736f6c63430008030033",
  "linkReferences": {},
  "deployedLinkReferences": {}
}