{
  "_format": "hh-sol-artifact-1",
  "contractName": "TellorProvider",
  "sourceName": "contracts/tellor360/oldContracts/contracts/testing/TellorProvider.sol",
  "abi": [
    {
      "inputs": [
        {
          "internalType": "address",
          "name": "_tellor",
          "type": "address"
        },
        {
          "internalType": "address",
          "name": "_medianOracle",
          "type": "address"
        }
      ],
      "stateMutability": "nonpayable",
      "type": "constructor"
    },
    {
      "inputs": [],
      "name": "medianOracle",
      "outputs": [
        {
          "internalType": "contract IMedianOracle",
          "name": "",
          "type": "address"
        }
      ],
      "stateMutability": "view",
      "type": "function"
    },
    {
      "inputs": [],
      "name": "pushTellor",
      "outputs": [],
      "stateMutability": "nonpayable",
      "type": "function"
    },
    {
      "inputs": [],
      "name": "tellor",
      "outputs": [
        {
          "internalType": "contract ITellorGetters",
          "name": "",
          "type": "address"
        }
      ],
      "stateMutability": "view",
      "type": "function"
    },
    {
      "inputs": [],
      "name": "tellorReport",
      "outputs": [
        {
          "internalType": "uint128",
          "name": "time0",
          "type": "uint128"
        },
        {
          "internalType": "uint128",
          "name": "time1",
          "type": "uint128"
        }
      ],
      "stateMutability": "view",
      "type": "function"
    },
    {
      "inputs": [],
      "name": "verifyTellorReports",
      "outputs": [],
      "stateMutability": "nonpayable",
      "type": "function"
    }
  ],
  "bytecode": "0x608060405234801561001057600080fd5b5060405161065538038061065583398101604081905261002f9161007c565b600080546001600160a01b039384166001600160a01b031991821617909155600180549290931691161790556100ae565b80516001600160a01b038116811461007757600080fd5b919050565b6000806040838503121561008e578182fd5b61009783610060565b91506100a560208401610060565b90509250929050565b610598806100bd6000396000f3fe608060405234801561001057600080fd5b50600436106100575760003560e01c806306fc543d1461005c5780631959ad5b1461009f57806363a60236146100ca578063bd5a8f5f146100d4578063e0eced99146100e7575b600080fd5b60025461007a906001600160801b0380821691600160801b90041682565b604080516001600160801b039384168152929091166020830152015b60405180910390f35b6000546100b2906001600160a01b031681565b6040516001600160a01b039091168152602001610096565b6100d26100ef565b005b6001546100b2906001600160a01b031681565b6100d26101c2565b6000806100fa61035f565b60025491945092506001600160801b03600160801b82048116911610905061013b57600280546001600160801b03808416600160801b029116179055610160565b600280546fffffffffffffffffffffffffffffffff19166001600160801b0383161790555b600154604051631e20d14b60e01b8152600481018490526001600160a01b0390911690631e20d14b90602401600060405180830381600087803b1580156101a657600080fd5b505af11580156101ba573d6000803e3d6000fd5b505050505050565b6000546002546040516393fa491560e01b8152600a60048201526001600160801b0390911660248201526001600160a01b03909116906393fa49159060440160206040518083038186803b15801561021957600080fd5b505afa15801561022d573d6000803e3d6000fd5b505050506040513d601f19601f820116820180604052508101906102519190610527565b15806102ef57506000546002546040516393fa491560e01b8152600a6004820152600160801b9091046001600160801b031660248201526001600160a01b03909116906393fa49159060440160206040518083038186803b1580156102b557600080fd5b505afa1580156102c9573d6000803e3d6000fd5b505050506040513d601f19601f820116820180604052508101906102ed9190610527565b155b1561035d57600160009054906101000a90046001600160a01b03166001600160a01b031663d13d59716040518163ffffffff1660e01b8152600401600060405180830381600087803b15801561034457600080fd5b505af1158015610358573d6000803e3d6000fd5b505050505b565b600080546040516311bbb87160e21b8152600a60048201528291829182916001600160a01b0316906346eee1c49060240160206040518083038186803b1580156103a857600080fd5b505afa1580156103bc573d6000803e3d6000fd5b505050506040513d601f19601f820116820180604052508101906103e09190610527565b9050801561051557600080546001600160a01b03166377fbb663600a61040760018661053f565b6040516001600160e01b031960e085901b1681526004810192909252602482015260440160206040518083038186803b15801561044357600080fd5b505afa158015610457573d6000803e3d6000fd5b505050506040513d601f19601f8201168201806040525081019061047b9190610527565b600080546040516393fa491560e01b8152600a60048201526024810184905292935090916001600160a01b03909116906393fa49159060440160206040518083038186803b1580156104cc57600080fd5b505afa1580156104e0573d6000803e3d6000fd5b505050506040513d601f19601f820116820180604052508101906105049190610527565b600196509450909250610522915050565b6000806000935093509350505b909192565b600060208284031215610538578081fd5b5051919050565b60008282101561055d57634e487b7160e01b81526011600452602481fd5b50039056fea264697066735822122030378fef95233911122cec31686c39ebd66737d63af17cdef9773f03a07b2d0064736f6c63430008030033",
  "linkReferences": {},
  "deployedLinkReferences": {}
}