{
  "_format": "hh-sol-artifact-1",
  "contractName": "BridgeProxyMock",
  "sourceName": "contracts/testing/BridgeProxyMock.sol",
  "abi": [
    {
      "inputs": [
        {
          "internalType": "address",
          "name": "_implementation",
          "type": "address"
        }
      ],
      "stateMutability": "nonpayable",
      "type": "constructor"
    },
    {
      "inputs": [],
      "name": "implementation",
      "outputs": [
        {
          "internalType": "address",
          "name": "",
          "type": "address"
        }
      ],
      "stateMutability": "view",
      "type": "function"
    },
    {
      "inputs": [],
      "name": "pauseBridge",
      "outputs": [],
      "stateMutability": "nonpayable",
      "type": "function"
    },
    {
      "inputs": [],
      "name": "paused",
      "outputs": [
        {
          "internalType": "bool",
          "name": "",
          "type": "bool"
        }
      ],
      "stateMutability": "view",
      "type": "function"
    },
    {
      "inputs": [],
      "name": "unpauseBridge",
      "outputs": [],
      "stateMutability": "nonpayable",
      "type": "function"
    },
    {
      "inputs": [
        {
          "internalType": "address",
          "name": "_newImplementation",
          "type": "address"
        }
      ],
      "name": "updateImplementation",
      "outputs": [],
      "stateMutability": "nonpayable",
      "type": "function"
    }
  ],
  "bytecode": "0x608060405234801561001057600080fd5b506040516103a63803806103a68339818101604052810190610032919061008d565b806000806101000a81548173ffffffffffffffffffffffffffffffffffffffff021916908373ffffffffffffffffffffffffffffffffffffffff160217905550506100ff565b600081519050610087816100e8565b92915050565b60006020828403121561009f57600080fd5b60006100ad84828501610078565b91505092915050565b60006100c1826100c8565b9050919050565b600073ffffffffffffffffffffffffffffffffffffffff82169050919050565b6100f1816100b6565b81146100fc57600080fd5b50565b6102988061010e6000396000f3fe608060405234801561001057600080fd5b50600436106100575760003560e01c8063025b22bc1461005c5780635c60da1b146100785780635c975abb146100965780637dd0480f146100b4578063a82f143c146100be575b600080fd5b61007660048036038101906100719190610190565b6100c8565b005b61008061010b565b60405161008d91906101d7565b60405180910390f35b61009e61012f565b6040516100ab91906101f2565b60405180910390f35b6100bc610142565b005b6100c661015f565b005b806000806101000a81548173ffffffffffffffffffffffffffffffffffffffff021916908373ffffffffffffffffffffffffffffffffffffffff16021790555050565b60008054906101000a900473ffffffffffffffffffffffffffffffffffffffff1681565b600060149054906101000a900460ff1681565b6001600060146101000a81548160ff021916908315150217905550565b60008060146101000a81548160ff021916908315150217905550565b60008135905061018a8161024b565b92915050565b6000602082840312156101a257600080fd5b60006101b08482850161017b565b91505092915050565b6101c28161020d565b82525050565b6101d18161021f565b82525050565b60006020820190506101ec60008301846101b9565b92915050565b600060208201905061020760008301846101c8565b92915050565b60006102188261022b565b9050919050565b60008115159050919050565b600073ffffffffffffffffffffffffffffffffffffffff82169050919050565b6102548161020d565b811461025f57600080fd5b5056fea264697066735822122092f41e97798b8e3a370353b204cdc8b1f2843cfc2a468ed3352750a32fece8f364736f6c63430008030033",
  "linkReferences": {},
  "deployedLinkReferences": {}
}