{
  "_format": "hh-sol-artifact-1",
  "contractName": "Getters",
  "sourceName": "contracts/tellor360/oldContracts/contracts/Getters.sol",
  "abi": [
    {
      "inputs": [
        {
          "internalType": "address",
          "name": "",
          "type": "address"
        },
        {
          "internalType": "address",
          "name": "",
          "type": "address"
        }
      ],
      "name": "_allowances",
      "outputs": [
        {
          "internalType": "uint256",
          "name": "",
          "type": "uint256"
        }
      ],
      "stateMutability": "view",
      "type": "function"
    },
    {
      "inputs": [
        {
          "internalType": "bytes32",
          "name": "",
          "type": "bytes32"
        }
      ],
      "name": "addresses",
      "outputs": [
        {
          "internalType": "address",
          "name": "",
          "type": "address"
        }
      ],
      "stateMutability": "view",
      "type": "function"
    },
    {
      "inputs": [
        {
          "internalType": "address",
          "name": "",
          "type": "address"
        },
        {
          "internalType": "uint256",
          "name": "",
          "type": "uint256"
        }
      ],
      "name": "balances",
      "outputs": [
        {
          "internalType": "uint128",
          "name": "fromBlock",
          "type": "uint128"
        },
        {
          "internalType": "uint128",
          "name": "value",
          "type": "uint128"
        }
      ],
      "stateMutability": "view",
      "type": "function"
    },
    {
      "inputs": [
        {
          "internalType": "bytes32",
          "name": "",
          "type": "bytes32"
        }
      ],
      "name": "bytesVars",
      "outputs": [
        {
          "internalType": "bytes32",
          "name": "",
          "type": "bytes32"
        }
      ],
      "stateMutability": "view",
      "type": "function"
    },
    {
      "inputs": [
        {
          "internalType": "uint256",
          "name": "",
          "type": "uint256"
        }
      ],
      "name": "currentMiners",
      "outputs": [
        {
          "internalType": "uint256",
          "name": "value",
          "type": "uint256"
        },
        {
          "internalType": "address",
          "name": "miner",
          "type": "address"
        }
      ],
      "stateMutability": "view",
      "type": "function"
    },
    {
      "inputs": [
        {
          "internalType": "bytes32",
          "name": "",
          "type": "bytes32"
        }
      ],
      "name": "disputeIdByDisputeHash",
      "outputs": [
        {
          "internalType": "uint256",
          "name": "",
          "type": "uint256"
        }
      ],
      "stateMutability": "view",
      "type": "function"
    },
    {
      "inputs": [
        {
          "internalType": "uint256",
          "name": "",
          "type": "uint256"
        }
      ],
      "name": "disputesById",
      "outputs": [
        {
          "internalType": "bytes32",
          "name": "hash",
          "type": "bytes32"
        },
        {
          "internalType": "int256",
          "name": "tally",
          "type": "int256"
        },
        {
          "internalType": "bool",
          "name": "executed",
          "type": "bool"
        },
        {
          "internalType": "bool",
          "name": "disputeVotePassed",
          "type": "bool"
        },
        {
          "internalType": "bool",
          "name": "isPropFork",
          "type": "bool"
        },
        {
          "internalType": "address",
          "name": "reportedMiner",
          "type": "address"
        },
        {
          "internalType": "address",
          "name": "reportingParty",
          "type": "address"
        },
        {
          "internalType": "address",
          "name": "proposedForkAddress",
          "type": "address"
        }
      ],
      "stateMutability": "view",
      "type": "function"
    },
    {
      "inputs": [
        {
          "internalType": "bytes32",
          "name": "_queryId",
          "type": "bytes32"
        }
      ],
      "name": "getNewValueCountbyQueryId",
      "outputs": [
        {
          "internalType": "uint256",
          "name": "",
          "type": "uint256"
        }
      ],
      "stateMutability": "view",
      "type": "function"
    },
    {
      "inputs": [
        {
          "internalType": "bytes32",
          "name": "_queryId",
          "type": "bytes32"
        },
        {
          "internalType": "uint256",
          "name": "_index",
          "type": "uint256"
        }
      ],
      "name": "getTimestampbyQueryIdandIndex",
      "outputs": [
        {
          "internalType": "uint256",
          "name": "",
          "type": "uint256"
        }
      ],
      "stateMutability": "view",
      "type": "function"
    },
    {
      "inputs": [
        {
          "internalType": "address",
          "name": "",
          "type": "address"
        }
      ],
      "name": "migrated",
      "outputs": [
        {
          "internalType": "bool",
          "name": "",
          "type": "bool"
        }
      ],
      "stateMutability": "view",
      "type": "function"
    },
    {
      "inputs": [
        {
          "internalType": "bytes32",
          "name": "",
          "type": "bytes32"
        },
        {
          "internalType": "address",
          "name": "",
          "type": "address"
        }
      ],
      "name": "minersByChallenge",
      "outputs": [
        {
          "internalType": "bool",
          "name": "",
          "type": "bool"
        }
      ],
      "stateMutability": "view",
      "type": "function"
    },
    {
      "inputs": [
        {
          "internalType": "uint256",
          "name": "",
          "type": "uint256"
        }
      ],
      "name": "newValueTimestamps",
      "outputs": [
        {
          "internalType": "uint256",
          "name": "",
          "type": "uint256"
        }
      ],
      "stateMutability": "view",
      "type": "function"
    },
    {
      "inputs": [
        {
          "internalType": "bytes32",
          "name": "",
          "type": "bytes32"
        }
      ],
      "name": "requestIdByQueryHash",
      "outputs": [
        {
          "internalType": "uint256",
          "name": "",
          "type": "uint256"
        }
      ],
      "stateMutability": "view",
      "type": "function"
    },
    {
      "inputs": [
        {
          "internalType": "bytes32",
          "name": "_queryId",
          "type": "bytes32"
        },
        {
          "internalType": "uint256",
          "name": "_timestamp",
          "type": "uint256"
        }
      ],
      "name": "retrieveData",
      "outputs": [
        {
          "internalType": "bytes",
          "name": "",
          "type": "bytes"
        }
      ],
      "stateMutability": "view",
      "type": "function"
    },
    {
      "inputs": [
        {
          "internalType": "bytes32",
          "name": "",
          "type": "bytes32"
        }
      ],
      "name": "uints",
      "outputs": [
        {
          "internalType": "uint256",
          "name": "",
          "type": "uint256"
        }
      ],
      "stateMutability": "view",
      "type": "function"
    }
  ],
  "bytecode": "0x608060405234801561001057600080fd5b50610939806100206000396000f3fe608060405234801561001057600080fd5b50600436106100f55760003560e01c8063699f200f11610097578063cbf1304d11610066578063cbf1304d146102b0578063ce5e11bf146102ec578063d01f4d9e146102ff578063db085beb1461031f576100f5565b8063699f200f1461021c57806377b03e0d1461025d578063b59e14d414610270578063c5958af914610290576100f5565b806348b18e54116100d357806348b18e541461017b5780634ba0a5ee146101b95780635700242c146101dc57806362dd1d2a146101fc576100f5565b8063024c2ddd146100fa5780631fd2236414610138578063438c0aa314610168575b600080fd5b610125610108366004610713565b604a60209081526000928352604080842090915290825290205481565b6040519081526020015b60405180910390f35b61014b61014636600461076e565b6103d8565b604080519283526001600160a01b0390911660208301520161012f565b61012561017636600461076e565b610403565b6101a9610189366004610786565b603960209081526000928352604080842090915290825290205460ff1681565b604051901515815260200161012f565b6101a96101c73660046106f9565b604b6020526000908152604090205460ff1681565b6101256101ea36600461076e565b60376020526000908152604090205481565b61012561020a36600461076e565b60486020526000908152604090205481565b61024561022a36600461076e565b6047602052600090815260409020546001600160a01b031681565b6040516001600160a01b03909116815260200161012f565b61012561026b36600461076e565b610424565b61012561027e36600461076e565b60466020526000908152604090205481565b6102a361029e3660046107a8565b6104f2565b60405161012f919061088a565b6102c36102be366004610745565b6105c9565b604080516fffffffffffffffffffffffffffffffff93841681529290911660208301520161012f565b6101256102fa3660046107a8565b610615565b61012561030d36600461076e565b60386020526000908152604090205481565b61038961032d36600461076e565b603660205260009081526040902080546001820154600283015460038401546004909401549293919260ff808316936101008404821693620100008104909216926001600160a01b036301000000909304831692918216911688565b604080519889526020890197909752941515958701959095529115156060860152151560808501526001600160a01b0390811660a085015291821660c08401521660e08201526101000161012f565b603a81600581106103e857600080fd5b6002020180546001909101549091506001600160a01b031682565b6033818154811061041357600080fd5b600091825260209091200154905081565b7ffa522e460446113e8fd353d7fa015625a68bc0369712213a42e006346440891e600090815260476020527fef4ea54b5b61165ffc2ef656b4303b6e25d2ec33cc6bc62f39864cc7b0cfe7b554604051631af3921960e11b8152600481018490526001600160a01b03909116906335e724329060240160206040518083038186803b1580156104b257600080fd5b505afa1580156104c6573d6000803e3d6000fd5b505050506040513d601f19601f820116820180604052508101906104ea9190610872565b90505b919050565b7ffa522e460446113e8fd353d7fa015625a68bc0369712213a42e006346440891e60005260476020527fef4ea54b5b61165ffc2ef656b4303b6e25d2ec33cc6bc62f39864cc7b0cfe7b554604051630b2d2b0d60e01b815260048101849052602481018390526060916001600160a01b031690630b2d2b0d9060440160006040518083038186803b15801561058657600080fd5b505afa15801561059a573d6000803e3d6000fd5b505050506040513d6000823e601f3d908101601f191682016040526105c291908101906107c9565b9392505050565b604960205281600052604060002081815481106105e557600080fd5b6000918252602090912001546fffffffffffffffffffffffffffffffff8082169350600160801b90910416905082565b7ffa522e460446113e8fd353d7fa015625a68bc0369712213a42e006346440891e600090815260476020527fef4ea54b5b61165ffc2ef656b4303b6e25d2ec33cc6bc62f39864cc7b0cfe7b554604051631f0dee2d60e21b815260048101859052602481018490526001600160a01b0390911690637c37b8b49060440160206040518083038186803b1580156106aa57600080fd5b505afa1580156106be573d6000803e3d6000fd5b505050506040513d601f19601f820116820180604052508101906105c29190610872565b80356001600160a01b03811681146104ed57600080fd5b60006020828403121561070a578081fd5b6105c2826106e2565b60008060408385031215610725578081fd5b61072e836106e2565b915061073c602084016106e2565b90509250929050565b60008060408385031215610757578182fd5b610760836106e2565b946020939093013593505050565b60006020828403121561077f578081fd5b5035919050565b60008060408385031215610798578182fd5b8235915061073c602084016106e2565b600080604083850312156107ba578182fd5b50508035926020909101359150565b6000602082840312156107da578081fd5b815167ffffffffffffffff808211156107f1578283fd5b818401915084601f830112610804578283fd5b815181811115610816576108166108ed565b604051601f8201601f19908116603f0116810190838211818310171561083e5761083e6108ed565b81604052828152876020848701011115610856578586fd5b6108678360208301602088016108bd565b979650505050505050565b600060208284031215610883578081fd5b5051919050565b60006020825282518060208401526108a98160408501602087016108bd565b601f01601f19169190910160400192915050565b60005b838110156108d85781810151838201526020016108c0565b838111156108e7576000848401525b50505050565b634e487b7160e01b600052604160045260246000fdfea264697066735822122060ed3dac2e50f6fa32647c2cef98b2e9d4a36ec1cb206f2547735e87651c90f364736f6c63430008030033",
  "linkReferences": {},
  "deployedLinkReferences": {}
}