{
  "_format": "hh-sol-artifact-1",
  "contractName": "NewTransition",
  "sourceName": "contracts/tellor360/NewTransition.sol",
  "abi": [
    {
      "inputs": [
        {
          "internalType": "address",
          "name": "",
          "type": "address"
        },
        {
          "internalType": "address",
          "name": "",
          "type": "address"
        }
      ],
      "name": "_allowances",
      "outputs": [
        {
          "internalType": "uint256",
          "name": "",
          "type": "uint256"
        }
      ],
      "stateMutability": "view",
      "type": "function"
    },
    {
      "inputs": [
        {
          "internalType": "bytes32",
          "name": "",
          "type": "bytes32"
        }
      ],
      "name": "addresses",
      "outputs": [
        {
          "internalType": "address",
          "name": "",
          "type": "address"
        }
      ],
      "stateMutability": "view",
      "type": "function"
    },
    {
      "inputs": [
        {
          "internalType": "address",
          "name": "",
          "type": "address"
        },
        {
          "internalType": "uint256",
          "name": "",
          "type": "uint256"
        }
      ],
      "name": "balances",
      "outputs": [
        {
          "internalType": "uint128",
          "name": "fromBlock",
          "type": "uint128"
        },
        {
          "internalType": "uint128",
          "name": "value",
          "type": "uint128"
        }
      ],
      "stateMutability": "view",
      "type": "function"
    },
    {
      "inputs": [
        {
          "internalType": "bytes32",
          "name": "",
          "type": "bytes32"
        }
      ],
      "name": "bytesVars",
      "outputs": [
        {
          "internalType": "bytes32",
          "name": "",
          "type": "bytes32"
        }
      ],
      "stateMutability": "view",
      "type": "function"
    },
    {
      "inputs": [
        {
          "internalType": "uint256",
          "name": "",
          "type": "uint256"
        }
      ],
      "name": "currentMiners",
      "outputs": [
        {
          "internalType": "uint256",
          "name": "value",
          "type": "uint256"
        },
        {
          "internalType": "address",
          "name": "miner",
          "type": "address"
        }
      ],
      "stateMutability": "view",
      "type": "function"
    },
    {
      "inputs": [
        {
          "internalType": "bytes32",
          "name": "",
          "type": "bytes32"
        }
      ],
      "name": "disputeIdByDisputeHash",
      "outputs": [
        {
          "internalType": "uint256",
          "name": "",
          "type": "uint256"
        }
      ],
      "stateMutability": "view",
      "type": "function"
    },
    {
      "inputs": [
        {
          "internalType": "uint256",
          "name": "",
          "type": "uint256"
        }
      ],
      "name": "disputesById",
      "outputs": [
        {
          "internalType": "bytes32",
          "name": "hash",
          "type": "bytes32"
        },
        {
          "internalType": "int256",
          "name": "tally",
          "type": "int256"
        },
        {
          "internalType": "bool",
          "name": "executed",
          "type": "bool"
        },
        {
          "internalType": "bool",
          "name": "disputeVotePassed",
          "type": "bool"
        },
        {
          "internalType": "bool",
          "name": "isPropFork",
          "type": "bool"
        },
        {
          "internalType": "address",
          "name": "reportedMiner",
          "type": "address"
        },
        {
          "internalType": "address",
          "name": "reportingParty",
          "type": "address"
        },
        {
          "internalType": "address",
          "name": "proposedForkAddress",
          "type": "address"
        }
      ],
      "stateMutability": "view",
      "type": "function"
    },
    {
      "inputs": [
        {
          "internalType": "bytes32",
          "name": "_data",
          "type": "bytes32"
        }
      ],
      "name": "getAddressVars",
      "outputs": [
        {
          "internalType": "address",
          "name": "",
          "type": "address"
        }
      ],
      "stateMutability": "view",
      "type": "function"
    },
    {
      "inputs": [
        {
          "internalType": "uint256",
          "name": "_requestId",
          "type": "uint256"
        }
      ],
      "name": "getLastNewValueById",
      "outputs": [
        {
          "internalType": "uint256",
          "name": "",
          "type": "uint256"
        },
        {
          "internalType": "bool",
          "name": "",
          "type": "bool"
        }
      ],
      "stateMutability": "view",
      "type": "function"
    },
    {
      "inputs": [],
      "name": "getNewCurrentVariables",
      "outputs": [
        {
          "internalType": "bytes32",
          "name": "_c",
          "type": "bytes32"
        },
        {
          "internalType": "uint256[5]",
          "name": "_r",
          "type": "uint256[5]"
        },
        {
          "internalType": "uint256",
          "name": "_diff",
          "type": "uint256"
        },
        {
          "internalType": "uint256",
          "name": "_tip",
          "type": "uint256"
        }
      ],
      "stateMutability": "view",
      "type": "function"
    },
    {
      "inputs": [
        {
          "internalType": "uint256",
          "name": "_requestId",
          "type": "uint256"
        }
      ],
      "name": "getNewValueCountbyRequestId",
      "outputs": [
        {
          "internalType": "uint256",
          "name": "",
          "type": "uint256"
        }
      ],
      "stateMutability": "view",
      "type": "function"
    },
    {
      "inputs": [
        {
          "internalType": "uint256",
          "name": "_requestId",
          "type": "uint256"
        },
        {
          "internalType": "uint256",
          "name": "_index",
          "type": "uint256"
        }
      ],
      "name": "getTimestampbyRequestIDandIndex",
      "outputs": [
        {
          "internalType": "uint256",
          "name": "",
          "type": "uint256"
        }
      ],
      "stateMutability": "view",
      "type": "function"
    },
    {
      "inputs": [
        {
          "internalType": "bytes32",
          "name": "_data",
          "type": "bytes32"
        }
      ],
      "name": "getUintVar",
      "outputs": [
        {
          "internalType": "uint256",
          "name": "",
          "type": "uint256"
        }
      ],
      "stateMutability": "view",
      "type": "function"
    },
    {
      "inputs": [
        {
          "internalType": "address",
          "name": "_addy",
          "type": "address"
        }
      ],
      "name": "isMigrated",
      "outputs": [
        {
          "internalType": "bool",
          "name": "",
          "type": "bool"
        }
      ],
      "stateMutability": "view",
      "type": "function"
    },
    {
      "inputs": [
        {
          "internalType": "address",
          "name": "",
          "type": "address"
        }
      ],
      "name": "migrated",
      "outputs": [
        {
          "internalType": "bool",
          "name": "",
          "type": "bool"
        }
      ],
      "stateMutability": "view",
      "type": "function"
    },
    {
      "inputs": [
        {
          "internalType": "bytes32",
          "name": "",
          "type": "bytes32"
        },
        {
          "internalType": "address",
          "name": "",
          "type": "address"
        }
      ],
      "name": "minersByChallenge",
      "outputs": [
        {
          "internalType": "bool",
          "name": "",
          "type": "bool"
        }
      ],
      "stateMutability": "view",
      "type": "function"
    },
    {
      "inputs": [
        {
          "internalType": "uint256",
          "name": "",
          "type": "uint256"
        }
      ],
      "name": "newValueTimestamps",
      "outputs": [
        {
          "internalType": "uint256",
          "name": "",
          "type": "uint256"
        }
      ],
      "stateMutability": "view",
      "type": "function"
    },
    {
      "inputs": [
        {
          "internalType": "bytes32",
          "name": "",
          "type": "bytes32"
        }
      ],
      "name": "requestIdByQueryHash",
      "outputs": [
        {
          "internalType": "uint256",
          "name": "",
          "type": "uint256"
        }
      ],
      "stateMutability": "view",
      "type": "function"
    },
    {
      "inputs": [
        {
          "internalType": "uint256",
          "name": "_requestId",
          "type": "uint256"
        },
        {
          "internalType": "uint256",
          "name": "_timestamp",
          "type": "uint256"
        }
      ],
      "name": "retrieveData",
      "outputs": [
        {
          "internalType": "uint256",
          "name": "",
          "type": "uint256"
        }
      ],
      "stateMutability": "view",
      "type": "function"
    },
    {
      "inputs": [
        {
          "internalType": "bytes32",
          "name": "",
          "type": "bytes32"
        }
      ],
      "name": "uints",
      "outputs": [
        {
          "internalType": "uint256",
          "name": "",
          "type": "uint256"
        }
      ],
      "stateMutability": "view",
      "type": "function"
    }
  ],
  "bytecode": "0x608060405234801561001057600080fd5b50611571806100206000396000f3fe608060405234801561001057600080fd5b506004361061012c5760003560e01c806358421ed2116100ad57806393fa49151161007157806393fa491514610359578063b59e14d41461036c578063cbf1304d1461038c578063d01f4d9e146103c8578063db085beb146103e85761012c565b806358421ed2146102b1578063612c8f7f146102dd57806362dd1d2a146102fd578063699f200f1461031d57806377fbb663146103465761012c565b8063438c0aa3116100f4578063438c0aa31461020a57806346eee1c41461021d57806348b18e54146102305780634ba0a5ee1461026e5780635700242c146102915761012c565b8063024c2ddd14610131578063133bee5e1461016f5780631fd223641461019a5780633180f8df146101ca5780634049f198146101f2575b600080fd5b61015c61013f36600461115f565b604a60209081526000928352604080842090915290825290205481565b6040519081526020015b60405180910390f35b61018261017d366004611229565b6104a1565b6040516001600160a01b039091168152602001610166565b6101ad6101a8366004611229565b6104bf565b604080519283526001600160a01b03909116602083015201610166565b6101dd6101d8366004611229565b6104ea565b60408051928352901515602083015201610166565b6101fa610537565b60405161016694939291906112d7565b61015c610218366004611229565b610640565b61015c61022b366004611229565b610661565b61025e61023e366004611241565b603960209081526000928352604080842090915290825290205460ff1681565b6040519015158152602001610166565b61025e61027c36600461113e565b604b6020526000908152604090205460ff1681565b61015c61029f366004611229565b60376020526000908152604090205481565b61025e6102bf36600461113e565b6001600160a01b03166000908152604b602052604090205460ff1690565b61015c6102eb366004611229565b60009081526046602052604090205490565b61015c61030b366004611229565b60486020526000908152604090205481565b61018261032b366004611229565b6047602052600090815260409020546001600160a01b031681565b61015c6103543660046112b6565b610a35565b61015c6103673660046112b6565b610c82565b61015c61037a366004611229565b60466020526000908152604090205481565b61039f61039a366004611191565b610eea565b604080516fffffffffffffffffffffffffffffffff938416815292909116602083015201610166565b61015c6103d6366004611229565b60386020526000908152604090205481565b6104526103f6366004611229565b603660205260009081526040902080546001820154600283015460038401546004909401549293919260ff808316936101008404821693620100008104909216926001600160a01b036301000000909304831692918216911688565b604080519889526020890197909752941515958701959095529115156060860152151560808501526001600160a01b0390811660a085015291821660c08401521660e082015261010001610166565b6000818152604760205260409020546001600160a01b03165b919050565b603a81600581106104cf57600080fd5b6002020180546001909101549091506001600160a01b031682565b60008060006104f884610661565b90508061050c576000809250925050610532565b600061051d85610354600185611486565b90506105298582610c82565b60019350935050505b915091565b6000610541611050565b506040805160a0810182526001808252602080830182905282840182905260608301829052608083019190915260008051602061151c8339815191526000908152604782526000805160206114fc83398151915254845163607caea960e11b815294519394919384936001600160a01b039092169263c0f95d52926004808301939192829003018186803b1580156105d857600080fd5b505afa1580156105ec573d6000803e3d6000fd5b505050506040513d601f19601f82011682018060405250810190610610919061129e565b60405160200161062291815260200190565b60405160208183030381529060405280519060200120935090919293565b6033818154811061065057600080fd5b600091825260209091200154905081565b60008061066d83610f36565b5060008051602061151c83398151915260005260476020526000805160206114fc833981519152546040516377b03e0d60e01b8152600481018390529192506001600160a01b03169081906377b03e0d9060240160206040518083038186803b1580156106d957600080fd5b505afa925050508015610709575060408051601f3d908101601f191682019092526107069181019061129e565b60015b6107b65760008051602061151c83398151915260005260476020526000805160206114fc83398151915254604051631af3921960e11b8152600481018690526001600160a01b03909116906335e724329060240160206040518083038186803b15801561077557600080fd5b505afa158015610789573d6000803e3d6000fd5b505050506040513d601f19601f820116820180604052508101906107ad919061129e565b925050506104ba565b806107c757600093505050506104ba565b60006001600160a01b03831663ce5e11bf856107e4600186611486565b6040516001600160e01b031960e085901b1681526004810192909252602482015260440160206040518083038186803b15801561082057600080fd5b505afa158015610834573d6000803e3d6000fd5b505050506040513d601f19601f82011682018060405250810190610858919061129e565b90505b6040516344e87f9160e01b815260048101859052602481018290526001600160a01b038416906344e87f919060440160206040518083038186803b1580156108a257600080fd5b505afa1580156108b6573d6000803e3d6000fd5b505050506040513d601f19601f820116820180604052508101906108da91906111ba565b80156108e65750600182115b1561098e57816108f58161149d565b9250506001600160a01b03831663ce5e11bf85610913600186611486565b6040516001600160e01b031960e085901b1681526004810192909252602482015260440160206040518083038186803b15801561094f57600080fd5b505afa158015610963573d6000803e3d6000fd5b505050506040513d601f19601f82011682018060405250810190610987919061129e565b905061085b565b816001148015610a1857506040516344e87f9160e01b815260048101859052602481018290526001600160a01b038416906344e87f919060440160206040518083038186803b1580156109e057600080fd5b505afa1580156109f4573d6000803e3d6000fd5b505050506040513d601f19601f82011682018060405250810190610a1891906111ba565b15610a2a5760009450505050506104ba565b5092506104ba915050565b600080610a4184610f36565b5060008051602061151c83398151915260005260476020526000805160206114fc8339815191525460405163ce5e11bf60e01b815260048101839052602481018690529192506001600160a01b03169063ce5e11bf9060440160206040518083038186803b158015610ab257600080fd5b505afa925050508015610ae2575060408051601f3d908101601f19168201909252610adf9181019061129e565b60015b610b955760008051602061151c83398151915260005260476020526000805160206114fc83398151915254604051631f0dee2d60e21b815260048101869052602481018590526001600160a01b0390911690637c37b8b49060440160206040518083038186803b158015610b5557600080fd5b505afa158015610b69573d6000803e3d6000fd5b505050506040513d601f19601f82011682018060405250810190610b8d919061129e565b915050610c7c565b846001148015610baf5750610bac61038442611486565b81115b15610c735760008051602061151c83398151915260005260476020526000805160206114fc833981519152546001600160a01b031663a792765f83610bf661038442611486565b6040516001600160e01b031960e085901b1681526004810192909252602482015260440160006040518083038186803b158015610c3257600080fd5b505afa158015610c46573d6000803e3d6000fd5b505050506040513d6000823e601f3d908101601f19168201604052610c6e91908101906111d4565b925050505b9150610c7c9050565b92915050565b6000806000610c9085610f36565b60008051602061151c83398151915260005260476020526000805160206114fc83398151915254604051630b2d2b0d60e01b815260048101899052602481018890529294509092506001600160a01b031690630b2d2b0d9060440160006040518083038186803b158015610d0357600080fd5b505afa925050508015610d3857506040513d6000823e601f3d908101601f19168201604052610d359190810190611263565b60015b610ee15760608560011415610e0b5760008051602061151c83398151915260005260476020526000805160206114fc833981519152546001600160a01b031663a792765f84610d8961038442611486565b6040516001600160e01b031960e085901b1681526004810192909252602482015260440160006040518083038186803b158015610dc557600080fd5b505afa158015610dd9573d6000803e3d6000fd5b505050506040513d6000823e601f3d908101601f19168201604052610e0191908101906111d4565b509150610eb99050565b60008051602061151c83398151915260005260476020526000805160206114fc8339815191525460405163c5958af960e01b815260048101859052602481018790526001600160a01b039091169063c5958af99060440160006040518083038186803b158015610e7a57600080fd5b505afa158015610e8e573d6000803e3d6000fd5b505050506040513d6000823e601f3d908101601f19168201604052610eb69190810190611263565b90505b610ec482600a611399565b610ecd82610fe9565b610ed79190611333565b9350505050610c7c565b610ed781610fe9565b60496020528160005260406000208181548110610f0657600080fd5b6000918252602090912001546fffffffffffffffffffffffffffffffff8082169350600160801b90910416905082565b6000806000808460011415610f7057507f83a7f3d48786ac2667503a61e8c415438ed2922eb86a2906e4ee66d9a2ce49929050600c610fdf565b84600a1415610fa457507f0d12ad49193163bbbeff4e6db8294ced23ff8605359fd666799d4e25a3aa0e3a90506000610fdf565b8460291415610fd857507f612ec1d9cee860bb87deb6370ed0ae43345c9302c085c1dfc4c207cbec2970d790506000610fdf565b5083905060005b9092509050915091565b6000805b825181101561104a5761100282610100611467565b915082818151811061102457634e487b7160e01b600052603260045260246000fd5b01602001516110369060f81c8361131b565b915080611042816114b4565b915050610fed565b50919050565b6040518060a001604052806005906020820280368337509192915050565b80356001600160a01b03811681146104ba57600080fd5b805180151581146104ba57600080fd5b600082601f8301126110a5578081fd5b815167ffffffffffffffff808211156110c0576110c06114e5565b604051601f8301601f19908116603f011681019082821181831017156110e8576110e86114e5565b81604052838152602092508683858801011115611103578485fd5b8491505b838210156111245785820183015181830184015290820190611107565b8382111561113457848385830101525b9695505050505050565b60006020828403121561114f578081fd5b6111588261106e565b9392505050565b60008060408385031215611171578081fd5b61117a8361106e565b91506111886020840161106e565b90509250929050565b600080604083850312156111a3578182fd5b6111ac8361106e565b946020939093013593505050565b6000602082840312156111cb578081fd5b61115882611085565b6000806000606084860312156111e8578081fd5b6111f184611085565b9250602084015167ffffffffffffffff81111561120c578182fd5b61121886828701611095565b925050604084015190509250925092565b60006020828403121561123a578081fd5b5035919050565b60008060408385031215611253578182fd5b823591506111886020840161106e565b600060208284031215611274578081fd5b815167ffffffffffffffff81111561128a578182fd5b61129684828501611095565b949350505050565b6000602082840312156112af578081fd5b5051919050565b600080604083850312156112c8578182fd5b50508035926020909101359150565b848152610100810160208083018660005b6005811015611305578151835291830191908301906001016112e8565b5050505060c082019390935260e0015292915050565b6000821982111561132e5761132e6114cf565b500190565b60008261134e57634e487b7160e01b81526012600452602481fd5b500490565b80825b60018086116113655750611390565b818704821115611377576113776114cf565b8086161561138457918102915b9490941c938002611356565b94509492505050565b600061115860001984846000826113b257506001611158565b816113bf57506000611158565b81600181146113d557600281146113df5761140c565b6001915050611158565b60ff8411156113f0576113f06114cf565b6001841b915084821115611406576114066114cf565b50611158565b5060208310610133831016604e8410600b841016171561143f575081810a8381111561143a5761143a6114cf565b611158565b61144c8484846001611353565b80860482111561145e5761145e6114cf565b02949350505050565b6000816000190483118215151615611481576114816114cf565b500290565b600082821015611498576114986114cf565b500390565b6000816114ac576114ac6114cf565b506000190190565b60006000198214156114c8576114c86114cf565b5060010190565b634e487b7160e01b600052601160045260246000fd5b634e487b7160e01b600052604160045260246000fdfeef4ea54b5b61165ffc2ef656b4303b6e25d2ec33cc6bc62f39864cc7b0cfe7b5fa522e460446113e8fd353d7fa015625a68bc0369712213a42e006346440891ea264697066735822122052d3c2f259ea9737dd35e9def09cb20c3e15284df5913a10c42e4032a956b8c964736f6c63430008030033",
  "linkReferences": {},
  "deployedLinkReferences": {}
}