{
  "_format": "hh-sol-artifact-1",
  "contractName": "TestGovernance",
  "sourceName": "contracts/tellor360/oldContracts/contracts/testing/TestGovernance.sol",
  "abi": [
    {
      "anonymous": false,
      "inputs": [
        {
          "indexed": false,
          "internalType": "address",
          "name": "_delegate",
          "type": "address"
        },
        {
          "indexed": false,
          "internalType": "address",
          "name": "_delegator",
          "type": "address"
        }
      ],
      "name": "DelegateSet",
      "type": "event"
    },
    {
      "anonymous": false,
      "inputs": [
        {
          "indexed": false,
          "internalType": "uint256",
          "name": "_disputeId",
          "type": "uint256"
        },
        {
          "indexed": false,
          "internalType": "bytes32",
          "name": "_queryId",
          "type": "bytes32"
        },
        {
          "indexed": false,
          "internalType": "uint256",
          "name": "_timestamp",
          "type": "uint256"
        },
        {
          "indexed": false,
          "internalType": "address",
          "name": "_reporter",
          "type": "address"
        }
      ],
      "name": "NewDispute",
      "type": "event"
    },
    {
      "anonymous": false,
      "inputs": [
        {
          "indexed": false,
          "internalType": "address",
          "name": "_contract",
          "type": "address"
        },
        {
          "indexed": false,
          "internalType": "bytes4",
          "name": "_function",
          "type": "bytes4"
        },
        {
          "indexed": false,
          "internalType": "bytes",
          "name": "_data",
          "type": "bytes"
        },
        {
          "indexed": false,
          "internalType": "uint256",
          "name": "_disputeId",
          "type": "uint256"
        }
      ],
      "name": "NewVote",
      "type": "event"
    },
    {
      "anonymous": false,
      "inputs": [
        {
          "indexed": false,
          "internalType": "address",
          "name": "",
          "type": "address"
        },
        {
          "indexed": false,
          "internalType": "uint256",
          "name": "",
          "type": "uint256"
        }
      ],
      "name": "Received",
      "type": "event"
    },
    {
      "anonymous": false,
      "inputs": [
        {
          "indexed": false,
          "internalType": "uint256",
          "name": "_disputeId",
          "type": "uint256"
        },
        {
          "indexed": false,
          "internalType": "enum Governance.VoteResult",
          "name": "_result",
          "type": "uint8"
        }
      ],
      "name": "VoteExecuted",
      "type": "event"
    },
    {
      "anonymous": false,
      "inputs": [
        {
          "indexed": false,
          "internalType": "uint256",
          "name": "_disputeId",
          "type": "uint256"
        },
        {
          "indexed": false,
          "internalType": "enum Governance.VoteResult",
          "name": "_result",
          "type": "uint8"
        },
        {
          "indexed": false,
          "internalType": "address",
          "name": "_initiator",
          "type": "address"
        },
        {
          "indexed": false,
          "internalType": "address",
          "name": "_reporter",
          "type": "address"
        }
      ],
      "name": "VoteTallied",
      "type": "event"
    },
    {
      "anonymous": false,
      "inputs": [
        {
          "indexed": false,
          "internalType": "uint256",
          "name": "_disputeId",
          "type": "uint256"
        },
        {
          "indexed": false,
          "internalType": "bool",
          "name": "_supports",
          "type": "bool"
        },
        {
          "indexed": false,
          "internalType": "address",
          "name": "_voter",
          "type": "address"
        },
        {
          "indexed": false,
          "internalType": "uint256",
          "name": "_voteWeight",
          "type": "uint256"
        },
        {
          "indexed": false,
          "internalType": "bool",
          "name": "_invalidQuery",
          "type": "bool"
        }
      ],
      "name": "Voted",
      "type": "event"
    },
    {
      "stateMutability": "payable",
      "type": "fallback"
    },
    {
      "inputs": [
        {
          "internalType": "bytes32",
          "name": "_queryId",
          "type": "bytes32"
        },
        {
          "internalType": "uint256",
          "name": "_timestamp",
          "type": "uint256"
        }
      ],
      "name": "beginDispute",
      "outputs": [],
      "stateMutability": "nonpayable",
      "type": "function"
    },
    {
      "inputs": [
        {
          "internalType": "address",
          "name": "_delegate",
          "type": "address"
        }
      ],
      "name": "delegate",
      "outputs": [],
      "stateMutability": "nonpayable",
      "type": "function"
    },
    {
      "inputs": [
        {
          "internalType": "address",
          "name": "_user",
          "type": "address"
        },
        {
          "internalType": "uint256",
          "name": "_blockNumber",
          "type": "uint256"
        }
      ],
      "name": "delegateOfAt",
      "outputs": [
        {
          "internalType": "address",
          "name": "",
          "type": "address"
        }
      ],
      "stateMutability": "view",
      "type": "function"
    },
    {
      "inputs": [
        {
          "internalType": "uint256",
          "name": "_disputeId",
          "type": "uint256"
        },
        {
          "internalType": "address",
          "name": "_voter",
          "type": "address"
        }
      ],
      "name": "didVote",
      "outputs": [
        {
          "internalType": "bool",
          "name": "",
          "type": "bool"
        }
      ],
      "stateMutability": "view",
      "type": "function"
    },
    {
      "inputs": [],
      "name": "disputeFee",
      "outputs": [
        {
          "internalType": "uint256",
          "name": "",
          "type": "uint256"
        }
      ],
      "stateMutability": "view",
      "type": "function"
    },
    {
      "inputs": [
        {
          "internalType": "uint256",
          "name": "_disputeId",
          "type": "uint256"
        }
      ],
      "name": "executeVote",
      "outputs": [],
      "stateMutability": "nonpayable",
      "type": "function"
    },
    {
      "inputs": [
        {
          "internalType": "address",
          "name": "_holder",
          "type": "address"
        }
      ],
      "name": "getDelegateInfo",
      "outputs": [
        {
          "internalType": "address",
          "name": "",
          "type": "address"
        },
        {
          "internalType": "uint256",
          "name": "",
          "type": "uint256"
        }
      ],
      "stateMutability": "view",
      "type": "function"
    },
    {
      "inputs": [
        {
          "internalType": "uint256",
          "name": "_disputeId",
          "type": "uint256"
        }
      ],
      "name": "getDisputeInfo",
      "outputs": [
        {
          "internalType": "bytes32",
          "name": "",
          "type": "bytes32"
        },
        {
          "internalType": "uint256",
          "name": "",
          "type": "uint256"
        },
        {
          "internalType": "bytes",
          "name": "",
          "type": "bytes"
        },
        {
          "internalType": "address",
          "name": "",
          "type": "address"
        }
      ],
      "stateMutability": "view",
      "type": "function"
    },
    {
      "inputs": [
        {
          "internalType": "bytes32",
          "name": "_queryId",
          "type": "bytes32"
        }
      ],
      "name": "getOpenDisputesOnId",
      "outputs": [
        {
          "internalType": "uint256",
          "name": "",
          "type": "uint256"
        }
      ],
      "stateMutability": "view",
      "type": "function"
    },
    {
      "inputs": [],
      "name": "getVoteCount",
      "outputs": [
        {
          "internalType": "uint256",
          "name": "",
          "type": "uint256"
        }
      ],
      "stateMutability": "view",
      "type": "function"
    },
    {
      "inputs": [
        {
          "internalType": "uint256",
          "name": "_disputeId",
          "type": "uint256"
        }
      ],
      "name": "getVoteInfo",
      "outputs": [
        {
          "internalType": "bytes32",
          "name": "",
          "type": "bytes32"
        },
        {
          "internalType": "uint256[8]",
          "name": "",
          "type": "uint256[8]"
        },
        {
          "internalType": "bool[2]",
          "name": "",
          "type": "bool[2]"
        },
        {
          "internalType": "enum Governance.VoteResult",
          "name": "",
          "type": "uint8"
        },
        {
          "internalType": "bytes",
          "name": "",
          "type": "bytes"
        },
        {
          "internalType": "bytes4",
          "name": "",
          "type": "bytes4"
        },
        {
          "internalType": "address[2]",
          "name": "",
          "type": "address[2]"
        }
      ],
      "stateMutability": "view",
      "type": "function"
    },
    {
      "inputs": [
        {
          "internalType": "bytes32",
          "name": "_hash",
          "type": "bytes32"
        }
      ],
      "name": "getVoteRounds",
      "outputs": [
        {
          "internalType": "uint256[]",
          "name": "",
          "type": "uint256[]"
        }
      ],
      "stateMutability": "view",
      "type": "function"
    },
    {
      "inputs": [
        {
          "internalType": "address",
          "name": "_contract",
          "type": "address"
        }
      ],
      "name": "isApprovedGovernanceContract",
      "outputs": [
        {
          "internalType": "bool",
          "name": "",
          "type": "bool"
        }
      ],
      "stateMutability": "nonpayable",
      "type": "function"
    },
    {
      "inputs": [
        {
          "internalType": "bytes4",
          "name": "_func",
          "type": "bytes4"
        }
      ],
      "name": "isFunctionApproved",
      "outputs": [
        {
          "internalType": "bool",
          "name": "",
          "type": "bool"
        }
      ],
      "stateMutability": "view",
      "type": "function"
    },
    {
      "inputs": [
        {
          "internalType": "address",
          "name": "_contract",
          "type": "address"
        },
        {
          "internalType": "bytes4",
          "name": "_function",
          "type": "bytes4"
        },
        {
          "internalType": "bytes",
          "name": "_data",
          "type": "bytes"
        },
        {
          "internalType": "uint256",
          "name": "_timestamp",
          "type": "uint256"
        }
      ],
      "name": "proposeVote",
      "outputs": [],
      "stateMutability": "nonpayable",
      "type": "function"
    },
    {
      "inputs": [
        {
          "internalType": "bytes4",
          "name": "_func",
          "type": "bytes4"
        },
        {
          "internalType": "bool",
          "name": "_val",
          "type": "bool"
        }
      ],
      "name": "setApprovedFunction",
      "outputs": [],
      "stateMutability": "nonpayable",
      "type": "function"
    },
    {
      "inputs": [
        {
          "internalType": "uint256",
          "name": "_disputeId",
          "type": "uint256"
        }
      ],
      "name": "tallyVotes",
      "outputs": [],
      "stateMutability": "nonpayable",
      "type": "function"
    },
    {
      "inputs": [],
      "name": "updateMinDisputeFee",
      "outputs": [],
      "stateMutability": "nonpayable",
      "type": "function"
    },
    {
      "inputs": [],
      "name": "verify",
      "outputs": [
        {
          "internalType": "uint256",
          "name": "",
          "type": "uint256"
        }
      ],
      "stateMutability": "pure",
      "type": "function"
    },
    {
      "inputs": [
        {
          "internalType": "uint256",
          "name": "_disputeId",
          "type": "uint256"
        },
        {
          "internalType": "bool",
          "name": "_supports",
          "type": "bool"
        },
        {
          "internalType": "bool",
          "name": "_invalidQuery",
          "type": "bool"
        }
      ],
      "name": "vote",
      "outputs": [],
      "stateMutability": "nonpayable",
      "type": "function"
    },
    {
      "inputs": [],
      "name": "voteCount",
      "outputs": [
        {
          "internalType": "uint256",
          "name": "",
          "type": "uint256"
        }
      ],
      "stateMutability": "view",
      "type": "function"
    },
    {
      "inputs": [
        {
          "internalType": "address[]",
          "name": "_addys",
          "type": "address[]"
        },
        {
          "internalType": "uint256",
          "name": "_disputeId",
          "type": "uint256"
        },
        {
          "internalType": "bool",
          "name": "_supports",
          "type": "bool"
        },
        {
          "internalType": "bool",
          "name": "_invalidQuery",
          "type": "bool"
        }
      ],
      "name": "voteFor",
      "outputs": [],
      "stateMutability": "nonpayable",
      "type": "function"
    },
    {
      "stateMutability": "payable",
      "type": "receive"
    }
  ],
  "bytecode": "0x60806040523480156200001157600080fd5b506040805161014081018252633c46a18560e01b815263e8ce51d760e01b6020820152631cbd315160e01b9181019190915263bd87e0c960e01b6060820152633a01ac7360e11b60808201526340c10f1960e01b60a082015263e48d4b3b60e01b60c0820152632e8c1e7d60e11b60e0820152636d53585f60e01b610100820152636274885f60e01b61012082015260005b600a8110156200011a576001600360008484600a8110620000d457634e487b7160e01b600052603260045260246000fd5b602090810291909101516001600160e01b0319168252810191909152604001600020805460ff1916911515919091179055806200011181620004da565b915050620000a3565b50620001256200012c565b506200050e565b604051632d67853560e21b81527f5d9fadfc729fd027e395e5157ef1b53ef9fa4a8f053043c5f159307543e7cc9760048201526000907388df592f8eb5d7bd38bfef7deb0fbc02cf3778a09063b59e14d490602401602060405180830381600087803b1580156200019c57600080fd5b505af1158015620001b1573d6000803e3d6000fd5b505050506040513d601f19601f82011682018060405250810190620001d7919062000464565b604051632d67853560e21b81527f0b8561044b4253c8df1d9ad9f9ce2e0f78e4bd42b2ed8dd2e909e85f750f3bc160048201529091506000907388df592f8eb5d7bd38bfef7deb0fbc02cf3778a09063b59e14d490602401602060405180830381600087803b1580156200024a57600080fd5b505af11580156200025f573d6000803e3d6000fd5b505050506040513d601f19601f8201168201806040525081019062000285919062000464565b604051632d67853560e21b81527f10c168823622203e4057b65015ff4d95b4c650b308918e8c92dc32ab5a0a034b60048201529091506000907388df592f8eb5d7bd38bfef7deb0fbc02cf3778a09063b59e14d490602401602060405180830381600087803b158015620002f857600080fd5b505af11580156200030d573d6000803e3d6000fd5b505050506040513d601f19601f8201168201806040525081019062000333919062000464565b604051632d67853560e21b81527f7335d16d7e7f6cb9f532376441907fe76aa2ea267285c82892601f4755ed15f060048201529091506000907388df592f8eb5d7bd38bfef7deb0fbc02cf3778a09063b59e14d490602401602060405180830381600087803b158015620003a657600080fd5b505af1158015620003bb573d6000803e3d6000fd5b505050506040513d601f19601f82011682018060405250810190620003e1919062000464565b9050600082156200042f576103e884620003fc85836200049e565b620004088589620004c0565b6200041491906200049e565b6200042091906200047d565b6200042c91906200047d565b90505b6200043b8286620004c0565b81106200044d5760018290556200045d565b620004598186620004c0565b6001555b5050505050565b60006020828403121562000476578081fd5b5051919050565b6000826200049957634e487b7160e01b81526012600452602481fd5b500490565b6000816000190483118215151615620004bb57620004bb620004f8565b500290565b600082821015620004d557620004d5620004f8565b500390565b6000600019821415620004f157620004f1620004f8565b5060010190565b634e487b7160e01b600052601160045260246000fd5b614537806200051e6000396000f3fe6080604052600436106101595760003560e01c8063a7c438bc116100bb578063e48d4b3b1161007f578063f98a4eca11610059578063f98a4eca146104aa578063fc735e99146104ca578063fd3171b2146104df57610199565b8063e48d4b3b14610455578063e5d9131414610475578063e7b3387c1461049557610199565b8063a7c438bc146103b1578063b3427a2b146103d1578063b9ce896b14610409578063c63840711461041f578063df133bca1461043557610199565b80632d2506a91161011d5780636169c308116100f75780636169c308146103395780638d8242731461036957806390e5b2351461039c57610199565b80632d2506a9146102af5780634d318b0e146102f95780635c19a95c1461031957610199565b80630b5e95c3146101ce5780630e1596ef146101f057806310c67e1c146102235780631f379acc14610262578063248638e51461028257610199565b3661019957604080513381523460208201527f88a5966d370b9919b20f3e2c13ff65706f196a4e32cc2c12bf57088f8852587491015b60405180910390a1005b604080513381523460208201527f88a5966d370b9919b20f3e2c13ff65706f196a4e32cc2c12bf57088f88525874910161018f565b3480156101da57600080fd5b506101ee6101e9366004613b33565b6104ff565b005b3480156101fc57600080fd5b5061021061020b366004613cab565b610afe565b6040519081526020015b60405180910390f35b34801561022f57600080fd5b5061024361023e366004613af4565b610b13565b604080516001600160a01b03909316835260208301919091520161021a565b34801561026e57600080fd5b506101ee61027d366004613cc3565b610ba8565b34801561028e57600080fd5b506102a261029d366004613cab565b6115ad565b60405161021a9190614067565b3480156102bb57600080fd5b506102e96102ca366004613ce4565b6001600160e01b03191660009081526003602052604090205460ff1690565b604051901515815260200161021a565b34801561030557600080fd5b506101ee610314366004613cab565b61160f565b34801561032557600080fd5b506101ee610334366004613af4565b611a9e565b34801561034557600080fd5b50610359610354366004613cab565b611c0e565b60405161021a9493929190614183565b34801561037557600080fd5b50610389610384366004613cab565b611ce2565b60405161021a97969594939291906140ab565b3480156103a857600080fd5b506101ee611e80565b3480156103bd57600080fd5b506102e96103cc366004613df5565b61216d565b3480156103dd57600080fd5b506103f16103ec366004613bc6565b61219d565b6040516001600160a01b03909116815260200161021a565b34801561041557600080fd5b5061021060015481565b34801561042b57600080fd5b5061021060005481565b34801561044157600080fd5b506101ee610450366004613e19565b6123f6565b34801561046157600080fd5b506101ee610470366004613cfe565b61247a565b34801561048157600080fd5b506101ee610490366004613bf1565b6125ca565b3480156104a157600080fd5b50600054610210565b3480156104b657600080fd5b506101ee6104c5366004613cab565b6126ee565b3480156104d657600080fd5b5061270f610210565b3480156104eb57600080fd5b506102e96104fa366004613af4565b613234565b60008054908061050e83614454565b909155505060008054808252600560205260409091208261052d574292505b60008787878787604051602001610548959493929190613efd565b60408051601f19818403018152918152815160209283012060008181526004845291822080546001818101835582855294842001879055918190529054909250111561062357600081815260046020526040812080546105aa906002906143bf565b815481106105c857634e487b7160e01b600052603260045260246000fd5b90600052602060002001549050620151806005600083815260200190815260200160002060050154426105fb91906143bf565b106106215760405162461bcd60e51b8152600401610618906141bc565b60405180910390fd5b505b60008181526004602052604081205461063e906001906143bf565b6106499060026142d2565b61065b90678ac7230489e800006143a0565b60405163288c9c9d60e01b8152336004820152306024820152604481018290529091506000805160206144c28339815191529063288c9c9d90606401602060405180830381600087803b1580156106b157600080fd5b505af11580156106c5573d6000803e3d6000fd5b505050506040513d601f19601f820116820180604052508101906106e99190613c8f565b6107285760405162461bcd60e51b815260206004820152601060248201526f119959481b5d5cdd081899481c185a5960821b6044820152606401610618565b81835560008281526004602081905260409091205460018501554260028501554360038501558301819055610761600a84018888613992565b50600b830180546001600160a01b038b16640100000000810277ffffffffffffffffffffffffffffffffffffffffffffffff1990921660e08c901c1791909117909155600c840180546001600160a01b031916331790556000805160206144c28339815191521480610881575060405163699f200f60e01b81527fefa19baa864049f50491093580c5433e97e8d5e41f8db1a61108b4fa44cacd9360048201526000805160206144c28339815191529063699f200f90602401602060405180830381600087803b15801561083457600080fd5b505af1158015610848573d6000803e3d6000fd5b505050506040513d601f19601f8201168201806040525081019061086c9190613b17565b6001600160a01b0316896001600160a01b0316145b8061093a575060405163699f200f60e01b81527f1436a1a60dca0ebb2be98547e57992a0fa082eb479e7576303cbd384e934f1fa60048201526000805160206144c28339815191529063699f200f90602401602060405180830381600087803b1580156108ed57600080fd5b505af1158015610901573d6000803e3d6000fd5b505050506040513d601f19601f820116820180604052508101906109259190613b17565b6001600160a01b0316896001600160a01b0316145b806109f3575060405163699f200f60e01b81527ffa522e460446113e8fd353d7fa015625a68bc0369712213a42e006346440891e60048201526000805160206144c28339815191529063699f200f90602401602060405180830381600087803b1580156109a657600080fd5b505af11580156109ba573d6000803e3d6000fd5b505050506040513d601f19601f820116820180604052508101906109de9190613b17565b6001600160a01b0316896001600160a01b0316145b610a4b5760405162461bcd60e51b8152602060048201526024808201527f4d75737420696e7465726163742077697468207468652054656c6c6f722073796044820152637374656d60e01b6064820152608401610618565b6001600160e01b0319881660009081526003602052604090205460ff16610ab45760405162461bcd60e51b815260206004820152601960248201527f46756e6374696f6e206d75737420626520617070726f766564000000000000006044820152606401610618565b7f03cd1db94c84fbf802bb289f9fec190fc43fcb105eee5554433e8d642ceab1188989898988604051610aeb95949392919061400f565b60405180910390a1505050505050505050565b6000818152600760205260409020545b919050565b6001600160a01b038116600090815260026020526040812054819015610b9c57610b3d834361219d565b6001600160a01b03841660009081526002602052604090208054610b63906001906143bf565b81548110610b8157634e487b7160e01b600052603260045260246000fd5b90600052602060002090600202016001015491509150610ba3565b5060009050805b915091565b60405163699f200f60e01b81527ffa522e460446113e8fd353d7fa015625a68bc0369712213a42e006346440891e60048201526000906000805160206144c28339815191529063699f200f90602401602060405180830381600087803b158015610c1157600080fd5b505af1158015610c25573d6000803e3d6000fd5b505050506040513d601f19601f82011682018060405250810190610c499190613b17565b604051630935408d60e41b815260048101859052602481018490529091506001600160a01b0382169063935408d09060440160206040518083038186803b158015610c9357600080fd5b505afa158015610ca7573d6000803e3d6000fd5b505050506040513d601f19601f82011682018060405250810190610ccb9190613ddd565b610d0a5760405162461bcd60e51b815260206004820152601060248201526f04d696e656420626c6f636b20697320360841b6044820152606401610618565b60405163703e2a4360e11b815260048101849052602481018390526000906001600160a01b0383169063e07c54869060440160206040518083038186803b158015610d5457600080fd5b505afa158015610d68573d6000803e3d6000fd5b505050506040513d601f19601f82011682018060405250810190610d8c9190613b17565b905060008484604051602001610dac929190918252602082015260400190565b60408051601f1981840301815291905280516020909101206000805491925080610dd583614454565b90915550506000805482825260046020908152604083208054600181810183558286529285200183905592849052915490911015610e9d5760008281526004602052604081208054610e29906002906143bf565b81548110610e4757634e487b7160e01b600052603260045260246000fd5b9060005260206000200154905062015180600560008381526020019081526020016000206005015442610e7a91906143bf565b10610e975760405162461bcd60e51b8152600401610618906141bc565b50610fbd565b836001600160a01b0316633321fc416040518163ffffffff1660e01b815260040160206040518083038186803b158015610ed657600080fd5b505afa158015610eea573d6000803e3d6000fd5b505050506040513d601f19601f82011682018060405250810190610f0e9190613ddd565b610f1886426143bf565b10610f9d5760405162461bcd60e51b815260206004820152604960248201527f44697370757465206d75737420626520737461727465642077697468696e203160448201527f3220686f7572732e2e2e73616d65207661726961626c65206173207265706f7260648201526874696e67206c6f636b60b81b608482015260a401610618565b6000868152600760205260408120805491610fb783614454565b91905055505b6000818152600560209081526040808320600690925291829020888155600181018890559151630b2d2b0d60e01b815260048101899052602481018890529091906001600160a01b03871690630b2d2b0d9060440160006040518083038186803b15801561102a57600080fd5b505afa15801561103e573d6000803e3d6000fd5b505050506040513d6000823e601f3d908101601f191682016040526110669190810190613d34565b805161107c916002840191602090910190613a16565b50600380820180546001600160a01b0388166001600160a01b031991821617909155858455600c840180549091163317905543908301554260028301556000848152600460205260408120805460018581019190915560088501805462ff00001916620100001790559054141561118957600089815260076020526040902054611108906001906143bf565b6111139060026142d2565b60015461112091906143a0565b6040516316d7b73f60e21b8152600481018b9052602481018a90529091506001600160a01b03881690635b5edcfc90604401600060405180830381600087803b15801561116c57600080fd5b505af1158015611180573d6000803e3d6000fd5b505050506111bf565b6000858152600460205260409020546111a4906001906143bf565b6111af9060026142d2565b6001546111bc91906143a0565b90505b600a6111cc8260096143a0565b6111d6919061426c565b60048481019190915560405163288c9c9d60e01b81523391810191909152306024820152604481018290526000805160206144c28339815191529063288c9c9d90606401602060405180830381600087803b15801561123457600080fd5b505af1158015611248573d6000803e3d6000fd5b505050506040513d601f19601f8201168201806040525081019061126c9190613c8f565b6112ab5760405162461bcd60e51b815260206004820152601060248201526f119959481b5d5cdd081899481c185a5960821b6044820152606401610618565b866001600160a01b031663ef0234ad8a8560040154846112cb91906143bf565b604051806020016040528060008152506040518463ffffffff1660e01b81526004016112f99392919061415b565b600060405180830381600087803b15801561131357600080fd5b505af1158015611327573d6000803e3d6000fd5b505050506003820154604051630733bdef60e41b81526001600160a01b0390911660048201526000906000805160206144c28339815191529063733bdef090602401604080518083038186803b15801561138057600080fd5b505afa158015611394573d6000803e3d6000fd5b505050506040513d601f19601f820116820180604052508101906113b89190613e5a565b50905080600114156114e15760405163612c8f7f60e01b81526000805160206144e283398151915260048201526000906000805160206144c28339815191529063612c8f7f9060240160206040518083038186803b15801561141957600080fd5b505afa15801561142d573d6000803e3d6000fd5b505050506040513d601f19601f820116820180604052508101906114519190613ddd565b90506000805160206144c283398151915263740358e66000805160206144e28339815191526114816001856143bf565b6040516001600160e01b031960e085901b16815260048101929092526024820152604401600060405180830381600087803b1580156114bf57600080fd5b505af11580156114d3573d6000803e3d6000fd5b505050506114df611e80565b505b60405163284ccb1760e21b81526001600160a01b0388166004820152600360248201526000805160206144c28339815191529063a1332c5c90604401600060405180830381600087803b15801561153757600080fd5b505af115801561154b573d6000803e3d6000fd5b505060408051888152602081018e90529081018c90526001600160a01b038a1660608201527f12b7317353cd7caa8eae8057464e3de356c1429d814fb3421797eccb19043044925060800190505b60405180910390a150505050505050505050565b60008181526004602090815260409182902080548351818402810184019094528084526060939283018282801561160357602002820191906000526020600020905b8154815260200190600101908083116115ef575b50505050509050919050565b6000818152600560205260409020600881015460ff161561167c5760405162461bcd60e51b815260206004820152602160248201527f4469737075746520686173206265656e20616c726561647920657865637574656044820152601960fa1b6064820152608401610618565b6005810154156116d95760405162461bcd60e51b815260206004820152602260248201527f566f74652073686f756c64206e6f7420616c72656164792062652074616c6c69604482015261195960f21b6064820152608401610618565b6000548211156117215760405162461bcd60e51b8152602060048201526013602482015272159bdd1948191bd95cc81b9bdd08195e1a5cdd606a1b6044820152606401610618565b60088101546202a3009060009062010000900460ff16611745575062093a80905060055b8183600201544261175691906143bf565b116117a35760405162461bcd60e51b815260206004820152601f60248201527f54696d6520666f7220766f74696e6720686173206e6f7420656c6170736564006044820152606401610618565b82600601548360090154101580156117c357508260070154836009015410155b80156117d95750600883015462010000900460ff165b156117f45760088301805461ff001916610200179055611a22565b826007015483600601541115611a1457604051632d67853560e21b81527fe6148e7230ca038d456350e69a91b66968b222bfac9ebfbea6ff0a1fb7380160600482015260649082906000805160206144c28339815191529063b59e14d490602401602060405180830381600087803b15801561186f57600080fd5b505af1158015611883573d6000803e3d6000fd5b505050506040513d601f19601f820116820180604052508101906118a79190613ddd565b6118b191906143a0565b6118bb919061426c565b836006015410611a0f5760088301805461010061ff001990911617905560008481526006602052604080822060038101549151630733bdef60e41b81526001600160a01b03909216600483015291906000805160206144c28339815191529063733bdef090602401604080518083038186803b15801561193a57600080fd5b505afa15801561194e573d6000803e3d6000fd5b505050506040513d601f19601f820116820180604052508101906119729190613e5a565b50600886015490915062010000900460ff1680156119905750806003145b15611a0c57600382015460405163284ccb1760e21b81526001600160a01b0390911660048083019190915260248201526000805160206144c28339815191529063a1332c5c90604401600060405180830381600087803b1580156119f357600080fd5b505af1158015611a07573d6000803e3d6000fd5b505050505b50505b611a22565b60088301805461ff00191690555b4260058401556008830154600c840154600086815260066020526040908190206003015490517fa2d4e500801849d40ad00f0f12ba92a5263f83ec68946e647be95cfbe581c7b693611a9093899361010090920460ff16926001600160a01b0391821692919091169061421e565b60405180910390a150505050565b33600090815260026020526040902080541580611afb5750805443908290611ac8906001906143bf565b81548110611ae657634e487b7160e01b600052603260045260246000fd5b90600052602060002090600202016001015414155b15611b6d57604080518082019091526001600160a01b038381168252436fffffffffffffffffffffffffffffffff1660208084019182528454600180820187556000878152929092209451600290910290940180546001600160a01b0319169490931693909317825551910155611bc9565b80546000908290611b80906001906143bf565b81548110611b9e57634e487b7160e01b600052603260045260246000fd5b6000918252602090912060029091020180546001600160a01b0319166001600160a01b038516179055505b604080516001600160a01b03841681523360208201527f6ee10e9ed4d6ce9742703a498707862f4b00f1396a87195eb93267b3d7983981910160405180910390a15050565b6000818152600660205260408120805460018201546003830154600284018054869560609587959194909391926001600160a01b03909116908290611c5290614419565b80601f0160208091040260200160405190810160405280929190818152602001828054611c7e90614419565b8015611ccb5780601f10611ca057610100808354040283529160200191611ccb565b820191906000526020600020905b815481529060010190602001808311611cae57829003601f168201915b505050505091509450945094509450509193509193565b6000611cec613a8a565b611cf4613aa9565b600060606000611d02613aa9565b6000888152600560208181526040928390208054845161010080820187526001840154825260028401548286015260038401548288015260048401546060830152948301546080820152600683015460a0820152600783015460c0820152600983015460e08083019190915286518088018852600885015460ff808216151583526201000082048116151583890152600b8701548a51808c01909b526001600160a01b03640100000000820481168c52600c89015416988b0198909852600a87018054979a96999598939795909204169490939190921b91908390611de690614419565b80601f0160208091040260200160405190810160405280929190818152602001828054611e1290614419565b8015611e5f5780601f10611e3457610100808354040283529160200191611e5f565b820191906000526020600020905b815481529060010190602001808311611e4257829003601f168201915b50505050509250975097509750975097509750975050919395979092949650565b604051632d67853560e21b81527f5d9fadfc729fd027e395e5157ef1b53ef9fa4a8f053043c5f159307543e7cc9760048201526000906000805160206144c28339815191529063b59e14d490602401602060405180830381600087803b158015611ee957600080fd5b505af1158015611efd573d6000803e3d6000fd5b505050506040513d601f19601f82011682018060405250810190611f219190613ddd565b604051632d67853560e21b81527f0b8561044b4253c8df1d9ad9f9ce2e0f78e4bd42b2ed8dd2e909e85f750f3bc160048201529091506000906000805160206144c28339815191529063b59e14d490602401602060405180830381600087803b158015611f8d57600080fd5b505af1158015611fa1573d6000803e3d6000fd5b505050506040513d601f19601f82011682018060405250810190611fc59190613ddd565b604051632d67853560e21b81526000805160206144e283398151915260048201529091506000906000805160206144c28339815191529063b59e14d490602401602060405180830381600087803b15801561201f57600080fd5b505af1158015612033573d6000803e3d6000fd5b505050506040513d601f19601f820116820180604052508101906120579190613ddd565b604051632d67853560e21b81527f7335d16d7e7f6cb9f532376441907fe76aa2ea267285c82892601f4755ed15f060048201529091506000906000805160206144c28339815191529063b59e14d490602401602060405180830381600087803b1580156120c357600080fd5b505af11580156120d7573d6000803e3d6000fd5b505050506040513d601f19601f820116820180604052508101906120fb9190613ddd565b90506000821561213e576103e88461211385836143a0565b61211d85896143bf565b61212791906143a0565b612131919061426c565b61213b919061426c565b90505b61214882866143bf565b8110612158576001829055612166565b61216281866143bf565b6001555b5050505050565b60008281526005602090815260408083206001600160a01b0385168452600d0190915290205460ff165b92915050565b6001600160a01b0382166000908152600260205260408120805415806121f4575082816000815481106121e057634e487b7160e01b600052603260045260246000fd5b906000526020600020906002020160010154115b15612203576000915050612197565b80548190612213906001906143bf565b8154811061223157634e487b7160e01b600052603260045260246000fd5b906000526020600020906002020160010154831061229a5780548190612259906001906143bf565b8154811061227757634e487b7160e01b600052603260045260246000fd5b60009182526020909120600290910201546001600160a01b031691506121979050565b805460009081906122ad906002906143bf565b90505b818111156123b157600060026122c68484614254565b6122d1906001614254565b6122db919061426c565b9050858482815481106122fe57634e487b7160e01b600052603260045260246000fd5b906000526020600020906002020160010154141561235c5783818154811061233657634e487b7160e01b600052603260045260246000fd5b60009182526020909120600290910201546001600160a01b031694506121979350505050565b8584828154811061237d57634e487b7160e01b600052603260045260246000fd5b906000526020600020906002020160010154101561239d578092506123ab565b6123a86001826143bf565b91505b506122b0565b8282815481106123d157634e487b7160e01b600052603260045260246000fd5b60009182526020909120600290910201546001600160a01b0316935061219792505050565b60008381526005602052604081206003015461241390339061219d565b6001600160a01b0316146124695760405162461bcd60e51b815260206004820181905260248201527f74686520766f74652073686f756c64206e6f742062652064656c6567617465646044820152606401610618565b612475338484846132fe565b505050565b60405163699f200f60e01b81527fefa19baa864049f50491093580c5433e97e8d5e41f8db1a61108b4fa44cacd9360048201526000805160206144c28339815191529063699f200f90602401602060405180830381600087803b1580156124e057600080fd5b505af11580156124f4573d6000803e3d6000fd5b505050506040513d601f19601f820116820180604052508101906125189190613b17565b6001600160a01b0316336001600160a01b03161461259e5760405162461bcd60e51b815260206004820152603b60248201527f4f6e6c792074686520476f7665726e616e636520636f6e74726163742063616e60448201527f206368616e676520612066756e6374696f6e27732073746174757300000000006064820152608401610618565b6001600160e01b0319919091166000908152600360205260409020805460ff1916911515919091179055565b60005b848110156126e657336126258787848181106125f957634e487b7160e01b600052603260045260246000fd5b905060200201602081019061260e9190613af4565b60008781526005602052604090206003015461219d565b6001600160a01b0316146126945760405162461bcd60e51b815260206004820152603060248201527f53656e646572206973206e6f742064656c65676174656420746f20766f74652060448201526f666f722074686973206164647265737360801b6064820152608401610618565b6126d48686838181106126b757634e487b7160e01b600052603260045260246000fd5b90506020020160208101906126cc9190613af4565b8585856132fe565b806126de81614454565b9150506125cd565b505050505050565b6000818152600560205260408120905482111561274d5760405162461bcd60e51b815260206004820152601560248201527f566f7465204944206d7573742062652076616c696400000000000000000000006044820152606401610618565b600881015460ff16156127a25760405162461bcd60e51b815260206004820152601660248201527f566f746520686173206265656e206578656375746564000000000000000000006044820152606401610618565b60008160050154116127f65760405162461bcd60e51b815260206004820152601460248201527f566f7465206d7573742062652074616c6c6965640000000000000000000000006044820152606401610618565b60018101548154600090815260046020526040902054146128595760405162461bcd60e51b815260206004820152601660248201527f4d757374206265207468652066696e616c20766f7465000000000000000000006044820152606401610618565b600181015461286b90620151806143a0565b600582015461287a90426143bf565b10156128dc5760405162461bcd60e51b815260206004820152602b60248201527f566f7465206e6565647320746f2062652074616c6c69656420616e642074696d60448201526a65206d757374207061737360a81b6064820152608401610618565b60088101805460ff19166001179081905562010000900460ff16612a135760016008820154610100900460ff16600281111561292857634e487b7160e01b600052602160045260246000fd5b14156129c857600b8101546040516001600160a01b036401000000008304169160009160609184916129659160e01b90600a880190602001613f3f565b60408051601f198184030181529082905261297f91613ff3565b6000604051808303816000865af19150503d80600081146129bc576040519150601f19603f3d011682016040523d82523d6000602084013e6129c1565b606091505b5050505050505b60088101546040517f40d231bf91823121de9e1c012d95f835ea5684dc1d93360d9510a30543345da491612a06918591610100900460ff169061420a565b60405180910390a1613230565b600082815260066020908152604080832060018501548554855260049093529220541415612a5d5780546000908152600760205260408120805491612a5783614402565b91905055505b6000805160206144c283398151915260008060016008860154610100900460ff166002811115612a9d57634e487b7160e01b600052602160045260246000fd5b1415612c3657845460009081526004602052604090205491505b8115612c315784546000908152600460205260409020612ad86001846143bf565b81548110612af657634e487b7160e01b600052603260045260246000fd5b906000526020600020015490506005600082815260200190815260200160002094508160011415612b90576003840154600c86015460405163137f0a8d60e21b81526001600160a01b039283166004820152908216602482015290841690634dfc2a3490604401600060405180830381600087803b158015612b7757600080fd5b505af1158015612b8b573d6000803e3d6000fd5b505050505b600c85015460048087015460405163a9059cbb60e01b81526001600160a01b039384169281019290925260248201529084169063a9059cbb90604401602060405180830381600087803b158015612be657600080fd5b505af1158015612bfa573d6000803e3d6000fd5b505050506040513d601f19601f82011682018060405250810190612c1e9190613c8f565b5081612c2981614402565b925050612ab7565b6131d7565b60026008860154610100900460ff166002811115612c6457634e487b7160e01b600052602160045260246000fd5b1415612f0357845460009081526004602052604090205491505b8115612d825784546000908152600460205260409020612c9f6001846143bf565b81548110612cbd57634e487b7160e01b600052603260045260246000fd5b6000918252602080832091909101548083526005909152604091829020600c810154600480830154945163a9059cbb60e01b81526001600160a01b0392831691810191909152602481019490945290975090925084169063a9059cbb90604401602060405180830381600087803b158015612d3757600080fd5b505af1158015612d4b573d6000803e3d6000fd5b505050506040513d601f19601f82011682018060405250810190612d6f9190613c8f565b5081612d7a81614402565b925050612c7e565b60405163612c8f7f60e01b81526000805160206144e283398151915260048201526000906000805160206144c28339815191529063612c8f7f9060240160206040518083038186803b158015612dd757600080fd5b505afa158015612deb573d6000803e3d6000fd5b505050506040513d601f19601f82011682018060405250810190612e0f9190613ddd565b90506000805160206144c283398151915263740358e66000805160206144e2833981519152612e3f846001614254565b6040516001600160e01b031960e085901b16815260048101929092526024820152604401600060405180830381600087803b158015612e7d57600080fd5b505af1158015612e91573d6000803e3d6000fd5b50505050600385015460405163284ccb1760e21b81526001600160a01b039182166004820152600160248201529085169063a1332c5c90604401600060405180830381600087803b158015612ee557600080fd5b505af1158015612ef9573d6000803e3d6000fd5b50505050506131d7565b60006008860154610100900460ff166002811115612f3157634e487b7160e01b600052602160045260246000fd5b14156131d757845460009081526004602052604081205492505b8215612fd05785546000908152600460205260409020612f6c6001856143bf565b81548110612f8a57634e487b7160e01b600052603260045260246000fd5b90600052602060002001549150600560008381526020019081526020016000209550856004015481612fbc9190614254565b905082612fc881614402565b935050612f4b565b600385015460405163a9059cbb60e01b81526001600160a01b039182166004820152602481018390529085169063a9059cbb90604401602060405180830381600087803b15801561302057600080fd5b505af1158015613034573d6000803e3d6000fd5b505050506040513d601f19601f820116820180604052508101906130589190613c8f565b5060405163612c8f7f60e01b81526000805160206144e283398151915260048201526000906000805160206144c28339815191529063612c8f7f9060240160206040518083038186803b1580156130ae57600080fd5b505afa1580156130c2573d6000803e3d6000fd5b505050506040513d601f19601f820116820180604052508101906130e69190613ddd565b90506000805160206144c283398151915263740358e66000805160206144e28339815191526131166001856143bf565b6040516001600160e01b031960e085901b16815260048101929092526024820152604401600060405180830381600087803b15801561315457600080fd5b505af1158015613168573d6000803e3d6000fd5b50505050600386015460405163284ccb1760e21b81526001600160a01b039182166004820152600160248201529086169063a1332c5c90604401600060405180830381600087803b1580156131bc57600080fd5b505af11580156131d0573d6000803e3d6000fd5b5050505050505b600086815260056020526040908190206008015490517f40d231bf91823121de9e1c012d95f835ea5684dc1d93360d9510a30543345da491613223918991610100900460ff169061420a565b60405180910390a1505050505b5050565b60405163699f200f60e01b81527fefa19baa864049f50491093580c5433e97e8d5e41f8db1a61108b4fa44cacd9360048201526000906000805160206144c28339815191529063699f200f90602401602060405180830381600087803b15801561329d57600080fd5b505af11580156132b1573d6000803e3d6000fd5b505050506040513d601f19601f820116820180604052508101906132d59190613b17565b6001600160a01b0316826001600160a01b031614156132f657506001610b0e565b506000610b0e565b6000548311156133465760405162461bcd60e51b8152602060048201526013602482015272159bdd1948191bd95cc81b9bdd08195e1a5cdd606a1b6044820152606401610618565b600083815260056020819052604090912090810154156133a85760405162461bcd60e51b815260206004820152601d60248201527f566f74652068617320616c7265616479206265656e2074616c6c6965640000006044820152606401610618565b600381015460405163277166bf60e11b81526001600160a01b038716600482015260248101919091526000805160206144c2833981519152906000908290634ee2cd7e9060440160206040518083038186803b15801561340757600080fd5b505afa15801561341b573d6000803e3d6000fd5b505050506040513d601f19601f8201168201806040525081019061343f9190613ddd565b60405163699f200f60e01b81527ffa522e460446113e8fd353d7fa015625a68bc0369712213a42e006346440891e60048201529091506000906001600160a01b0384169063699f200f90602401602060405180830381600087803b1580156134a657600080fd5b505af11580156134ba573d6000803e3d6000fd5b505050506040513d601f19601f820116820180604052508101906134de9190613b17565b60405163699f200f60e01b81527f1436a1a60dca0ebb2be98547e57992a0fa082eb479e7576303cbd384e934f1fa60048201529091506000906001600160a01b0385169063699f200f90602401602060405180830381600087803b15801561354557600080fd5b505af1158015613559573d6000803e3d6000fd5b505050506040513d601f19601f8201168201806040525081019061357d9190613b17565b60405163770d458f60e01b81526001600160a01b038b811660048301529192509082169063770d458f9060240160206040518083038186803b1580156135c257600080fd5b505afa1580156135d6573d6000803e3d6000fd5b505050506040513d601f19601f820116820180604052508101906135fa9190613ddd565b6136049084614254565b604051631c3c149f60e11b81526001600160a01b038b8116600483015291945090831690633878293e9060240160206040518083038186803b15801561364957600080fd5b505afa15801561365d573d6000803e3d6000fd5b505050506040513d601f19601f820116820180604052508101906136819190613ddd565b61369390670de0b6b3a76400006143a0565b61369d9084614254565b604051635b9b761b60e11b81526001600160a01b038b811660048301529194509083169063b736ec369060240160206040518083038186803b1580156136e257600080fd5b505afa1580156136f6573d6000803e3d6000fd5b505050506040513d601f19601f8201168201806040525081019061371a9190613ddd565b6137249084614254565b604051630733bdef60e41b81526001600160a01b038b8116600483015291945060009186169063733bdef090602401604080518083038186803b15801561376a57600080fd5b505afa15801561377e573d6000803e3d6000fd5b505050506040513d601f19601f820116820180604052508101906137a29190613e5a565b50905080600314156137f65760405162461bcd60e51b815260206004820152601d60248201527f43616e6e6f7420766f7465206966206265696e672064697370757465640000006044820152606401610618565b6001600160a01b038a166000908152600d8701602052604090205460ff16156138615760405162461bcd60e51b815260206004820152601860248201527f53656e6465722068617320616c726561647920766f74656400000000000000006044820152606401610618565b600084116138a55760405162461bcd60e51b81526020600482015260116024820152700557365722062616c616e6365206973203607c1b6044820152606401610618565b6001600160a01b038a166000908152600d870160205260409020805460ff19166001179055600886015462010000900460ff1680156138e15750865b1561390557838660090160008282546138fa9190614254565b909155506139399050565b871561391f57838660060160008282546138fa9190614254565b838660070160008282546139339190614254565b90915550505b604080518a815289151560208201526001600160a01b038c16918101919091526060810185905287151560808201527f687119431787025fac8e5b4b0fc31f4cf9701bd16535c717e286c568c1dc83569060a001611599565b82805461399e90614419565b90600052602060002090601f0160209004810192826139c05760008555613a06565b82601f106139d95782800160ff19823516178555613a06565b82800160010185558215613a06579182015b82811115613a065782358255916020019190600101906139eb565b50613a12929150613ac7565b5090565b828054613a2290614419565b90600052602060002090601f016020900481019282613a445760008555613a06565b82601f10613a5d57805160ff1916838001178555613a06565b82800160010185558215613a06579182015b82811115613a06578251825591602001919060010190613a6f565b6040518061010001604052806008906020820280368337509192915050565b60405180604001604052806002906020820280368337509192915050565b5b80821115613a125760008155600101613ac8565b80356001600160e01b031981168114610b0e57600080fd5b600060208284031215613b05578081fd5b8135613b108161449b565b9392505050565b600060208284031215613b28578081fd5b8151613b108161449b565b600080600080600060808688031215613b4a578081fd5b8535613b558161449b565b9450613b6360208701613adc565b9350604086013567ffffffffffffffff80821115613b7f578283fd5b818801915088601f830112613b92578283fd5b813581811115613ba0578384fd5b896020828501011115613bb1578384fd5b96999598505060200195606001359392505050565b60008060408385031215613bd8578182fd5b8235613be38161449b565b946020939093013593505050565b600080600080600060808688031215613c08578081fd5b853567ffffffffffffffff80821115613c1f578283fd5b818801915088601f830112613c32578283fd5b813581811115613c40578384fd5b8960208260051b8501011115613c54578384fd5b6020928301975095505086013592506040860135613c71816144b3565b91506060860135613c81816144b3565b809150509295509295909350565b600060208284031215613ca0578081fd5b8151613b10816144b3565b600060208284031215613cbc578081fd5b5035919050565b60008060408385031215613cd5578182fd5b50508035926020909101359150565b600060208284031215613cf5578081fd5b613b1082613adc565b60008060408385031215613d10578182fd5b613d1983613adc565b91506020830135613d29816144b3565b809150509250929050565b600060208284031215613d45578081fd5b815167ffffffffffffffff80821115613d5c578283fd5b818401915084601f830112613d6f578283fd5b815181811115613d8157613d81614485565b604051601f8201601f19908116603f01168101908382118183101715613da957613da9614485565b81604052828152876020848701011115613dc1578586fd5b613dd28360208301602088016143d6565b979650505050505050565b600060208284031215613dee578081fd5b5051919050565b60008060408385031215613e07578182fd5b823591506020830135613d298161449b565b600080600060608486031215613e2d578081fd5b833592506020840135613e3f816144b3565b91506040840135613e4f816144b3565b809150509250925092565b60008060408385031215613e6c578182fd5b505080516020909101519092909150565b8060005b6002811015613ea95781516001600160a01b0316845260209384019390910190600101613e81565b50505050565b60008151808452613ec78160208601602086016143d6565b601f01601f19169290920160200192915050565b60038110613ef957634e487b7160e01b600052602160045260246000fd5b9052565b606086901b6bffffffffffffffffffffffff191681526001600160e01b0319851660148201526000838560188401375060189201918201526038019392505050565b6001600160e01b03198316815281546000906004908290600181811c9080831680613f6b57607f831692505b6020808410821415613f8a57634e487b7160e01b885260228752602488fd5b818015613f9e5760018114613fb357613fe3565b60ff1986168a890152848a0188019650613fe3565b60008b815260209020895b86811015613fd95781548c82018b0152908501908301613fbe565b505087858b010196505b50949a9950505050505050505050565b600082516140058184602087016143d6565b9190910192915050565b60006001600160a01b038716825263ffffffff60e01b8616602083015260806040830152836080830152838560a08401378060a0858401015260a0601f19601f86011683010190508260608301529695505050505050565b6020808252825182820181905260009190848201906040850190845b8181101561409f57835183529284019291840191600101614083565b50909695505050505050565b600061020089835260208084018a845b60088110156140d8578151835291830191908301906001016140bb565b505050610120840189845b60028110156141025781511515835291830191908301906001016140e3565b50505050614114610160840188613edb565b8061018084015261412781840187613eaf565b9150506141416101a08301856001600160e01b0319169052565b61414f6101c0830184613e7d565b98975050505050505050565b60008482528360208301526060604083015261417a6060830184613eaf565b95945050505050565b6000858252846020830152608060408301526141a26080830185613eaf565b90506001600160a01b038316606083015295945050505050565b6020808252602e908201527f4e6577206469737075746520726f756e64206d7573742062652073746172746560408201526d642077697468696e20612064617960901b606082015260800190565b82815260408101613b106020830184613edb565b848152608081016142326020830186613edb565b6001600160a01b03808516604084015280841660608401525095945050505050565b600082198211156142675761426761446f565b500190565b60008261428757634e487b7160e01b81526012600452602481fd5b500490565b80825b600180861161429e57506142c9565b8187048211156142b0576142b061446f565b808616156142bd57918102915b9490941c93800261428f565b94509492505050565b6000613b1060001984846000826142eb57506001613b10565b816142f857506000613b10565b816001811461430e576002811461431857614345565b6001915050613b10565b60ff8411156143295761432961446f565b6001841b91508482111561433f5761433f61446f565b50613b10565b5060208310610133831016604e8410600b8410161715614378575081810a838111156143735761437361446f565b613b10565b614385848484600161428c565b8086048211156143975761439761446f565b02949350505050565b60008160001904831182151516156143ba576143ba61446f565b500290565b6000828210156143d1576143d161446f565b500390565b60005b838110156143f15781810151838201526020016143d9565b83811115613ea95750506000910152565b6000816144115761441161446f565b506000190190565b600181811c9082168061442d57607f821691505b6020821081141561444e57634e487b7160e01b600052602260045260246000fd5b50919050565b60006000198214156144685761446861446f565b5060010190565b634e487b7160e01b600052601160045260246000fd5b634e487b7160e01b600052604160045260246000fd5b6001600160a01b03811681146144b057600080fd5b50565b80151581146144b057600080fdfe00000000000000000000000088df592f8eb5d7bd38bfef7deb0fbc02cf3778a010c168823622203e4057b65015ff4d95b4c650b308918e8c92dc32ab5a0a034ba26469706673582212202b5e16cd5fe8b20acd1cdb88bb7ffbb70cbd49d763e764caa76f7d09c5a057f164736f6c63430008030033",
  "linkReferences": {},
  "deployedLinkReferences": {}
}