{
  "abi": [
    {
      "inputs": [
        {
          "internalType": "address",
          "name": "_implementation",
          "type": "address"
        }
      ],
      "stateMutability": "nonpayable",
      "type": "constructor"
    },
    {
      "inputs": [],
      "name": "implementation",
      "outputs": [
        {
          "internalType": "address",
          "name": "",
          "type": "address"
        }
      ],
      "stateMutability": "view",
      "type": "function"
    },
    {
      "inputs": [],
      "name": "pauseBridge",
      "outputs": [],
      "stateMutability": "nonpayable",
      "type": "function"
    },
    {
      "inputs": [],
      "name": "paused",
      "outputs": [
        {
          "internalType": "bool",
          "name": "",
          "type": "bool"
        }
      ],
      "stateMutability": "view",
      "type": "function"
    },
    {
      "inputs": [],
      "name": "unpauseBridge",
      "outputs": [],
      "stateMutability": "nonpayable",
      "type": "function"
    },
    {
      "inputs": [
        {
          "internalType": "address",
          "name": "_newImplementation",
          "type": "address"
        }
      ],
      "name": "updateImplementation",
      "outputs": [],
      "stateMutability": "nonpayable",
      "type": "function"
    }
  ],
  "bytecode": {
    "object": "0x608060405234801561001057600080fd5b5060405161020138038061020183398101604081905261002f91610054565b600080546001600160a01b0319166001600160a01b0392909216919091179055610082565b600060208284031215610065578081fd5b81516001600160a01b038116811461007b578182fd5b9392505050565b610170806100916000396000f3fe608060405234801561001057600080fd5b50600436106100575760003560e01c8063025b22bc1461005c5780635c60da1b1461008e5780635c975abb146100be5780637dd0480f146100e2578063a82f143c146100fa575b600080fd5b61008c61006a36600461010c565b600080546001600160a01b0319166001600160a01b0392909216919091179055565b005b6000546100a1906001600160a01b031681565b6040516001600160a01b0390911681526020015b60405180910390f35b6000546100d290600160a01b900460ff1681565b60405190151581526020016100b5565b61008c6000805460ff60a01b1916600160a01b179055565b61008c6000805460ff60a01b19169055565b60006020828403121561011d578081fd5b81356001600160a01b0381168114610133578182fd5b939250505056fea26469706673582212205d8576ddcde12048d233ebf08382b5d939dc504b6634ad92b07de2871a5be94064736f6c63430008030033",
    "linkReferences": {}
  },
  "methodIdentifiers": {
    "implementation()": "5c60da1b",
    "pauseBridge()": "7dd0480f",
    "paused()": "5c975abb",
    "unpauseBridge()": "a82f143c",
    "updateImplementation(address)": "025b22bc"
  },
  "id": 20
}