{
  "abi": [
    {
      "inputs": [
        {
          "internalType": "address",
          "name": "_implementation",
          "type": "address"
        }
      ],
      "stateMutability": "nonpayable",
      "type": "constructor"
    },
    {
      "inputs": [],
      "name": "implementation",
      "outputs": [
        {
          "internalType": "address",
          "name": "",
          "type": "address"
        }
      ],
      "stateMutability": "view",
      "type": "function"
    },
    {
      "inputs": [
        {
          "internalType": "address",
          "name": "_newImplementation",
          "type": "address"
        }
      ],
      "name": "updateImplementation",
      "outputs": [],
      "stateMutability": "nonpayable",
      "type": "function"
    }
  ],
  "bytecode": {
    "object": "0x608060405234801561001057600080fd5b5060405161018638038061018683398101604081905261002f91610054565b600080546001600160a01b0319166001600160a01b0392909216919091179055610082565b600060208284031215610065578081fd5b81516001600160a01b038116811461007b578182fd5b9392505050565b60f6806100906000396000f3fe6080604052348015600f57600080fd5b506004361060325760003560e01c8063025b22bc1460375780635c60da1b146066575b600080fd5b606460423660046094565b600080546001600160a01b0319166001600160a01b0392909216919091179055565b005b6000546078906001600160a01b031681565b6040516001600160a01b03909116815260200160405180910390f35b60006020828403121560a4578081fd5b81356001600160a01b038116811460b9578182fd5b939250505056fea2646970667358221220adb51339798fc7469e12169f6ea73f1e51baeb8fd27a2cdca7dca39a7c451cf564736f6c63430008030033",
    "linkReferences": {}
  },
  "methodIdentifiers": {
    "implementation()": "5c60da1b",
    "updateImplementation(address)": "025b22bc"
  },
  "id": 20
}