{
  "_format": "hh-sol-artifact-1",
  "contractName": "UsingTellor",
  "sourceName": "contracts/tellor360/oldContracts/contracts/testing/UsingTellor.sol",
  "abi": [
    {
      "inputs": [
        {
          "internalType": "address payable",
          "name": "_tellor",
          "type": "address"
        }
      ],
      "stateMutability": "nonpayable",
      "type": "constructor"
    },
    {
      "inputs": [
        {
          "internalType": "uint256",
          "name": "_requestId",
          "type": "uint256"
        }
      ],
      "name": "getCurrentValue",
      "outputs": [
        {
          "internalType": "bool",
          "name": "ifRetrieve",
          "type": "bool"
        },
        {
          "internalType": "uint256",
          "name": "value",
          "type": "uint256"
        },
        {
          "internalType": "uint256",
          "name": "_timestampRetrieved",
          "type": "uint256"
        }
      ],
      "stateMutability": "view",
      "type": "function"
    },
    {
      "inputs": [
        {
          "internalType": "uint256",
          "name": "_requestId",
          "type": "uint256"
        },
        {
          "internalType": "uint256",
          "name": "_timestamp",
          "type": "uint256"
        }
      ],
      "name": "getDataBefore",
      "outputs": [
        {
          "internalType": "bool",
          "name": "_ifRetrieve",
          "type": "bool"
        },
        {
          "internalType": "uint256",
          "name": "_value",
          "type": "uint256"
        },
        {
          "internalType": "uint256",
          "name": "_timestampRetrieved",
          "type": "uint256"
        }
      ],
      "stateMutability": "view",
      "type": "function"
    },
    {
      "inputs": [
        {
          "internalType": "uint256",
          "name": "_requestId",
          "type": "uint256"
        },
        {
          "internalType": "uint256",
          "name": "_timestamp",
          "type": "uint256"
        }
      ],
      "name": "getIndexForDataBefore",
      "outputs": [
        {
          "internalType": "bool",
          "name": "found",
          "type": "bool"
        },
        {
          "internalType": "uint256",
          "name": "index",
          "type": "uint256"
        }
      ],
      "stateMutability": "view",
      "type": "function"
    },
    {
      "inputs": [
        {
          "internalType": "uint256",
          "name": "_requestId",
          "type": "uint256"
        }
      ],
      "name": "getNewValueCountbyRequestId",
      "outputs": [
        {
          "internalType": "uint256",
          "name": "",
          "type": "uint256"
        }
      ],
      "stateMutability": "view",
      "type": "function"
    },
    {
      "inputs": [
        {
          "internalType": "uint256",
          "name": "_requestId",
          "type": "uint256"
        },
        {
          "internalType": "uint256",
          "name": "_index",
          "type": "uint256"
        }
      ],
      "name": "getTimestampbyRequestIDandIndex",
      "outputs": [
        {
          "internalType": "uint256",
          "name": "",
          "type": "uint256"
        }
      ],
      "stateMutability": "view",
      "type": "function"
    },
    {
      "inputs": [
        {
          "internalType": "uint256",
          "name": "_requestId",
          "type": "uint256"
        },
        {
          "internalType": "uint256",
          "name": "_timestamp",
          "type": "uint256"
        }
      ],
      "name": "isInDispute",
      "outputs": [
        {
          "internalType": "bool",
          "name": "",
          "type": "bool"
        }
      ],
      "stateMutability": "view",
      "type": "function"
    },
    {
      "inputs": [
        {
          "internalType": "uint256",
          "name": "_requestId",
          "type": "uint256"
        },
        {
          "internalType": "uint256",
          "name": "_timestamp",
          "type": "uint256"
        }
      ],
      "name": "retrieveData",
      "outputs": [
        {
          "internalType": "uint256",
          "name": "",
          "type": "uint256"
        }
      ],
      "stateMutability": "view",
      "type": "function"
    }
  ],
  "bytecode": "0x608060405234801561001057600080fd5b50604051610c1f380380610c1f83398101604081905261002f91610054565b600080546001600160a01b0319166001600160a01b0392909216919091179055610082565b600060208284031215610065578081fd5b81516001600160a01b038116811461007b578182fd5b9392505050565b610b8e806100916000396000f3fe608060405234801561001057600080fd5b506004361061007d5760003560e01c806366b446111161005b57806366b44611146100fb57806377fbb6631461010e57806393fa491514610121578063b73e4979146101345761007d565b80633df0777b146100825780633fcad964146100aa57806346eee1c4146100da575b600080fd5b610095610090366004610ad2565b61015e565b60405190151581526020015b60405180910390f35b6100bd6100b8366004610aa2565b6101e9565b6040805193151584526020840192909252908201526060016100a1565b6100ed6100e8366004610aa2565b6103b3565b6040519081526020016100a1565b6100bd610109366004610ad2565b610436565b6100ed61011c366004610ad2565b610597565b6100ed61012f366004610ad2565b61061c565b610147610142366004610ad2565b610655565b6040805192151583526020830191909152016100a1565b60008054604051633df0777b60e01b815260048101859052602481018490526001600160a01b0390911690633df0777b9060440160206040518083038186803b1580156101aa57600080fd5b505afa1580156101be573d6000803e3d6000fd5b505050506040513d601f19601f820116820180604052508101906101e29190610a82565b9392505050565b600080546040516311bbb87160e21b8152600481018490528291829182916001600160a01b0316906346eee1c49060240160206040518083038186803b15801561023257600080fd5b505afa158015610246573d6000803e3d6000fd5b505050506040513d601f19601f8201168201806040525081019061026a9190610aba565b60008054919250906001600160a01b03166377fbb6638761028c600186610b2b565b6040516001600160e01b031960e085901b1681526004810192909252602482015260440160206040518083038186803b1580156102c857600080fd5b505afa1580156102dc573d6000803e3d6000fd5b505050506040513d601f19601f820116820180604052508101906103009190610aba565b600080546040516393fa491560e01b8152600481018a90526024810184905292935090916001600160a01b03909116906393fa49159060440160206040518083038186803b15801561035157600080fd5b505afa158015610365573d6000803e3d6000fd5b505050506040513d601f19601f820116820180604052508101906103899190610aba565b905080156103a05760019550935091506103ac9050565b50600094508493509150505b9193909250565b600080546040516311bbb87160e21b8152600481018490526001600160a01b03909116906346eee1c49060240160206040518083038186803b1580156103f857600080fd5b505afa15801561040c573d6000803e3d6000fd5b505050506040513d601f19601f820116820180604052508101906104309190610aba565b92915050565b60008060008060006104488787610655565b91509150816104635760008060009450945094505050610590565b600080546040516377fbb66360e01b8152600481018a9052602481018490526001600160a01b03909116906377fbb6639060440160206040518083038186803b1580156104af57600080fd5b505afa1580156104c3573d6000803e3d6000fd5b505050506040513d601f19601f820116820180604052508101906104e79190610aba565b6000546040516393fa491560e01b8152600481018b9052602481018390529192506001600160a01b0316906393fa49159060440160206040518083038186803b15801561053357600080fd5b505afa158015610547573d6000803e3d6000fd5b505050506040513d601f19601f8201168201806040525081019061056b9190610aba565b9450841561058157600195509250610590915050565b60008060009550955095505050505b9250925092565b600080546040516377fbb66360e01b815260048101859052602481018490526001600160a01b03909116906377fbb663906044015b60206040518083038186803b1580156105e457600080fd5b505afa1580156105f8573d6000803e3d6000fd5b505050506040513d601f19601f820116820180604052508101906101e29190610aba565b600080546040516393fa491560e01b815260048101859052602481018490526001600160a01b03909116906393fa4915906044016105cc565b600080546040516311bbb87160e21b815260048101859052829182916001600160a01b03909116906346eee1c49060240160206040518083038186803b15801561069e57600080fd5b505afa1580156106b2573d6000803e3d6000fd5b505050506040513d601f19601f820116820180604052508101906106d69190610aba565b90508015610a7257600080806106ed600185610b2b565b600080546040516377fbb66360e01b8152600481018c90526024810186905292935090916001600160a01b03909116906377fbb6639060440160206040518083038186803b15801561073e57600080fd5b505afa158015610752573d6000803e3d6000fd5b505050506040513d601f19601f820116820180604052508101906107769190610aba565b905087811061079057600080965096505050505050610a7b565b6000546040516377fbb66360e01b8152600481018b9052602481018490526001600160a01b03909116906377fbb6639060440160206040518083038186803b1580156107db57600080fd5b505afa1580156107ef573d6000803e3d6000fd5b505050506040513d601f19601f820116820180604052508101906108139190610aba565b90508781101561082d5750600195509350610a7b92505050565b82600261083a8285610b2b565b6108449190610b0b565b61084f906001610af3565b6108599190610af3565b6000546040516377fbb66360e01b8152600481018c9052602481018390529195506001600160a01b0316906377fbb6639060440160206040518083038186803b1580156108a557600080fd5b505afa1580156108b9573d6000803e3d6000fd5b505050506040513d601f19601f820116820180604052508101906108dd9190610aba565b9050878110156109a757600080546001600160a01b03166377fbb6638b610905886001610af3565b6040516001600160e01b031960e085901b1681526004810192909252602482015260440160206040518083038186803b15801561094157600080fd5b505afa158015610955573d6000803e3d6000fd5b505050506040513d601f19601f820116820180604052508101906109799190610aba565b90508881106109945760018597509750505050505050610a7b565b61099f856001610af3565b935050610a6d565b600080546001600160a01b03166377fbb6638b6109c5600189610b2b565b6040516001600160e01b031960e085901b1681526004810192909252602482015260440160206040518083038186803b158015610a0157600080fd5b505afa158015610a15573d6000803e3d6000fd5b505050506040513d601f19601f82011682018060405250810190610a399190610aba565b905088811015610a5e576001610a4f8187610b2b565b97509750505050505050610a7b565b610a69600186610b2b565b9250505b61082d565b60008092509250505b9250929050565b600060208284031215610a93578081fd5b815180151581146101e2578182fd5b600060208284031215610ab3578081fd5b5035919050565b600060208284031215610acb578081fd5b5051919050565b60008060408385031215610ae4578081fd5b50508035926020909101359150565b60008219821115610b0657610b06610b42565b500190565b600082610b2657634e487b7160e01b81526012600452602481fd5b500490565b600082821015610b3d57610b3d610b42565b500390565b634e487b7160e01b600052601160045260246000fdfea2646970667358221220fce11447f736a56feba499c307c6ca608c06d8f83b1b9eeb3bceebee9cccabd364736f6c63430008030033",
  "linkReferences": {},
  "deployedLinkReferences": {}
}